{
  "abi": [
    {
      "inputs": [
        {
          "internalType": "address",
          "name": "_token",
          "type": "address"
        },
        {
          "internalType": "address",
          "name": "_NFTAddress",
          "type": "address"
        }
      ],
      "stateMutability": "nonpayable",
      "type": "constructor"
    },
    {
      "anonymous": false,
      "inputs": [
        {
          "indexed": true,
          "internalType": "address",
          "name": "tokenOperator",
          "type": "address"
        },
        {
          "indexed": false,
          "internalType": "uint256",
          "name": "amount",
          "type": "uint256"
        }
      ],
      "name": "DrainTower",
      "type": "event"
    },
    {
      "anonymous": false,
      "inputs": [
        {
          "indexed": false,
          "internalType": "address",
          "name": "tokenOperator",
          "type": "address"
        }
      ],
      "name": "NewOperator",
      "type": "event"
    },
    {
      "anonymous": false,
      "inputs": [
        {
          "indexed": true,
          "internalType": "address",
          "name": "previousOwner",
          "type": "address"
        },
        {
          "indexed": true,
          "internalType": "address",
          "name": "newOwner",
          "type": "address"
        }
      ],
      "name": "OwnershipTransferred",
      "type": "event"
    },
    {
      "anonymous": false,
      "inputs": [
        {
          "indexed": true,
          "internalType": "address",
          "name": "staker",
          "type": "address"
        },
        {
          "indexed": false,
          "internalType": "uint256",
          "name": "totalAmount",
          "type": "uint256"
        }
      ],
      "name": "Withdraw",
      "type": "event"
    },
    {
      "inputs": [],
      "name": "DA",
      "outputs": [
        {
          "internalType": "uint256",
          "name": "",
          "type": "uint256"
        }
      ],
      "stateMutability": "view",
      "type": "function"
    },
    {
      "inputs": [],
      "name": "NFT",
      "outputs": [
        {
          "internalType": "contract IERC721",
          "name": "",
          "type": "address"
        }
      ],
      "stateMutability": "view",
      "type": "function"
    },
    {
      "inputs": [],
      "name": "activeFloors",
      "outputs": [
        {
          "internalType": "uint256",
          "name": "",
          "type": "uint256"
        }
      ],
      "stateMutability": "view",
      "type": "function"
    },
    {
      "inputs": [
        {
          "internalType": "uint256",
          "name": "_wizardId",
          "type": "uint256"
        }
      ],
      "name": "claimFloor",
      "outputs": [
        {
          "internalType": "uint256",
          "name": "",
          "type": "uint256"
        }
      ],
      "stateMutability": "nonpayable",
      "type": "function"
    },
    {
      "inputs": [
        {
          "internalType": "uint16[]",
          "name": "_floorPlans",
          "type": "uint16[]"
        }
      ],
      "name": "createFloorPlans",
      "outputs": [],
      "stateMutability": "nonpayable",
      "type": "function"
    },
    {
      "inputs": [],
      "name": "drainTower",
      "outputs": [],
      "stateMutability": "nonpayable",
      "type": "function"
    },
    {
      "inputs": [
        {
          "internalType": "uint256",
          "name": "_floor",
          "type": "uint256"
        }
      ],
      "name": "floorBalance",
      "outputs": [
        {
          "internalType": "uint256",
          "name": "",
          "type": "uint256"
        }
      ],
      "stateMutability": "view",
      "type": "function"
    },
    {
      "inputs": [
        {
          "internalType": "uint256",
          "name": "",
          "type": "uint256"
        }
      ],
      "name": "floorIdToInfo",
      "outputs": [
        {
          "internalType": "uint16",
          "name": "floorPower",
          "type": "uint16"
        },
        {
          "internalType": "uint40",
          "name": "lastWithdrawalTimestamp",
          "type": "uint40"
        },
        {
          "internalType": "uint16",
          "name": "occupyingWizardId",
          "type": "uint16"
        },
        {
          "internalType": "enum RelativeTimeVault.ELEMENT",
          "name": "element",
          "type": "uint8"
        }
      ],
      "stateMutability": "view",
      "type": "function"
    },
    {
      "inputs": [
        {
          "internalType": "uint256",
          "name": "",
          "type": "uint256"
        }
      ],
      "name": "floorPlans",
      "outputs": [
        {
          "internalType": "uint16",
          "name": "begin",
          "type": "uint16"
        },
        {
          "internalType": "uint16",
          "name": "end",
          "type": "uint16"
        }
      ],
      "stateMutability": "view",
      "type": "function"
    },
    {
      "inputs": [
        {
          "internalType": "uint256",
          "name": "_floor",
          "type": "uint256"
        }
      ],
      "name": "floorPower",
      "outputs": [
        {
          "internalType": "uint256",
          "name": "",
          "type": "uint256"
        }
      ],
      "stateMutability": "view",
      "type": "function"
    },
    {
      "inputs": [],
      "name": "owner",
      "outputs": [
        {
          "internalType": "address",
          "name": "",
          "type": "address"
        }
      ],
      "stateMutability": "view",
      "type": "function"
    },
    {
      "inputs": [],
      "name": "renounceOwnership",
      "outputs": [],
      "stateMutability": "nonpayable",
      "type": "function"
    },
    {
      "inputs": [],
      "name": "token",
      "outputs": [
        {
          "internalType": "contract IERC20",
          "name": "",
          "type": "address"
        }
      ],
      "stateMutability": "view",
      "type": "function"
    },
    {
      "inputs": [],
      "name": "tokenOperator",
      "outputs": [
        {
          "internalType": "address",
          "name": "",
          "type": "address"
        }
      ],
      "stateMutability": "view",
      "type": "function"
    },
    {
      "inputs": [
        {
          "internalType": "address",
          "name": "newOwner",
          "type": "address"
        }
      ],
      "name": "transferOwnership",
      "outputs": [],
      "stateMutability": "nonpayable",
      "type": "function"
    },
    {
      "inputs": [
        {
          "internalType": "address",
          "name": "newOperator",
          "type": "address"
        }
      ],
      "name": "updateOperator",
      "outputs": [],
      "stateMutability": "nonpayable",
      "type": "function"
    },
    {
      "inputs": [
        {
          "internalType": "uint256",
          "name": "_floor",
          "type": "uint256"
        }
      ],
      "name": "withdraw",
      "outputs": [],
      "stateMutability": "nonpayable",
      "type": "function"
    },
    {
      "inputs": [
        {
          "internalType": "uint256",
          "name": "",
          "type": "uint256"
        }
      ],
      "name": "wizardIdToFloor",
      "outputs": [
        {
          "internalType": "uint256",
          "name": "",
          "type": "uint256"
        }
      ],
      "stateMutability": "view",
      "type": "function"
    }
  ],
  "bytecode": "6080604052600060055534801561001557600080fd5b50604051620013a6380380620013a6833981016040819052610036916100f7565b600160005561004433610089565b600280546001600160a01b039384166001600160a01b03199182161790915560038054929093169181169190911790915560078054909116331790554260065561012a565b600180546001600160a01b038381166001600160a01b0319831681179093556040519116919082907f8be0079c531659141344cd1fd0a4f28419497f9722a3daafe3b4186f6b6457e090600090a35050565b80516001600160a01b03811681146100f257600080fd5b919050565b6000806040838503121561010a57600080fd5b610113836100db565b9150610121602084016100db565b90509250929050565b61126c806200013a6000396000f3fe608060405234801561001057600080fd5b50600436106101165760003560e01c8063944d934b116100a2578063c891c62a11610071578063c891c62a1461028c578063e737b86e14610294578063ee545e68146102a7578063f2fde38b146102ba578063fc0c546a146102cd57600080fd5b8063944d934b1461023357806395ac8af914610246578063ac7475ed14610266578063bf79c0471461027957600080fd5b80635685cb2e116100e95780635685cb2e146101845780636794614314610197578063715018a6146101ef5780637c0b8de2146101f75780638da5cb5b1461022257600080fd5b80630c3957811461011b5780632e1a7d4d146101385780633cdd03981461014d5780635259a3ae14610156575b600080fd5b610125620f424081565b6040519081526020015b60405180910390f35b61014b610146366004610ee2565b6102e0565b005b61012560055481565b610169610164366004610ee2565b61050c565b6040805161ffff93841681529290911660208301520161012f565b610125610192366004610ee2565b61053b565b6101df6101a5366004610ee2565b60086020526000908152604090205461ffff8082169162010000810464ffffffffff1691600160381b82041690600160481b900460ff1684565b60405161012f9493929190610f11565b61014b61073f565b60035461020a906001600160a01b031681565b6040516001600160a01b03909116815260200161012f565b6001546001600160a01b031661020a565b610125610241366004610ee2565b610775565b610125610254366004610ee2565b60096020526000908152604090205481565b61014b610274366004610f5e565b610786565b61014b610287366004610fb4565b61085a565b61014b6109c5565b60075461020a906001600160a01b031681565b6101256102b5366004610ee2565b610b26565b61014b6102c8366004610f5e565b610c31565b60025461020a906001600160a01b031681565b600260005414156103385760405162461bcd60e51b815260206004820152601f60248201527f5265656e7472616e637947756172643a207265656e7472616e742063616c6c0060448201526064015b60405180910390fd5b6002600055600061034882610ccc565b6002546040516370a0823160e01b815230600482015291925082916001600160a01b03909116906370a0823190602401602060405180830381865afa158015610395573d6000803e3d6000fd5b505050506040513d601f19601f820116820180604052508101906103b99190611079565b10156104125760405162461bcd60e51b815260206004820152602260248201527f4e6f7420656e6f7567682062616c616e636520696e2074686520636f6e74726160448201526118dd60f21b606482015260840161032f565b60008281526008602052604090819020805466ffffffffff00001916620100004264ffffffffff1602179055600254905163a9059cbb60e01b8152336004820152602481018390526001600160a01b039091169063a9059cbb906044016020604051808303816000875af115801561048e573d6000803e3d6000fd5b505050506040513d601f19601f820116820180604052508101906104b29190611092565b6104ce5760405162461bcd60e51b815260040161032f906110b4565b60405181815233907f884edad9ce6fa2440d8a54cc123490eb96d2768479d49ff9c7366125a94243649060200160405180910390a250506001600055565b600a818154811061051c57600080fd5b60009182526020909120015461ffff8082169250620100009091041682565b6000818152600960205260408120541561058a5760405162461bcd60e51b815260206004820152601060248201526f30b63932b0b23c9031b630b4b6b2b21760811b604482015260640161032f565b60016005600082825461059d9190611116565b909155506105cb90506040805160808101825260008082526020820181905291810182905290606082015290565b64ffffffffff429081166020808401919091526005546040516004936106169333920192835260609190911b6bffffffffffffffffffffffff19166020830152603482015260540190565b6040516020818303038152906040528051906020012060001c6106399190611144565b600381111561064a5761064a610efb565b8160600190600381111561066057610660610efb565b9081600381111561067357610673610efb565b90525061ffff80841660408084019182526005546000878152600960209081528382208390559181526008825291909120845181549286015193518516600160381b0268ffff000000000000001964ffffffffff909516620100000266ffffffffffffff19909416919095161791909117918216831781556060840151849391929091839169ff0000000000000000001990911669ffffff000000000000001990911617600160481b83600381111561072e5761072e610efb565b021790555050600554949350505050565b6001546001600160a01b031633146107695760405162461bcd60e51b815260040161032f90611158565b6107736000610e57565b565b600061078082610ccc565b92915050565b6001546001600160a01b031633146107b05760405162461bcd60e51b815260040161032f90611158565b6001600160a01b0381166108065760405162461bcd60e51b815260206004820152601860248201527f496e76616c6964206f70657261746f7220616464726573730000000000000000604482015260640161032f565b600780546001600160a01b0319166001600160a01b0383169081179091556040519081527fda12ee837e6978172aaf54b16145ffe08414fd8710092ef033c71b8eb6ec189a9060200160405180910390a150565b6001546001600160a01b031633146108845760405162461bcd60e51b815260040161032f90611158565b80511580159061089f57506002815161089d9190611144565b155b6108e05760405162461bcd60e51b815260206004820152601260248201527134b73b30b634b210333637b7b910383630b760711b604482015260640161032f565b6108ec600a6000610ea9565b604080518082019091526000808252602082015260005b82518110156109c05782818151811061091e5761091e61118d565b602090810291909101015161ffff1682528261093b826001611116565b8151811061094b5761094b61118d565b60209081029190910181015161ffff908116918401918252600a805460018101825560009190915284517fc65a7bb8d6351c1cf70c95a316cc6a92839c986682d98bc35f958f4883f9d2a8909101805493518316620100000263ffffffff199094169190921617919091179055600201610903565b505050565b6001546001600160a01b031633146109ef5760405162461bcd60e51b815260040161032f90611158565b6002546040516370a0823160e01b81523060048201526000916001600160a01b0316906370a0823190602401602060405180830381865afa158015610a38573d6000803e3d6000fd5b505050506040513d601f19601f82011682018060405250810190610a5c9190611079565b60025460405163a9059cbb60e01b8152336004820152602481018390529192506001600160a01b03169063a9059cbb906044016020604051808303816000875af1158015610aae573d6000803e3d6000fd5b505050506040513d601f19601f82011682018060405250810190610ad29190611092565b610aee5760405162461bcd60e51b815260040161032f906110b4565b60405181815233907f0d52e6a96125965761d3461ff1f2c72df610ab6bc2584ac9f076b45b585f049f9060200160405180910390a250565b60008060005b600a54811015610c0d5783600a8281548110610b4a57610b4a61118d565b60009182526020909120015461ffff1611801590610b905750600a8181548110610b7657610b7661118d565b60009182526020909120015462010000900461ffff168411155b15610c0557600a8181548110610ba857610ba861118d565b600091825260209091200154600a805461ffff9092169183908110610bcf57610bcf61118d565b600091825260209091200154610bef919062010000900461ffff166111a3565b610bfa9060016111c6565b61ffff169150610c0d565b600101610b2c565b5080600554620f4240610c2091906111ec565b610c2a91906111ec565b9392505050565b6001546001600160a01b03163314610c5b5760405162461bcd60e51b815260040161032f90611158565b6001600160a01b038116610cc05760405162461bcd60e51b815260206004820152602660248201527f4f776e61626c653a206e6577206f776e657220697320746865207a65726f206160448201526564647265737360d01b606482015260840161032f565b610cc981610e57565b50565b60006005548210610cdc57600080fd5b60008281526008602090815260408083208151608081018352815461ffff808216835262010000820464ffffffffff1695830195909552600160381b81049094169281019290925290916060830190600160481b900460ff166003811115610d4657610d46610efb565b6003811115610d5757610d57610efb565b8152505090506000816020015164ffffffffff16600014610d8357816020015164ffffffffff16610d87565b6006545b9050620f424060055460065442610d9e9190611200565b610da89190611217565b6002546040516370a0823160e01b81523060048201526001600160a01b03909116906370a0823190602401602060405180830381865afa158015610df0573d6000803e3d6000fd5b505050506040513d601f19601f82011682018060405250810190610e149190611079565b610e1d87610b26565b610e278542611200565b610e319190611217565b610e3b9190611217565b610e4591906111ec565b610e4f91906111ec565b949350505050565b600180546001600160a01b038381166001600160a01b0319831681179093556040519116919082907f8be0079c531659141344cd1fd0a4f28419497f9722a3daafe3b4186f6b6457e090600090a35050565b5080546000825590600052602060002090810190610cc991905b80821115610ede57805463ffffffff19168155600101610ec3565b5090565b600060208284031215610ef457600080fd5b5035919050565b634e487b7160e01b600052602160045260246000fd5b61ffff858116825264ffffffffff85166020830152831660408201526080810160048310610f4f57634e487b7160e01b600052602160045260246000fd5b82606083015295945050505050565b600060208284031215610f7057600080fd5b81356001600160a01b0381168114610c2a57600080fd5b634e487b7160e01b600052604160045260246000fd5b803561ffff81168114610faf57600080fd5b919050565b60006020808385031215610fc757600080fd5b823567ffffffffffffffff80821115610fdf57600080fd5b818501915085601f830112610ff357600080fd5b81358181111561100557611005610f87565b8060051b604051601f19603f8301168101818110858211171561102a5761102a610f87565b60405291825284820192508381018501918883111561104857600080fd5b938501935b8285101561106d5761105e85610f9d565b8452938501939285019261104d565b98975050505050505050565b60006020828403121561108b57600080fd5b5051919050565b6000602082840312156110a457600080fd5b81518015158114610c2a57600080fd5b6020808252602c908201527f556e61626c6520746f207472616e7366657220746f6b656e206261636b20746f60408201526b081d1a19481858d8dbdd5b9d60a21b606082015260800190565b634e487b7160e01b600052601160045260246000fd5b6000821982111561112957611129611100565b500190565b634e487b7160e01b600052601260045260246000fd5b6000826111535761115361112e565b500690565b6020808252818101527f4f776e61626c653a2063616c6c6572206973206e6f7420746865206f776e6572604082015260600190565b634e487b7160e01b600052603260045260246000fd5b600061ffff838116908316818110156111be576111be611100565b039392505050565b600061ffff8083168185168083038211156111e3576111e3611100565b01949350505050565b6000826111fb576111fb61112e565b500490565b60008282101561121257611212611100565b500390565b600081600019048311821515161561123157611231611100565b50029056fea2646970667358221220524e6f511922fbd065b27dbdbb11bd0bb24bf36db34236374116a4ff3a372e8d64736f6c634300080c0033",
  "bytecodeSha1": "33bc05d2d26aaa4af13c3f4fe7bcb03cbbaca683",
  "compiler": {
    "evm_version": "istanbul",
    "optimizer": {
      "enabled": true,
      "runs": 200
    },
    "version": "0.8.12+commit.f00d7308"
  },
  "contractName": "RelativeTimeVault",
  "language": "Solidity",
  "natspec": {
    "kind": "dev",
    "methods": {
      "owner()": {
        "details": "Returns the address of the current owner."
      },
      "renounceOwnership()": {
        "details": "Leaves the contract without owner. It will not be possible to call `onlyOwner` functions anymore. Can only be called by the current owner. NOTE: Renouncing ownership will leave the contract without an owner, thereby removing any functionality that is only available to the owner."
      },
      "transferOwnership(address)": {
        "details": "Transfers ownership of the contract to a new account (`newOwner`). Can only be called by the current owner."
      }
    },
    "version": 1
  },
  "opcodes": "PUSH1 0x80 PUSH1 0x40 MSTORE CALLVALUE DUP1 ISZERO PUSH2 0x10 JUMPI PUSH1 0x0 DUP1 REVERT JUMPDEST POP PUSH1 0x4 CALLDATASIZE LT PUSH2 0x116 JUMPI PUSH1 0x0 CALLDATALOAD PUSH1 0xE0 SHR DUP1 PUSH4 0x944D934B GT PUSH2 0xA2 JUMPI DUP1 PUSH4 0xC891C62A GT PUSH2 0x71 JUMPI DUP1 PUSH4 0xC891C62A EQ PUSH2 0x28C JUMPI DUP1 PUSH4 0xE737B86E EQ PUSH2 0x294 JUMPI DUP1 PUSH4 0xEE545E68 EQ PUSH2 0x2A7 JUMPI DUP1 PUSH4 0xF2FDE38B EQ PUSH2 0x2BA JUMPI DUP1 PUSH4 0xFC0C546A EQ PUSH2 0x2CD JUMPI PUSH1 0x0 DUP1 REVERT JUMPDEST DUP1 PUSH4 0x944D934B EQ PUSH2 0x233 JUMPI DUP1 PUSH4 0x95AC8AF9 EQ PUSH2 0x246 JUMPI DUP1 PUSH4 0xAC7475ED EQ PUSH2 0x266 JUMPI DUP1 PUSH4 0xBF79C047 EQ PUSH2 0x279 JUMPI PUSH1 0x0 DUP1 REVERT JUMPDEST DUP1 PUSH4 0x5685CB2E GT PUSH2 0xE9 JUMPI DUP1 PUSH4 0x5685CB2E EQ PUSH2 0x184 JUMPI DUP1 PUSH4 0x67946143 EQ PUSH2 0x197 JUMPI DUP1 PUSH4 0x715018A6 EQ PUSH2 0x1EF JUMPI DUP1 PUSH4 0x7C0B8DE2 EQ PUSH2 0x1F7 JUMPI DUP1 PUSH4 0x8DA5CB5B EQ PUSH2 0x222 JUMPI PUSH1 0x0 DUP1 REVERT JUMPDEST DUP1 PUSH4 0xC395781 EQ PUSH2 0x11B JUMPI DUP1 PUSH4 0x2E1A7D4D EQ PUSH2 0x138 JUMPI DUP1 PUSH4 0x3CDD0398 EQ PUSH2 0x14D JUMPI DUP1 PUSH4 0x5259A3AE EQ PUSH2 0x156 JUMPI JUMPDEST PUSH1 0x0 DUP1 REVERT JUMPDEST PUSH2 0x125 PUSH3 0xF4240 DUP2 JUMP JUMPDEST PUSH1 0x40 MLOAD SWAP1 DUP2 MSTORE PUSH1 0x20 ADD JUMPDEST PUSH1 0x40 MLOAD DUP1 SWAP2 SUB SWAP1 RETURN JUMPDEST PUSH2 0x14B PUSH2 0x146 CALLDATASIZE PUSH1 0x4 PUSH2 0xEE2 JUMP JUMPDEST PUSH2 0x2E0 JUMP JUMPDEST STOP JUMPDEST PUSH2 0x125 PUSH1 0x5 SLOAD DUP2 JUMP JUMPDEST PUSH2 0x169 PUSH2 0x164 CALLDATASIZE PUSH1 0x4 PUSH2 0xEE2 JUMP JUMPDEST PUSH2 0x50C JUMP JUMPDEST PUSH1 0x40 DUP1 MLOAD PUSH2 0xFFFF SWAP4 DUP5 AND DUP2 MSTORE SWAP3 SWAP1 SWAP2 AND PUSH1 0x20 DUP4 ADD MSTORE ADD PUSH2 0x12F JUMP JUMPDEST PUSH2 0x125 PUSH2 0x192 CALLDATASIZE PUSH1 0x4 PUSH2 0xEE2 JUMP JUMPDEST PUSH2 0x53B JUMP JUMPDEST PUSH2 0x1DF PUSH2 0x1A5 CALLDATASIZE PUSH1 0x4 PUSH2 0xEE2 JUMP JUMPDEST PUSH1 0x8 PUSH1 0x20 MSTORE PUSH1 0x0 SWAP1 DUP2 MSTORE PUSH1 0x40 SWAP1 KECCAK256 SLOAD PUSH2 0xFFFF DUP1 DUP3 AND SWAP2 PUSH3 0x10000 DUP2 DIV PUSH5 0xFFFFFFFFFF AND SWAP2 PUSH1 0x1 PUSH1 0x38 SHL DUP3 DIV AND SWAP1 PUSH1 0x1 PUSH1 0x48 SHL SWAP1 DIV PUSH1 0xFF AND DUP5 JUMP JUMPDEST PUSH1 0x40 MLOAD PUSH2 0x12F SWAP5 SWAP4 SWAP3 SWAP2 SWAP1 PUSH2 0xF11 JUMP JUMPDEST PUSH2 0x14B PUSH2 0x73F JUMP JUMPDEST PUSH1 0x3 SLOAD PUSH2 0x20A SWAP1 PUSH1 0x1 PUSH1 0x1 PUSH1 0xA0 SHL SUB AND DUP2 JUMP JUMPDEST PUSH1 0x40 MLOAD PUSH1 0x1 PUSH1 0x1 PUSH1 0xA0 SHL SUB SWAP1 SWAP2 AND DUP2 MSTORE PUSH1 0x20 ADD PUSH2 0x12F JUMP JUMPDEST PUSH1 0x1 SLOAD PUSH1 0x1 PUSH1 0x1 PUSH1 0xA0 SHL SUB AND PUSH2 0x20A JUMP JUMPDEST PUSH2 0x125 PUSH2 0x241 CALLDATASIZE PUSH1 0x4 PUSH2 0xEE2 JUMP JUMPDEST PUSH2 0x775 JUMP JUMPDEST PUSH2 0x125 PUSH2 0x254 CALLDATASIZE PUSH1 0x4 PUSH2 0xEE2 JUMP JUMPDEST PUSH1 0x9 PUSH1 0x20 MSTORE PUSH1 0x0 SWAP1 DUP2 MSTORE PUSH1 0x40 SWAP1 KECCAK256 SLOAD DUP2 JUMP JUMPDEST PUSH2 0x14B PUSH2 0x274 CALLDATASIZE PUSH1 0x4 PUSH2 0xF5E JUMP JUMPDEST PUSH2 0x786 JUMP JUMPDEST PUSH2 0x14B PUSH2 0x287 CALLDATASIZE PUSH1 0x4 PUSH2 0xFB4 JUMP JUMPDEST PUSH2 0x85A JUMP JUMPDEST PUSH2 0x14B PUSH2 0x9C5 JUMP JUMPDEST PUSH1 0x7 SLOAD PUSH2 0x20A SWAP1 PUSH1 0x1 PUSH1 0x1 PUSH1 0xA0 SHL SUB AND DUP2 JUMP JUMPDEST PUSH2 0x125 PUSH2 0x2B5 CALLDATASIZE PUSH1 0x4 PUSH2 0xEE2 JUMP JUMPDEST PUSH2 0xB26 JUMP JUMPDEST PUSH2 0x14B PUSH2 0x2C8 CALLDATASIZE PUSH1 0x4 PUSH2 0xF5E JUMP JUMPDEST PUSH2 0xC31 JUMP JUMPDEST PUSH1 0x2 SLOAD PUSH2 0x20A SWAP1 PUSH1 0x1 PUSH1 0x1 PUSH1 0xA0 SHL SUB AND DUP2 JUMP JUMPDEST PUSH1 0x2 PUSH1 0x0 SLOAD EQ ISZERO PUSH2 0x338 JUMPI PUSH1 0x40 MLOAD PUSH3 0x461BCD PUSH1 0xE5 SHL DUP2 MSTORE PUSH1 0x20 PUSH1 0x4 DUP3 ADD MSTORE PUSH1 0x1F PUSH1 0x24 DUP3 ADD MSTORE PUSH32 0x5265656E7472616E637947756172643A207265656E7472616E742063616C6C00 PUSH1 0x44 DUP3 ADD MSTORE PUSH1 0x64 ADD JUMPDEST PUSH1 0x40 MLOAD DUP1 SWAP2 SUB SWAP1 REVERT JUMPDEST PUSH1 0x2 PUSH1 0x0 SSTORE PUSH1 0x0 PUSH2 0x348 DUP3 PUSH2 0xCCC JUMP JUMPDEST PUSH1 0x2 SLOAD PUSH1 0x40 MLOAD PUSH4 0x70A08231 PUSH1 0xE0 SHL DUP2 MSTORE ADDRESS PUSH1 0x4 DUP3 ADD MSTORE SWAP2 SWAP3 POP DUP3 SWAP2 PUSH1 0x1 PUSH1 0x1 PUSH1 0xA0 SHL SUB SWAP1 SWAP2 AND SWAP1 PUSH4 0x70A08231 SWAP1 PUSH1 0x24 ADD PUSH1 0x20 PUSH1 0x40 MLOAD DUP1 DUP4 SUB DUP2 DUP7 GAS STATICCALL ISZERO DUP1 ISZERO PUSH2 0x395 JUMPI RETURNDATASIZE PUSH1 0x0 DUP1 RETURNDATACOPY RETURNDATASIZE PUSH1 0x0 REVERT JUMPDEST POP POP POP POP PUSH1 0x40 MLOAD RETURNDATASIZE PUSH1 0x1F NOT PUSH1 0x1F DUP3 ADD AND DUP3 ADD DUP1 PUSH1 0x40 MSTORE POP DUP2 ADD SWAP1 PUSH2 0x3B9 SWAP2 SWAP1 PUSH2 0x1079 JUMP JUMPDEST LT ISZERO PUSH2 0x412 JUMPI PUSH1 0x40 MLOAD PUSH3 0x461BCD PUSH1 0xE5 SHL DUP2 MSTORE PUSH1 0x20 PUSH1 0x4 DUP3 ADD MSTORE PUSH1 0x22 PUSH1 0x24 DUP3 ADD MSTORE PUSH32 0x4E6F7420656E6F7567682062616C616E636520696E2074686520636F6E747261 PUSH1 0x44 DUP3 ADD MSTORE PUSH2 0x18DD PUSH1 0xF2 SHL PUSH1 0x64 DUP3 ADD MSTORE PUSH1 0x84 ADD PUSH2 0x32F JUMP JUMPDEST PUSH1 0x0 DUP3 DUP2 MSTORE PUSH1 0x8 PUSH1 0x20 MSTORE PUSH1 0x40 SWAP1 DUP2 SWAP1 KECCAK256 DUP1 SLOAD PUSH7 0xFFFFFFFFFF0000 NOT AND PUSH3 0x10000 TIMESTAMP PUSH5 0xFFFFFFFFFF AND MUL OR SWAP1 SSTORE PUSH1 0x2 SLOAD SWAP1 MLOAD PUSH4 0xA9059CBB PUSH1 0xE0 SHL DUP2 MSTORE CALLER PUSH1 0x4 DUP3 ADD MSTORE PUSH1 0x24 DUP2 ADD DUP4 SWAP1 MSTORE PUSH1 0x1 PUSH1 0x1 PUSH1 0xA0 SHL SUB SWAP1 SWAP2 AND SWAP1 PUSH4 0xA9059CBB SWAP1 PUSH1 0x44 ADD PUSH1 0x20 PUSH1 0x40 MLOAD DUP1 DUP4 SUB DUP2 PUSH1 0x0 DUP8 GAS CALL ISZERO DUP1 ISZERO PUSH2 0x48E JUMPI RETURNDATASIZE PUSH1 0x0 DUP1 RETURNDATACOPY RETURNDATASIZE PUSH1 0x0 REVERT JUMPDEST POP POP POP POP PUSH1 0x40 MLOAD RETURNDATASIZE PUSH1 0x1F NOT PUSH1 0x1F DUP3 ADD AND DUP3 ADD DUP1 PUSH1 0x40 MSTORE POP DUP2 ADD SWAP1 PUSH2 0x4B2 SWAP2 SWAP1 PUSH2 0x1092 JUMP JUMPDEST PUSH2 0x4CE JUMPI PUSH1 0x40 MLOAD PUSH3 0x461BCD PUSH1 0xE5 SHL DUP2 MSTORE PUSH1 0x4 ADD PUSH2 0x32F SWAP1 PUSH2 0x10B4 JUMP JUMPDEST PUSH1 0x40 MLOAD DUP2 DUP2 MSTORE CALLER SWAP1 PUSH32 0x884EDAD9CE6FA2440D8A54CC123490EB96D2768479D49FF9C7366125A9424364 SWAP1 PUSH1 0x20 ADD PUSH1 0x40 MLOAD DUP1 SWAP2 SUB SWAP1 LOG2 POP POP PUSH1 0x1 PUSH1 0x0 SSTORE JUMP JUMPDEST PUSH1 0xA DUP2 DUP2 SLOAD DUP2 LT PUSH2 0x51C JUMPI PUSH1 0x0 DUP1 REVERT JUMPDEST PUSH1 0x0 SWAP2 DUP3 MSTORE PUSH1 0x20 SWAP1 SWAP2 KECCAK256 ADD SLOAD PUSH2 0xFFFF DUP1 DUP3 AND SWAP3 POP PUSH3 0x10000 SWAP1 SWAP2 DIV AND DUP3 JUMP JUMPDEST PUSH1 0x0 DUP2 DUP2 MSTORE PUSH1 0x9 PUSH1 0x20 MSTORE PUSH1 0x40 DUP2 KECCAK256 SLOAD ISZERO PUSH2 0x58A JUMPI PUSH1 0x40 MLOAD PUSH3 0x461BCD PUSH1 0xE5 SHL DUP2 MSTORE PUSH1 0x20 PUSH1 0x4 DUP3 ADD MSTORE PUSH1 0x10 PUSH1 0x24 DUP3 ADD MSTORE PUSH16 0x30B63932B0B23C9031B630B4B6B2B217 PUSH1 0x81 SHL PUSH1 0x44 DUP3 ADD MSTORE PUSH1 0x64 ADD PUSH2 0x32F JUMP JUMPDEST PUSH1 0x1 PUSH1 0x5 PUSH1 0x0 DUP3 DUP3 SLOAD PUSH2 0x59D SWAP2 SWAP1 PUSH2 0x1116 JUMP JUMPDEST SWAP1 SWAP2 SSTORE POP PUSH2 0x5CB SWAP1 POP PUSH1 0x40 DUP1 MLOAD PUSH1 0x80 DUP2 ADD DUP3 MSTORE PUSH1 0x0 DUP1 DUP3 MSTORE PUSH1 0x20 DUP3 ADD DUP2 SWAP1 MSTORE SWAP2 DUP2 ADD DUP3 SWAP1 MSTORE SWAP1 PUSH1 0x60 DUP3 ADD MSTORE SWAP1 JUMP JUMPDEST PUSH5 0xFFFFFFFFFF TIMESTAMP SWAP1 DUP2 AND PUSH1 0x20 DUP1 DUP5 ADD SWAP2 SWAP1 SWAP2 MSTORE PUSH1 0x5 SLOAD PUSH1 0x40 MLOAD PUSH1 0x4 SWAP4 PUSH2 0x616 SWAP4 CALLER SWAP3 ADD SWAP3 DUP4 MSTORE PUSH1 0x60 SWAP2 SWAP1 SWAP2 SHL PUSH12 0xFFFFFFFFFFFFFFFFFFFFFFFF NOT AND PUSH1 0x20 DUP4 ADD MSTORE PUSH1 0x34 DUP3 ADD MSTORE PUSH1 0x54 ADD SWAP1 JUMP JUMPDEST PUSH1 0x40 MLOAD PUSH1 0x20 DUP2 DUP4 SUB SUB DUP2 MSTORE SWAP1 PUSH1 0x40 MSTORE DUP1 MLOAD SWAP1 PUSH1 0x20 ADD KECCAK256 PUSH1 0x0 SHR PUSH2 0x639 SWAP2 SWAP1 PUSH2 0x1144 JUMP JUMPDEST PUSH1 0x3 DUP2 GT ISZERO PUSH2 0x64A JUMPI PUSH2 0x64A PUSH2 0xEFB JUMP JUMPDEST DUP2 PUSH1 0x60 ADD SWAP1 PUSH1 0x3 DUP2 GT ISZERO PUSH2 0x660 JUMPI PUSH2 0x660 PUSH2 0xEFB JUMP JUMPDEST SWAP1 DUP2 PUSH1 0x3 DUP2 GT ISZERO PUSH2 0x673 JUMPI PUSH2 0x673 PUSH2 0xEFB JUMP JUMPDEST SWAP1 MSTORE POP PUSH2 0xFFFF DUP1 DUP5 AND PUSH1 0x40 DUP1 DUP5 ADD SWAP2 DUP3 MSTORE PUSH1 0x5 SLOAD PUSH1 0x0 DUP8 DUP2 MSTORE PUSH1 0x9 PUSH1 0x20 SWAP1 DUP2 MSTORE DUP4 DUP3 KECCAK256 DUP4 SWAP1 SSTORE SWAP2 DUP2 MSTORE PUSH1 0x8 DUP3 MSTORE SWAP2 SWAP1 SWAP2 KECCAK256 DUP5 MLOAD DUP2 SLOAD SWAP3 DUP7 ADD MLOAD SWAP4 MLOAD DUP6 AND PUSH1 0x1 PUSH1 0x38 SHL MUL PUSH9 0xFFFF00000000000000 NOT PUSH5 0xFFFFFFFFFF SWAP1 SWAP6 AND PUSH3 0x10000 MUL PUSH7 0xFFFFFFFFFFFFFF NOT SWAP1 SWAP5 AND SWAP2 SWAP1 SWAP6 AND OR SWAP2 SWAP1 SWAP2 OR SWAP2 DUP3 AND DUP4 OR DUP2 SSTORE PUSH1 0x60 DUP5 ADD MLOAD DUP5 SWAP4 SWAP2 SWAP3 SWAP1 SWAP2 DUP4 SWAP2 PUSH10 0xFF000000000000000000 NOT SWAP1 SWAP2 AND PUSH10 0xFFFFFF00000000000000 NOT SWAP1 SWAP2 AND OR PUSH1 0x1 PUSH1 0x48 SHL DUP4 PUSH1 0x3 DUP2 GT ISZERO PUSH2 0x72E JUMPI PUSH2 0x72E PUSH2 0xEFB JUMP JUMPDEST MUL OR SWAP1 SSTORE POP POP PUSH1 0x5 SLOAD SWAP5 SWAP4 POP POP POP POP JUMP JUMPDEST PUSH1 0x1 SLOAD PUSH1 0x1 PUSH1 0x1 PUSH1 0xA0 SHL SUB AND CALLER EQ PUSH2 0x769 JUMPI PUSH1 0x40 MLOAD PUSH3 0x461BCD PUSH1 0xE5 SHL DUP2 MSTORE PUSH1 0x4 ADD PUSH2 0x32F SWAP1 PUSH2 0x1158 JUMP JUMPDEST PUSH2 0x773 PUSH1 0x0 PUSH2 0xE57 JUMP JUMPDEST JUMP JUMPDEST PUSH1 0x0 PUSH2 0x780 DUP3 PUSH2 0xCCC JUMP JUMPDEST SWAP3 SWAP2 POP POP JUMP JUMPDEST PUSH1 0x1 SLOAD PUSH1 0x1 PUSH1 0x1 PUSH1 0xA0 SHL SUB AND CALLER EQ PUSH2 0x7B0 JUMPI PUSH1 0x40 MLOAD PUSH3 0x461BCD PUSH1 0xE5 SHL DUP2 MSTORE PUSH1 0x4 ADD PUSH2 0x32F SWAP1 PUSH2 0x1158 JUMP JUMPDEST PUSH1 0x1 PUSH1 0x1 PUSH1 0xA0 SHL SUB DUP2 AND PUSH2 0x806 JUMPI PUSH1 0x40 MLOAD PUSH3 0x461BCD PUSH1 0xE5 SHL DUP2 MSTORE PUSH1 0x20 PUSH1 0x4 DUP3 ADD MSTORE PUSH1 0x18 PUSH1 0x24 DUP3 ADD MSTORE PUSH32 0x496E76616C6964206F70657261746F7220616464726573730000000000000000 PUSH1 0x44 DUP3 ADD MSTORE PUSH1 0x64 ADD PUSH2 0x32F JUMP JUMPDEST PUSH1 0x7 DUP1 SLOAD PUSH1 0x1 PUSH1 0x1 PUSH1 0xA0 SHL SUB NOT AND PUSH1 0x1 PUSH1 0x1 PUSH1 0xA0 SHL SUB DUP4 AND SWAP1 DUP2 OR SWAP1 SWAP2 SSTORE PUSH1 0x40 MLOAD SWAP1 DUP2 MSTORE PUSH32 0xDA12EE837E6978172AAF54B16145FFE08414FD8710092EF033C71B8EB6EC189A SWAP1 PUSH1 0x20 ADD PUSH1 0x40 MLOAD DUP1 SWAP2 SUB SWAP1 LOG1 POP JUMP JUMPDEST PUSH1 0x1 SLOAD PUSH1 0x1 PUSH1 0x1 PUSH1 0xA0 SHL SUB AND CALLER EQ PUSH2 0x884 JUMPI PUSH1 0x40 MLOAD PUSH3 0x461BCD PUSH1 0xE5 SHL DUP2 MSTORE PUSH1 0x4 ADD PUSH2 0x32F SWAP1 PUSH2 0x1158 JUMP JUMPDEST DUP1 MLOAD ISZERO DUP1 ISZERO SWAP1 PUSH2 0x89F JUMPI POP PUSH1 0x2 DUP2 MLOAD PUSH2 0x89D SWAP2 SWAP1 PUSH2 0x1144 JUMP JUMPDEST ISZERO JUMPDEST PUSH2 0x8E0 JUMPI PUSH1 0x40 MLOAD PUSH3 0x461BCD PUSH1 0xE5 SHL DUP2 MSTORE PUSH1 0x20 PUSH1 0x4 DUP3 ADD MSTORE PUSH1 0x12 PUSH1 0x24 DUP3 ADD MSTORE PUSH18 0x34B73B30B634B210333637B7B910383630B7 PUSH1 0x71 SHL PUSH1 0x44 DUP3 ADD MSTORE PUSH1 0x64 ADD PUSH2 0x32F JUMP JUMPDEST PUSH2 0x8EC PUSH1 0xA PUSH1 0x0 PUSH2 0xEA9 JUMP JUMPDEST PUSH1 0x40 DUP1 MLOAD DUP1 DUP3 ADD SWAP1 SWAP2 MSTORE PUSH1 0x0 DUP1 DUP3 MSTORE PUSH1 0x20 DUP3 ADD MSTORE PUSH1 0x0 JUMPDEST DUP3 MLOAD DUP2 LT ISZERO PUSH2 0x9C0 JUMPI DUP3 DUP2 DUP2 MLOAD DUP2 LT PUSH2 0x91E JUMPI PUSH2 0x91E PUSH2 0x118D JUMP JUMPDEST PUSH1 0x20 SWAP1 DUP2 MUL SWAP2 SWAP1 SWAP2 ADD ADD MLOAD PUSH2 0xFFFF AND DUP3 MSTORE DUP3 PUSH2 0x93B DUP3 PUSH1 0x1 PUSH2 0x1116 JUMP JUMPDEST DUP2 MLOAD DUP2 LT PUSH2 0x94B JUMPI PUSH2 0x94B PUSH2 0x118D JUMP JUMPDEST PUSH1 0x20 SWAP1 DUP2 MUL SWAP2 SWAP1 SWAP2 ADD DUP2 ADD MLOAD PUSH2 0xFFFF SWAP1 DUP2 AND SWAP2 DUP5 ADD SWAP2 DUP3 MSTORE PUSH1 0xA DUP1 SLOAD PUSH1 0x1 DUP2 ADD DUP3 SSTORE PUSH1 0x0 SWAP2 SWAP1 SWAP2 MSTORE DUP5 MLOAD PUSH32 0xC65A7BB8D6351C1CF70C95A316CC6A92839C986682D98BC35F958F4883F9D2A8 SWAP1 SWAP2 ADD DUP1 SLOAD SWAP4 MLOAD DUP4 AND PUSH3 0x10000 MUL PUSH4 0xFFFFFFFF NOT SWAP1 SWAP5 AND SWAP2 SWAP1 SWAP3 AND OR SWAP2 SWAP1 SWAP2 OR SWAP1 SSTORE PUSH1 0x2 ADD PUSH2 0x903 JUMP JUMPDEST POP POP POP JUMP JUMPDEST PUSH1 0x1 SLOAD PUSH1 0x1 PUSH1 0x1 PUSH1 0xA0 SHL SUB AND CALLER EQ PUSH2 0x9EF JUMPI PUSH1 0x40 MLOAD PUSH3 0x461BCD PUSH1 0xE5 SHL DUP2 MSTORE PUSH1 0x4 ADD PUSH2 0x32F SWAP1 PUSH2 0x1158 JUMP JUMPDEST PUSH1 0x2 SLOAD PUSH1 0x40 MLOAD PUSH4 0x70A08231 PUSH1 0xE0 SHL DUP2 MSTORE ADDRESS PUSH1 0x4 DUP3 ADD MSTORE PUSH1 0x0 SWAP2 PUSH1 0x1 PUSH1 0x1 PUSH1 0xA0 SHL SUB AND SWAP1 PUSH4 0x70A08231 SWAP1 PUSH1 0x24 ADD PUSH1 0x20 PUSH1 0x40 MLOAD DUP1 DUP4 SUB DUP2 DUP7 GAS STATICCALL ISZERO DUP1 ISZERO PUSH2 0xA38 JUMPI RETURNDATASIZE PUSH1 0x0 DUP1 RETURNDATACOPY RETURNDATASIZE PUSH1 0x0 REVERT JUMPDEST POP POP POP POP PUSH1 0x40 MLOAD RETURNDATASIZE PUSH1 0x1F NOT PUSH1 0x1F DUP3 ADD AND DUP3 ADD DUP1 PUSH1 0x40 MSTORE POP DUP2 ADD SWAP1 PUSH2 0xA5C SWAP2 SWAP1 PUSH2 0x1079 JUMP JUMPDEST PUSH1 0x2 SLOAD PUSH1 0x40 MLOAD PUSH4 0xA9059CBB PUSH1 0xE0 SHL DUP2 MSTORE CALLER PUSH1 0x4 DUP3 ADD MSTORE PUSH1 0x24 DUP2 ADD DUP4 SWAP1 MSTORE SWAP2 SWAP3 POP PUSH1 0x1 PUSH1 0x1 PUSH1 0xA0 SHL SUB AND SWAP1 PUSH4 0xA9059CBB SWAP1 PUSH1 0x44 ADD PUSH1 0x20 PUSH1 0x40 MLOAD DUP1 DUP4 SUB DUP2 PUSH1 0x0 DUP8 GAS CALL ISZERO DUP1 ISZERO PUSH2 0xAAE JUMPI RETURNDATASIZE PUSH1 0x0 DUP1 RETURNDATACOPY RETURNDATASIZE PUSH1 0x0 REVERT JUMPDEST POP POP POP POP PUSH1 0x40 MLOAD RETURNDATASIZE PUSH1 0x1F NOT PUSH1 0x1F DUP3 ADD AND DUP3 ADD DUP1 PUSH1 0x40 MSTORE POP DUP2 ADD SWAP1 PUSH2 0xAD2 SWAP2 SWAP1 PUSH2 0x1092 JUMP JUMPDEST PUSH2 0xAEE JUMPI PUSH1 0x40 MLOAD PUSH3 0x461BCD PUSH1 0xE5 SHL DUP2 MSTORE PUSH1 0x4 ADD PUSH2 0x32F SWAP1 PUSH2 0x10B4 JUMP JUMPDEST PUSH1 0x40 MLOAD DUP2 DUP2 MSTORE CALLER SWAP1 PUSH32 0xD52E6A96125965761D3461FF1F2C72DF610AB6BC2584AC9F076B45B585F049F SWAP1 PUSH1 0x20 ADD PUSH1 0x40 MLOAD DUP1 SWAP2 SUB SWAP1 LOG2 POP JUMP JUMPDEST PUSH1 0x0 DUP1 PUSH1 0x0 JUMPDEST PUSH1 0xA SLOAD DUP2 LT ISZERO PUSH2 0xC0D JUMPI DUP4 PUSH1 0xA DUP3 DUP2 SLOAD DUP2 LT PUSH2 0xB4A JUMPI PUSH2 0xB4A PUSH2 0x118D JUMP JUMPDEST PUSH1 0x0 SWAP2 DUP3 MSTORE PUSH1 0x20 SWAP1 SWAP2 KECCAK256 ADD SLOAD PUSH2 0xFFFF AND GT DUP1 ISZERO SWAP1 PUSH2 0xB90 JUMPI POP PUSH1 0xA DUP2 DUP2 SLOAD DUP2 LT PUSH2 0xB76 JUMPI PUSH2 0xB76 PUSH2 0x118D JUMP JUMPDEST PUSH1 0x0 SWAP2 DUP3 MSTORE PUSH1 0x20 SWAP1 SWAP2 KECCAK256 ADD SLOAD PUSH3 0x10000 SWAP1 DIV PUSH2 0xFFFF AND DUP5 GT ISZERO JUMPDEST ISZERO PUSH2 0xC05 JUMPI PUSH1 0xA DUP2 DUP2 SLOAD DUP2 LT PUSH2 0xBA8 JUMPI PUSH2 0xBA8 PUSH2 0x118D JUMP JUMPDEST PUSH1 0x0 SWAP2 DUP3 MSTORE PUSH1 0x20 SWAP1 SWAP2 KECCAK256 ADD SLOAD PUSH1 0xA DUP1 SLOAD PUSH2 0xFFFF SWAP1 SWAP3 AND SWAP2 DUP4 SWAP1 DUP2 LT PUSH2 0xBCF JUMPI PUSH2 0xBCF PUSH2 0x118D JUMP JUMPDEST PUSH1 0x0 SWAP2 DUP3 MSTORE PUSH1 0x20 SWAP1 SWAP2 KECCAK256 ADD SLOAD PUSH2 0xBEF SWAP2 SWAP1 PUSH3 0x10000 SWAP1 DIV PUSH2 0xFFFF AND PUSH2 0x11A3 JUMP JUMPDEST PUSH2 0xBFA SWAP1 PUSH1 0x1 PUSH2 0x11C6 JUMP JUMPDEST PUSH2 0xFFFF AND SWAP2 POP PUSH2 0xC0D JUMP JUMPDEST PUSH1 0x1 ADD PUSH2 0xB2C JUMP JUMPDEST POP DUP1 PUSH1 0x5 SLOAD PUSH3 0xF4240 PUSH2 0xC20 SWAP2 SWAP1 PUSH2 0x11EC JUMP JUMPDEST PUSH2 0xC2A SWAP2 SWAP1 PUSH2 0x11EC JUMP JUMPDEST SWAP4 SWAP3 POP POP POP JUMP JUMPDEST PUSH1 0x1 SLOAD PUSH1 0x1 PUSH1 0x1 PUSH1 0xA0 SHL SUB AND CALLER EQ PUSH2 0xC5B JUMPI PUSH1 0x40 MLOAD PUSH3 0x461BCD PUSH1 0xE5 SHL DUP2 MSTORE PUSH1 0x4 ADD PUSH2 0x32F SWAP1 PUSH2 0x1158 JUMP JUMPDEST PUSH1 0x1 PUSH1 0x1 PUSH1 0xA0 SHL SUB DUP2 AND PUSH2 0xCC0 JUMPI PUSH1 0x40 MLOAD PUSH3 0x461BCD PUSH1 0xE5 SHL DUP2 MSTORE PUSH1 0x20 PUSH1 0x4 DUP3 ADD MSTORE PUSH1 0x26 PUSH1 0x24 DUP3 ADD MSTORE PUSH32 0x4F776E61626C653A206E6577206F776E657220697320746865207A65726F2061 PUSH1 0x44 DUP3 ADD MSTORE PUSH6 0x646472657373 PUSH1 0xD0 SHL PUSH1 0x64 DUP3 ADD MSTORE PUSH1 0x84 ADD PUSH2 0x32F JUMP JUMPDEST PUSH2 0xCC9 DUP2 PUSH2 0xE57 JUMP JUMPDEST POP JUMP JUMPDEST PUSH1 0x0 PUSH1 0x5 SLOAD DUP3 LT PUSH2 0xCDC JUMPI PUSH1 0x0 DUP1 REVERT JUMPDEST PUSH1 0x0 DUP3 DUP2 MSTORE PUSH1 0x8 PUSH1 0x20 SWAP1 DUP2 MSTORE PUSH1 0x40 DUP1 DUP4 KECCAK256 DUP2 MLOAD PUSH1 0x80 DUP2 ADD DUP4 MSTORE DUP2 SLOAD PUSH2 0xFFFF DUP1 DUP3 AND DUP4 MSTORE PUSH3 0x10000 DUP3 DIV PUSH5 0xFFFFFFFFFF AND SWAP6 DUP4 ADD SWAP6 SWAP1 SWAP6 MSTORE PUSH1 0x1 PUSH1 0x38 SHL DUP2 DIV SWAP1 SWAP5 AND SWAP3 DUP2 ADD SWAP3 SWAP1 SWAP3 MSTORE SWAP1 SWAP2 PUSH1 0x60 DUP4 ADD SWAP1 PUSH1 0x1 PUSH1 0x48 SHL SWAP1 DIV PUSH1 0xFF AND PUSH1 0x3 DUP2 GT ISZERO PUSH2 0xD46 JUMPI PUSH2 0xD46 PUSH2 0xEFB JUMP JUMPDEST PUSH1 0x3 DUP2 GT ISZERO PUSH2 0xD57 JUMPI PUSH2 0xD57 PUSH2 0xEFB JUMP JUMPDEST DUP2 MSTORE POP POP SWAP1 POP PUSH1 0x0 DUP2 PUSH1 0x20 ADD MLOAD PUSH5 0xFFFFFFFFFF AND PUSH1 0x0 EQ PUSH2 0xD83 JUMPI DUP2 PUSH1 0x20 ADD MLOAD PUSH5 0xFFFFFFFFFF AND PUSH2 0xD87 JUMP JUMPDEST PUSH1 0x6 SLOAD JUMPDEST SWAP1 POP PUSH3 0xF4240 PUSH1 0x5 SLOAD PUSH1 0x6 SLOAD TIMESTAMP PUSH2 0xD9E SWAP2 SWAP1 PUSH2 0x1200 JUMP JUMPDEST PUSH2 0xDA8 SWAP2 SWAP1 PUSH2 0x1217 JUMP JUMPDEST PUSH1 0x2 SLOAD PUSH1 0x40 MLOAD PUSH4 0x70A08231 PUSH1 0xE0 SHL DUP2 MSTORE ADDRESS PUSH1 0x4 DUP3 ADD MSTORE PUSH1 0x1 PUSH1 0x1 PUSH1 0xA0 SHL SUB SWAP1 SWAP2 AND SWAP1 PUSH4 0x70A08231 SWAP1 PUSH1 0x24 ADD PUSH1 0x20 PUSH1 0x40 MLOAD DUP1 DUP4 SUB DUP2 DUP7 GAS STATICCALL ISZERO DUP1 ISZERO PUSH2 0xDF0 JUMPI RETURNDATASIZE PUSH1 0x0 DUP1 RETURNDATACOPY RETURNDATASIZE PUSH1 0x0 REVERT JUMPDEST POP POP POP POP PUSH1 0x40 MLOAD RETURNDATASIZE PUSH1 0x1F NOT PUSH1 0x1F DUP3 ADD AND DUP3 ADD DUP1 PUSH1 0x40 MSTORE POP DUP2 ADD SWAP1 PUSH2 0xE14 SWAP2 SWAP1 PUSH2 0x1079 JUMP JUMPDEST PUSH2 0xE1D DUP8 PUSH2 0xB26 JUMP JUMPDEST PUSH2 0xE27 DUP6 TIMESTAMP PUSH2 0x1200 JUMP JUMPDEST PUSH2 0xE31 SWAP2 SWAP1 PUSH2 0x1217 JUMP JUMPDEST PUSH2 0xE3B SWAP2 SWAP1 PUSH2 0x1217 JUMP JUMPDEST PUSH2 0xE45 SWAP2 SWAP1 PUSH2 0x11EC JUMP JUMPDEST PUSH2 0xE4F SWAP2 SWAP1 PUSH2 0x11EC JUMP JUMPDEST SWAP5 SWAP4 POP POP POP POP JUMP JUMPDEST PUSH1 0x1 DUP1 SLOAD PUSH1 0x1 PUSH1 0x1 PUSH1 0xA0 SHL SUB DUP4 DUP2 AND PUSH1 0x1 PUSH1 0x1 PUSH1 0xA0 SHL SUB NOT DUP4 AND DUP2 OR SWAP1 SWAP4 SSTORE PUSH1 0x40 MLOAD SWAP2 AND SWAP2 SWAP1 DUP3 SWAP1 PUSH32 0x8BE0079C531659141344CD1FD0A4F28419497F9722A3DAAFE3B4186F6B6457E0 SWAP1 PUSH1 0x0 SWAP1 LOG3 POP POP JUMP JUMPDEST POP DUP1 SLOAD PUSH1 0x0 DUP3 SSTORE SWAP1 PUSH1 0x0 MSTORE PUSH1 0x20 PUSH1 0x0 KECCAK256 SWAP1 DUP2 ADD SWAP1 PUSH2 0xCC9 SWAP2 SWAP1 JUMPDEST DUP1 DUP3 GT ISZERO PUSH2 0xEDE JUMPI DUP1 SLOAD PUSH4 0xFFFFFFFF NOT AND DUP2 SSTORE PUSH1 0x1 ADD PUSH2 0xEC3 JUMP JUMPDEST POP SWAP1 JUMP JUMPDEST PUSH1 0x0 PUSH1 0x20 DUP3 DUP5 SUB SLT ISZERO PUSH2 0xEF4 JUMPI PUSH1 0x0 DUP1 REVERT JUMPDEST POP CALLDATALOAD SWAP2 SWAP1 POP JUMP JUMPDEST PUSH4 0x4E487B71 PUSH1 0xE0 SHL PUSH1 0x0 MSTORE PUSH1 0x21 PUSH1 0x4 MSTORE PUSH1 0x24 PUSH1 0x0 REVERT JUMPDEST PUSH2 0xFFFF DUP6 DUP2 AND DUP3 MSTORE PUSH5 0xFFFFFFFFFF DUP6 AND PUSH1 0x20 DUP4 ADD MSTORE DUP4 AND PUSH1 0x40 DUP3 ADD MSTORE PUSH1 0x80 DUP2 ADD PUSH1 0x4 DUP4 LT PUSH2 0xF4F JUMPI PUSH4 0x4E487B71 PUSH1 0xE0 SHL PUSH1 0x0 MSTORE PUSH1 0x21 PUSH1 0x4 MSTORE PUSH1 0x24 PUSH1 0x0 REVERT JUMPDEST DUP3 PUSH1 0x60 DUP4 ADD MSTORE SWAP6 SWAP5 POP POP POP POP POP JUMP JUMPDEST PUSH1 0x0 PUSH1 0x20 DUP3 DUP5 SUB SLT ISZERO PUSH2 0xF70 JUMPI PUSH1 0x0 DUP1 REVERT JUMPDEST DUP2 CALLDATALOAD PUSH1 0x1 PUSH1 0x1 PUSH1 0xA0 SHL SUB DUP2 AND DUP2 EQ PUSH2 0xC2A JUMPI PUSH1 0x0 DUP1 REVERT JUMPDEST PUSH4 0x4E487B71 PUSH1 0xE0 SHL PUSH1 0x0 MSTORE PUSH1 0x41 PUSH1 0x4 MSTORE PUSH1 0x24 PUSH1 0x0 REVERT JUMPDEST DUP1 CALLDATALOAD PUSH2 0xFFFF DUP2 AND DUP2 EQ PUSH2 0xFAF JUMPI PUSH1 0x0 DUP1 REVERT JUMPDEST SWAP2 SWAP1 POP JUMP JUMPDEST PUSH1 0x0 PUSH1 0x20 DUP1 DUP4 DUP6 SUB SLT ISZERO PUSH2 0xFC7 JUMPI PUSH1 0x0 DUP1 REVERT JUMPDEST DUP3 CALLDATALOAD PUSH8 0xFFFFFFFFFFFFFFFF DUP1 DUP3 GT ISZERO PUSH2 0xFDF JUMPI PUSH1 0x0 DUP1 REVERT JUMPDEST DUP2 DUP6 ADD SWAP2 POP DUP6 PUSH1 0x1F DUP4 ADD SLT PUSH2 0xFF3 JUMPI PUSH1 0x0 DUP1 REVERT JUMPDEST DUP2 CALLDATALOAD DUP2 DUP2 GT ISZERO PUSH2 0x1005 JUMPI PUSH2 0x1005 PUSH2 0xF87 JUMP JUMPDEST DUP1 PUSH1 0x5 SHL PUSH1 0x40 MLOAD PUSH1 0x1F NOT PUSH1 0x3F DUP4 ADD AND DUP2 ADD DUP2 DUP2 LT DUP6 DUP3 GT OR ISZERO PUSH2 0x102A JUMPI PUSH2 0x102A PUSH2 0xF87 JUMP JUMPDEST PUSH1 0x40 MSTORE SWAP2 DUP3 MSTORE DUP5 DUP3 ADD SWAP3 POP DUP4 DUP2 ADD DUP6 ADD SWAP2 DUP9 DUP4 GT ISZERO PUSH2 0x1048 JUMPI PUSH1 0x0 DUP1 REVERT JUMPDEST SWAP4 DUP6 ADD SWAP4 JUMPDEST DUP3 DUP6 LT ISZERO PUSH2 0x106D JUMPI PUSH2 0x105E DUP6 PUSH2 0xF9D JUMP JUMPDEST DUP5 MSTORE SWAP4 DUP6 ADD SWAP4 SWAP3 DUP6 ADD SWAP3 PUSH2 0x104D JUMP JUMPDEST SWAP9 SWAP8 POP POP POP POP POP POP POP POP JUMP JUMPDEST PUSH1 0x0 PUSH1 0x20 DUP3 DUP5 SUB SLT ISZERO PUSH2 0x108B JUMPI PUSH1 0x0 DUP1 REVERT JUMPDEST POP MLOAD SWAP2 SWAP1 POP JUMP JUMPDEST PUSH1 0x0 PUSH1 0x20 DUP3 DUP5 SUB SLT ISZERO PUSH2 0x10A4 JUMPI PUSH1 0x0 DUP1 REVERT JUMPDEST DUP2 MLOAD DUP1 ISZERO ISZERO DUP2 EQ PUSH2 0xC2A JUMPI PUSH1 0x0 DUP1 REVERT JUMPDEST PUSH1 0x20 DUP1 DUP3 MSTORE PUSH1 0x2C SWAP1 DUP3 ADD MSTORE PUSH32 0x556E61626C6520746F207472616E7366657220746F6B656E206261636B20746F PUSH1 0x40 DUP3 ADD MSTORE PUSH12 0x81D1A19481858D8DBDD5B9D PUSH1 0xA2 SHL PUSH1 0x60 DUP3 ADD MSTORE PUSH1 0x80 ADD SWAP1 JUMP JUMPDEST PUSH4 0x4E487B71 PUSH1 0xE0 SHL PUSH1 0x0 MSTORE PUSH1 0x11 PUSH1 0x4 MSTORE PUSH1 0x24 PUSH1 0x0 REVERT JUMPDEST PUSH1 0x0 DUP3 NOT DUP3 GT ISZERO PUSH2 0x1129 JUMPI PUSH2 0x1129 PUSH2 0x1100 JUMP JUMPDEST POP ADD SWAP1 JUMP JUMPDEST PUSH4 0x4E487B71 PUSH1 0xE0 SHL PUSH1 0x0 MSTORE PUSH1 0x12 PUSH1 0x4 MSTORE PUSH1 0x24 PUSH1 0x0 REVERT JUMPDEST PUSH1 0x0 DUP3 PUSH2 0x1153 JUMPI PUSH2 0x1153 PUSH2 0x112E JUMP JUMPDEST POP MOD SWAP1 JUMP JUMPDEST PUSH1 0x20 DUP1 DUP3 MSTORE DUP2 DUP2 ADD MSTORE PUSH32 0x4F776E61626C653A2063616C6C6572206973206E6F7420746865206F776E6572 PUSH1 0x40 DUP3 ADD MSTORE PUSH1 0x60 ADD SWAP1 JUMP JUMPDEST PUSH4 0x4E487B71 PUSH1 0xE0 SHL PUSH1 0x0 MSTORE PUSH1 0x32 PUSH1 0x4 MSTORE PUSH1 0x24 PUSH1 0x0 REVERT JUMPDEST PUSH1 0x0 PUSH2 0xFFFF DUP4 DUP2 AND SWAP1 DUP4 AND DUP2 DUP2 LT ISZERO PUSH2 0x11BE JUMPI PUSH2 0x11BE PUSH2 0x1100 JUMP JUMPDEST SUB SWAP4 SWAP3 POP POP POP JUMP JUMPDEST PUSH1 0x0 PUSH2 0xFFFF DUP1 DUP4 AND DUP2 DUP6 AND DUP1 DUP4 SUB DUP3 GT ISZERO PUSH2 0x11E3 JUMPI PUSH2 0x11E3 PUSH2 0x1100 JUMP JUMPDEST ADD SWAP5 SWAP4 POP POP POP POP JUMP JUMPDEST PUSH1 0x0 DUP3 PUSH2 0x11FB JUMPI PUSH2 0x11FB PUSH2 0x112E JUMP JUMPDEST POP DIV SWAP1 JUMP JUMPDEST PUSH1 0x0 DUP3 DUP3 LT ISZERO PUSH2 0x1212 JUMPI PUSH2 0x1212 PUSH2 0x1100 JUMP JUMPDEST POP SUB SWAP1 JUMP JUMPDEST PUSH1 0x0 DUP2 PUSH1 0x0 NOT DIV DUP4 GT DUP3 ISZERO ISZERO AND ISZERO PUSH2 0x1231 JUMPI PUSH2 0x1231 PUSH2 0x1100 JUMP JUMPDEST POP MUL SWAP1 JUMP INVALID LOG2 PUSH5 0x6970667358 0x22 SLT KECCAK256 MSTORE 0x4E PUSH16 0x511922FBD065B27DBDBB11BD0BB24BF3 PUSH14 0xB34236374116A4FF3A372E8D6473 PUSH16 0x6C634300080C00330000000000000000 ",
  "sha1": "be1e8129955f25c3a4efcba2bd69e318679a0412",
  "source": "pragma solidity ^0.8.4;\n// SPDX-License-Identifier: UNLICENSED\n//pragma solidity ^0.8.0;\n\nimport '../contracts/helpers/Ownable.sol';\nimport '../contracts/helpers/ReentrancyGuard.sol';\nimport '../contracts/interfaces/IERC20.sol';\nimport '../contracts/interfaces/IERC721.sol';\n\ncontract RelativeTimeVault is ReentrancyGuard, Ownable {\n    IERC20 public token; // Address of token contract and same used for rewards\n    IERC721 public NFT;\n\n    uint256 totalTowerPower; // sum of power of all rooms\n    uint256 public activeFloors = 0; //  10000;\n    uint256 public constant DA = 10**6; // Decimals Added for better accuracy\n    uint256 startTimestamp;\n\n    address public tokenOperator; // Address to manage the Stake\n    enum ELEMENT {FIRE, WIND, WATER, EARTH}\n\n    // todo -- combine mappings\n    struct FloorInfo {\n        uint16 floorPower; // todo -- may not use it this way (function, instead)\n        uint40 lastWithdrawalTimestamp;\n        uint16 occupyingWizardId;\n        ELEMENT element;\n    }\n    struct FloorPlans {\n        uint16 begin;\n        uint16 end;\n    }\n\n\n//    mapping (address => uint256) public floorPower; // Relative user Token balance in the contract\n//    mapping (address => uint256) public lastWithdrawalTimestamp; // Relative user Token balance in the contract\n\n    mapping (uint256 => FloorInfo) public floorIdToInfo; // floor id to floor info\n    mapping (uint256 => uint256 ) public wizardIdToFloor; // floor 0 DNE\n    FloorPlans[] public floorPlans;\n\n    // Events\n    event NewOperator(address tokenOperator);\n    event DrainTower(address indexed tokenOperator, uint256 amount);\n    event Withdraw(address indexed staker, uint256 totalAmount);\n\n    // Modifiers\n    modifier onlyOperator() {\n        require(\n            msg.sender == tokenOperator,\n            \"Only operator can call this function.\"\n        );\n        _;\n    }\n\n    constructor(address _token, address _NFTAddress)\n    {\n        token = IERC20(_token);\n        NFT = IERC721(_NFTAddress);\n        tokenOperator = msg.sender;\n        startTimestamp = block.timestamp;\n    }\n\n    // todo -- reconsider functionality of operator, owner\n    function updateOperator(address newOperator) external onlyOwner {\n        require(newOperator != address(0), \"Invalid operator address\");\n        tokenOperator = newOperator;\n        emit NewOperator(newOperator);\n    }\n\n    // For migration\n    function drainTower() external onlyOwner {\n        uint256 balance = token.balanceOf(address(this));\n        require(token.transfer(msg.sender, balance), \"Unable to transfer token back to the account\");\n        emit DrainTower(msg.sender, balance);\n    }\n\n    // claim floor for wizard\n    function claimFloor(uint256 _wizardId) external returns (uint256) {\n        require(true, \"must own NFT\"); // todo implement\n        require(wizardIdToFloor[_wizardId] == 0, \"already claimed.\");\n        activeFloors += 1;\n        FloorInfo memory floorInfo;\n        floorInfo.lastWithdrawalTimestamp = uint40(block.timestamp);\n        floorInfo.element = ELEMENT(uint(keccak256(abi.encodePacked(activeFloors, msg.sender, block.timestamp))) % 4);\n        floorInfo.occupyingWizardId = uint16(_wizardId);\n        wizardIdToFloor[_wizardId] = activeFloors;\n        floorIdToInfo[activeFloors] = floorInfo;\n        return activeFloors;\n    }\n\n    // todo -- make it so this conforms to active floors\n    // todo -- make sure these are sorted\n    function createFloorPlans(uint16[] memory _floorPlans) external onlyOwner {\n        require((_floorPlans.length !=0) && (_floorPlans.length %2 == 0), \"invalid floor plan\");\n//        floorPlans = new FloorPlans[](_floorPlans.length/2);\n        delete floorPlans;\n//        = new FloorPlans[];\n        FloorPlans memory tempPlan;\n        for(uint256 i = 0; i < _floorPlans.length;) {\n            tempPlan.begin = _floorPlans[i];\n            tempPlan.end = _floorPlans[i+1];\n            floorPlans.push(tempPlan);\n            unchecked{ i= i+2; }\n        }\n\n\n        //        emit NewFloorPlans(); // todo create event\n    }\n\n    function floorBalance(uint256 _floor) public view returns(uint256) {\n        return _floorBalance(_floor);\n    }\n\n    function floorPower(uint256 _floor) public view returns(uint256) {\n        uint256 sharedFloors;\n        for(uint256 i = 0; i < floorPlans.length;) {\n            if(floorPlans[i].begin <= _floor && _floor <= floorPlans[i].end){\n                sharedFloors = floorPlans[i].end - floorPlans[i].begin + 1;\n                break;\n            }\n            unchecked{ i++; }\n        }\n        return DA / activeFloors / sharedFloors; // todo -- this is going to result in zero. Need to add in extra 10^x\n        return _floorBalance(_floor);\n    }\n\n\n    // may be used to show balance on NFT\n//    function floorBalance() external view returns(uint256) {\n//        require(true, \"must own NFT\"); // todo confirm owns NFT\n//        uint256 myFloor; // todo\n//        return _floorBalance(0); // todo -- get floor of user\n//    }\n\n    function _floorBalance(uint256 _floor) internal view returns(uint256) {\n        require(_floor < activeFloors);\n        FloorInfo memory floorInfo = floorIdToInfo[_floor];\n\n        // use startTimestamp if never withdrawn\n        uint256 timestamp = floorInfo.lastWithdrawalTimestamp == 0 ? startTimestamp : floorInfo.lastWithdrawalTimestamp;\n        return (block.timestamp - timestamp) * floorPower(_floor) * token.balanceOf((address(this))) /\n               ((block.timestamp - startTimestamp) * activeFloors) / DA;\n    }\n\n    function withdraw(uint256 _floor) external nonReentrant {\n        // todo -- require wizard is at that floor\n        require(true, \"wizard not at that floor\");\n        //\n        uint256 amountToWithdraw = _floorBalance(_floor);\n        // _withdrawFromVault\n        // _withdrawFromVault(amountToWithdraw); // we don't want to add our tokens to a vault atm\n\n        // Check for balance in the contract\n        require(token.balanceOf(address(this)) >= amountToWithdraw, \"Not enough balance in the contract\");\n\n        // Update timestamp\n        floorIdToInfo[_floor].lastWithdrawalTimestamp = uint40(block.timestamp);\n\n        // Call the transfer function\n        require(token.transfer(msg.sender, amountToWithdraw), \"Unable to transfer token back to the account\");\n\n        emit Withdraw(msg.sender, amountToWithdraw);\n    }\n\n\n//    function _addToVault(uint256 _amount) virtual internal {\n//        // todo -- rewrite this to add funds to any vault, LP, etc.\n//        // if no external vault, no need to do anything\n//    }\n//\n//    function _withdrawFromVault(uint256 amount) virtual internal {\n//        // todo -- rewrite this to remove funds to any vault, LP, etc.\n//        // if no external vault, no need to do anything\n//    }\n//\n//    function totalVaultBalance() virtual public returns (uint256){\n//        return token.balanceOf(address(this));\n//    }\n\n\n\n\n}",
  "sourcePath": "contracts/RelativeTimeVault.sol",
  "type": "contract"
}