{
  "abi": [
    {
      "inputs": [
        {
          "internalType": "address",
          "name": "_ecosystemToken",
          "type": "address"
        },
        {
          "internalType": "address",
          "name": "_wizardNFT",
          "type": "address"
        },
        {
          "internalType": "address",
          "name": "_wizardTower",
          "type": "address"
        }
      ],
      "stateMutability": "nonpayable",
      "type": "constructor"
    },
    {
      "anonymous": false,
      "inputs": [
        {
          "indexed": false,
          "internalType": "uint256",
          "name": "attackerId",
          "type": "uint256"
        },
        {
          "indexed": false,
          "internalType": "uint256",
          "name": "defenderId",
          "type": "uint256"
        },
        {
          "indexed": false,
          "internalType": "uint256",
          "name": "floorAttacked",
          "type": "uint256"
        },
        {
          "indexed": false,
          "internalType": "uint256",
          "name": "netTokensGainedOrLost",
          "type": "uint256"
        },
        {
          "indexed": false,
          "internalType": "enum Wizards.OUTCOME",
          "name": "outcome",
          "type": "uint8"
        },
        {
          "indexed": false,
          "internalType": "uint256",
          "name": "timestamp",
          "type": "uint256"
        }
      ],
      "name": "Attack",
      "type": "event"
    },
    {
      "anonymous": false,
      "inputs": [
        {
          "indexed": false,
          "internalType": "uint256",
          "name": "round",
          "type": "uint256"
        },
        {
          "indexed": false,
          "internalType": "uint256",
          "name": "damageDealt",
          "type": "uint256"
        },
        {
          "indexed": false,
          "internalType": "uint256",
          "name": "defenderHP",
          "type": "uint256"
        }
      ],
      "name": "AttackRound",
      "type": "event"
    },
    {
      "anonymous": false,
      "inputs": [
        {
          "indexed": false,
          "internalType": "uint256",
          "name": "captured",
          "type": "uint256"
        },
        {
          "indexed": false,
          "internalType": "uint256",
          "name": "capturer",
          "type": "uint256"
        },
        {
          "indexed": false,
          "internalType": "uint256",
          "name": "timestamp",
          "type": "uint256"
        }
      ],
      "name": "Capture",
      "type": "event"
    },
    {
      "anonymous": false,
      "inputs": [
        {
          "indexed": true,
          "internalType": "address",
          "name": "previousOwner",
          "type": "address"
        },
        {
          "indexed": true,
          "internalType": "address",
          "name": "newOwner",
          "type": "address"
        }
      ],
      "name": "OwnershipTransferred",
      "type": "event"
    },
    {
      "inputs": [
        {
          "internalType": "uint256",
          "name": "_attackerId",
          "type": "uint256"
        },
        {
          "internalType": "uint256",
          "name": "_floor",
          "type": "uint256"
        }
      ],
      "name": "attack",
      "outputs": [],
      "stateMutability": "payable",
      "type": "function"
    },
    {
      "inputs": [
        {
          "internalType": "uint256",
          "name": "_attackerId",
          "type": "uint256"
        },
        {
          "internalType": "uint256",
          "name": "_defenderId",
          "type": "uint256"
        }
      ],
      "name": "battle",
      "outputs": [
        {
          "internalType": "enum Wizards.OUTCOME",
          "name": "",
          "type": "uint8"
        }
      ],
      "stateMutability": "nonpayable",
      "type": "function"
    },
    {
      "inputs": [],
      "name": "owner",
      "outputs": [
        {
          "internalType": "address",
          "name": "",
          "type": "address"
        }
      ],
      "stateMutability": "view",
      "type": "function"
    },
    {
      "inputs": [],
      "name": "renounceOwnership",
      "outputs": [],
      "stateMutability": "nonpayable",
      "type": "function"
    },
    {
      "inputs": [
        {
          "internalType": "address",
          "name": "newOwner",
          "type": "address"
        }
      ],
      "name": "transferOwnership",
      "outputs": [],
      "stateMutability": "nonpayable",
      "type": "function"
    },
    {
      "inputs": [],
      "name": "withdraw",
      "outputs": [],
      "stateMutability": "nonpayable",
      "type": "function"
    }
  ],
  "bytecode": "608060405261271060025561012c6006556103e860075561271060085560646009553480156200002e57600080fd5b5060405162001a9438038062001a94833981016040819052620000519162000110565b6200005c33620000a3565b60018055600380546001600160a01b039485166001600160a01b0319918216179091556004805493851693821693909317909255600580549190931691161790556200015a565b600080546001600160a01b038381166001600160a01b0319831681178455604051919092169283917f8be0079c531659141344cd1fd0a4f28419497f9722a3daafe3b4186f6b6457e09190a35050565b80516001600160a01b03811681146200010b57600080fd5b919050565b6000806000606084860312156200012657600080fd5b6200013184620000f3565b92506200014160208501620000f3565b91506200015160408501620000f3565b90509250925092565b61192a806200016a6000396000f3fe6080604052600436106100555760003560e01c80632a0c52211461005a5780633ccfd60b14610090578063715018a6146100a75780638da5cb5b146100bc578063e1fa7638146100e4578063f2fde38b146100f7575b600080fd5b34801561006657600080fd5b5061007a6100753660046114f6565b610117565b6040516100879190611550565b60405180910390f35b34801561009c57600080fd5b506100a5610697565b005b3480156100b357600080fd5b506100a56107f3565b3480156100c857600080fd5b506000546040516001600160a01b039091168152602001610087565b6100a56100f23660046114f6565b610829565b34801561010357600080fd5b506100a5610112366004611573565b611412565b60055460405163429c7ea160e11b81526004810183905260009182916001600160a01b0390911690638538fd4290602401608060405180830381865afa158015610165573d6000803e3d6000fd5b505050506040513d601f19601f8201168201806040525081019061018991906115f5565b6060810151604080518082019182905260045463119644a360e31b90925260448101889052929350909160009181906001600160a01b0316638cb22518606483016101c060405180830381865afa1580156101e8573d6000803e3d6000fd5b505050506040513d601f19601f8201168201806040525081019061020c919061168c565b81526004805460405163119644a360e31b81529182018990526020909201916001600160a01b031690638cb22518906024016101c060405180830381865afa15801561025c573d6000803e3d6000fd5b505050506040513d601f19601f82011682018060405250810190610280919061168c565b90526020848101516040513360601b6bffffffffffffffffffffffff1916928101929092524260348301526054820189905260d81b6001600160d81b031916607482015290915060009060790160408051808303601f19018152919052805160209182012090830151608090810151845190910151919250600091829161030691611772565b61031090846117a0565b84516080015160089490941c9390915081111561032c57600191505b600060405180604001604052806103668760006002811061034f5761034f611746565b60200201516101a001518860015b50606492915050565b88600381111561037857610378611518565b88516101a00151600381111561039057610390611518565b1461039c5760646103a0565b6009545b6103aa91906117b4565b81526020016103c787600160200201516101a0015188600061035d565b8860038111156103d9576103d9611518565b60208901516101a0015160038111156103f4576103f4611518565b14610400576064610404565b6009545b61040e91906117b4565b90529050600080808515610423576000610426565b60015b60ff16905060005b601481101561063f578760ff169250600c831161044c57600061044e565b825b925082156104d1576127106101006104676004866117d3565b6104729060c0611772565b878a6002811061048457610484611746565b60200201518c8b6002811061049b5761049b611746565b6020020151604001516104ae91906117b4565b6104b891906117b4565b6104c291906117d3565b6104cc91906117d3565b6104d4565b60005b935060028983600281106104ea576104ea611746565b6020020151606001516104fd91906117d3565b841161050a57600061053b565b600289836002811061051e5761051e611746565b60200201516060015161053191906117d3565b61053b90856117e7565b935088826002811061054f5761054f611746565b6020020151602001518411610589578389836002811061057157610571611746565b60200201516020015161058491906117e7565b61058c565b60005b89836002811061059e5761059e611746565b602002015160200181815250507ff5160716e87e559022c7959d13034a8c459f6a088a91cd182b5275e47b98398081858b85600281106105e0576105e0611746565b602002015160200151604051610609939291909283526020830191909152604082015260600190565b60405180910390a188826002811061062357610623611746565b6020020151602001516000031561063f5790959060010161042e565b508751602001516000036106605760009a5050505050505050505050610691565b60208089015101516000036106825760019a5050505050505050505050610691565b60029a50505050505050505050505b92915050565b6000546001600160a01b031633146106ca5760405162461bcd60e51b81526004016106c1906117fe565b60405180910390fd5b600480546040516370a0823160e01b815230928101929092526000916001600160a01b03909116906370a0823190602401602060405180830381865afa158015610718573d6000803e3d6000fd5b505050506040513d601f19601f8201168201806040525081019061073c9190611833565b60035460405163a9059cbb60e01b8152336004820152602481018390529192506001600160a01b03169063a9059cbb906044016020604051808303816000875af115801561078e573d6000803e3d6000fd5b505050506040513d601f19601f820116820180604052508101906107b2919061184c565b6107f05760405162461bcd60e51b815260206004820152600f60248201526e1d1c985b9cd9995c8819985a5b1959608a1b60448201526064016106c1565b50565b6000546001600160a01b0316331461081d5760405162461bcd60e51b81526004016106c1906117fe565b61082760006114a6565b565b60026001540361087b5760405162461bcd60e51b815260206004820152601f60248201527f5265656e7472616e637947756172643a207265656e7472616e742063616c6c0060448201526064016106c1565b60026001553332146108cf5760405162461bcd60e51b815260206004820152601960248201527f63616e206e6f742063616c6c2076696120636f6e74726163740000000000000060448201526064016106c1565b600480546040516331a9108f60e11b815291820184905233916001600160a01b0390911690636352211e90602401602060405180830381865afa15801561091a573d6000803e3d6000fd5b505050506040513d601f19601f8201168201806040525081019061093e919061186e565b6001600160a01b0316146109895760405162461bcd60e51b815260206004820152601260248201527136bab9ba1031329027232a103437b63232b960711b60448201526064016106c1565b600554604051631d828f8360e31b8152600481018490526001600160a01b039091169063ec147c1890602401602060405180830381865afa1580156109d2573d6000803e3d6000fd5b505050506040513d601f19601f820116820180604052508101906109f6919061184c565b610a425760405162461bcd60e51b815260206004820152601d60248201527f61747461636b6572206d757374206265206f6e2074686520746f77657200000060448201526064016106c1565b600480546040516382afd23b60e01b81529182018490526001600160a01b0316906382afd23b90602401602060405180830381865afa158015610a89573d6000803e3d6000fd5b505050506040513d601f19601f82011682018060405250810190610aad919061184c565b610aea5760405162461bcd60e51b815260206004820152600e60248201526d6d7573742062652061637469766560901b60448201526064016106c1565b600560009054906101000a90046001600160a01b03166001600160a01b0316633cdd03986040518163ffffffff1660e01b8152600401602060405180830381865afa158015610b3d573d6000803e3d6000fd5b505050506040513d601f19601f82011682018060405250810190610b619190611833565b8111158015610b6f57508015155b610bae5760405162461bcd60e51b815260206004820152601060248201526f36bab9ba103b30b634b210333637b7b960811b60448201526064016106c1565b6005546040516301038d3760e61b8152600481018390526000916001600160a01b0316906340e34dc090602401602060405180830381865afa158015610bf8573d6000803e3d6000fd5b505050506040513d601f19601f82011682018060405250810190610c1c9190611833565b60055460405163944d934b60e01b8152600481018590529192506000916001600160a01b039091169063944d934b90602401602060405180830381865afa158015610c6b573d6000803e3d6000fd5b505050506040513d601f19601f82011682018060405250810190610c8f9190611833565b6005546040516395ac8af960e01b815260048101879052919250612710916000916001600160a01b0316906395ac8af990602401602060405180830381865afa158015610ce0573d6000803e3d6000fd5b505050506040513d601f19601f82011682018060405250810190610d049190611833565b9050808503610d555760405162461bcd60e51b815260206004820152601860248201527f43616e206e6f742061747461636b20796f757273656c662e000000000000000060448201526064016106c1565b3461271060075484610d6791906117b4565b610d7191906117d3565b1115610dbf5760405162461bcd60e51b815260206004820152601c60248201527f696e737566666369656e7420746f6b656e7320746f2061747461636b0000000060448201526064016106c1565b600060085461271060075485610dd591906117b4565b610ddf91906117d3565b610de990346117e7565b1115610e5d57600754339061271090610e0290866117b4565b610e0c91906117d3565b610e1690346117e7565b604051600081818185875af1925050503d8060008114610e52576040519150601f19603f3d011682016040523d82523d6000602084013e610e57565b606091505b50909150505b600480546040516331a9108f60e11b81529182018790526001600160a01b031690636352211e90602401602060405180830381865afa158015610ea4573d6000803e3d6000fd5b505050506040513d601f19601f82011682018060405250810190610ec8919061186e565b6001600160a01b03166305f5e100600654612710610ee691906117e7565b600754610ef390876117b4565b610efd91906117b4565b610f0791906117d3565b604051600081818185875af1925050503d8060008114610f43576040519150601f19603f3d011682016040523d82523d6000602084013e610f48565b606091505b5050600480546040516382afd23b60e01b81529182018890529192506000916001600160a01b0316906382afd23b90602401602060405180830381865afa158015610f97573d6000803e3d6000fd5b505050506040513d601f19601f82011682018060405250810190610fbb919061184c565b610fc757506003610fd4565b610fd18887610117565b90505b6001816003811115610fe857610fe8611518565b14806110055750600381600381111561100357611003611518565b145b156112195760085460055460405163944d934b60e01b8152600481018690526001600160a01b039091169063944d934b90602401602060405180830381865afa158015611056573d6000803e3d6000fd5b505050506040513d601f19601f8201168201806040525081019061107a9190611833565b11156110df57600554604051632e1a7d4d60e01b8152600481018590526001600160a01b0390911690632e1a7d4d90602401600060405180830381600087803b1580156110c657600080fd5b505af11580156110da573d6000803e3d6000fd5b505050505b6005546040516322a7d0a160e21b815260048101859052602481018990526001600160a01b0390911690638a9f428490604401600060405180830381600087803b15801561112c57600080fd5b505af1158015611140573d6000803e3d6000fd5b505060085460055460405163944d934b60e01b8152600481018c90529193506001600160a01b0316915063944d934b90602401602060405180830381865afa158015611190573d6000803e3d6000fd5b505050506040513d601f19601f820116820180604052508101906111b49190611833565b111561121957600554604051632e1a7d4d60e01b8152600481018990526001600160a01b0390911690632e1a7d4d90602401600060405180830381600087803b15801561120057600080fd5b505af1158015611214573d6000803e3d6000fd5b505050505b600381600381111561122d5761122d611518565b036112d157600554604051639a0e6a8560e01b8152600481018590526001600160a01b0390911690639a0e6a8590602401600060405180830381600087803b15801561127857600080fd5b505af115801561128c573d6000803e3d6000fd5b505060408051898152602081018c9052428183015290517f5f989fecf13aa707e68db673d1132d1f4b5270253e425424e51171e63a34113d9350908190036060019150a15b60048054604051638140bd0b60e01b81526001600160a01b0390911691638140bd0b91611308918c918b9187918c9134910161188b565b600060405180830381600087803b15801561132257600080fd5b505af1158015611336573d6000803e3d6000fd5b5060009250600191506113469050565b82600381111561135857611358611518565b14806113755750600382600381111561137357611373611518565b145b611399576127106007548661138a91906117b4565b61139491906117d3565b6113c0565b6127106007546127106113ac91906117e7565b6113b690886117b4565b6113c091906117d3565b90507fa0d8233eed567b022ede33ab83dc1f512e739350019f844a668485e59bd2110189888a8486426040516113fb969594939291906118b9565b60405180910390a150506001805550505050505050565b6000546001600160a01b0316331461143c5760405162461bcd60e51b81526004016106c1906117fe565b6001600160a01b0381166114a15760405162461bcd60e51b815260206004820152602660248201527f4f776e61626c653a206e6577206f776e657220697320746865207a65726f206160448201526564647265737360d01b60648201526084016106c1565b6107f0815b600080546001600160a01b038381166001600160a01b0319831681178455604051919092169283917f8be0079c531659141344cd1fd0a4f28419497f9722a3daafe3b4186f6b6457e09190a35050565b6000806040838503121561150957600080fd5b50508035926020909101359150565b634e487b7160e01b600052602160045260246000fd5b6004811061154c57634e487b7160e01b600052602160045260246000fd5b9052565b60208101610691828461152e565b6001600160a01b03811681146107f057600080fd5b60006020828403121561158557600080fd5b81356115908161155e565b9392505050565b6040516101c0810167ffffffffffffffff811182821017156115c957634e487b7160e01b600052604160045260246000fd5b60405290565b805161ffff811681146115e157600080fd5b919050565b8051600481106115e157600080fd5b60006080828403121561160757600080fd5b6040516080810181811067ffffffffffffffff8211171561163857634e487b7160e01b600052604160045260246000fd5b604052611644836115cf565b8152602083015164ffffffffff8116811461165e57600080fd5b602082015261166f604084016115cf565b6040820152611680606084016115e6565b60608201529392505050565b60006101c0828403121561169f57600080fd5b6116a7611597565b825181526020830151602082015260408301516040820152606083015160608201526080830151608082015260a083015160a082015260c083015160c082015260e083015160e08201526101008084015181830152506101208084015181830152506101408084015181830152506101608084015181830152506101808084015181830152506101a061173b8185016115e6565b908201529392505050565b634e487b7160e01b600052603260045260246000fd5b634e487b7160e01b600052601160045260246000fd5b600082198211156117855761178561175c565b500190565b634e487b7160e01b600052601260045260246000fd5b6000826117af576117af61178a565b500690565b60008160001904831182151516156117ce576117ce61175c565b500290565b6000826117e2576117e261178a565b500490565b6000828210156117f9576117f961175c565b500390565b6020808252818101527f4f776e61626c653a2063616c6c6572206973206e6f7420746865206f776e6572604082015260600190565b60006020828403121561184557600080fd5b5051919050565b60006020828403121561185e57600080fd5b8151801515811461159057600080fd5b60006020828403121561188057600080fd5b81516115908161155e565b8581526020810185905260a081016118a6604083018661152e565b6060820193909352608001529392505050565b600060c0820190508782528660208301528560408301528460608301526118e3608083018561152e565b8260a083015297965050505050505056fea26469706673582212207cf628a5271902cf949bd5fafd8f418c406c181b9c9a931293062ac658242e2b64736f6c634300080f0033",
  "bytecodeSha1": "0a92ee1287874da41cb97f297e6d8e22db688265",
  "compiler": {
    "evm_version": "istanbul",
    "optimizer": {
      "enabled": true,
      "runs": 200
    },
    "version": "0.8.15+commit.e14f2714"
  },
  "contractName": "WizardBattle",
  "language": "Solidity",
  "natspec": {
    "kind": "dev",
    "methods": {
      "owner()": {
        "details": "Returns the address of the current owner."
      },
      "renounceOwnership()": {
        "details": "Leaves the contract without owner. It will not be possible to call `onlyOwner` functions anymore. Can only be called by the current owner. NOTE: Renouncing ownership will leave the contract without an owner, thereby removing any functionality that is only available to the owner."
      },
      "transferOwnership(address)": {
        "details": "Transfers ownership of the contract to a new account (`newOwner`). Can only be called by the current owner."
      }
    },
    "version": 1
  },
  "opcodes": "PUSH1 0x80 PUSH1 0x40 MSTORE PUSH1 0x4 CALLDATASIZE LT PUSH2 0x55 JUMPI PUSH1 0x0 CALLDATALOAD PUSH1 0xE0 SHR DUP1 PUSH4 0x2A0C5221 EQ PUSH2 0x5A JUMPI DUP1 PUSH4 0x3CCFD60B EQ PUSH2 0x90 JUMPI DUP1 PUSH4 0x715018A6 EQ PUSH2 0xA7 JUMPI DUP1 PUSH4 0x8DA5CB5B EQ PUSH2 0xBC JUMPI DUP1 PUSH4 0xE1FA7638 EQ PUSH2 0xE4 JUMPI DUP1 PUSH4 0xF2FDE38B EQ PUSH2 0xF7 JUMPI JUMPDEST PUSH1 0x0 DUP1 REVERT JUMPDEST CALLVALUE DUP1 ISZERO PUSH2 0x66 JUMPI PUSH1 0x0 DUP1 REVERT JUMPDEST POP PUSH2 0x7A PUSH2 0x75 CALLDATASIZE PUSH1 0x4 PUSH2 0x14F6 JUMP JUMPDEST PUSH2 0x117 JUMP JUMPDEST PUSH1 0x40 MLOAD PUSH2 0x87 SWAP2 SWAP1 PUSH2 0x1550 JUMP JUMPDEST PUSH1 0x40 MLOAD DUP1 SWAP2 SUB SWAP1 RETURN JUMPDEST CALLVALUE DUP1 ISZERO PUSH2 0x9C JUMPI PUSH1 0x0 DUP1 REVERT JUMPDEST POP PUSH2 0xA5 PUSH2 0x697 JUMP JUMPDEST STOP JUMPDEST CALLVALUE DUP1 ISZERO PUSH2 0xB3 JUMPI PUSH1 0x0 DUP1 REVERT JUMPDEST POP PUSH2 0xA5 PUSH2 0x7F3 JUMP JUMPDEST CALLVALUE DUP1 ISZERO PUSH2 0xC8 JUMPI PUSH1 0x0 DUP1 REVERT JUMPDEST POP PUSH1 0x0 SLOAD PUSH1 0x40 MLOAD PUSH1 0x1 PUSH1 0x1 PUSH1 0xA0 SHL SUB SWAP1 SWAP2 AND DUP2 MSTORE PUSH1 0x20 ADD PUSH2 0x87 JUMP JUMPDEST PUSH2 0xA5 PUSH2 0xF2 CALLDATASIZE PUSH1 0x4 PUSH2 0x14F6 JUMP JUMPDEST PUSH2 0x829 JUMP JUMPDEST CALLVALUE DUP1 ISZERO PUSH2 0x103 JUMPI PUSH1 0x0 DUP1 REVERT JUMPDEST POP PUSH2 0xA5 PUSH2 0x112 CALLDATASIZE PUSH1 0x4 PUSH2 0x1573 JUMP JUMPDEST PUSH2 0x1412 JUMP JUMPDEST PUSH1 0x5 SLOAD PUSH1 0x40 MLOAD PUSH4 0x429C7EA1 PUSH1 0xE1 SHL DUP2 MSTORE PUSH1 0x4 DUP2 ADD DUP4 SWAP1 MSTORE PUSH1 0x0 SWAP2 DUP3 SWAP2 PUSH1 0x1 PUSH1 0x1 PUSH1 0xA0 SHL SUB SWAP1 SWAP2 AND SWAP1 PUSH4 0x8538FD42 SWAP1 PUSH1 0x24 ADD PUSH1 0x80 PUSH1 0x40 MLOAD DUP1 DUP4 SUB DUP2 DUP7 GAS STATICCALL ISZERO DUP1 ISZERO PUSH2 0x165 JUMPI RETURNDATASIZE PUSH1 0x0 DUP1 RETURNDATACOPY RETURNDATASIZE PUSH1 0x0 REVERT JUMPDEST POP POP POP POP PUSH1 0x40 MLOAD RETURNDATASIZE PUSH1 0x1F NOT PUSH1 0x1F DUP3 ADD AND DUP3 ADD DUP1 PUSH1 0x40 MSTORE POP DUP2 ADD SWAP1 PUSH2 0x189 SWAP2 SWAP1 PUSH2 0x15F5 JUMP JUMPDEST PUSH1 0x60 DUP2 ADD MLOAD PUSH1 0x40 DUP1 MLOAD DUP1 DUP3 ADD SWAP2 DUP3 SWAP1 MSTORE PUSH1 0x4 SLOAD PUSH4 0x119644A3 PUSH1 0xE3 SHL SWAP1 SWAP3 MSTORE PUSH1 0x44 DUP2 ADD DUP9 SWAP1 MSTORE SWAP3 SWAP4 POP SWAP1 SWAP2 PUSH1 0x0 SWAP2 DUP2 SWAP1 PUSH1 0x1 PUSH1 0x1 PUSH1 0xA0 SHL SUB AND PUSH4 0x8CB22518 PUSH1 0x64 DUP4 ADD PUSH2 0x1C0 PUSH1 0x40 MLOAD DUP1 DUP4 SUB DUP2 DUP7 GAS STATICCALL ISZERO DUP1 ISZERO PUSH2 0x1E8 JUMPI RETURNDATASIZE PUSH1 0x0 DUP1 RETURNDATACOPY RETURNDATASIZE PUSH1 0x0 REVERT JUMPDEST POP POP POP POP PUSH1 0x40 MLOAD RETURNDATASIZE PUSH1 0x1F NOT PUSH1 0x1F DUP3 ADD AND DUP3 ADD DUP1 PUSH1 0x40 MSTORE POP DUP2 ADD SWAP1 PUSH2 0x20C SWAP2 SWAP1 PUSH2 0x168C JUMP JUMPDEST DUP2 MSTORE PUSH1 0x4 DUP1 SLOAD PUSH1 0x40 MLOAD PUSH4 0x119644A3 PUSH1 0xE3 SHL DUP2 MSTORE SWAP2 DUP3 ADD DUP10 SWAP1 MSTORE PUSH1 0x20 SWAP1 SWAP3 ADD SWAP2 PUSH1 0x1 PUSH1 0x1 PUSH1 0xA0 SHL SUB AND SWAP1 PUSH4 0x8CB22518 SWAP1 PUSH1 0x24 ADD PUSH2 0x1C0 PUSH1 0x40 MLOAD DUP1 DUP4 SUB DUP2 DUP7 GAS STATICCALL ISZERO DUP1 ISZERO PUSH2 0x25C JUMPI RETURNDATASIZE PUSH1 0x0 DUP1 RETURNDATACOPY RETURNDATASIZE PUSH1 0x0 REVERT JUMPDEST POP POP POP POP PUSH1 0x40 MLOAD RETURNDATASIZE PUSH1 0x1F NOT PUSH1 0x1F DUP3 ADD AND DUP3 ADD DUP1 PUSH1 0x40 MSTORE POP DUP2 ADD SWAP1 PUSH2 0x280 SWAP2 SWAP1 PUSH2 0x168C JUMP JUMPDEST SWAP1 MSTORE PUSH1 0x20 DUP5 DUP2 ADD MLOAD PUSH1 0x40 MLOAD CALLER PUSH1 0x60 SHL PUSH12 0xFFFFFFFFFFFFFFFFFFFFFFFF NOT AND SWAP3 DUP2 ADD SWAP3 SWAP1 SWAP3 MSTORE TIMESTAMP PUSH1 0x34 DUP4 ADD MSTORE PUSH1 0x54 DUP3 ADD DUP10 SWAP1 MSTORE PUSH1 0xD8 SHL PUSH1 0x1 PUSH1 0x1 PUSH1 0xD8 SHL SUB NOT AND PUSH1 0x74 DUP3 ADD MSTORE SWAP1 SWAP2 POP PUSH1 0x0 SWAP1 PUSH1 0x79 ADD PUSH1 0x40 DUP1 MLOAD DUP1 DUP4 SUB PUSH1 0x1F NOT ADD DUP2 MSTORE SWAP2 SWAP1 MSTORE DUP1 MLOAD PUSH1 0x20 SWAP2 DUP3 ADD KECCAK256 SWAP1 DUP4 ADD MLOAD PUSH1 0x80 SWAP1 DUP2 ADD MLOAD DUP5 MLOAD SWAP1 SWAP2 ADD MLOAD SWAP2 SWAP3 POP PUSH1 0x0 SWAP2 DUP3 SWAP2 PUSH2 0x306 SWAP2 PUSH2 0x1772 JUMP JUMPDEST PUSH2 0x310 SWAP1 DUP5 PUSH2 0x17A0 JUMP JUMPDEST DUP5 MLOAD PUSH1 0x80 ADD MLOAD PUSH1 0x8 SWAP5 SWAP1 SWAP5 SHR SWAP4 SWAP1 SWAP2 POP DUP2 GT ISZERO PUSH2 0x32C JUMPI PUSH1 0x1 SWAP2 POP JUMPDEST PUSH1 0x0 PUSH1 0x40 MLOAD DUP1 PUSH1 0x40 ADD PUSH1 0x40 MSTORE DUP1 PUSH2 0x366 DUP8 PUSH1 0x0 PUSH1 0x2 DUP2 LT PUSH2 0x34F JUMPI PUSH2 0x34F PUSH2 0x1746 JUMP JUMPDEST PUSH1 0x20 MUL ADD MLOAD PUSH2 0x1A0 ADD MLOAD DUP9 PUSH1 0x1 JUMPDEST POP PUSH1 0x64 SWAP3 SWAP2 POP POP JUMP JUMPDEST DUP9 PUSH1 0x3 DUP2 GT ISZERO PUSH2 0x378 JUMPI PUSH2 0x378 PUSH2 0x1518 JUMP JUMPDEST DUP9 MLOAD PUSH2 0x1A0 ADD MLOAD PUSH1 0x3 DUP2 GT ISZERO PUSH2 0x390 JUMPI PUSH2 0x390 PUSH2 0x1518 JUMP JUMPDEST EQ PUSH2 0x39C JUMPI PUSH1 0x64 PUSH2 0x3A0 JUMP JUMPDEST PUSH1 0x9 SLOAD JUMPDEST PUSH2 0x3AA SWAP2 SWAP1 PUSH2 0x17B4 JUMP JUMPDEST DUP2 MSTORE PUSH1 0x20 ADD PUSH2 0x3C7 DUP8 PUSH1 0x1 PUSH1 0x20 MUL ADD MLOAD PUSH2 0x1A0 ADD MLOAD DUP9 PUSH1 0x0 PUSH2 0x35D JUMP JUMPDEST DUP9 PUSH1 0x3 DUP2 GT ISZERO PUSH2 0x3D9 JUMPI PUSH2 0x3D9 PUSH2 0x1518 JUMP JUMPDEST PUSH1 0x20 DUP10 ADD MLOAD PUSH2 0x1A0 ADD MLOAD PUSH1 0x3 DUP2 GT ISZERO PUSH2 0x3F4 JUMPI PUSH2 0x3F4 PUSH2 0x1518 JUMP JUMPDEST EQ PUSH2 0x400 JUMPI PUSH1 0x64 PUSH2 0x404 JUMP JUMPDEST PUSH1 0x9 SLOAD JUMPDEST PUSH2 0x40E SWAP2 SWAP1 PUSH2 0x17B4 JUMP JUMPDEST SWAP1 MSTORE SWAP1 POP PUSH1 0x0 DUP1 DUP1 DUP6 ISZERO PUSH2 0x423 JUMPI PUSH1 0x0 PUSH2 0x426 JUMP JUMPDEST PUSH1 0x1 JUMPDEST PUSH1 0xFF AND SWAP1 POP PUSH1 0x0 JUMPDEST PUSH1 0x14 DUP2 LT ISZERO PUSH2 0x63F JUMPI DUP8 PUSH1 0xFF AND SWAP3 POP PUSH1 0xC DUP4 GT PUSH2 0x44C JUMPI PUSH1 0x0 PUSH2 0x44E JUMP JUMPDEST DUP3 JUMPDEST SWAP3 POP DUP3 ISZERO PUSH2 0x4D1 JUMPI PUSH2 0x2710 PUSH2 0x100 PUSH2 0x467 PUSH1 0x4 DUP7 PUSH2 0x17D3 JUMP JUMPDEST PUSH2 0x472 SWAP1 PUSH1 0xC0 PUSH2 0x1772 JUMP JUMPDEST DUP8 DUP11 PUSH1 0x2 DUP2 LT PUSH2 0x484 JUMPI PUSH2 0x484 PUSH2 0x1746 JUMP JUMPDEST PUSH1 0x20 MUL ADD MLOAD DUP13 DUP12 PUSH1 0x2 DUP2 LT PUSH2 0x49B JUMPI PUSH2 0x49B PUSH2 0x1746 JUMP JUMPDEST PUSH1 0x20 MUL ADD MLOAD PUSH1 0x40 ADD MLOAD PUSH2 0x4AE SWAP2 SWAP1 PUSH2 0x17B4 JUMP JUMPDEST PUSH2 0x4B8 SWAP2 SWAP1 PUSH2 0x17B4 JUMP JUMPDEST PUSH2 0x4C2 SWAP2 SWAP1 PUSH2 0x17D3 JUMP JUMPDEST PUSH2 0x4CC SWAP2 SWAP1 PUSH2 0x17D3 JUMP JUMPDEST PUSH2 0x4D4 JUMP JUMPDEST PUSH1 0x0 JUMPDEST SWAP4 POP PUSH1 0x2 DUP10 DUP4 PUSH1 0x2 DUP2 LT PUSH2 0x4EA JUMPI PUSH2 0x4EA PUSH2 0x1746 JUMP JUMPDEST PUSH1 0x20 MUL ADD MLOAD PUSH1 0x60 ADD MLOAD PUSH2 0x4FD SWAP2 SWAP1 PUSH2 0x17D3 JUMP JUMPDEST DUP5 GT PUSH2 0x50A JUMPI PUSH1 0x0 PUSH2 0x53B JUMP JUMPDEST PUSH1 0x2 DUP10 DUP4 PUSH1 0x2 DUP2 LT PUSH2 0x51E JUMPI PUSH2 0x51E PUSH2 0x1746 JUMP JUMPDEST PUSH1 0x20 MUL ADD MLOAD PUSH1 0x60 ADD MLOAD PUSH2 0x531 SWAP2 SWAP1 PUSH2 0x17D3 JUMP JUMPDEST PUSH2 0x53B SWAP1 DUP6 PUSH2 0x17E7 JUMP JUMPDEST SWAP4 POP DUP9 DUP3 PUSH1 0x2 DUP2 LT PUSH2 0x54F JUMPI PUSH2 0x54F PUSH2 0x1746 JUMP JUMPDEST PUSH1 0x20 MUL ADD MLOAD PUSH1 0x20 ADD MLOAD DUP5 GT PUSH2 0x589 JUMPI DUP4 DUP10 DUP4 PUSH1 0x2 DUP2 LT PUSH2 0x571 JUMPI PUSH2 0x571 PUSH2 0x1746 JUMP JUMPDEST PUSH1 0x20 MUL ADD MLOAD PUSH1 0x20 ADD MLOAD PUSH2 0x584 SWAP2 SWAP1 PUSH2 0x17E7 JUMP JUMPDEST PUSH2 0x58C JUMP JUMPDEST PUSH1 0x0 JUMPDEST DUP10 DUP4 PUSH1 0x2 DUP2 LT PUSH2 0x59E JUMPI PUSH2 0x59E PUSH2 0x1746 JUMP JUMPDEST PUSH1 0x20 MUL ADD MLOAD PUSH1 0x20 ADD DUP2 DUP2 MSTORE POP POP PUSH32 0xF5160716E87E559022C7959D13034A8C459F6A088A91CD182B5275E47B983980 DUP2 DUP6 DUP12 DUP6 PUSH1 0x2 DUP2 LT PUSH2 0x5E0 JUMPI PUSH2 0x5E0 PUSH2 0x1746 JUMP JUMPDEST PUSH1 0x20 MUL ADD MLOAD PUSH1 0x20 ADD MLOAD PUSH1 0x40 MLOAD PUSH2 0x609 SWAP4 SWAP3 SWAP2 SWAP1 SWAP3 DUP4 MSTORE PUSH1 0x20 DUP4 ADD SWAP2 SWAP1 SWAP2 MSTORE PUSH1 0x40 DUP3 ADD MSTORE PUSH1 0x60 ADD SWAP1 JUMP JUMPDEST PUSH1 0x40 MLOAD DUP1 SWAP2 SUB SWAP1 LOG1 DUP9 DUP3 PUSH1 0x2 DUP2 LT PUSH2 0x623 JUMPI PUSH2 0x623 PUSH2 0x1746 JUMP JUMPDEST PUSH1 0x20 MUL ADD MLOAD PUSH1 0x20 ADD MLOAD PUSH1 0x0 SUB ISZERO PUSH2 0x63F JUMPI SWAP1 SWAP6 SWAP1 PUSH1 0x1 ADD PUSH2 0x42E JUMP JUMPDEST POP DUP8 MLOAD PUSH1 0x20 ADD MLOAD PUSH1 0x0 SUB PUSH2 0x660 JUMPI PUSH1 0x0 SWAP11 POP POP POP POP POP POP POP POP POP POP POP PUSH2 0x691 JUMP JUMPDEST PUSH1 0x20 DUP1 DUP10 ADD MLOAD ADD MLOAD PUSH1 0x0 SUB PUSH2 0x682 JUMPI PUSH1 0x1 SWAP11 POP POP POP POP POP POP POP POP POP POP POP PUSH2 0x691 JUMP JUMPDEST PUSH1 0x2 SWAP11 POP POP POP POP POP POP POP POP POP POP POP JUMPDEST SWAP3 SWAP2 POP POP JUMP JUMPDEST PUSH1 0x0 SLOAD PUSH1 0x1 PUSH1 0x1 PUSH1 0xA0 SHL SUB AND CALLER EQ PUSH2 0x6CA JUMPI PUSH1 0x40 MLOAD PUSH3 0x461BCD PUSH1 0xE5 SHL DUP2 MSTORE PUSH1 0x4 ADD PUSH2 0x6C1 SWAP1 PUSH2 0x17FE JUMP JUMPDEST PUSH1 0x40 MLOAD DUP1 SWAP2 SUB SWAP1 REVERT JUMPDEST PUSH1 0x4 DUP1 SLOAD PUSH1 0x40 MLOAD PUSH4 0x70A08231 PUSH1 0xE0 SHL DUP2 MSTORE ADDRESS SWAP3 DUP2 ADD SWAP3 SWAP1 SWAP3 MSTORE PUSH1 0x0 SWAP2 PUSH1 0x1 PUSH1 0x1 PUSH1 0xA0 SHL SUB SWAP1 SWAP2 AND SWAP1 PUSH4 0x70A08231 SWAP1 PUSH1 0x24 ADD PUSH1 0x20 PUSH1 0x40 MLOAD DUP1 DUP4 SUB DUP2 DUP7 GAS STATICCALL ISZERO DUP1 ISZERO PUSH2 0x718 JUMPI RETURNDATASIZE PUSH1 0x0 DUP1 RETURNDATACOPY RETURNDATASIZE PUSH1 0x0 REVERT JUMPDEST POP POP POP POP PUSH1 0x40 MLOAD RETURNDATASIZE PUSH1 0x1F NOT PUSH1 0x1F DUP3 ADD AND DUP3 ADD DUP1 PUSH1 0x40 MSTORE POP DUP2 ADD SWAP1 PUSH2 0x73C SWAP2 SWAP1 PUSH2 0x1833 JUMP JUMPDEST PUSH1 0x3 SLOAD PUSH1 0x40 MLOAD PUSH4 0xA9059CBB PUSH1 0xE0 SHL DUP2 MSTORE CALLER PUSH1 0x4 DUP3 ADD MSTORE PUSH1 0x24 DUP2 ADD DUP4 SWAP1 MSTORE SWAP2 SWAP3 POP PUSH1 0x1 PUSH1 0x1 PUSH1 0xA0 SHL SUB AND SWAP1 PUSH4 0xA9059CBB SWAP1 PUSH1 0x44 ADD PUSH1 0x20 PUSH1 0x40 MLOAD DUP1 DUP4 SUB DUP2 PUSH1 0x0 DUP8 GAS CALL ISZERO DUP1 ISZERO PUSH2 0x78E JUMPI RETURNDATASIZE PUSH1 0x0 DUP1 RETURNDATACOPY RETURNDATASIZE PUSH1 0x0 REVERT JUMPDEST POP POP POP POP PUSH1 0x40 MLOAD RETURNDATASIZE PUSH1 0x1F NOT PUSH1 0x1F DUP3 ADD AND DUP3 ADD DUP1 PUSH1 0x40 MSTORE POP DUP2 ADD SWAP1 PUSH2 0x7B2 SWAP2 SWAP1 PUSH2 0x184C JUMP JUMPDEST PUSH2 0x7F0 JUMPI PUSH1 0x40 MLOAD PUSH3 0x461BCD PUSH1 0xE5 SHL DUP2 MSTORE PUSH1 0x20 PUSH1 0x4 DUP3 ADD MSTORE PUSH1 0xF PUSH1 0x24 DUP3 ADD MSTORE PUSH15 0x1D1C985B9CD9995C8819985A5B1959 PUSH1 0x8A SHL PUSH1 0x44 DUP3 ADD MSTORE PUSH1 0x64 ADD PUSH2 0x6C1 JUMP JUMPDEST POP JUMP JUMPDEST PUSH1 0x0 SLOAD PUSH1 0x1 PUSH1 0x1 PUSH1 0xA0 SHL SUB AND CALLER EQ PUSH2 0x81D JUMPI PUSH1 0x40 MLOAD PUSH3 0x461BCD PUSH1 0xE5 SHL DUP2 MSTORE PUSH1 0x4 ADD PUSH2 0x6C1 SWAP1 PUSH2 0x17FE JUMP JUMPDEST PUSH2 0x827 PUSH1 0x0 PUSH2 0x14A6 JUMP JUMPDEST JUMP JUMPDEST PUSH1 0x2 PUSH1 0x1 SLOAD SUB PUSH2 0x87B JUMPI PUSH1 0x40 MLOAD PUSH3 0x461BCD PUSH1 0xE5 SHL DUP2 MSTORE PUSH1 0x20 PUSH1 0x4 DUP3 ADD MSTORE PUSH1 0x1F PUSH1 0x24 DUP3 ADD MSTORE PUSH32 0x5265656E7472616E637947756172643A207265656E7472616E742063616C6C00 PUSH1 0x44 DUP3 ADD MSTORE PUSH1 0x64 ADD PUSH2 0x6C1 JUMP JUMPDEST PUSH1 0x2 PUSH1 0x1 SSTORE CALLER ORIGIN EQ PUSH2 0x8CF JUMPI PUSH1 0x40 MLOAD PUSH3 0x461BCD PUSH1 0xE5 SHL DUP2 MSTORE PUSH1 0x20 PUSH1 0x4 DUP3 ADD MSTORE PUSH1 0x19 PUSH1 0x24 DUP3 ADD MSTORE PUSH32 0x63616E206E6F742063616C6C2076696120636F6E747261637400000000000000 PUSH1 0x44 DUP3 ADD MSTORE PUSH1 0x64 ADD PUSH2 0x6C1 JUMP JUMPDEST PUSH1 0x4 DUP1 SLOAD PUSH1 0x40 MLOAD PUSH4 0x31A9108F PUSH1 0xE1 SHL DUP2 MSTORE SWAP2 DUP3 ADD DUP5 SWAP1 MSTORE CALLER SWAP2 PUSH1 0x1 PUSH1 0x1 PUSH1 0xA0 SHL SUB SWAP1 SWAP2 AND SWAP1 PUSH4 0x6352211E SWAP1 PUSH1 0x24 ADD PUSH1 0x20 PUSH1 0x40 MLOAD DUP1 DUP4 SUB DUP2 DUP7 GAS STATICCALL ISZERO DUP1 ISZERO PUSH2 0x91A JUMPI RETURNDATASIZE PUSH1 0x0 DUP1 RETURNDATACOPY RETURNDATASIZE PUSH1 0x0 REVERT JUMPDEST POP POP POP POP PUSH1 0x40 MLOAD RETURNDATASIZE PUSH1 0x1F NOT PUSH1 0x1F DUP3 ADD AND DUP3 ADD DUP1 PUSH1 0x40 MSTORE POP DUP2 ADD SWAP1 PUSH2 0x93E SWAP2 SWAP1 PUSH2 0x186E JUMP JUMPDEST PUSH1 0x1 PUSH1 0x1 PUSH1 0xA0 SHL SUB AND EQ PUSH2 0x989 JUMPI PUSH1 0x40 MLOAD PUSH3 0x461BCD PUSH1 0xE5 SHL DUP2 MSTORE PUSH1 0x20 PUSH1 0x4 DUP3 ADD MSTORE PUSH1 0x12 PUSH1 0x24 DUP3 ADD MSTORE PUSH18 0x36BAB9BA1031329027232A103437B63232B9 PUSH1 0x71 SHL PUSH1 0x44 DUP3 ADD MSTORE PUSH1 0x64 ADD PUSH2 0x6C1 JUMP JUMPDEST PUSH1 0x5 SLOAD PUSH1 0x40 MLOAD PUSH4 0x1D828F83 PUSH1 0xE3 SHL DUP2 MSTORE PUSH1 0x4 DUP2 ADD DUP5 SWAP1 MSTORE PUSH1 0x1 PUSH1 0x1 PUSH1 0xA0 SHL SUB SWAP1 SWAP2 AND SWAP1 PUSH4 0xEC147C18 SWAP1 PUSH1 0x24 ADD PUSH1 0x20 PUSH1 0x40 MLOAD DUP1 DUP4 SUB DUP2 DUP7 GAS STATICCALL ISZERO DUP1 ISZERO PUSH2 0x9D2 JUMPI RETURNDATASIZE PUSH1 0x0 DUP1 RETURNDATACOPY RETURNDATASIZE PUSH1 0x0 REVERT JUMPDEST POP POP POP POP PUSH1 0x40 MLOAD RETURNDATASIZE PUSH1 0x1F NOT PUSH1 0x1F DUP3 ADD AND DUP3 ADD DUP1 PUSH1 0x40 MSTORE POP DUP2 ADD SWAP1 PUSH2 0x9F6 SWAP2 SWAP1 PUSH2 0x184C JUMP JUMPDEST PUSH2 0xA42 JUMPI PUSH1 0x40 MLOAD PUSH3 0x461BCD PUSH1 0xE5 SHL DUP2 MSTORE PUSH1 0x20 PUSH1 0x4 DUP3 ADD MSTORE PUSH1 0x1D PUSH1 0x24 DUP3 ADD MSTORE PUSH32 0x61747461636B6572206D757374206265206F6E2074686520746F776572000000 PUSH1 0x44 DUP3 ADD MSTORE PUSH1 0x64 ADD PUSH2 0x6C1 JUMP JUMPDEST PUSH1 0x4 DUP1 SLOAD PUSH1 0x40 MLOAD PUSH4 0x82AFD23B PUSH1 0xE0 SHL DUP2 MSTORE SWAP2 DUP3 ADD DUP5 SWAP1 MSTORE PUSH1 0x1 PUSH1 0x1 PUSH1 0xA0 SHL SUB AND SWAP1 PUSH4 0x82AFD23B SWAP1 PUSH1 0x24 ADD PUSH1 0x20 PUSH1 0x40 MLOAD DUP1 DUP4 SUB DUP2 DUP7 GAS STATICCALL ISZERO DUP1 ISZERO PUSH2 0xA89 JUMPI RETURNDATASIZE PUSH1 0x0 DUP1 RETURNDATACOPY RETURNDATASIZE PUSH1 0x0 REVERT JUMPDEST POP POP POP POP PUSH1 0x40 MLOAD RETURNDATASIZE PUSH1 0x1F NOT PUSH1 0x1F DUP3 ADD AND DUP3 ADD DUP1 PUSH1 0x40 MSTORE POP DUP2 ADD SWAP1 PUSH2 0xAAD SWAP2 SWAP1 PUSH2 0x184C JUMP JUMPDEST PUSH2 0xAEA JUMPI PUSH1 0x40 MLOAD PUSH3 0x461BCD PUSH1 0xE5 SHL DUP2 MSTORE PUSH1 0x20 PUSH1 0x4 DUP3 ADD MSTORE PUSH1 0xE PUSH1 0x24 DUP3 ADD MSTORE PUSH14 0x6D75737420626520616374697665 PUSH1 0x90 SHL PUSH1 0x44 DUP3 ADD MSTORE PUSH1 0x64 ADD PUSH2 0x6C1 JUMP JUMPDEST PUSH1 0x5 PUSH1 0x0 SWAP1 SLOAD SWAP1 PUSH2 0x100 EXP SWAP1 DIV PUSH1 0x1 PUSH1 0x1 PUSH1 0xA0 SHL SUB AND PUSH1 0x1 PUSH1 0x1 PUSH1 0xA0 SHL SUB AND PUSH4 0x3CDD0398 PUSH1 0x40 MLOAD DUP2 PUSH4 0xFFFFFFFF AND PUSH1 0xE0 SHL DUP2 MSTORE PUSH1 0x4 ADD PUSH1 0x20 PUSH1 0x40 MLOAD DUP1 DUP4 SUB DUP2 DUP7 GAS STATICCALL ISZERO DUP1 ISZERO PUSH2 0xB3D JUMPI RETURNDATASIZE PUSH1 0x0 DUP1 RETURNDATACOPY RETURNDATASIZE PUSH1 0x0 REVERT JUMPDEST POP POP POP POP PUSH1 0x40 MLOAD RETURNDATASIZE PUSH1 0x1F NOT PUSH1 0x1F DUP3 ADD AND DUP3 ADD DUP1 PUSH1 0x40 MSTORE POP DUP2 ADD SWAP1 PUSH2 0xB61 SWAP2 SWAP1 PUSH2 0x1833 JUMP JUMPDEST DUP2 GT ISZERO DUP1 ISZERO PUSH2 0xB6F JUMPI POP DUP1 ISZERO ISZERO JUMPDEST PUSH2 0xBAE JUMPI PUSH1 0x40 MLOAD PUSH3 0x461BCD PUSH1 0xE5 SHL DUP2 MSTORE PUSH1 0x20 PUSH1 0x4 DUP3 ADD MSTORE PUSH1 0x10 PUSH1 0x24 DUP3 ADD MSTORE PUSH16 0x36BAB9BA103B30B634B210333637B7B9 PUSH1 0x81 SHL PUSH1 0x44 DUP3 ADD MSTORE PUSH1 0x64 ADD PUSH2 0x6C1 JUMP JUMPDEST PUSH1 0x5 SLOAD PUSH1 0x40 MLOAD PUSH4 0x1038D37 PUSH1 0xE6 SHL DUP2 MSTORE PUSH1 0x4 DUP2 ADD DUP4 SWAP1 MSTORE PUSH1 0x0 SWAP2 PUSH1 0x1 PUSH1 0x1 PUSH1 0xA0 SHL SUB AND SWAP1 PUSH4 0x40E34DC0 SWAP1 PUSH1 0x24 ADD PUSH1 0x20 PUSH1 0x40 MLOAD DUP1 DUP4 SUB DUP2 DUP7 GAS STATICCALL ISZERO DUP1 ISZERO PUSH2 0xBF8 JUMPI RETURNDATASIZE PUSH1 0x0 DUP1 RETURNDATACOPY RETURNDATASIZE PUSH1 0x0 REVERT JUMPDEST POP POP POP POP PUSH1 0x40 MLOAD RETURNDATASIZE PUSH1 0x1F NOT PUSH1 0x1F DUP3 ADD AND DUP3 ADD DUP1 PUSH1 0x40 MSTORE POP DUP2 ADD SWAP1 PUSH2 0xC1C SWAP2 SWAP1 PUSH2 0x1833 JUMP JUMPDEST PUSH1 0x5 SLOAD PUSH1 0x40 MLOAD PUSH4 0x944D934B PUSH1 0xE0 SHL DUP2 MSTORE PUSH1 0x4 DUP2 ADD DUP6 SWAP1 MSTORE SWAP2 SWAP3 POP PUSH1 0x0 SWAP2 PUSH1 0x1 PUSH1 0x1 PUSH1 0xA0 SHL SUB SWAP1 SWAP2 AND SWAP1 PUSH4 0x944D934B SWAP1 PUSH1 0x24 ADD PUSH1 0x20 PUSH1 0x40 MLOAD DUP1 DUP4 SUB DUP2 DUP7 GAS STATICCALL ISZERO DUP1 ISZERO PUSH2 0xC6B JUMPI RETURNDATASIZE PUSH1 0x0 DUP1 RETURNDATACOPY RETURNDATASIZE PUSH1 0x0 REVERT JUMPDEST POP POP POP POP PUSH1 0x40 MLOAD RETURNDATASIZE PUSH1 0x1F NOT PUSH1 0x1F DUP3 ADD AND DUP3 ADD DUP1 PUSH1 0x40 MSTORE POP DUP2 ADD SWAP1 PUSH2 0xC8F SWAP2 SWAP1 PUSH2 0x1833 JUMP JUMPDEST PUSH1 0x5 SLOAD PUSH1 0x40 MLOAD PUSH4 0x95AC8AF9 PUSH1 0xE0 SHL DUP2 MSTORE PUSH1 0x4 DUP2 ADD DUP8 SWAP1 MSTORE SWAP2 SWAP3 POP PUSH2 0x2710 SWAP2 PUSH1 0x0 SWAP2 PUSH1 0x1 PUSH1 0x1 PUSH1 0xA0 SHL SUB AND SWAP1 PUSH4 0x95AC8AF9 SWAP1 PUSH1 0x24 ADD PUSH1 0x20 PUSH1 0x40 MLOAD DUP1 DUP4 SUB DUP2 DUP7 GAS STATICCALL ISZERO DUP1 ISZERO PUSH2 0xCE0 JUMPI RETURNDATASIZE PUSH1 0x0 DUP1 RETURNDATACOPY RETURNDATASIZE PUSH1 0x0 REVERT JUMPDEST POP POP POP POP PUSH1 0x40 MLOAD RETURNDATASIZE PUSH1 0x1F NOT PUSH1 0x1F DUP3 ADD AND DUP3 ADD DUP1 PUSH1 0x40 MSTORE POP DUP2 ADD SWAP1 PUSH2 0xD04 SWAP2 SWAP1 PUSH2 0x1833 JUMP JUMPDEST SWAP1 POP DUP1 DUP6 SUB PUSH2 0xD55 JUMPI PUSH1 0x40 MLOAD PUSH3 0x461BCD PUSH1 0xE5 SHL DUP2 MSTORE PUSH1 0x20 PUSH1 0x4 DUP3 ADD MSTORE PUSH1 0x18 PUSH1 0x24 DUP3 ADD MSTORE PUSH32 0x43616E206E6F742061747461636B20796F757273656C662E0000000000000000 PUSH1 0x44 DUP3 ADD MSTORE PUSH1 0x64 ADD PUSH2 0x6C1 JUMP JUMPDEST CALLVALUE PUSH2 0x2710 PUSH1 0x7 SLOAD DUP5 PUSH2 0xD67 SWAP2 SWAP1 PUSH2 0x17B4 JUMP JUMPDEST PUSH2 0xD71 SWAP2 SWAP1 PUSH2 0x17D3 JUMP JUMPDEST GT ISZERO PUSH2 0xDBF JUMPI PUSH1 0x40 MLOAD PUSH3 0x461BCD PUSH1 0xE5 SHL DUP2 MSTORE PUSH1 0x20 PUSH1 0x4 DUP3 ADD MSTORE PUSH1 0x1C PUSH1 0x24 DUP3 ADD MSTORE PUSH32 0x696E737566666369656E7420746F6B656E7320746F2061747461636B00000000 PUSH1 0x44 DUP3 ADD MSTORE PUSH1 0x64 ADD PUSH2 0x6C1 JUMP JUMPDEST PUSH1 0x0 PUSH1 0x8 SLOAD PUSH2 0x2710 PUSH1 0x7 SLOAD DUP6 PUSH2 0xDD5 SWAP2 SWAP1 PUSH2 0x17B4 JUMP JUMPDEST PUSH2 0xDDF SWAP2 SWAP1 PUSH2 0x17D3 JUMP JUMPDEST PUSH2 0xDE9 SWAP1 CALLVALUE PUSH2 0x17E7 JUMP JUMPDEST GT ISZERO PUSH2 0xE5D JUMPI PUSH1 0x7 SLOAD CALLER SWAP1 PUSH2 0x2710 SWAP1 PUSH2 0xE02 SWAP1 DUP7 PUSH2 0x17B4 JUMP JUMPDEST PUSH2 0xE0C SWAP2 SWAP1 PUSH2 0x17D3 JUMP JUMPDEST PUSH2 0xE16 SWAP1 CALLVALUE PUSH2 0x17E7 JUMP JUMPDEST PUSH1 0x40 MLOAD PUSH1 0x0 DUP2 DUP2 DUP2 DUP6 DUP8 GAS CALL SWAP3 POP POP POP RETURNDATASIZE DUP1 PUSH1 0x0 DUP2 EQ PUSH2 0xE52 JUMPI PUSH1 0x40 MLOAD SWAP2 POP PUSH1 0x1F NOT PUSH1 0x3F RETURNDATASIZE ADD AND DUP3 ADD PUSH1 0x40 MSTORE RETURNDATASIZE DUP3 MSTORE RETURNDATASIZE PUSH1 0x0 PUSH1 0x20 DUP5 ADD RETURNDATACOPY PUSH2 0xE57 JUMP JUMPDEST PUSH1 0x60 SWAP2 POP JUMPDEST POP SWAP1 SWAP2 POP POP JUMPDEST PUSH1 0x4 DUP1 SLOAD PUSH1 0x40 MLOAD PUSH4 0x31A9108F PUSH1 0xE1 SHL DUP2 MSTORE SWAP2 DUP3 ADD DUP8 SWAP1 MSTORE PUSH1 0x1 PUSH1 0x1 PUSH1 0xA0 SHL SUB AND SWAP1 PUSH4 0x6352211E SWAP1 PUSH1 0x24 ADD PUSH1 0x20 PUSH1 0x40 MLOAD DUP1 DUP4 SUB DUP2 DUP7 GAS STATICCALL ISZERO DUP1 ISZERO PUSH2 0xEA4 JUMPI RETURNDATASIZE PUSH1 0x0 DUP1 RETURNDATACOPY RETURNDATASIZE PUSH1 0x0 REVERT JUMPDEST POP POP POP POP PUSH1 0x40 MLOAD RETURNDATASIZE PUSH1 0x1F NOT PUSH1 0x1F DUP3 ADD AND DUP3 ADD DUP1 PUSH1 0x40 MSTORE POP DUP2 ADD SWAP1 PUSH2 0xEC8 SWAP2 SWAP1 PUSH2 0x186E JUMP JUMPDEST PUSH1 0x1 PUSH1 0x1 PUSH1 0xA0 SHL SUB AND PUSH4 0x5F5E100 PUSH1 0x6 SLOAD PUSH2 0x2710 PUSH2 0xEE6 SWAP2 SWAP1 PUSH2 0x17E7 JUMP JUMPDEST PUSH1 0x7 SLOAD PUSH2 0xEF3 SWAP1 DUP8 PUSH2 0x17B4 JUMP JUMPDEST PUSH2 0xEFD SWAP2 SWAP1 PUSH2 0x17B4 JUMP JUMPDEST PUSH2 0xF07 SWAP2 SWAP1 PUSH2 0x17D3 JUMP JUMPDEST PUSH1 0x40 MLOAD PUSH1 0x0 DUP2 DUP2 DUP2 DUP6 DUP8 GAS CALL SWAP3 POP POP POP RETURNDATASIZE DUP1 PUSH1 0x0 DUP2 EQ PUSH2 0xF43 JUMPI PUSH1 0x40 MLOAD SWAP2 POP PUSH1 0x1F NOT PUSH1 0x3F RETURNDATASIZE ADD AND DUP3 ADD PUSH1 0x40 MSTORE RETURNDATASIZE DUP3 MSTORE RETURNDATASIZE PUSH1 0x0 PUSH1 0x20 DUP5 ADD RETURNDATACOPY PUSH2 0xF48 JUMP JUMPDEST PUSH1 0x60 SWAP2 POP JUMPDEST POP POP PUSH1 0x4 DUP1 SLOAD PUSH1 0x40 MLOAD PUSH4 0x82AFD23B PUSH1 0xE0 SHL DUP2 MSTORE SWAP2 DUP3 ADD DUP9 SWAP1 MSTORE SWAP2 SWAP3 POP PUSH1 0x0 SWAP2 PUSH1 0x1 PUSH1 0x1 PUSH1 0xA0 SHL SUB AND SWAP1 PUSH4 0x82AFD23B SWAP1 PUSH1 0x24 ADD PUSH1 0x20 PUSH1 0x40 MLOAD DUP1 DUP4 SUB DUP2 DUP7 GAS STATICCALL ISZERO DUP1 ISZERO PUSH2 0xF97 JUMPI RETURNDATASIZE PUSH1 0x0 DUP1 RETURNDATACOPY RETURNDATASIZE PUSH1 0x0 REVERT JUMPDEST POP POP POP POP PUSH1 0x40 MLOAD RETURNDATASIZE PUSH1 0x1F NOT PUSH1 0x1F DUP3 ADD AND DUP3 ADD DUP1 PUSH1 0x40 MSTORE POP DUP2 ADD SWAP1 PUSH2 0xFBB SWAP2 SWAP1 PUSH2 0x184C JUMP JUMPDEST PUSH2 0xFC7 JUMPI POP PUSH1 0x3 PUSH2 0xFD4 JUMP JUMPDEST PUSH2 0xFD1 DUP9 DUP8 PUSH2 0x117 JUMP JUMPDEST SWAP1 POP JUMPDEST PUSH1 0x1 DUP2 PUSH1 0x3 DUP2 GT ISZERO PUSH2 0xFE8 JUMPI PUSH2 0xFE8 PUSH2 0x1518 JUMP JUMPDEST EQ DUP1 PUSH2 0x1005 JUMPI POP PUSH1 0x3 DUP2 PUSH1 0x3 DUP2 GT ISZERO PUSH2 0x1003 JUMPI PUSH2 0x1003 PUSH2 0x1518 JUMP JUMPDEST EQ JUMPDEST ISZERO PUSH2 0x1219 JUMPI PUSH1 0x8 SLOAD PUSH1 0x5 SLOAD PUSH1 0x40 MLOAD PUSH4 0x944D934B PUSH1 0xE0 SHL DUP2 MSTORE PUSH1 0x4 DUP2 ADD DUP7 SWAP1 MSTORE PUSH1 0x1 PUSH1 0x1 PUSH1 0xA0 SHL SUB SWAP1 SWAP2 AND SWAP1 PUSH4 0x944D934B SWAP1 PUSH1 0x24 ADD PUSH1 0x20 PUSH1 0x40 MLOAD DUP1 DUP4 SUB DUP2 DUP7 GAS STATICCALL ISZERO DUP1 ISZERO PUSH2 0x1056 JUMPI RETURNDATASIZE PUSH1 0x0 DUP1 RETURNDATACOPY RETURNDATASIZE PUSH1 0x0 REVERT JUMPDEST POP POP POP POP PUSH1 0x40 MLOAD RETURNDATASIZE PUSH1 0x1F NOT PUSH1 0x1F DUP3 ADD AND DUP3 ADD DUP1 PUSH1 0x40 MSTORE POP DUP2 ADD SWAP1 PUSH2 0x107A SWAP2 SWAP1 PUSH2 0x1833 JUMP JUMPDEST GT ISZERO PUSH2 0x10DF JUMPI PUSH1 0x5 SLOAD PUSH1 0x40 MLOAD PUSH4 0x2E1A7D4D PUSH1 0xE0 SHL DUP2 MSTORE PUSH1 0x4 DUP2 ADD DUP6 SWAP1 MSTORE PUSH1 0x1 PUSH1 0x1 PUSH1 0xA0 SHL SUB SWAP1 SWAP2 AND SWAP1 PUSH4 0x2E1A7D4D SWAP1 PUSH1 0x24 ADD PUSH1 0x0 PUSH1 0x40 MLOAD DUP1 DUP4 SUB DUP2 PUSH1 0x0 DUP8 DUP1 EXTCODESIZE ISZERO DUP1 ISZERO PUSH2 0x10C6 JUMPI PUSH1 0x0 DUP1 REVERT JUMPDEST POP GAS CALL ISZERO DUP1 ISZERO PUSH2 0x10DA JUMPI RETURNDATASIZE PUSH1 0x0 DUP1 RETURNDATACOPY RETURNDATASIZE PUSH1 0x0 REVERT JUMPDEST POP POP POP POP JUMPDEST PUSH1 0x5 SLOAD PUSH1 0x40 MLOAD PUSH4 0x22A7D0A1 PUSH1 0xE2 SHL DUP2 MSTORE PUSH1 0x4 DUP2 ADD DUP6 SWAP1 MSTORE PUSH1 0x24 DUP2 ADD DUP10 SWAP1 MSTORE PUSH1 0x1 PUSH1 0x1 PUSH1 0xA0 SHL SUB SWAP1 SWAP2 AND SWAP1 PUSH4 0x8A9F4284 SWAP1 PUSH1 0x44 ADD PUSH1 0x0 PUSH1 0x40 MLOAD DUP1 DUP4 SUB DUP2 PUSH1 0x0 DUP8 DUP1 EXTCODESIZE ISZERO DUP1 ISZERO PUSH2 0x112C JUMPI PUSH1 0x0 DUP1 REVERT JUMPDEST POP GAS CALL ISZERO DUP1 ISZERO PUSH2 0x1140 JUMPI RETURNDATASIZE PUSH1 0x0 DUP1 RETURNDATACOPY RETURNDATASIZE PUSH1 0x0 REVERT JUMPDEST POP POP PUSH1 0x8 SLOAD PUSH1 0x5 SLOAD PUSH1 0x40 MLOAD PUSH4 0x944D934B PUSH1 0xE0 SHL DUP2 MSTORE PUSH1 0x4 DUP2 ADD DUP13 SWAP1 MSTORE SWAP2 SWAP4 POP PUSH1 0x1 PUSH1 0x1 PUSH1 0xA0 SHL SUB AND SWAP2 POP PUSH4 0x944D934B SWAP1 PUSH1 0x24 ADD PUSH1 0x20 PUSH1 0x40 MLOAD DUP1 DUP4 SUB DUP2 DUP7 GAS STATICCALL ISZERO DUP1 ISZERO PUSH2 0x1190 JUMPI RETURNDATASIZE PUSH1 0x0 DUP1 RETURNDATACOPY RETURNDATASIZE PUSH1 0x0 REVERT JUMPDEST POP POP POP POP PUSH1 0x40 MLOAD RETURNDATASIZE PUSH1 0x1F NOT PUSH1 0x1F DUP3 ADD AND DUP3 ADD DUP1 PUSH1 0x40 MSTORE POP DUP2 ADD SWAP1 PUSH2 0x11B4 SWAP2 SWAP1 PUSH2 0x1833 JUMP JUMPDEST GT ISZERO PUSH2 0x1219 JUMPI PUSH1 0x5 SLOAD PUSH1 0x40 MLOAD PUSH4 0x2E1A7D4D PUSH1 0xE0 SHL DUP2 MSTORE PUSH1 0x4 DUP2 ADD DUP10 SWAP1 MSTORE PUSH1 0x1 PUSH1 0x1 PUSH1 0xA0 SHL SUB SWAP1 SWAP2 AND SWAP1 PUSH4 0x2E1A7D4D SWAP1 PUSH1 0x24 ADD PUSH1 0x0 PUSH1 0x40 MLOAD DUP1 DUP4 SUB DUP2 PUSH1 0x0 DUP8 DUP1 EXTCODESIZE ISZERO DUP1 ISZERO PUSH2 0x1200 JUMPI PUSH1 0x0 DUP1 REVERT JUMPDEST POP GAS CALL ISZERO DUP1 ISZERO PUSH2 0x1214 JUMPI RETURNDATASIZE PUSH1 0x0 DUP1 RETURNDATACOPY RETURNDATASIZE PUSH1 0x0 REVERT JUMPDEST POP POP POP POP JUMPDEST PUSH1 0x3 DUP2 PUSH1 0x3 DUP2 GT ISZERO PUSH2 0x122D JUMPI PUSH2 0x122D PUSH2 0x1518 JUMP JUMPDEST SUB PUSH2 0x12D1 JUMPI PUSH1 0x5 SLOAD PUSH1 0x40 MLOAD PUSH4 0x9A0E6A85 PUSH1 0xE0 SHL DUP2 MSTORE PUSH1 0x4 DUP2 ADD DUP6 SWAP1 MSTORE PUSH1 0x1 PUSH1 0x1 PUSH1 0xA0 SHL SUB SWAP1 SWAP2 AND SWAP1 PUSH4 0x9A0E6A85 SWAP1 PUSH1 0x24 ADD PUSH1 0x0 PUSH1 0x40 MLOAD DUP1 DUP4 SUB DUP2 PUSH1 0x0 DUP8 DUP1 EXTCODESIZE ISZERO DUP1 ISZERO PUSH2 0x1278 JUMPI PUSH1 0x0 DUP1 REVERT JUMPDEST POP GAS CALL ISZERO DUP1 ISZERO PUSH2 0x128C JUMPI RETURNDATASIZE PUSH1 0x0 DUP1 RETURNDATACOPY RETURNDATASIZE PUSH1 0x0 REVERT JUMPDEST POP POP PUSH1 0x40 DUP1 MLOAD DUP10 DUP2 MSTORE PUSH1 0x20 DUP2 ADD DUP13 SWAP1 MSTORE TIMESTAMP DUP2 DUP4 ADD MSTORE SWAP1 MLOAD PUSH32 0x5F989FECF13AA707E68DB673D1132D1F4B5270253E425424E51171E63A34113D SWAP4 POP SWAP1 DUP2 SWAP1 SUB PUSH1 0x60 ADD SWAP2 POP LOG1 JUMPDEST PUSH1 0x4 DUP1 SLOAD PUSH1 0x40 MLOAD PUSH4 0x8140BD0B PUSH1 0xE0 SHL DUP2 MSTORE PUSH1 0x1 PUSH1 0x1 PUSH1 0xA0 SHL SUB SWAP1 SWAP2 AND SWAP2 PUSH4 0x8140BD0B SWAP2 PUSH2 0x1308 SWAP2 DUP13 SWAP2 DUP12 SWAP2 DUP8 SWAP2 DUP13 SWAP2 CALLVALUE SWAP2 ADD PUSH2 0x188B JUMP JUMPDEST PUSH1 0x0 PUSH1 0x40 MLOAD DUP1 DUP4 SUB DUP2 PUSH1 0x0 DUP8 DUP1 EXTCODESIZE ISZERO DUP1 ISZERO PUSH2 0x1322 JUMPI PUSH1 0x0 DUP1 REVERT JUMPDEST POP GAS CALL ISZERO DUP1 ISZERO PUSH2 0x1336 JUMPI RETURNDATASIZE PUSH1 0x0 DUP1 RETURNDATACOPY RETURNDATASIZE PUSH1 0x0 REVERT JUMPDEST POP PUSH1 0x0 SWAP3 POP PUSH1 0x1 SWAP2 POP PUSH2 0x1346 SWAP1 POP JUMP JUMPDEST DUP3 PUSH1 0x3 DUP2 GT ISZERO PUSH2 0x1358 JUMPI PUSH2 0x1358 PUSH2 0x1518 JUMP JUMPDEST EQ DUP1 PUSH2 0x1375 JUMPI POP PUSH1 0x3 DUP3 PUSH1 0x3 DUP2 GT ISZERO PUSH2 0x1373 JUMPI PUSH2 0x1373 PUSH2 0x1518 JUMP JUMPDEST EQ JUMPDEST PUSH2 0x1399 JUMPI PUSH2 0x2710 PUSH1 0x7 SLOAD DUP7 PUSH2 0x138A SWAP2 SWAP1 PUSH2 0x17B4 JUMP JUMPDEST PUSH2 0x1394 SWAP2 SWAP1 PUSH2 0x17D3 JUMP JUMPDEST PUSH2 0x13C0 JUMP JUMPDEST PUSH2 0x2710 PUSH1 0x7 SLOAD PUSH2 0x2710 PUSH2 0x13AC SWAP2 SWAP1 PUSH2 0x17E7 JUMP JUMPDEST PUSH2 0x13B6 SWAP1 DUP9 PUSH2 0x17B4 JUMP JUMPDEST PUSH2 0x13C0 SWAP2 SWAP1 PUSH2 0x17D3 JUMP JUMPDEST SWAP1 POP PUSH32 0xA0D8233EED567B022EDE33AB83DC1F512E739350019F844A668485E59BD21101 DUP10 DUP9 DUP11 DUP5 DUP7 TIMESTAMP PUSH1 0x40 MLOAD PUSH2 0x13FB SWAP7 SWAP6 SWAP5 SWAP4 SWAP3 SWAP2 SWAP1 PUSH2 0x18B9 JUMP JUMPDEST PUSH1 0x40 MLOAD DUP1 SWAP2 SUB SWAP1 LOG1 POP POP PUSH1 0x1 DUP1 SSTORE POP POP POP POP POP POP POP JUMP JUMPDEST PUSH1 0x0 SLOAD PUSH1 0x1 PUSH1 0x1 PUSH1 0xA0 SHL SUB AND CALLER EQ PUSH2 0x143C JUMPI PUSH1 0x40 MLOAD PUSH3 0x461BCD PUSH1 0xE5 SHL DUP2 MSTORE PUSH1 0x4 ADD PUSH2 0x6C1 SWAP1 PUSH2 0x17FE JUMP JUMPDEST PUSH1 0x1 PUSH1 0x1 PUSH1 0xA0 SHL SUB DUP2 AND PUSH2 0x14A1 JUMPI PUSH1 0x40 MLOAD PUSH3 0x461BCD PUSH1 0xE5 SHL DUP2 MSTORE PUSH1 0x20 PUSH1 0x4 DUP3 ADD MSTORE PUSH1 0x26 PUSH1 0x24 DUP3 ADD MSTORE PUSH32 0x4F776E61626C653A206E6577206F776E657220697320746865207A65726F2061 PUSH1 0x44 DUP3 ADD MSTORE PUSH6 0x646472657373 PUSH1 0xD0 SHL PUSH1 0x64 DUP3 ADD MSTORE PUSH1 0x84 ADD PUSH2 0x6C1 JUMP JUMPDEST PUSH2 0x7F0 DUP2 JUMPDEST PUSH1 0x0 DUP1 SLOAD PUSH1 0x1 PUSH1 0x1 PUSH1 0xA0 SHL SUB DUP4 DUP2 AND PUSH1 0x1 PUSH1 0x1 PUSH1 0xA0 SHL SUB NOT DUP4 AND DUP2 OR DUP5 SSTORE PUSH1 0x40 MLOAD SWAP2 SWAP1 SWAP3 AND SWAP3 DUP4 SWAP2 PUSH32 0x8BE0079C531659141344CD1FD0A4F28419497F9722A3DAAFE3B4186F6B6457E0 SWAP2 SWAP1 LOG3 POP POP JUMP JUMPDEST PUSH1 0x0 DUP1 PUSH1 0x40 DUP4 DUP6 SUB SLT ISZERO PUSH2 0x1509 JUMPI PUSH1 0x0 DUP1 REVERT JUMPDEST POP POP DUP1 CALLDATALOAD SWAP3 PUSH1 0x20 SWAP1 SWAP2 ADD CALLDATALOAD SWAP2 POP JUMP JUMPDEST PUSH4 0x4E487B71 PUSH1 0xE0 SHL PUSH1 0x0 MSTORE PUSH1 0x21 PUSH1 0x4 MSTORE PUSH1 0x24 PUSH1 0x0 REVERT JUMPDEST PUSH1 0x4 DUP2 LT PUSH2 0x154C JUMPI PUSH4 0x4E487B71 PUSH1 0xE0 SHL PUSH1 0x0 MSTORE PUSH1 0x21 PUSH1 0x4 MSTORE PUSH1 0x24 PUSH1 0x0 REVERT JUMPDEST SWAP1 MSTORE JUMP JUMPDEST PUSH1 0x20 DUP2 ADD PUSH2 0x691 DUP3 DUP5 PUSH2 0x152E JUMP JUMPDEST PUSH1 0x1 PUSH1 0x1 PUSH1 0xA0 SHL SUB DUP2 AND DUP2 EQ PUSH2 0x7F0 JUMPI PUSH1 0x0 DUP1 REVERT JUMPDEST PUSH1 0x0 PUSH1 0x20 DUP3 DUP5 SUB SLT ISZERO PUSH2 0x1585 JUMPI PUSH1 0x0 DUP1 REVERT JUMPDEST DUP2 CALLDATALOAD PUSH2 0x1590 DUP2 PUSH2 0x155E JUMP JUMPDEST SWAP4 SWAP3 POP POP POP JUMP JUMPDEST PUSH1 0x40 MLOAD PUSH2 0x1C0 DUP2 ADD PUSH8 0xFFFFFFFFFFFFFFFF DUP2 GT DUP3 DUP3 LT OR ISZERO PUSH2 0x15C9 JUMPI PUSH4 0x4E487B71 PUSH1 0xE0 SHL PUSH1 0x0 MSTORE PUSH1 0x41 PUSH1 0x4 MSTORE PUSH1 0x24 PUSH1 0x0 REVERT JUMPDEST PUSH1 0x40 MSTORE SWAP1 JUMP JUMPDEST DUP1 MLOAD PUSH2 0xFFFF DUP2 AND DUP2 EQ PUSH2 0x15E1 JUMPI PUSH1 0x0 DUP1 REVERT JUMPDEST SWAP2 SWAP1 POP JUMP JUMPDEST DUP1 MLOAD PUSH1 0x4 DUP2 LT PUSH2 0x15E1 JUMPI PUSH1 0x0 DUP1 REVERT JUMPDEST PUSH1 0x0 PUSH1 0x80 DUP3 DUP5 SUB SLT ISZERO PUSH2 0x1607 JUMPI PUSH1 0x0 DUP1 REVERT JUMPDEST PUSH1 0x40 MLOAD PUSH1 0x80 DUP2 ADD DUP2 DUP2 LT PUSH8 0xFFFFFFFFFFFFFFFF DUP3 GT OR ISZERO PUSH2 0x1638 JUMPI PUSH4 0x4E487B71 PUSH1 0xE0 SHL PUSH1 0x0 MSTORE PUSH1 0x41 PUSH1 0x4 MSTORE PUSH1 0x24 PUSH1 0x0 REVERT JUMPDEST PUSH1 0x40 MSTORE PUSH2 0x1644 DUP4 PUSH2 0x15CF JUMP JUMPDEST DUP2 MSTORE PUSH1 0x20 DUP4 ADD MLOAD PUSH5 0xFFFFFFFFFF DUP2 AND DUP2 EQ PUSH2 0x165E JUMPI PUSH1 0x0 DUP1 REVERT JUMPDEST PUSH1 0x20 DUP3 ADD MSTORE PUSH2 0x166F PUSH1 0x40 DUP5 ADD PUSH2 0x15CF JUMP JUMPDEST PUSH1 0x40 DUP3 ADD MSTORE PUSH2 0x1680 PUSH1 0x60 DUP5 ADD PUSH2 0x15E6 JUMP JUMPDEST PUSH1 0x60 DUP3 ADD MSTORE SWAP4 SWAP3 POP POP POP JUMP JUMPDEST PUSH1 0x0 PUSH2 0x1C0 DUP3 DUP5 SUB SLT ISZERO PUSH2 0x169F JUMPI PUSH1 0x0 DUP1 REVERT JUMPDEST PUSH2 0x16A7 PUSH2 0x1597 JUMP JUMPDEST DUP3 MLOAD DUP2 MSTORE PUSH1 0x20 DUP4 ADD MLOAD PUSH1 0x20 DUP3 ADD MSTORE PUSH1 0x40 DUP4 ADD MLOAD PUSH1 0x40 DUP3 ADD MSTORE PUSH1 0x60 DUP4 ADD MLOAD PUSH1 0x60 DUP3 ADD MSTORE PUSH1 0x80 DUP4 ADD MLOAD PUSH1 0x80 DUP3 ADD MSTORE PUSH1 0xA0 DUP4 ADD MLOAD PUSH1 0xA0 DUP3 ADD MSTORE PUSH1 0xC0 DUP4 ADD MLOAD PUSH1 0xC0 DUP3 ADD MSTORE PUSH1 0xE0 DUP4 ADD MLOAD PUSH1 0xE0 DUP3 ADD MSTORE PUSH2 0x100 DUP1 DUP5 ADD MLOAD DUP2 DUP4 ADD MSTORE POP PUSH2 0x120 DUP1 DUP5 ADD MLOAD DUP2 DUP4 ADD MSTORE POP PUSH2 0x140 DUP1 DUP5 ADD MLOAD DUP2 DUP4 ADD MSTORE POP PUSH2 0x160 DUP1 DUP5 ADD MLOAD DUP2 DUP4 ADD MSTORE POP PUSH2 0x180 DUP1 DUP5 ADD MLOAD DUP2 DUP4 ADD MSTORE POP PUSH2 0x1A0 PUSH2 0x173B DUP2 DUP6 ADD PUSH2 0x15E6 JUMP JUMPDEST SWAP1 DUP3 ADD MSTORE SWAP4 SWAP3 POP POP POP JUMP JUMPDEST PUSH4 0x4E487B71 PUSH1 0xE0 SHL PUSH1 0x0 MSTORE PUSH1 0x32 PUSH1 0x4 MSTORE PUSH1 0x24 PUSH1 0x0 REVERT JUMPDEST PUSH4 0x4E487B71 PUSH1 0xE0 SHL PUSH1 0x0 MSTORE PUSH1 0x11 PUSH1 0x4 MSTORE PUSH1 0x24 PUSH1 0x0 REVERT JUMPDEST PUSH1 0x0 DUP3 NOT DUP3 GT ISZERO PUSH2 0x1785 JUMPI PUSH2 0x1785 PUSH2 0x175C JUMP JUMPDEST POP ADD SWAP1 JUMP JUMPDEST PUSH4 0x4E487B71 PUSH1 0xE0 SHL PUSH1 0x0 MSTORE PUSH1 0x12 PUSH1 0x4 MSTORE PUSH1 0x24 PUSH1 0x0 REVERT JUMPDEST PUSH1 0x0 DUP3 PUSH2 0x17AF JUMPI PUSH2 0x17AF PUSH2 0x178A JUMP JUMPDEST POP MOD SWAP1 JUMP JUMPDEST PUSH1 0x0 DUP2 PUSH1 0x0 NOT DIV DUP4 GT DUP3 ISZERO ISZERO AND ISZERO PUSH2 0x17CE JUMPI PUSH2 0x17CE PUSH2 0x175C JUMP JUMPDEST POP MUL SWAP1 JUMP JUMPDEST PUSH1 0x0 DUP3 PUSH2 0x17E2 JUMPI PUSH2 0x17E2 PUSH2 0x178A JUMP JUMPDEST POP DIV SWAP1 JUMP JUMPDEST PUSH1 0x0 DUP3 DUP3 LT ISZERO PUSH2 0x17F9 JUMPI PUSH2 0x17F9 PUSH2 0x175C JUMP JUMPDEST POP SUB SWAP1 JUMP JUMPDEST PUSH1 0x20 DUP1 DUP3 MSTORE DUP2 DUP2 ADD MSTORE PUSH32 0x4F776E61626C653A2063616C6C6572206973206E6F7420746865206F776E6572 PUSH1 0x40 DUP3 ADD MSTORE PUSH1 0x60 ADD SWAP1 JUMP JUMPDEST PUSH1 0x0 PUSH1 0x20 DUP3 DUP5 SUB SLT ISZERO PUSH2 0x1845 JUMPI PUSH1 0x0 DUP1 REVERT JUMPDEST POP MLOAD SWAP2 SWAP1 POP JUMP JUMPDEST PUSH1 0x0 PUSH1 0x20 DUP3 DUP5 SUB SLT ISZERO PUSH2 0x185E JUMPI PUSH1 0x0 DUP1 REVERT JUMPDEST DUP2 MLOAD DUP1 ISZERO ISZERO DUP2 EQ PUSH2 0x1590 JUMPI PUSH1 0x0 DUP1 REVERT JUMPDEST PUSH1 0x0 PUSH1 0x20 DUP3 DUP5 SUB SLT ISZERO PUSH2 0x1880 JUMPI PUSH1 0x0 DUP1 REVERT JUMPDEST DUP2 MLOAD PUSH2 0x1590 DUP2 PUSH2 0x155E JUMP JUMPDEST DUP6 DUP2 MSTORE PUSH1 0x20 DUP2 ADD DUP6 SWAP1 MSTORE PUSH1 0xA0 DUP2 ADD PUSH2 0x18A6 PUSH1 0x40 DUP4 ADD DUP7 PUSH2 0x152E JUMP JUMPDEST PUSH1 0x60 DUP3 ADD SWAP4 SWAP1 SWAP4 MSTORE PUSH1 0x80 ADD MSTORE SWAP4 SWAP3 POP POP POP JUMP JUMPDEST PUSH1 0x0 PUSH1 0xC0 DUP3 ADD SWAP1 POP DUP8 DUP3 MSTORE DUP7 PUSH1 0x20 DUP4 ADD MSTORE DUP6 PUSH1 0x40 DUP4 ADD MSTORE DUP5 PUSH1 0x60 DUP4 ADD MSTORE PUSH2 0x18E3 PUSH1 0x80 DUP4 ADD DUP6 PUSH2 0x152E JUMP JUMPDEST DUP3 PUSH1 0xA0 DUP4 ADD MSTORE SWAP8 SWAP7 POP POP POP POP POP POP POP JUMP INVALID LOG2 PUSH5 0x6970667358 0x22 SLT KECCAK256 PUSH29 0xF628A5271902CF949BD5FAFD8F418C406C181B9C9A931293062AC65824 0x2E 0x2B PUSH5 0x736F6C6343 STOP ADDMOD 0xF STOP CALLER ",
  "sha1": "2a7e429176cf3316c29fdedcf563604bb0f77b62",
  "source": "pragma solidity 0.8.15;\n// SPDX-License-Identifier: UNLICENSED\n\n// This will be where wizards receive ecosystem tokens\nimport \"./interfaces/IERC20.sol\";\n//import \"./interfaces/IERC721.sol\";\nimport \"./RelativeTimeVault.sol\";\nimport \"./WizardTower.sol\";\nimport \"./helpers/ReentrancyGuard.sol\";\n//import \"./Wizards.sol\";\n\n\ncontract WizardBattle is Ownable, ReentrancyGuard {\n\n    uint256 maxFloors = 10000;\n    IERC20 ecosystemToken;\n    Wizards wizardNFT;\n    WizardTower wizardTower;\n    uint256 DAOShare = 300; // out of 10,000 (100%) => 1% // percent of fee\n    uint256 attackFee = 1000; // out of 10,000 => 10%\n    uint256 dustThreshold =10000;\n    uint256 ELEMENTSYNERGYMULTIPLIER = 100; // out of 100 (110 means 10% bonus)\n\n    constructor(address _ecosystemToken, address _wizardNFT, address _wizardTower) {\n        ecosystemToken = IERC20(_ecosystemToken);\n        wizardNFT = Wizards(_wizardNFT);\n        wizardTower = WizardTower(_wizardTower);\n    }\n\n//    enum Wizards.OUTCOME {LOSS, WIN, TIE, CAPTURE}\n//    enum ELEMENT {FIRE, WIND, WATER, EARTH}\n\n    event Attack(uint256 attackerId, uint256 defenderId, uint256 floorAttacked,\n                 uint256 netTokensGainedOrLost, Wizards.OUTCOME outcome, uint256 timestamp);\n    event Capture(uint256 captured, uint256 capturer, uint256 timestamp);\n    event AttackRound(uint256 round, uint256 damageDealt, uint256 defenderHP);\n\n    ////////////////////\n    ////    Get       //\n    ////////////////////\n\n\n    ////////////////////\n    ////    Battle    //\n    ////////////////////\n\n    // todo -- decide if use Ether or ERC20 or ERC777\n    // todo -- default victory if defender  is not active\n//    function attack(uint256 _attackerId, uint256 _floor) external {\n//        require(wizardNFT.ownerOf(_attackerId)==msg.sender, \"must be NFT holder\");\n//        require(wizardTower.isOnTheTower(_attackerId), \"attacker must be on the tower\");\n//        require(wizardNFT.isActive(_attackerId), \"must be active\");\n//        require(_floor <= wizardTower.activeFloors() && _floor != 0, \"must valid floor\");\n//        uint256 occupyingWizard = wizardTower.getWizardOnFloor(_floor);\n//        uint256 tokensOnFloor = wizardTower.floorBalance(_floor);\n//        uint256 tokensWaged = wizardTower.floorBalance(_floor)*attackFee/10000;\n//        uint256 attackingFromFloor = wizardTower.wizardIdToFloor(_attackerId);\n//\n//        // 10% fee for attacking\n//        require(ecosystemToken.balanceOf(msg.sender) > tokensWaged, \"insuffcient tokens to attack\"); // only if other user is valid\n//        // send all fees to contract\n//        require(ecosystemToken.transferFrom(msg.sender, address(this), tokensWaged), \"transfer failed\"); // only if other user is valid\n//        // send non DAO fees to defenders wallet\n//        require(ecosystemToken.transfer(wizardNFT.ownerOf(occupyingWizard), tokensWaged*(10000 - DAOShare)/10000), \"transfer failed\"); // only if other user is valid\n//\n//\n//        // capture other wizard if they are not active\n//        uint256 won; // 0 => loss, 1 => win, 2 => tie?, 3 => capture\n//        if(!wizardNFT.isActive(occupyingWizard)){\n//            won = 3;\n//            // handle capture below\n//        }\n//        else {\n//            // todo -- randomness, battle dynamics\n//            won = uint256(keccak256(abi.encodePacked(msg.sender, block.timestamp, block.difficulty, _floor))) % 2;\n//        }\n//\n//        if(won!=0) {\n//            // withdraw tokens before leaving floor\n//            if(wizardTower.floorBalance(attackingFromFloor) > dustThreshold) {\n//                wizardTower.withdraw(attackingFromFloor);\n//            }\n//            // switch places\n//            wizardTower.switchFloors(attackingFromFloor, _floor);\n//            // withdraw tokens at new floor\n//            if(wizardTower.floorBalance(_floor) > dustThreshold) {\n//                wizardTower.withdraw(_floor);\n//            }\n//           // update NFT stats for wons/loses/tokens\n//        }\n//        else {\n//            // nothing else to do\n//        }\n//\n//        if(won==3){\n//            // kick wizard off tower\n//            wizardTower.captureFloor(attackingFromFloor); // wizard now resides on other floor\n//            emit Capture(occupyingWizard,_attackerId, block.timestamp);\n//\n//        }\n//\n//        wizardNFT.reportBattle(_attackerId, occupyingWizard, won, tokensOnFloor, tokensWaged);\n//\n//        uint256 tokensWonOrLost = (won == 1) || ( won== 3 ) ?  tokensOnFloor - tokensWaged : tokensWaged;\n//        emit Attack(_attackerId, occupyingWizard, _floor, tokensWonOrLost, won, block.timestamp);\n//    }\n    // use Eth\n    // refund extra eth if sent too much\n    // todo-- how to deal with tower prices moving up/down?\n    // send 15%, get refund if over\n    function attack(uint256 _attackerId, uint256 _floor) external payable nonReentrant {\n        require(msg.sender == tx.origin, \"can not call via contract\");\n        require(wizardNFT.ownerOf(_attackerId)==msg.sender, \"must be NFT holder\");\n        require(wizardTower.isOnTheTower(_attackerId), \"attacker must be on the tower\");\n        require(wizardNFT.isActive(_attackerId), \"must be active\");\n        require(_floor <= wizardTower.activeFloors() && _floor != 0, \"must valid floor\");\n        uint256 occupyingWizard = wizardTower.getWizardOnFloor(_floor);\n        uint256 tokensOnFloor = wizardTower.floorBalance(_floor);\n        uint256 ethValueOfTokensOnFloor = 10000; // todo -- use dex to calculate this\n//        uint256 tokensWaged = msg.value;\n        uint256 attackingFromFloor = wizardTower.wizardIdToFloor(_attackerId);\n        require(_floor != attackingFromFloor, \"Can not attack yourself.\");\n\n        // 10% fee for attacking\n        require(ethValueOfTokensOnFloor*attackFee/10000 <= msg.value, \"insuffcient tokens to attack\"); // only if other user is valid\n\n        bool _success = false;\n        // send extra back\n        if((msg.value - ethValueOfTokensOnFloor*attackFee/10000) > dustThreshold){\n            (_success, ) = msg.sender.call{value: msg.value - ethValueOfTokensOnFloor*attackFee/10000}(\"\");\n        }\n\n        // send Eth to defender\n        (_success, ) = wizardNFT.ownerOf(occupyingWizard).call{value: ethValueOfTokensOnFloor*attackFee*(10000 - DAOShare)/(10**8)}(\"\");\n\n        // capture other wizard if they are not active\n        Wizards.OUTCOME outcome; // 0 => loss, 1 => win, 2 => tie?, 3 => capture\n        if(!wizardNFT.isActive(occupyingWizard)){\n            outcome = Wizards.OUTCOME.CAPTURE;\n            // handle capture below\n        }\n        else {\n            // todo -- randomness, battle dynamics\n//            outcome = uint256(keccak256(abi.encodePacked(msg.sender, block.timestamp, block.difficulty, _floor))) % 2;\n            outcome = battle(_attackerId, occupyingWizard);\n        }\n\n        if(outcome==Wizards.OUTCOME.WIN || outcome==Wizards.OUTCOME.CAPTURE) {\n            // withdraw tokens before leaving floor\n            if(wizardTower.floorBalance(attackingFromFloor) > dustThreshold) {\n                wizardTower.withdraw(attackingFromFloor);\n            }\n            // switch places\n            wizardTower.switchFloors(attackingFromFloor, _floor);\n            // withdraw tokens at new floor\n            if(wizardTower.floorBalance(_floor) > dustThreshold) {\n                wizardTower.withdraw(_floor);\n            }\n           // update NFT stats for wins/loses/tokens\n        }\n        else { // if loss or tie\n            // nothing else to do\n        }\n\n        if(outcome==Wizards.OUTCOME.CAPTURE){\n            // kick wizard off tower\n            wizardTower.captureFloor(attackingFromFloor); // wizard now resides on other floor\n            emit Capture(occupyingWizard,_attackerId, block.timestamp);\n\n        }\n\n        wizardNFT.reportBattle(_attackerId, occupyingWizard, outcome, tokensOnFloor, msg.value);\n\n        uint256 tokensWonOrLost = (outcome == Wizards.OUTCOME.WIN) || ( outcome== Wizards.OUTCOME.CAPTURE ) ?  tokensOnFloor*(10000 - attackFee)/10000 : ethValueOfTokensOnFloor*attackFee/10000;\n        emit Attack(_attackerId, occupyingWizard, _floor, tokensWonOrLost, outcome, block.timestamp);\n    }\n\n    // todo -- return a number between 0 and 200 for all combinations\n    function getElementMultiplier(Wizards.ELEMENT attackingElement, Wizards.ELEMENT defendingElement) internal pure returns(uint256){\n        // ELEMENTSYNERGYMULTIPLIER\n        return 100;\n    }\n\n    // @dev find the outcome of _attackerId attacking\n    function battle(uint256 _attackerId, uint256 _defenderId) public returns(Wizards.OUTCOME){ // todo -- expose this to public for use in other dApps?\n        WizardTower.FloorInfo memory floor = wizardTower.getFloorInfoGivenWizard(_defenderId); // does not contain floor #!\n        Wizards.ELEMENT floorElement = floor.element;\n        Wizards.Stats[2] memory characters = [wizardNFT.getStatsGivenId(_attackerId), wizardNFT.getStatsGivenId(_defenderId)];\n\n        // todo -- convert this to arrays\n//        Wizards.Stats memory attacker = wizardNFT.getStatsGivenId(_attackerId);\n//        Wizards.Stats memory defender = wizardNFT.getStatsGivenId(_defenderId);\n\n        uint256 pseudoRandNum = uint256(keccak256(abi.encodePacked(msg.sender, block.timestamp,\n            _attackerId, floor.lastWithdrawalTimestamp)));\n\n\n        // determine who fights first\n        uint256 firstToAttack; // 0 means attacker (aggressor)\n        uint256 firstAttackSelector = pseudoRandNum % (characters[0].speed + characters[1].speed);\n        pseudoRandNum >>= 8; // shift 8 bits\n        if(firstAttackSelector > characters[0].speed) {\n            firstToAttack = 1; // defender\n        }\n\n        // determine buffs ( out of 10**4 )\n        uint256[2] memory attackMultipliers =\n              [uint256((characters[0].element==floorElement ? ELEMENTSYNERGYMULTIPLIER : 100) * getElementMultiplier(characters[0].element, characters[1].element)),\n               uint256((characters[1].element==floorElement ? ELEMENTSYNERGYMULTIPLIER : 100) * getElementMultiplier(characters[1].element, characters[0].element))];\n\n        uint256 attackAmount;\n        uint256 attackLuck;\n        uint256 defenderIndex; // todo -- battle is only creating losses\n        defenderIndex = (firstToAttack==0 ? 1 : 0);\n        for(uint256 i=0; i < 20; ){\n            attackLuck = uint256(uint8(pseudoRandNum));\n            attackLuck = attackLuck > 12 ? attackLuck : 0; // 12/256 likelihood of being 0\n//            defenderIndex = (firstToAttack==0 ? 1 : 0);\n            // get attack value semi randomly\n            attackAmount = attackLuck == 0 ? 0 : characters[firstToAttack].magicalPower*attackMultipliers[firstToAttack] * (192 + attackLuck/4 ) / 256 / 10**4; // 3/4 max hit + 1/4 is random\n            // reduce attack amount by defense amount\n            attackAmount = attackAmount > characters[defenderIndex].magicalDefense/2 ? attackAmount - characters[defenderIndex].magicalDefense/2 : 0;\n            characters[defenderIndex].hp = attackAmount > characters[defenderIndex].hp ? 0 : characters[defenderIndex].hp - attackAmount;\n\n\n            emit AttackRound(i, attackAmount, characters[defenderIndex].hp);\n\n            if(characters[defenderIndex].hp == 0) {break;}\n\n            unchecked{\n                (firstToAttack, defenderIndex) = (defenderIndex, firstToAttack);\n                i++;\n            }\n        }\n\n        if(characters[0].hp == 0 ) {\n            return Wizards.OUTCOME.LOSS; // 0\n        }\n        else if(characters[1].hp == 0 ) {\n            return Wizards.OUTCOME.WIN; // 1\n        }\n        else {\n            return Wizards.OUTCOME.TIE; // 2\n        }\n\n        // 10 rounds of fight or death\n\n        // report battle outcome\n\n\n    }\n\n    ////////////////////\n    ////    Admin     //\n    ////////////////////\n    function withdraw() external onlyOwner {\n        uint256 tokens = wizardNFT.balanceOf(address(this));\n        require(ecosystemToken.transfer(msg.sender,tokens), \"transfer failed\"); // only if other user is valid\n    }\n\n\n\n}\n",
  "sourcePath": "contracts/WizardBattle.sol",
  "type": "contract"
}