{
  "abi": [
    {
      "inputs": [
        {
          "internalType": "address",
          "name": "_ecosystemToken",
          "type": "address"
        },
        {
          "internalType": "address",
          "name": "_wizardToken",
          "type": "address"
        }
      ],
      "stateMutability": "nonpayable",
      "type": "constructor"
    },
    {
      "anonymous": false,
      "inputs": [
        {
          "indexed": true,
          "internalType": "address",
          "name": "tokenOperator",
          "type": "address"
        },
        {
          "indexed": false,
          "internalType": "uint256",
          "name": "amount",
          "type": "uint256"
        }
      ],
      "name": "DrainTower",
      "type": "event"
    },
    {
      "anonymous": false,
      "inputs": [
        {
          "indexed": false,
          "internalType": "address",
          "name": "claimer",
          "type": "address"
        },
        {
          "indexed": false,
          "internalType": "uint256",
          "name": "floorClaimed",
          "type": "uint256"
        },
        {
          "indexed": true,
          "internalType": "uint256",
          "name": "wizardId",
          "type": "uint256"
        },
        {
          "indexed": false,
          "internalType": "uint256",
          "name": "timestamp",
          "type": "uint256"
        }
      ],
      "name": "FloorClaimed",
      "type": "event"
    },
    {
      "anonymous": false,
      "inputs": [
        {
          "indexed": false,
          "internalType": "address",
          "name": "battler",
          "type": "address"
        }
      ],
      "name": "NewBattler",
      "type": "event"
    },
    {
      "anonymous": false,
      "inputs": [
        {
          "indexed": false,
          "internalType": "address",
          "name": "tokenOperator",
          "type": "address"
        }
      ],
      "name": "NewOperator",
      "type": "event"
    },
    {
      "anonymous": false,
      "inputs": [
        {
          "indexed": true,
          "internalType": "address",
          "name": "previousOwner",
          "type": "address"
        },
        {
          "indexed": true,
          "internalType": "address",
          "name": "newOwner",
          "type": "address"
        }
      ],
      "name": "OwnershipTransferred",
      "type": "event"
    },
    {
      "anonymous": false,
      "inputs": [
        {
          "indexed": true,
          "internalType": "address",
          "name": "staker",
          "type": "address"
        },
        {
          "indexed": false,
          "internalType": "uint256",
          "name": "totalAmount",
          "type": "uint256"
        }
      ],
      "name": "Withdraw",
      "type": "event"
    },
    {
      "inputs": [],
      "name": "DA",
      "outputs": [
        {
          "internalType": "uint256",
          "name": "",
          "type": "uint256"
        }
      ],
      "stateMutability": "view",
      "type": "function"
    },
    {
      "inputs": [],
      "name": "_totalFloorPower",
      "outputs": [
        {
          "internalType": "uint256",
          "name": "",
          "type": "uint256"
        }
      ],
      "stateMutability": "view",
      "type": "function"
    },
    {
      "inputs": [],
      "name": "activeFloors",
      "outputs": [
        {
          "internalType": "uint256",
          "name": "",
          "type": "uint256"
        }
      ],
      "stateMutability": "view",
      "type": "function"
    },
    {
      "inputs": [],
      "name": "battler",
      "outputs": [
        {
          "internalType": "address",
          "name": "",
          "type": "address"
        }
      ],
      "stateMutability": "view",
      "type": "function"
    },
    {
      "inputs": [
        {
          "internalType": "uint256",
          "name": "_floorCaptured",
          "type": "uint256"
        }
      ],
      "name": "captureFloor",
      "outputs": [],
      "stateMutability": "nonpayable",
      "type": "function"
    },
    {
      "inputs": [
        {
          "internalType": "uint256",
          "name": "_wizardId",
          "type": "uint256"
        }
      ],
      "name": "claimFloor",
      "outputs": [
        {
          "internalType": "uint256",
          "name": "",
          "type": "uint256"
        }
      ],
      "stateMutability": "nonpayable",
      "type": "function"
    },
    {
      "inputs": [],
      "name": "drainTower",
      "outputs": [],
      "stateMutability": "nonpayable",
      "type": "function"
    },
    {
      "inputs": [
        {
          "internalType": "uint256",
          "name": "_floor",
          "type": "uint256"
        }
      ],
      "name": "floorBalance",
      "outputs": [
        {
          "internalType": "uint256",
          "name": "",
          "type": "uint256"
        }
      ],
      "stateMutability": "view",
      "type": "function"
    },
    {
      "inputs": [
        {
          "internalType": "uint256",
          "name": "",
          "type": "uint256"
        }
      ],
      "name": "floorIdToInfo",
      "outputs": [
        {
          "internalType": "uint16",
          "name": "floorPower",
          "type": "uint16"
        },
        {
          "internalType": "uint40",
          "name": "lastWithdrawalTimestamp",
          "type": "uint40"
        },
        {
          "internalType": "uint16",
          "name": "occupyingWizardId",
          "type": "uint16"
        },
        {
          "internalType": "enum Wizards.ELEMENT",
          "name": "element",
          "type": "uint8"
        }
      ],
      "stateMutability": "view",
      "type": "function"
    },
    {
      "inputs": [
        {
          "internalType": "uint256",
          "name": "_floor",
          "type": "uint256"
        }
      ],
      "name": "floorPower",
      "outputs": [
        {
          "internalType": "uint256",
          "name": "",
          "type": "uint256"
        }
      ],
      "stateMutability": "view",
      "type": "function"
    },
    {
      "inputs": [
        {
          "internalType": "uint256",
          "name": "_wizardId",
          "type": "uint256"
        }
      ],
      "name": "getFloorGivenWizard",
      "outputs": [
        {
          "internalType": "uint256",
          "name": "",
          "type": "uint256"
        }
      ],
      "stateMutability": "view",
      "type": "function"
    },
    {
      "inputs": [
        {
          "internalType": "uint256",
          "name": "_floor",
          "type": "uint256"
        }
      ],
      "name": "getFloorInfoGivenFloor",
      "outputs": [
        {
          "components": [
            {
              "internalType": "uint16",
              "name": "floorPower",
              "type": "uint16"
            },
            {
              "internalType": "uint40",
              "name": "lastWithdrawalTimestamp",
              "type": "uint40"
            },
            {
              "internalType": "uint16",
              "name": "occupyingWizardId",
              "type": "uint16"
            },
            {
              "internalType": "enum Wizards.ELEMENT",
              "name": "element",
              "type": "uint8"
            }
          ],
          "internalType": "struct RelativeTimeVault.FloorInfo",
          "name": "",
          "type": "tuple"
        }
      ],
      "stateMutability": "view",
      "type": "function"
    },
    {
      "inputs": [
        {
          "internalType": "uint256",
          "name": "_wizardId",
          "type": "uint256"
        }
      ],
      "name": "getFloorInfoGivenWizard",
      "outputs": [
        {
          "components": [
            {
              "internalType": "uint16",
              "name": "floorPower",
              "type": "uint16"
            },
            {
              "internalType": "uint40",
              "name": "lastWithdrawalTimestamp",
              "type": "uint40"
            },
            {
              "internalType": "uint16",
              "name": "occupyingWizardId",
              "type": "uint16"
            },
            {
              "internalType": "enum Wizards.ELEMENT",
              "name": "element",
              "type": "uint8"
            }
          ],
          "internalType": "struct RelativeTimeVault.FloorInfo",
          "name": "",
          "type": "tuple"
        }
      ],
      "stateMutability": "view",
      "type": "function"
    },
    {
      "inputs": [
        {
          "internalType": "uint256",
          "name": "_floor",
          "type": "uint256"
        }
      ],
      "name": "getWizardOnFloor",
      "outputs": [
        {
          "internalType": "uint256",
          "name": "",
          "type": "uint256"
        }
      ],
      "stateMutability": "view",
      "type": "function"
    },
    {
      "inputs": [
        {
          "internalType": "uint256",
          "name": "_wizardId",
          "type": "uint256"
        }
      ],
      "name": "isOnTheTower",
      "outputs": [
        {
          "internalType": "bool",
          "name": "",
          "type": "bool"
        }
      ],
      "stateMutability": "view",
      "type": "function"
    },
    {
      "inputs": [],
      "name": "owner",
      "outputs": [
        {
          "internalType": "address",
          "name": "",
          "type": "address"
        }
      ],
      "stateMutability": "view",
      "type": "function"
    },
    {
      "inputs": [],
      "name": "renounceOwnership",
      "outputs": [],
      "stateMutability": "nonpayable",
      "type": "function"
    },
    {
      "inputs": [
        {
          "internalType": "uint256",
          "name": "_floorA",
          "type": "uint256"
        },
        {
          "internalType": "uint256",
          "name": "_floorB",
          "type": "uint256"
        }
      ],
      "name": "switchFloors",
      "outputs": [],
      "stateMutability": "nonpayable",
      "type": "function"
    },
    {
      "inputs": [],
      "name": "token",
      "outputs": [
        {
          "internalType": "contract IERC20",
          "name": "",
          "type": "address"
        }
      ],
      "stateMutability": "view",
      "type": "function"
    },
    {
      "inputs": [],
      "name": "tokenOperator",
      "outputs": [
        {
          "internalType": "address",
          "name": "",
          "type": "address"
        }
      ],
      "stateMutability": "view",
      "type": "function"
    },
    {
      "inputs": [],
      "name": "totalPowerSnapshot",
      "outputs": [
        {
          "internalType": "uint256",
          "name": "",
          "type": "uint256"
        }
      ],
      "stateMutability": "view",
      "type": "function"
    },
    {
      "inputs": [],
      "name": "totalPowerSnapshotTimestamp",
      "outputs": [
        {
          "internalType": "uint256",
          "name": "",
          "type": "uint256"
        }
      ],
      "stateMutability": "view",
      "type": "function"
    },
    {
      "inputs": [
        {
          "internalType": "address",
          "name": "newOwner",
          "type": "address"
        }
      ],
      "name": "transferOwnership",
      "outputs": [],
      "stateMutability": "nonpayable",
      "type": "function"
    },
    {
      "inputs": [
        {
          "internalType": "address",
          "name": "_battler",
          "type": "address"
        }
      ],
      "name": "updateBattler",
      "outputs": [],
      "stateMutability": "nonpayable",
      "type": "function"
    },
    {
      "inputs": [
        {
          "internalType": "address",
          "name": "newOperator",
          "type": "address"
        }
      ],
      "name": "updateOperator",
      "outputs": [],
      "stateMutability": "nonpayable",
      "type": "function"
    },
    {
      "inputs": [
        {
          "internalType": "uint256",
          "name": "_floor",
          "type": "uint256"
        }
      ],
      "name": "withdraw",
      "outputs": [],
      "stateMutability": "nonpayable",
      "type": "function"
    },
    {
      "inputs": [
        {
          "internalType": "uint256",
          "name": "",
          "type": "uint256"
        }
      ],
      "name": "wizardIdToFloor",
      "outputs": [
        {
          "internalType": "uint256",
          "name": "",
          "type": "uint256"
        }
      ],
      "stateMutability": "view",
      "type": "function"
    },
    {
      "inputs": [],
      "name": "wizardsNFT",
      "outputs": [
        {
          "internalType": "contract Wizards",
          "name": "",
          "type": "address"
        }
      ],
      "stateMutability": "view",
      "type": "function"
    }
  ],
  "bytecode": "60806040526000600455620f42406008556402540be400600955612706600a55612710600f553480156200003257600080fd5b5060405162001a7338038062001a7383398101604081905262000055916200012e565b600160005581816200006733620000bf565b600280546001600160a01b03199081166001600160a01b03948516179091556003805482169290931691909117909155600b8054339083168117909155600c8054909216179055505042600581905560075562000166565b600180546001600160a01b038381166001600160a01b0319831681179093556040519116919082907f8be0079c531659141344cd1fd0a4f28419497f9722a3daafe3b4186f6b6457e090600090a35050565b80516001600160a01b03811681146200012957600080fd5b919050565b600080604083850312156200014257600080fd5b6200014d8362000111565b91506200015d6020840162000111565b90509250929050565b6118fd80620001766000396000f3fe608060405234801561001057600080fd5b50600436106101c45760003560e01c8063944d934b116100f9578063e737b86e11610097578063ee545e6811610071578063ee545e6814610415578063f2fde38b14610428578063fb6bd1a91461043b578063fc0c546a1461044357600080fd5b8063e737b86e146103c7578063ec147c18146103da578063ed7df5621461040c57600080fd5b8063ac7475ed116100d3578063ac7475ed14610386578063bc0b0d8814610399578063c891c62a146103ac578063e52e3249146103b457600080fd5b8063944d934b1461034057806395ac8af9146103535780639a0e6a851461037357600080fd5b80635685cb2e1161016657806374d8bd371161014057806374d8bd37146102de5780638538fd42146103095780638a9f42841461031c5780638da5cb5b1461032f57600080fd5b80635685cb2e1461026b578063679461431461027e578063715018a6146102d657600080fd5b80632e1a7d4d116101a25780632e1a7d4d14610219578063396dbf0d1461022e5780633cdd03981461023757806340e34dc01461024057600080fd5b8063049171ac146101c95780630c395781146101ef5780631eb69af7146101f9575b600080fd5b6101dc6101d73660046115e5565b610456565b6040519081526020015b60405180910390f35b6101dc620f424081565b61020c6102073660046115e5565b6104c8565b6040516101e69190611636565b61022c6102273660046115e5565b610574565b005b6101dc60065481565b6101dc60045481565b6101dc61024e3660046115e5565b6000908152600d6020526040902054600160381b900461ffff1690565b6101dc6102793660046115e5565b61070d565b6102c661028c3660046115e5565b600d6020526000908152604090205461ffff8082169162010000810464ffffffffff1691600160381b82041690600160481b900460ff1684565b6040516101e6949392919061167e565b61022c610956565b6003546102f1906001600160a01b031681565b6040516001600160a01b0390911681526020016101e6565b61020c6103173660046115e5565b61098c565b61022c61032a3660046116b4565b610a81565b6001546001600160a01b03166102f1565b6101dc61034e3660046115e5565b610ba1565b6101dc6103613660046115e5565b600e6020526000908152604090205481565b61022c6103813660046115e5565b610bb2565b61022c6103943660046116eb565b610d04565b600c546102f1906001600160a01b031681565b61022c610df0565b61022c6103c23660046116eb565b610f51565b600b546102f1906001600160a01b031681565b6103fc6103e83660046115e5565b6000908152600e6020526040902054151590565b60405190151581526020016101e6565b6101dc60075481565b6101dc6104233660046115e5565b611036565b61022c6104363660046116eb565b611102565b6101dc61119d565b6002546102f1906001600160a01b031681565b60008082118015610473575060045461047090600161171e565b82105b6104b55760405162461bcd60e51b815260206004820152600e60248201526d34b73b30b634b210373ab6b132b960911b60448201526064015b60405180910390fd5b506000908152600e602052604090205490565b6104f06040805160808101825260008082526020820181905291810182905290606082015290565b6000828152600d60209081526040918290208251608081018452815461ffff808216835262010000820464ffffffffff1694830194909452600160381b810490931693810193909352906060830190600160481b900460ff16600381111561055a5761055a6115fe565b600381111561056b5761056b6115fe565b90525092915050565b6002600054036105c65760405162461bcd60e51b815260206004820152601f60248201527f5265656e7472616e637947756172643a207265656e7472616e742063616c6c0060448201526064016104ac565b600260005580158015906105dc57506004548111155b6106185760405162461bcd60e51b815260206004820152600d60248201526c34b73b30b634b210333637b7b960991b60448201526064016104ac565b6000818152600d6020526040908190205460035491516331a9108f60e11b8152600160381b90910461ffff16600482018190529132916001600160a01b0390911690636352211e90602401602060405180830381865afa158015610680573d6000803e3d6000fd5b505050506040513d601f19601f820116820180604052508101906106a49190611736565b6001600160a01b0316146106fa5760405162461bcd60e51b815260206004820181905260248201527f596f7520646f206e6f74206f776e207468652077697a6172642074686572652e60448201526064016104ac565b61070482326111d9565b50506001600055565b6000818152600e60205260408120541561075c5760405162461bcd60e51b815260206004820152601060248201526f30b63932b0b23c9031b630b4b6b2b21760811b60448201526064016104ac565b60016004600082825461076f919061171e565b9091555061079d90506040805160808101825260008082526020820181905291810182905290606082015290565b4264ffffffffff81166020838101919091526004805460408051938401919091526bffffffffffffffffffffffff193360601b169083015260548201929092526074016040516020818303038152906040528051906020012060001c6108039190611769565b6003811115610814576108146115fe565b8160600190600381111561082a5761082a6115fe565b9081600381111561083d5761083d6115fe565b90525061ffff80841660408084019182526004546000878152600e6020908152838220839055918152600d825291909120845181549286015193518516600160381b0261ffff60381b1964ffffffffff909516620100000266ffffffffffffff19909416919095161791909117918216831781556060840151849391929091839169ff0000000000000000001990911669ffffff000000000000001990911617600160481b8360038111156108f4576108f46115fe565b021790555090505061090660006113cb565b600454604080513381526020810192909252429082015283907f85ea83c5f50cb37e91bd558e80839597535164f593acc3dc74a9298c0b0817a79060600160405180910390a25050600454919050565b6001546001600160a01b031633146109805760405162461bcd60e51b81526004016104ac9061177d565b61098a60006113e8565b565b6109b46040805160808101825260008082526020820181905291810182905290606082015290565b6000821180156109d057506004546109cd90600161171e565b82105b610a0d5760405162461bcd60e51b815260206004820152600e60248201526d34b73b30b634b210373ab6b132b960911b60448201526064016104ac565b6000828152600e60209081526040808320548352600d8252918290208251608081018452815461ffff808216835262010000820464ffffffffff1694830194909452600160381b810490931693810193909352906060830190600160481b900460ff16600381111561055a5761055a6115fe565b600c546001600160a01b03163314610aab5760405162461bcd60e51b81526004016104ac906117b2565b6004548211158015610abf57506004548111155b8015610acb5750818114155b610b085760405162461bcd60e51b815260206004820152600e60248201526d696e76616c696420666c6f6f727360901b60448201526064016104ac565b610b306040805160808101825260008082526020820181905291810182905290606082015290565b506000828152600d602090815260408083208054858552828520805461ffff60381b1980841661ffff600160381b93849004811684029190911786558354909116938290048116808302949094179092559254929092049091168452600e9092528083209490945581529190912055565b6000610bac8261143a565b92915050565b600c546001600160a01b03163314610bdc5760405162461bcd60e51b81526004016104ac906117b2565b6000818152600d602052604080822054600454808452919092205460085461ffff600160381b9485900481169490920490911691610c1990610ba1565b1115610c9857600480546003546040516331a9108f60e11b8152928301849052610c98926001600160a01b0390911690636352211e90602401602060405180830381865afa158015610c6f573d6000803e3d6000fd5b505050506040513d601f19601f82011682018060405250810190610c939190611736565b6111d9565b6000838152600d60205260408120805468ffffffffffffff00001916600160381b61ffff85160266ffffffffff0000191617620100004264ffffffffff1602178155600480549192600192610cee9084906117f6565b90915550610cfe905060006113cb565b50505050565b6001546001600160a01b03163314610d2e5760405162461bcd60e51b81526004016104ac9061177d565b6001600160a01b03811615801590610d545750600b546001600160a01b03828116911614155b610d9b5760405162461bcd60e51b8152602060048201526018602482015277496e76616c6964206f70657261746f72206164647265737360401b60448201526064016104ac565b600b80546001600160a01b0319166001600160a01b0383169081179091556040519081527fda12ee837e6978172aaf54b16145ffe08414fd8710092ef033c71b8eb6ec189a906020015b60405180910390a150565b6001546001600160a01b03163314610e1a5760405162461bcd60e51b81526004016104ac9061177d565b6002546040516370a0823160e01b81523060048201526000916001600160a01b0316906370a0823190602401602060405180830381865afa158015610e63573d6000803e3d6000fd5b505050506040513d601f19601f82011682018060405250810190610e87919061180d565b60025460405163a9059cbb60e01b8152336004820152602481018390529192506001600160a01b03169063a9059cbb906044016020604051808303816000875af1158015610ed9573d6000803e3d6000fd5b505050506040513d601f19601f82011682018060405250810190610efd9190611826565b610f195760405162461bcd60e51b81526004016104ac90611848565b60405181815233907f0d52e6a96125965761d3461ff1f2c72df610ab6bc2584ac9f076b45b585f049f9060200160405180910390a250565b6001546001600160a01b03163314610f7b5760405162461bcd60e51b81526004016104ac9061177d565b6001600160a01b03811615801590610fa15750600c546001600160a01b03828116911614155b610fe85760405162461bcd60e51b8152602060048201526018602482015277496e76616c6964206f70657261746f72206164647265737360401b60448201526064016104ac565b600c80546001600160a01b0319166001600160a01b0383169081179091556040519081527fa6996d36756222f1028b4a1a97cbfa625158cf8e69ac5dcf367de3bd730d34a490602001610de5565b6000818152600d602090815260408083208151608081018352815461ffff808216835262010000820464ffffffffff1695830195909552600160381b81049094169281019290925283926060830190600160481b900460ff1660038111156110a0576110a06115fe565b60038111156110b1576110b16115fe565b8152505090506000816020015164ffffffffff166000146110dd57816020015164ffffffffff166110e1565b6005545b90506110ed81426117f6565b6009546110fa9190611894565b949350505050565b6001546001600160a01b0316331461112c5760405162461bcd60e51b81526004016104ac9061177d565b6001600160a01b0381166111915760405162461bcd60e51b815260206004820152602660248201527f4f776e61626c653a206e6577206f776e657220697320746865207a65726f206160448201526564647265737360d01b60648201526084016104ac565b61119a816113e8565b50565b6000600454600954600754426111b391906117f6565b6111bd9190611894565b6111c79190611894565b6006546111d4919061171e565b905090565b60006111e48361143a565b905060006111f184611036565b6002546040516370a0823160e01b815230600482015291925083916001600160a01b03909116906370a0823190602401602060405180830381865afa15801561123e573d6000803e3d6000fd5b505050506040513d601f19601f82011682018060405250810190611262919061180d565b10156112bb5760405162461bcd60e51b815260206004820152602260248201527f4e6f7420656e6f7567682062616c616e636520696e2074686520636f6e74726160448201526118dd60f21b60648201526084016104ac565b6000848152600d602052604090819020805466ffffffffff00001916620100004264ffffffffff1602179055600254905163a9059cbb60e01b81526001600160a01b038581166004830152602482018590529091169063a9059cbb906044016020604051808303816000875af1158015611339573d6000803e3d6000fd5b505050506040513d601f19601f8201168201806040525081019061135d9190611826565b6113795760405162461bcd60e51b81526004016104ac90611848565b611382816113cb565b826001600160a01b03167f884edad9ce6fa2440d8a54cc123490eb96d2768479d49ff9c7366125a9424364836040516113bd91815260200190565b60405180910390a250505050565b806113d461119d565b6113de91906117f6565b6006555042600755565b600180546001600160a01b038381166001600160a01b0319831681179093556040519116919082907f8be0079c531659141344cd1fd0a4f28419497f9722a3daafe3b4186f6b6457e090600090a35050565b600080600454116114805760405162461bcd60e51b815260206004820152601060248201526f6e6f2061637469766520666c6f6f727360801b60448201526064016104ac565b600454821115801561149157508115155b6114cd5760405162461bcd60e51b815260206004820152600d60248201526c34b73b30b634b210333637b7b960991b60448201526064016104ac565b6000828152600d602090815260408083208151608081018352815461ffff808216835262010000820464ffffffffff1695830195909552600160381b81049094169281019290925290916060830190600160481b900460ff166003811115611537576115376115fe565b6003811115611548576115486115fe565b905250905061155561119d565b6002546040516370a0823160e01b81523060048201526001600160a01b03909116906370a0823190602401602060405180830381865afa15801561159d573d6000803e3d6000fd5b505050506040513d601f19601f820116820180604052508101906115c1919061180d565b6115ca85611036565b6115d49190611894565b6115de91906118b3565b9392505050565b6000602082840312156115f757600080fd5b5035919050565b634e487b7160e01b600052602160045260246000fd5b6004811061163257634e487b7160e01b600052602160045260246000fd5b9052565b600060808201905061ffff80845116835264ffffffffff60208501511660208401528060408501511660408401525060608301516116776060840182611614565b5092915050565b61ffff858116825264ffffffffff8516602083015283166040820152608081016116ab6060830184611614565b95945050505050565b600080604083850312156116c757600080fd5b50508035926020909101359150565b6001600160a01b038116811461119a57600080fd5b6000602082840312156116fd57600080fd5b81356115de816116d6565b634e487b7160e01b600052601160045260246000fd5b6000821982111561173157611731611708565b500190565b60006020828403121561174857600080fd5b81516115de816116d6565b634e487b7160e01b600052601260045260246000fd5b60008261177857611778611753565b500690565b6020808252818101527f4f776e61626c653a2063616c6c6572206973206e6f7420746865206f776e6572604082015260600190565b60208082526024908201527f4f6e6c7920626174746c65722063616e2063616c6c20746869732066756e637460408201526334b7b71760e11b606082015260800190565b60008282101561180857611808611708565b500390565b60006020828403121561181f57600080fd5b5051919050565b60006020828403121561183857600080fd5b815180151581146115de57600080fd5b6020808252602c908201527f556e61626c6520746f207472616e7366657220746f6b656e206261636b20746f60408201526b081d1a19481858d8dbdd5b9d60a21b606082015260800190565b60008160001904831182151516156118ae576118ae611708565b500290565b6000826118c2576118c2611753565b50049056fea26469706673582212206b05d16a3ccb561252defb0c4a97a8ad7aabd0fd0bce7fa94a009de018b5b56264736f6c634300080f0033",
  "bytecodeSha1": "436ad3e4a4600a4031a33804656b75834250d6dd",
  "compiler": {
    "evm_version": "istanbul",
    "optimizer": {
      "enabled": true,
      "runs": 200
    },
    "version": "0.8.15+commit.e14f2714"
  },
  "contractName": "WizardTower",
  "language": "Solidity",
  "natspec": {
    "kind": "dev",
    "methods": {
      "owner()": {
        "details": "Returns the address of the current owner."
      },
      "renounceOwnership()": {
        "details": "Leaves the contract without owner. It will not be possible to call `onlyOwner` functions anymore. Can only be called by the current owner. NOTE: Renouncing ownership will leave the contract without an owner, thereby removing any functionality that is only available to the owner."
      },
      "transferOwnership(address)": {
        "details": "Transfers ownership of the contract to a new account (`newOwner`). Can only be called by the current owner."
      }
    },
    "version": 1
  },
  "opcodes": "PUSH1 0x80 PUSH1 0x40 MSTORE CALLVALUE DUP1 ISZERO PUSH2 0x10 JUMPI PUSH1 0x0 DUP1 REVERT JUMPDEST POP PUSH1 0x4 CALLDATASIZE LT PUSH2 0x1C4 JUMPI PUSH1 0x0 CALLDATALOAD PUSH1 0xE0 SHR DUP1 PUSH4 0x944D934B GT PUSH2 0xF9 JUMPI DUP1 PUSH4 0xE737B86E GT PUSH2 0x97 JUMPI DUP1 PUSH4 0xEE545E68 GT PUSH2 0x71 JUMPI DUP1 PUSH4 0xEE545E68 EQ PUSH2 0x415 JUMPI DUP1 PUSH4 0xF2FDE38B EQ PUSH2 0x428 JUMPI DUP1 PUSH4 0xFB6BD1A9 EQ PUSH2 0x43B JUMPI DUP1 PUSH4 0xFC0C546A EQ PUSH2 0x443 JUMPI PUSH1 0x0 DUP1 REVERT JUMPDEST DUP1 PUSH4 0xE737B86E EQ PUSH2 0x3C7 JUMPI DUP1 PUSH4 0xEC147C18 EQ PUSH2 0x3DA JUMPI DUP1 PUSH4 0xED7DF562 EQ PUSH2 0x40C JUMPI PUSH1 0x0 DUP1 REVERT JUMPDEST DUP1 PUSH4 0xAC7475ED GT PUSH2 0xD3 JUMPI DUP1 PUSH4 0xAC7475ED EQ PUSH2 0x386 JUMPI DUP1 PUSH4 0xBC0B0D88 EQ PUSH2 0x399 JUMPI DUP1 PUSH4 0xC891C62A EQ PUSH2 0x3AC JUMPI DUP1 PUSH4 0xE52E3249 EQ PUSH2 0x3B4 JUMPI PUSH1 0x0 DUP1 REVERT JUMPDEST DUP1 PUSH4 0x944D934B EQ PUSH2 0x340 JUMPI DUP1 PUSH4 0x95AC8AF9 EQ PUSH2 0x353 JUMPI DUP1 PUSH4 0x9A0E6A85 EQ PUSH2 0x373 JUMPI PUSH1 0x0 DUP1 REVERT JUMPDEST DUP1 PUSH4 0x5685CB2E GT PUSH2 0x166 JUMPI DUP1 PUSH4 0x74D8BD37 GT PUSH2 0x140 JUMPI DUP1 PUSH4 0x74D8BD37 EQ PUSH2 0x2DE JUMPI DUP1 PUSH4 0x8538FD42 EQ PUSH2 0x309 JUMPI DUP1 PUSH4 0x8A9F4284 EQ PUSH2 0x31C JUMPI DUP1 PUSH4 0x8DA5CB5B EQ PUSH2 0x32F JUMPI PUSH1 0x0 DUP1 REVERT JUMPDEST DUP1 PUSH4 0x5685CB2E EQ PUSH2 0x26B JUMPI DUP1 PUSH4 0x67946143 EQ PUSH2 0x27E JUMPI DUP1 PUSH4 0x715018A6 EQ PUSH2 0x2D6 JUMPI PUSH1 0x0 DUP1 REVERT JUMPDEST DUP1 PUSH4 0x2E1A7D4D GT PUSH2 0x1A2 JUMPI DUP1 PUSH4 0x2E1A7D4D EQ PUSH2 0x219 JUMPI DUP1 PUSH4 0x396DBF0D EQ PUSH2 0x22E JUMPI DUP1 PUSH4 0x3CDD0398 EQ PUSH2 0x237 JUMPI DUP1 PUSH4 0x40E34DC0 EQ PUSH2 0x240 JUMPI PUSH1 0x0 DUP1 REVERT JUMPDEST DUP1 PUSH4 0x49171AC EQ PUSH2 0x1C9 JUMPI DUP1 PUSH4 0xC395781 EQ PUSH2 0x1EF JUMPI DUP1 PUSH4 0x1EB69AF7 EQ PUSH2 0x1F9 JUMPI JUMPDEST PUSH1 0x0 DUP1 REVERT JUMPDEST PUSH2 0x1DC PUSH2 0x1D7 CALLDATASIZE PUSH1 0x4 PUSH2 0x15E5 JUMP JUMPDEST PUSH2 0x456 JUMP JUMPDEST PUSH1 0x40 MLOAD SWAP1 DUP2 MSTORE PUSH1 0x20 ADD JUMPDEST PUSH1 0x40 MLOAD DUP1 SWAP2 SUB SWAP1 RETURN JUMPDEST PUSH2 0x1DC PUSH3 0xF4240 DUP2 JUMP JUMPDEST PUSH2 0x20C PUSH2 0x207 CALLDATASIZE PUSH1 0x4 PUSH2 0x15E5 JUMP JUMPDEST PUSH2 0x4C8 JUMP JUMPDEST PUSH1 0x40 MLOAD PUSH2 0x1E6 SWAP2 SWAP1 PUSH2 0x1636 JUMP JUMPDEST PUSH2 0x22C PUSH2 0x227 CALLDATASIZE PUSH1 0x4 PUSH2 0x15E5 JUMP JUMPDEST PUSH2 0x574 JUMP JUMPDEST STOP JUMPDEST PUSH2 0x1DC PUSH1 0x6 SLOAD DUP2 JUMP JUMPDEST PUSH2 0x1DC PUSH1 0x4 SLOAD DUP2 JUMP JUMPDEST PUSH2 0x1DC PUSH2 0x24E CALLDATASIZE PUSH1 0x4 PUSH2 0x15E5 JUMP JUMPDEST PUSH1 0x0 SWAP1 DUP2 MSTORE PUSH1 0xD PUSH1 0x20 MSTORE PUSH1 0x40 SWAP1 KECCAK256 SLOAD PUSH1 0x1 PUSH1 0x38 SHL SWAP1 DIV PUSH2 0xFFFF AND SWAP1 JUMP JUMPDEST PUSH2 0x1DC PUSH2 0x279 CALLDATASIZE PUSH1 0x4 PUSH2 0x15E5 JUMP JUMPDEST PUSH2 0x70D JUMP JUMPDEST PUSH2 0x2C6 PUSH2 0x28C CALLDATASIZE PUSH1 0x4 PUSH2 0x15E5 JUMP JUMPDEST PUSH1 0xD PUSH1 0x20 MSTORE PUSH1 0x0 SWAP1 DUP2 MSTORE PUSH1 0x40 SWAP1 KECCAK256 SLOAD PUSH2 0xFFFF DUP1 DUP3 AND SWAP2 PUSH3 0x10000 DUP2 DIV PUSH5 0xFFFFFFFFFF AND SWAP2 PUSH1 0x1 PUSH1 0x38 SHL DUP3 DIV AND SWAP1 PUSH1 0x1 PUSH1 0x48 SHL SWAP1 DIV PUSH1 0xFF AND DUP5 JUMP JUMPDEST PUSH1 0x40 MLOAD PUSH2 0x1E6 SWAP5 SWAP4 SWAP3 SWAP2 SWAP1 PUSH2 0x167E JUMP JUMPDEST PUSH2 0x22C PUSH2 0x956 JUMP JUMPDEST PUSH1 0x3 SLOAD PUSH2 0x2F1 SWAP1 PUSH1 0x1 PUSH1 0x1 PUSH1 0xA0 SHL SUB AND DUP2 JUMP JUMPDEST PUSH1 0x40 MLOAD PUSH1 0x1 PUSH1 0x1 PUSH1 0xA0 SHL SUB SWAP1 SWAP2 AND DUP2 MSTORE PUSH1 0x20 ADD PUSH2 0x1E6 JUMP JUMPDEST PUSH2 0x20C PUSH2 0x317 CALLDATASIZE PUSH1 0x4 PUSH2 0x15E5 JUMP JUMPDEST PUSH2 0x98C JUMP JUMPDEST PUSH2 0x22C PUSH2 0x32A CALLDATASIZE PUSH1 0x4 PUSH2 0x16B4 JUMP JUMPDEST PUSH2 0xA81 JUMP JUMPDEST PUSH1 0x1 SLOAD PUSH1 0x1 PUSH1 0x1 PUSH1 0xA0 SHL SUB AND PUSH2 0x2F1 JUMP JUMPDEST PUSH2 0x1DC PUSH2 0x34E CALLDATASIZE PUSH1 0x4 PUSH2 0x15E5 JUMP JUMPDEST PUSH2 0xBA1 JUMP JUMPDEST PUSH2 0x1DC PUSH2 0x361 CALLDATASIZE PUSH1 0x4 PUSH2 0x15E5 JUMP JUMPDEST PUSH1 0xE PUSH1 0x20 MSTORE PUSH1 0x0 SWAP1 DUP2 MSTORE PUSH1 0x40 SWAP1 KECCAK256 SLOAD DUP2 JUMP JUMPDEST PUSH2 0x22C PUSH2 0x381 CALLDATASIZE PUSH1 0x4 PUSH2 0x15E5 JUMP JUMPDEST PUSH2 0xBB2 JUMP JUMPDEST PUSH2 0x22C PUSH2 0x394 CALLDATASIZE PUSH1 0x4 PUSH2 0x16EB JUMP JUMPDEST PUSH2 0xD04 JUMP JUMPDEST PUSH1 0xC SLOAD PUSH2 0x2F1 SWAP1 PUSH1 0x1 PUSH1 0x1 PUSH1 0xA0 SHL SUB AND DUP2 JUMP JUMPDEST PUSH2 0x22C PUSH2 0xDF0 JUMP JUMPDEST PUSH2 0x22C PUSH2 0x3C2 CALLDATASIZE PUSH1 0x4 PUSH2 0x16EB JUMP JUMPDEST PUSH2 0xF51 JUMP JUMPDEST PUSH1 0xB SLOAD PUSH2 0x2F1 SWAP1 PUSH1 0x1 PUSH1 0x1 PUSH1 0xA0 SHL SUB AND DUP2 JUMP JUMPDEST PUSH2 0x3FC PUSH2 0x3E8 CALLDATASIZE PUSH1 0x4 PUSH2 0x15E5 JUMP JUMPDEST PUSH1 0x0 SWAP1 DUP2 MSTORE PUSH1 0xE PUSH1 0x20 MSTORE PUSH1 0x40 SWAP1 KECCAK256 SLOAD ISZERO ISZERO SWAP1 JUMP JUMPDEST PUSH1 0x40 MLOAD SWAP1 ISZERO ISZERO DUP2 MSTORE PUSH1 0x20 ADD PUSH2 0x1E6 JUMP JUMPDEST PUSH2 0x1DC PUSH1 0x7 SLOAD DUP2 JUMP JUMPDEST PUSH2 0x1DC PUSH2 0x423 CALLDATASIZE PUSH1 0x4 PUSH2 0x15E5 JUMP JUMPDEST PUSH2 0x1036 JUMP JUMPDEST PUSH2 0x22C PUSH2 0x436 CALLDATASIZE PUSH1 0x4 PUSH2 0x16EB JUMP JUMPDEST PUSH2 0x1102 JUMP JUMPDEST PUSH2 0x1DC PUSH2 0x119D JUMP JUMPDEST PUSH1 0x2 SLOAD PUSH2 0x2F1 SWAP1 PUSH1 0x1 PUSH1 0x1 PUSH1 0xA0 SHL SUB AND DUP2 JUMP JUMPDEST PUSH1 0x0 DUP1 DUP3 GT DUP1 ISZERO PUSH2 0x473 JUMPI POP PUSH1 0x4 SLOAD PUSH2 0x470 SWAP1 PUSH1 0x1 PUSH2 0x171E JUMP JUMPDEST DUP3 LT JUMPDEST PUSH2 0x4B5 JUMPI PUSH1 0x40 MLOAD PUSH3 0x461BCD PUSH1 0xE5 SHL DUP2 MSTORE PUSH1 0x20 PUSH1 0x4 DUP3 ADD MSTORE PUSH1 0xE PUSH1 0x24 DUP3 ADD MSTORE PUSH14 0x34B73B30B634B210373AB6B132B9 PUSH1 0x91 SHL PUSH1 0x44 DUP3 ADD MSTORE PUSH1 0x64 ADD JUMPDEST PUSH1 0x40 MLOAD DUP1 SWAP2 SUB SWAP1 REVERT JUMPDEST POP PUSH1 0x0 SWAP1 DUP2 MSTORE PUSH1 0xE PUSH1 0x20 MSTORE PUSH1 0x40 SWAP1 KECCAK256 SLOAD SWAP1 JUMP JUMPDEST PUSH2 0x4F0 PUSH1 0x40 DUP1 MLOAD PUSH1 0x80 DUP2 ADD DUP3 MSTORE PUSH1 0x0 DUP1 DUP3 MSTORE PUSH1 0x20 DUP3 ADD DUP2 SWAP1 MSTORE SWAP2 DUP2 ADD DUP3 SWAP1 MSTORE SWAP1 PUSH1 0x60 DUP3 ADD MSTORE SWAP1 JUMP JUMPDEST PUSH1 0x0 DUP3 DUP2 MSTORE PUSH1 0xD PUSH1 0x20 SWAP1 DUP2 MSTORE PUSH1 0x40 SWAP2 DUP3 SWAP1 KECCAK256 DUP3 MLOAD PUSH1 0x80 DUP2 ADD DUP5 MSTORE DUP2 SLOAD PUSH2 0xFFFF DUP1 DUP3 AND DUP4 MSTORE PUSH3 0x10000 DUP3 DIV PUSH5 0xFFFFFFFFFF AND SWAP5 DUP4 ADD SWAP5 SWAP1 SWAP5 MSTORE PUSH1 0x1 PUSH1 0x38 SHL DUP2 DIV SWAP1 SWAP4 AND SWAP4 DUP2 ADD SWAP4 SWAP1 SWAP4 MSTORE SWAP1 PUSH1 0x60 DUP4 ADD SWAP1 PUSH1 0x1 PUSH1 0x48 SHL SWAP1 DIV PUSH1 0xFF AND PUSH1 0x3 DUP2 GT ISZERO PUSH2 0x55A JUMPI PUSH2 0x55A PUSH2 0x15FE JUMP JUMPDEST PUSH1 0x3 DUP2 GT ISZERO PUSH2 0x56B JUMPI PUSH2 0x56B PUSH2 0x15FE JUMP JUMPDEST SWAP1 MSTORE POP SWAP3 SWAP2 POP POP JUMP JUMPDEST PUSH1 0x2 PUSH1 0x0 SLOAD SUB PUSH2 0x5C6 JUMPI PUSH1 0x40 MLOAD PUSH3 0x461BCD PUSH1 0xE5 SHL DUP2 MSTORE PUSH1 0x20 PUSH1 0x4 DUP3 ADD MSTORE PUSH1 0x1F PUSH1 0x24 DUP3 ADD MSTORE PUSH32 0x5265656E7472616E637947756172643A207265656E7472616E742063616C6C00 PUSH1 0x44 DUP3 ADD MSTORE PUSH1 0x64 ADD PUSH2 0x4AC JUMP JUMPDEST PUSH1 0x2 PUSH1 0x0 SSTORE DUP1 ISZERO DUP1 ISZERO SWAP1 PUSH2 0x5DC JUMPI POP PUSH1 0x4 SLOAD DUP2 GT ISZERO JUMPDEST PUSH2 0x618 JUMPI PUSH1 0x40 MLOAD PUSH3 0x461BCD PUSH1 0xE5 SHL DUP2 MSTORE PUSH1 0x20 PUSH1 0x4 DUP3 ADD MSTORE PUSH1 0xD PUSH1 0x24 DUP3 ADD MSTORE PUSH13 0x34B73B30B634B210333637B7B9 PUSH1 0x99 SHL PUSH1 0x44 DUP3 ADD MSTORE PUSH1 0x64 ADD PUSH2 0x4AC JUMP JUMPDEST PUSH1 0x0 DUP2 DUP2 MSTORE PUSH1 0xD PUSH1 0x20 MSTORE PUSH1 0x40 SWAP1 DUP2 SWAP1 KECCAK256 SLOAD PUSH1 0x3 SLOAD SWAP2 MLOAD PUSH4 0x31A9108F PUSH1 0xE1 SHL DUP2 MSTORE PUSH1 0x1 PUSH1 0x38 SHL SWAP1 SWAP2 DIV PUSH2 0xFFFF AND PUSH1 0x4 DUP3 ADD DUP2 SWAP1 MSTORE SWAP2 ORIGIN SWAP2 PUSH1 0x1 PUSH1 0x1 PUSH1 0xA0 SHL SUB SWAP1 SWAP2 AND SWAP1 PUSH4 0x6352211E SWAP1 PUSH1 0x24 ADD PUSH1 0x20 PUSH1 0x40 MLOAD DUP1 DUP4 SUB DUP2 DUP7 GAS STATICCALL ISZERO DUP1 ISZERO PUSH2 0x680 JUMPI RETURNDATASIZE PUSH1 0x0 DUP1 RETURNDATACOPY RETURNDATASIZE PUSH1 0x0 REVERT JUMPDEST POP POP POP POP PUSH1 0x40 MLOAD RETURNDATASIZE PUSH1 0x1F NOT PUSH1 0x1F DUP3 ADD AND DUP3 ADD DUP1 PUSH1 0x40 MSTORE POP DUP2 ADD SWAP1 PUSH2 0x6A4 SWAP2 SWAP1 PUSH2 0x1736 JUMP JUMPDEST PUSH1 0x1 PUSH1 0x1 PUSH1 0xA0 SHL SUB AND EQ PUSH2 0x6FA JUMPI PUSH1 0x40 MLOAD PUSH3 0x461BCD PUSH1 0xE5 SHL DUP2 MSTORE PUSH1 0x20 PUSH1 0x4 DUP3 ADD DUP2 SWAP1 MSTORE PUSH1 0x24 DUP3 ADD MSTORE PUSH32 0x596F7520646F206E6F74206F776E207468652077697A6172642074686572652E PUSH1 0x44 DUP3 ADD MSTORE PUSH1 0x64 ADD PUSH2 0x4AC JUMP JUMPDEST PUSH2 0x704 DUP3 ORIGIN PUSH2 0x11D9 JUMP JUMPDEST POP POP PUSH1 0x1 PUSH1 0x0 SSTORE JUMP JUMPDEST PUSH1 0x0 DUP2 DUP2 MSTORE PUSH1 0xE PUSH1 0x20 MSTORE PUSH1 0x40 DUP2 KECCAK256 SLOAD ISZERO PUSH2 0x75C JUMPI PUSH1 0x40 MLOAD PUSH3 0x461BCD PUSH1 0xE5 SHL DUP2 MSTORE PUSH1 0x20 PUSH1 0x4 DUP3 ADD MSTORE PUSH1 0x10 PUSH1 0x24 DUP3 ADD MSTORE PUSH16 0x30B63932B0B23C9031B630B4B6B2B217 PUSH1 0x81 SHL PUSH1 0x44 DUP3 ADD MSTORE PUSH1 0x64 ADD PUSH2 0x4AC JUMP JUMPDEST PUSH1 0x1 PUSH1 0x4 PUSH1 0x0 DUP3 DUP3 SLOAD PUSH2 0x76F SWAP2 SWAP1 PUSH2 0x171E JUMP JUMPDEST SWAP1 SWAP2 SSTORE POP PUSH2 0x79D SWAP1 POP PUSH1 0x40 DUP1 MLOAD PUSH1 0x80 DUP2 ADD DUP3 MSTORE PUSH1 0x0 DUP1 DUP3 MSTORE PUSH1 0x20 DUP3 ADD DUP2 SWAP1 MSTORE SWAP2 DUP2 ADD DUP3 SWAP1 MSTORE SWAP1 PUSH1 0x60 DUP3 ADD MSTORE SWAP1 JUMP JUMPDEST TIMESTAMP PUSH5 0xFFFFFFFFFF DUP2 AND PUSH1 0x20 DUP4 DUP2 ADD SWAP2 SWAP1 SWAP2 MSTORE PUSH1 0x4 DUP1 SLOAD PUSH1 0x40 DUP1 MLOAD SWAP4 DUP5 ADD SWAP2 SWAP1 SWAP2 MSTORE PUSH12 0xFFFFFFFFFFFFFFFFFFFFFFFF NOT CALLER PUSH1 0x60 SHL AND SWAP1 DUP4 ADD MSTORE PUSH1 0x54 DUP3 ADD SWAP3 SWAP1 SWAP3 MSTORE PUSH1 0x74 ADD PUSH1 0x40 MLOAD PUSH1 0x20 DUP2 DUP4 SUB SUB DUP2 MSTORE SWAP1 PUSH1 0x40 MSTORE DUP1 MLOAD SWAP1 PUSH1 0x20 ADD KECCAK256 PUSH1 0x0 SHR PUSH2 0x803 SWAP2 SWAP1 PUSH2 0x1769 JUMP JUMPDEST PUSH1 0x3 DUP2 GT ISZERO PUSH2 0x814 JUMPI PUSH2 0x814 PUSH2 0x15FE JUMP JUMPDEST DUP2 PUSH1 0x60 ADD SWAP1 PUSH1 0x3 DUP2 GT ISZERO PUSH2 0x82A JUMPI PUSH2 0x82A PUSH2 0x15FE JUMP JUMPDEST SWAP1 DUP2 PUSH1 0x3 DUP2 GT ISZERO PUSH2 0x83D JUMPI PUSH2 0x83D PUSH2 0x15FE JUMP JUMPDEST SWAP1 MSTORE POP PUSH2 0xFFFF DUP1 DUP5 AND PUSH1 0x40 DUP1 DUP5 ADD SWAP2 DUP3 MSTORE PUSH1 0x4 SLOAD PUSH1 0x0 DUP8 DUP2 MSTORE PUSH1 0xE PUSH1 0x20 SWAP1 DUP2 MSTORE DUP4 DUP3 KECCAK256 DUP4 SWAP1 SSTORE SWAP2 DUP2 MSTORE PUSH1 0xD DUP3 MSTORE SWAP2 SWAP1 SWAP2 KECCAK256 DUP5 MLOAD DUP2 SLOAD SWAP3 DUP7 ADD MLOAD SWAP4 MLOAD DUP6 AND PUSH1 0x1 PUSH1 0x38 SHL MUL PUSH2 0xFFFF PUSH1 0x38 SHL NOT PUSH5 0xFFFFFFFFFF SWAP1 SWAP6 AND PUSH3 0x10000 MUL PUSH7 0xFFFFFFFFFFFFFF NOT SWAP1 SWAP5 AND SWAP2 SWAP1 SWAP6 AND OR SWAP2 SWAP1 SWAP2 OR SWAP2 DUP3 AND DUP4 OR DUP2 SSTORE PUSH1 0x60 DUP5 ADD MLOAD DUP5 SWAP4 SWAP2 SWAP3 SWAP1 SWAP2 DUP4 SWAP2 PUSH10 0xFF000000000000000000 NOT SWAP1 SWAP2 AND PUSH10 0xFFFFFF00000000000000 NOT SWAP1 SWAP2 AND OR PUSH1 0x1 PUSH1 0x48 SHL DUP4 PUSH1 0x3 DUP2 GT ISZERO PUSH2 0x8F4 JUMPI PUSH2 0x8F4 PUSH2 0x15FE JUMP JUMPDEST MUL OR SWAP1 SSTORE POP SWAP1 POP POP PUSH2 0x906 PUSH1 0x0 PUSH2 0x13CB JUMP JUMPDEST PUSH1 0x4 SLOAD PUSH1 0x40 DUP1 MLOAD CALLER DUP2 MSTORE PUSH1 0x20 DUP2 ADD SWAP3 SWAP1 SWAP3 MSTORE TIMESTAMP SWAP1 DUP3 ADD MSTORE DUP4 SWAP1 PUSH32 0x85EA83C5F50CB37E91BD558E80839597535164F593ACC3DC74A9298C0B0817A7 SWAP1 PUSH1 0x60 ADD PUSH1 0x40 MLOAD DUP1 SWAP2 SUB SWAP1 LOG2 POP POP PUSH1 0x4 SLOAD SWAP2 SWAP1 POP JUMP JUMPDEST PUSH1 0x1 SLOAD PUSH1 0x1 PUSH1 0x1 PUSH1 0xA0 SHL SUB AND CALLER EQ PUSH2 0x980 JUMPI PUSH1 0x40 MLOAD PUSH3 0x461BCD PUSH1 0xE5 SHL DUP2 MSTORE PUSH1 0x4 ADD PUSH2 0x4AC SWAP1 PUSH2 0x177D JUMP JUMPDEST PUSH2 0x98A PUSH1 0x0 PUSH2 0x13E8 JUMP JUMPDEST JUMP JUMPDEST PUSH2 0x9B4 PUSH1 0x40 DUP1 MLOAD PUSH1 0x80 DUP2 ADD DUP3 MSTORE PUSH1 0x0 DUP1 DUP3 MSTORE PUSH1 0x20 DUP3 ADD DUP2 SWAP1 MSTORE SWAP2 DUP2 ADD DUP3 SWAP1 MSTORE SWAP1 PUSH1 0x60 DUP3 ADD MSTORE SWAP1 JUMP JUMPDEST PUSH1 0x0 DUP3 GT DUP1 ISZERO PUSH2 0x9D0 JUMPI POP PUSH1 0x4 SLOAD PUSH2 0x9CD SWAP1 PUSH1 0x1 PUSH2 0x171E JUMP JUMPDEST DUP3 LT JUMPDEST PUSH2 0xA0D JUMPI PUSH1 0x40 MLOAD PUSH3 0x461BCD PUSH1 0xE5 SHL DUP2 MSTORE PUSH1 0x20 PUSH1 0x4 DUP3 ADD MSTORE PUSH1 0xE PUSH1 0x24 DUP3 ADD MSTORE PUSH14 0x34B73B30B634B210373AB6B132B9 PUSH1 0x91 SHL PUSH1 0x44 DUP3 ADD MSTORE PUSH1 0x64 ADD PUSH2 0x4AC JUMP JUMPDEST PUSH1 0x0 DUP3 DUP2 MSTORE PUSH1 0xE PUSH1 0x20 SWAP1 DUP2 MSTORE PUSH1 0x40 DUP1 DUP4 KECCAK256 SLOAD DUP4 MSTORE PUSH1 0xD DUP3 MSTORE SWAP2 DUP3 SWAP1 KECCAK256 DUP3 MLOAD PUSH1 0x80 DUP2 ADD DUP5 MSTORE DUP2 SLOAD PUSH2 0xFFFF DUP1 DUP3 AND DUP4 MSTORE PUSH3 0x10000 DUP3 DIV PUSH5 0xFFFFFFFFFF AND SWAP5 DUP4 ADD SWAP5 SWAP1 SWAP5 MSTORE PUSH1 0x1 PUSH1 0x38 SHL DUP2 DIV SWAP1 SWAP4 AND SWAP4 DUP2 ADD SWAP4 SWAP1 SWAP4 MSTORE SWAP1 PUSH1 0x60 DUP4 ADD SWAP1 PUSH1 0x1 PUSH1 0x48 SHL SWAP1 DIV PUSH1 0xFF AND PUSH1 0x3 DUP2 GT ISZERO PUSH2 0x55A JUMPI PUSH2 0x55A PUSH2 0x15FE JUMP JUMPDEST PUSH1 0xC SLOAD PUSH1 0x1 PUSH1 0x1 PUSH1 0xA0 SHL SUB AND CALLER EQ PUSH2 0xAAB JUMPI PUSH1 0x40 MLOAD PUSH3 0x461BCD PUSH1 0xE5 SHL DUP2 MSTORE PUSH1 0x4 ADD PUSH2 0x4AC SWAP1 PUSH2 0x17B2 JUMP JUMPDEST PUSH1 0x4 SLOAD DUP3 GT ISZERO DUP1 ISZERO PUSH2 0xABF JUMPI POP PUSH1 0x4 SLOAD DUP2 GT ISZERO JUMPDEST DUP1 ISZERO PUSH2 0xACB JUMPI POP DUP2 DUP2 EQ ISZERO JUMPDEST PUSH2 0xB08 JUMPI PUSH1 0x40 MLOAD PUSH3 0x461BCD PUSH1 0xE5 SHL DUP2 MSTORE PUSH1 0x20 PUSH1 0x4 DUP3 ADD MSTORE PUSH1 0xE PUSH1 0x24 DUP3 ADD MSTORE PUSH14 0x696E76616C696420666C6F6F7273 PUSH1 0x90 SHL PUSH1 0x44 DUP3 ADD MSTORE PUSH1 0x64 ADD PUSH2 0x4AC JUMP JUMPDEST PUSH2 0xB30 PUSH1 0x40 DUP1 MLOAD PUSH1 0x80 DUP2 ADD DUP3 MSTORE PUSH1 0x0 DUP1 DUP3 MSTORE PUSH1 0x20 DUP3 ADD DUP2 SWAP1 MSTORE SWAP2 DUP2 ADD DUP3 SWAP1 MSTORE SWAP1 PUSH1 0x60 DUP3 ADD MSTORE SWAP1 JUMP JUMPDEST POP PUSH1 0x0 DUP3 DUP2 MSTORE PUSH1 0xD PUSH1 0x20 SWAP1 DUP2 MSTORE PUSH1 0x40 DUP1 DUP4 KECCAK256 DUP1 SLOAD DUP6 DUP6 MSTORE DUP3 DUP6 KECCAK256 DUP1 SLOAD PUSH2 0xFFFF PUSH1 0x38 SHL NOT DUP1 DUP5 AND PUSH2 0xFFFF PUSH1 0x1 PUSH1 0x38 SHL SWAP4 DUP5 SWAP1 DIV DUP2 AND DUP5 MUL SWAP2 SWAP1 SWAP2 OR DUP7 SSTORE DUP4 SLOAD SWAP1 SWAP2 AND SWAP4 DUP3 SWAP1 DIV DUP2 AND DUP1 DUP4 MUL SWAP5 SWAP1 SWAP5 OR SWAP1 SWAP3 SSTORE SWAP3 SLOAD SWAP3 SWAP1 SWAP3 DIV SWAP1 SWAP2 AND DUP5 MSTORE PUSH1 0xE SWAP1 SWAP3 MSTORE DUP1 DUP4 KECCAK256 SWAP5 SWAP1 SWAP5 SSTORE DUP2 MSTORE SWAP2 SWAP1 SWAP2 KECCAK256 SSTORE JUMP JUMPDEST PUSH1 0x0 PUSH2 0xBAC DUP3 PUSH2 0x143A JUMP JUMPDEST SWAP3 SWAP2 POP POP JUMP JUMPDEST PUSH1 0xC SLOAD PUSH1 0x1 PUSH1 0x1 PUSH1 0xA0 SHL SUB AND CALLER EQ PUSH2 0xBDC JUMPI PUSH1 0x40 MLOAD PUSH3 0x461BCD PUSH1 0xE5 SHL DUP2 MSTORE PUSH1 0x4 ADD PUSH2 0x4AC SWAP1 PUSH2 0x17B2 JUMP JUMPDEST PUSH1 0x0 DUP2 DUP2 MSTORE PUSH1 0xD PUSH1 0x20 MSTORE PUSH1 0x40 DUP1 DUP3 KECCAK256 SLOAD PUSH1 0x4 SLOAD DUP1 DUP5 MSTORE SWAP2 SWAP1 SWAP3 KECCAK256 SLOAD PUSH1 0x8 SLOAD PUSH2 0xFFFF PUSH1 0x1 PUSH1 0x38 SHL SWAP5 DUP6 SWAP1 DIV DUP2 AND SWAP5 SWAP1 SWAP3 DIV SWAP1 SWAP2 AND SWAP2 PUSH2 0xC19 SWAP1 PUSH2 0xBA1 JUMP JUMPDEST GT ISZERO PUSH2 0xC98 JUMPI PUSH1 0x4 DUP1 SLOAD PUSH1 0x3 SLOAD PUSH1 0x40 MLOAD PUSH4 0x31A9108F PUSH1 0xE1 SHL DUP2 MSTORE SWAP3 DUP4 ADD DUP5 SWAP1 MSTORE PUSH2 0xC98 SWAP3 PUSH1 0x1 PUSH1 0x1 PUSH1 0xA0 SHL SUB SWAP1 SWAP2 AND SWAP1 PUSH4 0x6352211E SWAP1 PUSH1 0x24 ADD PUSH1 0x20 PUSH1 0x40 MLOAD DUP1 DUP4 SUB DUP2 DUP7 GAS STATICCALL ISZERO DUP1 ISZERO PUSH2 0xC6F JUMPI RETURNDATASIZE PUSH1 0x0 DUP1 RETURNDATACOPY RETURNDATASIZE PUSH1 0x0 REVERT JUMPDEST POP POP POP POP PUSH1 0x40 MLOAD RETURNDATASIZE PUSH1 0x1F NOT PUSH1 0x1F DUP3 ADD AND DUP3 ADD DUP1 PUSH1 0x40 MSTORE POP DUP2 ADD SWAP1 PUSH2 0xC93 SWAP2 SWAP1 PUSH2 0x1736 JUMP JUMPDEST PUSH2 0x11D9 JUMP JUMPDEST PUSH1 0x0 DUP4 DUP2 MSTORE PUSH1 0xD PUSH1 0x20 MSTORE PUSH1 0x40 DUP2 KECCAK256 DUP1 SLOAD PUSH9 0xFFFFFFFFFFFFFF0000 NOT AND PUSH1 0x1 PUSH1 0x38 SHL PUSH2 0xFFFF DUP6 AND MUL PUSH7 0xFFFFFFFFFF0000 NOT AND OR PUSH3 0x10000 TIMESTAMP PUSH5 0xFFFFFFFFFF AND MUL OR DUP2 SSTORE PUSH1 0x4 DUP1 SLOAD SWAP2 SWAP3 PUSH1 0x1 SWAP3 PUSH2 0xCEE SWAP1 DUP5 SWAP1 PUSH2 0x17F6 JUMP JUMPDEST SWAP1 SWAP2 SSTORE POP PUSH2 0xCFE SWAP1 POP PUSH1 0x0 PUSH2 0x13CB JUMP JUMPDEST POP POP POP POP JUMP JUMPDEST PUSH1 0x1 SLOAD PUSH1 0x1 PUSH1 0x1 PUSH1 0xA0 SHL SUB AND CALLER EQ PUSH2 0xD2E JUMPI PUSH1 0x40 MLOAD PUSH3 0x461BCD PUSH1 0xE5 SHL DUP2 MSTORE PUSH1 0x4 ADD PUSH2 0x4AC SWAP1 PUSH2 0x177D JUMP JUMPDEST PUSH1 0x1 PUSH1 0x1 PUSH1 0xA0 SHL SUB DUP2 AND ISZERO DUP1 ISZERO SWAP1 PUSH2 0xD54 JUMPI POP PUSH1 0xB SLOAD PUSH1 0x1 PUSH1 0x1 PUSH1 0xA0 SHL SUB DUP3 DUP2 AND SWAP2 AND EQ ISZERO JUMPDEST PUSH2 0xD9B JUMPI PUSH1 0x40 MLOAD PUSH3 0x461BCD PUSH1 0xE5 SHL DUP2 MSTORE PUSH1 0x20 PUSH1 0x4 DUP3 ADD MSTORE PUSH1 0x18 PUSH1 0x24 DUP3 ADD MSTORE PUSH24 0x496E76616C6964206F70657261746F722061646472657373 PUSH1 0x40 SHL PUSH1 0x44 DUP3 ADD MSTORE PUSH1 0x64 ADD PUSH2 0x4AC JUMP JUMPDEST PUSH1 0xB DUP1 SLOAD PUSH1 0x1 PUSH1 0x1 PUSH1 0xA0 SHL SUB NOT AND PUSH1 0x1 PUSH1 0x1 PUSH1 0xA0 SHL SUB DUP4 AND SWAP1 DUP2 OR SWAP1 SWAP2 SSTORE PUSH1 0x40 MLOAD SWAP1 DUP2 MSTORE PUSH32 0xDA12EE837E6978172AAF54B16145FFE08414FD8710092EF033C71B8EB6EC189A SWAP1 PUSH1 0x20 ADD JUMPDEST PUSH1 0x40 MLOAD DUP1 SWAP2 SUB SWAP1 LOG1 POP JUMP JUMPDEST PUSH1 0x1 SLOAD PUSH1 0x1 PUSH1 0x1 PUSH1 0xA0 SHL SUB AND CALLER EQ PUSH2 0xE1A JUMPI PUSH1 0x40 MLOAD PUSH3 0x461BCD PUSH1 0xE5 SHL DUP2 MSTORE PUSH1 0x4 ADD PUSH2 0x4AC SWAP1 PUSH2 0x177D JUMP JUMPDEST PUSH1 0x2 SLOAD PUSH1 0x40 MLOAD PUSH4 0x70A08231 PUSH1 0xE0 SHL DUP2 MSTORE ADDRESS PUSH1 0x4 DUP3 ADD MSTORE PUSH1 0x0 SWAP2 PUSH1 0x1 PUSH1 0x1 PUSH1 0xA0 SHL SUB AND SWAP1 PUSH4 0x70A08231 SWAP1 PUSH1 0x24 ADD PUSH1 0x20 PUSH1 0x40 MLOAD DUP1 DUP4 SUB DUP2 DUP7 GAS STATICCALL ISZERO DUP1 ISZERO PUSH2 0xE63 JUMPI RETURNDATASIZE PUSH1 0x0 DUP1 RETURNDATACOPY RETURNDATASIZE PUSH1 0x0 REVERT JUMPDEST POP POP POP POP PUSH1 0x40 MLOAD RETURNDATASIZE PUSH1 0x1F NOT PUSH1 0x1F DUP3 ADD AND DUP3 ADD DUP1 PUSH1 0x40 MSTORE POP DUP2 ADD SWAP1 PUSH2 0xE87 SWAP2 SWAP1 PUSH2 0x180D JUMP JUMPDEST PUSH1 0x2 SLOAD PUSH1 0x40 MLOAD PUSH4 0xA9059CBB PUSH1 0xE0 SHL DUP2 MSTORE CALLER PUSH1 0x4 DUP3 ADD MSTORE PUSH1 0x24 DUP2 ADD DUP4 SWAP1 MSTORE SWAP2 SWAP3 POP PUSH1 0x1 PUSH1 0x1 PUSH1 0xA0 SHL SUB AND SWAP1 PUSH4 0xA9059CBB SWAP1 PUSH1 0x44 ADD PUSH1 0x20 PUSH1 0x40 MLOAD DUP1 DUP4 SUB DUP2 PUSH1 0x0 DUP8 GAS CALL ISZERO DUP1 ISZERO PUSH2 0xED9 JUMPI RETURNDATASIZE PUSH1 0x0 DUP1 RETURNDATACOPY RETURNDATASIZE PUSH1 0x0 REVERT JUMPDEST POP POP POP POP PUSH1 0x40 MLOAD RETURNDATASIZE PUSH1 0x1F NOT PUSH1 0x1F DUP3 ADD AND DUP3 ADD DUP1 PUSH1 0x40 MSTORE POP DUP2 ADD SWAP1 PUSH2 0xEFD SWAP2 SWAP1 PUSH2 0x1826 JUMP JUMPDEST PUSH2 0xF19 JUMPI PUSH1 0x40 MLOAD PUSH3 0x461BCD PUSH1 0xE5 SHL DUP2 MSTORE PUSH1 0x4 ADD PUSH2 0x4AC SWAP1 PUSH2 0x1848 JUMP JUMPDEST PUSH1 0x40 MLOAD DUP2 DUP2 MSTORE CALLER SWAP1 PUSH32 0xD52E6A96125965761D3461FF1F2C72DF610AB6BC2584AC9F076B45B585F049F SWAP1 PUSH1 0x20 ADD PUSH1 0x40 MLOAD DUP1 SWAP2 SUB SWAP1 LOG2 POP JUMP JUMPDEST PUSH1 0x1 SLOAD PUSH1 0x1 PUSH1 0x1 PUSH1 0xA0 SHL SUB AND CALLER EQ PUSH2 0xF7B JUMPI PUSH1 0x40 MLOAD PUSH3 0x461BCD PUSH1 0xE5 SHL DUP2 MSTORE PUSH1 0x4 ADD PUSH2 0x4AC SWAP1 PUSH2 0x177D JUMP JUMPDEST PUSH1 0x1 PUSH1 0x1 PUSH1 0xA0 SHL SUB DUP2 AND ISZERO DUP1 ISZERO SWAP1 PUSH2 0xFA1 JUMPI POP PUSH1 0xC SLOAD PUSH1 0x1 PUSH1 0x1 PUSH1 0xA0 SHL SUB DUP3 DUP2 AND SWAP2 AND EQ ISZERO JUMPDEST PUSH2 0xFE8 JUMPI PUSH1 0x40 MLOAD PUSH3 0x461BCD PUSH1 0xE5 SHL DUP2 MSTORE PUSH1 0x20 PUSH1 0x4 DUP3 ADD MSTORE PUSH1 0x18 PUSH1 0x24 DUP3 ADD MSTORE PUSH24 0x496E76616C6964206F70657261746F722061646472657373 PUSH1 0x40 SHL PUSH1 0x44 DUP3 ADD MSTORE PUSH1 0x64 ADD PUSH2 0x4AC JUMP JUMPDEST PUSH1 0xC DUP1 SLOAD PUSH1 0x1 PUSH1 0x1 PUSH1 0xA0 SHL SUB NOT AND PUSH1 0x1 PUSH1 0x1 PUSH1 0xA0 SHL SUB DUP4 AND SWAP1 DUP2 OR SWAP1 SWAP2 SSTORE PUSH1 0x40 MLOAD SWAP1 DUP2 MSTORE PUSH32 0xA6996D36756222F1028B4A1A97CBFA625158CF8E69AC5DCF367DE3BD730D34A4 SWAP1 PUSH1 0x20 ADD PUSH2 0xDE5 JUMP JUMPDEST PUSH1 0x0 DUP2 DUP2 MSTORE PUSH1 0xD PUSH1 0x20 SWAP1 DUP2 MSTORE PUSH1 0x40 DUP1 DUP4 KECCAK256 DUP2 MLOAD PUSH1 0x80 DUP2 ADD DUP4 MSTORE DUP2 SLOAD PUSH2 0xFFFF DUP1 DUP3 AND DUP4 MSTORE PUSH3 0x10000 DUP3 DIV PUSH5 0xFFFFFFFFFF AND SWAP6 DUP4 ADD SWAP6 SWAP1 SWAP6 MSTORE PUSH1 0x1 PUSH1 0x38 SHL DUP2 DIV SWAP1 SWAP5 AND SWAP3 DUP2 ADD SWAP3 SWAP1 SWAP3 MSTORE DUP4 SWAP3 PUSH1 0x60 DUP4 ADD SWAP1 PUSH1 0x1 PUSH1 0x48 SHL SWAP1 DIV PUSH1 0xFF AND PUSH1 0x3 DUP2 GT ISZERO PUSH2 0x10A0 JUMPI PUSH2 0x10A0 PUSH2 0x15FE JUMP JUMPDEST PUSH1 0x3 DUP2 GT ISZERO PUSH2 0x10B1 JUMPI PUSH2 0x10B1 PUSH2 0x15FE JUMP JUMPDEST DUP2 MSTORE POP POP SWAP1 POP PUSH1 0x0 DUP2 PUSH1 0x20 ADD MLOAD PUSH5 0xFFFFFFFFFF AND PUSH1 0x0 EQ PUSH2 0x10DD JUMPI DUP2 PUSH1 0x20 ADD MLOAD PUSH5 0xFFFFFFFFFF AND PUSH2 0x10E1 JUMP JUMPDEST PUSH1 0x5 SLOAD JUMPDEST SWAP1 POP PUSH2 0x10ED DUP2 TIMESTAMP PUSH2 0x17F6 JUMP JUMPDEST PUSH1 0x9 SLOAD PUSH2 0x10FA SWAP2 SWAP1 PUSH2 0x1894 JUMP JUMPDEST SWAP5 SWAP4 POP POP POP POP JUMP JUMPDEST PUSH1 0x1 SLOAD PUSH1 0x1 PUSH1 0x1 PUSH1 0xA0 SHL SUB AND CALLER EQ PUSH2 0x112C JUMPI PUSH1 0x40 MLOAD PUSH3 0x461BCD PUSH1 0xE5 SHL DUP2 MSTORE PUSH1 0x4 ADD PUSH2 0x4AC SWAP1 PUSH2 0x177D JUMP JUMPDEST PUSH1 0x1 PUSH1 0x1 PUSH1 0xA0 SHL SUB DUP2 AND PUSH2 0x1191 JUMPI PUSH1 0x40 MLOAD PUSH3 0x461BCD PUSH1 0xE5 SHL DUP2 MSTORE PUSH1 0x20 PUSH1 0x4 DUP3 ADD MSTORE PUSH1 0x26 PUSH1 0x24 DUP3 ADD MSTORE PUSH32 0x4F776E61626C653A206E6577206F776E657220697320746865207A65726F2061 PUSH1 0x44 DUP3 ADD MSTORE PUSH6 0x646472657373 PUSH1 0xD0 SHL PUSH1 0x64 DUP3 ADD MSTORE PUSH1 0x84 ADD PUSH2 0x4AC JUMP JUMPDEST PUSH2 0x119A DUP2 PUSH2 0x13E8 JUMP JUMPDEST POP JUMP JUMPDEST PUSH1 0x0 PUSH1 0x4 SLOAD PUSH1 0x9 SLOAD PUSH1 0x7 SLOAD TIMESTAMP PUSH2 0x11B3 SWAP2 SWAP1 PUSH2 0x17F6 JUMP JUMPDEST PUSH2 0x11BD SWAP2 SWAP1 PUSH2 0x1894 JUMP JUMPDEST PUSH2 0x11C7 SWAP2 SWAP1 PUSH2 0x1894 JUMP JUMPDEST PUSH1 0x6 SLOAD PUSH2 0x11D4 SWAP2 SWAP1 PUSH2 0x171E JUMP JUMPDEST SWAP1 POP SWAP1 JUMP JUMPDEST PUSH1 0x0 PUSH2 0x11E4 DUP4 PUSH2 0x143A JUMP JUMPDEST SWAP1 POP PUSH1 0x0 PUSH2 0x11F1 DUP5 PUSH2 0x1036 JUMP JUMPDEST PUSH1 0x2 SLOAD PUSH1 0x40 MLOAD PUSH4 0x70A08231 PUSH1 0xE0 SHL DUP2 MSTORE ADDRESS PUSH1 0x4 DUP3 ADD MSTORE SWAP2 SWAP3 POP DUP4 SWAP2 PUSH1 0x1 PUSH1 0x1 PUSH1 0xA0 SHL SUB SWAP1 SWAP2 AND SWAP1 PUSH4 0x70A08231 SWAP1 PUSH1 0x24 ADD PUSH1 0x20 PUSH1 0x40 MLOAD DUP1 DUP4 SUB DUP2 DUP7 GAS STATICCALL ISZERO DUP1 ISZERO PUSH2 0x123E JUMPI RETURNDATASIZE PUSH1 0x0 DUP1 RETURNDATACOPY RETURNDATASIZE PUSH1 0x0 REVERT JUMPDEST POP POP POP POP PUSH1 0x40 MLOAD RETURNDATASIZE PUSH1 0x1F NOT PUSH1 0x1F DUP3 ADD AND DUP3 ADD DUP1 PUSH1 0x40 MSTORE POP DUP2 ADD SWAP1 PUSH2 0x1262 SWAP2 SWAP1 PUSH2 0x180D JUMP JUMPDEST LT ISZERO PUSH2 0x12BB JUMPI PUSH1 0x40 MLOAD PUSH3 0x461BCD PUSH1 0xE5 SHL DUP2 MSTORE PUSH1 0x20 PUSH1 0x4 DUP3 ADD MSTORE PUSH1 0x22 PUSH1 0x24 DUP3 ADD MSTORE PUSH32 0x4E6F7420656E6F7567682062616C616E636520696E2074686520636F6E747261 PUSH1 0x44 DUP3 ADD MSTORE PUSH2 0x18DD PUSH1 0xF2 SHL PUSH1 0x64 DUP3 ADD MSTORE PUSH1 0x84 ADD PUSH2 0x4AC JUMP JUMPDEST PUSH1 0x0 DUP5 DUP2 MSTORE PUSH1 0xD PUSH1 0x20 MSTORE PUSH1 0x40 SWAP1 DUP2 SWAP1 KECCAK256 DUP1 SLOAD PUSH7 0xFFFFFFFFFF0000 NOT AND PUSH3 0x10000 TIMESTAMP PUSH5 0xFFFFFFFFFF AND MUL OR SWAP1 SSTORE PUSH1 0x2 SLOAD SWAP1 MLOAD PUSH4 0xA9059CBB PUSH1 0xE0 SHL DUP2 MSTORE PUSH1 0x1 PUSH1 0x1 PUSH1 0xA0 SHL SUB DUP6 DUP2 AND PUSH1 0x4 DUP4 ADD MSTORE PUSH1 0x24 DUP3 ADD DUP6 SWAP1 MSTORE SWAP1 SWAP2 AND SWAP1 PUSH4 0xA9059CBB SWAP1 PUSH1 0x44 ADD PUSH1 0x20 PUSH1 0x40 MLOAD DUP1 DUP4 SUB DUP2 PUSH1 0x0 DUP8 GAS CALL ISZERO DUP1 ISZERO PUSH2 0x1339 JUMPI RETURNDATASIZE PUSH1 0x0 DUP1 RETURNDATACOPY RETURNDATASIZE PUSH1 0x0 REVERT JUMPDEST POP POP POP POP PUSH1 0x40 MLOAD RETURNDATASIZE PUSH1 0x1F NOT PUSH1 0x1F DUP3 ADD AND DUP3 ADD DUP1 PUSH1 0x40 MSTORE POP DUP2 ADD SWAP1 PUSH2 0x135D SWAP2 SWAP1 PUSH2 0x1826 JUMP JUMPDEST PUSH2 0x1379 JUMPI PUSH1 0x40 MLOAD PUSH3 0x461BCD PUSH1 0xE5 SHL DUP2 MSTORE PUSH1 0x4 ADD PUSH2 0x4AC SWAP1 PUSH2 0x1848 JUMP JUMPDEST PUSH2 0x1382 DUP2 PUSH2 0x13CB JUMP JUMPDEST DUP3 PUSH1 0x1 PUSH1 0x1 PUSH1 0xA0 SHL SUB AND PUSH32 0x884EDAD9CE6FA2440D8A54CC123490EB96D2768479D49FF9C7366125A9424364 DUP4 PUSH1 0x40 MLOAD PUSH2 0x13BD SWAP2 DUP2 MSTORE PUSH1 0x20 ADD SWAP1 JUMP JUMPDEST PUSH1 0x40 MLOAD DUP1 SWAP2 SUB SWAP1 LOG2 POP POP POP POP JUMP JUMPDEST DUP1 PUSH2 0x13D4 PUSH2 0x119D JUMP JUMPDEST PUSH2 0x13DE SWAP2 SWAP1 PUSH2 0x17F6 JUMP JUMPDEST PUSH1 0x6 SSTORE POP TIMESTAMP PUSH1 0x7 SSTORE JUMP JUMPDEST PUSH1 0x1 DUP1 SLOAD PUSH1 0x1 PUSH1 0x1 PUSH1 0xA0 SHL SUB DUP4 DUP2 AND PUSH1 0x1 PUSH1 0x1 PUSH1 0xA0 SHL SUB NOT DUP4 AND DUP2 OR SWAP1 SWAP4 SSTORE PUSH1 0x40 MLOAD SWAP2 AND SWAP2 SWAP1 DUP3 SWAP1 PUSH32 0x8BE0079C531659141344CD1FD0A4F28419497F9722A3DAAFE3B4186F6B6457E0 SWAP1 PUSH1 0x0 SWAP1 LOG3 POP POP JUMP JUMPDEST PUSH1 0x0 DUP1 PUSH1 0x4 SLOAD GT PUSH2 0x1480 JUMPI PUSH1 0x40 MLOAD PUSH3 0x461BCD PUSH1 0xE5 SHL DUP2 MSTORE PUSH1 0x20 PUSH1 0x4 DUP3 ADD MSTORE PUSH1 0x10 PUSH1 0x24 DUP3 ADD MSTORE PUSH16 0x6E6F2061637469766520666C6F6F7273 PUSH1 0x80 SHL PUSH1 0x44 DUP3 ADD MSTORE PUSH1 0x64 ADD PUSH2 0x4AC JUMP JUMPDEST PUSH1 0x4 SLOAD DUP3 GT ISZERO DUP1 ISZERO PUSH2 0x1491 JUMPI POP DUP2 ISZERO ISZERO JUMPDEST PUSH2 0x14CD JUMPI PUSH1 0x40 MLOAD PUSH3 0x461BCD PUSH1 0xE5 SHL DUP2 MSTORE PUSH1 0x20 PUSH1 0x4 DUP3 ADD MSTORE PUSH1 0xD PUSH1 0x24 DUP3 ADD MSTORE PUSH13 0x34B73B30B634B210333637B7B9 PUSH1 0x99 SHL PUSH1 0x44 DUP3 ADD MSTORE PUSH1 0x64 ADD PUSH2 0x4AC JUMP JUMPDEST PUSH1 0x0 DUP3 DUP2 MSTORE PUSH1 0xD PUSH1 0x20 SWAP1 DUP2 MSTORE PUSH1 0x40 DUP1 DUP4 KECCAK256 DUP2 MLOAD PUSH1 0x80 DUP2 ADD DUP4 MSTORE DUP2 SLOAD PUSH2 0xFFFF DUP1 DUP3 AND DUP4 MSTORE PUSH3 0x10000 DUP3 DIV PUSH5 0xFFFFFFFFFF AND SWAP6 DUP4 ADD SWAP6 SWAP1 SWAP6 MSTORE PUSH1 0x1 PUSH1 0x38 SHL DUP2 DIV SWAP1 SWAP5 AND SWAP3 DUP2 ADD SWAP3 SWAP1 SWAP3 MSTORE SWAP1 SWAP2 PUSH1 0x60 DUP4 ADD SWAP1 PUSH1 0x1 PUSH1 0x48 SHL SWAP1 DIV PUSH1 0xFF AND PUSH1 0x3 DUP2 GT ISZERO PUSH2 0x1537 JUMPI PUSH2 0x1537 PUSH2 0x15FE JUMP JUMPDEST PUSH1 0x3 DUP2 GT ISZERO PUSH2 0x1548 JUMPI PUSH2 0x1548 PUSH2 0x15FE JUMP JUMPDEST SWAP1 MSTORE POP SWAP1 POP PUSH2 0x1555 PUSH2 0x119D JUMP JUMPDEST PUSH1 0x2 SLOAD PUSH1 0x40 MLOAD PUSH4 0x70A08231 PUSH1 0xE0 SHL DUP2 MSTORE ADDRESS PUSH1 0x4 DUP3 ADD MSTORE PUSH1 0x1 PUSH1 0x1 PUSH1 0xA0 SHL SUB SWAP1 SWAP2 AND SWAP1 PUSH4 0x70A08231 SWAP1 PUSH1 0x24 ADD PUSH1 0x20 PUSH1 0x40 MLOAD DUP1 DUP4 SUB DUP2 DUP7 GAS STATICCALL ISZERO DUP1 ISZERO PUSH2 0x159D JUMPI RETURNDATASIZE PUSH1 0x0 DUP1 RETURNDATACOPY RETURNDATASIZE PUSH1 0x0 REVERT JUMPDEST POP POP POP POP PUSH1 0x40 MLOAD RETURNDATASIZE PUSH1 0x1F NOT PUSH1 0x1F DUP3 ADD AND DUP3 ADD DUP1 PUSH1 0x40 MSTORE POP DUP2 ADD SWAP1 PUSH2 0x15C1 SWAP2 SWAP1 PUSH2 0x180D JUMP JUMPDEST PUSH2 0x15CA DUP6 PUSH2 0x1036 JUMP JUMPDEST PUSH2 0x15D4 SWAP2 SWAP1 PUSH2 0x1894 JUMP JUMPDEST PUSH2 0x15DE SWAP2 SWAP1 PUSH2 0x18B3 JUMP JUMPDEST SWAP4 SWAP3 POP POP POP JUMP JUMPDEST PUSH1 0x0 PUSH1 0x20 DUP3 DUP5 SUB SLT ISZERO PUSH2 0x15F7 JUMPI PUSH1 0x0 DUP1 REVERT JUMPDEST POP CALLDATALOAD SWAP2 SWAP1 POP JUMP JUMPDEST PUSH4 0x4E487B71 PUSH1 0xE0 SHL PUSH1 0x0 MSTORE PUSH1 0x21 PUSH1 0x4 MSTORE PUSH1 0x24 PUSH1 0x0 REVERT JUMPDEST PUSH1 0x4 DUP2 LT PUSH2 0x1632 JUMPI PUSH4 0x4E487B71 PUSH1 0xE0 SHL PUSH1 0x0 MSTORE PUSH1 0x21 PUSH1 0x4 MSTORE PUSH1 0x24 PUSH1 0x0 REVERT JUMPDEST SWAP1 MSTORE JUMP JUMPDEST PUSH1 0x0 PUSH1 0x80 DUP3 ADD SWAP1 POP PUSH2 0xFFFF DUP1 DUP5 MLOAD AND DUP4 MSTORE PUSH5 0xFFFFFFFFFF PUSH1 0x20 DUP6 ADD MLOAD AND PUSH1 0x20 DUP5 ADD MSTORE DUP1 PUSH1 0x40 DUP6 ADD MLOAD AND PUSH1 0x40 DUP5 ADD MSTORE POP PUSH1 0x60 DUP4 ADD MLOAD PUSH2 0x1677 PUSH1 0x60 DUP5 ADD DUP3 PUSH2 0x1614 JUMP JUMPDEST POP SWAP3 SWAP2 POP POP JUMP JUMPDEST PUSH2 0xFFFF DUP6 DUP2 AND DUP3 MSTORE PUSH5 0xFFFFFFFFFF DUP6 AND PUSH1 0x20 DUP4 ADD MSTORE DUP4 AND PUSH1 0x40 DUP3 ADD MSTORE PUSH1 0x80 DUP2 ADD PUSH2 0x16AB PUSH1 0x60 DUP4 ADD DUP5 PUSH2 0x1614 JUMP JUMPDEST SWAP6 SWAP5 POP POP POP POP POP JUMP JUMPDEST PUSH1 0x0 DUP1 PUSH1 0x40 DUP4 DUP6 SUB SLT ISZERO PUSH2 0x16C7 JUMPI PUSH1 0x0 DUP1 REVERT JUMPDEST POP POP DUP1 CALLDATALOAD SWAP3 PUSH1 0x20 SWAP1 SWAP2 ADD CALLDATALOAD SWAP2 POP JUMP JUMPDEST PUSH1 0x1 PUSH1 0x1 PUSH1 0xA0 SHL SUB DUP2 AND DUP2 EQ PUSH2 0x119A JUMPI PUSH1 0x0 DUP1 REVERT JUMPDEST PUSH1 0x0 PUSH1 0x20 DUP3 DUP5 SUB SLT ISZERO PUSH2 0x16FD JUMPI PUSH1 0x0 DUP1 REVERT JUMPDEST DUP2 CALLDATALOAD PUSH2 0x15DE DUP2 PUSH2 0x16D6 JUMP JUMPDEST PUSH4 0x4E487B71 PUSH1 0xE0 SHL PUSH1 0x0 MSTORE PUSH1 0x11 PUSH1 0x4 MSTORE PUSH1 0x24 PUSH1 0x0 REVERT JUMPDEST PUSH1 0x0 DUP3 NOT DUP3 GT ISZERO PUSH2 0x1731 JUMPI PUSH2 0x1731 PUSH2 0x1708 JUMP JUMPDEST POP ADD SWAP1 JUMP JUMPDEST PUSH1 0x0 PUSH1 0x20 DUP3 DUP5 SUB SLT ISZERO PUSH2 0x1748 JUMPI PUSH1 0x0 DUP1 REVERT JUMPDEST DUP2 MLOAD PUSH2 0x15DE DUP2 PUSH2 0x16D6 JUMP JUMPDEST PUSH4 0x4E487B71 PUSH1 0xE0 SHL PUSH1 0x0 MSTORE PUSH1 0x12 PUSH1 0x4 MSTORE PUSH1 0x24 PUSH1 0x0 REVERT JUMPDEST PUSH1 0x0 DUP3 PUSH2 0x1778 JUMPI PUSH2 0x1778 PUSH2 0x1753 JUMP JUMPDEST POP MOD SWAP1 JUMP JUMPDEST PUSH1 0x20 DUP1 DUP3 MSTORE DUP2 DUP2 ADD MSTORE PUSH32 0x4F776E61626C653A2063616C6C6572206973206E6F7420746865206F776E6572 PUSH1 0x40 DUP3 ADD MSTORE PUSH1 0x60 ADD SWAP1 JUMP JUMPDEST PUSH1 0x20 DUP1 DUP3 MSTORE PUSH1 0x24 SWAP1 DUP3 ADD MSTORE PUSH32 0x4F6E6C7920626174746C65722063616E2063616C6C20746869732066756E6374 PUSH1 0x40 DUP3 ADD MSTORE PUSH4 0x34B7B717 PUSH1 0xE1 SHL PUSH1 0x60 DUP3 ADD MSTORE PUSH1 0x80 ADD SWAP1 JUMP JUMPDEST PUSH1 0x0 DUP3 DUP3 LT ISZERO PUSH2 0x1808 JUMPI PUSH2 0x1808 PUSH2 0x1708 JUMP JUMPDEST POP SUB SWAP1 JUMP JUMPDEST PUSH1 0x0 PUSH1 0x20 DUP3 DUP5 SUB SLT ISZERO PUSH2 0x181F JUMPI PUSH1 0x0 DUP1 REVERT JUMPDEST POP MLOAD SWAP2 SWAP1 POP JUMP JUMPDEST PUSH1 0x0 PUSH1 0x20 DUP3 DUP5 SUB SLT ISZERO PUSH2 0x1838 JUMPI PUSH1 0x0 DUP1 REVERT JUMPDEST DUP2 MLOAD DUP1 ISZERO ISZERO DUP2 EQ PUSH2 0x15DE JUMPI PUSH1 0x0 DUP1 REVERT JUMPDEST PUSH1 0x20 DUP1 DUP3 MSTORE PUSH1 0x2C SWAP1 DUP3 ADD MSTORE PUSH32 0x556E61626C6520746F207472616E7366657220746F6B656E206261636B20746F PUSH1 0x40 DUP3 ADD MSTORE PUSH12 0x81D1A19481858D8DBDD5B9D PUSH1 0xA2 SHL PUSH1 0x60 DUP3 ADD MSTORE PUSH1 0x80 ADD SWAP1 JUMP JUMPDEST PUSH1 0x0 DUP2 PUSH1 0x0 NOT DIV DUP4 GT DUP3 ISZERO ISZERO AND ISZERO PUSH2 0x18AE JUMPI PUSH2 0x18AE PUSH2 0x1708 JUMP JUMPDEST POP MUL SWAP1 JUMP JUMPDEST PUSH1 0x0 DUP3 PUSH2 0x18C2 JUMPI PUSH2 0x18C2 PUSH2 0x1753 JUMP JUMPDEST POP DIV SWAP1 JUMP INVALID LOG2 PUSH5 0x6970667358 0x22 SLT KECCAK256 PUSH12 0x5D16A3CCB561252DEFB0C4A SWAP8 0xA8 0xAD PUSH27 0xABD0FD0BCE7FA94A009DE018B5B56264736F6C634300080F003300 ",
  "sha1": "13a89080bcf24e6ac03ea641dc0ccbb1c68c5340",
  "source": "pragma solidity 0.8.15;\n// SPDX-License-Identifier: UNLICENSED\n\n// This will be where wizards receive ecosystem tokens\nimport \"./interfaces/IERC20.sol\";\nimport \"./interfaces/IERC721.sol\";\nimport \"./RelativeTimeVault.sol\";\n\n\ncontract WizardTower is RelativeTimeVault {\n\n    uint256 maxFloors = 10000;\n//    IERC20 ecosystemToken;\n//    IERC721 wizardToken;\n\n    constructor(address _ecosystemToken, address _wizardToken) RelativeTimeVault(_ecosystemToken, _wizardToken) {\n//        ecosystemToken = IERC20(_ecosystemToken);\n//        wizardToken = IERC721(_wizardToken);\n    }\n\n    ////////////////////\n    ////    Get       //\n    ////////////////////\n\n\n    ////////////////////\n    ////    Battle    //\n    ////////////////////\n\n//    function attack(uint256 floor) external { }\n\n\n    ////////////////////\n    ////    Admin     //\n    ////////////////////\n\n\n\n}\n",
  "sourcePath": "contracts/WizardTower.sol",
  "type": "contract"
}