{
  "abi": [
    {
      "inputs": [
        {
          "internalType": "address",
          "name": "_token",
          "type": "address"
        },
        {
          "internalType": "address",
          "name": "_wizardsNFTAddress",
          "type": "address"
        }
      ],
      "stateMutability": "nonpayable",
      "type": "constructor"
    },
    {
      "anonymous": false,
      "inputs": [
        {
          "indexed": true,
          "internalType": "address",
          "name": "owner",
          "type": "address"
        },
        {
          "indexed": false,
          "internalType": "uint256",
          "name": "amount",
          "type": "uint256"
        }
      ],
      "name": "DrainTower",
      "type": "event"
    },
    {
      "anonymous": false,
      "inputs": [
        {
          "indexed": false,
          "internalType": "address",
          "name": "claimer",
          "type": "address"
        },
        {
          "indexed": true,
          "internalType": "uint256",
          "name": "wizardId",
          "type": "uint256"
        }
      ],
      "name": "FloorClaimed",
      "type": "event"
    },
    {
      "anonymous": false,
      "inputs": [
        {
          "indexed": false,
          "internalType": "uint64",
          "name": "dustThreshold",
          "type": "uint64"
        }
      ],
      "name": "NewDustThreshold",
      "type": "event"
    },
    {
      "anonymous": false,
      "inputs": [
        {
          "indexed": false,
          "internalType": "address",
          "name": "evictionProceedsReceiver",
          "type": "address"
        }
      ],
      "name": "NewEvictionProceedsReceiver",
      "type": "event"
    },
    {
      "anonymous": false,
      "inputs": [
        {
          "indexed": false,
          "internalType": "uint16",
          "name": "floorCap",
          "type": "uint16"
        }
      ],
      "name": "NewFloorCap",
      "type": "event"
    },
    {
      "anonymous": false,
      "inputs": [
        {
          "indexed": true,
          "internalType": "address",
          "name": "previousOwner",
          "type": "address"
        },
        {
          "indexed": true,
          "internalType": "address",
          "name": "newOwner",
          "type": "address"
        }
      ],
      "name": "OwnershipTransferred",
      "type": "event"
    },
    {
      "anonymous": false,
      "inputs": [
        {
          "indexed": true,
          "internalType": "address",
          "name": "staker",
          "type": "address"
        },
        {
          "indexed": false,
          "internalType": "uint256",
          "name": "totalAmount",
          "type": "uint256"
        }
      ],
      "name": "Withdraw",
      "type": "event"
    },
    {
      "anonymous": false,
      "inputs": [
        {
          "indexed": false,
          "internalType": "uint256",
          "name": "wizardId",
          "type": "uint256"
        }
      ],
      "name": "WizardEvicted",
      "type": "event"
    },
    {
      "inputs": [
        {
          "internalType": "uint256",
          "name": "_wizardId",
          "type": "uint256"
        }
      ],
      "name": "claimFloor",
      "outputs": [],
      "stateMutability": "nonpayable",
      "type": "function"
    },
    {
      "inputs": [],
      "name": "contractSettings",
      "outputs": [
        {
          "internalType": "uint16",
          "name": "activeFloors",
          "type": "uint16"
        },
        {
          "internalType": "uint40",
          "name": "startTimestamp",
          "type": "uint40"
        },
        {
          "internalType": "uint16",
          "name": "floorCap",
          "type": "uint16"
        },
        {
          "internalType": "uint64",
          "name": "dustThreshold",
          "type": "uint64"
        },
        {
          "internalType": "address",
          "name": "evictionProceedsReceiver",
          "type": "address"
        }
      ],
      "stateMutability": "view",
      "type": "function"
    },
    {
      "inputs": [],
      "name": "drainTower",
      "outputs": [],
      "stateMutability": "nonpayable",
      "type": "function"
    },
    {
      "inputs": [
        {
          "internalType": "uint256",
          "name": "_wizardId",
          "type": "uint256"
        }
      ],
      "name": "evict",
      "outputs": [
        {
          "internalType": "uint256",
          "name": "",
          "type": "uint256"
        }
      ],
      "stateMutability": "nonpayable",
      "type": "function"
    },
    {
      "inputs": [],
      "name": "evictionProceedsReceiver",
      "outputs": [
        {
          "internalType": "address",
          "name": "",
          "type": "address"
        }
      ],
      "stateMutability": "view",
      "type": "function"
    },
    {
      "inputs": [
        {
          "internalType": "uint256",
          "name": "_floor",
          "type": "uint256"
        }
      ],
      "name": "floorBalance",
      "outputs": [
        {
          "internalType": "uint256",
          "name": "",
          "type": "uint256"
        }
      ],
      "stateMutability": "view",
      "type": "function"
    },
    {
      "inputs": [
        {
          "internalType": "uint256",
          "name": "_floor",
          "type": "uint256"
        }
      ],
      "name": "floorPower",
      "outputs": [
        {
          "internalType": "uint128",
          "name": "",
          "type": "uint128"
        }
      ],
      "stateMutability": "view",
      "type": "function"
    },
    {
      "inputs": [
        {
          "internalType": "uint256",
          "name": "_wizardId",
          "type": "uint256"
        }
      ],
      "name": "getFloorInfoGivenWizard",
      "outputs": [
        {
          "components": [
            {
              "internalType": "uint40",
              "name": "lastWithdrawalTimestamp",
              "type": "uint40"
            }
          ],
          "internalType": "struct WizardTower.FloorInfo",
          "name": "",
          "type": "tuple"
        }
      ],
      "stateMutability": "view",
      "type": "function"
    },
    {
      "inputs": [
        {
          "internalType": "uint256",
          "name": "_wizardId",
          "type": "uint256"
        }
      ],
      "name": "isOnTheTower",
      "outputs": [
        {
          "internalType": "bool",
          "name": "",
          "type": "bool"
        }
      ],
      "stateMutability": "view",
      "type": "function"
    },
    {
      "inputs": [],
      "name": "owner",
      "outputs": [
        {
          "internalType": "address",
          "name": "",
          "type": "address"
        }
      ],
      "stateMutability": "view",
      "type": "function"
    },
    {
      "inputs": [],
      "name": "renounceOwnership",
      "outputs": [],
      "stateMutability": "nonpayable",
      "type": "function"
    },
    {
      "inputs": [],
      "name": "token",
      "outputs": [
        {
          "internalType": "contract IERC20",
          "name": "",
          "type": "address"
        }
      ],
      "stateMutability": "view",
      "type": "function"
    },
    {
      "inputs": [],
      "name": "totalFloorPower",
      "outputs": [
        {
          "internalType": "uint128",
          "name": "",
          "type": "uint128"
        }
      ],
      "stateMutability": "view",
      "type": "function"
    },
    {
      "inputs": [],
      "name": "totalPowerSnapshot",
      "outputs": [
        {
          "internalType": "uint128",
          "name": "",
          "type": "uint128"
        }
      ],
      "stateMutability": "view",
      "type": "function"
    },
    {
      "inputs": [],
      "name": "totalPowerSnapshotTimestamp",
      "outputs": [
        {
          "internalType": "uint40",
          "name": "",
          "type": "uint40"
        }
      ],
      "stateMutability": "view",
      "type": "function"
    },
    {
      "inputs": [
        {
          "internalType": "address",
          "name": "newOwner",
          "type": "address"
        }
      ],
      "name": "transferOwnership",
      "outputs": [],
      "stateMutability": "nonpayable",
      "type": "function"
    },
    {
      "inputs": [
        {
          "internalType": "uint64",
          "name": "_dustThreshold",
          "type": "uint64"
        }
      ],
      "name": "updateDustThreshold",
      "outputs": [],
      "stateMutability": "nonpayable",
      "type": "function"
    },
    {
      "inputs": [
        {
          "internalType": "address",
          "name": "_evictionProceedsReceiver",
          "type": "address"
        }
      ],
      "name": "updateEvictionProceedsReceiver",
      "outputs": [],
      "stateMutability": "nonpayable",
      "type": "function"
    },
    {
      "inputs": [
        {
          "internalType": "uint16",
          "name": "_floorCap",
          "type": "uint16"
        }
      ],
      "name": "updateFloorCap",
      "outputs": [],
      "stateMutability": "nonpayable",
      "type": "function"
    },
    {
      "inputs": [
        {
          "internalType": "uint256",
          "name": "_wizardId",
          "type": "uint256"
        }
      ],
      "name": "withdraw",
      "outputs": [],
      "stateMutability": "nonpayable",
      "type": "function"
    },
    {
      "inputs": [
        {
          "internalType": "uint256",
          "name": "",
          "type": "uint256"
        }
      ],
      "name": "wizardIdToFloorInfo",
      "outputs": [
        {
          "internalType": "uint40",
          "name": "lastWithdrawalTimestamp",
          "type": "uint40"
        }
      ],
      "stateMutability": "view",
      "type": "function"
    },
    {
      "inputs": [],
      "name": "wizardsNFT",
      "outputs": [
        {
          "internalType": "contract Wizards",
          "name": "",
          "type": "address"
        }
      ],
      "stateMutability": "view",
      "type": "function"
    }
  ],
  "bytecode": "60806040523480156200001157600080fd5b50604051620018aa380380620018aa833981016040819052620000349162000171565b6001600055620000443362000102565b600280546001600160a01b03199081166001600160a01b039485161790915560038054821692909316919091179091556004805464ffffffffff60801b1916600160801b4264ffffffffff9081168202929092179283905560078054339516949094179093556006805468ffffffffffffff000019169390920416620100000261ffff60381b1916919091176827100000000000000017600160481b600160881b0319166f2386f26fc10000000000000000000000179055620001a9565b600180546001600160a01b038381166001600160a01b0319831681179093556040519116919082907f8be0079c531659141344cd1fd0a4f28419497f9722a3daafe3b4186f6b6457e090600090a35050565b80516001600160a01b03811681146200016c57600080fd5b919050565b600080604083850312156200018557600080fd5b620001908362000154565b9150620001a06020840162000154565b90509250929050565b6116f180620001b96000396000f3fe608060405234801561001057600080fd5b50600436106101425760003560e01c8063944d934b116100b8578063ec147c181161007c578063ec147c181461035b578063ed7df5621461037e578063ee545e6814610396578063f2fde38b146103a9578063f3b24022146103bc578063fc0c546a146103cf57600080fd5b8063944d934b14610277578063a361411514610298578063c240cfe1146102ab578063c891c62a146102be578063db2a0a55146102c657600080fd5b8063715018a61161010a578063715018a6146101ba57806374d8bd37146101c25780637c1c1ea4146101ed5780638538fd421461022a5780638da5cb5b1461025357806392ed0d001461026457600080fd5b8063119813a0146101475780632e1a7d4d1461015c578063396dbf0d1461016f57806346a622231461019f5780635685cb2e146101a7575b600080fd5b61015a61015536600461145a565b6103e2565b005b61015a61016a366004611484565b6104da565b600454610182906001600160801b031681565b6040516001600160801b0390911681526020015b60405180910390f35b610182610606565b61015a6101b5366004611484565b610651565b61015a6108d2565b6003546101d5906001600160a01b031681565b6040516001600160a01b039091168152602001610196565b6102146101fb366004611484565b60086020526000908152604090205464ffffffffff1681565b60405164ffffffffff9091168152602001610196565b61023d610238366004611484565b610908565b604051905164ffffffffff168152602001610196565b6001546001600160a01b03166101d5565b61015a61027236600461149d565b6109a1565b61028a610285366004611484565b610a6a565b604051908152602001610196565b61028a6102a6366004611484565b610a7b565b6005546101d5906001600160a01b031681565b61015a610bcc565b60065460075461030e9161ffff8082169262010000830464ffffffffff1692600160381b810490921691600160481b900467ffffffffffffffff16906001600160a01b031685565b6040805161ffff968716815264ffffffffff959095166020860152929094169183019190915267ffffffffffffffff1660608201526001600160a01b03909116608082015260a001610196565b61036e610369366004611484565b610d27565b6040519015158152602001610196565b60045461021490600160801b900464ffffffffff1681565b6101826103a4366004611484565b610e07565b61015a6103b73660046114d6565b610e7a565b61015a6103ca3660046114d6565b610f15565b6002546101d5906001600160a01b031681565b6001546001600160a01b031633146104155760405162461bcd60e51b815260040161040c906114f3565b60405180910390fd5b60065467ffffffffffffffff600160481b9091048116908216036104715760405162461bcd60e51b81526020600482015260136024820152721cd85b5948191d5cdd081d1a1c995cda1bdb19606a1b604482015260640161040c565b6006805470ffffffffffffffff0000000000000000001916600160481b67ffffffffffffffff8416908102919091179091556040519081527f170488c5d86b606cf311db335a26a15fa0eba350fd024e554d12eaede0164a9b906020015b60405180910390a150565b60026000540361052c5760405162461bcd60e51b815260206004820152601f60248201527f5265656e7472616e637947756172643a207265656e7472616e742063616c6c00604482015260640161040c565b60026000556003546040516331a9108f60e11b81526004810183905232916001600160a01b031690636352211e90602401602060405180830381865afa15801561057a573d6000803e3d6000fd5b505050506040513d601f19601f8201168201806040525081019061059e9190611528565b6001600160a01b0316146105f45760405162461bcd60e51b815260206004820181905260248201527f596f7520646f206e6f74206f776e207468652077697a6172642074686572652e604482015260640161040c565b6105fe8132610fff565b506001600055565b60065460045460009161ffff169061062c90600160801b900464ffffffffff164261155b565b6106369190611572565b60045461064c91906001600160801b0316611591565b905090565b600354604051633e55e63d60e01b8152600481018390526001600160a01b0390911690633e55e63d90602401602060405180830381865afa15801561069a573d6000803e3d6000fd5b505050506040513d601f19601f820116820180604052508101906106be91906115a9565b801561073d57506003546040516331a9108f60e11b81526004810183905233916001600160a01b031690636352211e90602401602060405180830381865afa15801561070e573d6000803e3d6000fd5b505050506040513d601f19601f820116820180604052508101906107329190611528565b6001600160a01b0316145b6107895760405162461bcd60e51b815260206004820152601a60248201527f6d757374206f776e206d61747572652077697a617264734e4654000000000000604482015260640161040c565b60008181526008602052604090205464ffffffffff16156107de5760405162461bcd60e51b815260206004820152600f60248201526e185b1c9958591e4818db185a5b5959608a1b604482015260640161040c565b60065461ffff600160381b820481169116106108345760405162461bcd60e51b8152602060048201526015602482015274746f776572206174206d617820636170616369747960581b604482015260640161040c565b600680546001919060009061084e90849061ffff166115cb565b82546101009290920a61ffff818102199093169190921691909102179055506000818152600860205260408120805464ffffffffff19164264ffffffffff1617905561089990611242565b60405133815281907f8001c97a408a23325abd3c150444e1fb5767b7b286719008f619cbe1c2a6d569906020015b60405180910390a250565b6001546001600160a01b031633146108fc5760405162461bcd60e51b815260040161040c906114f3565b6109066000611289565b565b60408051602081019091526000815260008211801561093b57506006546109349061ffff1660016115cb565b61ffff1682105b6109785760405162461bcd60e51b815260206004820152600e60248201526d34b73b30b634b210373ab6b132b960911b604482015260640161040c565b506000908152600860209081526040918290208251918201909252905464ffffffffff16815290565b6001546001600160a01b031633146109cb5760405162461bcd60e51b815260040161040c906114f3565b60065461ffff600160381b909104811690821603610a165760405162461bcd60e51b8152602060048201526008602482015267073616d65206361760c41b604482015260640161040c565b6006805468ffff000000000000001916600160381b61ffff8416908102919091179091556040519081527fbc8393f6d2bf497c51c73283accba094799a1e5fa0a16ce319e054bff671053e906020016104cf565b6000610a75826112db565b92915050565b6001546000906001600160a01b03163314610aa85760405162461bcd60e51b815260040161040c906114f3565b610ab182610d27565b610aec5760405162461bcd60e51b815260206004820152600c60248201526b3737ba1037b7103a37bbb2b960a11b604482015260640161040c565b6000610af7836112db565b600654909150600160481b900467ffffffffffffffff16811115610b3157600754610b2c9084906001600160a01b0316610fff565b610b42565b610b42610b3d84610e07565b611242565b6000838152600860205260408120805464ffffffffff191690556006805460019290610b7390849061ffff166115f1565b92506101000a81548161ffff021916908361ffff1602179055507f4aa412d7310e830a61a9341ad8fd42aaad9777e0043e20c059d48a8f12658f9883604051610bbe91815260200190565b60405180910390a192915050565b6001546001600160a01b03163314610bf65760405162461bcd60e51b815260040161040c906114f3565b6002546040516370a0823160e01b81523060048201526000916001600160a01b0316906370a0823190602401602060405180830381865afa158015610c3f573d6000803e3d6000fd5b505050506040513d601f19601f82011682018060405250810190610c639190611614565b60025460405163a9059cbb60e01b8152336004820152602481018390529192506001600160a01b03169063a9059cbb906044016020604051808303816000875af1158015610cb5573d6000803e3d6000fd5b505050506040513d601f19601f82011682018060405250810190610cd991906115a9565b610cf55760405162461bcd60e51b815260040161040c9061162d565b60405181815233907f0d52e6a96125965761d3461ff1f2c72df610ab6bc2584ac9f076b45b585f049f906020016108c7565b60008115801590610dae5750600360009054906101000a90046001600160a01b03166001600160a01b03166318160ddd6040518163ffffffff1660e01b8152600401602060405180830381865afa158015610d86573d6000803e3d6000fd5b505050506040513d601f19601f82011682018060405250810190610daa9190611614565b8211155b610deb5760405162461bcd60e51b815260206004820152600e60248201526d1a5b9d985b1a59081dda5e985c9960921b604482015260640161040c565b5060009081526008602052604090205464ffffffffff16151590565b6000610e1282610d27565b610e1b57600080fd5b600082815260086020908152604080832081519283019091525464ffffffffff1680825290919015610e4e578151610e5f565b60065462010000900464ffffffffff165b64ffffffffff169050610e72814261155b565b949350505050565b6001546001600160a01b03163314610ea45760405162461bcd60e51b815260040161040c906114f3565b6001600160a01b038116610f095760405162461bcd60e51b815260206004820152602660248201527f4f776e61626c653a206e6577206f776e657220697320746865207a65726f206160448201526564647265737360d01b606482015260840161040c565b610f1281611289565b50565b6001546001600160a01b03163314610f3f5760405162461bcd60e51b815260040161040c906114f3565b6001600160a01b03811615801590610f6557506007546001600160a01b03828116911614155b610fb15760405162461bcd60e51b815260206004820152601860248201527f496e76616c6964206f70657261746f7220616464726573730000000000000000604482015260640161040c565b600780546001600160a01b0319166001600160a01b0383169081179091556040519081527f347f4febdccc054106b6edc7f64870be0fa169fddc4d23a25b1b7011de44ea6f906020016104cf565b61100882610d27565b61101157600080fd5b600061101c836112db565b9050806000036110645760405162461bcd60e51b81526020600482015260136024820152726e6f7468696e6720746f20776974686472617760681b604482015260640161040c565b600061106f84610e07565b6002546040516370a0823160e01b815230600482015291925083916001600160a01b03909116906370a0823190602401602060405180830381865afa1580156110bc573d6000803e3d6000fd5b505050506040513d601f19601f820116820180604052508101906110e09190611614565b10156111395760405162461bcd60e51b815260206004820152602260248201527f4e6f7420656e6f7567682062616c616e636520696e2074686520636f6e74726160448201526118dd60f21b606482015260840161040c565b60008481526008602052604090819020805464ffffffffff19164264ffffffffff16179055600254905163a9059cbb60e01b81526001600160a01b038581166004830152602482018590529091169063a9059cbb906044016020604051808303816000875af11580156111b0573d6000803e3d6000fd5b505050506040513d601f19601f820116820180604052508101906111d491906115a9565b6111f05760405162461bcd60e51b815260040161040c9061162d565b6111f981611242565b826001600160a01b03167f884edad9ce6fa2440d8a54cc123490eb96d2768479d49ff9c7366125a94243648360405161123491815260200190565b60405180910390a250505050565b8061124b610606565b6112559190611679565b600480546001600160801b03929092166001600160a81b031990921691909117600160801b4264ffffffffff160217905550565b600180546001600160a01b038381166001600160a01b0319831681179093556040519116919082907f8be0079c531659141344cd1fd0a4f28419497f9722a3daafe3b4186f6b6457e090600090a35050565b600081158015906113625750600360009054906101000a90046001600160a01b03166001600160a01b03166318160ddd6040518163ffffffff1660e01b8152600401602060405180830381865afa15801561133a573d6000803e3d6000fd5b505050506040513d601f19601f8201168201806040525081019061135e9190611614565b8211155b61139e5760405162461bcd60e51b815260206004820152600d60248201526c34b73b30b634b210333637b7b960991b604482015260640161040c565b60006113a8610606565b6001600160801b031690508015611450576002546040516370a0823160e01b815230600482015282916001600160a01b0316906370a0823190602401602060405180830381865afa158015611401573d6000803e3d6000fd5b505050506040513d601f19601f820116820180604052508101906114259190611614565b61142e85610e07565b6001600160801b03166114419190611572565b61144b9190611699565b611453565b60005b9392505050565b60006020828403121561146c57600080fd5b813567ffffffffffffffff8116811461145357600080fd5b60006020828403121561149657600080fd5b5035919050565b6000602082840312156114af57600080fd5b813561ffff8116811461145357600080fd5b6001600160a01b0381168114610f1257600080fd5b6000602082840312156114e857600080fd5b8135611453816114c1565b6020808252818101527f4f776e61626c653a2063616c6c6572206973206e6f7420746865206f776e6572604082015260600190565b60006020828403121561153a57600080fd5b8151611453816114c1565b634e487b7160e01b600052601160045260246000fd5b60008282101561156d5761156d611545565b500390565b600081600019048311821515161561158c5761158c611545565b500290565b600082198211156115a4576115a4611545565b500190565b6000602082840312156115bb57600080fd5b8151801515811461145357600080fd5b600061ffff8083168185168083038211156115e8576115e8611545565b01949350505050565b600061ffff8381169083168181101561160c5761160c611545565b039392505050565b60006020828403121561162657600080fd5b5051919050565b6020808252602c908201527f556e61626c6520746f207472616e7366657220746f6b656e206261636b20746f60408201526b081d1a19481858d8dbdd5b9d60a21b606082015260800190565b60006001600160801b038381169083168181101561160c5761160c611545565b6000826116b657634e487b7160e01b600052601260045260246000fd5b50049056fea2646970667358221220cd4da6117aa368cf7db4568d804a67d4be7cb1ec17567d0a0a75a3c99506668764736f6c634300080f0033",
  "bytecodeSha1": "a618edd01148a3603f3088b23dbf5d142510b9d7",
  "compiler": {
    "evm_version": "istanbul",
    "optimizer": {
      "enabled": true,
      "runs": 200
    },
    "version": "0.8.15+commit.e14f2714"
  },
  "contractName": "WizardTower",
  "language": "Solidity",
  "natspec": {
    "kind": "dev",
    "methods": {
      "owner()": {
        "details": "Returns the address of the current owner."
      },
      "renounceOwnership()": {
        "details": "Leaves the contract without owner. It will not be possible to call `onlyOwner` functions anymore. Can only be called by the current owner. NOTE: Renouncing ownership will leave the contract without an owner, thereby removing any functionality that is only available to the owner."
      },
      "transferOwnership(address)": {
        "details": "Transfers ownership of the contract to a new account (`newOwner`). Can only be called by the current owner."
      },
      "updateDustThreshold(uint64)": {
        "details": "update min token amount to transfer to EvictionProceedsReceiver",
        "params": {
          "_dustThreshold": "max amount of occupants"
        }
      },
      "updateEvictionProceedsReceiver(address)": {
        "details": "update address that receives funds from eviction",
        "params": {
          "_evictionProceedsReceiver": "new address for culler, the wallet/contract which can exile wizards without contraint"
        }
      },
      "updateFloorCap(uint16)": {
        "details": "update max amount of occupants on tower",
        "params": {
          "_floorCap": "max amount of occupants"
        }
      }
    },
    "version": 1
  },
  "opcodes": "PUSH1 0x80 PUSH1 0x40 MSTORE CALLVALUE DUP1 ISZERO PUSH2 0x10 JUMPI PUSH1 0x0 DUP1 REVERT JUMPDEST POP PUSH1 0x4 CALLDATASIZE LT PUSH2 0x142 JUMPI PUSH1 0x0 CALLDATALOAD PUSH1 0xE0 SHR DUP1 PUSH4 0x944D934B GT PUSH2 0xB8 JUMPI DUP1 PUSH4 0xEC147C18 GT PUSH2 0x7C JUMPI DUP1 PUSH4 0xEC147C18 EQ PUSH2 0x35B JUMPI DUP1 PUSH4 0xED7DF562 EQ PUSH2 0x37E JUMPI DUP1 PUSH4 0xEE545E68 EQ PUSH2 0x396 JUMPI DUP1 PUSH4 0xF2FDE38B EQ PUSH2 0x3A9 JUMPI DUP1 PUSH4 0xF3B24022 EQ PUSH2 0x3BC JUMPI DUP1 PUSH4 0xFC0C546A EQ PUSH2 0x3CF JUMPI PUSH1 0x0 DUP1 REVERT JUMPDEST DUP1 PUSH4 0x944D934B EQ PUSH2 0x277 JUMPI DUP1 PUSH4 0xA3614115 EQ PUSH2 0x298 JUMPI DUP1 PUSH4 0xC240CFE1 EQ PUSH2 0x2AB JUMPI DUP1 PUSH4 0xC891C62A EQ PUSH2 0x2BE JUMPI DUP1 PUSH4 0xDB2A0A55 EQ PUSH2 0x2C6 JUMPI PUSH1 0x0 DUP1 REVERT JUMPDEST DUP1 PUSH4 0x715018A6 GT PUSH2 0x10A JUMPI DUP1 PUSH4 0x715018A6 EQ PUSH2 0x1BA JUMPI DUP1 PUSH4 0x74D8BD37 EQ PUSH2 0x1C2 JUMPI DUP1 PUSH4 0x7C1C1EA4 EQ PUSH2 0x1ED JUMPI DUP1 PUSH4 0x8538FD42 EQ PUSH2 0x22A JUMPI DUP1 PUSH4 0x8DA5CB5B EQ PUSH2 0x253 JUMPI DUP1 PUSH4 0x92ED0D00 EQ PUSH2 0x264 JUMPI PUSH1 0x0 DUP1 REVERT JUMPDEST DUP1 PUSH4 0x119813A0 EQ PUSH2 0x147 JUMPI DUP1 PUSH4 0x2E1A7D4D EQ PUSH2 0x15C JUMPI DUP1 PUSH4 0x396DBF0D EQ PUSH2 0x16F JUMPI DUP1 PUSH4 0x46A62223 EQ PUSH2 0x19F JUMPI DUP1 PUSH4 0x5685CB2E EQ PUSH2 0x1A7 JUMPI JUMPDEST PUSH1 0x0 DUP1 REVERT JUMPDEST PUSH2 0x15A PUSH2 0x155 CALLDATASIZE PUSH1 0x4 PUSH2 0x145A JUMP JUMPDEST PUSH2 0x3E2 JUMP JUMPDEST STOP JUMPDEST PUSH2 0x15A PUSH2 0x16A CALLDATASIZE PUSH1 0x4 PUSH2 0x1484 JUMP JUMPDEST PUSH2 0x4DA JUMP JUMPDEST PUSH1 0x4 SLOAD PUSH2 0x182 SWAP1 PUSH1 0x1 PUSH1 0x1 PUSH1 0x80 SHL SUB AND DUP2 JUMP JUMPDEST PUSH1 0x40 MLOAD PUSH1 0x1 PUSH1 0x1 PUSH1 0x80 SHL SUB SWAP1 SWAP2 AND DUP2 MSTORE PUSH1 0x20 ADD JUMPDEST PUSH1 0x40 MLOAD DUP1 SWAP2 SUB SWAP1 RETURN JUMPDEST PUSH2 0x182 PUSH2 0x606 JUMP JUMPDEST PUSH2 0x15A PUSH2 0x1B5 CALLDATASIZE PUSH1 0x4 PUSH2 0x1484 JUMP JUMPDEST PUSH2 0x651 JUMP JUMPDEST PUSH2 0x15A PUSH2 0x8D2 JUMP JUMPDEST PUSH1 0x3 SLOAD PUSH2 0x1D5 SWAP1 PUSH1 0x1 PUSH1 0x1 PUSH1 0xA0 SHL SUB AND DUP2 JUMP JUMPDEST PUSH1 0x40 MLOAD PUSH1 0x1 PUSH1 0x1 PUSH1 0xA0 SHL SUB SWAP1 SWAP2 AND DUP2 MSTORE PUSH1 0x20 ADD PUSH2 0x196 JUMP JUMPDEST PUSH2 0x214 PUSH2 0x1FB CALLDATASIZE PUSH1 0x4 PUSH2 0x1484 JUMP JUMPDEST PUSH1 0x8 PUSH1 0x20 MSTORE PUSH1 0x0 SWAP1 DUP2 MSTORE PUSH1 0x40 SWAP1 KECCAK256 SLOAD PUSH5 0xFFFFFFFFFF AND DUP2 JUMP JUMPDEST PUSH1 0x40 MLOAD PUSH5 0xFFFFFFFFFF SWAP1 SWAP2 AND DUP2 MSTORE PUSH1 0x20 ADD PUSH2 0x196 JUMP JUMPDEST PUSH2 0x23D PUSH2 0x238 CALLDATASIZE PUSH1 0x4 PUSH2 0x1484 JUMP JUMPDEST PUSH2 0x908 JUMP JUMPDEST PUSH1 0x40 MLOAD SWAP1 MLOAD PUSH5 0xFFFFFFFFFF AND DUP2 MSTORE PUSH1 0x20 ADD PUSH2 0x196 JUMP JUMPDEST PUSH1 0x1 SLOAD PUSH1 0x1 PUSH1 0x1 PUSH1 0xA0 SHL SUB AND PUSH2 0x1D5 JUMP JUMPDEST PUSH2 0x15A PUSH2 0x272 CALLDATASIZE PUSH1 0x4 PUSH2 0x149D JUMP JUMPDEST PUSH2 0x9A1 JUMP JUMPDEST PUSH2 0x28A PUSH2 0x285 CALLDATASIZE PUSH1 0x4 PUSH2 0x1484 JUMP JUMPDEST PUSH2 0xA6A JUMP JUMPDEST PUSH1 0x40 MLOAD SWAP1 DUP2 MSTORE PUSH1 0x20 ADD PUSH2 0x196 JUMP JUMPDEST PUSH2 0x28A PUSH2 0x2A6 CALLDATASIZE PUSH1 0x4 PUSH2 0x1484 JUMP JUMPDEST PUSH2 0xA7B JUMP JUMPDEST PUSH1 0x5 SLOAD PUSH2 0x1D5 SWAP1 PUSH1 0x1 PUSH1 0x1 PUSH1 0xA0 SHL SUB AND DUP2 JUMP JUMPDEST PUSH2 0x15A PUSH2 0xBCC JUMP JUMPDEST PUSH1 0x6 SLOAD PUSH1 0x7 SLOAD PUSH2 0x30E SWAP2 PUSH2 0xFFFF DUP1 DUP3 AND SWAP3 PUSH3 0x10000 DUP4 DIV PUSH5 0xFFFFFFFFFF AND SWAP3 PUSH1 0x1 PUSH1 0x38 SHL DUP2 DIV SWAP1 SWAP3 AND SWAP2 PUSH1 0x1 PUSH1 0x48 SHL SWAP1 DIV PUSH8 0xFFFFFFFFFFFFFFFF AND SWAP1 PUSH1 0x1 PUSH1 0x1 PUSH1 0xA0 SHL SUB AND DUP6 JUMP JUMPDEST PUSH1 0x40 DUP1 MLOAD PUSH2 0xFFFF SWAP7 DUP8 AND DUP2 MSTORE PUSH5 0xFFFFFFFFFF SWAP6 SWAP1 SWAP6 AND PUSH1 0x20 DUP7 ADD MSTORE SWAP3 SWAP1 SWAP5 AND SWAP2 DUP4 ADD SWAP2 SWAP1 SWAP2 MSTORE PUSH8 0xFFFFFFFFFFFFFFFF AND PUSH1 0x60 DUP3 ADD MSTORE PUSH1 0x1 PUSH1 0x1 PUSH1 0xA0 SHL SUB SWAP1 SWAP2 AND PUSH1 0x80 DUP3 ADD MSTORE PUSH1 0xA0 ADD PUSH2 0x196 JUMP JUMPDEST PUSH2 0x36E PUSH2 0x369 CALLDATASIZE PUSH1 0x4 PUSH2 0x1484 JUMP JUMPDEST PUSH2 0xD27 JUMP JUMPDEST PUSH1 0x40 MLOAD SWAP1 ISZERO ISZERO DUP2 MSTORE PUSH1 0x20 ADD PUSH2 0x196 JUMP JUMPDEST PUSH1 0x4 SLOAD PUSH2 0x214 SWAP1 PUSH1 0x1 PUSH1 0x80 SHL SWAP1 DIV PUSH5 0xFFFFFFFFFF AND DUP2 JUMP JUMPDEST PUSH2 0x182 PUSH2 0x3A4 CALLDATASIZE PUSH1 0x4 PUSH2 0x1484 JUMP JUMPDEST PUSH2 0xE07 JUMP JUMPDEST PUSH2 0x15A PUSH2 0x3B7 CALLDATASIZE PUSH1 0x4 PUSH2 0x14D6 JUMP JUMPDEST PUSH2 0xE7A JUMP JUMPDEST PUSH2 0x15A PUSH2 0x3CA CALLDATASIZE PUSH1 0x4 PUSH2 0x14D6 JUMP JUMPDEST PUSH2 0xF15 JUMP JUMPDEST PUSH1 0x2 SLOAD PUSH2 0x1D5 SWAP1 PUSH1 0x1 PUSH1 0x1 PUSH1 0xA0 SHL SUB AND DUP2 JUMP JUMPDEST PUSH1 0x1 SLOAD PUSH1 0x1 PUSH1 0x1 PUSH1 0xA0 SHL SUB AND CALLER EQ PUSH2 0x415 JUMPI PUSH1 0x40 MLOAD PUSH3 0x461BCD PUSH1 0xE5 SHL DUP2 MSTORE PUSH1 0x4 ADD PUSH2 0x40C SWAP1 PUSH2 0x14F3 JUMP JUMPDEST PUSH1 0x40 MLOAD DUP1 SWAP2 SUB SWAP1 REVERT JUMPDEST PUSH1 0x6 SLOAD PUSH8 0xFFFFFFFFFFFFFFFF PUSH1 0x1 PUSH1 0x48 SHL SWAP1 SWAP2 DIV DUP2 AND SWAP1 DUP3 AND SUB PUSH2 0x471 JUMPI PUSH1 0x40 MLOAD PUSH3 0x461BCD PUSH1 0xE5 SHL DUP2 MSTORE PUSH1 0x20 PUSH1 0x4 DUP3 ADD MSTORE PUSH1 0x13 PUSH1 0x24 DUP3 ADD MSTORE PUSH19 0x1CD85B5948191D5CDD081D1A1C995CDA1BDB19 PUSH1 0x6A SHL PUSH1 0x44 DUP3 ADD MSTORE PUSH1 0x64 ADD PUSH2 0x40C JUMP JUMPDEST PUSH1 0x6 DUP1 SLOAD PUSH17 0xFFFFFFFFFFFFFFFF000000000000000000 NOT AND PUSH1 0x1 PUSH1 0x48 SHL PUSH8 0xFFFFFFFFFFFFFFFF DUP5 AND SWAP1 DUP2 MUL SWAP2 SWAP1 SWAP2 OR SWAP1 SWAP2 SSTORE PUSH1 0x40 MLOAD SWAP1 DUP2 MSTORE PUSH32 0x170488C5D86B606CF311DB335A26A15FA0EBA350FD024E554D12EAEDE0164A9B SWAP1 PUSH1 0x20 ADD JUMPDEST PUSH1 0x40 MLOAD DUP1 SWAP2 SUB SWAP1 LOG1 POP JUMP JUMPDEST PUSH1 0x2 PUSH1 0x0 SLOAD SUB PUSH2 0x52C JUMPI PUSH1 0x40 MLOAD PUSH3 0x461BCD PUSH1 0xE5 SHL DUP2 MSTORE PUSH1 0x20 PUSH1 0x4 DUP3 ADD MSTORE PUSH1 0x1F PUSH1 0x24 DUP3 ADD MSTORE PUSH32 0x5265656E7472616E637947756172643A207265656E7472616E742063616C6C00 PUSH1 0x44 DUP3 ADD MSTORE PUSH1 0x64 ADD PUSH2 0x40C JUMP JUMPDEST PUSH1 0x2 PUSH1 0x0 SSTORE PUSH1 0x3 SLOAD PUSH1 0x40 MLOAD PUSH4 0x31A9108F PUSH1 0xE1 SHL DUP2 MSTORE PUSH1 0x4 DUP2 ADD DUP4 SWAP1 MSTORE ORIGIN SWAP2 PUSH1 0x1 PUSH1 0x1 PUSH1 0xA0 SHL SUB AND SWAP1 PUSH4 0x6352211E SWAP1 PUSH1 0x24 ADD PUSH1 0x20 PUSH1 0x40 MLOAD DUP1 DUP4 SUB DUP2 DUP7 GAS STATICCALL ISZERO DUP1 ISZERO PUSH2 0x57A JUMPI RETURNDATASIZE PUSH1 0x0 DUP1 RETURNDATACOPY RETURNDATASIZE PUSH1 0x0 REVERT JUMPDEST POP POP POP POP PUSH1 0x40 MLOAD RETURNDATASIZE PUSH1 0x1F NOT PUSH1 0x1F DUP3 ADD AND DUP3 ADD DUP1 PUSH1 0x40 MSTORE POP DUP2 ADD SWAP1 PUSH2 0x59E SWAP2 SWAP1 PUSH2 0x1528 JUMP JUMPDEST PUSH1 0x1 PUSH1 0x1 PUSH1 0xA0 SHL SUB AND EQ PUSH2 0x5F4 JUMPI PUSH1 0x40 MLOAD PUSH3 0x461BCD PUSH1 0xE5 SHL DUP2 MSTORE PUSH1 0x20 PUSH1 0x4 DUP3 ADD DUP2 SWAP1 MSTORE PUSH1 0x24 DUP3 ADD MSTORE PUSH32 0x596F7520646F206E6F74206F776E207468652077697A6172642074686572652E PUSH1 0x44 DUP3 ADD MSTORE PUSH1 0x64 ADD PUSH2 0x40C JUMP JUMPDEST PUSH2 0x5FE DUP2 ORIGIN PUSH2 0xFFF JUMP JUMPDEST POP PUSH1 0x1 PUSH1 0x0 SSTORE JUMP JUMPDEST PUSH1 0x6 SLOAD PUSH1 0x4 SLOAD PUSH1 0x0 SWAP2 PUSH2 0xFFFF AND SWAP1 PUSH2 0x62C SWAP1 PUSH1 0x1 PUSH1 0x80 SHL SWAP1 DIV PUSH5 0xFFFFFFFFFF AND TIMESTAMP PUSH2 0x155B JUMP JUMPDEST PUSH2 0x636 SWAP2 SWAP1 PUSH2 0x1572 JUMP JUMPDEST PUSH1 0x4 SLOAD PUSH2 0x64C SWAP2 SWAP1 PUSH1 0x1 PUSH1 0x1 PUSH1 0x80 SHL SUB AND PUSH2 0x1591 JUMP JUMPDEST SWAP1 POP SWAP1 JUMP JUMPDEST PUSH1 0x3 SLOAD PUSH1 0x40 MLOAD PUSH4 0x3E55E63D PUSH1 0xE0 SHL DUP2 MSTORE PUSH1 0x4 DUP2 ADD DUP4 SWAP1 MSTORE PUSH1 0x1 PUSH1 0x1 PUSH1 0xA0 SHL SUB SWAP1 SWAP2 AND SWAP1 PUSH4 0x3E55E63D SWAP1 PUSH1 0x24 ADD PUSH1 0x20 PUSH1 0x40 MLOAD DUP1 DUP4 SUB DUP2 DUP7 GAS STATICCALL ISZERO DUP1 ISZERO PUSH2 0x69A JUMPI RETURNDATASIZE PUSH1 0x0 DUP1 RETURNDATACOPY RETURNDATASIZE PUSH1 0x0 REVERT JUMPDEST POP POP POP POP PUSH1 0x40 MLOAD RETURNDATASIZE PUSH1 0x1F NOT PUSH1 0x1F DUP3 ADD AND DUP3 ADD DUP1 PUSH1 0x40 MSTORE POP DUP2 ADD SWAP1 PUSH2 0x6BE SWAP2 SWAP1 PUSH2 0x15A9 JUMP JUMPDEST DUP1 ISZERO PUSH2 0x73D JUMPI POP PUSH1 0x3 SLOAD PUSH1 0x40 MLOAD PUSH4 0x31A9108F PUSH1 0xE1 SHL DUP2 MSTORE PUSH1 0x4 DUP2 ADD DUP4 SWAP1 MSTORE CALLER SWAP2 PUSH1 0x1 PUSH1 0x1 PUSH1 0xA0 SHL SUB AND SWAP1 PUSH4 0x6352211E SWAP1 PUSH1 0x24 ADD PUSH1 0x20 PUSH1 0x40 MLOAD DUP1 DUP4 SUB DUP2 DUP7 GAS STATICCALL ISZERO DUP1 ISZERO PUSH2 0x70E JUMPI RETURNDATASIZE PUSH1 0x0 DUP1 RETURNDATACOPY RETURNDATASIZE PUSH1 0x0 REVERT JUMPDEST POP POP POP POP PUSH1 0x40 MLOAD RETURNDATASIZE PUSH1 0x1F NOT PUSH1 0x1F DUP3 ADD AND DUP3 ADD DUP1 PUSH1 0x40 MSTORE POP DUP2 ADD SWAP1 PUSH2 0x732 SWAP2 SWAP1 PUSH2 0x1528 JUMP JUMPDEST PUSH1 0x1 PUSH1 0x1 PUSH1 0xA0 SHL SUB AND EQ JUMPDEST PUSH2 0x789 JUMPI PUSH1 0x40 MLOAD PUSH3 0x461BCD PUSH1 0xE5 SHL DUP2 MSTORE PUSH1 0x20 PUSH1 0x4 DUP3 ADD MSTORE PUSH1 0x1A PUSH1 0x24 DUP3 ADD MSTORE PUSH32 0x6D757374206F776E206D61747572652077697A617264734E4654000000000000 PUSH1 0x44 DUP3 ADD MSTORE PUSH1 0x64 ADD PUSH2 0x40C JUMP JUMPDEST PUSH1 0x0 DUP2 DUP2 MSTORE PUSH1 0x8 PUSH1 0x20 MSTORE PUSH1 0x40 SWAP1 KECCAK256 SLOAD PUSH5 0xFFFFFFFFFF AND ISZERO PUSH2 0x7DE JUMPI PUSH1 0x40 MLOAD PUSH3 0x461BCD PUSH1 0xE5 SHL DUP2 MSTORE PUSH1 0x20 PUSH1 0x4 DUP3 ADD MSTORE PUSH1 0xF PUSH1 0x24 DUP3 ADD MSTORE PUSH15 0x185B1C9958591E4818DB185A5B5959 PUSH1 0x8A SHL PUSH1 0x44 DUP3 ADD MSTORE PUSH1 0x64 ADD PUSH2 0x40C JUMP JUMPDEST PUSH1 0x6 SLOAD PUSH2 0xFFFF PUSH1 0x1 PUSH1 0x38 SHL DUP3 DIV DUP2 AND SWAP2 AND LT PUSH2 0x834 JUMPI PUSH1 0x40 MLOAD PUSH3 0x461BCD PUSH1 0xE5 SHL DUP2 MSTORE PUSH1 0x20 PUSH1 0x4 DUP3 ADD MSTORE PUSH1 0x15 PUSH1 0x24 DUP3 ADD MSTORE PUSH21 0x746F776572206174206D6178206361706163697479 PUSH1 0x58 SHL PUSH1 0x44 DUP3 ADD MSTORE PUSH1 0x64 ADD PUSH2 0x40C JUMP JUMPDEST PUSH1 0x6 DUP1 SLOAD PUSH1 0x1 SWAP2 SWAP1 PUSH1 0x0 SWAP1 PUSH2 0x84E SWAP1 DUP5 SWAP1 PUSH2 0xFFFF AND PUSH2 0x15CB JUMP JUMPDEST DUP3 SLOAD PUSH2 0x100 SWAP3 SWAP1 SWAP3 EXP PUSH2 0xFFFF DUP2 DUP2 MUL NOT SWAP1 SWAP4 AND SWAP2 SWAP1 SWAP3 AND SWAP2 SWAP1 SWAP2 MUL OR SWAP1 SSTORE POP PUSH1 0x0 DUP2 DUP2 MSTORE PUSH1 0x8 PUSH1 0x20 MSTORE PUSH1 0x40 DUP2 KECCAK256 DUP1 SLOAD PUSH5 0xFFFFFFFFFF NOT AND TIMESTAMP PUSH5 0xFFFFFFFFFF AND OR SWAP1 SSTORE PUSH2 0x899 SWAP1 PUSH2 0x1242 JUMP JUMPDEST PUSH1 0x40 MLOAD CALLER DUP2 MSTORE DUP2 SWAP1 PUSH32 0x8001C97A408A23325ABD3C150444E1FB5767B7B286719008F619CBE1C2A6D569 SWAP1 PUSH1 0x20 ADD JUMPDEST PUSH1 0x40 MLOAD DUP1 SWAP2 SUB SWAP1 LOG2 POP JUMP JUMPDEST PUSH1 0x1 SLOAD PUSH1 0x1 PUSH1 0x1 PUSH1 0xA0 SHL SUB AND CALLER EQ PUSH2 0x8FC JUMPI PUSH1 0x40 MLOAD PUSH3 0x461BCD PUSH1 0xE5 SHL DUP2 MSTORE PUSH1 0x4 ADD PUSH2 0x40C SWAP1 PUSH2 0x14F3 JUMP JUMPDEST PUSH2 0x906 PUSH1 0x0 PUSH2 0x1289 JUMP JUMPDEST JUMP JUMPDEST PUSH1 0x40 DUP1 MLOAD PUSH1 0x20 DUP2 ADD SWAP1 SWAP2 MSTORE PUSH1 0x0 DUP2 MSTORE PUSH1 0x0 DUP3 GT DUP1 ISZERO PUSH2 0x93B JUMPI POP PUSH1 0x6 SLOAD PUSH2 0x934 SWAP1 PUSH2 0xFFFF AND PUSH1 0x1 PUSH2 0x15CB JUMP JUMPDEST PUSH2 0xFFFF AND DUP3 LT JUMPDEST PUSH2 0x978 JUMPI PUSH1 0x40 MLOAD PUSH3 0x461BCD PUSH1 0xE5 SHL DUP2 MSTORE PUSH1 0x20 PUSH1 0x4 DUP3 ADD MSTORE PUSH1 0xE PUSH1 0x24 DUP3 ADD MSTORE PUSH14 0x34B73B30B634B210373AB6B132B9 PUSH1 0x91 SHL PUSH1 0x44 DUP3 ADD MSTORE PUSH1 0x64 ADD PUSH2 0x40C JUMP JUMPDEST POP PUSH1 0x0 SWAP1 DUP2 MSTORE PUSH1 0x8 PUSH1 0x20 SWAP1 DUP2 MSTORE PUSH1 0x40 SWAP2 DUP3 SWAP1 KECCAK256 DUP3 MLOAD SWAP2 DUP3 ADD SWAP1 SWAP3 MSTORE SWAP1 SLOAD PUSH5 0xFFFFFFFFFF AND DUP2 MSTORE SWAP1 JUMP JUMPDEST PUSH1 0x1 SLOAD PUSH1 0x1 PUSH1 0x1 PUSH1 0xA0 SHL SUB AND CALLER EQ PUSH2 0x9CB JUMPI PUSH1 0x40 MLOAD PUSH3 0x461BCD PUSH1 0xE5 SHL DUP2 MSTORE PUSH1 0x4 ADD PUSH2 0x40C SWAP1 PUSH2 0x14F3 JUMP JUMPDEST PUSH1 0x6 SLOAD PUSH2 0xFFFF PUSH1 0x1 PUSH1 0x38 SHL SWAP1 SWAP2 DIV DUP2 AND SWAP1 DUP3 AND SUB PUSH2 0xA16 JUMPI PUSH1 0x40 MLOAD PUSH3 0x461BCD PUSH1 0xE5 SHL DUP2 MSTORE PUSH1 0x20 PUSH1 0x4 DUP3 ADD MSTORE PUSH1 0x8 PUSH1 0x24 DUP3 ADD MSTORE PUSH8 0x73616D652063617 PUSH1 0xC4 SHL PUSH1 0x44 DUP3 ADD MSTORE PUSH1 0x64 ADD PUSH2 0x40C JUMP JUMPDEST PUSH1 0x6 DUP1 SLOAD PUSH9 0xFFFF00000000000000 NOT AND PUSH1 0x1 PUSH1 0x38 SHL PUSH2 0xFFFF DUP5 AND SWAP1 DUP2 MUL SWAP2 SWAP1 SWAP2 OR SWAP1 SWAP2 SSTORE PUSH1 0x40 MLOAD SWAP1 DUP2 MSTORE PUSH32 0xBC8393F6D2BF497C51C73283ACCBA094799A1E5FA0A16CE319E054BFF671053E SWAP1 PUSH1 0x20 ADD PUSH2 0x4CF JUMP JUMPDEST PUSH1 0x0 PUSH2 0xA75 DUP3 PUSH2 0x12DB JUMP JUMPDEST SWAP3 SWAP2 POP POP JUMP JUMPDEST PUSH1 0x1 SLOAD PUSH1 0x0 SWAP1 PUSH1 0x1 PUSH1 0x1 PUSH1 0xA0 SHL SUB AND CALLER EQ PUSH2 0xAA8 JUMPI PUSH1 0x40 MLOAD PUSH3 0x461BCD PUSH1 0xE5 SHL DUP2 MSTORE PUSH1 0x4 ADD PUSH2 0x40C SWAP1 PUSH2 0x14F3 JUMP JUMPDEST PUSH2 0xAB1 DUP3 PUSH2 0xD27 JUMP JUMPDEST PUSH2 0xAEC JUMPI PUSH1 0x40 MLOAD PUSH3 0x461BCD PUSH1 0xE5 SHL DUP2 MSTORE PUSH1 0x20 PUSH1 0x4 DUP3 ADD MSTORE PUSH1 0xC PUSH1 0x24 DUP3 ADD MSTORE PUSH12 0x3737BA1037B7103A37BBB2B9 PUSH1 0xA1 SHL PUSH1 0x44 DUP3 ADD MSTORE PUSH1 0x64 ADD PUSH2 0x40C JUMP JUMPDEST PUSH1 0x0 PUSH2 0xAF7 DUP4 PUSH2 0x12DB JUMP JUMPDEST PUSH1 0x6 SLOAD SWAP1 SWAP2 POP PUSH1 0x1 PUSH1 0x48 SHL SWAP1 DIV PUSH8 0xFFFFFFFFFFFFFFFF AND DUP2 GT ISZERO PUSH2 0xB31 JUMPI PUSH1 0x7 SLOAD PUSH2 0xB2C SWAP1 DUP5 SWAP1 PUSH1 0x1 PUSH1 0x1 PUSH1 0xA0 SHL SUB AND PUSH2 0xFFF JUMP JUMPDEST PUSH2 0xB42 JUMP JUMPDEST PUSH2 0xB42 PUSH2 0xB3D DUP5 PUSH2 0xE07 JUMP JUMPDEST PUSH2 0x1242 JUMP JUMPDEST PUSH1 0x0 DUP4 DUP2 MSTORE PUSH1 0x8 PUSH1 0x20 MSTORE PUSH1 0x40 DUP2 KECCAK256 DUP1 SLOAD PUSH5 0xFFFFFFFFFF NOT AND SWAP1 SSTORE PUSH1 0x6 DUP1 SLOAD PUSH1 0x1 SWAP3 SWAP1 PUSH2 0xB73 SWAP1 DUP5 SWAP1 PUSH2 0xFFFF AND PUSH2 0x15F1 JUMP JUMPDEST SWAP3 POP PUSH2 0x100 EXP DUP2 SLOAD DUP2 PUSH2 0xFFFF MUL NOT AND SWAP1 DUP4 PUSH2 0xFFFF AND MUL OR SWAP1 SSTORE POP PUSH32 0x4AA412D7310E830A61A9341AD8FD42AAAD9777E0043E20C059D48A8F12658F98 DUP4 PUSH1 0x40 MLOAD PUSH2 0xBBE SWAP2 DUP2 MSTORE PUSH1 0x20 ADD SWAP1 JUMP JUMPDEST PUSH1 0x40 MLOAD DUP1 SWAP2 SUB SWAP1 LOG1 SWAP3 SWAP2 POP POP JUMP JUMPDEST PUSH1 0x1 SLOAD PUSH1 0x1 PUSH1 0x1 PUSH1 0xA0 SHL SUB AND CALLER EQ PUSH2 0xBF6 JUMPI PUSH1 0x40 MLOAD PUSH3 0x461BCD PUSH1 0xE5 SHL DUP2 MSTORE PUSH1 0x4 ADD PUSH2 0x40C SWAP1 PUSH2 0x14F3 JUMP JUMPDEST PUSH1 0x2 SLOAD PUSH1 0x40 MLOAD PUSH4 0x70A08231 PUSH1 0xE0 SHL DUP2 MSTORE ADDRESS PUSH1 0x4 DUP3 ADD MSTORE PUSH1 0x0 SWAP2 PUSH1 0x1 PUSH1 0x1 PUSH1 0xA0 SHL SUB AND SWAP1 PUSH4 0x70A08231 SWAP1 PUSH1 0x24 ADD PUSH1 0x20 PUSH1 0x40 MLOAD DUP1 DUP4 SUB DUP2 DUP7 GAS STATICCALL ISZERO DUP1 ISZERO PUSH2 0xC3F JUMPI RETURNDATASIZE PUSH1 0x0 DUP1 RETURNDATACOPY RETURNDATASIZE PUSH1 0x0 REVERT JUMPDEST POP POP POP POP PUSH1 0x40 MLOAD RETURNDATASIZE PUSH1 0x1F NOT PUSH1 0x1F DUP3 ADD AND DUP3 ADD DUP1 PUSH1 0x40 MSTORE POP DUP2 ADD SWAP1 PUSH2 0xC63 SWAP2 SWAP1 PUSH2 0x1614 JUMP JUMPDEST PUSH1 0x2 SLOAD PUSH1 0x40 MLOAD PUSH4 0xA9059CBB PUSH1 0xE0 SHL DUP2 MSTORE CALLER PUSH1 0x4 DUP3 ADD MSTORE PUSH1 0x24 DUP2 ADD DUP4 SWAP1 MSTORE SWAP2 SWAP3 POP PUSH1 0x1 PUSH1 0x1 PUSH1 0xA0 SHL SUB AND SWAP1 PUSH4 0xA9059CBB SWAP1 PUSH1 0x44 ADD PUSH1 0x20 PUSH1 0x40 MLOAD DUP1 DUP4 SUB DUP2 PUSH1 0x0 DUP8 GAS CALL ISZERO DUP1 ISZERO PUSH2 0xCB5 JUMPI RETURNDATASIZE PUSH1 0x0 DUP1 RETURNDATACOPY RETURNDATASIZE PUSH1 0x0 REVERT JUMPDEST POP POP POP POP PUSH1 0x40 MLOAD RETURNDATASIZE PUSH1 0x1F NOT PUSH1 0x1F DUP3 ADD AND DUP3 ADD DUP1 PUSH1 0x40 MSTORE POP DUP2 ADD SWAP1 PUSH2 0xCD9 SWAP2 SWAP1 PUSH2 0x15A9 JUMP JUMPDEST PUSH2 0xCF5 JUMPI PUSH1 0x40 MLOAD PUSH3 0x461BCD PUSH1 0xE5 SHL DUP2 MSTORE PUSH1 0x4 ADD PUSH2 0x40C SWAP1 PUSH2 0x162D JUMP JUMPDEST PUSH1 0x40 MLOAD DUP2 DUP2 MSTORE CALLER SWAP1 PUSH32 0xD52E6A96125965761D3461FF1F2C72DF610AB6BC2584AC9F076B45B585F049F SWAP1 PUSH1 0x20 ADD PUSH2 0x8C7 JUMP JUMPDEST PUSH1 0x0 DUP2 ISZERO DUP1 ISZERO SWAP1 PUSH2 0xDAE JUMPI POP PUSH1 0x3 PUSH1 0x0 SWAP1 SLOAD SWAP1 PUSH2 0x100 EXP SWAP1 DIV PUSH1 0x1 PUSH1 0x1 PUSH1 0xA0 SHL SUB AND PUSH1 0x1 PUSH1 0x1 PUSH1 0xA0 SHL SUB AND PUSH4 0x18160DDD PUSH1 0x40 MLOAD DUP2 PUSH4 0xFFFFFFFF AND PUSH1 0xE0 SHL DUP2 MSTORE PUSH1 0x4 ADD PUSH1 0x20 PUSH1 0x40 MLOAD DUP1 DUP4 SUB DUP2 DUP7 GAS STATICCALL ISZERO DUP1 ISZERO PUSH2 0xD86 JUMPI RETURNDATASIZE PUSH1 0x0 DUP1 RETURNDATACOPY RETURNDATASIZE PUSH1 0x0 REVERT JUMPDEST POP POP POP POP PUSH1 0x40 MLOAD RETURNDATASIZE PUSH1 0x1F NOT PUSH1 0x1F DUP3 ADD AND DUP3 ADD DUP1 PUSH1 0x40 MSTORE POP DUP2 ADD SWAP1 PUSH2 0xDAA SWAP2 SWAP1 PUSH2 0x1614 JUMP JUMPDEST DUP3 GT ISZERO JUMPDEST PUSH2 0xDEB JUMPI PUSH1 0x40 MLOAD PUSH3 0x461BCD PUSH1 0xE5 SHL DUP2 MSTORE PUSH1 0x20 PUSH1 0x4 DUP3 ADD MSTORE PUSH1 0xE PUSH1 0x24 DUP3 ADD MSTORE PUSH14 0x1A5B9D985B1A59081DDA5E985C99 PUSH1 0x92 SHL PUSH1 0x44 DUP3 ADD MSTORE PUSH1 0x64 ADD PUSH2 0x40C JUMP JUMPDEST POP PUSH1 0x0 SWAP1 DUP2 MSTORE PUSH1 0x8 PUSH1 0x20 MSTORE PUSH1 0x40 SWAP1 KECCAK256 SLOAD PUSH5 0xFFFFFFFFFF AND ISZERO ISZERO SWAP1 JUMP JUMPDEST PUSH1 0x0 PUSH2 0xE12 DUP3 PUSH2 0xD27 JUMP JUMPDEST PUSH2 0xE1B JUMPI PUSH1 0x0 DUP1 REVERT JUMPDEST PUSH1 0x0 DUP3 DUP2 MSTORE PUSH1 0x8 PUSH1 0x20 SWAP1 DUP2 MSTORE PUSH1 0x40 DUP1 DUP4 KECCAK256 DUP2 MLOAD SWAP3 DUP4 ADD SWAP1 SWAP2 MSTORE SLOAD PUSH5 0xFFFFFFFFFF AND DUP1 DUP3 MSTORE SWAP1 SWAP2 SWAP1 ISZERO PUSH2 0xE4E JUMPI DUP2 MLOAD PUSH2 0xE5F JUMP JUMPDEST PUSH1 0x6 SLOAD PUSH3 0x10000 SWAP1 DIV PUSH5 0xFFFFFFFFFF AND JUMPDEST PUSH5 0xFFFFFFFFFF AND SWAP1 POP PUSH2 0xE72 DUP2 TIMESTAMP PUSH2 0x155B JUMP JUMPDEST SWAP5 SWAP4 POP POP POP POP JUMP JUMPDEST PUSH1 0x1 SLOAD PUSH1 0x1 PUSH1 0x1 PUSH1 0xA0 SHL SUB AND CALLER EQ PUSH2 0xEA4 JUMPI PUSH1 0x40 MLOAD PUSH3 0x461BCD PUSH1 0xE5 SHL DUP2 MSTORE PUSH1 0x4 ADD PUSH2 0x40C SWAP1 PUSH2 0x14F3 JUMP JUMPDEST PUSH1 0x1 PUSH1 0x1 PUSH1 0xA0 SHL SUB DUP2 AND PUSH2 0xF09 JUMPI PUSH1 0x40 MLOAD PUSH3 0x461BCD PUSH1 0xE5 SHL DUP2 MSTORE PUSH1 0x20 PUSH1 0x4 DUP3 ADD MSTORE PUSH1 0x26 PUSH1 0x24 DUP3 ADD MSTORE PUSH32 0x4F776E61626C653A206E6577206F776E657220697320746865207A65726F2061 PUSH1 0x44 DUP3 ADD MSTORE PUSH6 0x646472657373 PUSH1 0xD0 SHL PUSH1 0x64 DUP3 ADD MSTORE PUSH1 0x84 ADD PUSH2 0x40C JUMP JUMPDEST PUSH2 0xF12 DUP2 PUSH2 0x1289 JUMP JUMPDEST POP JUMP JUMPDEST PUSH1 0x1 SLOAD PUSH1 0x1 PUSH1 0x1 PUSH1 0xA0 SHL SUB AND CALLER EQ PUSH2 0xF3F JUMPI PUSH1 0x40 MLOAD PUSH3 0x461BCD PUSH1 0xE5 SHL DUP2 MSTORE PUSH1 0x4 ADD PUSH2 0x40C SWAP1 PUSH2 0x14F3 JUMP JUMPDEST PUSH1 0x1 PUSH1 0x1 PUSH1 0xA0 SHL SUB DUP2 AND ISZERO DUP1 ISZERO SWAP1 PUSH2 0xF65 JUMPI POP PUSH1 0x7 SLOAD PUSH1 0x1 PUSH1 0x1 PUSH1 0xA0 SHL SUB DUP3 DUP2 AND SWAP2 AND EQ ISZERO JUMPDEST PUSH2 0xFB1 JUMPI PUSH1 0x40 MLOAD PUSH3 0x461BCD PUSH1 0xE5 SHL DUP2 MSTORE PUSH1 0x20 PUSH1 0x4 DUP3 ADD MSTORE PUSH1 0x18 PUSH1 0x24 DUP3 ADD MSTORE PUSH32 0x496E76616C6964206F70657261746F7220616464726573730000000000000000 PUSH1 0x44 DUP3 ADD MSTORE PUSH1 0x64 ADD PUSH2 0x40C JUMP JUMPDEST PUSH1 0x7 DUP1 SLOAD PUSH1 0x1 PUSH1 0x1 PUSH1 0xA0 SHL SUB NOT AND PUSH1 0x1 PUSH1 0x1 PUSH1 0xA0 SHL SUB DUP4 AND SWAP1 DUP2 OR SWAP1 SWAP2 SSTORE PUSH1 0x40 MLOAD SWAP1 DUP2 MSTORE PUSH32 0x347F4FEBDCCC054106B6EDC7F64870BE0FA169FDDC4D23A25B1B7011DE44EA6F SWAP1 PUSH1 0x20 ADD PUSH2 0x4CF JUMP JUMPDEST PUSH2 0x1008 DUP3 PUSH2 0xD27 JUMP JUMPDEST PUSH2 0x1011 JUMPI PUSH1 0x0 DUP1 REVERT JUMPDEST PUSH1 0x0 PUSH2 0x101C DUP4 PUSH2 0x12DB JUMP JUMPDEST SWAP1 POP DUP1 PUSH1 0x0 SUB PUSH2 0x1064 JUMPI PUSH1 0x40 MLOAD PUSH3 0x461BCD PUSH1 0xE5 SHL DUP2 MSTORE PUSH1 0x20 PUSH1 0x4 DUP3 ADD MSTORE PUSH1 0x13 PUSH1 0x24 DUP3 ADD MSTORE PUSH19 0x6E6F7468696E6720746F207769746864726177 PUSH1 0x68 SHL PUSH1 0x44 DUP3 ADD MSTORE PUSH1 0x64 ADD PUSH2 0x40C JUMP JUMPDEST PUSH1 0x0 PUSH2 0x106F DUP5 PUSH2 0xE07 JUMP JUMPDEST PUSH1 0x2 SLOAD PUSH1 0x40 MLOAD PUSH4 0x70A08231 PUSH1 0xE0 SHL DUP2 MSTORE ADDRESS PUSH1 0x4 DUP3 ADD MSTORE SWAP2 SWAP3 POP DUP4 SWAP2 PUSH1 0x1 PUSH1 0x1 PUSH1 0xA0 SHL SUB SWAP1 SWAP2 AND SWAP1 PUSH4 0x70A08231 SWAP1 PUSH1 0x24 ADD PUSH1 0x20 PUSH1 0x40 MLOAD DUP1 DUP4 SUB DUP2 DUP7 GAS STATICCALL ISZERO DUP1 ISZERO PUSH2 0x10BC JUMPI RETURNDATASIZE PUSH1 0x0 DUP1 RETURNDATACOPY RETURNDATASIZE PUSH1 0x0 REVERT JUMPDEST POP POP POP POP PUSH1 0x40 MLOAD RETURNDATASIZE PUSH1 0x1F NOT PUSH1 0x1F DUP3 ADD AND DUP3 ADD DUP1 PUSH1 0x40 MSTORE POP DUP2 ADD SWAP1 PUSH2 0x10E0 SWAP2 SWAP1 PUSH2 0x1614 JUMP JUMPDEST LT ISZERO PUSH2 0x1139 JUMPI PUSH1 0x40 MLOAD PUSH3 0x461BCD PUSH1 0xE5 SHL DUP2 MSTORE PUSH1 0x20 PUSH1 0x4 DUP3 ADD MSTORE PUSH1 0x22 PUSH1 0x24 DUP3 ADD MSTORE PUSH32 0x4E6F7420656E6F7567682062616C616E636520696E2074686520636F6E747261 PUSH1 0x44 DUP3 ADD MSTORE PUSH2 0x18DD PUSH1 0xF2 SHL PUSH1 0x64 DUP3 ADD MSTORE PUSH1 0x84 ADD PUSH2 0x40C JUMP JUMPDEST PUSH1 0x0 DUP5 DUP2 MSTORE PUSH1 0x8 PUSH1 0x20 MSTORE PUSH1 0x40 SWAP1 DUP2 SWAP1 KECCAK256 DUP1 SLOAD PUSH5 0xFFFFFFFFFF NOT AND TIMESTAMP PUSH5 0xFFFFFFFFFF AND OR SWAP1 SSTORE PUSH1 0x2 SLOAD SWAP1 MLOAD PUSH4 0xA9059CBB PUSH1 0xE0 SHL DUP2 MSTORE PUSH1 0x1 PUSH1 0x1 PUSH1 0xA0 SHL SUB DUP6 DUP2 AND PUSH1 0x4 DUP4 ADD MSTORE PUSH1 0x24 DUP3 ADD DUP6 SWAP1 MSTORE SWAP1 SWAP2 AND SWAP1 PUSH4 0xA9059CBB SWAP1 PUSH1 0x44 ADD PUSH1 0x20 PUSH1 0x40 MLOAD DUP1 DUP4 SUB DUP2 PUSH1 0x0 DUP8 GAS CALL ISZERO DUP1 ISZERO PUSH2 0x11B0 JUMPI RETURNDATASIZE PUSH1 0x0 DUP1 RETURNDATACOPY RETURNDATASIZE PUSH1 0x0 REVERT JUMPDEST POP POP POP POP PUSH1 0x40 MLOAD RETURNDATASIZE PUSH1 0x1F NOT PUSH1 0x1F DUP3 ADD AND DUP3 ADD DUP1 PUSH1 0x40 MSTORE POP DUP2 ADD SWAP1 PUSH2 0x11D4 SWAP2 SWAP1 PUSH2 0x15A9 JUMP JUMPDEST PUSH2 0x11F0 JUMPI PUSH1 0x40 MLOAD PUSH3 0x461BCD PUSH1 0xE5 SHL DUP2 MSTORE PUSH1 0x4 ADD PUSH2 0x40C SWAP1 PUSH2 0x162D JUMP JUMPDEST PUSH2 0x11F9 DUP2 PUSH2 0x1242 JUMP JUMPDEST DUP3 PUSH1 0x1 PUSH1 0x1 PUSH1 0xA0 SHL SUB AND PUSH32 0x884EDAD9CE6FA2440D8A54CC123490EB96D2768479D49FF9C7366125A9424364 DUP4 PUSH1 0x40 MLOAD PUSH2 0x1234 SWAP2 DUP2 MSTORE PUSH1 0x20 ADD SWAP1 JUMP JUMPDEST PUSH1 0x40 MLOAD DUP1 SWAP2 SUB SWAP1 LOG2 POP POP POP POP JUMP JUMPDEST DUP1 PUSH2 0x124B PUSH2 0x606 JUMP JUMPDEST PUSH2 0x1255 SWAP2 SWAP1 PUSH2 0x1679 JUMP JUMPDEST PUSH1 0x4 DUP1 SLOAD PUSH1 0x1 PUSH1 0x1 PUSH1 0x80 SHL SUB SWAP3 SWAP1 SWAP3 AND PUSH1 0x1 PUSH1 0x1 PUSH1 0xA8 SHL SUB NOT SWAP1 SWAP3 AND SWAP2 SWAP1 SWAP2 OR PUSH1 0x1 PUSH1 0x80 SHL TIMESTAMP PUSH5 0xFFFFFFFFFF AND MUL OR SWAP1 SSTORE POP JUMP JUMPDEST PUSH1 0x1 DUP1 SLOAD PUSH1 0x1 PUSH1 0x1 PUSH1 0xA0 SHL SUB DUP4 DUP2 AND PUSH1 0x1 PUSH1 0x1 PUSH1 0xA0 SHL SUB NOT DUP4 AND DUP2 OR SWAP1 SWAP4 SSTORE PUSH1 0x40 MLOAD SWAP2 AND SWAP2 SWAP1 DUP3 SWAP1 PUSH32 0x8BE0079C531659141344CD1FD0A4F28419497F9722A3DAAFE3B4186F6B6457E0 SWAP1 PUSH1 0x0 SWAP1 LOG3 POP POP JUMP JUMPDEST PUSH1 0x0 DUP2 ISZERO DUP1 ISZERO SWAP1 PUSH2 0x1362 JUMPI POP PUSH1 0x3 PUSH1 0x0 SWAP1 SLOAD SWAP1 PUSH2 0x100 EXP SWAP1 DIV PUSH1 0x1 PUSH1 0x1 PUSH1 0xA0 SHL SUB AND PUSH1 0x1 PUSH1 0x1 PUSH1 0xA0 SHL SUB AND PUSH4 0x18160DDD PUSH1 0x40 MLOAD DUP2 PUSH4 0xFFFFFFFF AND PUSH1 0xE0 SHL DUP2 MSTORE PUSH1 0x4 ADD PUSH1 0x20 PUSH1 0x40 MLOAD DUP1 DUP4 SUB DUP2 DUP7 GAS STATICCALL ISZERO DUP1 ISZERO PUSH2 0x133A JUMPI RETURNDATASIZE PUSH1 0x0 DUP1 RETURNDATACOPY RETURNDATASIZE PUSH1 0x0 REVERT JUMPDEST POP POP POP POP PUSH1 0x40 MLOAD RETURNDATASIZE PUSH1 0x1F NOT PUSH1 0x1F DUP3 ADD AND DUP3 ADD DUP1 PUSH1 0x40 MSTORE POP DUP2 ADD SWAP1 PUSH2 0x135E SWAP2 SWAP1 PUSH2 0x1614 JUMP JUMPDEST DUP3 GT ISZERO JUMPDEST PUSH2 0x139E JUMPI PUSH1 0x40 MLOAD PUSH3 0x461BCD PUSH1 0xE5 SHL DUP2 MSTORE PUSH1 0x20 PUSH1 0x4 DUP3 ADD MSTORE PUSH1 0xD PUSH1 0x24 DUP3 ADD MSTORE PUSH13 0x34B73B30B634B210333637B7B9 PUSH1 0x99 SHL PUSH1 0x44 DUP3 ADD MSTORE PUSH1 0x64 ADD PUSH2 0x40C JUMP JUMPDEST PUSH1 0x0 PUSH2 0x13A8 PUSH2 0x606 JUMP JUMPDEST PUSH1 0x1 PUSH1 0x1 PUSH1 0x80 SHL SUB AND SWAP1 POP DUP1 ISZERO PUSH2 0x1450 JUMPI PUSH1 0x2 SLOAD PUSH1 0x40 MLOAD PUSH4 0x70A08231 PUSH1 0xE0 SHL DUP2 MSTORE ADDRESS PUSH1 0x4 DUP3 ADD MSTORE DUP3 SWAP2 PUSH1 0x1 PUSH1 0x1 PUSH1 0xA0 SHL SUB AND SWAP1 PUSH4 0x70A08231 SWAP1 PUSH1 0x24 ADD PUSH1 0x20 PUSH1 0x40 MLOAD DUP1 DUP4 SUB DUP2 DUP7 GAS STATICCALL ISZERO DUP1 ISZERO PUSH2 0x1401 JUMPI RETURNDATASIZE PUSH1 0x0 DUP1 RETURNDATACOPY RETURNDATASIZE PUSH1 0x0 REVERT JUMPDEST POP POP POP POP PUSH1 0x40 MLOAD RETURNDATASIZE PUSH1 0x1F NOT PUSH1 0x1F DUP3 ADD AND DUP3 ADD DUP1 PUSH1 0x40 MSTORE POP DUP2 ADD SWAP1 PUSH2 0x1425 SWAP2 SWAP1 PUSH2 0x1614 JUMP JUMPDEST PUSH2 0x142E DUP6 PUSH2 0xE07 JUMP JUMPDEST PUSH1 0x1 PUSH1 0x1 PUSH1 0x80 SHL SUB AND PUSH2 0x1441 SWAP2 SWAP1 PUSH2 0x1572 JUMP JUMPDEST PUSH2 0x144B SWAP2 SWAP1 PUSH2 0x1699 JUMP JUMPDEST PUSH2 0x1453 JUMP JUMPDEST PUSH1 0x0 JUMPDEST SWAP4 SWAP3 POP POP POP JUMP JUMPDEST PUSH1 0x0 PUSH1 0x20 DUP3 DUP5 SUB SLT ISZERO PUSH2 0x146C JUMPI PUSH1 0x0 DUP1 REVERT JUMPDEST DUP2 CALLDATALOAD PUSH8 0xFFFFFFFFFFFFFFFF DUP2 AND DUP2 EQ PUSH2 0x1453 JUMPI PUSH1 0x0 DUP1 REVERT JUMPDEST PUSH1 0x0 PUSH1 0x20 DUP3 DUP5 SUB SLT ISZERO PUSH2 0x1496 JUMPI PUSH1 0x0 DUP1 REVERT JUMPDEST POP CALLDATALOAD SWAP2 SWAP1 POP JUMP JUMPDEST PUSH1 0x0 PUSH1 0x20 DUP3 DUP5 SUB SLT ISZERO PUSH2 0x14AF JUMPI PUSH1 0x0 DUP1 REVERT JUMPDEST DUP2 CALLDATALOAD PUSH2 0xFFFF DUP2 AND DUP2 EQ PUSH2 0x1453 JUMPI PUSH1 0x0 DUP1 REVERT JUMPDEST PUSH1 0x1 PUSH1 0x1 PUSH1 0xA0 SHL SUB DUP2 AND DUP2 EQ PUSH2 0xF12 JUMPI PUSH1 0x0 DUP1 REVERT JUMPDEST PUSH1 0x0 PUSH1 0x20 DUP3 DUP5 SUB SLT ISZERO PUSH2 0x14E8 JUMPI PUSH1 0x0 DUP1 REVERT JUMPDEST DUP2 CALLDATALOAD PUSH2 0x1453 DUP2 PUSH2 0x14C1 JUMP JUMPDEST PUSH1 0x20 DUP1 DUP3 MSTORE DUP2 DUP2 ADD MSTORE PUSH32 0x4F776E61626C653A2063616C6C6572206973206E6F7420746865206F776E6572 PUSH1 0x40 DUP3 ADD MSTORE PUSH1 0x60 ADD SWAP1 JUMP JUMPDEST PUSH1 0x0 PUSH1 0x20 DUP3 DUP5 SUB SLT ISZERO PUSH2 0x153A JUMPI PUSH1 0x0 DUP1 REVERT JUMPDEST DUP2 MLOAD PUSH2 0x1453 DUP2 PUSH2 0x14C1 JUMP JUMPDEST PUSH4 0x4E487B71 PUSH1 0xE0 SHL PUSH1 0x0 MSTORE PUSH1 0x11 PUSH1 0x4 MSTORE PUSH1 0x24 PUSH1 0x0 REVERT JUMPDEST PUSH1 0x0 DUP3 DUP3 LT ISZERO PUSH2 0x156D JUMPI PUSH2 0x156D PUSH2 0x1545 JUMP JUMPDEST POP SUB SWAP1 JUMP JUMPDEST PUSH1 0x0 DUP2 PUSH1 0x0 NOT DIV DUP4 GT DUP3 ISZERO ISZERO AND ISZERO PUSH2 0x158C JUMPI PUSH2 0x158C PUSH2 0x1545 JUMP JUMPDEST POP MUL SWAP1 JUMP JUMPDEST PUSH1 0x0 DUP3 NOT DUP3 GT ISZERO PUSH2 0x15A4 JUMPI PUSH2 0x15A4 PUSH2 0x1545 JUMP JUMPDEST POP ADD SWAP1 JUMP JUMPDEST PUSH1 0x0 PUSH1 0x20 DUP3 DUP5 SUB SLT ISZERO PUSH2 0x15BB JUMPI PUSH1 0x0 DUP1 REVERT JUMPDEST DUP2 MLOAD DUP1 ISZERO ISZERO DUP2 EQ PUSH2 0x1453 JUMPI PUSH1 0x0 DUP1 REVERT JUMPDEST PUSH1 0x0 PUSH2 0xFFFF DUP1 DUP4 AND DUP2 DUP6 AND DUP1 DUP4 SUB DUP3 GT ISZERO PUSH2 0x15E8 JUMPI PUSH2 0x15E8 PUSH2 0x1545 JUMP JUMPDEST ADD SWAP5 SWAP4 POP POP POP POP JUMP JUMPDEST PUSH1 0x0 PUSH2 0xFFFF DUP4 DUP2 AND SWAP1 DUP4 AND DUP2 DUP2 LT ISZERO PUSH2 0x160C JUMPI PUSH2 0x160C PUSH2 0x1545 JUMP JUMPDEST SUB SWAP4 SWAP3 POP POP POP JUMP JUMPDEST PUSH1 0x0 PUSH1 0x20 DUP3 DUP5 SUB SLT ISZERO PUSH2 0x1626 JUMPI PUSH1 0x0 DUP1 REVERT JUMPDEST POP MLOAD SWAP2 SWAP1 POP JUMP JUMPDEST PUSH1 0x20 DUP1 DUP3 MSTORE PUSH1 0x2C SWAP1 DUP3 ADD MSTORE PUSH32 0x556E61626C6520746F207472616E7366657220746F6B656E206261636B20746F PUSH1 0x40 DUP3 ADD MSTORE PUSH12 0x81D1A19481858D8DBDD5B9D PUSH1 0xA2 SHL PUSH1 0x60 DUP3 ADD MSTORE PUSH1 0x80 ADD SWAP1 JUMP JUMPDEST PUSH1 0x0 PUSH1 0x1 PUSH1 0x1 PUSH1 0x80 SHL SUB DUP4 DUP2 AND SWAP1 DUP4 AND DUP2 DUP2 LT ISZERO PUSH2 0x160C JUMPI PUSH2 0x160C PUSH2 0x1545 JUMP JUMPDEST PUSH1 0x0 DUP3 PUSH2 0x16B6 JUMPI PUSH4 0x4E487B71 PUSH1 0xE0 SHL PUSH1 0x0 MSTORE PUSH1 0x12 PUSH1 0x4 MSTORE PUSH1 0x24 PUSH1 0x0 REVERT JUMPDEST POP DIV SWAP1 JUMP INVALID LOG2 PUSH5 0x6970667358 0x22 SLT KECCAK256 0xCD 0x4D 0xA6 GT PUSH27 0xA368CF7DB4568D804A67D4BE7CB1EC17567D0A0A75A3C995066687 PUSH5 0x736F6C6343 STOP ADDMOD 0xF STOP CALLER ",
  "sha1": "d04156fcc067912d5658f3a641bcc3afef74324f",
  "source": "pragma solidity 0.8.15;\n// SPDX-License-Identifier: UNLICENSED\n//pragma solidity ^0.8.0;\n\nimport '../contracts/helpers/Ownable.sol';\nimport '../contracts/helpers/ReentrancyGuard.sol';\nimport '../contracts/interfaces/IERC20.sol';\nimport '../contracts/interfaces/IERC721.sol';\nimport '../contracts/wizards.sol';\n//import \"../contracts/libraries/PRBMathSD59x18Typed.sol\";\n\n\n// todo -- we can drop the idea of floors and just have wizards in the tower, since all \"floors\" are now equal\n\ncontract WizardTower is ReentrancyGuard, Ownable {\n    IERC20 public token; // Address of token contract and same used for rewards\n    Wizards public wizardsNFT;\n\n    uint128 public totalPowerSnapshot;\n    uint40 public totalPowerSnapshotTimestamp;\n    address public evictionProceedsReceiver; // Address to manage the Stake\n\n//    enum Wizards.ELEMENT {FIRE, WIND, WATER, EARTH}\n\n\n    struct ContractSettings {\n        uint16 activeFloors;\n        uint40 startTimestamp;\n        uint16 floorCap;\n        uint64 dustThreshold; // min ecosystem tokens to do certain actions like auto withdraw\n        address evictionProceedsReceiver; // Address to manage the Stake\n    }\n    ContractSettings public contractSettings;\n\n\n    // todo -- combine mappings\n    struct FloorInfo {\n        uint40 lastWithdrawalTimestamp;\n//        uint16 occupyingWizardId;\n    }\n\n    mapping (uint256 => FloorInfo ) public wizardIdToFloorInfo; // floor 0 DNE\n\n\n    // Events\n    event DrainTower(address indexed owner, uint256 amount);\n    event Withdraw(address indexed staker, uint256 totalAmount);\n    event NewEvictionProceedsReceiver(address evictionProceedsReceiver);\n    event FloorClaimed(address claimer, uint256 indexed wizardId);\n    event NewFloorCap(uint16 floorCap);\n    event NewDustThreshold(uint64 dustThreshold);\n    event WizardEvicted(uint256 wizardId);\n\n    ////////////////////\n    ////    Get       //\n    ////////////////////\n\n    function isOnTheTower(uint256 _wizardId) public view returns(bool) {\n        require(_wizardId !=0 && _wizardId <= wizardsNFT.totalSupply(), \"invalid wizard\");\n        return wizardIdToFloorInfo[_wizardId].lastWithdrawalTimestamp != 0;\n    }\n\n    function getFloorInfoGivenWizard(uint256 _wizardId) external view returns(FloorInfo memory) {\n        require(_wizardId>0 && _wizardId < contractSettings.activeFloors + 1, \"invalid number\");\n        return wizardIdToFloorInfo[_wizardId];\n    }\n\n    function floorBalance(uint256 _floor) public view returns(uint256) {\n        return _floorBalance(_floor);\n    }\n\n    function _floorBalance(uint256 _floor) internal view returns(uint256) {\n//        require(isOnTheTower(_floor), \"invalid floor or no occupant\");\n        require(_floor !=0 && _floor <= wizardsNFT.totalSupply(), \"invalid floor\"); // wizardId and floor are interchangeable\n        uint256 _totalFloorPower = totalFloorPower();\n        return _totalFloorPower == 0 ? 0 : floorPower(_floor) * token.balanceOf((address(this))) / _totalFloorPower;\n    }\n\n    //////////////\n    ////  Core  //\n    //////////////\n\n    constructor(address _token, address _wizardsNFTAddress)\n    {\n        token = IERC20(_token);\n        wizardsNFT = Wizards(_wizardsNFTAddress);\n        totalPowerSnapshotTimestamp = uint40(block.timestamp);\n        contractSettings.evictionProceedsReceiver = msg.sender;\n        contractSettings.startTimestamp = totalPowerSnapshotTimestamp;\n        contractSettings.floorCap = 10000;\n        contractSettings.dustThreshold = uint64(10**16);\n    }\n\n    // For migration\n    function drainTower() external onlyOwner {\n        uint256 balance = token.balanceOf(address(this));\n        require(token.transfer(msg.sender, balance), \"Unable to transfer token back to the account\");\n        emit DrainTower(msg.sender, balance);\n    }\n\n    // claim floor for wizard. Returns floor on.\n    function claimFloor(uint256 _wizardId) external {\n        require(wizardsNFT.isMature(_wizardId) && wizardsNFT.ownerOf(_wizardId)==msg.sender, \"must own mature wizardsNFT\");\n        require(wizardIdToFloorInfo[_wizardId].lastWithdrawalTimestamp == 0, \"already claimed\");\n        require(contractSettings.activeFloors < contractSettings.floorCap, \"tower at max capacity\");\n        contractSettings.activeFloors += 1;\n//        FloorInfo memory floorInfo;\n//        floorInfo.lastWithdrawalTimestamp = uint40(block.timestamp);\n//        wizardIdToFloorInfo[_wizardId] = floorInfo;\n        wizardIdToFloorInfo[_wizardId].lastWithdrawalTimestamp = uint40(block.timestamp);\n        _updateTotalPowerSnapshot(0);\n        emit FloorClaimed(msg.sender, _wizardId);\n    }\n\n    function evict(uint256 _wizardId) external onlyOwner returns(uint256) {\n        require(isOnTheTower(_wizardId), \"not on tower\");\n        uint256 bal = _floorBalance(_wizardId);\n        // todo -- we could have some amount be sent to DAO, some absorbed by all other wizards on tower\n        if (bal > contractSettings.dustThreshold) {\n            _withdraw(_wizardId, contractSettings.evictionProceedsReceiver);\n        }\n        else {\n            // dust will be absorbed by all other users\n            _updateTotalPowerSnapshot(floorPower(_wizardId));\n        }\n\n        delete wizardIdToFloorInfo[_wizardId];\n        contractSettings.activeFloors -= 1;\n        emit WizardEvicted(_wizardId);\n        return bal;\n    }\n\n\n    function floorPower(uint256 _floor) public view returns(uint128) {\n        require(isOnTheTower(_floor)); // floor is same as wizardId\n        FloorInfo memory floorInfo = wizardIdToFloorInfo[_floor]; // wizard id is same as floor id\n        uint256 timestamp = floorInfo.lastWithdrawalTimestamp == 0 ? contractSettings.startTimestamp : floorInfo.lastWithdrawalTimestamp;\n        return uint128(block.timestamp - timestamp);\n    }\n\n    function totalFloorPower() public view returns(uint128) {\n        return uint128(totalPowerSnapshot + (block.timestamp - totalPowerSnapshotTimestamp) * contractSettings.activeFloors);\n    }\n\n    // called when adding/removing floors or withdrawing\n    function _updateTotalPowerSnapshot(uint128 _powerRemoved) internal  {\n        totalPowerSnapshot = uint128(totalFloorPower() - _powerRemoved);\n        totalPowerSnapshotTimestamp = uint40(block.timestamp);\n    }\n\n    function withdraw(uint256 _wizardId) external nonReentrant {\n        // require owner owns wizardsNFT on that floor\n        require(wizardsNFT.ownerOf(_wizardId) == tx.origin, \"You do not own the wizard there.\"); // todo -- confirm tx.origin is ok\n        _withdraw(_wizardId, tx.origin);\n    }\n\n    function _withdraw(uint256 _floor, address recipient) internal {\n        require(isOnTheTower(_floor)); // floor is same as wizardId\n        uint256 amountToWithdraw = _floorBalance(_floor);\n        require(amountToWithdraw!=0, \"nothing to withdraw\");\n        uint128 myPower = floorPower(_floor);\n        // Check for balance in the contract\n        require(token.balanceOf(address(this)) >= amountToWithdraw, \"Not enough balance in the contract\");\n\n        // Update timestamp\n        wizardIdToFloorInfo[_floor].lastWithdrawalTimestamp = uint40(block.timestamp);\n\n        // Call the transfer function\n        require(token.transfer(recipient, amountToWithdraw), \"Unable to transfer token back to the account\");\n\n        // reduce total power by the power removed\n        _updateTotalPowerSnapshot(myPower);\n\n        emit Withdraw(recipient, amountToWithdraw);\n    }\n\n    /** @dev update address that receives funds from eviction\n      * @param _evictionProceedsReceiver new address for culler, the wallet/contract which can exile wizards without contraint\n      */\n    function updateEvictionProceedsReceiver(address _evictionProceedsReceiver) external onlyOwner {\n        require(_evictionProceedsReceiver != address(0) && _evictionProceedsReceiver != contractSettings.evictionProceedsReceiver, \"Invalid operator address\");\n        contractSettings.evictionProceedsReceiver = _evictionProceedsReceiver;\n        emit NewEvictionProceedsReceiver(_evictionProceedsReceiver);\n    }\n\n    /** @dev update max amount of occupants on tower\n      * @param _floorCap max amount of occupants\n      */\n    function updateFloorCap(uint16 _floorCap) external onlyOwner {\n        require(_floorCap != contractSettings.floorCap, \"same cap\");\n        contractSettings.floorCap = _floorCap;\n        emit NewFloorCap(_floorCap);\n    }\n\n    /** @dev update min token amount to transfer to EvictionProceedsReceiver\n      * @param _dustThreshold max amount of occupants\n      */\n    function updateDustThreshold(uint64 _dustThreshold) external onlyOwner {\n        require(_dustThreshold != contractSettings.dustThreshold, \"same dust threshold\");\n        contractSettings.dustThreshold = _dustThreshold;\n        emit NewDustThreshold(_dustThreshold);\n    }\n\n}",
  "sourcePath": "contracts/WizardTower.sol",
  "type": "contract"
}