{
  "abi": [
    {
      "inputs": [
        {
          "internalType": "address",
          "name": "_nft",
          "type": "address"
        }
      ],
      "stateMutability": "nonpayable",
      "type": "constructor"
    },
    {
      "anonymous": false,
      "inputs": [
        {
          "indexed": true,
          "internalType": "address",
          "name": "previousOwner",
          "type": "address"
        },
        {
          "indexed": true,
          "internalType": "address",
          "name": "newOwner",
          "type": "address"
        }
      ],
      "name": "OwnershipTransferred",
      "type": "event"
    },
    {
      "inputs": [
        {
          "internalType": "string",
          "name": "_IPFSHash",
          "type": "string"
        },
        {
          "internalType": "uint16",
          "name": "_numberOfOptions",
          "type": "uint16"
        },
        {
          "internalType": "uint40",
          "name": "_begTimestamp",
          "type": "uint40"
        },
        {
          "internalType": "uint40",
          "name": "_endTimestamp",
          "type": "uint40"
        }
      ],
      "name": "createProposal",
      "outputs": [],
      "stateMutability": "nonpayable",
      "type": "function"
    },
    {
      "inputs": [
        {
          "internalType": "string",
          "name": "_IPFSHash",
          "type": "string"
        },
        {
          "internalType": "uint40",
          "name": "_begTimestamp",
          "type": "uint40"
        },
        {
          "internalType": "uint40",
          "name": "_endTimestamp",
          "type": "uint40"
        }
      ],
      "name": "createTaskType",
      "outputs": [],
      "stateMutability": "nonpayable",
      "type": "function"
    },
    {
      "inputs": [],
      "name": "getMyAvailableTaskTypes",
      "outputs": [
        {
          "internalType": "string[]",
          "name": "",
          "type": "string[]"
        }
      ],
      "stateMutability": "view",
      "type": "function"
    },
    {
      "inputs": [
        {
          "internalType": "uint256",
          "name": "proposalID",
          "type": "uint256"
        }
      ],
      "name": "getVotes",
      "outputs": [
        {
          "internalType": "uint16[]",
          "name": "",
          "type": "uint16[]"
        }
      ],
      "stateMutability": "view",
      "type": "function"
    },
    {
      "inputs": [
        {
          "internalType": "uint256",
          "name": "proposalID",
          "type": "uint256"
        }
      ],
      "name": "getWinningVote",
      "outputs": [
        {
          "internalType": "uint256",
          "name": "",
          "type": "uint256"
        }
      ],
      "stateMutability": "view",
      "type": "function"
    },
    {
      "inputs": [],
      "name": "owner",
      "outputs": [
        {
          "internalType": "address",
          "name": "",
          "type": "address"
        }
      ],
      "stateMutability": "view",
      "type": "function"
    },
    {
      "inputs": [
        {
          "internalType": "uint256",
          "name": "",
          "type": "uint256"
        },
        {
          "internalType": "uint256",
          "name": "",
          "type": "uint256"
        }
      ],
      "name": "proposalToNFTVotes",
      "outputs": [
        {
          "internalType": "uint256",
          "name": "",
          "type": "uint256"
        }
      ],
      "stateMutability": "view",
      "type": "function"
    },
    {
      "inputs": [
        {
          "internalType": "uint256",
          "name": "",
          "type": "uint256"
        }
      ],
      "name": "proposals",
      "outputs": [
        {
          "internalType": "string",
          "name": "IPFSHash",
          "type": "string"
        },
        {
          "internalType": "uint16",
          "name": "numberOfOptions",
          "type": "uint16"
        },
        {
          "internalType": "uint40",
          "name": "totalVotes",
          "type": "uint40"
        },
        {
          "internalType": "uint40",
          "name": "begTimestamp",
          "type": "uint40"
        },
        {
          "internalType": "uint40",
          "name": "endTimestamp",
          "type": "uint40"
        }
      ],
      "stateMutability": "view",
      "type": "function"
    },
    {
      "inputs": [],
      "name": "renounceOwnership",
      "outputs": [],
      "stateMutability": "nonpayable",
      "type": "function"
    },
    {
      "inputs": [
        {
          "internalType": "address",
          "name": "_addy",
          "type": "address"
        }
      ],
      "name": "setNFTAddress",
      "outputs": [],
      "stateMutability": "nonpayable",
      "type": "function"
    },
    {
      "inputs": [
        {
          "internalType": "uint256",
          "name": "",
          "type": "uint256"
        }
      ],
      "name": "taskTypes",
      "outputs": [
        {
          "internalType": "string",
          "name": "IPFSHash",
          "type": "string"
        },
        {
          "internalType": "bool",
          "name": "paused",
          "type": "bool"
        },
        {
          "internalType": "uint40",
          "name": "proposalID",
          "type": "uint40"
        },
        {
          "internalType": "uint40",
          "name": "begTimestamp",
          "type": "uint40"
        },
        {
          "internalType": "uint40",
          "name": "endTimestamp",
          "type": "uint40"
        }
      ],
      "stateMutability": "view",
      "type": "function"
    },
    {
      "inputs": [
        {
          "internalType": "uint256",
          "name": "",
          "type": "uint256"
        }
      ],
      "name": "tasks",
      "outputs": [
        {
          "internalType": "string",
          "name": "IPFSHash",
          "type": "string"
        },
        {
          "internalType": "uint40",
          "name": "NFTID",
          "type": "uint40"
        },
        {
          "internalType": "bytes32",
          "name": "hash",
          "type": "bytes32"
        },
        {
          "internalType": "uint8",
          "name": "numFieldsToHash",
          "type": "uint8"
        },
        {
          "internalType": "uint24",
          "name": "timeBonus",
          "type": "uint24"
        }
      ],
      "stateMutability": "view",
      "type": "function"
    },
    {
      "inputs": [
        {
          "internalType": "address",
          "name": "newOwner",
          "type": "address"
        }
      ],
      "name": "transferOwnership",
      "outputs": [],
      "stateMutability": "nonpayable",
      "type": "function"
    },
    {
      "inputs": [
        {
          "internalType": "uint256",
          "name": "proposalID",
          "type": "uint256"
        },
        {
          "internalType": "uint256",
          "name": "NFTID",
          "type": "uint256"
        },
        {
          "internalType": "uint256",
          "name": "_vote",
          "type": "uint256"
        }
      ],
      "name": "vote",
      "outputs": [],
      "stateMutability": "nonpayable",
      "type": "function"
    },
    {
      "stateMutability": "payable",
      "type": "receive"
    }
  ],
  "bytecode": "608060405234801561001057600080fd5b5060405161157b38038061157b83398101604081905261002f916100b4565b600160005561003d33610062565b600280546001600160a01b0319166001600160a01b03929092169190911790556100e4565b600180546001600160a01b038381166001600160a01b0319831681179093556040519116919082907f8be0079c531659141344cd1fd0a4f28419497f9722a3daafe3b4186f6b6457e090600090a35050565b6000602082840312156100c657600080fd5b81516001600160a01b03811681146100dd57600080fd5b9392505050565b611488806100f36000396000f3fe6080604052600436106100e15760003560e01c80637c7c7e5a1161007f5780638d977672116100595780638d977672146102775780638da5cb5b146102a8578063f2fde38b146102d0578063ff981099146102f057600080fd5b80637c7c7e5a14610217578063826b8ebd146102375780638a6655d61461025757600080fd5b80636215597b116100bb5780636215597b1461017a57806364d924ef146101c057806369d03738146101e2578063715018a61461020257600080fd5b8063013cf08b146100ed57806310190ef114610127578063551bbe0b1461015857600080fd5b366100e857005b600080fd5b3480156100f957600080fd5b5061010d610108366004610fc6565b61031d565b60405161011e95949392919061102c565b60405180910390f35b34801561013357600080fd5b50610147610142366004610fc6565b6103e9565b60405161011e959493929190611070565b34801561016457600080fd5b5061016d6104cb565b60405161011e91906110b0565b34801561018657600080fd5b506101b2610195366004611112565b600360209081526000928352604080842090915290825290205481565b60405190815260200161011e565b3480156101cc57600080fd5b506101e06101db366004611197565b610799565b005b3480156101ee57600080fd5b506101e06101fd36600461122a565b6108b5565b34801561020e57600080fd5b506101e0610901565b34801561022357600080fd5b506101e061023236600461124e565b610937565b34801561024357600080fd5b506101b2610252366004610fc6565b61094b565b34801561026357600080fd5b506101e06102723660046112b3565b610b5a565b34801561028357600080fd5b50610297610292366004610fc6565b610b93565b60405161011e9594939291906112df565b3480156102b457600080fd5b506001546040516001600160a01b03909116815260200161011e565b3480156102dc57600080fd5b506101e06102eb36600461122a565b610c74565b3480156102fc57600080fd5b5061031061030b366004610fc6565b610d0f565b60405161011e9190611325565b6006602052600090815260409020805481906103389061136d565b80601f01602080910402602001604051908101604052809291908181526020018280546103649061136d565b80156103b15780601f10610386576101008083540402835291602001916103b1565b820191906000526020600020905b81548152906001019060200180831161039457829003601f168201915b505050506001830154600390930154919261ffff169164ffffffffff8082169250650100000000008204811691600160501b90041685565b600481815481106103f957600080fd5b906000526020600020906003020160009150905080600101805461041c9061136d565b80601f01602080910402602001604051908101604052809291908181526020018280546104489061136d565b80156104955780601f1061046a57610100808354040283529160200191610495565b820191906000526020600020905b81548152906001019060200180831161047857829003601f168201915b5050506002909301549192505060ff81169064ffffffffff6101008204811691600160301b8104821691600160581b9091041685565b60606000805b6004548110156105985742600482815481106104ef576104ef6113a8565b60009182526020808320338452600390920290910190526040902054101561051c57816001019150610590565b604080516001808252818301909252600091816020015b606081526020019060019003908161053357905050905060405180604001604052806008815260200167273790363ab1b59760c11b8152508160008151811061057e5761057e6113a8565b60209081029190910101529392505050565b6001016104d1565b5060008167ffffffffffffffff8111156105b4576105b46113be565b6040519080825280602002602001820160405280156105e757816020015b60608152602001906001900390816105d25790505b5090506000805b60045481101561079057426004828154811061060c5761060c6113a8565b6000918252602080832033845260039092029091019052604090205410801561066857504260048281548110610644576106446113a8565b6000918252602090912060039091020160020154600160301b900464ffffffffff16105b80156106a757504260048281548110610683576106836113a8565b6000918252602090912060039091020160020154600160581b900464ffffffffff16115b1561078857600481815481106106bf576106bf6113a8565b906000526020600020906003020160010180546106db9061136d565b80601f01602080910402602001604051908101604052809291908181526020018280546107079061136d565b80156107545780601f1061072957610100808354040283529160200191610754565b820191906000526020600020905b81548152906001019060200180831161073757829003601f168201915b505050505083828151811061076b5761076b6113a8565b602002602001018190525081600101915083821061078857610790565b6001016105ee565b50909392505050565b6107a7565b60405180910390fd5b60018361ffff161180156107c057506101018361ffff16105b61080c5760405162461bcd60e51b815260206004820152601960248201527f696e76616c6964206e756d626572206f66206f7074696f6e7300000000000000604482015260640161079e565b60016007600082825461081f91906113ea565b909155505060075460009081526006602052604090206003810180546effffffffffffffffffff000000000019166501000000000064ffffffffff8681169190910264ffffffffff60501b191691909117600160501b9185169190910217905560018101805461ffff191661ffff861617905561089d818787610f2d565b506108ad86866007548686610e35565b505050505050565b6001546001600160a01b031633146108df5760405162461bcd60e51b815260040161079e90611402565b600280546001600160a01b0319166001600160a01b0392909216919091179055565b6001546001600160a01b0316331461092b5760405162461bcd60e51b815260040161079e90611402565b6109356000610edb565b565b610945848460008585610e35565b50505050565b600060075482106109915760405162461bcd60e51b815260206004820152601060248201526f1b9bc81cdd58da081c1c9bdc1bdcd85b60821b604482015260640161079e565b600082815260066020526040902060030154600160501b900464ffffffffff1642116109f55760405162461bcd60e51b8152602060048201526013602482015272766f74696e67207374696c6c2061637469766560681b604482015260640161079e565b6000806000805b60008681526006602052604090206001015461ffff16811015610b1857600086815260066020526040902083906002018260088110610a3d57610a3d6113a8565b601091828204019190066002029054906101000a900461ffff1661ffff161115610ab95760008681526006602052604090206002018160088110610a8357610a836113a8565b601091828204019190066002029054906101000a900461ffff1661ffff1692508093508160011415610ab457600091505b610b06565b600086815260066020526040902083906002018260088110610add57610add6113a8565b601091828204019190066002029054906101000a900461ffff1661ffff161415610b0657600191505b80610b1081611437565b9150506109fc565b5080156107905760405162461bcd60e51b815260206004820152601060248201526f3a3432b932903bb0b99030903a34b29760811b604482015260640161079e565b60405162461bcd60e51b815260206004820152600e60248201526d26bab9ba1031329036b2b6b132b960911b604482015260640161079e565b60058181548110610ba357600080fd5b9060005260206000209060040201600091509050806000018054610bc69061136d565b80601f0160208091040260200160405190810160405280929190818152602001828054610bf29061136d565b8015610c3f5780601f10610c1457610100808354040283529160200191610c3f565b820191906000526020600020905b815481529060010190602001808311610c2257829003601f168201915b5050505060018301546002840154600390940154929364ffffffffff9091169290915060ff811690610100900462ffffff1685565b6001546001600160a01b03163314610c9e5760405162461bcd60e51b815260040161079e90611402565b6001600160a01b038116610d035760405162461bcd60e51b815260206004820152602660248201527f4f776e61626c653a206e6577206f776e657220697320746865207a65726f206160448201526564647265737360d01b606482015260840161079e565b610d0c81610edb565b50565b60606007548210610d555760405162461bcd60e51b815260206004820152601060248201526f1b9bc81cdd58da081c1c9bdc1bdcd85b60821b604482015260640161079e565b60008281526006602052604081206001015461ffff1667ffffffffffffffff811115610d8357610d836113be565b604051908082528060200260200182016040528015610dac578160200160208202803683370190505b50905060005b8151811015610e2e5760008481526006602052604090206002018160088110610ddd57610ddd6113a8565b601091828204019190066002029054906101000a900461ffff16828281518110610e0957610e096113a8565b61ffff9092166020928302919091019091015280610e2681611437565b915050610db2565b5092915050565b6004805460018101808355600083815291929083908110610e5857610e586113a8565b600091825260209091206003909102019050610e78600182018888610f2d565b50600201805464ffffffffff938416600160581b0264ffffffffff60581b19958516600160301b026affffffffff000000000000199590971661010002949094166affffffffffffffffffffff1990911617949094179290921617909155505050565b600180546001600160a01b038381166001600160a01b0319831681179093556040519116919082907f8be0079c531659141344cd1fd0a4f28419497f9722a3daafe3b4186f6b6457e090600090a35050565b828054610f399061136d565b90600052602060002090601f016020900481019282610f5b5760008555610fa1565b82601f10610f745782800160ff19823516178555610fa1565b82800160010185558215610fa1579182015b82811115610fa1578235825591602001919060010190610f86565b50610fad929150610fb1565b5090565b5b80821115610fad5760008155600101610fb2565b600060208284031215610fd857600080fd5b5035919050565b6000815180845260005b8181101561100557602081850181015186830182015201610fe9565b81811115611017576000602083870101525b50601f01601f19169290920160200192915050565b60a08152600061103f60a0830188610fdf565b61ffff9690961660208301525064ffffffffff93841660408201529183166060830152909116608090910152919050565b60a08152600061108360a0830188610fdf565b95151560208301525064ffffffffff93841660408201529183166060830152909116608090910152919050565b6000602080830181845280855180835260408601915060408160051b870101925083870160005b8281101561110557603f198886030184526110f3858351610fdf565b945092850192908501906001016110d7565b5092979650505050505050565b6000806040838503121561112557600080fd5b50508035926020909101359150565b60008083601f84011261114657600080fd5b50813567ffffffffffffffff81111561115e57600080fd5b60208301915083602082850101111561117657600080fd5b9250929050565b803564ffffffffff8116811461119257600080fd5b919050565b6000806000806000608086880312156111af57600080fd5b853567ffffffffffffffff8111156111c657600080fd5b6111d288828901611134565b909650945050602086013561ffff811681146111ed57600080fd5b92506111fb6040870161117d565b91506112096060870161117d565b90509295509295909350565b6001600160a01b0381168114610d0c57600080fd5b60006020828403121561123c57600080fd5b813561124781611215565b9392505050565b6000806000806060858703121561126457600080fd5b843567ffffffffffffffff81111561127b57600080fd5b61128787828801611134565b909550935061129a90506020860161117d565b91506112a86040860161117d565b905092959194509250565b6000806000606084860312156112c857600080fd5b505081359360208301359350604090920135919050565b60a0815260006112f260a0830188610fdf565b905064ffffffffff8616602083015284604083015260ff8416606083015262ffffff831660808301529695505050505050565b6020808252825182820181905260009190848201906040850190845b8181101561136157835161ffff1683529284019291840191600101611341565b50909695505050505050565b600181811c9082168061138157607f821691505b602082108114156113a257634e487b7160e01b600052602260045260246000fd5b50919050565b634e487b7160e01b600052603260045260246000fd5b634e487b7160e01b600052604160045260246000fd5b634e487b7160e01b600052601160045260246000fd5b600082198211156113fd576113fd6113d4565b500190565b6020808252818101527f4f776e61626c653a2063616c6c6572206973206e6f7420746865206f776e6572604082015260600190565b600060001982141561144b5761144b6113d4565b506001019056fea2646970667358221220e8e7c9fbcbaffce8d7bc516232a382abfa7916bd801a012ccf80093bc59c388e64736f6c634300080c0033",
  "bytecodeSha1": "54a5a4eaadb9002a768b9cb27a1711e2f698055f",
  "compiler": {
    "evm_version": "istanbul",
    "optimizer": {
      "enabled": true,
      "runs": 200
    },
    "version": "0.8.12+commit.f00d7308"
  },
  "contractName": "Governance",
  "language": "Solidity",
  "natspec": {
    "kind": "dev",
    "methods": {
      "constructor": {
        "details": "Constructor for HOADAO",
        "params": {
          "_nft": "-- contract address for NFTs"
        }
      },
      "owner()": {
        "details": "Returns the address of the current owner."
      },
      "renounceOwnership()": {
        "details": "Leaves the contract without owner. It will not be possible to call `onlyOwner` functions anymore. Can only be called by the current owner. NOTE: Renouncing ownership will leave the contract without an owner, thereby removing any functionality that is only available to the owner."
      },
      "transferOwnership(address)": {
        "details": "Transfers ownership of the contract to a new account (`newOwner`). Can only be called by the current owner."
      }
    },
    "version": 1
  },
  "opcodes": "PUSH1 0x80 PUSH1 0x40 MSTORE PUSH1 0x4 CALLDATASIZE LT PUSH2 0xE1 JUMPI PUSH1 0x0 CALLDATALOAD PUSH1 0xE0 SHR DUP1 PUSH4 0x7C7C7E5A GT PUSH2 0x7F JUMPI DUP1 PUSH4 0x8D977672 GT PUSH2 0x59 JUMPI DUP1 PUSH4 0x8D977672 EQ PUSH2 0x277 JUMPI DUP1 PUSH4 0x8DA5CB5B EQ PUSH2 0x2A8 JUMPI DUP1 PUSH4 0xF2FDE38B EQ PUSH2 0x2D0 JUMPI DUP1 PUSH4 0xFF981099 EQ PUSH2 0x2F0 JUMPI PUSH1 0x0 DUP1 REVERT JUMPDEST DUP1 PUSH4 0x7C7C7E5A EQ PUSH2 0x217 JUMPI DUP1 PUSH4 0x826B8EBD EQ PUSH2 0x237 JUMPI DUP1 PUSH4 0x8A6655D6 EQ PUSH2 0x257 JUMPI PUSH1 0x0 DUP1 REVERT JUMPDEST DUP1 PUSH4 0x6215597B GT PUSH2 0xBB JUMPI DUP1 PUSH4 0x6215597B EQ PUSH2 0x17A JUMPI DUP1 PUSH4 0x64D924EF EQ PUSH2 0x1C0 JUMPI DUP1 PUSH4 0x69D03738 EQ PUSH2 0x1E2 JUMPI DUP1 PUSH4 0x715018A6 EQ PUSH2 0x202 JUMPI PUSH1 0x0 DUP1 REVERT JUMPDEST DUP1 PUSH4 0x13CF08B EQ PUSH2 0xED JUMPI DUP1 PUSH4 0x10190EF1 EQ PUSH2 0x127 JUMPI DUP1 PUSH4 0x551BBE0B EQ PUSH2 0x158 JUMPI PUSH1 0x0 DUP1 REVERT JUMPDEST CALLDATASIZE PUSH2 0xE8 JUMPI STOP JUMPDEST PUSH1 0x0 DUP1 REVERT JUMPDEST CALLVALUE DUP1 ISZERO PUSH2 0xF9 JUMPI PUSH1 0x0 DUP1 REVERT JUMPDEST POP PUSH2 0x10D PUSH2 0x108 CALLDATASIZE PUSH1 0x4 PUSH2 0xFC6 JUMP JUMPDEST PUSH2 0x31D JUMP JUMPDEST PUSH1 0x40 MLOAD PUSH2 0x11E SWAP6 SWAP5 SWAP4 SWAP3 SWAP2 SWAP1 PUSH2 0x102C JUMP JUMPDEST PUSH1 0x40 MLOAD DUP1 SWAP2 SUB SWAP1 RETURN JUMPDEST CALLVALUE DUP1 ISZERO PUSH2 0x133 JUMPI PUSH1 0x0 DUP1 REVERT JUMPDEST POP PUSH2 0x147 PUSH2 0x142 CALLDATASIZE PUSH1 0x4 PUSH2 0xFC6 JUMP JUMPDEST PUSH2 0x3E9 JUMP JUMPDEST PUSH1 0x40 MLOAD PUSH2 0x11E SWAP6 SWAP5 SWAP4 SWAP3 SWAP2 SWAP1 PUSH2 0x1070 JUMP JUMPDEST CALLVALUE DUP1 ISZERO PUSH2 0x164 JUMPI PUSH1 0x0 DUP1 REVERT JUMPDEST POP PUSH2 0x16D PUSH2 0x4CB JUMP JUMPDEST PUSH1 0x40 MLOAD PUSH2 0x11E SWAP2 SWAP1 PUSH2 0x10B0 JUMP JUMPDEST CALLVALUE DUP1 ISZERO PUSH2 0x186 JUMPI PUSH1 0x0 DUP1 REVERT JUMPDEST POP PUSH2 0x1B2 PUSH2 0x195 CALLDATASIZE PUSH1 0x4 PUSH2 0x1112 JUMP JUMPDEST PUSH1 0x3 PUSH1 0x20 SWAP1 DUP2 MSTORE PUSH1 0x0 SWAP3 DUP4 MSTORE PUSH1 0x40 DUP1 DUP5 KECCAK256 SWAP1 SWAP2 MSTORE SWAP1 DUP3 MSTORE SWAP1 KECCAK256 SLOAD DUP2 JUMP JUMPDEST PUSH1 0x40 MLOAD SWAP1 DUP2 MSTORE PUSH1 0x20 ADD PUSH2 0x11E JUMP JUMPDEST CALLVALUE DUP1 ISZERO PUSH2 0x1CC JUMPI PUSH1 0x0 DUP1 REVERT JUMPDEST POP PUSH2 0x1E0 PUSH2 0x1DB CALLDATASIZE PUSH1 0x4 PUSH2 0x1197 JUMP JUMPDEST PUSH2 0x799 JUMP JUMPDEST STOP JUMPDEST CALLVALUE DUP1 ISZERO PUSH2 0x1EE JUMPI PUSH1 0x0 DUP1 REVERT JUMPDEST POP PUSH2 0x1E0 PUSH2 0x1FD CALLDATASIZE PUSH1 0x4 PUSH2 0x122A JUMP JUMPDEST PUSH2 0x8B5 JUMP JUMPDEST CALLVALUE DUP1 ISZERO PUSH2 0x20E JUMPI PUSH1 0x0 DUP1 REVERT JUMPDEST POP PUSH2 0x1E0 PUSH2 0x901 JUMP JUMPDEST CALLVALUE DUP1 ISZERO PUSH2 0x223 JUMPI PUSH1 0x0 DUP1 REVERT JUMPDEST POP PUSH2 0x1E0 PUSH2 0x232 CALLDATASIZE PUSH1 0x4 PUSH2 0x124E JUMP JUMPDEST PUSH2 0x937 JUMP JUMPDEST CALLVALUE DUP1 ISZERO PUSH2 0x243 JUMPI PUSH1 0x0 DUP1 REVERT JUMPDEST POP PUSH2 0x1B2 PUSH2 0x252 CALLDATASIZE PUSH1 0x4 PUSH2 0xFC6 JUMP JUMPDEST PUSH2 0x94B JUMP JUMPDEST CALLVALUE DUP1 ISZERO PUSH2 0x263 JUMPI PUSH1 0x0 DUP1 REVERT JUMPDEST POP PUSH2 0x1E0 PUSH2 0x272 CALLDATASIZE PUSH1 0x4 PUSH2 0x12B3 JUMP JUMPDEST PUSH2 0xB5A JUMP JUMPDEST CALLVALUE DUP1 ISZERO PUSH2 0x283 JUMPI PUSH1 0x0 DUP1 REVERT JUMPDEST POP PUSH2 0x297 PUSH2 0x292 CALLDATASIZE PUSH1 0x4 PUSH2 0xFC6 JUMP JUMPDEST PUSH2 0xB93 JUMP JUMPDEST PUSH1 0x40 MLOAD PUSH2 0x11E SWAP6 SWAP5 SWAP4 SWAP3 SWAP2 SWAP1 PUSH2 0x12DF JUMP JUMPDEST CALLVALUE DUP1 ISZERO PUSH2 0x2B4 JUMPI PUSH1 0x0 DUP1 REVERT JUMPDEST POP PUSH1 0x1 SLOAD PUSH1 0x40 MLOAD PUSH1 0x1 PUSH1 0x1 PUSH1 0xA0 SHL SUB SWAP1 SWAP2 AND DUP2 MSTORE PUSH1 0x20 ADD PUSH2 0x11E JUMP JUMPDEST CALLVALUE DUP1 ISZERO PUSH2 0x2DC JUMPI PUSH1 0x0 DUP1 REVERT JUMPDEST POP PUSH2 0x1E0 PUSH2 0x2EB CALLDATASIZE PUSH1 0x4 PUSH2 0x122A JUMP JUMPDEST PUSH2 0xC74 JUMP JUMPDEST CALLVALUE DUP1 ISZERO PUSH2 0x2FC JUMPI PUSH1 0x0 DUP1 REVERT JUMPDEST POP PUSH2 0x310 PUSH2 0x30B CALLDATASIZE PUSH1 0x4 PUSH2 0xFC6 JUMP JUMPDEST PUSH2 0xD0F JUMP JUMPDEST PUSH1 0x40 MLOAD PUSH2 0x11E SWAP2 SWAP1 PUSH2 0x1325 JUMP JUMPDEST PUSH1 0x6 PUSH1 0x20 MSTORE PUSH1 0x0 SWAP1 DUP2 MSTORE PUSH1 0x40 SWAP1 KECCAK256 DUP1 SLOAD DUP2 SWAP1 PUSH2 0x338 SWAP1 PUSH2 0x136D JUMP JUMPDEST DUP1 PUSH1 0x1F ADD PUSH1 0x20 DUP1 SWAP2 DIV MUL PUSH1 0x20 ADD PUSH1 0x40 MLOAD SWAP1 DUP2 ADD PUSH1 0x40 MSTORE DUP1 SWAP3 SWAP2 SWAP1 DUP2 DUP2 MSTORE PUSH1 0x20 ADD DUP3 DUP1 SLOAD PUSH2 0x364 SWAP1 PUSH2 0x136D JUMP JUMPDEST DUP1 ISZERO PUSH2 0x3B1 JUMPI DUP1 PUSH1 0x1F LT PUSH2 0x386 JUMPI PUSH2 0x100 DUP1 DUP4 SLOAD DIV MUL DUP4 MSTORE SWAP2 PUSH1 0x20 ADD SWAP2 PUSH2 0x3B1 JUMP JUMPDEST DUP3 ADD SWAP2 SWAP1 PUSH1 0x0 MSTORE PUSH1 0x20 PUSH1 0x0 KECCAK256 SWAP1 JUMPDEST DUP2 SLOAD DUP2 MSTORE SWAP1 PUSH1 0x1 ADD SWAP1 PUSH1 0x20 ADD DUP1 DUP4 GT PUSH2 0x394 JUMPI DUP3 SWAP1 SUB PUSH1 0x1F AND DUP3 ADD SWAP2 JUMPDEST POP POP POP POP PUSH1 0x1 DUP4 ADD SLOAD PUSH1 0x3 SWAP1 SWAP4 ADD SLOAD SWAP2 SWAP3 PUSH2 0xFFFF AND SWAP2 PUSH5 0xFFFFFFFFFF DUP1 DUP3 AND SWAP3 POP PUSH6 0x10000000000 DUP3 DIV DUP2 AND SWAP2 PUSH1 0x1 PUSH1 0x50 SHL SWAP1 DIV AND DUP6 JUMP JUMPDEST PUSH1 0x4 DUP2 DUP2 SLOAD DUP2 LT PUSH2 0x3F9 JUMPI PUSH1 0x0 DUP1 REVERT JUMPDEST SWAP1 PUSH1 0x0 MSTORE PUSH1 0x20 PUSH1 0x0 KECCAK256 SWAP1 PUSH1 0x3 MUL ADD PUSH1 0x0 SWAP2 POP SWAP1 POP DUP1 PUSH1 0x1 ADD DUP1 SLOAD PUSH2 0x41C SWAP1 PUSH2 0x136D JUMP JUMPDEST DUP1 PUSH1 0x1F ADD PUSH1 0x20 DUP1 SWAP2 DIV MUL PUSH1 0x20 ADD PUSH1 0x40 MLOAD SWAP1 DUP2 ADD PUSH1 0x40 MSTORE DUP1 SWAP3 SWAP2 SWAP1 DUP2 DUP2 MSTORE PUSH1 0x20 ADD DUP3 DUP1 SLOAD PUSH2 0x448 SWAP1 PUSH2 0x136D JUMP JUMPDEST DUP1 ISZERO PUSH2 0x495 JUMPI DUP1 PUSH1 0x1F LT PUSH2 0x46A JUMPI PUSH2 0x100 DUP1 DUP4 SLOAD DIV MUL DUP4 MSTORE SWAP2 PUSH1 0x20 ADD SWAP2 PUSH2 0x495 JUMP JUMPDEST DUP3 ADD SWAP2 SWAP1 PUSH1 0x0 MSTORE PUSH1 0x20 PUSH1 0x0 KECCAK256 SWAP1 JUMPDEST DUP2 SLOAD DUP2 MSTORE SWAP1 PUSH1 0x1 ADD SWAP1 PUSH1 0x20 ADD DUP1 DUP4 GT PUSH2 0x478 JUMPI DUP3 SWAP1 SUB PUSH1 0x1F AND DUP3 ADD SWAP2 JUMPDEST POP POP POP PUSH1 0x2 SWAP1 SWAP4 ADD SLOAD SWAP2 SWAP3 POP POP PUSH1 0xFF DUP2 AND SWAP1 PUSH5 0xFFFFFFFFFF PUSH2 0x100 DUP3 DIV DUP2 AND SWAP2 PUSH1 0x1 PUSH1 0x30 SHL DUP2 DIV DUP3 AND SWAP2 PUSH1 0x1 PUSH1 0x58 SHL SWAP1 SWAP2 DIV AND DUP6 JUMP JUMPDEST PUSH1 0x60 PUSH1 0x0 DUP1 JUMPDEST PUSH1 0x4 SLOAD DUP2 LT ISZERO PUSH2 0x598 JUMPI TIMESTAMP PUSH1 0x4 DUP3 DUP2 SLOAD DUP2 LT PUSH2 0x4EF JUMPI PUSH2 0x4EF PUSH2 0x13A8 JUMP JUMPDEST PUSH1 0x0 SWAP2 DUP3 MSTORE PUSH1 0x20 DUP1 DUP4 KECCAK256 CALLER DUP5 MSTORE PUSH1 0x3 SWAP1 SWAP3 MUL SWAP1 SWAP2 ADD SWAP1 MSTORE PUSH1 0x40 SWAP1 KECCAK256 SLOAD LT ISZERO PUSH2 0x51C JUMPI DUP2 PUSH1 0x1 ADD SWAP2 POP PUSH2 0x590 JUMP JUMPDEST PUSH1 0x40 DUP1 MLOAD PUSH1 0x1 DUP1 DUP3 MSTORE DUP2 DUP4 ADD SWAP1 SWAP3 MSTORE PUSH1 0x0 SWAP2 DUP2 PUSH1 0x20 ADD JUMPDEST PUSH1 0x60 DUP2 MSTORE PUSH1 0x20 ADD SWAP1 PUSH1 0x1 SWAP1 SUB SWAP1 DUP2 PUSH2 0x533 JUMPI SWAP1 POP POP SWAP1 POP PUSH1 0x40 MLOAD DUP1 PUSH1 0x40 ADD PUSH1 0x40 MSTORE DUP1 PUSH1 0x8 DUP2 MSTORE PUSH1 0x20 ADD PUSH8 0x273790363AB1B597 PUSH1 0xC1 SHL DUP2 MSTORE POP DUP2 PUSH1 0x0 DUP2 MLOAD DUP2 LT PUSH2 0x57E JUMPI PUSH2 0x57E PUSH2 0x13A8 JUMP JUMPDEST PUSH1 0x20 SWAP1 DUP2 MUL SWAP2 SWAP1 SWAP2 ADD ADD MSTORE SWAP4 SWAP3 POP POP POP JUMP JUMPDEST PUSH1 0x1 ADD PUSH2 0x4D1 JUMP JUMPDEST POP PUSH1 0x0 DUP2 PUSH8 0xFFFFFFFFFFFFFFFF DUP2 GT ISZERO PUSH2 0x5B4 JUMPI PUSH2 0x5B4 PUSH2 0x13BE JUMP JUMPDEST PUSH1 0x40 MLOAD SWAP1 DUP1 DUP3 MSTORE DUP1 PUSH1 0x20 MUL PUSH1 0x20 ADD DUP3 ADD PUSH1 0x40 MSTORE DUP1 ISZERO PUSH2 0x5E7 JUMPI DUP2 PUSH1 0x20 ADD JUMPDEST PUSH1 0x60 DUP2 MSTORE PUSH1 0x20 ADD SWAP1 PUSH1 0x1 SWAP1 SUB SWAP1 DUP2 PUSH2 0x5D2 JUMPI SWAP1 POP JUMPDEST POP SWAP1 POP PUSH1 0x0 DUP1 JUMPDEST PUSH1 0x4 SLOAD DUP2 LT ISZERO PUSH2 0x790 JUMPI TIMESTAMP PUSH1 0x4 DUP3 DUP2 SLOAD DUP2 LT PUSH2 0x60C JUMPI PUSH2 0x60C PUSH2 0x13A8 JUMP JUMPDEST PUSH1 0x0 SWAP2 DUP3 MSTORE PUSH1 0x20 DUP1 DUP4 KECCAK256 CALLER DUP5 MSTORE PUSH1 0x3 SWAP1 SWAP3 MUL SWAP1 SWAP2 ADD SWAP1 MSTORE PUSH1 0x40 SWAP1 KECCAK256 SLOAD LT DUP1 ISZERO PUSH2 0x668 JUMPI POP TIMESTAMP PUSH1 0x4 DUP3 DUP2 SLOAD DUP2 LT PUSH2 0x644 JUMPI PUSH2 0x644 PUSH2 0x13A8 JUMP JUMPDEST PUSH1 0x0 SWAP2 DUP3 MSTORE PUSH1 0x20 SWAP1 SWAP2 KECCAK256 PUSH1 0x3 SWAP1 SWAP2 MUL ADD PUSH1 0x2 ADD SLOAD PUSH1 0x1 PUSH1 0x30 SHL SWAP1 DIV PUSH5 0xFFFFFFFFFF AND LT JUMPDEST DUP1 ISZERO PUSH2 0x6A7 JUMPI POP TIMESTAMP PUSH1 0x4 DUP3 DUP2 SLOAD DUP2 LT PUSH2 0x683 JUMPI PUSH2 0x683 PUSH2 0x13A8 JUMP JUMPDEST PUSH1 0x0 SWAP2 DUP3 MSTORE PUSH1 0x20 SWAP1 SWAP2 KECCAK256 PUSH1 0x3 SWAP1 SWAP2 MUL ADD PUSH1 0x2 ADD SLOAD PUSH1 0x1 PUSH1 0x58 SHL SWAP1 DIV PUSH5 0xFFFFFFFFFF AND GT JUMPDEST ISZERO PUSH2 0x788 JUMPI PUSH1 0x4 DUP2 DUP2 SLOAD DUP2 LT PUSH2 0x6BF JUMPI PUSH2 0x6BF PUSH2 0x13A8 JUMP JUMPDEST SWAP1 PUSH1 0x0 MSTORE PUSH1 0x20 PUSH1 0x0 KECCAK256 SWAP1 PUSH1 0x3 MUL ADD PUSH1 0x1 ADD DUP1 SLOAD PUSH2 0x6DB SWAP1 PUSH2 0x136D JUMP JUMPDEST DUP1 PUSH1 0x1F ADD PUSH1 0x20 DUP1 SWAP2 DIV MUL PUSH1 0x20 ADD PUSH1 0x40 MLOAD SWAP1 DUP2 ADD PUSH1 0x40 MSTORE DUP1 SWAP3 SWAP2 SWAP1 DUP2 DUP2 MSTORE PUSH1 0x20 ADD DUP3 DUP1 SLOAD PUSH2 0x707 SWAP1 PUSH2 0x136D JUMP JUMPDEST DUP1 ISZERO PUSH2 0x754 JUMPI DUP1 PUSH1 0x1F LT PUSH2 0x729 JUMPI PUSH2 0x100 DUP1 DUP4 SLOAD DIV MUL DUP4 MSTORE SWAP2 PUSH1 0x20 ADD SWAP2 PUSH2 0x754 JUMP JUMPDEST DUP3 ADD SWAP2 SWAP1 PUSH1 0x0 MSTORE PUSH1 0x20 PUSH1 0x0 KECCAK256 SWAP1 JUMPDEST DUP2 SLOAD DUP2 MSTORE SWAP1 PUSH1 0x1 ADD SWAP1 PUSH1 0x20 ADD DUP1 DUP4 GT PUSH2 0x737 JUMPI DUP3 SWAP1 SUB PUSH1 0x1F AND DUP3 ADD SWAP2 JUMPDEST POP POP POP POP POP DUP4 DUP3 DUP2 MLOAD DUP2 LT PUSH2 0x76B JUMPI PUSH2 0x76B PUSH2 0x13A8 JUMP JUMPDEST PUSH1 0x20 MUL PUSH1 0x20 ADD ADD DUP2 SWAP1 MSTORE POP DUP2 PUSH1 0x1 ADD SWAP2 POP DUP4 DUP3 LT PUSH2 0x788 JUMPI PUSH2 0x790 JUMP JUMPDEST PUSH1 0x1 ADD PUSH2 0x5EE JUMP JUMPDEST POP SWAP1 SWAP4 SWAP3 POP POP POP JUMP JUMPDEST PUSH2 0x7A7 JUMP JUMPDEST PUSH1 0x40 MLOAD DUP1 SWAP2 SUB SWAP1 REVERT JUMPDEST PUSH1 0x1 DUP4 PUSH2 0xFFFF AND GT DUP1 ISZERO PUSH2 0x7C0 JUMPI POP PUSH2 0x101 DUP4 PUSH2 0xFFFF AND LT JUMPDEST PUSH2 0x80C JUMPI PUSH1 0x40 MLOAD PUSH3 0x461BCD PUSH1 0xE5 SHL DUP2 MSTORE PUSH1 0x20 PUSH1 0x4 DUP3 ADD MSTORE PUSH1 0x19 PUSH1 0x24 DUP3 ADD MSTORE PUSH32 0x696E76616C6964206E756D626572206F66206F7074696F6E7300000000000000 PUSH1 0x44 DUP3 ADD MSTORE PUSH1 0x64 ADD PUSH2 0x79E JUMP JUMPDEST PUSH1 0x1 PUSH1 0x7 PUSH1 0x0 DUP3 DUP3 SLOAD PUSH2 0x81F SWAP2 SWAP1 PUSH2 0x13EA JUMP JUMPDEST SWAP1 SWAP2 SSTORE POP POP PUSH1 0x7 SLOAD PUSH1 0x0 SWAP1 DUP2 MSTORE PUSH1 0x6 PUSH1 0x20 MSTORE PUSH1 0x40 SWAP1 KECCAK256 PUSH1 0x3 DUP2 ADD DUP1 SLOAD PUSH15 0xFFFFFFFFFFFFFFFFFFFF0000000000 NOT AND PUSH6 0x10000000000 PUSH5 0xFFFFFFFFFF DUP7 DUP2 AND SWAP2 SWAP1 SWAP2 MUL PUSH5 0xFFFFFFFFFF PUSH1 0x50 SHL NOT AND SWAP2 SWAP1 SWAP2 OR PUSH1 0x1 PUSH1 0x50 SHL SWAP2 DUP6 AND SWAP2 SWAP1 SWAP2 MUL OR SWAP1 SSTORE PUSH1 0x1 DUP2 ADD DUP1 SLOAD PUSH2 0xFFFF NOT AND PUSH2 0xFFFF DUP7 AND OR SWAP1 SSTORE PUSH2 0x89D DUP2 DUP8 DUP8 PUSH2 0xF2D JUMP JUMPDEST POP PUSH2 0x8AD DUP7 DUP7 PUSH1 0x7 SLOAD DUP7 DUP7 PUSH2 0xE35 JUMP JUMPDEST POP POP POP POP POP POP JUMP JUMPDEST PUSH1 0x1 SLOAD PUSH1 0x1 PUSH1 0x1 PUSH1 0xA0 SHL SUB AND CALLER EQ PUSH2 0x8DF JUMPI PUSH1 0x40 MLOAD PUSH3 0x461BCD PUSH1 0xE5 SHL DUP2 MSTORE PUSH1 0x4 ADD PUSH2 0x79E SWAP1 PUSH2 0x1402 JUMP JUMPDEST PUSH1 0x2 DUP1 SLOAD PUSH1 0x1 PUSH1 0x1 PUSH1 0xA0 SHL SUB NOT AND PUSH1 0x1 PUSH1 0x1 PUSH1 0xA0 SHL SUB SWAP3 SWAP1 SWAP3 AND SWAP2 SWAP1 SWAP2 OR SWAP1 SSTORE JUMP JUMPDEST PUSH1 0x1 SLOAD PUSH1 0x1 PUSH1 0x1 PUSH1 0xA0 SHL SUB AND CALLER EQ PUSH2 0x92B JUMPI PUSH1 0x40 MLOAD PUSH3 0x461BCD PUSH1 0xE5 SHL DUP2 MSTORE PUSH1 0x4 ADD PUSH2 0x79E SWAP1 PUSH2 0x1402 JUMP JUMPDEST PUSH2 0x935 PUSH1 0x0 PUSH2 0xEDB JUMP JUMPDEST JUMP JUMPDEST PUSH2 0x945 DUP5 DUP5 PUSH1 0x0 DUP6 DUP6 PUSH2 0xE35 JUMP JUMPDEST POP POP POP POP JUMP JUMPDEST PUSH1 0x0 PUSH1 0x7 SLOAD DUP3 LT PUSH2 0x991 JUMPI PUSH1 0x40 MLOAD PUSH3 0x461BCD PUSH1 0xE5 SHL DUP2 MSTORE PUSH1 0x20 PUSH1 0x4 DUP3 ADD MSTORE PUSH1 0x10 PUSH1 0x24 DUP3 ADD MSTORE PUSH16 0x1B9BC81CDD58DA081C1C9BDC1BDCD85B PUSH1 0x82 SHL PUSH1 0x44 DUP3 ADD MSTORE PUSH1 0x64 ADD PUSH2 0x79E JUMP JUMPDEST PUSH1 0x0 DUP3 DUP2 MSTORE PUSH1 0x6 PUSH1 0x20 MSTORE PUSH1 0x40 SWAP1 KECCAK256 PUSH1 0x3 ADD SLOAD PUSH1 0x1 PUSH1 0x50 SHL SWAP1 DIV PUSH5 0xFFFFFFFFFF AND TIMESTAMP GT PUSH2 0x9F5 JUMPI PUSH1 0x40 MLOAD PUSH3 0x461BCD PUSH1 0xE5 SHL DUP2 MSTORE PUSH1 0x20 PUSH1 0x4 DUP3 ADD MSTORE PUSH1 0x13 PUSH1 0x24 DUP3 ADD MSTORE PUSH19 0x766F74696E67207374696C6C20616374697665 PUSH1 0x68 SHL PUSH1 0x44 DUP3 ADD MSTORE PUSH1 0x64 ADD PUSH2 0x79E JUMP JUMPDEST PUSH1 0x0 DUP1 PUSH1 0x0 DUP1 JUMPDEST PUSH1 0x0 DUP7 DUP2 MSTORE PUSH1 0x6 PUSH1 0x20 MSTORE PUSH1 0x40 SWAP1 KECCAK256 PUSH1 0x1 ADD SLOAD PUSH2 0xFFFF AND DUP2 LT ISZERO PUSH2 0xB18 JUMPI PUSH1 0x0 DUP7 DUP2 MSTORE PUSH1 0x6 PUSH1 0x20 MSTORE PUSH1 0x40 SWAP1 KECCAK256 DUP4 SWAP1 PUSH1 0x2 ADD DUP3 PUSH1 0x8 DUP2 LT PUSH2 0xA3D JUMPI PUSH2 0xA3D PUSH2 0x13A8 JUMP JUMPDEST PUSH1 0x10 SWAP2 DUP3 DUP3 DIV ADD SWAP2 SWAP1 MOD PUSH1 0x2 MUL SWAP1 SLOAD SWAP1 PUSH2 0x100 EXP SWAP1 DIV PUSH2 0xFFFF AND PUSH2 0xFFFF AND GT ISZERO PUSH2 0xAB9 JUMPI PUSH1 0x0 DUP7 DUP2 MSTORE PUSH1 0x6 PUSH1 0x20 MSTORE PUSH1 0x40 SWAP1 KECCAK256 PUSH1 0x2 ADD DUP2 PUSH1 0x8 DUP2 LT PUSH2 0xA83 JUMPI PUSH2 0xA83 PUSH2 0x13A8 JUMP JUMPDEST PUSH1 0x10 SWAP2 DUP3 DUP3 DIV ADD SWAP2 SWAP1 MOD PUSH1 0x2 MUL SWAP1 SLOAD SWAP1 PUSH2 0x100 EXP SWAP1 DIV PUSH2 0xFFFF AND PUSH2 0xFFFF AND SWAP3 POP DUP1 SWAP4 POP DUP2 PUSH1 0x1 EQ ISZERO PUSH2 0xAB4 JUMPI PUSH1 0x0 SWAP2 POP JUMPDEST PUSH2 0xB06 JUMP JUMPDEST PUSH1 0x0 DUP7 DUP2 MSTORE PUSH1 0x6 PUSH1 0x20 MSTORE PUSH1 0x40 SWAP1 KECCAK256 DUP4 SWAP1 PUSH1 0x2 ADD DUP3 PUSH1 0x8 DUP2 LT PUSH2 0xADD JUMPI PUSH2 0xADD PUSH2 0x13A8 JUMP JUMPDEST PUSH1 0x10 SWAP2 DUP3 DUP3 DIV ADD SWAP2 SWAP1 MOD PUSH1 0x2 MUL SWAP1 SLOAD SWAP1 PUSH2 0x100 EXP SWAP1 DIV PUSH2 0xFFFF AND PUSH2 0xFFFF AND EQ ISZERO PUSH2 0xB06 JUMPI PUSH1 0x1 SWAP2 POP JUMPDEST DUP1 PUSH2 0xB10 DUP2 PUSH2 0x1437 JUMP JUMPDEST SWAP2 POP POP PUSH2 0x9FC JUMP JUMPDEST POP DUP1 ISZERO PUSH2 0x790 JUMPI PUSH1 0x40 MLOAD PUSH3 0x461BCD PUSH1 0xE5 SHL DUP2 MSTORE PUSH1 0x20 PUSH1 0x4 DUP3 ADD MSTORE PUSH1 0x10 PUSH1 0x24 DUP3 ADD MSTORE PUSH16 0x3A3432B932903BB0B99030903A34B297 PUSH1 0x81 SHL PUSH1 0x44 DUP3 ADD MSTORE PUSH1 0x64 ADD PUSH2 0x79E JUMP JUMPDEST PUSH1 0x40 MLOAD PUSH3 0x461BCD PUSH1 0xE5 SHL DUP2 MSTORE PUSH1 0x20 PUSH1 0x4 DUP3 ADD MSTORE PUSH1 0xE PUSH1 0x24 DUP3 ADD MSTORE PUSH14 0x26BAB9BA1031329036B2B6B132B9 PUSH1 0x91 SHL PUSH1 0x44 DUP3 ADD MSTORE PUSH1 0x64 ADD PUSH2 0x79E JUMP JUMPDEST PUSH1 0x5 DUP2 DUP2 SLOAD DUP2 LT PUSH2 0xBA3 JUMPI PUSH1 0x0 DUP1 REVERT JUMPDEST SWAP1 PUSH1 0x0 MSTORE PUSH1 0x20 PUSH1 0x0 KECCAK256 SWAP1 PUSH1 0x4 MUL ADD PUSH1 0x0 SWAP2 POP SWAP1 POP DUP1 PUSH1 0x0 ADD DUP1 SLOAD PUSH2 0xBC6 SWAP1 PUSH2 0x136D JUMP JUMPDEST DUP1 PUSH1 0x1F ADD PUSH1 0x20 DUP1 SWAP2 DIV MUL PUSH1 0x20 ADD PUSH1 0x40 MLOAD SWAP1 DUP2 ADD PUSH1 0x40 MSTORE DUP1 SWAP3 SWAP2 SWAP1 DUP2 DUP2 MSTORE PUSH1 0x20 ADD DUP3 DUP1 SLOAD PUSH2 0xBF2 SWAP1 PUSH2 0x136D JUMP JUMPDEST DUP1 ISZERO PUSH2 0xC3F JUMPI DUP1 PUSH1 0x1F LT PUSH2 0xC14 JUMPI PUSH2 0x100 DUP1 DUP4 SLOAD DIV MUL DUP4 MSTORE SWAP2 PUSH1 0x20 ADD SWAP2 PUSH2 0xC3F JUMP JUMPDEST DUP3 ADD SWAP2 SWAP1 PUSH1 0x0 MSTORE PUSH1 0x20 PUSH1 0x0 KECCAK256 SWAP1 JUMPDEST DUP2 SLOAD DUP2 MSTORE SWAP1 PUSH1 0x1 ADD SWAP1 PUSH1 0x20 ADD DUP1 DUP4 GT PUSH2 0xC22 JUMPI DUP3 SWAP1 SUB PUSH1 0x1F AND DUP3 ADD SWAP2 JUMPDEST POP POP POP POP PUSH1 0x1 DUP4 ADD SLOAD PUSH1 0x2 DUP5 ADD SLOAD PUSH1 0x3 SWAP1 SWAP5 ADD SLOAD SWAP3 SWAP4 PUSH5 0xFFFFFFFFFF SWAP1 SWAP2 AND SWAP3 SWAP1 SWAP2 POP PUSH1 0xFF DUP2 AND SWAP1 PUSH2 0x100 SWAP1 DIV PUSH3 0xFFFFFF AND DUP6 JUMP JUMPDEST PUSH1 0x1 SLOAD PUSH1 0x1 PUSH1 0x1 PUSH1 0xA0 SHL SUB AND CALLER EQ PUSH2 0xC9E JUMPI PUSH1 0x40 MLOAD PUSH3 0x461BCD PUSH1 0xE5 SHL DUP2 MSTORE PUSH1 0x4 ADD PUSH2 0x79E SWAP1 PUSH2 0x1402 JUMP JUMPDEST PUSH1 0x1 PUSH1 0x1 PUSH1 0xA0 SHL SUB DUP2 AND PUSH2 0xD03 JUMPI PUSH1 0x40 MLOAD PUSH3 0x461BCD PUSH1 0xE5 SHL DUP2 MSTORE PUSH1 0x20 PUSH1 0x4 DUP3 ADD MSTORE PUSH1 0x26 PUSH1 0x24 DUP3 ADD MSTORE PUSH32 0x4F776E61626C653A206E6577206F776E657220697320746865207A65726F2061 PUSH1 0x44 DUP3 ADD MSTORE PUSH6 0x646472657373 PUSH1 0xD0 SHL PUSH1 0x64 DUP3 ADD MSTORE PUSH1 0x84 ADD PUSH2 0x79E JUMP JUMPDEST PUSH2 0xD0C DUP2 PUSH2 0xEDB JUMP JUMPDEST POP JUMP JUMPDEST PUSH1 0x60 PUSH1 0x7 SLOAD DUP3 LT PUSH2 0xD55 JUMPI PUSH1 0x40 MLOAD PUSH3 0x461BCD PUSH1 0xE5 SHL DUP2 MSTORE PUSH1 0x20 PUSH1 0x4 DUP3 ADD MSTORE PUSH1 0x10 PUSH1 0x24 DUP3 ADD MSTORE PUSH16 0x1B9BC81CDD58DA081C1C9BDC1BDCD85B PUSH1 0x82 SHL PUSH1 0x44 DUP3 ADD MSTORE PUSH1 0x64 ADD PUSH2 0x79E JUMP JUMPDEST PUSH1 0x0 DUP3 DUP2 MSTORE PUSH1 0x6 PUSH1 0x20 MSTORE PUSH1 0x40 DUP2 KECCAK256 PUSH1 0x1 ADD SLOAD PUSH2 0xFFFF AND PUSH8 0xFFFFFFFFFFFFFFFF DUP2 GT ISZERO PUSH2 0xD83 JUMPI PUSH2 0xD83 PUSH2 0x13BE JUMP JUMPDEST PUSH1 0x40 MLOAD SWAP1 DUP1 DUP3 MSTORE DUP1 PUSH1 0x20 MUL PUSH1 0x20 ADD DUP3 ADD PUSH1 0x40 MSTORE DUP1 ISZERO PUSH2 0xDAC JUMPI DUP2 PUSH1 0x20 ADD PUSH1 0x20 DUP3 MUL DUP1 CALLDATASIZE DUP4 CALLDATACOPY ADD SWAP1 POP JUMPDEST POP SWAP1 POP PUSH1 0x0 JUMPDEST DUP2 MLOAD DUP2 LT ISZERO PUSH2 0xE2E JUMPI PUSH1 0x0 DUP5 DUP2 MSTORE PUSH1 0x6 PUSH1 0x20 MSTORE PUSH1 0x40 SWAP1 KECCAK256 PUSH1 0x2 ADD DUP2 PUSH1 0x8 DUP2 LT PUSH2 0xDDD JUMPI PUSH2 0xDDD PUSH2 0x13A8 JUMP JUMPDEST PUSH1 0x10 SWAP2 DUP3 DUP3 DIV ADD SWAP2 SWAP1 MOD PUSH1 0x2 MUL SWAP1 SLOAD SWAP1 PUSH2 0x100 EXP SWAP1 DIV PUSH2 0xFFFF AND DUP3 DUP3 DUP2 MLOAD DUP2 LT PUSH2 0xE09 JUMPI PUSH2 0xE09 PUSH2 0x13A8 JUMP JUMPDEST PUSH2 0xFFFF SWAP1 SWAP3 AND PUSH1 0x20 SWAP3 DUP4 MUL SWAP2 SWAP1 SWAP2 ADD SWAP1 SWAP2 ADD MSTORE DUP1 PUSH2 0xE26 DUP2 PUSH2 0x1437 JUMP JUMPDEST SWAP2 POP POP PUSH2 0xDB2 JUMP JUMPDEST POP SWAP3 SWAP2 POP POP JUMP JUMPDEST PUSH1 0x4 DUP1 SLOAD PUSH1 0x1 DUP2 ADD DUP1 DUP4 SSTORE PUSH1 0x0 DUP4 DUP2 MSTORE SWAP2 SWAP3 SWAP1 DUP4 SWAP1 DUP2 LT PUSH2 0xE58 JUMPI PUSH2 0xE58 PUSH2 0x13A8 JUMP JUMPDEST PUSH1 0x0 SWAP2 DUP3 MSTORE PUSH1 0x20 SWAP1 SWAP2 KECCAK256 PUSH1 0x3 SWAP1 SWAP2 MUL ADD SWAP1 POP PUSH2 0xE78 PUSH1 0x1 DUP3 ADD DUP9 DUP9 PUSH2 0xF2D JUMP JUMPDEST POP PUSH1 0x2 ADD DUP1 SLOAD PUSH5 0xFFFFFFFFFF SWAP4 DUP5 AND PUSH1 0x1 PUSH1 0x58 SHL MUL PUSH5 0xFFFFFFFFFF PUSH1 0x58 SHL NOT SWAP6 DUP6 AND PUSH1 0x1 PUSH1 0x30 SHL MUL PUSH11 0xFFFFFFFFFF000000000000 NOT SWAP6 SWAP1 SWAP8 AND PUSH2 0x100 MUL SWAP5 SWAP1 SWAP5 AND PUSH11 0xFFFFFFFFFFFFFFFFFFFFFF NOT SWAP1 SWAP2 AND OR SWAP5 SWAP1 SWAP5 OR SWAP3 SWAP1 SWAP3 AND OR SWAP1 SWAP2 SSTORE POP POP POP JUMP JUMPDEST PUSH1 0x1 DUP1 SLOAD PUSH1 0x1 PUSH1 0x1 PUSH1 0xA0 SHL SUB DUP4 DUP2 AND PUSH1 0x1 PUSH1 0x1 PUSH1 0xA0 SHL SUB NOT DUP4 AND DUP2 OR SWAP1 SWAP4 SSTORE PUSH1 0x40 MLOAD SWAP2 AND SWAP2 SWAP1 DUP3 SWAP1 PUSH32 0x8BE0079C531659141344CD1FD0A4F28419497F9722A3DAAFE3B4186F6B6457E0 SWAP1 PUSH1 0x0 SWAP1 LOG3 POP POP JUMP JUMPDEST DUP3 DUP1 SLOAD PUSH2 0xF39 SWAP1 PUSH2 0x136D JUMP JUMPDEST SWAP1 PUSH1 0x0 MSTORE PUSH1 0x20 PUSH1 0x0 KECCAK256 SWAP1 PUSH1 0x1F ADD PUSH1 0x20 SWAP1 DIV DUP2 ADD SWAP3 DUP3 PUSH2 0xF5B JUMPI PUSH1 0x0 DUP6 SSTORE PUSH2 0xFA1 JUMP JUMPDEST DUP3 PUSH1 0x1F LT PUSH2 0xF74 JUMPI DUP3 DUP1 ADD PUSH1 0xFF NOT DUP3 CALLDATALOAD AND OR DUP6 SSTORE PUSH2 0xFA1 JUMP JUMPDEST DUP3 DUP1 ADD PUSH1 0x1 ADD DUP6 SSTORE DUP3 ISZERO PUSH2 0xFA1 JUMPI SWAP2 DUP3 ADD JUMPDEST DUP3 DUP2 GT ISZERO PUSH2 0xFA1 JUMPI DUP3 CALLDATALOAD DUP3 SSTORE SWAP2 PUSH1 0x20 ADD SWAP2 SWAP1 PUSH1 0x1 ADD SWAP1 PUSH2 0xF86 JUMP JUMPDEST POP PUSH2 0xFAD SWAP3 SWAP2 POP PUSH2 0xFB1 JUMP JUMPDEST POP SWAP1 JUMP JUMPDEST JUMPDEST DUP1 DUP3 GT ISZERO PUSH2 0xFAD JUMPI PUSH1 0x0 DUP2 SSTORE PUSH1 0x1 ADD PUSH2 0xFB2 JUMP JUMPDEST PUSH1 0x0 PUSH1 0x20 DUP3 DUP5 SUB SLT ISZERO PUSH2 0xFD8 JUMPI PUSH1 0x0 DUP1 REVERT JUMPDEST POP CALLDATALOAD SWAP2 SWAP1 POP JUMP JUMPDEST PUSH1 0x0 DUP2 MLOAD DUP1 DUP5 MSTORE PUSH1 0x0 JUMPDEST DUP2 DUP2 LT ISZERO PUSH2 0x1005 JUMPI PUSH1 0x20 DUP2 DUP6 ADD DUP2 ADD MLOAD DUP7 DUP4 ADD DUP3 ADD MSTORE ADD PUSH2 0xFE9 JUMP JUMPDEST DUP2 DUP2 GT ISZERO PUSH2 0x1017 JUMPI PUSH1 0x0 PUSH1 0x20 DUP4 DUP8 ADD ADD MSTORE JUMPDEST POP PUSH1 0x1F ADD PUSH1 0x1F NOT AND SWAP3 SWAP1 SWAP3 ADD PUSH1 0x20 ADD SWAP3 SWAP2 POP POP JUMP JUMPDEST PUSH1 0xA0 DUP2 MSTORE PUSH1 0x0 PUSH2 0x103F PUSH1 0xA0 DUP4 ADD DUP9 PUSH2 0xFDF JUMP JUMPDEST PUSH2 0xFFFF SWAP7 SWAP1 SWAP7 AND PUSH1 0x20 DUP4 ADD MSTORE POP PUSH5 0xFFFFFFFFFF SWAP4 DUP5 AND PUSH1 0x40 DUP3 ADD MSTORE SWAP2 DUP4 AND PUSH1 0x60 DUP4 ADD MSTORE SWAP1 SWAP2 AND PUSH1 0x80 SWAP1 SWAP2 ADD MSTORE SWAP2 SWAP1 POP JUMP JUMPDEST PUSH1 0xA0 DUP2 MSTORE PUSH1 0x0 PUSH2 0x1083 PUSH1 0xA0 DUP4 ADD DUP9 PUSH2 0xFDF JUMP JUMPDEST SWAP6 ISZERO ISZERO PUSH1 0x20 DUP4 ADD MSTORE POP PUSH5 0xFFFFFFFFFF SWAP4 DUP5 AND PUSH1 0x40 DUP3 ADD MSTORE SWAP2 DUP4 AND PUSH1 0x60 DUP4 ADD MSTORE SWAP1 SWAP2 AND PUSH1 0x80 SWAP1 SWAP2 ADD MSTORE SWAP2 SWAP1 POP JUMP JUMPDEST PUSH1 0x0 PUSH1 0x20 DUP1 DUP4 ADD DUP2 DUP5 MSTORE DUP1 DUP6 MLOAD DUP1 DUP4 MSTORE PUSH1 0x40 DUP7 ADD SWAP2 POP PUSH1 0x40 DUP2 PUSH1 0x5 SHL DUP8 ADD ADD SWAP3 POP DUP4 DUP8 ADD PUSH1 0x0 JUMPDEST DUP3 DUP2 LT ISZERO PUSH2 0x1105 JUMPI PUSH1 0x3F NOT DUP9 DUP7 SUB ADD DUP5 MSTORE PUSH2 0x10F3 DUP6 DUP4 MLOAD PUSH2 0xFDF JUMP JUMPDEST SWAP5 POP SWAP3 DUP6 ADD SWAP3 SWAP1 DUP6 ADD SWAP1 PUSH1 0x1 ADD PUSH2 0x10D7 JUMP JUMPDEST POP SWAP3 SWAP8 SWAP7 POP POP POP POP POP POP POP JUMP JUMPDEST PUSH1 0x0 DUP1 PUSH1 0x40 DUP4 DUP6 SUB SLT ISZERO PUSH2 0x1125 JUMPI PUSH1 0x0 DUP1 REVERT JUMPDEST POP POP DUP1 CALLDATALOAD SWAP3 PUSH1 0x20 SWAP1 SWAP2 ADD CALLDATALOAD SWAP2 POP JUMP JUMPDEST PUSH1 0x0 DUP1 DUP4 PUSH1 0x1F DUP5 ADD SLT PUSH2 0x1146 JUMPI PUSH1 0x0 DUP1 REVERT JUMPDEST POP DUP2 CALLDATALOAD PUSH8 0xFFFFFFFFFFFFFFFF DUP2 GT ISZERO PUSH2 0x115E JUMPI PUSH1 0x0 DUP1 REVERT JUMPDEST PUSH1 0x20 DUP4 ADD SWAP2 POP DUP4 PUSH1 0x20 DUP3 DUP6 ADD ADD GT ISZERO PUSH2 0x1176 JUMPI PUSH1 0x0 DUP1 REVERT JUMPDEST SWAP3 POP SWAP3 SWAP1 POP JUMP JUMPDEST DUP1 CALLDATALOAD PUSH5 0xFFFFFFFFFF DUP2 AND DUP2 EQ PUSH2 0x1192 JUMPI PUSH1 0x0 DUP1 REVERT JUMPDEST SWAP2 SWAP1 POP JUMP JUMPDEST PUSH1 0x0 DUP1 PUSH1 0x0 DUP1 PUSH1 0x0 PUSH1 0x80 DUP7 DUP9 SUB SLT ISZERO PUSH2 0x11AF JUMPI PUSH1 0x0 DUP1 REVERT JUMPDEST DUP6 CALLDATALOAD PUSH8 0xFFFFFFFFFFFFFFFF DUP2 GT ISZERO PUSH2 0x11C6 JUMPI PUSH1 0x0 DUP1 REVERT JUMPDEST PUSH2 0x11D2 DUP9 DUP3 DUP10 ADD PUSH2 0x1134 JUMP JUMPDEST SWAP1 SWAP7 POP SWAP5 POP POP PUSH1 0x20 DUP7 ADD CALLDATALOAD PUSH2 0xFFFF DUP2 AND DUP2 EQ PUSH2 0x11ED JUMPI PUSH1 0x0 DUP1 REVERT JUMPDEST SWAP3 POP PUSH2 0x11FB PUSH1 0x40 DUP8 ADD PUSH2 0x117D JUMP JUMPDEST SWAP2 POP PUSH2 0x1209 PUSH1 0x60 DUP8 ADD PUSH2 0x117D JUMP JUMPDEST SWAP1 POP SWAP3 SWAP6 POP SWAP3 SWAP6 SWAP1 SWAP4 POP JUMP JUMPDEST PUSH1 0x1 PUSH1 0x1 PUSH1 0xA0 SHL SUB DUP2 AND DUP2 EQ PUSH2 0xD0C JUMPI PUSH1 0x0 DUP1 REVERT JUMPDEST PUSH1 0x0 PUSH1 0x20 DUP3 DUP5 SUB SLT ISZERO PUSH2 0x123C JUMPI PUSH1 0x0 DUP1 REVERT JUMPDEST DUP2 CALLDATALOAD PUSH2 0x1247 DUP2 PUSH2 0x1215 JUMP JUMPDEST SWAP4 SWAP3 POP POP POP JUMP JUMPDEST PUSH1 0x0 DUP1 PUSH1 0x0 DUP1 PUSH1 0x60 DUP6 DUP8 SUB SLT ISZERO PUSH2 0x1264 JUMPI PUSH1 0x0 DUP1 REVERT JUMPDEST DUP5 CALLDATALOAD PUSH8 0xFFFFFFFFFFFFFFFF DUP2 GT ISZERO PUSH2 0x127B JUMPI PUSH1 0x0 DUP1 REVERT JUMPDEST PUSH2 0x1287 DUP8 DUP3 DUP9 ADD PUSH2 0x1134 JUMP JUMPDEST SWAP1 SWAP6 POP SWAP4 POP PUSH2 0x129A SWAP1 POP PUSH1 0x20 DUP7 ADD PUSH2 0x117D JUMP JUMPDEST SWAP2 POP PUSH2 0x12A8 PUSH1 0x40 DUP7 ADD PUSH2 0x117D JUMP JUMPDEST SWAP1 POP SWAP3 SWAP6 SWAP2 SWAP5 POP SWAP3 POP JUMP JUMPDEST PUSH1 0x0 DUP1 PUSH1 0x0 PUSH1 0x60 DUP5 DUP7 SUB SLT ISZERO PUSH2 0x12C8 JUMPI PUSH1 0x0 DUP1 REVERT JUMPDEST POP POP DUP2 CALLDATALOAD SWAP4 PUSH1 0x20 DUP4 ADD CALLDATALOAD SWAP4 POP PUSH1 0x40 SWAP1 SWAP3 ADD CALLDATALOAD SWAP2 SWAP1 POP JUMP JUMPDEST PUSH1 0xA0 DUP2 MSTORE PUSH1 0x0 PUSH2 0x12F2 PUSH1 0xA0 DUP4 ADD DUP9 PUSH2 0xFDF JUMP JUMPDEST SWAP1 POP PUSH5 0xFFFFFFFFFF DUP7 AND PUSH1 0x20 DUP4 ADD MSTORE DUP5 PUSH1 0x40 DUP4 ADD MSTORE PUSH1 0xFF DUP5 AND PUSH1 0x60 DUP4 ADD MSTORE PUSH3 0xFFFFFF DUP4 AND PUSH1 0x80 DUP4 ADD MSTORE SWAP7 SWAP6 POP POP POP POP POP POP JUMP JUMPDEST PUSH1 0x20 DUP1 DUP3 MSTORE DUP3 MLOAD DUP3 DUP3 ADD DUP2 SWAP1 MSTORE PUSH1 0x0 SWAP2 SWAP1 DUP5 DUP3 ADD SWAP1 PUSH1 0x40 DUP6 ADD SWAP1 DUP5 JUMPDEST DUP2 DUP2 LT ISZERO PUSH2 0x1361 JUMPI DUP4 MLOAD PUSH2 0xFFFF AND DUP4 MSTORE SWAP3 DUP5 ADD SWAP3 SWAP2 DUP5 ADD SWAP2 PUSH1 0x1 ADD PUSH2 0x1341 JUMP JUMPDEST POP SWAP1 SWAP7 SWAP6 POP POP POP POP POP POP JUMP JUMPDEST PUSH1 0x1 DUP2 DUP2 SHR SWAP1 DUP3 AND DUP1 PUSH2 0x1381 JUMPI PUSH1 0x7F DUP3 AND SWAP2 POP JUMPDEST PUSH1 0x20 DUP3 LT DUP2 EQ ISZERO PUSH2 0x13A2 JUMPI PUSH4 0x4E487B71 PUSH1 0xE0 SHL PUSH1 0x0 MSTORE PUSH1 0x22 PUSH1 0x4 MSTORE PUSH1 0x24 PUSH1 0x0 REVERT JUMPDEST POP SWAP2 SWAP1 POP JUMP JUMPDEST PUSH4 0x4E487B71 PUSH1 0xE0 SHL PUSH1 0x0 MSTORE PUSH1 0x32 PUSH1 0x4 MSTORE PUSH1 0x24 PUSH1 0x0 REVERT JUMPDEST PUSH4 0x4E487B71 PUSH1 0xE0 SHL PUSH1 0x0 MSTORE PUSH1 0x41 PUSH1 0x4 MSTORE PUSH1 0x24 PUSH1 0x0 REVERT JUMPDEST PUSH4 0x4E487B71 PUSH1 0xE0 SHL PUSH1 0x0 MSTORE PUSH1 0x11 PUSH1 0x4 MSTORE PUSH1 0x24 PUSH1 0x0 REVERT JUMPDEST PUSH1 0x0 DUP3 NOT DUP3 GT ISZERO PUSH2 0x13FD JUMPI PUSH2 0x13FD PUSH2 0x13D4 JUMP JUMPDEST POP ADD SWAP1 JUMP JUMPDEST PUSH1 0x20 DUP1 DUP3 MSTORE DUP2 DUP2 ADD MSTORE PUSH32 0x4F776E61626C653A2063616C6C6572206973206E6F7420746865206F776E6572 PUSH1 0x40 DUP3 ADD MSTORE PUSH1 0x60 ADD SWAP1 JUMP JUMPDEST PUSH1 0x0 PUSH1 0x0 NOT DUP3 EQ ISZERO PUSH2 0x144B JUMPI PUSH2 0x144B PUSH2 0x13D4 JUMP JUMPDEST POP PUSH1 0x1 ADD SWAP1 JUMP INVALID LOG2 PUSH5 0x6970667358 0x22 SLT KECCAK256 0xE8 0xE7 0xC9 0xFB 0xCB 0xAF 0xFC 0xE8 0xD7 0xBC MLOAD PUSH3 0x32A382 0xAB STATICCALL PUSH26 0x16BD801A012CCF80093BC59C388E64736F6C634300080C003300 ",
  "sha1": "c89367a82d24112c2ce0f674fc278d3a27c5b45d",
  "source": "pragma solidity ^0.8.0;\n// SPDX-License-Identifier: Unlicensed\n\n\nimport \"./interfaces/IERC20.sol\";\nimport \"./interfaces/IERC165.sol\";\nimport \"./interfaces/IERC721.sol\";\nimport \"./interfaces/IERC721Enumerable.sol\";\n//import \"./helpers/base64.sol\";\nimport './helpers/ERC721A.sol';\nimport './helpers/ERC721.sol';\nimport './helpers/ERC165.sol';\nimport './helpers/Ownable.sol';\nimport './helpers/Context.sol';\nimport './helpers/ReentrancyGuard.sol';\nimport './helpers/ERC2981Collection.sol';\nimport './libraries/Strings.sol';\nimport './libraries/Address.sol';\n\n\n//contract BMMultipass is ERC721Enumerable, ReentrancyGuard, Ownable {\ncontract Governance is ReentrancyGuard, Ownable {\n\n//    IERC20  ecosystemTokens;\n    IERC721 ecosystemNFTs;\n\n    // the value stored here is shifted over by one because 0 means no vote, 1 means voting for slot 0\n    mapping (uint256 => mapping (uint256 => uint256)) public proposalToNFTVotes;\n\n    // used to find active tasks\n    struct TaskType {\n        mapping (address => uint256) lastActiveTimestamp; // for recurring tasks -- todo -- add waitTime or ...\n        string IPFSHash; // holds description\n        bool paused;\n        uint40 proposalID; // proposal ID or 0 if task\n        uint40 begTimestamp;\n        uint40 endTimestamp;\n        // max activity; current activity\n    }\n\n    struct Task {\n        string IPFSHash; // holds description\n        uint40 NFTID;\n        bytes32 hash; // hashed input to be validated\n        uint8 numFieldsToHash;\n        uint24 timeBonus; // in seconds\n    }\n\n    struct Proposal {\n        string IPFSHash;\n        uint16 numberOfOptions;\n        uint16[8] votes;\n        uint40 totalVotes;\n        uint40 begTimestamp;\n        uint40 endTimestamp;\n    }\n\n\n    TaskType[] public taskTypes;\n    Task[] public tasks;\n\n    mapping (uint256 => Proposal) public proposals;\n    uint256 totalProposals;\n\n\n    /////////////////////////////\n    //////  Get Functions ///////\n    /////////////////////////////\n\n    function getVotes(uint256 proposalID) external view returns (uint16[] memory) {\n        require(proposalID < totalProposals, \"no such proposal\");\n        uint16[] memory voteArray = new uint16[](proposals[proposalID].numberOfOptions);\n        for(uint256 i = 0; i< voteArray.length; i++){\n            voteArray[i] = proposals[proposalID].votes[i];\n        }\n        return voteArray;\n    }\n\n    function getWinningVote(uint256 proposalID) external view returns (uint256 ) {\n        require(proposalID < totalProposals, \"no such proposal\");\n        require( block.timestamp > proposals[proposalID].endTimestamp, \"voting still active\"); // todo -- end voting only on time? Or, what?\n        // todo -- is there a need to win by a certain percent?\n        uint256 winningVote;\n        uint256 winningVoteAmount;\n        uint256 tie=0;\n        for(uint256 i=0; i< proposals[proposalID].numberOfOptions; i++){ // start at 1 as 0 means no vote???\n            if(proposals[proposalID].votes[i] > winningVoteAmount) {\n                winningVoteAmount = proposals[proposalID].votes[i];\n                winningVote = i;\n                if (tie==1) { tie = 0;}\n            }\n            else if(proposals[proposalID].votes[i] == winningVoteAmount){\n                tie=1;\n            }\n        }\n        require(tie==0, \"there was a tie.\");\n        return winningVote;\n    }\n\n\n    function getMyAvailableTaskTypes() external view returns (string[] memory) {\n        uint256 count;\n        for(uint256 i=0; i< taskTypes.length;){\n            if(taskTypes[i].lastActiveTimestamp[msg.sender] < block.timestamp){ // && taskTypes[i].begTimestamp <= block.timestamp && taskTypes[i].endTimestamp > block.timestamp) {\n                unchecked{++count;}\n            }\n            else {\n                string[] memory myReturn= new string[](1);\n                myReturn[0] = \"No luck.\";\n                return myReturn;\n            }\n            unchecked{++i;}\n        }\n\n        string[] memory myTasks = new string[](count);\n        uint256 counter = 0;\n        for(uint256 i=0; i< taskTypes.length;){\n            if(taskTypes[i].lastActiveTimestamp[msg.sender] < block.timestamp && taskTypes[i].begTimestamp < block.timestamp && taskTypes[i].endTimestamp > block.timestamp) {\n                myTasks[i] = taskTypes[i].IPFSHash;\n                unchecked{++counter;}\n                if(counter >= count) {\n                    break;\n                }\n            }\n            unchecked{++i;}\n        }\n        return myTasks;\n    }\n\n\n    /////////////////////////////\n    //////  Set Functions ///////\n    /////////////////////////////\n\n    function setNFTAddress(address _addy) external onlyOwner {\n        ecosystemNFTs = IERC721(_addy);\n    }\n\n//    function setERC20Address(address _addy) external onlyOwner {\n//        ecosystemTokens = IERC20(_addy);\n//    }\n\n    //////////////////////////////\n    //////  Main Functions ///////\n    //////////////////////////////\n\n    /** @dev Constructor for HOADAO\n        @param _nft -- contract address for NFTs\n      */\n    constructor(address _nft){\n//        ecosystemTokens = IERC20(_erc20);\n        ecosystemNFTs = IERC721(_nft);\n\n//        contractSettings = ContractSettings({\n//        });\n\n    }\n\n    // Required to receive ETH\n    receive() external payable {\n    }\n\n    function vote(uint256 proposalID, uint256 NFTID, uint256 _vote) external onlyMember {\n        require(proposalID < totalProposals, \"no such proposal\");\n        require(ecosystemNFTs.ownerOf(NFTID)==msg.sender, \"not owner of NFT\");\n        require(proposalToNFTVotes[proposalID][NFTID]==0, \"already voted\");\n        require(_vote!=0 && _vote <= proposals[proposalID].numberOfOptions);\n        require(block.timestamp < proposals[proposalID].endTimestamp);\n        proposalToNFTVotes[proposalID][NFTID] = _vote + 1; // vote reference shifted by one\n        proposals[proposalID].votes[_vote] += 1; // increment votes\n        proposals[proposalID].totalVotes += 1;\n    }\n\n    function createProposal(string calldata _IPFSHash, uint16 _numberOfOptions, uint40 _begTimestamp, uint40 _endTimestamp) external onlyBoard {\n        require(_numberOfOptions > 1 && _numberOfOptions < 257, \"invalid number of options\");\n        totalProposals += 1; // keep nothing at 0\n        Proposal storage myProposal = proposals[totalProposals];\n            myProposal.begTimestamp = _begTimestamp;\n            myProposal.endTimestamp = _endTimestamp;\n            myProposal.numberOfOptions = _numberOfOptions;\n            myProposal.IPFSHash = _IPFSHash;\n\n        _createTaskType(_IPFSHash, uint40(totalProposals), _begTimestamp, _endTimestamp);\n        // todo --  emit event\n    }\n\n    function createTaskType(string calldata _IPFSHash, uint40 _begTimestamp, uint40 _endTimestamp) external onlyBoard {\n        _createTaskType(_IPFSHash, 0, _begTimestamp, _endTimestamp);\n    }\n\n    function _createTaskType(string calldata _IPFSHash, uint40 _proposalID, uint40 _begTimestamp, uint40 _endTimestamp) internal {\n        uint256 taskTypesLength = taskTypes.length;\n        taskTypes.push();\n        TaskType storage newTaskType = taskTypes[taskTypesLength];\n            newTaskType.IPFSHash =_IPFSHash;\n            newTaskType.paused = false;\n            newTaskType.proposalID = _proposalID;\n            newTaskType.begTimestamp = _begTimestamp;\n            newTaskType.endTimestamp = _endTimestamp;\n\n        // todo --  emit event\n    }\n    //////////////////////\n    ////// Modifiers /////\n    //////////////////////\n\n    modifier onlyAdmin() {\n        require(false,'Must be admin');\n        _;\n    }\n\n    modifier onlyNFTOwner() {\n        require(false,'Must be admin');\n        _;\n    }\n\n    modifier onlyLessee() {\n        require(false,'Must be lessee');\n        _;\n    }\n\n    modifier onlyMember() { // todo -- onlyMember\n        require(false,'Must be member');\n        _;\n    }\n\n    modifier onlyBoard() {\n        require(true,'Must be on the board'); // todo -- onlyBoard\n        _;\n    }\n\n\n\n\n\n}",
  "sourcePath": "contracts/Governance.sol",
  "type": "contract"
}