{
  "abi": [
    {
      "inputs": [
        {
          "internalType": "address",
          "name": "_ecosystemToken",
          "type": "address"
        },
        {
          "internalType": "address",
          "name": "_wizardNFT",
          "type": "address"
        },
        {
          "internalType": "address",
          "name": "_wizardTower",
          "type": "address"
        }
      ],
      "stateMutability": "nonpayable",
      "type": "constructor"
    },
    {
      "anonymous": false,
      "inputs": [
        {
          "indexed": false,
          "internalType": "uint256",
          "name": "attackerId",
          "type": "uint256"
        },
        {
          "indexed": false,
          "internalType": "uint256",
          "name": "defenderId",
          "type": "uint256"
        },
        {
          "indexed": false,
          "internalType": "uint256",
          "name": "floorAttacked",
          "type": "uint256"
        },
        {
          "indexed": false,
          "internalType": "uint256",
          "name": "netTokensGainedOrLost",
          "type": "uint256"
        },
        {
          "indexed": false,
          "internalType": "enum Wizards.OUTCOME",
          "name": "outcome",
          "type": "uint8"
        },
        {
          "indexed": false,
          "internalType": "uint256",
          "name": "timestamp",
          "type": "uint256"
        }
      ],
      "name": "Attack",
      "type": "event"
    },
    {
      "anonymous": false,
      "inputs": [
        {
          "indexed": false,
          "internalType": "uint256",
          "name": "captured",
          "type": "uint256"
        },
        {
          "indexed": false,
          "internalType": "uint256",
          "name": "capturer",
          "type": "uint256"
        },
        {
          "indexed": false,
          "internalType": "uint256",
          "name": "timestamp",
          "type": "uint256"
        }
      ],
      "name": "Capture",
      "type": "event"
    },
    {
      "anonymous": false,
      "inputs": [
        {
          "indexed": true,
          "internalType": "address",
          "name": "previousOwner",
          "type": "address"
        },
        {
          "indexed": true,
          "internalType": "address",
          "name": "newOwner",
          "type": "address"
        }
      ],
      "name": "OwnershipTransferred",
      "type": "event"
    },
    {
      "inputs": [
        {
          "internalType": "uint256",
          "name": "_attackerId",
          "type": "uint256"
        },
        {
          "internalType": "uint256",
          "name": "_floor",
          "type": "uint256"
        }
      ],
      "name": "attack",
      "outputs": [],
      "stateMutability": "payable",
      "type": "function"
    },
    {
      "inputs": [
        {
          "internalType": "uint256",
          "name": "_attackerId",
          "type": "uint256"
        },
        {
          "internalType": "uint256",
          "name": "_defenderId",
          "type": "uint256"
        }
      ],
      "name": "battle",
      "outputs": [
        {
          "internalType": "enum Wizards.OUTCOME",
          "name": "",
          "type": "uint8"
        }
      ],
      "stateMutability": "view",
      "type": "function"
    },
    {
      "inputs": [],
      "name": "owner",
      "outputs": [
        {
          "internalType": "address",
          "name": "",
          "type": "address"
        }
      ],
      "stateMutability": "view",
      "type": "function"
    },
    {
      "inputs": [],
      "name": "renounceOwnership",
      "outputs": [],
      "stateMutability": "nonpayable",
      "type": "function"
    },
    {
      "inputs": [
        {
          "internalType": "address",
          "name": "newOwner",
          "type": "address"
        }
      ],
      "name": "transferOwnership",
      "outputs": [],
      "stateMutability": "nonpayable",
      "type": "function"
    },
    {
      "inputs": [],
      "name": "withdraw",
      "outputs": [],
      "stateMutability": "nonpayable",
      "type": "function"
    }
  ],
  "bytecode": "608060405261271060025561012c6006556103e86007556127106008553480156200002957600080fd5b5060405162001a8b38038062001a8b8339810160408190526200004c916200010b565b62000057336200009e565b60018055600380546001600160a01b039485166001600160a01b03199182161790915560048054938516938216939093179092556005805491909316911617905562000155565b600080546001600160a01b038381166001600160a01b0319831681178455604051919092169283917f8be0079c531659141344cd1fd0a4f28419497f9722a3daafe3b4186f6b6457e09190a35050565b80516001600160a01b03811681146200010657600080fd5b919050565b6000806000606084860312156200012157600080fd5b6200012c84620000ee565b92506200013c60208501620000ee565b91506200014c60408501620000ee565b90509250925092565b61192680620001656000396000f3fe6080604052600436106100555760003560e01c80632a0c52211461005a5780633ccfd60b14610090578063715018a6146100a75780638da5cb5b146100bc578063e1fa7638146100e4578063f2fde38b146100f7575b600080fd5b34801561006657600080fd5b5061007a6100753660046114f2565b610117565b604051610087919061154c565b60405180910390f35b34801561009c57600080fd5b506100a56106fd565b005b3480156100b357600080fd5b506100a5610859565b3480156100c857600080fd5b506000546040516001600160a01b039091168152602001610087565b6100a56100f23660046114f2565b61088f565b34801561010357600080fd5b506100a561011236600461156f565b61140e565b60055460405163429c7ea160e11b81526004810183905260009182916001600160a01b0390911690638538fd4290602401608060405180830381865afa158015610165573d6000803e3d6000fd5b505050506040513d601f19601f8201168201806040525081019061018991906115f1565b6060810151604080518082019182905260045463119644a360e31b90925260448101889052929350909160009181906001600160a01b0316638cb22518606483016101c060405180830381865afa1580156101e8573d6000803e3d6000fd5b505050506040513d601f19601f8201168201806040525081019061020c9190611688565b81526004805460405163119644a360e31b81529182018990526020909201916001600160a01b031690638cb22518906024016101c060405180830381865afa15801561025c573d6000803e3d6000fd5b505050506040513d601f19601f820116820180604052508101906102809190611688565b90526004805460405163119644a360e31b81529182018990529192506000916001600160a01b031690638cb22518906024016101c060405180830381865afa1580156102d0573d6000803e3d6000fd5b505050506040513d601f19601f820116820180604052508101906102f49190611688565b6004805460405163119644a360e31b81529182018990529192506000916001600160a01b031690638cb22518906024016101c060405180830381865afa158015610342573d6000803e3d6000fd5b505050506040513d601f19601f820116820180604052508101906103669190611688565b6020868101516040513360601b6bffffffffffffffffffffffff191692810192909252426034830152605482018b905260d81b6001600160d81b03191660748201529091506000906079016040516020818303038152906040528051906020012060001c9050600080836080015185608001516103e39190611758565b6103ed9084611786565b9050600883901c9250846080015181111561040757600191505b600060405180604001604052806104418960006002811061042a5761042a61179a565b60200201516101a001518a60015b50606492915050565b8a600381111561045357610453611514565b8a516101a00151600381111561046b5761046b611514565b1461047757606461047a565b607d5b60ff1661048791906117b0565b81526020016104a489600160200201516101a001518a6000610438565b8a60038111156104b6576104b6611514565b60208b01516101a0015160038111156104d1576104d1611514565b146104dd5760646104e0565b607d5b60ff166104ed91906117b0565b9052905060008080805b60148110156106a5578760ff169250600c8311610515576000610517565b825b92508615610526576000610529565b60015b60ff16915082156105b0576102006105426004856117cf565b61054e90610180611758565b612710878a600281106105635761056361179a565b60200201518e8b6002811061057a5761057a61179a565b60200201516040015161058d91906117b0565b61059791906117cf565b6105a191906117b0565b6105ab91906117cf565b6105b3565b60005b93508a82600281106105c7576105c761179a565b60200201516060015184116105dd576000610602565b8a82600281106105ef576105ef61179a565b60200201516060015161060290856117e3565b93508a82600281106106165761061661179a565b602002015160200151841161065057838b83600281106106385761063861179a565b60200201516020015161064b91906117e3565b610653565b60005b8b83600281106106655761066561179a565b602002015160200181815250508a82600281106106845761068461179a565b6020020151602001516000141561069a576106a5565b9095906001016104f7565b508951602001516106c55760009c505050505050505050505050506106f7565b6020808b015101516106e65760019c505050505050505050505050506106f7565b60029c505050505050505050505050505b92915050565b6000546001600160a01b031633146107305760405162461bcd60e51b8152600401610727906117fa565b60405180910390fd5b600480546040516370a0823160e01b815230928101929092526000916001600160a01b03909116906370a0823190602401602060405180830381865afa15801561077e573d6000803e3d6000fd5b505050506040513d601f19601f820116820180604052508101906107a2919061182f565b60035460405163a9059cbb60e01b8152336004820152602481018390529192506001600160a01b03169063a9059cbb906044016020604051808303816000875af11580156107f4573d6000803e3d6000fd5b505050506040513d601f19601f820116820180604052508101906108189190611848565b6108565760405162461bcd60e51b815260206004820152600f60248201526e1d1c985b9cd9995c8819985a5b1959608a1b6044820152606401610727565b50565b6000546001600160a01b031633146108835760405162461bcd60e51b8152600401610727906117fa565b61088d60006114a2565b565b600260015414156108e25760405162461bcd60e51b815260206004820152601f60248201527f5265656e7472616e637947756172643a207265656e7472616e742063616c6c006044820152606401610727565b60026001553332146109365760405162461bcd60e51b815260206004820152601960248201527f63616e206e6f742063616c6c2076696120636f6e7472616374000000000000006044820152606401610727565b600480546040516331a9108f60e11b815291820184905233916001600160a01b0390911690636352211e90602401602060405180830381865afa158015610981573d6000803e3d6000fd5b505050506040513d601f19601f820116820180604052508101906109a5919061186a565b6001600160a01b0316146109f05760405162461bcd60e51b815260206004820152601260248201527136bab9ba1031329027232a103437b63232b960711b6044820152606401610727565b600554604051631d828f8360e31b8152600481018490526001600160a01b039091169063ec147c1890602401602060405180830381865afa158015610a39573d6000803e3d6000fd5b505050506040513d601f19601f82011682018060405250810190610a5d9190611848565b610aa95760405162461bcd60e51b815260206004820152601d60248201527f61747461636b6572206d757374206265206f6e2074686520746f7765720000006044820152606401610727565b600480546040516382afd23b60e01b81529182018490526001600160a01b0316906382afd23b90602401602060405180830381865afa158015610af0573d6000803e3d6000fd5b505050506040513d601f19601f82011682018060405250810190610b149190611848565b610b515760405162461bcd60e51b815260206004820152600e60248201526d6d7573742062652061637469766560901b6044820152606401610727565b600560009054906101000a90046001600160a01b03166001600160a01b0316633cdd03986040518163ffffffff1660e01b8152600401602060405180830381865afa158015610ba4573d6000803e3d6000fd5b505050506040513d601f19601f82011682018060405250810190610bc8919061182f565b8111158015610bd657508015155b610c155760405162461bcd60e51b815260206004820152601060248201526f36bab9ba103b30b634b210333637b7b960811b6044820152606401610727565b6005546040516301038d3760e61b8152600481018390526000916001600160a01b0316906340e34dc090602401602060405180830381865afa158015610c5f573d6000803e3d6000fd5b505050506040513d601f19601f82011682018060405250810190610c83919061182f565b60055460405163944d934b60e01b8152600481018590529192506000916001600160a01b039091169063944d934b90602401602060405180830381865afa158015610cd2573d6000803e3d6000fd5b505050506040513d601f19601f82011682018060405250810190610cf6919061182f565b6005546040516395ac8af960e01b815260048101879052919250612710916000916001600160a01b0316906395ac8af990602401602060405180830381865afa158015610d47573d6000803e3d6000fd5b505050506040513d601f19601f82011682018060405250810190610d6b919061182f565b90503461271060075484610d7f91906117b0565b610d8991906117cf565b1115610dd75760405162461bcd60e51b815260206004820152601c60248201527f696e737566666369656e7420746f6b656e7320746f2061747461636b000000006044820152606401610727565b600060085461271060075485610ded91906117b0565b610df791906117cf565b610e0190346117e3565b1115610e7557600754339061271090610e1a90866117b0565b610e2491906117cf565b610e2e90346117e3565b604051600081818185875af1925050503d8060008114610e6a576040519150601f19603f3d011682016040523d82523d6000602084013e610e6f565b606091505b50909150505b600480546040516331a9108f60e11b81529182018790526001600160a01b031690636352211e90602401602060405180830381865afa158015610ebc573d6000803e3d6000fd5b505050506040513d601f19601f82011682018060405250810190610ee0919061186a565b6001600160a01b03166305f5e100600654612710610efe91906117e3565b600754610f0b90876117b0565b610f1591906117b0565b610f1f91906117cf565b604051600081818185875af1925050503d8060008114610f5b576040519150601f19603f3d011682016040523d82523d6000602084013e610f60565b606091505b5050600480546040516382afd23b60e01b81529182018890529192506000916001600160a01b0316906382afd23b90602401602060405180830381865afa158015610faf573d6000803e3d6000fd5b505050506040513d601f19601f82011682018060405250810190610fd39190611848565b610fdf57506003610fec565b610fe98887610117565b90505b600081600381111561100057611000611514565b146112145760085460055460405163944d934b60e01b8152600481018690526001600160a01b039091169063944d934b90602401602060405180830381865afa158015611051573d6000803e3d6000fd5b505050506040513d601f19601f82011682018060405250810190611075919061182f565b11156110da57600554604051632e1a7d4d60e01b8152600481018590526001600160a01b0390911690632e1a7d4d90602401600060405180830381600087803b1580156110c157600080fd5b505af11580156110d5573d6000803e3d6000fd5b505050505b6005546040516322a7d0a160e21b815260048101859052602481018990526001600160a01b0390911690638a9f428490604401600060405180830381600087803b15801561112757600080fd5b505af115801561113b573d6000803e3d6000fd5b505060085460055460405163944d934b60e01b8152600481018c90529193506001600160a01b0316915063944d934b90602401602060405180830381865afa15801561118b573d6000803e3d6000fd5b505050506040513d601f19601f820116820180604052508101906111af919061182f565b111561121457600554604051632e1a7d4d60e01b8152600481018990526001600160a01b0390911690632e1a7d4d90602401600060405180830381600087803b1580156111fb57600080fd5b505af115801561120f573d6000803e3d6000fd5b505050505b600381600381111561122857611228611514565b14156112cd57600554604051639a0e6a8560e01b8152600481018590526001600160a01b0390911690639a0e6a8590602401600060405180830381600087803b15801561127457600080fd5b505af1158015611288573d6000803e3d6000fd5b505060408051898152602081018c9052428183015290517f5f989fecf13aa707e68db673d1132d1f4b5270253e425424e51171e63a34113d9350908190036060019150a15b60048054604051638140bd0b60e01b81526001600160a01b0390911691638140bd0b91611304918c918b9187918c91349101611887565b600060405180830381600087803b15801561131e57600080fd5b505af1158015611332573d6000803e3d6000fd5b5060009250600191506113429050565b82600381111561135457611354611514565b14806113715750600382600381111561136f5761136f611514565b145b611395576127106007548661138691906117b0565b61139091906117cf565b6113bc565b6127106007546127106113a891906117e3565b6113b290886117b0565b6113bc91906117cf565b90507fa0d8233eed567b022ede33ab83dc1f512e739350019f844a668485e59bd2110189888a8486426040516113f7969594939291906118b5565b60405180910390a150506001805550505050505050565b6000546001600160a01b031633146114385760405162461bcd60e51b8152600401610727906117fa565b6001600160a01b03811661149d5760405162461bcd60e51b815260206004820152602660248201527f4f776e61626c653a206e6577206f776e657220697320746865207a65726f206160448201526564647265737360d01b6064820152608401610727565b610856815b600080546001600160a01b038381166001600160a01b0319831681178455604051919092169283917f8be0079c531659141344cd1fd0a4f28419497f9722a3daafe3b4186f6b6457e09190a35050565b6000806040838503121561150557600080fd5b50508035926020909101359150565b634e487b7160e01b600052602160045260246000fd5b6004811061154857634e487b7160e01b600052602160045260246000fd5b9052565b602081016106f7828461152a565b6001600160a01b038116811461085657600080fd5b60006020828403121561158157600080fd5b813561158c8161155a565b9392505050565b6040516101c0810167ffffffffffffffff811182821017156115c557634e487b7160e01b600052604160045260246000fd5b60405290565b805161ffff811681146115dd57600080fd5b919050565b8051600481106115dd57600080fd5b60006080828403121561160357600080fd5b6040516080810181811067ffffffffffffffff8211171561163457634e487b7160e01b600052604160045260246000fd5b604052611640836115cb565b8152602083015164ffffffffff8116811461165a57600080fd5b602082015261166b604084016115cb565b604082015261167c606084016115e2565b60608201529392505050565b60006101c0828403121561169b57600080fd5b6116a3611593565b825181526020830151602082015260408301516040820152606083015160608201526080830151608082015260a083015160a082015260c083015160c082015260e083015160e08201526101008084015181830152506101208084015181830152506101408084015181830152506101608084015181830152506101808084015181830152506101a06117378185016115e2565b908201529392505050565b634e487b7160e01b600052601160045260246000fd5b6000821982111561176b5761176b611742565b500190565b634e487b7160e01b600052601260045260246000fd5b60008261179557611795611770565b500690565b634e487b7160e01b600052603260045260246000fd5b60008160001904831182151516156117ca576117ca611742565b500290565b6000826117de576117de611770565b500490565b6000828210156117f5576117f5611742565b500390565b6020808252818101527f4f776e61626c653a2063616c6c6572206973206e6f7420746865206f776e6572604082015260600190565b60006020828403121561184157600080fd5b5051919050565b60006020828403121561185a57600080fd5b8151801515811461158c57600080fd5b60006020828403121561187c57600080fd5b815161158c8161155a565b8581526020810185905260a081016118a2604083018661152a565b6060820193909352608001529392505050565b600060c0820190508782528660208301528560408301528460608301526118df608083018561152a565b8260a083015297965050505050505056fea2646970667358221220eaad82e34dbcc44ed58b9cca1a0c65872894706ba4dbdac4873512613f027b1a64736f6c634300080c0033",
  "bytecodeSha1": "c0c7d95407c2e466cde79f36834ee362fc89c7bb",
  "compiler": {
    "evm_version": "istanbul",
    "optimizer": {
      "enabled": true,
      "runs": 200
    },
    "version": "0.8.12+commit.f00d7308"
  },
  "contractName": "WizardBattle",
  "language": "Solidity",
  "natspec": {
    "kind": "dev",
    "methods": {
      "owner()": {
        "details": "Returns the address of the current owner."
      },
      "renounceOwnership()": {
        "details": "Leaves the contract without owner. It will not be possible to call `onlyOwner` functions anymore. Can only be called by the current owner. NOTE: Renouncing ownership will leave the contract without an owner, thereby removing any functionality that is only available to the owner."
      },
      "transferOwnership(address)": {
        "details": "Transfers ownership of the contract to a new account (`newOwner`). Can only be called by the current owner."
      }
    },
    "version": 1
  },
  "opcodes": "PUSH1 0x80 PUSH1 0x40 MSTORE PUSH1 0x4 CALLDATASIZE LT PUSH2 0x55 JUMPI PUSH1 0x0 CALLDATALOAD PUSH1 0xE0 SHR DUP1 PUSH4 0x2A0C5221 EQ PUSH2 0x5A JUMPI DUP1 PUSH4 0x3CCFD60B EQ PUSH2 0x90 JUMPI DUP1 PUSH4 0x715018A6 EQ PUSH2 0xA7 JUMPI DUP1 PUSH4 0x8DA5CB5B EQ PUSH2 0xBC JUMPI DUP1 PUSH4 0xE1FA7638 EQ PUSH2 0xE4 JUMPI DUP1 PUSH4 0xF2FDE38B EQ PUSH2 0xF7 JUMPI JUMPDEST PUSH1 0x0 DUP1 REVERT JUMPDEST CALLVALUE DUP1 ISZERO PUSH2 0x66 JUMPI PUSH1 0x0 DUP1 REVERT JUMPDEST POP PUSH2 0x7A PUSH2 0x75 CALLDATASIZE PUSH1 0x4 PUSH2 0x14F2 JUMP JUMPDEST PUSH2 0x117 JUMP JUMPDEST PUSH1 0x40 MLOAD PUSH2 0x87 SWAP2 SWAP1 PUSH2 0x154C JUMP JUMPDEST PUSH1 0x40 MLOAD DUP1 SWAP2 SUB SWAP1 RETURN JUMPDEST CALLVALUE DUP1 ISZERO PUSH2 0x9C JUMPI PUSH1 0x0 DUP1 REVERT JUMPDEST POP PUSH2 0xA5 PUSH2 0x6FD JUMP JUMPDEST STOP JUMPDEST CALLVALUE DUP1 ISZERO PUSH2 0xB3 JUMPI PUSH1 0x0 DUP1 REVERT JUMPDEST POP PUSH2 0xA5 PUSH2 0x859 JUMP JUMPDEST CALLVALUE DUP1 ISZERO PUSH2 0xC8 JUMPI PUSH1 0x0 DUP1 REVERT JUMPDEST POP PUSH1 0x0 SLOAD PUSH1 0x40 MLOAD PUSH1 0x1 PUSH1 0x1 PUSH1 0xA0 SHL SUB SWAP1 SWAP2 AND DUP2 MSTORE PUSH1 0x20 ADD PUSH2 0x87 JUMP JUMPDEST PUSH2 0xA5 PUSH2 0xF2 CALLDATASIZE PUSH1 0x4 PUSH2 0x14F2 JUMP JUMPDEST PUSH2 0x88F JUMP JUMPDEST CALLVALUE DUP1 ISZERO PUSH2 0x103 JUMPI PUSH1 0x0 DUP1 REVERT JUMPDEST POP PUSH2 0xA5 PUSH2 0x112 CALLDATASIZE PUSH1 0x4 PUSH2 0x156F JUMP JUMPDEST PUSH2 0x140E JUMP JUMPDEST PUSH1 0x5 SLOAD PUSH1 0x40 MLOAD PUSH4 0x429C7EA1 PUSH1 0xE1 SHL DUP2 MSTORE PUSH1 0x4 DUP2 ADD DUP4 SWAP1 MSTORE PUSH1 0x0 SWAP2 DUP3 SWAP2 PUSH1 0x1 PUSH1 0x1 PUSH1 0xA0 SHL SUB SWAP1 SWAP2 AND SWAP1 PUSH4 0x8538FD42 SWAP1 PUSH1 0x24 ADD PUSH1 0x80 PUSH1 0x40 MLOAD DUP1 DUP4 SUB DUP2 DUP7 GAS STATICCALL ISZERO DUP1 ISZERO PUSH2 0x165 JUMPI RETURNDATASIZE PUSH1 0x0 DUP1 RETURNDATACOPY RETURNDATASIZE PUSH1 0x0 REVERT JUMPDEST POP POP POP POP PUSH1 0x40 MLOAD RETURNDATASIZE PUSH1 0x1F NOT PUSH1 0x1F DUP3 ADD AND DUP3 ADD DUP1 PUSH1 0x40 MSTORE POP DUP2 ADD SWAP1 PUSH2 0x189 SWAP2 SWAP1 PUSH2 0x15F1 JUMP JUMPDEST PUSH1 0x60 DUP2 ADD MLOAD PUSH1 0x40 DUP1 MLOAD DUP1 DUP3 ADD SWAP2 DUP3 SWAP1 MSTORE PUSH1 0x4 SLOAD PUSH4 0x119644A3 PUSH1 0xE3 SHL SWAP1 SWAP3 MSTORE PUSH1 0x44 DUP2 ADD DUP9 SWAP1 MSTORE SWAP3 SWAP4 POP SWAP1 SWAP2 PUSH1 0x0 SWAP2 DUP2 SWAP1 PUSH1 0x1 PUSH1 0x1 PUSH1 0xA0 SHL SUB AND PUSH4 0x8CB22518 PUSH1 0x64 DUP4 ADD PUSH2 0x1C0 PUSH1 0x40 MLOAD DUP1 DUP4 SUB DUP2 DUP7 GAS STATICCALL ISZERO DUP1 ISZERO PUSH2 0x1E8 JUMPI RETURNDATASIZE PUSH1 0x0 DUP1 RETURNDATACOPY RETURNDATASIZE PUSH1 0x0 REVERT JUMPDEST POP POP POP POP PUSH1 0x40 MLOAD RETURNDATASIZE PUSH1 0x1F NOT PUSH1 0x1F DUP3 ADD AND DUP3 ADD DUP1 PUSH1 0x40 MSTORE POP DUP2 ADD SWAP1 PUSH2 0x20C SWAP2 SWAP1 PUSH2 0x1688 JUMP JUMPDEST DUP2 MSTORE PUSH1 0x4 DUP1 SLOAD PUSH1 0x40 MLOAD PUSH4 0x119644A3 PUSH1 0xE3 SHL DUP2 MSTORE SWAP2 DUP3 ADD DUP10 SWAP1 MSTORE PUSH1 0x20 SWAP1 SWAP3 ADD SWAP2 PUSH1 0x1 PUSH1 0x1 PUSH1 0xA0 SHL SUB AND SWAP1 PUSH4 0x8CB22518 SWAP1 PUSH1 0x24 ADD PUSH2 0x1C0 PUSH1 0x40 MLOAD DUP1 DUP4 SUB DUP2 DUP7 GAS STATICCALL ISZERO DUP1 ISZERO PUSH2 0x25C JUMPI RETURNDATASIZE PUSH1 0x0 DUP1 RETURNDATACOPY RETURNDATASIZE PUSH1 0x0 REVERT JUMPDEST POP POP POP POP PUSH1 0x40 MLOAD RETURNDATASIZE PUSH1 0x1F NOT PUSH1 0x1F DUP3 ADD AND DUP3 ADD DUP1 PUSH1 0x40 MSTORE POP DUP2 ADD SWAP1 PUSH2 0x280 SWAP2 SWAP1 PUSH2 0x1688 JUMP JUMPDEST SWAP1 MSTORE PUSH1 0x4 DUP1 SLOAD PUSH1 0x40 MLOAD PUSH4 0x119644A3 PUSH1 0xE3 SHL DUP2 MSTORE SWAP2 DUP3 ADD DUP10 SWAP1 MSTORE SWAP2 SWAP3 POP PUSH1 0x0 SWAP2 PUSH1 0x1 PUSH1 0x1 PUSH1 0xA0 SHL SUB AND SWAP1 PUSH4 0x8CB22518 SWAP1 PUSH1 0x24 ADD PUSH2 0x1C0 PUSH1 0x40 MLOAD DUP1 DUP4 SUB DUP2 DUP7 GAS STATICCALL ISZERO DUP1 ISZERO PUSH2 0x2D0 JUMPI RETURNDATASIZE PUSH1 0x0 DUP1 RETURNDATACOPY RETURNDATASIZE PUSH1 0x0 REVERT JUMPDEST POP POP POP POP PUSH1 0x40 MLOAD RETURNDATASIZE PUSH1 0x1F NOT PUSH1 0x1F DUP3 ADD AND DUP3 ADD DUP1 PUSH1 0x40 MSTORE POP DUP2 ADD SWAP1 PUSH2 0x2F4 SWAP2 SWAP1 PUSH2 0x1688 JUMP JUMPDEST PUSH1 0x4 DUP1 SLOAD PUSH1 0x40 MLOAD PUSH4 0x119644A3 PUSH1 0xE3 SHL DUP2 MSTORE SWAP2 DUP3 ADD DUP10 SWAP1 MSTORE SWAP2 SWAP3 POP PUSH1 0x0 SWAP2 PUSH1 0x1 PUSH1 0x1 PUSH1 0xA0 SHL SUB AND SWAP1 PUSH4 0x8CB22518 SWAP1 PUSH1 0x24 ADD PUSH2 0x1C0 PUSH1 0x40 MLOAD DUP1 DUP4 SUB DUP2 DUP7 GAS STATICCALL ISZERO DUP1 ISZERO PUSH2 0x342 JUMPI RETURNDATASIZE PUSH1 0x0 DUP1 RETURNDATACOPY RETURNDATASIZE PUSH1 0x0 REVERT JUMPDEST POP POP POP POP PUSH1 0x40 MLOAD RETURNDATASIZE PUSH1 0x1F NOT PUSH1 0x1F DUP3 ADD AND DUP3 ADD DUP1 PUSH1 0x40 MSTORE POP DUP2 ADD SWAP1 PUSH2 0x366 SWAP2 SWAP1 PUSH2 0x1688 JUMP JUMPDEST PUSH1 0x20 DUP7 DUP2 ADD MLOAD PUSH1 0x40 MLOAD CALLER PUSH1 0x60 SHL PUSH12 0xFFFFFFFFFFFFFFFFFFFFFFFF NOT AND SWAP3 DUP2 ADD SWAP3 SWAP1 SWAP3 MSTORE TIMESTAMP PUSH1 0x34 DUP4 ADD MSTORE PUSH1 0x54 DUP3 ADD DUP12 SWAP1 MSTORE PUSH1 0xD8 SHL PUSH1 0x1 PUSH1 0x1 PUSH1 0xD8 SHL SUB NOT AND PUSH1 0x74 DUP3 ADD MSTORE SWAP1 SWAP2 POP PUSH1 0x0 SWAP1 PUSH1 0x79 ADD PUSH1 0x40 MLOAD PUSH1 0x20 DUP2 DUP4 SUB SUB DUP2 MSTORE SWAP1 PUSH1 0x40 MSTORE DUP1 MLOAD SWAP1 PUSH1 0x20 ADD KECCAK256 PUSH1 0x0 SHR SWAP1 POP PUSH1 0x0 DUP1 DUP4 PUSH1 0x80 ADD MLOAD DUP6 PUSH1 0x80 ADD MLOAD PUSH2 0x3E3 SWAP2 SWAP1 PUSH2 0x1758 JUMP JUMPDEST PUSH2 0x3ED SWAP1 DUP5 PUSH2 0x1786 JUMP JUMPDEST SWAP1 POP PUSH1 0x8 DUP4 SWAP1 SHR SWAP3 POP DUP5 PUSH1 0x80 ADD MLOAD DUP2 GT ISZERO PUSH2 0x407 JUMPI PUSH1 0x1 SWAP2 POP JUMPDEST PUSH1 0x0 PUSH1 0x40 MLOAD DUP1 PUSH1 0x40 ADD PUSH1 0x40 MSTORE DUP1 PUSH2 0x441 DUP10 PUSH1 0x0 PUSH1 0x2 DUP2 LT PUSH2 0x42A JUMPI PUSH2 0x42A PUSH2 0x179A JUMP JUMPDEST PUSH1 0x20 MUL ADD MLOAD PUSH2 0x1A0 ADD MLOAD DUP11 PUSH1 0x1 JUMPDEST POP PUSH1 0x64 SWAP3 SWAP2 POP POP JUMP JUMPDEST DUP11 PUSH1 0x3 DUP2 GT ISZERO PUSH2 0x453 JUMPI PUSH2 0x453 PUSH2 0x1514 JUMP JUMPDEST DUP11 MLOAD PUSH2 0x1A0 ADD MLOAD PUSH1 0x3 DUP2 GT ISZERO PUSH2 0x46B JUMPI PUSH2 0x46B PUSH2 0x1514 JUMP JUMPDEST EQ PUSH2 0x477 JUMPI PUSH1 0x64 PUSH2 0x47A JUMP JUMPDEST PUSH1 0x7D JUMPDEST PUSH1 0xFF AND PUSH2 0x487 SWAP2 SWAP1 PUSH2 0x17B0 JUMP JUMPDEST DUP2 MSTORE PUSH1 0x20 ADD PUSH2 0x4A4 DUP10 PUSH1 0x1 PUSH1 0x20 MUL ADD MLOAD PUSH2 0x1A0 ADD MLOAD DUP11 PUSH1 0x0 PUSH2 0x438 JUMP JUMPDEST DUP11 PUSH1 0x3 DUP2 GT ISZERO PUSH2 0x4B6 JUMPI PUSH2 0x4B6 PUSH2 0x1514 JUMP JUMPDEST PUSH1 0x20 DUP12 ADD MLOAD PUSH2 0x1A0 ADD MLOAD PUSH1 0x3 DUP2 GT ISZERO PUSH2 0x4D1 JUMPI PUSH2 0x4D1 PUSH2 0x1514 JUMP JUMPDEST EQ PUSH2 0x4DD JUMPI PUSH1 0x64 PUSH2 0x4E0 JUMP JUMPDEST PUSH1 0x7D JUMPDEST PUSH1 0xFF AND PUSH2 0x4ED SWAP2 SWAP1 PUSH2 0x17B0 JUMP JUMPDEST SWAP1 MSTORE SWAP1 POP PUSH1 0x0 DUP1 DUP1 DUP1 JUMPDEST PUSH1 0x14 DUP2 LT ISZERO PUSH2 0x6A5 JUMPI DUP8 PUSH1 0xFF AND SWAP3 POP PUSH1 0xC DUP4 GT PUSH2 0x515 JUMPI PUSH1 0x0 PUSH2 0x517 JUMP JUMPDEST DUP3 JUMPDEST SWAP3 POP DUP7 ISZERO PUSH2 0x526 JUMPI PUSH1 0x0 PUSH2 0x529 JUMP JUMPDEST PUSH1 0x1 JUMPDEST PUSH1 0xFF AND SWAP2 POP DUP3 ISZERO PUSH2 0x5B0 JUMPI PUSH2 0x200 PUSH2 0x542 PUSH1 0x4 DUP6 PUSH2 0x17CF JUMP JUMPDEST PUSH2 0x54E SWAP1 PUSH2 0x180 PUSH2 0x1758 JUMP JUMPDEST PUSH2 0x2710 DUP8 DUP11 PUSH1 0x2 DUP2 LT PUSH2 0x563 JUMPI PUSH2 0x563 PUSH2 0x179A JUMP JUMPDEST PUSH1 0x20 MUL ADD MLOAD DUP15 DUP12 PUSH1 0x2 DUP2 LT PUSH2 0x57A JUMPI PUSH2 0x57A PUSH2 0x179A JUMP JUMPDEST PUSH1 0x20 MUL ADD MLOAD PUSH1 0x40 ADD MLOAD PUSH2 0x58D SWAP2 SWAP1 PUSH2 0x17B0 JUMP JUMPDEST PUSH2 0x597 SWAP2 SWAP1 PUSH2 0x17CF JUMP JUMPDEST PUSH2 0x5A1 SWAP2 SWAP1 PUSH2 0x17B0 JUMP JUMPDEST PUSH2 0x5AB SWAP2 SWAP1 PUSH2 0x17CF JUMP JUMPDEST PUSH2 0x5B3 JUMP JUMPDEST PUSH1 0x0 JUMPDEST SWAP4 POP DUP11 DUP3 PUSH1 0x2 DUP2 LT PUSH2 0x5C7 JUMPI PUSH2 0x5C7 PUSH2 0x179A JUMP JUMPDEST PUSH1 0x20 MUL ADD MLOAD PUSH1 0x60 ADD MLOAD DUP5 GT PUSH2 0x5DD JUMPI PUSH1 0x0 PUSH2 0x602 JUMP JUMPDEST DUP11 DUP3 PUSH1 0x2 DUP2 LT PUSH2 0x5EF JUMPI PUSH2 0x5EF PUSH2 0x179A JUMP JUMPDEST PUSH1 0x20 MUL ADD MLOAD PUSH1 0x60 ADD MLOAD PUSH2 0x602 SWAP1 DUP6 PUSH2 0x17E3 JUMP JUMPDEST SWAP4 POP DUP11 DUP3 PUSH1 0x2 DUP2 LT PUSH2 0x616 JUMPI PUSH2 0x616 PUSH2 0x179A JUMP JUMPDEST PUSH1 0x20 MUL ADD MLOAD PUSH1 0x20 ADD MLOAD DUP5 GT PUSH2 0x650 JUMPI DUP4 DUP12 DUP4 PUSH1 0x2 DUP2 LT PUSH2 0x638 JUMPI PUSH2 0x638 PUSH2 0x179A JUMP JUMPDEST PUSH1 0x20 MUL ADD MLOAD PUSH1 0x20 ADD MLOAD PUSH2 0x64B SWAP2 SWAP1 PUSH2 0x17E3 JUMP JUMPDEST PUSH2 0x653 JUMP JUMPDEST PUSH1 0x0 JUMPDEST DUP12 DUP4 PUSH1 0x2 DUP2 LT PUSH2 0x665 JUMPI PUSH2 0x665 PUSH2 0x179A JUMP JUMPDEST PUSH1 0x20 MUL ADD MLOAD PUSH1 0x20 ADD DUP2 DUP2 MSTORE POP POP DUP11 DUP3 PUSH1 0x2 DUP2 LT PUSH2 0x684 JUMPI PUSH2 0x684 PUSH2 0x179A JUMP JUMPDEST PUSH1 0x20 MUL ADD MLOAD PUSH1 0x20 ADD MLOAD PUSH1 0x0 EQ ISZERO PUSH2 0x69A JUMPI PUSH2 0x6A5 JUMP JUMPDEST SWAP1 SWAP6 SWAP1 PUSH1 0x1 ADD PUSH2 0x4F7 JUMP JUMPDEST POP DUP10 MLOAD PUSH1 0x20 ADD MLOAD PUSH2 0x6C5 JUMPI PUSH1 0x0 SWAP13 POP POP POP POP POP POP POP POP POP POP POP POP POP PUSH2 0x6F7 JUMP JUMPDEST PUSH1 0x20 DUP1 DUP12 ADD MLOAD ADD MLOAD PUSH2 0x6E6 JUMPI PUSH1 0x1 SWAP13 POP POP POP POP POP POP POP POP POP POP POP POP POP PUSH2 0x6F7 JUMP JUMPDEST PUSH1 0x2 SWAP13 POP POP POP POP POP POP POP POP POP POP POP POP POP JUMPDEST SWAP3 SWAP2 POP POP JUMP JUMPDEST PUSH1 0x0 SLOAD PUSH1 0x1 PUSH1 0x1 PUSH1 0xA0 SHL SUB AND CALLER EQ PUSH2 0x730 JUMPI PUSH1 0x40 MLOAD PUSH3 0x461BCD PUSH1 0xE5 SHL DUP2 MSTORE PUSH1 0x4 ADD PUSH2 0x727 SWAP1 PUSH2 0x17FA JUMP JUMPDEST PUSH1 0x40 MLOAD DUP1 SWAP2 SUB SWAP1 REVERT JUMPDEST PUSH1 0x4 DUP1 SLOAD PUSH1 0x40 MLOAD PUSH4 0x70A08231 PUSH1 0xE0 SHL DUP2 MSTORE ADDRESS SWAP3 DUP2 ADD SWAP3 SWAP1 SWAP3 MSTORE PUSH1 0x0 SWAP2 PUSH1 0x1 PUSH1 0x1 PUSH1 0xA0 SHL SUB SWAP1 SWAP2 AND SWAP1 PUSH4 0x70A08231 SWAP1 PUSH1 0x24 ADD PUSH1 0x20 PUSH1 0x40 MLOAD DUP1 DUP4 SUB DUP2 DUP7 GAS STATICCALL ISZERO DUP1 ISZERO PUSH2 0x77E JUMPI RETURNDATASIZE PUSH1 0x0 DUP1 RETURNDATACOPY RETURNDATASIZE PUSH1 0x0 REVERT JUMPDEST POP POP POP POP PUSH1 0x40 MLOAD RETURNDATASIZE PUSH1 0x1F NOT PUSH1 0x1F DUP3 ADD AND DUP3 ADD DUP1 PUSH1 0x40 MSTORE POP DUP2 ADD SWAP1 PUSH2 0x7A2 SWAP2 SWAP1 PUSH2 0x182F JUMP JUMPDEST PUSH1 0x3 SLOAD PUSH1 0x40 MLOAD PUSH4 0xA9059CBB PUSH1 0xE0 SHL DUP2 MSTORE CALLER PUSH1 0x4 DUP3 ADD MSTORE PUSH1 0x24 DUP2 ADD DUP4 SWAP1 MSTORE SWAP2 SWAP3 POP PUSH1 0x1 PUSH1 0x1 PUSH1 0xA0 SHL SUB AND SWAP1 PUSH4 0xA9059CBB SWAP1 PUSH1 0x44 ADD PUSH1 0x20 PUSH1 0x40 MLOAD DUP1 DUP4 SUB DUP2 PUSH1 0x0 DUP8 GAS CALL ISZERO DUP1 ISZERO PUSH2 0x7F4 JUMPI RETURNDATASIZE PUSH1 0x0 DUP1 RETURNDATACOPY RETURNDATASIZE PUSH1 0x0 REVERT JUMPDEST POP POP POP POP PUSH1 0x40 MLOAD RETURNDATASIZE PUSH1 0x1F NOT PUSH1 0x1F DUP3 ADD AND DUP3 ADD DUP1 PUSH1 0x40 MSTORE POP DUP2 ADD SWAP1 PUSH2 0x818 SWAP2 SWAP1 PUSH2 0x1848 JUMP JUMPDEST PUSH2 0x856 JUMPI PUSH1 0x40 MLOAD PUSH3 0x461BCD PUSH1 0xE5 SHL DUP2 MSTORE PUSH1 0x20 PUSH1 0x4 DUP3 ADD MSTORE PUSH1 0xF PUSH1 0x24 DUP3 ADD MSTORE PUSH15 0x1D1C985B9CD9995C8819985A5B1959 PUSH1 0x8A SHL PUSH1 0x44 DUP3 ADD MSTORE PUSH1 0x64 ADD PUSH2 0x727 JUMP JUMPDEST POP JUMP JUMPDEST PUSH1 0x0 SLOAD PUSH1 0x1 PUSH1 0x1 PUSH1 0xA0 SHL SUB AND CALLER EQ PUSH2 0x883 JUMPI PUSH1 0x40 MLOAD PUSH3 0x461BCD PUSH1 0xE5 SHL DUP2 MSTORE PUSH1 0x4 ADD PUSH2 0x727 SWAP1 PUSH2 0x17FA JUMP JUMPDEST PUSH2 0x88D PUSH1 0x0 PUSH2 0x14A2 JUMP JUMPDEST JUMP JUMPDEST PUSH1 0x2 PUSH1 0x1 SLOAD EQ ISZERO PUSH2 0x8E2 JUMPI PUSH1 0x40 MLOAD PUSH3 0x461BCD PUSH1 0xE5 SHL DUP2 MSTORE PUSH1 0x20 PUSH1 0x4 DUP3 ADD MSTORE PUSH1 0x1F PUSH1 0x24 DUP3 ADD MSTORE PUSH32 0x5265656E7472616E637947756172643A207265656E7472616E742063616C6C00 PUSH1 0x44 DUP3 ADD MSTORE PUSH1 0x64 ADD PUSH2 0x727 JUMP JUMPDEST PUSH1 0x2 PUSH1 0x1 SSTORE CALLER ORIGIN EQ PUSH2 0x936 JUMPI PUSH1 0x40 MLOAD PUSH3 0x461BCD PUSH1 0xE5 SHL DUP2 MSTORE PUSH1 0x20 PUSH1 0x4 DUP3 ADD MSTORE PUSH1 0x19 PUSH1 0x24 DUP3 ADD MSTORE PUSH32 0x63616E206E6F742063616C6C2076696120636F6E747261637400000000000000 PUSH1 0x44 DUP3 ADD MSTORE PUSH1 0x64 ADD PUSH2 0x727 JUMP JUMPDEST PUSH1 0x4 DUP1 SLOAD PUSH1 0x40 MLOAD PUSH4 0x31A9108F PUSH1 0xE1 SHL DUP2 MSTORE SWAP2 DUP3 ADD DUP5 SWAP1 MSTORE CALLER SWAP2 PUSH1 0x1 PUSH1 0x1 PUSH1 0xA0 SHL SUB SWAP1 SWAP2 AND SWAP1 PUSH4 0x6352211E SWAP1 PUSH1 0x24 ADD PUSH1 0x20 PUSH1 0x40 MLOAD DUP1 DUP4 SUB DUP2 DUP7 GAS STATICCALL ISZERO DUP1 ISZERO PUSH2 0x981 JUMPI RETURNDATASIZE PUSH1 0x0 DUP1 RETURNDATACOPY RETURNDATASIZE PUSH1 0x0 REVERT JUMPDEST POP POP POP POP PUSH1 0x40 MLOAD RETURNDATASIZE PUSH1 0x1F NOT PUSH1 0x1F DUP3 ADD AND DUP3 ADD DUP1 PUSH1 0x40 MSTORE POP DUP2 ADD SWAP1 PUSH2 0x9A5 SWAP2 SWAP1 PUSH2 0x186A JUMP JUMPDEST PUSH1 0x1 PUSH1 0x1 PUSH1 0xA0 SHL SUB AND EQ PUSH2 0x9F0 JUMPI PUSH1 0x40 MLOAD PUSH3 0x461BCD PUSH1 0xE5 SHL DUP2 MSTORE PUSH1 0x20 PUSH1 0x4 DUP3 ADD MSTORE PUSH1 0x12 PUSH1 0x24 DUP3 ADD MSTORE PUSH18 0x36BAB9BA1031329027232A103437B63232B9 PUSH1 0x71 SHL PUSH1 0x44 DUP3 ADD MSTORE PUSH1 0x64 ADD PUSH2 0x727 JUMP JUMPDEST PUSH1 0x5 SLOAD PUSH1 0x40 MLOAD PUSH4 0x1D828F83 PUSH1 0xE3 SHL DUP2 MSTORE PUSH1 0x4 DUP2 ADD DUP5 SWAP1 MSTORE PUSH1 0x1 PUSH1 0x1 PUSH1 0xA0 SHL SUB SWAP1 SWAP2 AND SWAP1 PUSH4 0xEC147C18 SWAP1 PUSH1 0x24 ADD PUSH1 0x20 PUSH1 0x40 MLOAD DUP1 DUP4 SUB DUP2 DUP7 GAS STATICCALL ISZERO DUP1 ISZERO PUSH2 0xA39 JUMPI RETURNDATASIZE PUSH1 0x0 DUP1 RETURNDATACOPY RETURNDATASIZE PUSH1 0x0 REVERT JUMPDEST POP POP POP POP PUSH1 0x40 MLOAD RETURNDATASIZE PUSH1 0x1F NOT PUSH1 0x1F DUP3 ADD AND DUP3 ADD DUP1 PUSH1 0x40 MSTORE POP DUP2 ADD SWAP1 PUSH2 0xA5D SWAP2 SWAP1 PUSH2 0x1848 JUMP JUMPDEST PUSH2 0xAA9 JUMPI PUSH1 0x40 MLOAD PUSH3 0x461BCD PUSH1 0xE5 SHL DUP2 MSTORE PUSH1 0x20 PUSH1 0x4 DUP3 ADD MSTORE PUSH1 0x1D PUSH1 0x24 DUP3 ADD MSTORE PUSH32 0x61747461636B6572206D757374206265206F6E2074686520746F776572000000 PUSH1 0x44 DUP3 ADD MSTORE PUSH1 0x64 ADD PUSH2 0x727 JUMP JUMPDEST PUSH1 0x4 DUP1 SLOAD PUSH1 0x40 MLOAD PUSH4 0x82AFD23B PUSH1 0xE0 SHL DUP2 MSTORE SWAP2 DUP3 ADD DUP5 SWAP1 MSTORE PUSH1 0x1 PUSH1 0x1 PUSH1 0xA0 SHL SUB AND SWAP1 PUSH4 0x82AFD23B SWAP1 PUSH1 0x24 ADD PUSH1 0x20 PUSH1 0x40 MLOAD DUP1 DUP4 SUB DUP2 DUP7 GAS STATICCALL ISZERO DUP1 ISZERO PUSH2 0xAF0 JUMPI RETURNDATASIZE PUSH1 0x0 DUP1 RETURNDATACOPY RETURNDATASIZE PUSH1 0x0 REVERT JUMPDEST POP POP POP POP PUSH1 0x40 MLOAD RETURNDATASIZE PUSH1 0x1F NOT PUSH1 0x1F DUP3 ADD AND DUP3 ADD DUP1 PUSH1 0x40 MSTORE POP DUP2 ADD SWAP1 PUSH2 0xB14 SWAP2 SWAP1 PUSH2 0x1848 JUMP JUMPDEST PUSH2 0xB51 JUMPI PUSH1 0x40 MLOAD PUSH3 0x461BCD PUSH1 0xE5 SHL DUP2 MSTORE PUSH1 0x20 PUSH1 0x4 DUP3 ADD MSTORE PUSH1 0xE PUSH1 0x24 DUP3 ADD MSTORE PUSH14 0x6D75737420626520616374697665 PUSH1 0x90 SHL PUSH1 0x44 DUP3 ADD MSTORE PUSH1 0x64 ADD PUSH2 0x727 JUMP JUMPDEST PUSH1 0x5 PUSH1 0x0 SWAP1 SLOAD SWAP1 PUSH2 0x100 EXP SWAP1 DIV PUSH1 0x1 PUSH1 0x1 PUSH1 0xA0 SHL SUB AND PUSH1 0x1 PUSH1 0x1 PUSH1 0xA0 SHL SUB AND PUSH4 0x3CDD0398 PUSH1 0x40 MLOAD DUP2 PUSH4 0xFFFFFFFF AND PUSH1 0xE0 SHL DUP2 MSTORE PUSH1 0x4 ADD PUSH1 0x20 PUSH1 0x40 MLOAD DUP1 DUP4 SUB DUP2 DUP7 GAS STATICCALL ISZERO DUP1 ISZERO PUSH2 0xBA4 JUMPI RETURNDATASIZE PUSH1 0x0 DUP1 RETURNDATACOPY RETURNDATASIZE PUSH1 0x0 REVERT JUMPDEST POP POP POP POP PUSH1 0x40 MLOAD RETURNDATASIZE PUSH1 0x1F NOT PUSH1 0x1F DUP3 ADD AND DUP3 ADD DUP1 PUSH1 0x40 MSTORE POP DUP2 ADD SWAP1 PUSH2 0xBC8 SWAP2 SWAP1 PUSH2 0x182F JUMP JUMPDEST DUP2 GT ISZERO DUP1 ISZERO PUSH2 0xBD6 JUMPI POP DUP1 ISZERO ISZERO JUMPDEST PUSH2 0xC15 JUMPI PUSH1 0x40 MLOAD PUSH3 0x461BCD PUSH1 0xE5 SHL DUP2 MSTORE PUSH1 0x20 PUSH1 0x4 DUP3 ADD MSTORE PUSH1 0x10 PUSH1 0x24 DUP3 ADD MSTORE PUSH16 0x36BAB9BA103B30B634B210333637B7B9 PUSH1 0x81 SHL PUSH1 0x44 DUP3 ADD MSTORE PUSH1 0x64 ADD PUSH2 0x727 JUMP JUMPDEST PUSH1 0x5 SLOAD PUSH1 0x40 MLOAD PUSH4 0x1038D37 PUSH1 0xE6 SHL DUP2 MSTORE PUSH1 0x4 DUP2 ADD DUP4 SWAP1 MSTORE PUSH1 0x0 SWAP2 PUSH1 0x1 PUSH1 0x1 PUSH1 0xA0 SHL SUB AND SWAP1 PUSH4 0x40E34DC0 SWAP1 PUSH1 0x24 ADD PUSH1 0x20 PUSH1 0x40 MLOAD DUP1 DUP4 SUB DUP2 DUP7 GAS STATICCALL ISZERO DUP1 ISZERO PUSH2 0xC5F JUMPI RETURNDATASIZE PUSH1 0x0 DUP1 RETURNDATACOPY RETURNDATASIZE PUSH1 0x0 REVERT JUMPDEST POP POP POP POP PUSH1 0x40 MLOAD RETURNDATASIZE PUSH1 0x1F NOT PUSH1 0x1F DUP3 ADD AND DUP3 ADD DUP1 PUSH1 0x40 MSTORE POP DUP2 ADD SWAP1 PUSH2 0xC83 SWAP2 SWAP1 PUSH2 0x182F JUMP JUMPDEST PUSH1 0x5 SLOAD PUSH1 0x40 MLOAD PUSH4 0x944D934B PUSH1 0xE0 SHL DUP2 MSTORE PUSH1 0x4 DUP2 ADD DUP6 SWAP1 MSTORE SWAP2 SWAP3 POP PUSH1 0x0 SWAP2 PUSH1 0x1 PUSH1 0x1 PUSH1 0xA0 SHL SUB SWAP1 SWAP2 AND SWAP1 PUSH4 0x944D934B SWAP1 PUSH1 0x24 ADD PUSH1 0x20 PUSH1 0x40 MLOAD DUP1 DUP4 SUB DUP2 DUP7 GAS STATICCALL ISZERO DUP1 ISZERO PUSH2 0xCD2 JUMPI RETURNDATASIZE PUSH1 0x0 DUP1 RETURNDATACOPY RETURNDATASIZE PUSH1 0x0 REVERT JUMPDEST POP POP POP POP PUSH1 0x40 MLOAD RETURNDATASIZE PUSH1 0x1F NOT PUSH1 0x1F DUP3 ADD AND DUP3 ADD DUP1 PUSH1 0x40 MSTORE POP DUP2 ADD SWAP1 PUSH2 0xCF6 SWAP2 SWAP1 PUSH2 0x182F JUMP JUMPDEST PUSH1 0x5 SLOAD PUSH1 0x40 MLOAD PUSH4 0x95AC8AF9 PUSH1 0xE0 SHL DUP2 MSTORE PUSH1 0x4 DUP2 ADD DUP8 SWAP1 MSTORE SWAP2 SWAP3 POP PUSH2 0x2710 SWAP2 PUSH1 0x0 SWAP2 PUSH1 0x1 PUSH1 0x1 PUSH1 0xA0 SHL SUB AND SWAP1 PUSH4 0x95AC8AF9 SWAP1 PUSH1 0x24 ADD PUSH1 0x20 PUSH1 0x40 MLOAD DUP1 DUP4 SUB DUP2 DUP7 GAS STATICCALL ISZERO DUP1 ISZERO PUSH2 0xD47 JUMPI RETURNDATASIZE PUSH1 0x0 DUP1 RETURNDATACOPY RETURNDATASIZE PUSH1 0x0 REVERT JUMPDEST POP POP POP POP PUSH1 0x40 MLOAD RETURNDATASIZE PUSH1 0x1F NOT PUSH1 0x1F DUP3 ADD AND DUP3 ADD DUP1 PUSH1 0x40 MSTORE POP DUP2 ADD SWAP1 PUSH2 0xD6B SWAP2 SWAP1 PUSH2 0x182F JUMP JUMPDEST SWAP1 POP CALLVALUE PUSH2 0x2710 PUSH1 0x7 SLOAD DUP5 PUSH2 0xD7F SWAP2 SWAP1 PUSH2 0x17B0 JUMP JUMPDEST PUSH2 0xD89 SWAP2 SWAP1 PUSH2 0x17CF JUMP JUMPDEST GT ISZERO PUSH2 0xDD7 JUMPI PUSH1 0x40 MLOAD PUSH3 0x461BCD PUSH1 0xE5 SHL DUP2 MSTORE PUSH1 0x20 PUSH1 0x4 DUP3 ADD MSTORE PUSH1 0x1C PUSH1 0x24 DUP3 ADD MSTORE PUSH32 0x696E737566666369656E7420746F6B656E7320746F2061747461636B00000000 PUSH1 0x44 DUP3 ADD MSTORE PUSH1 0x64 ADD PUSH2 0x727 JUMP JUMPDEST PUSH1 0x0 PUSH1 0x8 SLOAD PUSH2 0x2710 PUSH1 0x7 SLOAD DUP6 PUSH2 0xDED SWAP2 SWAP1 PUSH2 0x17B0 JUMP JUMPDEST PUSH2 0xDF7 SWAP2 SWAP1 PUSH2 0x17CF JUMP JUMPDEST PUSH2 0xE01 SWAP1 CALLVALUE PUSH2 0x17E3 JUMP JUMPDEST GT ISZERO PUSH2 0xE75 JUMPI PUSH1 0x7 SLOAD CALLER SWAP1 PUSH2 0x2710 SWAP1 PUSH2 0xE1A SWAP1 DUP7 PUSH2 0x17B0 JUMP JUMPDEST PUSH2 0xE24 SWAP2 SWAP1 PUSH2 0x17CF JUMP JUMPDEST PUSH2 0xE2E SWAP1 CALLVALUE PUSH2 0x17E3 JUMP JUMPDEST PUSH1 0x40 MLOAD PUSH1 0x0 DUP2 DUP2 DUP2 DUP6 DUP8 GAS CALL SWAP3 POP POP POP RETURNDATASIZE DUP1 PUSH1 0x0 DUP2 EQ PUSH2 0xE6A JUMPI PUSH1 0x40 MLOAD SWAP2 POP PUSH1 0x1F NOT PUSH1 0x3F RETURNDATASIZE ADD AND DUP3 ADD PUSH1 0x40 MSTORE RETURNDATASIZE DUP3 MSTORE RETURNDATASIZE PUSH1 0x0 PUSH1 0x20 DUP5 ADD RETURNDATACOPY PUSH2 0xE6F JUMP JUMPDEST PUSH1 0x60 SWAP2 POP JUMPDEST POP SWAP1 SWAP2 POP POP JUMPDEST PUSH1 0x4 DUP1 SLOAD PUSH1 0x40 MLOAD PUSH4 0x31A9108F PUSH1 0xE1 SHL DUP2 MSTORE SWAP2 DUP3 ADD DUP8 SWAP1 MSTORE PUSH1 0x1 PUSH1 0x1 PUSH1 0xA0 SHL SUB AND SWAP1 PUSH4 0x6352211E SWAP1 PUSH1 0x24 ADD PUSH1 0x20 PUSH1 0x40 MLOAD DUP1 DUP4 SUB DUP2 DUP7 GAS STATICCALL ISZERO DUP1 ISZERO PUSH2 0xEBC JUMPI RETURNDATASIZE PUSH1 0x0 DUP1 RETURNDATACOPY RETURNDATASIZE PUSH1 0x0 REVERT JUMPDEST POP POP POP POP PUSH1 0x40 MLOAD RETURNDATASIZE PUSH1 0x1F NOT PUSH1 0x1F DUP3 ADD AND DUP3 ADD DUP1 PUSH1 0x40 MSTORE POP DUP2 ADD SWAP1 PUSH2 0xEE0 SWAP2 SWAP1 PUSH2 0x186A JUMP JUMPDEST PUSH1 0x1 PUSH1 0x1 PUSH1 0xA0 SHL SUB AND PUSH4 0x5F5E100 PUSH1 0x6 SLOAD PUSH2 0x2710 PUSH2 0xEFE SWAP2 SWAP1 PUSH2 0x17E3 JUMP JUMPDEST PUSH1 0x7 SLOAD PUSH2 0xF0B SWAP1 DUP8 PUSH2 0x17B0 JUMP JUMPDEST PUSH2 0xF15 SWAP2 SWAP1 PUSH2 0x17B0 JUMP JUMPDEST PUSH2 0xF1F SWAP2 SWAP1 PUSH2 0x17CF JUMP JUMPDEST PUSH1 0x40 MLOAD PUSH1 0x0 DUP2 DUP2 DUP2 DUP6 DUP8 GAS CALL SWAP3 POP POP POP RETURNDATASIZE DUP1 PUSH1 0x0 DUP2 EQ PUSH2 0xF5B JUMPI PUSH1 0x40 MLOAD SWAP2 POP PUSH1 0x1F NOT PUSH1 0x3F RETURNDATASIZE ADD AND DUP3 ADD PUSH1 0x40 MSTORE RETURNDATASIZE DUP3 MSTORE RETURNDATASIZE PUSH1 0x0 PUSH1 0x20 DUP5 ADD RETURNDATACOPY PUSH2 0xF60 JUMP JUMPDEST PUSH1 0x60 SWAP2 POP JUMPDEST POP POP PUSH1 0x4 DUP1 SLOAD PUSH1 0x40 MLOAD PUSH4 0x82AFD23B PUSH1 0xE0 SHL DUP2 MSTORE SWAP2 DUP3 ADD DUP9 SWAP1 MSTORE SWAP2 SWAP3 POP PUSH1 0x0 SWAP2 PUSH1 0x1 PUSH1 0x1 PUSH1 0xA0 SHL SUB AND SWAP1 PUSH4 0x82AFD23B SWAP1 PUSH1 0x24 ADD PUSH1 0x20 PUSH1 0x40 MLOAD DUP1 DUP4 SUB DUP2 DUP7 GAS STATICCALL ISZERO DUP1 ISZERO PUSH2 0xFAF JUMPI RETURNDATASIZE PUSH1 0x0 DUP1 RETURNDATACOPY RETURNDATASIZE PUSH1 0x0 REVERT JUMPDEST POP POP POP POP PUSH1 0x40 MLOAD RETURNDATASIZE PUSH1 0x1F NOT PUSH1 0x1F DUP3 ADD AND DUP3 ADD DUP1 PUSH1 0x40 MSTORE POP DUP2 ADD SWAP1 PUSH2 0xFD3 SWAP2 SWAP1 PUSH2 0x1848 JUMP JUMPDEST PUSH2 0xFDF JUMPI POP PUSH1 0x3 PUSH2 0xFEC JUMP JUMPDEST PUSH2 0xFE9 DUP9 DUP8 PUSH2 0x117 JUMP JUMPDEST SWAP1 POP JUMPDEST PUSH1 0x0 DUP2 PUSH1 0x3 DUP2 GT ISZERO PUSH2 0x1000 JUMPI PUSH2 0x1000 PUSH2 0x1514 JUMP JUMPDEST EQ PUSH2 0x1214 JUMPI PUSH1 0x8 SLOAD PUSH1 0x5 SLOAD PUSH1 0x40 MLOAD PUSH4 0x944D934B PUSH1 0xE0 SHL DUP2 MSTORE PUSH1 0x4 DUP2 ADD DUP7 SWAP1 MSTORE PUSH1 0x1 PUSH1 0x1 PUSH1 0xA0 SHL SUB SWAP1 SWAP2 AND SWAP1 PUSH4 0x944D934B SWAP1 PUSH1 0x24 ADD PUSH1 0x20 PUSH1 0x40 MLOAD DUP1 DUP4 SUB DUP2 DUP7 GAS STATICCALL ISZERO DUP1 ISZERO PUSH2 0x1051 JUMPI RETURNDATASIZE PUSH1 0x0 DUP1 RETURNDATACOPY RETURNDATASIZE PUSH1 0x0 REVERT JUMPDEST POP POP POP POP PUSH1 0x40 MLOAD RETURNDATASIZE PUSH1 0x1F NOT PUSH1 0x1F DUP3 ADD AND DUP3 ADD DUP1 PUSH1 0x40 MSTORE POP DUP2 ADD SWAP1 PUSH2 0x1075 SWAP2 SWAP1 PUSH2 0x182F JUMP JUMPDEST GT ISZERO PUSH2 0x10DA JUMPI PUSH1 0x5 SLOAD PUSH1 0x40 MLOAD PUSH4 0x2E1A7D4D PUSH1 0xE0 SHL DUP2 MSTORE PUSH1 0x4 DUP2 ADD DUP6 SWAP1 MSTORE PUSH1 0x1 PUSH1 0x1 PUSH1 0xA0 SHL SUB SWAP1 SWAP2 AND SWAP1 PUSH4 0x2E1A7D4D SWAP1 PUSH1 0x24 ADD PUSH1 0x0 PUSH1 0x40 MLOAD DUP1 DUP4 SUB DUP2 PUSH1 0x0 DUP8 DUP1 EXTCODESIZE ISZERO DUP1 ISZERO PUSH2 0x10C1 JUMPI PUSH1 0x0 DUP1 REVERT JUMPDEST POP GAS CALL ISZERO DUP1 ISZERO PUSH2 0x10D5 JUMPI RETURNDATASIZE PUSH1 0x0 DUP1 RETURNDATACOPY RETURNDATASIZE PUSH1 0x0 REVERT JUMPDEST POP POP POP POP JUMPDEST PUSH1 0x5 SLOAD PUSH1 0x40 MLOAD PUSH4 0x22A7D0A1 PUSH1 0xE2 SHL DUP2 MSTORE PUSH1 0x4 DUP2 ADD DUP6 SWAP1 MSTORE PUSH1 0x24 DUP2 ADD DUP10 SWAP1 MSTORE PUSH1 0x1 PUSH1 0x1 PUSH1 0xA0 SHL SUB SWAP1 SWAP2 AND SWAP1 PUSH4 0x8A9F4284 SWAP1 PUSH1 0x44 ADD PUSH1 0x0 PUSH1 0x40 MLOAD DUP1 DUP4 SUB DUP2 PUSH1 0x0 DUP8 DUP1 EXTCODESIZE ISZERO DUP1 ISZERO PUSH2 0x1127 JUMPI PUSH1 0x0 DUP1 REVERT JUMPDEST POP GAS CALL ISZERO DUP1 ISZERO PUSH2 0x113B JUMPI RETURNDATASIZE PUSH1 0x0 DUP1 RETURNDATACOPY RETURNDATASIZE PUSH1 0x0 REVERT JUMPDEST POP POP PUSH1 0x8 SLOAD PUSH1 0x5 SLOAD PUSH1 0x40 MLOAD PUSH4 0x944D934B PUSH1 0xE0 SHL DUP2 MSTORE PUSH1 0x4 DUP2 ADD DUP13 SWAP1 MSTORE SWAP2 SWAP4 POP PUSH1 0x1 PUSH1 0x1 PUSH1 0xA0 SHL SUB AND SWAP2 POP PUSH4 0x944D934B SWAP1 PUSH1 0x24 ADD PUSH1 0x20 PUSH1 0x40 MLOAD DUP1 DUP4 SUB DUP2 DUP7 GAS STATICCALL ISZERO DUP1 ISZERO PUSH2 0x118B JUMPI RETURNDATASIZE PUSH1 0x0 DUP1 RETURNDATACOPY RETURNDATASIZE PUSH1 0x0 REVERT JUMPDEST POP POP POP POP PUSH1 0x40 MLOAD RETURNDATASIZE PUSH1 0x1F NOT PUSH1 0x1F DUP3 ADD AND DUP3 ADD DUP1 PUSH1 0x40 MSTORE POP DUP2 ADD SWAP1 PUSH2 0x11AF SWAP2 SWAP1 PUSH2 0x182F JUMP JUMPDEST GT ISZERO PUSH2 0x1214 JUMPI PUSH1 0x5 SLOAD PUSH1 0x40 MLOAD PUSH4 0x2E1A7D4D PUSH1 0xE0 SHL DUP2 MSTORE PUSH1 0x4 DUP2 ADD DUP10 SWAP1 MSTORE PUSH1 0x1 PUSH1 0x1 PUSH1 0xA0 SHL SUB SWAP1 SWAP2 AND SWAP1 PUSH4 0x2E1A7D4D SWAP1 PUSH1 0x24 ADD PUSH1 0x0 PUSH1 0x40 MLOAD DUP1 DUP4 SUB DUP2 PUSH1 0x0 DUP8 DUP1 EXTCODESIZE ISZERO DUP1 ISZERO PUSH2 0x11FB JUMPI PUSH1 0x0 DUP1 REVERT JUMPDEST POP GAS CALL ISZERO DUP1 ISZERO PUSH2 0x120F JUMPI RETURNDATASIZE PUSH1 0x0 DUP1 RETURNDATACOPY RETURNDATASIZE PUSH1 0x0 REVERT JUMPDEST POP POP POP POP JUMPDEST PUSH1 0x3 DUP2 PUSH1 0x3 DUP2 GT ISZERO PUSH2 0x1228 JUMPI PUSH2 0x1228 PUSH2 0x1514 JUMP JUMPDEST EQ ISZERO PUSH2 0x12CD JUMPI PUSH1 0x5 SLOAD PUSH1 0x40 MLOAD PUSH4 0x9A0E6A85 PUSH1 0xE0 SHL DUP2 MSTORE PUSH1 0x4 DUP2 ADD DUP6 SWAP1 MSTORE PUSH1 0x1 PUSH1 0x1 PUSH1 0xA0 SHL SUB SWAP1 SWAP2 AND SWAP1 PUSH4 0x9A0E6A85 SWAP1 PUSH1 0x24 ADD PUSH1 0x0 PUSH1 0x40 MLOAD DUP1 DUP4 SUB DUP2 PUSH1 0x0 DUP8 DUP1 EXTCODESIZE ISZERO DUP1 ISZERO PUSH2 0x1274 JUMPI PUSH1 0x0 DUP1 REVERT JUMPDEST POP GAS CALL ISZERO DUP1 ISZERO PUSH2 0x1288 JUMPI RETURNDATASIZE PUSH1 0x0 DUP1 RETURNDATACOPY RETURNDATASIZE PUSH1 0x0 REVERT JUMPDEST POP POP PUSH1 0x40 DUP1 MLOAD DUP10 DUP2 MSTORE PUSH1 0x20 DUP2 ADD DUP13 SWAP1 MSTORE TIMESTAMP DUP2 DUP4 ADD MSTORE SWAP1 MLOAD PUSH32 0x5F989FECF13AA707E68DB673D1132D1F4B5270253E425424E51171E63A34113D SWAP4 POP SWAP1 DUP2 SWAP1 SUB PUSH1 0x60 ADD SWAP2 POP LOG1 JUMPDEST PUSH1 0x4 DUP1 SLOAD PUSH1 0x40 MLOAD PUSH4 0x8140BD0B PUSH1 0xE0 SHL DUP2 MSTORE PUSH1 0x1 PUSH1 0x1 PUSH1 0xA0 SHL SUB SWAP1 SWAP2 AND SWAP2 PUSH4 0x8140BD0B SWAP2 PUSH2 0x1304 SWAP2 DUP13 SWAP2 DUP12 SWAP2 DUP8 SWAP2 DUP13 SWAP2 CALLVALUE SWAP2 ADD PUSH2 0x1887 JUMP JUMPDEST PUSH1 0x0 PUSH1 0x40 MLOAD DUP1 DUP4 SUB DUP2 PUSH1 0x0 DUP8 DUP1 EXTCODESIZE ISZERO DUP1 ISZERO PUSH2 0x131E JUMPI PUSH1 0x0 DUP1 REVERT JUMPDEST POP GAS CALL ISZERO DUP1 ISZERO PUSH2 0x1332 JUMPI RETURNDATASIZE PUSH1 0x0 DUP1 RETURNDATACOPY RETURNDATASIZE PUSH1 0x0 REVERT JUMPDEST POP PUSH1 0x0 SWAP3 POP PUSH1 0x1 SWAP2 POP PUSH2 0x1342 SWAP1 POP JUMP JUMPDEST DUP3 PUSH1 0x3 DUP2 GT ISZERO PUSH2 0x1354 JUMPI PUSH2 0x1354 PUSH2 0x1514 JUMP JUMPDEST EQ DUP1 PUSH2 0x1371 JUMPI POP PUSH1 0x3 DUP3 PUSH1 0x3 DUP2 GT ISZERO PUSH2 0x136F JUMPI PUSH2 0x136F PUSH2 0x1514 JUMP JUMPDEST EQ JUMPDEST PUSH2 0x1395 JUMPI PUSH2 0x2710 PUSH1 0x7 SLOAD DUP7 PUSH2 0x1386 SWAP2 SWAP1 PUSH2 0x17B0 JUMP JUMPDEST PUSH2 0x1390 SWAP2 SWAP1 PUSH2 0x17CF JUMP JUMPDEST PUSH2 0x13BC JUMP JUMPDEST PUSH2 0x2710 PUSH1 0x7 SLOAD PUSH2 0x2710 PUSH2 0x13A8 SWAP2 SWAP1 PUSH2 0x17E3 JUMP JUMPDEST PUSH2 0x13B2 SWAP1 DUP9 PUSH2 0x17B0 JUMP JUMPDEST PUSH2 0x13BC SWAP2 SWAP1 PUSH2 0x17CF JUMP JUMPDEST SWAP1 POP PUSH32 0xA0D8233EED567B022EDE33AB83DC1F512E739350019F844A668485E59BD21101 DUP10 DUP9 DUP11 DUP5 DUP7 TIMESTAMP PUSH1 0x40 MLOAD PUSH2 0x13F7 SWAP7 SWAP6 SWAP5 SWAP4 SWAP3 SWAP2 SWAP1 PUSH2 0x18B5 JUMP JUMPDEST PUSH1 0x40 MLOAD DUP1 SWAP2 SUB SWAP1 LOG1 POP POP PUSH1 0x1 DUP1 SSTORE POP POP POP POP POP POP POP JUMP JUMPDEST PUSH1 0x0 SLOAD PUSH1 0x1 PUSH1 0x1 PUSH1 0xA0 SHL SUB AND CALLER EQ PUSH2 0x1438 JUMPI PUSH1 0x40 MLOAD PUSH3 0x461BCD PUSH1 0xE5 SHL DUP2 MSTORE PUSH1 0x4 ADD PUSH2 0x727 SWAP1 PUSH2 0x17FA JUMP JUMPDEST PUSH1 0x1 PUSH1 0x1 PUSH1 0xA0 SHL SUB DUP2 AND PUSH2 0x149D JUMPI PUSH1 0x40 MLOAD PUSH3 0x461BCD PUSH1 0xE5 SHL DUP2 MSTORE PUSH1 0x20 PUSH1 0x4 DUP3 ADD MSTORE PUSH1 0x26 PUSH1 0x24 DUP3 ADD MSTORE PUSH32 0x4F776E61626C653A206E6577206F776E657220697320746865207A65726F2061 PUSH1 0x44 DUP3 ADD MSTORE PUSH6 0x646472657373 PUSH1 0xD0 SHL PUSH1 0x64 DUP3 ADD MSTORE PUSH1 0x84 ADD PUSH2 0x727 JUMP JUMPDEST PUSH2 0x856 DUP2 JUMPDEST PUSH1 0x0 DUP1 SLOAD PUSH1 0x1 PUSH1 0x1 PUSH1 0xA0 SHL SUB DUP4 DUP2 AND PUSH1 0x1 PUSH1 0x1 PUSH1 0xA0 SHL SUB NOT DUP4 AND DUP2 OR DUP5 SSTORE PUSH1 0x40 MLOAD SWAP2 SWAP1 SWAP3 AND SWAP3 DUP4 SWAP2 PUSH32 0x8BE0079C531659141344CD1FD0A4F28419497F9722A3DAAFE3B4186F6B6457E0 SWAP2 SWAP1 LOG3 POP POP JUMP JUMPDEST PUSH1 0x0 DUP1 PUSH1 0x40 DUP4 DUP6 SUB SLT ISZERO PUSH2 0x1505 JUMPI PUSH1 0x0 DUP1 REVERT JUMPDEST POP POP DUP1 CALLDATALOAD SWAP3 PUSH1 0x20 SWAP1 SWAP2 ADD CALLDATALOAD SWAP2 POP JUMP JUMPDEST PUSH4 0x4E487B71 PUSH1 0xE0 SHL PUSH1 0x0 MSTORE PUSH1 0x21 PUSH1 0x4 MSTORE PUSH1 0x24 PUSH1 0x0 REVERT JUMPDEST PUSH1 0x4 DUP2 LT PUSH2 0x1548 JUMPI PUSH4 0x4E487B71 PUSH1 0xE0 SHL PUSH1 0x0 MSTORE PUSH1 0x21 PUSH1 0x4 MSTORE PUSH1 0x24 PUSH1 0x0 REVERT JUMPDEST SWAP1 MSTORE JUMP JUMPDEST PUSH1 0x20 DUP2 ADD PUSH2 0x6F7 DUP3 DUP5 PUSH2 0x152A JUMP JUMPDEST PUSH1 0x1 PUSH1 0x1 PUSH1 0xA0 SHL SUB DUP2 AND DUP2 EQ PUSH2 0x856 JUMPI PUSH1 0x0 DUP1 REVERT JUMPDEST PUSH1 0x0 PUSH1 0x20 DUP3 DUP5 SUB SLT ISZERO PUSH2 0x1581 JUMPI PUSH1 0x0 DUP1 REVERT JUMPDEST DUP2 CALLDATALOAD PUSH2 0x158C DUP2 PUSH2 0x155A JUMP JUMPDEST SWAP4 SWAP3 POP POP POP JUMP JUMPDEST PUSH1 0x40 MLOAD PUSH2 0x1C0 DUP2 ADD PUSH8 0xFFFFFFFFFFFFFFFF DUP2 GT DUP3 DUP3 LT OR ISZERO PUSH2 0x15C5 JUMPI PUSH4 0x4E487B71 PUSH1 0xE0 SHL PUSH1 0x0 MSTORE PUSH1 0x41 PUSH1 0x4 MSTORE PUSH1 0x24 PUSH1 0x0 REVERT JUMPDEST PUSH1 0x40 MSTORE SWAP1 JUMP JUMPDEST DUP1 MLOAD PUSH2 0xFFFF DUP2 AND DUP2 EQ PUSH2 0x15DD JUMPI PUSH1 0x0 DUP1 REVERT JUMPDEST SWAP2 SWAP1 POP JUMP JUMPDEST DUP1 MLOAD PUSH1 0x4 DUP2 LT PUSH2 0x15DD JUMPI PUSH1 0x0 DUP1 REVERT JUMPDEST PUSH1 0x0 PUSH1 0x80 DUP3 DUP5 SUB SLT ISZERO PUSH2 0x1603 JUMPI PUSH1 0x0 DUP1 REVERT JUMPDEST PUSH1 0x40 MLOAD PUSH1 0x80 DUP2 ADD DUP2 DUP2 LT PUSH8 0xFFFFFFFFFFFFFFFF DUP3 GT OR ISZERO PUSH2 0x1634 JUMPI PUSH4 0x4E487B71 PUSH1 0xE0 SHL PUSH1 0x0 MSTORE PUSH1 0x41 PUSH1 0x4 MSTORE PUSH1 0x24 PUSH1 0x0 REVERT JUMPDEST PUSH1 0x40 MSTORE PUSH2 0x1640 DUP4 PUSH2 0x15CB JUMP JUMPDEST DUP2 MSTORE PUSH1 0x20 DUP4 ADD MLOAD PUSH5 0xFFFFFFFFFF DUP2 AND DUP2 EQ PUSH2 0x165A JUMPI PUSH1 0x0 DUP1 REVERT JUMPDEST PUSH1 0x20 DUP3 ADD MSTORE PUSH2 0x166B PUSH1 0x40 DUP5 ADD PUSH2 0x15CB JUMP JUMPDEST PUSH1 0x40 DUP3 ADD MSTORE PUSH2 0x167C PUSH1 0x60 DUP5 ADD PUSH2 0x15E2 JUMP JUMPDEST PUSH1 0x60 DUP3 ADD MSTORE SWAP4 SWAP3 POP POP POP JUMP JUMPDEST PUSH1 0x0 PUSH2 0x1C0 DUP3 DUP5 SUB SLT ISZERO PUSH2 0x169B JUMPI PUSH1 0x0 DUP1 REVERT JUMPDEST PUSH2 0x16A3 PUSH2 0x1593 JUMP JUMPDEST DUP3 MLOAD DUP2 MSTORE PUSH1 0x20 DUP4 ADD MLOAD PUSH1 0x20 DUP3 ADD MSTORE PUSH1 0x40 DUP4 ADD MLOAD PUSH1 0x40 DUP3 ADD MSTORE PUSH1 0x60 DUP4 ADD MLOAD PUSH1 0x60 DUP3 ADD MSTORE PUSH1 0x80 DUP4 ADD MLOAD PUSH1 0x80 DUP3 ADD MSTORE PUSH1 0xA0 DUP4 ADD MLOAD PUSH1 0xA0 DUP3 ADD MSTORE PUSH1 0xC0 DUP4 ADD MLOAD PUSH1 0xC0 DUP3 ADD MSTORE PUSH1 0xE0 DUP4 ADD MLOAD PUSH1 0xE0 DUP3 ADD MSTORE PUSH2 0x100 DUP1 DUP5 ADD MLOAD DUP2 DUP4 ADD MSTORE POP PUSH2 0x120 DUP1 DUP5 ADD MLOAD DUP2 DUP4 ADD MSTORE POP PUSH2 0x140 DUP1 DUP5 ADD MLOAD DUP2 DUP4 ADD MSTORE POP PUSH2 0x160 DUP1 DUP5 ADD MLOAD DUP2 DUP4 ADD MSTORE POP PUSH2 0x180 DUP1 DUP5 ADD MLOAD DUP2 DUP4 ADD MSTORE POP PUSH2 0x1A0 PUSH2 0x1737 DUP2 DUP6 ADD PUSH2 0x15E2 JUMP JUMPDEST SWAP1 DUP3 ADD MSTORE SWAP4 SWAP3 POP POP POP JUMP JUMPDEST PUSH4 0x4E487B71 PUSH1 0xE0 SHL PUSH1 0x0 MSTORE PUSH1 0x11 PUSH1 0x4 MSTORE PUSH1 0x24 PUSH1 0x0 REVERT JUMPDEST PUSH1 0x0 DUP3 NOT DUP3 GT ISZERO PUSH2 0x176B JUMPI PUSH2 0x176B PUSH2 0x1742 JUMP JUMPDEST POP ADD SWAP1 JUMP JUMPDEST PUSH4 0x4E487B71 PUSH1 0xE0 SHL PUSH1 0x0 MSTORE PUSH1 0x12 PUSH1 0x4 MSTORE PUSH1 0x24 PUSH1 0x0 REVERT JUMPDEST PUSH1 0x0 DUP3 PUSH2 0x1795 JUMPI PUSH2 0x1795 PUSH2 0x1770 JUMP JUMPDEST POP MOD SWAP1 JUMP JUMPDEST PUSH4 0x4E487B71 PUSH1 0xE0 SHL PUSH1 0x0 MSTORE PUSH1 0x32 PUSH1 0x4 MSTORE PUSH1 0x24 PUSH1 0x0 REVERT JUMPDEST PUSH1 0x0 DUP2 PUSH1 0x0 NOT DIV DUP4 GT DUP3 ISZERO ISZERO AND ISZERO PUSH2 0x17CA JUMPI PUSH2 0x17CA PUSH2 0x1742 JUMP JUMPDEST POP MUL SWAP1 JUMP JUMPDEST PUSH1 0x0 DUP3 PUSH2 0x17DE JUMPI PUSH2 0x17DE PUSH2 0x1770 JUMP JUMPDEST POP DIV SWAP1 JUMP JUMPDEST PUSH1 0x0 DUP3 DUP3 LT ISZERO PUSH2 0x17F5 JUMPI PUSH2 0x17F5 PUSH2 0x1742 JUMP JUMPDEST POP SUB SWAP1 JUMP JUMPDEST PUSH1 0x20 DUP1 DUP3 MSTORE DUP2 DUP2 ADD MSTORE PUSH32 0x4F776E61626C653A2063616C6C6572206973206E6F7420746865206F776E6572 PUSH1 0x40 DUP3 ADD MSTORE PUSH1 0x60 ADD SWAP1 JUMP JUMPDEST PUSH1 0x0 PUSH1 0x20 DUP3 DUP5 SUB SLT ISZERO PUSH2 0x1841 JUMPI PUSH1 0x0 DUP1 REVERT JUMPDEST POP MLOAD SWAP2 SWAP1 POP JUMP JUMPDEST PUSH1 0x0 PUSH1 0x20 DUP3 DUP5 SUB SLT ISZERO PUSH2 0x185A JUMPI PUSH1 0x0 DUP1 REVERT JUMPDEST DUP2 MLOAD DUP1 ISZERO ISZERO DUP2 EQ PUSH2 0x158C JUMPI PUSH1 0x0 DUP1 REVERT JUMPDEST PUSH1 0x0 PUSH1 0x20 DUP3 DUP5 SUB SLT ISZERO PUSH2 0x187C JUMPI PUSH1 0x0 DUP1 REVERT JUMPDEST DUP2 MLOAD PUSH2 0x158C DUP2 PUSH2 0x155A JUMP JUMPDEST DUP6 DUP2 MSTORE PUSH1 0x20 DUP2 ADD DUP6 SWAP1 MSTORE PUSH1 0xA0 DUP2 ADD PUSH2 0x18A2 PUSH1 0x40 DUP4 ADD DUP7 PUSH2 0x152A JUMP JUMPDEST PUSH1 0x60 DUP3 ADD SWAP4 SWAP1 SWAP4 MSTORE PUSH1 0x80 ADD MSTORE SWAP4 SWAP3 POP POP POP JUMP JUMPDEST PUSH1 0x0 PUSH1 0xC0 DUP3 ADD SWAP1 POP DUP8 DUP3 MSTORE DUP7 PUSH1 0x20 DUP4 ADD MSTORE DUP6 PUSH1 0x40 DUP4 ADD MSTORE DUP5 PUSH1 0x60 DUP4 ADD MSTORE PUSH2 0x18DF PUSH1 0x80 DUP4 ADD DUP6 PUSH2 0x152A JUMP JUMPDEST DUP3 PUSH1 0xA0 DUP4 ADD MSTORE SWAP8 SWAP7 POP POP POP POP POP POP POP JUMP INVALID LOG2 PUSH5 0x6970667358 0x22 SLT KECCAK256 0xEA 0xAD DUP3 0xE3 0x4D 0xBC 0xC4 0x4E 0xD5 DUP12 SWAP13 0xCA BYTE 0xC PUSH6 0x872894706BA4 0xDB 0xDA 0xC4 DUP8 CALLDATALOAD SLT PUSH2 0x3F02 PUSH28 0x1A64736F6C634300080C003300000000000000000000000000000000 ",
  "sha1": "b05b9d50f34b0024b04b9a2d93f8be1f0bc75cf3",
  "source": "pragma solidity ^0.8.0;\n// SPDX-License-Identifier: UNLICENSED\n\n// This will be where wizards receive ecosystem tokens\nimport \"./interfaces/IERC20.sol\";\n//import \"./interfaces/IERC721.sol\";\nimport \"./RelativeTimeVault.sol\";\nimport \"./WizardTower.sol\";\nimport \"./helpers/ReentrancyGuard.sol\";\n//import \"./Wizards.sol\";\n\n\ncontract WizardBattle is Ownable, ReentrancyGuard {\n\n    uint256 maxFloors = 10000;\n    IERC20 ecosystemToken;\n    Wizards wizardNFT;\n    WizardTower wizardTower;\n    uint256 DAOShare = 300; // out of 10,000 (100%) => 1% // percent of fee\n    uint256 attackFee = 1000; // out of 10,000 => 10%\n    uint256 dustThreshold =10000;\n\n    constructor(address _ecosystemToken, address _wizardNFT, address _wizardTower) {\n        ecosystemToken = IERC20(_ecosystemToken);\n        wizardNFT = Wizards(_wizardNFT);\n        wizardTower = WizardTower(_wizardTower);\n    }\n\n//    enum Wizards.OUTCOME {LOSS, WIN, TIE, CAPTURE}\n//    enum ELEMENT {FIRE, WIND, WATER, EARTH}\n\n    event Attack(uint256 attackerId, uint256 defenderId, uint256 floorAttacked,\n                 uint256 netTokensGainedOrLost, Wizards.OUTCOME outcome, uint256 timestamp);\n    event Capture(uint256 captured, uint256 capturer, uint256 timestamp);\n\n    ////////////////////\n    ////    Get       //\n    ////////////////////\n\n\n    ////////////////////\n    ////    Battle    //\n    ////////////////////\n\n    // todo -- decide if use Ether or ERC20 or ERC777\n    // todo -- default victory if defender  is not active\n//    function attack(uint256 _attackerId, uint256 _floor) external {\n//        require(wizardNFT.ownerOf(_attackerId)==msg.sender, \"must be NFT holder\");\n//        require(wizardTower.isOnTheTower(_attackerId), \"attacker must be on the tower\");\n//        require(wizardNFT.isActive(_attackerId), \"must be active\");\n//        require(_floor <= wizardTower.activeFloors() && _floor != 0, \"must valid floor\");\n//        uint256 occupyingWizard = wizardTower.getWizardOnFloor(_floor);\n//        uint256 tokensOnFloor = wizardTower.floorBalance(_floor);\n//        uint256 tokensWaged = wizardTower.floorBalance(_floor)*attackFee/10000;\n//        uint256 attackingFromFloor = wizardTower.wizardIdToFloor(_attackerId);\n//\n//        // 10% fee for attacking\n//        require(ecosystemToken.balanceOf(msg.sender) > tokensWaged, \"insuffcient tokens to attack\"); // only if other user is valid\n//        // send all fees to contract\n//        require(ecosystemToken.transferFrom(msg.sender, address(this), tokensWaged), \"transfer failed\"); // only if other user is valid\n//        // send non DAO fees to defenders wallet\n//        require(ecosystemToken.transfer(wizardNFT.ownerOf(occupyingWizard), tokensWaged*(10000 - DAOShare)/10000), \"transfer failed\"); // only if other user is valid\n//\n//\n//        // capture other wizard if they are not active\n//        uint256 won; // 0 => loss, 1 => win, 2 => tie?, 3 => capture\n//        if(!wizardNFT.isActive(occupyingWizard)){\n//            won = 3;\n//            // handle capture below\n//        }\n//        else {\n//            // todo -- randomness, battle dynamics\n//            won = uint256(keccak256(abi.encodePacked(msg.sender, block.timestamp, block.difficulty, _floor))) % 2;\n//        }\n//\n//        if(won!=0) {\n//            // withdraw tokens before leaving floor\n//            if(wizardTower.floorBalance(attackingFromFloor) > dustThreshold) {\n//                wizardTower.withdraw(attackingFromFloor);\n//            }\n//            // switch places\n//            wizardTower.switchFloors(attackingFromFloor, _floor);\n//            // withdraw tokens at new floor\n//            if(wizardTower.floorBalance(_floor) > dustThreshold) {\n//                wizardTower.withdraw(_floor);\n//            }\n//           // update NFT stats for wons/loses/tokens\n//        }\n//        else {\n//            // nothing else to do\n//        }\n//\n//        if(won==3){\n//            // kick wizard off tower\n//            wizardTower.captureFloor(attackingFromFloor); // wizard now resides on other floor\n//            emit Capture(occupyingWizard,_attackerId, block.timestamp);\n//\n//        }\n//\n//        wizardNFT.reportBattle(_attackerId, occupyingWizard, won, tokensOnFloor, tokensWaged);\n//\n//        uint256 tokensWonOrLost = (won == 1) || ( won== 3 ) ?  tokensOnFloor - tokensWaged : tokensWaged;\n//        emit Attack(_attackerId, occupyingWizard, _floor, tokensWonOrLost, won, block.timestamp);\n//    }\n    // use Eth\n    // refund extra eth if sent too much\n    // todo-- how to deal with tower prices moving up/down?\n    // send 15%, get refund if over\n    function attack(uint256 _attackerId, uint256 _floor) external payable nonReentrant {\n        require(msg.sender == tx.origin, \"can not call via contract\");\n        require(wizardNFT.ownerOf(_attackerId)==msg.sender, \"must be NFT holder\");\n        require(wizardTower.isOnTheTower(_attackerId), \"attacker must be on the tower\");\n        require(wizardNFT.isActive(_attackerId), \"must be active\");\n        require(_floor <= wizardTower.activeFloors() && _floor != 0, \"must valid floor\");\n        uint256 occupyingWizard = wizardTower.getWizardOnFloor(_floor);\n        uint256 tokensOnFloor = wizardTower.floorBalance(_floor);\n        uint256 ethValueOfTokensOnFloor = 10000; // todo -- use dex to calculate this\n//        uint256 tokensWaged = msg.value;\n        uint256 attackingFromFloor = wizardTower.wizardIdToFloor(_attackerId);\n\n        // 10% fee for attacking\n        require(ethValueOfTokensOnFloor*attackFee/10000 <= msg.value, \"insuffcient tokens to attack\"); // only if other user is valid\n\n        bool _success = false;\n        // send extra back\n        if((msg.value - ethValueOfTokensOnFloor*attackFee/10000) > dustThreshold){\n            (_success, ) = msg.sender.call{value: msg.value - ethValueOfTokensOnFloor*attackFee/10000}(\"\");\n        }\n\n        // send Eth to defender\n        (_success, ) = wizardNFT.ownerOf(occupyingWizard).call{value: ethValueOfTokensOnFloor*attackFee*(10000 - DAOShare)/(10**8)}(\"\");\n\n        // capture other wizard if they are not active\n        Wizards.OUTCOME outcome; // 0 => loss, 1 => win, 2 => tie?, 3 => capture\n        if(!wizardNFT.isActive(occupyingWizard)){\n            outcome = Wizards.OUTCOME.CAPTURE;\n            // handle capture below\n        }\n        else {\n            // todo -- randomness, battle dynamics\n//            outcome = uint256(keccak256(abi.encodePacked(msg.sender, block.timestamp, block.difficulty, _floor))) % 2;\n            outcome = battle(_attackerId, occupyingWizard);\n        }\n\n        if(outcome!=Wizards.OUTCOME.LOSS) {\n            // withdraw tokens before leaving floor\n            if(wizardTower.floorBalance(attackingFromFloor) > dustThreshold) {\n                wizardTower.withdraw(attackingFromFloor);\n            }\n            // switch places\n            wizardTower.switchFloors(attackingFromFloor, _floor);\n            // withdraw tokens at new floor\n            if(wizardTower.floorBalance(_floor) > dustThreshold) {\n                wizardTower.withdraw(_floor);\n            }\n           // update NFT stats for wins/loses/tokens\n        }\n        else {\n            // nothing else to do\n        }\n\n        if(outcome==Wizards.OUTCOME.CAPTURE){\n            // kick wizard off tower\n            wizardTower.captureFloor(attackingFromFloor); // wizard now resides on other floor\n            emit Capture(occupyingWizard,_attackerId, block.timestamp);\n\n        }\n\n        wizardNFT.reportBattle(_attackerId, occupyingWizard, outcome, tokensOnFloor, msg.value);\n\n        uint256 tokensWonOrLost = (outcome == Wizards.OUTCOME.WIN) || ( outcome== Wizards.OUTCOME.CAPTURE ) ?  tokensOnFloor*(10000 - attackFee)/10000 : ethValueOfTokensOnFloor*attackFee/10000;\n        emit Attack(_attackerId, occupyingWizard, _floor, tokensWonOrLost, outcome, block.timestamp);\n    }\n\n    // todo -- return a number between 0 and 200 for all combinations\n    function getElementMultiplier(Wizards.ELEMENT attackingElement, Wizards.ELEMENT defendingElement) internal pure returns(uint256){\n        return 100;\n    }\n\n    // @dev find the outcome of _attackerId attacking\n    function battle(uint256 _attackerId, uint256 _defenderId) public view returns(Wizards.OUTCOME){\n        WizardTower.FloorInfo memory floor = wizardTower.getFloorInfoGivenWizard(_defenderId); // does not contain floor #!\n        Wizards.ELEMENT floorElement = floor.element;\n        Wizards.Stats[2] memory characters = [wizardNFT.getStatsGivenId(_attackerId), wizardNFT.getStatsGivenId(_defenderId)];\n\n        // todo -- convert this to arrays\n        Wizards.Stats memory attacker = wizardNFT.getStatsGivenId(_attackerId);\n        Wizards.Stats memory defender = wizardNFT.getStatsGivenId(_defenderId);\n\n        uint256 pseudoRandNum = uint256(keccak256(abi.encodePacked(msg.sender, block.timestamp,\n            _attackerId, floor.lastWithdrawalTimestamp)));\n\n\n        // determine who fights first\n        uint256 firstToAttack; // 0 means attacker (aggressor)\n        uint256 firstAttackSelector = pseudoRandNum % (attacker.speed + defender.speed);\n        pseudoRandNum >>= 8; // shift 8 bits\n        if(firstAttackSelector > attacker.speed) {\n            firstToAttack = 1; // defender\n        }\n\n        // determine buffs ( out of 10**4 )\n        uint256[2] memory attackMultipliers =\n              [uint256((characters[0].element==floorElement ? 125 : 100) * getElementMultiplier(characters[0].element, characters[1].element)),\n               uint256((characters[1].element==floorElement ? 125 : 100) * getElementMultiplier(characters[1].element, characters[0].element))];\n\n        uint256 attackAmount;\n        uint256 attackLuck;\n        uint256 defenderIndex; // todo -- battle is only creating losses\n        for(uint256 i=0; i < 20; ){\n            attackLuck = uint256(uint8(pseudoRandNum));\n            attackLuck = attackLuck > 12 ? attackLuck : 0; // 12/256 likelihood of being 0\n            defenderIndex = (firstToAttack==0 ? 1 : 0);\n            attackAmount = attackLuck == 0 ? 0 : (characters[firstToAttack].magicalPower*attackMultipliers[firstToAttack] / 10**4) * (384 + attackLuck/4 ) / 512;\n            attackAmount = attackAmount > characters[defenderIndex].magicalDefense ? attackAmount - characters[defenderIndex].magicalDefense : 0;\n            characters[defenderIndex].hp = attackAmount > characters[defenderIndex].hp ? 0 : characters[defenderIndex].hp - attackAmount;\n            if(characters[defenderIndex].hp == 0) {break;}\n//            firstToAttack = defenderIndex;\n            unchecked{\n                (firstToAttack, defenderIndex) = (defenderIndex, firstToAttack);\n                i++;\n            }\n        }\n\n        if(characters[0].hp == 0 ) {\n            return Wizards.OUTCOME.LOSS; // 0\n        }\n        else if(characters[1].hp == 0 ) {\n            return Wizards.OUTCOME.WIN; // 1\n        }\n        else {\n            return Wizards.OUTCOME.TIE; // 2\n        }\n\n        // 10 rounds of fight or death\n\n        // report battle outcome\n\n\n    }\n\n    ////////////////////\n    ////    Admin     //\n    ////////////////////\n    function withdraw() external onlyOwner {\n        uint256 tokens = wizardNFT.balanceOf(address(this));\n        require(ecosystemToken.transfer(msg.sender,tokens), \"transfer failed\"); // only if other user is valid\n    }\n\n\n\n}\n",
  "sourcePath": "contracts/WizardBattle.sol",
  "type": "contract"
}