{
  "abi": [
    {
      "inputs": [
        {
          "internalType": "string",
          "name": "name_",
          "type": "string"
        },
        {
          "internalType": "string",
          "name": "symbol_",
          "type": "string"
        },
        {
          "internalType": "address",
          "name": "_address",
          "type": "address"
        }
      ],
      "stateMutability": "nonpayable",
      "type": "constructor"
    },
    {
      "anonymous": false,
      "inputs": [
        {
          "indexed": true,
          "internalType": "address",
          "name": "owner",
          "type": "address"
        },
        {
          "indexed": true,
          "internalType": "address",
          "name": "approved",
          "type": "address"
        },
        {
          "indexed": true,
          "internalType": "uint256",
          "name": "tokenId",
          "type": "uint256"
        }
      ],
      "name": "Approval",
      "type": "event"
    },
    {
      "anonymous": false,
      "inputs": [
        {
          "indexed": true,
          "internalType": "address",
          "name": "owner",
          "type": "address"
        },
        {
          "indexed": true,
          "internalType": "address",
          "name": "operator",
          "type": "address"
        },
        {
          "indexed": false,
          "internalType": "bool",
          "name": "approved",
          "type": "bool"
        }
      ],
      "name": "ApprovalForAll",
      "type": "event"
    },
    {
      "anonymous": false,
      "inputs": [
        {
          "indexed": false,
          "internalType": "address",
          "name": "initiater",
          "type": "address"
        },
        {
          "indexed": true,
          "internalType": "uint256",
          "name": "wizardId",
          "type": "uint256"
        },
        {
          "indexed": false,
          "internalType": "uint256",
          "name": "timestamp",
          "type": "uint256"
        }
      ],
      "name": "Initiated",
      "type": "event"
    },
    {
      "anonymous": false,
      "inputs": [
        {
          "indexed": false,
          "internalType": "address",
          "name": "verifier",
          "type": "address"
        }
      ],
      "name": "NewBattler",
      "type": "event"
    },
    {
      "anonymous": false,
      "inputs": [
        {
          "indexed": false,
          "internalType": "address",
          "name": "battler",
          "type": "address"
        }
      ],
      "name": "NewVerifier",
      "type": "event"
    },
    {
      "anonymous": false,
      "inputs": [
        {
          "indexed": true,
          "internalType": "address",
          "name": "previousOwner",
          "type": "address"
        },
        {
          "indexed": true,
          "internalType": "address",
          "name": "newOwner",
          "type": "address"
        }
      ],
      "name": "OwnershipTransferred",
      "type": "event"
    },
    {
      "anonymous": false,
      "inputs": [
        {
          "indexed": true,
          "internalType": "address",
          "name": "from",
          "type": "address"
        },
        {
          "indexed": true,
          "internalType": "address",
          "name": "to",
          "type": "address"
        },
        {
          "indexed": true,
          "internalType": "uint256",
          "name": "tokenId",
          "type": "uint256"
        }
      ],
      "name": "Transfer",
      "type": "event"
    },
    {
      "inputs": [
        {
          "internalType": "address",
          "name": "to",
          "type": "address"
        },
        {
          "internalType": "uint256",
          "name": "tokenId",
          "type": "uint256"
        }
      ],
      "name": "approve",
      "outputs": [],
      "stateMutability": "nonpayable",
      "type": "function"
    },
    {
      "inputs": [
        {
          "internalType": "address",
          "name": "owner",
          "type": "address"
        }
      ],
      "name": "balanceOf",
      "outputs": [
        {
          "internalType": "uint256",
          "name": "",
          "type": "uint256"
        }
      ],
      "stateMutability": "view",
      "type": "function"
    },
    {
      "inputs": [],
      "name": "battler",
      "outputs": [
        {
          "internalType": "address",
          "name": "",
          "type": "address"
        }
      ],
      "stateMutability": "view",
      "type": "function"
    },
    {
      "inputs": [],
      "name": "contractSettings",
      "outputs": [
        {
          "internalType": "uint256",
          "name": "mintCost",
          "type": "uint256"
        },
        {
          "internalType": "uint256",
          "name": "initiationCost",
          "type": "uint256"
        },
        {
          "internalType": "uint256",
          "name": "maxSupply",
          "type": "uint256"
        },
        {
          "internalType": "uint256",
          "name": "protectionTimeExtension",
          "type": "uint256"
        },
        {
          "internalType": "address",
          "name": "ecosystemTokenAddress",
          "type": "address"
        }
      ],
      "stateMutability": "view",
      "type": "function"
    },
    {
      "inputs": [
        {
          "internalType": "uint256",
          "name": "_tokenId",
          "type": "uint256"
        }
      ],
      "name": "crush",
      "outputs": [],
      "stateMutability": "nonpayable",
      "type": "function"
    },
    {
      "inputs": [
        {
          "internalType": "uint256",
          "name": "_tokenId",
          "type": "uint256"
        },
        {
          "internalType": "string",
          "name": "imageURI",
          "type": "string"
        }
      ],
      "name": "formatTokenURI",
      "outputs": [
        {
          "internalType": "string",
          "name": "",
          "type": "string"
        }
      ],
      "stateMutability": "view",
      "type": "function"
    },
    {
      "inputs": [
        {
          "internalType": "uint256",
          "name": "tokenId",
          "type": "uint256"
        }
      ],
      "name": "getApproved",
      "outputs": [
        {
          "internalType": "address",
          "name": "",
          "type": "address"
        }
      ],
      "stateMutability": "view",
      "type": "function"
    },
    {
      "inputs": [
        {
          "internalType": "uint256",
          "name": "_tokenId",
          "type": "uint256"
        }
      ],
      "name": "getIsDeserted",
      "outputs": [
        {
          "internalType": "bool",
          "name": "",
          "type": "bool"
        }
      ],
      "stateMutability": "nonpayable",
      "type": "function"
    },
    {
      "inputs": [
        {
          "internalType": "uint256",
          "name": "_tokenId",
          "type": "uint256"
        }
      ],
      "name": "getPhaseOf",
      "outputs": [
        {
          "internalType": "uint256",
          "name": "",
          "type": "uint256"
        }
      ],
      "stateMutability": "nonpayable",
      "type": "function"
    },
    {
      "inputs": [
        {
          "internalType": "uint256",
          "name": "_tokenId",
          "type": "uint256"
        }
      ],
      "name": "initiate",
      "outputs": [],
      "stateMutability": "nonpayable",
      "type": "function"
    },
    {
      "inputs": [
        {
          "internalType": "uint256",
          "name": "_wizardId",
          "type": "uint256"
        }
      ],
      "name": "isActive",
      "outputs": [
        {
          "internalType": "bool",
          "name": "",
          "type": "bool"
        }
      ],
      "stateMutability": "nonpayable",
      "type": "function"
    },
    {
      "inputs": [
        {
          "internalType": "address",
          "name": "owner",
          "type": "address"
        },
        {
          "internalType": "address",
          "name": "operator",
          "type": "address"
        }
      ],
      "name": "isApprovedForAll",
      "outputs": [
        {
          "internalType": "bool",
          "name": "",
          "type": "bool"
        }
      ],
      "stateMutability": "view",
      "type": "function"
    },
    {
      "inputs": [],
      "name": "mint",
      "outputs": [],
      "stateMutability": "nonpayable",
      "type": "function"
    },
    {
      "inputs": [],
      "name": "name",
      "outputs": [
        {
          "internalType": "string",
          "name": "",
          "type": "string"
        }
      ],
      "stateMutability": "view",
      "type": "function"
    },
    {
      "inputs": [],
      "name": "owner",
      "outputs": [
        {
          "internalType": "address",
          "name": "",
          "type": "address"
        }
      ],
      "stateMutability": "view",
      "type": "function"
    },
    {
      "inputs": [
        {
          "internalType": "uint256",
          "name": "tokenId",
          "type": "uint256"
        }
      ],
      "name": "ownerOf",
      "outputs": [
        {
          "internalType": "address",
          "name": "",
          "type": "address"
        }
      ],
      "stateMutability": "view",
      "type": "function"
    },
    {
      "inputs": [],
      "name": "renounceOwnership",
      "outputs": [],
      "stateMutability": "nonpayable",
      "type": "function"
    },
    {
      "inputs": [
        {
          "internalType": "uint256",
          "name": "_attackerId",
          "type": "uint256"
        },
        {
          "internalType": "uint256",
          "name": "_defenderId",
          "type": "uint256"
        },
        {
          "internalType": "uint256",
          "name": "_won",
          "type": "uint256"
        },
        {
          "internalType": "uint256",
          "name": "_tokensWon",
          "type": "uint256"
        },
        {
          "internalType": "uint256",
          "name": "_tokensWaged",
          "type": "uint256"
        }
      ],
      "name": "reportBattle",
      "outputs": [],
      "stateMutability": "nonpayable",
      "type": "function"
    },
    {
      "inputs": [
        {
          "internalType": "address",
          "name": "from",
          "type": "address"
        },
        {
          "internalType": "address",
          "name": "to",
          "type": "address"
        },
        {
          "internalType": "uint256",
          "name": "tokenId",
          "type": "uint256"
        }
      ],
      "name": "safeTransferFrom",
      "outputs": [],
      "stateMutability": "nonpayable",
      "type": "function"
    },
    {
      "inputs": [
        {
          "internalType": "address",
          "name": "from",
          "type": "address"
        },
        {
          "internalType": "address",
          "name": "to",
          "type": "address"
        },
        {
          "internalType": "uint256",
          "name": "tokenId",
          "type": "uint256"
        },
        {
          "internalType": "bytes",
          "name": "_data",
          "type": "bytes"
        }
      ],
      "name": "safeTransferFrom",
      "outputs": [],
      "stateMutability": "nonpayable",
      "type": "function"
    },
    {
      "inputs": [
        {
          "internalType": "address",
          "name": "operator",
          "type": "address"
        },
        {
          "internalType": "bool",
          "name": "approved",
          "type": "bool"
        }
      ],
      "name": "setApprovalForAll",
      "outputs": [],
      "stateMutability": "nonpayable",
      "type": "function"
    },
    {
      "inputs": [
        {
          "internalType": "bytes4",
          "name": "interfaceId",
          "type": "bytes4"
        }
      ],
      "name": "supportsInterface",
      "outputs": [
        {
          "internalType": "bool",
          "name": "",
          "type": "bool"
        }
      ],
      "stateMutability": "view",
      "type": "function"
    },
    {
      "inputs": [],
      "name": "symbol",
      "outputs": [
        {
          "internalType": "string",
          "name": "",
          "type": "string"
        }
      ],
      "stateMutability": "view",
      "type": "function"
    },
    {
      "inputs": [
        {
          "internalType": "uint256",
          "name": "index",
          "type": "uint256"
        }
      ],
      "name": "tokenByIndex",
      "outputs": [
        {
          "internalType": "uint256",
          "name": "",
          "type": "uint256"
        }
      ],
      "stateMutability": "view",
      "type": "function"
    },
    {
      "inputs": [
        {
          "internalType": "uint256",
          "name": "",
          "type": "uint256"
        }
      ],
      "name": "tokenIdToStats",
      "outputs": [
        {
          "internalType": "uint256",
          "name": "level",
          "type": "uint256"
        },
        {
          "internalType": "uint256",
          "name": "hp",
          "type": "uint256"
        },
        {
          "internalType": "uint256",
          "name": "mp",
          "type": "uint256"
        },
        {
          "internalType": "uint256",
          "name": "wins",
          "type": "uint256"
        },
        {
          "internalType": "uint256",
          "name": "losses",
          "type": "uint256"
        },
        {
          "internalType": "uint256",
          "name": "battles",
          "type": "uint256"
        },
        {
          "internalType": "uint256",
          "name": "tokensClaimed",
          "type": "uint256"
        },
        {
          "internalType": "uint256",
          "name": "goodness",
          "type": "uint256"
        },
        {
          "internalType": "uint256",
          "name": "badness",
          "type": "uint256"
        },
        {
          "internalType": "uint256",
          "name": "initiationTimestamp",
          "type": "uint256"
        },
        {
          "internalType": "uint256",
          "name": "protectedUntilTimestamp",
          "type": "uint256"
        },
        {
          "internalType": "enum Wizards.ELEMENT",
          "name": "element",
          "type": "uint8"
        }
      ],
      "stateMutability": "view",
      "type": "function"
    },
    {
      "inputs": [
        {
          "internalType": "address",
          "name": "owner",
          "type": "address"
        },
        {
          "internalType": "uint256",
          "name": "index",
          "type": "uint256"
        }
      ],
      "name": "tokenOfOwnerByIndex",
      "outputs": [
        {
          "internalType": "uint256",
          "name": "",
          "type": "uint256"
        }
      ],
      "stateMutability": "view",
      "type": "function"
    },
    {
      "inputs": [
        {
          "internalType": "uint256",
          "name": "_tokenId",
          "type": "uint256"
        }
      ],
      "name": "tokenURI",
      "outputs": [
        {
          "internalType": "string",
          "name": "",
          "type": "string"
        }
      ],
      "stateMutability": "view",
      "type": "function"
    },
    {
      "inputs": [],
      "name": "totalSupply",
      "outputs": [
        {
          "internalType": "uint256",
          "name": "",
          "type": "uint256"
        }
      ],
      "stateMutability": "view",
      "type": "function"
    },
    {
      "inputs": [
        {
          "internalType": "address",
          "name": "from",
          "type": "address"
        },
        {
          "internalType": "address",
          "name": "to",
          "type": "address"
        },
        {
          "internalType": "uint256",
          "name": "tokenId",
          "type": "uint256"
        }
      ],
      "name": "transferFrom",
      "outputs": [],
      "stateMutability": "nonpayable",
      "type": "function"
    },
    {
      "inputs": [
        {
          "internalType": "address",
          "name": "newOwner",
          "type": "address"
        }
      ],
      "name": "transferOwnership",
      "outputs": [],
      "stateMutability": "nonpayable",
      "type": "function"
    },
    {
      "inputs": [
        {
          "internalType": "address",
          "name": "_battler",
          "type": "address"
        }
      ],
      "name": "updateBattler",
      "outputs": [],
      "stateMutability": "nonpayable",
      "type": "function"
    },
    {
      "inputs": [
        {
          "internalType": "address",
          "name": "_verifier",
          "type": "address"
        }
      ],
      "name": "updateVerifier",
      "outputs": [],
      "stateMutability": "nonpayable",
      "type": "function"
    },
    {
      "inputs": [],
      "name": "verifier",
      "outputs": [
        {
          "internalType": "address",
          "name": "",
          "type": "address"
        }
      ],
      "stateMutability": "view",
      "type": "function"
    },
    {
      "inputs": [
        {
          "internalType": "uint256",
          "name": "_tokenId",
          "type": "uint256"
        }
      ],
      "name": "verifyDuty",
      "outputs": [],
      "stateMutability": "nonpayable",
      "type": "function"
    }
  ],
  "bytecode": "60806040523480156200001157600080fd5b5060405162002dcc38038062002dcc833981016040819052620000349162000289565b8251839083906200004d90600090602085019062000116565b5080516200006390600190602084019062000116565b505050620000806200007a620000c060201b60201c565b620000c4565b6127106010556001600f556005600e5562015180601155601280546001600160a01b0319166001600160a01b039290921691909117905550620003539050565b3390565b600a80546001600160a01b038381166001600160a01b0319831681179093556040519116919082907f8be0079c531659141344cd1fd0a4f28419497f9722a3daafe3b4186f6b6457e090600090a35050565b828054620001249062000316565b90600052602060002090601f01602090048101928262000148576000855562000193565b82601f106200016357805160ff191683800117855562000193565b8280016001018555821562000193579182015b828111156200019357825182559160200191906001019062000176565b50620001a1929150620001a5565b5090565b5b80821115620001a15760008155600101620001a6565b634e487b7160e01b600052604160045260246000fd5b600082601f830112620001e457600080fd5b81516001600160401b0380821115620002015762000201620001bc565b604051601f8301601f19908116603f011681019082821181831017156200022c576200022c620001bc565b816040528381526020925086838588010111156200024957600080fd5b600091505b838210156200026d57858201830151818301840152908201906200024e565b838211156200027f5760008385830101525b9695505050505050565b6000806000606084860312156200029f57600080fd5b83516001600160401b0380821115620002b757600080fd5b620002c587838801620001d2565b94506020860151915080821115620002dc57600080fd5b50620002eb86828701620001d2565b604086015190935090506001600160a01b03811681146200030b57600080fd5b809150509250925092565b600181811c908216806200032b57607f821691505b602082108114156200034d57634e487b7160e01b600052602260045260246000fd5b50919050565b612a6980620003636000396000f3fe608060405234801561001057600080fd5b50600436106102065760003560e01c806370a082311161011a578063a22cb465116100ad578063c87bfc7f1161007c578063c87bfc7f1461042d578063db2a0a55146104b5578063e52e324914610509578063e985e9c51461051c578063f2fde38b1461055857600080fd5b8063a22cb465146103e1578063b88d4fde146103f4578063bc0b0d8814610407578063c87b56dd1461041a57600080fd5b806382afd23b116100e957806382afd23b146103a15780638da5cb5b146103b557806395d89b41146103c657806397fc007c146103ce57600080fd5b806370a0823114610360578063715018a6146103735780637539cc7f1461037b5780637901ea781461038e57600080fd5b80631249c58b1161019d5780632f745c591161016c5780632f745c591461031457806342842e0e14610327578063437454b9146102cb5780634f6ccce71461033a5780636352211e1461034d57600080fd5b80631249c58b146102de57806318160ddd146102e657806323b872dd146102ee5780632b7ac3f31461030157600080fd5b8063081812fc116101d9578063081812fc1461027d578063095ea7b3146102a85780630a363d08146102bd5780630c457ce4146102cb57600080fd5b806301ffc9a71461020b5780630419e31414610233578063051063531461025357806306fdde0314610275575b600080fd5b61021e610219366004611fc1565b61056b565b60405190151581526020015b60405180910390f35b610246610241366004612071565b610596565b60405161022a9190612124565b610267610261366004612137565b50600090565b60405190815260200161022a565b610246610756565b61029061028b366004612137565b6107e8565b6040516001600160a01b03909116815260200161022a565b6102bb6102b636600461216c565b610882565b005b61021e610261366004612137565b6102bb6102d9366004612137565b610998565b6102bb6109db565b600854610267565b6102bb6102fc366004612196565b610c6e565b600d54610290906001600160a01b031681565b61026761032236600461216c565b610c9f565b6102bb610335366004612196565b610d35565b610267610348366004612137565b610d50565b61029061035b366004612137565b610de3565b61026761036e3660046121d2565b610e5a565b6102bb610ee1565b6102bb6103893660046121ed565b610f17565b6102bb61039c366004612137565b6110c1565b61021e6103af366004612137565b50600190565b600a546001600160a01b0316610290565b6102466111c9565b6102bb6103dc3660046121d2565b6111d8565b6102bb6103ef366004612228565b6112c4565b6102bb610402366004612264565b611389565b600c54610290906001600160a01b031681565b610246610428366004612137565b6113c1565b61049d61043b366004612137565b600b60208190526000918252604090912080546001820154600283015460038401546004850154600586015460068701546007880154600889015460098a0154600a8b01549a909b0154989a9799969895979496939592949193909260ff168c565b60405161022a9c9b9a999897969594939291906122f6565b600e54600f546010546011546012546104d894939291906001600160a01b031685565b6040805195865260208601949094529284019190915260608301526001600160a01b0316608082015260a00161022a565b6102bb6105173660046121d2565b611462565b61021e61052a366004612377565b6001600160a01b03918216600090815260056020908152604080832093909416825291909152205460ff1690565b6102bb6105663660046121d2565b611547565b60006001600160e01b0319821663780e9d6360e01b14806105905750610590826115df565b92915050565b60606000600b60008581526020019081526020016000206040518061018001604052908160008201548152602001600182015481526020016002820154815260200160038201548152602001600482015481526020016005820154815260200160068201548152602001600782015481526020016008820154815260200160098201548152602001600a8201548152602001600b820160009054906101000a900460ff16600381111561064b5761064b6122e0565b600381111561065c5761065c6122e0565b815250509050600083610672836000015161162f565b6040516020016106839291906123c6565b6040516020818303038152906040529050806106a2836020015161162f565b6106af846040015161162f565b6106bc856060015161162f565b6040516020016106cf9493929190612520565b6040516020818303038152906040529050806106ee836080015161162f565b6106fb8460a0015161162f565b6107088560c0015161162f565b60405160200161071b949392919061264e565b60405160208183030381529060405290508060405160200161073d919061276f565b60408051808303601f1901815291905295945050505050565b6060600080546107659061279e565b80601f01602080910402602001604051908101604052809291908181526020018280546107919061279e565b80156107de5780601f106107b3576101008083540402835291602001916107de565b820191906000526020600020905b8154815290600101906020018083116107c157829003601f168201915b5050505050905090565b6000818152600260205260408120546001600160a01b03166108665760405162461bcd60e51b815260206004820152602c60248201527f4552433732313a20617070726f76656420717565727920666f72206e6f6e657860448201526b34b9ba32b73a103a37b5b2b760a11b60648201526084015b60405180910390fd5b506000908152600460205260409020546001600160a01b031690565b600061088d82610de3565b9050806001600160a01b0316836001600160a01b031614156108fb5760405162461bcd60e51b815260206004820152602160248201527f4552433732313a20617070726f76616c20746f2063757272656e74206f776e656044820152603960f91b606482015260840161085d565b336001600160a01b03821614806109175750610917813361052a565b6109895760405162461bcd60e51b815260206004820152603860248201527f4552433732313a20617070726f76652063616c6c6572206973206e6f74206f7760448201527f6e6572206e6f7220617070726f76656420666f7220616c6c0000000000000000606482015260840161085d565b6109938383611735565b505050565b333014156109d85760405162461bcd60e51b815260206004820152600d60248201526c37b7363c903b32b934b334b2b960991b604482015260640161085d565b50565b60105460085410610a1f5760405162461bcd60e51b815260206004820152600e60248201526d30ba1036b0bc1039bab838363c9760911b604482015260640161085d565b6000601a610a2c60085490565b6040805160208101929092526bffffffffffffffffffffffff193360601b16908201524260548201526074016040516020818303038152906040528051906020012060001c610a7b91906127ef565b90506000610a8a826019612819565b90506000610a99836032612831565b905060006004610aa860085490565b33610ab4426001612819565b86604051602001610af0949392919093845260609290921b6bffffffffffffffffffffffff191660208401526034830152605482015260740190565b6040516020818303038152906040528051906020012060001c610b1391906127ef565b6003811115610b2457610b246122e0565b90506000604051806101800160405280600181526020018581526020018481526020016000815260200160008152602001600081526020016000815260200160008152602001600081526020016000815260200160008152602001836003811115610b9157610b916122e0565b9052905080600b6000610ba360085490565b8152602001908152602001600020600082015181600001556020820151816001015560408201518160020155606082015181600301556080820151816004015560a0820151816005015560c0820151816006015560e082015181600701556101008201518160080155610120820151816009015561014082015181600a015561016082015181600b0160006101000a81548160ff02191690836003811115610c4d57610c4d6122e0565b0217905550905050610c6733610c6260085490565b6117a3565b5050505050565b610c7833826117c1565b610c945760405162461bcd60e51b815260040161085d90612848565b6109938383836118b4565b6000610caa83610e5a565b8210610d0c5760405162461bcd60e51b815260206004820152602b60248201527f455243373231456e756d657261626c653a206f776e657220696e646578206f7560448201526a74206f6620626f756e647360a81b606482015260840161085d565b506001600160a01b03919091166000908152600660209081526040808320938352929052205490565b61099383838360405180602001604052806000815250611389565b6000610d5b60085490565b8210610dbe5760405162461bcd60e51b815260206004820152602c60248201527f455243373231456e756d657261626c653a20676c6f62616c20696e646578206f60448201526b7574206f6620626f756e647360a01b606482015260840161085d565b60088281548110610dd157610dd1612899565b90600052602060002001549050919050565b6000818152600260205260408120546001600160a01b0316806105905760405162461bcd60e51b815260206004820152602960248201527f4552433732313a206f776e657220717565727920666f72206e6f6e657869737460448201526832b73a103a37b5b2b760b91b606482015260840161085d565b60006001600160a01b038216610ec55760405162461bcd60e51b815260206004820152602a60248201527f4552433732313a2062616c616e636520717565727920666f7220746865207a65604482015269726f206164647265737360b01b606482015260840161085d565b506001600160a01b031660009081526003602052604090205490565b600a546001600160a01b03163314610f0b5760405162461bcd60e51b815260040161085d906128af565b610f156000611a5f565b565b600c546001600160a01b03163314610f7d5760405162461bcd60e51b8152602060048201526024808201527f4f6e6c7920626174746c65722063616e2063616c6c20746869732066756e637460448201526334b7b71760e11b606482015260840161085d565b6000858152600b602052604081206003018054859290610f9e908490612819565b90915550508215610fb0576000610fb3565b60015b60ff16600b60008781526020019081526020016000206004016000828254610fdb9190612819565b90915550506000858152600b602052604081206006018054849290611001908490612819565b90915550508215611013576000611016565b60015b60ff16600b6000868152602001908152602001600020600301600082825461103e9190612819565b90915550506000848152600b602052604081206004018054859290611064908490612819565b90915550506000848152600b60205260408120600601805484929061108a908490612819565b909155505082610c67576000848152600b6020526040812060060180548392906110b5908490612819565b90915550505050505050565b336110cb82610de3565b6001600160a01b0316146111115760405162461bcd60e51b815260206004820152600d60248201526c36bab9ba1031329037bbb732b960991b604482015260640161085d565b6000818152600b6020526040902060090154156111645760405162461bcd60e51b8152602060048201526011602482015270185b1c9958591e481a5b9a5d1a585d1959607a1b604482015260640161085d565b6000818152600b60205260409020426009820181905560115461118691612819565b600a8201556040805133815242602082015283917f1782b66bbe30900ee88feab2f2cd676d136386cc51cdf73f6cae8b1da253ddf7910160405180910390a25050565b6060600180546107659061279e565b600a546001600160a01b031633146112025760405162461bcd60e51b815260040161085d906128af565b6001600160a01b038116158015906112285750600d546001600160a01b03828116911614155b61126f5760405162461bcd60e51b8152602060048201526018602482015277496e76616c6964206f70657261746f72206164647265737360401b604482015260640161085d565b600d80546001600160a01b0319166001600160a01b0383169081179091556040519081527fa1fd6a6669acb930bae242943bb9fa08ddcba665c707261e9730ee0305fb85e5906020015b60405180910390a150565b6001600160a01b03821633141561131d5760405162461bcd60e51b815260206004820152601960248201527f4552433732313a20617070726f766520746f2063616c6c657200000000000000604482015260640161085d565b3360008181526005602090815260408083206001600160a01b03871680855290835292819020805460ff191686151590811790915590519081529192917f17307eab39ab6107e8899845ad3d59bd9653f200f220920489ca2b5937696c31910160405180910390a35050565b61139333836117c1565b6113af5760405162461bcd60e51b815260040161085d90612848565b6113bb84848484611ab1565b50505050565b6000818152600260205260409020546060906001600160a01b03166114405760405162461bcd60e51b815260206004820152602f60248201527f4552433732314d657461646174613a2055524920717565727920666f72206e6f60448201526e3732bc34b9ba32b73a103a37b5b2b760891b606482015260840161085d565b610590826040518060800160405280605e81526020016129d6605e9139610596565b600a546001600160a01b0316331461148c5760405162461bcd60e51b815260040161085d906128af565b6001600160a01b038116158015906114b25750600c546001600160a01b03828116911614155b6114f95760405162461bcd60e51b8152602060048201526018602482015277496e76616c6964206f70657261746f72206164647265737360401b604482015260640161085d565b600c80546001600160a01b0319166001600160a01b0383169081179091556040519081527fa6996d36756222f1028b4a1a97cbfa625158cf8e69ac5dcf367de3bd730d34a4906020016112b9565b600a546001600160a01b031633146115715760405162461bcd60e51b815260040161085d906128af565b6001600160a01b0381166115d65760405162461bcd60e51b815260206004820152602660248201527f4f776e61626c653a206e6577206f776e657220697320746865207a65726f206160448201526564647265737360d01b606482015260840161085d565b6109d881611a5f565b60006001600160e01b031982166380ac58cd60e01b148061161057506001600160e01b03198216635b5e139f60e01b145b8061059057506301ffc9a760e01b6001600160e01b0319831614610590565b6060816116535750506040805180820190915260018152600360fc1b602082015290565b8160005b811561167d5780611667816128e4565b91506116769050600a836128ff565b9150611657565b60008167ffffffffffffffff81111561169857611698611fe5565b6040519080825280601f01601f1916602001820160405280156116c2576020820181803683370190505b5090505b841561172d576116d7600183612831565b91506116e4600a866127ef565b6116ef906030612819565b60f81b81838151811061170457611704612899565b60200101906001600160f81b031916908160001a905350611726600a866128ff565b94506116c6565b949350505050565b600081815260046020526040902080546001600160a01b0319166001600160a01b038416908117909155819061176a82610de3565b6001600160a01b03167f8c5be1e5ebec7d5bd14f71427d1e84f3dd0314c0f7b2291e5b200ac8c7c3b92560405160405180910390a45050565b6117bd828260405180602001604052806000815250611ae4565b5050565b6000818152600260205260408120546001600160a01b031661183a5760405162461bcd60e51b815260206004820152602c60248201527f4552433732313a206f70657261746f7220717565727920666f72206e6f6e657860448201526b34b9ba32b73a103a37b5b2b760a11b606482015260840161085d565b600061184583610de3565b9050806001600160a01b0316846001600160a01b031614806118805750836001600160a01b0316611875846107e8565b6001600160a01b0316145b8061172d57506001600160a01b0380821660009081526005602090815260408083209388168352929052205460ff1661172d565b826001600160a01b03166118c782610de3565b6001600160a01b03161461192f5760405162461bcd60e51b815260206004820152602960248201527f4552433732313a207472616e73666572206f6620746f6b656e2074686174206960448201526839903737ba1037bbb760b91b606482015260840161085d565b6001600160a01b0382166119915760405162461bcd60e51b8152602060048201526024808201527f4552433732313a207472616e7366657220746f20746865207a65726f206164646044820152637265737360e01b606482015260840161085d565b61199c838383611b17565b6119a7600082611735565b6001600160a01b03831660009081526003602052604081208054600192906119d0908490612831565b90915550506001600160a01b03821660009081526003602052604081208054600192906119fe908490612819565b909155505060008181526002602052604080822080546001600160a01b0319166001600160a01b0386811691821790925591518493918716917fddf252ad1be2c89b69c2b068fc378daa952ba7f163c4a11628f55a4df523b3ef91a4505050565b600a80546001600160a01b038381166001600160a01b0319831681179093556040519116919082907f8be0079c531659141344cd1fd0a4f28419497f9722a3daafe3b4186f6b6457e090600090a35050565b611abc8484846118b4565b611ac884848484611bcf565b6113bb5760405162461bcd60e51b815260040161085d90612913565b611aee8383611ccd565b611afb6000848484611bcf565b6109935760405162461bcd60e51b815260040161085d90612913565b6001600160a01b038316611b7257611b6d81600880546000838152600960205260408120829055600182018355919091527ff3f7a9fe364faab93b216da50a3214154f22a0a2b415b23a84c8169e8b636ee30155565b611b95565b816001600160a01b0316836001600160a01b031614611b9557611b958382611e1b565b6001600160a01b038216611bac5761099381611eb8565b826001600160a01b0316826001600160a01b031614610993576109938282611f67565b60006001600160a01b0384163b15611cc257604051630a85bd0160e11b81526001600160a01b0385169063150b7a0290611c13903390899088908890600401612965565b6020604051808303816000875af1925050508015611c4e575060408051601f3d908101601f19168201909252611c4b918101906129a2565b60015b611ca8573d808015611c7c576040519150601f19603f3d011682016040523d82523d6000602084013e611c81565b606091505b508051611ca05760405162461bcd60e51b815260040161085d90612913565b805181602001fd5b6001600160e01b031916630a85bd0160e11b14905061172d565b506001949350505050565b6001600160a01b038216611d235760405162461bcd60e51b815260206004820181905260248201527f4552433732313a206d696e7420746f20746865207a65726f2061646472657373604482015260640161085d565b6000818152600260205260409020546001600160a01b031615611d885760405162461bcd60e51b815260206004820152601c60248201527f4552433732313a20746f6b656e20616c7265616479206d696e74656400000000604482015260640161085d565b611d9460008383611b17565b6001600160a01b0382166000908152600360205260408120805460019290611dbd908490612819565b909155505060008181526002602052604080822080546001600160a01b0319166001600160a01b03861690811790915590518392907fddf252ad1be2c89b69c2b068fc378daa952ba7f163c4a11628f55a4df523b3ef908290a45050565b60006001611e2884610e5a565b611e329190612831565b600083815260076020526040902054909150808214611e85576001600160a01b03841660009081526006602090815260408083208584528252808320548484528184208190558352600790915290208190555b5060009182526007602090815260408084208490556001600160a01b039094168352600681528383209183525290812055565b600854600090611eca90600190612831565b60008381526009602052604081205460088054939450909284908110611ef257611ef2612899565b906000526020600020015490508060088381548110611f1357611f13612899565b6000918252602080832090910192909255828152600990915260408082208490558582528120556008805480611f4b57611f4b6129bf565b6001900381819060005260206000200160009055905550505050565b6000611f7283610e5a565b6001600160a01b039093166000908152600660209081526040808320868452825280832085905593825260079052919091209190915550565b6001600160e01b0319811681146109d857600080fd5b600060208284031215611fd357600080fd5b8135611fde81611fab565b9392505050565b634e487b7160e01b600052604160045260246000fd5b600067ffffffffffffffff8084111561201657612016611fe5565b604051601f8501601f19908116603f0116810190828211818310171561203e5761203e611fe5565b8160405280935085815286868601111561205757600080fd5b858560208301376000602087830101525050509392505050565b6000806040838503121561208457600080fd5b82359150602083013567ffffffffffffffff8111156120a257600080fd5b8301601f810185136120b357600080fd5b6120c285823560208401611ffb565b9150509250929050565b60005b838110156120e75781810151838201526020016120cf565b838111156113bb5750506000910152565b600081518084526121108160208601602086016120cc565b601f01601f19169290920160200192915050565b602081526000611fde60208301846120f8565b60006020828403121561214957600080fd5b5035919050565b80356001600160a01b038116811461216757600080fd5b919050565b6000806040838503121561217f57600080fd5b61218883612150565b946020939093013593505050565b6000806000606084860312156121ab57600080fd5b6121b484612150565b92506121c260208501612150565b9150604084013590509250925092565b6000602082840312156121e457600080fd5b611fde82612150565b600080600080600060a0868803121561220557600080fd5b505083359560208501359550604085013594606081013594506080013592509050565b6000806040838503121561223b57600080fd5b61224483612150565b91506020830135801515811461225957600080fd5b809150509250929050565b6000806000806080858703121561227a57600080fd5b61228385612150565b935061229160208601612150565b925060408501359150606085013567ffffffffffffffff8111156122b457600080fd5b8501601f810187136122c557600080fd5b6122d487823560208401611ffb565b91505092959194509250565b634e487b7160e01b600052602160045260246000fd5b6000610180820190508d82528c60208301528b60408301528a60608301528960808301528860a08301528760c08301528660e08301528561010083015284610120830152836101408301526004831061235f57634e487b7160e01b600052602160045260246000fd5b826101608301529d9c50505050505050505050505050565b6000806040838503121561238a57600080fd5b61239383612150565b91506123a160208401612150565b90509250929050565b600081516123bc8185602086016120cc565b9290920192915050565b7f7b226465736372697074696f6e223a202257697a61726441726d79220000000081527f2c202265787465726e616c5f75726c223a202268747470733a2f2f77697a6172601c8201527f6461726d794e46542e636f6d20286f7220736f6d657468696e67206c696b6520603c820152653a3434b9949160d11b605c8201526b16101134b6b0b3b2911d101160a11b6062820152825160009061246f81606e8501602088016120cc565b601160f91b606e91840191820152711610113730b6b2911d10112bb4bd30b9321160711b606f8201527f2c202261747472696275746573223a205b7b22646973706c61795f747970652260818201527f3a20226e756d626572222c202274726169745f74797065223a20226c6576656c60a18201526b0111610113b30b63ab2911d160a51b60c182015261251761250960cd8301866123aa565b61207d60f01b815260020190565b95945050505050565b60008551612532818460208a016120cc565b80830190507f2c207b22646973706c61795f74797065223a20226e756d626572222c202274728082527f6169745f74797065223a20226870222c202276616c7565223a200000000000006020830152865161259481603a850160208b016120cc565b80830192505061207d60f01b80603a84015281603c8401527f6169745f74797065223a20226d70222c202276616c7565223a20000000000000605c84015286516125e5816076860160208b016120cc565b607693019283015260788201527f6169745f74797065223a202277696e73222c202276616c7565223a20000000006098820152835161262b8160b48401602088016120cc565b61264260b48284010161207d60f01b815260020190565b98975050505050505050565b60008551612660818460208a016120cc565b80830190507f2c207b22646973706c61795f74797065223a20226e756d626572222c202274728082527f6169745f74797065223a20226c6f73736573222c202276616c7565223a200000602083015286516126c281603e850160208b016120cc565b80830192505061207d60f01b80603e8401528160408401527f6169745f74797065223a2022626174746c6573222c202276616c7565223a20006060840152865161271381607f860160208b016120cc565b607f93019283015260818201527f6169745f74797065223a2022746f6b656e73436c61696d6564222c202276616c60a18201526403ab2911d160dd1b60c182015261276461250960c68301866123aa565b979650505050505050565b600082516127818184602087016120cc565b605d60f81b920191825250607d60f81b6001820152600201919050565b600181811c908216806127b257607f821691505b602082108114156127d357634e487b7160e01b600052602260045260246000fd5b50919050565b634e487b7160e01b600052601260045260246000fd5b6000826127fe576127fe6127d9565b500690565b634e487b7160e01b600052601160045260246000fd5b6000821982111561282c5761282c612803565b500190565b60008282101561284357612843612803565b500390565b60208082526031908201527f4552433732313a207472616e736665722063616c6c6572206973206e6f74206f6040820152701ddb995c881b9bdc88185c1c1c9bdd9959607a1b606082015260800190565b634e487b7160e01b600052603260045260246000fd5b6020808252818101527f4f776e61626c653a2063616c6c6572206973206e6f7420746865206f776e6572604082015260600190565b60006000198214156128f8576128f8612803565b5060010190565b60008261290e5761290e6127d9565b500490565b60208082526032908201527f4552433732313a207472616e7366657220746f206e6f6e20455243373231526560408201527131b2b4bb32b91034b6b83632b6b2b73a32b960711b606082015260800190565b6001600160a01b0385811682528416602082015260408101839052608060608201819052600090612998908301846120f8565b9695505050505050565b6000602082840312156129b457600080fd5b8151611fde81611fab565b634e487b7160e01b600052603160045260246000fdfe68747470733a2f2f6173322e667463646e2e6e65742f76322f6a70672f30332f31322f37372f30332f313030305f465f3331323737303334395f346c6b464e336532556c4f34336b516c46656d464e4970566b47355a777974712e6a7067a2646970667358221220d539756f17b1dca7116c5d1e92b57fdb5bd3d0bc81ab32828d9b442679e1382864736f6c634300080c0033",
  "bytecodeSha1": "24ced8e0285d37caf367a368fd6518dc0f52ad10",
  "compiler": {
    "evm_version": "istanbul",
    "optimizer": {
      "enabled": true,
      "runs": 200
    },
    "version": "0.8.12+commit.f00d7308"
  },
  "contractName": "Wizards",
  "language": "Solidity",
  "natspec": {
    "kind": "dev",
    "methods": {
      "approve(address,uint256)": {
        "details": "See {IERC721-approve}."
      },
      "balanceOf(address)": {
        "details": "See {IERC721-balanceOf}."
      },
      "crush(uint256)": {
        "details": "uninitiate an NFT that is negligent in duties. Reward crusher"
      },
      "getApproved(uint256)": {
        "details": "See {IERC721-getApproved}."
      },
      "getIsDeserted(uint256)": {
        "details": "check if NFT is deserted--negligent in duties."
      },
      "getPhaseOf(uint256)": {
        "details": "Gets phase of NFT"
      },
      "initiate(uint256)": {
        "details": "Moves NFT from inactive to active"
      },
      "isApprovedForAll(address,address)": {
        "details": "See {IERC721-isApprovedForAll}."
      },
      "name()": {
        "details": "See {IERC721Metadata-name}."
      },
      "owner()": {
        "details": "Returns the address of the current owner."
      },
      "ownerOf(uint256)": {
        "details": "See {IERC721-ownerOf}."
      },
      "renounceOwnership()": {
        "details": "Leaves the contract without owner. It will not be possible to call `onlyOwner` functions anymore. Can only be called by the current owner. NOTE: Renouncing ownership will leave the contract without an owner, thereby removing any functionality that is only available to the owner."
      },
      "safeTransferFrom(address,address,uint256)": {
        "details": "See {IERC721-safeTransferFrom}."
      },
      "safeTransferFrom(address,address,uint256,bytes)": {
        "details": "See {IERC721-safeTransferFrom}."
      },
      "setApprovalForAll(address,bool)": {
        "details": "See {IERC721-setApprovalForAll}."
      },
      "supportsInterface(bytes4)": {
        "details": "See {IERC165-supportsInterface}."
      },
      "symbol()": {
        "details": "See {IERC721Metadata-symbol}."
      },
      "tokenByIndex(uint256)": {
        "details": "See {IERC721Enumerable-tokenByIndex}."
      },
      "tokenOfOwnerByIndex(address,uint256)": {
        "details": "See {IERC721Enumerable-tokenOfOwnerByIndex}."
      },
      "totalSupply()": {
        "details": "See {IERC721Enumerable-totalSupply}."
      },
      "transferFrom(address,address,uint256)": {
        "details": "See {IERC721-transferFrom}."
      },
      "transferOwnership(address)": {
        "details": "Transfers ownership of the contract to a new account (`newOwner`). Can only be called by the current owner."
      },
      "verifier()": {
        "notice": "contract address to update stats"
      },
      "verifyDuty(uint256)": {
        "details": "Verify duties of NFT. Not duty specific"
      }
    },
    "version": 1
  },
  "opcodes": "PUSH1 0x80 PUSH1 0x40 MSTORE CALLVALUE DUP1 ISZERO PUSH2 0x10 JUMPI PUSH1 0x0 DUP1 REVERT JUMPDEST POP PUSH1 0x4 CALLDATASIZE LT PUSH2 0x206 JUMPI PUSH1 0x0 CALLDATALOAD PUSH1 0xE0 SHR DUP1 PUSH4 0x70A08231 GT PUSH2 0x11A JUMPI DUP1 PUSH4 0xA22CB465 GT PUSH2 0xAD JUMPI DUP1 PUSH4 0xC87BFC7F GT PUSH2 0x7C JUMPI DUP1 PUSH4 0xC87BFC7F EQ PUSH2 0x42D JUMPI DUP1 PUSH4 0xDB2A0A55 EQ PUSH2 0x4B5 JUMPI DUP1 PUSH4 0xE52E3249 EQ PUSH2 0x509 JUMPI DUP1 PUSH4 0xE985E9C5 EQ PUSH2 0x51C JUMPI DUP1 PUSH4 0xF2FDE38B EQ PUSH2 0x558 JUMPI PUSH1 0x0 DUP1 REVERT JUMPDEST DUP1 PUSH4 0xA22CB465 EQ PUSH2 0x3E1 JUMPI DUP1 PUSH4 0xB88D4FDE EQ PUSH2 0x3F4 JUMPI DUP1 PUSH4 0xBC0B0D88 EQ PUSH2 0x407 JUMPI DUP1 PUSH4 0xC87B56DD EQ PUSH2 0x41A JUMPI PUSH1 0x0 DUP1 REVERT JUMPDEST DUP1 PUSH4 0x82AFD23B GT PUSH2 0xE9 JUMPI DUP1 PUSH4 0x82AFD23B EQ PUSH2 0x3A1 JUMPI DUP1 PUSH4 0x8DA5CB5B EQ PUSH2 0x3B5 JUMPI DUP1 PUSH4 0x95D89B41 EQ PUSH2 0x3C6 JUMPI DUP1 PUSH4 0x97FC007C EQ PUSH2 0x3CE JUMPI PUSH1 0x0 DUP1 REVERT JUMPDEST DUP1 PUSH4 0x70A08231 EQ PUSH2 0x360 JUMPI DUP1 PUSH4 0x715018A6 EQ PUSH2 0x373 JUMPI DUP1 PUSH4 0x7539CC7F EQ PUSH2 0x37B JUMPI DUP1 PUSH4 0x7901EA78 EQ PUSH2 0x38E JUMPI PUSH1 0x0 DUP1 REVERT JUMPDEST DUP1 PUSH4 0x1249C58B GT PUSH2 0x19D JUMPI DUP1 PUSH4 0x2F745C59 GT PUSH2 0x16C JUMPI DUP1 PUSH4 0x2F745C59 EQ PUSH2 0x314 JUMPI DUP1 PUSH4 0x42842E0E EQ PUSH2 0x327 JUMPI DUP1 PUSH4 0x437454B9 EQ PUSH2 0x2CB JUMPI DUP1 PUSH4 0x4F6CCCE7 EQ PUSH2 0x33A JUMPI DUP1 PUSH4 0x6352211E EQ PUSH2 0x34D JUMPI PUSH1 0x0 DUP1 REVERT JUMPDEST DUP1 PUSH4 0x1249C58B EQ PUSH2 0x2DE JUMPI DUP1 PUSH4 0x18160DDD EQ PUSH2 0x2E6 JUMPI DUP1 PUSH4 0x23B872DD EQ PUSH2 0x2EE JUMPI DUP1 PUSH4 0x2B7AC3F3 EQ PUSH2 0x301 JUMPI PUSH1 0x0 DUP1 REVERT JUMPDEST DUP1 PUSH4 0x81812FC GT PUSH2 0x1D9 JUMPI DUP1 PUSH4 0x81812FC EQ PUSH2 0x27D JUMPI DUP1 PUSH4 0x95EA7B3 EQ PUSH2 0x2A8 JUMPI DUP1 PUSH4 0xA363D08 EQ PUSH2 0x2BD JUMPI DUP1 PUSH4 0xC457CE4 EQ PUSH2 0x2CB JUMPI PUSH1 0x0 DUP1 REVERT JUMPDEST DUP1 PUSH4 0x1FFC9A7 EQ PUSH2 0x20B JUMPI DUP1 PUSH4 0x419E314 EQ PUSH2 0x233 JUMPI DUP1 PUSH4 0x5106353 EQ PUSH2 0x253 JUMPI DUP1 PUSH4 0x6FDDE03 EQ PUSH2 0x275 JUMPI JUMPDEST PUSH1 0x0 DUP1 REVERT JUMPDEST PUSH2 0x21E PUSH2 0x219 CALLDATASIZE PUSH1 0x4 PUSH2 0x1FC1 JUMP JUMPDEST PUSH2 0x56B JUMP JUMPDEST PUSH1 0x40 MLOAD SWAP1 ISZERO ISZERO DUP2 MSTORE PUSH1 0x20 ADD JUMPDEST PUSH1 0x40 MLOAD DUP1 SWAP2 SUB SWAP1 RETURN JUMPDEST PUSH2 0x246 PUSH2 0x241 CALLDATASIZE PUSH1 0x4 PUSH2 0x2071 JUMP JUMPDEST PUSH2 0x596 JUMP JUMPDEST PUSH1 0x40 MLOAD PUSH2 0x22A SWAP2 SWAP1 PUSH2 0x2124 JUMP JUMPDEST PUSH2 0x267 PUSH2 0x261 CALLDATASIZE PUSH1 0x4 PUSH2 0x2137 JUMP JUMPDEST POP PUSH1 0x0 SWAP1 JUMP JUMPDEST PUSH1 0x40 MLOAD SWAP1 DUP2 MSTORE PUSH1 0x20 ADD PUSH2 0x22A JUMP JUMPDEST PUSH2 0x246 PUSH2 0x756 JUMP JUMPDEST PUSH2 0x290 PUSH2 0x28B CALLDATASIZE PUSH1 0x4 PUSH2 0x2137 JUMP JUMPDEST PUSH2 0x7E8 JUMP JUMPDEST PUSH1 0x40 MLOAD PUSH1 0x1 PUSH1 0x1 PUSH1 0xA0 SHL SUB SWAP1 SWAP2 AND DUP2 MSTORE PUSH1 0x20 ADD PUSH2 0x22A JUMP JUMPDEST PUSH2 0x2BB PUSH2 0x2B6 CALLDATASIZE PUSH1 0x4 PUSH2 0x216C JUMP JUMPDEST PUSH2 0x882 JUMP JUMPDEST STOP JUMPDEST PUSH2 0x21E PUSH2 0x261 CALLDATASIZE PUSH1 0x4 PUSH2 0x2137 JUMP JUMPDEST PUSH2 0x2BB PUSH2 0x2D9 CALLDATASIZE PUSH1 0x4 PUSH2 0x2137 JUMP JUMPDEST PUSH2 0x998 JUMP JUMPDEST PUSH2 0x2BB PUSH2 0x9DB JUMP JUMPDEST PUSH1 0x8 SLOAD PUSH2 0x267 JUMP JUMPDEST PUSH2 0x2BB PUSH2 0x2FC CALLDATASIZE PUSH1 0x4 PUSH2 0x2196 JUMP JUMPDEST PUSH2 0xC6E JUMP JUMPDEST PUSH1 0xD SLOAD PUSH2 0x290 SWAP1 PUSH1 0x1 PUSH1 0x1 PUSH1 0xA0 SHL SUB AND DUP2 JUMP JUMPDEST PUSH2 0x267 PUSH2 0x322 CALLDATASIZE PUSH1 0x4 PUSH2 0x216C JUMP JUMPDEST PUSH2 0xC9F JUMP JUMPDEST PUSH2 0x2BB PUSH2 0x335 CALLDATASIZE PUSH1 0x4 PUSH2 0x2196 JUMP JUMPDEST PUSH2 0xD35 JUMP JUMPDEST PUSH2 0x267 PUSH2 0x348 CALLDATASIZE PUSH1 0x4 PUSH2 0x2137 JUMP JUMPDEST PUSH2 0xD50 JUMP JUMPDEST PUSH2 0x290 PUSH2 0x35B CALLDATASIZE PUSH1 0x4 PUSH2 0x2137 JUMP JUMPDEST PUSH2 0xDE3 JUMP JUMPDEST PUSH2 0x267 PUSH2 0x36E CALLDATASIZE PUSH1 0x4 PUSH2 0x21D2 JUMP JUMPDEST PUSH2 0xE5A JUMP JUMPDEST PUSH2 0x2BB PUSH2 0xEE1 JUMP JUMPDEST PUSH2 0x2BB PUSH2 0x389 CALLDATASIZE PUSH1 0x4 PUSH2 0x21ED JUMP JUMPDEST PUSH2 0xF17 JUMP JUMPDEST PUSH2 0x2BB PUSH2 0x39C CALLDATASIZE PUSH1 0x4 PUSH2 0x2137 JUMP JUMPDEST PUSH2 0x10C1 JUMP JUMPDEST PUSH2 0x21E PUSH2 0x3AF CALLDATASIZE PUSH1 0x4 PUSH2 0x2137 JUMP JUMPDEST POP PUSH1 0x1 SWAP1 JUMP JUMPDEST PUSH1 0xA SLOAD PUSH1 0x1 PUSH1 0x1 PUSH1 0xA0 SHL SUB AND PUSH2 0x290 JUMP JUMPDEST PUSH2 0x246 PUSH2 0x11C9 JUMP JUMPDEST PUSH2 0x2BB PUSH2 0x3DC CALLDATASIZE PUSH1 0x4 PUSH2 0x21D2 JUMP JUMPDEST PUSH2 0x11D8 JUMP JUMPDEST PUSH2 0x2BB PUSH2 0x3EF CALLDATASIZE PUSH1 0x4 PUSH2 0x2228 JUMP JUMPDEST PUSH2 0x12C4 JUMP JUMPDEST PUSH2 0x2BB PUSH2 0x402 CALLDATASIZE PUSH1 0x4 PUSH2 0x2264 JUMP JUMPDEST PUSH2 0x1389 JUMP JUMPDEST PUSH1 0xC SLOAD PUSH2 0x290 SWAP1 PUSH1 0x1 PUSH1 0x1 PUSH1 0xA0 SHL SUB AND DUP2 JUMP JUMPDEST PUSH2 0x246 PUSH2 0x428 CALLDATASIZE PUSH1 0x4 PUSH2 0x2137 JUMP JUMPDEST PUSH2 0x13C1 JUMP JUMPDEST PUSH2 0x49D PUSH2 0x43B CALLDATASIZE PUSH1 0x4 PUSH2 0x2137 JUMP JUMPDEST PUSH1 0xB PUSH1 0x20 DUP2 SWAP1 MSTORE PUSH1 0x0 SWAP2 DUP3 MSTORE PUSH1 0x40 SWAP1 SWAP2 KECCAK256 DUP1 SLOAD PUSH1 0x1 DUP3 ADD SLOAD PUSH1 0x2 DUP4 ADD SLOAD PUSH1 0x3 DUP5 ADD SLOAD PUSH1 0x4 DUP6 ADD SLOAD PUSH1 0x5 DUP7 ADD SLOAD PUSH1 0x6 DUP8 ADD SLOAD PUSH1 0x7 DUP9 ADD SLOAD PUSH1 0x8 DUP10 ADD SLOAD PUSH1 0x9 DUP11 ADD SLOAD PUSH1 0xA DUP12 ADD SLOAD SWAP11 SWAP1 SWAP12 ADD SLOAD SWAP9 SWAP11 SWAP8 SWAP10 SWAP7 SWAP9 SWAP6 SWAP8 SWAP5 SWAP7 SWAP4 SWAP6 SWAP3 SWAP5 SWAP2 SWAP4 SWAP1 SWAP3 PUSH1 0xFF AND DUP13 JUMP JUMPDEST PUSH1 0x40 MLOAD PUSH2 0x22A SWAP13 SWAP12 SWAP11 SWAP10 SWAP9 SWAP8 SWAP7 SWAP6 SWAP5 SWAP4 SWAP3 SWAP2 SWAP1 PUSH2 0x22F6 JUMP JUMPDEST PUSH1 0xE SLOAD PUSH1 0xF SLOAD PUSH1 0x10 SLOAD PUSH1 0x11 SLOAD PUSH1 0x12 SLOAD PUSH2 0x4D8 SWAP5 SWAP4 SWAP3 SWAP2 SWAP1 PUSH1 0x1 PUSH1 0x1 PUSH1 0xA0 SHL SUB AND DUP6 JUMP JUMPDEST PUSH1 0x40 DUP1 MLOAD SWAP6 DUP7 MSTORE PUSH1 0x20 DUP7 ADD SWAP5 SWAP1 SWAP5 MSTORE SWAP3 DUP5 ADD SWAP2 SWAP1 SWAP2 MSTORE PUSH1 0x60 DUP4 ADD MSTORE PUSH1 0x1 PUSH1 0x1 PUSH1 0xA0 SHL SUB AND PUSH1 0x80 DUP3 ADD MSTORE PUSH1 0xA0 ADD PUSH2 0x22A JUMP JUMPDEST PUSH2 0x2BB PUSH2 0x517 CALLDATASIZE PUSH1 0x4 PUSH2 0x21D2 JUMP JUMPDEST PUSH2 0x1462 JUMP JUMPDEST PUSH2 0x21E PUSH2 0x52A CALLDATASIZE PUSH1 0x4 PUSH2 0x2377 JUMP JUMPDEST PUSH1 0x1 PUSH1 0x1 PUSH1 0xA0 SHL SUB SWAP2 DUP3 AND PUSH1 0x0 SWAP1 DUP2 MSTORE PUSH1 0x5 PUSH1 0x20 SWAP1 DUP2 MSTORE PUSH1 0x40 DUP1 DUP4 KECCAK256 SWAP4 SWAP1 SWAP5 AND DUP3 MSTORE SWAP2 SWAP1 SWAP2 MSTORE KECCAK256 SLOAD PUSH1 0xFF AND SWAP1 JUMP JUMPDEST PUSH2 0x2BB PUSH2 0x566 CALLDATASIZE PUSH1 0x4 PUSH2 0x21D2 JUMP JUMPDEST PUSH2 0x1547 JUMP JUMPDEST PUSH1 0x0 PUSH1 0x1 PUSH1 0x1 PUSH1 0xE0 SHL SUB NOT DUP3 AND PUSH4 0x780E9D63 PUSH1 0xE0 SHL EQ DUP1 PUSH2 0x590 JUMPI POP PUSH2 0x590 DUP3 PUSH2 0x15DF JUMP JUMPDEST SWAP3 SWAP2 POP POP JUMP JUMPDEST PUSH1 0x60 PUSH1 0x0 PUSH1 0xB PUSH1 0x0 DUP6 DUP2 MSTORE PUSH1 0x20 ADD SWAP1 DUP2 MSTORE PUSH1 0x20 ADD PUSH1 0x0 KECCAK256 PUSH1 0x40 MLOAD DUP1 PUSH2 0x180 ADD PUSH1 0x40 MSTORE SWAP1 DUP2 PUSH1 0x0 DUP3 ADD SLOAD DUP2 MSTORE PUSH1 0x20 ADD PUSH1 0x1 DUP3 ADD SLOAD DUP2 MSTORE PUSH1 0x20 ADD PUSH1 0x2 DUP3 ADD SLOAD DUP2 MSTORE PUSH1 0x20 ADD PUSH1 0x3 DUP3 ADD SLOAD DUP2 MSTORE PUSH1 0x20 ADD PUSH1 0x4 DUP3 ADD SLOAD DUP2 MSTORE PUSH1 0x20 ADD PUSH1 0x5 DUP3 ADD SLOAD DUP2 MSTORE PUSH1 0x20 ADD PUSH1 0x6 DUP3 ADD SLOAD DUP2 MSTORE PUSH1 0x20 ADD PUSH1 0x7 DUP3 ADD SLOAD DUP2 MSTORE PUSH1 0x20 ADD PUSH1 0x8 DUP3 ADD SLOAD DUP2 MSTORE PUSH1 0x20 ADD PUSH1 0x9 DUP3 ADD SLOAD DUP2 MSTORE PUSH1 0x20 ADD PUSH1 0xA DUP3 ADD SLOAD DUP2 MSTORE PUSH1 0x20 ADD PUSH1 0xB DUP3 ADD PUSH1 0x0 SWAP1 SLOAD SWAP1 PUSH2 0x100 EXP SWAP1 DIV PUSH1 0xFF AND PUSH1 0x3 DUP2 GT ISZERO PUSH2 0x64B JUMPI PUSH2 0x64B PUSH2 0x22E0 JUMP JUMPDEST PUSH1 0x3 DUP2 GT ISZERO PUSH2 0x65C JUMPI PUSH2 0x65C PUSH2 0x22E0 JUMP JUMPDEST DUP2 MSTORE POP POP SWAP1 POP PUSH1 0x0 DUP4 PUSH2 0x672 DUP4 PUSH1 0x0 ADD MLOAD PUSH2 0x162F JUMP JUMPDEST PUSH1 0x40 MLOAD PUSH1 0x20 ADD PUSH2 0x683 SWAP3 SWAP2 SWAP1 PUSH2 0x23C6 JUMP JUMPDEST PUSH1 0x40 MLOAD PUSH1 0x20 DUP2 DUP4 SUB SUB DUP2 MSTORE SWAP1 PUSH1 0x40 MSTORE SWAP1 POP DUP1 PUSH2 0x6A2 DUP4 PUSH1 0x20 ADD MLOAD PUSH2 0x162F JUMP JUMPDEST PUSH2 0x6AF DUP5 PUSH1 0x40 ADD MLOAD PUSH2 0x162F JUMP JUMPDEST PUSH2 0x6BC DUP6 PUSH1 0x60 ADD MLOAD PUSH2 0x162F JUMP JUMPDEST PUSH1 0x40 MLOAD PUSH1 0x20 ADD PUSH2 0x6CF SWAP5 SWAP4 SWAP3 SWAP2 SWAP1 PUSH2 0x2520 JUMP JUMPDEST PUSH1 0x40 MLOAD PUSH1 0x20 DUP2 DUP4 SUB SUB DUP2 MSTORE SWAP1 PUSH1 0x40 MSTORE SWAP1 POP DUP1 PUSH2 0x6EE DUP4 PUSH1 0x80 ADD MLOAD PUSH2 0x162F JUMP JUMPDEST PUSH2 0x6FB DUP5 PUSH1 0xA0 ADD MLOAD PUSH2 0x162F JUMP JUMPDEST PUSH2 0x708 DUP6 PUSH1 0xC0 ADD MLOAD PUSH2 0x162F JUMP JUMPDEST PUSH1 0x40 MLOAD PUSH1 0x20 ADD PUSH2 0x71B SWAP5 SWAP4 SWAP3 SWAP2 SWAP1 PUSH2 0x264E JUMP JUMPDEST PUSH1 0x40 MLOAD PUSH1 0x20 DUP2 DUP4 SUB SUB DUP2 MSTORE SWAP1 PUSH1 0x40 MSTORE SWAP1 POP DUP1 PUSH1 0x40 MLOAD PUSH1 0x20 ADD PUSH2 0x73D SWAP2 SWAP1 PUSH2 0x276F JUMP JUMPDEST PUSH1 0x40 DUP1 MLOAD DUP1 DUP4 SUB PUSH1 0x1F NOT ADD DUP2 MSTORE SWAP2 SWAP1 MSTORE SWAP6 SWAP5 POP POP POP POP POP JUMP JUMPDEST PUSH1 0x60 PUSH1 0x0 DUP1 SLOAD PUSH2 0x765 SWAP1 PUSH2 0x279E JUMP JUMPDEST DUP1 PUSH1 0x1F ADD PUSH1 0x20 DUP1 SWAP2 DIV MUL PUSH1 0x20 ADD PUSH1 0x40 MLOAD SWAP1 DUP2 ADD PUSH1 0x40 MSTORE DUP1 SWAP3 SWAP2 SWAP1 DUP2 DUP2 MSTORE PUSH1 0x20 ADD DUP3 DUP1 SLOAD PUSH2 0x791 SWAP1 PUSH2 0x279E JUMP JUMPDEST DUP1 ISZERO PUSH2 0x7DE JUMPI DUP1 PUSH1 0x1F LT PUSH2 0x7B3 JUMPI PUSH2 0x100 DUP1 DUP4 SLOAD DIV MUL DUP4 MSTORE SWAP2 PUSH1 0x20 ADD SWAP2 PUSH2 0x7DE JUMP JUMPDEST DUP3 ADD SWAP2 SWAP1 PUSH1 0x0 MSTORE PUSH1 0x20 PUSH1 0x0 KECCAK256 SWAP1 JUMPDEST DUP2 SLOAD DUP2 MSTORE SWAP1 PUSH1 0x1 ADD SWAP1 PUSH1 0x20 ADD DUP1 DUP4 GT PUSH2 0x7C1 JUMPI DUP3 SWAP1 SUB PUSH1 0x1F AND DUP3 ADD SWAP2 JUMPDEST POP POP POP POP POP SWAP1 POP SWAP1 JUMP JUMPDEST PUSH1 0x0 DUP2 DUP2 MSTORE PUSH1 0x2 PUSH1 0x20 MSTORE PUSH1 0x40 DUP2 KECCAK256 SLOAD PUSH1 0x1 PUSH1 0x1 PUSH1 0xA0 SHL SUB AND PUSH2 0x866 JUMPI PUSH1 0x40 MLOAD PUSH3 0x461BCD PUSH1 0xE5 SHL DUP2 MSTORE PUSH1 0x20 PUSH1 0x4 DUP3 ADD MSTORE PUSH1 0x2C PUSH1 0x24 DUP3 ADD MSTORE PUSH32 0x4552433732313A20617070726F76656420717565727920666F72206E6F6E6578 PUSH1 0x44 DUP3 ADD MSTORE PUSH12 0x34B9BA32B73A103A37B5B2B7 PUSH1 0xA1 SHL PUSH1 0x64 DUP3 ADD MSTORE PUSH1 0x84 ADD JUMPDEST PUSH1 0x40 MLOAD DUP1 SWAP2 SUB SWAP1 REVERT JUMPDEST POP PUSH1 0x0 SWAP1 DUP2 MSTORE PUSH1 0x4 PUSH1 0x20 MSTORE PUSH1 0x40 SWAP1 KECCAK256 SLOAD PUSH1 0x1 PUSH1 0x1 PUSH1 0xA0 SHL SUB AND SWAP1 JUMP JUMPDEST PUSH1 0x0 PUSH2 0x88D DUP3 PUSH2 0xDE3 JUMP JUMPDEST SWAP1 POP DUP1 PUSH1 0x1 PUSH1 0x1 PUSH1 0xA0 SHL SUB AND DUP4 PUSH1 0x1 PUSH1 0x1 PUSH1 0xA0 SHL SUB AND EQ ISZERO PUSH2 0x8FB JUMPI PUSH1 0x40 MLOAD PUSH3 0x461BCD PUSH1 0xE5 SHL DUP2 MSTORE PUSH1 0x20 PUSH1 0x4 DUP3 ADD MSTORE PUSH1 0x21 PUSH1 0x24 DUP3 ADD MSTORE PUSH32 0x4552433732313A20617070726F76616C20746F2063757272656E74206F776E65 PUSH1 0x44 DUP3 ADD MSTORE PUSH1 0x39 PUSH1 0xF9 SHL PUSH1 0x64 DUP3 ADD MSTORE PUSH1 0x84 ADD PUSH2 0x85D JUMP JUMPDEST CALLER PUSH1 0x1 PUSH1 0x1 PUSH1 0xA0 SHL SUB DUP3 AND EQ DUP1 PUSH2 0x917 JUMPI POP PUSH2 0x917 DUP2 CALLER PUSH2 0x52A JUMP JUMPDEST PUSH2 0x989 JUMPI PUSH1 0x40 MLOAD PUSH3 0x461BCD PUSH1 0xE5 SHL DUP2 MSTORE PUSH1 0x20 PUSH1 0x4 DUP3 ADD MSTORE PUSH1 0x38 PUSH1 0x24 DUP3 ADD MSTORE PUSH32 0x4552433732313A20617070726F76652063616C6C6572206973206E6F74206F77 PUSH1 0x44 DUP3 ADD MSTORE PUSH32 0x6E6572206E6F7220617070726F76656420666F7220616C6C0000000000000000 PUSH1 0x64 DUP3 ADD MSTORE PUSH1 0x84 ADD PUSH2 0x85D JUMP JUMPDEST PUSH2 0x993 DUP4 DUP4 PUSH2 0x1735 JUMP JUMPDEST POP POP POP JUMP JUMPDEST CALLER ADDRESS EQ ISZERO PUSH2 0x9D8 JUMPI PUSH1 0x40 MLOAD PUSH3 0x461BCD PUSH1 0xE5 SHL DUP2 MSTORE PUSH1 0x20 PUSH1 0x4 DUP3 ADD MSTORE PUSH1 0xD PUSH1 0x24 DUP3 ADD MSTORE PUSH13 0x37B7363C903B32B934B334B2B9 PUSH1 0x99 SHL PUSH1 0x44 DUP3 ADD MSTORE PUSH1 0x64 ADD PUSH2 0x85D JUMP JUMPDEST POP JUMP JUMPDEST PUSH1 0x10 SLOAD PUSH1 0x8 SLOAD LT PUSH2 0xA1F JUMPI PUSH1 0x40 MLOAD PUSH3 0x461BCD PUSH1 0xE5 SHL DUP2 MSTORE PUSH1 0x20 PUSH1 0x4 DUP3 ADD MSTORE PUSH1 0xE PUSH1 0x24 DUP3 ADD MSTORE PUSH14 0x30BA1036B0BC1039BAB838363C97 PUSH1 0x91 SHL PUSH1 0x44 DUP3 ADD MSTORE PUSH1 0x64 ADD PUSH2 0x85D JUMP JUMPDEST PUSH1 0x0 PUSH1 0x1A PUSH2 0xA2C PUSH1 0x8 SLOAD SWAP1 JUMP JUMPDEST PUSH1 0x40 DUP1 MLOAD PUSH1 0x20 DUP2 ADD SWAP3 SWAP1 SWAP3 MSTORE PUSH12 0xFFFFFFFFFFFFFFFFFFFFFFFF NOT CALLER PUSH1 0x60 SHL AND SWAP1 DUP3 ADD MSTORE TIMESTAMP PUSH1 0x54 DUP3 ADD MSTORE PUSH1 0x74 ADD PUSH1 0x40 MLOAD PUSH1 0x20 DUP2 DUP4 SUB SUB DUP2 MSTORE SWAP1 PUSH1 0x40 MSTORE DUP1 MLOAD SWAP1 PUSH1 0x20 ADD KECCAK256 PUSH1 0x0 SHR PUSH2 0xA7B SWAP2 SWAP1 PUSH2 0x27EF JUMP JUMPDEST SWAP1 POP PUSH1 0x0 PUSH2 0xA8A DUP3 PUSH1 0x19 PUSH2 0x2819 JUMP JUMPDEST SWAP1 POP PUSH1 0x0 PUSH2 0xA99 DUP4 PUSH1 0x32 PUSH2 0x2831 JUMP JUMPDEST SWAP1 POP PUSH1 0x0 PUSH1 0x4 PUSH2 0xAA8 PUSH1 0x8 SLOAD SWAP1 JUMP JUMPDEST CALLER PUSH2 0xAB4 TIMESTAMP PUSH1 0x1 PUSH2 0x2819 JUMP JUMPDEST DUP7 PUSH1 0x40 MLOAD PUSH1 0x20 ADD PUSH2 0xAF0 SWAP5 SWAP4 SWAP3 SWAP2 SWAP1 SWAP4 DUP5 MSTORE PUSH1 0x60 SWAP3 SWAP1 SWAP3 SHL PUSH12 0xFFFFFFFFFFFFFFFFFFFFFFFF NOT AND PUSH1 0x20 DUP5 ADD MSTORE PUSH1 0x34 DUP4 ADD MSTORE PUSH1 0x54 DUP3 ADD MSTORE PUSH1 0x74 ADD SWAP1 JUMP JUMPDEST PUSH1 0x40 MLOAD PUSH1 0x20 DUP2 DUP4 SUB SUB DUP2 MSTORE SWAP1 PUSH1 0x40 MSTORE DUP1 MLOAD SWAP1 PUSH1 0x20 ADD KECCAK256 PUSH1 0x0 SHR PUSH2 0xB13 SWAP2 SWAP1 PUSH2 0x27EF JUMP JUMPDEST PUSH1 0x3 DUP2 GT ISZERO PUSH2 0xB24 JUMPI PUSH2 0xB24 PUSH2 0x22E0 JUMP JUMPDEST SWAP1 POP PUSH1 0x0 PUSH1 0x40 MLOAD DUP1 PUSH2 0x180 ADD PUSH1 0x40 MSTORE DUP1 PUSH1 0x1 DUP2 MSTORE PUSH1 0x20 ADD DUP6 DUP2 MSTORE PUSH1 0x20 ADD DUP5 DUP2 MSTORE PUSH1 0x20 ADD PUSH1 0x0 DUP2 MSTORE PUSH1 0x20 ADD PUSH1 0x0 DUP2 MSTORE PUSH1 0x20 ADD PUSH1 0x0 DUP2 MSTORE PUSH1 0x20 ADD PUSH1 0x0 DUP2 MSTORE PUSH1 0x20 ADD PUSH1 0x0 DUP2 MSTORE PUSH1 0x20 ADD PUSH1 0x0 DUP2 MSTORE PUSH1 0x20 ADD PUSH1 0x0 DUP2 MSTORE PUSH1 0x20 ADD PUSH1 0x0 DUP2 MSTORE PUSH1 0x20 ADD DUP4 PUSH1 0x3 DUP2 GT ISZERO PUSH2 0xB91 JUMPI PUSH2 0xB91 PUSH2 0x22E0 JUMP JUMPDEST SWAP1 MSTORE SWAP1 POP DUP1 PUSH1 0xB PUSH1 0x0 PUSH2 0xBA3 PUSH1 0x8 SLOAD SWAP1 JUMP JUMPDEST DUP2 MSTORE PUSH1 0x20 ADD SWAP1 DUP2 MSTORE PUSH1 0x20 ADD PUSH1 0x0 KECCAK256 PUSH1 0x0 DUP3 ADD MLOAD DUP2 PUSH1 0x0 ADD SSTORE PUSH1 0x20 DUP3 ADD MLOAD DUP2 PUSH1 0x1 ADD SSTORE PUSH1 0x40 DUP3 ADD MLOAD DUP2 PUSH1 0x2 ADD SSTORE PUSH1 0x60 DUP3 ADD MLOAD DUP2 PUSH1 0x3 ADD SSTORE PUSH1 0x80 DUP3 ADD MLOAD DUP2 PUSH1 0x4 ADD SSTORE PUSH1 0xA0 DUP3 ADD MLOAD DUP2 PUSH1 0x5 ADD SSTORE PUSH1 0xC0 DUP3 ADD MLOAD DUP2 PUSH1 0x6 ADD SSTORE PUSH1 0xE0 DUP3 ADD MLOAD DUP2 PUSH1 0x7 ADD SSTORE PUSH2 0x100 DUP3 ADD MLOAD DUP2 PUSH1 0x8 ADD SSTORE PUSH2 0x120 DUP3 ADD MLOAD DUP2 PUSH1 0x9 ADD SSTORE PUSH2 0x140 DUP3 ADD MLOAD DUP2 PUSH1 0xA ADD SSTORE PUSH2 0x160 DUP3 ADD MLOAD DUP2 PUSH1 0xB ADD PUSH1 0x0 PUSH2 0x100 EXP DUP2 SLOAD DUP2 PUSH1 0xFF MUL NOT AND SWAP1 DUP4 PUSH1 0x3 DUP2 GT ISZERO PUSH2 0xC4D JUMPI PUSH2 0xC4D PUSH2 0x22E0 JUMP JUMPDEST MUL OR SWAP1 SSTORE POP SWAP1 POP POP PUSH2 0xC67 CALLER PUSH2 0xC62 PUSH1 0x8 SLOAD SWAP1 JUMP JUMPDEST PUSH2 0x17A3 JUMP JUMPDEST POP POP POP POP POP JUMP JUMPDEST PUSH2 0xC78 CALLER DUP3 PUSH2 0x17C1 JUMP JUMPDEST PUSH2 0xC94 JUMPI PUSH1 0x40 MLOAD PUSH3 0x461BCD PUSH1 0xE5 SHL DUP2 MSTORE PUSH1 0x4 ADD PUSH2 0x85D SWAP1 PUSH2 0x2848 JUMP JUMPDEST PUSH2 0x993 DUP4 DUP4 DUP4 PUSH2 0x18B4 JUMP JUMPDEST PUSH1 0x0 PUSH2 0xCAA DUP4 PUSH2 0xE5A JUMP JUMPDEST DUP3 LT PUSH2 0xD0C JUMPI PUSH1 0x40 MLOAD PUSH3 0x461BCD PUSH1 0xE5 SHL DUP2 MSTORE PUSH1 0x20 PUSH1 0x4 DUP3 ADD MSTORE PUSH1 0x2B PUSH1 0x24 DUP3 ADD MSTORE PUSH32 0x455243373231456E756D657261626C653A206F776E657220696E646578206F75 PUSH1 0x44 DUP3 ADD MSTORE PUSH11 0x74206F6620626F756E6473 PUSH1 0xA8 SHL PUSH1 0x64 DUP3 ADD MSTORE PUSH1 0x84 ADD PUSH2 0x85D JUMP JUMPDEST POP PUSH1 0x1 PUSH1 0x1 PUSH1 0xA0 SHL SUB SWAP2 SWAP1 SWAP2 AND PUSH1 0x0 SWAP1 DUP2 MSTORE PUSH1 0x6 PUSH1 0x20 SWAP1 DUP2 MSTORE PUSH1 0x40 DUP1 DUP4 KECCAK256 SWAP4 DUP4 MSTORE SWAP3 SWAP1 MSTORE KECCAK256 SLOAD SWAP1 JUMP JUMPDEST PUSH2 0x993 DUP4 DUP4 DUP4 PUSH1 0x40 MLOAD DUP1 PUSH1 0x20 ADD PUSH1 0x40 MSTORE DUP1 PUSH1 0x0 DUP2 MSTORE POP PUSH2 0x1389 JUMP JUMPDEST PUSH1 0x0 PUSH2 0xD5B PUSH1 0x8 SLOAD SWAP1 JUMP JUMPDEST DUP3 LT PUSH2 0xDBE JUMPI PUSH1 0x40 MLOAD PUSH3 0x461BCD PUSH1 0xE5 SHL DUP2 MSTORE PUSH1 0x20 PUSH1 0x4 DUP3 ADD MSTORE PUSH1 0x2C PUSH1 0x24 DUP3 ADD MSTORE PUSH32 0x455243373231456E756D657261626C653A20676C6F62616C20696E646578206F PUSH1 0x44 DUP3 ADD MSTORE PUSH12 0x7574206F6620626F756E6473 PUSH1 0xA0 SHL PUSH1 0x64 DUP3 ADD MSTORE PUSH1 0x84 ADD PUSH2 0x85D JUMP JUMPDEST PUSH1 0x8 DUP3 DUP2 SLOAD DUP2 LT PUSH2 0xDD1 JUMPI PUSH2 0xDD1 PUSH2 0x2899 JUMP JUMPDEST SWAP1 PUSH1 0x0 MSTORE PUSH1 0x20 PUSH1 0x0 KECCAK256 ADD SLOAD SWAP1 POP SWAP2 SWAP1 POP JUMP JUMPDEST PUSH1 0x0 DUP2 DUP2 MSTORE PUSH1 0x2 PUSH1 0x20 MSTORE PUSH1 0x40 DUP2 KECCAK256 SLOAD PUSH1 0x1 PUSH1 0x1 PUSH1 0xA0 SHL SUB AND DUP1 PUSH2 0x590 JUMPI PUSH1 0x40 MLOAD PUSH3 0x461BCD PUSH1 0xE5 SHL DUP2 MSTORE PUSH1 0x20 PUSH1 0x4 DUP3 ADD MSTORE PUSH1 0x29 PUSH1 0x24 DUP3 ADD MSTORE PUSH32 0x4552433732313A206F776E657220717565727920666F72206E6F6E6578697374 PUSH1 0x44 DUP3 ADD MSTORE PUSH9 0x32B73A103A37B5B2B7 PUSH1 0xB9 SHL PUSH1 0x64 DUP3 ADD MSTORE PUSH1 0x84 ADD PUSH2 0x85D JUMP JUMPDEST PUSH1 0x0 PUSH1 0x1 PUSH1 0x1 PUSH1 0xA0 SHL SUB DUP3 AND PUSH2 0xEC5 JUMPI PUSH1 0x40 MLOAD PUSH3 0x461BCD PUSH1 0xE5 SHL DUP2 MSTORE PUSH1 0x20 PUSH1 0x4 DUP3 ADD MSTORE PUSH1 0x2A PUSH1 0x24 DUP3 ADD MSTORE PUSH32 0x4552433732313A2062616C616E636520717565727920666F7220746865207A65 PUSH1 0x44 DUP3 ADD MSTORE PUSH10 0x726F2061646472657373 PUSH1 0xB0 SHL PUSH1 0x64 DUP3 ADD MSTORE PUSH1 0x84 ADD PUSH2 0x85D JUMP JUMPDEST POP PUSH1 0x1 PUSH1 0x1 PUSH1 0xA0 SHL SUB AND PUSH1 0x0 SWAP1 DUP2 MSTORE PUSH1 0x3 PUSH1 0x20 MSTORE PUSH1 0x40 SWAP1 KECCAK256 SLOAD SWAP1 JUMP JUMPDEST PUSH1 0xA SLOAD PUSH1 0x1 PUSH1 0x1 PUSH1 0xA0 SHL SUB AND CALLER EQ PUSH2 0xF0B JUMPI PUSH1 0x40 MLOAD PUSH3 0x461BCD PUSH1 0xE5 SHL DUP2 MSTORE PUSH1 0x4 ADD PUSH2 0x85D SWAP1 PUSH2 0x28AF JUMP JUMPDEST PUSH2 0xF15 PUSH1 0x0 PUSH2 0x1A5F JUMP JUMPDEST JUMP JUMPDEST PUSH1 0xC SLOAD PUSH1 0x1 PUSH1 0x1 PUSH1 0xA0 SHL SUB AND CALLER EQ PUSH2 0xF7D JUMPI PUSH1 0x40 MLOAD PUSH3 0x461BCD PUSH1 0xE5 SHL DUP2 MSTORE PUSH1 0x20 PUSH1 0x4 DUP3 ADD MSTORE PUSH1 0x24 DUP1 DUP3 ADD MSTORE PUSH32 0x4F6E6C7920626174746C65722063616E2063616C6C20746869732066756E6374 PUSH1 0x44 DUP3 ADD MSTORE PUSH4 0x34B7B717 PUSH1 0xE1 SHL PUSH1 0x64 DUP3 ADD MSTORE PUSH1 0x84 ADD PUSH2 0x85D JUMP JUMPDEST PUSH1 0x0 DUP6 DUP2 MSTORE PUSH1 0xB PUSH1 0x20 MSTORE PUSH1 0x40 DUP2 KECCAK256 PUSH1 0x3 ADD DUP1 SLOAD DUP6 SWAP3 SWAP1 PUSH2 0xF9E SWAP1 DUP5 SWAP1 PUSH2 0x2819 JUMP JUMPDEST SWAP1 SWAP2 SSTORE POP POP DUP3 ISZERO PUSH2 0xFB0 JUMPI PUSH1 0x0 PUSH2 0xFB3 JUMP JUMPDEST PUSH1 0x1 JUMPDEST PUSH1 0xFF AND PUSH1 0xB PUSH1 0x0 DUP8 DUP2 MSTORE PUSH1 0x20 ADD SWAP1 DUP2 MSTORE PUSH1 0x20 ADD PUSH1 0x0 KECCAK256 PUSH1 0x4 ADD PUSH1 0x0 DUP3 DUP3 SLOAD PUSH2 0xFDB SWAP2 SWAP1 PUSH2 0x2819 JUMP JUMPDEST SWAP1 SWAP2 SSTORE POP POP PUSH1 0x0 DUP6 DUP2 MSTORE PUSH1 0xB PUSH1 0x20 MSTORE PUSH1 0x40 DUP2 KECCAK256 PUSH1 0x6 ADD DUP1 SLOAD DUP5 SWAP3 SWAP1 PUSH2 0x1001 SWAP1 DUP5 SWAP1 PUSH2 0x2819 JUMP JUMPDEST SWAP1 SWAP2 SSTORE POP POP DUP3 ISZERO PUSH2 0x1013 JUMPI PUSH1 0x0 PUSH2 0x1016 JUMP JUMPDEST PUSH1 0x1 JUMPDEST PUSH1 0xFF AND PUSH1 0xB PUSH1 0x0 DUP7 DUP2 MSTORE PUSH1 0x20 ADD SWAP1 DUP2 MSTORE PUSH1 0x20 ADD PUSH1 0x0 KECCAK256 PUSH1 0x3 ADD PUSH1 0x0 DUP3 DUP3 SLOAD PUSH2 0x103E SWAP2 SWAP1 PUSH2 0x2819 JUMP JUMPDEST SWAP1 SWAP2 SSTORE POP POP PUSH1 0x0 DUP5 DUP2 MSTORE PUSH1 0xB PUSH1 0x20 MSTORE PUSH1 0x40 DUP2 KECCAK256 PUSH1 0x4 ADD DUP1 SLOAD DUP6 SWAP3 SWAP1 PUSH2 0x1064 SWAP1 DUP5 SWAP1 PUSH2 0x2819 JUMP JUMPDEST SWAP1 SWAP2 SSTORE POP POP PUSH1 0x0 DUP5 DUP2 MSTORE PUSH1 0xB PUSH1 0x20 MSTORE PUSH1 0x40 DUP2 KECCAK256 PUSH1 0x6 ADD DUP1 SLOAD DUP5 SWAP3 SWAP1 PUSH2 0x108A SWAP1 DUP5 SWAP1 PUSH2 0x2819 JUMP JUMPDEST SWAP1 SWAP2 SSTORE POP POP DUP3 PUSH2 0xC67 JUMPI PUSH1 0x0 DUP5 DUP2 MSTORE PUSH1 0xB PUSH1 0x20 MSTORE PUSH1 0x40 DUP2 KECCAK256 PUSH1 0x6 ADD DUP1 SLOAD DUP4 SWAP3 SWAP1 PUSH2 0x10B5 SWAP1 DUP5 SWAP1 PUSH2 0x2819 JUMP JUMPDEST SWAP1 SWAP2 SSTORE POP POP POP POP POP POP POP JUMP JUMPDEST CALLER PUSH2 0x10CB DUP3 PUSH2 0xDE3 JUMP JUMPDEST PUSH1 0x1 PUSH1 0x1 PUSH1 0xA0 SHL SUB AND EQ PUSH2 0x1111 JUMPI PUSH1 0x40 MLOAD PUSH3 0x461BCD PUSH1 0xE5 SHL DUP2 MSTORE PUSH1 0x20 PUSH1 0x4 DUP3 ADD MSTORE PUSH1 0xD PUSH1 0x24 DUP3 ADD MSTORE PUSH13 0x36BAB9BA1031329037BBB732B9 PUSH1 0x99 SHL PUSH1 0x44 DUP3 ADD MSTORE PUSH1 0x64 ADD PUSH2 0x85D JUMP JUMPDEST PUSH1 0x0 DUP2 DUP2 MSTORE PUSH1 0xB PUSH1 0x20 MSTORE PUSH1 0x40 SWAP1 KECCAK256 PUSH1 0x9 ADD SLOAD ISZERO PUSH2 0x1164 JUMPI PUSH1 0x40 MLOAD PUSH3 0x461BCD PUSH1 0xE5 SHL DUP2 MSTORE PUSH1 0x20 PUSH1 0x4 DUP3 ADD MSTORE PUSH1 0x11 PUSH1 0x24 DUP3 ADD MSTORE PUSH17 0x185B1C9958591E481A5B9A5D1A585D1959 PUSH1 0x7A SHL PUSH1 0x44 DUP3 ADD MSTORE PUSH1 0x64 ADD PUSH2 0x85D JUMP JUMPDEST PUSH1 0x0 DUP2 DUP2 MSTORE PUSH1 0xB PUSH1 0x20 MSTORE PUSH1 0x40 SWAP1 KECCAK256 TIMESTAMP PUSH1 0x9 DUP3 ADD DUP2 SWAP1 SSTORE PUSH1 0x11 SLOAD PUSH2 0x1186 SWAP2 PUSH2 0x2819 JUMP JUMPDEST PUSH1 0xA DUP3 ADD SSTORE PUSH1 0x40 DUP1 MLOAD CALLER DUP2 MSTORE TIMESTAMP PUSH1 0x20 DUP3 ADD MSTORE DUP4 SWAP2 PUSH32 0x1782B66BBE30900EE88FEAB2F2CD676D136386CC51CDF73F6CAE8B1DA253DDF7 SWAP2 ADD PUSH1 0x40 MLOAD DUP1 SWAP2 SUB SWAP1 LOG2 POP POP JUMP JUMPDEST PUSH1 0x60 PUSH1 0x1 DUP1 SLOAD PUSH2 0x765 SWAP1 PUSH2 0x279E JUMP JUMPDEST PUSH1 0xA SLOAD PUSH1 0x1 PUSH1 0x1 PUSH1 0xA0 SHL SUB AND CALLER EQ PUSH2 0x1202 JUMPI PUSH1 0x40 MLOAD PUSH3 0x461BCD PUSH1 0xE5 SHL DUP2 MSTORE PUSH1 0x4 ADD PUSH2 0x85D SWAP1 PUSH2 0x28AF JUMP JUMPDEST PUSH1 0x1 PUSH1 0x1 PUSH1 0xA0 SHL SUB DUP2 AND ISZERO DUP1 ISZERO SWAP1 PUSH2 0x1228 JUMPI POP PUSH1 0xD SLOAD PUSH1 0x1 PUSH1 0x1 PUSH1 0xA0 SHL SUB DUP3 DUP2 AND SWAP2 AND EQ ISZERO JUMPDEST PUSH2 0x126F JUMPI PUSH1 0x40 MLOAD PUSH3 0x461BCD PUSH1 0xE5 SHL DUP2 MSTORE PUSH1 0x20 PUSH1 0x4 DUP3 ADD MSTORE PUSH1 0x18 PUSH1 0x24 DUP3 ADD MSTORE PUSH24 0x496E76616C6964206F70657261746F722061646472657373 PUSH1 0x40 SHL PUSH1 0x44 DUP3 ADD MSTORE PUSH1 0x64 ADD PUSH2 0x85D JUMP JUMPDEST PUSH1 0xD DUP1 SLOAD PUSH1 0x1 PUSH1 0x1 PUSH1 0xA0 SHL SUB NOT AND PUSH1 0x1 PUSH1 0x1 PUSH1 0xA0 SHL SUB DUP4 AND SWAP1 DUP2 OR SWAP1 SWAP2 SSTORE PUSH1 0x40 MLOAD SWAP1 DUP2 MSTORE PUSH32 0xA1FD6A6669ACB930BAE242943BB9FA08DDCBA665C707261E9730EE0305FB85E5 SWAP1 PUSH1 0x20 ADD JUMPDEST PUSH1 0x40 MLOAD DUP1 SWAP2 SUB SWAP1 LOG1 POP JUMP JUMPDEST PUSH1 0x1 PUSH1 0x1 PUSH1 0xA0 SHL SUB DUP3 AND CALLER EQ ISZERO PUSH2 0x131D JUMPI PUSH1 0x40 MLOAD PUSH3 0x461BCD PUSH1 0xE5 SHL DUP2 MSTORE PUSH1 0x20 PUSH1 0x4 DUP3 ADD MSTORE PUSH1 0x19 PUSH1 0x24 DUP3 ADD MSTORE PUSH32 0x4552433732313A20617070726F766520746F2063616C6C657200000000000000 PUSH1 0x44 DUP3 ADD MSTORE PUSH1 0x64 ADD PUSH2 0x85D JUMP JUMPDEST CALLER PUSH1 0x0 DUP2 DUP2 MSTORE PUSH1 0x5 PUSH1 0x20 SWAP1 DUP2 MSTORE PUSH1 0x40 DUP1 DUP4 KECCAK256 PUSH1 0x1 PUSH1 0x1 PUSH1 0xA0 SHL SUB DUP8 AND DUP1 DUP6 MSTORE SWAP1 DUP4 MSTORE SWAP3 DUP2 SWAP1 KECCAK256 DUP1 SLOAD PUSH1 0xFF NOT AND DUP7 ISZERO ISZERO SWAP1 DUP2 OR SWAP1 SWAP2 SSTORE SWAP1 MLOAD SWAP1 DUP2 MSTORE SWAP2 SWAP3 SWAP2 PUSH32 0x17307EAB39AB6107E8899845AD3D59BD9653F200F220920489CA2B5937696C31 SWAP2 ADD PUSH1 0x40 MLOAD DUP1 SWAP2 SUB SWAP1 LOG3 POP POP JUMP JUMPDEST PUSH2 0x1393 CALLER DUP4 PUSH2 0x17C1 JUMP JUMPDEST PUSH2 0x13AF JUMPI PUSH1 0x40 MLOAD PUSH3 0x461BCD PUSH1 0xE5 SHL DUP2 MSTORE PUSH1 0x4 ADD PUSH2 0x85D SWAP1 PUSH2 0x2848 JUMP JUMPDEST PUSH2 0x13BB DUP5 DUP5 DUP5 DUP5 PUSH2 0x1AB1 JUMP JUMPDEST POP POP POP POP JUMP JUMPDEST PUSH1 0x0 DUP2 DUP2 MSTORE PUSH1 0x2 PUSH1 0x20 MSTORE PUSH1 0x40 SWAP1 KECCAK256 SLOAD PUSH1 0x60 SWAP1 PUSH1 0x1 PUSH1 0x1 PUSH1 0xA0 SHL SUB AND PUSH2 0x1440 JUMPI PUSH1 0x40 MLOAD PUSH3 0x461BCD PUSH1 0xE5 SHL DUP2 MSTORE PUSH1 0x20 PUSH1 0x4 DUP3 ADD MSTORE PUSH1 0x2F PUSH1 0x24 DUP3 ADD MSTORE PUSH32 0x4552433732314D657461646174613A2055524920717565727920666F72206E6F PUSH1 0x44 DUP3 ADD MSTORE PUSH15 0x3732BC34B9BA32B73A103A37B5B2B7 PUSH1 0x89 SHL PUSH1 0x64 DUP3 ADD MSTORE PUSH1 0x84 ADD PUSH2 0x85D JUMP JUMPDEST PUSH2 0x590 DUP3 PUSH1 0x40 MLOAD DUP1 PUSH1 0x80 ADD PUSH1 0x40 MSTORE DUP1 PUSH1 0x5E DUP2 MSTORE PUSH1 0x20 ADD PUSH2 0x29D6 PUSH1 0x5E SWAP2 CODECOPY PUSH2 0x596 JUMP JUMPDEST PUSH1 0xA SLOAD PUSH1 0x1 PUSH1 0x1 PUSH1 0xA0 SHL SUB AND CALLER EQ PUSH2 0x148C JUMPI PUSH1 0x40 MLOAD PUSH3 0x461BCD PUSH1 0xE5 SHL DUP2 MSTORE PUSH1 0x4 ADD PUSH2 0x85D SWAP1 PUSH2 0x28AF JUMP JUMPDEST PUSH1 0x1 PUSH1 0x1 PUSH1 0xA0 SHL SUB DUP2 AND ISZERO DUP1 ISZERO SWAP1 PUSH2 0x14B2 JUMPI POP PUSH1 0xC SLOAD PUSH1 0x1 PUSH1 0x1 PUSH1 0xA0 SHL SUB DUP3 DUP2 AND SWAP2 AND EQ ISZERO JUMPDEST PUSH2 0x14F9 JUMPI PUSH1 0x40 MLOAD PUSH3 0x461BCD PUSH1 0xE5 SHL DUP2 MSTORE PUSH1 0x20 PUSH1 0x4 DUP3 ADD MSTORE PUSH1 0x18 PUSH1 0x24 DUP3 ADD MSTORE PUSH24 0x496E76616C6964206F70657261746F722061646472657373 PUSH1 0x40 SHL PUSH1 0x44 DUP3 ADD MSTORE PUSH1 0x64 ADD PUSH2 0x85D JUMP JUMPDEST PUSH1 0xC DUP1 SLOAD PUSH1 0x1 PUSH1 0x1 PUSH1 0xA0 SHL SUB NOT AND PUSH1 0x1 PUSH1 0x1 PUSH1 0xA0 SHL SUB DUP4 AND SWAP1 DUP2 OR SWAP1 SWAP2 SSTORE PUSH1 0x40 MLOAD SWAP1 DUP2 MSTORE PUSH32 0xA6996D36756222F1028B4A1A97CBFA625158CF8E69AC5DCF367DE3BD730D34A4 SWAP1 PUSH1 0x20 ADD PUSH2 0x12B9 JUMP JUMPDEST PUSH1 0xA SLOAD PUSH1 0x1 PUSH1 0x1 PUSH1 0xA0 SHL SUB AND CALLER EQ PUSH2 0x1571 JUMPI PUSH1 0x40 MLOAD PUSH3 0x461BCD PUSH1 0xE5 SHL DUP2 MSTORE PUSH1 0x4 ADD PUSH2 0x85D SWAP1 PUSH2 0x28AF JUMP JUMPDEST PUSH1 0x1 PUSH1 0x1 PUSH1 0xA0 SHL SUB DUP2 AND PUSH2 0x15D6 JUMPI PUSH1 0x40 MLOAD PUSH3 0x461BCD PUSH1 0xE5 SHL DUP2 MSTORE PUSH1 0x20 PUSH1 0x4 DUP3 ADD MSTORE PUSH1 0x26 PUSH1 0x24 DUP3 ADD MSTORE PUSH32 0x4F776E61626C653A206E6577206F776E657220697320746865207A65726F2061 PUSH1 0x44 DUP3 ADD MSTORE PUSH6 0x646472657373 PUSH1 0xD0 SHL PUSH1 0x64 DUP3 ADD MSTORE PUSH1 0x84 ADD PUSH2 0x85D JUMP JUMPDEST PUSH2 0x9D8 DUP2 PUSH2 0x1A5F JUMP JUMPDEST PUSH1 0x0 PUSH1 0x1 PUSH1 0x1 PUSH1 0xE0 SHL SUB NOT DUP3 AND PUSH4 0x80AC58CD PUSH1 0xE0 SHL EQ DUP1 PUSH2 0x1610 JUMPI POP PUSH1 0x1 PUSH1 0x1 PUSH1 0xE0 SHL SUB NOT DUP3 AND PUSH4 0x5B5E139F PUSH1 0xE0 SHL EQ JUMPDEST DUP1 PUSH2 0x590 JUMPI POP PUSH4 0x1FFC9A7 PUSH1 0xE0 SHL PUSH1 0x1 PUSH1 0x1 PUSH1 0xE0 SHL SUB NOT DUP4 AND EQ PUSH2 0x590 JUMP JUMPDEST PUSH1 0x60 DUP2 PUSH2 0x1653 JUMPI POP POP PUSH1 0x40 DUP1 MLOAD DUP1 DUP3 ADD SWAP1 SWAP2 MSTORE PUSH1 0x1 DUP2 MSTORE PUSH1 0x3 PUSH1 0xFC SHL PUSH1 0x20 DUP3 ADD MSTORE SWAP1 JUMP JUMPDEST DUP2 PUSH1 0x0 JUMPDEST DUP2 ISZERO PUSH2 0x167D JUMPI DUP1 PUSH2 0x1667 DUP2 PUSH2 0x28E4 JUMP JUMPDEST SWAP2 POP PUSH2 0x1676 SWAP1 POP PUSH1 0xA DUP4 PUSH2 0x28FF JUMP JUMPDEST SWAP2 POP PUSH2 0x1657 JUMP JUMPDEST PUSH1 0x0 DUP2 PUSH8 0xFFFFFFFFFFFFFFFF DUP2 GT ISZERO PUSH2 0x1698 JUMPI PUSH2 0x1698 PUSH2 0x1FE5 JUMP JUMPDEST PUSH1 0x40 MLOAD SWAP1 DUP1 DUP3 MSTORE DUP1 PUSH1 0x1F ADD PUSH1 0x1F NOT AND PUSH1 0x20 ADD DUP3 ADD PUSH1 0x40 MSTORE DUP1 ISZERO PUSH2 0x16C2 JUMPI PUSH1 0x20 DUP3 ADD DUP2 DUP1 CALLDATASIZE DUP4 CALLDATACOPY ADD SWAP1 POP JUMPDEST POP SWAP1 POP JUMPDEST DUP5 ISZERO PUSH2 0x172D JUMPI PUSH2 0x16D7 PUSH1 0x1 DUP4 PUSH2 0x2831 JUMP JUMPDEST SWAP2 POP PUSH2 0x16E4 PUSH1 0xA DUP7 PUSH2 0x27EF JUMP JUMPDEST PUSH2 0x16EF SWAP1 PUSH1 0x30 PUSH2 0x2819 JUMP JUMPDEST PUSH1 0xF8 SHL DUP2 DUP4 DUP2 MLOAD DUP2 LT PUSH2 0x1704 JUMPI PUSH2 0x1704 PUSH2 0x2899 JUMP JUMPDEST PUSH1 0x20 ADD ADD SWAP1 PUSH1 0x1 PUSH1 0x1 PUSH1 0xF8 SHL SUB NOT AND SWAP1 DUP2 PUSH1 0x0 BYTE SWAP1 MSTORE8 POP PUSH2 0x1726 PUSH1 0xA DUP7 PUSH2 0x28FF JUMP JUMPDEST SWAP5 POP PUSH2 0x16C6 JUMP JUMPDEST SWAP5 SWAP4 POP POP POP POP JUMP JUMPDEST PUSH1 0x0 DUP2 DUP2 MSTORE PUSH1 0x4 PUSH1 0x20 MSTORE PUSH1 0x40 SWAP1 KECCAK256 DUP1 SLOAD PUSH1 0x1 PUSH1 0x1 PUSH1 0xA0 SHL SUB NOT AND PUSH1 0x1 PUSH1 0x1 PUSH1 0xA0 SHL SUB DUP5 AND SWAP1 DUP2 OR SWAP1 SWAP2 SSTORE DUP2 SWAP1 PUSH2 0x176A DUP3 PUSH2 0xDE3 JUMP JUMPDEST PUSH1 0x1 PUSH1 0x1 PUSH1 0xA0 SHL SUB AND PUSH32 0x8C5BE1E5EBEC7D5BD14F71427D1E84F3DD0314C0F7B2291E5B200AC8C7C3B925 PUSH1 0x40 MLOAD PUSH1 0x40 MLOAD DUP1 SWAP2 SUB SWAP1 LOG4 POP POP JUMP JUMPDEST PUSH2 0x17BD DUP3 DUP3 PUSH1 0x40 MLOAD DUP1 PUSH1 0x20 ADD PUSH1 0x40 MSTORE DUP1 PUSH1 0x0 DUP2 MSTORE POP PUSH2 0x1AE4 JUMP JUMPDEST POP POP JUMP JUMPDEST PUSH1 0x0 DUP2 DUP2 MSTORE PUSH1 0x2 PUSH1 0x20 MSTORE PUSH1 0x40 DUP2 KECCAK256 SLOAD PUSH1 0x1 PUSH1 0x1 PUSH1 0xA0 SHL SUB AND PUSH2 0x183A JUMPI PUSH1 0x40 MLOAD PUSH3 0x461BCD PUSH1 0xE5 SHL DUP2 MSTORE PUSH1 0x20 PUSH1 0x4 DUP3 ADD MSTORE PUSH1 0x2C PUSH1 0x24 DUP3 ADD MSTORE PUSH32 0x4552433732313A206F70657261746F7220717565727920666F72206E6F6E6578 PUSH1 0x44 DUP3 ADD MSTORE PUSH12 0x34B9BA32B73A103A37B5B2B7 PUSH1 0xA1 SHL PUSH1 0x64 DUP3 ADD MSTORE PUSH1 0x84 ADD PUSH2 0x85D JUMP JUMPDEST PUSH1 0x0 PUSH2 0x1845 DUP4 PUSH2 0xDE3 JUMP JUMPDEST SWAP1 POP DUP1 PUSH1 0x1 PUSH1 0x1 PUSH1 0xA0 SHL SUB AND DUP5 PUSH1 0x1 PUSH1 0x1 PUSH1 0xA0 SHL SUB AND EQ DUP1 PUSH2 0x1880 JUMPI POP DUP4 PUSH1 0x1 PUSH1 0x1 PUSH1 0xA0 SHL SUB AND PUSH2 0x1875 DUP5 PUSH2 0x7E8 JUMP JUMPDEST PUSH1 0x1 PUSH1 0x1 PUSH1 0xA0 SHL SUB AND EQ JUMPDEST DUP1 PUSH2 0x172D JUMPI POP PUSH1 0x1 PUSH1 0x1 PUSH1 0xA0 SHL SUB DUP1 DUP3 AND PUSH1 0x0 SWAP1 DUP2 MSTORE PUSH1 0x5 PUSH1 0x20 SWAP1 DUP2 MSTORE PUSH1 0x40 DUP1 DUP4 KECCAK256 SWAP4 DUP9 AND DUP4 MSTORE SWAP3 SWAP1 MSTORE KECCAK256 SLOAD PUSH1 0xFF AND PUSH2 0x172D JUMP JUMPDEST DUP3 PUSH1 0x1 PUSH1 0x1 PUSH1 0xA0 SHL SUB AND PUSH2 0x18C7 DUP3 PUSH2 0xDE3 JUMP JUMPDEST PUSH1 0x1 PUSH1 0x1 PUSH1 0xA0 SHL SUB AND EQ PUSH2 0x192F JUMPI PUSH1 0x40 MLOAD PUSH3 0x461BCD PUSH1 0xE5 SHL DUP2 MSTORE PUSH1 0x20 PUSH1 0x4 DUP3 ADD MSTORE PUSH1 0x29 PUSH1 0x24 DUP3 ADD MSTORE PUSH32 0x4552433732313A207472616E73666572206F6620746F6B656E20746861742069 PUSH1 0x44 DUP3 ADD MSTORE PUSH9 0x39903737BA1037BBB7 PUSH1 0xB9 SHL PUSH1 0x64 DUP3 ADD MSTORE PUSH1 0x84 ADD PUSH2 0x85D JUMP JUMPDEST PUSH1 0x1 PUSH1 0x1 PUSH1 0xA0 SHL SUB DUP3 AND PUSH2 0x1991 JUMPI PUSH1 0x40 MLOAD PUSH3 0x461BCD PUSH1 0xE5 SHL DUP2 MSTORE PUSH1 0x20 PUSH1 0x4 DUP3 ADD MSTORE PUSH1 0x24 DUP1 DUP3 ADD MSTORE PUSH32 0x4552433732313A207472616E7366657220746F20746865207A65726F20616464 PUSH1 0x44 DUP3 ADD MSTORE PUSH4 0x72657373 PUSH1 0xE0 SHL PUSH1 0x64 DUP3 ADD MSTORE PUSH1 0x84 ADD PUSH2 0x85D JUMP JUMPDEST PUSH2 0x199C DUP4 DUP4 DUP4 PUSH2 0x1B17 JUMP JUMPDEST PUSH2 0x19A7 PUSH1 0x0 DUP3 PUSH2 0x1735 JUMP JUMPDEST PUSH1 0x1 PUSH1 0x1 PUSH1 0xA0 SHL SUB DUP4 AND PUSH1 0x0 SWAP1 DUP2 MSTORE PUSH1 0x3 PUSH1 0x20 MSTORE PUSH1 0x40 DUP2 KECCAK256 DUP1 SLOAD PUSH1 0x1 SWAP3 SWAP1 PUSH2 0x19D0 SWAP1 DUP5 SWAP1 PUSH2 0x2831 JUMP JUMPDEST SWAP1 SWAP2 SSTORE POP POP PUSH1 0x1 PUSH1 0x1 PUSH1 0xA0 SHL SUB DUP3 AND PUSH1 0x0 SWAP1 DUP2 MSTORE PUSH1 0x3 PUSH1 0x20 MSTORE PUSH1 0x40 DUP2 KECCAK256 DUP1 SLOAD PUSH1 0x1 SWAP3 SWAP1 PUSH2 0x19FE SWAP1 DUP5 SWAP1 PUSH2 0x2819 JUMP JUMPDEST SWAP1 SWAP2 SSTORE POP POP PUSH1 0x0 DUP2 DUP2 MSTORE PUSH1 0x2 PUSH1 0x20 MSTORE PUSH1 0x40 DUP1 DUP3 KECCAK256 DUP1 SLOAD PUSH1 0x1 PUSH1 0x1 PUSH1 0xA0 SHL SUB NOT AND PUSH1 0x1 PUSH1 0x1 PUSH1 0xA0 SHL SUB DUP7 DUP2 AND SWAP2 DUP3 OR SWAP1 SWAP3 SSTORE SWAP2 MLOAD DUP5 SWAP4 SWAP2 DUP8 AND SWAP2 PUSH32 0xDDF252AD1BE2C89B69C2B068FC378DAA952BA7F163C4A11628F55A4DF523B3EF SWAP2 LOG4 POP POP POP JUMP JUMPDEST PUSH1 0xA DUP1 SLOAD PUSH1 0x1 PUSH1 0x1 PUSH1 0xA0 SHL SUB DUP4 DUP2 AND PUSH1 0x1 PUSH1 0x1 PUSH1 0xA0 SHL SUB NOT DUP4 AND DUP2 OR SWAP1 SWAP4 SSTORE PUSH1 0x40 MLOAD SWAP2 AND SWAP2 SWAP1 DUP3 SWAP1 PUSH32 0x8BE0079C531659141344CD1FD0A4F28419497F9722A3DAAFE3B4186F6B6457E0 SWAP1 PUSH1 0x0 SWAP1 LOG3 POP POP JUMP JUMPDEST PUSH2 0x1ABC DUP5 DUP5 DUP5 PUSH2 0x18B4 JUMP JUMPDEST PUSH2 0x1AC8 DUP5 DUP5 DUP5 DUP5 PUSH2 0x1BCF JUMP JUMPDEST PUSH2 0x13BB JUMPI PUSH1 0x40 MLOAD PUSH3 0x461BCD PUSH1 0xE5 SHL DUP2 MSTORE PUSH1 0x4 ADD PUSH2 0x85D SWAP1 PUSH2 0x2913 JUMP JUMPDEST PUSH2 0x1AEE DUP4 DUP4 PUSH2 0x1CCD JUMP JUMPDEST PUSH2 0x1AFB PUSH1 0x0 DUP5 DUP5 DUP5 PUSH2 0x1BCF JUMP JUMPDEST PUSH2 0x993 JUMPI PUSH1 0x40 MLOAD PUSH3 0x461BCD PUSH1 0xE5 SHL DUP2 MSTORE PUSH1 0x4 ADD PUSH2 0x85D SWAP1 PUSH2 0x2913 JUMP JUMPDEST PUSH1 0x1 PUSH1 0x1 PUSH1 0xA0 SHL SUB DUP4 AND PUSH2 0x1B72 JUMPI PUSH2 0x1B6D DUP2 PUSH1 0x8 DUP1 SLOAD PUSH1 0x0 DUP4 DUP2 MSTORE PUSH1 0x9 PUSH1 0x20 MSTORE PUSH1 0x40 DUP2 KECCAK256 DUP3 SWAP1 SSTORE PUSH1 0x1 DUP3 ADD DUP4 SSTORE SWAP2 SWAP1 SWAP2 MSTORE PUSH32 0xF3F7A9FE364FAAB93B216DA50A3214154F22A0A2B415B23A84C8169E8B636EE3 ADD SSTORE JUMP JUMPDEST PUSH2 0x1B95 JUMP JUMPDEST DUP2 PUSH1 0x1 PUSH1 0x1 PUSH1 0xA0 SHL SUB AND DUP4 PUSH1 0x1 PUSH1 0x1 PUSH1 0xA0 SHL SUB AND EQ PUSH2 0x1B95 JUMPI PUSH2 0x1B95 DUP4 DUP3 PUSH2 0x1E1B JUMP JUMPDEST PUSH1 0x1 PUSH1 0x1 PUSH1 0xA0 SHL SUB DUP3 AND PUSH2 0x1BAC JUMPI PUSH2 0x993 DUP2 PUSH2 0x1EB8 JUMP JUMPDEST DUP3 PUSH1 0x1 PUSH1 0x1 PUSH1 0xA0 SHL SUB AND DUP3 PUSH1 0x1 PUSH1 0x1 PUSH1 0xA0 SHL SUB AND EQ PUSH2 0x993 JUMPI PUSH2 0x993 DUP3 DUP3 PUSH2 0x1F67 JUMP JUMPDEST PUSH1 0x0 PUSH1 0x1 PUSH1 0x1 PUSH1 0xA0 SHL SUB DUP5 AND EXTCODESIZE ISZERO PUSH2 0x1CC2 JUMPI PUSH1 0x40 MLOAD PUSH4 0xA85BD01 PUSH1 0xE1 SHL DUP2 MSTORE PUSH1 0x1 PUSH1 0x1 PUSH1 0xA0 SHL SUB DUP6 AND SWAP1 PUSH4 0x150B7A02 SWAP1 PUSH2 0x1C13 SWAP1 CALLER SWAP1 DUP10 SWAP1 DUP9 SWAP1 DUP9 SWAP1 PUSH1 0x4 ADD PUSH2 0x2965 JUMP JUMPDEST PUSH1 0x20 PUSH1 0x40 MLOAD DUP1 DUP4 SUB DUP2 PUSH1 0x0 DUP8 GAS CALL SWAP3 POP POP POP DUP1 ISZERO PUSH2 0x1C4E JUMPI POP PUSH1 0x40 DUP1 MLOAD PUSH1 0x1F RETURNDATASIZE SWAP1 DUP2 ADD PUSH1 0x1F NOT AND DUP3 ADD SWAP1 SWAP3 MSTORE PUSH2 0x1C4B SWAP2 DUP2 ADD SWAP1 PUSH2 0x29A2 JUMP JUMPDEST PUSH1 0x1 JUMPDEST PUSH2 0x1CA8 JUMPI RETURNDATASIZE DUP1 DUP1 ISZERO PUSH2 0x1C7C JUMPI PUSH1 0x40 MLOAD SWAP2 POP PUSH1 0x1F NOT PUSH1 0x3F RETURNDATASIZE ADD AND DUP3 ADD PUSH1 0x40 MSTORE RETURNDATASIZE DUP3 MSTORE RETURNDATASIZE PUSH1 0x0 PUSH1 0x20 DUP5 ADD RETURNDATACOPY PUSH2 0x1C81 JUMP JUMPDEST PUSH1 0x60 SWAP2 POP JUMPDEST POP DUP1 MLOAD PUSH2 0x1CA0 JUMPI PUSH1 0x40 MLOAD PUSH3 0x461BCD PUSH1 0xE5 SHL DUP2 MSTORE PUSH1 0x4 ADD PUSH2 0x85D SWAP1 PUSH2 0x2913 JUMP JUMPDEST DUP1 MLOAD DUP2 PUSH1 0x20 ADD REVERT JUMPDEST PUSH1 0x1 PUSH1 0x1 PUSH1 0xE0 SHL SUB NOT AND PUSH4 0xA85BD01 PUSH1 0xE1 SHL EQ SWAP1 POP PUSH2 0x172D JUMP JUMPDEST POP PUSH1 0x1 SWAP5 SWAP4 POP POP POP POP JUMP JUMPDEST PUSH1 0x1 PUSH1 0x1 PUSH1 0xA0 SHL SUB DUP3 AND PUSH2 0x1D23 JUMPI PUSH1 0x40 MLOAD PUSH3 0x461BCD PUSH1 0xE5 SHL DUP2 MSTORE PUSH1 0x20 PUSH1 0x4 DUP3 ADD DUP2 SWAP1 MSTORE PUSH1 0x24 DUP3 ADD MSTORE PUSH32 0x4552433732313A206D696E7420746F20746865207A65726F2061646472657373 PUSH1 0x44 DUP3 ADD MSTORE PUSH1 0x64 ADD PUSH2 0x85D JUMP JUMPDEST PUSH1 0x0 DUP2 DUP2 MSTORE PUSH1 0x2 PUSH1 0x20 MSTORE PUSH1 0x40 SWAP1 KECCAK256 SLOAD PUSH1 0x1 PUSH1 0x1 PUSH1 0xA0 SHL SUB AND ISZERO PUSH2 0x1D88 JUMPI PUSH1 0x40 MLOAD PUSH3 0x461BCD PUSH1 0xE5 SHL DUP2 MSTORE PUSH1 0x20 PUSH1 0x4 DUP3 ADD MSTORE PUSH1 0x1C PUSH1 0x24 DUP3 ADD MSTORE PUSH32 0x4552433732313A20746F6B656E20616C7265616479206D696E74656400000000 PUSH1 0x44 DUP3 ADD MSTORE PUSH1 0x64 ADD PUSH2 0x85D JUMP JUMPDEST PUSH2 0x1D94 PUSH1 0x0 DUP4 DUP4 PUSH2 0x1B17 JUMP JUMPDEST PUSH1 0x1 PUSH1 0x1 PUSH1 0xA0 SHL SUB DUP3 AND PUSH1 0x0 SWAP1 DUP2 MSTORE PUSH1 0x3 PUSH1 0x20 MSTORE PUSH1 0x40 DUP2 KECCAK256 DUP1 SLOAD PUSH1 0x1 SWAP3 SWAP1 PUSH2 0x1DBD SWAP1 DUP5 SWAP1 PUSH2 0x2819 JUMP JUMPDEST SWAP1 SWAP2 SSTORE POP POP PUSH1 0x0 DUP2 DUP2 MSTORE PUSH1 0x2 PUSH1 0x20 MSTORE PUSH1 0x40 DUP1 DUP3 KECCAK256 DUP1 SLOAD PUSH1 0x1 PUSH1 0x1 PUSH1 0xA0 SHL SUB NOT AND PUSH1 0x1 PUSH1 0x1 PUSH1 0xA0 SHL SUB DUP7 AND SWAP1 DUP2 OR SWAP1 SWAP2 SSTORE SWAP1 MLOAD DUP4 SWAP3 SWAP1 PUSH32 0xDDF252AD1BE2C89B69C2B068FC378DAA952BA7F163C4A11628F55A4DF523B3EF SWAP1 DUP3 SWAP1 LOG4 POP POP JUMP JUMPDEST PUSH1 0x0 PUSH1 0x1 PUSH2 0x1E28 DUP5 PUSH2 0xE5A JUMP JUMPDEST PUSH2 0x1E32 SWAP2 SWAP1 PUSH2 0x2831 JUMP JUMPDEST PUSH1 0x0 DUP4 DUP2 MSTORE PUSH1 0x7 PUSH1 0x20 MSTORE PUSH1 0x40 SWAP1 KECCAK256 SLOAD SWAP1 SWAP2 POP DUP1 DUP3 EQ PUSH2 0x1E85 JUMPI PUSH1 0x1 PUSH1 0x1 PUSH1 0xA0 SHL SUB DUP5 AND PUSH1 0x0 SWAP1 DUP2 MSTORE PUSH1 0x6 PUSH1 0x20 SWAP1 DUP2 MSTORE PUSH1 0x40 DUP1 DUP4 KECCAK256 DUP6 DUP5 MSTORE DUP3 MSTORE DUP1 DUP4 KECCAK256 SLOAD DUP5 DUP5 MSTORE DUP2 DUP5 KECCAK256 DUP2 SWAP1 SSTORE DUP4 MSTORE PUSH1 0x7 SWAP1 SWAP2 MSTORE SWAP1 KECCAK256 DUP2 SWAP1 SSTORE JUMPDEST POP PUSH1 0x0 SWAP2 DUP3 MSTORE PUSH1 0x7 PUSH1 0x20 SWAP1 DUP2 MSTORE PUSH1 0x40 DUP1 DUP5 KECCAK256 DUP5 SWAP1 SSTORE PUSH1 0x1 PUSH1 0x1 PUSH1 0xA0 SHL SUB SWAP1 SWAP5 AND DUP4 MSTORE PUSH1 0x6 DUP2 MSTORE DUP4 DUP4 KECCAK256 SWAP2 DUP4 MSTORE MSTORE SWAP1 DUP2 KECCAK256 SSTORE JUMP JUMPDEST PUSH1 0x8 SLOAD PUSH1 0x0 SWAP1 PUSH2 0x1ECA SWAP1 PUSH1 0x1 SWAP1 PUSH2 0x2831 JUMP JUMPDEST PUSH1 0x0 DUP4 DUP2 MSTORE PUSH1 0x9 PUSH1 0x20 MSTORE PUSH1 0x40 DUP2 KECCAK256 SLOAD PUSH1 0x8 DUP1 SLOAD SWAP4 SWAP5 POP SWAP1 SWAP3 DUP5 SWAP1 DUP2 LT PUSH2 0x1EF2 JUMPI PUSH2 0x1EF2 PUSH2 0x2899 JUMP JUMPDEST SWAP1 PUSH1 0x0 MSTORE PUSH1 0x20 PUSH1 0x0 KECCAK256 ADD SLOAD SWAP1 POP DUP1 PUSH1 0x8 DUP4 DUP2 SLOAD DUP2 LT PUSH2 0x1F13 JUMPI PUSH2 0x1F13 PUSH2 0x2899 JUMP JUMPDEST PUSH1 0x0 SWAP2 DUP3 MSTORE PUSH1 0x20 DUP1 DUP4 KECCAK256 SWAP1 SWAP2 ADD SWAP3 SWAP1 SWAP3 SSTORE DUP3 DUP2 MSTORE PUSH1 0x9 SWAP1 SWAP2 MSTORE PUSH1 0x40 DUP1 DUP3 KECCAK256 DUP5 SWAP1 SSTORE DUP6 DUP3 MSTORE DUP2 KECCAK256 SSTORE PUSH1 0x8 DUP1 SLOAD DUP1 PUSH2 0x1F4B JUMPI PUSH2 0x1F4B PUSH2 0x29BF JUMP JUMPDEST PUSH1 0x1 SWAP1 SUB DUP2 DUP2 SWAP1 PUSH1 0x0 MSTORE PUSH1 0x20 PUSH1 0x0 KECCAK256 ADD PUSH1 0x0 SWAP1 SSTORE SWAP1 SSTORE POP POP POP POP JUMP JUMPDEST PUSH1 0x0 PUSH2 0x1F72 DUP4 PUSH2 0xE5A JUMP JUMPDEST PUSH1 0x1 PUSH1 0x1 PUSH1 0xA0 SHL SUB SWAP1 SWAP4 AND PUSH1 0x0 SWAP1 DUP2 MSTORE PUSH1 0x6 PUSH1 0x20 SWAP1 DUP2 MSTORE PUSH1 0x40 DUP1 DUP4 KECCAK256 DUP7 DUP5 MSTORE DUP3 MSTORE DUP1 DUP4 KECCAK256 DUP6 SWAP1 SSTORE SWAP4 DUP3 MSTORE PUSH1 0x7 SWAP1 MSTORE SWAP2 SWAP1 SWAP2 KECCAK256 SWAP2 SWAP1 SWAP2 SSTORE POP JUMP JUMPDEST PUSH1 0x1 PUSH1 0x1 PUSH1 0xE0 SHL SUB NOT DUP2 AND DUP2 EQ PUSH2 0x9D8 JUMPI PUSH1 0x0 DUP1 REVERT JUMPDEST PUSH1 0x0 PUSH1 0x20 DUP3 DUP5 SUB SLT ISZERO PUSH2 0x1FD3 JUMPI PUSH1 0x0 DUP1 REVERT JUMPDEST DUP2 CALLDATALOAD PUSH2 0x1FDE DUP2 PUSH2 0x1FAB JUMP JUMPDEST SWAP4 SWAP3 POP POP POP JUMP JUMPDEST PUSH4 0x4E487B71 PUSH1 0xE0 SHL PUSH1 0x0 MSTORE PUSH1 0x41 PUSH1 0x4 MSTORE PUSH1 0x24 PUSH1 0x0 REVERT JUMPDEST PUSH1 0x0 PUSH8 0xFFFFFFFFFFFFFFFF DUP1 DUP5 GT ISZERO PUSH2 0x2016 JUMPI PUSH2 0x2016 PUSH2 0x1FE5 JUMP JUMPDEST PUSH1 0x40 MLOAD PUSH1 0x1F DUP6 ADD PUSH1 0x1F NOT SWAP1 DUP2 AND PUSH1 0x3F ADD AND DUP2 ADD SWAP1 DUP3 DUP3 GT DUP2 DUP4 LT OR ISZERO PUSH2 0x203E JUMPI PUSH2 0x203E PUSH2 0x1FE5 JUMP JUMPDEST DUP2 PUSH1 0x40 MSTORE DUP1 SWAP4 POP DUP6 DUP2 MSTORE DUP7 DUP7 DUP7 ADD GT ISZERO PUSH2 0x2057 JUMPI PUSH1 0x0 DUP1 REVERT JUMPDEST DUP6 DUP6 PUSH1 0x20 DUP4 ADD CALLDATACOPY PUSH1 0x0 PUSH1 0x20 DUP8 DUP4 ADD ADD MSTORE POP POP POP SWAP4 SWAP3 POP POP POP JUMP JUMPDEST PUSH1 0x0 DUP1 PUSH1 0x40 DUP4 DUP6 SUB SLT ISZERO PUSH2 0x2084 JUMPI PUSH1 0x0 DUP1 REVERT JUMPDEST DUP3 CALLDATALOAD SWAP2 POP PUSH1 0x20 DUP4 ADD CALLDATALOAD PUSH8 0xFFFFFFFFFFFFFFFF DUP2 GT ISZERO PUSH2 0x20A2 JUMPI PUSH1 0x0 DUP1 REVERT JUMPDEST DUP4 ADD PUSH1 0x1F DUP2 ADD DUP6 SGT PUSH2 0x20B3 JUMPI PUSH1 0x0 DUP1 REVERT JUMPDEST PUSH2 0x20C2 DUP6 DUP3 CALLDATALOAD PUSH1 0x20 DUP5 ADD PUSH2 0x1FFB JUMP JUMPDEST SWAP2 POP POP SWAP3 POP SWAP3 SWAP1 POP JUMP JUMPDEST PUSH1 0x0 JUMPDEST DUP4 DUP2 LT ISZERO PUSH2 0x20E7 JUMPI DUP2 DUP2 ADD MLOAD DUP4 DUP3 ADD MSTORE PUSH1 0x20 ADD PUSH2 0x20CF JUMP JUMPDEST DUP4 DUP2 GT ISZERO PUSH2 0x13BB JUMPI POP POP PUSH1 0x0 SWAP2 ADD MSTORE JUMP JUMPDEST PUSH1 0x0 DUP2 MLOAD DUP1 DUP5 MSTORE PUSH2 0x2110 DUP2 PUSH1 0x20 DUP7 ADD PUSH1 0x20 DUP7 ADD PUSH2 0x20CC JUMP JUMPDEST PUSH1 0x1F ADD PUSH1 0x1F NOT AND SWAP3 SWAP1 SWAP3 ADD PUSH1 0x20 ADD SWAP3 SWAP2 POP POP JUMP JUMPDEST PUSH1 0x20 DUP2 MSTORE PUSH1 0x0 PUSH2 0x1FDE PUSH1 0x20 DUP4 ADD DUP5 PUSH2 0x20F8 JUMP JUMPDEST PUSH1 0x0 PUSH1 0x20 DUP3 DUP5 SUB SLT ISZERO PUSH2 0x2149 JUMPI PUSH1 0x0 DUP1 REVERT JUMPDEST POP CALLDATALOAD SWAP2 SWAP1 POP JUMP JUMPDEST DUP1 CALLDATALOAD PUSH1 0x1 PUSH1 0x1 PUSH1 0xA0 SHL SUB DUP2 AND DUP2 EQ PUSH2 0x2167 JUMPI PUSH1 0x0 DUP1 REVERT JUMPDEST SWAP2 SWAP1 POP JUMP JUMPDEST PUSH1 0x0 DUP1 PUSH1 0x40 DUP4 DUP6 SUB SLT ISZERO PUSH2 0x217F JUMPI PUSH1 0x0 DUP1 REVERT JUMPDEST PUSH2 0x2188 DUP4 PUSH2 0x2150 JUMP JUMPDEST SWAP5 PUSH1 0x20 SWAP4 SWAP1 SWAP4 ADD CALLDATALOAD SWAP4 POP POP POP JUMP JUMPDEST PUSH1 0x0 DUP1 PUSH1 0x0 PUSH1 0x60 DUP5 DUP7 SUB SLT ISZERO PUSH2 0x21AB JUMPI PUSH1 0x0 DUP1 REVERT JUMPDEST PUSH2 0x21B4 DUP5 PUSH2 0x2150 JUMP JUMPDEST SWAP3 POP PUSH2 0x21C2 PUSH1 0x20 DUP6 ADD PUSH2 0x2150 JUMP JUMPDEST SWAP2 POP PUSH1 0x40 DUP5 ADD CALLDATALOAD SWAP1 POP SWAP3 POP SWAP3 POP SWAP3 JUMP JUMPDEST PUSH1 0x0 PUSH1 0x20 DUP3 DUP5 SUB SLT ISZERO PUSH2 0x21E4 JUMPI PUSH1 0x0 DUP1 REVERT JUMPDEST PUSH2 0x1FDE DUP3 PUSH2 0x2150 JUMP JUMPDEST PUSH1 0x0 DUP1 PUSH1 0x0 DUP1 PUSH1 0x0 PUSH1 0xA0 DUP7 DUP9 SUB SLT ISZERO PUSH2 0x2205 JUMPI PUSH1 0x0 DUP1 REVERT JUMPDEST POP POP DUP4 CALLDATALOAD SWAP6 PUSH1 0x20 DUP6 ADD CALLDATALOAD SWAP6 POP PUSH1 0x40 DUP6 ADD CALLDATALOAD SWAP5 PUSH1 0x60 DUP2 ADD CALLDATALOAD SWAP5 POP PUSH1 0x80 ADD CALLDATALOAD SWAP3 POP SWAP1 POP JUMP JUMPDEST PUSH1 0x0 DUP1 PUSH1 0x40 DUP4 DUP6 SUB SLT ISZERO PUSH2 0x223B JUMPI PUSH1 0x0 DUP1 REVERT JUMPDEST PUSH2 0x2244 DUP4 PUSH2 0x2150 JUMP JUMPDEST SWAP2 POP PUSH1 0x20 DUP4 ADD CALLDATALOAD DUP1 ISZERO ISZERO DUP2 EQ PUSH2 0x2259 JUMPI PUSH1 0x0 DUP1 REVERT JUMPDEST DUP1 SWAP2 POP POP SWAP3 POP SWAP3 SWAP1 POP JUMP JUMPDEST PUSH1 0x0 DUP1 PUSH1 0x0 DUP1 PUSH1 0x80 DUP6 DUP8 SUB SLT ISZERO PUSH2 0x227A JUMPI PUSH1 0x0 DUP1 REVERT JUMPDEST PUSH2 0x2283 DUP6 PUSH2 0x2150 JUMP JUMPDEST SWAP4 POP PUSH2 0x2291 PUSH1 0x20 DUP7 ADD PUSH2 0x2150 JUMP JUMPDEST SWAP3 POP PUSH1 0x40 DUP6 ADD CALLDATALOAD SWAP2 POP PUSH1 0x60 DUP6 ADD CALLDATALOAD PUSH8 0xFFFFFFFFFFFFFFFF DUP2 GT ISZERO PUSH2 0x22B4 JUMPI PUSH1 0x0 DUP1 REVERT JUMPDEST DUP6 ADD PUSH1 0x1F DUP2 ADD DUP8 SGT PUSH2 0x22C5 JUMPI PUSH1 0x0 DUP1 REVERT JUMPDEST PUSH2 0x22D4 DUP8 DUP3 CALLDATALOAD PUSH1 0x20 DUP5 ADD PUSH2 0x1FFB JUMP JUMPDEST SWAP2 POP POP SWAP3 SWAP6 SWAP2 SWAP5 POP SWAP3 POP JUMP JUMPDEST PUSH4 0x4E487B71 PUSH1 0xE0 SHL PUSH1 0x0 MSTORE PUSH1 0x21 PUSH1 0x4 MSTORE PUSH1 0x24 PUSH1 0x0 REVERT JUMPDEST PUSH1 0x0 PUSH2 0x180 DUP3 ADD SWAP1 POP DUP14 DUP3 MSTORE DUP13 PUSH1 0x20 DUP4 ADD MSTORE DUP12 PUSH1 0x40 DUP4 ADD MSTORE DUP11 PUSH1 0x60 DUP4 ADD MSTORE DUP10 PUSH1 0x80 DUP4 ADD MSTORE DUP9 PUSH1 0xA0 DUP4 ADD MSTORE DUP8 PUSH1 0xC0 DUP4 ADD MSTORE DUP7 PUSH1 0xE0 DUP4 ADD MSTORE DUP6 PUSH2 0x100 DUP4 ADD MSTORE DUP5 PUSH2 0x120 DUP4 ADD MSTORE DUP4 PUSH2 0x140 DUP4 ADD MSTORE PUSH1 0x4 DUP4 LT PUSH2 0x235F JUMPI PUSH4 0x4E487B71 PUSH1 0xE0 SHL PUSH1 0x0 MSTORE PUSH1 0x21 PUSH1 0x4 MSTORE PUSH1 0x24 PUSH1 0x0 REVERT JUMPDEST DUP3 PUSH2 0x160 DUP4 ADD MSTORE SWAP14 SWAP13 POP POP POP POP POP POP POP POP POP POP POP POP POP JUMP JUMPDEST PUSH1 0x0 DUP1 PUSH1 0x40 DUP4 DUP6 SUB SLT ISZERO PUSH2 0x238A JUMPI PUSH1 0x0 DUP1 REVERT JUMPDEST PUSH2 0x2393 DUP4 PUSH2 0x2150 JUMP JUMPDEST SWAP2 POP PUSH2 0x23A1 PUSH1 0x20 DUP5 ADD PUSH2 0x2150 JUMP JUMPDEST SWAP1 POP SWAP3 POP SWAP3 SWAP1 POP JUMP JUMPDEST PUSH1 0x0 DUP2 MLOAD PUSH2 0x23BC DUP2 DUP6 PUSH1 0x20 DUP7 ADD PUSH2 0x20CC JUMP JUMPDEST SWAP3 SWAP1 SWAP3 ADD SWAP3 SWAP2 POP POP JUMP JUMPDEST PUSH32 0x7B226465736372697074696F6E223A202257697A61726441726D792200000000 DUP2 MSTORE PUSH32 0x2C202265787465726E616C5F75726C223A202268747470733A2F2F77697A6172 PUSH1 0x1C DUP3 ADD MSTORE PUSH32 0x6461726D794E46542E636F6D20286F7220736F6D657468696E67206C696B6520 PUSH1 0x3C DUP3 ADD MSTORE PUSH6 0x3A3434B99491 PUSH1 0xD1 SHL PUSH1 0x5C DUP3 ADD MSTORE PUSH12 0x16101134B6B0B3B2911D1011 PUSH1 0xA1 SHL PUSH1 0x62 DUP3 ADD MSTORE DUP3 MLOAD PUSH1 0x0 SWAP1 PUSH2 0x246F DUP2 PUSH1 0x6E DUP6 ADD PUSH1 0x20 DUP9 ADD PUSH2 0x20CC JUMP JUMPDEST PUSH1 0x11 PUSH1 0xF9 SHL PUSH1 0x6E SWAP2 DUP5 ADD SWAP2 DUP3 ADD MSTORE PUSH18 0x1610113730B6B2911D10112BB4BD30B93211 PUSH1 0x71 SHL PUSH1 0x6F DUP3 ADD MSTORE PUSH32 0x2C202261747472696275746573223A205B7B22646973706C61795F7479706522 PUSH1 0x81 DUP3 ADD MSTORE PUSH32 0x3A20226E756D626572222C202274726169745F74797065223A20226C6576656C PUSH1 0xA1 DUP3 ADD MSTORE PUSH12 0x111610113B30B63AB2911D1 PUSH1 0xA5 SHL PUSH1 0xC1 DUP3 ADD MSTORE PUSH2 0x2517 PUSH2 0x2509 PUSH1 0xCD DUP4 ADD DUP7 PUSH2 0x23AA JUMP JUMPDEST PUSH2 0x207D PUSH1 0xF0 SHL DUP2 MSTORE PUSH1 0x2 ADD SWAP1 JUMP JUMPDEST SWAP6 SWAP5 POP POP POP POP POP JUMP JUMPDEST PUSH1 0x0 DUP6 MLOAD PUSH2 0x2532 DUP2 DUP5 PUSH1 0x20 DUP11 ADD PUSH2 0x20CC JUMP JUMPDEST DUP1 DUP4 ADD SWAP1 POP PUSH32 0x2C207B22646973706C61795F74797065223A20226E756D626572222C20227472 DUP1 DUP3 MSTORE PUSH32 0x6169745F74797065223A20226870222C202276616C7565223A20000000000000 PUSH1 0x20 DUP4 ADD MSTORE DUP7 MLOAD PUSH2 0x2594 DUP2 PUSH1 0x3A DUP6 ADD PUSH1 0x20 DUP12 ADD PUSH2 0x20CC JUMP JUMPDEST DUP1 DUP4 ADD SWAP3 POP POP PUSH2 0x207D PUSH1 0xF0 SHL DUP1 PUSH1 0x3A DUP5 ADD MSTORE DUP2 PUSH1 0x3C DUP5 ADD MSTORE PUSH32 0x6169745F74797065223A20226D70222C202276616C7565223A20000000000000 PUSH1 0x5C DUP5 ADD MSTORE DUP7 MLOAD PUSH2 0x25E5 DUP2 PUSH1 0x76 DUP7 ADD PUSH1 0x20 DUP12 ADD PUSH2 0x20CC JUMP JUMPDEST PUSH1 0x76 SWAP4 ADD SWAP3 DUP4 ADD MSTORE PUSH1 0x78 DUP3 ADD MSTORE PUSH32 0x6169745F74797065223A202277696E73222C202276616C7565223A2000000000 PUSH1 0x98 DUP3 ADD MSTORE DUP4 MLOAD PUSH2 0x262B DUP2 PUSH1 0xB4 DUP5 ADD PUSH1 0x20 DUP9 ADD PUSH2 0x20CC JUMP JUMPDEST PUSH2 0x2642 PUSH1 0xB4 DUP3 DUP5 ADD ADD PUSH2 0x207D PUSH1 0xF0 SHL DUP2 MSTORE PUSH1 0x2 ADD SWAP1 JUMP JUMPDEST SWAP9 SWAP8 POP POP POP POP POP POP POP POP JUMP JUMPDEST PUSH1 0x0 DUP6 MLOAD PUSH2 0x2660 DUP2 DUP5 PUSH1 0x20 DUP11 ADD PUSH2 0x20CC JUMP JUMPDEST DUP1 DUP4 ADD SWAP1 POP PUSH32 0x2C207B22646973706C61795F74797065223A20226E756D626572222C20227472 DUP1 DUP3 MSTORE PUSH32 0x6169745F74797065223A20226C6F73736573222C202276616C7565223A200000 PUSH1 0x20 DUP4 ADD MSTORE DUP7 MLOAD PUSH2 0x26C2 DUP2 PUSH1 0x3E DUP6 ADD PUSH1 0x20 DUP12 ADD PUSH2 0x20CC JUMP JUMPDEST DUP1 DUP4 ADD SWAP3 POP POP PUSH2 0x207D PUSH1 0xF0 SHL DUP1 PUSH1 0x3E DUP5 ADD MSTORE DUP2 PUSH1 0x40 DUP5 ADD MSTORE PUSH32 0x6169745F74797065223A2022626174746C6573222C202276616C7565223A2000 PUSH1 0x60 DUP5 ADD MSTORE DUP7 MLOAD PUSH2 0x2713 DUP2 PUSH1 0x7F DUP7 ADD PUSH1 0x20 DUP12 ADD PUSH2 0x20CC JUMP JUMPDEST PUSH1 0x7F SWAP4 ADD SWAP3 DUP4 ADD MSTORE PUSH1 0x81 DUP3 ADD MSTORE PUSH32 0x6169745F74797065223A2022746F6B656E73436C61696D6564222C202276616C PUSH1 0xA1 DUP3 ADD MSTORE PUSH5 0x3AB2911D1 PUSH1 0xDD SHL PUSH1 0xC1 DUP3 ADD MSTORE PUSH2 0x2764 PUSH2 0x2509 PUSH1 0xC6 DUP4 ADD DUP7 PUSH2 0x23AA JUMP JUMPDEST SWAP8 SWAP7 POP POP POP POP POP POP POP JUMP JUMPDEST PUSH1 0x0 DUP3 MLOAD PUSH2 0x2781 DUP2 DUP5 PUSH1 0x20 DUP8 ADD PUSH2 0x20CC JUMP JUMPDEST PUSH1 0x5D PUSH1 0xF8 SHL SWAP3 ADD SWAP2 DUP3 MSTORE POP PUSH1 0x7D PUSH1 0xF8 SHL PUSH1 0x1 DUP3 ADD MSTORE PUSH1 0x2 ADD SWAP2 SWAP1 POP JUMP JUMPDEST PUSH1 0x1 DUP2 DUP2 SHR SWAP1 DUP3 AND DUP1 PUSH2 0x27B2 JUMPI PUSH1 0x7F DUP3 AND SWAP2 POP JUMPDEST PUSH1 0x20 DUP3 LT DUP2 EQ ISZERO PUSH2 0x27D3 JUMPI PUSH4 0x4E487B71 PUSH1 0xE0 SHL PUSH1 0x0 MSTORE PUSH1 0x22 PUSH1 0x4 MSTORE PUSH1 0x24 PUSH1 0x0 REVERT JUMPDEST POP SWAP2 SWAP1 POP JUMP JUMPDEST PUSH4 0x4E487B71 PUSH1 0xE0 SHL PUSH1 0x0 MSTORE PUSH1 0x12 PUSH1 0x4 MSTORE PUSH1 0x24 PUSH1 0x0 REVERT JUMPDEST PUSH1 0x0 DUP3 PUSH2 0x27FE JUMPI PUSH2 0x27FE PUSH2 0x27D9 JUMP JUMPDEST POP MOD SWAP1 JUMP JUMPDEST PUSH4 0x4E487B71 PUSH1 0xE0 SHL PUSH1 0x0 MSTORE PUSH1 0x11 PUSH1 0x4 MSTORE PUSH1 0x24 PUSH1 0x0 REVERT JUMPDEST PUSH1 0x0 DUP3 NOT DUP3 GT ISZERO PUSH2 0x282C JUMPI PUSH2 0x282C PUSH2 0x2803 JUMP JUMPDEST POP ADD SWAP1 JUMP JUMPDEST PUSH1 0x0 DUP3 DUP3 LT ISZERO PUSH2 0x2843 JUMPI PUSH2 0x2843 PUSH2 0x2803 JUMP JUMPDEST POP SUB SWAP1 JUMP JUMPDEST PUSH1 0x20 DUP1 DUP3 MSTORE PUSH1 0x31 SWAP1 DUP3 ADD MSTORE PUSH32 0x4552433732313A207472616E736665722063616C6C6572206973206E6F74206F PUSH1 0x40 DUP3 ADD MSTORE PUSH17 0x1DDB995C881B9BDC88185C1C1C9BDD9959 PUSH1 0x7A SHL PUSH1 0x60 DUP3 ADD MSTORE PUSH1 0x80 ADD SWAP1 JUMP JUMPDEST PUSH4 0x4E487B71 PUSH1 0xE0 SHL PUSH1 0x0 MSTORE PUSH1 0x32 PUSH1 0x4 MSTORE PUSH1 0x24 PUSH1 0x0 REVERT JUMPDEST PUSH1 0x20 DUP1 DUP3 MSTORE DUP2 DUP2 ADD MSTORE PUSH32 0x4F776E61626C653A2063616C6C6572206973206E6F7420746865206F776E6572 PUSH1 0x40 DUP3 ADD MSTORE PUSH1 0x60 ADD SWAP1 JUMP JUMPDEST PUSH1 0x0 PUSH1 0x0 NOT DUP3 EQ ISZERO PUSH2 0x28F8 JUMPI PUSH2 0x28F8 PUSH2 0x2803 JUMP JUMPDEST POP PUSH1 0x1 ADD SWAP1 JUMP JUMPDEST PUSH1 0x0 DUP3 PUSH2 0x290E JUMPI PUSH2 0x290E PUSH2 0x27D9 JUMP JUMPDEST POP DIV SWAP1 JUMP JUMPDEST PUSH1 0x20 DUP1 DUP3 MSTORE PUSH1 0x32 SWAP1 DUP3 ADD MSTORE PUSH32 0x4552433732313A207472616E7366657220746F206E6F6E204552433732315265 PUSH1 0x40 DUP3 ADD MSTORE PUSH18 0x31B2B4BB32B91034B6B83632B6B2B73A32B9 PUSH1 0x71 SHL PUSH1 0x60 DUP3 ADD MSTORE PUSH1 0x80 ADD SWAP1 JUMP JUMPDEST PUSH1 0x1 PUSH1 0x1 PUSH1 0xA0 SHL SUB DUP6 DUP2 AND DUP3 MSTORE DUP5 AND PUSH1 0x20 DUP3 ADD MSTORE PUSH1 0x40 DUP2 ADD DUP4 SWAP1 MSTORE PUSH1 0x80 PUSH1 0x60 DUP3 ADD DUP2 SWAP1 MSTORE PUSH1 0x0 SWAP1 PUSH2 0x2998 SWAP1 DUP4 ADD DUP5 PUSH2 0x20F8 JUMP JUMPDEST SWAP7 SWAP6 POP POP POP POP POP POP JUMP JUMPDEST PUSH1 0x0 PUSH1 0x20 DUP3 DUP5 SUB SLT ISZERO PUSH2 0x29B4 JUMPI PUSH1 0x0 DUP1 REVERT JUMPDEST DUP2 MLOAD PUSH2 0x1FDE DUP2 PUSH2 0x1FAB JUMP JUMPDEST PUSH4 0x4E487B71 PUSH1 0xE0 SHL PUSH1 0x0 MSTORE PUSH1 0x31 PUSH1 0x4 MSTORE PUSH1 0x24 PUSH1 0x0 REVERT INVALID PUSH9 0x747470733A2F2F6173 ORIGIN 0x2E PUSH7 0x7463646E2E6E65 PUSH21 0x2F76322F6A70672F30332F31322F37372F30332F31 ADDRESS ADDRESS ADDRESS 0x5F CHAINID 0x5F CALLER BALANCE ORIGIN CALLDATACOPY CALLDATACOPY ADDRESS CALLER CALLVALUE CODECOPY 0x5F CALLVALUE PUSH13 0x6B464E336532556C4F34336B51 PUSH13 0x46656D464E4970566B47355A77 PUSH26 0x74712E6A7067A2646970667358221220D539756F17B1DCA7116C 0x5D 0x1E SWAP3 0xB5 PUSH32 0xDB5BD3D0BC81AB32828D9B442679E1382864736F6C634300080C003300000000 ",
  "sha1": "3f88488b00c7d74931ae1c32d9e8d2dc8e3ffe53",
  "source": "// SPDX-License-Identifier: MIT\npragma solidity ^0.8.0;\n\n//import \"./helpers/ERC721.sol\";\nimport \"./helpers/Ownable.sol\";\nimport \"./helpers/ERC721Enumerable.sol\";\nimport \"./libraries/Strings.sol\";\n\n//import \"OpenZeppelin/openzeppelin-contracts@4.6.0/contracts/token/ERC721/ERC721.sol\";\n//import \"estarriolvetch/ERC721Psi/contracts/ERC721Psi.sol\";\n\ncontract Wizards is ERC721Enumerable, Ownable {\n    // cull the herd and reduce to 1000?\n//    uint256 public totalSupply = 0;\n    mapping (uint256 => Stats) public tokenIdToStats;\n    address public battler; /// contract address to update stats\n    address public verifier; /// contract address to update stats\n\n    enum ELEMENT {FIRE, WIND, WATER, EARTH}\n\n    // todo -- add level (will affect dApp)\n    struct Stats { // todo refine and move to bitencoding\n        uint256 level;\n        uint256 hp;\n        uint256 mp;\n        uint256 wins;\n        uint256 losses;\n        uint256 battles;\n        uint256 tokensClaimed;\n        uint256 goodness;\n        uint256 badness;\n        uint256 initiationTimestamp; // 0 if uninitiated\n        uint256 protectedUntilTimestamp; // after this timestamp, NFT can be crushed\n        ELEMENT element;\n    }\n\n    struct ContractSettings { // todo refine\n        uint256 mintCost;\n        uint256 initiationCost;\n        uint256 maxSupply;\n        uint256 protectionTimeExtension;\n        address ecosystemTokenAddress;\n    }\n\n    ContractSettings public contractSettings;\n    // 8 images\n\n    // 8 phases, must initiate first\n\n    event NewVerifier(address battler);\n    event NewBattler(address verifier);\n    event Initiated(address initiater, uint256 indexed wizardId, uint256 timestamp);\n\n\n    ////////////////////\n    ////    Get       //\n    ////////////////////\n    function isActive(uint256 _wizardId) public returns(bool) {\n        return true; // todo isActive\n    }\n\n\n    ///////////////////////////\n    ////// Core Functions /////\n    ///////////////////////////\n    constructor(string memory name_, string memory symbol_, address _address) ERC721(name_, symbol_) {\n        contractSettings.maxSupply = 10000;\n        contractSettings.initiationCost = 1;\n        contractSettings.mintCost = 5; // todo -- do in less steps\n        contractSettings.protectionTimeExtension = 1 days; // todo -- do in less steps\n        contractSettings.ecosystemTokenAddress = _address; // todo -- do in less steps\n    }\n\n    function mint() external {\n        require(totalSupply() < contractSettings.maxSupply, \"at max supply.\");\n        // todo -- randomly create stats\n        //\n        // hp, base = 25\n        // mp base = 25\n\n        uint256 addOn = uint256(keccak256(abi.encodePacked(totalSupply(), msg.sender, block.timestamp))) % 26;\n        uint256 hp = 25 + addOn;\n        uint256 mp = 50 - addOn;\n\n        ELEMENT element = ELEMENT(uint256(keccak256(abi.encodePacked(totalSupply(), msg.sender, block.timestamp+1, hp))) % 4);\n\n        Stats memory myStats =  Stats(1, hp, mp, 0, 0, 0, 0, 0, 0, 0, 0, element);\n        tokenIdToStats[totalSupply()] = myStats;\n        _safeMint(msg.sender, totalSupply());\n//        unchecked { totalSupply() += 1; }\n    }\n\n\n    /**\n     * @dev Moves NFT from inactive to active\n     */\n    function initiate(uint256 _tokenId) external {\n        require(ownerOf(_tokenId) == msg.sender, \"must be owner\");\n        require(tokenIdToStats[_tokenId].initiationTimestamp == 0, \"already initiated\");\n        // todo -- receive fee\n\n        Stats storage myStats = tokenIdToStats[_tokenId];\n        myStats.initiationTimestamp = block.timestamp;\n        myStats.protectedUntilTimestamp = block.timestamp + contractSettings.protectionTimeExtension;\n\n        emit Initiated(msg.sender, _tokenId, block.timestamp);\n    }\n\n    function reportBattle(uint256 _attackerId, uint256 _defenderId, uint256 _won, uint256 _tokensWon,\n        uint256 _tokensWaged) external onlyBattler {\n        tokenIdToStats[_attackerId].wins += _won;\n        tokenIdToStats[_attackerId].losses += _won==0 ? 1 : 0;\n        tokenIdToStats[_attackerId].tokensClaimed += _tokensWon;\n        // todo -- tokens waged?\n        tokenIdToStats[_defenderId].wins += _won==0 ? 1 : 0;\n        tokenIdToStats[_defenderId].losses += _won;\n        tokenIdToStats[_defenderId].tokensClaimed += _tokensWon;\n\n        if(_won==0) {\n            tokenIdToStats[_defenderId].tokensClaimed += _tokensWaged; // todo -- this ignores commission\n        }\n    }\n\n    /**\n     * @dev Gets phase of NFT\n     */\n    function getPhaseOf(uint256 _tokenId) public returns(uint256) {\n\n    }\n\n    /**\n     * @dev check if NFT is deserted--negligent in duties.\n     */\n    function getIsDeserted(uint256 _tokenId) public returns(bool) {\n\n    }\n\n    /**\n     * @dev Verify duties of NFT. Not duty specific\n     */\n    function verifyDuty(uint256 _tokenId) external onlyVerifier {\n    }\n\n    /**\n     * @dev uninitiate an NFT that is negligent in duties. Reward crusher\n     */\n    function crush(uint256 _tokenId) onlyHolder external {\n    }\n\n\n    function tokenURI(uint256 _tokenId) public view virtual override returns (string memory) {\n        require(_exists(_tokenId), \"ERC721Metadata: URI query for nonexistent token\");\n        // todo -- update image\n        return formatTokenURI(_tokenId, \"https://as2.ftcdn.net/v2/jpg/03/12/77/03/1000_F_312770349_4lkFN3e2UlO43kQlFemFNIpVkG5Zwytq.jpg\");\n    }\n\n    function formatTokenURI(uint256 _tokenId, string memory imageURI) public view returns (string memory) {\n//        Data memory _myData = unpackData(_tokenId);\n        Stats memory myStats = tokenIdToStats[_tokenId];\n\n        string memory json_str = string(abi.encodePacked(\n            '{\"description\": \"WizardArmy\"',\n            ', \"external_url\": \"https://wizardarmyNFT.com (or something like this)\"',\n            ', \"image\": \"',\n             imageURI, '\"',\n            ', \"name\": \"Wizard\"',\n            // attributes\n            ', \"attributes\": [{\"display_type\": \"number\", \"trait_type\": \"level\", \"value\": ',\n            Strings.toString(myStats.level), ' }'\n        ));\n\n        // use this format to add extra properties\n        json_str = string(abi.encodePacked(json_str,\n            ', {\"display_type\": \"number\", \"trait_type\": \"hp\", \"value\": ',\n            Strings.toString(myStats.hp),   ' }',\n            ', {\"display_type\": \"number\", \"trait_type\": \"mp\", \"value\": ',\n            Strings.toString(myStats.mp),   ' }',\n                ', {\"display_type\": \"number\", \"trait_type\": \"wins\", \"value\": ',\n            Strings.toString(myStats.wins),   ' }'\n        ));\n\n        // use this format to add extra properties\n        json_str = string(abi.encodePacked(json_str,\n            ', {\"display_type\": \"number\", \"trait_type\": \"losses\", \"value\": ',\n            Strings.toString(myStats.losses),   ' }',\n            ', {\"display_type\": \"number\", \"trait_type\": \"battles\", \"value\": ',\n            Strings.toString(myStats.battles),   ' }',\n                ', {\"display_type\": \"number\", \"trait_type\": \"tokensClaimed\", \"value\": ',\n            Strings.toString(myStats.tokensClaimed),   ' }'\n        ));\n\n        // end string\n        json_str = string(abi.encodePacked(json_str, ']','}'));\n\n//        string memory json_str = string(abi.encodePacked(\n//            '{\"description\": \"WizardArmy\"',\n//            ', \"external_url\": \"https://wizardarmyNFT.com (or something like this)\"',\n//            ', \"image\": \"',\n//             imageURI, '\"',\n//            ', \"name\": \"Wizard\"',\n//            // attributes\n//            ', \"attributes\": [{\"display_type\": \"number\", \"trait_type\": \"level\", \"value\": ',\n//            '11111111',   ' }'\n//        ));\n//        json_str = string(abi.encodePacked(json_str,\n//            ', {\"display_type\": \"number\", \"trait_type\": \"hp\", \"value\": ',\n//            '2222222222',   ' }',\n//            ', {\"display_type\": \"number\", \"trait_type\": \"mp\", \"value\": ',\n//            '33333333333333333',   ' }',\n//                ', {\"display_type\": \"number\", \"trait_type\": \"wins\", \"value\": ',\n//            '4444444444',   ' }',\n//            ']', // End Attributes\n//            '}'\n//        ));\n        return json_str;\n    }\n\n//    function uint2str(uint _i) internal pure returns (string memory _uintAsString) {\n//        if (_i == 0) {\n//            return \"0\";\n//        }\n//        uint j = _i;\n//        uint len;\n//        while (j != 0) {\n//            len++;\n//            j /= 10;\n//        }\n//        bytes memory bstr = new bytes(len);\n//        uint k = len - 1;\n//        while (_i != 0) {\n//            bstr[k--] = bytes1(uint8(48 + _i % 10));\n//            _i /= 10;\n//        }\n//        return string(bstr);\n//    }\n\n\n    ///////////////////////////\n    ////// Modifiers      /////\n    ///////////////////////////\n\n    modifier onlyVerifier() {\n        require(msg.sender != address(this), 'only verifier'); // todo -- decide who will verify--one or many addresses\n        _;\n    }\n\n    modifier onlyHolder() {\n        require(msg.sender != address(this), 'only verifier'); // todo -- decide who will verify--one or many addresses\n        _;\n    }\n\n    modifier onlyBattler() {\n        require(\n            msg.sender == battler,\n            \"Only battler can call this function.\"\n        );\n        _;\n    }\n\n    ///////////////////////////\n    ////// Admin      /////\n    ///////////////////////////\n\n    function updateBattler(address _battler) external onlyOwner {\n        require(_battler != address(0) && _battler != battler, \"Invalid operator address\");\n        battler = _battler;\n        emit NewBattler(_battler);\n    }\n\n    function updateVerifier(address _verifier) external onlyOwner {\n        require(_verifier != address(0) && _verifier != verifier, \"Invalid operator address\");\n        verifier = _verifier;\n        emit NewVerifier(_verifier);\n    }\n\n}",
  "sourcePath": "contracts/wizards.sol",
  "type": "contract"
}