{
  "abi": [
    {
      "inputs": [
        {
          "internalType": "address",
          "name": "_nft",
          "type": "address"
        }
      ],
      "stateMutability": "nonpayable",
      "type": "constructor"
    },
    {
      "inputs": [],
      "name": "OutOfBounds",
      "type": "error"
    },
    {
      "anonymous": false,
      "inputs": [
        {
          "indexed": false,
          "internalType": "bytes32",
          "name": "hash",
          "type": "bytes32"
        },
        {
          "indexed": false,
          "internalType": "bool",
          "name": "isHashCorrect",
          "type": "bool"
        },
        {
          "indexed": false,
          "internalType": "bytes32",
          "name": "firstEncoded",
          "type": "bytes32"
        },
        {
          "indexed": false,
          "internalType": "bytes",
          "name": "firstUnencoded",
          "type": "bytes"
        }
      ],
      "name": "HashTesting",
      "type": "event"
    },
    {
      "anonymous": false,
      "inputs": [
        {
          "indexed": false,
          "internalType": "string",
          "name": "_IPFSHash",
          "type": "string"
        },
        {
          "indexed": false,
          "internalType": "uint40",
          "name": "_proposalID",
          "type": "uint40"
        },
        {
          "indexed": false,
          "internalType": "uint8",
          "name": "_numFieldsToHash",
          "type": "uint8"
        },
        {
          "indexed": false,
          "internalType": "uint24",
          "name": "_timeBonus",
          "type": "uint24"
        },
        {
          "indexed": false,
          "internalType": "uint40",
          "name": "_begTimestamp",
          "type": "uint40"
        },
        {
          "indexed": false,
          "internalType": "uint40",
          "name": "_endTimestamp",
          "type": "uint40"
        },
        {
          "indexed": false,
          "internalType": "uint16",
          "name": "_availableSlots",
          "type": "uint16"
        }
      ],
      "name": "NewTaskTypeCreated",
      "type": "event"
    },
    {
      "anonymous": false,
      "inputs": [
        {
          "indexed": true,
          "internalType": "address",
          "name": "previousOwner",
          "type": "address"
        },
        {
          "indexed": true,
          "internalType": "address",
          "name": "newOwner",
          "type": "address"
        }
      ],
      "name": "OwnershipTransferred",
      "type": "event"
    },
    {
      "anonymous": false,
      "inputs": [
        {
          "indexed": false,
          "internalType": "uint256",
          "name": "wizardId",
          "type": "uint256"
        },
        {
          "indexed": false,
          "internalType": "uint256",
          "name": "taskId",
          "type": "uint256"
        },
        {
          "indexed": false,
          "internalType": "string",
          "name": "IPFSHash",
          "type": "string"
        },
        {
          "indexed": false,
          "internalType": "uint256",
          "name": "data",
          "type": "uint256"
        }
      ],
      "name": "TaskCompleted",
      "type": "event"
    },
    {
      "anonymous": false,
      "inputs": [
        {
          "indexed": false,
          "internalType": "uint256",
          "name": "wizardId",
          "type": "uint256"
        },
        {
          "indexed": false,
          "internalType": "uint256",
          "name": "taskId",
          "type": "uint256"
        },
        {
          "components": [
            {
              "internalType": "string",
              "name": "IPFSHash",
              "type": "string"
            },
            {
              "internalType": "uint40",
              "name": "NFTID",
              "type": "uint40"
            },
            {
              "internalType": "bytes32",
              "name": "hash",
              "type": "bytes32"
            },
            {
              "internalType": "bytes32",
              "name": "refuterHash",
              "type": "bytes32"
            },
            {
              "internalType": "uint8",
              "name": "numFieldsToHash",
              "type": "uint8"
            },
            {
              "internalType": "uint24",
              "name": "timeBonus",
              "type": "uint24"
            },
            {
              "internalType": "uint80",
              "name": "payment",
              "type": "uint80"
            },
            {
              "internalType": "uint16",
              "name": "verifierID",
              "type": "uint16"
            },
            {
              "internalType": "uint16",
              "name": "refuterID",
              "type": "uint16"
            },
            {
              "internalType": "uint40",
              "name": "verificationReservedTimestamp",
              "type": "uint40"
            }
          ],
          "indexed": false,
          "internalType": "struct Governance.Task",
          "name": "myTask",
          "type": "tuple"
        }
      ],
      "name": "VerificationAssigned",
      "type": "event"
    },
    {
      "anonymous": false,
      "inputs": [
        {
          "indexed": false,
          "internalType": "uint256",
          "name": "VerifierIdFirst",
          "type": "uint256"
        },
        {
          "indexed": false,
          "internalType": "uint256",
          "name": "VerifierIdSecond",
          "type": "uint256"
        },
        {
          "indexed": false,
          "internalType": "uint256",
          "name": "taskId",
          "type": "uint256"
        }
      ],
      "name": "VerificationFailed",
      "type": "event"
    },
    {
      "anonymous": false,
      "inputs": [
        {
          "indexed": false,
          "internalType": "uint256",
          "name": "taskDoer",
          "type": "uint256"
        },
        {
          "indexed": false,
          "internalType": "uint256",
          "name": "Verifier",
          "type": "uint256"
        },
        {
          "indexed": false,
          "internalType": "uint256",
          "name": "taskId",
          "type": "uint256"
        },
        {
          "indexed": false,
          "internalType": "bytes32",
          "name": "hash",
          "type": "bytes32"
        },
        {
          "indexed": false,
          "internalType": "bool",
          "name": "isHashCorrect",
          "type": "bool"
        }
      ],
      "name": "VerificationSucceeded",
      "type": "event"
    },
    {
      "inputs": [
        {
          "internalType": "uint256",
          "name": "_wizId",
          "type": "uint256"
        }
      ],
      "name": "areTasksAvailableToConfirm",
      "outputs": [
        {
          "internalType": "bool",
          "name": "",
          "type": "bool"
        }
      ],
      "stateMutability": "view",
      "type": "function"
    },
    {
      "inputs": [
        {
          "internalType": "uint256",
          "name": "_wizId",
          "type": "uint256"
        }
      ],
      "name": "claimRandomTaskForVerification",
      "outputs": [],
      "stateMutability": "nonpayable",
      "type": "function"
    },
    {
      "inputs": [
        {
          "internalType": "string",
          "name": "_IPFSHash",
          "type": "string"
        },
        {
          "internalType": "bytes32",
          "name": "_hash",
          "type": "bytes32"
        },
        {
          "internalType": "uint40",
          "name": "_wizId",
          "type": "uint40"
        }
      ],
      "name": "completeTask",
      "outputs": [],
      "stateMutability": "nonpayable",
      "type": "function"
    },
    {
      "inputs": [
        {
          "internalType": "string",
          "name": "_IPFSHash",
          "type": "string"
        },
        {
          "internalType": "uint16",
          "name": "_numberOfOptions",
          "type": "uint16"
        },
        {
          "internalType": "uint24",
          "name": "_timeBonus",
          "type": "uint24"
        },
        {
          "internalType": "uint40",
          "name": "_begTimestamp",
          "type": "uint40"
        },
        {
          "internalType": "uint40",
          "name": "_endTimestamp",
          "type": "uint40"
        },
        {
          "internalType": "uint16",
          "name": "_availableSlots",
          "type": "uint16"
        }
      ],
      "name": "createProposal",
      "outputs": [],
      "stateMutability": "nonpayable",
      "type": "function"
    },
    {
      "inputs": [
        {
          "internalType": "string",
          "name": "_IPFSHash",
          "type": "string"
        },
        {
          "internalType": "uint8",
          "name": "_numFieldsToHash",
          "type": "uint8"
        },
        {
          "internalType": "uint24",
          "name": "_timeBonus",
          "type": "uint24"
        },
        {
          "internalType": "uint40",
          "name": "_begTimestamp",
          "type": "uint40"
        },
        {
          "internalType": "uint40",
          "name": "_endTimestamp",
          "type": "uint40"
        },
        {
          "internalType": "uint16",
          "name": "_availableSlots",
          "type": "uint16"
        }
      ],
      "name": "createTaskType",
      "outputs": [],
      "stateMutability": "nonpayable",
      "type": "function"
    },
    {
      "inputs": [
        {
          "internalType": "string",
          "name": "_IPFSHash",
          "type": "string"
        }
      ],
      "name": "deleteTaskTypeByIPFSHash",
      "outputs": [],
      "stateMutability": "nonpayable",
      "type": "function"
    },
    {
      "inputs": [
        {
          "internalType": "uint40",
          "name": "_wizId",
          "type": "uint40"
        }
      ],
      "name": "getMyAvailableTaskTypes",
      "outputs": [
        {
          "internalType": "string[]",
          "name": "",
          "type": "string[]"
        }
      ],
      "stateMutability": "view",
      "type": "function"
    },
    {
      "inputs": [
        {
          "internalType": "uint256",
          "name": "_taskId",
          "type": "uint256"
        }
      ],
      "name": "getTaskById",
      "outputs": [
        {
          "components": [
            {
              "internalType": "string",
              "name": "IPFSHash",
              "type": "string"
            },
            {
              "internalType": "uint40",
              "name": "NFTID",
              "type": "uint40"
            },
            {
              "internalType": "bytes32",
              "name": "hash",
              "type": "bytes32"
            },
            {
              "internalType": "bytes32",
              "name": "refuterHash",
              "type": "bytes32"
            },
            {
              "internalType": "uint8",
              "name": "numFieldsToHash",
              "type": "uint8"
            },
            {
              "internalType": "uint24",
              "name": "timeBonus",
              "type": "uint24"
            },
            {
              "internalType": "uint80",
              "name": "payment",
              "type": "uint80"
            },
            {
              "internalType": "uint16",
              "name": "verifierID",
              "type": "uint16"
            },
            {
              "internalType": "uint16",
              "name": "refuterID",
              "type": "uint16"
            },
            {
              "internalType": "uint40",
              "name": "verificationReservedTimestamp",
              "type": "uint40"
            }
          ],
          "internalType": "struct Governance.Task",
          "name": "",
          "type": "tuple"
        }
      ],
      "stateMutability": "view",
      "type": "function"
    },
    {
      "inputs": [
        {
          "internalType": "uint40",
          "name": "_wizId",
          "type": "uint40"
        }
      ],
      "name": "getTasksAssignedToWiz",
      "outputs": [
        {
          "components": [
            {
              "internalType": "string",
              "name": "IPFSHash",
              "type": "string"
            },
            {
              "internalType": "uint40",
              "name": "NFTID",
              "type": "uint40"
            },
            {
              "internalType": "bytes32",
              "name": "hash",
              "type": "bytes32"
            },
            {
              "internalType": "bytes32",
              "name": "refuterHash",
              "type": "bytes32"
            },
            {
              "internalType": "uint8",
              "name": "numFieldsToHash",
              "type": "uint8"
            },
            {
              "internalType": "uint24",
              "name": "timeBonus",
              "type": "uint24"
            },
            {
              "internalType": "uint80",
              "name": "payment",
              "type": "uint80"
            },
            {
              "internalType": "uint16",
              "name": "verifierID",
              "type": "uint16"
            },
            {
              "internalType": "uint16",
              "name": "refuterID",
              "type": "uint16"
            },
            {
              "internalType": "uint40",
              "name": "verificationReservedTimestamp",
              "type": "uint40"
            }
          ],
          "internalType": "struct Governance.Task[]",
          "name": "",
          "type": "tuple[]"
        }
      ],
      "stateMutability": "view",
      "type": "function"
    },
    {
      "inputs": [
        {
          "internalType": "uint256",
          "name": "proposalID",
          "type": "uint256"
        }
      ],
      "name": "getVotes",
      "outputs": [
        {
          "internalType": "uint16[]",
          "name": "",
          "type": "uint16[]"
        }
      ],
      "stateMutability": "view",
      "type": "function"
    },
    {
      "inputs": [
        {
          "internalType": "uint256",
          "name": "proposalID",
          "type": "uint256"
        }
      ],
      "name": "getWinningVote",
      "outputs": [
        {
          "internalType": "uint256",
          "name": "",
          "type": "uint256"
        }
      ],
      "stateMutability": "view",
      "type": "function"
    },
    {
      "inputs": [],
      "name": "owner",
      "outputs": [
        {
          "internalType": "address",
          "name": "",
          "type": "address"
        }
      ],
      "stateMutability": "view",
      "type": "function"
    },
    {
      "inputs": [
        {
          "internalType": "uint256",
          "name": "",
          "type": "uint256"
        },
        {
          "internalType": "uint256",
          "name": "",
          "type": "uint256"
        }
      ],
      "name": "proposalToNFTVotes",
      "outputs": [
        {
          "internalType": "uint256",
          "name": "",
          "type": "uint256"
        }
      ],
      "stateMutability": "view",
      "type": "function"
    },
    {
      "inputs": [
        {
          "internalType": "uint256",
          "name": "",
          "type": "uint256"
        }
      ],
      "name": "proposals",
      "outputs": [
        {
          "internalType": "string",
          "name": "IPFSHash",
          "type": "string"
        },
        {
          "internalType": "uint16",
          "name": "numberOfOptions",
          "type": "uint16"
        },
        {
          "internalType": "uint40",
          "name": "totalVotes",
          "type": "uint40"
        },
        {
          "internalType": "uint40",
          "name": "begTimestamp",
          "type": "uint40"
        },
        {
          "internalType": "uint40",
          "name": "endTimestamp",
          "type": "uint40"
        }
      ],
      "stateMutability": "view",
      "type": "function"
    },
    {
      "inputs": [],
      "name": "renounceOwnership",
      "outputs": [],
      "stateMutability": "nonpayable",
      "type": "function"
    },
    {
      "inputs": [
        {
          "internalType": "address",
          "name": "_addy",
          "type": "address"
        }
      ],
      "name": "setNFTAddress",
      "outputs": [],
      "stateMutability": "nonpayable",
      "type": "function"
    },
    {
      "inputs": [
        {
          "internalType": "uint256",
          "name": "_wizId",
          "type": "uint256"
        },
        {
          "internalType": "uint256",
          "name": "_taskID",
          "type": "uint256"
        },
        {
          "internalType": "bytes32[]",
          "name": "_fields",
          "type": "bytes32[]"
        }
      ],
      "name": "submitVerification",
      "outputs": [],
      "stateMutability": "nonpayable",
      "type": "function"
    },
    {
      "inputs": [
        {
          "internalType": "uint256",
          "name": "",
          "type": "uint256"
        }
      ],
      "name": "taskTypes",
      "outputs": [
        {
          "internalType": "string",
          "name": "IPFSHash",
          "type": "string"
        },
        {
          "internalType": "bool",
          "name": "paused",
          "type": "bool"
        },
        {
          "internalType": "uint40",
          "name": "proposalID",
          "type": "uint40"
        },
        {
          "internalType": "uint8",
          "name": "numFieldsToHash",
          "type": "uint8"
        },
        {
          "internalType": "uint24",
          "name": "timeBonus",
          "type": "uint24"
        },
        {
          "internalType": "uint40",
          "name": "begTimestamp",
          "type": "uint40"
        },
        {
          "internalType": "uint40",
          "name": "endTimestamp",
          "type": "uint40"
        },
        {
          "internalType": "uint16",
          "name": "availableSlots",
          "type": "uint16"
        }
      ],
      "stateMutability": "view",
      "type": "function"
    },
    {
      "inputs": [
        {
          "internalType": "uint256",
          "name": "",
          "type": "uint256"
        }
      ],
      "name": "tasks",
      "outputs": [
        {
          "internalType": "string",
          "name": "IPFSHash",
          "type": "string"
        },
        {
          "internalType": "uint40",
          "name": "NFTID",
          "type": "uint40"
        },
        {
          "internalType": "bytes32",
          "name": "hash",
          "type": "bytes32"
        },
        {
          "internalType": "bytes32",
          "name": "refuterHash",
          "type": "bytes32"
        },
        {
          "internalType": "uint8",
          "name": "numFieldsToHash",
          "type": "uint8"
        },
        {
          "internalType": "uint24",
          "name": "timeBonus",
          "type": "uint24"
        },
        {
          "internalType": "uint80",
          "name": "payment",
          "type": "uint80"
        },
        {
          "internalType": "uint16",
          "name": "verifierID",
          "type": "uint16"
        },
        {
          "internalType": "uint16",
          "name": "refuterID",
          "type": "uint16"
        },
        {
          "internalType": "uint40",
          "name": "verificationReservedTimestamp",
          "type": "uint40"
        }
      ],
      "stateMutability": "view",
      "type": "function"
    },
    {
      "inputs": [],
      "name": "tasksWaitingConfirmation",
      "outputs": [
        {
          "internalType": "int128",
          "name": "_begin",
          "type": "int128"
        },
        {
          "internalType": "int128",
          "name": "_end",
          "type": "int128"
        }
      ],
      "stateMutability": "view",
      "type": "function"
    },
    {
      "inputs": [
        {
          "internalType": "bytes32",
          "name": "_givenHash",
          "type": "bytes32"
        },
        {
          "internalType": "bytes32[]",
          "name": "_fields",
          "type": "bytes32[]"
        },
        {
          "internalType": "bool",
          "name": "_refuted",
          "type": "bool"
        }
      ],
      "name": "testHashing",
      "outputs": [],
      "stateMutability": "nonpayable",
      "type": "function"
    },
    {
      "inputs": [],
      "name": "totalTasksAttempted",
      "outputs": [
        {
          "internalType": "uint256",
          "name": "",
          "type": "uint256"
        }
      ],
      "stateMutability": "view",
      "type": "function"
    },
    {
      "inputs": [
        {
          "internalType": "address",
          "name": "newOwner",
          "type": "address"
        }
      ],
      "name": "transferOwnership",
      "outputs": [],
      "stateMutability": "nonpayable",
      "type": "function"
    },
    {
      "inputs": [
        {
          "internalType": "uint256",
          "name": "proposalID",
          "type": "uint256"
        },
        {
          "internalType": "uint256",
          "name": "NFTID",
          "type": "uint256"
        },
        {
          "internalType": "uint256",
          "name": "_vote",
          "type": "uint256"
        }
      ],
      "name": "vote",
      "outputs": [],
      "stateMutability": "nonpayable",
      "type": "function"
    },
    {
      "stateMutability": "payable",
      "type": "receive"
    }
  ],
  "bytecode": "6080604052610258600b5562015180600c553480156200001e57600080fd5b5060405162003ed238038062003ed28339810160408190526200004191620000c9565b6001600055620000513362000077565b600280546001600160a01b0319166001600160a01b0392909216919091179055620000fb565b600180546001600160a01b038381166001600160a01b0319831681179093556040519116919082907f8be0079c531659141344cd1fd0a4f28419497f9722a3daafe3b4186f6b6457e090600090a35050565b600060208284031215620000dc57600080fd5b81516001600160a01b0381168114620000f457600080fd5b9392505050565b613dc7806200010b6000396000f3fe60806040526004361061014f5760003560e01c80638da5cb5b116100b6578063e95d23471161006f578063e95d234714610421578063f18c51d314610461578063f2fde38b14610481578063f4739bd9146104a1578063f713b7ed146104d1578063ff981099146104f157600080fd5b80638da5cb5b1461034957806390b293d814610371578063976217cd14610387578063b2bad544146103b4578063beca3a16146103e1578063d374a2171461040157600080fd5b806369d037381161010857806369d037381461027e578063715018a61461029e57806372e185ce146102b3578063826b8ebd146102d35780638a6655d6146102f35780638d9776721461031357600080fd5b8063013cf08b1461015b57806309265ce61461019557806310190ef1146101b75780634b50f16a146101eb57806361f9e9a8146102185780636215597b1461023857600080fd5b3661015657005b600080fd5b34801561016757600080fd5b5061017b610176366004612ef4565b61051e565b60405161018c959493929190612f65565b60405180910390f35b3480156101a157600080fd5b506101b56101b036600461306e565b6105ea565b005b3480156101c357600080fd5b506101d76101d2366004612ef4565b610730565b60405161018c9897969594939291906130cd565b3480156101f757600080fd5b5061020b61020636600461314c565b61083a565b60405161018c9190613238565b34801561022457600080fd5b506101b5610233366004613307565b610c6c565b34801561024457600080fd5b506102706102533660046133a4565b600360209081526000928352604080842090915290825290205481565b60405190815260200161018c565b34801561028a57600080fd5b506101b56102993660046133db565b610c94565b3480156102aa57600080fd5b506101b5610ce0565b3480156102bf57600080fd5b506101b56102ce366004613467565b610d16565b3480156102df57600080fd5b506102706102ee366004612ef4565b61119a565b3480156102ff57600080fd5b506101b561030e3660046134bd565b6113b0565b34801561031f57600080fd5b5061033361032e366004612ef4565b6113e9565b60405161018c9a999897969594939291906134e9565b34801561035557600080fd5b506001546040516001600160a01b03909116815260200161018c565b34801561037d57600080fd5b50610270600a5481565b34801561039357600080fd5b506103a76103a2366004612ef4565b6114eb565b60405161018c919061356a565b3480156103c057600080fd5b506103d46103cf36600461314c565b61162d565b60405161018c919061357d565b3480156103ed57600080fd5b506101b56103fc3660046135d2565b6119f3565b34801561040d57600080fd5b506101b561041c366004612ef4565b611b08565b34801561042d57600080fd5b5060055461044790600f81810b91600160801b9004900b82565b60408051600f93840b81529190920b60208201520161018c565b34801561046d57600080fd5b506101b561047c366004613622565b611e44565b34801561048d57600080fd5b506101b561049c3660046133db565b6125ea565b3480156104ad57600080fd5b506104c16104bc366004612ef4565b612685565b604051901515815260200161018c565b3480156104dd57600080fd5b506101b56104ec366004613671565b612855565b3480156104fd57600080fd5b5061051161050c366004612ef4565b6129f2565b60405161018c91906136ad565b600760205260009081526040902080548190610539906136f5565b80601f0160208091040260200160405190810160405280929190818152602001828054610565906136f5565b80156105b25780601f10610587576101008083540402835291602001916105b2565b820191906000526020600020905b81548152906001019060200180831161059557829003601f168201915b505050506001830154600390930154919261ffff169164ffffffffff8082169250650100000000008204811691600160501b90041685565b6000826000815181106105ff576105ff61372f565b602002602001015160405160200161061991815260200190565b604051602081830303815290604052905081156106a55760005b83518110156106a35783818151811061064e5761064e61372f565b602002602001015160405160200161066891815260200190565b604051602081830303815290604052805190602001208482815181106106905761069061372f565b6020908102919091010152600101610633565b505b6000836040516020016106b89190613745565b6040516020818303038152906040528051906020012090507f637ce8d069e382e64ef71cf191623b88c7e307ce252e908e7f2babbad0cb81ea81868314866000815181106107085761070861372f565b602002602001015185604051610721949392919061377b565b60405180910390a15050505050565b6004818154811061074057600080fd5b9060005260206000209060030201600091509050806001018054610763906136f5565b80601f016020809104026020016040519081016040528092919081815260200182805461078f906136f5565b80156107dc5780601f106107b1576101008083540402835291602001916107dc565b820191906000526020600020905b8154815290600101906020018083116107bf57829003601f168201915b5050506002909301549192505060ff8082169164ffffffffff610100820481169266010000000000008304169162ffffff600160381b82041691600160501b8204811691600160781b81049091169061ffff600160a01b9091041688565b60606000610857600554600f81810b600160801b909204900b0390565b9050610861612e56565b600080805b848110156109e957610879600582612b17565b600081815260096020526040908190208151610140810190925280549295509091829082906108a7906136f5565b80601f01602080910402602001604051908101604052809291908181526020018280546108d3906136f5565b80156109205780601f106108f557610100808354040283529160200191610920565b820191906000526020600020905b81548152906001019060200180831161090357829003601f168201915b5050509183525050600182015464ffffffffff9081166020830152600283015460408301526003830154606083015260049092015460ff8116608083015261010080820462ffffff1660a0840152600160201b82046001600160501b031660c0840152600160701b820461ffff90811660e0850152600160801b83041690830152600160901b90048216610120918201528201519195504291161180156109d557508664ffffffffff168460e0015161ffff16145b156109e1578160010191505b600101610866565b5080600003610a5e57604080516001808252818301909252600091816020015b610a11612e56565b815260200190600190039081610a095790505090506103e781600081518110610a3c57610a3c61372f565b60209081029190910181015164ffffffffff9092169101529695505050505050565b600080826001600160401b03811115610a7957610a79612fa9565b604051908082528060200260200182016040528015610ab257816020015b610a9f612e56565b815260200190600190039081610a975790505b50905060005b86811015610c6057610acb600582612b17565b60008181526009602052604090819020815161014081019092528054929750909182908290610af9906136f5565b80601f0160208091040260200160405190810160405280929190818152602001828054610b25906136f5565b8015610b725780601f10610b4757610100808354040283529160200191610b72565b820191906000526020600020905b815481529060010190602001808311610b5557829003601f168201915b5050509183525050600182015464ffffffffff9081166020830152600283015460408301526003830154606083015260049092015460ff8116608083015261010080820462ffffff1660a0840152600160201b82046001600160501b031660c0840152600160701b820461ffff90811660e0850152600160801b83041690830152600160901b9004821661012091820152820151919750429116118015610c2757508864ffffffffff168660e0015161ffff16145b15610c585785828481518110610c3f57610c3f61372f565b6020026020010181905250826001019250838311610c60575b600101610ab8565b50979650505050505050565b610c7a565b60405180910390fd5b610c8b878760008888888888612b88565b50505050505050565b6001546001600160a01b03163314610cbe5760405162461bcd60e51b8152600401610c71906137ac565b600280546001600160a01b0319166001600160a01b0392909216919091179055565b6001546001600160a01b03163314610d0a5760405162461bcd60e51b8152600401610c71906137ac565b610d146000612d07565b565b60005b6004548110156111945783604051602001610d3491906137e1565b6040516020818303038152906040528051906020012060048281548110610d5d57610d5d61372f565b9060005260206000209060030201600101604051602001610d7e9190613871565b604051602081830303815290604052805190602001200361118c574260048281548110610dad57610dad61372f565b6000918252602090912060039091020160020154600160501b900464ffffffffff1611801590610e11575060048181548110610deb57610deb61372f565b6000918252602090912060039091020160020154600160781b900464ffffffffff164211155b610e535760405162461bcd60e51b815260206004820152601360248201527213dd5d1cda5919481d1a5b59481c195c9a5bd9606a1b6044820152606401610c71565b60006040518061014001604052808681526020018464ffffffffff1681526020018581526020016000801b815260200160048481548110610e9657610e9661372f565b906000526020600020906003020160020160069054906101000a900460ff1660ff16815260200160048481548110610ed057610ed061372f565b6000918252602080832060039290920290910160020154600160381b900462ffffff1683528281018290526040808401839052606084018390526080909301829052600a5460058054600160801b90819004600f0b8086526006855286862084905582546fffffffffffffffffffffffffffffffff90811660019092011690910217905582526009905220815191925082918190610f6e90826138d3565b5060208201516001828101805464ffffffffff191664ffffffffff938416179055604084015160028401556060840151600384015560808401516004909301805460a086015160c087015160e0880151610100808a0151610120909a015160ff90991663ffffffff199095169490941762ffffff909316909302919091176fffffffffffffffffffffffff000000001916600160201b6001600160501b039092169190910261ffff60701b191617600160701b61ffff928316021766ffffffffffffff60801b1916600160801b919096160264ffffffffff60901b191694909417600160901b939092169290920217909155600a80546000906110729084906139a8565b90915550611085905042620151806139a8565b600483815481106110985761109861372f565b6000918252602080832064ffffffffff881684526003909202909101905260409020556004805460019190849081106110d3576110d361372f565b906000526020600020906003020160020160149054906101000a900461ffff166110fd91906139c0565b600483815481106111105761111061372f565b906000526020600020906003020160020160146101000a81548161ffff021916908361ffff1602179055507fbcc1ea15519f3acfb49e91de851e553b2c024b9ab85cee8ffd8fe4e4e0a7876d836001600a5461116c91906139e3565b874260405161117e94939291906139fa565b60405180910390a150611194565b600101610d19565b50505050565b600060085482106111e05760405162461bcd60e51b815260206004820152601060248201526f1b9bc81cdd58da081c1c9bdc1bdcd85b60821b6044820152606401610c71565b600082815260076020526040902060030154600160501b900464ffffffffff1642116112445760405162461bcd60e51b8152602060048201526013602482015272766f74696e67207374696c6c2061637469766560681b6044820152606401610c71565b6000806000805b60008681526007602052604090206001015461ffff168110156113655760008681526007602052604090208390600201826008811061128c5761128c61372f565b601091828204019190066002029054906101000a900461ffff1661ffff16111561130757600086815260076020526040902060020181600881106112d2576112d261372f565b601091828204019190066002029054906101000a900461ffff1661ffff1692508093508160010361130257600091505b611353565b60008681526007602052604090208390600201826008811061132b5761132b61372f565b601091828204019190066002029054906101000a900461ffff1661ffff160361135357600191505b8061135d81613a31565b91505061124b565b5080156113a75760405162461bcd60e51b815260206004820152601060248201526f3a3432b932903bb0b99030903a34b29760811b6044820152606401610c71565b50909392505050565b60405162461bcd60e51b815260206004820152600e60248201526d26bab9ba1031329036b2b6b132b960911b6044820152606401610c71565b600960205260009081526040902080548190611404906136f5565b80601f0160208091040260200160405190810160405280929190818152602001828054611430906136f5565b801561147d5780601f106114525761010080835404028352916020019161147d565b820191906000526020600020905b81548152906001019060200180831161146057829003601f168201915b505050600184015460028501546003860154600490960154949564ffffffffff92831695919450925060ff81169162ffffff610100830416916001600160501b03600160201b8204169161ffff600160701b8304811692600160801b810490911691600160901b909104168a565b6114f3612e56565b600082815260096020526040908190208151610140810190925280548290829061151c906136f5565b80601f0160208091040260200160405190810160405280929190818152602001828054611548906136f5565b80156115955780601f1061156a57610100808354040283529160200191611595565b820191906000526020600020905b81548152906001019060200180831161157857829003601f168201915b5050509183525050600182015464ffffffffff9081166020830152600283015460408301526003830154606083015260049092015460ff8116608083015261010080820462ffffff1660a0840152600160201b82046001600160501b031660c0840152600160701b820461ffff90811660e0850152600160801b83041690830152600160901b90049091166101209091015292915050565b60606000805b6004548110156117455742600482815481106116515761165161372f565b6000918252602080832064ffffffffff891684526003909202909101905260409020541080156116b5575042600482815481106116905761169061372f565b6000918252602090912060039091020160020154600160501b900464ffffffffff1611155b80156116f4575042600482815481106116d0576116d061372f565b6000918252602090912060039091020160020154600160781b900464ffffffffff16115b801561173157506001600482815481106117105761171061372f565b6000918252602090912060039091020160020154600160a01b900461ffff16115b1561173d578160010191505b600101611633565b50806000036117b157604080516001808252818301909252600091816020015b6060815260200190600190039081611765579050509050604051806020016040528060008152508160008151811061179f5761179f61372f565b60209081029190910101529392505050565b6000816001600160401b038111156117cb576117cb612fa9565b6040519080825280602002602001820160405280156117fe57816020015b60608152602001906001900390816117e95790505b5090506000805b6004548110156119e95742600482815481106118235761182361372f565b6000918252602080832064ffffffffff8b168452600390920290910190526040902054108015611887575042600482815481106118625761186261372f565b6000918252602090912060039091020160020154600160501b900464ffffffffff1611155b80156118c6575042600482815481106118a2576118a261372f565b6000918252602090912060039091020160020154600160781b900464ffffffffff16115b801561190357506001600482815481106118e2576118e261372f565b6000918252602090912060039091020160020154600160a01b900461ffff16115b156119e1576004818154811061191b5761191b61372f565b90600052602060002090600302016001018054611937906136f5565b80601f0160208091040260200160405190810160405280929190818152602001828054611963906136f5565b80156119b05780601f10611985576101008083540402835291602001916119b0565b820191906000526020600020905b81548152906001019060200180831161199357829003601f168201915b50505050508383815181106119c7576119c761372f565b6020026020010181905250816001019150838210156119e9575b600101611805565b5090949350505050565b60018561ffff16118015611a0c57506101018561ffff16105b611a585760405162461bcd60e51b815260206004820152601960248201527f696e76616c6964206e756d626572206f66206f7074696f6e73000000000000006044820152606401610c71565b600160086000828254611a6b91906139a8565b909155505060085460009081526007602052604090206003810180546effffffffffffffffffff000000000019166501000000000064ffffffffff8781169190910264ffffffffff60501b191691909117600160501b9186169190910217905560018101805461ffff191661ffff881617905580611aea888a83613a67565b50611afe8888600854600089898989612b88565b5050505050505050565b6000611b23600554600f81810b600160801b909204900b0390565b9050611b2d612e56565b6000805b83811015611e3d57611b44600582612b17565b60008181526009602052604090819020815161014081019092528054929450909182908290611b72906136f5565b80601f0160208091040260200160405190810160405280929190818152602001828054611b9e906136f5565b8015611beb5780601f10611bc057610100808354040283529160200191611beb565b820191906000526020600020905b815481529060010190602001808311611bce57829003601f168201915b5050509183525050600182015464ffffffffff9081166020830152600283015460408301526003830154606083015260049092015460ff8116608083015261010080820462ffffff1660a0840152600160201b82046001600160501b031660c0840152600160701b820461ffff90811660e0850152600160801b83041690830152600160901b9004821661012091820152820151919450429116108015611c9d575084836020015164ffffffffff1614155b8015611cb257508483610100015161ffff1614155b15611e355761ffff851660e0840152600b54611cce90426139a8565b64ffffffffff16610120840152600082815260096020526040902083518491908190611cfa90826138d3565b5060208281015160018301805464ffffffffff191664ffffffffff92831617905560408085015160028501556060850151600385015560808501516004909401805460a087015160c088015160e0890151610100808b0151610120909b015160ff909a1663ffffffff199095169490941762ffffff909316909302919091176fffffffffffffffffffffffff000000001916600160201b6001600160501b039092169190910261ffff60701b191617600160701b61ffff928316021766ffffffffffffff60801b1916600160801b919097160264ffffffffff60901b191695909517600160901b949092169390930217909255600084815260099092529081902090517ff20a22b1aa6d8ba4bf99c845fb1f02f4879ba83155bde0f82f49cb58675df26891611e2c9188918691613b26565b60405180910390a15b600101611b31565b5050505050565b6002546040516331a9108f60e11b81526004810185905233916001600160a01b031690636352211e90602401602060405180830381865afa158015611e8d573d6000803e3d6000fd5b505050506040513d601f19601f82011682018060405250810190611eb19190613a4a565b6001600160a01b0316148015611ee25750600082815260096020526040902060040154600160701b900461ffff1683145b611f2e5760405162461bcd60e51b815260206004820181905260248201527f4d757374206265206f776e6572206f662061737369676e65642077697a6172646044820152606401610c71565b6000815111611f3c57600080fd5b60008281526009602052604081206004810154909190600160801b900461ffff1615611fd75760005b8351811015611fd557838181518110611f8057611f8061372f565b6020026020010151604051602001611f9a91815260200190565b60405160208183030381529060405280519060200120848281518110611fc257611fc261372f565b6020908102919091010152600101611f65565b505b600083604051602001611fea9190613745565b604051602081830303815290604052805190602001209050600081846002015414612016576000612019565b60015b600185810154604080518b815264ffffffffff909216602083015281018990526060810185905260ff92909216908114608083015291507fe3f0e138f100deaf328ba1def71c39dade8cd971ba0074d935ee648e54532fae9060a00160405180910390a18060010361237f5760048401546000906120a990600290600160201b90046001600160501b0316613bf1565b6002546004878101546040516331a9108f60e11b8152600160701b90910461ffff16918101919091526001600160501b039290921692506000916001600160a01b0390911690636352211e90602401602060405180830381865afa158015612115573d6000803e3d6000fd5b505050506040513d601f19601f820116820180604052508101906121399190613a4a565b60025460018801546004808a0154604051638ad4d6a560e01b815264ffffffffff90931691830191909152610100900462ffffff1660248201529192506001600160a01b031690638ad4d6a590604401600060405180830381600087803b1580156121a357600080fd5b505af11580156121b7573d6000803e3d6000fd5b5050600254600489810154600c54604051638ad4d6a560e01b8152600160701b90920461ffff169282019290925260248101919091526001600160a01b039091169250638ad4d6a591506044015b600060405180830381600087803b15801561221f57600080fd5b505af1158015612233573d6000803e3d6000fd5b5050506004870180546dffffffffffffffffffff0000000019169055506000888152600960205260408120906122698282612eaa565b5060018101805464ffffffffff1916905560006002820181905560038201819055600490910180546001600160b81b031916905560405181906001600160a01b0384169085908381818185875af1925050503d80600081146122e7576040519150601f19603f3d011682016040523d82523d6000602084013e6122ec565b606091505b50915091508161230e5760405162461bcd60e51b8152600401610c7190613c25565b60405133908590600081818185875af1925050503d806000811461234e576040519150601f19603f3d011682016040523d82523d6000602084013e612353565b606091505b509092509050816123765760405162461bcd60e51b8152600401610c7190613c25565b50505050610c8b565b818460030154036124f65760048401546000906123ae90600290600160201b90046001600160501b0316613bf1565b6002546004878101546040516331a9108f60e11b8152600160801b90910461ffff16918101919091526001600160501b039290921692506000916001600160a01b0390911690636352211e90602401602060405180830381865afa15801561241a573d6000803e3d6000fd5b505050506040513d601f19601f8201168201806040525081019061243e9190613a4a565b600254600488810154600c54604051638ad4d6a560e01b8152600160801b90920461ffff169282019290925260248101919091529192506001600160a01b031690638ad4d6a590604401600060405180830381600087803b1580156124a257600080fd5b505af11580156124b6573d6000803e3d6000fd5b5050600254600c54604051638ad4d6a560e01b8152600481018e905260248101919091526001600160a01b039091169250638ad4d6a59150604401612205565b60048401546000878152600960205260408120600160201b9092046001600160501b031691906125268282612eaa565b5060018101805464ffffffffff1916905560006002820181905560038201819055600490910180546001600160b81b03191690558061256d6001546001600160a01b031690565b6001600160a01b03168360405160006040518083038185875af1925050503d80600081146125b7576040519150601f19603f3d011682016040523d82523d6000602084013e6125bc565b606091505b5091509150816125de5760405162461bcd60e51b8152600401610c7190613c25565b50505050505050505050565b6001546001600160a01b031633146126145760405162461bcd60e51b8152600401610c71906137ac565b6001600160a01b0381166126795760405162461bcd60e51b815260206004820152602660248201527f4f776e61626c653a206e6577206f776e657220697320746865207a65726f206160448201526564647265737360d01b6064820152608401610c71565b61268281612d07565b50565b6000806126a1600554600f81810b600160801b909204900b0390565b90506126ab612e56565b60005b8281101561284a57600960006126c5600584612b17565b60001c8152602001908152602001600020604051806101400160405290816000820180546126f2906136f5565b80601f016020809104026020016040519081016040528092919081815260200182805461271e906136f5565b801561276b5780601f106127405761010080835404028352916020019161276b565b820191906000526020600020905b81548152906001019060200180831161274e57829003601f168201915b5050509183525050600182015464ffffffffff9081166020830152600283015460408301526003830154606083015260049092015460ff8116608083015261010080820462ffffff1660a0840152600160201b82046001600160501b031660c0840152600160701b820461ffff90811660e0850152600160801b83041690830152600160901b900482166101209182015282015191935042911610801561281d575084826020015164ffffffffff1614155b801561283257508482610100015161ffff1614155b1561284257506001949350505050565b6001016126ae565b506000949350505050565b60005b6004548110156129ee57816040516020016128739190613c53565b604051602081830303815290604052805190602001206004828154811061289c5761289c61372f565b90600052602060002090600302016001016040516020016128bd9190613c6f565b60405160208183030381529060405280519060200120036129e6576000600482815481106128ed576128ed61372f565b9060005260206000209060030201905060006004600160048054905061291391906139e3565b815481106129235761292361372f565b906000526020600020906003020190508091506004600160048054905061294a91906139e3565b8154811061295a5761295a61372f565b9060005260206000209060030201600060018201600061297a9190612eaa565b5060020180546001600160b01b03191690556004805461299c906001906139e3565b815481106129ac576129ac61372f565b906000526020600020906003020160006001820160006129cc9190612eaa565b5060020180546001600160b01b0319169055506129ee9050565b600101612858565b5050565b60606008548210612a385760405162461bcd60e51b815260206004820152601060248201526f1b9bc81cdd58da081c1c9bdc1bdcd85b60821b6044820152606401610c71565b60008281526007602052604081206001015461ffff166001600160401b03811115612a6557612a65612fa9565b604051908082528060200260200182016040528015612a8e578160200160208202803683370190505b50905060005b8151811015612b105760008481526007602052604090206002018160088110612abf57612abf61372f565b601091828204019190066002029054906101000a900461ffff16828281518110612aeb57612aeb61372f565b61ffff9092166020928302919091019091015280612b0881613a31565b915050612a94565b5092915050565b600080612b3a612b2684612d59565b8554612b359190600f0b613ce1565b612dc7565b8454909150600160801b9004600f90810b9082900b12612b6d57604051632d0483c560e21b815260040160405180910390fd5b600f0b60009081526001939093016020525050604090205490565b6004805460018101808355600083815291929083908110612bab57612bab61372f565b60009182526020909120600390910201905060018101612bcc8a8c83613a67565b5060008160020160006101000a81548160ff021916908315150217905550878160020160016101000a81548164ffffffffff021916908364ffffffffff160217905550868160020160066101000a81548160ff021916908360ff160217905550858160020160076101000a81548162ffffff021916908362ffffff1602179055508481600201600a6101000a81548164ffffffffff021916908364ffffffffff1602179055508381600201600f6101000a81548164ffffffffff021916908364ffffffffff160217905550828160020160146101000a81548161ffff021916908361ffff1602179055507f2810025950962e3cd71fd98c2dc111ffbdb2a129b36771df8d36a7de2fe3e4e08a8a8a8a8a8a8a8a604051612cf3989796959493929190613d22565b60405180910390a150505050505050505050565b600180546001600160a01b038381166001600160a01b0319831681179093556040519116919082907f8be0079c531659141344cd1fd0a4f28419497f9722a3daafe3b4186f6b6457e090600090a35050565b60006001600160ff1b03821115612dc35760405162461bcd60e51b815260206004820152602860248201527f53616665436173743a2076616c756520646f65736e27742066697420696e2061604482015267371034b73a191a9b60c11b6064820152608401610c71565b5090565b60006f7fffffffffffffffffffffffffffffff198212801590612dfa57506f7fffffffffffffffffffffffffffffff8213155b612dc35760405162461bcd60e51b815260206004820152602760248201527f53616665436173743a2076616c756520646f65736e27742066697420696e20316044820152663238206269747360c81b6064820152608401610c71565b6040805161014081018252606080825260006020830181905292820183905281018290526080810182905260a0810182905260c0810182905260e08101829052610100810182905261012081019190915290565b508054612eb6906136f5565b6000825580601f10612ec6575050565b601f01602090049060005260206000209081019061268291905b80821115612dc35760008155600101612ee0565b600060208284031215612f0657600080fd5b5035919050565b60005b83811015612f28578181015183820152602001612f10565b838111156111945750506000910152565b60008151808452612f51816020860160208601612f0d565b601f01601f19169290920160200192915050565b60a081526000612f7860a0830188612f39565b61ffff9690961660208301525064ffffffffff93841660408201529183166060830152909116608090910152919050565b634e487b7160e01b600052604160045260246000fd5b604051601f8201601f191681016001600160401b0381118282101715612fe757612fe7612fa9565b604052919050565b600082601f83011261300057600080fd5b813560206001600160401b0382111561301b5761301b612fa9565b8160051b61302a828201612fbf565b928352848101820192828101908785111561304457600080fd5b83870192505b848310156130635782358252918301919083019061304a565b979650505050505050565b60008060006060848603121561308357600080fd5b8335925060208401356001600160401b038111156130a057600080fd5b6130ac86828701612fef565b925050604084013580151581146130c257600080fd5b809150509250925092565b60006101008083526130e18184018c612f39565b9915156020840152505064ffffffffff968716604082015260ff95909516606086015262ffffff93909316608085015290841660a084015290921660c082015261ffff90911660e090910152919050565b803564ffffffffff8116811461314757600080fd5b919050565b60006020828403121561315e57600080fd5b61316782613132565b9392505050565b6000610140825181855261318482860182612f39565b915050602083015161319f602086018264ffffffffff169052565b50604083015160408501526060830151606085015260808301516131c8608086018260ff169052565b5060a08301516131df60a086018262ffffff169052565b5060c08301516131fa60c08601826001600160501b03169052565b5060e083015161321060e086018261ffff169052565b506101008381015161ffff16908501526101208084015164ffffffffff8116828701526119e9565b6000602080830181845280855180835260408601915060408160051b870101925083870160005b8281101561328d57603f1988860301845261327b85835161316e565b9450928501929085019060010161325f565b5092979650505050505050565b60008083601f8401126132ac57600080fd5b5081356001600160401b038111156132c357600080fd5b6020830191508360208285010111156132db57600080fd5b9250929050565b803562ffffff8116811461314757600080fd5b803561ffff8116811461314757600080fd5b600080600080600080600060c0888a03121561332257600080fd5b87356001600160401b0381111561333857600080fd5b6133448a828b0161329a565b909850965050602088013560ff8116811461335e57600080fd5b945061336c604089016132e2565b935061337a60608901613132565b925061338860808901613132565b915061339660a089016132f5565b905092959891949750929550565b600080604083850312156133b757600080fd5b50508035926020909101359150565b6001600160a01b038116811461268257600080fd5b6000602082840312156133ed57600080fd5b8135613167816133c6565b600082601f83011261340957600080fd5b81356001600160401b0381111561342257613422612fa9565b613435601f8201601f1916602001612fbf565b81815284602083860101111561344a57600080fd5b816020850160208301376000918101602001919091529392505050565b60008060006060848603121561347c57600080fd5b83356001600160401b0381111561349257600080fd5b61349e868287016133f8565b935050602084013591506134b460408501613132565b90509250925092565b6000806000606084860312156134d257600080fd5b505081359360208301359350604090920135919050565b60006101408083526134fd8184018e612f39565b64ffffffffff9c8d166020850152604084019b909b525050606081019790975260ff95909516608087015262ffffff9390931660a08601526001600160501b039190911660c085015261ffff90811660e08501521661010083015290921661012090920191909152919050565b602081526000613167602083018461316e565b6000602080830181845280855180835260408601915060408160051b870101925083870160005b8281101561328d57603f198886030184526135c0858351612f39565b945092850192908501906001016135a4565b600080600080600080600060c0888a0312156135ed57600080fd5b87356001600160401b0381111561360357600080fd5b61360f8a828b0161329a565b909850965061335e9050602089016132f5565b60008060006060848603121561363757600080fd5b833592506020840135915060408401356001600160401b0381111561365b57600080fd5b61366786828701612fef565b9150509250925092565b60006020828403121561368357600080fd5b81356001600160401b0381111561369957600080fd5b6136a5848285016133f8565b949350505050565b6020808252825182820181905260009190848201906040850190845b818110156136e957835161ffff16835292840192918401916001016136c9565b50909695505050505050565b600181811c9082168061370957607f821691505b60208210810361372957634e487b7160e01b600052602260045260246000fd5b50919050565b634e487b7160e01b600052603260045260246000fd5b815160009082906020808601845b8381101561376f57815185529382019390820190600101613753565b50929695505050505050565b84815283151560208201528260408201526080606082015260006137a26080830184612f39565b9695505050505050565b6020808252818101527f4f776e61626c653a2063616c6c6572206973206e6f7420746865206f776e6572604082015260600190565b6020815260006131676020830184612f39565b60008154613801816136f5565b80855260206001838116801561381e576001811461383857613866565b60ff1985168884015283151560051b880183019550613866565b866000528260002060005b8581101561385e5781548a8201860152908301908401613843565b890184019650505b505050505092915050565b60208152600061316760208301846137f4565b601f8211156138ce57600081815260208120601f850160051c810160208610156138ab5750805b601f850160051c820191505b818110156138ca578281556001016138b7565b5050505b505050565b81516001600160401b038111156138ec576138ec612fa9565b613900816138fa84546136f5565b84613884565b602080601f831160018114613935576000841561391d5750858301515b600019600386901b1c1916600185901b1785556138ca565b600085815260208120601f198616915b8281101561396457888601518255948401946001909101908401613945565b50858210156139825787850151600019600388901b60f8161c191681555b5050505050600190811b01905550565b634e487b7160e01b600052601160045260246000fd5b600082198211156139bb576139bb613992565b500190565b600061ffff838116908316818110156139db576139db613992565b039392505050565b6000828210156139f5576139f5613992565b500390565b64ffffffffff85168152836020820152608060408201526000613a206080830185612f39565b905082606083015295945050505050565b600060018201613a4357613a43613992565b5060010190565b600060208284031215613a5c57600080fd5b8151613167816133c6565b6001600160401b03831115613a7e57613a7e612fa9565b613a9283613a8c83546136f5565b83613884565b6000601f841160018114613ac65760008515613aae5750838201355b600019600387901b1c1916600186901b178355611e3d565b600083815260209020601f19861690835b82811015613af75786850135825560209485019460019092019101613ad7565b5086821015613b145760001960f88860031b161c19848701351681555b505060018560011b0183555050505050565b838152826020820152606060408201526000610140806060840152613b4f6101a08401856137f4565b600185015464ffffffffff1664ffffffffff8116608086015250600285015460a0850152600385015460c0850152600485015460ff811660e0860152600881901c62ffffff16610100860152602081901c6001600160501b031661012086015261ffff607082901c811684870152613bd36101608701828460801c1661ffff169052565b50609081901c64ffffffffff16610180860152509695505050505050565b60006001600160501b0380841680613c1957634e487b7160e01b600052601260045260246000fd5b92169190910492915050565b6020808252601490820152732330b4b632b2103a379039b2b7321022ba3432b960611b604082015260600190565b60008251613c65818460208701612f0d565b9190910192915050565b6000808354613c7d816136f5565b60018281168015613c955760018114613caa5761376f565b60ff198416875282151583028701945061376f565b8760005260208060002060005b85811015613cd05781548a820152908401908201613cb7565b505050959091019695505050505050565b600080821280156001600160ff1b0384900385131615613d0357613d03613992565b600160ff1b8390038412811615613d1c57613d1c613992565b50500190565b60e081528760e08201526000610100898b8285013760008a840182015264ffffffffff988916602084015260ff9790971660408301525062ffffff949094166060850152918516608084015290931660a082015261ffff90921660c0830152601f909201601f1916010191905056fea26469706673582212204abaec2742c5a39066361bbb37b11a8ab12ba8a7d2468591721f4fb39d22f8d864736f6c634300080f0033",
  "bytecodeSha1": "f416ac3c8c244f9f313f95633b95a0889785a0ff",
  "compiler": {
    "evm_version": "istanbul",
    "optimizer": {
      "enabled": true,
      "runs": 200
    },
    "version": "0.8.15+commit.e14f2714"
  },
  "contractName": "Governance",
  "language": "Solidity",
  "natspec": {
    "errors": {
      "OutOfBounds()": [
        {
          "details": "An operation (e.g. {at}) couldn't be completed due to an index being out of bounds."
        }
      ]
    },
    "kind": "dev",
    "methods": {
      "constructor": {
        "details": "Constructor for HOADAO",
        "params": {
          "_nft": "-- contract address for NFTs"
        }
      },
      "owner()": {
        "details": "Returns the address of the current owner."
      },
      "renounceOwnership()": {
        "details": "Leaves the contract without owner. It will not be possible to call `onlyOwner` functions anymore. Can only be called by the current owner. NOTE: Renouncing ownership will leave the contract without an owner, thereby removing any functionality that is only available to the owner."
      },
      "transferOwnership(address)": {
        "details": "Transfers ownership of the contract to a new account (`newOwner`). Can only be called by the current owner."
      }
    },
    "version": 1
  },
  "opcodes": "PUSH1 0x80 PUSH1 0x40 MSTORE PUSH1 0x4 CALLDATASIZE LT PUSH2 0x14F JUMPI PUSH1 0x0 CALLDATALOAD PUSH1 0xE0 SHR DUP1 PUSH4 0x8DA5CB5B GT PUSH2 0xB6 JUMPI DUP1 PUSH4 0xE95D2347 GT PUSH2 0x6F JUMPI DUP1 PUSH4 0xE95D2347 EQ PUSH2 0x421 JUMPI DUP1 PUSH4 0xF18C51D3 EQ PUSH2 0x461 JUMPI DUP1 PUSH4 0xF2FDE38B EQ PUSH2 0x481 JUMPI DUP1 PUSH4 0xF4739BD9 EQ PUSH2 0x4A1 JUMPI DUP1 PUSH4 0xF713B7ED EQ PUSH2 0x4D1 JUMPI DUP1 PUSH4 0xFF981099 EQ PUSH2 0x4F1 JUMPI PUSH1 0x0 DUP1 REVERT JUMPDEST DUP1 PUSH4 0x8DA5CB5B EQ PUSH2 0x349 JUMPI DUP1 PUSH4 0x90B293D8 EQ PUSH2 0x371 JUMPI DUP1 PUSH4 0x976217CD EQ PUSH2 0x387 JUMPI DUP1 PUSH4 0xB2BAD544 EQ PUSH2 0x3B4 JUMPI DUP1 PUSH4 0xBECA3A16 EQ PUSH2 0x3E1 JUMPI DUP1 PUSH4 0xD374A217 EQ PUSH2 0x401 JUMPI PUSH1 0x0 DUP1 REVERT JUMPDEST DUP1 PUSH4 0x69D03738 GT PUSH2 0x108 JUMPI DUP1 PUSH4 0x69D03738 EQ PUSH2 0x27E JUMPI DUP1 PUSH4 0x715018A6 EQ PUSH2 0x29E JUMPI DUP1 PUSH4 0x72E185CE EQ PUSH2 0x2B3 JUMPI DUP1 PUSH4 0x826B8EBD EQ PUSH2 0x2D3 JUMPI DUP1 PUSH4 0x8A6655D6 EQ PUSH2 0x2F3 JUMPI DUP1 PUSH4 0x8D977672 EQ PUSH2 0x313 JUMPI PUSH1 0x0 DUP1 REVERT JUMPDEST DUP1 PUSH4 0x13CF08B EQ PUSH2 0x15B JUMPI DUP1 PUSH4 0x9265CE6 EQ PUSH2 0x195 JUMPI DUP1 PUSH4 0x10190EF1 EQ PUSH2 0x1B7 JUMPI DUP1 PUSH4 0x4B50F16A EQ PUSH2 0x1EB JUMPI DUP1 PUSH4 0x61F9E9A8 EQ PUSH2 0x218 JUMPI DUP1 PUSH4 0x6215597B EQ PUSH2 0x238 JUMPI PUSH1 0x0 DUP1 REVERT JUMPDEST CALLDATASIZE PUSH2 0x156 JUMPI STOP JUMPDEST PUSH1 0x0 DUP1 REVERT JUMPDEST CALLVALUE DUP1 ISZERO PUSH2 0x167 JUMPI PUSH1 0x0 DUP1 REVERT JUMPDEST POP PUSH2 0x17B PUSH2 0x176 CALLDATASIZE PUSH1 0x4 PUSH2 0x2EF4 JUMP JUMPDEST PUSH2 0x51E JUMP JUMPDEST PUSH1 0x40 MLOAD PUSH2 0x18C SWAP6 SWAP5 SWAP4 SWAP3 SWAP2 SWAP1 PUSH2 0x2F65 JUMP JUMPDEST PUSH1 0x40 MLOAD DUP1 SWAP2 SUB SWAP1 RETURN JUMPDEST CALLVALUE DUP1 ISZERO PUSH2 0x1A1 JUMPI PUSH1 0x0 DUP1 REVERT JUMPDEST POP PUSH2 0x1B5 PUSH2 0x1B0 CALLDATASIZE PUSH1 0x4 PUSH2 0x306E JUMP JUMPDEST PUSH2 0x5EA JUMP JUMPDEST STOP JUMPDEST CALLVALUE DUP1 ISZERO PUSH2 0x1C3 JUMPI PUSH1 0x0 DUP1 REVERT JUMPDEST POP PUSH2 0x1D7 PUSH2 0x1D2 CALLDATASIZE PUSH1 0x4 PUSH2 0x2EF4 JUMP JUMPDEST PUSH2 0x730 JUMP JUMPDEST PUSH1 0x40 MLOAD PUSH2 0x18C SWAP9 SWAP8 SWAP7 SWAP6 SWAP5 SWAP4 SWAP3 SWAP2 SWAP1 PUSH2 0x30CD JUMP JUMPDEST CALLVALUE DUP1 ISZERO PUSH2 0x1F7 JUMPI PUSH1 0x0 DUP1 REVERT JUMPDEST POP PUSH2 0x20B PUSH2 0x206 CALLDATASIZE PUSH1 0x4 PUSH2 0x314C JUMP JUMPDEST PUSH2 0x83A JUMP JUMPDEST PUSH1 0x40 MLOAD PUSH2 0x18C SWAP2 SWAP1 PUSH2 0x3238 JUMP JUMPDEST CALLVALUE DUP1 ISZERO PUSH2 0x224 JUMPI PUSH1 0x0 DUP1 REVERT JUMPDEST POP PUSH2 0x1B5 PUSH2 0x233 CALLDATASIZE PUSH1 0x4 PUSH2 0x3307 JUMP JUMPDEST PUSH2 0xC6C JUMP JUMPDEST CALLVALUE DUP1 ISZERO PUSH2 0x244 JUMPI PUSH1 0x0 DUP1 REVERT JUMPDEST POP PUSH2 0x270 PUSH2 0x253 CALLDATASIZE PUSH1 0x4 PUSH2 0x33A4 JUMP JUMPDEST PUSH1 0x3 PUSH1 0x20 SWAP1 DUP2 MSTORE PUSH1 0x0 SWAP3 DUP4 MSTORE PUSH1 0x40 DUP1 DUP5 KECCAK256 SWAP1 SWAP2 MSTORE SWAP1 DUP3 MSTORE SWAP1 KECCAK256 SLOAD DUP2 JUMP JUMPDEST PUSH1 0x40 MLOAD SWAP1 DUP2 MSTORE PUSH1 0x20 ADD PUSH2 0x18C JUMP JUMPDEST CALLVALUE DUP1 ISZERO PUSH2 0x28A JUMPI PUSH1 0x0 DUP1 REVERT JUMPDEST POP PUSH2 0x1B5 PUSH2 0x299 CALLDATASIZE PUSH1 0x4 PUSH2 0x33DB JUMP JUMPDEST PUSH2 0xC94 JUMP JUMPDEST CALLVALUE DUP1 ISZERO PUSH2 0x2AA JUMPI PUSH1 0x0 DUP1 REVERT JUMPDEST POP PUSH2 0x1B5 PUSH2 0xCE0 JUMP JUMPDEST CALLVALUE DUP1 ISZERO PUSH2 0x2BF JUMPI PUSH1 0x0 DUP1 REVERT JUMPDEST POP PUSH2 0x1B5 PUSH2 0x2CE CALLDATASIZE PUSH1 0x4 PUSH2 0x3467 JUMP JUMPDEST PUSH2 0xD16 JUMP JUMPDEST CALLVALUE DUP1 ISZERO PUSH2 0x2DF JUMPI PUSH1 0x0 DUP1 REVERT JUMPDEST POP PUSH2 0x270 PUSH2 0x2EE CALLDATASIZE PUSH1 0x4 PUSH2 0x2EF4 JUMP JUMPDEST PUSH2 0x119A JUMP JUMPDEST CALLVALUE DUP1 ISZERO PUSH2 0x2FF JUMPI PUSH1 0x0 DUP1 REVERT JUMPDEST POP PUSH2 0x1B5 PUSH2 0x30E CALLDATASIZE PUSH1 0x4 PUSH2 0x34BD JUMP JUMPDEST PUSH2 0x13B0 JUMP JUMPDEST CALLVALUE DUP1 ISZERO PUSH2 0x31F JUMPI PUSH1 0x0 DUP1 REVERT JUMPDEST POP PUSH2 0x333 PUSH2 0x32E CALLDATASIZE PUSH1 0x4 PUSH2 0x2EF4 JUMP JUMPDEST PUSH2 0x13E9 JUMP JUMPDEST PUSH1 0x40 MLOAD PUSH2 0x18C SWAP11 SWAP10 SWAP9 SWAP8 SWAP7 SWAP6 SWAP5 SWAP4 SWAP3 SWAP2 SWAP1 PUSH2 0x34E9 JUMP JUMPDEST CALLVALUE DUP1 ISZERO PUSH2 0x355 JUMPI PUSH1 0x0 DUP1 REVERT JUMPDEST POP PUSH1 0x1 SLOAD PUSH1 0x40 MLOAD PUSH1 0x1 PUSH1 0x1 PUSH1 0xA0 SHL SUB SWAP1 SWAP2 AND DUP2 MSTORE PUSH1 0x20 ADD PUSH2 0x18C JUMP JUMPDEST CALLVALUE DUP1 ISZERO PUSH2 0x37D JUMPI PUSH1 0x0 DUP1 REVERT JUMPDEST POP PUSH2 0x270 PUSH1 0xA SLOAD DUP2 JUMP JUMPDEST CALLVALUE DUP1 ISZERO PUSH2 0x393 JUMPI PUSH1 0x0 DUP1 REVERT JUMPDEST POP PUSH2 0x3A7 PUSH2 0x3A2 CALLDATASIZE PUSH1 0x4 PUSH2 0x2EF4 JUMP JUMPDEST PUSH2 0x14EB JUMP JUMPDEST PUSH1 0x40 MLOAD PUSH2 0x18C SWAP2 SWAP1 PUSH2 0x356A JUMP JUMPDEST CALLVALUE DUP1 ISZERO PUSH2 0x3C0 JUMPI PUSH1 0x0 DUP1 REVERT JUMPDEST POP PUSH2 0x3D4 PUSH2 0x3CF CALLDATASIZE PUSH1 0x4 PUSH2 0x314C JUMP JUMPDEST PUSH2 0x162D JUMP JUMPDEST PUSH1 0x40 MLOAD PUSH2 0x18C SWAP2 SWAP1 PUSH2 0x357D JUMP JUMPDEST CALLVALUE DUP1 ISZERO PUSH2 0x3ED JUMPI PUSH1 0x0 DUP1 REVERT JUMPDEST POP PUSH2 0x1B5 PUSH2 0x3FC CALLDATASIZE PUSH1 0x4 PUSH2 0x35D2 JUMP JUMPDEST PUSH2 0x19F3 JUMP JUMPDEST CALLVALUE DUP1 ISZERO PUSH2 0x40D JUMPI PUSH1 0x0 DUP1 REVERT JUMPDEST POP PUSH2 0x1B5 PUSH2 0x41C CALLDATASIZE PUSH1 0x4 PUSH2 0x2EF4 JUMP JUMPDEST PUSH2 0x1B08 JUMP JUMPDEST CALLVALUE DUP1 ISZERO PUSH2 0x42D JUMPI PUSH1 0x0 DUP1 REVERT JUMPDEST POP PUSH1 0x5 SLOAD PUSH2 0x447 SWAP1 PUSH1 0xF DUP2 DUP2 SIGNEXTEND SWAP2 PUSH1 0x1 PUSH1 0x80 SHL SWAP1 DIV SWAP1 SIGNEXTEND DUP3 JUMP JUMPDEST PUSH1 0x40 DUP1 MLOAD PUSH1 0xF SWAP4 DUP5 SIGNEXTEND DUP2 MSTORE SWAP2 SWAP1 SWAP3 SIGNEXTEND PUSH1 0x20 DUP3 ADD MSTORE ADD PUSH2 0x18C JUMP JUMPDEST CALLVALUE DUP1 ISZERO PUSH2 0x46D JUMPI PUSH1 0x0 DUP1 REVERT JUMPDEST POP PUSH2 0x1B5 PUSH2 0x47C CALLDATASIZE PUSH1 0x4 PUSH2 0x3622 JUMP JUMPDEST PUSH2 0x1E44 JUMP JUMPDEST CALLVALUE DUP1 ISZERO PUSH2 0x48D JUMPI PUSH1 0x0 DUP1 REVERT JUMPDEST POP PUSH2 0x1B5 PUSH2 0x49C CALLDATASIZE PUSH1 0x4 PUSH2 0x33DB JUMP JUMPDEST PUSH2 0x25EA JUMP JUMPDEST CALLVALUE DUP1 ISZERO PUSH2 0x4AD JUMPI PUSH1 0x0 DUP1 REVERT JUMPDEST POP PUSH2 0x4C1 PUSH2 0x4BC CALLDATASIZE PUSH1 0x4 PUSH2 0x2EF4 JUMP JUMPDEST PUSH2 0x2685 JUMP JUMPDEST PUSH1 0x40 MLOAD SWAP1 ISZERO ISZERO DUP2 MSTORE PUSH1 0x20 ADD PUSH2 0x18C JUMP JUMPDEST CALLVALUE DUP1 ISZERO PUSH2 0x4DD JUMPI PUSH1 0x0 DUP1 REVERT JUMPDEST POP PUSH2 0x1B5 PUSH2 0x4EC CALLDATASIZE PUSH1 0x4 PUSH2 0x3671 JUMP JUMPDEST PUSH2 0x2855 JUMP JUMPDEST CALLVALUE DUP1 ISZERO PUSH2 0x4FD JUMPI PUSH1 0x0 DUP1 REVERT JUMPDEST POP PUSH2 0x511 PUSH2 0x50C CALLDATASIZE PUSH1 0x4 PUSH2 0x2EF4 JUMP JUMPDEST PUSH2 0x29F2 JUMP JUMPDEST PUSH1 0x40 MLOAD PUSH2 0x18C SWAP2 SWAP1 PUSH2 0x36AD JUMP JUMPDEST PUSH1 0x7 PUSH1 0x20 MSTORE PUSH1 0x0 SWAP1 DUP2 MSTORE PUSH1 0x40 SWAP1 KECCAK256 DUP1 SLOAD DUP2 SWAP1 PUSH2 0x539 SWAP1 PUSH2 0x36F5 JUMP JUMPDEST DUP1 PUSH1 0x1F ADD PUSH1 0x20 DUP1 SWAP2 DIV MUL PUSH1 0x20 ADD PUSH1 0x40 MLOAD SWAP1 DUP2 ADD PUSH1 0x40 MSTORE DUP1 SWAP3 SWAP2 SWAP1 DUP2 DUP2 MSTORE PUSH1 0x20 ADD DUP3 DUP1 SLOAD PUSH2 0x565 SWAP1 PUSH2 0x36F5 JUMP JUMPDEST DUP1 ISZERO PUSH2 0x5B2 JUMPI DUP1 PUSH1 0x1F LT PUSH2 0x587 JUMPI PUSH2 0x100 DUP1 DUP4 SLOAD DIV MUL DUP4 MSTORE SWAP2 PUSH1 0x20 ADD SWAP2 PUSH2 0x5B2 JUMP JUMPDEST DUP3 ADD SWAP2 SWAP1 PUSH1 0x0 MSTORE PUSH1 0x20 PUSH1 0x0 KECCAK256 SWAP1 JUMPDEST DUP2 SLOAD DUP2 MSTORE SWAP1 PUSH1 0x1 ADD SWAP1 PUSH1 0x20 ADD DUP1 DUP4 GT PUSH2 0x595 JUMPI DUP3 SWAP1 SUB PUSH1 0x1F AND DUP3 ADD SWAP2 JUMPDEST POP POP POP POP PUSH1 0x1 DUP4 ADD SLOAD PUSH1 0x3 SWAP1 SWAP4 ADD SLOAD SWAP2 SWAP3 PUSH2 0xFFFF AND SWAP2 PUSH5 0xFFFFFFFFFF DUP1 DUP3 AND SWAP3 POP PUSH6 0x10000000000 DUP3 DIV DUP2 AND SWAP2 PUSH1 0x1 PUSH1 0x50 SHL SWAP1 DIV AND DUP6 JUMP JUMPDEST PUSH1 0x0 DUP3 PUSH1 0x0 DUP2 MLOAD DUP2 LT PUSH2 0x5FF JUMPI PUSH2 0x5FF PUSH2 0x372F JUMP JUMPDEST PUSH1 0x20 MUL PUSH1 0x20 ADD ADD MLOAD PUSH1 0x40 MLOAD PUSH1 0x20 ADD PUSH2 0x619 SWAP2 DUP2 MSTORE PUSH1 0x20 ADD SWAP1 JUMP JUMPDEST PUSH1 0x40 MLOAD PUSH1 0x20 DUP2 DUP4 SUB SUB DUP2 MSTORE SWAP1 PUSH1 0x40 MSTORE SWAP1 POP DUP2 ISZERO PUSH2 0x6A5 JUMPI PUSH1 0x0 JUMPDEST DUP4 MLOAD DUP2 LT ISZERO PUSH2 0x6A3 JUMPI DUP4 DUP2 DUP2 MLOAD DUP2 LT PUSH2 0x64E JUMPI PUSH2 0x64E PUSH2 0x372F JUMP JUMPDEST PUSH1 0x20 MUL PUSH1 0x20 ADD ADD MLOAD PUSH1 0x40 MLOAD PUSH1 0x20 ADD PUSH2 0x668 SWAP2 DUP2 MSTORE PUSH1 0x20 ADD SWAP1 JUMP JUMPDEST PUSH1 0x40 MLOAD PUSH1 0x20 DUP2 DUP4 SUB SUB DUP2 MSTORE SWAP1 PUSH1 0x40 MSTORE DUP1 MLOAD SWAP1 PUSH1 0x20 ADD KECCAK256 DUP5 DUP3 DUP2 MLOAD DUP2 LT PUSH2 0x690 JUMPI PUSH2 0x690 PUSH2 0x372F JUMP JUMPDEST PUSH1 0x20 SWAP1 DUP2 MUL SWAP2 SWAP1 SWAP2 ADD ADD MSTORE PUSH1 0x1 ADD PUSH2 0x633 JUMP JUMPDEST POP JUMPDEST PUSH1 0x0 DUP4 PUSH1 0x40 MLOAD PUSH1 0x20 ADD PUSH2 0x6B8 SWAP2 SWAP1 PUSH2 0x3745 JUMP JUMPDEST PUSH1 0x40 MLOAD PUSH1 0x20 DUP2 DUP4 SUB SUB DUP2 MSTORE SWAP1 PUSH1 0x40 MSTORE DUP1 MLOAD SWAP1 PUSH1 0x20 ADD KECCAK256 SWAP1 POP PUSH32 0x637CE8D069E382E64EF71CF191623B88C7E307CE252E908E7F2BABBAD0CB81EA DUP2 DUP7 DUP4 EQ DUP7 PUSH1 0x0 DUP2 MLOAD DUP2 LT PUSH2 0x708 JUMPI PUSH2 0x708 PUSH2 0x372F JUMP JUMPDEST PUSH1 0x20 MUL PUSH1 0x20 ADD ADD MLOAD DUP6 PUSH1 0x40 MLOAD PUSH2 0x721 SWAP5 SWAP4 SWAP3 SWAP2 SWAP1 PUSH2 0x377B JUMP JUMPDEST PUSH1 0x40 MLOAD DUP1 SWAP2 SUB SWAP1 LOG1 POP POP POP POP POP JUMP JUMPDEST PUSH1 0x4 DUP2 DUP2 SLOAD DUP2 LT PUSH2 0x740 JUMPI PUSH1 0x0 DUP1 REVERT JUMPDEST SWAP1 PUSH1 0x0 MSTORE PUSH1 0x20 PUSH1 0x0 KECCAK256 SWAP1 PUSH1 0x3 MUL ADD PUSH1 0x0 SWAP2 POP SWAP1 POP DUP1 PUSH1 0x1 ADD DUP1 SLOAD PUSH2 0x763 SWAP1 PUSH2 0x36F5 JUMP JUMPDEST DUP1 PUSH1 0x1F ADD PUSH1 0x20 DUP1 SWAP2 DIV MUL PUSH1 0x20 ADD PUSH1 0x40 MLOAD SWAP1 DUP2 ADD PUSH1 0x40 MSTORE DUP1 SWAP3 SWAP2 SWAP1 DUP2 DUP2 MSTORE PUSH1 0x20 ADD DUP3 DUP1 SLOAD PUSH2 0x78F SWAP1 PUSH2 0x36F5 JUMP JUMPDEST DUP1 ISZERO PUSH2 0x7DC JUMPI DUP1 PUSH1 0x1F LT PUSH2 0x7B1 JUMPI PUSH2 0x100 DUP1 DUP4 SLOAD DIV MUL DUP4 MSTORE SWAP2 PUSH1 0x20 ADD SWAP2 PUSH2 0x7DC JUMP JUMPDEST DUP3 ADD SWAP2 SWAP1 PUSH1 0x0 MSTORE PUSH1 0x20 PUSH1 0x0 KECCAK256 SWAP1 JUMPDEST DUP2 SLOAD DUP2 MSTORE SWAP1 PUSH1 0x1 ADD SWAP1 PUSH1 0x20 ADD DUP1 DUP4 GT PUSH2 0x7BF JUMPI DUP3 SWAP1 SUB PUSH1 0x1F AND DUP3 ADD SWAP2 JUMPDEST POP POP POP PUSH1 0x2 SWAP1 SWAP4 ADD SLOAD SWAP2 SWAP3 POP POP PUSH1 0xFF DUP1 DUP3 AND SWAP2 PUSH5 0xFFFFFFFFFF PUSH2 0x100 DUP3 DIV DUP2 AND SWAP3 PUSH7 0x1000000000000 DUP4 DIV AND SWAP2 PUSH3 0xFFFFFF PUSH1 0x1 PUSH1 0x38 SHL DUP3 DIV AND SWAP2 PUSH1 0x1 PUSH1 0x50 SHL DUP3 DIV DUP2 AND SWAP2 PUSH1 0x1 PUSH1 0x78 SHL DUP2 DIV SWAP1 SWAP2 AND SWAP1 PUSH2 0xFFFF PUSH1 0x1 PUSH1 0xA0 SHL SWAP1 SWAP2 DIV AND DUP9 JUMP JUMPDEST PUSH1 0x60 PUSH1 0x0 PUSH2 0x857 PUSH1 0x5 SLOAD PUSH1 0xF DUP2 DUP2 SIGNEXTEND PUSH1 0x1 PUSH1 0x80 SHL SWAP1 SWAP3 DIV SWAP1 SIGNEXTEND SUB SWAP1 JUMP JUMPDEST SWAP1 POP PUSH2 0x861 PUSH2 0x2E56 JUMP JUMPDEST PUSH1 0x0 DUP1 DUP1 JUMPDEST DUP5 DUP2 LT ISZERO PUSH2 0x9E9 JUMPI PUSH2 0x879 PUSH1 0x5 DUP3 PUSH2 0x2B17 JUMP JUMPDEST PUSH1 0x0 DUP2 DUP2 MSTORE PUSH1 0x9 PUSH1 0x20 MSTORE PUSH1 0x40 SWAP1 DUP2 SWAP1 KECCAK256 DUP2 MLOAD PUSH2 0x140 DUP2 ADD SWAP1 SWAP3 MSTORE DUP1 SLOAD SWAP3 SWAP6 POP SWAP1 SWAP2 DUP3 SWAP1 DUP3 SWAP1 PUSH2 0x8A7 SWAP1 PUSH2 0x36F5 JUMP JUMPDEST DUP1 PUSH1 0x1F ADD PUSH1 0x20 DUP1 SWAP2 DIV MUL PUSH1 0x20 ADD PUSH1 0x40 MLOAD SWAP1 DUP2 ADD PUSH1 0x40 MSTORE DUP1 SWAP3 SWAP2 SWAP1 DUP2 DUP2 MSTORE PUSH1 0x20 ADD DUP3 DUP1 SLOAD PUSH2 0x8D3 SWAP1 PUSH2 0x36F5 JUMP JUMPDEST DUP1 ISZERO PUSH2 0x920 JUMPI DUP1 PUSH1 0x1F LT PUSH2 0x8F5 JUMPI PUSH2 0x100 DUP1 DUP4 SLOAD DIV MUL DUP4 MSTORE SWAP2 PUSH1 0x20 ADD SWAP2 PUSH2 0x920 JUMP JUMPDEST DUP3 ADD SWAP2 SWAP1 PUSH1 0x0 MSTORE PUSH1 0x20 PUSH1 0x0 KECCAK256 SWAP1 JUMPDEST DUP2 SLOAD DUP2 MSTORE SWAP1 PUSH1 0x1 ADD SWAP1 PUSH1 0x20 ADD DUP1 DUP4 GT PUSH2 0x903 JUMPI DUP3 SWAP1 SUB PUSH1 0x1F AND DUP3 ADD SWAP2 JUMPDEST POP POP POP SWAP2 DUP4 MSTORE POP POP PUSH1 0x1 DUP3 ADD SLOAD PUSH5 0xFFFFFFFFFF SWAP1 DUP2 AND PUSH1 0x20 DUP4 ADD MSTORE PUSH1 0x2 DUP4 ADD SLOAD PUSH1 0x40 DUP4 ADD MSTORE PUSH1 0x3 DUP4 ADD SLOAD PUSH1 0x60 DUP4 ADD MSTORE PUSH1 0x4 SWAP1 SWAP3 ADD SLOAD PUSH1 0xFF DUP2 AND PUSH1 0x80 DUP4 ADD MSTORE PUSH2 0x100 DUP1 DUP3 DIV PUSH3 0xFFFFFF AND PUSH1 0xA0 DUP5 ADD MSTORE PUSH1 0x1 PUSH1 0x20 SHL DUP3 DIV PUSH1 0x1 PUSH1 0x1 PUSH1 0x50 SHL SUB AND PUSH1 0xC0 DUP5 ADD MSTORE PUSH1 0x1 PUSH1 0x70 SHL DUP3 DIV PUSH2 0xFFFF SWAP1 DUP2 AND PUSH1 0xE0 DUP6 ADD MSTORE PUSH1 0x1 PUSH1 0x80 SHL DUP4 DIV AND SWAP1 DUP4 ADD MSTORE PUSH1 0x1 PUSH1 0x90 SHL SWAP1 DIV DUP3 AND PUSH2 0x120 SWAP2 DUP3 ADD MSTORE DUP3 ADD MLOAD SWAP2 SWAP6 POP TIMESTAMP SWAP2 AND GT DUP1 ISZERO PUSH2 0x9D5 JUMPI POP DUP7 PUSH5 0xFFFFFFFFFF AND DUP5 PUSH1 0xE0 ADD MLOAD PUSH2 0xFFFF AND EQ JUMPDEST ISZERO PUSH2 0x9E1 JUMPI DUP2 PUSH1 0x1 ADD SWAP2 POP JUMPDEST PUSH1 0x1 ADD PUSH2 0x866 JUMP JUMPDEST POP DUP1 PUSH1 0x0 SUB PUSH2 0xA5E JUMPI PUSH1 0x40 DUP1 MLOAD PUSH1 0x1 DUP1 DUP3 MSTORE DUP2 DUP4 ADD SWAP1 SWAP3 MSTORE PUSH1 0x0 SWAP2 DUP2 PUSH1 0x20 ADD JUMPDEST PUSH2 0xA11 PUSH2 0x2E56 JUMP JUMPDEST DUP2 MSTORE PUSH1 0x20 ADD SWAP1 PUSH1 0x1 SWAP1 SUB SWAP1 DUP2 PUSH2 0xA09 JUMPI SWAP1 POP POP SWAP1 POP PUSH2 0x3E7 DUP2 PUSH1 0x0 DUP2 MLOAD DUP2 LT PUSH2 0xA3C JUMPI PUSH2 0xA3C PUSH2 0x372F JUMP JUMPDEST PUSH1 0x20 SWAP1 DUP2 MUL SWAP2 SWAP1 SWAP2 ADD DUP2 ADD MLOAD PUSH5 0xFFFFFFFFFF SWAP1 SWAP3 AND SWAP2 ADD MSTORE SWAP7 SWAP6 POP POP POP POP POP POP JUMP JUMPDEST PUSH1 0x0 DUP1 DUP3 PUSH1 0x1 PUSH1 0x1 PUSH1 0x40 SHL SUB DUP2 GT ISZERO PUSH2 0xA79 JUMPI PUSH2 0xA79 PUSH2 0x2FA9 JUMP JUMPDEST PUSH1 0x40 MLOAD SWAP1 DUP1 DUP3 MSTORE DUP1 PUSH1 0x20 MUL PUSH1 0x20 ADD DUP3 ADD PUSH1 0x40 MSTORE DUP1 ISZERO PUSH2 0xAB2 JUMPI DUP2 PUSH1 0x20 ADD JUMPDEST PUSH2 0xA9F PUSH2 0x2E56 JUMP JUMPDEST DUP2 MSTORE PUSH1 0x20 ADD SWAP1 PUSH1 0x1 SWAP1 SUB SWAP1 DUP2 PUSH2 0xA97 JUMPI SWAP1 POP JUMPDEST POP SWAP1 POP PUSH1 0x0 JUMPDEST DUP7 DUP2 LT ISZERO PUSH2 0xC60 JUMPI PUSH2 0xACB PUSH1 0x5 DUP3 PUSH2 0x2B17 JUMP JUMPDEST PUSH1 0x0 DUP2 DUP2 MSTORE PUSH1 0x9 PUSH1 0x20 MSTORE PUSH1 0x40 SWAP1 DUP2 SWAP1 KECCAK256 DUP2 MLOAD PUSH2 0x140 DUP2 ADD SWAP1 SWAP3 MSTORE DUP1 SLOAD SWAP3 SWAP8 POP SWAP1 SWAP2 DUP3 SWAP1 DUP3 SWAP1 PUSH2 0xAF9 SWAP1 PUSH2 0x36F5 JUMP JUMPDEST DUP1 PUSH1 0x1F ADD PUSH1 0x20 DUP1 SWAP2 DIV MUL PUSH1 0x20 ADD PUSH1 0x40 MLOAD SWAP1 DUP2 ADD PUSH1 0x40 MSTORE DUP1 SWAP3 SWAP2 SWAP1 DUP2 DUP2 MSTORE PUSH1 0x20 ADD DUP3 DUP1 SLOAD PUSH2 0xB25 SWAP1 PUSH2 0x36F5 JUMP JUMPDEST DUP1 ISZERO PUSH2 0xB72 JUMPI DUP1 PUSH1 0x1F LT PUSH2 0xB47 JUMPI PUSH2 0x100 DUP1 DUP4 SLOAD DIV MUL DUP4 MSTORE SWAP2 PUSH1 0x20 ADD SWAP2 PUSH2 0xB72 JUMP JUMPDEST DUP3 ADD SWAP2 SWAP1 PUSH1 0x0 MSTORE PUSH1 0x20 PUSH1 0x0 KECCAK256 SWAP1 JUMPDEST DUP2 SLOAD DUP2 MSTORE SWAP1 PUSH1 0x1 ADD SWAP1 PUSH1 0x20 ADD DUP1 DUP4 GT PUSH2 0xB55 JUMPI DUP3 SWAP1 SUB PUSH1 0x1F AND DUP3 ADD SWAP2 JUMPDEST POP POP POP SWAP2 DUP4 MSTORE POP POP PUSH1 0x1 DUP3 ADD SLOAD PUSH5 0xFFFFFFFFFF SWAP1 DUP2 AND PUSH1 0x20 DUP4 ADD MSTORE PUSH1 0x2 DUP4 ADD SLOAD PUSH1 0x40 DUP4 ADD MSTORE PUSH1 0x3 DUP4 ADD SLOAD PUSH1 0x60 DUP4 ADD MSTORE PUSH1 0x4 SWAP1 SWAP3 ADD SLOAD PUSH1 0xFF DUP2 AND PUSH1 0x80 DUP4 ADD MSTORE PUSH2 0x100 DUP1 DUP3 DIV PUSH3 0xFFFFFF AND PUSH1 0xA0 DUP5 ADD MSTORE PUSH1 0x1 PUSH1 0x20 SHL DUP3 DIV PUSH1 0x1 PUSH1 0x1 PUSH1 0x50 SHL SUB AND PUSH1 0xC0 DUP5 ADD MSTORE PUSH1 0x1 PUSH1 0x70 SHL DUP3 DIV PUSH2 0xFFFF SWAP1 DUP2 AND PUSH1 0xE0 DUP6 ADD MSTORE PUSH1 0x1 PUSH1 0x80 SHL DUP4 DIV AND SWAP1 DUP4 ADD MSTORE PUSH1 0x1 PUSH1 0x90 SHL SWAP1 DIV DUP3 AND PUSH2 0x120 SWAP2 DUP3 ADD MSTORE DUP3 ADD MLOAD SWAP2 SWAP8 POP TIMESTAMP SWAP2 AND GT DUP1 ISZERO PUSH2 0xC27 JUMPI POP DUP9 PUSH5 0xFFFFFFFFFF AND DUP7 PUSH1 0xE0 ADD MLOAD PUSH2 0xFFFF AND EQ JUMPDEST ISZERO PUSH2 0xC58 JUMPI DUP6 DUP3 DUP5 DUP2 MLOAD DUP2 LT PUSH2 0xC3F JUMPI PUSH2 0xC3F PUSH2 0x372F JUMP JUMPDEST PUSH1 0x20 MUL PUSH1 0x20 ADD ADD DUP2 SWAP1 MSTORE POP DUP3 PUSH1 0x1 ADD SWAP3 POP DUP4 DUP4 GT PUSH2 0xC60 JUMPI JUMPDEST PUSH1 0x1 ADD PUSH2 0xAB8 JUMP JUMPDEST POP SWAP8 SWAP7 POP POP POP POP POP POP POP JUMP JUMPDEST PUSH2 0xC7A JUMP JUMPDEST PUSH1 0x40 MLOAD DUP1 SWAP2 SUB SWAP1 REVERT JUMPDEST PUSH2 0xC8B DUP8 DUP8 PUSH1 0x0 DUP9 DUP9 DUP9 DUP9 DUP9 PUSH2 0x2B88 JUMP JUMPDEST POP POP POP POP POP POP POP JUMP JUMPDEST PUSH1 0x1 SLOAD PUSH1 0x1 PUSH1 0x1 PUSH1 0xA0 SHL SUB AND CALLER EQ PUSH2 0xCBE JUMPI PUSH1 0x40 MLOAD PUSH3 0x461BCD PUSH1 0xE5 SHL DUP2 MSTORE PUSH1 0x4 ADD PUSH2 0xC71 SWAP1 PUSH2 0x37AC JUMP JUMPDEST PUSH1 0x2 DUP1 SLOAD PUSH1 0x1 PUSH1 0x1 PUSH1 0xA0 SHL SUB NOT AND PUSH1 0x1 PUSH1 0x1 PUSH1 0xA0 SHL SUB SWAP3 SWAP1 SWAP3 AND SWAP2 SWAP1 SWAP2 OR SWAP1 SSTORE JUMP JUMPDEST PUSH1 0x1 SLOAD PUSH1 0x1 PUSH1 0x1 PUSH1 0xA0 SHL SUB AND CALLER EQ PUSH2 0xD0A JUMPI PUSH1 0x40 MLOAD PUSH3 0x461BCD PUSH1 0xE5 SHL DUP2 MSTORE PUSH1 0x4 ADD PUSH2 0xC71 SWAP1 PUSH2 0x37AC JUMP JUMPDEST PUSH2 0xD14 PUSH1 0x0 PUSH2 0x2D07 JUMP JUMPDEST JUMP JUMPDEST PUSH1 0x0 JUMPDEST PUSH1 0x4 SLOAD DUP2 LT ISZERO PUSH2 0x1194 JUMPI DUP4 PUSH1 0x40 MLOAD PUSH1 0x20 ADD PUSH2 0xD34 SWAP2 SWAP1 PUSH2 0x37E1 JUMP JUMPDEST PUSH1 0x40 MLOAD PUSH1 0x20 DUP2 DUP4 SUB SUB DUP2 MSTORE SWAP1 PUSH1 0x40 MSTORE DUP1 MLOAD SWAP1 PUSH1 0x20 ADD KECCAK256 PUSH1 0x4 DUP3 DUP2 SLOAD DUP2 LT PUSH2 0xD5D JUMPI PUSH2 0xD5D PUSH2 0x372F JUMP JUMPDEST SWAP1 PUSH1 0x0 MSTORE PUSH1 0x20 PUSH1 0x0 KECCAK256 SWAP1 PUSH1 0x3 MUL ADD PUSH1 0x1 ADD PUSH1 0x40 MLOAD PUSH1 0x20 ADD PUSH2 0xD7E SWAP2 SWAP1 PUSH2 0x3871 JUMP JUMPDEST PUSH1 0x40 MLOAD PUSH1 0x20 DUP2 DUP4 SUB SUB DUP2 MSTORE SWAP1 PUSH1 0x40 MSTORE DUP1 MLOAD SWAP1 PUSH1 0x20 ADD KECCAK256 SUB PUSH2 0x118C JUMPI TIMESTAMP PUSH1 0x4 DUP3 DUP2 SLOAD DUP2 LT PUSH2 0xDAD JUMPI PUSH2 0xDAD PUSH2 0x372F JUMP JUMPDEST PUSH1 0x0 SWAP2 DUP3 MSTORE PUSH1 0x20 SWAP1 SWAP2 KECCAK256 PUSH1 0x3 SWAP1 SWAP2 MUL ADD PUSH1 0x2 ADD SLOAD PUSH1 0x1 PUSH1 0x50 SHL SWAP1 DIV PUSH5 0xFFFFFFFFFF AND GT DUP1 ISZERO SWAP1 PUSH2 0xE11 JUMPI POP PUSH1 0x4 DUP2 DUP2 SLOAD DUP2 LT PUSH2 0xDEB JUMPI PUSH2 0xDEB PUSH2 0x372F JUMP JUMPDEST PUSH1 0x0 SWAP2 DUP3 MSTORE PUSH1 0x20 SWAP1 SWAP2 KECCAK256 PUSH1 0x3 SWAP1 SWAP2 MUL ADD PUSH1 0x2 ADD SLOAD PUSH1 0x1 PUSH1 0x78 SHL SWAP1 DIV PUSH5 0xFFFFFFFFFF AND TIMESTAMP GT ISZERO JUMPDEST PUSH2 0xE53 JUMPI PUSH1 0x40 MLOAD PUSH3 0x461BCD PUSH1 0xE5 SHL DUP2 MSTORE PUSH1 0x20 PUSH1 0x4 DUP3 ADD MSTORE PUSH1 0x13 PUSH1 0x24 DUP3 ADD MSTORE PUSH19 0x13DD5D1CDA5919481D1A5B59481C195C9A5BD9 PUSH1 0x6A SHL PUSH1 0x44 DUP3 ADD MSTORE PUSH1 0x64 ADD PUSH2 0xC71 JUMP JUMPDEST PUSH1 0x0 PUSH1 0x40 MLOAD DUP1 PUSH2 0x140 ADD PUSH1 0x40 MSTORE DUP1 DUP7 DUP2 MSTORE PUSH1 0x20 ADD DUP5 PUSH5 0xFFFFFFFFFF AND DUP2 MSTORE PUSH1 0x20 ADD DUP6 DUP2 MSTORE PUSH1 0x20 ADD PUSH1 0x0 DUP1 SHL DUP2 MSTORE PUSH1 0x20 ADD PUSH1 0x4 DUP5 DUP2 SLOAD DUP2 LT PUSH2 0xE96 JUMPI PUSH2 0xE96 PUSH2 0x372F JUMP JUMPDEST SWAP1 PUSH1 0x0 MSTORE PUSH1 0x20 PUSH1 0x0 KECCAK256 SWAP1 PUSH1 0x3 MUL ADD PUSH1 0x2 ADD PUSH1 0x6 SWAP1 SLOAD SWAP1 PUSH2 0x100 EXP SWAP1 DIV PUSH1 0xFF AND PUSH1 0xFF AND DUP2 MSTORE PUSH1 0x20 ADD PUSH1 0x4 DUP5 DUP2 SLOAD DUP2 LT PUSH2 0xED0 JUMPI PUSH2 0xED0 PUSH2 0x372F JUMP JUMPDEST PUSH1 0x0 SWAP2 DUP3 MSTORE PUSH1 0x20 DUP1 DUP4 KECCAK256 PUSH1 0x3 SWAP3 SWAP1 SWAP3 MUL SWAP1 SWAP2 ADD PUSH1 0x2 ADD SLOAD PUSH1 0x1 PUSH1 0x38 SHL SWAP1 DIV PUSH3 0xFFFFFF AND DUP4 MSTORE DUP3 DUP2 ADD DUP3 SWAP1 MSTORE PUSH1 0x40 DUP1 DUP5 ADD DUP4 SWAP1 MSTORE PUSH1 0x60 DUP5 ADD DUP4 SWAP1 MSTORE PUSH1 0x80 SWAP1 SWAP4 ADD DUP3 SWAP1 MSTORE PUSH1 0xA SLOAD PUSH1 0x5 DUP1 SLOAD PUSH1 0x1 PUSH1 0x80 SHL SWAP1 DUP2 SWAP1 DIV PUSH1 0xF SIGNEXTEND DUP1 DUP7 MSTORE PUSH1 0x6 DUP6 MSTORE DUP7 DUP7 KECCAK256 DUP5 SWAP1 SSTORE DUP3 SLOAD PUSH16 0xFFFFFFFFFFFFFFFFFFFFFFFFFFFFFFFF SWAP1 DUP2 AND PUSH1 0x1 SWAP1 SWAP3 ADD AND SWAP1 SWAP2 MUL OR SWAP1 SSTORE DUP3 MSTORE PUSH1 0x9 SWAP1 MSTORE KECCAK256 DUP2 MLOAD SWAP2 SWAP3 POP DUP3 SWAP2 DUP2 SWAP1 PUSH2 0xF6E SWAP1 DUP3 PUSH2 0x38D3 JUMP JUMPDEST POP PUSH1 0x20 DUP3 ADD MLOAD PUSH1 0x1 DUP3 DUP2 ADD DUP1 SLOAD PUSH5 0xFFFFFFFFFF NOT AND PUSH5 0xFFFFFFFFFF SWAP4 DUP5 AND OR SWAP1 SSTORE PUSH1 0x40 DUP5 ADD MLOAD PUSH1 0x2 DUP5 ADD SSTORE PUSH1 0x60 DUP5 ADD MLOAD PUSH1 0x3 DUP5 ADD SSTORE PUSH1 0x80 DUP5 ADD MLOAD PUSH1 0x4 SWAP1 SWAP4 ADD DUP1 SLOAD PUSH1 0xA0 DUP7 ADD MLOAD PUSH1 0xC0 DUP8 ADD MLOAD PUSH1 0xE0 DUP9 ADD MLOAD PUSH2 0x100 DUP1 DUP11 ADD MLOAD PUSH2 0x120 SWAP1 SWAP11 ADD MLOAD PUSH1 0xFF SWAP1 SWAP10 AND PUSH4 0xFFFFFFFF NOT SWAP1 SWAP6 AND SWAP5 SWAP1 SWAP5 OR PUSH3 0xFFFFFF SWAP1 SWAP4 AND SWAP1 SWAP4 MUL SWAP2 SWAP1 SWAP2 OR PUSH16 0xFFFFFFFFFFFFFFFFFFFFFFFF00000000 NOT AND PUSH1 0x1 PUSH1 0x20 SHL PUSH1 0x1 PUSH1 0x1 PUSH1 0x50 SHL SUB SWAP1 SWAP3 AND SWAP2 SWAP1 SWAP2 MUL PUSH2 0xFFFF PUSH1 0x70 SHL NOT AND OR PUSH1 0x1 PUSH1 0x70 SHL PUSH2 0xFFFF SWAP3 DUP4 AND MUL OR PUSH7 0xFFFFFFFFFFFFFF PUSH1 0x80 SHL NOT AND PUSH1 0x1 PUSH1 0x80 SHL SWAP2 SWAP1 SWAP7 AND MUL PUSH5 0xFFFFFFFFFF PUSH1 0x90 SHL NOT AND SWAP5 SWAP1 SWAP5 OR PUSH1 0x1 PUSH1 0x90 SHL SWAP4 SWAP1 SWAP3 AND SWAP3 SWAP1 SWAP3 MUL OR SWAP1 SWAP2 SSTORE PUSH1 0xA DUP1 SLOAD PUSH1 0x0 SWAP1 PUSH2 0x1072 SWAP1 DUP5 SWAP1 PUSH2 0x39A8 JUMP JUMPDEST SWAP1 SWAP2 SSTORE POP PUSH2 0x1085 SWAP1 POP TIMESTAMP PUSH3 0x15180 PUSH2 0x39A8 JUMP JUMPDEST PUSH1 0x4 DUP4 DUP2 SLOAD DUP2 LT PUSH2 0x1098 JUMPI PUSH2 0x1098 PUSH2 0x372F JUMP JUMPDEST PUSH1 0x0 SWAP2 DUP3 MSTORE PUSH1 0x20 DUP1 DUP4 KECCAK256 PUSH5 0xFFFFFFFFFF DUP9 AND DUP5 MSTORE PUSH1 0x3 SWAP1 SWAP3 MUL SWAP1 SWAP2 ADD SWAP1 MSTORE PUSH1 0x40 SWAP1 KECCAK256 SSTORE PUSH1 0x4 DUP1 SLOAD PUSH1 0x1 SWAP2 SWAP1 DUP5 SWAP1 DUP2 LT PUSH2 0x10D3 JUMPI PUSH2 0x10D3 PUSH2 0x372F JUMP JUMPDEST SWAP1 PUSH1 0x0 MSTORE PUSH1 0x20 PUSH1 0x0 KECCAK256 SWAP1 PUSH1 0x3 MUL ADD PUSH1 0x2 ADD PUSH1 0x14 SWAP1 SLOAD SWAP1 PUSH2 0x100 EXP SWAP1 DIV PUSH2 0xFFFF AND PUSH2 0x10FD SWAP2 SWAP1 PUSH2 0x39C0 JUMP JUMPDEST PUSH1 0x4 DUP4 DUP2 SLOAD DUP2 LT PUSH2 0x1110 JUMPI PUSH2 0x1110 PUSH2 0x372F JUMP JUMPDEST SWAP1 PUSH1 0x0 MSTORE PUSH1 0x20 PUSH1 0x0 KECCAK256 SWAP1 PUSH1 0x3 MUL ADD PUSH1 0x2 ADD PUSH1 0x14 PUSH2 0x100 EXP DUP2 SLOAD DUP2 PUSH2 0xFFFF MUL NOT AND SWAP1 DUP4 PUSH2 0xFFFF AND MUL OR SWAP1 SSTORE POP PUSH32 0xBCC1EA15519F3ACFB49E91DE851E553B2C024B9AB85CEE8FFD8FE4E4E0A7876D DUP4 PUSH1 0x1 PUSH1 0xA SLOAD PUSH2 0x116C SWAP2 SWAP1 PUSH2 0x39E3 JUMP JUMPDEST DUP8 TIMESTAMP PUSH1 0x40 MLOAD PUSH2 0x117E SWAP5 SWAP4 SWAP3 SWAP2 SWAP1 PUSH2 0x39FA JUMP JUMPDEST PUSH1 0x40 MLOAD DUP1 SWAP2 SUB SWAP1 LOG1 POP PUSH2 0x1194 JUMP JUMPDEST PUSH1 0x1 ADD PUSH2 0xD19 JUMP JUMPDEST POP POP POP POP JUMP JUMPDEST PUSH1 0x0 PUSH1 0x8 SLOAD DUP3 LT PUSH2 0x11E0 JUMPI PUSH1 0x40 MLOAD PUSH3 0x461BCD PUSH1 0xE5 SHL DUP2 MSTORE PUSH1 0x20 PUSH1 0x4 DUP3 ADD MSTORE PUSH1 0x10 PUSH1 0x24 DUP3 ADD MSTORE PUSH16 0x1B9BC81CDD58DA081C1C9BDC1BDCD85B PUSH1 0x82 SHL PUSH1 0x44 DUP3 ADD MSTORE PUSH1 0x64 ADD PUSH2 0xC71 JUMP JUMPDEST PUSH1 0x0 DUP3 DUP2 MSTORE PUSH1 0x7 PUSH1 0x20 MSTORE PUSH1 0x40 SWAP1 KECCAK256 PUSH1 0x3 ADD SLOAD PUSH1 0x1 PUSH1 0x50 SHL SWAP1 DIV PUSH5 0xFFFFFFFFFF AND TIMESTAMP GT PUSH2 0x1244 JUMPI PUSH1 0x40 MLOAD PUSH3 0x461BCD PUSH1 0xE5 SHL DUP2 MSTORE PUSH1 0x20 PUSH1 0x4 DUP3 ADD MSTORE PUSH1 0x13 PUSH1 0x24 DUP3 ADD MSTORE PUSH19 0x766F74696E67207374696C6C20616374697665 PUSH1 0x68 SHL PUSH1 0x44 DUP3 ADD MSTORE PUSH1 0x64 ADD PUSH2 0xC71 JUMP JUMPDEST PUSH1 0x0 DUP1 PUSH1 0x0 DUP1 JUMPDEST PUSH1 0x0 DUP7 DUP2 MSTORE PUSH1 0x7 PUSH1 0x20 MSTORE PUSH1 0x40 SWAP1 KECCAK256 PUSH1 0x1 ADD SLOAD PUSH2 0xFFFF AND DUP2 LT ISZERO PUSH2 0x1365 JUMPI PUSH1 0x0 DUP7 DUP2 MSTORE PUSH1 0x7 PUSH1 0x20 MSTORE PUSH1 0x40 SWAP1 KECCAK256 DUP4 SWAP1 PUSH1 0x2 ADD DUP3 PUSH1 0x8 DUP2 LT PUSH2 0x128C JUMPI PUSH2 0x128C PUSH2 0x372F JUMP JUMPDEST PUSH1 0x10 SWAP2 DUP3 DUP3 DIV ADD SWAP2 SWAP1 MOD PUSH1 0x2 MUL SWAP1 SLOAD SWAP1 PUSH2 0x100 EXP SWAP1 DIV PUSH2 0xFFFF AND PUSH2 0xFFFF AND GT ISZERO PUSH2 0x1307 JUMPI PUSH1 0x0 DUP7 DUP2 MSTORE PUSH1 0x7 PUSH1 0x20 MSTORE PUSH1 0x40 SWAP1 KECCAK256 PUSH1 0x2 ADD DUP2 PUSH1 0x8 DUP2 LT PUSH2 0x12D2 JUMPI PUSH2 0x12D2 PUSH2 0x372F JUMP JUMPDEST PUSH1 0x10 SWAP2 DUP3 DUP3 DIV ADD SWAP2 SWAP1 MOD PUSH1 0x2 MUL SWAP1 SLOAD SWAP1 PUSH2 0x100 EXP SWAP1 DIV PUSH2 0xFFFF AND PUSH2 0xFFFF AND SWAP3 POP DUP1 SWAP4 POP DUP2 PUSH1 0x1 SUB PUSH2 0x1302 JUMPI PUSH1 0x0 SWAP2 POP JUMPDEST PUSH2 0x1353 JUMP JUMPDEST PUSH1 0x0 DUP7 DUP2 MSTORE PUSH1 0x7 PUSH1 0x20 MSTORE PUSH1 0x40 SWAP1 KECCAK256 DUP4 SWAP1 PUSH1 0x2 ADD DUP3 PUSH1 0x8 DUP2 LT PUSH2 0x132B JUMPI PUSH2 0x132B PUSH2 0x372F JUMP JUMPDEST PUSH1 0x10 SWAP2 DUP3 DUP3 DIV ADD SWAP2 SWAP1 MOD PUSH1 0x2 MUL SWAP1 SLOAD SWAP1 PUSH2 0x100 EXP SWAP1 DIV PUSH2 0xFFFF AND PUSH2 0xFFFF AND SUB PUSH2 0x1353 JUMPI PUSH1 0x1 SWAP2 POP JUMPDEST DUP1 PUSH2 0x135D DUP2 PUSH2 0x3A31 JUMP JUMPDEST SWAP2 POP POP PUSH2 0x124B JUMP JUMPDEST POP DUP1 ISZERO PUSH2 0x13A7 JUMPI PUSH1 0x40 MLOAD PUSH3 0x461BCD PUSH1 0xE5 SHL DUP2 MSTORE PUSH1 0x20 PUSH1 0x4 DUP3 ADD MSTORE PUSH1 0x10 PUSH1 0x24 DUP3 ADD MSTORE PUSH16 0x3A3432B932903BB0B99030903A34B297 PUSH1 0x81 SHL PUSH1 0x44 DUP3 ADD MSTORE PUSH1 0x64 ADD PUSH2 0xC71 JUMP JUMPDEST POP SWAP1 SWAP4 SWAP3 POP POP POP JUMP JUMPDEST PUSH1 0x40 MLOAD PUSH3 0x461BCD PUSH1 0xE5 SHL DUP2 MSTORE PUSH1 0x20 PUSH1 0x4 DUP3 ADD MSTORE PUSH1 0xE PUSH1 0x24 DUP3 ADD MSTORE PUSH14 0x26BAB9BA1031329036B2B6B132B9 PUSH1 0x91 SHL PUSH1 0x44 DUP3 ADD MSTORE PUSH1 0x64 ADD PUSH2 0xC71 JUMP JUMPDEST PUSH1 0x9 PUSH1 0x20 MSTORE PUSH1 0x0 SWAP1 DUP2 MSTORE PUSH1 0x40 SWAP1 KECCAK256 DUP1 SLOAD DUP2 SWAP1 PUSH2 0x1404 SWAP1 PUSH2 0x36F5 JUMP JUMPDEST DUP1 PUSH1 0x1F ADD PUSH1 0x20 DUP1 SWAP2 DIV MUL PUSH1 0x20 ADD PUSH1 0x40 MLOAD SWAP1 DUP2 ADD PUSH1 0x40 MSTORE DUP1 SWAP3 SWAP2 SWAP1 DUP2 DUP2 MSTORE PUSH1 0x20 ADD DUP3 DUP1 SLOAD PUSH2 0x1430 SWAP1 PUSH2 0x36F5 JUMP JUMPDEST DUP1 ISZERO PUSH2 0x147D JUMPI DUP1 PUSH1 0x1F LT PUSH2 0x1452 JUMPI PUSH2 0x100 DUP1 DUP4 SLOAD DIV MUL DUP4 MSTORE SWAP2 PUSH1 0x20 ADD SWAP2 PUSH2 0x147D JUMP JUMPDEST DUP3 ADD SWAP2 SWAP1 PUSH1 0x0 MSTORE PUSH1 0x20 PUSH1 0x0 KECCAK256 SWAP1 JUMPDEST DUP2 SLOAD DUP2 MSTORE SWAP1 PUSH1 0x1 ADD SWAP1 PUSH1 0x20 ADD DUP1 DUP4 GT PUSH2 0x1460 JUMPI DUP3 SWAP1 SUB PUSH1 0x1F AND DUP3 ADD SWAP2 JUMPDEST POP POP POP PUSH1 0x1 DUP5 ADD SLOAD PUSH1 0x2 DUP6 ADD SLOAD PUSH1 0x3 DUP7 ADD SLOAD PUSH1 0x4 SWAP1 SWAP7 ADD SLOAD SWAP5 SWAP6 PUSH5 0xFFFFFFFFFF SWAP3 DUP4 AND SWAP6 SWAP2 SWAP5 POP SWAP3 POP PUSH1 0xFF DUP2 AND SWAP2 PUSH3 0xFFFFFF PUSH2 0x100 DUP4 DIV AND SWAP2 PUSH1 0x1 PUSH1 0x1 PUSH1 0x50 SHL SUB PUSH1 0x1 PUSH1 0x20 SHL DUP3 DIV AND SWAP2 PUSH2 0xFFFF PUSH1 0x1 PUSH1 0x70 SHL DUP4 DIV DUP2 AND SWAP3 PUSH1 0x1 PUSH1 0x80 SHL DUP2 DIV SWAP1 SWAP2 AND SWAP2 PUSH1 0x1 PUSH1 0x90 SHL SWAP1 SWAP2 DIV AND DUP11 JUMP JUMPDEST PUSH2 0x14F3 PUSH2 0x2E56 JUMP JUMPDEST PUSH1 0x0 DUP3 DUP2 MSTORE PUSH1 0x9 PUSH1 0x20 MSTORE PUSH1 0x40 SWAP1 DUP2 SWAP1 KECCAK256 DUP2 MLOAD PUSH2 0x140 DUP2 ADD SWAP1 SWAP3 MSTORE DUP1 SLOAD DUP3 SWAP1 DUP3 SWAP1 PUSH2 0x151C SWAP1 PUSH2 0x36F5 JUMP JUMPDEST DUP1 PUSH1 0x1F ADD PUSH1 0x20 DUP1 SWAP2 DIV MUL PUSH1 0x20 ADD PUSH1 0x40 MLOAD SWAP1 DUP2 ADD PUSH1 0x40 MSTORE DUP1 SWAP3 SWAP2 SWAP1 DUP2 DUP2 MSTORE PUSH1 0x20 ADD DUP3 DUP1 SLOAD PUSH2 0x1548 SWAP1 PUSH2 0x36F5 JUMP JUMPDEST DUP1 ISZERO PUSH2 0x1595 JUMPI DUP1 PUSH1 0x1F LT PUSH2 0x156A JUMPI PUSH2 0x100 DUP1 DUP4 SLOAD DIV MUL DUP4 MSTORE SWAP2 PUSH1 0x20 ADD SWAP2 PUSH2 0x1595 JUMP JUMPDEST DUP3 ADD SWAP2 SWAP1 PUSH1 0x0 MSTORE PUSH1 0x20 PUSH1 0x0 KECCAK256 SWAP1 JUMPDEST DUP2 SLOAD DUP2 MSTORE SWAP1 PUSH1 0x1 ADD SWAP1 PUSH1 0x20 ADD DUP1 DUP4 GT PUSH2 0x1578 JUMPI DUP3 SWAP1 SUB PUSH1 0x1F AND DUP3 ADD SWAP2 JUMPDEST POP POP POP SWAP2 DUP4 MSTORE POP POP PUSH1 0x1 DUP3 ADD SLOAD PUSH5 0xFFFFFFFFFF SWAP1 DUP2 AND PUSH1 0x20 DUP4 ADD MSTORE PUSH1 0x2 DUP4 ADD SLOAD PUSH1 0x40 DUP4 ADD MSTORE PUSH1 0x3 DUP4 ADD SLOAD PUSH1 0x60 DUP4 ADD MSTORE PUSH1 0x4 SWAP1 SWAP3 ADD SLOAD PUSH1 0xFF DUP2 AND PUSH1 0x80 DUP4 ADD MSTORE PUSH2 0x100 DUP1 DUP3 DIV PUSH3 0xFFFFFF AND PUSH1 0xA0 DUP5 ADD MSTORE PUSH1 0x1 PUSH1 0x20 SHL DUP3 DIV PUSH1 0x1 PUSH1 0x1 PUSH1 0x50 SHL SUB AND PUSH1 0xC0 DUP5 ADD MSTORE PUSH1 0x1 PUSH1 0x70 SHL DUP3 DIV PUSH2 0xFFFF SWAP1 DUP2 AND PUSH1 0xE0 DUP6 ADD MSTORE PUSH1 0x1 PUSH1 0x80 SHL DUP4 DIV AND SWAP1 DUP4 ADD MSTORE PUSH1 0x1 PUSH1 0x90 SHL SWAP1 DIV SWAP1 SWAP2 AND PUSH2 0x120 SWAP1 SWAP2 ADD MSTORE SWAP3 SWAP2 POP POP JUMP JUMPDEST PUSH1 0x60 PUSH1 0x0 DUP1 JUMPDEST PUSH1 0x4 SLOAD DUP2 LT ISZERO PUSH2 0x1745 JUMPI TIMESTAMP PUSH1 0x4 DUP3 DUP2 SLOAD DUP2 LT PUSH2 0x1651 JUMPI PUSH2 0x1651 PUSH2 0x372F JUMP JUMPDEST PUSH1 0x0 SWAP2 DUP3 MSTORE PUSH1 0x20 DUP1 DUP4 KECCAK256 PUSH5 0xFFFFFFFFFF DUP10 AND DUP5 MSTORE PUSH1 0x3 SWAP1 SWAP3 MUL SWAP1 SWAP2 ADD SWAP1 MSTORE PUSH1 0x40 SWAP1 KECCAK256 SLOAD LT DUP1 ISZERO PUSH2 0x16B5 JUMPI POP TIMESTAMP PUSH1 0x4 DUP3 DUP2 SLOAD DUP2 LT PUSH2 0x1690 JUMPI PUSH2 0x1690 PUSH2 0x372F JUMP JUMPDEST PUSH1 0x0 SWAP2 DUP3 MSTORE PUSH1 0x20 SWAP1 SWAP2 KECCAK256 PUSH1 0x3 SWAP1 SWAP2 MUL ADD PUSH1 0x2 ADD SLOAD PUSH1 0x1 PUSH1 0x50 SHL SWAP1 DIV PUSH5 0xFFFFFFFFFF AND GT ISZERO JUMPDEST DUP1 ISZERO PUSH2 0x16F4 JUMPI POP TIMESTAMP PUSH1 0x4 DUP3 DUP2 SLOAD DUP2 LT PUSH2 0x16D0 JUMPI PUSH2 0x16D0 PUSH2 0x372F JUMP JUMPDEST PUSH1 0x0 SWAP2 DUP3 MSTORE PUSH1 0x20 SWAP1 SWAP2 KECCAK256 PUSH1 0x3 SWAP1 SWAP2 MUL ADD PUSH1 0x2 ADD SLOAD PUSH1 0x1 PUSH1 0x78 SHL SWAP1 DIV PUSH5 0xFFFFFFFFFF AND GT JUMPDEST DUP1 ISZERO PUSH2 0x1731 JUMPI POP PUSH1 0x1 PUSH1 0x4 DUP3 DUP2 SLOAD DUP2 LT PUSH2 0x1710 JUMPI PUSH2 0x1710 PUSH2 0x372F JUMP JUMPDEST PUSH1 0x0 SWAP2 DUP3 MSTORE PUSH1 0x20 SWAP1 SWAP2 KECCAK256 PUSH1 0x3 SWAP1 SWAP2 MUL ADD PUSH1 0x2 ADD SLOAD PUSH1 0x1 PUSH1 0xA0 SHL SWAP1 DIV PUSH2 0xFFFF AND GT JUMPDEST ISZERO PUSH2 0x173D JUMPI DUP2 PUSH1 0x1 ADD SWAP2 POP JUMPDEST PUSH1 0x1 ADD PUSH2 0x1633 JUMP JUMPDEST POP DUP1 PUSH1 0x0 SUB PUSH2 0x17B1 JUMPI PUSH1 0x40 DUP1 MLOAD PUSH1 0x1 DUP1 DUP3 MSTORE DUP2 DUP4 ADD SWAP1 SWAP3 MSTORE PUSH1 0x0 SWAP2 DUP2 PUSH1 0x20 ADD JUMPDEST PUSH1 0x60 DUP2 MSTORE PUSH1 0x20 ADD SWAP1 PUSH1 0x1 SWAP1 SUB SWAP1 DUP2 PUSH2 0x1765 JUMPI SWAP1 POP POP SWAP1 POP PUSH1 0x40 MLOAD DUP1 PUSH1 0x20 ADD PUSH1 0x40 MSTORE DUP1 PUSH1 0x0 DUP2 MSTORE POP DUP2 PUSH1 0x0 DUP2 MLOAD DUP2 LT PUSH2 0x179F JUMPI PUSH2 0x179F PUSH2 0x372F JUMP JUMPDEST PUSH1 0x20 SWAP1 DUP2 MUL SWAP2 SWAP1 SWAP2 ADD ADD MSTORE SWAP4 SWAP3 POP POP POP JUMP JUMPDEST PUSH1 0x0 DUP2 PUSH1 0x1 PUSH1 0x1 PUSH1 0x40 SHL SUB DUP2 GT ISZERO PUSH2 0x17CB JUMPI PUSH2 0x17CB PUSH2 0x2FA9 JUMP JUMPDEST PUSH1 0x40 MLOAD SWAP1 DUP1 DUP3 MSTORE DUP1 PUSH1 0x20 MUL PUSH1 0x20 ADD DUP3 ADD PUSH1 0x40 MSTORE DUP1 ISZERO PUSH2 0x17FE JUMPI DUP2 PUSH1 0x20 ADD JUMPDEST PUSH1 0x60 DUP2 MSTORE PUSH1 0x20 ADD SWAP1 PUSH1 0x1 SWAP1 SUB SWAP1 DUP2 PUSH2 0x17E9 JUMPI SWAP1 POP JUMPDEST POP SWAP1 POP PUSH1 0x0 DUP1 JUMPDEST PUSH1 0x4 SLOAD DUP2 LT ISZERO PUSH2 0x19E9 JUMPI TIMESTAMP PUSH1 0x4 DUP3 DUP2 SLOAD DUP2 LT PUSH2 0x1823 JUMPI PUSH2 0x1823 PUSH2 0x372F JUMP JUMPDEST PUSH1 0x0 SWAP2 DUP3 MSTORE PUSH1 0x20 DUP1 DUP4 KECCAK256 PUSH5 0xFFFFFFFFFF DUP12 AND DUP5 MSTORE PUSH1 0x3 SWAP1 SWAP3 MUL SWAP1 SWAP2 ADD SWAP1 MSTORE PUSH1 0x40 SWAP1 KECCAK256 SLOAD LT DUP1 ISZERO PUSH2 0x1887 JUMPI POP TIMESTAMP PUSH1 0x4 DUP3 DUP2 SLOAD DUP2 LT PUSH2 0x1862 JUMPI PUSH2 0x1862 PUSH2 0x372F JUMP JUMPDEST PUSH1 0x0 SWAP2 DUP3 MSTORE PUSH1 0x20 SWAP1 SWAP2 KECCAK256 PUSH1 0x3 SWAP1 SWAP2 MUL ADD PUSH1 0x2 ADD SLOAD PUSH1 0x1 PUSH1 0x50 SHL SWAP1 DIV PUSH5 0xFFFFFFFFFF AND GT ISZERO JUMPDEST DUP1 ISZERO PUSH2 0x18C6 JUMPI POP TIMESTAMP PUSH1 0x4 DUP3 DUP2 SLOAD DUP2 LT PUSH2 0x18A2 JUMPI PUSH2 0x18A2 PUSH2 0x372F JUMP JUMPDEST PUSH1 0x0 SWAP2 DUP3 MSTORE PUSH1 0x20 SWAP1 SWAP2 KECCAK256 PUSH1 0x3 SWAP1 SWAP2 MUL ADD PUSH1 0x2 ADD SLOAD PUSH1 0x1 PUSH1 0x78 SHL SWAP1 DIV PUSH5 0xFFFFFFFFFF AND GT JUMPDEST DUP1 ISZERO PUSH2 0x1903 JUMPI POP PUSH1 0x1 PUSH1 0x4 DUP3 DUP2 SLOAD DUP2 LT PUSH2 0x18E2 JUMPI PUSH2 0x18E2 PUSH2 0x372F JUMP JUMPDEST PUSH1 0x0 SWAP2 DUP3 MSTORE PUSH1 0x20 SWAP1 SWAP2 KECCAK256 PUSH1 0x3 SWAP1 SWAP2 MUL ADD PUSH1 0x2 ADD SLOAD PUSH1 0x1 PUSH1 0xA0 SHL SWAP1 DIV PUSH2 0xFFFF AND GT JUMPDEST ISZERO PUSH2 0x19E1 JUMPI PUSH1 0x4 DUP2 DUP2 SLOAD DUP2 LT PUSH2 0x191B JUMPI PUSH2 0x191B PUSH2 0x372F JUMP JUMPDEST SWAP1 PUSH1 0x0 MSTORE PUSH1 0x20 PUSH1 0x0 KECCAK256 SWAP1 PUSH1 0x3 MUL ADD PUSH1 0x1 ADD DUP1 SLOAD PUSH2 0x1937 SWAP1 PUSH2 0x36F5 JUMP JUMPDEST DUP1 PUSH1 0x1F ADD PUSH1 0x20 DUP1 SWAP2 DIV MUL PUSH1 0x20 ADD PUSH1 0x40 MLOAD SWAP1 DUP2 ADD PUSH1 0x40 MSTORE DUP1 SWAP3 SWAP2 SWAP1 DUP2 DUP2 MSTORE PUSH1 0x20 ADD DUP3 DUP1 SLOAD PUSH2 0x1963 SWAP1 PUSH2 0x36F5 JUMP JUMPDEST DUP1 ISZERO PUSH2 0x19B0 JUMPI DUP1 PUSH1 0x1F LT PUSH2 0x1985 JUMPI PUSH2 0x100 DUP1 DUP4 SLOAD DIV MUL DUP4 MSTORE SWAP2 PUSH1 0x20 ADD SWAP2 PUSH2 0x19B0 JUMP JUMPDEST DUP3 ADD SWAP2 SWAP1 PUSH1 0x0 MSTORE PUSH1 0x20 PUSH1 0x0 KECCAK256 SWAP1 JUMPDEST DUP2 SLOAD DUP2 MSTORE SWAP1 PUSH1 0x1 ADD SWAP1 PUSH1 0x20 ADD DUP1 DUP4 GT PUSH2 0x1993 JUMPI DUP3 SWAP1 SUB PUSH1 0x1F AND DUP3 ADD SWAP2 JUMPDEST POP POP POP POP POP DUP4 DUP4 DUP2 MLOAD DUP2 LT PUSH2 0x19C7 JUMPI PUSH2 0x19C7 PUSH2 0x372F JUMP JUMPDEST PUSH1 0x20 MUL PUSH1 0x20 ADD ADD DUP2 SWAP1 MSTORE POP DUP2 PUSH1 0x1 ADD SWAP2 POP DUP4 DUP3 LT ISZERO PUSH2 0x19E9 JUMPI JUMPDEST PUSH1 0x1 ADD PUSH2 0x1805 JUMP JUMPDEST POP SWAP1 SWAP5 SWAP4 POP POP POP POP JUMP JUMPDEST PUSH1 0x1 DUP6 PUSH2 0xFFFF AND GT DUP1 ISZERO PUSH2 0x1A0C JUMPI POP PUSH2 0x101 DUP6 PUSH2 0xFFFF AND LT JUMPDEST PUSH2 0x1A58 JUMPI PUSH1 0x40 MLOAD PUSH3 0x461BCD PUSH1 0xE5 SHL DUP2 MSTORE PUSH1 0x20 PUSH1 0x4 DUP3 ADD MSTORE PUSH1 0x19 PUSH1 0x24 DUP3 ADD MSTORE PUSH32 0x696E76616C6964206E756D626572206F66206F7074696F6E7300000000000000 PUSH1 0x44 DUP3 ADD MSTORE PUSH1 0x64 ADD PUSH2 0xC71 JUMP JUMPDEST PUSH1 0x1 PUSH1 0x8 PUSH1 0x0 DUP3 DUP3 SLOAD PUSH2 0x1A6B SWAP2 SWAP1 PUSH2 0x39A8 JUMP JUMPDEST SWAP1 SWAP2 SSTORE POP POP PUSH1 0x8 SLOAD PUSH1 0x0 SWAP1 DUP2 MSTORE PUSH1 0x7 PUSH1 0x20 MSTORE PUSH1 0x40 SWAP1 KECCAK256 PUSH1 0x3 DUP2 ADD DUP1 SLOAD PUSH15 0xFFFFFFFFFFFFFFFFFFFF0000000000 NOT AND PUSH6 0x10000000000 PUSH5 0xFFFFFFFFFF DUP8 DUP2 AND SWAP2 SWAP1 SWAP2 MUL PUSH5 0xFFFFFFFFFF PUSH1 0x50 SHL NOT AND SWAP2 SWAP1 SWAP2 OR PUSH1 0x1 PUSH1 0x50 SHL SWAP2 DUP7 AND SWAP2 SWAP1 SWAP2 MUL OR SWAP1 SSTORE PUSH1 0x1 DUP2 ADD DUP1 SLOAD PUSH2 0xFFFF NOT AND PUSH2 0xFFFF DUP9 AND OR SWAP1 SSTORE DUP1 PUSH2 0x1AEA DUP9 DUP11 DUP4 PUSH2 0x3A67 JUMP JUMPDEST POP PUSH2 0x1AFE DUP9 DUP9 PUSH1 0x8 SLOAD PUSH1 0x0 DUP10 DUP10 DUP10 DUP10 PUSH2 0x2B88 JUMP JUMPDEST POP POP POP POP POP POP POP POP JUMP JUMPDEST PUSH1 0x0 PUSH2 0x1B23 PUSH1 0x5 SLOAD PUSH1 0xF DUP2 DUP2 SIGNEXTEND PUSH1 0x1 PUSH1 0x80 SHL SWAP1 SWAP3 DIV SWAP1 SIGNEXTEND SUB SWAP1 JUMP JUMPDEST SWAP1 POP PUSH2 0x1B2D PUSH2 0x2E56 JUMP JUMPDEST PUSH1 0x0 DUP1 JUMPDEST DUP4 DUP2 LT ISZERO PUSH2 0x1E3D JUMPI PUSH2 0x1B44 PUSH1 0x5 DUP3 PUSH2 0x2B17 JUMP JUMPDEST PUSH1 0x0 DUP2 DUP2 MSTORE PUSH1 0x9 PUSH1 0x20 MSTORE PUSH1 0x40 SWAP1 DUP2 SWAP1 KECCAK256 DUP2 MLOAD PUSH2 0x140 DUP2 ADD SWAP1 SWAP3 MSTORE DUP1 SLOAD SWAP3 SWAP5 POP SWAP1 SWAP2 DUP3 SWAP1 DUP3 SWAP1 PUSH2 0x1B72 SWAP1 PUSH2 0x36F5 JUMP JUMPDEST DUP1 PUSH1 0x1F ADD PUSH1 0x20 DUP1 SWAP2 DIV MUL PUSH1 0x20 ADD PUSH1 0x40 MLOAD SWAP1 DUP2 ADD PUSH1 0x40 MSTORE DUP1 SWAP3 SWAP2 SWAP1 DUP2 DUP2 MSTORE PUSH1 0x20 ADD DUP3 DUP1 SLOAD PUSH2 0x1B9E SWAP1 PUSH2 0x36F5 JUMP JUMPDEST DUP1 ISZERO PUSH2 0x1BEB JUMPI DUP1 PUSH1 0x1F LT PUSH2 0x1BC0 JUMPI PUSH2 0x100 DUP1 DUP4 SLOAD DIV MUL DUP4 MSTORE SWAP2 PUSH1 0x20 ADD SWAP2 PUSH2 0x1BEB JUMP JUMPDEST DUP3 ADD SWAP2 SWAP1 PUSH1 0x0 MSTORE PUSH1 0x20 PUSH1 0x0 KECCAK256 SWAP1 JUMPDEST DUP2 SLOAD DUP2 MSTORE SWAP1 PUSH1 0x1 ADD SWAP1 PUSH1 0x20 ADD DUP1 DUP4 GT PUSH2 0x1BCE JUMPI DUP3 SWAP1 SUB PUSH1 0x1F AND DUP3 ADD SWAP2 JUMPDEST POP POP POP SWAP2 DUP4 MSTORE POP POP PUSH1 0x1 DUP3 ADD SLOAD PUSH5 0xFFFFFFFFFF SWAP1 DUP2 AND PUSH1 0x20 DUP4 ADD MSTORE PUSH1 0x2 DUP4 ADD SLOAD PUSH1 0x40 DUP4 ADD MSTORE PUSH1 0x3 DUP4 ADD SLOAD PUSH1 0x60 DUP4 ADD MSTORE PUSH1 0x4 SWAP1 SWAP3 ADD SLOAD PUSH1 0xFF DUP2 AND PUSH1 0x80 DUP4 ADD MSTORE PUSH2 0x100 DUP1 DUP3 DIV PUSH3 0xFFFFFF AND PUSH1 0xA0 DUP5 ADD MSTORE PUSH1 0x1 PUSH1 0x20 SHL DUP3 DIV PUSH1 0x1 PUSH1 0x1 PUSH1 0x50 SHL SUB AND PUSH1 0xC0 DUP5 ADD MSTORE PUSH1 0x1 PUSH1 0x70 SHL DUP3 DIV PUSH2 0xFFFF SWAP1 DUP2 AND PUSH1 0xE0 DUP6 ADD MSTORE PUSH1 0x1 PUSH1 0x80 SHL DUP4 DIV AND SWAP1 DUP4 ADD MSTORE PUSH1 0x1 PUSH1 0x90 SHL SWAP1 DIV DUP3 AND PUSH2 0x120 SWAP2 DUP3 ADD MSTORE DUP3 ADD MLOAD SWAP2 SWAP5 POP TIMESTAMP SWAP2 AND LT DUP1 ISZERO PUSH2 0x1C9D JUMPI POP DUP5 DUP4 PUSH1 0x20 ADD MLOAD PUSH5 0xFFFFFFFFFF AND EQ ISZERO JUMPDEST DUP1 ISZERO PUSH2 0x1CB2 JUMPI POP DUP5 DUP4 PUSH2 0x100 ADD MLOAD PUSH2 0xFFFF AND EQ ISZERO JUMPDEST ISZERO PUSH2 0x1E35 JUMPI PUSH2 0xFFFF DUP6 AND PUSH1 0xE0 DUP5 ADD MSTORE PUSH1 0xB SLOAD PUSH2 0x1CCE SWAP1 TIMESTAMP PUSH2 0x39A8 JUMP JUMPDEST PUSH5 0xFFFFFFFFFF AND PUSH2 0x120 DUP5 ADD MSTORE PUSH1 0x0 DUP3 DUP2 MSTORE PUSH1 0x9 PUSH1 0x20 MSTORE PUSH1 0x40 SWAP1 KECCAK256 DUP4 MLOAD DUP5 SWAP2 SWAP1 DUP2 SWAP1 PUSH2 0x1CFA SWAP1 DUP3 PUSH2 0x38D3 JUMP JUMPDEST POP PUSH1 0x20 DUP3 DUP2 ADD MLOAD PUSH1 0x1 DUP4 ADD DUP1 SLOAD PUSH5 0xFFFFFFFFFF NOT AND PUSH5 0xFFFFFFFFFF SWAP3 DUP4 AND OR SWAP1 SSTORE PUSH1 0x40 DUP1 DUP6 ADD MLOAD PUSH1 0x2 DUP6 ADD SSTORE PUSH1 0x60 DUP6 ADD MLOAD PUSH1 0x3 DUP6 ADD SSTORE PUSH1 0x80 DUP6 ADD MLOAD PUSH1 0x4 SWAP1 SWAP5 ADD DUP1 SLOAD PUSH1 0xA0 DUP8 ADD MLOAD PUSH1 0xC0 DUP9 ADD MLOAD PUSH1 0xE0 DUP10 ADD MLOAD PUSH2 0x100 DUP1 DUP12 ADD MLOAD PUSH2 0x120 SWAP1 SWAP12 ADD MLOAD PUSH1 0xFF SWAP1 SWAP11 AND PUSH4 0xFFFFFFFF NOT SWAP1 SWAP6 AND SWAP5 SWAP1 SWAP5 OR PUSH3 0xFFFFFF SWAP1 SWAP4 AND SWAP1 SWAP4 MUL SWAP2 SWAP1 SWAP2 OR PUSH16 0xFFFFFFFFFFFFFFFFFFFFFFFF00000000 NOT AND PUSH1 0x1 PUSH1 0x20 SHL PUSH1 0x1 PUSH1 0x1 PUSH1 0x50 SHL SUB SWAP1 SWAP3 AND SWAP2 SWAP1 SWAP2 MUL PUSH2 0xFFFF PUSH1 0x70 SHL NOT AND OR PUSH1 0x1 PUSH1 0x70 SHL PUSH2 0xFFFF SWAP3 DUP4 AND MUL OR PUSH7 0xFFFFFFFFFFFFFF PUSH1 0x80 SHL NOT AND PUSH1 0x1 PUSH1 0x80 SHL SWAP2 SWAP1 SWAP8 AND MUL PUSH5 0xFFFFFFFFFF PUSH1 0x90 SHL NOT AND SWAP6 SWAP1 SWAP6 OR PUSH1 0x1 PUSH1 0x90 SHL SWAP5 SWAP1 SWAP3 AND SWAP4 SWAP1 SWAP4 MUL OR SWAP1 SWAP3 SSTORE PUSH1 0x0 DUP5 DUP2 MSTORE PUSH1 0x9 SWAP1 SWAP3 MSTORE SWAP1 DUP2 SWAP1 KECCAK256 SWAP1 MLOAD PUSH32 0xF20A22B1AA6D8BA4BF99C845FB1F02F4879BA83155BDE0F82F49CB58675DF268 SWAP2 PUSH2 0x1E2C SWAP2 DUP9 SWAP2 DUP7 SWAP2 PUSH2 0x3B26 JUMP JUMPDEST PUSH1 0x40 MLOAD DUP1 SWAP2 SUB SWAP1 LOG1 JUMPDEST PUSH1 0x1 ADD PUSH2 0x1B31 JUMP JUMPDEST POP POP POP POP POP JUMP JUMPDEST PUSH1 0x2 SLOAD PUSH1 0x40 MLOAD PUSH4 0x31A9108F PUSH1 0xE1 SHL DUP2 MSTORE PUSH1 0x4 DUP2 ADD DUP6 SWAP1 MSTORE CALLER SWAP2 PUSH1 0x1 PUSH1 0x1 PUSH1 0xA0 SHL SUB AND SWAP1 PUSH4 0x6352211E SWAP1 PUSH1 0x24 ADD PUSH1 0x20 PUSH1 0x40 MLOAD DUP1 DUP4 SUB DUP2 DUP7 GAS STATICCALL ISZERO DUP1 ISZERO PUSH2 0x1E8D JUMPI RETURNDATASIZE PUSH1 0x0 DUP1 RETURNDATACOPY RETURNDATASIZE PUSH1 0x0 REVERT JUMPDEST POP POP POP POP PUSH1 0x40 MLOAD RETURNDATASIZE PUSH1 0x1F NOT PUSH1 0x1F DUP3 ADD AND DUP3 ADD DUP1 PUSH1 0x40 MSTORE POP DUP2 ADD SWAP1 PUSH2 0x1EB1 SWAP2 SWAP1 PUSH2 0x3A4A JUMP JUMPDEST PUSH1 0x1 PUSH1 0x1 PUSH1 0xA0 SHL SUB AND EQ DUP1 ISZERO PUSH2 0x1EE2 JUMPI POP PUSH1 0x0 DUP3 DUP2 MSTORE PUSH1 0x9 PUSH1 0x20 MSTORE PUSH1 0x40 SWAP1 KECCAK256 PUSH1 0x4 ADD SLOAD PUSH1 0x1 PUSH1 0x70 SHL SWAP1 DIV PUSH2 0xFFFF AND DUP4 EQ JUMPDEST PUSH2 0x1F2E JUMPI PUSH1 0x40 MLOAD PUSH3 0x461BCD PUSH1 0xE5 SHL DUP2 MSTORE PUSH1 0x20 PUSH1 0x4 DUP3 ADD DUP2 SWAP1 MSTORE PUSH1 0x24 DUP3 ADD MSTORE PUSH32 0x4D757374206265206F776E6572206F662061737369676E65642077697A617264 PUSH1 0x44 DUP3 ADD MSTORE PUSH1 0x64 ADD PUSH2 0xC71 JUMP JUMPDEST PUSH1 0x0 DUP2 MLOAD GT PUSH2 0x1F3C JUMPI PUSH1 0x0 DUP1 REVERT JUMPDEST PUSH1 0x0 DUP3 DUP2 MSTORE PUSH1 0x9 PUSH1 0x20 MSTORE PUSH1 0x40 DUP2 KECCAK256 PUSH1 0x4 DUP2 ADD SLOAD SWAP1 SWAP2 SWAP1 PUSH1 0x1 PUSH1 0x80 SHL SWAP1 DIV PUSH2 0xFFFF AND ISZERO PUSH2 0x1FD7 JUMPI PUSH1 0x0 JUMPDEST DUP4 MLOAD DUP2 LT ISZERO PUSH2 0x1FD5 JUMPI DUP4 DUP2 DUP2 MLOAD DUP2 LT PUSH2 0x1F80 JUMPI PUSH2 0x1F80 PUSH2 0x372F JUMP JUMPDEST PUSH1 0x20 MUL PUSH1 0x20 ADD ADD MLOAD PUSH1 0x40 MLOAD PUSH1 0x20 ADD PUSH2 0x1F9A SWAP2 DUP2 MSTORE PUSH1 0x20 ADD SWAP1 JUMP JUMPDEST PUSH1 0x40 MLOAD PUSH1 0x20 DUP2 DUP4 SUB SUB DUP2 MSTORE SWAP1 PUSH1 0x40 MSTORE DUP1 MLOAD SWAP1 PUSH1 0x20 ADD KECCAK256 DUP5 DUP3 DUP2 MLOAD DUP2 LT PUSH2 0x1FC2 JUMPI PUSH2 0x1FC2 PUSH2 0x372F JUMP JUMPDEST PUSH1 0x20 SWAP1 DUP2 MUL SWAP2 SWAP1 SWAP2 ADD ADD MSTORE PUSH1 0x1 ADD PUSH2 0x1F65 JUMP JUMPDEST POP JUMPDEST PUSH1 0x0 DUP4 PUSH1 0x40 MLOAD PUSH1 0x20 ADD PUSH2 0x1FEA SWAP2 SWAP1 PUSH2 0x3745 JUMP JUMPDEST PUSH1 0x40 MLOAD PUSH1 0x20 DUP2 DUP4 SUB SUB DUP2 MSTORE SWAP1 PUSH1 0x40 MSTORE DUP1 MLOAD SWAP1 PUSH1 0x20 ADD KECCAK256 SWAP1 POP PUSH1 0x0 DUP2 DUP5 PUSH1 0x2 ADD SLOAD EQ PUSH2 0x2016 JUMPI PUSH1 0x0 PUSH2 0x2019 JUMP JUMPDEST PUSH1 0x1 JUMPDEST PUSH1 0x1 DUP6 DUP2 ADD SLOAD PUSH1 0x40 DUP1 MLOAD DUP12 DUP2 MSTORE PUSH5 0xFFFFFFFFFF SWAP1 SWAP3 AND PUSH1 0x20 DUP4 ADD MSTORE DUP2 ADD DUP10 SWAP1 MSTORE PUSH1 0x60 DUP2 ADD DUP6 SWAP1 MSTORE PUSH1 0xFF SWAP3 SWAP1 SWAP3 AND SWAP1 DUP2 EQ PUSH1 0x80 DUP4 ADD MSTORE SWAP2 POP PUSH32 0xE3F0E138F100DEAF328BA1DEF71C39DADE8CD971BA0074D935EE648E54532FAE SWAP1 PUSH1 0xA0 ADD PUSH1 0x40 MLOAD DUP1 SWAP2 SUB SWAP1 LOG1 DUP1 PUSH1 0x1 SUB PUSH2 0x237F JUMPI PUSH1 0x4 DUP5 ADD SLOAD PUSH1 0x0 SWAP1 PUSH2 0x20A9 SWAP1 PUSH1 0x2 SWAP1 PUSH1 0x1 PUSH1 0x20 SHL SWAP1 DIV PUSH1 0x1 PUSH1 0x1 PUSH1 0x50 SHL SUB AND PUSH2 0x3BF1 JUMP JUMPDEST PUSH1 0x2 SLOAD PUSH1 0x4 DUP8 DUP2 ADD SLOAD PUSH1 0x40 MLOAD PUSH4 0x31A9108F PUSH1 0xE1 SHL DUP2 MSTORE PUSH1 0x1 PUSH1 0x70 SHL SWAP1 SWAP2 DIV PUSH2 0xFFFF AND SWAP2 DUP2 ADD SWAP2 SWAP1 SWAP2 MSTORE PUSH1 0x1 PUSH1 0x1 PUSH1 0x50 SHL SUB SWAP3 SWAP1 SWAP3 AND SWAP3 POP PUSH1 0x0 SWAP2 PUSH1 0x1 PUSH1 0x1 PUSH1 0xA0 SHL SUB SWAP1 SWAP2 AND SWAP1 PUSH4 0x6352211E SWAP1 PUSH1 0x24 ADD PUSH1 0x20 PUSH1 0x40 MLOAD DUP1 DUP4 SUB DUP2 DUP7 GAS STATICCALL ISZERO DUP1 ISZERO PUSH2 0x2115 JUMPI RETURNDATASIZE PUSH1 0x0 DUP1 RETURNDATACOPY RETURNDATASIZE PUSH1 0x0 REVERT JUMPDEST POP POP POP POP PUSH1 0x40 MLOAD RETURNDATASIZE PUSH1 0x1F NOT PUSH1 0x1F DUP3 ADD AND DUP3 ADD DUP1 PUSH1 0x40 MSTORE POP DUP2 ADD SWAP1 PUSH2 0x2139 SWAP2 SWAP1 PUSH2 0x3A4A JUMP JUMPDEST PUSH1 0x2 SLOAD PUSH1 0x1 DUP9 ADD SLOAD PUSH1 0x4 DUP1 DUP11 ADD SLOAD PUSH1 0x40 MLOAD PUSH4 0x8AD4D6A5 PUSH1 0xE0 SHL DUP2 MSTORE PUSH5 0xFFFFFFFFFF SWAP1 SWAP4 AND SWAP2 DUP4 ADD SWAP2 SWAP1 SWAP2 MSTORE PUSH2 0x100 SWAP1 DIV PUSH3 0xFFFFFF AND PUSH1 0x24 DUP3 ADD MSTORE SWAP2 SWAP3 POP PUSH1 0x1 PUSH1 0x1 PUSH1 0xA0 SHL SUB AND SWAP1 PUSH4 0x8AD4D6A5 SWAP1 PUSH1 0x44 ADD PUSH1 0x0 PUSH1 0x40 MLOAD DUP1 DUP4 SUB DUP2 PUSH1 0x0 DUP8 DUP1 EXTCODESIZE ISZERO DUP1 ISZERO PUSH2 0x21A3 JUMPI PUSH1 0x0 DUP1 REVERT JUMPDEST POP GAS CALL ISZERO DUP1 ISZERO PUSH2 0x21B7 JUMPI RETURNDATASIZE PUSH1 0x0 DUP1 RETURNDATACOPY RETURNDATASIZE PUSH1 0x0 REVERT JUMPDEST POP POP PUSH1 0x2 SLOAD PUSH1 0x4 DUP10 DUP2 ADD SLOAD PUSH1 0xC SLOAD PUSH1 0x40 MLOAD PUSH4 0x8AD4D6A5 PUSH1 0xE0 SHL DUP2 MSTORE PUSH1 0x1 PUSH1 0x70 SHL SWAP1 SWAP3 DIV PUSH2 0xFFFF AND SWAP3 DUP3 ADD SWAP3 SWAP1 SWAP3 MSTORE PUSH1 0x24 DUP2 ADD SWAP2 SWAP1 SWAP2 MSTORE PUSH1 0x1 PUSH1 0x1 PUSH1 0xA0 SHL SUB SWAP1 SWAP2 AND SWAP3 POP PUSH4 0x8AD4D6A5 SWAP2 POP PUSH1 0x44 ADD JUMPDEST PUSH1 0x0 PUSH1 0x40 MLOAD DUP1 DUP4 SUB DUP2 PUSH1 0x0 DUP8 DUP1 EXTCODESIZE ISZERO DUP1 ISZERO PUSH2 0x221F JUMPI PUSH1 0x0 DUP1 REVERT JUMPDEST POP GAS CALL ISZERO DUP1 ISZERO PUSH2 0x2233 JUMPI RETURNDATASIZE PUSH1 0x0 DUP1 RETURNDATACOPY RETURNDATASIZE PUSH1 0x0 REVERT JUMPDEST POP POP POP PUSH1 0x4 DUP8 ADD DUP1 SLOAD PUSH14 0xFFFFFFFFFFFFFFFFFFFF00000000 NOT AND SWAP1 SSTORE POP PUSH1 0x0 DUP9 DUP2 MSTORE PUSH1 0x9 PUSH1 0x20 MSTORE PUSH1 0x40 DUP2 KECCAK256 SWAP1 PUSH2 0x2269 DUP3 DUP3 PUSH2 0x2EAA JUMP JUMPDEST POP PUSH1 0x1 DUP2 ADD DUP1 SLOAD PUSH5 0xFFFFFFFFFF NOT AND SWAP1 SSTORE PUSH1 0x0 PUSH1 0x2 DUP3 ADD DUP2 SWAP1 SSTORE PUSH1 0x3 DUP3 ADD DUP2 SWAP1 SSTORE PUSH1 0x4 SWAP1 SWAP2 ADD DUP1 SLOAD PUSH1 0x1 PUSH1 0x1 PUSH1 0xB8 SHL SUB NOT AND SWAP1 SSTORE PUSH1 0x40 MLOAD DUP2 SWAP1 PUSH1 0x1 PUSH1 0x1 PUSH1 0xA0 SHL SUB DUP5 AND SWAP1 DUP6 SWAP1 DUP4 DUP2 DUP2 DUP2 DUP6 DUP8 GAS CALL SWAP3 POP POP POP RETURNDATASIZE DUP1 PUSH1 0x0 DUP2 EQ PUSH2 0x22E7 JUMPI PUSH1 0x40 MLOAD SWAP2 POP PUSH1 0x1F NOT PUSH1 0x3F RETURNDATASIZE ADD AND DUP3 ADD PUSH1 0x40 MSTORE RETURNDATASIZE DUP3 MSTORE RETURNDATASIZE PUSH1 0x0 PUSH1 0x20 DUP5 ADD RETURNDATACOPY PUSH2 0x22EC JUMP JUMPDEST PUSH1 0x60 SWAP2 POP JUMPDEST POP SWAP2 POP SWAP2 POP DUP2 PUSH2 0x230E JUMPI PUSH1 0x40 MLOAD PUSH3 0x461BCD PUSH1 0xE5 SHL DUP2 MSTORE PUSH1 0x4 ADD PUSH2 0xC71 SWAP1 PUSH2 0x3C25 JUMP JUMPDEST PUSH1 0x40 MLOAD CALLER SWAP1 DUP6 SWAP1 PUSH1 0x0 DUP2 DUP2 DUP2 DUP6 DUP8 GAS CALL SWAP3 POP POP POP RETURNDATASIZE DUP1 PUSH1 0x0 DUP2 EQ PUSH2 0x234E JUMPI PUSH1 0x40 MLOAD SWAP2 POP PUSH1 0x1F NOT PUSH1 0x3F RETURNDATASIZE ADD AND DUP3 ADD PUSH1 0x40 MSTORE RETURNDATASIZE DUP3 MSTORE RETURNDATASIZE PUSH1 0x0 PUSH1 0x20 DUP5 ADD RETURNDATACOPY PUSH2 0x2353 JUMP JUMPDEST PUSH1 0x60 SWAP2 POP JUMPDEST POP SWAP1 SWAP3 POP SWAP1 POP DUP2 PUSH2 0x2376 JUMPI PUSH1 0x40 MLOAD PUSH3 0x461BCD PUSH1 0xE5 SHL DUP2 MSTORE PUSH1 0x4 ADD PUSH2 0xC71 SWAP1 PUSH2 0x3C25 JUMP JUMPDEST POP POP POP POP PUSH2 0xC8B JUMP JUMPDEST DUP2 DUP5 PUSH1 0x3 ADD SLOAD SUB PUSH2 0x24F6 JUMPI PUSH1 0x4 DUP5 ADD SLOAD PUSH1 0x0 SWAP1 PUSH2 0x23AE SWAP1 PUSH1 0x2 SWAP1 PUSH1 0x1 PUSH1 0x20 SHL SWAP1 DIV PUSH1 0x1 PUSH1 0x1 PUSH1 0x50 SHL SUB AND PUSH2 0x3BF1 JUMP JUMPDEST PUSH1 0x2 SLOAD PUSH1 0x4 DUP8 DUP2 ADD SLOAD PUSH1 0x40 MLOAD PUSH4 0x31A9108F PUSH1 0xE1 SHL DUP2 MSTORE PUSH1 0x1 PUSH1 0x80 SHL SWAP1 SWAP2 DIV PUSH2 0xFFFF AND SWAP2 DUP2 ADD SWAP2 SWAP1 SWAP2 MSTORE PUSH1 0x1 PUSH1 0x1 PUSH1 0x50 SHL SUB SWAP3 SWAP1 SWAP3 AND SWAP3 POP PUSH1 0x0 SWAP2 PUSH1 0x1 PUSH1 0x1 PUSH1 0xA0 SHL SUB SWAP1 SWAP2 AND SWAP1 PUSH4 0x6352211E SWAP1 PUSH1 0x24 ADD PUSH1 0x20 PUSH1 0x40 MLOAD DUP1 DUP4 SUB DUP2 DUP7 GAS STATICCALL ISZERO DUP1 ISZERO PUSH2 0x241A JUMPI RETURNDATASIZE PUSH1 0x0 DUP1 RETURNDATACOPY RETURNDATASIZE PUSH1 0x0 REVERT JUMPDEST POP POP POP POP PUSH1 0x40 MLOAD RETURNDATASIZE PUSH1 0x1F NOT PUSH1 0x1F DUP3 ADD AND DUP3 ADD DUP1 PUSH1 0x40 MSTORE POP DUP2 ADD SWAP1 PUSH2 0x243E SWAP2 SWAP1 PUSH2 0x3A4A JUMP JUMPDEST PUSH1 0x2 SLOAD PUSH1 0x4 DUP9 DUP2 ADD SLOAD PUSH1 0xC SLOAD PUSH1 0x40 MLOAD PUSH4 0x8AD4D6A5 PUSH1 0xE0 SHL DUP2 MSTORE PUSH1 0x1 PUSH1 0x80 SHL SWAP1 SWAP3 DIV PUSH2 0xFFFF AND SWAP3 DUP3 ADD SWAP3 SWAP1 SWAP3 MSTORE PUSH1 0x24 DUP2 ADD SWAP2 SWAP1 SWAP2 MSTORE SWAP2 SWAP3 POP PUSH1 0x1 PUSH1 0x1 PUSH1 0xA0 SHL SUB AND SWAP1 PUSH4 0x8AD4D6A5 SWAP1 PUSH1 0x44 ADD PUSH1 0x0 PUSH1 0x40 MLOAD DUP1 DUP4 SUB DUP2 PUSH1 0x0 DUP8 DUP1 EXTCODESIZE ISZERO DUP1 ISZERO PUSH2 0x24A2 JUMPI PUSH1 0x0 DUP1 REVERT JUMPDEST POP GAS CALL ISZERO DUP1 ISZERO PUSH2 0x24B6 JUMPI RETURNDATASIZE PUSH1 0x0 DUP1 RETURNDATACOPY RETURNDATASIZE PUSH1 0x0 REVERT JUMPDEST POP POP PUSH1 0x2 SLOAD PUSH1 0xC SLOAD PUSH1 0x40 MLOAD PUSH4 0x8AD4D6A5 PUSH1 0xE0 SHL DUP2 MSTORE PUSH1 0x4 DUP2 ADD DUP15 SWAP1 MSTORE PUSH1 0x24 DUP2 ADD SWAP2 SWAP1 SWAP2 MSTORE PUSH1 0x1 PUSH1 0x1 PUSH1 0xA0 SHL SUB SWAP1 SWAP2 AND SWAP3 POP PUSH4 0x8AD4D6A5 SWAP2 POP PUSH1 0x44 ADD PUSH2 0x2205 JUMP JUMPDEST PUSH1 0x4 DUP5 ADD SLOAD PUSH1 0x0 DUP8 DUP2 MSTORE PUSH1 0x9 PUSH1 0x20 MSTORE PUSH1 0x40 DUP2 KECCAK256 PUSH1 0x1 PUSH1 0x20 SHL SWAP1 SWAP3 DIV PUSH1 0x1 PUSH1 0x1 PUSH1 0x50 SHL SUB AND SWAP2 SWAP1 PUSH2 0x2526 DUP3 DUP3 PUSH2 0x2EAA JUMP JUMPDEST POP PUSH1 0x1 DUP2 ADD DUP1 SLOAD PUSH5 0xFFFFFFFFFF NOT AND SWAP1 SSTORE PUSH1 0x0 PUSH1 0x2 DUP3 ADD DUP2 SWAP1 SSTORE PUSH1 0x3 DUP3 ADD DUP2 SWAP1 SSTORE PUSH1 0x4 SWAP1 SWAP2 ADD DUP1 SLOAD PUSH1 0x1 PUSH1 0x1 PUSH1 0xB8 SHL SUB NOT AND SWAP1 SSTORE DUP1 PUSH2 0x256D PUSH1 0x1 SLOAD PUSH1 0x1 PUSH1 0x1 PUSH1 0xA0 SHL SUB AND SWAP1 JUMP JUMPDEST PUSH1 0x1 PUSH1 0x1 PUSH1 0xA0 SHL SUB AND DUP4 PUSH1 0x40 MLOAD PUSH1 0x0 PUSH1 0x40 MLOAD DUP1 DUP4 SUB DUP2 DUP6 DUP8 GAS CALL SWAP3 POP POP POP RETURNDATASIZE DUP1 PUSH1 0x0 DUP2 EQ PUSH2 0x25B7 JUMPI PUSH1 0x40 MLOAD SWAP2 POP PUSH1 0x1F NOT PUSH1 0x3F RETURNDATASIZE ADD AND DUP3 ADD PUSH1 0x40 MSTORE RETURNDATASIZE DUP3 MSTORE RETURNDATASIZE PUSH1 0x0 PUSH1 0x20 DUP5 ADD RETURNDATACOPY PUSH2 0x25BC JUMP JUMPDEST PUSH1 0x60 SWAP2 POP JUMPDEST POP SWAP2 POP SWAP2 POP DUP2 PUSH2 0x25DE JUMPI PUSH1 0x40 MLOAD PUSH3 0x461BCD PUSH1 0xE5 SHL DUP2 MSTORE PUSH1 0x4 ADD PUSH2 0xC71 SWAP1 PUSH2 0x3C25 JUMP JUMPDEST POP POP POP POP POP POP POP POP POP POP JUMP JUMPDEST PUSH1 0x1 SLOAD PUSH1 0x1 PUSH1 0x1 PUSH1 0xA0 SHL SUB AND CALLER EQ PUSH2 0x2614 JUMPI PUSH1 0x40 MLOAD PUSH3 0x461BCD PUSH1 0xE5 SHL DUP2 MSTORE PUSH1 0x4 ADD PUSH2 0xC71 SWAP1 PUSH2 0x37AC JUMP JUMPDEST PUSH1 0x1 PUSH1 0x1 PUSH1 0xA0 SHL SUB DUP2 AND PUSH2 0x2679 JUMPI PUSH1 0x40 MLOAD PUSH3 0x461BCD PUSH1 0xE5 SHL DUP2 MSTORE PUSH1 0x20 PUSH1 0x4 DUP3 ADD MSTORE PUSH1 0x26 PUSH1 0x24 DUP3 ADD MSTORE PUSH32 0x4F776E61626C653A206E6577206F776E657220697320746865207A65726F2061 PUSH1 0x44 DUP3 ADD MSTORE PUSH6 0x646472657373 PUSH1 0xD0 SHL PUSH1 0x64 DUP3 ADD MSTORE PUSH1 0x84 ADD PUSH2 0xC71 JUMP JUMPDEST PUSH2 0x2682 DUP2 PUSH2 0x2D07 JUMP JUMPDEST POP JUMP JUMPDEST PUSH1 0x0 DUP1 PUSH2 0x26A1 PUSH1 0x5 SLOAD PUSH1 0xF DUP2 DUP2 SIGNEXTEND PUSH1 0x1 PUSH1 0x80 SHL SWAP1 SWAP3 DIV SWAP1 SIGNEXTEND SUB SWAP1 JUMP JUMPDEST SWAP1 POP PUSH2 0x26AB PUSH2 0x2E56 JUMP JUMPDEST PUSH1 0x0 JUMPDEST DUP3 DUP2 LT ISZERO PUSH2 0x284A JUMPI PUSH1 0x9 PUSH1 0x0 PUSH2 0x26C5 PUSH1 0x5 DUP5 PUSH2 0x2B17 JUMP JUMPDEST PUSH1 0x0 SHR DUP2 MSTORE PUSH1 0x20 ADD SWAP1 DUP2 MSTORE PUSH1 0x20 ADD PUSH1 0x0 KECCAK256 PUSH1 0x40 MLOAD DUP1 PUSH2 0x140 ADD PUSH1 0x40 MSTORE SWAP1 DUP2 PUSH1 0x0 DUP3 ADD DUP1 SLOAD PUSH2 0x26F2 SWAP1 PUSH2 0x36F5 JUMP JUMPDEST DUP1 PUSH1 0x1F ADD PUSH1 0x20 DUP1 SWAP2 DIV MUL PUSH1 0x20 ADD PUSH1 0x40 MLOAD SWAP1 DUP2 ADD PUSH1 0x40 MSTORE DUP1 SWAP3 SWAP2 SWAP1 DUP2 DUP2 MSTORE PUSH1 0x20 ADD DUP3 DUP1 SLOAD PUSH2 0x271E SWAP1 PUSH2 0x36F5 JUMP JUMPDEST DUP1 ISZERO PUSH2 0x276B JUMPI DUP1 PUSH1 0x1F LT PUSH2 0x2740 JUMPI PUSH2 0x100 DUP1 DUP4 SLOAD DIV MUL DUP4 MSTORE SWAP2 PUSH1 0x20 ADD SWAP2 PUSH2 0x276B JUMP JUMPDEST DUP3 ADD SWAP2 SWAP1 PUSH1 0x0 MSTORE PUSH1 0x20 PUSH1 0x0 KECCAK256 SWAP1 JUMPDEST DUP2 SLOAD DUP2 MSTORE SWAP1 PUSH1 0x1 ADD SWAP1 PUSH1 0x20 ADD DUP1 DUP4 GT PUSH2 0x274E JUMPI DUP3 SWAP1 SUB PUSH1 0x1F AND DUP3 ADD SWAP2 JUMPDEST POP POP POP SWAP2 DUP4 MSTORE POP POP PUSH1 0x1 DUP3 ADD SLOAD PUSH5 0xFFFFFFFFFF SWAP1 DUP2 AND PUSH1 0x20 DUP4 ADD MSTORE PUSH1 0x2 DUP4 ADD SLOAD PUSH1 0x40 DUP4 ADD MSTORE PUSH1 0x3 DUP4 ADD SLOAD PUSH1 0x60 DUP4 ADD MSTORE PUSH1 0x4 SWAP1 SWAP3 ADD SLOAD PUSH1 0xFF DUP2 AND PUSH1 0x80 DUP4 ADD MSTORE PUSH2 0x100 DUP1 DUP3 DIV PUSH3 0xFFFFFF AND PUSH1 0xA0 DUP5 ADD MSTORE PUSH1 0x1 PUSH1 0x20 SHL DUP3 DIV PUSH1 0x1 PUSH1 0x1 PUSH1 0x50 SHL SUB AND PUSH1 0xC0 DUP5 ADD MSTORE PUSH1 0x1 PUSH1 0x70 SHL DUP3 DIV PUSH2 0xFFFF SWAP1 DUP2 AND PUSH1 0xE0 DUP6 ADD MSTORE PUSH1 0x1 PUSH1 0x80 SHL DUP4 DIV AND SWAP1 DUP4 ADD MSTORE PUSH1 0x1 PUSH1 0x90 SHL SWAP1 DIV DUP3 AND PUSH2 0x120 SWAP2 DUP3 ADD MSTORE DUP3 ADD MLOAD SWAP2 SWAP4 POP TIMESTAMP SWAP2 AND LT DUP1 ISZERO PUSH2 0x281D JUMPI POP DUP5 DUP3 PUSH1 0x20 ADD MLOAD PUSH5 0xFFFFFFFFFF AND EQ ISZERO JUMPDEST DUP1 ISZERO PUSH2 0x2832 JUMPI POP DUP5 DUP3 PUSH2 0x100 ADD MLOAD PUSH2 0xFFFF AND EQ ISZERO JUMPDEST ISZERO PUSH2 0x2842 JUMPI POP PUSH1 0x1 SWAP5 SWAP4 POP POP POP POP JUMP JUMPDEST PUSH1 0x1 ADD PUSH2 0x26AE JUMP JUMPDEST POP PUSH1 0x0 SWAP5 SWAP4 POP POP POP POP JUMP JUMPDEST PUSH1 0x0 JUMPDEST PUSH1 0x4 SLOAD DUP2 LT ISZERO PUSH2 0x29EE JUMPI DUP2 PUSH1 0x40 MLOAD PUSH1 0x20 ADD PUSH2 0x2873 SWAP2 SWAP1 PUSH2 0x3C53 JUMP JUMPDEST PUSH1 0x40 MLOAD PUSH1 0x20 DUP2 DUP4 SUB SUB DUP2 MSTORE SWAP1 PUSH1 0x40 MSTORE DUP1 MLOAD SWAP1 PUSH1 0x20 ADD KECCAK256 PUSH1 0x4 DUP3 DUP2 SLOAD DUP2 LT PUSH2 0x289C JUMPI PUSH2 0x289C PUSH2 0x372F JUMP JUMPDEST SWAP1 PUSH1 0x0 MSTORE PUSH1 0x20 PUSH1 0x0 KECCAK256 SWAP1 PUSH1 0x3 MUL ADD PUSH1 0x1 ADD PUSH1 0x40 MLOAD PUSH1 0x20 ADD PUSH2 0x28BD SWAP2 SWAP1 PUSH2 0x3C6F JUMP JUMPDEST PUSH1 0x40 MLOAD PUSH1 0x20 DUP2 DUP4 SUB SUB DUP2 MSTORE SWAP1 PUSH1 0x40 MSTORE DUP1 MLOAD SWAP1 PUSH1 0x20 ADD KECCAK256 SUB PUSH2 0x29E6 JUMPI PUSH1 0x0 PUSH1 0x4 DUP3 DUP2 SLOAD DUP2 LT PUSH2 0x28ED JUMPI PUSH2 0x28ED PUSH2 0x372F JUMP JUMPDEST SWAP1 PUSH1 0x0 MSTORE PUSH1 0x20 PUSH1 0x0 KECCAK256 SWAP1 PUSH1 0x3 MUL ADD SWAP1 POP PUSH1 0x0 PUSH1 0x4 PUSH1 0x1 PUSH1 0x4 DUP1 SLOAD SWAP1 POP PUSH2 0x2913 SWAP2 SWAP1 PUSH2 0x39E3 JUMP JUMPDEST DUP2 SLOAD DUP2 LT PUSH2 0x2923 JUMPI PUSH2 0x2923 PUSH2 0x372F JUMP JUMPDEST SWAP1 PUSH1 0x0 MSTORE PUSH1 0x20 PUSH1 0x0 KECCAK256 SWAP1 PUSH1 0x3 MUL ADD SWAP1 POP DUP1 SWAP2 POP PUSH1 0x4 PUSH1 0x1 PUSH1 0x4 DUP1 SLOAD SWAP1 POP PUSH2 0x294A SWAP2 SWAP1 PUSH2 0x39E3 JUMP JUMPDEST DUP2 SLOAD DUP2 LT PUSH2 0x295A JUMPI PUSH2 0x295A PUSH2 0x372F JUMP JUMPDEST SWAP1 PUSH1 0x0 MSTORE PUSH1 0x20 PUSH1 0x0 KECCAK256 SWAP1 PUSH1 0x3 MUL ADD PUSH1 0x0 PUSH1 0x1 DUP3 ADD PUSH1 0x0 PUSH2 0x297A SWAP2 SWAP1 PUSH2 0x2EAA JUMP JUMPDEST POP PUSH1 0x2 ADD DUP1 SLOAD PUSH1 0x1 PUSH1 0x1 PUSH1 0xB0 SHL SUB NOT AND SWAP1 SSTORE PUSH1 0x4 DUP1 SLOAD PUSH2 0x299C SWAP1 PUSH1 0x1 SWAP1 PUSH2 0x39E3 JUMP JUMPDEST DUP2 SLOAD DUP2 LT PUSH2 0x29AC JUMPI PUSH2 0x29AC PUSH2 0x372F JUMP JUMPDEST SWAP1 PUSH1 0x0 MSTORE PUSH1 0x20 PUSH1 0x0 KECCAK256 SWAP1 PUSH1 0x3 MUL ADD PUSH1 0x0 PUSH1 0x1 DUP3 ADD PUSH1 0x0 PUSH2 0x29CC SWAP2 SWAP1 PUSH2 0x2EAA JUMP JUMPDEST POP PUSH1 0x2 ADD DUP1 SLOAD PUSH1 0x1 PUSH1 0x1 PUSH1 0xB0 SHL SUB NOT AND SWAP1 SSTORE POP PUSH2 0x29EE SWAP1 POP JUMP JUMPDEST PUSH1 0x1 ADD PUSH2 0x2858 JUMP JUMPDEST POP POP JUMP JUMPDEST PUSH1 0x60 PUSH1 0x8 SLOAD DUP3 LT PUSH2 0x2A38 JUMPI PUSH1 0x40 MLOAD PUSH3 0x461BCD PUSH1 0xE5 SHL DUP2 MSTORE PUSH1 0x20 PUSH1 0x4 DUP3 ADD MSTORE PUSH1 0x10 PUSH1 0x24 DUP3 ADD MSTORE PUSH16 0x1B9BC81CDD58DA081C1C9BDC1BDCD85B PUSH1 0x82 SHL PUSH1 0x44 DUP3 ADD MSTORE PUSH1 0x64 ADD PUSH2 0xC71 JUMP JUMPDEST PUSH1 0x0 DUP3 DUP2 MSTORE PUSH1 0x7 PUSH1 0x20 MSTORE PUSH1 0x40 DUP2 KECCAK256 PUSH1 0x1 ADD SLOAD PUSH2 0xFFFF AND PUSH1 0x1 PUSH1 0x1 PUSH1 0x40 SHL SUB DUP2 GT ISZERO PUSH2 0x2A65 JUMPI PUSH2 0x2A65 PUSH2 0x2FA9 JUMP JUMPDEST PUSH1 0x40 MLOAD SWAP1 DUP1 DUP3 MSTORE DUP1 PUSH1 0x20 MUL PUSH1 0x20 ADD DUP3 ADD PUSH1 0x40 MSTORE DUP1 ISZERO PUSH2 0x2A8E JUMPI DUP2 PUSH1 0x20 ADD PUSH1 0x20 DUP3 MUL DUP1 CALLDATASIZE DUP4 CALLDATACOPY ADD SWAP1 POP JUMPDEST POP SWAP1 POP PUSH1 0x0 JUMPDEST DUP2 MLOAD DUP2 LT ISZERO PUSH2 0x2B10 JUMPI PUSH1 0x0 DUP5 DUP2 MSTORE PUSH1 0x7 PUSH1 0x20 MSTORE PUSH1 0x40 SWAP1 KECCAK256 PUSH1 0x2 ADD DUP2 PUSH1 0x8 DUP2 LT PUSH2 0x2ABF JUMPI PUSH2 0x2ABF PUSH2 0x372F JUMP JUMPDEST PUSH1 0x10 SWAP2 DUP3 DUP3 DIV ADD SWAP2 SWAP1 MOD PUSH1 0x2 MUL SWAP1 SLOAD SWAP1 PUSH2 0x100 EXP SWAP1 DIV PUSH2 0xFFFF AND DUP3 DUP3 DUP2 MLOAD DUP2 LT PUSH2 0x2AEB JUMPI PUSH2 0x2AEB PUSH2 0x372F JUMP JUMPDEST PUSH2 0xFFFF SWAP1 SWAP3 AND PUSH1 0x20 SWAP3 DUP4 MUL SWAP2 SWAP1 SWAP2 ADD SWAP1 SWAP2 ADD MSTORE DUP1 PUSH2 0x2B08 DUP2 PUSH2 0x3A31 JUMP JUMPDEST SWAP2 POP POP PUSH2 0x2A94 JUMP JUMPDEST POP SWAP3 SWAP2 POP POP JUMP JUMPDEST PUSH1 0x0 DUP1 PUSH2 0x2B3A PUSH2 0x2B26 DUP5 PUSH2 0x2D59 JUMP JUMPDEST DUP6 SLOAD PUSH2 0x2B35 SWAP2 SWAP1 PUSH1 0xF SIGNEXTEND PUSH2 0x3CE1 JUMP JUMPDEST PUSH2 0x2DC7 JUMP JUMPDEST DUP5 SLOAD SWAP1 SWAP2 POP PUSH1 0x1 PUSH1 0x80 SHL SWAP1 DIV PUSH1 0xF SWAP1 DUP2 SIGNEXTEND SWAP1 DUP3 SWAP1 SIGNEXTEND SLT PUSH2 0x2B6D JUMPI PUSH1 0x40 MLOAD PUSH4 0x2D0483C5 PUSH1 0xE2 SHL DUP2 MSTORE PUSH1 0x4 ADD PUSH1 0x40 MLOAD DUP1 SWAP2 SUB SWAP1 REVERT JUMPDEST PUSH1 0xF SIGNEXTEND PUSH1 0x0 SWAP1 DUP2 MSTORE PUSH1 0x1 SWAP4 SWAP1 SWAP4 ADD PUSH1 0x20 MSTORE POP POP PUSH1 0x40 SWAP1 KECCAK256 SLOAD SWAP1 JUMP JUMPDEST PUSH1 0x4 DUP1 SLOAD PUSH1 0x1 DUP2 ADD DUP1 DUP4 SSTORE PUSH1 0x0 DUP4 DUP2 MSTORE SWAP2 SWAP3 SWAP1 DUP4 SWAP1 DUP2 LT PUSH2 0x2BAB JUMPI PUSH2 0x2BAB PUSH2 0x372F JUMP JUMPDEST PUSH1 0x0 SWAP2 DUP3 MSTORE PUSH1 0x20 SWAP1 SWAP2 KECCAK256 PUSH1 0x3 SWAP1 SWAP2 MUL ADD SWAP1 POP PUSH1 0x1 DUP2 ADD PUSH2 0x2BCC DUP11 DUP13 DUP4 PUSH2 0x3A67 JUMP JUMPDEST POP PUSH1 0x0 DUP2 PUSH1 0x2 ADD PUSH1 0x0 PUSH2 0x100 EXP DUP2 SLOAD DUP2 PUSH1 0xFF MUL NOT AND SWAP1 DUP4 ISZERO ISZERO MUL OR SWAP1 SSTORE POP DUP8 DUP2 PUSH1 0x2 ADD PUSH1 0x1 PUSH2 0x100 EXP DUP2 SLOAD DUP2 PUSH5 0xFFFFFFFFFF MUL NOT AND SWAP1 DUP4 PUSH5 0xFFFFFFFFFF AND MUL OR SWAP1 SSTORE POP DUP7 DUP2 PUSH1 0x2 ADD PUSH1 0x6 PUSH2 0x100 EXP DUP2 SLOAD DUP2 PUSH1 0xFF MUL NOT AND SWAP1 DUP4 PUSH1 0xFF AND MUL OR SWAP1 SSTORE POP DUP6 DUP2 PUSH1 0x2 ADD PUSH1 0x7 PUSH2 0x100 EXP DUP2 SLOAD DUP2 PUSH3 0xFFFFFF MUL NOT AND SWAP1 DUP4 PUSH3 0xFFFFFF AND MUL OR SWAP1 SSTORE POP DUP5 DUP2 PUSH1 0x2 ADD PUSH1 0xA PUSH2 0x100 EXP DUP2 SLOAD DUP2 PUSH5 0xFFFFFFFFFF MUL NOT AND SWAP1 DUP4 PUSH5 0xFFFFFFFFFF AND MUL OR SWAP1 SSTORE POP DUP4 DUP2 PUSH1 0x2 ADD PUSH1 0xF PUSH2 0x100 EXP DUP2 SLOAD DUP2 PUSH5 0xFFFFFFFFFF MUL NOT AND SWAP1 DUP4 PUSH5 0xFFFFFFFFFF AND MUL OR SWAP1 SSTORE POP DUP3 DUP2 PUSH1 0x2 ADD PUSH1 0x14 PUSH2 0x100 EXP DUP2 SLOAD DUP2 PUSH2 0xFFFF MUL NOT AND SWAP1 DUP4 PUSH2 0xFFFF AND MUL OR SWAP1 SSTORE POP PUSH32 0x2810025950962E3CD71FD98C2DC111FFBDB2A129B36771DF8D36A7DE2FE3E4E0 DUP11 DUP11 DUP11 DUP11 DUP11 DUP11 DUP11 DUP11 PUSH1 0x40 MLOAD PUSH2 0x2CF3 SWAP9 SWAP8 SWAP7 SWAP6 SWAP5 SWAP4 SWAP3 SWAP2 SWAP1 PUSH2 0x3D22 JUMP JUMPDEST PUSH1 0x40 MLOAD DUP1 SWAP2 SUB SWAP1 LOG1 POP POP POP POP POP POP POP POP POP POP JUMP JUMPDEST PUSH1 0x1 DUP1 SLOAD PUSH1 0x1 PUSH1 0x1 PUSH1 0xA0 SHL SUB DUP4 DUP2 AND PUSH1 0x1 PUSH1 0x1 PUSH1 0xA0 SHL SUB NOT DUP4 AND DUP2 OR SWAP1 SWAP4 SSTORE PUSH1 0x40 MLOAD SWAP2 AND SWAP2 SWAP1 DUP3 SWAP1 PUSH32 0x8BE0079C531659141344CD1FD0A4F28419497F9722A3DAAFE3B4186F6B6457E0 SWAP1 PUSH1 0x0 SWAP1 LOG3 POP POP JUMP JUMPDEST PUSH1 0x0 PUSH1 0x1 PUSH1 0x1 PUSH1 0xFF SHL SUB DUP3 GT ISZERO PUSH2 0x2DC3 JUMPI PUSH1 0x40 MLOAD PUSH3 0x461BCD PUSH1 0xE5 SHL DUP2 MSTORE PUSH1 0x20 PUSH1 0x4 DUP3 ADD MSTORE PUSH1 0x28 PUSH1 0x24 DUP3 ADD MSTORE PUSH32 0x53616665436173743A2076616C756520646F65736E27742066697420696E2061 PUSH1 0x44 DUP3 ADD MSTORE PUSH8 0x371034B73A191A9B PUSH1 0xC1 SHL PUSH1 0x64 DUP3 ADD MSTORE PUSH1 0x84 ADD PUSH2 0xC71 JUMP JUMPDEST POP SWAP1 JUMP JUMPDEST PUSH1 0x0 PUSH16 0x7FFFFFFFFFFFFFFFFFFFFFFFFFFFFFFF NOT DUP3 SLT DUP1 ISZERO SWAP1 PUSH2 0x2DFA JUMPI POP PUSH16 0x7FFFFFFFFFFFFFFFFFFFFFFFFFFFFFFF DUP3 SGT ISZERO JUMPDEST PUSH2 0x2DC3 JUMPI PUSH1 0x40 MLOAD PUSH3 0x461BCD PUSH1 0xE5 SHL DUP2 MSTORE PUSH1 0x20 PUSH1 0x4 DUP3 ADD MSTORE PUSH1 0x27 PUSH1 0x24 DUP3 ADD MSTORE PUSH32 0x53616665436173743A2076616C756520646F65736E27742066697420696E2031 PUSH1 0x44 DUP3 ADD MSTORE PUSH7 0x32382062697473 PUSH1 0xC8 SHL PUSH1 0x64 DUP3 ADD MSTORE PUSH1 0x84 ADD PUSH2 0xC71 JUMP JUMPDEST PUSH1 0x40 DUP1 MLOAD PUSH2 0x140 DUP2 ADD DUP3 MSTORE PUSH1 0x60 DUP1 DUP3 MSTORE PUSH1 0x0 PUSH1 0x20 DUP4 ADD DUP2 SWAP1 MSTORE SWAP3 DUP3 ADD DUP4 SWAP1 MSTORE DUP2 ADD DUP3 SWAP1 MSTORE PUSH1 0x80 DUP2 ADD DUP3 SWAP1 MSTORE PUSH1 0xA0 DUP2 ADD DUP3 SWAP1 MSTORE PUSH1 0xC0 DUP2 ADD DUP3 SWAP1 MSTORE PUSH1 0xE0 DUP2 ADD DUP3 SWAP1 MSTORE PUSH2 0x100 DUP2 ADD DUP3 SWAP1 MSTORE PUSH2 0x120 DUP2 ADD SWAP2 SWAP1 SWAP2 MSTORE SWAP1 JUMP JUMPDEST POP DUP1 SLOAD PUSH2 0x2EB6 SWAP1 PUSH2 0x36F5 JUMP JUMPDEST PUSH1 0x0 DUP3 SSTORE DUP1 PUSH1 0x1F LT PUSH2 0x2EC6 JUMPI POP POP JUMP JUMPDEST PUSH1 0x1F ADD PUSH1 0x20 SWAP1 DIV SWAP1 PUSH1 0x0 MSTORE PUSH1 0x20 PUSH1 0x0 KECCAK256 SWAP1 DUP2 ADD SWAP1 PUSH2 0x2682 SWAP2 SWAP1 JUMPDEST DUP1 DUP3 GT ISZERO PUSH2 0x2DC3 JUMPI PUSH1 0x0 DUP2 SSTORE PUSH1 0x1 ADD PUSH2 0x2EE0 JUMP JUMPDEST PUSH1 0x0 PUSH1 0x20 DUP3 DUP5 SUB SLT ISZERO PUSH2 0x2F06 JUMPI PUSH1 0x0 DUP1 REVERT JUMPDEST POP CALLDATALOAD SWAP2 SWAP1 POP JUMP JUMPDEST PUSH1 0x0 JUMPDEST DUP4 DUP2 LT ISZERO PUSH2 0x2F28 JUMPI DUP2 DUP2 ADD MLOAD DUP4 DUP3 ADD MSTORE PUSH1 0x20 ADD PUSH2 0x2F10 JUMP JUMPDEST DUP4 DUP2 GT ISZERO PUSH2 0x1194 JUMPI POP POP PUSH1 0x0 SWAP2 ADD MSTORE JUMP JUMPDEST PUSH1 0x0 DUP2 MLOAD DUP1 DUP5 MSTORE PUSH2 0x2F51 DUP2 PUSH1 0x20 DUP7 ADD PUSH1 0x20 DUP7 ADD PUSH2 0x2F0D JUMP JUMPDEST PUSH1 0x1F ADD PUSH1 0x1F NOT AND SWAP3 SWAP1 SWAP3 ADD PUSH1 0x20 ADD SWAP3 SWAP2 POP POP JUMP JUMPDEST PUSH1 0xA0 DUP2 MSTORE PUSH1 0x0 PUSH2 0x2F78 PUSH1 0xA0 DUP4 ADD DUP9 PUSH2 0x2F39 JUMP JUMPDEST PUSH2 0xFFFF SWAP7 SWAP1 SWAP7 AND PUSH1 0x20 DUP4 ADD MSTORE POP PUSH5 0xFFFFFFFFFF SWAP4 DUP5 AND PUSH1 0x40 DUP3 ADD MSTORE SWAP2 DUP4 AND PUSH1 0x60 DUP4 ADD MSTORE SWAP1 SWAP2 AND PUSH1 0x80 SWAP1 SWAP2 ADD MSTORE SWAP2 SWAP1 POP JUMP JUMPDEST PUSH4 0x4E487B71 PUSH1 0xE0 SHL PUSH1 0x0 MSTORE PUSH1 0x41 PUSH1 0x4 MSTORE PUSH1 0x24 PUSH1 0x0 REVERT JUMPDEST PUSH1 0x40 MLOAD PUSH1 0x1F DUP3 ADD PUSH1 0x1F NOT AND DUP2 ADD PUSH1 0x1 PUSH1 0x1 PUSH1 0x40 SHL SUB DUP2 GT DUP3 DUP3 LT OR ISZERO PUSH2 0x2FE7 JUMPI PUSH2 0x2FE7 PUSH2 0x2FA9 JUMP JUMPDEST PUSH1 0x40 MSTORE SWAP2 SWAP1 POP JUMP JUMPDEST PUSH1 0x0 DUP3 PUSH1 0x1F DUP4 ADD SLT PUSH2 0x3000 JUMPI PUSH1 0x0 DUP1 REVERT JUMPDEST DUP2 CALLDATALOAD PUSH1 0x20 PUSH1 0x1 PUSH1 0x1 PUSH1 0x40 SHL SUB DUP3 GT ISZERO PUSH2 0x301B JUMPI PUSH2 0x301B PUSH2 0x2FA9 JUMP JUMPDEST DUP2 PUSH1 0x5 SHL PUSH2 0x302A DUP3 DUP3 ADD PUSH2 0x2FBF JUMP JUMPDEST SWAP3 DUP4 MSTORE DUP5 DUP2 ADD DUP3 ADD SWAP3 DUP3 DUP2 ADD SWAP1 DUP8 DUP6 GT ISZERO PUSH2 0x3044 JUMPI PUSH1 0x0 DUP1 REVERT JUMPDEST DUP4 DUP8 ADD SWAP3 POP JUMPDEST DUP5 DUP4 LT ISZERO PUSH2 0x3063 JUMPI DUP3 CALLDATALOAD DUP3 MSTORE SWAP2 DUP4 ADD SWAP2 SWAP1 DUP4 ADD SWAP1 PUSH2 0x304A JUMP JUMPDEST SWAP8 SWAP7 POP POP POP POP POP POP POP JUMP JUMPDEST PUSH1 0x0 DUP1 PUSH1 0x0 PUSH1 0x60 DUP5 DUP7 SUB SLT ISZERO PUSH2 0x3083 JUMPI PUSH1 0x0 DUP1 REVERT JUMPDEST DUP4 CALLDATALOAD SWAP3 POP PUSH1 0x20 DUP5 ADD CALLDATALOAD PUSH1 0x1 PUSH1 0x1 PUSH1 0x40 SHL SUB DUP2 GT ISZERO PUSH2 0x30A0 JUMPI PUSH1 0x0 DUP1 REVERT JUMPDEST PUSH2 0x30AC DUP7 DUP3 DUP8 ADD PUSH2 0x2FEF JUMP JUMPDEST SWAP3 POP POP PUSH1 0x40 DUP5 ADD CALLDATALOAD DUP1 ISZERO ISZERO DUP2 EQ PUSH2 0x30C2 JUMPI PUSH1 0x0 DUP1 REVERT JUMPDEST DUP1 SWAP2 POP POP SWAP3 POP SWAP3 POP SWAP3 JUMP JUMPDEST PUSH1 0x0 PUSH2 0x100 DUP1 DUP4 MSTORE PUSH2 0x30E1 DUP2 DUP5 ADD DUP13 PUSH2 0x2F39 JUMP JUMPDEST SWAP10 ISZERO ISZERO PUSH1 0x20 DUP5 ADD MSTORE POP POP PUSH5 0xFFFFFFFFFF SWAP7 DUP8 AND PUSH1 0x40 DUP3 ADD MSTORE PUSH1 0xFF SWAP6 SWAP1 SWAP6 AND PUSH1 0x60 DUP7 ADD MSTORE PUSH3 0xFFFFFF SWAP4 SWAP1 SWAP4 AND PUSH1 0x80 DUP6 ADD MSTORE SWAP1 DUP5 AND PUSH1 0xA0 DUP5 ADD MSTORE SWAP1 SWAP3 AND PUSH1 0xC0 DUP3 ADD MSTORE PUSH2 0xFFFF SWAP1 SWAP2 AND PUSH1 0xE0 SWAP1 SWAP2 ADD MSTORE SWAP2 SWAP1 POP JUMP JUMPDEST DUP1 CALLDATALOAD PUSH5 0xFFFFFFFFFF DUP2 AND DUP2 EQ PUSH2 0x3147 JUMPI PUSH1 0x0 DUP1 REVERT JUMPDEST SWAP2 SWAP1 POP JUMP JUMPDEST PUSH1 0x0 PUSH1 0x20 DUP3 DUP5 SUB SLT ISZERO PUSH2 0x315E JUMPI PUSH1 0x0 DUP1 REVERT JUMPDEST PUSH2 0x3167 DUP3 PUSH2 0x3132 JUMP JUMPDEST SWAP4 SWAP3 POP POP POP JUMP JUMPDEST PUSH1 0x0 PUSH2 0x140 DUP3 MLOAD DUP2 DUP6 MSTORE PUSH2 0x3184 DUP3 DUP7 ADD DUP3 PUSH2 0x2F39 JUMP JUMPDEST SWAP2 POP POP PUSH1 0x20 DUP4 ADD MLOAD PUSH2 0x319F PUSH1 0x20 DUP7 ADD DUP3 PUSH5 0xFFFFFFFFFF AND SWAP1 MSTORE JUMP JUMPDEST POP PUSH1 0x40 DUP4 ADD MLOAD PUSH1 0x40 DUP6 ADD MSTORE PUSH1 0x60 DUP4 ADD MLOAD PUSH1 0x60 DUP6 ADD MSTORE PUSH1 0x80 DUP4 ADD MLOAD PUSH2 0x31C8 PUSH1 0x80 DUP7 ADD DUP3 PUSH1 0xFF AND SWAP1 MSTORE JUMP JUMPDEST POP PUSH1 0xA0 DUP4 ADD MLOAD PUSH2 0x31DF PUSH1 0xA0 DUP7 ADD DUP3 PUSH3 0xFFFFFF AND SWAP1 MSTORE JUMP JUMPDEST POP PUSH1 0xC0 DUP4 ADD MLOAD PUSH2 0x31FA PUSH1 0xC0 DUP7 ADD DUP3 PUSH1 0x1 PUSH1 0x1 PUSH1 0x50 SHL SUB AND SWAP1 MSTORE JUMP JUMPDEST POP PUSH1 0xE0 DUP4 ADD MLOAD PUSH2 0x3210 PUSH1 0xE0 DUP7 ADD DUP3 PUSH2 0xFFFF AND SWAP1 MSTORE JUMP JUMPDEST POP PUSH2 0x100 DUP4 DUP2 ADD MLOAD PUSH2 0xFFFF AND SWAP1 DUP6 ADD MSTORE PUSH2 0x120 DUP1 DUP5 ADD MLOAD PUSH5 0xFFFFFFFFFF DUP2 AND DUP3 DUP8 ADD MSTORE PUSH2 0x19E9 JUMP JUMPDEST PUSH1 0x0 PUSH1 0x20 DUP1 DUP4 ADD DUP2 DUP5 MSTORE DUP1 DUP6 MLOAD DUP1 DUP4 MSTORE PUSH1 0x40 DUP7 ADD SWAP2 POP PUSH1 0x40 DUP2 PUSH1 0x5 SHL DUP8 ADD ADD SWAP3 POP DUP4 DUP8 ADD PUSH1 0x0 JUMPDEST DUP3 DUP2 LT ISZERO PUSH2 0x328D JUMPI PUSH1 0x3F NOT DUP9 DUP7 SUB ADD DUP5 MSTORE PUSH2 0x327B DUP6 DUP4 MLOAD PUSH2 0x316E JUMP JUMPDEST SWAP5 POP SWAP3 DUP6 ADD SWAP3 SWAP1 DUP6 ADD SWAP1 PUSH1 0x1 ADD PUSH2 0x325F JUMP JUMPDEST POP SWAP3 SWAP8 SWAP7 POP POP POP POP POP POP POP JUMP JUMPDEST PUSH1 0x0 DUP1 DUP4 PUSH1 0x1F DUP5 ADD SLT PUSH2 0x32AC JUMPI PUSH1 0x0 DUP1 REVERT JUMPDEST POP DUP2 CALLDATALOAD PUSH1 0x1 PUSH1 0x1 PUSH1 0x40 SHL SUB DUP2 GT ISZERO PUSH2 0x32C3 JUMPI PUSH1 0x0 DUP1 REVERT JUMPDEST PUSH1 0x20 DUP4 ADD SWAP2 POP DUP4 PUSH1 0x20 DUP3 DUP6 ADD ADD GT ISZERO PUSH2 0x32DB JUMPI PUSH1 0x0 DUP1 REVERT JUMPDEST SWAP3 POP SWAP3 SWAP1 POP JUMP JUMPDEST DUP1 CALLDATALOAD PUSH3 0xFFFFFF DUP2 AND DUP2 EQ PUSH2 0x3147 JUMPI PUSH1 0x0 DUP1 REVERT JUMPDEST DUP1 CALLDATALOAD PUSH2 0xFFFF DUP2 AND DUP2 EQ PUSH2 0x3147 JUMPI PUSH1 0x0 DUP1 REVERT JUMPDEST PUSH1 0x0 DUP1 PUSH1 0x0 DUP1 PUSH1 0x0 DUP1 PUSH1 0x0 PUSH1 0xC0 DUP9 DUP11 SUB SLT ISZERO PUSH2 0x3322 JUMPI PUSH1 0x0 DUP1 REVERT JUMPDEST DUP8 CALLDATALOAD PUSH1 0x1 PUSH1 0x1 PUSH1 0x40 SHL SUB DUP2 GT ISZERO PUSH2 0x3338 JUMPI PUSH1 0x0 DUP1 REVERT JUMPDEST PUSH2 0x3344 DUP11 DUP3 DUP12 ADD PUSH2 0x329A JUMP JUMPDEST SWAP1 SWAP9 POP SWAP7 POP POP PUSH1 0x20 DUP9 ADD CALLDATALOAD PUSH1 0xFF DUP2 AND DUP2 EQ PUSH2 0x335E JUMPI PUSH1 0x0 DUP1 REVERT JUMPDEST SWAP5 POP PUSH2 0x336C PUSH1 0x40 DUP10 ADD PUSH2 0x32E2 JUMP JUMPDEST SWAP4 POP PUSH2 0x337A PUSH1 0x60 DUP10 ADD PUSH2 0x3132 JUMP JUMPDEST SWAP3 POP PUSH2 0x3388 PUSH1 0x80 DUP10 ADD PUSH2 0x3132 JUMP JUMPDEST SWAP2 POP PUSH2 0x3396 PUSH1 0xA0 DUP10 ADD PUSH2 0x32F5 JUMP JUMPDEST SWAP1 POP SWAP3 SWAP6 SWAP9 SWAP2 SWAP5 SWAP8 POP SWAP3 SWAP6 POP JUMP JUMPDEST PUSH1 0x0 DUP1 PUSH1 0x40 DUP4 DUP6 SUB SLT ISZERO PUSH2 0x33B7 JUMPI PUSH1 0x0 DUP1 REVERT JUMPDEST POP POP DUP1 CALLDATALOAD SWAP3 PUSH1 0x20 SWAP1 SWAP2 ADD CALLDATALOAD SWAP2 POP JUMP JUMPDEST PUSH1 0x1 PUSH1 0x1 PUSH1 0xA0 SHL SUB DUP2 AND DUP2 EQ PUSH2 0x2682 JUMPI PUSH1 0x0 DUP1 REVERT JUMPDEST PUSH1 0x0 PUSH1 0x20 DUP3 DUP5 SUB SLT ISZERO PUSH2 0x33ED JUMPI PUSH1 0x0 DUP1 REVERT JUMPDEST DUP2 CALLDATALOAD PUSH2 0x3167 DUP2 PUSH2 0x33C6 JUMP JUMPDEST PUSH1 0x0 DUP3 PUSH1 0x1F DUP4 ADD SLT PUSH2 0x3409 JUMPI PUSH1 0x0 DUP1 REVERT JUMPDEST DUP2 CALLDATALOAD PUSH1 0x1 PUSH1 0x1 PUSH1 0x40 SHL SUB DUP2 GT ISZERO PUSH2 0x3422 JUMPI PUSH2 0x3422 PUSH2 0x2FA9 JUMP JUMPDEST PUSH2 0x3435 PUSH1 0x1F DUP3 ADD PUSH1 0x1F NOT AND PUSH1 0x20 ADD PUSH2 0x2FBF JUMP JUMPDEST DUP2 DUP2 MSTORE DUP5 PUSH1 0x20 DUP4 DUP7 ADD ADD GT ISZERO PUSH2 0x344A JUMPI PUSH1 0x0 DUP1 REVERT JUMPDEST DUP2 PUSH1 0x20 DUP6 ADD PUSH1 0x20 DUP4 ADD CALLDATACOPY PUSH1 0x0 SWAP2 DUP2 ADD PUSH1 0x20 ADD SWAP2 SWAP1 SWAP2 MSTORE SWAP4 SWAP3 POP POP POP JUMP JUMPDEST PUSH1 0x0 DUP1 PUSH1 0x0 PUSH1 0x60 DUP5 DUP7 SUB SLT ISZERO PUSH2 0x347C JUMPI PUSH1 0x0 DUP1 REVERT JUMPDEST DUP4 CALLDATALOAD PUSH1 0x1 PUSH1 0x1 PUSH1 0x40 SHL SUB DUP2 GT ISZERO PUSH2 0x3492 JUMPI PUSH1 0x0 DUP1 REVERT JUMPDEST PUSH2 0x349E DUP7 DUP3 DUP8 ADD PUSH2 0x33F8 JUMP JUMPDEST SWAP4 POP POP PUSH1 0x20 DUP5 ADD CALLDATALOAD SWAP2 POP PUSH2 0x34B4 PUSH1 0x40 DUP6 ADD PUSH2 0x3132 JUMP JUMPDEST SWAP1 POP SWAP3 POP SWAP3 POP SWAP3 JUMP JUMPDEST PUSH1 0x0 DUP1 PUSH1 0x0 PUSH1 0x60 DUP5 DUP7 SUB SLT ISZERO PUSH2 0x34D2 JUMPI PUSH1 0x0 DUP1 REVERT JUMPDEST POP POP DUP2 CALLDATALOAD SWAP4 PUSH1 0x20 DUP4 ADD CALLDATALOAD SWAP4 POP PUSH1 0x40 SWAP1 SWAP3 ADD CALLDATALOAD SWAP2 SWAP1 POP JUMP JUMPDEST PUSH1 0x0 PUSH2 0x140 DUP1 DUP4 MSTORE PUSH2 0x34FD DUP2 DUP5 ADD DUP15 PUSH2 0x2F39 JUMP JUMPDEST PUSH5 0xFFFFFFFFFF SWAP13 DUP14 AND PUSH1 0x20 DUP6 ADD MSTORE PUSH1 0x40 DUP5 ADD SWAP12 SWAP1 SWAP12 MSTORE POP POP PUSH1 0x60 DUP2 ADD SWAP8 SWAP1 SWAP8 MSTORE PUSH1 0xFF SWAP6 SWAP1 SWAP6 AND PUSH1 0x80 DUP8 ADD MSTORE PUSH3 0xFFFFFF SWAP4 SWAP1 SWAP4 AND PUSH1 0xA0 DUP7 ADD MSTORE PUSH1 0x1 PUSH1 0x1 PUSH1 0x50 SHL SUB SWAP2 SWAP1 SWAP2 AND PUSH1 0xC0 DUP6 ADD MSTORE PUSH2 0xFFFF SWAP1 DUP2 AND PUSH1 0xE0 DUP6 ADD MSTORE AND PUSH2 0x100 DUP4 ADD MSTORE SWAP1 SWAP3 AND PUSH2 0x120 SWAP1 SWAP3 ADD SWAP2 SWAP1 SWAP2 MSTORE SWAP2 SWAP1 POP JUMP JUMPDEST PUSH1 0x20 DUP2 MSTORE PUSH1 0x0 PUSH2 0x3167 PUSH1 0x20 DUP4 ADD DUP5 PUSH2 0x316E JUMP JUMPDEST PUSH1 0x0 PUSH1 0x20 DUP1 DUP4 ADD DUP2 DUP5 MSTORE DUP1 DUP6 MLOAD DUP1 DUP4 MSTORE PUSH1 0x40 DUP7 ADD SWAP2 POP PUSH1 0x40 DUP2 PUSH1 0x5 SHL DUP8 ADD ADD SWAP3 POP DUP4 DUP8 ADD PUSH1 0x0 JUMPDEST DUP3 DUP2 LT ISZERO PUSH2 0x328D JUMPI PUSH1 0x3F NOT DUP9 DUP7 SUB ADD DUP5 MSTORE PUSH2 0x35C0 DUP6 DUP4 MLOAD PUSH2 0x2F39 JUMP JUMPDEST SWAP5 POP SWAP3 DUP6 ADD SWAP3 SWAP1 DUP6 ADD SWAP1 PUSH1 0x1 ADD PUSH2 0x35A4 JUMP JUMPDEST PUSH1 0x0 DUP1 PUSH1 0x0 DUP1 PUSH1 0x0 DUP1 PUSH1 0x0 PUSH1 0xC0 DUP9 DUP11 SUB SLT ISZERO PUSH2 0x35ED JUMPI PUSH1 0x0 DUP1 REVERT JUMPDEST DUP8 CALLDATALOAD PUSH1 0x1 PUSH1 0x1 PUSH1 0x40 SHL SUB DUP2 GT ISZERO PUSH2 0x3603 JUMPI PUSH1 0x0 DUP1 REVERT JUMPDEST PUSH2 0x360F DUP11 DUP3 DUP12 ADD PUSH2 0x329A JUMP JUMPDEST SWAP1 SWAP9 POP SWAP7 POP PUSH2 0x335E SWAP1 POP PUSH1 0x20 DUP10 ADD PUSH2 0x32F5 JUMP JUMPDEST PUSH1 0x0 DUP1 PUSH1 0x0 PUSH1 0x60 DUP5 DUP7 SUB SLT ISZERO PUSH2 0x3637 JUMPI PUSH1 0x0 DUP1 REVERT JUMPDEST DUP4 CALLDATALOAD SWAP3 POP PUSH1 0x20 DUP5 ADD CALLDATALOAD SWAP2 POP PUSH1 0x40 DUP5 ADD CALLDATALOAD PUSH1 0x1 PUSH1 0x1 PUSH1 0x40 SHL SUB DUP2 GT ISZERO PUSH2 0x365B JUMPI PUSH1 0x0 DUP1 REVERT JUMPDEST PUSH2 0x3667 DUP7 DUP3 DUP8 ADD PUSH2 0x2FEF JUMP JUMPDEST SWAP2 POP POP SWAP3 POP SWAP3 POP SWAP3 JUMP JUMPDEST PUSH1 0x0 PUSH1 0x20 DUP3 DUP5 SUB SLT ISZERO PUSH2 0x3683 JUMPI PUSH1 0x0 DUP1 REVERT JUMPDEST DUP2 CALLDATALOAD PUSH1 0x1 PUSH1 0x1 PUSH1 0x40 SHL SUB DUP2 GT ISZERO PUSH2 0x3699 JUMPI PUSH1 0x0 DUP1 REVERT JUMPDEST PUSH2 0x36A5 DUP5 DUP3 DUP6 ADD PUSH2 0x33F8 JUMP JUMPDEST SWAP5 SWAP4 POP POP POP POP JUMP JUMPDEST PUSH1 0x20 DUP1 DUP3 MSTORE DUP3 MLOAD DUP3 DUP3 ADD DUP2 SWAP1 MSTORE PUSH1 0x0 SWAP2 SWAP1 DUP5 DUP3 ADD SWAP1 PUSH1 0x40 DUP6 ADD SWAP1 DUP5 JUMPDEST DUP2 DUP2 LT ISZERO PUSH2 0x36E9 JUMPI DUP4 MLOAD PUSH2 0xFFFF AND DUP4 MSTORE SWAP3 DUP5 ADD SWAP3 SWAP2 DUP5 ADD SWAP2 PUSH1 0x1 ADD PUSH2 0x36C9 JUMP JUMPDEST POP SWAP1 SWAP7 SWAP6 POP POP POP POP POP POP JUMP JUMPDEST PUSH1 0x1 DUP2 DUP2 SHR SWAP1 DUP3 AND DUP1 PUSH2 0x3709 JUMPI PUSH1 0x7F DUP3 AND SWAP2 POP JUMPDEST PUSH1 0x20 DUP3 LT DUP2 SUB PUSH2 0x3729 JUMPI PUSH4 0x4E487B71 PUSH1 0xE0 SHL PUSH1 0x0 MSTORE PUSH1 0x22 PUSH1 0x4 MSTORE PUSH1 0x24 PUSH1 0x0 REVERT JUMPDEST POP SWAP2 SWAP1 POP JUMP JUMPDEST PUSH4 0x4E487B71 PUSH1 0xE0 SHL PUSH1 0x0 MSTORE PUSH1 0x32 PUSH1 0x4 MSTORE PUSH1 0x24 PUSH1 0x0 REVERT JUMPDEST DUP2 MLOAD PUSH1 0x0 SWAP1 DUP3 SWAP1 PUSH1 0x20 DUP1 DUP7 ADD DUP5 JUMPDEST DUP4 DUP2 LT ISZERO PUSH2 0x376F JUMPI DUP2 MLOAD DUP6 MSTORE SWAP4 DUP3 ADD SWAP4 SWAP1 DUP3 ADD SWAP1 PUSH1 0x1 ADD PUSH2 0x3753 JUMP JUMPDEST POP SWAP3 SWAP7 SWAP6 POP POP POP POP POP POP JUMP JUMPDEST DUP5 DUP2 MSTORE DUP4 ISZERO ISZERO PUSH1 0x20 DUP3 ADD MSTORE DUP3 PUSH1 0x40 DUP3 ADD MSTORE PUSH1 0x80 PUSH1 0x60 DUP3 ADD MSTORE PUSH1 0x0 PUSH2 0x37A2 PUSH1 0x80 DUP4 ADD DUP5 PUSH2 0x2F39 JUMP JUMPDEST SWAP7 SWAP6 POP POP POP POP POP POP JUMP JUMPDEST PUSH1 0x20 DUP1 DUP3 MSTORE DUP2 DUP2 ADD MSTORE PUSH32 0x4F776E61626C653A2063616C6C6572206973206E6F7420746865206F776E6572 PUSH1 0x40 DUP3 ADD MSTORE PUSH1 0x60 ADD SWAP1 JUMP JUMPDEST PUSH1 0x20 DUP2 MSTORE PUSH1 0x0 PUSH2 0x3167 PUSH1 0x20 DUP4 ADD DUP5 PUSH2 0x2F39 JUMP JUMPDEST PUSH1 0x0 DUP2 SLOAD PUSH2 0x3801 DUP2 PUSH2 0x36F5 JUMP JUMPDEST DUP1 DUP6 MSTORE PUSH1 0x20 PUSH1 0x1 DUP4 DUP2 AND DUP1 ISZERO PUSH2 0x381E JUMPI PUSH1 0x1 DUP2 EQ PUSH2 0x3838 JUMPI PUSH2 0x3866 JUMP JUMPDEST PUSH1 0xFF NOT DUP6 AND DUP9 DUP5 ADD MSTORE DUP4 ISZERO ISZERO PUSH1 0x5 SHL DUP9 ADD DUP4 ADD SWAP6 POP PUSH2 0x3866 JUMP JUMPDEST DUP7 PUSH1 0x0 MSTORE DUP3 PUSH1 0x0 KECCAK256 PUSH1 0x0 JUMPDEST DUP6 DUP2 LT ISZERO PUSH2 0x385E JUMPI DUP2 SLOAD DUP11 DUP3 ADD DUP7 ADD MSTORE SWAP1 DUP4 ADD SWAP1 DUP5 ADD PUSH2 0x3843 JUMP JUMPDEST DUP10 ADD DUP5 ADD SWAP7 POP POP JUMPDEST POP POP POP POP POP SWAP3 SWAP2 POP POP JUMP JUMPDEST PUSH1 0x20 DUP2 MSTORE PUSH1 0x0 PUSH2 0x3167 PUSH1 0x20 DUP4 ADD DUP5 PUSH2 0x37F4 JUMP JUMPDEST PUSH1 0x1F DUP3 GT ISZERO PUSH2 0x38CE JUMPI PUSH1 0x0 DUP2 DUP2 MSTORE PUSH1 0x20 DUP2 KECCAK256 PUSH1 0x1F DUP6 ADD PUSH1 0x5 SHR DUP2 ADD PUSH1 0x20 DUP7 LT ISZERO PUSH2 0x38AB JUMPI POP DUP1 JUMPDEST PUSH1 0x1F DUP6 ADD PUSH1 0x5 SHR DUP3 ADD SWAP2 POP JUMPDEST DUP2 DUP2 LT ISZERO PUSH2 0x38CA JUMPI DUP3 DUP2 SSTORE PUSH1 0x1 ADD PUSH2 0x38B7 JUMP JUMPDEST POP POP POP JUMPDEST POP POP POP JUMP JUMPDEST DUP2 MLOAD PUSH1 0x1 PUSH1 0x1 PUSH1 0x40 SHL SUB DUP2 GT ISZERO PUSH2 0x38EC JUMPI PUSH2 0x38EC PUSH2 0x2FA9 JUMP JUMPDEST PUSH2 0x3900 DUP2 PUSH2 0x38FA DUP5 SLOAD PUSH2 0x36F5 JUMP JUMPDEST DUP5 PUSH2 0x3884 JUMP JUMPDEST PUSH1 0x20 DUP1 PUSH1 0x1F DUP4 GT PUSH1 0x1 DUP2 EQ PUSH2 0x3935 JUMPI PUSH1 0x0 DUP5 ISZERO PUSH2 0x391D JUMPI POP DUP6 DUP4 ADD MLOAD JUMPDEST PUSH1 0x0 NOT PUSH1 0x3 DUP7 SWAP1 SHL SHR NOT AND PUSH1 0x1 DUP6 SWAP1 SHL OR DUP6 SSTORE PUSH2 0x38CA JUMP JUMPDEST PUSH1 0x0 DUP6 DUP2 MSTORE PUSH1 0x20 DUP2 KECCAK256 PUSH1 0x1F NOT DUP7 AND SWAP2 JUMPDEST DUP3 DUP2 LT ISZERO PUSH2 0x3964 JUMPI DUP9 DUP7 ADD MLOAD DUP3 SSTORE SWAP5 DUP5 ADD SWAP5 PUSH1 0x1 SWAP1 SWAP2 ADD SWAP1 DUP5 ADD PUSH2 0x3945 JUMP JUMPDEST POP DUP6 DUP3 LT ISZERO PUSH2 0x3982 JUMPI DUP8 DUP6 ADD MLOAD PUSH1 0x0 NOT PUSH1 0x3 DUP9 SWAP1 SHL PUSH1 0xF8 AND SHR NOT AND DUP2 SSTORE JUMPDEST POP POP POP POP POP PUSH1 0x1 SWAP1 DUP2 SHL ADD SWAP1 SSTORE POP JUMP JUMPDEST PUSH4 0x4E487B71 PUSH1 0xE0 SHL PUSH1 0x0 MSTORE PUSH1 0x11 PUSH1 0x4 MSTORE PUSH1 0x24 PUSH1 0x0 REVERT JUMPDEST PUSH1 0x0 DUP3 NOT DUP3 GT ISZERO PUSH2 0x39BB JUMPI PUSH2 0x39BB PUSH2 0x3992 JUMP JUMPDEST POP ADD SWAP1 JUMP JUMPDEST PUSH1 0x0 PUSH2 0xFFFF DUP4 DUP2 AND SWAP1 DUP4 AND DUP2 DUP2 LT ISZERO PUSH2 0x39DB JUMPI PUSH2 0x39DB PUSH2 0x3992 JUMP JUMPDEST SUB SWAP4 SWAP3 POP POP POP JUMP JUMPDEST PUSH1 0x0 DUP3 DUP3 LT ISZERO PUSH2 0x39F5 JUMPI PUSH2 0x39F5 PUSH2 0x3992 JUMP JUMPDEST POP SUB SWAP1 JUMP JUMPDEST PUSH5 0xFFFFFFFFFF DUP6 AND DUP2 MSTORE DUP4 PUSH1 0x20 DUP3 ADD MSTORE PUSH1 0x80 PUSH1 0x40 DUP3 ADD MSTORE PUSH1 0x0 PUSH2 0x3A20 PUSH1 0x80 DUP4 ADD DUP6 PUSH2 0x2F39 JUMP JUMPDEST SWAP1 POP DUP3 PUSH1 0x60 DUP4 ADD MSTORE SWAP6 SWAP5 POP POP POP POP POP JUMP JUMPDEST PUSH1 0x0 PUSH1 0x1 DUP3 ADD PUSH2 0x3A43 JUMPI PUSH2 0x3A43 PUSH2 0x3992 JUMP JUMPDEST POP PUSH1 0x1 ADD SWAP1 JUMP JUMPDEST PUSH1 0x0 PUSH1 0x20 DUP3 DUP5 SUB SLT ISZERO PUSH2 0x3A5C JUMPI PUSH1 0x0 DUP1 REVERT JUMPDEST DUP2 MLOAD PUSH2 0x3167 DUP2 PUSH2 0x33C6 JUMP JUMPDEST PUSH1 0x1 PUSH1 0x1 PUSH1 0x40 SHL SUB DUP4 GT ISZERO PUSH2 0x3A7E JUMPI PUSH2 0x3A7E PUSH2 0x2FA9 JUMP JUMPDEST PUSH2 0x3A92 DUP4 PUSH2 0x3A8C DUP4 SLOAD PUSH2 0x36F5 JUMP JUMPDEST DUP4 PUSH2 0x3884 JUMP JUMPDEST PUSH1 0x0 PUSH1 0x1F DUP5 GT PUSH1 0x1 DUP2 EQ PUSH2 0x3AC6 JUMPI PUSH1 0x0 DUP6 ISZERO PUSH2 0x3AAE JUMPI POP DUP4 DUP3 ADD CALLDATALOAD JUMPDEST PUSH1 0x0 NOT PUSH1 0x3 DUP8 SWAP1 SHL SHR NOT AND PUSH1 0x1 DUP7 SWAP1 SHL OR DUP4 SSTORE PUSH2 0x1E3D JUMP JUMPDEST PUSH1 0x0 DUP4 DUP2 MSTORE PUSH1 0x20 SWAP1 KECCAK256 PUSH1 0x1F NOT DUP7 AND SWAP1 DUP4 JUMPDEST DUP3 DUP2 LT ISZERO PUSH2 0x3AF7 JUMPI DUP7 DUP6 ADD CALLDATALOAD DUP3 SSTORE PUSH1 0x20 SWAP5 DUP6 ADD SWAP5 PUSH1 0x1 SWAP1 SWAP3 ADD SWAP2 ADD PUSH2 0x3AD7 JUMP JUMPDEST POP DUP7 DUP3 LT ISZERO PUSH2 0x3B14 JUMPI PUSH1 0x0 NOT PUSH1 0xF8 DUP9 PUSH1 0x3 SHL AND SHR NOT DUP5 DUP8 ADD CALLDATALOAD AND DUP2 SSTORE JUMPDEST POP POP PUSH1 0x1 DUP6 PUSH1 0x1 SHL ADD DUP4 SSTORE POP POP POP POP POP JUMP JUMPDEST DUP4 DUP2 MSTORE DUP3 PUSH1 0x20 DUP3 ADD MSTORE PUSH1 0x60 PUSH1 0x40 DUP3 ADD MSTORE PUSH1 0x0 PUSH2 0x140 DUP1 PUSH1 0x60 DUP5 ADD MSTORE PUSH2 0x3B4F PUSH2 0x1A0 DUP5 ADD DUP6 PUSH2 0x37F4 JUMP JUMPDEST PUSH1 0x1 DUP6 ADD SLOAD PUSH5 0xFFFFFFFFFF AND PUSH5 0xFFFFFFFFFF DUP2 AND PUSH1 0x80 DUP7 ADD MSTORE POP PUSH1 0x2 DUP6 ADD SLOAD PUSH1 0xA0 DUP6 ADD MSTORE PUSH1 0x3 DUP6 ADD SLOAD PUSH1 0xC0 DUP6 ADD MSTORE PUSH1 0x4 DUP6 ADD SLOAD PUSH1 0xFF DUP2 AND PUSH1 0xE0 DUP7 ADD MSTORE PUSH1 0x8 DUP2 SWAP1 SHR PUSH3 0xFFFFFF AND PUSH2 0x100 DUP7 ADD MSTORE PUSH1 0x20 DUP2 SWAP1 SHR PUSH1 0x1 PUSH1 0x1 PUSH1 0x50 SHL SUB AND PUSH2 0x120 DUP7 ADD MSTORE PUSH2 0xFFFF PUSH1 0x70 DUP3 SWAP1 SHR DUP2 AND DUP5 DUP8 ADD MSTORE PUSH2 0x3BD3 PUSH2 0x160 DUP8 ADD DUP3 DUP5 PUSH1 0x80 SHR AND PUSH2 0xFFFF AND SWAP1 MSTORE JUMP JUMPDEST POP PUSH1 0x90 DUP2 SWAP1 SHR PUSH5 0xFFFFFFFFFF AND PUSH2 0x180 DUP7 ADD MSTORE POP SWAP7 SWAP6 POP POP POP POP POP POP JUMP JUMPDEST PUSH1 0x0 PUSH1 0x1 PUSH1 0x1 PUSH1 0x50 SHL SUB DUP1 DUP5 AND DUP1 PUSH2 0x3C19 JUMPI PUSH4 0x4E487B71 PUSH1 0xE0 SHL PUSH1 0x0 MSTORE PUSH1 0x12 PUSH1 0x4 MSTORE PUSH1 0x24 PUSH1 0x0 REVERT JUMPDEST SWAP3 AND SWAP2 SWAP1 SWAP2 DIV SWAP3 SWAP2 POP POP JUMP JUMPDEST PUSH1 0x20 DUP1 DUP3 MSTORE PUSH1 0x14 SWAP1 DUP3 ADD MSTORE PUSH20 0x2330B4B632B2103A379039B2B7321022BA3432B9 PUSH1 0x61 SHL PUSH1 0x40 DUP3 ADD MSTORE PUSH1 0x60 ADD SWAP1 JUMP JUMPDEST PUSH1 0x0 DUP3 MLOAD PUSH2 0x3C65 DUP2 DUP5 PUSH1 0x20 DUP8 ADD PUSH2 0x2F0D JUMP JUMPDEST SWAP2 SWAP1 SWAP2 ADD SWAP3 SWAP2 POP POP JUMP JUMPDEST PUSH1 0x0 DUP1 DUP4 SLOAD PUSH2 0x3C7D DUP2 PUSH2 0x36F5 JUMP JUMPDEST PUSH1 0x1 DUP3 DUP2 AND DUP1 ISZERO PUSH2 0x3C95 JUMPI PUSH1 0x1 DUP2 EQ PUSH2 0x3CAA JUMPI PUSH2 0x376F JUMP JUMPDEST PUSH1 0xFF NOT DUP5 AND DUP8 MSTORE DUP3 ISZERO ISZERO DUP4 MUL DUP8 ADD SWAP5 POP PUSH2 0x376F JUMP JUMPDEST DUP8 PUSH1 0x0 MSTORE PUSH1 0x20 DUP1 PUSH1 0x0 KECCAK256 PUSH1 0x0 JUMPDEST DUP6 DUP2 LT ISZERO PUSH2 0x3CD0 JUMPI DUP2 SLOAD DUP11 DUP3 ADD MSTORE SWAP1 DUP5 ADD SWAP1 DUP3 ADD PUSH2 0x3CB7 JUMP JUMPDEST POP POP POP SWAP6 SWAP1 SWAP2 ADD SWAP7 SWAP6 POP POP POP POP POP POP JUMP JUMPDEST PUSH1 0x0 DUP1 DUP3 SLT DUP1 ISZERO PUSH1 0x1 PUSH1 0x1 PUSH1 0xFF SHL SUB DUP5 SWAP1 SUB DUP6 SGT AND ISZERO PUSH2 0x3D03 JUMPI PUSH2 0x3D03 PUSH2 0x3992 JUMP JUMPDEST PUSH1 0x1 PUSH1 0xFF SHL DUP4 SWAP1 SUB DUP5 SLT DUP2 AND ISZERO PUSH2 0x3D1C JUMPI PUSH2 0x3D1C PUSH2 0x3992 JUMP JUMPDEST POP POP ADD SWAP1 JUMP JUMPDEST PUSH1 0xE0 DUP2 MSTORE DUP8 PUSH1 0xE0 DUP3 ADD MSTORE PUSH1 0x0 PUSH2 0x100 DUP10 DUP12 DUP3 DUP6 ADD CALLDATACOPY PUSH1 0x0 DUP11 DUP5 ADD DUP3 ADD MSTORE PUSH5 0xFFFFFFFFFF SWAP9 DUP10 AND PUSH1 0x20 DUP5 ADD MSTORE PUSH1 0xFF SWAP8 SWAP1 SWAP8 AND PUSH1 0x40 DUP4 ADD MSTORE POP PUSH3 0xFFFFFF SWAP5 SWAP1 SWAP5 AND PUSH1 0x60 DUP6 ADD MSTORE SWAP2 DUP6 AND PUSH1 0x80 DUP5 ADD MSTORE SWAP1 SWAP4 AND PUSH1 0xA0 DUP3 ADD MSTORE PUSH2 0xFFFF SWAP1 SWAP3 AND PUSH1 0xC0 DUP4 ADD MSTORE PUSH1 0x1F SWAP1 SWAP3 ADD PUSH1 0x1F NOT AND ADD ADD SWAP2 SWAP1 POP JUMP INVALID LOG2 PUSH5 0x6970667358 0x22 SLT KECCAK256 0x4A 0xBA 0xEC 0x27 TIMESTAMP 0xC5 LOG3 SWAP1 PUSH7 0x361BBB37B11A8A 0xB1 0x2B 0xA8 0xA7 0xD2 CHAINID DUP6 SWAP2 PUSH19 0x1F4FB39D22F8D864736F6C634300080F003300 ",
  "sha1": "7ed85d24055f48535f31f90a5df704f9fe93778c",
  "source": "pragma solidity 0.8.15;\n// SPDX-License-Identifier: Unlicensed\n\nimport \"./wizards.sol\";\nimport \"./interfaces/IERC20.sol\";\nimport \"./interfaces/IERC165.sol\";\nimport \"./interfaces/IERC721.sol\";\nimport \"./interfaces/IERC721Enumerable.sol\";\n//import \"./helpers/base64.sol\";\nimport './helpers/ERC721A.sol';\nimport './helpers/ERC721.sol';\nimport './helpers/ERC165.sol';\nimport './helpers/Ownable.sol';\nimport './helpers/Context.sol';\nimport './helpers/ReentrancyGuard.sol';\nimport './helpers/ERC2981Collection.sol';\nimport './libraries/Strings.sol';\nimport './libraries/Address.sol';\nimport {DoubleEndedQueue} from \"@openzeppelin/contracts/utils/structs/DoubleEndedQueue.sol\";\n\n//contract BMMultipass is ERC721Enumerable, ReentrancyGuard, Ownable {\ncontract Governance is ReentrancyGuard, Ownable {\n\n//    IERC20  ecosystemTokens;\n    Wizards wizardsNFT;\n\n    // the value stored here is shifted over by one because 0 means no vote, 1 means voting for slot 0\n    mapping (uint256 => mapping (uint256 => uint256)) public proposalToNFTVotes;\n\n    // used to find active tasks\n    struct TaskType {\n        mapping (uint40 => uint256) nextActiveTimeThreshold; // for recurring tasks -- todo -- add waitTime or ...\n        string IPFSHash; // holds description\n        bool paused;\n        uint40 proposalID; // proposal ID or 0 if task\n        uint8 numFieldsToHash;\n        uint24 timeBonus;\n        uint40 begTimestamp;\n        uint40 endTimestamp;\n        uint16 availableSlots;\n    }\n\n    // include parent???\n    struct Task {\n        string IPFSHash; // holds description\n        uint40 NFTID; // wizard ID of who is assigned task\n        bytes32 hash; // hashed input to be validated\n        bytes32 refuterHash; // correct hash according to refuter\n        uint8 numFieldsToHash; // input fields\n        uint24 timeBonus; // increases Wizard's activation time, in seconds\n//        uint8 strikes; // number of times confirmation has failed, use existence of refuterID\n        uint80 payment; //\n        uint16 verifierID; // wizardId of Verifier\n        uint16 refuterID; // wizardId of Verifier\n        uint40 verificationReservedTimestamp; // time when verification period ends\n    }\n\n    struct Proposal {\n        string IPFSHash;\n        uint16 numberOfOptions;\n        uint16[8] votes;\n        uint40 totalVotes;\n        uint40 begTimestamp;\n        uint40 endTimestamp;\n    }\n\n\n\n    TaskType[] public taskTypes; // we must keep task types low in quantity to avoid gas issues\n\n    // todo -- these should be dequeues\n    DoubleEndedQueue.Bytes32Deque public tasksWaitingConfirmation;\n//    uint256[] public tasksVerifying; // reduce size?\n\n//    DoubleEndedQueue.Bytes32Deque  public myQueue;\n\n    mapping (uint256 => Proposal) public proposals;\n    uint256 totalProposals;\n\n    mapping (uint256 => Task) public tasks;\n    uint256 public totalTasksAttempted;\n\n    // todo -- Adjustable\n    uint256 verificationTime = 10*60; // 10 minutes\n    uint256 taskVerificationTimeBonus = 1 days; // 1 day\n\n    event VerificationAssigned(uint256 wizardId, uint256 taskId, Task myTask);\n    event VerificationFailed(uint256 VerifierIdFirst, uint256 VerifierIdSecond, uint256 taskId);\n    event VerificationSucceeded(uint256 taskDoer, uint256 Verifier, uint256 taskId, bytes32 hash, bool isHashCorrect);\n    event HashTesting(bytes32 hash, bool isHashCorrect, bytes32 firstEncoded, bytes firstUnencoded);\n    event NewTaskTypeCreated(string _IPFSHash,uint40 _proposalID, uint8 _numFieldsToHash, uint24 _timeBonus,\n          uint40 _begTimestamp, uint40 _endTimestamp, uint16 _availableSlots);\n    event TaskCompleted(uint256 wizardId, uint256 taskId, string IPFSHash, uint256 data);\n\n    /////////////////////////////\n    //////  TEMP Functions ///////\n    /////////////////////////////\n\n    /*\n    function getFront() view external returns ( uint256) {\n        require(DoubleEndedQueue.length(myQueue)!=0, \"Empty Dequeue\");\n        return uint256(DoubleEndedQueue.front(myQueue));\n    }\n\n    function pushFront(bytes32 _data) external {\n    //  Task memory myTask = Task(\"0 - MYIPFSHASH\", 1, keccak256(4), 3, 4, 5, 6, 7);\n        DoubleEndedQueue.pushFront(myQueue,bytes32(_data));\n    }\n    */\n\n    /////////////////////////////\n    //////  Get Functions ///////\n    /////////////////////////////\n\n/*\n// todo -- delete this helper function\n    function getTaskTypeFields(uint256 _id) external view returns (uint8 ) {\n        return taskTypes[_id].numFieldsToHash;\n    }\n*/\n    function getTaskById(uint256 _taskId) external view returns (Task memory) {\n        return tasks[_taskId];\n    }\n\n    function getVotes(uint256 proposalID) external view returns (uint16[] memory) {\n        require(proposalID < totalProposals, \"no such proposal\");\n        uint16[] memory voteArray = new uint16[](proposals[proposalID].numberOfOptions);\n        for(uint256 i = 0; i< voteArray.length; i++){\n            voteArray[i] = proposals[proposalID].votes[i];\n        }\n        return voteArray;\n    }\n\n    function getWinningVote(uint256 proposalID) external view returns (uint256 ) {\n        require(proposalID < totalProposals, \"no such proposal\");\n        require( block.timestamp > proposals[proposalID].endTimestamp, \"voting still active\"); // todo -- end voting only on time? Or, what?\n        // todo -- is there a need to win by a certain percent?\n        uint256 winningVote;\n        uint256 winningVoteAmount;\n        uint256 tie=0;\n        for(uint256 i=0; i< proposals[proposalID].numberOfOptions; i++){ // start at 1 as 0 means no vote???\n            if(proposals[proposalID].votes[i] > winningVoteAmount) {\n                winningVoteAmount = proposals[proposalID].votes[i];\n                winningVote = i;\n                if (tie==1) { tie = 0;}\n            }\n            else if(proposals[proposalID].votes[i] == winningVoteAmount){\n                tie=1;\n            }\n        }\n        require(tie==0, \"there was a tie.\");\n        return winningVote;\n    }\n\n    // todo -- delete tasktype function\n\n    function areTasksAvailableToConfirm(uint256 _wizId) external view returns (bool) {\n        uint256 totalTasksSubmitted = DoubleEndedQueue.length(tasksWaitingConfirmation);\n        Task memory myTask;\n//        uint256 taskId;\n\n        // todo --implement randomness\n//        uint256[25] memory potentialTasks;\n\n        for(uint256 i =0; i < totalTasksSubmitted; ){\n            myTask = tasks[uint256(DoubleEndedQueue.at(tasksWaitingConfirmation,i))];\n            if( myTask.verificationReservedTimestamp < block.timestamp && myTask.NFTID != _wizId && myTask.refuterID!= _wizId){\n                return true;\n            }\n            unchecked{++i;}\n        }\n        return false;\n    }\n\n\n    function getTasksAssignedToWiz(uint40 _wizId) external view returns (Task[] memory) {\n        uint256 totalTasksSubmitted = DoubleEndedQueue.length(tasksWaitingConfirmation);\n        Task memory myTask;\n        uint256 taskId;\n        uint256 count=0;\n\n        for(uint256 i =0; i < totalTasksSubmitted; ){\n            taskId = uint256(DoubleEndedQueue.at(tasksWaitingConfirmation, i));\n            myTask = tasks[taskId];\n            if( myTask.verificationReservedTimestamp > block.timestamp && myTask.verifierID== _wizId){\n                unchecked{++count;}\n            }\n            unchecked{++i;}\n        }\n\n        // if no tasks, return empty array\n        if (count==0) {\n            Task[] memory myReturn= new Task[](1);\n            myReturn[0].NFTID=999;\n//            myReturn[0] = \"\";\n            return myReturn;\n        }\n\n        uint256 counter = 0;\n        Task[] memory myTasks = new Task[](count);\n        for(uint256 i =0; i < totalTasksSubmitted; ){\n            taskId = uint256(DoubleEndedQueue.at(tasksWaitingConfirmation, i));\n            myTask = tasks[taskId];\n            if( myTask.verificationReservedTimestamp > block.timestamp && myTask.verifierID== _wizId){\n                myTasks[counter] = myTask;\n                unchecked{++counter;}\n                if(counter>count){break;}\n            }\n            unchecked{++i;}\n        }\n        return myTasks;\n    }\n\n\n    // todo -- see if we need to include IDs here -- may not need to\n    function getMyAvailableTaskTypes(uint40 _wizId) external view returns (string[] memory) {\n        uint256 count;\n        for(uint256 i=0; i< taskTypes.length;){\n            if(taskTypes[i].nextActiveTimeThreshold[_wizId] < block.timestamp\n            && taskTypes[i].begTimestamp <= block.timestamp && taskTypes[i].endTimestamp > block.timestamp\n            && taskTypes[i].availableSlots > 1\n            ) {\n                unchecked{++count;}\n            }\n//            else {\n//                string[] memory myReturn= new string[](1);\n//                myReturn[0] = \"\";\n//                return myReturn;\n//            }\n            unchecked{++i;}\n        }\n\n        // if no tasks, return empty array\n        if (count==0) {\n            string[] memory myReturn= new string[](1);\n            myReturn[0] = \"\";\n            return myReturn;\n        }\n\n        string[] memory myTasks = new string[](count);\n        uint256 counter = 0;\n        for(uint256 i=0; i< taskTypes.length;){\n            if(taskTypes[i].nextActiveTimeThreshold[_wizId] < block.timestamp\n            && taskTypes[i].begTimestamp <= block.timestamp && taskTypes[i].endTimestamp > block.timestamp\n            && taskTypes[i].availableSlots > 1\n            ) {\n                myTasks[counter] = taskTypes[i].IPFSHash;\n                unchecked{++counter;}\n                if(counter >= count) {\n                    break;\n                }\n            }\n            unchecked{++i;}\n        }\n        return myTasks;\n    }\n\n\n    /////////////////////////////\n    //////  Set Functions ///////\n    /////////////////////////////\n\n    function setNFTAddress(address _addy) external onlyOwner {\n        wizardsNFT = Wizards(_addy);\n    }\n\n\n//    function setERC20Address(address _addy) external onlyOwner {\n//        ecosystemTokens = IERC20(_addy);\n//    }\n\n    function deleteTaskTypeByIPFSHash(string memory _IPFSHash) external {\n        for(uint256 i=0; i<taskTypes.length;){\n            if(keccak256(abi.encodePacked(taskTypes[i].IPFSHash)) == keccak256(abi.encodePacked(_IPFSHash))){\n//                taskTypes[i] = taskTypes[taskTypes.length-1];\n                TaskType storage myTaskType = taskTypes[i];\n                TaskType storage displacedTaskType = taskTypes[taskTypes.length-1];\n//                myTaskType.nextActiveTimeThreshold = displacedTaskType.nextActiveTimeThreshold;\n                myTaskType = displacedTaskType;\n                delete taskTypes[taskTypes.length-1];\n                // todo see if this works at all\n//        mapping (uint40 => uint256) nextActiveTimeThreshold; // for recurring tasks -- todo -- add waitTime or ...\n//        string IPFSHash; // holds description\n//        bool paused;\n//        uint40 proposalID; // proposal ID or 0 if task\n//        uint8 numFieldsToHash;\n//        uint24 timeBonus;\n//        uint40 begTimestamp;\n//        uint40 endTimestamp;\n//        uint16 availableSlots;\n\n\n                delete taskTypes[taskTypes.length-1];\n                break;\n            }\n            unchecked{++i;}\n        }\n    }\n\n\n\n    //////////////////////////////\n    //////  Main Functions ///////\n    //////////////////////////////\n\n    /** @dev Constructor for HOADAO\n        @param _nft -- contract address for NFTs\n      */\n    constructor(address _nft){\n//        ecosystemTokens = IERC20(_erc20);\n        wizardsNFT = Wizards(_nft);\n\n//        contractSettings = ContractSettings({\n//        });\n\n    }\n\n    // Required to receive ETH\n    receive() external payable {\n    }\n\n    function vote(uint256 proposalID, uint256 NFTID, uint256 _vote) external onlyMember {\n        require(proposalID < totalProposals, \"no such proposal\");\n        require(wizardsNFT.ownerOf(NFTID)==msg.sender, \"not owner of NFT\");\n        require(proposalToNFTVotes[proposalID][NFTID]==0, \"already voted\");\n        require(_vote!=0 && _vote <= proposals[proposalID].numberOfOptions);\n        require(block.timestamp < proposals[proposalID].endTimestamp);\n        proposalToNFTVotes[proposalID][NFTID] = _vote + 1; // vote reference shifted by one\n        proposals[proposalID].votes[_vote] += 1; // increment votes\n        proposals[proposalID].totalVotes += 1;\n    }\n\n    // votes won't need to be confirmed\n    function createProposal(string calldata _IPFSHash, uint16 _numberOfOptions, uint24 _timeBonus, uint40 _begTimestamp, uint40 _endTimestamp, uint16 _availableSlots) external onlyBoard {\n        require(_numberOfOptions > 1 && _numberOfOptions < 257, \"invalid number of options\");\n        totalProposals += 1; // keep nothing at 0\n        Proposal storage myProposal = proposals[totalProposals];\n            myProposal.begTimestamp = _begTimestamp;\n            myProposal.endTimestamp = _endTimestamp;\n            myProposal.numberOfOptions = _numberOfOptions;\n            myProposal.IPFSHash = _IPFSHash;\n\n        _createTaskType(_IPFSHash, uint40(totalProposals), 0, _timeBonus, _begTimestamp, _endTimestamp, _availableSlots);\n        // todo --  emit event\n    }\n\n\n    function createTaskType(string calldata _IPFSHash, uint8 _numFieldsToHash, uint24 _timeBonus, uint40 _begTimestamp,\n                uint40 _endTimestamp, uint16 _availableSlots) external onlyBoard {\n        _createTaskType(_IPFSHash, 0, _numFieldsToHash, _timeBonus, _begTimestamp, _endTimestamp, _availableSlots);\n    }\n\n    function _createTaskType(string calldata _IPFSHash, uint40 _proposalID, uint8 _numFieldsToHash, uint24 _timeBonus,\n             uint40 _begTimestamp, uint40 _endTimestamp, uint16 _availableSlots) internal {\n        uint256 taskTypesLength = taskTypes.length;\n        taskTypes.push();\n        TaskType storage newTaskType = taskTypes[taskTypesLength];\n            newTaskType.IPFSHash =_IPFSHash;\n            newTaskType.paused = false;\n            newTaskType.proposalID = _proposalID;\n            newTaskType.numFieldsToHash = _numFieldsToHash;\n            newTaskType.timeBonus = _timeBonus;\n            newTaskType.begTimestamp = _begTimestamp;\n            newTaskType.endTimestamp = _endTimestamp;\n            newTaskType.availableSlots = _availableSlots;\n        // todo --  emit event\n        emit NewTaskTypeCreated(_IPFSHash, _proposalID, _numFieldsToHash, _timeBonus, _begTimestamp, _endTimestamp, _availableSlots);\n    }\n\n\n    function claimRandomTaskForVerification(uint256 _wizId) external {\n        uint256 totalTasksSubmitted = DoubleEndedQueue.length(tasksWaitingConfirmation);\n        Task memory myTask;\n        uint256 taskId;\n\n        // todo --implement randomness\n        // uint256[25] memory potentialTasks;\n\n        for(uint256 i =0; i < totalTasksSubmitted; ){\n            taskId = uint256(DoubleEndedQueue.at(tasksWaitingConfirmation, i));\n            myTask = tasks[taskId];\n            if( myTask.verificationReservedTimestamp < block.timestamp && myTask.NFTID != _wizId && myTask.refuterID!= _wizId){\n//                taskId = uint256(DoubleEndedQueue.at(tasksWaitingConfirmation, i));\n//                myTask = tasks[taskId];\n\n                // update task\n                myTask.verifierID = uint16(_wizId);\n                myTask.verificationReservedTimestamp = uint40(block.timestamp + verificationTime);\n                tasks[taskId] = myTask;\n                emit VerificationAssigned(_wizId, taskId, tasks[taskId]);\n            }\n            unchecked{++i;}\n        }\n//        emit VerificationAssigned(_wizId, taskId);\n    }\n\n    function completeTask(string memory _IPFSHash, bytes32 _hash, uint40 _wizId) external {\n        // IPFS, hash, wizardID\n\n        // find the task type -- can't be too many\n        for(uint256 i = 0; i<taskTypes.length;){\n            if(keccak256(abi.encode(taskTypes[i].IPFSHash)) == keccak256(abi.encode(_IPFSHash))){ // hashed to compare\n                // verify it is viable\n                require(taskTypes[i].begTimestamp <= block.timestamp && block.timestamp <= taskTypes[i].endTimestamp, \"Outside time period\");\n                // create new task\n                Task memory myTask = Task(_IPFSHash,_wizId, _hash, 0, taskTypes[i].numFieldsToHash, taskTypes[i].timeBonus, 0, 0, 0, 0);\n                DoubleEndedQueue.pushBack(tasksWaitingConfirmation, bytes32(totalTasksAttempted));\n                tasks[totalTasksAttempted] = myTask;\n                totalTasksAttempted+=1;\n\n                // update TaskTypes\n                taskTypes[i].nextActiveTimeThreshold[_wizId] = block.timestamp + 1 days;\n                taskTypes[i].availableSlots = taskTypes[i].availableSlots - 1;\n\n                emit TaskCompleted(_wizId,totalTasksAttempted -1, _IPFSHash, block.timestamp);\n                break;\n            }\n            unchecked{++i;}\n        }\n        // failed\n\n\n    }\n\n    function testHashing(bytes32 _givenHash, bytes32[] memory _fields, bool _refuted) external {\n        bytes memory unencoded = abi.encodePacked(_fields[0]);\n        if(_refuted) {\n            for(uint256 i = 0; i < _fields.length;){\n                _fields[i] = keccak256(abi.encodePacked(_fields[i]));\n                unchecked{++i;}\n            }\n        }\n        bytes32 myHash = keccak256(abi.encodePacked(_fields));\n        emit HashTesting(myHash, myHash==_givenHash, _fields[0], unencoded);\n    }\n\n// working for regular but not refuted.\n//    function testHashing(bytes32 _givenHash, bytes32[] memory _fields, bool _refuted) external {\n//        bytes memory unencoded = abi.encodePacked(_fields[0]);\n//        if(_refuted) {\n//            for(uint256 i = 0; i < _fields.length;){\n//                _fields[i] = keccak256(abi.encodePacked(_fields[i]));\n//                unchecked{++i;}\n//            }\n//        }\n//        bytes32 myHash = keccak256(abi.encodePacked(_fields));\n//        emit HashTesting(myHash, myHash==_givenHash, _fields[0], unencoded);\n//    }\n\n\n\n    // @dev -- hash structure: leaves of merkle tree are hashed. Unrefuted tasks must send in hashed leafs. Refuted, unhashed.\n    function submitVerification(uint256 _wizId, uint256 _taskID, bytes32[] memory _fields) external {\n    //todo -- uncomment out requirement (testing)\n        require(wizardsNFT.ownerOf(_wizId) == msg.sender && tasks[_taskID].verifierID==_wizId, \"Must be owner of assigned wizard\");\n        require(_fields.length > 0);\n\n        Task storage myTask = tasks[_taskID];\n        uint256 count = 0;\n\n        // hash leaf if refuter exists\n        // todo -- redo our hashes as we are hashing not same throughout\n\n//        bytes32 myHash = myTask.refuterID > 0 ? keccak256(abi.encodePacked(_fields[0])) : _fields[0] ; // note -- not hashed\n//        for(uint256 i = 0; i < _fields.length;){\n//            myHash = keccak256(abi.encodePacked(myHash, myTask.refuterID > 0 ? keccak256(abi.encodePacked(_fields[i])) : _fields[i]));\n//            unchecked{++i;}\n//        }\n\n        // hash leaves if there is a refuter\n        if(myTask.refuterID > 0) {\n            for(uint256 i = 0; i < _fields.length;){\n                _fields[i] = keccak256(abi.encodePacked(_fields[i]));\n                unchecked{++i;}\n            }\n        }\n        bytes32 myHash = keccak256(abi.encodePacked(_fields));\n\n        uint256 correctHash = myTask.hash == myHash ? 1 : 0;\n\n        emit VerificationSucceeded(_wizId, myTask.NFTID, _taskID, myHash, correctHash==1);\n\n        if (correctHash ==1){\n            // if refuterId exists, then refuter gets no refund\n            uint256 split = myTask.payment/2;\n            address payable taskSubmitter = payable(wizardsNFT.ownerOf(myTask.verifierID));\n//            address payable verifier = msg.sender;\n\n\n            wizardsNFT.verifyDuty(myTask.NFTID, myTask.timeBonus);\n            wizardsNFT.verifyDuty(myTask.verifierID, taskVerificationTimeBonus);\n\n            myTask.payment=0; // thwart reentrancy attacks\n            delete tasks[_taskID];\n\n            // send to task submitter\n            (bool sent, bytes memory data) = taskSubmitter.call{value: split}(\"\");\n            require(sent, \"Failed to send Ether\");\n\n            // send to verifier\n            (sent, data) = msg.sender.call{value: split}(\"\");\n            require(sent, \"Failed to send Ether\");\n\n        }\n        else { // if incorrect Hash\n            // case 2 -- if no match, send to DAO\n\n            // case 1 -- if matches hash of refuter, split\n            if(myTask.refuterHash==myHash){\n                uint256 split = myTask.payment/2;\n                address payable taskRefuter = payable(wizardsNFT.ownerOf(myTask.refuterID));\n\n                wizardsNFT.verifyDuty(myTask.refuterID, taskVerificationTimeBonus);\n                wizardsNFT.verifyDuty(_wizId, taskVerificationTimeBonus);\n\n                myTask.payment=0; // thwart reentrancy attacks\n                delete tasks[_taskID];\n\n                // send to task submitter\n                (bool sent, bytes memory data) = taskRefuter.call{value: split}(\"\");\n                require(sent, \"Failed to send Ether\");\n\n                // send to verifier\n                (sent, data) = msg.sender.call{value: split}(\"\");\n                require(sent, \"Failed to send Ether\");\n\n                // emit event\n            }\n            else{\n                // no agreement in the 3 submissions\n                // send ETH to DAO\n                uint256 split = myTask.payment;\n                delete tasks[_taskID];\n                (bool sent, bytes memory data) = owner().call{value: split}(\"\"); // todo -- decide on how to structure DAO address\n                require(sent, \"Failed to send Ether\");\n\n                // emit event\n            }\n        }\n    }\n\n    //////////////////////\n    ////// Modifiers /////\n    //////////////////////\n\n    modifier onlyAdmin() {\n        require(false,'Must be admin');\n        _;\n    }\n\n    modifier onlyNFTOwner() {\n        require(false,'Must be admin');\n        _;\n    }\n\n    modifier onlyLessee() {\n        require(false,'Must be lessee');\n        _;\n    }\n\n    modifier onlyMember() { // todo -- onlyMember\n        require(false,'Must be member');\n        _;\n    }\n\n    // top x in tower?\n    modifier onlyBoard() {\n        require(true,'Must be on the board'); // todo -- onlyBoard\n        _;\n    }\n\n\n\n\n\n}",
  "sourcePath": "contracts/Governance.sol",
  "type": "contract"
}