{
  "abi": [
    {
      "inputs": [
        {
          "internalType": "string",
          "name": "_name",
          "type": "string"
        },
        {
          "internalType": "string",
          "name": "_symbol",
          "type": "string"
        },
        {
          "internalType": "address",
          "name": "_ERC20Address",
          "type": "address"
        },
        {
          "internalType": "string",
          "name": "_imageBaseURI",
          "type": "string"
        }
      ],
      "stateMutability": "nonpayable",
      "type": "constructor"
    },
    {
      "anonymous": false,
      "inputs": [
        {
          "indexed": true,
          "internalType": "address",
          "name": "owner",
          "type": "address"
        },
        {
          "indexed": true,
          "internalType": "address",
          "name": "approved",
          "type": "address"
        },
        {
          "indexed": true,
          "internalType": "uint256",
          "name": "tokenId",
          "type": "uint256"
        }
      ],
      "name": "Approval",
      "type": "event"
    },
    {
      "anonymous": false,
      "inputs": [
        {
          "indexed": true,
          "internalType": "address",
          "name": "owner",
          "type": "address"
        },
        {
          "indexed": true,
          "internalType": "address",
          "name": "operator",
          "type": "address"
        },
        {
          "indexed": false,
          "internalType": "bool",
          "name": "approved",
          "type": "bool"
        }
      ],
      "name": "ApprovalForAll",
      "type": "event"
    },
    {
      "anonymous": false,
      "inputs": [
        {
          "indexed": false,
          "internalType": "address",
          "name": "exilee",
          "type": "address"
        },
        {
          "indexed": true,
          "internalType": "uint256",
          "name": "wizardId",
          "type": "uint256"
        },
        {
          "indexed": false,
          "internalType": "uint256",
          "name": "timestamp",
          "type": "uint256"
        }
      ],
      "name": "Exiled",
      "type": "event"
    },
    {
      "anonymous": false,
      "inputs": [
        {
          "indexed": false,
          "internalType": "address",
          "name": "initiater",
          "type": "address"
        },
        {
          "indexed": true,
          "internalType": "uint256",
          "name": "wizardId",
          "type": "uint256"
        },
        {
          "indexed": false,
          "internalType": "uint256",
          "name": "timestamp",
          "type": "uint256"
        }
      ],
      "name": "Initiated",
      "type": "event"
    },
    {
      "anonymous": false,
      "inputs": [
        {
          "indexed": false,
          "internalType": "address",
          "name": "appointer",
          "type": "address"
        }
      ],
      "name": "NewAppointer",
      "type": "event"
    },
    {
      "anonymous": false,
      "inputs": [
        {
          "indexed": false,
          "internalType": "address",
          "name": "culler",
          "type": "address"
        }
      ],
      "name": "NewCuller",
      "type": "event"
    },
    {
      "anonymous": false,
      "inputs": [
        {
          "indexed": false,
          "internalType": "address",
          "name": "verifier",
          "type": "address"
        }
      ],
      "name": "NewVerifier",
      "type": "event"
    },
    {
      "anonymous": false,
      "inputs": [
        {
          "indexed": true,
          "internalType": "address",
          "name": "previousOwner",
          "type": "address"
        },
        {
          "indexed": true,
          "internalType": "address",
          "name": "newOwner",
          "type": "address"
        }
      ],
      "name": "OwnershipTransferred",
      "type": "event"
    },
    {
      "anonymous": false,
      "inputs": [
        {
          "indexed": true,
          "internalType": "address",
          "name": "from",
          "type": "address"
        },
        {
          "indexed": true,
          "internalType": "address",
          "name": "to",
          "type": "address"
        },
        {
          "indexed": true,
          "internalType": "uint256",
          "name": "tokenId",
          "type": "uint256"
        }
      ],
      "name": "Transfer",
      "type": "event"
    },
    {
      "inputs": [
        {
          "internalType": "uint256",
          "name": "_wizardId",
          "type": "uint256"
        },
        {
          "internalType": "uint16",
          "name": "_role",
          "type": "uint16"
        }
      ],
      "name": "appointRole",
      "outputs": [],
      "stateMutability": "nonpayable",
      "type": "function"
    },
    {
      "inputs": [],
      "name": "appointer",
      "outputs": [
        {
          "internalType": "address",
          "name": "",
          "type": "address"
        }
      ],
      "stateMutability": "view",
      "type": "function"
    },
    {
      "inputs": [
        {
          "internalType": "address",
          "name": "to",
          "type": "address"
        },
        {
          "internalType": "uint256",
          "name": "tokenId",
          "type": "uint256"
        }
      ],
      "name": "approve",
      "outputs": [],
      "stateMutability": "nonpayable",
      "type": "function"
    },
    {
      "inputs": [
        {
          "internalType": "address",
          "name": "owner",
          "type": "address"
        }
      ],
      "name": "balanceOf",
      "outputs": [
        {
          "internalType": "uint256",
          "name": "",
          "type": "uint256"
        }
      ],
      "stateMutability": "view",
      "type": "function"
    },
    {
      "inputs": [],
      "name": "contractSettings",
      "outputs": [
        {
          "internalType": "uint256",
          "name": "mintCost",
          "type": "uint256"
        },
        {
          "internalType": "uint256",
          "name": "initiationCost",
          "type": "uint256"
        },
        {
          "internalType": "uint256",
          "name": "maxSupply",
          "type": "uint256"
        },
        {
          "internalType": "uint256",
          "name": "protectionTimeExtension",
          "type": "uint256"
        },
        {
          "internalType": "uint256",
          "name": "exileTimePenalty",
          "type": "uint256"
        },
        {
          "internalType": "address",
          "name": "ecosystemTokenAddress",
          "type": "address"
        },
        {
          "internalType": "uint256",
          "name": "phaseDuration",
          "type": "uint256"
        },
        {
          "internalType": "uint256",
          "name": "totalPhases",
          "type": "uint256"
        },
        {
          "internalType": "uint256",
          "name": "maturityThreshold",
          "type": "uint256"
        },
        {
          "internalType": "string",
          "name": "imageBaseURI",
          "type": "string"
        }
      ],
      "stateMutability": "view",
      "type": "function"
    },
    {
      "inputs": [
        {
          "internalType": "uint256",
          "name": "_wizardId",
          "type": "uint256"
        }
      ],
      "name": "cull",
      "outputs": [],
      "stateMutability": "nonpayable",
      "type": "function"
    },
    {
      "inputs": [],
      "name": "culler",
      "outputs": [
        {
          "internalType": "address",
          "name": "",
          "type": "address"
        }
      ],
      "stateMutability": "view",
      "type": "function"
    },
    {
      "inputs": [
        {
          "internalType": "uint256",
          "name": "_wizardId",
          "type": "uint256"
        }
      ],
      "name": "exile",
      "outputs": [],
      "stateMutability": "nonpayable",
      "type": "function"
    },
    {
      "inputs": [
        {
          "internalType": "uint256",
          "name": "_wizardId",
          "type": "uint256"
        },
        {
          "internalType": "string",
          "name": "imageURI",
          "type": "string"
        }
      ],
      "name": "formatTokenURI",
      "outputs": [
        {
          "internalType": "string",
          "name": "",
          "type": "string"
        }
      ],
      "stateMutability": "view",
      "type": "function"
    },
    {
      "inputs": [
        {
          "internalType": "uint256",
          "name": "tokenId",
          "type": "uint256"
        }
      ],
      "name": "getApproved",
      "outputs": [
        {
          "internalType": "address",
          "name": "",
          "type": "address"
        }
      ],
      "stateMutability": "view",
      "type": "function"
    },
    {
      "inputs": [
        {
          "internalType": "uint256",
          "name": "_wizardId",
          "type": "uint256"
        }
      ],
      "name": "getPhaseOf",
      "outputs": [
        {
          "internalType": "uint256",
          "name": "",
          "type": "uint256"
        }
      ],
      "stateMutability": "view",
      "type": "function"
    },
    {
      "inputs": [
        {
          "internalType": "uint256",
          "name": "_wizardId",
          "type": "uint256"
        }
      ],
      "name": "getRole",
      "outputs": [
        {
          "internalType": "uint256",
          "name": "",
          "type": "uint256"
        }
      ],
      "stateMutability": "view",
      "type": "function"
    },
    {
      "inputs": [
        {
          "internalType": "uint256",
          "name": "_wizardId",
          "type": "uint256"
        }
      ],
      "name": "getStatsGivenId",
      "outputs": [
        {
          "components": [
            {
              "internalType": "uint128",
              "name": "level",
              "type": "uint128"
            },
            {
              "internalType": "uint128",
              "name": "tokensClaimed",
              "type": "uint128"
            },
            {
              "internalType": "uint128",
              "name": "contributionKarma",
              "type": "uint128"
            },
            {
              "internalType": "uint16",
              "name": "role",
              "type": "uint16"
            },
            {
              "internalType": "uint16",
              "name": "uplineId",
              "type": "uint16"
            },
            {
              "internalType": "uint40",
              "name": "initiationTimestamp",
              "type": "uint40"
            },
            {
              "internalType": "uint40",
              "name": "protectedUntilTimestamp",
              "type": "uint40"
            },
            {
              "internalType": "enum Wizards.ELEMENT",
              "name": "element",
              "type": "uint8"
            }
          ],
          "internalType": "struct Wizards.Stats",
          "name": "",
          "type": "tuple"
        }
      ],
      "stateMutability": "view",
      "type": "function"
    },
    {
      "inputs": [
        {
          "internalType": "uint256",
          "name": "_wizardId",
          "type": "uint256"
        }
      ],
      "name": "getUplineId",
      "outputs": [
        {
          "internalType": "uint256",
          "name": "",
          "type": "uint256"
        }
      ],
      "stateMutability": "view",
      "type": "function"
    },
    {
      "inputs": [
        {
          "internalType": "uint256",
          "name": "_wizardId",
          "type": "uint256"
        }
      ],
      "name": "hasDeserted",
      "outputs": [
        {
          "internalType": "bool",
          "name": "",
          "type": "bool"
        }
      ],
      "stateMutability": "view",
      "type": "function"
    },
    {
      "inputs": [
        {
          "internalType": "uint256",
          "name": "_wizardId",
          "type": "uint256"
        },
        {
          "internalType": "uint40",
          "name": "_timeReward",
          "type": "uint40"
        }
      ],
      "name": "increaseProtectedUntilTimestamp",
      "outputs": [],
      "stateMutability": "nonpayable",
      "type": "function"
    },
    {
      "inputs": [
        {
          "internalType": "uint256",
          "name": "_wizardId",
          "type": "uint256"
        }
      ],
      "name": "initiate",
      "outputs": [],
      "stateMutability": "payable",
      "type": "function"
    },
    {
      "inputs": [
        {
          "internalType": "uint256",
          "name": "_wizardId",
          "type": "uint256"
        }
      ],
      "name": "isActive",
      "outputs": [
        {
          "internalType": "bool",
          "name": "",
          "type": "bool"
        }
      ],
      "stateMutability": "view",
      "type": "function"
    },
    {
      "inputs": [
        {
          "internalType": "address",
          "name": "owner",
          "type": "address"
        },
        {
          "internalType": "address",
          "name": "operator",
          "type": "address"
        }
      ],
      "name": "isApprovedForAll",
      "outputs": [
        {
          "internalType": "bool",
          "name": "",
          "type": "bool"
        }
      ],
      "stateMutability": "view",
      "type": "function"
    },
    {
      "inputs": [
        {
          "internalType": "uint256",
          "name": "_wizardId",
          "type": "uint256"
        }
      ],
      "name": "isExiled",
      "outputs": [
        {
          "internalType": "bool",
          "name": "",
          "type": "bool"
        }
      ],
      "stateMutability": "view",
      "type": "function"
    },
    {
      "inputs": [
        {
          "internalType": "uint256",
          "name": "_wizardId",
          "type": "uint256"
        }
      ],
      "name": "isMature",
      "outputs": [
        {
          "internalType": "bool",
          "name": "",
          "type": "bool"
        }
      ],
      "stateMutability": "view",
      "type": "function"
    },
    {
      "inputs": [
        {
          "internalType": "uint16",
          "name": "_uplineId",
          "type": "uint16"
        }
      ],
      "name": "mint",
      "outputs": [],
      "stateMutability": "nonpayable",
      "type": "function"
    },
    {
      "inputs": [
        {
          "internalType": "string",
          "name": "_imageBaseURI",
          "type": "string"
        },
        {
          "internalType": "uint256",
          "name": "_phaseDuration",
          "type": "uint256"
        },
        {
          "internalType": "uint256",
          "name": "_protectionTimeExtension",
          "type": "uint256"
        },
        {
          "internalType": "uint256",
          "name": "_mintCost",
          "type": "uint256"
        },
        {
          "internalType": "uint256",
          "name": "_initiationCost",
          "type": "uint256"
        },
        {
          "internalType": "uint256",
          "name": "_maturityThreshold",
          "type": "uint256"
        }
      ],
      "name": "modifyContractSettings",
      "outputs": [],
      "stateMutability": "nonpayable",
      "type": "function"
    },
    {
      "inputs": [],
      "name": "name",
      "outputs": [
        {
          "internalType": "string",
          "name": "",
          "type": "string"
        }
      ],
      "stateMutability": "view",
      "type": "function"
    },
    {
      "inputs": [],
      "name": "owner",
      "outputs": [
        {
          "internalType": "address",
          "name": "",
          "type": "address"
        }
      ],
      "stateMutability": "view",
      "type": "function"
    },
    {
      "inputs": [
        {
          "internalType": "uint256",
          "name": "tokenId",
          "type": "uint256"
        }
      ],
      "name": "ownerOf",
      "outputs": [
        {
          "internalType": "address",
          "name": "",
          "type": "address"
        }
      ],
      "stateMutability": "view",
      "type": "function"
    },
    {
      "inputs": [],
      "name": "renounceOwnership",
      "outputs": [],
      "stateMutability": "nonpayable",
      "type": "function"
    },
    {
      "inputs": [
        {
          "internalType": "address",
          "name": "from",
          "type": "address"
        },
        {
          "internalType": "address",
          "name": "to",
          "type": "address"
        },
        {
          "internalType": "uint256",
          "name": "tokenId",
          "type": "uint256"
        }
      ],
      "name": "safeTransferFrom",
      "outputs": [],
      "stateMutability": "nonpayable",
      "type": "function"
    },
    {
      "inputs": [
        {
          "internalType": "address",
          "name": "from",
          "type": "address"
        },
        {
          "internalType": "address",
          "name": "to",
          "type": "address"
        },
        {
          "internalType": "uint256",
          "name": "tokenId",
          "type": "uint256"
        },
        {
          "internalType": "bytes",
          "name": "_data",
          "type": "bytes"
        }
      ],
      "name": "safeTransferFrom",
      "outputs": [],
      "stateMutability": "nonpayable",
      "type": "function"
    },
    {
      "inputs": [
        {
          "internalType": "address",
          "name": "operator",
          "type": "address"
        },
        {
          "internalType": "bool",
          "name": "approved",
          "type": "bool"
        }
      ],
      "name": "setApprovalForAll",
      "outputs": [],
      "stateMutability": "nonpayable",
      "type": "function"
    },
    {
      "inputs": [
        {
          "internalType": "bytes4",
          "name": "interfaceId",
          "type": "bytes4"
        }
      ],
      "name": "supportsInterface",
      "outputs": [
        {
          "internalType": "bool",
          "name": "",
          "type": "bool"
        }
      ],
      "stateMutability": "view",
      "type": "function"
    },
    {
      "inputs": [],
      "name": "symbol",
      "outputs": [
        {
          "internalType": "string",
          "name": "",
          "type": "string"
        }
      ],
      "stateMutability": "view",
      "type": "function"
    },
    {
      "inputs": [
        {
          "internalType": "uint256",
          "name": "index",
          "type": "uint256"
        }
      ],
      "name": "tokenByIndex",
      "outputs": [
        {
          "internalType": "uint256",
          "name": "",
          "type": "uint256"
        }
      ],
      "stateMutability": "view",
      "type": "function"
    },
    {
      "inputs": [
        {
          "internalType": "uint256",
          "name": "",
          "type": "uint256"
        }
      ],
      "name": "tokenIdToStats",
      "outputs": [
        {
          "internalType": "uint128",
          "name": "level",
          "type": "uint128"
        },
        {
          "internalType": "uint128",
          "name": "tokensClaimed",
          "type": "uint128"
        },
        {
          "internalType": "uint128",
          "name": "contributionKarma",
          "type": "uint128"
        },
        {
          "internalType": "uint16",
          "name": "role",
          "type": "uint16"
        },
        {
          "internalType": "uint16",
          "name": "uplineId",
          "type": "uint16"
        },
        {
          "internalType": "uint40",
          "name": "initiationTimestamp",
          "type": "uint40"
        },
        {
          "internalType": "uint40",
          "name": "protectedUntilTimestamp",
          "type": "uint40"
        },
        {
          "internalType": "enum Wizards.ELEMENT",
          "name": "element",
          "type": "uint8"
        }
      ],
      "stateMutability": "view",
      "type": "function"
    },
    {
      "inputs": [
        {
          "internalType": "address",
          "name": "owner",
          "type": "address"
        },
        {
          "internalType": "uint256",
          "name": "index",
          "type": "uint256"
        }
      ],
      "name": "tokenOfOwnerByIndex",
      "outputs": [
        {
          "internalType": "uint256",
          "name": "",
          "type": "uint256"
        }
      ],
      "stateMutability": "view",
      "type": "function"
    },
    {
      "inputs": [
        {
          "internalType": "uint256",
          "name": "_wizardId",
          "type": "uint256"
        }
      ],
      "name": "tokenURI",
      "outputs": [
        {
          "internalType": "string",
          "name": "",
          "type": "string"
        }
      ],
      "stateMutability": "view",
      "type": "function"
    },
    {
      "inputs": [],
      "name": "totalSupply",
      "outputs": [
        {
          "internalType": "uint256",
          "name": "",
          "type": "uint256"
        }
      ],
      "stateMutability": "view",
      "type": "function"
    },
    {
      "inputs": [
        {
          "internalType": "address",
          "name": "from",
          "type": "address"
        },
        {
          "internalType": "address",
          "name": "to",
          "type": "address"
        },
        {
          "internalType": "uint256",
          "name": "tokenId",
          "type": "uint256"
        }
      ],
      "name": "transferFrom",
      "outputs": [],
      "stateMutability": "nonpayable",
      "type": "function"
    },
    {
      "inputs": [
        {
          "internalType": "address",
          "name": "newOwner",
          "type": "address"
        }
      ],
      "name": "transferOwnership",
      "outputs": [],
      "stateMutability": "nonpayable",
      "type": "function"
    },
    {
      "inputs": [
        {
          "internalType": "address",
          "name": "_appointer",
          "type": "address"
        }
      ],
      "name": "updateAppointer",
      "outputs": [],
      "stateMutability": "nonpayable",
      "type": "function"
    },
    {
      "inputs": [
        {
          "internalType": "address",
          "name": "_culler",
          "type": "address"
        }
      ],
      "name": "updateCuller",
      "outputs": [],
      "stateMutability": "nonpayable",
      "type": "function"
    },
    {
      "inputs": [
        {
          "internalType": "address",
          "name": "_verifier",
          "type": "address"
        }
      ],
      "name": "updateVerifier",
      "outputs": [],
      "stateMutability": "nonpayable",
      "type": "function"
    },
    {
      "inputs": [],
      "name": "verifier",
      "outputs": [
        {
          "internalType": "address",
          "name": "",
          "type": "address"
        }
      ],
      "stateMutability": "view",
      "type": "function"
    }
  ],
  "bytecode": "60806040523480156200001157600080fd5b5060405162003fd438038062003fd483398101604081905262000034916200021a565b838360006200004483826200035c565b5060016200005382826200035c565b505050620000706200006a620000f760201b60201c565b620000fb565b61271060115560016010556005600f5562015180601255601480546001600160a01b0319166001600160a01b038416179055610e106015556018620000b682826200035c565b505060086016555050600060175550600c8054336001600160a01b03199182168117909255600d8054821683179055600e8054909116909117905562000428565b3390565b600a80546001600160a01b038381166001600160a01b0319831681179093556040519116919082907f8be0079c531659141344cd1fd0a4f28419497f9722a3daafe3b4186f6b6457e090600090a35050565b634e487b7160e01b600052604160045260246000fd5b600082601f8301126200017557600080fd5b81516001600160401b03808211156200019257620001926200014d565b604051601f8301601f19908116603f01168101908282118183101715620001bd57620001bd6200014d565b81604052838152602092508683858801011115620001da57600080fd5b600091505b83821015620001fe5785820183015181830184015290820190620001df565b83821115620002105760008385830101525b9695505050505050565b600080600080608085870312156200023157600080fd5b84516001600160401b03808211156200024957600080fd5b620002578883890162000163565b955060208701519150808211156200026e57600080fd5b6200027c8883890162000163565b604088015190955091506001600160a01b03821682146200029c57600080fd5b606087015191935080821115620002b257600080fd5b50620002c18782880162000163565b91505092959194509250565b600181811c90821680620002e257607f821691505b6020821081036200030357634e487b7160e01b600052602260045260246000fd5b50919050565b601f8211156200035757600081815260208120601f850160051c81016020861015620003325750805b601f850160051c820191505b8181101562000353578281556001016200033e565b5050505b505050565b81516001600160401b038111156200037857620003786200014d565b6200039081620003898454620002cd565b8462000309565b602080601f831160018114620003c85760008415620003af5750858301515b600019600386901b1c1916600185901b17855562000353565b600085815260208120601f198616915b82811015620003f957888601518255948401946001909101908401620003d8565b5085821015620004185787850151600019600388901b60f8161c191681555b5050505050600190811b01905550565b613b9c80620004386000396000f3fe60806040526004361061025c5760003560e01c80636dc1a9931161014457806397fc007c116100b6578063c87b56dd1161007a578063c87b56dd1461071d578063c87bfc7f1461073d578063db2a0a55146107d9578063e833bf6314610804578063e985e9c514610824578063f2fde38b1461086d57600080fd5b806397fc007c1461067d578063a22cb4651461069d578063ad275cbb146106bd578063b88d4fde146106dd578063c3cf52be146106fd57600080fd5b806386954c5e1161010857806386954c5e146105bd5780638b8555d6146105dd5780638cb22518146105fd5780638da5179a1461062a5780638da5cb5b1461064a57806395d89b411461066857600080fd5b80636dc1a9931461053557806370a0823114610555578063715018a6146105755780637901ea781461058a57806382afd23b1461059d57600080fd5b80632f745c59116101dd5780634a535a55116101a15780634a535a55146104755780634f6ccce7146104955780635312fdc2146104b557806354e14151146104d55780636352211e146104f5578063690c8e181461051557600080fd5b80632f745c59146103d557806330df0612146103f55780633e55e63d1461041557806340ebcb8e1461043557806342842e0e1461045557600080fd5b8063095ea7b311610224578063095ea7b31461033e57806318160ddd1461036057806323b872dd1461037557806323cf0a22146103955780632b7ac3f3146103b557600080fd5b806301ffc9a7146102615780630419e3141461029657806305106353146102c357806306fdde03146102f1578063081812fc14610306575b600080fd5b34801561026d57600080fd5b5061028161027c366004612c85565b61088d565b60405190151581526020015b60405180910390f35b3480156102a257600080fd5b506102b66102b1366004612d4e565b6108b8565b60405161028d9190612ded565b3480156102cf57600080fd5b506102e36102de366004612e00565b610ab4565b60405190815260200161028d565b3480156102fd57600080fd5b506102b6610b8c565b34801561031257600080fd5b50610326610321366004612e00565b610c1e565b6040516001600160a01b03909116815260200161028d565b34801561034a57600080fd5b5061035e610359366004612e35565b610cb3565b005b34801561036c57600080fd5b506008546102e3565b34801561038157600080fd5b5061035e610390366004612e5f565b610dc8565b3480156103a157600080fd5b5061035e6103b0366004612ead565b610df9565b3480156103c157600080fd5b50600c54610326906001600160a01b031681565b3480156103e157600080fd5b506102e36103f0366004612e35565b6110d8565b34801561040157600080fd5b5061035e610410366004612ec8565b61116e565b34801561042157600080fd5b50610281610430366004612e00565b61122f565b34801561044157600080fd5b5061035e610450366004612e00565b611272565b34801561046157600080fd5b5061035e610470366004612e5f565b6112d3565b34801561048157600080fd5b5061035e610490366004612ee3565b6112ee565b3480156104a157600080fd5b506102e36104b0366004612e00565b61133d565b3480156104c157600080fd5b506102e36104d0366004612e00565b6113d0565b3480156104e157600080fd5b5061035e6104f0366004612ec8565b611420565b34801561050157600080fd5b50610326610510366004612e00565b6114da565b34801561052157600080fd5b5061035e610530366004612e00565b611551565b34801561054157600080fd5b5061035e610550366004612f48565b6115b7565b34801561056157600080fd5b506102e3610570366004612ec8565b611661565b34801561058157600080fd5b5061035e6116e8565b61035e610598366004612e00565b61171e565b3480156105a957600080fd5b506102816105b8366004612e00565b611957565b3480156105c957600080fd5b5061035e6105d8366004612f74565b6119ad565b3480156105e957600080fd5b506102e36105f8366004612e00565b611af8565b34801561060957600080fd5b5061061d610618366004612e00565b611b48565b60405161028d9190612fe6565b34801561063657600080fd5b50610281610645366004612e00565b611c7d565b34801561065657600080fd5b50600a546001600160a01b0316610326565b34801561067457600080fd5b506102b6611cfb565b34801561068957600080fd5b5061035e610698366004612ec8565b611d0a565b3480156106a957600080fd5b5061035e6106b836600461307f565b611dc4565b3480156106c957600080fd5b50600d54610326906001600160a01b031681565b3480156106e957600080fd5b5061035e6106f83660046130b0565b611e88565b34801561070957600080fd5b50600e54610326906001600160a01b031681565b34801561072957600080fd5b506102b6610738366004612e00565b611eba565b34801561074957600080fd5b506107c5610758366004612e00565b600b60205260009081526040902080546001909101546001600160801b0380831692600160801b908190048216929182169161ffff918104821691600160901b8204169064ffffffffff600160a01b8204811691600160c81b81049091169060ff600160f01b9091041688565b60405161028d98979695949392919061312c565b3480156107e557600080fd5b506107ee61203c565b60405161028d9a9998979695949392919061318e565b34801561081057600080fd5b5061028161081f366004612e00565b612105565b34801561083057600080fd5b5061028161083f3660046131f3565b6001600160a01b03918216600090815260056020908152604080832093909416825291909152205460ff1690565b34801561087957600080fd5b5061035e610888366004612ec8565b612182565b60006001600160e01b0319821663780e9d6360e01b14806108b257506108b28261221a565b92915050565b6000828152600b6020908152604080832081516101008101835281546001600160801b038082168352600160801b9182900481169583019590955260018301549485169382019390935261ffff9284048316606082810191909152600160901b8504909316608082015264ffffffffff600160a01b8504811660a0830152600160c81b85041660c082015291939260e083019060ff600160f01b90910416600381111561096757610967612fae565b600381111561097857610978612fae565b81525050905060008361099783600001516001600160801b031661226a565b6040516020016109a8929190613239565b6040516020818303038152906040529050806109c56103e761226a565b6109d06103e761226a565b6109db61270f61226a565b6040516020016109ee9493929190613393565b604051602081830303815290604052905080610a0b6103e761226a565b610a166103e761226a565b604051602001610a28939291906134c5565b604051602081830303815290604052905080610a456103e761226a565b610a506103e761226a565b610a6685602001516001600160801b031661226a565b604051602001610a7994939291906135a2565b604051602081830303815290604052905080604051602001610a9b91906136b8565b60408051808303601f1901815291905295945050505050565b60008115801590610ac757506008548211155b610aec5760405162461bcd60e51b8152600401610ae3906136e7565b60405180910390fd5b601654600090610afe90600190613725565b6015546000858152600b6020526040902060010154610b2b90600160a01b900464ffffffffff1642613725565b610b359190613752565b11610b76576015546000848152600b6020526040902060010154610b6790600160a01b900464ffffffffff1642613725565b610b719190613752565b610b85565b601654610b8590600190613725565b9392505050565b606060008054610b9b90613766565b80601f0160208091040260200160405190810160405280929190818152602001828054610bc790613766565b8015610c145780601f10610be957610100808354040283529160200191610c14565b820191906000526020600020905b815481529060010190602001808311610bf757829003601f168201915b5050505050905090565b6000818152600260205260408120546001600160a01b0316610c975760405162461bcd60e51b815260206004820152602c60248201527f4552433732313a20617070726f76656420717565727920666f72206e6f6e657860448201526b34b9ba32b73a103a37b5b2b760a11b6064820152608401610ae3565b506000908152600460205260409020546001600160a01b031690565b6000610cbe826114da565b9050806001600160a01b0316836001600160a01b031603610d2b5760405162461bcd60e51b815260206004820152602160248201527f4552433732313a20617070726f76616c20746f2063757272656e74206f776e656044820152603960f91b6064820152608401610ae3565b336001600160a01b0382161480610d475750610d47813361083f565b610db95760405162461bcd60e51b815260206004820152603860248201527f4552433732313a20617070726f76652063616c6c6572206973206e6f74206f7760448201527f6e6572206e6f7220617070726f76656420666f7220616c6c00000000000000006064820152608401610ae3565b610dc3838361236b565b505050565b610dd233826123d9565b610dee5760405162461bcd60e51b8152600401610ae3906137a0565b610dc38383836124cc565b60115460085410610e3d5760405162461bcd60e51b815260206004820152600e60248201526d30ba1036b0bc1039bab838363c9760911b6044820152606401610ae3565b6008548161ffff161115610eaa5760405162461bcd60e51b815260206004820152602e60248201527f696e76616c69642075706c696e652d2d6d757374206265206c6573732074686160448201526d6e20746f74616c20737570706c7960901b6064820152608401610ae3565b6000610eb560085490565b6040805160208101929092526bffffffffffffffffffffffff193360601b169082015242605482015260740160408051601f198184030181529190528051602090910120905060006004610f0a600a84613752565b610f159060066137f1565b610f1f9190613810565b6003811115610f3057610f30612fae565b6040805161010081018252600181526000602082018190529181018290526060810182905261ffff8616608082015260a0810182905260c081018290529192509060e08101836003811115610f8757610f87612fae565b9052905080600b6000610f9960085490565b610fa4906001613824565b815260208082019290925260409081016000208351928401516001600160801b03938416600160801b9185168202178255918401516001820180546060870151608088015160a089015160c08a01519590981671ffffffffffffffffffffffffffffffffffff199093169290921761ffff9182169096029590951766ffffffffffffff60901b1916600160901b959091169490940264ffffffffff60a01b191693909317600160a01b64ffffffffff958616021764ffffffffff60c81b198116600160c81b9590921694909402908117835560e0850151919391929165ffffffffffff60c81b191660ff60f01b1990911617600160f01b8360038111156110ad576110ad612fae565b02179055509050506110d2336110c260085490565b6110cd906001613824565b612677565b50505050565b60006110e383611661565b82106111455760405162461bcd60e51b815260206004820152602b60248201527f455243373231456e756d657261626c653a206f776e657220696e646578206f7560448201526a74206f6620626f756e647360a81b6064820152608401610ae3565b506001600160a01b03919091166000908152600660209081526040808320938352929052205490565b600a546001600160a01b031633146111985760405162461bcd60e51b8152600401610ae39061383c565b6001600160a01b038116158015906111be5750600e546001600160a01b03828116911614155b6111da5760405162461bcd60e51b8152600401610ae390613871565b600e80546001600160a01b0319166001600160a01b0383169081179091556040519081527f35829bf1dc2d1c476529eca85a3ba530615d11b4a5255ff7b730b4e1153e92c0906020015b60405180910390a150565b6000811580159061124257506008548211155b61125e5760405162461bcd60e51b8152600401610ae3906136e7565b60175461126a83610ab4565b101592915050565b61127b81611c7d565b6112c75760405162461bcd60e51b815260206004820152601960248201527f77697a6172642063616e206e6f74206265206578696c65642e000000000000006044820152606401610ae3565b6112d081612695565b50565b610dc383838360405180602001604052806000815250611e88565b600a546001600160a01b031633146113185760405162461bcd60e51b8152600401610ae39061383c565b601861132487826138f6565b50601594909455601292909255600f5560105560175550565b600061134860085490565b82106113ab5760405162461bcd60e51b815260206004820152602c60248201527f455243373231456e756d657261626c653a20676c6f62616c20696e646578206f60448201526b7574206f6620626f756e647360a01b6064820152608401610ae3565b600882815481106113be576113be6139b6565b90600052602060002001549050919050565b600081158015906113e357506008548211155b6113ff5760405162461bcd60e51b8152600401610ae3906136e7565b506000908152600b6020526040902060010154600160801b900461ffff1690565b600a546001600160a01b0316331461144a5760405162461bcd60e51b8152600401610ae39061383c565b6001600160a01b038116158015906114705750600d546001600160a01b03828116911614155b61148c5760405162461bcd60e51b8152600401610ae390613871565b600d80546001600160a01b0319166001600160a01b0383169081179091556040519081527f98543b1b9bbf23b0ca565be0f1a833222e982f36322287bf2e001b1227473afe90602001611224565b6000818152600260205260408120546001600160a01b0316806108b25760405162461bcd60e51b815260206004820152602960248201527f4552433732313a206f776e657220717565727920666f72206e6f6e657869737460448201526832b73a103a37b5b2b760b91b6064820152608401610ae3565b600d546001600160a01b031633146112c75760405162461bcd60e51b815260206004820152602360248201527f4f6e6c792063756c6c65722063616e2063616c6c20746869732066756e63746960448201526237b71760e91b6064820152608401610ae3565b600e546001600160a01b031633146116025760405162461bcd60e51b815260206004820152600e60248201526d37b7363c9030b83837b4b73a32b960911b6044820152606401610ae3565b811580159061161357506008548211155b61162f5760405162461bcd60e51b8152600401610ae3906136e7565b6000918252600b6020526040909120600101805461ffff909216600160801b0261ffff60801b19909216919091179055565b60006001600160a01b0382166116cc5760405162461bcd60e51b815260206004820152602a60248201527f4552433732313a2062616c616e636520717565727920666f7220746865207a65604482015269726f206164647265737360b01b6064820152608401610ae3565b506001600160a01b031660009081526003602052604090205490565b600a546001600160a01b031633146117125760405162461bcd60e51b8152600401610ae39061383c565b61171c6000612720565b565b33611728826114da565b6001600160a01b03161461176e5760405162461bcd60e51b815260206004820152600d60248201526c36bab9ba1031329037bbb732b960991b6044820152606401610ae3565b6000818152600b6020526040902060010154600160a01b900464ffffffffff16156117cf5760405162461bcd60e51b8152602060048201526011602482015270185b1c9958591e481a5b9a5d1a585d1959607a1b6044820152606401610ae3565b6013546000828152600b602052604090206001015442916117fd91600160c81b900464ffffffffff16613824565b1061185b5760405162461bcd60e51b815260206004820152602860248201527f4578696c65642077697a617264206e6f742079657420616c6c6f77656420746f604482015267103932ba3ab9371760c11b6064820152608401610ae3565b60105434146118ac5760405162461bcd60e51b815260206004820152601760248201527f696e636f727265637420696e69746961746f6e206665650000000000000000006044820152606401610ae3565b6000818152600b6020526040902060018101805464ffffffffff42908116600160a01b0264ffffffffff60a01b19909216919091179091556012546118f091613824565b60018201805464ffffffffff92909216600160c81b0264ffffffffff60c81b199092169190911790556040805133815242602082015283917f1782b66bbe30900ee88feab2f2cd676d136386cc51cdf73f6cae8b1da253ddf7910160405180910390a25050565b6000811580159061196a57506008548211155b6119865760405162461bcd60e51b8152600401610ae3906136e7565b506000908152600b602052604090206001015442600160c81b90910464ffffffffff161190565b600c546001600160a01b031633146119f75760405162461bcd60e51b815260206004820152600d60248201526c37b7363c903b32b934b334b2b960991b6044820152606401610ae3565b8115801590611a0857506008548211155b611a415760405162461bcd60e51b815260206004820152600a6024820152691a5b9d985b1a59081a5960b21b6044820152606401610ae3565b6000828152600b6020526040812060010154600160a01b900464ffffffffff169003611aa25760405162461bcd60e51b815260206004820152601060248201526f1a5cc81b9bdd081a5b9a5d1a585d195960821b6044820152606401610ae3565b6000828152600b602052604090206001018054829190601990611ad4908490600160c81b900464ffffffffff166139cc565b92506101000a81548164ffffffffff021916908364ffffffffff1602179055505050565b60008115801590611b0b57506008548211155b611b275760405162461bcd60e51b8152600401610ae3906136e7565b506000908152600b6020526040902060010154600160901b900461ffff1690565b611b8d6040805161010081018252600080825260208201819052918101829052606081018290526080810182905260a0810182905260c081018290529060e082015290565b8115801590611b9e57506008548211155b611bba5760405162461bcd60e51b8152600401610ae3906136e7565b6000828152600b602090815260409182902082516101008101845281546001600160801b038082168352600160801b9182900481169483019490945260018301549384169482019490945292820461ffff9081166060850152600160901b8304166080840152600160a01b820464ffffffffff90811660a0850152600160c81b83041660c08401529060e0830190600160f01b900460ff166003811115611c6357611c63612fae565b6003811115611c7457611c74612fae565b90525092915050565b60008115801590611c9057506008548211155b611cac5760405162461bcd60e51b8152600401610ae3906136e7565b6000828152600b602052604090206001015442600160c81b90910464ffffffffff161080156108b25750506000908152600b6020526040902060010154600160a01b900464ffffffffff161590565b606060018054610b9b90613766565b600a546001600160a01b03163314611d345760405162461bcd60e51b8152600401610ae39061383c565b6001600160a01b03811615801590611d5a5750600c546001600160a01b03828116911614155b611d765760405162461bcd60e51b8152600401610ae390613871565b600c80546001600160a01b0319166001600160a01b0383169081179091556040519081527fa1fd6a6669acb930bae242943bb9fa08ddcba665c707261e9730ee0305fb85e590602001611224565b336001600160a01b03831603611e1c5760405162461bcd60e51b815260206004820152601960248201527f4552433732313a20617070726f766520746f2063616c6c6572000000000000006044820152606401610ae3565b3360008181526005602090815260408083206001600160a01b03871680855290835292819020805460ff191686151590811790915590519081529192917f17307eab39ab6107e8899845ad3d59bd9653f200f220920489ca2b5937696c31910160405180910390a35050565b611e9233836123d9565b611eae5760405162461bcd60e51b8152600401610ae3906137a0565b6110d284848484612772565b6000818152600260205260409020546060906001600160a01b0316611f395760405162461bcd60e51b815260206004820152602f60248201527f4552433732314d657461646174613a2055524920717565727920666f72206e6f60448201526e3732bc34b9ba32b73a103a37b5b2b760891b6064820152608401610ae3565b6000828152600b6020526040812060010154606091600160a01b90910464ffffffffff169003611f8b575060408051808201909152600b81526a1d5b9a5b9a5d1a585d195960aa1b6020820152612002565b611f9483612105565b15611fbc5750604080518082019091526006815265195e1a5b195960d21b6020820152612002565b611fc583611957565b611fee5750604080518082019091526008815267696e61637469766560c01b6020820152612002565b611fff611ffa84610ab4565b61226a565b90505b6040516000906120199060189084906020016139f5565b604051602081830303815290604052905061203484826108b8565b949350505050565b600f805460105460115460125460135460145460155460165460175460188054999a98999798969795966001600160a01b03909516959394929391929161208290613766565b80601f01602080910402602001604051908101604052809291908181526020018280546120ae90613766565b80156120fb5780601f106120d0576101008083540402835291602001916120fb565b820191906000526020600020905b8154815290600101906020018083116120de57829003601f168201915b505050505090508a565b6000811580159061211857506008548211155b6121345760405162461bcd60e51b8152600401610ae3906136e7565b6000828152600b6020526040902060010154600160c81b900464ffffffffff16158015906108b25750506000908152600b6020526040902060010154600160a01b900464ffffffffff161590565b600a546001600160a01b031633146121ac5760405162461bcd60e51b8152600401610ae39061383c565b6001600160a01b0381166122115760405162461bcd60e51b815260206004820152602660248201527f4f776e61626c653a206e6577206f776e657220697320746865207a65726f206160448201526564647265737360d01b6064820152608401610ae3565b6112d081612720565b60006001600160e01b031982166380ac58cd60e01b148061224b57506001600160e01b03198216635b5e139f60e01b145b806108b257506301ffc9a760e01b6001600160e01b03198316146108b2565b6060816000036122915750506040805180820190915260018152600360fc1b602082015290565b8160005b81156122bb57806122a581613a8b565b91506122b49050600a83613752565b9150612295565b60008167ffffffffffffffff8111156122d6576122d6612ca2565b6040519080825280601f01601f191660200182016040528015612300576020820181803683370190505b5090505b841561203457612315600183613725565b9150612322600a86613810565b61232d906030613824565b60f81b818381518110612342576123426139b6565b60200101906001600160f81b031916908160001a905350612364600a86613752565b9450612304565b600081815260046020526040902080546001600160a01b0319166001600160a01b03841690811790915581906123a0826114da565b6001600160a01b03167f8c5be1e5ebec7d5bd14f71427d1e84f3dd0314c0f7b2291e5b200ac8c7c3b92560405160405180910390a45050565b6000818152600260205260408120546001600160a01b03166124525760405162461bcd60e51b815260206004820152602c60248201527f4552433732313a206f70657261746f7220717565727920666f72206e6f6e657860448201526b34b9ba32b73a103a37b5b2b760a11b6064820152608401610ae3565b600061245d836114da565b9050806001600160a01b0316846001600160a01b031614806124985750836001600160a01b031661248d84610c1e565b6001600160a01b0316145b8061203457506001600160a01b0380821660009081526005602090815260408083209388168352929052205460ff16612034565b826001600160a01b03166124df826114da565b6001600160a01b0316146125475760405162461bcd60e51b815260206004820152602960248201527f4552433732313a207472616e73666572206f6620746f6b656e2074686174206960448201526839903737ba1037bbb760b91b6064820152608401610ae3565b6001600160a01b0382166125a95760405162461bcd60e51b8152602060048201526024808201527f4552433732313a207472616e7366657220746f20746865207a65726f206164646044820152637265737360e01b6064820152608401610ae3565b6125b48383836127a5565b6125bf60008261236b565b6001600160a01b03831660009081526003602052604081208054600192906125e8908490613725565b90915550506001600160a01b0382166000908152600360205260408120805460019290612616908490613824565b909155505060008181526002602052604080822080546001600160a01b0319166001600160a01b0386811691821790925591518493918716917fddf252ad1be2c89b69c2b068fc378daa952ba7f163c4a11628f55a4df523b3ef91a4505050565b61269182826040518060200160405280600081525061285d565b5050565b80158015906126a657506008548111155b6126df5760405162461bcd60e51b815260206004820152600a6024820152691a5b9d985b1a59081a5960b21b6044820152606401610ae3565b6000908152600b60205260409020600101805469ffffffffffffffffffff60a01b1916600160c81b4264ffffffffff160264ffffffffff60a01b1916179055565b600a80546001600160a01b038381166001600160a01b0319831681179093556040519116919082907f8be0079c531659141344cd1fd0a4f28419497f9722a3daafe3b4186f6b6457e090600090a35050565b61277d8484846124cc565b61278984848484612890565b6110d25760405162461bcd60e51b8152600401610ae390613aa4565b6001600160a01b038316612800576127fb81600880546000838152600960205260408120829055600182018355919091527ff3f7a9fe364faab93b216da50a3214154f22a0a2b415b23a84c8169e8b636ee30155565b612823565b816001600160a01b0316836001600160a01b031614612823576128238382612991565b6001600160a01b03821661283a57610dc381612a2e565b826001600160a01b0316826001600160a01b031614610dc357610dc38282612add565b6128678383612b21565b6128746000848484612890565b610dc35760405162461bcd60e51b8152600401610ae390613aa4565b60006001600160a01b0384163b1561298657604051630a85bd0160e11b81526001600160a01b0385169063150b7a02906128d4903390899088908890600401613af6565b6020604051808303816000875af192505050801561290f575060408051601f3d908101601f1916820190925261290c91810190613b33565b60015b61296c573d80801561293d576040519150601f19603f3d011682016040523d82523d6000602084013e612942565b606091505b5080516000036129645760405162461bcd60e51b8152600401610ae390613aa4565b805181602001fd5b6001600160e01b031916630a85bd0160e11b149050612034565b506001949350505050565b6000600161299e84611661565b6129a89190613725565b6000838152600760205260409020549091508082146129fb576001600160a01b03841660009081526006602090815260408083208584528252808320548484528184208190558352600790915290208190555b5060009182526007602090815260408084208490556001600160a01b039094168352600681528383209183525290812055565b600854600090612a4090600190613725565b60008381526009602052604081205460088054939450909284908110612a6857612a686139b6565b906000526020600020015490508060088381548110612a8957612a896139b6565b6000918252602080832090910192909255828152600990915260408082208490558582528120556008805480612ac157612ac1613b50565b6001900381819060005260206000200160009055905550505050565b6000612ae883611661565b6001600160a01b039093166000908152600660209081526040808320868452825280832085905593825260079052919091209190915550565b6001600160a01b038216612b775760405162461bcd60e51b815260206004820181905260248201527f4552433732313a206d696e7420746f20746865207a65726f20616464726573736044820152606401610ae3565b6000818152600260205260409020546001600160a01b031615612bdc5760405162461bcd60e51b815260206004820152601c60248201527f4552433732313a20746f6b656e20616c7265616479206d696e746564000000006044820152606401610ae3565b612be8600083836127a5565b6001600160a01b0382166000908152600360205260408120805460019290612c11908490613824565b909155505060008181526002602052604080822080546001600160a01b0319166001600160a01b03861690811790915590518392907fddf252ad1be2c89b69c2b068fc378daa952ba7f163c4a11628f55a4df523b3ef908290a45050565b6001600160e01b0319811681146112d057600080fd5b600060208284031215612c9757600080fd5b8135610b8581612c6f565b634e487b7160e01b600052604160045260246000fd5b600067ffffffffffffffff80841115612cd357612cd3612ca2565b604051601f8501601f19908116603f01168101908282118183101715612cfb57612cfb612ca2565b81604052809350858152868686011115612d1457600080fd5b858560208301376000602087830101525050509392505050565b600082601f830112612d3f57600080fd5b610b8583833560208501612cb8565b60008060408385031215612d6157600080fd5b82359150602083013567ffffffffffffffff811115612d7f57600080fd5b612d8b85828601612d2e565b9150509250929050565b60005b83811015612db0578181015183820152602001612d98565b838111156110d25750506000910152565b60008151808452612dd9816020860160208601612d95565b601f01601f19169290920160200192915050565b602081526000610b856020830184612dc1565b600060208284031215612e1257600080fd5b5035919050565b80356001600160a01b0381168114612e3057600080fd5b919050565b60008060408385031215612e4857600080fd5b612e5183612e19565b946020939093013593505050565b600080600060608486031215612e7457600080fd5b612e7d84612e19565b9250612e8b60208501612e19565b9150604084013590509250925092565b803561ffff81168114612e3057600080fd5b600060208284031215612ebf57600080fd5b610b8582612e9b565b600060208284031215612eda57600080fd5b610b8582612e19565b60008060008060008060c08789031215612efc57600080fd5b863567ffffffffffffffff811115612f1357600080fd5b612f1f89828a01612d2e565b9960208901359950604089013598606081013598506080810135975060a0013595509350505050565b60008060408385031215612f5b57600080fd5b82359150612f6b60208401612e9b565b90509250929050565b60008060408385031215612f8757600080fd5b82359150602083013564ffffffffff81168114612fa357600080fd5b809150509250929050565b634e487b7160e01b600052602160045260246000fd5b60048110612fe257634e487b7160e01b600052602160045260246000fd5b9052565b6000610100820190506001600160801b0380845116835280602085015116602084015280604085015116604084015250606083015161ffff8082166060850152806080860151166080850152505060a083015161304c60a084018264ffffffffff169052565b5060c083015161306560c084018264ffffffffff169052565b5060e083015161307860e0840182612fc4565b5092915050565b6000806040838503121561309257600080fd5b61309b83612e19565b915060208301358015158114612fa357600080fd5b600080600080608085870312156130c657600080fd5b6130cf85612e19565b93506130dd60208601612e19565b925060408501359150606085013567ffffffffffffffff81111561310057600080fd5b8501601f8101871361311157600080fd5b61312087823560208401612cb8565b91505092959194509250565b6001600160801b03898116825288811660208301528716604082015261ffff86811660608301528516608082015264ffffffffff84811660a0830152831660c0820152610100810161318160e0830184612fc4565b9998505050505050505050565b60006101408c83528b60208401528a604084015289606084015288608084015260018060a01b03881660a08401528660c08401528560e084015284610100840152806101208401526131e281840185612dc1565b9d9c50505050505050505050505050565b6000806040838503121561320657600080fd5b61320f83612e19565b9150612f6b60208401612e19565b6000815161322f818560208601612d95565b9290920192915050565b7f7b226465736372697074696f6e223a202257697a61726441726d79220000000081527f2c202265787465726e616c5f75726c223a202268747470733a2f2f77697a6172601c8201527f6461726d794e46542e636f6d20286f7220736f6d657468696e67206c696b6520603c820152653a3434b9949160d11b605c8201526b16101134b6b0b3b2911d101160a11b606282015282516000906132e281606e850160208801612d95565b601160f91b606e91840191820152711610113730b6b2911d10112bb4bd30b9321160711b606f8201527f2c202261747472696275746573223a205b7b22646973706c61795f747970652260818201527f3a20226e756d626572222c202274726169745f74797065223a20226c6576656c60a18201526b0111610113b30b63ab2911d160a51b60c182015261338a61337c60cd83018661321d565b61207d60f01b815260020190565b95945050505050565b600085516133a5818460208a01612d95565b80830190507f2c207b22646973706c61795f74797065223a20226e756d626572222c202274728082527f6169745f74797065223a20226870222c202276616c7565223a200000000000006020830152865161340781603a850160208b01612d95565b61207d60f01b603a93909101928301819052603c83018290527f6169745f74797065223a20226d61676963616c20706f776572222c202276616c605c8401526403ab2911d160dd1b607c8401528651613467816081860160208b01612d95565b608193019283015260838201527f6169745f74797065223a20226d61676963616c20646566656e7365222c20227660a382015266030b63ab2911d160cd1b60c38201526134ba61337c60ca83018661321d565b979650505050505050565b600084516134d7818460208901612d95565b80830190507f2c207b22646973706c61795f74797065223a20226e756d626572222c202274728082527f6169745f74797065223a20227370656564222c202276616c7565223a200000006020830152855161353981603d850160208a01612d95565b80830192505061207d60f01b80603d84015281603f8401527f6169745f74797065223a202277696e73222c202276616c7565223a2000000000605f8401528551915061358c82607b850160208901612d95565b607b9290910191820152607d0195945050505050565b600085516135b4818460208a01612d95565b80830190507f2c207b22646973706c61795f74797065223a20226e756d626572222c202274728082527f6169745f74797065223a20226c6f73736573222c202276616c7565223a2000006020830152865161361681603e850160208b01612d95565b80830192505061207d60f01b80603e8401528160408401527f6169745f74797065223a2022626174746c6573222c202276616c7565223a20006060840152865161366781607f860160208b01612d95565b607f93019283015260818201527f6169745f74797065223a2022746f6b656e73436c61696d6564222c202276616c60a18201526403ab2911d160dd1b60c18201526134ba61337c60c683018661321d565b600082516136ca818460208701612d95565b605d60f81b920191825250607d60f81b6001820152600201919050565b6020808252600e908201526d1a5b9d985b1a59081dda5e985c9960921b604082015260600190565b634e487b7160e01b600052601160045260246000fd5b6000828210156137375761373761370f565b500390565b634e487b7160e01b600052601260045260246000fd5b6000826137615761376161373c565b500490565b600181811c9082168061377a57607f821691505b60208210810361379a57634e487b7160e01b600052602260045260246000fd5b50919050565b60208082526031908201527f4552433732313a207472616e736665722063616c6c6572206973206e6f74206f6040820152701ddb995c881b9bdc88185c1c1c9bdd9959607a1b606082015260800190565b600081600019048311821515161561380b5761380b61370f565b500290565b60008261381f5761381f61373c565b500690565b600082198211156138375761383761370f565b500190565b6020808252818101527f4f776e61626c653a2063616c6c6572206973206e6f7420746865206f776e6572604082015260600190565b60208082526018908201527f496e76616c6964206f70657261746f7220616464726573730000000000000000604082015260600190565b601f821115610dc357600081815260208120601f850160051c810160208610156138cf5750805b601f850160051c820191505b818110156138ee578281556001016138db565b505050505050565b815167ffffffffffffffff81111561391057613910612ca2565b6139248161391e8454613766565b846138a8565b602080601f83116001811461395957600084156139415750858301515b600019600386901b1c1916600185901b1785556138ee565b600085815260208120601f198616915b8281101561398857888601518255948401946001909101908401613969565b50858210156139a65787850151600019600388901b60f8161c191681555b5050505050600190811b01905550565b634e487b7160e01b600052603260045260246000fd5b600064ffffffffff8083168185168083038211156139ec576139ec61370f565b01949350505050565b6000808454613a0381613766565b60018281168015613a1b5760018114613a3057613a5f565b60ff1984168752821515830287019450613a5f565b8860005260208060002060005b85811015613a565781548a820152908401908201613a3d565b50505082870194505b505050508351613a73818360208801612d95565b632e6a706760e01b9101908152600401949350505050565b600060018201613a9d57613a9d61370f565b5060010190565b60208082526032908201527f4552433732313a207472616e7366657220746f206e6f6e20455243373231526560408201527131b2b4bb32b91034b6b83632b6b2b73a32b960711b606082015260800190565b6001600160a01b0385811682528416602082015260408101839052608060608201819052600090613b2990830184612dc1565b9695505050505050565b600060208284031215613b4557600080fd5b8151610b8581612c6f565b634e487b7160e01b600052603160045260246000fdfea26469706673582212203011906406a6451bf4516b28c804222eb1d1895f46f5a9a519ce45443ee43c9164736f6c634300080f0033",
  "bytecodeSha1": "65379a6a40d887defa9e2efe159dbf59a79d7f67",
  "compiler": {
    "evm_version": "istanbul",
    "optimizer": {
      "enabled": true,
      "runs": 200
    },
    "version": "0.8.15+commit.e14f2714"
  },
  "contractName": "Wizards",
  "language": "Solidity",
  "natspec": {
    "kind": "dev",
    "methods": {
      "appointer()": {
        "notice": "contract address to exile any wizard"
      },
      "approve(address,uint256)": {
        "details": "See {IERC721-approve}."
      },
      "balanceOf(address)": {
        "details": "See {IERC721-balanceOf}."
      },
      "constructor": {
        "details": "initiate Wizards NFT",
        "params": {
          "_ERC20Address": "address for ecosystem token (currency)",
          "_imageBaseURI": "base URI used for images",
          "_name": "name of NFT",
          "_symbol": "symbol for NFT"
        }
      },
      "cull(uint256)": {
        "details": "exile an NFT that is negligent in duties. Use only for culling.",
        "params": {
          "_wizardId": "id of wizard."
        }
      },
      "culler()": {
        "notice": "contract address to update stats"
      },
      "exile(uint256)": {
        "details": "exile an NFT that is negligent in duties. Any address can call this, but wizard must have deserted",
        "params": {
          "_wizardId": "id of wizard."
        }
      },
      "formatTokenURI(uint256,string)": {
        "details": "format URI based on image and _wizardId",
        "params": {
          "_wizardId": "id of wizard.",
          "imageURI": "inline SVG string."
        },
        "returns": {
          "_0": "returns inline URI as string"
        }
      },
      "getApproved(uint256)": {
        "details": "See {IERC721-getApproved}."
      },
      "getPhaseOf(uint256)": {
        "details": "Returns phase of wizard",
        "params": {
          "_wizardId": "id of wizard."
        },
        "returns": {
          "_0": "number representing phase"
        }
      },
      "getStatsGivenId(uint256)": {
        "details": "returns stats of wizard, potentially amplified by level or phase",
        "params": {
          "_wizardId": "id of wizard."
        },
        "returns": {
          "_0": "stats"
        }
      },
      "getUplineId(uint256)": {
        "details": "Check if wizard is active",
        "params": {
          "_wizardId": "id of wizard."
        },
        "returns": {
          "_0": "wizardId of upline"
        }
      },
      "hasDeserted(uint256)": {
        "details": "check if wizard has deserted and thus can be exiled",
        "params": {
          "_wizardId": "id of wizard."
        },
        "returns": {
          "_0": "true -> deserted; false -> has not deserted"
        }
      },
      "increaseProtectedUntilTimestamp(uint256,uint40)": {
        "details": "increase protectionTimestamp, called by verifier. Used to keep wizard from being exiled.",
        "params": {
          "_timeReward": "amout of time in seconds to add to current protectedUntilTimestamp",
          "_wizardId": "id of wizard."
        }
      },
      "initiate(uint256)": {
        "details": "Changes NFT from uninitated or exiled to initiated",
        "params": {
          "_wizardId": "id of wizard."
        }
      },
      "isActive(uint256)": {
        "details": "Check if wizard is active",
        "params": {
          "_wizardId": "id of wizard."
        },
        "returns": {
          "_0": "true if active, false if inactive"
        }
      },
      "isApprovedForAll(address,address)": {
        "details": "See {IERC721-isApprovedForAll}."
      },
      "isExiled(uint256)": {
        "details": "check if wizard has been exiled (temporarily banished)",
        "params": {
          "_wizardId": "id of wizard."
        },
        "returns": {
          "_0": "true -> exiled; false -> not exiled"
        }
      },
      "isMature(uint256)": {
        "details": "Check if wizard is active",
        "params": {
          "_wizardId": "id of wizard."
        },
        "returns": {
          "_0": "true if active, false if inactive"
        }
      },
      "mint(uint16)": {
        "details": "check if wizard has deserted and thus can be exiled",
        "params": {
          "_uplineId": "id of referring wizard. use 0 if no referral"
        }
      },
      "modifyContractSettings(string,uint256,uint256,uint256,uint256,uint256)": {
        "details": "modify contract settings. Only available to owner",
        "params": {
          "_imageBaseURI": "baseURI for images",
          "_initiationCost": "cost in ETH to initiate",
          "_phaseDuration": "period in seconds for phases",
          "_protectionTimeExtension": "problby remove this // todo -- delete"
        }
      },
      "name()": {
        "details": "See {IERC721Metadata-name}."
      },
      "owner()": {
        "details": "Returns the address of the current owner."
      },
      "ownerOf(uint256)": {
        "details": "See {IERC721-ownerOf}."
      },
      "renounceOwnership()": {
        "details": "Leaves the contract without owner. It will not be possible to call `onlyOwner` functions anymore. Can only be called by the current owner. NOTE: Renouncing ownership will leave the contract without an owner, thereby removing any functionality that is only available to the owner."
      },
      "safeTransferFrom(address,address,uint256)": {
        "details": "See {IERC721-safeTransferFrom}."
      },
      "safeTransferFrom(address,address,uint256,bytes)": {
        "details": "See {IERC721-safeTransferFrom}."
      },
      "setApprovalForAll(address,bool)": {
        "details": "See {IERC721-setApprovalForAll}."
      },
      "supportsInterface(bytes4)": {
        "details": "See {IERC165-supportsInterface}."
      },
      "symbol()": {
        "details": "See {IERC721Metadata-symbol}."
      },
      "tokenByIndex(uint256)": {
        "details": "See {IERC721Enumerable-tokenByIndex}."
      },
      "tokenOfOwnerByIndex(address,uint256)": {
        "details": "See {IERC721Enumerable-tokenOfOwnerByIndex}."
      },
      "tokenURI(uint256)": {
        "details": "get token URI",
        "params": {
          "_wizardId": "id of wizard."
        },
        "returns": {
          "_0": "returns inline URI as string"
        }
      },
      "totalSupply()": {
        "details": "See {IERC721Enumerable-totalSupply}."
      },
      "transferFrom(address,address,uint256)": {
        "details": "See {IERC721-transferFrom}."
      },
      "transferOwnership(address)": {
        "details": "Transfers ownership of the contract to a new account (`newOwner`). Can only be called by the current owner."
      },
      "updateAppointer(address)": {
        "details": "increase protectionTimestamp, called by verifier. Used to keep wizard from being exiled.",
        "params": {
          "_appointer": "the new address for appointer, the contract which can appoint and create roles"
        }
      },
      "updateCuller(address)": {
        "details": "increase protectionTimestamp, called by verifier. Used to keep wizard from being exiled.",
        "params": {
          "_culler": "new address for culler, the wallet/contract which can exile wizards without contraint"
        }
      },
      "updateVerifier(address)": {
        "details": "increase protectionTimestamp, called by verifier. Used to keep wizard from being exiled.",
        "params": {
          "_verifier": "the new address for verifier, the contract which can add protectedUntil time for wizards"
        }
      }
    },
    "version": 1
  },
  "opcodes": "PUSH1 0x80 PUSH1 0x40 MSTORE PUSH1 0x4 CALLDATASIZE LT PUSH2 0x25C JUMPI PUSH1 0x0 CALLDATALOAD PUSH1 0xE0 SHR DUP1 PUSH4 0x6DC1A993 GT PUSH2 0x144 JUMPI DUP1 PUSH4 0x97FC007C GT PUSH2 0xB6 JUMPI DUP1 PUSH4 0xC87B56DD GT PUSH2 0x7A JUMPI DUP1 PUSH4 0xC87B56DD EQ PUSH2 0x71D JUMPI DUP1 PUSH4 0xC87BFC7F EQ PUSH2 0x73D JUMPI DUP1 PUSH4 0xDB2A0A55 EQ PUSH2 0x7D9 JUMPI DUP1 PUSH4 0xE833BF63 EQ PUSH2 0x804 JUMPI DUP1 PUSH4 0xE985E9C5 EQ PUSH2 0x824 JUMPI DUP1 PUSH4 0xF2FDE38B EQ PUSH2 0x86D JUMPI PUSH1 0x0 DUP1 REVERT JUMPDEST DUP1 PUSH4 0x97FC007C EQ PUSH2 0x67D JUMPI DUP1 PUSH4 0xA22CB465 EQ PUSH2 0x69D JUMPI DUP1 PUSH4 0xAD275CBB EQ PUSH2 0x6BD JUMPI DUP1 PUSH4 0xB88D4FDE EQ PUSH2 0x6DD JUMPI DUP1 PUSH4 0xC3CF52BE EQ PUSH2 0x6FD JUMPI PUSH1 0x0 DUP1 REVERT JUMPDEST DUP1 PUSH4 0x86954C5E GT PUSH2 0x108 JUMPI DUP1 PUSH4 0x86954C5E EQ PUSH2 0x5BD JUMPI DUP1 PUSH4 0x8B8555D6 EQ PUSH2 0x5DD JUMPI DUP1 PUSH4 0x8CB22518 EQ PUSH2 0x5FD JUMPI DUP1 PUSH4 0x8DA5179A EQ PUSH2 0x62A JUMPI DUP1 PUSH4 0x8DA5CB5B EQ PUSH2 0x64A JUMPI DUP1 PUSH4 0x95D89B41 EQ PUSH2 0x668 JUMPI PUSH1 0x0 DUP1 REVERT JUMPDEST DUP1 PUSH4 0x6DC1A993 EQ PUSH2 0x535 JUMPI DUP1 PUSH4 0x70A08231 EQ PUSH2 0x555 JUMPI DUP1 PUSH4 0x715018A6 EQ PUSH2 0x575 JUMPI DUP1 PUSH4 0x7901EA78 EQ PUSH2 0x58A JUMPI DUP1 PUSH4 0x82AFD23B EQ PUSH2 0x59D JUMPI PUSH1 0x0 DUP1 REVERT JUMPDEST DUP1 PUSH4 0x2F745C59 GT PUSH2 0x1DD JUMPI DUP1 PUSH4 0x4A535A55 GT PUSH2 0x1A1 JUMPI DUP1 PUSH4 0x4A535A55 EQ PUSH2 0x475 JUMPI DUP1 PUSH4 0x4F6CCCE7 EQ PUSH2 0x495 JUMPI DUP1 PUSH4 0x5312FDC2 EQ PUSH2 0x4B5 JUMPI DUP1 PUSH4 0x54E14151 EQ PUSH2 0x4D5 JUMPI DUP1 PUSH4 0x6352211E EQ PUSH2 0x4F5 JUMPI DUP1 PUSH4 0x690C8E18 EQ PUSH2 0x515 JUMPI PUSH1 0x0 DUP1 REVERT JUMPDEST DUP1 PUSH4 0x2F745C59 EQ PUSH2 0x3D5 JUMPI DUP1 PUSH4 0x30DF0612 EQ PUSH2 0x3F5 JUMPI DUP1 PUSH4 0x3E55E63D EQ PUSH2 0x415 JUMPI DUP1 PUSH4 0x40EBCB8E EQ PUSH2 0x435 JUMPI DUP1 PUSH4 0x42842E0E EQ PUSH2 0x455 JUMPI PUSH1 0x0 DUP1 REVERT JUMPDEST DUP1 PUSH4 0x95EA7B3 GT PUSH2 0x224 JUMPI DUP1 PUSH4 0x95EA7B3 EQ PUSH2 0x33E JUMPI DUP1 PUSH4 0x18160DDD EQ PUSH2 0x360 JUMPI DUP1 PUSH4 0x23B872DD EQ PUSH2 0x375 JUMPI DUP1 PUSH4 0x23CF0A22 EQ PUSH2 0x395 JUMPI DUP1 PUSH4 0x2B7AC3F3 EQ PUSH2 0x3B5 JUMPI PUSH1 0x0 DUP1 REVERT JUMPDEST DUP1 PUSH4 0x1FFC9A7 EQ PUSH2 0x261 JUMPI DUP1 PUSH4 0x419E314 EQ PUSH2 0x296 JUMPI DUP1 PUSH4 0x5106353 EQ PUSH2 0x2C3 JUMPI DUP1 PUSH4 0x6FDDE03 EQ PUSH2 0x2F1 JUMPI DUP1 PUSH4 0x81812FC EQ PUSH2 0x306 JUMPI JUMPDEST PUSH1 0x0 DUP1 REVERT JUMPDEST CALLVALUE DUP1 ISZERO PUSH2 0x26D JUMPI PUSH1 0x0 DUP1 REVERT JUMPDEST POP PUSH2 0x281 PUSH2 0x27C CALLDATASIZE PUSH1 0x4 PUSH2 0x2C85 JUMP JUMPDEST PUSH2 0x88D JUMP JUMPDEST PUSH1 0x40 MLOAD SWAP1 ISZERO ISZERO DUP2 MSTORE PUSH1 0x20 ADD JUMPDEST PUSH1 0x40 MLOAD DUP1 SWAP2 SUB SWAP1 RETURN JUMPDEST CALLVALUE DUP1 ISZERO PUSH2 0x2A2 JUMPI PUSH1 0x0 DUP1 REVERT JUMPDEST POP PUSH2 0x2B6 PUSH2 0x2B1 CALLDATASIZE PUSH1 0x4 PUSH2 0x2D4E JUMP JUMPDEST PUSH2 0x8B8 JUMP JUMPDEST PUSH1 0x40 MLOAD PUSH2 0x28D SWAP2 SWAP1 PUSH2 0x2DED JUMP JUMPDEST CALLVALUE DUP1 ISZERO PUSH2 0x2CF JUMPI PUSH1 0x0 DUP1 REVERT JUMPDEST POP PUSH2 0x2E3 PUSH2 0x2DE CALLDATASIZE PUSH1 0x4 PUSH2 0x2E00 JUMP JUMPDEST PUSH2 0xAB4 JUMP JUMPDEST PUSH1 0x40 MLOAD SWAP1 DUP2 MSTORE PUSH1 0x20 ADD PUSH2 0x28D JUMP JUMPDEST CALLVALUE DUP1 ISZERO PUSH2 0x2FD JUMPI PUSH1 0x0 DUP1 REVERT JUMPDEST POP PUSH2 0x2B6 PUSH2 0xB8C JUMP JUMPDEST CALLVALUE DUP1 ISZERO PUSH2 0x312 JUMPI PUSH1 0x0 DUP1 REVERT JUMPDEST POP PUSH2 0x326 PUSH2 0x321 CALLDATASIZE PUSH1 0x4 PUSH2 0x2E00 JUMP JUMPDEST PUSH2 0xC1E JUMP JUMPDEST PUSH1 0x40 MLOAD PUSH1 0x1 PUSH1 0x1 PUSH1 0xA0 SHL SUB SWAP1 SWAP2 AND DUP2 MSTORE PUSH1 0x20 ADD PUSH2 0x28D JUMP JUMPDEST CALLVALUE DUP1 ISZERO PUSH2 0x34A JUMPI PUSH1 0x0 DUP1 REVERT JUMPDEST POP PUSH2 0x35E PUSH2 0x359 CALLDATASIZE PUSH1 0x4 PUSH2 0x2E35 JUMP JUMPDEST PUSH2 0xCB3 JUMP JUMPDEST STOP JUMPDEST CALLVALUE DUP1 ISZERO PUSH2 0x36C JUMPI PUSH1 0x0 DUP1 REVERT JUMPDEST POP PUSH1 0x8 SLOAD PUSH2 0x2E3 JUMP JUMPDEST CALLVALUE DUP1 ISZERO PUSH2 0x381 JUMPI PUSH1 0x0 DUP1 REVERT JUMPDEST POP PUSH2 0x35E PUSH2 0x390 CALLDATASIZE PUSH1 0x4 PUSH2 0x2E5F JUMP JUMPDEST PUSH2 0xDC8 JUMP JUMPDEST CALLVALUE DUP1 ISZERO PUSH2 0x3A1 JUMPI PUSH1 0x0 DUP1 REVERT JUMPDEST POP PUSH2 0x35E PUSH2 0x3B0 CALLDATASIZE PUSH1 0x4 PUSH2 0x2EAD JUMP JUMPDEST PUSH2 0xDF9 JUMP JUMPDEST CALLVALUE DUP1 ISZERO PUSH2 0x3C1 JUMPI PUSH1 0x0 DUP1 REVERT JUMPDEST POP PUSH1 0xC SLOAD PUSH2 0x326 SWAP1 PUSH1 0x1 PUSH1 0x1 PUSH1 0xA0 SHL SUB AND DUP2 JUMP JUMPDEST CALLVALUE DUP1 ISZERO PUSH2 0x3E1 JUMPI PUSH1 0x0 DUP1 REVERT JUMPDEST POP PUSH2 0x2E3 PUSH2 0x3F0 CALLDATASIZE PUSH1 0x4 PUSH2 0x2E35 JUMP JUMPDEST PUSH2 0x10D8 JUMP JUMPDEST CALLVALUE DUP1 ISZERO PUSH2 0x401 JUMPI PUSH1 0x0 DUP1 REVERT JUMPDEST POP PUSH2 0x35E PUSH2 0x410 CALLDATASIZE PUSH1 0x4 PUSH2 0x2EC8 JUMP JUMPDEST PUSH2 0x116E JUMP JUMPDEST CALLVALUE DUP1 ISZERO PUSH2 0x421 JUMPI PUSH1 0x0 DUP1 REVERT JUMPDEST POP PUSH2 0x281 PUSH2 0x430 CALLDATASIZE PUSH1 0x4 PUSH2 0x2E00 JUMP JUMPDEST PUSH2 0x122F JUMP JUMPDEST CALLVALUE DUP1 ISZERO PUSH2 0x441 JUMPI PUSH1 0x0 DUP1 REVERT JUMPDEST POP PUSH2 0x35E PUSH2 0x450 CALLDATASIZE PUSH1 0x4 PUSH2 0x2E00 JUMP JUMPDEST PUSH2 0x1272 JUMP JUMPDEST CALLVALUE DUP1 ISZERO PUSH2 0x461 JUMPI PUSH1 0x0 DUP1 REVERT JUMPDEST POP PUSH2 0x35E PUSH2 0x470 CALLDATASIZE PUSH1 0x4 PUSH2 0x2E5F JUMP JUMPDEST PUSH2 0x12D3 JUMP JUMPDEST CALLVALUE DUP1 ISZERO PUSH2 0x481 JUMPI PUSH1 0x0 DUP1 REVERT JUMPDEST POP PUSH2 0x35E PUSH2 0x490 CALLDATASIZE PUSH1 0x4 PUSH2 0x2EE3 JUMP JUMPDEST PUSH2 0x12EE JUMP JUMPDEST CALLVALUE DUP1 ISZERO PUSH2 0x4A1 JUMPI PUSH1 0x0 DUP1 REVERT JUMPDEST POP PUSH2 0x2E3 PUSH2 0x4B0 CALLDATASIZE PUSH1 0x4 PUSH2 0x2E00 JUMP JUMPDEST PUSH2 0x133D JUMP JUMPDEST CALLVALUE DUP1 ISZERO PUSH2 0x4C1 JUMPI PUSH1 0x0 DUP1 REVERT JUMPDEST POP PUSH2 0x2E3 PUSH2 0x4D0 CALLDATASIZE PUSH1 0x4 PUSH2 0x2E00 JUMP JUMPDEST PUSH2 0x13D0 JUMP JUMPDEST CALLVALUE DUP1 ISZERO PUSH2 0x4E1 JUMPI PUSH1 0x0 DUP1 REVERT JUMPDEST POP PUSH2 0x35E PUSH2 0x4F0 CALLDATASIZE PUSH1 0x4 PUSH2 0x2EC8 JUMP JUMPDEST PUSH2 0x1420 JUMP JUMPDEST CALLVALUE DUP1 ISZERO PUSH2 0x501 JUMPI PUSH1 0x0 DUP1 REVERT JUMPDEST POP PUSH2 0x326 PUSH2 0x510 CALLDATASIZE PUSH1 0x4 PUSH2 0x2E00 JUMP JUMPDEST PUSH2 0x14DA JUMP JUMPDEST CALLVALUE DUP1 ISZERO PUSH2 0x521 JUMPI PUSH1 0x0 DUP1 REVERT JUMPDEST POP PUSH2 0x35E PUSH2 0x530 CALLDATASIZE PUSH1 0x4 PUSH2 0x2E00 JUMP JUMPDEST PUSH2 0x1551 JUMP JUMPDEST CALLVALUE DUP1 ISZERO PUSH2 0x541 JUMPI PUSH1 0x0 DUP1 REVERT JUMPDEST POP PUSH2 0x35E PUSH2 0x550 CALLDATASIZE PUSH1 0x4 PUSH2 0x2F48 JUMP JUMPDEST PUSH2 0x15B7 JUMP JUMPDEST CALLVALUE DUP1 ISZERO PUSH2 0x561 JUMPI PUSH1 0x0 DUP1 REVERT JUMPDEST POP PUSH2 0x2E3 PUSH2 0x570 CALLDATASIZE PUSH1 0x4 PUSH2 0x2EC8 JUMP JUMPDEST PUSH2 0x1661 JUMP JUMPDEST CALLVALUE DUP1 ISZERO PUSH2 0x581 JUMPI PUSH1 0x0 DUP1 REVERT JUMPDEST POP PUSH2 0x35E PUSH2 0x16E8 JUMP JUMPDEST PUSH2 0x35E PUSH2 0x598 CALLDATASIZE PUSH1 0x4 PUSH2 0x2E00 JUMP JUMPDEST PUSH2 0x171E JUMP JUMPDEST CALLVALUE DUP1 ISZERO PUSH2 0x5A9 JUMPI PUSH1 0x0 DUP1 REVERT JUMPDEST POP PUSH2 0x281 PUSH2 0x5B8 CALLDATASIZE PUSH1 0x4 PUSH2 0x2E00 JUMP JUMPDEST PUSH2 0x1957 JUMP JUMPDEST CALLVALUE DUP1 ISZERO PUSH2 0x5C9 JUMPI PUSH1 0x0 DUP1 REVERT JUMPDEST POP PUSH2 0x35E PUSH2 0x5D8 CALLDATASIZE PUSH1 0x4 PUSH2 0x2F74 JUMP JUMPDEST PUSH2 0x19AD JUMP JUMPDEST CALLVALUE DUP1 ISZERO PUSH2 0x5E9 JUMPI PUSH1 0x0 DUP1 REVERT JUMPDEST POP PUSH2 0x2E3 PUSH2 0x5F8 CALLDATASIZE PUSH1 0x4 PUSH2 0x2E00 JUMP JUMPDEST PUSH2 0x1AF8 JUMP JUMPDEST CALLVALUE DUP1 ISZERO PUSH2 0x609 JUMPI PUSH1 0x0 DUP1 REVERT JUMPDEST POP PUSH2 0x61D PUSH2 0x618 CALLDATASIZE PUSH1 0x4 PUSH2 0x2E00 JUMP JUMPDEST PUSH2 0x1B48 JUMP JUMPDEST PUSH1 0x40 MLOAD PUSH2 0x28D SWAP2 SWAP1 PUSH2 0x2FE6 JUMP JUMPDEST CALLVALUE DUP1 ISZERO PUSH2 0x636 JUMPI PUSH1 0x0 DUP1 REVERT JUMPDEST POP PUSH2 0x281 PUSH2 0x645 CALLDATASIZE PUSH1 0x4 PUSH2 0x2E00 JUMP JUMPDEST PUSH2 0x1C7D JUMP JUMPDEST CALLVALUE DUP1 ISZERO PUSH2 0x656 JUMPI PUSH1 0x0 DUP1 REVERT JUMPDEST POP PUSH1 0xA SLOAD PUSH1 0x1 PUSH1 0x1 PUSH1 0xA0 SHL SUB AND PUSH2 0x326 JUMP JUMPDEST CALLVALUE DUP1 ISZERO PUSH2 0x674 JUMPI PUSH1 0x0 DUP1 REVERT JUMPDEST POP PUSH2 0x2B6 PUSH2 0x1CFB JUMP JUMPDEST CALLVALUE DUP1 ISZERO PUSH2 0x689 JUMPI PUSH1 0x0 DUP1 REVERT JUMPDEST POP PUSH2 0x35E PUSH2 0x698 CALLDATASIZE PUSH1 0x4 PUSH2 0x2EC8 JUMP JUMPDEST PUSH2 0x1D0A JUMP JUMPDEST CALLVALUE DUP1 ISZERO PUSH2 0x6A9 JUMPI PUSH1 0x0 DUP1 REVERT JUMPDEST POP PUSH2 0x35E PUSH2 0x6B8 CALLDATASIZE PUSH1 0x4 PUSH2 0x307F JUMP JUMPDEST PUSH2 0x1DC4 JUMP JUMPDEST CALLVALUE DUP1 ISZERO PUSH2 0x6C9 JUMPI PUSH1 0x0 DUP1 REVERT JUMPDEST POP PUSH1 0xD SLOAD PUSH2 0x326 SWAP1 PUSH1 0x1 PUSH1 0x1 PUSH1 0xA0 SHL SUB AND DUP2 JUMP JUMPDEST CALLVALUE DUP1 ISZERO PUSH2 0x6E9 JUMPI PUSH1 0x0 DUP1 REVERT JUMPDEST POP PUSH2 0x35E PUSH2 0x6F8 CALLDATASIZE PUSH1 0x4 PUSH2 0x30B0 JUMP JUMPDEST PUSH2 0x1E88 JUMP JUMPDEST CALLVALUE DUP1 ISZERO PUSH2 0x709 JUMPI PUSH1 0x0 DUP1 REVERT JUMPDEST POP PUSH1 0xE SLOAD PUSH2 0x326 SWAP1 PUSH1 0x1 PUSH1 0x1 PUSH1 0xA0 SHL SUB AND DUP2 JUMP JUMPDEST CALLVALUE DUP1 ISZERO PUSH2 0x729 JUMPI PUSH1 0x0 DUP1 REVERT JUMPDEST POP PUSH2 0x2B6 PUSH2 0x738 CALLDATASIZE PUSH1 0x4 PUSH2 0x2E00 JUMP JUMPDEST PUSH2 0x1EBA JUMP JUMPDEST CALLVALUE DUP1 ISZERO PUSH2 0x749 JUMPI PUSH1 0x0 DUP1 REVERT JUMPDEST POP PUSH2 0x7C5 PUSH2 0x758 CALLDATASIZE PUSH1 0x4 PUSH2 0x2E00 JUMP JUMPDEST PUSH1 0xB PUSH1 0x20 MSTORE PUSH1 0x0 SWAP1 DUP2 MSTORE PUSH1 0x40 SWAP1 KECCAK256 DUP1 SLOAD PUSH1 0x1 SWAP1 SWAP2 ADD SLOAD PUSH1 0x1 PUSH1 0x1 PUSH1 0x80 SHL SUB DUP1 DUP4 AND SWAP3 PUSH1 0x1 PUSH1 0x80 SHL SWAP1 DUP2 SWAP1 DIV DUP3 AND SWAP3 SWAP2 DUP3 AND SWAP2 PUSH2 0xFFFF SWAP2 DUP2 DIV DUP3 AND SWAP2 PUSH1 0x1 PUSH1 0x90 SHL DUP3 DIV AND SWAP1 PUSH5 0xFFFFFFFFFF PUSH1 0x1 PUSH1 0xA0 SHL DUP3 DIV DUP2 AND SWAP2 PUSH1 0x1 PUSH1 0xC8 SHL DUP2 DIV SWAP1 SWAP2 AND SWAP1 PUSH1 0xFF PUSH1 0x1 PUSH1 0xF0 SHL SWAP1 SWAP2 DIV AND DUP9 JUMP JUMPDEST PUSH1 0x40 MLOAD PUSH2 0x28D SWAP9 SWAP8 SWAP7 SWAP6 SWAP5 SWAP4 SWAP3 SWAP2 SWAP1 PUSH2 0x312C JUMP JUMPDEST CALLVALUE DUP1 ISZERO PUSH2 0x7E5 JUMPI PUSH1 0x0 DUP1 REVERT JUMPDEST POP PUSH2 0x7EE PUSH2 0x203C JUMP JUMPDEST PUSH1 0x40 MLOAD PUSH2 0x28D SWAP11 SWAP10 SWAP9 SWAP8 SWAP7 SWAP6 SWAP5 SWAP4 SWAP3 SWAP2 SWAP1 PUSH2 0x318E JUMP JUMPDEST CALLVALUE DUP1 ISZERO PUSH2 0x810 JUMPI PUSH1 0x0 DUP1 REVERT JUMPDEST POP PUSH2 0x281 PUSH2 0x81F CALLDATASIZE PUSH1 0x4 PUSH2 0x2E00 JUMP JUMPDEST PUSH2 0x2105 JUMP JUMPDEST CALLVALUE DUP1 ISZERO PUSH2 0x830 JUMPI PUSH1 0x0 DUP1 REVERT JUMPDEST POP PUSH2 0x281 PUSH2 0x83F CALLDATASIZE PUSH1 0x4 PUSH2 0x31F3 JUMP JUMPDEST PUSH1 0x1 PUSH1 0x1 PUSH1 0xA0 SHL SUB SWAP2 DUP3 AND PUSH1 0x0 SWAP1 DUP2 MSTORE PUSH1 0x5 PUSH1 0x20 SWAP1 DUP2 MSTORE PUSH1 0x40 DUP1 DUP4 KECCAK256 SWAP4 SWAP1 SWAP5 AND DUP3 MSTORE SWAP2 SWAP1 SWAP2 MSTORE KECCAK256 SLOAD PUSH1 0xFF AND SWAP1 JUMP JUMPDEST CALLVALUE DUP1 ISZERO PUSH2 0x879 JUMPI PUSH1 0x0 DUP1 REVERT JUMPDEST POP PUSH2 0x35E PUSH2 0x888 CALLDATASIZE PUSH1 0x4 PUSH2 0x2EC8 JUMP JUMPDEST PUSH2 0x2182 JUMP JUMPDEST PUSH1 0x0 PUSH1 0x1 PUSH1 0x1 PUSH1 0xE0 SHL SUB NOT DUP3 AND PUSH4 0x780E9D63 PUSH1 0xE0 SHL EQ DUP1 PUSH2 0x8B2 JUMPI POP PUSH2 0x8B2 DUP3 PUSH2 0x221A JUMP JUMPDEST SWAP3 SWAP2 POP POP JUMP JUMPDEST PUSH1 0x0 DUP3 DUP2 MSTORE PUSH1 0xB PUSH1 0x20 SWAP1 DUP2 MSTORE PUSH1 0x40 DUP1 DUP4 KECCAK256 DUP2 MLOAD PUSH2 0x100 DUP2 ADD DUP4 MSTORE DUP2 SLOAD PUSH1 0x1 PUSH1 0x1 PUSH1 0x80 SHL SUB DUP1 DUP3 AND DUP4 MSTORE PUSH1 0x1 PUSH1 0x80 SHL SWAP2 DUP3 SWAP1 DIV DUP2 AND SWAP6 DUP4 ADD SWAP6 SWAP1 SWAP6 MSTORE PUSH1 0x1 DUP4 ADD SLOAD SWAP5 DUP6 AND SWAP4 DUP3 ADD SWAP4 SWAP1 SWAP4 MSTORE PUSH2 0xFFFF SWAP3 DUP5 DIV DUP4 AND PUSH1 0x60 DUP3 DUP2 ADD SWAP2 SWAP1 SWAP2 MSTORE PUSH1 0x1 PUSH1 0x90 SHL DUP6 DIV SWAP1 SWAP4 AND PUSH1 0x80 DUP3 ADD MSTORE PUSH5 0xFFFFFFFFFF PUSH1 0x1 PUSH1 0xA0 SHL DUP6 DIV DUP2 AND PUSH1 0xA0 DUP4 ADD MSTORE PUSH1 0x1 PUSH1 0xC8 SHL DUP6 DIV AND PUSH1 0xC0 DUP3 ADD MSTORE SWAP2 SWAP4 SWAP3 PUSH1 0xE0 DUP4 ADD SWAP1 PUSH1 0xFF PUSH1 0x1 PUSH1 0xF0 SHL SWAP1 SWAP2 DIV AND PUSH1 0x3 DUP2 GT ISZERO PUSH2 0x967 JUMPI PUSH2 0x967 PUSH2 0x2FAE JUMP JUMPDEST PUSH1 0x3 DUP2 GT ISZERO PUSH2 0x978 JUMPI PUSH2 0x978 PUSH2 0x2FAE JUMP JUMPDEST DUP2 MSTORE POP POP SWAP1 POP PUSH1 0x0 DUP4 PUSH2 0x997 DUP4 PUSH1 0x0 ADD MLOAD PUSH1 0x1 PUSH1 0x1 PUSH1 0x80 SHL SUB AND PUSH2 0x226A JUMP JUMPDEST PUSH1 0x40 MLOAD PUSH1 0x20 ADD PUSH2 0x9A8 SWAP3 SWAP2 SWAP1 PUSH2 0x3239 JUMP JUMPDEST PUSH1 0x40 MLOAD PUSH1 0x20 DUP2 DUP4 SUB SUB DUP2 MSTORE SWAP1 PUSH1 0x40 MSTORE SWAP1 POP DUP1 PUSH2 0x9C5 PUSH2 0x3E7 PUSH2 0x226A JUMP JUMPDEST PUSH2 0x9D0 PUSH2 0x3E7 PUSH2 0x226A JUMP JUMPDEST PUSH2 0x9DB PUSH2 0x270F PUSH2 0x226A JUMP JUMPDEST PUSH1 0x40 MLOAD PUSH1 0x20 ADD PUSH2 0x9EE SWAP5 SWAP4 SWAP3 SWAP2 SWAP1 PUSH2 0x3393 JUMP JUMPDEST PUSH1 0x40 MLOAD PUSH1 0x20 DUP2 DUP4 SUB SUB DUP2 MSTORE SWAP1 PUSH1 0x40 MSTORE SWAP1 POP DUP1 PUSH2 0xA0B PUSH2 0x3E7 PUSH2 0x226A JUMP JUMPDEST PUSH2 0xA16 PUSH2 0x3E7 PUSH2 0x226A JUMP JUMPDEST PUSH1 0x40 MLOAD PUSH1 0x20 ADD PUSH2 0xA28 SWAP4 SWAP3 SWAP2 SWAP1 PUSH2 0x34C5 JUMP JUMPDEST PUSH1 0x40 MLOAD PUSH1 0x20 DUP2 DUP4 SUB SUB DUP2 MSTORE SWAP1 PUSH1 0x40 MSTORE SWAP1 POP DUP1 PUSH2 0xA45 PUSH2 0x3E7 PUSH2 0x226A JUMP JUMPDEST PUSH2 0xA50 PUSH2 0x3E7 PUSH2 0x226A JUMP JUMPDEST PUSH2 0xA66 DUP6 PUSH1 0x20 ADD MLOAD PUSH1 0x1 PUSH1 0x1 PUSH1 0x80 SHL SUB AND PUSH2 0x226A JUMP JUMPDEST PUSH1 0x40 MLOAD PUSH1 0x20 ADD PUSH2 0xA79 SWAP5 SWAP4 SWAP3 SWAP2 SWAP1 PUSH2 0x35A2 JUMP JUMPDEST PUSH1 0x40 MLOAD PUSH1 0x20 DUP2 DUP4 SUB SUB DUP2 MSTORE SWAP1 PUSH1 0x40 MSTORE SWAP1 POP DUP1 PUSH1 0x40 MLOAD PUSH1 0x20 ADD PUSH2 0xA9B SWAP2 SWAP1 PUSH2 0x36B8 JUMP JUMPDEST PUSH1 0x40 DUP1 MLOAD DUP1 DUP4 SUB PUSH1 0x1F NOT ADD DUP2 MSTORE SWAP2 SWAP1 MSTORE SWAP6 SWAP5 POP POP POP POP POP JUMP JUMPDEST PUSH1 0x0 DUP2 ISZERO DUP1 ISZERO SWAP1 PUSH2 0xAC7 JUMPI POP PUSH1 0x8 SLOAD DUP3 GT ISZERO JUMPDEST PUSH2 0xAEC JUMPI PUSH1 0x40 MLOAD PUSH3 0x461BCD PUSH1 0xE5 SHL DUP2 MSTORE PUSH1 0x4 ADD PUSH2 0xAE3 SWAP1 PUSH2 0x36E7 JUMP JUMPDEST PUSH1 0x40 MLOAD DUP1 SWAP2 SUB SWAP1 REVERT JUMPDEST PUSH1 0x16 SLOAD PUSH1 0x0 SWAP1 PUSH2 0xAFE SWAP1 PUSH1 0x1 SWAP1 PUSH2 0x3725 JUMP JUMPDEST PUSH1 0x15 SLOAD PUSH1 0x0 DUP6 DUP2 MSTORE PUSH1 0xB PUSH1 0x20 MSTORE PUSH1 0x40 SWAP1 KECCAK256 PUSH1 0x1 ADD SLOAD PUSH2 0xB2B SWAP1 PUSH1 0x1 PUSH1 0xA0 SHL SWAP1 DIV PUSH5 0xFFFFFFFFFF AND TIMESTAMP PUSH2 0x3725 JUMP JUMPDEST PUSH2 0xB35 SWAP2 SWAP1 PUSH2 0x3752 JUMP JUMPDEST GT PUSH2 0xB76 JUMPI PUSH1 0x15 SLOAD PUSH1 0x0 DUP5 DUP2 MSTORE PUSH1 0xB PUSH1 0x20 MSTORE PUSH1 0x40 SWAP1 KECCAK256 PUSH1 0x1 ADD SLOAD PUSH2 0xB67 SWAP1 PUSH1 0x1 PUSH1 0xA0 SHL SWAP1 DIV PUSH5 0xFFFFFFFFFF AND TIMESTAMP PUSH2 0x3725 JUMP JUMPDEST PUSH2 0xB71 SWAP2 SWAP1 PUSH2 0x3752 JUMP JUMPDEST PUSH2 0xB85 JUMP JUMPDEST PUSH1 0x16 SLOAD PUSH2 0xB85 SWAP1 PUSH1 0x1 SWAP1 PUSH2 0x3725 JUMP JUMPDEST SWAP4 SWAP3 POP POP POP JUMP JUMPDEST PUSH1 0x60 PUSH1 0x0 DUP1 SLOAD PUSH2 0xB9B SWAP1 PUSH2 0x3766 JUMP JUMPDEST DUP1 PUSH1 0x1F ADD PUSH1 0x20 DUP1 SWAP2 DIV MUL PUSH1 0x20 ADD PUSH1 0x40 MLOAD SWAP1 DUP2 ADD PUSH1 0x40 MSTORE DUP1 SWAP3 SWAP2 SWAP1 DUP2 DUP2 MSTORE PUSH1 0x20 ADD DUP3 DUP1 SLOAD PUSH2 0xBC7 SWAP1 PUSH2 0x3766 JUMP JUMPDEST DUP1 ISZERO PUSH2 0xC14 JUMPI DUP1 PUSH1 0x1F LT PUSH2 0xBE9 JUMPI PUSH2 0x100 DUP1 DUP4 SLOAD DIV MUL DUP4 MSTORE SWAP2 PUSH1 0x20 ADD SWAP2 PUSH2 0xC14 JUMP JUMPDEST DUP3 ADD SWAP2 SWAP1 PUSH1 0x0 MSTORE PUSH1 0x20 PUSH1 0x0 KECCAK256 SWAP1 JUMPDEST DUP2 SLOAD DUP2 MSTORE SWAP1 PUSH1 0x1 ADD SWAP1 PUSH1 0x20 ADD DUP1 DUP4 GT PUSH2 0xBF7 JUMPI DUP3 SWAP1 SUB PUSH1 0x1F AND DUP3 ADD SWAP2 JUMPDEST POP POP POP POP POP SWAP1 POP SWAP1 JUMP JUMPDEST PUSH1 0x0 DUP2 DUP2 MSTORE PUSH1 0x2 PUSH1 0x20 MSTORE PUSH1 0x40 DUP2 KECCAK256 SLOAD PUSH1 0x1 PUSH1 0x1 PUSH1 0xA0 SHL SUB AND PUSH2 0xC97 JUMPI PUSH1 0x40 MLOAD PUSH3 0x461BCD PUSH1 0xE5 SHL DUP2 MSTORE PUSH1 0x20 PUSH1 0x4 DUP3 ADD MSTORE PUSH1 0x2C PUSH1 0x24 DUP3 ADD MSTORE PUSH32 0x4552433732313A20617070726F76656420717565727920666F72206E6F6E6578 PUSH1 0x44 DUP3 ADD MSTORE PUSH12 0x34B9BA32B73A103A37B5B2B7 PUSH1 0xA1 SHL PUSH1 0x64 DUP3 ADD MSTORE PUSH1 0x84 ADD PUSH2 0xAE3 JUMP JUMPDEST POP PUSH1 0x0 SWAP1 DUP2 MSTORE PUSH1 0x4 PUSH1 0x20 MSTORE PUSH1 0x40 SWAP1 KECCAK256 SLOAD PUSH1 0x1 PUSH1 0x1 PUSH1 0xA0 SHL SUB AND SWAP1 JUMP JUMPDEST PUSH1 0x0 PUSH2 0xCBE DUP3 PUSH2 0x14DA JUMP JUMPDEST SWAP1 POP DUP1 PUSH1 0x1 PUSH1 0x1 PUSH1 0xA0 SHL SUB AND DUP4 PUSH1 0x1 PUSH1 0x1 PUSH1 0xA0 SHL SUB AND SUB PUSH2 0xD2B JUMPI PUSH1 0x40 MLOAD PUSH3 0x461BCD PUSH1 0xE5 SHL DUP2 MSTORE PUSH1 0x20 PUSH1 0x4 DUP3 ADD MSTORE PUSH1 0x21 PUSH1 0x24 DUP3 ADD MSTORE PUSH32 0x4552433732313A20617070726F76616C20746F2063757272656E74206F776E65 PUSH1 0x44 DUP3 ADD MSTORE PUSH1 0x39 PUSH1 0xF9 SHL PUSH1 0x64 DUP3 ADD MSTORE PUSH1 0x84 ADD PUSH2 0xAE3 JUMP JUMPDEST CALLER PUSH1 0x1 PUSH1 0x1 PUSH1 0xA0 SHL SUB DUP3 AND EQ DUP1 PUSH2 0xD47 JUMPI POP PUSH2 0xD47 DUP2 CALLER PUSH2 0x83F JUMP JUMPDEST PUSH2 0xDB9 JUMPI PUSH1 0x40 MLOAD PUSH3 0x461BCD PUSH1 0xE5 SHL DUP2 MSTORE PUSH1 0x20 PUSH1 0x4 DUP3 ADD MSTORE PUSH1 0x38 PUSH1 0x24 DUP3 ADD MSTORE PUSH32 0x4552433732313A20617070726F76652063616C6C6572206973206E6F74206F77 PUSH1 0x44 DUP3 ADD MSTORE PUSH32 0x6E6572206E6F7220617070726F76656420666F7220616C6C0000000000000000 PUSH1 0x64 DUP3 ADD MSTORE PUSH1 0x84 ADD PUSH2 0xAE3 JUMP JUMPDEST PUSH2 0xDC3 DUP4 DUP4 PUSH2 0x236B JUMP JUMPDEST POP POP POP JUMP JUMPDEST PUSH2 0xDD2 CALLER DUP3 PUSH2 0x23D9 JUMP JUMPDEST PUSH2 0xDEE JUMPI PUSH1 0x40 MLOAD PUSH3 0x461BCD PUSH1 0xE5 SHL DUP2 MSTORE PUSH1 0x4 ADD PUSH2 0xAE3 SWAP1 PUSH2 0x37A0 JUMP JUMPDEST PUSH2 0xDC3 DUP4 DUP4 DUP4 PUSH2 0x24CC JUMP JUMPDEST PUSH1 0x11 SLOAD PUSH1 0x8 SLOAD LT PUSH2 0xE3D JUMPI PUSH1 0x40 MLOAD PUSH3 0x461BCD PUSH1 0xE5 SHL DUP2 MSTORE PUSH1 0x20 PUSH1 0x4 DUP3 ADD MSTORE PUSH1 0xE PUSH1 0x24 DUP3 ADD MSTORE PUSH14 0x30BA1036B0BC1039BAB838363C97 PUSH1 0x91 SHL PUSH1 0x44 DUP3 ADD MSTORE PUSH1 0x64 ADD PUSH2 0xAE3 JUMP JUMPDEST PUSH1 0x8 SLOAD DUP2 PUSH2 0xFFFF AND GT ISZERO PUSH2 0xEAA JUMPI PUSH1 0x40 MLOAD PUSH3 0x461BCD PUSH1 0xE5 SHL DUP2 MSTORE PUSH1 0x20 PUSH1 0x4 DUP3 ADD MSTORE PUSH1 0x2E PUSH1 0x24 DUP3 ADD MSTORE PUSH32 0x696E76616C69642075706C696E652D2D6D757374206265206C65737320746861 PUSH1 0x44 DUP3 ADD MSTORE PUSH14 0x6E20746F74616C20737570706C79 PUSH1 0x90 SHL PUSH1 0x64 DUP3 ADD MSTORE PUSH1 0x84 ADD PUSH2 0xAE3 JUMP JUMPDEST PUSH1 0x0 PUSH2 0xEB5 PUSH1 0x8 SLOAD SWAP1 JUMP JUMPDEST PUSH1 0x40 DUP1 MLOAD PUSH1 0x20 DUP2 ADD SWAP3 SWAP1 SWAP3 MSTORE PUSH12 0xFFFFFFFFFFFFFFFFFFFFFFFF NOT CALLER PUSH1 0x60 SHL AND SWAP1 DUP3 ADD MSTORE TIMESTAMP PUSH1 0x54 DUP3 ADD MSTORE PUSH1 0x74 ADD PUSH1 0x40 DUP1 MLOAD PUSH1 0x1F NOT DUP2 DUP5 SUB ADD DUP2 MSTORE SWAP2 SWAP1 MSTORE DUP1 MLOAD PUSH1 0x20 SWAP1 SWAP2 ADD KECCAK256 SWAP1 POP PUSH1 0x0 PUSH1 0x4 PUSH2 0xF0A PUSH1 0xA DUP5 PUSH2 0x3752 JUMP JUMPDEST PUSH2 0xF15 SWAP1 PUSH1 0x6 PUSH2 0x37F1 JUMP JUMPDEST PUSH2 0xF1F SWAP2 SWAP1 PUSH2 0x3810 JUMP JUMPDEST PUSH1 0x3 DUP2 GT ISZERO PUSH2 0xF30 JUMPI PUSH2 0xF30 PUSH2 0x2FAE JUMP JUMPDEST PUSH1 0x40 DUP1 MLOAD PUSH2 0x100 DUP2 ADD DUP3 MSTORE PUSH1 0x1 DUP2 MSTORE PUSH1 0x0 PUSH1 0x20 DUP3 ADD DUP2 SWAP1 MSTORE SWAP2 DUP2 ADD DUP3 SWAP1 MSTORE PUSH1 0x60 DUP2 ADD DUP3 SWAP1 MSTORE PUSH2 0xFFFF DUP7 AND PUSH1 0x80 DUP3 ADD MSTORE PUSH1 0xA0 DUP2 ADD DUP3 SWAP1 MSTORE PUSH1 0xC0 DUP2 ADD DUP3 SWAP1 MSTORE SWAP2 SWAP3 POP SWAP1 PUSH1 0xE0 DUP2 ADD DUP4 PUSH1 0x3 DUP2 GT ISZERO PUSH2 0xF87 JUMPI PUSH2 0xF87 PUSH2 0x2FAE JUMP JUMPDEST SWAP1 MSTORE SWAP1 POP DUP1 PUSH1 0xB PUSH1 0x0 PUSH2 0xF99 PUSH1 0x8 SLOAD SWAP1 JUMP JUMPDEST PUSH2 0xFA4 SWAP1 PUSH1 0x1 PUSH2 0x3824 JUMP JUMPDEST DUP2 MSTORE PUSH1 0x20 DUP1 DUP3 ADD SWAP3 SWAP1 SWAP3 MSTORE PUSH1 0x40 SWAP1 DUP2 ADD PUSH1 0x0 KECCAK256 DUP4 MLOAD SWAP3 DUP5 ADD MLOAD PUSH1 0x1 PUSH1 0x1 PUSH1 0x80 SHL SUB SWAP4 DUP5 AND PUSH1 0x1 PUSH1 0x80 SHL SWAP2 DUP6 AND DUP3 MUL OR DUP3 SSTORE SWAP2 DUP5 ADD MLOAD PUSH1 0x1 DUP3 ADD DUP1 SLOAD PUSH1 0x60 DUP8 ADD MLOAD PUSH1 0x80 DUP9 ADD MLOAD PUSH1 0xA0 DUP10 ADD MLOAD PUSH1 0xC0 DUP11 ADD MLOAD SWAP6 SWAP1 SWAP9 AND PUSH18 0xFFFFFFFFFFFFFFFFFFFFFFFFFFFFFFFFFFFF NOT SWAP1 SWAP4 AND SWAP3 SWAP1 SWAP3 OR PUSH2 0xFFFF SWAP2 DUP3 AND SWAP1 SWAP7 MUL SWAP6 SWAP1 SWAP6 OR PUSH7 0xFFFFFFFFFFFFFF PUSH1 0x90 SHL NOT AND PUSH1 0x1 PUSH1 0x90 SHL SWAP6 SWAP1 SWAP2 AND SWAP5 SWAP1 SWAP5 MUL PUSH5 0xFFFFFFFFFF PUSH1 0xA0 SHL NOT AND SWAP4 SWAP1 SWAP4 OR PUSH1 0x1 PUSH1 0xA0 SHL PUSH5 0xFFFFFFFFFF SWAP6 DUP7 AND MUL OR PUSH5 0xFFFFFFFFFF PUSH1 0xC8 SHL NOT DUP2 AND PUSH1 0x1 PUSH1 0xC8 SHL SWAP6 SWAP1 SWAP3 AND SWAP5 SWAP1 SWAP5 MUL SWAP1 DUP2 OR DUP4 SSTORE PUSH1 0xE0 DUP6 ADD MLOAD SWAP2 SWAP4 SWAP2 SWAP3 SWAP2 PUSH6 0xFFFFFFFFFFFF PUSH1 0xC8 SHL NOT AND PUSH1 0xFF PUSH1 0xF0 SHL NOT SWAP1 SWAP2 AND OR PUSH1 0x1 PUSH1 0xF0 SHL DUP4 PUSH1 0x3 DUP2 GT ISZERO PUSH2 0x10AD JUMPI PUSH2 0x10AD PUSH2 0x2FAE JUMP JUMPDEST MUL OR SWAP1 SSTORE POP SWAP1 POP POP PUSH2 0x10D2 CALLER PUSH2 0x10C2 PUSH1 0x8 SLOAD SWAP1 JUMP JUMPDEST PUSH2 0x10CD SWAP1 PUSH1 0x1 PUSH2 0x3824 JUMP JUMPDEST PUSH2 0x2677 JUMP JUMPDEST POP POP POP POP JUMP JUMPDEST PUSH1 0x0 PUSH2 0x10E3 DUP4 PUSH2 0x1661 JUMP JUMPDEST DUP3 LT PUSH2 0x1145 JUMPI PUSH1 0x40 MLOAD PUSH3 0x461BCD PUSH1 0xE5 SHL DUP2 MSTORE PUSH1 0x20 PUSH1 0x4 DUP3 ADD MSTORE PUSH1 0x2B PUSH1 0x24 DUP3 ADD MSTORE PUSH32 0x455243373231456E756D657261626C653A206F776E657220696E646578206F75 PUSH1 0x44 DUP3 ADD MSTORE PUSH11 0x74206F6620626F756E6473 PUSH1 0xA8 SHL PUSH1 0x64 DUP3 ADD MSTORE PUSH1 0x84 ADD PUSH2 0xAE3 JUMP JUMPDEST POP PUSH1 0x1 PUSH1 0x1 PUSH1 0xA0 SHL SUB SWAP2 SWAP1 SWAP2 AND PUSH1 0x0 SWAP1 DUP2 MSTORE PUSH1 0x6 PUSH1 0x20 SWAP1 DUP2 MSTORE PUSH1 0x40 DUP1 DUP4 KECCAK256 SWAP4 DUP4 MSTORE SWAP3 SWAP1 MSTORE KECCAK256 SLOAD SWAP1 JUMP JUMPDEST PUSH1 0xA SLOAD PUSH1 0x1 PUSH1 0x1 PUSH1 0xA0 SHL SUB AND CALLER EQ PUSH2 0x1198 JUMPI PUSH1 0x40 MLOAD PUSH3 0x461BCD PUSH1 0xE5 SHL DUP2 MSTORE PUSH1 0x4 ADD PUSH2 0xAE3 SWAP1 PUSH2 0x383C JUMP JUMPDEST PUSH1 0x1 PUSH1 0x1 PUSH1 0xA0 SHL SUB DUP2 AND ISZERO DUP1 ISZERO SWAP1 PUSH2 0x11BE JUMPI POP PUSH1 0xE SLOAD PUSH1 0x1 PUSH1 0x1 PUSH1 0xA0 SHL SUB DUP3 DUP2 AND SWAP2 AND EQ ISZERO JUMPDEST PUSH2 0x11DA JUMPI PUSH1 0x40 MLOAD PUSH3 0x461BCD PUSH1 0xE5 SHL DUP2 MSTORE PUSH1 0x4 ADD PUSH2 0xAE3 SWAP1 PUSH2 0x3871 JUMP JUMPDEST PUSH1 0xE DUP1 SLOAD PUSH1 0x1 PUSH1 0x1 PUSH1 0xA0 SHL SUB NOT AND PUSH1 0x1 PUSH1 0x1 PUSH1 0xA0 SHL SUB DUP4 AND SWAP1 DUP2 OR SWAP1 SWAP2 SSTORE PUSH1 0x40 MLOAD SWAP1 DUP2 MSTORE PUSH32 0x35829BF1DC2D1C476529ECA85A3BA530615D11B4A5255FF7B730B4E1153E92C0 SWAP1 PUSH1 0x20 ADD JUMPDEST PUSH1 0x40 MLOAD DUP1 SWAP2 SUB SWAP1 LOG1 POP JUMP JUMPDEST PUSH1 0x0 DUP2 ISZERO DUP1 ISZERO SWAP1 PUSH2 0x1242 JUMPI POP PUSH1 0x8 SLOAD DUP3 GT ISZERO JUMPDEST PUSH2 0x125E JUMPI PUSH1 0x40 MLOAD PUSH3 0x461BCD PUSH1 0xE5 SHL DUP2 MSTORE PUSH1 0x4 ADD PUSH2 0xAE3 SWAP1 PUSH2 0x36E7 JUMP JUMPDEST PUSH1 0x17 SLOAD PUSH2 0x126A DUP4 PUSH2 0xAB4 JUMP JUMPDEST LT ISZERO SWAP3 SWAP2 POP POP JUMP JUMPDEST PUSH2 0x127B DUP2 PUSH2 0x1C7D JUMP JUMPDEST PUSH2 0x12C7 JUMPI PUSH1 0x40 MLOAD PUSH3 0x461BCD PUSH1 0xE5 SHL DUP2 MSTORE PUSH1 0x20 PUSH1 0x4 DUP3 ADD MSTORE PUSH1 0x19 PUSH1 0x24 DUP3 ADD MSTORE PUSH32 0x77697A6172642063616E206E6F74206265206578696C65642E00000000000000 PUSH1 0x44 DUP3 ADD MSTORE PUSH1 0x64 ADD PUSH2 0xAE3 JUMP JUMPDEST PUSH2 0x12D0 DUP2 PUSH2 0x2695 JUMP JUMPDEST POP JUMP JUMPDEST PUSH2 0xDC3 DUP4 DUP4 DUP4 PUSH1 0x40 MLOAD DUP1 PUSH1 0x20 ADD PUSH1 0x40 MSTORE DUP1 PUSH1 0x0 DUP2 MSTORE POP PUSH2 0x1E88 JUMP JUMPDEST PUSH1 0xA SLOAD PUSH1 0x1 PUSH1 0x1 PUSH1 0xA0 SHL SUB AND CALLER EQ PUSH2 0x1318 JUMPI PUSH1 0x40 MLOAD PUSH3 0x461BCD PUSH1 0xE5 SHL DUP2 MSTORE PUSH1 0x4 ADD PUSH2 0xAE3 SWAP1 PUSH2 0x383C JUMP JUMPDEST PUSH1 0x18 PUSH2 0x1324 DUP8 DUP3 PUSH2 0x38F6 JUMP JUMPDEST POP PUSH1 0x15 SWAP5 SWAP1 SWAP5 SSTORE PUSH1 0x12 SWAP3 SWAP1 SWAP3 SSTORE PUSH1 0xF SSTORE PUSH1 0x10 SSTORE PUSH1 0x17 SSTORE POP JUMP JUMPDEST PUSH1 0x0 PUSH2 0x1348 PUSH1 0x8 SLOAD SWAP1 JUMP JUMPDEST DUP3 LT PUSH2 0x13AB JUMPI PUSH1 0x40 MLOAD PUSH3 0x461BCD PUSH1 0xE5 SHL DUP2 MSTORE PUSH1 0x20 PUSH1 0x4 DUP3 ADD MSTORE PUSH1 0x2C PUSH1 0x24 DUP3 ADD MSTORE PUSH32 0x455243373231456E756D657261626C653A20676C6F62616C20696E646578206F PUSH1 0x44 DUP3 ADD MSTORE PUSH12 0x7574206F6620626F756E6473 PUSH1 0xA0 SHL PUSH1 0x64 DUP3 ADD MSTORE PUSH1 0x84 ADD PUSH2 0xAE3 JUMP JUMPDEST PUSH1 0x8 DUP3 DUP2 SLOAD DUP2 LT PUSH2 0x13BE JUMPI PUSH2 0x13BE PUSH2 0x39B6 JUMP JUMPDEST SWAP1 PUSH1 0x0 MSTORE PUSH1 0x20 PUSH1 0x0 KECCAK256 ADD SLOAD SWAP1 POP SWAP2 SWAP1 POP JUMP JUMPDEST PUSH1 0x0 DUP2 ISZERO DUP1 ISZERO SWAP1 PUSH2 0x13E3 JUMPI POP PUSH1 0x8 SLOAD DUP3 GT ISZERO JUMPDEST PUSH2 0x13FF JUMPI PUSH1 0x40 MLOAD PUSH3 0x461BCD PUSH1 0xE5 SHL DUP2 MSTORE PUSH1 0x4 ADD PUSH2 0xAE3 SWAP1 PUSH2 0x36E7 JUMP JUMPDEST POP PUSH1 0x0 SWAP1 DUP2 MSTORE PUSH1 0xB PUSH1 0x20 MSTORE PUSH1 0x40 SWAP1 KECCAK256 PUSH1 0x1 ADD SLOAD PUSH1 0x1 PUSH1 0x80 SHL SWAP1 DIV PUSH2 0xFFFF AND SWAP1 JUMP JUMPDEST PUSH1 0xA SLOAD PUSH1 0x1 PUSH1 0x1 PUSH1 0xA0 SHL SUB AND CALLER EQ PUSH2 0x144A JUMPI PUSH1 0x40 MLOAD PUSH3 0x461BCD PUSH1 0xE5 SHL DUP2 MSTORE PUSH1 0x4 ADD PUSH2 0xAE3 SWAP1 PUSH2 0x383C JUMP JUMPDEST PUSH1 0x1 PUSH1 0x1 PUSH1 0xA0 SHL SUB DUP2 AND ISZERO DUP1 ISZERO SWAP1 PUSH2 0x1470 JUMPI POP PUSH1 0xD SLOAD PUSH1 0x1 PUSH1 0x1 PUSH1 0xA0 SHL SUB DUP3 DUP2 AND SWAP2 AND EQ ISZERO JUMPDEST PUSH2 0x148C JUMPI PUSH1 0x40 MLOAD PUSH3 0x461BCD PUSH1 0xE5 SHL DUP2 MSTORE PUSH1 0x4 ADD PUSH2 0xAE3 SWAP1 PUSH2 0x3871 JUMP JUMPDEST PUSH1 0xD DUP1 SLOAD PUSH1 0x1 PUSH1 0x1 PUSH1 0xA0 SHL SUB NOT AND PUSH1 0x1 PUSH1 0x1 PUSH1 0xA0 SHL SUB DUP4 AND SWAP1 DUP2 OR SWAP1 SWAP2 SSTORE PUSH1 0x40 MLOAD SWAP1 DUP2 MSTORE PUSH32 0x98543B1B9BBF23B0CA565BE0F1A833222E982F36322287BF2E001B1227473AFE SWAP1 PUSH1 0x20 ADD PUSH2 0x1224 JUMP JUMPDEST PUSH1 0x0 DUP2 DUP2 MSTORE PUSH1 0x2 PUSH1 0x20 MSTORE PUSH1 0x40 DUP2 KECCAK256 SLOAD PUSH1 0x1 PUSH1 0x1 PUSH1 0xA0 SHL SUB AND DUP1 PUSH2 0x8B2 JUMPI PUSH1 0x40 MLOAD PUSH3 0x461BCD PUSH1 0xE5 SHL DUP2 MSTORE PUSH1 0x20 PUSH1 0x4 DUP3 ADD MSTORE PUSH1 0x29 PUSH1 0x24 DUP3 ADD MSTORE PUSH32 0x4552433732313A206F776E657220717565727920666F72206E6F6E6578697374 PUSH1 0x44 DUP3 ADD MSTORE PUSH9 0x32B73A103A37B5B2B7 PUSH1 0xB9 SHL PUSH1 0x64 DUP3 ADD MSTORE PUSH1 0x84 ADD PUSH2 0xAE3 JUMP JUMPDEST PUSH1 0xD SLOAD PUSH1 0x1 PUSH1 0x1 PUSH1 0xA0 SHL SUB AND CALLER EQ PUSH2 0x12C7 JUMPI PUSH1 0x40 MLOAD PUSH3 0x461BCD PUSH1 0xE5 SHL DUP2 MSTORE PUSH1 0x20 PUSH1 0x4 DUP3 ADD MSTORE PUSH1 0x23 PUSH1 0x24 DUP3 ADD MSTORE PUSH32 0x4F6E6C792063756C6C65722063616E2063616C6C20746869732066756E637469 PUSH1 0x44 DUP3 ADD MSTORE PUSH3 0x37B717 PUSH1 0xE9 SHL PUSH1 0x64 DUP3 ADD MSTORE PUSH1 0x84 ADD PUSH2 0xAE3 JUMP JUMPDEST PUSH1 0xE SLOAD PUSH1 0x1 PUSH1 0x1 PUSH1 0xA0 SHL SUB AND CALLER EQ PUSH2 0x1602 JUMPI PUSH1 0x40 MLOAD PUSH3 0x461BCD PUSH1 0xE5 SHL DUP2 MSTORE PUSH1 0x20 PUSH1 0x4 DUP3 ADD MSTORE PUSH1 0xE PUSH1 0x24 DUP3 ADD MSTORE PUSH14 0x37B7363C9030B83837B4B73A32B9 PUSH1 0x91 SHL PUSH1 0x44 DUP3 ADD MSTORE PUSH1 0x64 ADD PUSH2 0xAE3 JUMP JUMPDEST DUP2 ISZERO DUP1 ISZERO SWAP1 PUSH2 0x1613 JUMPI POP PUSH1 0x8 SLOAD DUP3 GT ISZERO JUMPDEST PUSH2 0x162F JUMPI PUSH1 0x40 MLOAD PUSH3 0x461BCD PUSH1 0xE5 SHL DUP2 MSTORE PUSH1 0x4 ADD PUSH2 0xAE3 SWAP1 PUSH2 0x36E7 JUMP JUMPDEST PUSH1 0x0 SWAP2 DUP3 MSTORE PUSH1 0xB PUSH1 0x20 MSTORE PUSH1 0x40 SWAP1 SWAP2 KECCAK256 PUSH1 0x1 ADD DUP1 SLOAD PUSH2 0xFFFF SWAP1 SWAP3 AND PUSH1 0x1 PUSH1 0x80 SHL MUL PUSH2 0xFFFF PUSH1 0x80 SHL NOT SWAP1 SWAP3 AND SWAP2 SWAP1 SWAP2 OR SWAP1 SSTORE JUMP JUMPDEST PUSH1 0x0 PUSH1 0x1 PUSH1 0x1 PUSH1 0xA0 SHL SUB DUP3 AND PUSH2 0x16CC JUMPI PUSH1 0x40 MLOAD PUSH3 0x461BCD PUSH1 0xE5 SHL DUP2 MSTORE PUSH1 0x20 PUSH1 0x4 DUP3 ADD MSTORE PUSH1 0x2A PUSH1 0x24 DUP3 ADD MSTORE PUSH32 0x4552433732313A2062616C616E636520717565727920666F7220746865207A65 PUSH1 0x44 DUP3 ADD MSTORE PUSH10 0x726F2061646472657373 PUSH1 0xB0 SHL PUSH1 0x64 DUP3 ADD MSTORE PUSH1 0x84 ADD PUSH2 0xAE3 JUMP JUMPDEST POP PUSH1 0x1 PUSH1 0x1 PUSH1 0xA0 SHL SUB AND PUSH1 0x0 SWAP1 DUP2 MSTORE PUSH1 0x3 PUSH1 0x20 MSTORE PUSH1 0x40 SWAP1 KECCAK256 SLOAD SWAP1 JUMP JUMPDEST PUSH1 0xA SLOAD PUSH1 0x1 PUSH1 0x1 PUSH1 0xA0 SHL SUB AND CALLER EQ PUSH2 0x1712 JUMPI PUSH1 0x40 MLOAD PUSH3 0x461BCD PUSH1 0xE5 SHL DUP2 MSTORE PUSH1 0x4 ADD PUSH2 0xAE3 SWAP1 PUSH2 0x383C JUMP JUMPDEST PUSH2 0x171C PUSH1 0x0 PUSH2 0x2720 JUMP JUMPDEST JUMP JUMPDEST CALLER PUSH2 0x1728 DUP3 PUSH2 0x14DA JUMP JUMPDEST PUSH1 0x1 PUSH1 0x1 PUSH1 0xA0 SHL SUB AND EQ PUSH2 0x176E JUMPI PUSH1 0x40 MLOAD PUSH3 0x461BCD PUSH1 0xE5 SHL DUP2 MSTORE PUSH1 0x20 PUSH1 0x4 DUP3 ADD MSTORE PUSH1 0xD PUSH1 0x24 DUP3 ADD MSTORE PUSH13 0x36BAB9BA1031329037BBB732B9 PUSH1 0x99 SHL PUSH1 0x44 DUP3 ADD MSTORE PUSH1 0x64 ADD PUSH2 0xAE3 JUMP JUMPDEST PUSH1 0x0 DUP2 DUP2 MSTORE PUSH1 0xB PUSH1 0x20 MSTORE PUSH1 0x40 SWAP1 KECCAK256 PUSH1 0x1 ADD SLOAD PUSH1 0x1 PUSH1 0xA0 SHL SWAP1 DIV PUSH5 0xFFFFFFFFFF AND ISZERO PUSH2 0x17CF JUMPI PUSH1 0x40 MLOAD PUSH3 0x461BCD PUSH1 0xE5 SHL DUP2 MSTORE PUSH1 0x20 PUSH1 0x4 DUP3 ADD MSTORE PUSH1 0x11 PUSH1 0x24 DUP3 ADD MSTORE PUSH17 0x185B1C9958591E481A5B9A5D1A585D1959 PUSH1 0x7A SHL PUSH1 0x44 DUP3 ADD MSTORE PUSH1 0x64 ADD PUSH2 0xAE3 JUMP JUMPDEST PUSH1 0x13 SLOAD PUSH1 0x0 DUP3 DUP2 MSTORE PUSH1 0xB PUSH1 0x20 MSTORE PUSH1 0x40 SWAP1 KECCAK256 PUSH1 0x1 ADD SLOAD TIMESTAMP SWAP2 PUSH2 0x17FD SWAP2 PUSH1 0x1 PUSH1 0xC8 SHL SWAP1 DIV PUSH5 0xFFFFFFFFFF AND PUSH2 0x3824 JUMP JUMPDEST LT PUSH2 0x185B JUMPI PUSH1 0x40 MLOAD PUSH3 0x461BCD PUSH1 0xE5 SHL DUP2 MSTORE PUSH1 0x20 PUSH1 0x4 DUP3 ADD MSTORE PUSH1 0x28 PUSH1 0x24 DUP3 ADD MSTORE PUSH32 0x4578696C65642077697A617264206E6F742079657420616C6C6F77656420746F PUSH1 0x44 DUP3 ADD MSTORE PUSH8 0x103932BA3AB93717 PUSH1 0xC1 SHL PUSH1 0x64 DUP3 ADD MSTORE PUSH1 0x84 ADD PUSH2 0xAE3 JUMP JUMPDEST PUSH1 0x10 SLOAD CALLVALUE EQ PUSH2 0x18AC JUMPI PUSH1 0x40 MLOAD PUSH3 0x461BCD PUSH1 0xE5 SHL DUP2 MSTORE PUSH1 0x20 PUSH1 0x4 DUP3 ADD MSTORE PUSH1 0x17 PUSH1 0x24 DUP3 ADD MSTORE PUSH32 0x696E636F727265637420696E69746961746F6E20666565000000000000000000 PUSH1 0x44 DUP3 ADD MSTORE PUSH1 0x64 ADD PUSH2 0xAE3 JUMP JUMPDEST PUSH1 0x0 DUP2 DUP2 MSTORE PUSH1 0xB PUSH1 0x20 MSTORE PUSH1 0x40 SWAP1 KECCAK256 PUSH1 0x1 DUP2 ADD DUP1 SLOAD PUSH5 0xFFFFFFFFFF TIMESTAMP SWAP1 DUP2 AND PUSH1 0x1 PUSH1 0xA0 SHL MUL PUSH5 0xFFFFFFFFFF PUSH1 0xA0 SHL NOT SWAP1 SWAP3 AND SWAP2 SWAP1 SWAP2 OR SWAP1 SWAP2 SSTORE PUSH1 0x12 SLOAD PUSH2 0x18F0 SWAP2 PUSH2 0x3824 JUMP JUMPDEST PUSH1 0x1 DUP3 ADD DUP1 SLOAD PUSH5 0xFFFFFFFFFF SWAP3 SWAP1 SWAP3 AND PUSH1 0x1 PUSH1 0xC8 SHL MUL PUSH5 0xFFFFFFFFFF PUSH1 0xC8 SHL NOT SWAP1 SWAP3 AND SWAP2 SWAP1 SWAP2 OR SWAP1 SSTORE PUSH1 0x40 DUP1 MLOAD CALLER DUP2 MSTORE TIMESTAMP PUSH1 0x20 DUP3 ADD MSTORE DUP4 SWAP2 PUSH32 0x1782B66BBE30900EE88FEAB2F2CD676D136386CC51CDF73F6CAE8B1DA253DDF7 SWAP2 ADD PUSH1 0x40 MLOAD DUP1 SWAP2 SUB SWAP1 LOG2 POP POP JUMP JUMPDEST PUSH1 0x0 DUP2 ISZERO DUP1 ISZERO SWAP1 PUSH2 0x196A JUMPI POP PUSH1 0x8 SLOAD DUP3 GT ISZERO JUMPDEST PUSH2 0x1986 JUMPI PUSH1 0x40 MLOAD PUSH3 0x461BCD PUSH1 0xE5 SHL DUP2 MSTORE PUSH1 0x4 ADD PUSH2 0xAE3 SWAP1 PUSH2 0x36E7 JUMP JUMPDEST POP PUSH1 0x0 SWAP1 DUP2 MSTORE PUSH1 0xB PUSH1 0x20 MSTORE PUSH1 0x40 SWAP1 KECCAK256 PUSH1 0x1 ADD SLOAD TIMESTAMP PUSH1 0x1 PUSH1 0xC8 SHL SWAP1 SWAP2 DIV PUSH5 0xFFFFFFFFFF AND GT SWAP1 JUMP JUMPDEST PUSH1 0xC SLOAD PUSH1 0x1 PUSH1 0x1 PUSH1 0xA0 SHL SUB AND CALLER EQ PUSH2 0x19F7 JUMPI PUSH1 0x40 MLOAD PUSH3 0x461BCD PUSH1 0xE5 SHL DUP2 MSTORE PUSH1 0x20 PUSH1 0x4 DUP3 ADD MSTORE PUSH1 0xD PUSH1 0x24 DUP3 ADD MSTORE PUSH13 0x37B7363C903B32B934B334B2B9 PUSH1 0x99 SHL PUSH1 0x44 DUP3 ADD MSTORE PUSH1 0x64 ADD PUSH2 0xAE3 JUMP JUMPDEST DUP2 ISZERO DUP1 ISZERO SWAP1 PUSH2 0x1A08 JUMPI POP PUSH1 0x8 SLOAD DUP3 GT ISZERO JUMPDEST PUSH2 0x1A41 JUMPI PUSH1 0x40 MLOAD PUSH3 0x461BCD PUSH1 0xE5 SHL DUP2 MSTORE PUSH1 0x20 PUSH1 0x4 DUP3 ADD MSTORE PUSH1 0xA PUSH1 0x24 DUP3 ADD MSTORE PUSH10 0x1A5B9D985B1A59081A59 PUSH1 0xB2 SHL PUSH1 0x44 DUP3 ADD MSTORE PUSH1 0x64 ADD PUSH2 0xAE3 JUMP JUMPDEST PUSH1 0x0 DUP3 DUP2 MSTORE PUSH1 0xB PUSH1 0x20 MSTORE PUSH1 0x40 DUP2 KECCAK256 PUSH1 0x1 ADD SLOAD PUSH1 0x1 PUSH1 0xA0 SHL SWAP1 DIV PUSH5 0xFFFFFFFFFF AND SWAP1 SUB PUSH2 0x1AA2 JUMPI PUSH1 0x40 MLOAD PUSH3 0x461BCD PUSH1 0xE5 SHL DUP2 MSTORE PUSH1 0x20 PUSH1 0x4 DUP3 ADD MSTORE PUSH1 0x10 PUSH1 0x24 DUP3 ADD MSTORE PUSH16 0x1A5CC81B9BDD081A5B9A5D1A585D1959 PUSH1 0x82 SHL PUSH1 0x44 DUP3 ADD MSTORE PUSH1 0x64 ADD PUSH2 0xAE3 JUMP JUMPDEST PUSH1 0x0 DUP3 DUP2 MSTORE PUSH1 0xB PUSH1 0x20 MSTORE PUSH1 0x40 SWAP1 KECCAK256 PUSH1 0x1 ADD DUP1 SLOAD DUP3 SWAP2 SWAP1 PUSH1 0x19 SWAP1 PUSH2 0x1AD4 SWAP1 DUP5 SWAP1 PUSH1 0x1 PUSH1 0xC8 SHL SWAP1 DIV PUSH5 0xFFFFFFFFFF AND PUSH2 0x39CC JUMP JUMPDEST SWAP3 POP PUSH2 0x100 EXP DUP2 SLOAD DUP2 PUSH5 0xFFFFFFFFFF MUL NOT AND SWAP1 DUP4 PUSH5 0xFFFFFFFFFF AND MUL OR SWAP1 SSTORE POP POP POP JUMP JUMPDEST PUSH1 0x0 DUP2 ISZERO DUP1 ISZERO SWAP1 PUSH2 0x1B0B JUMPI POP PUSH1 0x8 SLOAD DUP3 GT ISZERO JUMPDEST PUSH2 0x1B27 JUMPI PUSH1 0x40 MLOAD PUSH3 0x461BCD PUSH1 0xE5 SHL DUP2 MSTORE PUSH1 0x4 ADD PUSH2 0xAE3 SWAP1 PUSH2 0x36E7 JUMP JUMPDEST POP PUSH1 0x0 SWAP1 DUP2 MSTORE PUSH1 0xB PUSH1 0x20 MSTORE PUSH1 0x40 SWAP1 KECCAK256 PUSH1 0x1 ADD SLOAD PUSH1 0x1 PUSH1 0x90 SHL SWAP1 DIV PUSH2 0xFFFF AND SWAP1 JUMP JUMPDEST PUSH2 0x1B8D PUSH1 0x40 DUP1 MLOAD PUSH2 0x100 DUP2 ADD DUP3 MSTORE PUSH1 0x0 DUP1 DUP3 MSTORE PUSH1 0x20 DUP3 ADD DUP2 SWAP1 MSTORE SWAP2 DUP2 ADD DUP3 SWAP1 MSTORE PUSH1 0x60 DUP2 ADD DUP3 SWAP1 MSTORE PUSH1 0x80 DUP2 ADD DUP3 SWAP1 MSTORE PUSH1 0xA0 DUP2 ADD DUP3 SWAP1 MSTORE PUSH1 0xC0 DUP2 ADD DUP3 SWAP1 MSTORE SWAP1 PUSH1 0xE0 DUP3 ADD MSTORE SWAP1 JUMP JUMPDEST DUP2 ISZERO DUP1 ISZERO SWAP1 PUSH2 0x1B9E JUMPI POP PUSH1 0x8 SLOAD DUP3 GT ISZERO JUMPDEST PUSH2 0x1BBA JUMPI PUSH1 0x40 MLOAD PUSH3 0x461BCD PUSH1 0xE5 SHL DUP2 MSTORE PUSH1 0x4 ADD PUSH2 0xAE3 SWAP1 PUSH2 0x36E7 JUMP JUMPDEST PUSH1 0x0 DUP3 DUP2 MSTORE PUSH1 0xB PUSH1 0x20 SWAP1 DUP2 MSTORE PUSH1 0x40 SWAP2 DUP3 SWAP1 KECCAK256 DUP3 MLOAD PUSH2 0x100 DUP2 ADD DUP5 MSTORE DUP2 SLOAD PUSH1 0x1 PUSH1 0x1 PUSH1 0x80 SHL SUB DUP1 DUP3 AND DUP4 MSTORE PUSH1 0x1 PUSH1 0x80 SHL SWAP2 DUP3 SWAP1 DIV DUP2 AND SWAP5 DUP4 ADD SWAP5 SWAP1 SWAP5 MSTORE PUSH1 0x1 DUP4 ADD SLOAD SWAP4 DUP5 AND SWAP5 DUP3 ADD SWAP5 SWAP1 SWAP5 MSTORE SWAP3 DUP3 DIV PUSH2 0xFFFF SWAP1 DUP2 AND PUSH1 0x60 DUP6 ADD MSTORE PUSH1 0x1 PUSH1 0x90 SHL DUP4 DIV AND PUSH1 0x80 DUP5 ADD MSTORE PUSH1 0x1 PUSH1 0xA0 SHL DUP3 DIV PUSH5 0xFFFFFFFFFF SWAP1 DUP2 AND PUSH1 0xA0 DUP6 ADD MSTORE PUSH1 0x1 PUSH1 0xC8 SHL DUP4 DIV AND PUSH1 0xC0 DUP5 ADD MSTORE SWAP1 PUSH1 0xE0 DUP4 ADD SWAP1 PUSH1 0x1 PUSH1 0xF0 SHL SWAP1 DIV PUSH1 0xFF AND PUSH1 0x3 DUP2 GT ISZERO PUSH2 0x1C63 JUMPI PUSH2 0x1C63 PUSH2 0x2FAE JUMP JUMPDEST PUSH1 0x3 DUP2 GT ISZERO PUSH2 0x1C74 JUMPI PUSH2 0x1C74 PUSH2 0x2FAE JUMP JUMPDEST SWAP1 MSTORE POP SWAP3 SWAP2 POP POP JUMP JUMPDEST PUSH1 0x0 DUP2 ISZERO DUP1 ISZERO SWAP1 PUSH2 0x1C90 JUMPI POP PUSH1 0x8 SLOAD DUP3 GT ISZERO JUMPDEST PUSH2 0x1CAC JUMPI PUSH1 0x40 MLOAD PUSH3 0x461BCD PUSH1 0xE5 SHL DUP2 MSTORE PUSH1 0x4 ADD PUSH2 0xAE3 SWAP1 PUSH2 0x36E7 JUMP JUMPDEST PUSH1 0x0 DUP3 DUP2 MSTORE PUSH1 0xB PUSH1 0x20 MSTORE PUSH1 0x40 SWAP1 KECCAK256 PUSH1 0x1 ADD SLOAD TIMESTAMP PUSH1 0x1 PUSH1 0xC8 SHL SWAP1 SWAP2 DIV PUSH5 0xFFFFFFFFFF AND LT DUP1 ISZERO PUSH2 0x8B2 JUMPI POP POP PUSH1 0x0 SWAP1 DUP2 MSTORE PUSH1 0xB PUSH1 0x20 MSTORE PUSH1 0x40 SWAP1 KECCAK256 PUSH1 0x1 ADD SLOAD PUSH1 0x1 PUSH1 0xA0 SHL SWAP1 DIV PUSH5 0xFFFFFFFFFF AND ISZERO SWAP1 JUMP JUMPDEST PUSH1 0x60 PUSH1 0x1 DUP1 SLOAD PUSH2 0xB9B SWAP1 PUSH2 0x3766 JUMP JUMPDEST PUSH1 0xA SLOAD PUSH1 0x1 PUSH1 0x1 PUSH1 0xA0 SHL SUB AND CALLER EQ PUSH2 0x1D34 JUMPI PUSH1 0x40 MLOAD PUSH3 0x461BCD PUSH1 0xE5 SHL DUP2 MSTORE PUSH1 0x4 ADD PUSH2 0xAE3 SWAP1 PUSH2 0x383C JUMP JUMPDEST PUSH1 0x1 PUSH1 0x1 PUSH1 0xA0 SHL SUB DUP2 AND ISZERO DUP1 ISZERO SWAP1 PUSH2 0x1D5A JUMPI POP PUSH1 0xC SLOAD PUSH1 0x1 PUSH1 0x1 PUSH1 0xA0 SHL SUB DUP3 DUP2 AND SWAP2 AND EQ ISZERO JUMPDEST PUSH2 0x1D76 JUMPI PUSH1 0x40 MLOAD PUSH3 0x461BCD PUSH1 0xE5 SHL DUP2 MSTORE PUSH1 0x4 ADD PUSH2 0xAE3 SWAP1 PUSH2 0x3871 JUMP JUMPDEST PUSH1 0xC DUP1 SLOAD PUSH1 0x1 PUSH1 0x1 PUSH1 0xA0 SHL SUB NOT AND PUSH1 0x1 PUSH1 0x1 PUSH1 0xA0 SHL SUB DUP4 AND SWAP1 DUP2 OR SWAP1 SWAP2 SSTORE PUSH1 0x40 MLOAD SWAP1 DUP2 MSTORE PUSH32 0xA1FD6A6669ACB930BAE242943BB9FA08DDCBA665C707261E9730EE0305FB85E5 SWAP1 PUSH1 0x20 ADD PUSH2 0x1224 JUMP JUMPDEST CALLER PUSH1 0x1 PUSH1 0x1 PUSH1 0xA0 SHL SUB DUP4 AND SUB PUSH2 0x1E1C JUMPI PUSH1 0x40 MLOAD PUSH3 0x461BCD PUSH1 0xE5 SHL DUP2 MSTORE PUSH1 0x20 PUSH1 0x4 DUP3 ADD MSTORE PUSH1 0x19 PUSH1 0x24 DUP3 ADD MSTORE PUSH32 0x4552433732313A20617070726F766520746F2063616C6C657200000000000000 PUSH1 0x44 DUP3 ADD MSTORE PUSH1 0x64 ADD PUSH2 0xAE3 JUMP JUMPDEST CALLER PUSH1 0x0 DUP2 DUP2 MSTORE PUSH1 0x5 PUSH1 0x20 SWAP1 DUP2 MSTORE PUSH1 0x40 DUP1 DUP4 KECCAK256 PUSH1 0x1 PUSH1 0x1 PUSH1 0xA0 SHL SUB DUP8 AND DUP1 DUP6 MSTORE SWAP1 DUP4 MSTORE SWAP3 DUP2 SWAP1 KECCAK256 DUP1 SLOAD PUSH1 0xFF NOT AND DUP7 ISZERO ISZERO SWAP1 DUP2 OR SWAP1 SWAP2 SSTORE SWAP1 MLOAD SWAP1 DUP2 MSTORE SWAP2 SWAP3 SWAP2 PUSH32 0x17307EAB39AB6107E8899845AD3D59BD9653F200F220920489CA2B5937696C31 SWAP2 ADD PUSH1 0x40 MLOAD DUP1 SWAP2 SUB SWAP1 LOG3 POP POP JUMP JUMPDEST PUSH2 0x1E92 CALLER DUP4 PUSH2 0x23D9 JUMP JUMPDEST PUSH2 0x1EAE JUMPI PUSH1 0x40 MLOAD PUSH3 0x461BCD PUSH1 0xE5 SHL DUP2 MSTORE PUSH1 0x4 ADD PUSH2 0xAE3 SWAP1 PUSH2 0x37A0 JUMP JUMPDEST PUSH2 0x10D2 DUP5 DUP5 DUP5 DUP5 PUSH2 0x2772 JUMP JUMPDEST PUSH1 0x0 DUP2 DUP2 MSTORE PUSH1 0x2 PUSH1 0x20 MSTORE PUSH1 0x40 SWAP1 KECCAK256 SLOAD PUSH1 0x60 SWAP1 PUSH1 0x1 PUSH1 0x1 PUSH1 0xA0 SHL SUB AND PUSH2 0x1F39 JUMPI PUSH1 0x40 MLOAD PUSH3 0x461BCD PUSH1 0xE5 SHL DUP2 MSTORE PUSH1 0x20 PUSH1 0x4 DUP3 ADD MSTORE PUSH1 0x2F PUSH1 0x24 DUP3 ADD MSTORE PUSH32 0x4552433732314D657461646174613A2055524920717565727920666F72206E6F PUSH1 0x44 DUP3 ADD MSTORE PUSH15 0x3732BC34B9BA32B73A103A37B5B2B7 PUSH1 0x89 SHL PUSH1 0x64 DUP3 ADD MSTORE PUSH1 0x84 ADD PUSH2 0xAE3 JUMP JUMPDEST PUSH1 0x0 DUP3 DUP2 MSTORE PUSH1 0xB PUSH1 0x20 MSTORE PUSH1 0x40 DUP2 KECCAK256 PUSH1 0x1 ADD SLOAD PUSH1 0x60 SWAP2 PUSH1 0x1 PUSH1 0xA0 SHL SWAP1 SWAP2 DIV PUSH5 0xFFFFFFFFFF AND SWAP1 SUB PUSH2 0x1F8B JUMPI POP PUSH1 0x40 DUP1 MLOAD DUP1 DUP3 ADD SWAP1 SWAP2 MSTORE PUSH1 0xB DUP2 MSTORE PUSH11 0x1D5B9A5B9A5D1A585D1959 PUSH1 0xAA SHL PUSH1 0x20 DUP3 ADD MSTORE PUSH2 0x2002 JUMP JUMPDEST PUSH2 0x1F94 DUP4 PUSH2 0x2105 JUMP JUMPDEST ISZERO PUSH2 0x1FBC JUMPI POP PUSH1 0x40 DUP1 MLOAD DUP1 DUP3 ADD SWAP1 SWAP2 MSTORE PUSH1 0x6 DUP2 MSTORE PUSH6 0x195E1A5B1959 PUSH1 0xD2 SHL PUSH1 0x20 DUP3 ADD MSTORE PUSH2 0x2002 JUMP JUMPDEST PUSH2 0x1FC5 DUP4 PUSH2 0x1957 JUMP JUMPDEST PUSH2 0x1FEE JUMPI POP PUSH1 0x40 DUP1 MLOAD DUP1 DUP3 ADD SWAP1 SWAP2 MSTORE PUSH1 0x8 DUP2 MSTORE PUSH8 0x696E616374697665 PUSH1 0xC0 SHL PUSH1 0x20 DUP3 ADD MSTORE PUSH2 0x2002 JUMP JUMPDEST PUSH2 0x1FFF PUSH2 0x1FFA DUP5 PUSH2 0xAB4 JUMP JUMPDEST PUSH2 0x226A JUMP JUMPDEST SWAP1 POP JUMPDEST PUSH1 0x40 MLOAD PUSH1 0x0 SWAP1 PUSH2 0x2019 SWAP1 PUSH1 0x18 SWAP1 DUP5 SWAP1 PUSH1 0x20 ADD PUSH2 0x39F5 JUMP JUMPDEST PUSH1 0x40 MLOAD PUSH1 0x20 DUP2 DUP4 SUB SUB DUP2 MSTORE SWAP1 PUSH1 0x40 MSTORE SWAP1 POP PUSH2 0x2034 DUP5 DUP3 PUSH2 0x8B8 JUMP JUMPDEST SWAP5 SWAP4 POP POP POP POP JUMP JUMPDEST PUSH1 0xF DUP1 SLOAD PUSH1 0x10 SLOAD PUSH1 0x11 SLOAD PUSH1 0x12 SLOAD PUSH1 0x13 SLOAD PUSH1 0x14 SLOAD PUSH1 0x15 SLOAD PUSH1 0x16 SLOAD PUSH1 0x17 SLOAD PUSH1 0x18 DUP1 SLOAD SWAP10 SWAP11 SWAP9 SWAP10 SWAP8 SWAP9 SWAP7 SWAP8 SWAP6 SWAP7 PUSH1 0x1 PUSH1 0x1 PUSH1 0xA0 SHL SUB SWAP1 SWAP6 AND SWAP6 SWAP4 SWAP5 SWAP3 SWAP4 SWAP2 SWAP3 SWAP2 PUSH2 0x2082 SWAP1 PUSH2 0x3766 JUMP JUMPDEST DUP1 PUSH1 0x1F ADD PUSH1 0x20 DUP1 SWAP2 DIV MUL PUSH1 0x20 ADD PUSH1 0x40 MLOAD SWAP1 DUP2 ADD PUSH1 0x40 MSTORE DUP1 SWAP3 SWAP2 SWAP1 DUP2 DUP2 MSTORE PUSH1 0x20 ADD DUP3 DUP1 SLOAD PUSH2 0x20AE SWAP1 PUSH2 0x3766 JUMP JUMPDEST DUP1 ISZERO PUSH2 0x20FB JUMPI DUP1 PUSH1 0x1F LT PUSH2 0x20D0 JUMPI PUSH2 0x100 DUP1 DUP4 SLOAD DIV MUL DUP4 MSTORE SWAP2 PUSH1 0x20 ADD SWAP2 PUSH2 0x20FB JUMP JUMPDEST DUP3 ADD SWAP2 SWAP1 PUSH1 0x0 MSTORE PUSH1 0x20 PUSH1 0x0 KECCAK256 SWAP1 JUMPDEST DUP2 SLOAD DUP2 MSTORE SWAP1 PUSH1 0x1 ADD SWAP1 PUSH1 0x20 ADD DUP1 DUP4 GT PUSH2 0x20DE JUMPI DUP3 SWAP1 SUB PUSH1 0x1F AND DUP3 ADD SWAP2 JUMPDEST POP POP POP POP POP SWAP1 POP DUP11 JUMP JUMPDEST PUSH1 0x0 DUP2 ISZERO DUP1 ISZERO SWAP1 PUSH2 0x2118 JUMPI POP PUSH1 0x8 SLOAD DUP3 GT ISZERO JUMPDEST PUSH2 0x2134 JUMPI PUSH1 0x40 MLOAD PUSH3 0x461BCD PUSH1 0xE5 SHL DUP2 MSTORE PUSH1 0x4 ADD PUSH2 0xAE3 SWAP1 PUSH2 0x36E7 JUMP JUMPDEST PUSH1 0x0 DUP3 DUP2 MSTORE PUSH1 0xB PUSH1 0x20 MSTORE PUSH1 0x40 SWAP1 KECCAK256 PUSH1 0x1 ADD SLOAD PUSH1 0x1 PUSH1 0xC8 SHL SWAP1 DIV PUSH5 0xFFFFFFFFFF AND ISZERO DUP1 ISZERO SWAP1 PUSH2 0x8B2 JUMPI POP POP PUSH1 0x0 SWAP1 DUP2 MSTORE PUSH1 0xB PUSH1 0x20 MSTORE PUSH1 0x40 SWAP1 KECCAK256 PUSH1 0x1 ADD SLOAD PUSH1 0x1 PUSH1 0xA0 SHL SWAP1 DIV PUSH5 0xFFFFFFFFFF AND ISZERO SWAP1 JUMP JUMPDEST PUSH1 0xA SLOAD PUSH1 0x1 PUSH1 0x1 PUSH1 0xA0 SHL SUB AND CALLER EQ PUSH2 0x21AC JUMPI PUSH1 0x40 MLOAD PUSH3 0x461BCD PUSH1 0xE5 SHL DUP2 MSTORE PUSH1 0x4 ADD PUSH2 0xAE3 SWAP1 PUSH2 0x383C JUMP JUMPDEST PUSH1 0x1 PUSH1 0x1 PUSH1 0xA0 SHL SUB DUP2 AND PUSH2 0x2211 JUMPI PUSH1 0x40 MLOAD PUSH3 0x461BCD PUSH1 0xE5 SHL DUP2 MSTORE PUSH1 0x20 PUSH1 0x4 DUP3 ADD MSTORE PUSH1 0x26 PUSH1 0x24 DUP3 ADD MSTORE PUSH32 0x4F776E61626C653A206E6577206F776E657220697320746865207A65726F2061 PUSH1 0x44 DUP3 ADD MSTORE PUSH6 0x646472657373 PUSH1 0xD0 SHL PUSH1 0x64 DUP3 ADD MSTORE PUSH1 0x84 ADD PUSH2 0xAE3 JUMP JUMPDEST PUSH2 0x12D0 DUP2 PUSH2 0x2720 JUMP JUMPDEST PUSH1 0x0 PUSH1 0x1 PUSH1 0x1 PUSH1 0xE0 SHL SUB NOT DUP3 AND PUSH4 0x80AC58CD PUSH1 0xE0 SHL EQ DUP1 PUSH2 0x224B JUMPI POP PUSH1 0x1 PUSH1 0x1 PUSH1 0xE0 SHL SUB NOT DUP3 AND PUSH4 0x5B5E139F PUSH1 0xE0 SHL EQ JUMPDEST DUP1 PUSH2 0x8B2 JUMPI POP PUSH4 0x1FFC9A7 PUSH1 0xE0 SHL PUSH1 0x1 PUSH1 0x1 PUSH1 0xE0 SHL SUB NOT DUP4 AND EQ PUSH2 0x8B2 JUMP JUMPDEST PUSH1 0x60 DUP2 PUSH1 0x0 SUB PUSH2 0x2291 JUMPI POP POP PUSH1 0x40 DUP1 MLOAD DUP1 DUP3 ADD SWAP1 SWAP2 MSTORE PUSH1 0x1 DUP2 MSTORE PUSH1 0x3 PUSH1 0xFC SHL PUSH1 0x20 DUP3 ADD MSTORE SWAP1 JUMP JUMPDEST DUP2 PUSH1 0x0 JUMPDEST DUP2 ISZERO PUSH2 0x22BB JUMPI DUP1 PUSH2 0x22A5 DUP2 PUSH2 0x3A8B JUMP JUMPDEST SWAP2 POP PUSH2 0x22B4 SWAP1 POP PUSH1 0xA DUP4 PUSH2 0x3752 JUMP JUMPDEST SWAP2 POP PUSH2 0x2295 JUMP JUMPDEST PUSH1 0x0 DUP2 PUSH8 0xFFFFFFFFFFFFFFFF DUP2 GT ISZERO PUSH2 0x22D6 JUMPI PUSH2 0x22D6 PUSH2 0x2CA2 JUMP JUMPDEST PUSH1 0x40 MLOAD SWAP1 DUP1 DUP3 MSTORE DUP1 PUSH1 0x1F ADD PUSH1 0x1F NOT AND PUSH1 0x20 ADD DUP3 ADD PUSH1 0x40 MSTORE DUP1 ISZERO PUSH2 0x2300 JUMPI PUSH1 0x20 DUP3 ADD DUP2 DUP1 CALLDATASIZE DUP4 CALLDATACOPY ADD SWAP1 POP JUMPDEST POP SWAP1 POP JUMPDEST DUP5 ISZERO PUSH2 0x2034 JUMPI PUSH2 0x2315 PUSH1 0x1 DUP4 PUSH2 0x3725 JUMP JUMPDEST SWAP2 POP PUSH2 0x2322 PUSH1 0xA DUP7 PUSH2 0x3810 JUMP JUMPDEST PUSH2 0x232D SWAP1 PUSH1 0x30 PUSH2 0x3824 JUMP JUMPDEST PUSH1 0xF8 SHL DUP2 DUP4 DUP2 MLOAD DUP2 LT PUSH2 0x2342 JUMPI PUSH2 0x2342 PUSH2 0x39B6 JUMP JUMPDEST PUSH1 0x20 ADD ADD SWAP1 PUSH1 0x1 PUSH1 0x1 PUSH1 0xF8 SHL SUB NOT AND SWAP1 DUP2 PUSH1 0x0 BYTE SWAP1 MSTORE8 POP PUSH2 0x2364 PUSH1 0xA DUP7 PUSH2 0x3752 JUMP JUMPDEST SWAP5 POP PUSH2 0x2304 JUMP JUMPDEST PUSH1 0x0 DUP2 DUP2 MSTORE PUSH1 0x4 PUSH1 0x20 MSTORE PUSH1 0x40 SWAP1 KECCAK256 DUP1 SLOAD PUSH1 0x1 PUSH1 0x1 PUSH1 0xA0 SHL SUB NOT AND PUSH1 0x1 PUSH1 0x1 PUSH1 0xA0 SHL SUB DUP5 AND SWAP1 DUP2 OR SWAP1 SWAP2 SSTORE DUP2 SWAP1 PUSH2 0x23A0 DUP3 PUSH2 0x14DA JUMP JUMPDEST PUSH1 0x1 PUSH1 0x1 PUSH1 0xA0 SHL SUB AND PUSH32 0x8C5BE1E5EBEC7D5BD14F71427D1E84F3DD0314C0F7B2291E5B200AC8C7C3B925 PUSH1 0x40 MLOAD PUSH1 0x40 MLOAD DUP1 SWAP2 SUB SWAP1 LOG4 POP POP JUMP JUMPDEST PUSH1 0x0 DUP2 DUP2 MSTORE PUSH1 0x2 PUSH1 0x20 MSTORE PUSH1 0x40 DUP2 KECCAK256 SLOAD PUSH1 0x1 PUSH1 0x1 PUSH1 0xA0 SHL SUB AND PUSH2 0x2452 JUMPI PUSH1 0x40 MLOAD PUSH3 0x461BCD PUSH1 0xE5 SHL DUP2 MSTORE PUSH1 0x20 PUSH1 0x4 DUP3 ADD MSTORE PUSH1 0x2C PUSH1 0x24 DUP3 ADD MSTORE PUSH32 0x4552433732313A206F70657261746F7220717565727920666F72206E6F6E6578 PUSH1 0x44 DUP3 ADD MSTORE PUSH12 0x34B9BA32B73A103A37B5B2B7 PUSH1 0xA1 SHL PUSH1 0x64 DUP3 ADD MSTORE PUSH1 0x84 ADD PUSH2 0xAE3 JUMP JUMPDEST PUSH1 0x0 PUSH2 0x245D DUP4 PUSH2 0x14DA JUMP JUMPDEST SWAP1 POP DUP1 PUSH1 0x1 PUSH1 0x1 PUSH1 0xA0 SHL SUB AND DUP5 PUSH1 0x1 PUSH1 0x1 PUSH1 0xA0 SHL SUB AND EQ DUP1 PUSH2 0x2498 JUMPI POP DUP4 PUSH1 0x1 PUSH1 0x1 PUSH1 0xA0 SHL SUB AND PUSH2 0x248D DUP5 PUSH2 0xC1E JUMP JUMPDEST PUSH1 0x1 PUSH1 0x1 PUSH1 0xA0 SHL SUB AND EQ JUMPDEST DUP1 PUSH2 0x2034 JUMPI POP PUSH1 0x1 PUSH1 0x1 PUSH1 0xA0 SHL SUB DUP1 DUP3 AND PUSH1 0x0 SWAP1 DUP2 MSTORE PUSH1 0x5 PUSH1 0x20 SWAP1 DUP2 MSTORE PUSH1 0x40 DUP1 DUP4 KECCAK256 SWAP4 DUP9 AND DUP4 MSTORE SWAP3 SWAP1 MSTORE KECCAK256 SLOAD PUSH1 0xFF AND PUSH2 0x2034 JUMP JUMPDEST DUP3 PUSH1 0x1 PUSH1 0x1 PUSH1 0xA0 SHL SUB AND PUSH2 0x24DF DUP3 PUSH2 0x14DA JUMP JUMPDEST PUSH1 0x1 PUSH1 0x1 PUSH1 0xA0 SHL SUB AND EQ PUSH2 0x2547 JUMPI PUSH1 0x40 MLOAD PUSH3 0x461BCD PUSH1 0xE5 SHL DUP2 MSTORE PUSH1 0x20 PUSH1 0x4 DUP3 ADD MSTORE PUSH1 0x29 PUSH1 0x24 DUP3 ADD MSTORE PUSH32 0x4552433732313A207472616E73666572206F6620746F6B656E20746861742069 PUSH1 0x44 DUP3 ADD MSTORE PUSH9 0x39903737BA1037BBB7 PUSH1 0xB9 SHL PUSH1 0x64 DUP3 ADD MSTORE PUSH1 0x84 ADD PUSH2 0xAE3 JUMP JUMPDEST PUSH1 0x1 PUSH1 0x1 PUSH1 0xA0 SHL SUB DUP3 AND PUSH2 0x25A9 JUMPI PUSH1 0x40 MLOAD PUSH3 0x461BCD PUSH1 0xE5 SHL DUP2 MSTORE PUSH1 0x20 PUSH1 0x4 DUP3 ADD MSTORE PUSH1 0x24 DUP1 DUP3 ADD MSTORE PUSH32 0x4552433732313A207472616E7366657220746F20746865207A65726F20616464 PUSH1 0x44 DUP3 ADD MSTORE PUSH4 0x72657373 PUSH1 0xE0 SHL PUSH1 0x64 DUP3 ADD MSTORE PUSH1 0x84 ADD PUSH2 0xAE3 JUMP JUMPDEST PUSH2 0x25B4 DUP4 DUP4 DUP4 PUSH2 0x27A5 JUMP JUMPDEST PUSH2 0x25BF PUSH1 0x0 DUP3 PUSH2 0x236B JUMP JUMPDEST PUSH1 0x1 PUSH1 0x1 PUSH1 0xA0 SHL SUB DUP4 AND PUSH1 0x0 SWAP1 DUP2 MSTORE PUSH1 0x3 PUSH1 0x20 MSTORE PUSH1 0x40 DUP2 KECCAK256 DUP1 SLOAD PUSH1 0x1 SWAP3 SWAP1 PUSH2 0x25E8 SWAP1 DUP5 SWAP1 PUSH2 0x3725 JUMP JUMPDEST SWAP1 SWAP2 SSTORE POP POP PUSH1 0x1 PUSH1 0x1 PUSH1 0xA0 SHL SUB DUP3 AND PUSH1 0x0 SWAP1 DUP2 MSTORE PUSH1 0x3 PUSH1 0x20 MSTORE PUSH1 0x40 DUP2 KECCAK256 DUP1 SLOAD PUSH1 0x1 SWAP3 SWAP1 PUSH2 0x2616 SWAP1 DUP5 SWAP1 PUSH2 0x3824 JUMP JUMPDEST SWAP1 SWAP2 SSTORE POP POP PUSH1 0x0 DUP2 DUP2 MSTORE PUSH1 0x2 PUSH1 0x20 MSTORE PUSH1 0x40 DUP1 DUP3 KECCAK256 DUP1 SLOAD PUSH1 0x1 PUSH1 0x1 PUSH1 0xA0 SHL SUB NOT AND PUSH1 0x1 PUSH1 0x1 PUSH1 0xA0 SHL SUB DUP7 DUP2 AND SWAP2 DUP3 OR SWAP1 SWAP3 SSTORE SWAP2 MLOAD DUP5 SWAP4 SWAP2 DUP8 AND SWAP2 PUSH32 0xDDF252AD1BE2C89B69C2B068FC378DAA952BA7F163C4A11628F55A4DF523B3EF SWAP2 LOG4 POP POP POP JUMP JUMPDEST PUSH2 0x2691 DUP3 DUP3 PUSH1 0x40 MLOAD DUP1 PUSH1 0x20 ADD PUSH1 0x40 MSTORE DUP1 PUSH1 0x0 DUP2 MSTORE POP PUSH2 0x285D JUMP JUMPDEST POP POP JUMP JUMPDEST DUP1 ISZERO DUP1 ISZERO SWAP1 PUSH2 0x26A6 JUMPI POP PUSH1 0x8 SLOAD DUP2 GT ISZERO JUMPDEST PUSH2 0x26DF JUMPI PUSH1 0x40 MLOAD PUSH3 0x461BCD PUSH1 0xE5 SHL DUP2 MSTORE PUSH1 0x20 PUSH1 0x4 DUP3 ADD MSTORE PUSH1 0xA PUSH1 0x24 DUP3 ADD MSTORE PUSH10 0x1A5B9D985B1A59081A59 PUSH1 0xB2 SHL PUSH1 0x44 DUP3 ADD MSTORE PUSH1 0x64 ADD PUSH2 0xAE3 JUMP JUMPDEST PUSH1 0x0 SWAP1 DUP2 MSTORE PUSH1 0xB PUSH1 0x20 MSTORE PUSH1 0x40 SWAP1 KECCAK256 PUSH1 0x1 ADD DUP1 SLOAD PUSH10 0xFFFFFFFFFFFFFFFFFFFF PUSH1 0xA0 SHL NOT AND PUSH1 0x1 PUSH1 0xC8 SHL TIMESTAMP PUSH5 0xFFFFFFFFFF AND MUL PUSH5 0xFFFFFFFFFF PUSH1 0xA0 SHL NOT AND OR SWAP1 SSTORE JUMP JUMPDEST PUSH1 0xA DUP1 SLOAD PUSH1 0x1 PUSH1 0x1 PUSH1 0xA0 SHL SUB DUP4 DUP2 AND PUSH1 0x1 PUSH1 0x1 PUSH1 0xA0 SHL SUB NOT DUP4 AND DUP2 OR SWAP1 SWAP4 SSTORE PUSH1 0x40 MLOAD SWAP2 AND SWAP2 SWAP1 DUP3 SWAP1 PUSH32 0x8BE0079C531659141344CD1FD0A4F28419497F9722A3DAAFE3B4186F6B6457E0 SWAP1 PUSH1 0x0 SWAP1 LOG3 POP POP JUMP JUMPDEST PUSH2 0x277D DUP5 DUP5 DUP5 PUSH2 0x24CC JUMP JUMPDEST PUSH2 0x2789 DUP5 DUP5 DUP5 DUP5 PUSH2 0x2890 JUMP JUMPDEST PUSH2 0x10D2 JUMPI PUSH1 0x40 MLOAD PUSH3 0x461BCD PUSH1 0xE5 SHL DUP2 MSTORE PUSH1 0x4 ADD PUSH2 0xAE3 SWAP1 PUSH2 0x3AA4 JUMP JUMPDEST PUSH1 0x1 PUSH1 0x1 PUSH1 0xA0 SHL SUB DUP4 AND PUSH2 0x2800 JUMPI PUSH2 0x27FB DUP2 PUSH1 0x8 DUP1 SLOAD PUSH1 0x0 DUP4 DUP2 MSTORE PUSH1 0x9 PUSH1 0x20 MSTORE PUSH1 0x40 DUP2 KECCAK256 DUP3 SWAP1 SSTORE PUSH1 0x1 DUP3 ADD DUP4 SSTORE SWAP2 SWAP1 SWAP2 MSTORE PUSH32 0xF3F7A9FE364FAAB93B216DA50A3214154F22A0A2B415B23A84C8169E8B636EE3 ADD SSTORE JUMP JUMPDEST PUSH2 0x2823 JUMP JUMPDEST DUP2 PUSH1 0x1 PUSH1 0x1 PUSH1 0xA0 SHL SUB AND DUP4 PUSH1 0x1 PUSH1 0x1 PUSH1 0xA0 SHL SUB AND EQ PUSH2 0x2823 JUMPI PUSH2 0x2823 DUP4 DUP3 PUSH2 0x2991 JUMP JUMPDEST PUSH1 0x1 PUSH1 0x1 PUSH1 0xA0 SHL SUB DUP3 AND PUSH2 0x283A JUMPI PUSH2 0xDC3 DUP2 PUSH2 0x2A2E JUMP JUMPDEST DUP3 PUSH1 0x1 PUSH1 0x1 PUSH1 0xA0 SHL SUB AND DUP3 PUSH1 0x1 PUSH1 0x1 PUSH1 0xA0 SHL SUB AND EQ PUSH2 0xDC3 JUMPI PUSH2 0xDC3 DUP3 DUP3 PUSH2 0x2ADD JUMP JUMPDEST PUSH2 0x2867 DUP4 DUP4 PUSH2 0x2B21 JUMP JUMPDEST PUSH2 0x2874 PUSH1 0x0 DUP5 DUP5 DUP5 PUSH2 0x2890 JUMP JUMPDEST PUSH2 0xDC3 JUMPI PUSH1 0x40 MLOAD PUSH3 0x461BCD PUSH1 0xE5 SHL DUP2 MSTORE PUSH1 0x4 ADD PUSH2 0xAE3 SWAP1 PUSH2 0x3AA4 JUMP JUMPDEST PUSH1 0x0 PUSH1 0x1 PUSH1 0x1 PUSH1 0xA0 SHL SUB DUP5 AND EXTCODESIZE ISZERO PUSH2 0x2986 JUMPI PUSH1 0x40 MLOAD PUSH4 0xA85BD01 PUSH1 0xE1 SHL DUP2 MSTORE PUSH1 0x1 PUSH1 0x1 PUSH1 0xA0 SHL SUB DUP6 AND SWAP1 PUSH4 0x150B7A02 SWAP1 PUSH2 0x28D4 SWAP1 CALLER SWAP1 DUP10 SWAP1 DUP9 SWAP1 DUP9 SWAP1 PUSH1 0x4 ADD PUSH2 0x3AF6 JUMP JUMPDEST PUSH1 0x20 PUSH1 0x40 MLOAD DUP1 DUP4 SUB DUP2 PUSH1 0x0 DUP8 GAS CALL SWAP3 POP POP POP DUP1 ISZERO PUSH2 0x290F JUMPI POP PUSH1 0x40 DUP1 MLOAD PUSH1 0x1F RETURNDATASIZE SWAP1 DUP2 ADD PUSH1 0x1F NOT AND DUP3 ADD SWAP1 SWAP3 MSTORE PUSH2 0x290C SWAP2 DUP2 ADD SWAP1 PUSH2 0x3B33 JUMP JUMPDEST PUSH1 0x1 JUMPDEST PUSH2 0x296C JUMPI RETURNDATASIZE DUP1 DUP1 ISZERO PUSH2 0x293D JUMPI PUSH1 0x40 MLOAD SWAP2 POP PUSH1 0x1F NOT PUSH1 0x3F RETURNDATASIZE ADD AND DUP3 ADD PUSH1 0x40 MSTORE RETURNDATASIZE DUP3 MSTORE RETURNDATASIZE PUSH1 0x0 PUSH1 0x20 DUP5 ADD RETURNDATACOPY PUSH2 0x2942 JUMP JUMPDEST PUSH1 0x60 SWAP2 POP JUMPDEST POP DUP1 MLOAD PUSH1 0x0 SUB PUSH2 0x2964 JUMPI PUSH1 0x40 MLOAD PUSH3 0x461BCD PUSH1 0xE5 SHL DUP2 MSTORE PUSH1 0x4 ADD PUSH2 0xAE3 SWAP1 PUSH2 0x3AA4 JUMP JUMPDEST DUP1 MLOAD DUP2 PUSH1 0x20 ADD REVERT JUMPDEST PUSH1 0x1 PUSH1 0x1 PUSH1 0xE0 SHL SUB NOT AND PUSH4 0xA85BD01 PUSH1 0xE1 SHL EQ SWAP1 POP PUSH2 0x2034 JUMP JUMPDEST POP PUSH1 0x1 SWAP5 SWAP4 POP POP POP POP JUMP JUMPDEST PUSH1 0x0 PUSH1 0x1 PUSH2 0x299E DUP5 PUSH2 0x1661 JUMP JUMPDEST PUSH2 0x29A8 SWAP2 SWAP1 PUSH2 0x3725 JUMP JUMPDEST PUSH1 0x0 DUP4 DUP2 MSTORE PUSH1 0x7 PUSH1 0x20 MSTORE PUSH1 0x40 SWAP1 KECCAK256 SLOAD SWAP1 SWAP2 POP DUP1 DUP3 EQ PUSH2 0x29FB JUMPI PUSH1 0x1 PUSH1 0x1 PUSH1 0xA0 SHL SUB DUP5 AND PUSH1 0x0 SWAP1 DUP2 MSTORE PUSH1 0x6 PUSH1 0x20 SWAP1 DUP2 MSTORE PUSH1 0x40 DUP1 DUP4 KECCAK256 DUP6 DUP5 MSTORE DUP3 MSTORE DUP1 DUP4 KECCAK256 SLOAD DUP5 DUP5 MSTORE DUP2 DUP5 KECCAK256 DUP2 SWAP1 SSTORE DUP4 MSTORE PUSH1 0x7 SWAP1 SWAP2 MSTORE SWAP1 KECCAK256 DUP2 SWAP1 SSTORE JUMPDEST POP PUSH1 0x0 SWAP2 DUP3 MSTORE PUSH1 0x7 PUSH1 0x20 SWAP1 DUP2 MSTORE PUSH1 0x40 DUP1 DUP5 KECCAK256 DUP5 SWAP1 SSTORE PUSH1 0x1 PUSH1 0x1 PUSH1 0xA0 SHL SUB SWAP1 SWAP5 AND DUP4 MSTORE PUSH1 0x6 DUP2 MSTORE DUP4 DUP4 KECCAK256 SWAP2 DUP4 MSTORE MSTORE SWAP1 DUP2 KECCAK256 SSTORE JUMP JUMPDEST PUSH1 0x8 SLOAD PUSH1 0x0 SWAP1 PUSH2 0x2A40 SWAP1 PUSH1 0x1 SWAP1 PUSH2 0x3725 JUMP JUMPDEST PUSH1 0x0 DUP4 DUP2 MSTORE PUSH1 0x9 PUSH1 0x20 MSTORE PUSH1 0x40 DUP2 KECCAK256 SLOAD PUSH1 0x8 DUP1 SLOAD SWAP4 SWAP5 POP SWAP1 SWAP3 DUP5 SWAP1 DUP2 LT PUSH2 0x2A68 JUMPI PUSH2 0x2A68 PUSH2 0x39B6 JUMP JUMPDEST SWAP1 PUSH1 0x0 MSTORE PUSH1 0x20 PUSH1 0x0 KECCAK256 ADD SLOAD SWAP1 POP DUP1 PUSH1 0x8 DUP4 DUP2 SLOAD DUP2 LT PUSH2 0x2A89 JUMPI PUSH2 0x2A89 PUSH2 0x39B6 JUMP JUMPDEST PUSH1 0x0 SWAP2 DUP3 MSTORE PUSH1 0x20 DUP1 DUP4 KECCAK256 SWAP1 SWAP2 ADD SWAP3 SWAP1 SWAP3 SSTORE DUP3 DUP2 MSTORE PUSH1 0x9 SWAP1 SWAP2 MSTORE PUSH1 0x40 DUP1 DUP3 KECCAK256 DUP5 SWAP1 SSTORE DUP6 DUP3 MSTORE DUP2 KECCAK256 SSTORE PUSH1 0x8 DUP1 SLOAD DUP1 PUSH2 0x2AC1 JUMPI PUSH2 0x2AC1 PUSH2 0x3B50 JUMP JUMPDEST PUSH1 0x1 SWAP1 SUB DUP2 DUP2 SWAP1 PUSH1 0x0 MSTORE PUSH1 0x20 PUSH1 0x0 KECCAK256 ADD PUSH1 0x0 SWAP1 SSTORE SWAP1 SSTORE POP POP POP POP JUMP JUMPDEST PUSH1 0x0 PUSH2 0x2AE8 DUP4 PUSH2 0x1661 JUMP JUMPDEST PUSH1 0x1 PUSH1 0x1 PUSH1 0xA0 SHL SUB SWAP1 SWAP4 AND PUSH1 0x0 SWAP1 DUP2 MSTORE PUSH1 0x6 PUSH1 0x20 SWAP1 DUP2 MSTORE PUSH1 0x40 DUP1 DUP4 KECCAK256 DUP7 DUP5 MSTORE DUP3 MSTORE DUP1 DUP4 KECCAK256 DUP6 SWAP1 SSTORE SWAP4 DUP3 MSTORE PUSH1 0x7 SWAP1 MSTORE SWAP2 SWAP1 SWAP2 KECCAK256 SWAP2 SWAP1 SWAP2 SSTORE POP JUMP JUMPDEST PUSH1 0x1 PUSH1 0x1 PUSH1 0xA0 SHL SUB DUP3 AND PUSH2 0x2B77 JUMPI PUSH1 0x40 MLOAD PUSH3 0x461BCD PUSH1 0xE5 SHL DUP2 MSTORE PUSH1 0x20 PUSH1 0x4 DUP3 ADD DUP2 SWAP1 MSTORE PUSH1 0x24 DUP3 ADD MSTORE PUSH32 0x4552433732313A206D696E7420746F20746865207A65726F2061646472657373 PUSH1 0x44 DUP3 ADD MSTORE PUSH1 0x64 ADD PUSH2 0xAE3 JUMP JUMPDEST PUSH1 0x0 DUP2 DUP2 MSTORE PUSH1 0x2 PUSH1 0x20 MSTORE PUSH1 0x40 SWAP1 KECCAK256 SLOAD PUSH1 0x1 PUSH1 0x1 PUSH1 0xA0 SHL SUB AND ISZERO PUSH2 0x2BDC JUMPI PUSH1 0x40 MLOAD PUSH3 0x461BCD PUSH1 0xE5 SHL DUP2 MSTORE PUSH1 0x20 PUSH1 0x4 DUP3 ADD MSTORE PUSH1 0x1C PUSH1 0x24 DUP3 ADD MSTORE PUSH32 0x4552433732313A20746F6B656E20616C7265616479206D696E74656400000000 PUSH1 0x44 DUP3 ADD MSTORE PUSH1 0x64 ADD PUSH2 0xAE3 JUMP JUMPDEST PUSH2 0x2BE8 PUSH1 0x0 DUP4 DUP4 PUSH2 0x27A5 JUMP JUMPDEST PUSH1 0x1 PUSH1 0x1 PUSH1 0xA0 SHL SUB DUP3 AND PUSH1 0x0 SWAP1 DUP2 MSTORE PUSH1 0x3 PUSH1 0x20 MSTORE PUSH1 0x40 DUP2 KECCAK256 DUP1 SLOAD PUSH1 0x1 SWAP3 SWAP1 PUSH2 0x2C11 SWAP1 DUP5 SWAP1 PUSH2 0x3824 JUMP JUMPDEST SWAP1 SWAP2 SSTORE POP POP PUSH1 0x0 DUP2 DUP2 MSTORE PUSH1 0x2 PUSH1 0x20 MSTORE PUSH1 0x40 DUP1 DUP3 KECCAK256 DUP1 SLOAD PUSH1 0x1 PUSH1 0x1 PUSH1 0xA0 SHL SUB NOT AND PUSH1 0x1 PUSH1 0x1 PUSH1 0xA0 SHL SUB DUP7 AND SWAP1 DUP2 OR SWAP1 SWAP2 SSTORE SWAP1 MLOAD DUP4 SWAP3 SWAP1 PUSH32 0xDDF252AD1BE2C89B69C2B068FC378DAA952BA7F163C4A11628F55A4DF523B3EF SWAP1 DUP3 SWAP1 LOG4 POP POP JUMP JUMPDEST PUSH1 0x1 PUSH1 0x1 PUSH1 0xE0 SHL SUB NOT DUP2 AND DUP2 EQ PUSH2 0x12D0 JUMPI PUSH1 0x0 DUP1 REVERT JUMPDEST PUSH1 0x0 PUSH1 0x20 DUP3 DUP5 SUB SLT ISZERO PUSH2 0x2C97 JUMPI PUSH1 0x0 DUP1 REVERT JUMPDEST DUP2 CALLDATALOAD PUSH2 0xB85 DUP2 PUSH2 0x2C6F JUMP JUMPDEST PUSH4 0x4E487B71 PUSH1 0xE0 SHL PUSH1 0x0 MSTORE PUSH1 0x41 PUSH1 0x4 MSTORE PUSH1 0x24 PUSH1 0x0 REVERT JUMPDEST PUSH1 0x0 PUSH8 0xFFFFFFFFFFFFFFFF DUP1 DUP5 GT ISZERO PUSH2 0x2CD3 JUMPI PUSH2 0x2CD3 PUSH2 0x2CA2 JUMP JUMPDEST PUSH1 0x40 MLOAD PUSH1 0x1F DUP6 ADD PUSH1 0x1F NOT SWAP1 DUP2 AND PUSH1 0x3F ADD AND DUP2 ADD SWAP1 DUP3 DUP3 GT DUP2 DUP4 LT OR ISZERO PUSH2 0x2CFB JUMPI PUSH2 0x2CFB PUSH2 0x2CA2 JUMP JUMPDEST DUP2 PUSH1 0x40 MSTORE DUP1 SWAP4 POP DUP6 DUP2 MSTORE DUP7 DUP7 DUP7 ADD GT ISZERO PUSH2 0x2D14 JUMPI PUSH1 0x0 DUP1 REVERT JUMPDEST DUP6 DUP6 PUSH1 0x20 DUP4 ADD CALLDATACOPY PUSH1 0x0 PUSH1 0x20 DUP8 DUP4 ADD ADD MSTORE POP POP POP SWAP4 SWAP3 POP POP POP JUMP JUMPDEST PUSH1 0x0 DUP3 PUSH1 0x1F DUP4 ADD SLT PUSH2 0x2D3F JUMPI PUSH1 0x0 DUP1 REVERT JUMPDEST PUSH2 0xB85 DUP4 DUP4 CALLDATALOAD PUSH1 0x20 DUP6 ADD PUSH2 0x2CB8 JUMP JUMPDEST PUSH1 0x0 DUP1 PUSH1 0x40 DUP4 DUP6 SUB SLT ISZERO PUSH2 0x2D61 JUMPI PUSH1 0x0 DUP1 REVERT JUMPDEST DUP3 CALLDATALOAD SWAP2 POP PUSH1 0x20 DUP4 ADD CALLDATALOAD PUSH8 0xFFFFFFFFFFFFFFFF DUP2 GT ISZERO PUSH2 0x2D7F JUMPI PUSH1 0x0 DUP1 REVERT JUMPDEST PUSH2 0x2D8B DUP6 DUP3 DUP7 ADD PUSH2 0x2D2E JUMP JUMPDEST SWAP2 POP POP SWAP3 POP SWAP3 SWAP1 POP JUMP JUMPDEST PUSH1 0x0 JUMPDEST DUP4 DUP2 LT ISZERO PUSH2 0x2DB0 JUMPI DUP2 DUP2 ADD MLOAD DUP4 DUP3 ADD MSTORE PUSH1 0x20 ADD PUSH2 0x2D98 JUMP JUMPDEST DUP4 DUP2 GT ISZERO PUSH2 0x10D2 JUMPI POP POP PUSH1 0x0 SWAP2 ADD MSTORE JUMP JUMPDEST PUSH1 0x0 DUP2 MLOAD DUP1 DUP5 MSTORE PUSH2 0x2DD9 DUP2 PUSH1 0x20 DUP7 ADD PUSH1 0x20 DUP7 ADD PUSH2 0x2D95 JUMP JUMPDEST PUSH1 0x1F ADD PUSH1 0x1F NOT AND SWAP3 SWAP1 SWAP3 ADD PUSH1 0x20 ADD SWAP3 SWAP2 POP POP JUMP JUMPDEST PUSH1 0x20 DUP2 MSTORE PUSH1 0x0 PUSH2 0xB85 PUSH1 0x20 DUP4 ADD DUP5 PUSH2 0x2DC1 JUMP JUMPDEST PUSH1 0x0 PUSH1 0x20 DUP3 DUP5 SUB SLT ISZERO PUSH2 0x2E12 JUMPI PUSH1 0x0 DUP1 REVERT JUMPDEST POP CALLDATALOAD SWAP2 SWAP1 POP JUMP JUMPDEST DUP1 CALLDATALOAD PUSH1 0x1 PUSH1 0x1 PUSH1 0xA0 SHL SUB DUP2 AND DUP2 EQ PUSH2 0x2E30 JUMPI PUSH1 0x0 DUP1 REVERT JUMPDEST SWAP2 SWAP1 POP JUMP JUMPDEST PUSH1 0x0 DUP1 PUSH1 0x40 DUP4 DUP6 SUB SLT ISZERO PUSH2 0x2E48 JUMPI PUSH1 0x0 DUP1 REVERT JUMPDEST PUSH2 0x2E51 DUP4 PUSH2 0x2E19 JUMP JUMPDEST SWAP5 PUSH1 0x20 SWAP4 SWAP1 SWAP4 ADD CALLDATALOAD SWAP4 POP POP POP JUMP JUMPDEST PUSH1 0x0 DUP1 PUSH1 0x0 PUSH1 0x60 DUP5 DUP7 SUB SLT ISZERO PUSH2 0x2E74 JUMPI PUSH1 0x0 DUP1 REVERT JUMPDEST PUSH2 0x2E7D DUP5 PUSH2 0x2E19 JUMP JUMPDEST SWAP3 POP PUSH2 0x2E8B PUSH1 0x20 DUP6 ADD PUSH2 0x2E19 JUMP JUMPDEST SWAP2 POP PUSH1 0x40 DUP5 ADD CALLDATALOAD SWAP1 POP SWAP3 POP SWAP3 POP SWAP3 JUMP JUMPDEST DUP1 CALLDATALOAD PUSH2 0xFFFF DUP2 AND DUP2 EQ PUSH2 0x2E30 JUMPI PUSH1 0x0 DUP1 REVERT JUMPDEST PUSH1 0x0 PUSH1 0x20 DUP3 DUP5 SUB SLT ISZERO PUSH2 0x2EBF JUMPI PUSH1 0x0 DUP1 REVERT JUMPDEST PUSH2 0xB85 DUP3 PUSH2 0x2E9B JUMP JUMPDEST PUSH1 0x0 PUSH1 0x20 DUP3 DUP5 SUB SLT ISZERO PUSH2 0x2EDA JUMPI PUSH1 0x0 DUP1 REVERT JUMPDEST PUSH2 0xB85 DUP3 PUSH2 0x2E19 JUMP JUMPDEST PUSH1 0x0 DUP1 PUSH1 0x0 DUP1 PUSH1 0x0 DUP1 PUSH1 0xC0 DUP8 DUP10 SUB SLT ISZERO PUSH2 0x2EFC JUMPI PUSH1 0x0 DUP1 REVERT JUMPDEST DUP7 CALLDATALOAD PUSH8 0xFFFFFFFFFFFFFFFF DUP2 GT ISZERO PUSH2 0x2F13 JUMPI PUSH1 0x0 DUP1 REVERT JUMPDEST PUSH2 0x2F1F DUP10 DUP3 DUP11 ADD PUSH2 0x2D2E JUMP JUMPDEST SWAP10 PUSH1 0x20 DUP10 ADD CALLDATALOAD SWAP10 POP PUSH1 0x40 DUP10 ADD CALLDATALOAD SWAP9 PUSH1 0x60 DUP2 ADD CALLDATALOAD SWAP9 POP PUSH1 0x80 DUP2 ADD CALLDATALOAD SWAP8 POP PUSH1 0xA0 ADD CALLDATALOAD SWAP6 POP SWAP4 POP POP POP POP JUMP JUMPDEST PUSH1 0x0 DUP1 PUSH1 0x40 DUP4 DUP6 SUB SLT ISZERO PUSH2 0x2F5B JUMPI PUSH1 0x0 DUP1 REVERT JUMPDEST DUP3 CALLDATALOAD SWAP2 POP PUSH2 0x2F6B PUSH1 0x20 DUP5 ADD PUSH2 0x2E9B JUMP JUMPDEST SWAP1 POP SWAP3 POP SWAP3 SWAP1 POP JUMP JUMPDEST PUSH1 0x0 DUP1 PUSH1 0x40 DUP4 DUP6 SUB SLT ISZERO PUSH2 0x2F87 JUMPI PUSH1 0x0 DUP1 REVERT JUMPDEST DUP3 CALLDATALOAD SWAP2 POP PUSH1 0x20 DUP4 ADD CALLDATALOAD PUSH5 0xFFFFFFFFFF DUP2 AND DUP2 EQ PUSH2 0x2FA3 JUMPI PUSH1 0x0 DUP1 REVERT JUMPDEST DUP1 SWAP2 POP POP SWAP3 POP SWAP3 SWAP1 POP JUMP JUMPDEST PUSH4 0x4E487B71 PUSH1 0xE0 SHL PUSH1 0x0 MSTORE PUSH1 0x21 PUSH1 0x4 MSTORE PUSH1 0x24 PUSH1 0x0 REVERT JUMPDEST PUSH1 0x4 DUP2 LT PUSH2 0x2FE2 JUMPI PUSH4 0x4E487B71 PUSH1 0xE0 SHL PUSH1 0x0 MSTORE PUSH1 0x21 PUSH1 0x4 MSTORE PUSH1 0x24 PUSH1 0x0 REVERT JUMPDEST SWAP1 MSTORE JUMP JUMPDEST PUSH1 0x0 PUSH2 0x100 DUP3 ADD SWAP1 POP PUSH1 0x1 PUSH1 0x1 PUSH1 0x80 SHL SUB DUP1 DUP5 MLOAD AND DUP4 MSTORE DUP1 PUSH1 0x20 DUP6 ADD MLOAD AND PUSH1 0x20 DUP5 ADD MSTORE DUP1 PUSH1 0x40 DUP6 ADD MLOAD AND PUSH1 0x40 DUP5 ADD MSTORE POP PUSH1 0x60 DUP4 ADD MLOAD PUSH2 0xFFFF DUP1 DUP3 AND PUSH1 0x60 DUP6 ADD MSTORE DUP1 PUSH1 0x80 DUP7 ADD MLOAD AND PUSH1 0x80 DUP6 ADD MSTORE POP POP PUSH1 0xA0 DUP4 ADD MLOAD PUSH2 0x304C PUSH1 0xA0 DUP5 ADD DUP3 PUSH5 0xFFFFFFFFFF AND SWAP1 MSTORE JUMP JUMPDEST POP PUSH1 0xC0 DUP4 ADD MLOAD PUSH2 0x3065 PUSH1 0xC0 DUP5 ADD DUP3 PUSH5 0xFFFFFFFFFF AND SWAP1 MSTORE JUMP JUMPDEST POP PUSH1 0xE0 DUP4 ADD MLOAD PUSH2 0x3078 PUSH1 0xE0 DUP5 ADD DUP3 PUSH2 0x2FC4 JUMP JUMPDEST POP SWAP3 SWAP2 POP POP JUMP JUMPDEST PUSH1 0x0 DUP1 PUSH1 0x40 DUP4 DUP6 SUB SLT ISZERO PUSH2 0x3092 JUMPI PUSH1 0x0 DUP1 REVERT JUMPDEST PUSH2 0x309B DUP4 PUSH2 0x2E19 JUMP JUMPDEST SWAP2 POP PUSH1 0x20 DUP4 ADD CALLDATALOAD DUP1 ISZERO ISZERO DUP2 EQ PUSH2 0x2FA3 JUMPI PUSH1 0x0 DUP1 REVERT JUMPDEST PUSH1 0x0 DUP1 PUSH1 0x0 DUP1 PUSH1 0x80 DUP6 DUP8 SUB SLT ISZERO PUSH2 0x30C6 JUMPI PUSH1 0x0 DUP1 REVERT JUMPDEST PUSH2 0x30CF DUP6 PUSH2 0x2E19 JUMP JUMPDEST SWAP4 POP PUSH2 0x30DD PUSH1 0x20 DUP7 ADD PUSH2 0x2E19 JUMP JUMPDEST SWAP3 POP PUSH1 0x40 DUP6 ADD CALLDATALOAD SWAP2 POP PUSH1 0x60 DUP6 ADD CALLDATALOAD PUSH8 0xFFFFFFFFFFFFFFFF DUP2 GT ISZERO PUSH2 0x3100 JUMPI PUSH1 0x0 DUP1 REVERT JUMPDEST DUP6 ADD PUSH1 0x1F DUP2 ADD DUP8 SGT PUSH2 0x3111 JUMPI PUSH1 0x0 DUP1 REVERT JUMPDEST PUSH2 0x3120 DUP8 DUP3 CALLDATALOAD PUSH1 0x20 DUP5 ADD PUSH2 0x2CB8 JUMP JUMPDEST SWAP2 POP POP SWAP3 SWAP6 SWAP2 SWAP5 POP SWAP3 POP JUMP JUMPDEST PUSH1 0x1 PUSH1 0x1 PUSH1 0x80 SHL SUB DUP10 DUP2 AND DUP3 MSTORE DUP9 DUP2 AND PUSH1 0x20 DUP4 ADD MSTORE DUP8 AND PUSH1 0x40 DUP3 ADD MSTORE PUSH2 0xFFFF DUP7 DUP2 AND PUSH1 0x60 DUP4 ADD MSTORE DUP6 AND PUSH1 0x80 DUP3 ADD MSTORE PUSH5 0xFFFFFFFFFF DUP5 DUP2 AND PUSH1 0xA0 DUP4 ADD MSTORE DUP4 AND PUSH1 0xC0 DUP3 ADD MSTORE PUSH2 0x100 DUP2 ADD PUSH2 0x3181 PUSH1 0xE0 DUP4 ADD DUP5 PUSH2 0x2FC4 JUMP JUMPDEST SWAP10 SWAP9 POP POP POP POP POP POP POP POP POP JUMP JUMPDEST PUSH1 0x0 PUSH2 0x140 DUP13 DUP4 MSTORE DUP12 PUSH1 0x20 DUP5 ADD MSTORE DUP11 PUSH1 0x40 DUP5 ADD MSTORE DUP10 PUSH1 0x60 DUP5 ADD MSTORE DUP9 PUSH1 0x80 DUP5 ADD MSTORE PUSH1 0x1 DUP1 PUSH1 0xA0 SHL SUB DUP9 AND PUSH1 0xA0 DUP5 ADD MSTORE DUP7 PUSH1 0xC0 DUP5 ADD MSTORE DUP6 PUSH1 0xE0 DUP5 ADD MSTORE DUP5 PUSH2 0x100 DUP5 ADD MSTORE DUP1 PUSH2 0x120 DUP5 ADD MSTORE PUSH2 0x31E2 DUP2 DUP5 ADD DUP6 PUSH2 0x2DC1 JUMP JUMPDEST SWAP14 SWAP13 POP POP POP POP POP POP POP POP POP POP POP POP POP JUMP JUMPDEST PUSH1 0x0 DUP1 PUSH1 0x40 DUP4 DUP6 SUB SLT ISZERO PUSH2 0x3206 JUMPI PUSH1 0x0 DUP1 REVERT JUMPDEST PUSH2 0x320F DUP4 PUSH2 0x2E19 JUMP JUMPDEST SWAP2 POP PUSH2 0x2F6B PUSH1 0x20 DUP5 ADD PUSH2 0x2E19 JUMP JUMPDEST PUSH1 0x0 DUP2 MLOAD PUSH2 0x322F DUP2 DUP6 PUSH1 0x20 DUP7 ADD PUSH2 0x2D95 JUMP JUMPDEST SWAP3 SWAP1 SWAP3 ADD SWAP3 SWAP2 POP POP JUMP JUMPDEST PUSH32 0x7B226465736372697074696F6E223A202257697A61726441726D792200000000 DUP2 MSTORE PUSH32 0x2C202265787465726E616C5F75726C223A202268747470733A2F2F77697A6172 PUSH1 0x1C DUP3 ADD MSTORE PUSH32 0x6461726D794E46542E636F6D20286F7220736F6D657468696E67206C696B6520 PUSH1 0x3C DUP3 ADD MSTORE PUSH6 0x3A3434B99491 PUSH1 0xD1 SHL PUSH1 0x5C DUP3 ADD MSTORE PUSH12 0x16101134B6B0B3B2911D1011 PUSH1 0xA1 SHL PUSH1 0x62 DUP3 ADD MSTORE DUP3 MLOAD PUSH1 0x0 SWAP1 PUSH2 0x32E2 DUP2 PUSH1 0x6E DUP6 ADD PUSH1 0x20 DUP9 ADD PUSH2 0x2D95 JUMP JUMPDEST PUSH1 0x11 PUSH1 0xF9 SHL PUSH1 0x6E SWAP2 DUP5 ADD SWAP2 DUP3 ADD MSTORE PUSH18 0x1610113730B6B2911D10112BB4BD30B93211 PUSH1 0x71 SHL PUSH1 0x6F DUP3 ADD MSTORE PUSH32 0x2C202261747472696275746573223A205B7B22646973706C61795F7479706522 PUSH1 0x81 DUP3 ADD MSTORE PUSH32 0x3A20226E756D626572222C202274726169745F74797065223A20226C6576656C PUSH1 0xA1 DUP3 ADD MSTORE PUSH12 0x111610113B30B63AB2911D1 PUSH1 0xA5 SHL PUSH1 0xC1 DUP3 ADD MSTORE PUSH2 0x338A PUSH2 0x337C PUSH1 0xCD DUP4 ADD DUP7 PUSH2 0x321D JUMP JUMPDEST PUSH2 0x207D PUSH1 0xF0 SHL DUP2 MSTORE PUSH1 0x2 ADD SWAP1 JUMP JUMPDEST SWAP6 SWAP5 POP POP POP POP POP JUMP JUMPDEST PUSH1 0x0 DUP6 MLOAD PUSH2 0x33A5 DUP2 DUP5 PUSH1 0x20 DUP11 ADD PUSH2 0x2D95 JUMP JUMPDEST DUP1 DUP4 ADD SWAP1 POP PUSH32 0x2C207B22646973706C61795F74797065223A20226E756D626572222C20227472 DUP1 DUP3 MSTORE PUSH32 0x6169745F74797065223A20226870222C202276616C7565223A20000000000000 PUSH1 0x20 DUP4 ADD MSTORE DUP7 MLOAD PUSH2 0x3407 DUP2 PUSH1 0x3A DUP6 ADD PUSH1 0x20 DUP12 ADD PUSH2 0x2D95 JUMP JUMPDEST PUSH2 0x207D PUSH1 0xF0 SHL PUSH1 0x3A SWAP4 SWAP1 SWAP2 ADD SWAP3 DUP4 ADD DUP2 SWAP1 MSTORE PUSH1 0x3C DUP4 ADD DUP3 SWAP1 MSTORE PUSH32 0x6169745F74797065223A20226D61676963616C20706F776572222C202276616C PUSH1 0x5C DUP5 ADD MSTORE PUSH5 0x3AB2911D1 PUSH1 0xDD SHL PUSH1 0x7C DUP5 ADD MSTORE DUP7 MLOAD PUSH2 0x3467 DUP2 PUSH1 0x81 DUP7 ADD PUSH1 0x20 DUP12 ADD PUSH2 0x2D95 JUMP JUMPDEST PUSH1 0x81 SWAP4 ADD SWAP3 DUP4 ADD MSTORE PUSH1 0x83 DUP3 ADD MSTORE PUSH32 0x6169745F74797065223A20226D61676963616C20646566656E7365222C202276 PUSH1 0xA3 DUP3 ADD MSTORE PUSH7 0x30B63AB2911D1 PUSH1 0xCD SHL PUSH1 0xC3 DUP3 ADD MSTORE PUSH2 0x34BA PUSH2 0x337C PUSH1 0xCA DUP4 ADD DUP7 PUSH2 0x321D JUMP JUMPDEST SWAP8 SWAP7 POP POP POP POP POP POP POP JUMP JUMPDEST PUSH1 0x0 DUP5 MLOAD PUSH2 0x34D7 DUP2 DUP5 PUSH1 0x20 DUP10 ADD PUSH2 0x2D95 JUMP JUMPDEST DUP1 DUP4 ADD SWAP1 POP PUSH32 0x2C207B22646973706C61795F74797065223A20226E756D626572222C20227472 DUP1 DUP3 MSTORE PUSH32 0x6169745F74797065223A20227370656564222C202276616C7565223A20000000 PUSH1 0x20 DUP4 ADD MSTORE DUP6 MLOAD PUSH2 0x3539 DUP2 PUSH1 0x3D DUP6 ADD PUSH1 0x20 DUP11 ADD PUSH2 0x2D95 JUMP JUMPDEST DUP1 DUP4 ADD SWAP3 POP POP PUSH2 0x207D PUSH1 0xF0 SHL DUP1 PUSH1 0x3D DUP5 ADD MSTORE DUP2 PUSH1 0x3F DUP5 ADD MSTORE PUSH32 0x6169745F74797065223A202277696E73222C202276616C7565223A2000000000 PUSH1 0x5F DUP5 ADD MSTORE DUP6 MLOAD SWAP2 POP PUSH2 0x358C DUP3 PUSH1 0x7B DUP6 ADD PUSH1 0x20 DUP10 ADD PUSH2 0x2D95 JUMP JUMPDEST PUSH1 0x7B SWAP3 SWAP1 SWAP2 ADD SWAP2 DUP3 ADD MSTORE PUSH1 0x7D ADD SWAP6 SWAP5 POP POP POP POP POP JUMP JUMPDEST PUSH1 0x0 DUP6 MLOAD PUSH2 0x35B4 DUP2 DUP5 PUSH1 0x20 DUP11 ADD PUSH2 0x2D95 JUMP JUMPDEST DUP1 DUP4 ADD SWAP1 POP PUSH32 0x2C207B22646973706C61795F74797065223A20226E756D626572222C20227472 DUP1 DUP3 MSTORE PUSH32 0x6169745F74797065223A20226C6F73736573222C202276616C7565223A200000 PUSH1 0x20 DUP4 ADD MSTORE DUP7 MLOAD PUSH2 0x3616 DUP2 PUSH1 0x3E DUP6 ADD PUSH1 0x20 DUP12 ADD PUSH2 0x2D95 JUMP JUMPDEST DUP1 DUP4 ADD SWAP3 POP POP PUSH2 0x207D PUSH1 0xF0 SHL DUP1 PUSH1 0x3E DUP5 ADD MSTORE DUP2 PUSH1 0x40 DUP5 ADD MSTORE PUSH32 0x6169745F74797065223A2022626174746C6573222C202276616C7565223A2000 PUSH1 0x60 DUP5 ADD MSTORE DUP7 MLOAD PUSH2 0x3667 DUP2 PUSH1 0x7F DUP7 ADD PUSH1 0x20 DUP12 ADD PUSH2 0x2D95 JUMP JUMPDEST PUSH1 0x7F SWAP4 ADD SWAP3 DUP4 ADD MSTORE PUSH1 0x81 DUP3 ADD MSTORE PUSH32 0x6169745F74797065223A2022746F6B656E73436C61696D6564222C202276616C PUSH1 0xA1 DUP3 ADD MSTORE PUSH5 0x3AB2911D1 PUSH1 0xDD SHL PUSH1 0xC1 DUP3 ADD MSTORE PUSH2 0x34BA PUSH2 0x337C PUSH1 0xC6 DUP4 ADD DUP7 PUSH2 0x321D JUMP JUMPDEST PUSH1 0x0 DUP3 MLOAD PUSH2 0x36CA DUP2 DUP5 PUSH1 0x20 DUP8 ADD PUSH2 0x2D95 JUMP JUMPDEST PUSH1 0x5D PUSH1 0xF8 SHL SWAP3 ADD SWAP2 DUP3 MSTORE POP PUSH1 0x7D PUSH1 0xF8 SHL PUSH1 0x1 DUP3 ADD MSTORE PUSH1 0x2 ADD SWAP2 SWAP1 POP JUMP JUMPDEST PUSH1 0x20 DUP1 DUP3 MSTORE PUSH1 0xE SWAP1 DUP3 ADD MSTORE PUSH14 0x1A5B9D985B1A59081DDA5E985C99 PUSH1 0x92 SHL PUSH1 0x40 DUP3 ADD MSTORE PUSH1 0x60 ADD SWAP1 JUMP JUMPDEST PUSH4 0x4E487B71 PUSH1 0xE0 SHL PUSH1 0x0 MSTORE PUSH1 0x11 PUSH1 0x4 MSTORE PUSH1 0x24 PUSH1 0x0 REVERT JUMPDEST PUSH1 0x0 DUP3 DUP3 LT ISZERO PUSH2 0x3737 JUMPI PUSH2 0x3737 PUSH2 0x370F JUMP JUMPDEST POP SUB SWAP1 JUMP JUMPDEST PUSH4 0x4E487B71 PUSH1 0xE0 SHL PUSH1 0x0 MSTORE PUSH1 0x12 PUSH1 0x4 MSTORE PUSH1 0x24 PUSH1 0x0 REVERT JUMPDEST PUSH1 0x0 DUP3 PUSH2 0x3761 JUMPI PUSH2 0x3761 PUSH2 0x373C JUMP JUMPDEST POP DIV SWAP1 JUMP JUMPDEST PUSH1 0x1 DUP2 DUP2 SHR SWAP1 DUP3 AND DUP1 PUSH2 0x377A JUMPI PUSH1 0x7F DUP3 AND SWAP2 POP JUMPDEST PUSH1 0x20 DUP3 LT DUP2 SUB PUSH2 0x379A JUMPI PUSH4 0x4E487B71 PUSH1 0xE0 SHL PUSH1 0x0 MSTORE PUSH1 0x22 PUSH1 0x4 MSTORE PUSH1 0x24 PUSH1 0x0 REVERT JUMPDEST POP SWAP2 SWAP1 POP JUMP JUMPDEST PUSH1 0x20 DUP1 DUP3 MSTORE PUSH1 0x31 SWAP1 DUP3 ADD MSTORE PUSH32 0x4552433732313A207472616E736665722063616C6C6572206973206E6F74206F PUSH1 0x40 DUP3 ADD MSTORE PUSH17 0x1DDB995C881B9BDC88185C1C1C9BDD9959 PUSH1 0x7A SHL PUSH1 0x60 DUP3 ADD MSTORE PUSH1 0x80 ADD SWAP1 JUMP JUMPDEST PUSH1 0x0 DUP2 PUSH1 0x0 NOT DIV DUP4 GT DUP3 ISZERO ISZERO AND ISZERO PUSH2 0x380B JUMPI PUSH2 0x380B PUSH2 0x370F JUMP JUMPDEST POP MUL SWAP1 JUMP JUMPDEST PUSH1 0x0 DUP3 PUSH2 0x381F JUMPI PUSH2 0x381F PUSH2 0x373C JUMP JUMPDEST POP MOD SWAP1 JUMP JUMPDEST PUSH1 0x0 DUP3 NOT DUP3 GT ISZERO PUSH2 0x3837 JUMPI PUSH2 0x3837 PUSH2 0x370F JUMP JUMPDEST POP ADD SWAP1 JUMP JUMPDEST PUSH1 0x20 DUP1 DUP3 MSTORE DUP2 DUP2 ADD MSTORE PUSH32 0x4F776E61626C653A2063616C6C6572206973206E6F7420746865206F776E6572 PUSH1 0x40 DUP3 ADD MSTORE PUSH1 0x60 ADD SWAP1 JUMP JUMPDEST PUSH1 0x20 DUP1 DUP3 MSTORE PUSH1 0x18 SWAP1 DUP3 ADD MSTORE PUSH32 0x496E76616C6964206F70657261746F7220616464726573730000000000000000 PUSH1 0x40 DUP3 ADD MSTORE PUSH1 0x60 ADD SWAP1 JUMP JUMPDEST PUSH1 0x1F DUP3 GT ISZERO PUSH2 0xDC3 JUMPI PUSH1 0x0 DUP2 DUP2 MSTORE PUSH1 0x20 DUP2 KECCAK256 PUSH1 0x1F DUP6 ADD PUSH1 0x5 SHR DUP2 ADD PUSH1 0x20 DUP7 LT ISZERO PUSH2 0x38CF JUMPI POP DUP1 JUMPDEST PUSH1 0x1F DUP6 ADD PUSH1 0x5 SHR DUP3 ADD SWAP2 POP JUMPDEST DUP2 DUP2 LT ISZERO PUSH2 0x38EE JUMPI DUP3 DUP2 SSTORE PUSH1 0x1 ADD PUSH2 0x38DB JUMP JUMPDEST POP POP POP POP POP POP JUMP JUMPDEST DUP2 MLOAD PUSH8 0xFFFFFFFFFFFFFFFF DUP2 GT ISZERO PUSH2 0x3910 JUMPI PUSH2 0x3910 PUSH2 0x2CA2 JUMP JUMPDEST PUSH2 0x3924 DUP2 PUSH2 0x391E DUP5 SLOAD PUSH2 0x3766 JUMP JUMPDEST DUP5 PUSH2 0x38A8 JUMP JUMPDEST PUSH1 0x20 DUP1 PUSH1 0x1F DUP4 GT PUSH1 0x1 DUP2 EQ PUSH2 0x3959 JUMPI PUSH1 0x0 DUP5 ISZERO PUSH2 0x3941 JUMPI POP DUP6 DUP4 ADD MLOAD JUMPDEST PUSH1 0x0 NOT PUSH1 0x3 DUP7 SWAP1 SHL SHR NOT AND PUSH1 0x1 DUP6 SWAP1 SHL OR DUP6 SSTORE PUSH2 0x38EE JUMP JUMPDEST PUSH1 0x0 DUP6 DUP2 MSTORE PUSH1 0x20 DUP2 KECCAK256 PUSH1 0x1F NOT DUP7 AND SWAP2 JUMPDEST DUP3 DUP2 LT ISZERO PUSH2 0x3988 JUMPI DUP9 DUP7 ADD MLOAD DUP3 SSTORE SWAP5 DUP5 ADD SWAP5 PUSH1 0x1 SWAP1 SWAP2 ADD SWAP1 DUP5 ADD PUSH2 0x3969 JUMP JUMPDEST POP DUP6 DUP3 LT ISZERO PUSH2 0x39A6 JUMPI DUP8 DUP6 ADD MLOAD PUSH1 0x0 NOT PUSH1 0x3 DUP9 SWAP1 SHL PUSH1 0xF8 AND SHR NOT AND DUP2 SSTORE JUMPDEST POP POP POP POP POP PUSH1 0x1 SWAP1 DUP2 SHL ADD SWAP1 SSTORE POP JUMP JUMPDEST PUSH4 0x4E487B71 PUSH1 0xE0 SHL PUSH1 0x0 MSTORE PUSH1 0x32 PUSH1 0x4 MSTORE PUSH1 0x24 PUSH1 0x0 REVERT JUMPDEST PUSH1 0x0 PUSH5 0xFFFFFFFFFF DUP1 DUP4 AND DUP2 DUP6 AND DUP1 DUP4 SUB DUP3 GT ISZERO PUSH2 0x39EC JUMPI PUSH2 0x39EC PUSH2 0x370F JUMP JUMPDEST ADD SWAP5 SWAP4 POP POP POP POP JUMP JUMPDEST PUSH1 0x0 DUP1 DUP5 SLOAD PUSH2 0x3A03 DUP2 PUSH2 0x3766 JUMP JUMPDEST PUSH1 0x1 DUP3 DUP2 AND DUP1 ISZERO PUSH2 0x3A1B JUMPI PUSH1 0x1 DUP2 EQ PUSH2 0x3A30 JUMPI PUSH2 0x3A5F JUMP JUMPDEST PUSH1 0xFF NOT DUP5 AND DUP8 MSTORE DUP3 ISZERO ISZERO DUP4 MUL DUP8 ADD SWAP5 POP PUSH2 0x3A5F JUMP JUMPDEST DUP9 PUSH1 0x0 MSTORE PUSH1 0x20 DUP1 PUSH1 0x0 KECCAK256 PUSH1 0x0 JUMPDEST DUP6 DUP2 LT ISZERO PUSH2 0x3A56 JUMPI DUP2 SLOAD DUP11 DUP3 ADD MSTORE SWAP1 DUP5 ADD SWAP1 DUP3 ADD PUSH2 0x3A3D JUMP JUMPDEST POP POP POP DUP3 DUP8 ADD SWAP5 POP JUMPDEST POP POP POP POP DUP4 MLOAD PUSH2 0x3A73 DUP2 DUP4 PUSH1 0x20 DUP9 ADD PUSH2 0x2D95 JUMP JUMPDEST PUSH4 0x2E6A7067 PUSH1 0xE0 SHL SWAP2 ADD SWAP1 DUP2 MSTORE PUSH1 0x4 ADD SWAP5 SWAP4 POP POP POP POP JUMP JUMPDEST PUSH1 0x0 PUSH1 0x1 DUP3 ADD PUSH2 0x3A9D JUMPI PUSH2 0x3A9D PUSH2 0x370F JUMP JUMPDEST POP PUSH1 0x1 ADD SWAP1 JUMP JUMPDEST PUSH1 0x20 DUP1 DUP3 MSTORE PUSH1 0x32 SWAP1 DUP3 ADD MSTORE PUSH32 0x4552433732313A207472616E7366657220746F206E6F6E204552433732315265 PUSH1 0x40 DUP3 ADD MSTORE PUSH18 0x31B2B4BB32B91034B6B83632B6B2B73A32B9 PUSH1 0x71 SHL PUSH1 0x60 DUP3 ADD MSTORE PUSH1 0x80 ADD SWAP1 JUMP JUMPDEST PUSH1 0x1 PUSH1 0x1 PUSH1 0xA0 SHL SUB DUP6 DUP2 AND DUP3 MSTORE DUP5 AND PUSH1 0x20 DUP3 ADD MSTORE PUSH1 0x40 DUP2 ADD DUP4 SWAP1 MSTORE PUSH1 0x80 PUSH1 0x60 DUP3 ADD DUP2 SWAP1 MSTORE PUSH1 0x0 SWAP1 PUSH2 0x3B29 SWAP1 DUP4 ADD DUP5 PUSH2 0x2DC1 JUMP JUMPDEST SWAP7 SWAP6 POP POP POP POP POP POP JUMP JUMPDEST PUSH1 0x0 PUSH1 0x20 DUP3 DUP5 SUB SLT ISZERO PUSH2 0x3B45 JUMPI PUSH1 0x0 DUP1 REVERT JUMPDEST DUP2 MLOAD PUSH2 0xB85 DUP2 PUSH2 0x2C6F JUMP JUMPDEST PUSH4 0x4E487B71 PUSH1 0xE0 SHL PUSH1 0x0 MSTORE PUSH1 0x31 PUSH1 0x4 MSTORE PUSH1 0x24 PUSH1 0x0 REVERT INVALID LOG2 PUSH5 0x6970667358 0x22 SLT KECCAK256 ADDRESS GT SWAP1 PUSH5 0x6A6451BF4 MLOAD PUSH12 0x28C804222EB1D1895F46F5A9 0xA5 NOT 0xCE GASLIMIT DIFFICULTY RETURNDATACOPY 0xE4 EXTCODECOPY SWAP2 PUSH5 0x736F6C6343 STOP ADDMOD 0xF STOP CALLER ",
  "sha1": "b6f6373405c3a9afd9d5cb323907ce2f847b3a93",
  "source": "// SPDX-License-Identifier: MIT\npragma solidity 0.8.15;\n\n//import \"./helpers/ERC721.sol\";\nimport \"./helpers/Ownable.sol\";\nimport \"./helpers/ERC721Enumerable.sol\";\nimport \"./libraries/Strings.sol\";\n\n//import \"OpenZeppelin/openzeppelin-contracts@4.6.0/contracts/token/ERC721/ERC721.sol\";\n//import \"estarriolvetch/ERC721Psi/contracts/ERC721Psi.sol\";\n\ncontract Wizards is ERC721Enumerable, Ownable {\n    mapping (uint256 => Stats) public tokenIdToStats;\n    address public verifier; /// contract address to update stats\n    address public culler; /// contract address to exile any wizard\n    address public appointer; /// contract address to assign roles\n\n    enum ELEMENT {FIRE, WIND, WATER, EARTH}\n\n    // note -- stack gets too deep if add more\n    struct Stats { // todo -- reduce uint amount\n        uint128 level;\n        uint128 tokensClaimed; // maybe\n        uint128 contributionKarma; // maybe\n        uint16 role; // limit wizards to 1 role, which is a number\n        uint16 uplineId;  // 0 is default, 65k max?\n        uint40 initiationTimestamp; // 0 if uninitiated\n        uint40 protectedUntilTimestamp; // after this timestamp, NFT can be crushed\n        ELEMENT element;\n    }\n\n    struct ContractSettings { // todo refine, update setter\n        uint256 mintCost;\n        uint256 initiationCost;\n        // cull the herd and reduce to 1000... 400, and so forth? total or per role?\n        uint256 maxSupply;\n        uint256 protectionTimeExtension;\n        uint256 exileTimePenalty;\n        address ecosystemTokenAddress;\n        uint256 phaseDuration;\n        uint256 totalPhases;\n        uint256 maturityThreshold; // phase in which wizard can enter Wizard Tower\n        string imageBaseURI;\n    }\n\n    ContractSettings public contractSettings;\n    // 8 images????\n\n    // 8 phases, must initiate first\n\n    event NewVerifier(address verifier);\n    event NewCuller(address culler);\n    event NewAppointer(address appointer);\n    event Initiated(address initiater, uint256 indexed wizardId, uint256 timestamp);\n    event Exiled(address exilee, uint256 indexed wizardId, uint256 timestamp);\n\n\n    ///////\n\n    ////////////////////\n    ////    Get       //\n    ////////////////////\n\n    /** @dev Check if wizard is active\n      * @param _wizardId id of wizard.\n      * @return true if active, false if inactive\n      */\n    function isActive(uint256 _wizardId) public view returns(bool) {\n        require(_wizardId!=0 && _wizardId <= totalSupply(), \"invalid wizard\");\n        return tokenIdToStats[_wizardId].protectedUntilTimestamp > block.timestamp;\n    }\n\n\n    /** @dev check if wizard has been exiled (temporarily banished)\n      * @param _wizardId id of wizard.\n      * @return true -> exiled; false -> not exiled\n      */\n    function isExiled(uint256 _wizardId) public view returns(bool) {\n        require(_wizardId!=0 && _wizardId <= totalSupply(), \"invalid wizard\");\n        return tokenIdToStats[_wizardId].protectedUntilTimestamp != 0 && tokenIdToStats[_wizardId].initiationTimestamp ==0;\n    }\n\n    /** @dev check if wizard has deserted and thus can be exiled\n      * @param _wizardId id of wizard.\n      * @return true -> deserted; false -> has not deserted\n      */\n    function hasDeserted(uint256 _wizardId) public view returns(bool) {\n        require(_wizardId!=0 && _wizardId <= totalSupply(), \"invalid wizard\");\n        return tokenIdToStats[_wizardId].protectedUntilTimestamp < block.timestamp && tokenIdToStats[_wizardId].initiationTimestamp ==0;\n    }\n\n\n    /** @dev Check if wizard is active\n      * @param _wizardId id of wizard.\n      * @return true if active, false if inactive\n      */\n    function isMature(uint256 _wizardId) public view returns(bool) {\n        require(_wizardId!=0 && _wizardId <= totalSupply(), \"invalid wizard\");\n        return getPhaseOf(_wizardId) >= contractSettings.maturityThreshold;\n    }\n\n\n    /** @dev Check if wizard is active\n      * @param _wizardId id of wizard.\n      * @return wizardId of upline\n      */\n    function getUplineId(uint256 _wizardId) public view returns(uint256) {\n        require(_wizardId!=0 && _wizardId <= totalSupply(), \"invalid wizard\");\n        return tokenIdToStats[_wizardId].uplineId;\n    }\n\n    function getRole(uint256 _wizardId) public view returns(uint256) {\n        require(_wizardId!=0 && _wizardId <= totalSupply(), \"invalid wizard\");\n        return tokenIdToStats[_wizardId].role;\n    }\n\n\n    /** @dev returns stats of wizard, potentially amplified by level or phase\n      * @param _wizardId id of wizard.\n      * @return stats\n      */\n    function getStatsGivenId(uint256 _wizardId) external view returns(Stats memory) {\n        require(_wizardId!=0 && _wizardId <= totalSupply(), \"invalid wizard\");\n        return tokenIdToStats[_wizardId];\n    }\n\n\n    /** @dev Returns phase of wizard\n      * @param _wizardId id of wizard.\n      * @return number representing phase\n      */\n    function getPhaseOf(uint256 _wizardId) public view returns(uint256) {\n        require(_wizardId!=0 && _wizardId <= totalSupply(), \"invalid wizard\");\n        uint256 phase =\n          (block.timestamp - tokenIdToStats[_wizardId].initiationTimestamp) / contractSettings.phaseDuration\n          > (contractSettings.totalPhases - 1) ? (contractSettings.totalPhases - 1) : (block.timestamp - tokenIdToStats[_wizardId].initiationTimestamp) / contractSettings.phaseDuration\n          ;\n        return phase;\n    }\n\n\n    ///////////////////////////\n    ////// Core Functions /////\n    ///////////////////////////\n    /** @dev initiate Wizards NFT\n      * @param _name name of NFT\n      * @param _symbol symbol for NFT\n      * @param _ERC20Address address for ecosystem token (currency)\n      * @param _imageBaseURI base URI used for images\n      */\n    constructor(string memory _name, string memory _symbol, address _ERC20Address, string memory _imageBaseURI) ERC721(_name, _symbol) {\n        contractSettings.maxSupply = 10000;\n        contractSettings.initiationCost = 1;\n        contractSettings.mintCost = 5; // todo -- do in less steps\n        contractSettings.protectionTimeExtension = 1 days; // todo -- do in less steps\n        contractSettings.ecosystemTokenAddress = _ERC20Address; // todo -- do in less steps\n        contractSettings.phaseDuration = 60*60;// todo --\n        contractSettings.imageBaseURI = _imageBaseURI;// todo --\n        contractSettings.totalPhases = 8;\n        contractSettings.maturityThreshold = 0; // todo make it 5?\n\n        verifier = msg.sender;\n        culler = msg.sender;\n        appointer = msg.sender;\n\n    }\n\n\n    /** @dev check if wizard has deserted and thus can be exiled\n      * @param _uplineId id of referring wizard. use 0 if no referral\n      */\n    function mint(uint16 _uplineId) external {\n        require(totalSupply() < contractSettings.maxSupply, \"at max supply.\");\n        require(_uplineId <= totalSupply(), \"invalid upline--must be less than total supply\");\n\n        uint256 pseudoRandNum = uint256(keccak256(abi.encodePacked(totalSupply(), msg.sender, block.timestamp)));\n        ELEMENT element = ELEMENT((pseudoRandNum/10*6) % 4);\n\n        Stats memory myStats =  Stats(1, 0, 0, 0, _uplineId, 0, 0, element);\n        tokenIdToStats[totalSupply()+1] = myStats;\n        _safeMint(msg.sender, totalSupply()+1 ); // with with 1 as id\n    }\n\n\n    /** @dev Changes NFT from uninitated or exiled to initiated\n      * @param _wizardId id of wizard.\n      */\n    function initiate(uint256 _wizardId) external payable {\n        require(ownerOf(_wizardId) == msg.sender, \"must be owner\");\n        require(tokenIdToStats[_wizardId].initiationTimestamp == 0, \"already initiated\");\n        require(tokenIdToStats[_wizardId].protectedUntilTimestamp + contractSettings.exileTimePenalty <  block.timestamp, \"Exiled wizard not yet allowed to return.\");\n        // todo -- receive fee\n\n        require(msg.value == contractSettings.initiationCost, \"incorrect initiaton fee\");\n\n        Stats storage myStats = tokenIdToStats[_wizardId];\n        myStats.initiationTimestamp = uint40(block.timestamp);\n        myStats.protectedUntilTimestamp = uint40(block.timestamp + contractSettings.protectionTimeExtension);\n\n        emit Initiated(msg.sender, _wizardId, block.timestamp);\n    }\n\n\n    /** @dev exile an NFT that is negligent in duties. Use only for culling.\n      * @param _wizardId id of wizard.\n      */\n    function cull(uint256 _wizardId) external onlyCuller {\n        _exile(_wizardId);\n    }\n\n    /** @dev exile an NFT that is negligent in duties. Any address can call this, but wizard must have deserted\n      * @param _wizardId id of wizard.\n      */\n    function exile(uint256 _wizardId) external {\n        require(hasDeserted(_wizardId), \"wizard can not be exiled.\");\n        _exile(_wizardId);\n    }\n\n    /** @dev exile an NFT that is negligent in duties. Never called by address directly, only by cull or exile\n      * @param _wizardId id of wizard.\n      */\n    function _exile(uint256 _wizardId) internal {\n        require(_wizardId!=0 && _wizardId <= totalSupply(), \"invalid id\"); // todo -- potentially restrict this further\n        tokenIdToStats[_wizardId].protectedUntilTimestamp = uint40(block.timestamp); // this saves the time of exile started\n        tokenIdToStats[_wizardId].initiationTimestamp = 0;\n    }\n\n\n\n//    • Uninitiated\n//    • Exiled\n//      Inactive\n//    • \"Egg\"\n//    • Wizard -> Can join wizard tower\n\n    // todo -- consider adding elements to all images\n    /** @dev get token URI\n      * @param _wizardId id of wizard.\n      * @return returns inline URI as string\n      */\n    function tokenURI(uint256 _wizardId) public view virtual override returns (string memory) {\n        require(_exists(_wizardId), \"ERC721Metadata: URI query for nonexistent token\");\n        // todo -- update image\n        string memory linkExtension;\n        if(tokenIdToStats[_wizardId].initiationTimestamp==0){ // uninitiated\n            linkExtension = \"uninitiated\"; // todo -- shameful uninitiated picture\n        }\n        else if(isExiled(_wizardId)){ // exiled\n            linkExtension = \"exiled\"; // todo -- shameful banished/exiled picture\n        }\n        else if(!isActive(_wizardId)){ // not protected\n            linkExtension = \"inactive\"; // todo -- shameful, sleeping picture\n        }\n        else{ // todo -- this didn't use getPhaseOf\n            linkExtension = Strings.toString(getPhaseOf(_wizardId));\n        }\n        string memory imageURI = string(abi.encodePacked(contractSettings.imageBaseURI, linkExtension, '.jpg'));\n        return formatTokenURI(_wizardId, imageURI);\n    }\n\n    /** @dev format URI based on image and _wizardId\n      * @param _wizardId id of wizard.\n      * @param imageURI inline SVG string.\n      * @return returns inline URI as string\n      */\n    function formatTokenURI(uint256 _wizardId, string memory imageURI) public view returns (string memory) {\n        Stats memory myStats = tokenIdToStats[_wizardId];\n\n        string memory json_str = string(abi.encodePacked(\n            '{\"description\": \"WizardArmy\"',\n            ', \"external_url\": \"https://wizardarmyNFT.com (or something like this)\"',\n            ', \"image\": \"',\n             imageURI, '\"',\n            ', \"name\": \"Wizard\"',\n            // attributes\n            ', \"attributes\": [{\"display_type\": \"number\", \"trait_type\": \"level\", \"value\": ',\n            Strings.toString(myStats.level), ' }'\n        ));\n\n        // use this format to add extra properties\n        json_str = string(abi.encodePacked(json_str,\n            ', {\"display_type\": \"number\", \"trait_type\": \"hp\", \"value\": ',\n            Strings.toString(999),   ' }',\n            ', {\"display_type\": \"number\", \"trait_type\": \"magical power\", \"value\": ',\n            Strings.toString(999),   ' }',\n                ', {\"display_type\": \"number\", \"trait_type\": \"magical defense\", \"value\": ',\n            Strings.toString(9999),   ' }'\n        ));\n\n        // use this format to add extra properties\n        json_str = string(abi.encodePacked(json_str,\n            ', {\"display_type\": \"number\", \"trait_type\": \"speed\", \"value\": ',\n            Strings.toString(999),   ' }',\n            ', {\"display_type\": \"number\", \"trait_type\": \"wins\", \"value\": ',\n            Strings.toString(999),   ' }'\n        ));\n\n\n        // use this format to add extra properties\n        json_str = string(abi.encodePacked(json_str,\n            ', {\"display_type\": \"number\", \"trait_type\": \"losses\", \"value\": ',\n            Strings.toString(999),   ' }',\n            ', {\"display_type\": \"number\", \"trait_type\": \"battles\", \"value\": ',\n            Strings.toString(999),   ' }',\n                ', {\"display_type\": \"number\", \"trait_type\": \"tokensClaimed\", \"value\": ',\n            Strings.toString(myStats.tokensClaimed),   ' }'\n        ));\n\n        // end string\n        json_str = string(abi.encodePacked(json_str, ']','}'));\n\n//        string memory json_str = string(abi.encodePacked(\n//            '{\"description\": \"WizardArmy\"',\n//            ', \"external_url\": \"https://wizardarmyNFT.com (or something like this)\"',\n//            ', \"image\": \"',\n//             imageURI, '\"',\n//            ', \"name\": \"Wizard\"',\n//            // attributes\n//            ', \"attributes\": [{\"display_type\": \"number\", \"trait_type\": \"level\", \"value\": ',\n//            '11111111',   ' }'\n//        ));\n//        json_str = string(abi.encodePacked(json_str,\n//            ', {\"display_type\": \"number\", \"trait_type\": \"hp\", \"value\": ',\n//            '2222222222',   ' }',\n//            ', {\"display_type\": \"number\", \"trait_type\": \"mp\", \"value\": ',\n//            '33333333333333333',   ' }',\n//                ', {\"display_type\": \"number\", \"trait_type\": \"wins\", \"value\": ',\n//            '4444444444',   ' }',\n//            ']', // End Attributes\n//            '}'\n//        ));\n        return json_str;\n    }\n\n//    function uint2str(uint _i) internal pure returns (string memory _uintAsString) {\n//        if (_i == 0) {\n//            return \"0\";\n//        }\n//        uint j = _i;\n//        uint len;\n//        while (j != 0) {\n//            len++;\n//            j /= 10;\n//        }\n//        bytes memory bstr = new bytes(len);\n//        uint k = len - 1;\n//        while (_i != 0) {\n//            bstr[k--] = bytes1(uint8(48 + _i % 10));\n//            _i /= 10;\n//        }\n//        return string(bstr);\n//    }\n\n\n    ///////////////////////////////////\n    ////// Verifier Functions     /////\n    ///////////////////////////////////\n\n    /** @dev increase protectionTimestamp, called by verifier. Used to keep wizard from being exiled.\n      * @param _wizardId id of wizard.\n      * @param _timeReward amout of time in seconds to add to current protectedUntilTimestamp\n      */\n    function increaseProtectedUntilTimestamp(uint256 _wizardId, uint40 _timeReward) external onlyVerifier {\n        require(_wizardId!=0 && _wizardId <= totalSupply(), \"invalid id\");\n        require(tokenIdToStats[_wizardId].initiationTimestamp!=0, \"is not initiated\");\n        tokenIdToStats[_wizardId].protectedUntilTimestamp += _timeReward;\n    }\n\n\n    ////////////////////////////////////\n    ////// Appointer Functions     /////\n    ////////////////////////////////////\n\n    function appointRole(uint256 _wizardId, uint16 _role) external onlyAppointer {\n        require(_wizardId!=0 && _wizardId <= totalSupply(), \"invalid wizard\");\n        tokenIdToStats[_wizardId].role = _role;\n    }\n\n\n    /////////////////////////////////\n    ////// Admin Functions      /////\n    /////////////////////////////////\n\n\n    /** @dev modify contract settings. Only available to owner\n      * @param _imageBaseURI baseURI for images\n      * @param _phaseDuration period in seconds for phases\n      * @param _protectionTimeExtension problby remove this // todo -- delete\n      * @param _initiationCost cost in ETH to initiate\n      */\n    function modifyContractSettings(string memory _imageBaseURI, uint256 _phaseDuration, uint256 _protectionTimeExtension, uint256 _mintCost,\n                    uint256 _initiationCost, uint256 _maturityThreshold) external onlyOwner {\n        contractSettings.imageBaseURI = _imageBaseURI;\n        contractSettings.phaseDuration = _phaseDuration;\n        contractSettings.protectionTimeExtension = _protectionTimeExtension;\n        contractSettings.mintCost = _mintCost;\n        contractSettings.initiationCost = _initiationCost;\n        contractSettings.maturityThreshold = _maturityThreshold;\n    }\n\n    ///////////////////////////\n    ////// Modifiers      /////\n    ///////////////////////////\n\n    modifier onlyVerifier() {\n        require(msg.sender == verifier, 'only verifier'); // todo -- decide who will verify--one or many addresses\n        _;\n    }\n\n    modifier onlyAppointer() {\n        require(msg.sender == appointer, 'only appointer');\n        _;\n    }\n\n\n    modifier onlyHolder() {\n        require(msg.sender != address(this), 'only holder'); // todo -- decide who will verify--one or many addresses\n        _;\n    }\n\n    modifier onlyCuller() {\n        require(\n            msg.sender == culler, // todo -- one or many addresses?\n            \"Only culler can call this function.\"\n        );\n        _;\n    }\n\n    ///////////////////////////\n    ////// Admin      /////\n    ///////////////////////////\n\n    /** @dev increase protectionTimestamp, called by verifier. Used to keep wizard from being exiled.\n      * @param _culler new address for culler, the wallet/contract which can exile wizards without contraint\n      */\n    function updateCuller(address _culler) external onlyOwner {\n        require(_culler != address(0) && _culler != culler, \"Invalid operator address\");\n        culler = _culler;\n        emit NewCuller(_culler);\n    }\n\n    /** @dev increase protectionTimestamp, called by verifier. Used to keep wizard from being exiled.\n      * @param _verifier the new address for verifier, the contract which can add protectedUntil time for wizards\n      */\n    function updateVerifier(address _verifier) external onlyOwner {\n        require(_verifier != address(0) && _verifier != verifier, \"Invalid operator address\");\n        verifier = _verifier;\n        emit NewVerifier(_verifier);\n    }\n\n    /** @dev increase protectionTimestamp, called by verifier. Used to keep wizard from being exiled.\n      * @param _appointer the new address for appointer, the contract which can appoint and create roles\n      */\n    function updateAppointer(address _appointer) external onlyOwner {\n        require(_appointer != address(0) && _appointer != appointer, \"Invalid operator address\");\n        appointer = _appointer;\n        emit NewAppointer(_appointer);\n    }\n\n\n}\n",
  "sourcePath": "contracts/wizards.sol",
  "type": "contract"
}