{
  "abi": [
    {
      "inputs": [
        {
          "internalType": "address",
          "name": "_ecosystemToken",
          "type": "address"
        },
        {
          "internalType": "address",
          "name": "_wizardNFT",
          "type": "address"
        },
        {
          "internalType": "address",
          "name": "_wizardTower",
          "type": "address"
        }
      ],
      "stateMutability": "nonpayable",
      "type": "constructor"
    },
    {
      "anonymous": false,
      "inputs": [
        {
          "indexed": false,
          "internalType": "uint256",
          "name": "attackerId",
          "type": "uint256"
        },
        {
          "indexed": false,
          "internalType": "uint256",
          "name": "defenderId",
          "type": "uint256"
        },
        {
          "indexed": false,
          "internalType": "uint256",
          "name": "floorAttacked",
          "type": "uint256"
        },
        {
          "indexed": false,
          "internalType": "uint256",
          "name": "netTokensGainedOrLost",
          "type": "uint256"
        },
        {
          "indexed": false,
          "internalType": "uint256",
          "name": "result",
          "type": "uint256"
        },
        {
          "indexed": false,
          "internalType": "uint256",
          "name": "timestamp",
          "type": "uint256"
        }
      ],
      "name": "Attack",
      "type": "event"
    },
    {
      "anonymous": false,
      "inputs": [
        {
          "indexed": false,
          "internalType": "uint256",
          "name": "captured",
          "type": "uint256"
        },
        {
          "indexed": false,
          "internalType": "uint256",
          "name": "capturer",
          "type": "uint256"
        },
        {
          "indexed": false,
          "internalType": "uint256",
          "name": "timestamp",
          "type": "uint256"
        }
      ],
      "name": "Capture",
      "type": "event"
    },
    {
      "anonymous": false,
      "inputs": [
        {
          "indexed": true,
          "internalType": "address",
          "name": "previousOwner",
          "type": "address"
        },
        {
          "indexed": true,
          "internalType": "address",
          "name": "newOwner",
          "type": "address"
        }
      ],
      "name": "OwnershipTransferred",
      "type": "event"
    },
    {
      "inputs": [
        {
          "internalType": "uint256",
          "name": "_attackerId",
          "type": "uint256"
        },
        {
          "internalType": "uint256",
          "name": "_floor",
          "type": "uint256"
        }
      ],
      "name": "attack",
      "outputs": [],
      "stateMutability": "payable",
      "type": "function"
    },
    {
      "inputs": [],
      "name": "owner",
      "outputs": [
        {
          "internalType": "address",
          "name": "",
          "type": "address"
        }
      ],
      "stateMutability": "view",
      "type": "function"
    },
    {
      "inputs": [],
      "name": "renounceOwnership",
      "outputs": [],
      "stateMutability": "nonpayable",
      "type": "function"
    },
    {
      "inputs": [
        {
          "internalType": "address",
          "name": "newOwner",
          "type": "address"
        }
      ],
      "name": "transferOwnership",
      "outputs": [],
      "stateMutability": "nonpayable",
      "type": "function"
    },
    {
      "inputs": [],
      "name": "withdraw",
      "outputs": [],
      "stateMutability": "nonpayable",
      "type": "function"
    }
  ],
  "bytecode": "608060405261271060025561012c6006556103e860075561271060085534801561002857600080fd5b50604051620012003803806200120083398101604081905261004991610104565b61005233610098565b60018055600380546001600160a01b039485166001600160a01b031991821617909155600480549385169382169390931790925560058054919093169116179055610147565b600080546001600160a01b038381166001600160a01b0319831681178455604051919092169283917f8be0079c531659141344cd1fd0a4f28419497f9722a3daafe3b4186f6b6457e09190a35050565b80516001600160a01b03811681146100ff57600080fd5b919050565b60008060006060848603121561011957600080fd5b610122846100e8565b9250610130602085016100e8565b915061013e604085016100e8565b90509250925092565b6110a980620001576000396000f3fe60806040526004361061004a5760003560e01c80633ccfd60b1461004f578063715018a6146100665780638da5cb5b1461007b578063e1fa7638146100a7578063f2fde38b146100ba575b600080fd5b34801561005b57600080fd5b506100646100da565b005b34801561007257600080fd5b50610064610236565b34801561008757600080fd5b50600054604080516001600160a01b039092168252519081900360200190f35b6100646100b5366004610f01565b61026c565b3480156100c657600080fd5b506100646100d5366004610f38565b610e1d565b6000546001600160a01b0316331461010d5760405162461bcd60e51b815260040161010490610f5c565b60405180910390fd5b600480546040516370a0823160e01b815230928101929092526000916001600160a01b03909116906370a0823190602401602060405180830381865afa15801561015b573d6000803e3d6000fd5b505050506040513d601f19601f8201168201806040525081019061017f9190610f91565b60035460405163a9059cbb60e01b8152336004820152602481018390529192506001600160a01b03169063a9059cbb906044016020604051808303816000875af11580156101d1573d6000803e3d6000fd5b505050506040513d601f19601f820116820180604052508101906101f59190610faa565b6102335760405162461bcd60e51b815260206004820152600f60248201526e1d1c985b9cd9995c8819985a5b1959608a1b6044820152606401610104565b50565b6000546001600160a01b031633146102605760405162461bcd60e51b815260040161010490610f5c565b61026a6000610eb1565b565b600260015414156102bf5760405162461bcd60e51b815260206004820152601f60248201527f5265656e7472616e637947756172643a207265656e7472616e742063616c6c006044820152606401610104565b60026001553332146103135760405162461bcd60e51b815260206004820152601960248201527f63616e206e6f742063616c6c2076696120636f6e7472616374000000000000006044820152606401610104565b600480546040516331a9108f60e11b815291820184905233916001600160a01b0390911690636352211e90602401602060405180830381865afa15801561035e573d6000803e3d6000fd5b505050506040513d601f19601f820116820180604052508101906103829190610fcc565b6001600160a01b0316146103cd5760405162461bcd60e51b815260206004820152601260248201527136bab9ba1031329027232a103437b63232b960711b6044820152606401610104565b600554604051631d828f8360e31b8152600481018490526001600160a01b039091169063ec147c18906024016020604051808303816000875af1158015610418573d6000803e3d6000fd5b505050506040513d601f19601f8201168201806040525081019061043c9190610faa565b6104885760405162461bcd60e51b815260206004820152601d60248201527f61747461636b6572206d757374206265206f6e2074686520746f7765720000006044820152606401610104565b600480546040516382afd23b60e01b81529182018490526001600160a01b0316906382afd23b90602401602060405180830381865afa1580156104cf573d6000803e3d6000fd5b505050506040513d601f19601f820116820180604052508101906104f39190610faa565b6105305760405162461bcd60e51b815260206004820152600e60248201526d6d7573742062652061637469766560901b6044820152606401610104565b600560009054906101000a90046001600160a01b03166001600160a01b0316633cdd03986040518163ffffffff1660e01b8152600401602060405180830381865afa158015610583573d6000803e3d6000fd5b505050506040513d601f19601f820116820180604052508101906105a79190610f91565b81111580156105b557508015155b6105f45760405162461bcd60e51b815260206004820152601060248201526f36bab9ba103b30b634b210333637b7b960811b6044820152606401610104565b6005546040516301038d3760e61b8152600481018390526000916001600160a01b0316906340e34dc0906024016020604051808303816000875af1158015610640573d6000803e3d6000fd5b505050506040513d601f19601f820116820180604052508101906106649190610f91565b60055460405163944d934b60e01b8152600481018590529192506000916001600160a01b039091169063944d934b90602401602060405180830381865afa1580156106b3573d6000803e3d6000fd5b505050506040513d601f19601f820116820180604052508101906106d79190610f91565b6005546040516395ac8af960e01b815260048101879052919250612710916000916001600160a01b0316906395ac8af990602401602060405180830381865afa158015610728573d6000803e3d6000fd5b505050506040513d601f19601f8201168201806040525081019061074c9190610f91565b905034612710600754846107609190610fff565b61076a9190611034565b11156107b85760405162461bcd60e51b815260206004820152601c60248201527f696e737566666369656e7420746f6b656e7320746f2061747461636b000000006044820152606401610104565b600854612710600754846107cc9190610fff565b6107d69190611034565b6107e09034611048565b111561085d576000336001600160a01b0316612710600754856108039190610fff565b61080d9190611034565b6108179034611048565b604051600081818185875af1925050503d8060008114610853576040519150601f19603f3d011682016040523d82523d6000602084013e610858565b606091505b505050505b600480546040516331a9108f60e11b81529182018690526000916001600160a01b0390911690636352211e90602401602060405180830381865afa1580156108a9573d6000803e3d6000fd5b505050506040513d601f19601f820116820180604052508101906108cd9190610fcc565b6001600160a01b03166305f5e1006006546127106108eb9190611048565b6007546108f89087610fff565b6109029190610fff565b61090c9190611034565b604051600081818185875af1925050503d8060008114610948576040519150601f19603f3d011682016040523d82523d6000602084013e61094d565b606091505b5050600480546040516382afd23b60e01b81529182018890529192506000916001600160a01b0316906382afd23b90602401602060405180830381865afa15801561099c573d6000803e3d6000fd5b505050506040513d601f19601f820116820180604052508101906109c09190610faa565b6109cc57506003610a26565b6040516bffffffffffffffffffffffff193360601b166020820152426034820152446054820152607481018890526002906094016040516020818303038152906040528051906020012060001c610a23919061105f565b90505b8015610c3b5760085460055460405163944d934b60e01b8152600481018690526001600160a01b039091169063944d934b90602401602060405180830381865afa158015610a78573d6000803e3d6000fd5b505050506040513d601f19601f82011682018060405250810190610a9c9190610f91565b1115610b0157600554604051632e1a7d4d60e01b8152600481018590526001600160a01b0390911690632e1a7d4d90602401600060405180830381600087803b158015610ae857600080fd5b505af1158015610afc573d6000803e3d6000fd5b505050505b6005546040516322a7d0a160e21b815260048101859052602481018990526001600160a01b0390911690638a9f428490604401600060405180830381600087803b158015610b4e57600080fd5b505af1158015610b62573d6000803e3d6000fd5b505060085460055460405163944d934b60e01b8152600481018c90529193506001600160a01b0316915063944d934b90602401602060405180830381865afa158015610bb2573d6000803e3d6000fd5b505050506040513d601f19601f82011682018060405250810190610bd69190610f91565b1115610c3b57600554604051632e1a7d4d60e01b8152600481018990526001600160a01b0390911690632e1a7d4d90602401600060405180830381600087803b158015610c2257600080fd5b505af1158015610c36573d6000803e3d6000fd5b505050505b8060031415610ce357600554604051639a0e6a8560e01b8152600481018590526001600160a01b0390911690639a0e6a8590602401600060405180830381600087803b158015610c8a57600080fd5b505af1158015610c9e573d6000803e3d6000fd5b505060408051898152602081018c9052428183015290517f5f989fecf13aa707e68db673d1132d1f4b5270253e425424e51171e63a34113d9350908190036060019150a15b60048054604051637539cc7f60e01b81529182018a90526024820188905260448201839052606482018790523460848301526001600160a01b031690637539cc7f9060a401600060405180830381600087803b158015610d4257600080fd5b505af1158015610d56573d6000803e3d6000fd5b5050505060008160011480610d6b5750816003145b610d8f5761271060075486610d809190610fff565b610d8a9190611034565b610db6565b612710600754612710610da29190611048565b610dac9088610fff565b610db69190611034565b604080518b8152602081018a90529081018a905260608101829052608081018490524260a08201529091507f0fd5be7b519876ab186cd42f558da52b151ce881a0249958d8d7414b86ddce1c9060c00160405180910390a150506001805550505050505050565b6000546001600160a01b03163314610e475760405162461bcd60e51b815260040161010490610f5c565b6001600160a01b038116610eac5760405162461bcd60e51b815260206004820152602660248201527f4f776e61626c653a206e6577206f776e657220697320746865207a65726f206160448201526564647265737360d01b6064820152608401610104565b610233815b600080546001600160a01b038381166001600160a01b0319831681178455604051919092169283917f8be0079c531659141344cd1fd0a4f28419497f9722a3daafe3b4186f6b6457e09190a35050565b60008060408385031215610f1457600080fd5b50508035926020909101359150565b6001600160a01b038116811461023357600080fd5b600060208284031215610f4a57600080fd5b8135610f5581610f23565b9392505050565b6020808252818101527f4f776e61626c653a2063616c6c6572206973206e6f7420746865206f776e6572604082015260600190565b600060208284031215610fa357600080fd5b5051919050565b600060208284031215610fbc57600080fd5b81518015158114610f5557600080fd5b600060208284031215610fde57600080fd5b8151610f5581610f23565b634e487b7160e01b600052601160045260246000fd5b600081600019048311821515161561101957611019610fe9565b500290565b634e487b7160e01b600052601260045260246000fd5b6000826110435761104361101e565b500490565b60008282101561105a5761105a610fe9565b500390565b60008261106e5761106e61101e565b50069056fea2646970667358221220351804145702fa9b8c044f7f7e663e9124e7f37a5fdf7e16e9512c8c24762b5564736f6c634300080c0033",
  "bytecodeSha1": "a62a380512b55b2e2aae7fb544403c4e44eafd0a",
  "compiler": {
    "evm_version": "istanbul",
    "optimizer": {
      "enabled": true,
      "runs": 200
    },
    "version": "0.8.12+commit.f00d7308"
  },
  "contractName": "WizardBattle",
  "language": "Solidity",
  "natspec": {
    "kind": "dev",
    "methods": {
      "owner()": {
        "details": "Returns the address of the current owner."
      },
      "renounceOwnership()": {
        "details": "Leaves the contract without owner. It will not be possible to call `onlyOwner` functions anymore. Can only be called by the current owner. NOTE: Renouncing ownership will leave the contract without an owner, thereby removing any functionality that is only available to the owner."
      },
      "transferOwnership(address)": {
        "details": "Transfers ownership of the contract to a new account (`newOwner`). Can only be called by the current owner."
      }
    },
    "version": 1
  },
  "opcodes": "PUSH1 0x80 PUSH1 0x40 MSTORE PUSH1 0x4 CALLDATASIZE LT PUSH2 0x4A JUMPI PUSH1 0x0 CALLDATALOAD PUSH1 0xE0 SHR DUP1 PUSH4 0x3CCFD60B EQ PUSH2 0x4F JUMPI DUP1 PUSH4 0x715018A6 EQ PUSH2 0x66 JUMPI DUP1 PUSH4 0x8DA5CB5B EQ PUSH2 0x7B JUMPI DUP1 PUSH4 0xE1FA7638 EQ PUSH2 0xA7 JUMPI DUP1 PUSH4 0xF2FDE38B EQ PUSH2 0xBA JUMPI JUMPDEST PUSH1 0x0 DUP1 REVERT JUMPDEST CALLVALUE DUP1 ISZERO PUSH2 0x5B JUMPI PUSH1 0x0 DUP1 REVERT JUMPDEST POP PUSH2 0x64 PUSH2 0xDA JUMP JUMPDEST STOP JUMPDEST CALLVALUE DUP1 ISZERO PUSH2 0x72 JUMPI PUSH1 0x0 DUP1 REVERT JUMPDEST POP PUSH2 0x64 PUSH2 0x236 JUMP JUMPDEST CALLVALUE DUP1 ISZERO PUSH2 0x87 JUMPI PUSH1 0x0 DUP1 REVERT JUMPDEST POP PUSH1 0x0 SLOAD PUSH1 0x40 DUP1 MLOAD PUSH1 0x1 PUSH1 0x1 PUSH1 0xA0 SHL SUB SWAP1 SWAP3 AND DUP3 MSTORE MLOAD SWAP1 DUP2 SWAP1 SUB PUSH1 0x20 ADD SWAP1 RETURN JUMPDEST PUSH2 0x64 PUSH2 0xB5 CALLDATASIZE PUSH1 0x4 PUSH2 0xF01 JUMP JUMPDEST PUSH2 0x26C JUMP JUMPDEST CALLVALUE DUP1 ISZERO PUSH2 0xC6 JUMPI PUSH1 0x0 DUP1 REVERT JUMPDEST POP PUSH2 0x64 PUSH2 0xD5 CALLDATASIZE PUSH1 0x4 PUSH2 0xF38 JUMP JUMPDEST PUSH2 0xE1D JUMP JUMPDEST PUSH1 0x0 SLOAD PUSH1 0x1 PUSH1 0x1 PUSH1 0xA0 SHL SUB AND CALLER EQ PUSH2 0x10D JUMPI PUSH1 0x40 MLOAD PUSH3 0x461BCD PUSH1 0xE5 SHL DUP2 MSTORE PUSH1 0x4 ADD PUSH2 0x104 SWAP1 PUSH2 0xF5C JUMP JUMPDEST PUSH1 0x40 MLOAD DUP1 SWAP2 SUB SWAP1 REVERT JUMPDEST PUSH1 0x4 DUP1 SLOAD PUSH1 0x40 MLOAD PUSH4 0x70A08231 PUSH1 0xE0 SHL DUP2 MSTORE ADDRESS SWAP3 DUP2 ADD SWAP3 SWAP1 SWAP3 MSTORE PUSH1 0x0 SWAP2 PUSH1 0x1 PUSH1 0x1 PUSH1 0xA0 SHL SUB SWAP1 SWAP2 AND SWAP1 PUSH4 0x70A08231 SWAP1 PUSH1 0x24 ADD PUSH1 0x20 PUSH1 0x40 MLOAD DUP1 DUP4 SUB DUP2 DUP7 GAS STATICCALL ISZERO DUP1 ISZERO PUSH2 0x15B JUMPI RETURNDATASIZE PUSH1 0x0 DUP1 RETURNDATACOPY RETURNDATASIZE PUSH1 0x0 REVERT JUMPDEST POP POP POP POP PUSH1 0x40 MLOAD RETURNDATASIZE PUSH1 0x1F NOT PUSH1 0x1F DUP3 ADD AND DUP3 ADD DUP1 PUSH1 0x40 MSTORE POP DUP2 ADD SWAP1 PUSH2 0x17F SWAP2 SWAP1 PUSH2 0xF91 JUMP JUMPDEST PUSH1 0x3 SLOAD PUSH1 0x40 MLOAD PUSH4 0xA9059CBB PUSH1 0xE0 SHL DUP2 MSTORE CALLER PUSH1 0x4 DUP3 ADD MSTORE PUSH1 0x24 DUP2 ADD DUP4 SWAP1 MSTORE SWAP2 SWAP3 POP PUSH1 0x1 PUSH1 0x1 PUSH1 0xA0 SHL SUB AND SWAP1 PUSH4 0xA9059CBB SWAP1 PUSH1 0x44 ADD PUSH1 0x20 PUSH1 0x40 MLOAD DUP1 DUP4 SUB DUP2 PUSH1 0x0 DUP8 GAS CALL ISZERO DUP1 ISZERO PUSH2 0x1D1 JUMPI RETURNDATASIZE PUSH1 0x0 DUP1 RETURNDATACOPY RETURNDATASIZE PUSH1 0x0 REVERT JUMPDEST POP POP POP POP PUSH1 0x40 MLOAD RETURNDATASIZE PUSH1 0x1F NOT PUSH1 0x1F DUP3 ADD AND DUP3 ADD DUP1 PUSH1 0x40 MSTORE POP DUP2 ADD SWAP1 PUSH2 0x1F5 SWAP2 SWAP1 PUSH2 0xFAA JUMP JUMPDEST PUSH2 0x233 JUMPI PUSH1 0x40 MLOAD PUSH3 0x461BCD PUSH1 0xE5 SHL DUP2 MSTORE PUSH1 0x20 PUSH1 0x4 DUP3 ADD MSTORE PUSH1 0xF PUSH1 0x24 DUP3 ADD MSTORE PUSH15 0x1D1C985B9CD9995C8819985A5B1959 PUSH1 0x8A SHL PUSH1 0x44 DUP3 ADD MSTORE PUSH1 0x64 ADD PUSH2 0x104 JUMP JUMPDEST POP JUMP JUMPDEST PUSH1 0x0 SLOAD PUSH1 0x1 PUSH1 0x1 PUSH1 0xA0 SHL SUB AND CALLER EQ PUSH2 0x260 JUMPI PUSH1 0x40 MLOAD PUSH3 0x461BCD PUSH1 0xE5 SHL DUP2 MSTORE PUSH1 0x4 ADD PUSH2 0x104 SWAP1 PUSH2 0xF5C JUMP JUMPDEST PUSH2 0x26A PUSH1 0x0 PUSH2 0xEB1 JUMP JUMPDEST JUMP JUMPDEST PUSH1 0x2 PUSH1 0x1 SLOAD EQ ISZERO PUSH2 0x2BF JUMPI PUSH1 0x40 MLOAD PUSH3 0x461BCD PUSH1 0xE5 SHL DUP2 MSTORE PUSH1 0x20 PUSH1 0x4 DUP3 ADD MSTORE PUSH1 0x1F PUSH1 0x24 DUP3 ADD MSTORE PUSH32 0x5265656E7472616E637947756172643A207265656E7472616E742063616C6C00 PUSH1 0x44 DUP3 ADD MSTORE PUSH1 0x64 ADD PUSH2 0x104 JUMP JUMPDEST PUSH1 0x2 PUSH1 0x1 SSTORE CALLER ORIGIN EQ PUSH2 0x313 JUMPI PUSH1 0x40 MLOAD PUSH3 0x461BCD PUSH1 0xE5 SHL DUP2 MSTORE PUSH1 0x20 PUSH1 0x4 DUP3 ADD MSTORE PUSH1 0x19 PUSH1 0x24 DUP3 ADD MSTORE PUSH32 0x63616E206E6F742063616C6C2076696120636F6E747261637400000000000000 PUSH1 0x44 DUP3 ADD MSTORE PUSH1 0x64 ADD PUSH2 0x104 JUMP JUMPDEST PUSH1 0x4 DUP1 SLOAD PUSH1 0x40 MLOAD PUSH4 0x31A9108F PUSH1 0xE1 SHL DUP2 MSTORE SWAP2 DUP3 ADD DUP5 SWAP1 MSTORE CALLER SWAP2 PUSH1 0x1 PUSH1 0x1 PUSH1 0xA0 SHL SUB SWAP1 SWAP2 AND SWAP1 PUSH4 0x6352211E SWAP1 PUSH1 0x24 ADD PUSH1 0x20 PUSH1 0x40 MLOAD DUP1 DUP4 SUB DUP2 DUP7 GAS STATICCALL ISZERO DUP1 ISZERO PUSH2 0x35E JUMPI RETURNDATASIZE PUSH1 0x0 DUP1 RETURNDATACOPY RETURNDATASIZE PUSH1 0x0 REVERT JUMPDEST POP POP POP POP PUSH1 0x40 MLOAD RETURNDATASIZE PUSH1 0x1F NOT PUSH1 0x1F DUP3 ADD AND DUP3 ADD DUP1 PUSH1 0x40 MSTORE POP DUP2 ADD SWAP1 PUSH2 0x382 SWAP2 SWAP1 PUSH2 0xFCC JUMP JUMPDEST PUSH1 0x1 PUSH1 0x1 PUSH1 0xA0 SHL SUB AND EQ PUSH2 0x3CD JUMPI PUSH1 0x40 MLOAD PUSH3 0x461BCD PUSH1 0xE5 SHL DUP2 MSTORE PUSH1 0x20 PUSH1 0x4 DUP3 ADD MSTORE PUSH1 0x12 PUSH1 0x24 DUP3 ADD MSTORE PUSH18 0x36BAB9BA1031329027232A103437B63232B9 PUSH1 0x71 SHL PUSH1 0x44 DUP3 ADD MSTORE PUSH1 0x64 ADD PUSH2 0x104 JUMP JUMPDEST PUSH1 0x5 SLOAD PUSH1 0x40 MLOAD PUSH4 0x1D828F83 PUSH1 0xE3 SHL DUP2 MSTORE PUSH1 0x4 DUP2 ADD DUP5 SWAP1 MSTORE PUSH1 0x1 PUSH1 0x1 PUSH1 0xA0 SHL SUB SWAP1 SWAP2 AND SWAP1 PUSH4 0xEC147C18 SWAP1 PUSH1 0x24 ADD PUSH1 0x20 PUSH1 0x40 MLOAD DUP1 DUP4 SUB DUP2 PUSH1 0x0 DUP8 GAS CALL ISZERO DUP1 ISZERO PUSH2 0x418 JUMPI RETURNDATASIZE PUSH1 0x0 DUP1 RETURNDATACOPY RETURNDATASIZE PUSH1 0x0 REVERT JUMPDEST POP POP POP POP PUSH1 0x40 MLOAD RETURNDATASIZE PUSH1 0x1F NOT PUSH1 0x1F DUP3 ADD AND DUP3 ADD DUP1 PUSH1 0x40 MSTORE POP DUP2 ADD SWAP1 PUSH2 0x43C SWAP2 SWAP1 PUSH2 0xFAA JUMP JUMPDEST PUSH2 0x488 JUMPI PUSH1 0x40 MLOAD PUSH3 0x461BCD PUSH1 0xE5 SHL DUP2 MSTORE PUSH1 0x20 PUSH1 0x4 DUP3 ADD MSTORE PUSH1 0x1D PUSH1 0x24 DUP3 ADD MSTORE PUSH32 0x61747461636B6572206D757374206265206F6E2074686520746F776572000000 PUSH1 0x44 DUP3 ADD MSTORE PUSH1 0x64 ADD PUSH2 0x104 JUMP JUMPDEST PUSH1 0x4 DUP1 SLOAD PUSH1 0x40 MLOAD PUSH4 0x82AFD23B PUSH1 0xE0 SHL DUP2 MSTORE SWAP2 DUP3 ADD DUP5 SWAP1 MSTORE PUSH1 0x1 PUSH1 0x1 PUSH1 0xA0 SHL SUB AND SWAP1 PUSH4 0x82AFD23B SWAP1 PUSH1 0x24 ADD PUSH1 0x20 PUSH1 0x40 MLOAD DUP1 DUP4 SUB DUP2 DUP7 GAS STATICCALL ISZERO DUP1 ISZERO PUSH2 0x4CF JUMPI RETURNDATASIZE PUSH1 0x0 DUP1 RETURNDATACOPY RETURNDATASIZE PUSH1 0x0 REVERT JUMPDEST POP POP POP POP PUSH1 0x40 MLOAD RETURNDATASIZE PUSH1 0x1F NOT PUSH1 0x1F DUP3 ADD AND DUP3 ADD DUP1 PUSH1 0x40 MSTORE POP DUP2 ADD SWAP1 PUSH2 0x4F3 SWAP2 SWAP1 PUSH2 0xFAA JUMP JUMPDEST PUSH2 0x530 JUMPI PUSH1 0x40 MLOAD PUSH3 0x461BCD PUSH1 0xE5 SHL DUP2 MSTORE PUSH1 0x20 PUSH1 0x4 DUP3 ADD MSTORE PUSH1 0xE PUSH1 0x24 DUP3 ADD MSTORE PUSH14 0x6D75737420626520616374697665 PUSH1 0x90 SHL PUSH1 0x44 DUP3 ADD MSTORE PUSH1 0x64 ADD PUSH2 0x104 JUMP JUMPDEST PUSH1 0x5 PUSH1 0x0 SWAP1 SLOAD SWAP1 PUSH2 0x100 EXP SWAP1 DIV PUSH1 0x1 PUSH1 0x1 PUSH1 0xA0 SHL SUB AND PUSH1 0x1 PUSH1 0x1 PUSH1 0xA0 SHL SUB AND PUSH4 0x3CDD0398 PUSH1 0x40 MLOAD DUP2 PUSH4 0xFFFFFFFF AND PUSH1 0xE0 SHL DUP2 MSTORE PUSH1 0x4 ADD PUSH1 0x20 PUSH1 0x40 MLOAD DUP1 DUP4 SUB DUP2 DUP7 GAS STATICCALL ISZERO DUP1 ISZERO PUSH2 0x583 JUMPI RETURNDATASIZE PUSH1 0x0 DUP1 RETURNDATACOPY RETURNDATASIZE PUSH1 0x0 REVERT JUMPDEST POP POP POP POP PUSH1 0x40 MLOAD RETURNDATASIZE PUSH1 0x1F NOT PUSH1 0x1F DUP3 ADD AND DUP3 ADD DUP1 PUSH1 0x40 MSTORE POP DUP2 ADD SWAP1 PUSH2 0x5A7 SWAP2 SWAP1 PUSH2 0xF91 JUMP JUMPDEST DUP2 GT ISZERO DUP1 ISZERO PUSH2 0x5B5 JUMPI POP DUP1 ISZERO ISZERO JUMPDEST PUSH2 0x5F4 JUMPI PUSH1 0x40 MLOAD PUSH3 0x461BCD PUSH1 0xE5 SHL DUP2 MSTORE PUSH1 0x20 PUSH1 0x4 DUP3 ADD MSTORE PUSH1 0x10 PUSH1 0x24 DUP3 ADD MSTORE PUSH16 0x36BAB9BA103B30B634B210333637B7B9 PUSH1 0x81 SHL PUSH1 0x44 DUP3 ADD MSTORE PUSH1 0x64 ADD PUSH2 0x104 JUMP JUMPDEST PUSH1 0x5 SLOAD PUSH1 0x40 MLOAD PUSH4 0x1038D37 PUSH1 0xE6 SHL DUP2 MSTORE PUSH1 0x4 DUP2 ADD DUP4 SWAP1 MSTORE PUSH1 0x0 SWAP2 PUSH1 0x1 PUSH1 0x1 PUSH1 0xA0 SHL SUB AND SWAP1 PUSH4 0x40E34DC0 SWAP1 PUSH1 0x24 ADD PUSH1 0x20 PUSH1 0x40 MLOAD DUP1 DUP4 SUB DUP2 PUSH1 0x0 DUP8 GAS CALL ISZERO DUP1 ISZERO PUSH2 0x640 JUMPI RETURNDATASIZE PUSH1 0x0 DUP1 RETURNDATACOPY RETURNDATASIZE PUSH1 0x0 REVERT JUMPDEST POP POP POP POP PUSH1 0x40 MLOAD RETURNDATASIZE PUSH1 0x1F NOT PUSH1 0x1F DUP3 ADD AND DUP3 ADD DUP1 PUSH1 0x40 MSTORE POP DUP2 ADD SWAP1 PUSH2 0x664 SWAP2 SWAP1 PUSH2 0xF91 JUMP JUMPDEST PUSH1 0x5 SLOAD PUSH1 0x40 MLOAD PUSH4 0x944D934B PUSH1 0xE0 SHL DUP2 MSTORE PUSH1 0x4 DUP2 ADD DUP6 SWAP1 MSTORE SWAP2 SWAP3 POP PUSH1 0x0 SWAP2 PUSH1 0x1 PUSH1 0x1 PUSH1 0xA0 SHL SUB SWAP1 SWAP2 AND SWAP1 PUSH4 0x944D934B SWAP1 PUSH1 0x24 ADD PUSH1 0x20 PUSH1 0x40 MLOAD DUP1 DUP4 SUB DUP2 DUP7 GAS STATICCALL ISZERO DUP1 ISZERO PUSH2 0x6B3 JUMPI RETURNDATASIZE PUSH1 0x0 DUP1 RETURNDATACOPY RETURNDATASIZE PUSH1 0x0 REVERT JUMPDEST POP POP POP POP PUSH1 0x40 MLOAD RETURNDATASIZE PUSH1 0x1F NOT PUSH1 0x1F DUP3 ADD AND DUP3 ADD DUP1 PUSH1 0x40 MSTORE POP DUP2 ADD SWAP1 PUSH2 0x6D7 SWAP2 SWAP1 PUSH2 0xF91 JUMP JUMPDEST PUSH1 0x5 SLOAD PUSH1 0x40 MLOAD PUSH4 0x95AC8AF9 PUSH1 0xE0 SHL DUP2 MSTORE PUSH1 0x4 DUP2 ADD DUP8 SWAP1 MSTORE SWAP2 SWAP3 POP PUSH2 0x2710 SWAP2 PUSH1 0x0 SWAP2 PUSH1 0x1 PUSH1 0x1 PUSH1 0xA0 SHL SUB AND SWAP1 PUSH4 0x95AC8AF9 SWAP1 PUSH1 0x24 ADD PUSH1 0x20 PUSH1 0x40 MLOAD DUP1 DUP4 SUB DUP2 DUP7 GAS STATICCALL ISZERO DUP1 ISZERO PUSH2 0x728 JUMPI RETURNDATASIZE PUSH1 0x0 DUP1 RETURNDATACOPY RETURNDATASIZE PUSH1 0x0 REVERT JUMPDEST POP POP POP POP PUSH1 0x40 MLOAD RETURNDATASIZE PUSH1 0x1F NOT PUSH1 0x1F DUP3 ADD AND DUP3 ADD DUP1 PUSH1 0x40 MSTORE POP DUP2 ADD SWAP1 PUSH2 0x74C SWAP2 SWAP1 PUSH2 0xF91 JUMP JUMPDEST SWAP1 POP CALLVALUE PUSH2 0x2710 PUSH1 0x7 SLOAD DUP5 PUSH2 0x760 SWAP2 SWAP1 PUSH2 0xFFF JUMP JUMPDEST PUSH2 0x76A SWAP2 SWAP1 PUSH2 0x1034 JUMP JUMPDEST GT ISZERO PUSH2 0x7B8 JUMPI PUSH1 0x40 MLOAD PUSH3 0x461BCD PUSH1 0xE5 SHL DUP2 MSTORE PUSH1 0x20 PUSH1 0x4 DUP3 ADD MSTORE PUSH1 0x1C PUSH1 0x24 DUP3 ADD MSTORE PUSH32 0x696E737566666369656E7420746F6B656E7320746F2061747461636B00000000 PUSH1 0x44 DUP3 ADD MSTORE PUSH1 0x64 ADD PUSH2 0x104 JUMP JUMPDEST PUSH1 0x8 SLOAD PUSH2 0x2710 PUSH1 0x7 SLOAD DUP5 PUSH2 0x7CC SWAP2 SWAP1 PUSH2 0xFFF JUMP JUMPDEST PUSH2 0x7D6 SWAP2 SWAP1 PUSH2 0x1034 JUMP JUMPDEST PUSH2 0x7E0 SWAP1 CALLVALUE PUSH2 0x1048 JUMP JUMPDEST GT ISZERO PUSH2 0x85D JUMPI PUSH1 0x0 CALLER PUSH1 0x1 PUSH1 0x1 PUSH1 0xA0 SHL SUB AND PUSH2 0x2710 PUSH1 0x7 SLOAD DUP6 PUSH2 0x803 SWAP2 SWAP1 PUSH2 0xFFF JUMP JUMPDEST PUSH2 0x80D SWAP2 SWAP1 PUSH2 0x1034 JUMP JUMPDEST PUSH2 0x817 SWAP1 CALLVALUE PUSH2 0x1048 JUMP JUMPDEST PUSH1 0x40 MLOAD PUSH1 0x0 DUP2 DUP2 DUP2 DUP6 DUP8 GAS CALL SWAP3 POP POP POP RETURNDATASIZE DUP1 PUSH1 0x0 DUP2 EQ PUSH2 0x853 JUMPI PUSH1 0x40 MLOAD SWAP2 POP PUSH1 0x1F NOT PUSH1 0x3F RETURNDATASIZE ADD AND DUP3 ADD PUSH1 0x40 MSTORE RETURNDATASIZE DUP3 MSTORE RETURNDATASIZE PUSH1 0x0 PUSH1 0x20 DUP5 ADD RETURNDATACOPY PUSH2 0x858 JUMP JUMPDEST PUSH1 0x60 SWAP2 POP JUMPDEST POP POP POP POP JUMPDEST PUSH1 0x4 DUP1 SLOAD PUSH1 0x40 MLOAD PUSH4 0x31A9108F PUSH1 0xE1 SHL DUP2 MSTORE SWAP2 DUP3 ADD DUP7 SWAP1 MSTORE PUSH1 0x0 SWAP2 PUSH1 0x1 PUSH1 0x1 PUSH1 0xA0 SHL SUB SWAP1 SWAP2 AND SWAP1 PUSH4 0x6352211E SWAP1 PUSH1 0x24 ADD PUSH1 0x20 PUSH1 0x40 MLOAD DUP1 DUP4 SUB DUP2 DUP7 GAS STATICCALL ISZERO DUP1 ISZERO PUSH2 0x8A9 JUMPI RETURNDATASIZE PUSH1 0x0 DUP1 RETURNDATACOPY RETURNDATASIZE PUSH1 0x0 REVERT JUMPDEST POP POP POP POP PUSH1 0x40 MLOAD RETURNDATASIZE PUSH1 0x1F NOT PUSH1 0x1F DUP3 ADD AND DUP3 ADD DUP1 PUSH1 0x40 MSTORE POP DUP2 ADD SWAP1 PUSH2 0x8CD SWAP2 SWAP1 PUSH2 0xFCC JUMP JUMPDEST PUSH1 0x1 PUSH1 0x1 PUSH1 0xA0 SHL SUB AND PUSH4 0x5F5E100 PUSH1 0x6 SLOAD PUSH2 0x2710 PUSH2 0x8EB SWAP2 SWAP1 PUSH2 0x1048 JUMP JUMPDEST PUSH1 0x7 SLOAD PUSH2 0x8F8 SWAP1 DUP8 PUSH2 0xFFF JUMP JUMPDEST PUSH2 0x902 SWAP2 SWAP1 PUSH2 0xFFF JUMP JUMPDEST PUSH2 0x90C SWAP2 SWAP1 PUSH2 0x1034 JUMP JUMPDEST PUSH1 0x40 MLOAD PUSH1 0x0 DUP2 DUP2 DUP2 DUP6 DUP8 GAS CALL SWAP3 POP POP POP RETURNDATASIZE DUP1 PUSH1 0x0 DUP2 EQ PUSH2 0x948 JUMPI PUSH1 0x40 MLOAD SWAP2 POP PUSH1 0x1F NOT PUSH1 0x3F RETURNDATASIZE ADD AND DUP3 ADD PUSH1 0x40 MSTORE RETURNDATASIZE DUP3 MSTORE RETURNDATASIZE PUSH1 0x0 PUSH1 0x20 DUP5 ADD RETURNDATACOPY PUSH2 0x94D JUMP JUMPDEST PUSH1 0x60 SWAP2 POP JUMPDEST POP POP PUSH1 0x4 DUP1 SLOAD PUSH1 0x40 MLOAD PUSH4 0x82AFD23B PUSH1 0xE0 SHL DUP2 MSTORE SWAP2 DUP3 ADD DUP9 SWAP1 MSTORE SWAP2 SWAP3 POP PUSH1 0x0 SWAP2 PUSH1 0x1 PUSH1 0x1 PUSH1 0xA0 SHL SUB AND SWAP1 PUSH4 0x82AFD23B SWAP1 PUSH1 0x24 ADD PUSH1 0x20 PUSH1 0x40 MLOAD DUP1 DUP4 SUB DUP2 DUP7 GAS STATICCALL ISZERO DUP1 ISZERO PUSH2 0x99C JUMPI RETURNDATASIZE PUSH1 0x0 DUP1 RETURNDATACOPY RETURNDATASIZE PUSH1 0x0 REVERT JUMPDEST POP POP POP POP PUSH1 0x40 MLOAD RETURNDATASIZE PUSH1 0x1F NOT PUSH1 0x1F DUP3 ADD AND DUP3 ADD DUP1 PUSH1 0x40 MSTORE POP DUP2 ADD SWAP1 PUSH2 0x9C0 SWAP2 SWAP1 PUSH2 0xFAA JUMP JUMPDEST PUSH2 0x9CC JUMPI POP PUSH1 0x3 PUSH2 0xA26 JUMP JUMPDEST PUSH1 0x40 MLOAD PUSH12 0xFFFFFFFFFFFFFFFFFFFFFFFF NOT CALLER PUSH1 0x60 SHL AND PUSH1 0x20 DUP3 ADD MSTORE TIMESTAMP PUSH1 0x34 DUP3 ADD MSTORE DIFFICULTY PUSH1 0x54 DUP3 ADD MSTORE PUSH1 0x74 DUP2 ADD DUP9 SWAP1 MSTORE PUSH1 0x2 SWAP1 PUSH1 0x94 ADD PUSH1 0x40 MLOAD PUSH1 0x20 DUP2 DUP4 SUB SUB DUP2 MSTORE SWAP1 PUSH1 0x40 MSTORE DUP1 MLOAD SWAP1 PUSH1 0x20 ADD KECCAK256 PUSH1 0x0 SHR PUSH2 0xA23 SWAP2 SWAP1 PUSH2 0x105F JUMP JUMPDEST SWAP1 POP JUMPDEST DUP1 ISZERO PUSH2 0xC3B JUMPI PUSH1 0x8 SLOAD PUSH1 0x5 SLOAD PUSH1 0x40 MLOAD PUSH4 0x944D934B PUSH1 0xE0 SHL DUP2 MSTORE PUSH1 0x4 DUP2 ADD DUP7 SWAP1 MSTORE PUSH1 0x1 PUSH1 0x1 PUSH1 0xA0 SHL SUB SWAP1 SWAP2 AND SWAP1 PUSH4 0x944D934B SWAP1 PUSH1 0x24 ADD PUSH1 0x20 PUSH1 0x40 MLOAD DUP1 DUP4 SUB DUP2 DUP7 GAS STATICCALL ISZERO DUP1 ISZERO PUSH2 0xA78 JUMPI RETURNDATASIZE PUSH1 0x0 DUP1 RETURNDATACOPY RETURNDATASIZE PUSH1 0x0 REVERT JUMPDEST POP POP POP POP PUSH1 0x40 MLOAD RETURNDATASIZE PUSH1 0x1F NOT PUSH1 0x1F DUP3 ADD AND DUP3 ADD DUP1 PUSH1 0x40 MSTORE POP DUP2 ADD SWAP1 PUSH2 0xA9C SWAP2 SWAP1 PUSH2 0xF91 JUMP JUMPDEST GT ISZERO PUSH2 0xB01 JUMPI PUSH1 0x5 SLOAD PUSH1 0x40 MLOAD PUSH4 0x2E1A7D4D PUSH1 0xE0 SHL DUP2 MSTORE PUSH1 0x4 DUP2 ADD DUP6 SWAP1 MSTORE PUSH1 0x1 PUSH1 0x1 PUSH1 0xA0 SHL SUB SWAP1 SWAP2 AND SWAP1 PUSH4 0x2E1A7D4D SWAP1 PUSH1 0x24 ADD PUSH1 0x0 PUSH1 0x40 MLOAD DUP1 DUP4 SUB DUP2 PUSH1 0x0 DUP8 DUP1 EXTCODESIZE ISZERO DUP1 ISZERO PUSH2 0xAE8 JUMPI PUSH1 0x0 DUP1 REVERT JUMPDEST POP GAS CALL ISZERO DUP1 ISZERO PUSH2 0xAFC JUMPI RETURNDATASIZE PUSH1 0x0 DUP1 RETURNDATACOPY RETURNDATASIZE PUSH1 0x0 REVERT JUMPDEST POP POP POP POP JUMPDEST PUSH1 0x5 SLOAD PUSH1 0x40 MLOAD PUSH4 0x22A7D0A1 PUSH1 0xE2 SHL DUP2 MSTORE PUSH1 0x4 DUP2 ADD DUP6 SWAP1 MSTORE PUSH1 0x24 DUP2 ADD DUP10 SWAP1 MSTORE PUSH1 0x1 PUSH1 0x1 PUSH1 0xA0 SHL SUB SWAP1 SWAP2 AND SWAP1 PUSH4 0x8A9F4284 SWAP1 PUSH1 0x44 ADD PUSH1 0x0 PUSH1 0x40 MLOAD DUP1 DUP4 SUB DUP2 PUSH1 0x0 DUP8 DUP1 EXTCODESIZE ISZERO DUP1 ISZERO PUSH2 0xB4E JUMPI PUSH1 0x0 DUP1 REVERT JUMPDEST POP GAS CALL ISZERO DUP1 ISZERO PUSH2 0xB62 JUMPI RETURNDATASIZE PUSH1 0x0 DUP1 RETURNDATACOPY RETURNDATASIZE PUSH1 0x0 REVERT JUMPDEST POP POP PUSH1 0x8 SLOAD PUSH1 0x5 SLOAD PUSH1 0x40 MLOAD PUSH4 0x944D934B PUSH1 0xE0 SHL DUP2 MSTORE PUSH1 0x4 DUP2 ADD DUP13 SWAP1 MSTORE SWAP2 SWAP4 POP PUSH1 0x1 PUSH1 0x1 PUSH1 0xA0 SHL SUB AND SWAP2 POP PUSH4 0x944D934B SWAP1 PUSH1 0x24 ADD PUSH1 0x20 PUSH1 0x40 MLOAD DUP1 DUP4 SUB DUP2 DUP7 GAS STATICCALL ISZERO DUP1 ISZERO PUSH2 0xBB2 JUMPI RETURNDATASIZE PUSH1 0x0 DUP1 RETURNDATACOPY RETURNDATASIZE PUSH1 0x0 REVERT JUMPDEST POP POP POP POP PUSH1 0x40 MLOAD RETURNDATASIZE PUSH1 0x1F NOT PUSH1 0x1F DUP3 ADD AND DUP3 ADD DUP1 PUSH1 0x40 MSTORE POP DUP2 ADD SWAP1 PUSH2 0xBD6 SWAP2 SWAP1 PUSH2 0xF91 JUMP JUMPDEST GT ISZERO PUSH2 0xC3B JUMPI PUSH1 0x5 SLOAD PUSH1 0x40 MLOAD PUSH4 0x2E1A7D4D PUSH1 0xE0 SHL DUP2 MSTORE PUSH1 0x4 DUP2 ADD DUP10 SWAP1 MSTORE PUSH1 0x1 PUSH1 0x1 PUSH1 0xA0 SHL SUB SWAP1 SWAP2 AND SWAP1 PUSH4 0x2E1A7D4D SWAP1 PUSH1 0x24 ADD PUSH1 0x0 PUSH1 0x40 MLOAD DUP1 DUP4 SUB DUP2 PUSH1 0x0 DUP8 DUP1 EXTCODESIZE ISZERO DUP1 ISZERO PUSH2 0xC22 JUMPI PUSH1 0x0 DUP1 REVERT JUMPDEST POP GAS CALL ISZERO DUP1 ISZERO PUSH2 0xC36 JUMPI RETURNDATASIZE PUSH1 0x0 DUP1 RETURNDATACOPY RETURNDATASIZE PUSH1 0x0 REVERT JUMPDEST POP POP POP POP JUMPDEST DUP1 PUSH1 0x3 EQ ISZERO PUSH2 0xCE3 JUMPI PUSH1 0x5 SLOAD PUSH1 0x40 MLOAD PUSH4 0x9A0E6A85 PUSH1 0xE0 SHL DUP2 MSTORE PUSH1 0x4 DUP2 ADD DUP6 SWAP1 MSTORE PUSH1 0x1 PUSH1 0x1 PUSH1 0xA0 SHL SUB SWAP1 SWAP2 AND SWAP1 PUSH4 0x9A0E6A85 SWAP1 PUSH1 0x24 ADD PUSH1 0x0 PUSH1 0x40 MLOAD DUP1 DUP4 SUB DUP2 PUSH1 0x0 DUP8 DUP1 EXTCODESIZE ISZERO DUP1 ISZERO PUSH2 0xC8A JUMPI PUSH1 0x0 DUP1 REVERT JUMPDEST POP GAS CALL ISZERO DUP1 ISZERO PUSH2 0xC9E JUMPI RETURNDATASIZE PUSH1 0x0 DUP1 RETURNDATACOPY RETURNDATASIZE PUSH1 0x0 REVERT JUMPDEST POP POP PUSH1 0x40 DUP1 MLOAD DUP10 DUP2 MSTORE PUSH1 0x20 DUP2 ADD DUP13 SWAP1 MSTORE TIMESTAMP DUP2 DUP4 ADD MSTORE SWAP1 MLOAD PUSH32 0x5F989FECF13AA707E68DB673D1132D1F4B5270253E425424E51171E63A34113D SWAP4 POP SWAP1 DUP2 SWAP1 SUB PUSH1 0x60 ADD SWAP2 POP LOG1 JUMPDEST PUSH1 0x4 DUP1 SLOAD PUSH1 0x40 MLOAD PUSH4 0x7539CC7F PUSH1 0xE0 SHL DUP2 MSTORE SWAP2 DUP3 ADD DUP11 SWAP1 MSTORE PUSH1 0x24 DUP3 ADD DUP9 SWAP1 MSTORE PUSH1 0x44 DUP3 ADD DUP4 SWAP1 MSTORE PUSH1 0x64 DUP3 ADD DUP8 SWAP1 MSTORE CALLVALUE PUSH1 0x84 DUP4 ADD MSTORE PUSH1 0x1 PUSH1 0x1 PUSH1 0xA0 SHL SUB AND SWAP1 PUSH4 0x7539CC7F SWAP1 PUSH1 0xA4 ADD PUSH1 0x0 PUSH1 0x40 MLOAD DUP1 DUP4 SUB DUP2 PUSH1 0x0 DUP8 DUP1 EXTCODESIZE ISZERO DUP1 ISZERO PUSH2 0xD42 JUMPI PUSH1 0x0 DUP1 REVERT JUMPDEST POP GAS CALL ISZERO DUP1 ISZERO PUSH2 0xD56 JUMPI RETURNDATASIZE PUSH1 0x0 DUP1 RETURNDATACOPY RETURNDATASIZE PUSH1 0x0 REVERT JUMPDEST POP POP POP POP PUSH1 0x0 DUP2 PUSH1 0x1 EQ DUP1 PUSH2 0xD6B JUMPI POP DUP2 PUSH1 0x3 EQ JUMPDEST PUSH2 0xD8F JUMPI PUSH2 0x2710 PUSH1 0x7 SLOAD DUP7 PUSH2 0xD80 SWAP2 SWAP1 PUSH2 0xFFF JUMP JUMPDEST PUSH2 0xD8A SWAP2 SWAP1 PUSH2 0x1034 JUMP JUMPDEST PUSH2 0xDB6 JUMP JUMPDEST PUSH2 0x2710 PUSH1 0x7 SLOAD PUSH2 0x2710 PUSH2 0xDA2 SWAP2 SWAP1 PUSH2 0x1048 JUMP JUMPDEST PUSH2 0xDAC SWAP1 DUP9 PUSH2 0xFFF JUMP JUMPDEST PUSH2 0xDB6 SWAP2 SWAP1 PUSH2 0x1034 JUMP JUMPDEST PUSH1 0x40 DUP1 MLOAD DUP12 DUP2 MSTORE PUSH1 0x20 DUP2 ADD DUP11 SWAP1 MSTORE SWAP1 DUP2 ADD DUP11 SWAP1 MSTORE PUSH1 0x60 DUP2 ADD DUP3 SWAP1 MSTORE PUSH1 0x80 DUP2 ADD DUP5 SWAP1 MSTORE TIMESTAMP PUSH1 0xA0 DUP3 ADD MSTORE SWAP1 SWAP2 POP PUSH32 0xFD5BE7B519876AB186CD42F558DA52B151CE881A0249958D8D7414B86DDCE1C SWAP1 PUSH1 0xC0 ADD PUSH1 0x40 MLOAD DUP1 SWAP2 SUB SWAP1 LOG1 POP POP PUSH1 0x1 DUP1 SSTORE POP POP POP POP POP POP POP JUMP JUMPDEST PUSH1 0x0 SLOAD PUSH1 0x1 PUSH1 0x1 PUSH1 0xA0 SHL SUB AND CALLER EQ PUSH2 0xE47 JUMPI PUSH1 0x40 MLOAD PUSH3 0x461BCD PUSH1 0xE5 SHL DUP2 MSTORE PUSH1 0x4 ADD PUSH2 0x104 SWAP1 PUSH2 0xF5C JUMP JUMPDEST PUSH1 0x1 PUSH1 0x1 PUSH1 0xA0 SHL SUB DUP2 AND PUSH2 0xEAC JUMPI PUSH1 0x40 MLOAD PUSH3 0x461BCD PUSH1 0xE5 SHL DUP2 MSTORE PUSH1 0x20 PUSH1 0x4 DUP3 ADD MSTORE PUSH1 0x26 PUSH1 0x24 DUP3 ADD MSTORE PUSH32 0x4F776E61626C653A206E6577206F776E657220697320746865207A65726F2061 PUSH1 0x44 DUP3 ADD MSTORE PUSH6 0x646472657373 PUSH1 0xD0 SHL PUSH1 0x64 DUP3 ADD MSTORE PUSH1 0x84 ADD PUSH2 0x104 JUMP JUMPDEST PUSH2 0x233 DUP2 JUMPDEST PUSH1 0x0 DUP1 SLOAD PUSH1 0x1 PUSH1 0x1 PUSH1 0xA0 SHL SUB DUP4 DUP2 AND PUSH1 0x1 PUSH1 0x1 PUSH1 0xA0 SHL SUB NOT DUP4 AND DUP2 OR DUP5 SSTORE PUSH1 0x40 MLOAD SWAP2 SWAP1 SWAP3 AND SWAP3 DUP4 SWAP2 PUSH32 0x8BE0079C531659141344CD1FD0A4F28419497F9722A3DAAFE3B4186F6B6457E0 SWAP2 SWAP1 LOG3 POP POP JUMP JUMPDEST PUSH1 0x0 DUP1 PUSH1 0x40 DUP4 DUP6 SUB SLT ISZERO PUSH2 0xF14 JUMPI PUSH1 0x0 DUP1 REVERT JUMPDEST POP POP DUP1 CALLDATALOAD SWAP3 PUSH1 0x20 SWAP1 SWAP2 ADD CALLDATALOAD SWAP2 POP JUMP JUMPDEST PUSH1 0x1 PUSH1 0x1 PUSH1 0xA0 SHL SUB DUP2 AND DUP2 EQ PUSH2 0x233 JUMPI PUSH1 0x0 DUP1 REVERT JUMPDEST PUSH1 0x0 PUSH1 0x20 DUP3 DUP5 SUB SLT ISZERO PUSH2 0xF4A JUMPI PUSH1 0x0 DUP1 REVERT JUMPDEST DUP2 CALLDATALOAD PUSH2 0xF55 DUP2 PUSH2 0xF23 JUMP JUMPDEST SWAP4 SWAP3 POP POP POP JUMP JUMPDEST PUSH1 0x20 DUP1 DUP3 MSTORE DUP2 DUP2 ADD MSTORE PUSH32 0x4F776E61626C653A2063616C6C6572206973206E6F7420746865206F776E6572 PUSH1 0x40 DUP3 ADD MSTORE PUSH1 0x60 ADD SWAP1 JUMP JUMPDEST PUSH1 0x0 PUSH1 0x20 DUP3 DUP5 SUB SLT ISZERO PUSH2 0xFA3 JUMPI PUSH1 0x0 DUP1 REVERT JUMPDEST POP MLOAD SWAP2 SWAP1 POP JUMP JUMPDEST PUSH1 0x0 PUSH1 0x20 DUP3 DUP5 SUB SLT ISZERO PUSH2 0xFBC JUMPI PUSH1 0x0 DUP1 REVERT JUMPDEST DUP2 MLOAD DUP1 ISZERO ISZERO DUP2 EQ PUSH2 0xF55 JUMPI PUSH1 0x0 DUP1 REVERT JUMPDEST PUSH1 0x0 PUSH1 0x20 DUP3 DUP5 SUB SLT ISZERO PUSH2 0xFDE JUMPI PUSH1 0x0 DUP1 REVERT JUMPDEST DUP2 MLOAD PUSH2 0xF55 DUP2 PUSH2 0xF23 JUMP JUMPDEST PUSH4 0x4E487B71 PUSH1 0xE0 SHL PUSH1 0x0 MSTORE PUSH1 0x11 PUSH1 0x4 MSTORE PUSH1 0x24 PUSH1 0x0 REVERT JUMPDEST PUSH1 0x0 DUP2 PUSH1 0x0 NOT DIV DUP4 GT DUP3 ISZERO ISZERO AND ISZERO PUSH2 0x1019 JUMPI PUSH2 0x1019 PUSH2 0xFE9 JUMP JUMPDEST POP MUL SWAP1 JUMP JUMPDEST PUSH4 0x4E487B71 PUSH1 0xE0 SHL PUSH1 0x0 MSTORE PUSH1 0x12 PUSH1 0x4 MSTORE PUSH1 0x24 PUSH1 0x0 REVERT JUMPDEST PUSH1 0x0 DUP3 PUSH2 0x1043 JUMPI PUSH2 0x1043 PUSH2 0x101E JUMP JUMPDEST POP DIV SWAP1 JUMP JUMPDEST PUSH1 0x0 DUP3 DUP3 LT ISZERO PUSH2 0x105A JUMPI PUSH2 0x105A PUSH2 0xFE9 JUMP JUMPDEST POP SUB SWAP1 JUMP JUMPDEST PUSH1 0x0 DUP3 PUSH2 0x106E JUMPI PUSH2 0x106E PUSH2 0x101E JUMP JUMPDEST POP MOD SWAP1 JUMP INVALID LOG2 PUSH5 0x6970667358 0x22 SLT KECCAK256 CALLDATALOAD XOR DIV EQ JUMPI MUL STATICCALL SWAP12 DUP13 DIV 0x4F PUSH32 0x7E663E9124E7F37A5FDF7E16E9512C8C24762B5564736F6C634300080C003300 ",
  "sha1": "7b0a71f12e7dd70fc48bff0652e785a4afff45c8",
  "source": "pragma solidity ^0.8.0;\n// SPDX-License-Identifier: UNLICENSED\n\n// This will be where wizards receive ecosystem tokens\nimport \"./interfaces/IERC20.sol\";\n//import \"./interfaces/IERC721.sol\";\nimport \"./RelativeTimeVault.sol\";\nimport \"./WizardTower.sol\";\nimport \"./helpers/ReentrancyGuard.sol\";\n//import \"./Wizards.sol\";\n\n\ncontract WizardBattle is Ownable, ReentrancyGuard {\n\n    uint256 maxFloors = 10000;\n    IERC20 ecosystemToken;\n    Wizards wizardNFT;\n    WizardTower wizardTower;\n    uint256 DAOShare = 300; // out of 10,000 (100%) => 1% // percent of fee\n    uint256 attackFee = 1000; // out of 10,000 => 10%\n    uint256 dustThreshold =10000;\n\n    constructor(address _ecosystemToken, address _wizardNFT, address _wizardTower) {\n        ecosystemToken = IERC20(_ecosystemToken);\n        wizardNFT = Wizards(_wizardNFT);\n        wizardTower = WizardTower(_wizardTower);\n    }\n\n    event Attack(uint256 attackerId, uint256 defenderId, uint256 floorAttacked,\n                 uint256 netTokensGainedOrLost, uint256 result, uint256 timestamp);\n    event Capture(uint256 captured, uint256 capturer, uint256 timestamp);\n\n    ////////////////////\n    ////    Get       //\n    ////////////////////\n\n\n    ////////////////////\n    ////    Battle    //\n    ////////////////////\n\n    // todo -- decide if use Ether or ERC20 or ERC777\n    // todo -- default victory if defender  is not active\n//    function attack(uint256 _attackerId, uint256 _floor) external {\n//        require(wizardNFT.ownerOf(_attackerId)==msg.sender, \"must be NFT holder\");\n//        require(wizardTower.isOnTheTower(_attackerId), \"attacker must be on the tower\");\n//        require(wizardNFT.isActive(_attackerId), \"must be active\");\n//        require(_floor <= wizardTower.activeFloors() && _floor != 0, \"must valid floor\");\n//        uint256 occupyingWizard = wizardTower.getWizardOnFloor(_floor);\n//        uint256 tokensOnFloor = wizardTower.floorBalance(_floor);\n//        uint256 tokensWaged = wizardTower.floorBalance(_floor)*attackFee/10000;\n//        uint256 attackingFromFloor = wizardTower.wizardIdToFloor(_attackerId);\n//\n//        // 10% fee for attacking\n//        require(ecosystemToken.balanceOf(msg.sender) > tokensWaged, \"insuffcient tokens to attack\"); // only if other user is valid\n//        // send all fees to contract\n//        require(ecosystemToken.transferFrom(msg.sender, address(this), tokensWaged), \"transfer failed\"); // only if other user is valid\n//        // send non DAO fees to defenders wallet\n//        require(ecosystemToken.transfer(wizardNFT.ownerOf(occupyingWizard), tokensWaged*(10000 - DAOShare)/10000), \"transfer failed\"); // only if other user is valid\n//\n//\n//        // capture other wizard if they are not active\n//        uint256 won; // 0 => loss, 1 => win, 2 => tie?, 3 => capture\n//        if(!wizardNFT.isActive(occupyingWizard)){\n//            won = 3;\n//            // handle capture below\n//        }\n//        else {\n//            // todo -- randomness, battle dynamics\n//            won = uint256(keccak256(abi.encodePacked(msg.sender, block.timestamp, block.difficulty, _floor))) % 2;\n//        }\n//\n//        if(won!=0) {\n//            // withdraw tokens before leaving floor\n//            if(wizardTower.floorBalance(attackingFromFloor) > dustThreshold) {\n//                wizardTower.withdraw(attackingFromFloor);\n//            }\n//            // switch places\n//            wizardTower.switchFloors(attackingFromFloor, _floor);\n//            // withdraw tokens at new floor\n//            if(wizardTower.floorBalance(_floor) > dustThreshold) {\n//                wizardTower.withdraw(_floor);\n//            }\n//           // update NFT stats for wons/loses/tokens\n//        }\n//        else {\n//            // nothing else to do\n//        }\n//\n//        if(won==3){\n//            // kick wizard off tower\n//            wizardTower.captureFloor(attackingFromFloor); // wizard now resides on other floor\n//            emit Capture(occupyingWizard,_attackerId, block.timestamp);\n//\n//        }\n//\n//        wizardNFT.reportBattle(_attackerId, occupyingWizard, won, tokensOnFloor, tokensWaged);\n//\n//        uint256 tokensWonOrLost = (won == 1) || ( won== 3 ) ?  tokensOnFloor - tokensWaged : tokensWaged;\n//        emit Attack(_attackerId, occupyingWizard, _floor, tokensWonOrLost, won, block.timestamp);\n//    }\n    // use Eth\n    // refund extra eth if sent too much\n    // todo-- how to deal with tower prices moving up/down?\n    // send 15%, get refund if over\n    function attack(uint256 _attackerId, uint256 _floor) external payable nonReentrant {\n        require(msg.sender == tx.origin, \"can not call via contract\");\n        require(wizardNFT.ownerOf(_attackerId)==msg.sender, \"must be NFT holder\");\n        require(wizardTower.isOnTheTower(_attackerId), \"attacker must be on the tower\");\n        require(wizardNFT.isActive(_attackerId), \"must be active\");\n        require(_floor <= wizardTower.activeFloors() && _floor != 0, \"must valid floor\");\n        uint256 occupyingWizard = wizardTower.getWizardOnFloor(_floor);\n        uint256 tokensOnFloor = wizardTower.floorBalance(_floor);\n        uint256 ethValueOfTokensOnFloor = 10000; // todo -- use dex to calculate this\n//        uint256 tokensWaged = msg.value;\n        uint256 attackingFromFloor = wizardTower.wizardIdToFloor(_attackerId);\n\n        // 10% fee for attacking\n        require(ethValueOfTokensOnFloor*attackFee/10000 <= msg.value, \"insuffcient tokens to attack\"); // only if other user is valid\n\n        // send extra back\n        if((msg.value - ethValueOfTokensOnFloor*attackFee/10000) > dustThreshold){\n            (bool _success, ) = msg.sender.call{value: msg.value - ethValueOfTokensOnFloor*attackFee/10000}(\"\");\n        }\n\n        // send Eth to defender\n        (bool _success, ) = wizardNFT.ownerOf(occupyingWizard).call{value: ethValueOfTokensOnFloor*attackFee*(10000 - DAOShare)/(10**8)}(\"\");\n\n        // capture other wizard if they are not active\n        uint256 won; // 0 => loss, 1 => win, 2 => tie?, 3 => capture\n        if(!wizardNFT.isActive(occupyingWizard)){\n            won = 3;\n            // handle capture below\n        }\n        else {\n            // todo -- randomness, battle dynamics\n            won = uint256(keccak256(abi.encodePacked(msg.sender, block.timestamp, block.difficulty, _floor))) % 2;\n        }\n\n        if(won!=0) {\n            // withdraw tokens before leaving floor\n            if(wizardTower.floorBalance(attackingFromFloor) > dustThreshold) {\n                wizardTower.withdraw(attackingFromFloor);\n            }\n            // switch places\n            wizardTower.switchFloors(attackingFromFloor, _floor);\n            // withdraw tokens at new floor\n            if(wizardTower.floorBalance(_floor) > dustThreshold) {\n                wizardTower.withdraw(_floor);\n            }\n           // update NFT stats for wons/loses/tokens\n        }\n        else {\n            // nothing else to do\n        }\n\n        if(won==3){\n            // kick wizard off tower\n            wizardTower.captureFloor(attackingFromFloor); // wizard now resides on other floor\n            emit Capture(occupyingWizard,_attackerId, block.timestamp);\n\n        }\n\n        wizardNFT.reportBattle(_attackerId, occupyingWizard, won, tokensOnFloor, msg.value);\n\n        uint256 tokensWonOrLost = (won == 1) || ( won== 3 ) ?  tokensOnFloor*(10000 - attackFee)/10000 : ethValueOfTokensOnFloor*attackFee/10000;\n        emit Attack(_attackerId, occupyingWizard, _floor, tokensWonOrLost, won, block.timestamp);\n    }\n\n\n\n    ////////////////////\n    ////    Admin     //\n    ////////////////////\n    function withdraw() external onlyOwner {\n        uint256 tokens = wizardNFT.balanceOf(address(this));\n        require(ecosystemToken.transfer(msg.sender,tokens), \"transfer failed\"); // only if other user is valid\n    }\n\n\n\n}\n",
  "sourcePath": "contracts/WizardBattle.sol",
  "type": "contract"
}