{
  "abi": [
    {
      "inputs": [
        {
          "internalType": "string",
          "name": "name_",
          "type": "string"
        },
        {
          "internalType": "string",
          "name": "symbol_",
          "type": "string"
        },
        {
          "internalType": "address",
          "name": "_address",
          "type": "address"
        }
      ],
      "stateMutability": "nonpayable",
      "type": "constructor"
    },
    {
      "anonymous": false,
      "inputs": [
        {
          "indexed": true,
          "internalType": "address",
          "name": "owner",
          "type": "address"
        },
        {
          "indexed": true,
          "internalType": "address",
          "name": "approved",
          "type": "address"
        },
        {
          "indexed": true,
          "internalType": "uint256",
          "name": "tokenId",
          "type": "uint256"
        }
      ],
      "name": "Approval",
      "type": "event"
    },
    {
      "anonymous": false,
      "inputs": [
        {
          "indexed": true,
          "internalType": "address",
          "name": "owner",
          "type": "address"
        },
        {
          "indexed": true,
          "internalType": "address",
          "name": "operator",
          "type": "address"
        },
        {
          "indexed": false,
          "internalType": "bool",
          "name": "approved",
          "type": "bool"
        }
      ],
      "name": "ApprovalForAll",
      "type": "event"
    },
    {
      "anonymous": false,
      "inputs": [
        {
          "indexed": false,
          "internalType": "address",
          "name": "initiater",
          "type": "address"
        },
        {
          "indexed": true,
          "internalType": "uint256",
          "name": "wizardId",
          "type": "uint256"
        },
        {
          "indexed": false,
          "internalType": "uint256",
          "name": "timestamp",
          "type": "uint256"
        }
      ],
      "name": "Initiated",
      "type": "event"
    },
    {
      "anonymous": false,
      "inputs": [
        {
          "indexed": false,
          "internalType": "address",
          "name": "verifier",
          "type": "address"
        }
      ],
      "name": "NewBattler",
      "type": "event"
    },
    {
      "anonymous": false,
      "inputs": [
        {
          "indexed": false,
          "internalType": "address",
          "name": "battler",
          "type": "address"
        }
      ],
      "name": "NewVerifier",
      "type": "event"
    },
    {
      "anonymous": false,
      "inputs": [
        {
          "indexed": true,
          "internalType": "address",
          "name": "previousOwner",
          "type": "address"
        },
        {
          "indexed": true,
          "internalType": "address",
          "name": "newOwner",
          "type": "address"
        }
      ],
      "name": "OwnershipTransferred",
      "type": "event"
    },
    {
      "anonymous": false,
      "inputs": [
        {
          "indexed": true,
          "internalType": "address",
          "name": "from",
          "type": "address"
        },
        {
          "indexed": true,
          "internalType": "address",
          "name": "to",
          "type": "address"
        },
        {
          "indexed": true,
          "internalType": "uint256",
          "name": "tokenId",
          "type": "uint256"
        }
      ],
      "name": "Transfer",
      "type": "event"
    },
    {
      "inputs": [
        {
          "internalType": "address",
          "name": "to",
          "type": "address"
        },
        {
          "internalType": "uint256",
          "name": "tokenId",
          "type": "uint256"
        }
      ],
      "name": "approve",
      "outputs": [],
      "stateMutability": "nonpayable",
      "type": "function"
    },
    {
      "inputs": [
        {
          "internalType": "address",
          "name": "owner",
          "type": "address"
        }
      ],
      "name": "balanceOf",
      "outputs": [
        {
          "internalType": "uint256",
          "name": "",
          "type": "uint256"
        }
      ],
      "stateMutability": "view",
      "type": "function"
    },
    {
      "inputs": [],
      "name": "battler",
      "outputs": [
        {
          "internalType": "address",
          "name": "",
          "type": "address"
        }
      ],
      "stateMutability": "view",
      "type": "function"
    },
    {
      "inputs": [],
      "name": "contractSettings",
      "outputs": [
        {
          "internalType": "uint256",
          "name": "mintCost",
          "type": "uint256"
        },
        {
          "internalType": "uint256",
          "name": "initiationCost",
          "type": "uint256"
        },
        {
          "internalType": "uint256",
          "name": "maxSupply",
          "type": "uint256"
        },
        {
          "internalType": "uint256",
          "name": "protectionTimeExtension",
          "type": "uint256"
        },
        {
          "internalType": "address",
          "name": "ecosystemTokenAddress",
          "type": "address"
        }
      ],
      "stateMutability": "view",
      "type": "function"
    },
    {
      "inputs": [
        {
          "internalType": "uint256",
          "name": "_tokenId",
          "type": "uint256"
        }
      ],
      "name": "crush",
      "outputs": [],
      "stateMutability": "nonpayable",
      "type": "function"
    },
    {
      "inputs": [
        {
          "internalType": "uint256",
          "name": "_tokenId",
          "type": "uint256"
        },
        {
          "internalType": "string",
          "name": "imageURI",
          "type": "string"
        }
      ],
      "name": "formatTokenURI",
      "outputs": [
        {
          "internalType": "string",
          "name": "",
          "type": "string"
        }
      ],
      "stateMutability": "view",
      "type": "function"
    },
    {
      "inputs": [
        {
          "internalType": "uint256",
          "name": "tokenId",
          "type": "uint256"
        }
      ],
      "name": "getApproved",
      "outputs": [
        {
          "internalType": "address",
          "name": "",
          "type": "address"
        }
      ],
      "stateMutability": "view",
      "type": "function"
    },
    {
      "inputs": [
        {
          "internalType": "uint256",
          "name": "_tokenId",
          "type": "uint256"
        }
      ],
      "name": "getIsDeserted",
      "outputs": [
        {
          "internalType": "bool",
          "name": "",
          "type": "bool"
        }
      ],
      "stateMutability": "nonpayable",
      "type": "function"
    },
    {
      "inputs": [
        {
          "internalType": "uint256",
          "name": "_tokenId",
          "type": "uint256"
        }
      ],
      "name": "getPhaseOf",
      "outputs": [
        {
          "internalType": "uint256",
          "name": "",
          "type": "uint256"
        }
      ],
      "stateMutability": "nonpayable",
      "type": "function"
    },
    {
      "inputs": [
        {
          "internalType": "uint256",
          "name": "_wizardId",
          "type": "uint256"
        }
      ],
      "name": "getStatsGivenId",
      "outputs": [
        {
          "components": [
            {
              "internalType": "uint256",
              "name": "level",
              "type": "uint256"
            },
            {
              "internalType": "uint256",
              "name": "hp",
              "type": "uint256"
            },
            {
              "internalType": "uint256",
              "name": "magicalPower",
              "type": "uint256"
            },
            {
              "internalType": "uint256",
              "name": "magicalDefense",
              "type": "uint256"
            },
            {
              "internalType": "uint256",
              "name": "speed",
              "type": "uint256"
            },
            {
              "internalType": "uint256",
              "name": "wins",
              "type": "uint256"
            },
            {
              "internalType": "uint256",
              "name": "losses",
              "type": "uint256"
            },
            {
              "internalType": "uint256",
              "name": "battles",
              "type": "uint256"
            },
            {
              "internalType": "uint256",
              "name": "tokensClaimed",
              "type": "uint256"
            },
            {
              "internalType": "uint256",
              "name": "goodness",
              "type": "uint256"
            },
            {
              "internalType": "uint256",
              "name": "badness",
              "type": "uint256"
            },
            {
              "internalType": "uint256",
              "name": "initiationTimestamp",
              "type": "uint256"
            },
            {
              "internalType": "uint256",
              "name": "protectedUntilTimestamp",
              "type": "uint256"
            },
            {
              "internalType": "enum Wizards.ELEMENT",
              "name": "element",
              "type": "uint8"
            }
          ],
          "internalType": "struct Wizards.Stats",
          "name": "",
          "type": "tuple"
        }
      ],
      "stateMutability": "view",
      "type": "function"
    },
    {
      "inputs": [
        {
          "internalType": "uint256",
          "name": "_tokenId",
          "type": "uint256"
        }
      ],
      "name": "initiate",
      "outputs": [],
      "stateMutability": "nonpayable",
      "type": "function"
    },
    {
      "inputs": [
        {
          "internalType": "uint256",
          "name": "_wizardId",
          "type": "uint256"
        }
      ],
      "name": "isActive",
      "outputs": [
        {
          "internalType": "bool",
          "name": "",
          "type": "bool"
        }
      ],
      "stateMutability": "view",
      "type": "function"
    },
    {
      "inputs": [
        {
          "internalType": "address",
          "name": "owner",
          "type": "address"
        },
        {
          "internalType": "address",
          "name": "operator",
          "type": "address"
        }
      ],
      "name": "isApprovedForAll",
      "outputs": [
        {
          "internalType": "bool",
          "name": "",
          "type": "bool"
        }
      ],
      "stateMutability": "view",
      "type": "function"
    },
    {
      "inputs": [],
      "name": "mint",
      "outputs": [],
      "stateMutability": "nonpayable",
      "type": "function"
    },
    {
      "inputs": [],
      "name": "name",
      "outputs": [
        {
          "internalType": "string",
          "name": "",
          "type": "string"
        }
      ],
      "stateMutability": "view",
      "type": "function"
    },
    {
      "inputs": [],
      "name": "owner",
      "outputs": [
        {
          "internalType": "address",
          "name": "",
          "type": "address"
        }
      ],
      "stateMutability": "view",
      "type": "function"
    },
    {
      "inputs": [
        {
          "internalType": "uint256",
          "name": "tokenId",
          "type": "uint256"
        }
      ],
      "name": "ownerOf",
      "outputs": [
        {
          "internalType": "address",
          "name": "",
          "type": "address"
        }
      ],
      "stateMutability": "view",
      "type": "function"
    },
    {
      "inputs": [],
      "name": "renounceOwnership",
      "outputs": [],
      "stateMutability": "nonpayable",
      "type": "function"
    },
    {
      "inputs": [
        {
          "internalType": "uint256",
          "name": "_attackerId",
          "type": "uint256"
        },
        {
          "internalType": "uint256",
          "name": "_defenderId",
          "type": "uint256"
        },
        {
          "internalType": "enum Wizards.OUTCOME",
          "name": "outcome",
          "type": "uint8"
        },
        {
          "internalType": "uint256",
          "name": "_tokensWon",
          "type": "uint256"
        },
        {
          "internalType": "uint256",
          "name": "_tokensWaged",
          "type": "uint256"
        }
      ],
      "name": "reportBattle",
      "outputs": [],
      "stateMutability": "nonpayable",
      "type": "function"
    },
    {
      "inputs": [
        {
          "internalType": "address",
          "name": "from",
          "type": "address"
        },
        {
          "internalType": "address",
          "name": "to",
          "type": "address"
        },
        {
          "internalType": "uint256",
          "name": "tokenId",
          "type": "uint256"
        }
      ],
      "name": "safeTransferFrom",
      "outputs": [],
      "stateMutability": "nonpayable",
      "type": "function"
    },
    {
      "inputs": [
        {
          "internalType": "address",
          "name": "from",
          "type": "address"
        },
        {
          "internalType": "address",
          "name": "to",
          "type": "address"
        },
        {
          "internalType": "uint256",
          "name": "tokenId",
          "type": "uint256"
        },
        {
          "internalType": "bytes",
          "name": "_data",
          "type": "bytes"
        }
      ],
      "name": "safeTransferFrom",
      "outputs": [],
      "stateMutability": "nonpayable",
      "type": "function"
    },
    {
      "inputs": [
        {
          "internalType": "address",
          "name": "operator",
          "type": "address"
        },
        {
          "internalType": "bool",
          "name": "approved",
          "type": "bool"
        }
      ],
      "name": "setApprovalForAll",
      "outputs": [],
      "stateMutability": "nonpayable",
      "type": "function"
    },
    {
      "inputs": [
        {
          "internalType": "bytes4",
          "name": "interfaceId",
          "type": "bytes4"
        }
      ],
      "name": "supportsInterface",
      "outputs": [
        {
          "internalType": "bool",
          "name": "",
          "type": "bool"
        }
      ],
      "stateMutability": "view",
      "type": "function"
    },
    {
      "inputs": [],
      "name": "symbol",
      "outputs": [
        {
          "internalType": "string",
          "name": "",
          "type": "string"
        }
      ],
      "stateMutability": "view",
      "type": "function"
    },
    {
      "inputs": [
        {
          "internalType": "uint256",
          "name": "index",
          "type": "uint256"
        }
      ],
      "name": "tokenByIndex",
      "outputs": [
        {
          "internalType": "uint256",
          "name": "",
          "type": "uint256"
        }
      ],
      "stateMutability": "view",
      "type": "function"
    },
    {
      "inputs": [
        {
          "internalType": "uint256",
          "name": "",
          "type": "uint256"
        }
      ],
      "name": "tokenIdToStats",
      "outputs": [
        {
          "internalType": "uint256",
          "name": "level",
          "type": "uint256"
        },
        {
          "internalType": "uint256",
          "name": "hp",
          "type": "uint256"
        },
        {
          "internalType": "uint256",
          "name": "magicalPower",
          "type": "uint256"
        },
        {
          "internalType": "uint256",
          "name": "magicalDefense",
          "type": "uint256"
        },
        {
          "internalType": "uint256",
          "name": "speed",
          "type": "uint256"
        },
        {
          "internalType": "uint256",
          "name": "wins",
          "type": "uint256"
        },
        {
          "internalType": "uint256",
          "name": "losses",
          "type": "uint256"
        },
        {
          "internalType": "uint256",
          "name": "battles",
          "type": "uint256"
        },
        {
          "internalType": "uint256",
          "name": "tokensClaimed",
          "type": "uint256"
        },
        {
          "internalType": "uint256",
          "name": "goodness",
          "type": "uint256"
        },
        {
          "internalType": "uint256",
          "name": "badness",
          "type": "uint256"
        },
        {
          "internalType": "uint256",
          "name": "initiationTimestamp",
          "type": "uint256"
        },
        {
          "internalType": "uint256",
          "name": "protectedUntilTimestamp",
          "type": "uint256"
        },
        {
          "internalType": "enum Wizards.ELEMENT",
          "name": "element",
          "type": "uint8"
        }
      ],
      "stateMutability": "view",
      "type": "function"
    },
    {
      "inputs": [
        {
          "internalType": "address",
          "name": "owner",
          "type": "address"
        },
        {
          "internalType": "uint256",
          "name": "index",
          "type": "uint256"
        }
      ],
      "name": "tokenOfOwnerByIndex",
      "outputs": [
        {
          "internalType": "uint256",
          "name": "",
          "type": "uint256"
        }
      ],
      "stateMutability": "view",
      "type": "function"
    },
    {
      "inputs": [
        {
          "internalType": "uint256",
          "name": "_tokenId",
          "type": "uint256"
        }
      ],
      "name": "tokenURI",
      "outputs": [
        {
          "internalType": "string",
          "name": "",
          "type": "string"
        }
      ],
      "stateMutability": "view",
      "type": "function"
    },
    {
      "inputs": [],
      "name": "totalSupply",
      "outputs": [
        {
          "internalType": "uint256",
          "name": "",
          "type": "uint256"
        }
      ],
      "stateMutability": "view",
      "type": "function"
    },
    {
      "inputs": [
        {
          "internalType": "address",
          "name": "from",
          "type": "address"
        },
        {
          "internalType": "address",
          "name": "to",
          "type": "address"
        },
        {
          "internalType": "uint256",
          "name": "tokenId",
          "type": "uint256"
        }
      ],
      "name": "transferFrom",
      "outputs": [],
      "stateMutability": "nonpayable",
      "type": "function"
    },
    {
      "inputs": [
        {
          "internalType": "address",
          "name": "newOwner",
          "type": "address"
        }
      ],
      "name": "transferOwnership",
      "outputs": [],
      "stateMutability": "nonpayable",
      "type": "function"
    },
    {
      "inputs": [
        {
          "internalType": "address",
          "name": "_battler",
          "type": "address"
        }
      ],
      "name": "updateBattler",
      "outputs": [],
      "stateMutability": "nonpayable",
      "type": "function"
    },
    {
      "inputs": [
        {
          "internalType": "address",
          "name": "_verifier",
          "type": "address"
        }
      ],
      "name": "updateVerifier",
      "outputs": [],
      "stateMutability": "nonpayable",
      "type": "function"
    },
    {
      "inputs": [],
      "name": "verifier",
      "outputs": [
        {
          "internalType": "address",
          "name": "",
          "type": "address"
        }
      ],
      "stateMutability": "view",
      "type": "function"
    },
    {
      "inputs": [
        {
          "internalType": "uint256",
          "name": "_tokenId",
          "type": "uint256"
        }
      ],
      "name": "verifyDuty",
      "outputs": [],
      "stateMutability": "nonpayable",
      "type": "function"
    }
  ],
  "bytecode": "60806040523480156200001157600080fd5b50604051620031a9380380620031a9833981016040819052620000349162000289565b8251839083906200004d90600090602085019062000116565b5080516200006390600190602084019062000116565b505050620000806200007a620000c060201b60201c565b620000c4565b6127106010556001600f556005600e5562015180601155601280546001600160a01b0319166001600160a01b039290921691909117905550620003539050565b3390565b600a80546001600160a01b038381166001600160a01b0319831681179093556040519116919082907f8be0079c531659141344cd1fd0a4f28419497f9722a3daafe3b4186f6b6457e090600090a35050565b828054620001249062000316565b90600052602060002090601f01602090048101928262000148576000855562000193565b82601f106200016357805160ff191683800117855562000193565b8280016001018555821562000193579182015b828111156200019357825182559160200191906001019062000176565b50620001a1929150620001a5565b5090565b5b80821115620001a15760008155600101620001a6565b634e487b7160e01b600052604160045260246000fd5b600082601f830112620001e457600080fd5b81516001600160401b0380821115620002015762000201620001bc565b604051601f8301601f19908116603f011681019082821181831017156200022c576200022c620001bc565b816040528381526020925086838588010111156200024957600080fd5b600091505b838210156200026d57858201830151818301840152908201906200024e565b838211156200027f5760008385830101525b9695505050505050565b6000806000606084860312156200029f57600080fd5b83516001600160401b0380821115620002b757600080fd5b620002c587838801620001d2565b94506020860151915080821115620002dc57600080fd5b50620002eb86828701620001d2565b604086015190935090506001600160a01b03811681146200030b57600080fd5b809150509250925092565b600181811c908216806200032b57607f821691505b602082108114156200034d57634e487b7160e01b600052602260045260246000fd5b50919050565b612e4680620003636000396000f3fe608060405234801561001057600080fd5b50600436106102115760003560e01c806370a0823111610125578063a22cb465116100ad578063c87bfc7f1161007c578063c87bfc7f14610469578063db2a0a5514610502578063e52e324914610556578063e985e9c514610569578063f2fde38b146105a557600080fd5b8063a22cb4651461041d578063b88d4fde14610430578063bc0b0d8814610443578063c87b56dd1461045657600080fd5b806382afd23b116100f457806382afd23b146103ac5780638cb22518146103d15780638da5cb5b146103f157806395d89b411461040257806397fc007c1461040a57600080fd5b806370a082311461036b578063715018a61461037e5780637901ea78146103865780638140bd0b1461039957600080fd5b80631249c58b116101a85780632f745c59116101775780632f745c591461031f57806342842e0e14610332578063437454b9146102d65780634f6ccce7146103455780636352211e1461035857600080fd5b80631249c58b146102e957806318160ddd146102f157806323b872dd146102f95780632b7ac3f31461030c57600080fd5b8063081812fc116101e4578063081812fc14610288578063095ea7b3146102b35780630a363d08146102c85780630c457ce4146102d657600080fd5b806301ffc9a7146102165780630419e3141461023e578063051063531461025e57806306fdde0314610280575b600080fd5b6102296102243660046121d2565b6105b8565b60405190151581526020015b60405180910390f35b61025161024c366004612282565b6105e3565b6040516102359190612335565b61027261026c366004612348565b50600090565b604051908152602001610235565b6102516107f6565b61029b610296366004612348565b610888565b6040516001600160a01b039091168152602001610235565b6102c66102c136600461237d565b610922565b005b61022961026c366004612348565b6102c66102e4366004612348565b610a38565b6102c6610a7b565b600854610272565b6102c66103073660046123a7565b610d53565b600d5461029b906001600160a01b031681565b61027261032d36600461237d565b610d84565b6102c66103403660046123a7565b610e1a565b610272610353366004612348565b610e35565b61029b610366366004612348565b610ec8565b6102726103793660046123e3565b610f3f565b6102c6610fc6565b6102c6610394366004612348565b610ffc565b6102c66103a73660046123fe565b61110a565b6102296103ba366004612348565b6000908152600b60205260409020600c0154421090565b6103e46103df366004612348565b611274565b6040516102359190612483565b600a546001600160a01b031661029b565b61025161135b565b6102c66104183660046123e3565b61136a565b6102c661042b36600461252d565b611456565b6102c661043e366004612569565b61151b565b600c5461029b906001600160a01b031681565b610251610464366004612348565b611553565b6104e8610477366004612348565b600b60208190526000918252604090912080546001820154600283015460038401546004850154600586015460068701546007880154600889015460098a0154600a8b01549b8b0154600c8c0154600d909c01549a9c999b989a979996989597949693959294919392909160ff168e565b6040516102359e9d9c9b9a999897969594939291906125e5565b600e54600f5460105460115460125461052594939291906001600160a01b031685565b6040805195865260208601949094529284019190915260608301526001600160a01b0316608082015260a001610235565b6102c66105643660046123e3565b6115f4565b61022961057736600461265f565b6001600160a01b03918216600090815260056020908152604080832093909416825291909152205460ff1690565b6102c66105b33660046123e3565b6116d9565b60006001600160e01b0319821663780e9d6360e01b14806105dd57506105dd82611771565b92915050565b60606000600b6000858152602001908152602001600020604051806101c001604052908160008201548152602001600182015481526020016002820154815260200160038201548152602001600482015481526020016005820154815260200160068201548152602001600782015481526020016008820154815260200160098201548152602001600a8201548152602001600b8201548152602001600c8201548152602001600d820160009054906101000a900460ff1660038111156106ac576106ac61244b565b60038111156106bd576106bd61244b565b8152505090506000836106d383600001516117c1565b6040516020016106e49291906126ae565b60405160208183030381529060405290508061070383602001516117c1565b61071084604001516117c1565b61071d85606001516117c1565b6040516020016107309493929190612808565b60405160208183030381529060405290508061074f83608001516117c1565b61075c8460a001516117c1565b60405160200161076e9392919061293a565b60405160208183030381529060405290508061078d8360c001516117c1565b61079a8460e001516117c1565b6107a88561010001516117c1565b6040516020016107bb9493929190612a17565b6040516020818303038152906040529050806040516020016107dd9190612b2d565b60408051808303601f1901815291905295945050505050565b60606000805461080590612b5c565b80601f016020809104026020016040519081016040528092919081815260200182805461083190612b5c565b801561087e5780601f106108535761010080835404028352916020019161087e565b820191906000526020600020905b81548152906001019060200180831161086157829003601f168201915b5050505050905090565b6000818152600260205260408120546001600160a01b03166109065760405162461bcd60e51b815260206004820152602c60248201527f4552433732313a20617070726f76656420717565727920666f72206e6f6e657860448201526b34b9ba32b73a103a37b5b2b760a11b60648201526084015b60405180910390fd5b506000908152600460205260409020546001600160a01b031690565b600061092d82610ec8565b9050806001600160a01b0316836001600160a01b0316141561099b5760405162461bcd60e51b815260206004820152602160248201527f4552433732313a20617070726f76616c20746f2063757272656e74206f776e656044820152603960f91b60648201526084016108fd565b336001600160a01b03821614806109b757506109b78133610577565b610a295760405162461bcd60e51b815260206004820152603860248201527f4552433732313a20617070726f76652063616c6c6572206973206e6f74206f7760448201527f6e6572206e6f7220617070726f76656420666f7220616c6c000000000000000060648201526084016108fd565b610a3383836118c7565b505050565b33301415610a785760405162461bcd60e51b815260206004820152600d60248201526c37b7363c903b32b934b334b2b960991b60448201526064016108fd565b50565b60105460085410610abf5760405162461bcd60e51b815260206004820152600e60248201526d30ba1036b0bc1039bab838363c9760911b60448201526064016108fd565b6000610aca60085490565b6040805160208101929092526bffffffffffffffffffffffff193360601b169082015242605482015260740160408051601f19818403018152919052805160209091012090506000610b1d601a83612bad565b610b28906019612bd7565b90506000601a610b39606485612bef565b610b439190612bad565b610b4e906019612bd7565b90506000600a610b5e8186612bef565b610b69906004612c03565b610b739190612bad565b610b7e90600a612bd7565b90506000600a610b8e8187612bef565b610b99906005612c03565b610ba39190612bad565b610bae90600a612bd7565b905060006004610bbf600a88612bef565b610bca906006612c03565b610bd49190612bad565b6003811115610be557610be561244b565b90506000604051806101c00160405280600181526020018781526020018681526020018581526020018481526020016000815260200160008152602001600081526020016000815260200160008152602001600081526020016000815260200160008152602001836003811115610c5e57610c5e61244b565b9052905080600b6000610c7060085490565b8152602001908152602001600020600082015181600001556020820151816001015560408201518160020155606082015181600301556080820151816004015560a0820151816005015560c0820151816006015560e082015181600701556101008201518160080155610120820151816009015561014082015181600a015561016082015181600b015561018082015181600c01556101a082015181600d0160006101000a81548160ff02191690836003811115610d3057610d3061244b565b0217905550905050610d4a33610d4560085490565b611935565b50505050505050565b610d5d3382611953565b610d795760405162461bcd60e51b81526004016108fd90612c22565b610a33838383611a46565b6000610d8f83610f3f565b8210610df15760405162461bcd60e51b815260206004820152602b60248201527f455243373231456e756d657261626c653a206f776e657220696e646578206f7560448201526a74206f6620626f756e647360a81b60648201526084016108fd565b506001600160a01b03919091166000908152600660209081526040808320938352929052205490565b610a338383836040518060200160405280600081525061151b565b6000610e4060085490565b8210610ea35760405162461bcd60e51b815260206004820152602c60248201527f455243373231456e756d657261626c653a20676c6f62616c20696e646578206f60448201526b7574206f6620626f756e647360a01b60648201526084016108fd565b60088281548110610eb657610eb6612c73565b90600052602060002001549050919050565b6000818152600260205260408120546001600160a01b0316806105dd5760405162461bcd60e51b815260206004820152602960248201527f4552433732313a206f776e657220717565727920666f72206e6f6e657869737460448201526832b73a103a37b5b2b760b91b60648201526084016108fd565b60006001600160a01b038216610faa5760405162461bcd60e51b815260206004820152602a60248201527f4552433732313a2062616c616e636520717565727920666f7220746865207a65604482015269726f206164647265737360b01b60648201526084016108fd565b506001600160a01b031660009081526003602052604090205490565b600a546001600160a01b03163314610ff05760405162461bcd60e51b81526004016108fd90612c89565b610ffa6000611bf1565b565b3361100682610ec8565b6001600160a01b03161461104c5760405162461bcd60e51b815260206004820152600d60248201526c36bab9ba1031329037bbb732b960991b60448201526064016108fd565b6000818152600b602081905260409091200154156110a05760405162461bcd60e51b8152602060048201526011602482015270185b1c9958591e481a5b9a5d1a585d1959607a1b60448201526064016108fd565b6000818152600b602081905260409091204291810182905560115490916110c79190612bd7565b600c8201556040805133815242602082015283917f1782b66bbe30900ee88feab2f2cd676d136386cc51cdf73f6cae8b1da253ddf7910160405180910390a25050565b600c546001600160a01b031633146111705760405162461bcd60e51b8152602060048201526024808201527f4f6e6c7920626174746c65722063616e2063616c6c20746869732066756e637460448201526334b7b71760e11b60648201526084016108fd565b60018360038111156111845761118461244b565b14156111de576000858152600b602052604081206005018054600192906111ac908490612bd7565b90915550506000848152600b602052604081206006018054600192906111d3908490612bd7565b909155506112479050565b60008360038111156111f2576111f261244b565b1415611247576000858152600b6020526040812060060180546001929061121a908490612bd7565b90915550506000848152600b60205260408120600501805460019290611241908490612bd7565b90915550505b6000858152600b602052604081206008018054849290611268908490612bd7565b90915550505050505050565b61127c61213d565b600b6000838152602001908152602001600020604051806101c001604052908160008201548152602001600182015481526020016002820154815260200160038201548152602001600482015481526020016005820154815260200160068201548152602001600782015481526020016008820154815260200160098201548152602001600a8201548152602001600b8201548152602001600c8201548152602001600d820160009054906101000a900460ff1660038111156113415761134161244b565b60038111156113525761135261244b565b90525092915050565b60606001805461080590612b5c565b600a546001600160a01b031633146113945760405162461bcd60e51b81526004016108fd90612c89565b6001600160a01b038116158015906113ba5750600d546001600160a01b03828116911614155b6114015760405162461bcd60e51b8152602060048201526018602482015277496e76616c6964206f70657261746f72206164647265737360401b60448201526064016108fd565b600d80546001600160a01b0319166001600160a01b0383169081179091556040519081527fa1fd6a6669acb930bae242943bb9fa08ddcba665c707261e9730ee0305fb85e5906020015b60405180910390a150565b6001600160a01b0382163314156114af5760405162461bcd60e51b815260206004820152601960248201527f4552433732313a20617070726f766520746f2063616c6c65720000000000000060448201526064016108fd565b3360008181526005602090815260408083206001600160a01b03871680855290835292819020805460ff191686151590811790915590519081529192917f17307eab39ab6107e8899845ad3d59bd9653f200f220920489ca2b5937696c31910160405180910390a35050565b6115253383611953565b6115415760405162461bcd60e51b81526004016108fd90612c22565b61154d84848484611c43565b50505050565b6000818152600260205260409020546060906001600160a01b03166115d25760405162461bcd60e51b815260206004820152602f60248201527f4552433732314d657461646174613a2055524920717565727920666f72206e6f60448201526e3732bc34b9ba32b73a103a37b5b2b760891b60648201526084016108fd565b6105dd826040518060800160405280605e8152602001612db3605e91396105e3565b600a546001600160a01b0316331461161e5760405162461bcd60e51b81526004016108fd90612c89565b6001600160a01b038116158015906116445750600c546001600160a01b03828116911614155b61168b5760405162461bcd60e51b8152602060048201526018602482015277496e76616c6964206f70657261746f72206164647265737360401b60448201526064016108fd565b600c80546001600160a01b0319166001600160a01b0383169081179091556040519081527fa6996d36756222f1028b4a1a97cbfa625158cf8e69ac5dcf367de3bd730d34a49060200161144b565b600a546001600160a01b031633146117035760405162461bcd60e51b81526004016108fd90612c89565b6001600160a01b0381166117685760405162461bcd60e51b815260206004820152602660248201527f4f776e61626c653a206e6577206f776e657220697320746865207a65726f206160448201526564647265737360d01b60648201526084016108fd565b610a7881611bf1565b60006001600160e01b031982166380ac58cd60e01b14806117a257506001600160e01b03198216635b5e139f60e01b145b806105dd57506301ffc9a760e01b6001600160e01b03198316146105dd565b6060816117e55750506040805180820190915260018152600360fc1b602082015290565b8160005b811561180f57806117f981612cbe565b91506118089050600a83612bef565b91506117e9565b60008167ffffffffffffffff81111561182a5761182a6121f6565b6040519080825280601f01601f191660200182016040528015611854576020820181803683370190505b5090505b84156118bf57611869600183612cd9565b9150611876600a86612bad565b611881906030612bd7565b60f81b81838151811061189657611896612c73565b60200101906001600160f81b031916908160001a9053506118b8600a86612bef565b9450611858565b949350505050565b600081815260046020526040902080546001600160a01b0319166001600160a01b03841690811790915581906118fc82610ec8565b6001600160a01b03167f8c5be1e5ebec7d5bd14f71427d1e84f3dd0314c0f7b2291e5b200ac8c7c3b92560405160405180910390a45050565b61194f828260405180602001604052806000815250611c76565b5050565b6000818152600260205260408120546001600160a01b03166119cc5760405162461bcd60e51b815260206004820152602c60248201527f4552433732313a206f70657261746f7220717565727920666f72206e6f6e657860448201526b34b9ba32b73a103a37b5b2b760a11b60648201526084016108fd565b60006119d783610ec8565b9050806001600160a01b0316846001600160a01b03161480611a125750836001600160a01b0316611a0784610888565b6001600160a01b0316145b806118bf57506001600160a01b0380821660009081526005602090815260408083209388168352929052205460ff166118bf565b826001600160a01b0316611a5982610ec8565b6001600160a01b031614611ac15760405162461bcd60e51b815260206004820152602960248201527f4552433732313a207472616e73666572206f6620746f6b656e2074686174206960448201526839903737ba1037bbb760b91b60648201526084016108fd565b6001600160a01b038216611b235760405162461bcd60e51b8152602060048201526024808201527f4552433732313a207472616e7366657220746f20746865207a65726f206164646044820152637265737360e01b60648201526084016108fd565b611b2e838383611ca9565b611b396000826118c7565b6001600160a01b0383166000908152600360205260408120805460019290611b62908490612cd9565b90915550506001600160a01b0382166000908152600360205260408120805460019290611b90908490612bd7565b909155505060008181526002602052604080822080546001600160a01b0319166001600160a01b0386811691821790925591518493918716917fddf252ad1be2c89b69c2b068fc378daa952ba7f163c4a11628f55a4df523b3ef91a4505050565b600a80546001600160a01b038381166001600160a01b0319831681179093556040519116919082907f8be0079c531659141344cd1fd0a4f28419497f9722a3daafe3b4186f6b6457e090600090a35050565b611c4e848484611a46565b611c5a84848484611d61565b61154d5760405162461bcd60e51b81526004016108fd90612cf0565b611c808383611e5f565b611c8d6000848484611d61565b610a335760405162461bcd60e51b81526004016108fd90612cf0565b6001600160a01b038316611d0457611cff81600880546000838152600960205260408120829055600182018355919091527ff3f7a9fe364faab93b216da50a3214154f22a0a2b415b23a84c8169e8b636ee30155565b611d27565b816001600160a01b0316836001600160a01b031614611d2757611d278382611fad565b6001600160a01b038216611d3e57610a338161204a565b826001600160a01b0316826001600160a01b031614610a3357610a3382826120f9565b60006001600160a01b0384163b15611e5457604051630a85bd0160e11b81526001600160a01b0385169063150b7a0290611da5903390899088908890600401612d42565b6020604051808303816000875af1925050508015611de0575060408051601f3d908101601f19168201909252611ddd91810190612d7f565b60015b611e3a573d808015611e0e576040519150601f19603f3d011682016040523d82523d6000602084013e611e13565b606091505b508051611e325760405162461bcd60e51b81526004016108fd90612cf0565b805181602001fd5b6001600160e01b031916630a85bd0160e11b1490506118bf565b506001949350505050565b6001600160a01b038216611eb55760405162461bcd60e51b815260206004820181905260248201527f4552433732313a206d696e7420746f20746865207a65726f206164647265737360448201526064016108fd565b6000818152600260205260409020546001600160a01b031615611f1a5760405162461bcd60e51b815260206004820152601c60248201527f4552433732313a20746f6b656e20616c7265616479206d696e7465640000000060448201526064016108fd565b611f2660008383611ca9565b6001600160a01b0382166000908152600360205260408120805460019290611f4f908490612bd7565b909155505060008181526002602052604080822080546001600160a01b0319166001600160a01b03861690811790915590518392907fddf252ad1be2c89b69c2b068fc378daa952ba7f163c4a11628f55a4df523b3ef908290a45050565b60006001611fba84610f3f565b611fc49190612cd9565b600083815260076020526040902054909150808214612017576001600160a01b03841660009081526006602090815260408083208584528252808320548484528184208190558352600790915290208190555b5060009182526007602090815260408084208490556001600160a01b039094168352600681528383209183525290812055565b60085460009061205c90600190612cd9565b6000838152600960205260408120546008805493945090928490811061208457612084612c73565b9060005260206000200154905080600883815481106120a5576120a5612c73565b60009182526020808320909101929092558281526009909152604080822084905585825281205560088054806120dd576120dd612d9c565b6001900381819060005260206000200160009055905550505050565b600061210483610f3f565b6001600160a01b039093166000908152600660209081526040808320868452825280832085905593825260079052919091209190915550565b604051806101c0016040528060008152602001600081526020016000815260200160008152602001600081526020016000815260200160008152602001600081526020016000815260200160008152602001600081526020016000815260200160008152602001600060038111156121b7576121b761244b565b905290565b6001600160e01b031981168114610a7857600080fd5b6000602082840312156121e457600080fd5b81356121ef816121bc565b9392505050565b634e487b7160e01b600052604160045260246000fd5b600067ffffffffffffffff80841115612227576122276121f6565b604051601f8501601f19908116603f0116810190828211818310171561224f5761224f6121f6565b8160405280935085815286868601111561226857600080fd5b858560208301376000602087830101525050509392505050565b6000806040838503121561229557600080fd5b82359150602083013567ffffffffffffffff8111156122b357600080fd5b8301601f810185136122c457600080fd5b6122d38582356020840161220c565b9150509250929050565b60005b838110156122f85781810151838201526020016122e0565b8381111561154d5750506000910152565b600081518084526123218160208601602086016122dd565b601f01601f19169290920160200192915050565b6020815260006121ef6020830184612309565b60006020828403121561235a57600080fd5b5035919050565b80356001600160a01b038116811461237857600080fd5b919050565b6000806040838503121561239057600080fd5b61239983612361565b946020939093013593505050565b6000806000606084860312156123bc57600080fd5b6123c584612361565b92506123d360208501612361565b9150604084013590509250925092565b6000602082840312156123f557600080fd5b6121ef82612361565b600080600080600060a0868803121561241657600080fd5b853594506020860135935060408601356004811061243357600080fd5b94979396509394606081013594506080013592915050565b634e487b7160e01b600052602160045260246000fd5b6004811061247f57634e487b7160e01b600052602160045260246000fd5b9052565b60006101c082019050825182526020830151602083015260408301516040830152606083015160608301526080830151608083015260a083015160a083015260c083015160c083015260e083015160e08301526101008084015181840152506101208084015181840152506101408084015181840152506101608084015181840152506101808084015181840152506101a08084015161252582850182612461565b505092915050565b6000806040838503121561254057600080fd5b61254983612361565b91506020830135801515811461255e57600080fd5b809150509250929050565b6000806000806080858703121561257f57600080fd5b61258885612361565b935061259660208601612361565b925060408501359150606085013567ffffffffffffffff8111156125b957600080fd5b8501601f810187136125ca57600080fd5b6125d98782356020840161220c565b91505092959194509250565b60006101c0820190508f82528e60208301528d60408301528c60608301528b60808301528a60a08301528960c08301528860e0830152876101008301528661012083015285610140830152846101608301528361018083015261264c6101a0830184612461565b9f9e505050505050505050505050505050565b6000806040838503121561267257600080fd5b61267b83612361565b915061268960208401612361565b90509250929050565b600081516126a48185602086016122dd565b9290920192915050565b7f7b226465736372697074696f6e223a202257697a61726441726d79220000000081527f2c202265787465726e616c5f75726c223a202268747470733a2f2f77697a6172601c8201527f6461726d794e46542e636f6d20286f7220736f6d657468696e67206c696b6520603c820152653a3434b9949160d11b605c8201526b16101134b6b0b3b2911d101160a11b6062820152825160009061275781606e8501602088016122dd565b601160f91b606e91840191820152711610113730b6b2911d10112bb4bd30b9321160711b606f8201527f2c202261747472696275746573223a205b7b22646973706c61795f747970652260818201527f3a20226e756d626572222c202274726169745f74797065223a20226c6576656c60a18201526b0111610113b30b63ab2911d160a51b60c18201526127ff6127f160cd830186612692565b61207d60f01b815260020190565b95945050505050565b6000855161281a818460208a016122dd565b80830190507f2c207b22646973706c61795f74797065223a20226e756d626572222c202274728082527f6169745f74797065223a20226870222c202276616c7565223a200000000000006020830152865161287c81603a850160208b016122dd565b61207d60f01b603a93909101928301819052603c83018290527f6169745f74797065223a20226d61676963616c20706f776572222c202276616c605c8401526403ab2911d160dd1b607c84015286516128dc816081860160208b016122dd565b608193019283015260838201527f6169745f74797065223a20226d61676963616c20646566656e7365222c20227660a382015266030b63ab2911d160cd1b60c382015261292f6127f160ca830186612692565b979650505050505050565b6000845161294c8184602089016122dd565b80830190507f2c207b22646973706c61795f74797065223a20226e756d626572222c202274728082527f6169745f74797065223a20227370656564222c202276616c7565223a20000000602083015285516129ae81603d850160208a016122dd565b80830192505061207d60f01b80603d84015281603f8401527f6169745f74797065223a20226d70222c202276616c7565223a20000000000000605f84015285519150612a018260798501602089016122dd565b60799290910191820152607b0195945050505050565b60008551612a29818460208a016122dd565b80830190507f2c207b22646973706c61795f74797065223a20226e756d626572222c202274728082527f6169745f74797065223a20226c6f73736573222c202276616c7565223a20000060208301528651612a8b81603e850160208b016122dd565b80830192505061207d60f01b80603e8401528160408401527f6169745f74797065223a2022626174746c6573222c202276616c7565223a200060608401528651612adc81607f860160208b016122dd565b607f93019283015260818201527f6169745f74797065223a2022746f6b656e73436c61696d6564222c202276616c60a18201526403ab2911d160dd1b60c182015261292f6127f160c6830186612692565b60008251612b3f8184602087016122dd565b605d60f81b920191825250607d60f81b6001820152600201919050565b600181811c90821680612b7057607f821691505b60208210811415612b9157634e487b7160e01b600052602260045260246000fd5b50919050565b634e487b7160e01b600052601260045260246000fd5b600082612bbc57612bbc612b97565b500690565b634e487b7160e01b600052601160045260246000fd5b60008219821115612bea57612bea612bc1565b500190565b600082612bfe57612bfe612b97565b500490565b6000816000190483118215151615612c1d57612c1d612bc1565b500290565b60208082526031908201527f4552433732313a207472616e736665722063616c6c6572206973206e6f74206f6040820152701ddb995c881b9bdc88185c1c1c9bdd9959607a1b606082015260800190565b634e487b7160e01b600052603260045260246000fd5b6020808252818101527f4f776e61626c653a2063616c6c6572206973206e6f7420746865206f776e6572604082015260600190565b6000600019821415612cd257612cd2612bc1565b5060010190565b600082821015612ceb57612ceb612bc1565b500390565b60208082526032908201527f4552433732313a207472616e7366657220746f206e6f6e20455243373231526560408201527131b2b4bb32b91034b6b83632b6b2b73a32b960711b606082015260800190565b6001600160a01b0385811682528416602082015260408101839052608060608201819052600090612d7590830184612309565b9695505050505050565b600060208284031215612d9157600080fd5b81516121ef816121bc565b634e487b7160e01b600052603160045260246000fdfe68747470733a2f2f6173322e667463646e2e6e65742f76322f6a70672f30332f31322f37372f30332f313030305f465f3331323737303334395f346c6b464e336532556c4f34336b516c46656d464e4970566b47355a777974712e6a7067a2646970667358221220263aa2876dc8fa5efc11877efb29d7825d8735a66f2607ffe9c55cd381e8f01e64736f6c634300080c0033",
  "bytecodeSha1": "fbe050c9c6f71134ae8fdccfeef09677427aa099",
  "compiler": {
    "evm_version": "istanbul",
    "optimizer": {
      "enabled": true,
      "runs": 200
    },
    "version": "0.8.12+commit.f00d7308"
  },
  "contractName": "Wizards",
  "language": "Solidity",
  "natspec": {
    "kind": "dev",
    "methods": {
      "approve(address,uint256)": {
        "details": "See {IERC721-approve}."
      },
      "balanceOf(address)": {
        "details": "See {IERC721-balanceOf}."
      },
      "crush(uint256)": {
        "details": "uninitiate an NFT that is negligent in duties. Reward crusher"
      },
      "getApproved(uint256)": {
        "details": "See {IERC721-getApproved}."
      },
      "getIsDeserted(uint256)": {
        "details": "check if NFT is deserted--negligent in duties."
      },
      "getPhaseOf(uint256)": {
        "details": "Gets phase of NFT"
      },
      "initiate(uint256)": {
        "details": "Moves NFT from inactive to active"
      },
      "isApprovedForAll(address,address)": {
        "details": "See {IERC721-isApprovedForAll}."
      },
      "name()": {
        "details": "See {IERC721Metadata-name}."
      },
      "owner()": {
        "details": "Returns the address of the current owner."
      },
      "ownerOf(uint256)": {
        "details": "See {IERC721-ownerOf}."
      },
      "renounceOwnership()": {
        "details": "Leaves the contract without owner. It will not be possible to call `onlyOwner` functions anymore. Can only be called by the current owner. NOTE: Renouncing ownership will leave the contract without an owner, thereby removing any functionality that is only available to the owner."
      },
      "safeTransferFrom(address,address,uint256)": {
        "details": "See {IERC721-safeTransferFrom}."
      },
      "safeTransferFrom(address,address,uint256,bytes)": {
        "details": "See {IERC721-safeTransferFrom}."
      },
      "setApprovalForAll(address,bool)": {
        "details": "See {IERC721-setApprovalForAll}."
      },
      "supportsInterface(bytes4)": {
        "details": "See {IERC165-supportsInterface}."
      },
      "symbol()": {
        "details": "See {IERC721Metadata-symbol}."
      },
      "tokenByIndex(uint256)": {
        "details": "See {IERC721Enumerable-tokenByIndex}."
      },
      "tokenOfOwnerByIndex(address,uint256)": {
        "details": "See {IERC721Enumerable-tokenOfOwnerByIndex}."
      },
      "totalSupply()": {
        "details": "See {IERC721Enumerable-totalSupply}."
      },
      "transferFrom(address,address,uint256)": {
        "details": "See {IERC721-transferFrom}."
      },
      "transferOwnership(address)": {
        "details": "Transfers ownership of the contract to a new account (`newOwner`). Can only be called by the current owner."
      },
      "verifier()": {
        "notice": "contract address to update stats"
      },
      "verifyDuty(uint256)": {
        "details": "Verify duties of NFT. Not duty specific"
      }
    },
    "version": 1
  },
  "opcodes": "PUSH1 0x80 PUSH1 0x40 MSTORE CALLVALUE DUP1 ISZERO PUSH2 0x10 JUMPI PUSH1 0x0 DUP1 REVERT JUMPDEST POP PUSH1 0x4 CALLDATASIZE LT PUSH2 0x211 JUMPI PUSH1 0x0 CALLDATALOAD PUSH1 0xE0 SHR DUP1 PUSH4 0x70A08231 GT PUSH2 0x125 JUMPI DUP1 PUSH4 0xA22CB465 GT PUSH2 0xAD JUMPI DUP1 PUSH4 0xC87BFC7F GT PUSH2 0x7C JUMPI DUP1 PUSH4 0xC87BFC7F EQ PUSH2 0x469 JUMPI DUP1 PUSH4 0xDB2A0A55 EQ PUSH2 0x502 JUMPI DUP1 PUSH4 0xE52E3249 EQ PUSH2 0x556 JUMPI DUP1 PUSH4 0xE985E9C5 EQ PUSH2 0x569 JUMPI DUP1 PUSH4 0xF2FDE38B EQ PUSH2 0x5A5 JUMPI PUSH1 0x0 DUP1 REVERT JUMPDEST DUP1 PUSH4 0xA22CB465 EQ PUSH2 0x41D JUMPI DUP1 PUSH4 0xB88D4FDE EQ PUSH2 0x430 JUMPI DUP1 PUSH4 0xBC0B0D88 EQ PUSH2 0x443 JUMPI DUP1 PUSH4 0xC87B56DD EQ PUSH2 0x456 JUMPI PUSH1 0x0 DUP1 REVERT JUMPDEST DUP1 PUSH4 0x82AFD23B GT PUSH2 0xF4 JUMPI DUP1 PUSH4 0x82AFD23B EQ PUSH2 0x3AC JUMPI DUP1 PUSH4 0x8CB22518 EQ PUSH2 0x3D1 JUMPI DUP1 PUSH4 0x8DA5CB5B EQ PUSH2 0x3F1 JUMPI DUP1 PUSH4 0x95D89B41 EQ PUSH2 0x402 JUMPI DUP1 PUSH4 0x97FC007C EQ PUSH2 0x40A JUMPI PUSH1 0x0 DUP1 REVERT JUMPDEST DUP1 PUSH4 0x70A08231 EQ PUSH2 0x36B JUMPI DUP1 PUSH4 0x715018A6 EQ PUSH2 0x37E JUMPI DUP1 PUSH4 0x7901EA78 EQ PUSH2 0x386 JUMPI DUP1 PUSH4 0x8140BD0B EQ PUSH2 0x399 JUMPI PUSH1 0x0 DUP1 REVERT JUMPDEST DUP1 PUSH4 0x1249C58B GT PUSH2 0x1A8 JUMPI DUP1 PUSH4 0x2F745C59 GT PUSH2 0x177 JUMPI DUP1 PUSH4 0x2F745C59 EQ PUSH2 0x31F JUMPI DUP1 PUSH4 0x42842E0E EQ PUSH2 0x332 JUMPI DUP1 PUSH4 0x437454B9 EQ PUSH2 0x2D6 JUMPI DUP1 PUSH4 0x4F6CCCE7 EQ PUSH2 0x345 JUMPI DUP1 PUSH4 0x6352211E EQ PUSH2 0x358 JUMPI PUSH1 0x0 DUP1 REVERT JUMPDEST DUP1 PUSH4 0x1249C58B EQ PUSH2 0x2E9 JUMPI DUP1 PUSH4 0x18160DDD EQ PUSH2 0x2F1 JUMPI DUP1 PUSH4 0x23B872DD EQ PUSH2 0x2F9 JUMPI DUP1 PUSH4 0x2B7AC3F3 EQ PUSH2 0x30C JUMPI PUSH1 0x0 DUP1 REVERT JUMPDEST DUP1 PUSH4 0x81812FC GT PUSH2 0x1E4 JUMPI DUP1 PUSH4 0x81812FC EQ PUSH2 0x288 JUMPI DUP1 PUSH4 0x95EA7B3 EQ PUSH2 0x2B3 JUMPI DUP1 PUSH4 0xA363D08 EQ PUSH2 0x2C8 JUMPI DUP1 PUSH4 0xC457CE4 EQ PUSH2 0x2D6 JUMPI PUSH1 0x0 DUP1 REVERT JUMPDEST DUP1 PUSH4 0x1FFC9A7 EQ PUSH2 0x216 JUMPI DUP1 PUSH4 0x419E314 EQ PUSH2 0x23E JUMPI DUP1 PUSH4 0x5106353 EQ PUSH2 0x25E JUMPI DUP1 PUSH4 0x6FDDE03 EQ PUSH2 0x280 JUMPI JUMPDEST PUSH1 0x0 DUP1 REVERT JUMPDEST PUSH2 0x229 PUSH2 0x224 CALLDATASIZE PUSH1 0x4 PUSH2 0x21D2 JUMP JUMPDEST PUSH2 0x5B8 JUMP JUMPDEST PUSH1 0x40 MLOAD SWAP1 ISZERO ISZERO DUP2 MSTORE PUSH1 0x20 ADD JUMPDEST PUSH1 0x40 MLOAD DUP1 SWAP2 SUB SWAP1 RETURN JUMPDEST PUSH2 0x251 PUSH2 0x24C CALLDATASIZE PUSH1 0x4 PUSH2 0x2282 JUMP JUMPDEST PUSH2 0x5E3 JUMP JUMPDEST PUSH1 0x40 MLOAD PUSH2 0x235 SWAP2 SWAP1 PUSH2 0x2335 JUMP JUMPDEST PUSH2 0x272 PUSH2 0x26C CALLDATASIZE PUSH1 0x4 PUSH2 0x2348 JUMP JUMPDEST POP PUSH1 0x0 SWAP1 JUMP JUMPDEST PUSH1 0x40 MLOAD SWAP1 DUP2 MSTORE PUSH1 0x20 ADD PUSH2 0x235 JUMP JUMPDEST PUSH2 0x251 PUSH2 0x7F6 JUMP JUMPDEST PUSH2 0x29B PUSH2 0x296 CALLDATASIZE PUSH1 0x4 PUSH2 0x2348 JUMP JUMPDEST PUSH2 0x888 JUMP JUMPDEST PUSH1 0x40 MLOAD PUSH1 0x1 PUSH1 0x1 PUSH1 0xA0 SHL SUB SWAP1 SWAP2 AND DUP2 MSTORE PUSH1 0x20 ADD PUSH2 0x235 JUMP JUMPDEST PUSH2 0x2C6 PUSH2 0x2C1 CALLDATASIZE PUSH1 0x4 PUSH2 0x237D JUMP JUMPDEST PUSH2 0x922 JUMP JUMPDEST STOP JUMPDEST PUSH2 0x229 PUSH2 0x26C CALLDATASIZE PUSH1 0x4 PUSH2 0x2348 JUMP JUMPDEST PUSH2 0x2C6 PUSH2 0x2E4 CALLDATASIZE PUSH1 0x4 PUSH2 0x2348 JUMP JUMPDEST PUSH2 0xA38 JUMP JUMPDEST PUSH2 0x2C6 PUSH2 0xA7B JUMP JUMPDEST PUSH1 0x8 SLOAD PUSH2 0x272 JUMP JUMPDEST PUSH2 0x2C6 PUSH2 0x307 CALLDATASIZE PUSH1 0x4 PUSH2 0x23A7 JUMP JUMPDEST PUSH2 0xD53 JUMP JUMPDEST PUSH1 0xD SLOAD PUSH2 0x29B SWAP1 PUSH1 0x1 PUSH1 0x1 PUSH1 0xA0 SHL SUB AND DUP2 JUMP JUMPDEST PUSH2 0x272 PUSH2 0x32D CALLDATASIZE PUSH1 0x4 PUSH2 0x237D JUMP JUMPDEST PUSH2 0xD84 JUMP JUMPDEST PUSH2 0x2C6 PUSH2 0x340 CALLDATASIZE PUSH1 0x4 PUSH2 0x23A7 JUMP JUMPDEST PUSH2 0xE1A JUMP JUMPDEST PUSH2 0x272 PUSH2 0x353 CALLDATASIZE PUSH1 0x4 PUSH2 0x2348 JUMP JUMPDEST PUSH2 0xE35 JUMP JUMPDEST PUSH2 0x29B PUSH2 0x366 CALLDATASIZE PUSH1 0x4 PUSH2 0x2348 JUMP JUMPDEST PUSH2 0xEC8 JUMP JUMPDEST PUSH2 0x272 PUSH2 0x379 CALLDATASIZE PUSH1 0x4 PUSH2 0x23E3 JUMP JUMPDEST PUSH2 0xF3F JUMP JUMPDEST PUSH2 0x2C6 PUSH2 0xFC6 JUMP JUMPDEST PUSH2 0x2C6 PUSH2 0x394 CALLDATASIZE PUSH1 0x4 PUSH2 0x2348 JUMP JUMPDEST PUSH2 0xFFC JUMP JUMPDEST PUSH2 0x2C6 PUSH2 0x3A7 CALLDATASIZE PUSH1 0x4 PUSH2 0x23FE JUMP JUMPDEST PUSH2 0x110A JUMP JUMPDEST PUSH2 0x229 PUSH2 0x3BA CALLDATASIZE PUSH1 0x4 PUSH2 0x2348 JUMP JUMPDEST PUSH1 0x0 SWAP1 DUP2 MSTORE PUSH1 0xB PUSH1 0x20 MSTORE PUSH1 0x40 SWAP1 KECCAK256 PUSH1 0xC ADD SLOAD TIMESTAMP LT SWAP1 JUMP JUMPDEST PUSH2 0x3E4 PUSH2 0x3DF CALLDATASIZE PUSH1 0x4 PUSH2 0x2348 JUMP JUMPDEST PUSH2 0x1274 JUMP JUMPDEST PUSH1 0x40 MLOAD PUSH2 0x235 SWAP2 SWAP1 PUSH2 0x2483 JUMP JUMPDEST PUSH1 0xA SLOAD PUSH1 0x1 PUSH1 0x1 PUSH1 0xA0 SHL SUB AND PUSH2 0x29B JUMP JUMPDEST PUSH2 0x251 PUSH2 0x135B JUMP JUMPDEST PUSH2 0x2C6 PUSH2 0x418 CALLDATASIZE PUSH1 0x4 PUSH2 0x23E3 JUMP JUMPDEST PUSH2 0x136A JUMP JUMPDEST PUSH2 0x2C6 PUSH2 0x42B CALLDATASIZE PUSH1 0x4 PUSH2 0x252D JUMP JUMPDEST PUSH2 0x1456 JUMP JUMPDEST PUSH2 0x2C6 PUSH2 0x43E CALLDATASIZE PUSH1 0x4 PUSH2 0x2569 JUMP JUMPDEST PUSH2 0x151B JUMP JUMPDEST PUSH1 0xC SLOAD PUSH2 0x29B SWAP1 PUSH1 0x1 PUSH1 0x1 PUSH1 0xA0 SHL SUB AND DUP2 JUMP JUMPDEST PUSH2 0x251 PUSH2 0x464 CALLDATASIZE PUSH1 0x4 PUSH2 0x2348 JUMP JUMPDEST PUSH2 0x1553 JUMP JUMPDEST PUSH2 0x4E8 PUSH2 0x477 CALLDATASIZE PUSH1 0x4 PUSH2 0x2348 JUMP JUMPDEST PUSH1 0xB PUSH1 0x20 DUP2 SWAP1 MSTORE PUSH1 0x0 SWAP2 DUP3 MSTORE PUSH1 0x40 SWAP1 SWAP2 KECCAK256 DUP1 SLOAD PUSH1 0x1 DUP3 ADD SLOAD PUSH1 0x2 DUP4 ADD SLOAD PUSH1 0x3 DUP5 ADD SLOAD PUSH1 0x4 DUP6 ADD SLOAD PUSH1 0x5 DUP7 ADD SLOAD PUSH1 0x6 DUP8 ADD SLOAD PUSH1 0x7 DUP9 ADD SLOAD PUSH1 0x8 DUP10 ADD SLOAD PUSH1 0x9 DUP11 ADD SLOAD PUSH1 0xA DUP12 ADD SLOAD SWAP12 DUP12 ADD SLOAD PUSH1 0xC DUP13 ADD SLOAD PUSH1 0xD SWAP1 SWAP13 ADD SLOAD SWAP11 SWAP13 SWAP10 SWAP12 SWAP9 SWAP11 SWAP8 SWAP10 SWAP7 SWAP9 SWAP6 SWAP8 SWAP5 SWAP7 SWAP4 SWAP6 SWAP3 SWAP5 SWAP2 SWAP4 SWAP3 SWAP1 SWAP2 PUSH1 0xFF AND DUP15 JUMP JUMPDEST PUSH1 0x40 MLOAD PUSH2 0x235 SWAP15 SWAP14 SWAP13 SWAP12 SWAP11 SWAP10 SWAP9 SWAP8 SWAP7 SWAP6 SWAP5 SWAP4 SWAP3 SWAP2 SWAP1 PUSH2 0x25E5 JUMP JUMPDEST PUSH1 0xE SLOAD PUSH1 0xF SLOAD PUSH1 0x10 SLOAD PUSH1 0x11 SLOAD PUSH1 0x12 SLOAD PUSH2 0x525 SWAP5 SWAP4 SWAP3 SWAP2 SWAP1 PUSH1 0x1 PUSH1 0x1 PUSH1 0xA0 SHL SUB AND DUP6 JUMP JUMPDEST PUSH1 0x40 DUP1 MLOAD SWAP6 DUP7 MSTORE PUSH1 0x20 DUP7 ADD SWAP5 SWAP1 SWAP5 MSTORE SWAP3 DUP5 ADD SWAP2 SWAP1 SWAP2 MSTORE PUSH1 0x60 DUP4 ADD MSTORE PUSH1 0x1 PUSH1 0x1 PUSH1 0xA0 SHL SUB AND PUSH1 0x80 DUP3 ADD MSTORE PUSH1 0xA0 ADD PUSH2 0x235 JUMP JUMPDEST PUSH2 0x2C6 PUSH2 0x564 CALLDATASIZE PUSH1 0x4 PUSH2 0x23E3 JUMP JUMPDEST PUSH2 0x15F4 JUMP JUMPDEST PUSH2 0x229 PUSH2 0x577 CALLDATASIZE PUSH1 0x4 PUSH2 0x265F JUMP JUMPDEST PUSH1 0x1 PUSH1 0x1 PUSH1 0xA0 SHL SUB SWAP2 DUP3 AND PUSH1 0x0 SWAP1 DUP2 MSTORE PUSH1 0x5 PUSH1 0x20 SWAP1 DUP2 MSTORE PUSH1 0x40 DUP1 DUP4 KECCAK256 SWAP4 SWAP1 SWAP5 AND DUP3 MSTORE SWAP2 SWAP1 SWAP2 MSTORE KECCAK256 SLOAD PUSH1 0xFF AND SWAP1 JUMP JUMPDEST PUSH2 0x2C6 PUSH2 0x5B3 CALLDATASIZE PUSH1 0x4 PUSH2 0x23E3 JUMP JUMPDEST PUSH2 0x16D9 JUMP JUMPDEST PUSH1 0x0 PUSH1 0x1 PUSH1 0x1 PUSH1 0xE0 SHL SUB NOT DUP3 AND PUSH4 0x780E9D63 PUSH1 0xE0 SHL EQ DUP1 PUSH2 0x5DD JUMPI POP PUSH2 0x5DD DUP3 PUSH2 0x1771 JUMP JUMPDEST SWAP3 SWAP2 POP POP JUMP JUMPDEST PUSH1 0x60 PUSH1 0x0 PUSH1 0xB PUSH1 0x0 DUP6 DUP2 MSTORE PUSH1 0x20 ADD SWAP1 DUP2 MSTORE PUSH1 0x20 ADD PUSH1 0x0 KECCAK256 PUSH1 0x40 MLOAD DUP1 PUSH2 0x1C0 ADD PUSH1 0x40 MSTORE SWAP1 DUP2 PUSH1 0x0 DUP3 ADD SLOAD DUP2 MSTORE PUSH1 0x20 ADD PUSH1 0x1 DUP3 ADD SLOAD DUP2 MSTORE PUSH1 0x20 ADD PUSH1 0x2 DUP3 ADD SLOAD DUP2 MSTORE PUSH1 0x20 ADD PUSH1 0x3 DUP3 ADD SLOAD DUP2 MSTORE PUSH1 0x20 ADD PUSH1 0x4 DUP3 ADD SLOAD DUP2 MSTORE PUSH1 0x20 ADD PUSH1 0x5 DUP3 ADD SLOAD DUP2 MSTORE PUSH1 0x20 ADD PUSH1 0x6 DUP3 ADD SLOAD DUP2 MSTORE PUSH1 0x20 ADD PUSH1 0x7 DUP3 ADD SLOAD DUP2 MSTORE PUSH1 0x20 ADD PUSH1 0x8 DUP3 ADD SLOAD DUP2 MSTORE PUSH1 0x20 ADD PUSH1 0x9 DUP3 ADD SLOAD DUP2 MSTORE PUSH1 0x20 ADD PUSH1 0xA DUP3 ADD SLOAD DUP2 MSTORE PUSH1 0x20 ADD PUSH1 0xB DUP3 ADD SLOAD DUP2 MSTORE PUSH1 0x20 ADD PUSH1 0xC DUP3 ADD SLOAD DUP2 MSTORE PUSH1 0x20 ADD PUSH1 0xD DUP3 ADD PUSH1 0x0 SWAP1 SLOAD SWAP1 PUSH2 0x100 EXP SWAP1 DIV PUSH1 0xFF AND PUSH1 0x3 DUP2 GT ISZERO PUSH2 0x6AC JUMPI PUSH2 0x6AC PUSH2 0x244B JUMP JUMPDEST PUSH1 0x3 DUP2 GT ISZERO PUSH2 0x6BD JUMPI PUSH2 0x6BD PUSH2 0x244B JUMP JUMPDEST DUP2 MSTORE POP POP SWAP1 POP PUSH1 0x0 DUP4 PUSH2 0x6D3 DUP4 PUSH1 0x0 ADD MLOAD PUSH2 0x17C1 JUMP JUMPDEST PUSH1 0x40 MLOAD PUSH1 0x20 ADD PUSH2 0x6E4 SWAP3 SWAP2 SWAP1 PUSH2 0x26AE JUMP JUMPDEST PUSH1 0x40 MLOAD PUSH1 0x20 DUP2 DUP4 SUB SUB DUP2 MSTORE SWAP1 PUSH1 0x40 MSTORE SWAP1 POP DUP1 PUSH2 0x703 DUP4 PUSH1 0x20 ADD MLOAD PUSH2 0x17C1 JUMP JUMPDEST PUSH2 0x710 DUP5 PUSH1 0x40 ADD MLOAD PUSH2 0x17C1 JUMP JUMPDEST PUSH2 0x71D DUP6 PUSH1 0x60 ADD MLOAD PUSH2 0x17C1 JUMP JUMPDEST PUSH1 0x40 MLOAD PUSH1 0x20 ADD PUSH2 0x730 SWAP5 SWAP4 SWAP3 SWAP2 SWAP1 PUSH2 0x2808 JUMP JUMPDEST PUSH1 0x40 MLOAD PUSH1 0x20 DUP2 DUP4 SUB SUB DUP2 MSTORE SWAP1 PUSH1 0x40 MSTORE SWAP1 POP DUP1 PUSH2 0x74F DUP4 PUSH1 0x80 ADD MLOAD PUSH2 0x17C1 JUMP JUMPDEST PUSH2 0x75C DUP5 PUSH1 0xA0 ADD MLOAD PUSH2 0x17C1 JUMP JUMPDEST PUSH1 0x40 MLOAD PUSH1 0x20 ADD PUSH2 0x76E SWAP4 SWAP3 SWAP2 SWAP1 PUSH2 0x293A JUMP JUMPDEST PUSH1 0x40 MLOAD PUSH1 0x20 DUP2 DUP4 SUB SUB DUP2 MSTORE SWAP1 PUSH1 0x40 MSTORE SWAP1 POP DUP1 PUSH2 0x78D DUP4 PUSH1 0xC0 ADD MLOAD PUSH2 0x17C1 JUMP JUMPDEST PUSH2 0x79A DUP5 PUSH1 0xE0 ADD MLOAD PUSH2 0x17C1 JUMP JUMPDEST PUSH2 0x7A8 DUP6 PUSH2 0x100 ADD MLOAD PUSH2 0x17C1 JUMP JUMPDEST PUSH1 0x40 MLOAD PUSH1 0x20 ADD PUSH2 0x7BB SWAP5 SWAP4 SWAP3 SWAP2 SWAP1 PUSH2 0x2A17 JUMP JUMPDEST PUSH1 0x40 MLOAD PUSH1 0x20 DUP2 DUP4 SUB SUB DUP2 MSTORE SWAP1 PUSH1 0x40 MSTORE SWAP1 POP DUP1 PUSH1 0x40 MLOAD PUSH1 0x20 ADD PUSH2 0x7DD SWAP2 SWAP1 PUSH2 0x2B2D JUMP JUMPDEST PUSH1 0x40 DUP1 MLOAD DUP1 DUP4 SUB PUSH1 0x1F NOT ADD DUP2 MSTORE SWAP2 SWAP1 MSTORE SWAP6 SWAP5 POP POP POP POP POP JUMP JUMPDEST PUSH1 0x60 PUSH1 0x0 DUP1 SLOAD PUSH2 0x805 SWAP1 PUSH2 0x2B5C JUMP JUMPDEST DUP1 PUSH1 0x1F ADD PUSH1 0x20 DUP1 SWAP2 DIV MUL PUSH1 0x20 ADD PUSH1 0x40 MLOAD SWAP1 DUP2 ADD PUSH1 0x40 MSTORE DUP1 SWAP3 SWAP2 SWAP1 DUP2 DUP2 MSTORE PUSH1 0x20 ADD DUP3 DUP1 SLOAD PUSH2 0x831 SWAP1 PUSH2 0x2B5C JUMP JUMPDEST DUP1 ISZERO PUSH2 0x87E JUMPI DUP1 PUSH1 0x1F LT PUSH2 0x853 JUMPI PUSH2 0x100 DUP1 DUP4 SLOAD DIV MUL DUP4 MSTORE SWAP2 PUSH1 0x20 ADD SWAP2 PUSH2 0x87E JUMP JUMPDEST DUP3 ADD SWAP2 SWAP1 PUSH1 0x0 MSTORE PUSH1 0x20 PUSH1 0x0 KECCAK256 SWAP1 JUMPDEST DUP2 SLOAD DUP2 MSTORE SWAP1 PUSH1 0x1 ADD SWAP1 PUSH1 0x20 ADD DUP1 DUP4 GT PUSH2 0x861 JUMPI DUP3 SWAP1 SUB PUSH1 0x1F AND DUP3 ADD SWAP2 JUMPDEST POP POP POP POP POP SWAP1 POP SWAP1 JUMP JUMPDEST PUSH1 0x0 DUP2 DUP2 MSTORE PUSH1 0x2 PUSH1 0x20 MSTORE PUSH1 0x40 DUP2 KECCAK256 SLOAD PUSH1 0x1 PUSH1 0x1 PUSH1 0xA0 SHL SUB AND PUSH2 0x906 JUMPI PUSH1 0x40 MLOAD PUSH3 0x461BCD PUSH1 0xE5 SHL DUP2 MSTORE PUSH1 0x20 PUSH1 0x4 DUP3 ADD MSTORE PUSH1 0x2C PUSH1 0x24 DUP3 ADD MSTORE PUSH32 0x4552433732313A20617070726F76656420717565727920666F72206E6F6E6578 PUSH1 0x44 DUP3 ADD MSTORE PUSH12 0x34B9BA32B73A103A37B5B2B7 PUSH1 0xA1 SHL PUSH1 0x64 DUP3 ADD MSTORE PUSH1 0x84 ADD JUMPDEST PUSH1 0x40 MLOAD DUP1 SWAP2 SUB SWAP1 REVERT JUMPDEST POP PUSH1 0x0 SWAP1 DUP2 MSTORE PUSH1 0x4 PUSH1 0x20 MSTORE PUSH1 0x40 SWAP1 KECCAK256 SLOAD PUSH1 0x1 PUSH1 0x1 PUSH1 0xA0 SHL SUB AND SWAP1 JUMP JUMPDEST PUSH1 0x0 PUSH2 0x92D DUP3 PUSH2 0xEC8 JUMP JUMPDEST SWAP1 POP DUP1 PUSH1 0x1 PUSH1 0x1 PUSH1 0xA0 SHL SUB AND DUP4 PUSH1 0x1 PUSH1 0x1 PUSH1 0xA0 SHL SUB AND EQ ISZERO PUSH2 0x99B JUMPI PUSH1 0x40 MLOAD PUSH3 0x461BCD PUSH1 0xE5 SHL DUP2 MSTORE PUSH1 0x20 PUSH1 0x4 DUP3 ADD MSTORE PUSH1 0x21 PUSH1 0x24 DUP3 ADD MSTORE PUSH32 0x4552433732313A20617070726F76616C20746F2063757272656E74206F776E65 PUSH1 0x44 DUP3 ADD MSTORE PUSH1 0x39 PUSH1 0xF9 SHL PUSH1 0x64 DUP3 ADD MSTORE PUSH1 0x84 ADD PUSH2 0x8FD JUMP JUMPDEST CALLER PUSH1 0x1 PUSH1 0x1 PUSH1 0xA0 SHL SUB DUP3 AND EQ DUP1 PUSH2 0x9B7 JUMPI POP PUSH2 0x9B7 DUP2 CALLER PUSH2 0x577 JUMP JUMPDEST PUSH2 0xA29 JUMPI PUSH1 0x40 MLOAD PUSH3 0x461BCD PUSH1 0xE5 SHL DUP2 MSTORE PUSH1 0x20 PUSH1 0x4 DUP3 ADD MSTORE PUSH1 0x38 PUSH1 0x24 DUP3 ADD MSTORE PUSH32 0x4552433732313A20617070726F76652063616C6C6572206973206E6F74206F77 PUSH1 0x44 DUP3 ADD MSTORE PUSH32 0x6E6572206E6F7220617070726F76656420666F7220616C6C0000000000000000 PUSH1 0x64 DUP3 ADD MSTORE PUSH1 0x84 ADD PUSH2 0x8FD JUMP JUMPDEST PUSH2 0xA33 DUP4 DUP4 PUSH2 0x18C7 JUMP JUMPDEST POP POP POP JUMP JUMPDEST CALLER ADDRESS EQ ISZERO PUSH2 0xA78 JUMPI PUSH1 0x40 MLOAD PUSH3 0x461BCD PUSH1 0xE5 SHL DUP2 MSTORE PUSH1 0x20 PUSH1 0x4 DUP3 ADD MSTORE PUSH1 0xD PUSH1 0x24 DUP3 ADD MSTORE PUSH13 0x37B7363C903B32B934B334B2B9 PUSH1 0x99 SHL PUSH1 0x44 DUP3 ADD MSTORE PUSH1 0x64 ADD PUSH2 0x8FD JUMP JUMPDEST POP JUMP JUMPDEST PUSH1 0x10 SLOAD PUSH1 0x8 SLOAD LT PUSH2 0xABF JUMPI PUSH1 0x40 MLOAD PUSH3 0x461BCD PUSH1 0xE5 SHL DUP2 MSTORE PUSH1 0x20 PUSH1 0x4 DUP3 ADD MSTORE PUSH1 0xE PUSH1 0x24 DUP3 ADD MSTORE PUSH14 0x30BA1036B0BC1039BAB838363C97 PUSH1 0x91 SHL PUSH1 0x44 DUP3 ADD MSTORE PUSH1 0x64 ADD PUSH2 0x8FD JUMP JUMPDEST PUSH1 0x0 PUSH2 0xACA PUSH1 0x8 SLOAD SWAP1 JUMP JUMPDEST PUSH1 0x40 DUP1 MLOAD PUSH1 0x20 DUP2 ADD SWAP3 SWAP1 SWAP3 MSTORE PUSH12 0xFFFFFFFFFFFFFFFFFFFFFFFF NOT CALLER PUSH1 0x60 SHL AND SWAP1 DUP3 ADD MSTORE TIMESTAMP PUSH1 0x54 DUP3 ADD MSTORE PUSH1 0x74 ADD PUSH1 0x40 DUP1 MLOAD PUSH1 0x1F NOT DUP2 DUP5 SUB ADD DUP2 MSTORE SWAP2 SWAP1 MSTORE DUP1 MLOAD PUSH1 0x20 SWAP1 SWAP2 ADD KECCAK256 SWAP1 POP PUSH1 0x0 PUSH2 0xB1D PUSH1 0x1A DUP4 PUSH2 0x2BAD JUMP JUMPDEST PUSH2 0xB28 SWAP1 PUSH1 0x19 PUSH2 0x2BD7 JUMP JUMPDEST SWAP1 POP PUSH1 0x0 PUSH1 0x1A PUSH2 0xB39 PUSH1 0x64 DUP6 PUSH2 0x2BEF JUMP JUMPDEST PUSH2 0xB43 SWAP2 SWAP1 PUSH2 0x2BAD JUMP JUMPDEST PUSH2 0xB4E SWAP1 PUSH1 0x19 PUSH2 0x2BD7 JUMP JUMPDEST SWAP1 POP PUSH1 0x0 PUSH1 0xA PUSH2 0xB5E DUP2 DUP7 PUSH2 0x2BEF JUMP JUMPDEST PUSH2 0xB69 SWAP1 PUSH1 0x4 PUSH2 0x2C03 JUMP JUMPDEST PUSH2 0xB73 SWAP2 SWAP1 PUSH2 0x2BAD JUMP JUMPDEST PUSH2 0xB7E SWAP1 PUSH1 0xA PUSH2 0x2BD7 JUMP JUMPDEST SWAP1 POP PUSH1 0x0 PUSH1 0xA PUSH2 0xB8E DUP2 DUP8 PUSH2 0x2BEF JUMP JUMPDEST PUSH2 0xB99 SWAP1 PUSH1 0x5 PUSH2 0x2C03 JUMP JUMPDEST PUSH2 0xBA3 SWAP2 SWAP1 PUSH2 0x2BAD JUMP JUMPDEST PUSH2 0xBAE SWAP1 PUSH1 0xA PUSH2 0x2BD7 JUMP JUMPDEST SWAP1 POP PUSH1 0x0 PUSH1 0x4 PUSH2 0xBBF PUSH1 0xA DUP9 PUSH2 0x2BEF JUMP JUMPDEST PUSH2 0xBCA SWAP1 PUSH1 0x6 PUSH2 0x2C03 JUMP JUMPDEST PUSH2 0xBD4 SWAP2 SWAP1 PUSH2 0x2BAD JUMP JUMPDEST PUSH1 0x3 DUP2 GT ISZERO PUSH2 0xBE5 JUMPI PUSH2 0xBE5 PUSH2 0x244B JUMP JUMPDEST SWAP1 POP PUSH1 0x0 PUSH1 0x40 MLOAD DUP1 PUSH2 0x1C0 ADD PUSH1 0x40 MSTORE DUP1 PUSH1 0x1 DUP2 MSTORE PUSH1 0x20 ADD DUP8 DUP2 MSTORE PUSH1 0x20 ADD DUP7 DUP2 MSTORE PUSH1 0x20 ADD DUP6 DUP2 MSTORE PUSH1 0x20 ADD DUP5 DUP2 MSTORE PUSH1 0x20 ADD PUSH1 0x0 DUP2 MSTORE PUSH1 0x20 ADD PUSH1 0x0 DUP2 MSTORE PUSH1 0x20 ADD PUSH1 0x0 DUP2 MSTORE PUSH1 0x20 ADD PUSH1 0x0 DUP2 MSTORE PUSH1 0x20 ADD PUSH1 0x0 DUP2 MSTORE PUSH1 0x20 ADD PUSH1 0x0 DUP2 MSTORE PUSH1 0x20 ADD PUSH1 0x0 DUP2 MSTORE PUSH1 0x20 ADD PUSH1 0x0 DUP2 MSTORE PUSH1 0x20 ADD DUP4 PUSH1 0x3 DUP2 GT ISZERO PUSH2 0xC5E JUMPI PUSH2 0xC5E PUSH2 0x244B JUMP JUMPDEST SWAP1 MSTORE SWAP1 POP DUP1 PUSH1 0xB PUSH1 0x0 PUSH2 0xC70 PUSH1 0x8 SLOAD SWAP1 JUMP JUMPDEST DUP2 MSTORE PUSH1 0x20 ADD SWAP1 DUP2 MSTORE PUSH1 0x20 ADD PUSH1 0x0 KECCAK256 PUSH1 0x0 DUP3 ADD MLOAD DUP2 PUSH1 0x0 ADD SSTORE PUSH1 0x20 DUP3 ADD MLOAD DUP2 PUSH1 0x1 ADD SSTORE PUSH1 0x40 DUP3 ADD MLOAD DUP2 PUSH1 0x2 ADD SSTORE PUSH1 0x60 DUP3 ADD MLOAD DUP2 PUSH1 0x3 ADD SSTORE PUSH1 0x80 DUP3 ADD MLOAD DUP2 PUSH1 0x4 ADD SSTORE PUSH1 0xA0 DUP3 ADD MLOAD DUP2 PUSH1 0x5 ADD SSTORE PUSH1 0xC0 DUP3 ADD MLOAD DUP2 PUSH1 0x6 ADD SSTORE PUSH1 0xE0 DUP3 ADD MLOAD DUP2 PUSH1 0x7 ADD SSTORE PUSH2 0x100 DUP3 ADD MLOAD DUP2 PUSH1 0x8 ADD SSTORE PUSH2 0x120 DUP3 ADD MLOAD DUP2 PUSH1 0x9 ADD SSTORE PUSH2 0x140 DUP3 ADD MLOAD DUP2 PUSH1 0xA ADD SSTORE PUSH2 0x160 DUP3 ADD MLOAD DUP2 PUSH1 0xB ADD SSTORE PUSH2 0x180 DUP3 ADD MLOAD DUP2 PUSH1 0xC ADD SSTORE PUSH2 0x1A0 DUP3 ADD MLOAD DUP2 PUSH1 0xD ADD PUSH1 0x0 PUSH2 0x100 EXP DUP2 SLOAD DUP2 PUSH1 0xFF MUL NOT AND SWAP1 DUP4 PUSH1 0x3 DUP2 GT ISZERO PUSH2 0xD30 JUMPI PUSH2 0xD30 PUSH2 0x244B JUMP JUMPDEST MUL OR SWAP1 SSTORE POP SWAP1 POP POP PUSH2 0xD4A CALLER PUSH2 0xD45 PUSH1 0x8 SLOAD SWAP1 JUMP JUMPDEST PUSH2 0x1935 JUMP JUMPDEST POP POP POP POP POP POP POP JUMP JUMPDEST PUSH2 0xD5D CALLER DUP3 PUSH2 0x1953 JUMP JUMPDEST PUSH2 0xD79 JUMPI PUSH1 0x40 MLOAD PUSH3 0x461BCD PUSH1 0xE5 SHL DUP2 MSTORE PUSH1 0x4 ADD PUSH2 0x8FD SWAP1 PUSH2 0x2C22 JUMP JUMPDEST PUSH2 0xA33 DUP4 DUP4 DUP4 PUSH2 0x1A46 JUMP JUMPDEST PUSH1 0x0 PUSH2 0xD8F DUP4 PUSH2 0xF3F JUMP JUMPDEST DUP3 LT PUSH2 0xDF1 JUMPI PUSH1 0x40 MLOAD PUSH3 0x461BCD PUSH1 0xE5 SHL DUP2 MSTORE PUSH1 0x20 PUSH1 0x4 DUP3 ADD MSTORE PUSH1 0x2B PUSH1 0x24 DUP3 ADD MSTORE PUSH32 0x455243373231456E756D657261626C653A206F776E657220696E646578206F75 PUSH1 0x44 DUP3 ADD MSTORE PUSH11 0x74206F6620626F756E6473 PUSH1 0xA8 SHL PUSH1 0x64 DUP3 ADD MSTORE PUSH1 0x84 ADD PUSH2 0x8FD JUMP JUMPDEST POP PUSH1 0x1 PUSH1 0x1 PUSH1 0xA0 SHL SUB SWAP2 SWAP1 SWAP2 AND PUSH1 0x0 SWAP1 DUP2 MSTORE PUSH1 0x6 PUSH1 0x20 SWAP1 DUP2 MSTORE PUSH1 0x40 DUP1 DUP4 KECCAK256 SWAP4 DUP4 MSTORE SWAP3 SWAP1 MSTORE KECCAK256 SLOAD SWAP1 JUMP JUMPDEST PUSH2 0xA33 DUP4 DUP4 DUP4 PUSH1 0x40 MLOAD DUP1 PUSH1 0x20 ADD PUSH1 0x40 MSTORE DUP1 PUSH1 0x0 DUP2 MSTORE POP PUSH2 0x151B JUMP JUMPDEST PUSH1 0x0 PUSH2 0xE40 PUSH1 0x8 SLOAD SWAP1 JUMP JUMPDEST DUP3 LT PUSH2 0xEA3 JUMPI PUSH1 0x40 MLOAD PUSH3 0x461BCD PUSH1 0xE5 SHL DUP2 MSTORE PUSH1 0x20 PUSH1 0x4 DUP3 ADD MSTORE PUSH1 0x2C PUSH1 0x24 DUP3 ADD MSTORE PUSH32 0x455243373231456E756D657261626C653A20676C6F62616C20696E646578206F PUSH1 0x44 DUP3 ADD MSTORE PUSH12 0x7574206F6620626F756E6473 PUSH1 0xA0 SHL PUSH1 0x64 DUP3 ADD MSTORE PUSH1 0x84 ADD PUSH2 0x8FD JUMP JUMPDEST PUSH1 0x8 DUP3 DUP2 SLOAD DUP2 LT PUSH2 0xEB6 JUMPI PUSH2 0xEB6 PUSH2 0x2C73 JUMP JUMPDEST SWAP1 PUSH1 0x0 MSTORE PUSH1 0x20 PUSH1 0x0 KECCAK256 ADD SLOAD SWAP1 POP SWAP2 SWAP1 POP JUMP JUMPDEST PUSH1 0x0 DUP2 DUP2 MSTORE PUSH1 0x2 PUSH1 0x20 MSTORE PUSH1 0x40 DUP2 KECCAK256 SLOAD PUSH1 0x1 PUSH1 0x1 PUSH1 0xA0 SHL SUB AND DUP1 PUSH2 0x5DD JUMPI PUSH1 0x40 MLOAD PUSH3 0x461BCD PUSH1 0xE5 SHL DUP2 MSTORE PUSH1 0x20 PUSH1 0x4 DUP3 ADD MSTORE PUSH1 0x29 PUSH1 0x24 DUP3 ADD MSTORE PUSH32 0x4552433732313A206F776E657220717565727920666F72206E6F6E6578697374 PUSH1 0x44 DUP3 ADD MSTORE PUSH9 0x32B73A103A37B5B2B7 PUSH1 0xB9 SHL PUSH1 0x64 DUP3 ADD MSTORE PUSH1 0x84 ADD PUSH2 0x8FD JUMP JUMPDEST PUSH1 0x0 PUSH1 0x1 PUSH1 0x1 PUSH1 0xA0 SHL SUB DUP3 AND PUSH2 0xFAA JUMPI PUSH1 0x40 MLOAD PUSH3 0x461BCD PUSH1 0xE5 SHL DUP2 MSTORE PUSH1 0x20 PUSH1 0x4 DUP3 ADD MSTORE PUSH1 0x2A PUSH1 0x24 DUP3 ADD MSTORE PUSH32 0x4552433732313A2062616C616E636520717565727920666F7220746865207A65 PUSH1 0x44 DUP3 ADD MSTORE PUSH10 0x726F2061646472657373 PUSH1 0xB0 SHL PUSH1 0x64 DUP3 ADD MSTORE PUSH1 0x84 ADD PUSH2 0x8FD JUMP JUMPDEST POP PUSH1 0x1 PUSH1 0x1 PUSH1 0xA0 SHL SUB AND PUSH1 0x0 SWAP1 DUP2 MSTORE PUSH1 0x3 PUSH1 0x20 MSTORE PUSH1 0x40 SWAP1 KECCAK256 SLOAD SWAP1 JUMP JUMPDEST PUSH1 0xA SLOAD PUSH1 0x1 PUSH1 0x1 PUSH1 0xA0 SHL SUB AND CALLER EQ PUSH2 0xFF0 JUMPI PUSH1 0x40 MLOAD PUSH3 0x461BCD PUSH1 0xE5 SHL DUP2 MSTORE PUSH1 0x4 ADD PUSH2 0x8FD SWAP1 PUSH2 0x2C89 JUMP JUMPDEST PUSH2 0xFFA PUSH1 0x0 PUSH2 0x1BF1 JUMP JUMPDEST JUMP JUMPDEST CALLER PUSH2 0x1006 DUP3 PUSH2 0xEC8 JUMP JUMPDEST PUSH1 0x1 PUSH1 0x1 PUSH1 0xA0 SHL SUB AND EQ PUSH2 0x104C JUMPI PUSH1 0x40 MLOAD PUSH3 0x461BCD PUSH1 0xE5 SHL DUP2 MSTORE PUSH1 0x20 PUSH1 0x4 DUP3 ADD MSTORE PUSH1 0xD PUSH1 0x24 DUP3 ADD MSTORE PUSH13 0x36BAB9BA1031329037BBB732B9 PUSH1 0x99 SHL PUSH1 0x44 DUP3 ADD MSTORE PUSH1 0x64 ADD PUSH2 0x8FD JUMP JUMPDEST PUSH1 0x0 DUP2 DUP2 MSTORE PUSH1 0xB PUSH1 0x20 DUP2 SWAP1 MSTORE PUSH1 0x40 SWAP1 SWAP2 KECCAK256 ADD SLOAD ISZERO PUSH2 0x10A0 JUMPI PUSH1 0x40 MLOAD PUSH3 0x461BCD PUSH1 0xE5 SHL DUP2 MSTORE PUSH1 0x20 PUSH1 0x4 DUP3 ADD MSTORE PUSH1 0x11 PUSH1 0x24 DUP3 ADD MSTORE PUSH17 0x185B1C9958591E481A5B9A5D1A585D1959 PUSH1 0x7A SHL PUSH1 0x44 DUP3 ADD MSTORE PUSH1 0x64 ADD PUSH2 0x8FD JUMP JUMPDEST PUSH1 0x0 DUP2 DUP2 MSTORE PUSH1 0xB PUSH1 0x20 DUP2 SWAP1 MSTORE PUSH1 0x40 SWAP1 SWAP2 KECCAK256 TIMESTAMP SWAP2 DUP2 ADD DUP3 SWAP1 SSTORE PUSH1 0x11 SLOAD SWAP1 SWAP2 PUSH2 0x10C7 SWAP2 SWAP1 PUSH2 0x2BD7 JUMP JUMPDEST PUSH1 0xC DUP3 ADD SSTORE PUSH1 0x40 DUP1 MLOAD CALLER DUP2 MSTORE TIMESTAMP PUSH1 0x20 DUP3 ADD MSTORE DUP4 SWAP2 PUSH32 0x1782B66BBE30900EE88FEAB2F2CD676D136386CC51CDF73F6CAE8B1DA253DDF7 SWAP2 ADD PUSH1 0x40 MLOAD DUP1 SWAP2 SUB SWAP1 LOG2 POP POP JUMP JUMPDEST PUSH1 0xC SLOAD PUSH1 0x1 PUSH1 0x1 PUSH1 0xA0 SHL SUB AND CALLER EQ PUSH2 0x1170 JUMPI PUSH1 0x40 MLOAD PUSH3 0x461BCD PUSH1 0xE5 SHL DUP2 MSTORE PUSH1 0x20 PUSH1 0x4 DUP3 ADD MSTORE PUSH1 0x24 DUP1 DUP3 ADD MSTORE PUSH32 0x4F6E6C7920626174746C65722063616E2063616C6C20746869732066756E6374 PUSH1 0x44 DUP3 ADD MSTORE PUSH4 0x34B7B717 PUSH1 0xE1 SHL PUSH1 0x64 DUP3 ADD MSTORE PUSH1 0x84 ADD PUSH2 0x8FD JUMP JUMPDEST PUSH1 0x1 DUP4 PUSH1 0x3 DUP2 GT ISZERO PUSH2 0x1184 JUMPI PUSH2 0x1184 PUSH2 0x244B JUMP JUMPDEST EQ ISZERO PUSH2 0x11DE JUMPI PUSH1 0x0 DUP6 DUP2 MSTORE PUSH1 0xB PUSH1 0x20 MSTORE PUSH1 0x40 DUP2 KECCAK256 PUSH1 0x5 ADD DUP1 SLOAD PUSH1 0x1 SWAP3 SWAP1 PUSH2 0x11AC SWAP1 DUP5 SWAP1 PUSH2 0x2BD7 JUMP JUMPDEST SWAP1 SWAP2 SSTORE POP POP PUSH1 0x0 DUP5 DUP2 MSTORE PUSH1 0xB PUSH1 0x20 MSTORE PUSH1 0x40 DUP2 KECCAK256 PUSH1 0x6 ADD DUP1 SLOAD PUSH1 0x1 SWAP3 SWAP1 PUSH2 0x11D3 SWAP1 DUP5 SWAP1 PUSH2 0x2BD7 JUMP JUMPDEST SWAP1 SWAP2 SSTORE POP PUSH2 0x1247 SWAP1 POP JUMP JUMPDEST PUSH1 0x0 DUP4 PUSH1 0x3 DUP2 GT ISZERO PUSH2 0x11F2 JUMPI PUSH2 0x11F2 PUSH2 0x244B JUMP JUMPDEST EQ ISZERO PUSH2 0x1247 JUMPI PUSH1 0x0 DUP6 DUP2 MSTORE PUSH1 0xB PUSH1 0x20 MSTORE PUSH1 0x40 DUP2 KECCAK256 PUSH1 0x6 ADD DUP1 SLOAD PUSH1 0x1 SWAP3 SWAP1 PUSH2 0x121A SWAP1 DUP5 SWAP1 PUSH2 0x2BD7 JUMP JUMPDEST SWAP1 SWAP2 SSTORE POP POP PUSH1 0x0 DUP5 DUP2 MSTORE PUSH1 0xB PUSH1 0x20 MSTORE PUSH1 0x40 DUP2 KECCAK256 PUSH1 0x5 ADD DUP1 SLOAD PUSH1 0x1 SWAP3 SWAP1 PUSH2 0x1241 SWAP1 DUP5 SWAP1 PUSH2 0x2BD7 JUMP JUMPDEST SWAP1 SWAP2 SSTORE POP POP JUMPDEST PUSH1 0x0 DUP6 DUP2 MSTORE PUSH1 0xB PUSH1 0x20 MSTORE PUSH1 0x40 DUP2 KECCAK256 PUSH1 0x8 ADD DUP1 SLOAD DUP5 SWAP3 SWAP1 PUSH2 0x1268 SWAP1 DUP5 SWAP1 PUSH2 0x2BD7 JUMP JUMPDEST SWAP1 SWAP2 SSTORE POP POP POP POP POP POP POP JUMP JUMPDEST PUSH2 0x127C PUSH2 0x213D JUMP JUMPDEST PUSH1 0xB PUSH1 0x0 DUP4 DUP2 MSTORE PUSH1 0x20 ADD SWAP1 DUP2 MSTORE PUSH1 0x20 ADD PUSH1 0x0 KECCAK256 PUSH1 0x40 MLOAD DUP1 PUSH2 0x1C0 ADD PUSH1 0x40 MSTORE SWAP1 DUP2 PUSH1 0x0 DUP3 ADD SLOAD DUP2 MSTORE PUSH1 0x20 ADD PUSH1 0x1 DUP3 ADD SLOAD DUP2 MSTORE PUSH1 0x20 ADD PUSH1 0x2 DUP3 ADD SLOAD DUP2 MSTORE PUSH1 0x20 ADD PUSH1 0x3 DUP3 ADD SLOAD DUP2 MSTORE PUSH1 0x20 ADD PUSH1 0x4 DUP3 ADD SLOAD DUP2 MSTORE PUSH1 0x20 ADD PUSH1 0x5 DUP3 ADD SLOAD DUP2 MSTORE PUSH1 0x20 ADD PUSH1 0x6 DUP3 ADD SLOAD DUP2 MSTORE PUSH1 0x20 ADD PUSH1 0x7 DUP3 ADD SLOAD DUP2 MSTORE PUSH1 0x20 ADD PUSH1 0x8 DUP3 ADD SLOAD DUP2 MSTORE PUSH1 0x20 ADD PUSH1 0x9 DUP3 ADD SLOAD DUP2 MSTORE PUSH1 0x20 ADD PUSH1 0xA DUP3 ADD SLOAD DUP2 MSTORE PUSH1 0x20 ADD PUSH1 0xB DUP3 ADD SLOAD DUP2 MSTORE PUSH1 0x20 ADD PUSH1 0xC DUP3 ADD SLOAD DUP2 MSTORE PUSH1 0x20 ADD PUSH1 0xD DUP3 ADD PUSH1 0x0 SWAP1 SLOAD SWAP1 PUSH2 0x100 EXP SWAP1 DIV PUSH1 0xFF AND PUSH1 0x3 DUP2 GT ISZERO PUSH2 0x1341 JUMPI PUSH2 0x1341 PUSH2 0x244B JUMP JUMPDEST PUSH1 0x3 DUP2 GT ISZERO PUSH2 0x1352 JUMPI PUSH2 0x1352 PUSH2 0x244B JUMP JUMPDEST SWAP1 MSTORE POP SWAP3 SWAP2 POP POP JUMP JUMPDEST PUSH1 0x60 PUSH1 0x1 DUP1 SLOAD PUSH2 0x805 SWAP1 PUSH2 0x2B5C JUMP JUMPDEST PUSH1 0xA SLOAD PUSH1 0x1 PUSH1 0x1 PUSH1 0xA0 SHL SUB AND CALLER EQ PUSH2 0x1394 JUMPI PUSH1 0x40 MLOAD PUSH3 0x461BCD PUSH1 0xE5 SHL DUP2 MSTORE PUSH1 0x4 ADD PUSH2 0x8FD SWAP1 PUSH2 0x2C89 JUMP JUMPDEST PUSH1 0x1 PUSH1 0x1 PUSH1 0xA0 SHL SUB DUP2 AND ISZERO DUP1 ISZERO SWAP1 PUSH2 0x13BA JUMPI POP PUSH1 0xD SLOAD PUSH1 0x1 PUSH1 0x1 PUSH1 0xA0 SHL SUB DUP3 DUP2 AND SWAP2 AND EQ ISZERO JUMPDEST PUSH2 0x1401 JUMPI PUSH1 0x40 MLOAD PUSH3 0x461BCD PUSH1 0xE5 SHL DUP2 MSTORE PUSH1 0x20 PUSH1 0x4 DUP3 ADD MSTORE PUSH1 0x18 PUSH1 0x24 DUP3 ADD MSTORE PUSH24 0x496E76616C6964206F70657261746F722061646472657373 PUSH1 0x40 SHL PUSH1 0x44 DUP3 ADD MSTORE PUSH1 0x64 ADD PUSH2 0x8FD JUMP JUMPDEST PUSH1 0xD DUP1 SLOAD PUSH1 0x1 PUSH1 0x1 PUSH1 0xA0 SHL SUB NOT AND PUSH1 0x1 PUSH1 0x1 PUSH1 0xA0 SHL SUB DUP4 AND SWAP1 DUP2 OR SWAP1 SWAP2 SSTORE PUSH1 0x40 MLOAD SWAP1 DUP2 MSTORE PUSH32 0xA1FD6A6669ACB930BAE242943BB9FA08DDCBA665C707261E9730EE0305FB85E5 SWAP1 PUSH1 0x20 ADD JUMPDEST PUSH1 0x40 MLOAD DUP1 SWAP2 SUB SWAP1 LOG1 POP JUMP JUMPDEST PUSH1 0x1 PUSH1 0x1 PUSH1 0xA0 SHL SUB DUP3 AND CALLER EQ ISZERO PUSH2 0x14AF JUMPI PUSH1 0x40 MLOAD PUSH3 0x461BCD PUSH1 0xE5 SHL DUP2 MSTORE PUSH1 0x20 PUSH1 0x4 DUP3 ADD MSTORE PUSH1 0x19 PUSH1 0x24 DUP3 ADD MSTORE PUSH32 0x4552433732313A20617070726F766520746F2063616C6C657200000000000000 PUSH1 0x44 DUP3 ADD MSTORE PUSH1 0x64 ADD PUSH2 0x8FD JUMP JUMPDEST CALLER PUSH1 0x0 DUP2 DUP2 MSTORE PUSH1 0x5 PUSH1 0x20 SWAP1 DUP2 MSTORE PUSH1 0x40 DUP1 DUP4 KECCAK256 PUSH1 0x1 PUSH1 0x1 PUSH1 0xA0 SHL SUB DUP8 AND DUP1 DUP6 MSTORE SWAP1 DUP4 MSTORE SWAP3 DUP2 SWAP1 KECCAK256 DUP1 SLOAD PUSH1 0xFF NOT AND DUP7 ISZERO ISZERO SWAP1 DUP2 OR SWAP1 SWAP2 SSTORE SWAP1 MLOAD SWAP1 DUP2 MSTORE SWAP2 SWAP3 SWAP2 PUSH32 0x17307EAB39AB6107E8899845AD3D59BD9653F200F220920489CA2B5937696C31 SWAP2 ADD PUSH1 0x40 MLOAD DUP1 SWAP2 SUB SWAP1 LOG3 POP POP JUMP JUMPDEST PUSH2 0x1525 CALLER DUP4 PUSH2 0x1953 JUMP JUMPDEST PUSH2 0x1541 JUMPI PUSH1 0x40 MLOAD PUSH3 0x461BCD PUSH1 0xE5 SHL DUP2 MSTORE PUSH1 0x4 ADD PUSH2 0x8FD SWAP1 PUSH2 0x2C22 JUMP JUMPDEST PUSH2 0x154D DUP5 DUP5 DUP5 DUP5 PUSH2 0x1C43 JUMP JUMPDEST POP POP POP POP JUMP JUMPDEST PUSH1 0x0 DUP2 DUP2 MSTORE PUSH1 0x2 PUSH1 0x20 MSTORE PUSH1 0x40 SWAP1 KECCAK256 SLOAD PUSH1 0x60 SWAP1 PUSH1 0x1 PUSH1 0x1 PUSH1 0xA0 SHL SUB AND PUSH2 0x15D2 JUMPI PUSH1 0x40 MLOAD PUSH3 0x461BCD PUSH1 0xE5 SHL DUP2 MSTORE PUSH1 0x20 PUSH1 0x4 DUP3 ADD MSTORE PUSH1 0x2F PUSH1 0x24 DUP3 ADD MSTORE PUSH32 0x4552433732314D657461646174613A2055524920717565727920666F72206E6F PUSH1 0x44 DUP3 ADD MSTORE PUSH15 0x3732BC34B9BA32B73A103A37B5B2B7 PUSH1 0x89 SHL PUSH1 0x64 DUP3 ADD MSTORE PUSH1 0x84 ADD PUSH2 0x8FD JUMP JUMPDEST PUSH2 0x5DD DUP3 PUSH1 0x40 MLOAD DUP1 PUSH1 0x80 ADD PUSH1 0x40 MSTORE DUP1 PUSH1 0x5E DUP2 MSTORE PUSH1 0x20 ADD PUSH2 0x2DB3 PUSH1 0x5E SWAP2 CODECOPY PUSH2 0x5E3 JUMP JUMPDEST PUSH1 0xA SLOAD PUSH1 0x1 PUSH1 0x1 PUSH1 0xA0 SHL SUB AND CALLER EQ PUSH2 0x161E JUMPI PUSH1 0x40 MLOAD PUSH3 0x461BCD PUSH1 0xE5 SHL DUP2 MSTORE PUSH1 0x4 ADD PUSH2 0x8FD SWAP1 PUSH2 0x2C89 JUMP JUMPDEST PUSH1 0x1 PUSH1 0x1 PUSH1 0xA0 SHL SUB DUP2 AND ISZERO DUP1 ISZERO SWAP1 PUSH2 0x1644 JUMPI POP PUSH1 0xC SLOAD PUSH1 0x1 PUSH1 0x1 PUSH1 0xA0 SHL SUB DUP3 DUP2 AND SWAP2 AND EQ ISZERO JUMPDEST PUSH2 0x168B JUMPI PUSH1 0x40 MLOAD PUSH3 0x461BCD PUSH1 0xE5 SHL DUP2 MSTORE PUSH1 0x20 PUSH1 0x4 DUP3 ADD MSTORE PUSH1 0x18 PUSH1 0x24 DUP3 ADD MSTORE PUSH24 0x496E76616C6964206F70657261746F722061646472657373 PUSH1 0x40 SHL PUSH1 0x44 DUP3 ADD MSTORE PUSH1 0x64 ADD PUSH2 0x8FD JUMP JUMPDEST PUSH1 0xC DUP1 SLOAD PUSH1 0x1 PUSH1 0x1 PUSH1 0xA0 SHL SUB NOT AND PUSH1 0x1 PUSH1 0x1 PUSH1 0xA0 SHL SUB DUP4 AND SWAP1 DUP2 OR SWAP1 SWAP2 SSTORE PUSH1 0x40 MLOAD SWAP1 DUP2 MSTORE PUSH32 0xA6996D36756222F1028B4A1A97CBFA625158CF8E69AC5DCF367DE3BD730D34A4 SWAP1 PUSH1 0x20 ADD PUSH2 0x144B JUMP JUMPDEST PUSH1 0xA SLOAD PUSH1 0x1 PUSH1 0x1 PUSH1 0xA0 SHL SUB AND CALLER EQ PUSH2 0x1703 JUMPI PUSH1 0x40 MLOAD PUSH3 0x461BCD PUSH1 0xE5 SHL DUP2 MSTORE PUSH1 0x4 ADD PUSH2 0x8FD SWAP1 PUSH2 0x2C89 JUMP JUMPDEST PUSH1 0x1 PUSH1 0x1 PUSH1 0xA0 SHL SUB DUP2 AND PUSH2 0x1768 JUMPI PUSH1 0x40 MLOAD PUSH3 0x461BCD PUSH1 0xE5 SHL DUP2 MSTORE PUSH1 0x20 PUSH1 0x4 DUP3 ADD MSTORE PUSH1 0x26 PUSH1 0x24 DUP3 ADD MSTORE PUSH32 0x4F776E61626C653A206E6577206F776E657220697320746865207A65726F2061 PUSH1 0x44 DUP3 ADD MSTORE PUSH6 0x646472657373 PUSH1 0xD0 SHL PUSH1 0x64 DUP3 ADD MSTORE PUSH1 0x84 ADD PUSH2 0x8FD JUMP JUMPDEST PUSH2 0xA78 DUP2 PUSH2 0x1BF1 JUMP JUMPDEST PUSH1 0x0 PUSH1 0x1 PUSH1 0x1 PUSH1 0xE0 SHL SUB NOT DUP3 AND PUSH4 0x80AC58CD PUSH1 0xE0 SHL EQ DUP1 PUSH2 0x17A2 JUMPI POP PUSH1 0x1 PUSH1 0x1 PUSH1 0xE0 SHL SUB NOT DUP3 AND PUSH4 0x5B5E139F PUSH1 0xE0 SHL EQ JUMPDEST DUP1 PUSH2 0x5DD JUMPI POP PUSH4 0x1FFC9A7 PUSH1 0xE0 SHL PUSH1 0x1 PUSH1 0x1 PUSH1 0xE0 SHL SUB NOT DUP4 AND EQ PUSH2 0x5DD JUMP JUMPDEST PUSH1 0x60 DUP2 PUSH2 0x17E5 JUMPI POP POP PUSH1 0x40 DUP1 MLOAD DUP1 DUP3 ADD SWAP1 SWAP2 MSTORE PUSH1 0x1 DUP2 MSTORE PUSH1 0x3 PUSH1 0xFC SHL PUSH1 0x20 DUP3 ADD MSTORE SWAP1 JUMP JUMPDEST DUP2 PUSH1 0x0 JUMPDEST DUP2 ISZERO PUSH2 0x180F JUMPI DUP1 PUSH2 0x17F9 DUP2 PUSH2 0x2CBE JUMP JUMPDEST SWAP2 POP PUSH2 0x1808 SWAP1 POP PUSH1 0xA DUP4 PUSH2 0x2BEF JUMP JUMPDEST SWAP2 POP PUSH2 0x17E9 JUMP JUMPDEST PUSH1 0x0 DUP2 PUSH8 0xFFFFFFFFFFFFFFFF DUP2 GT ISZERO PUSH2 0x182A JUMPI PUSH2 0x182A PUSH2 0x21F6 JUMP JUMPDEST PUSH1 0x40 MLOAD SWAP1 DUP1 DUP3 MSTORE DUP1 PUSH1 0x1F ADD PUSH1 0x1F NOT AND PUSH1 0x20 ADD DUP3 ADD PUSH1 0x40 MSTORE DUP1 ISZERO PUSH2 0x1854 JUMPI PUSH1 0x20 DUP3 ADD DUP2 DUP1 CALLDATASIZE DUP4 CALLDATACOPY ADD SWAP1 POP JUMPDEST POP SWAP1 POP JUMPDEST DUP5 ISZERO PUSH2 0x18BF JUMPI PUSH2 0x1869 PUSH1 0x1 DUP4 PUSH2 0x2CD9 JUMP JUMPDEST SWAP2 POP PUSH2 0x1876 PUSH1 0xA DUP7 PUSH2 0x2BAD JUMP JUMPDEST PUSH2 0x1881 SWAP1 PUSH1 0x30 PUSH2 0x2BD7 JUMP JUMPDEST PUSH1 0xF8 SHL DUP2 DUP4 DUP2 MLOAD DUP2 LT PUSH2 0x1896 JUMPI PUSH2 0x1896 PUSH2 0x2C73 JUMP JUMPDEST PUSH1 0x20 ADD ADD SWAP1 PUSH1 0x1 PUSH1 0x1 PUSH1 0xF8 SHL SUB NOT AND SWAP1 DUP2 PUSH1 0x0 BYTE SWAP1 MSTORE8 POP PUSH2 0x18B8 PUSH1 0xA DUP7 PUSH2 0x2BEF JUMP JUMPDEST SWAP5 POP PUSH2 0x1858 JUMP JUMPDEST SWAP5 SWAP4 POP POP POP POP JUMP JUMPDEST PUSH1 0x0 DUP2 DUP2 MSTORE PUSH1 0x4 PUSH1 0x20 MSTORE PUSH1 0x40 SWAP1 KECCAK256 DUP1 SLOAD PUSH1 0x1 PUSH1 0x1 PUSH1 0xA0 SHL SUB NOT AND PUSH1 0x1 PUSH1 0x1 PUSH1 0xA0 SHL SUB DUP5 AND SWAP1 DUP2 OR SWAP1 SWAP2 SSTORE DUP2 SWAP1 PUSH2 0x18FC DUP3 PUSH2 0xEC8 JUMP JUMPDEST PUSH1 0x1 PUSH1 0x1 PUSH1 0xA0 SHL SUB AND PUSH32 0x8C5BE1E5EBEC7D5BD14F71427D1E84F3DD0314C0F7B2291E5B200AC8C7C3B925 PUSH1 0x40 MLOAD PUSH1 0x40 MLOAD DUP1 SWAP2 SUB SWAP1 LOG4 POP POP JUMP JUMPDEST PUSH2 0x194F DUP3 DUP3 PUSH1 0x40 MLOAD DUP1 PUSH1 0x20 ADD PUSH1 0x40 MSTORE DUP1 PUSH1 0x0 DUP2 MSTORE POP PUSH2 0x1C76 JUMP JUMPDEST POP POP JUMP JUMPDEST PUSH1 0x0 DUP2 DUP2 MSTORE PUSH1 0x2 PUSH1 0x20 MSTORE PUSH1 0x40 DUP2 KECCAK256 SLOAD PUSH1 0x1 PUSH1 0x1 PUSH1 0xA0 SHL SUB AND PUSH2 0x19CC JUMPI PUSH1 0x40 MLOAD PUSH3 0x461BCD PUSH1 0xE5 SHL DUP2 MSTORE PUSH1 0x20 PUSH1 0x4 DUP3 ADD MSTORE PUSH1 0x2C PUSH1 0x24 DUP3 ADD MSTORE PUSH32 0x4552433732313A206F70657261746F7220717565727920666F72206E6F6E6578 PUSH1 0x44 DUP3 ADD MSTORE PUSH12 0x34B9BA32B73A103A37B5B2B7 PUSH1 0xA1 SHL PUSH1 0x64 DUP3 ADD MSTORE PUSH1 0x84 ADD PUSH2 0x8FD JUMP JUMPDEST PUSH1 0x0 PUSH2 0x19D7 DUP4 PUSH2 0xEC8 JUMP JUMPDEST SWAP1 POP DUP1 PUSH1 0x1 PUSH1 0x1 PUSH1 0xA0 SHL SUB AND DUP5 PUSH1 0x1 PUSH1 0x1 PUSH1 0xA0 SHL SUB AND EQ DUP1 PUSH2 0x1A12 JUMPI POP DUP4 PUSH1 0x1 PUSH1 0x1 PUSH1 0xA0 SHL SUB AND PUSH2 0x1A07 DUP5 PUSH2 0x888 JUMP JUMPDEST PUSH1 0x1 PUSH1 0x1 PUSH1 0xA0 SHL SUB AND EQ JUMPDEST DUP1 PUSH2 0x18BF JUMPI POP PUSH1 0x1 PUSH1 0x1 PUSH1 0xA0 SHL SUB DUP1 DUP3 AND PUSH1 0x0 SWAP1 DUP2 MSTORE PUSH1 0x5 PUSH1 0x20 SWAP1 DUP2 MSTORE PUSH1 0x40 DUP1 DUP4 KECCAK256 SWAP4 DUP9 AND DUP4 MSTORE SWAP3 SWAP1 MSTORE KECCAK256 SLOAD PUSH1 0xFF AND PUSH2 0x18BF JUMP JUMPDEST DUP3 PUSH1 0x1 PUSH1 0x1 PUSH1 0xA0 SHL SUB AND PUSH2 0x1A59 DUP3 PUSH2 0xEC8 JUMP JUMPDEST PUSH1 0x1 PUSH1 0x1 PUSH1 0xA0 SHL SUB AND EQ PUSH2 0x1AC1 JUMPI PUSH1 0x40 MLOAD PUSH3 0x461BCD PUSH1 0xE5 SHL DUP2 MSTORE PUSH1 0x20 PUSH1 0x4 DUP3 ADD MSTORE PUSH1 0x29 PUSH1 0x24 DUP3 ADD MSTORE PUSH32 0x4552433732313A207472616E73666572206F6620746F6B656E20746861742069 PUSH1 0x44 DUP3 ADD MSTORE PUSH9 0x39903737BA1037BBB7 PUSH1 0xB9 SHL PUSH1 0x64 DUP3 ADD MSTORE PUSH1 0x84 ADD PUSH2 0x8FD JUMP JUMPDEST PUSH1 0x1 PUSH1 0x1 PUSH1 0xA0 SHL SUB DUP3 AND PUSH2 0x1B23 JUMPI PUSH1 0x40 MLOAD PUSH3 0x461BCD PUSH1 0xE5 SHL DUP2 MSTORE PUSH1 0x20 PUSH1 0x4 DUP3 ADD MSTORE PUSH1 0x24 DUP1 DUP3 ADD MSTORE PUSH32 0x4552433732313A207472616E7366657220746F20746865207A65726F20616464 PUSH1 0x44 DUP3 ADD MSTORE PUSH4 0x72657373 PUSH1 0xE0 SHL PUSH1 0x64 DUP3 ADD MSTORE PUSH1 0x84 ADD PUSH2 0x8FD JUMP JUMPDEST PUSH2 0x1B2E DUP4 DUP4 DUP4 PUSH2 0x1CA9 JUMP JUMPDEST PUSH2 0x1B39 PUSH1 0x0 DUP3 PUSH2 0x18C7 JUMP JUMPDEST PUSH1 0x1 PUSH1 0x1 PUSH1 0xA0 SHL SUB DUP4 AND PUSH1 0x0 SWAP1 DUP2 MSTORE PUSH1 0x3 PUSH1 0x20 MSTORE PUSH1 0x40 DUP2 KECCAK256 DUP1 SLOAD PUSH1 0x1 SWAP3 SWAP1 PUSH2 0x1B62 SWAP1 DUP5 SWAP1 PUSH2 0x2CD9 JUMP JUMPDEST SWAP1 SWAP2 SSTORE POP POP PUSH1 0x1 PUSH1 0x1 PUSH1 0xA0 SHL SUB DUP3 AND PUSH1 0x0 SWAP1 DUP2 MSTORE PUSH1 0x3 PUSH1 0x20 MSTORE PUSH1 0x40 DUP2 KECCAK256 DUP1 SLOAD PUSH1 0x1 SWAP3 SWAP1 PUSH2 0x1B90 SWAP1 DUP5 SWAP1 PUSH2 0x2BD7 JUMP JUMPDEST SWAP1 SWAP2 SSTORE POP POP PUSH1 0x0 DUP2 DUP2 MSTORE PUSH1 0x2 PUSH1 0x20 MSTORE PUSH1 0x40 DUP1 DUP3 KECCAK256 DUP1 SLOAD PUSH1 0x1 PUSH1 0x1 PUSH1 0xA0 SHL SUB NOT AND PUSH1 0x1 PUSH1 0x1 PUSH1 0xA0 SHL SUB DUP7 DUP2 AND SWAP2 DUP3 OR SWAP1 SWAP3 SSTORE SWAP2 MLOAD DUP5 SWAP4 SWAP2 DUP8 AND SWAP2 PUSH32 0xDDF252AD1BE2C89B69C2B068FC378DAA952BA7F163C4A11628F55A4DF523B3EF SWAP2 LOG4 POP POP POP JUMP JUMPDEST PUSH1 0xA DUP1 SLOAD PUSH1 0x1 PUSH1 0x1 PUSH1 0xA0 SHL SUB DUP4 DUP2 AND PUSH1 0x1 PUSH1 0x1 PUSH1 0xA0 SHL SUB NOT DUP4 AND DUP2 OR SWAP1 SWAP4 SSTORE PUSH1 0x40 MLOAD SWAP2 AND SWAP2 SWAP1 DUP3 SWAP1 PUSH32 0x8BE0079C531659141344CD1FD0A4F28419497F9722A3DAAFE3B4186F6B6457E0 SWAP1 PUSH1 0x0 SWAP1 LOG3 POP POP JUMP JUMPDEST PUSH2 0x1C4E DUP5 DUP5 DUP5 PUSH2 0x1A46 JUMP JUMPDEST PUSH2 0x1C5A DUP5 DUP5 DUP5 DUP5 PUSH2 0x1D61 JUMP JUMPDEST PUSH2 0x154D JUMPI PUSH1 0x40 MLOAD PUSH3 0x461BCD PUSH1 0xE5 SHL DUP2 MSTORE PUSH1 0x4 ADD PUSH2 0x8FD SWAP1 PUSH2 0x2CF0 JUMP JUMPDEST PUSH2 0x1C80 DUP4 DUP4 PUSH2 0x1E5F JUMP JUMPDEST PUSH2 0x1C8D PUSH1 0x0 DUP5 DUP5 DUP5 PUSH2 0x1D61 JUMP JUMPDEST PUSH2 0xA33 JUMPI PUSH1 0x40 MLOAD PUSH3 0x461BCD PUSH1 0xE5 SHL DUP2 MSTORE PUSH1 0x4 ADD PUSH2 0x8FD SWAP1 PUSH2 0x2CF0 JUMP JUMPDEST PUSH1 0x1 PUSH1 0x1 PUSH1 0xA0 SHL SUB DUP4 AND PUSH2 0x1D04 JUMPI PUSH2 0x1CFF DUP2 PUSH1 0x8 DUP1 SLOAD PUSH1 0x0 DUP4 DUP2 MSTORE PUSH1 0x9 PUSH1 0x20 MSTORE PUSH1 0x40 DUP2 KECCAK256 DUP3 SWAP1 SSTORE PUSH1 0x1 DUP3 ADD DUP4 SSTORE SWAP2 SWAP1 SWAP2 MSTORE PUSH32 0xF3F7A9FE364FAAB93B216DA50A3214154F22A0A2B415B23A84C8169E8B636EE3 ADD SSTORE JUMP JUMPDEST PUSH2 0x1D27 JUMP JUMPDEST DUP2 PUSH1 0x1 PUSH1 0x1 PUSH1 0xA0 SHL SUB AND DUP4 PUSH1 0x1 PUSH1 0x1 PUSH1 0xA0 SHL SUB AND EQ PUSH2 0x1D27 JUMPI PUSH2 0x1D27 DUP4 DUP3 PUSH2 0x1FAD JUMP JUMPDEST PUSH1 0x1 PUSH1 0x1 PUSH1 0xA0 SHL SUB DUP3 AND PUSH2 0x1D3E JUMPI PUSH2 0xA33 DUP2 PUSH2 0x204A JUMP JUMPDEST DUP3 PUSH1 0x1 PUSH1 0x1 PUSH1 0xA0 SHL SUB AND DUP3 PUSH1 0x1 PUSH1 0x1 PUSH1 0xA0 SHL SUB AND EQ PUSH2 0xA33 JUMPI PUSH2 0xA33 DUP3 DUP3 PUSH2 0x20F9 JUMP JUMPDEST PUSH1 0x0 PUSH1 0x1 PUSH1 0x1 PUSH1 0xA0 SHL SUB DUP5 AND EXTCODESIZE ISZERO PUSH2 0x1E54 JUMPI PUSH1 0x40 MLOAD PUSH4 0xA85BD01 PUSH1 0xE1 SHL DUP2 MSTORE PUSH1 0x1 PUSH1 0x1 PUSH1 0xA0 SHL SUB DUP6 AND SWAP1 PUSH4 0x150B7A02 SWAP1 PUSH2 0x1DA5 SWAP1 CALLER SWAP1 DUP10 SWAP1 DUP9 SWAP1 DUP9 SWAP1 PUSH1 0x4 ADD PUSH2 0x2D42 JUMP JUMPDEST PUSH1 0x20 PUSH1 0x40 MLOAD DUP1 DUP4 SUB DUP2 PUSH1 0x0 DUP8 GAS CALL SWAP3 POP POP POP DUP1 ISZERO PUSH2 0x1DE0 JUMPI POP PUSH1 0x40 DUP1 MLOAD PUSH1 0x1F RETURNDATASIZE SWAP1 DUP2 ADD PUSH1 0x1F NOT AND DUP3 ADD SWAP1 SWAP3 MSTORE PUSH2 0x1DDD SWAP2 DUP2 ADD SWAP1 PUSH2 0x2D7F JUMP JUMPDEST PUSH1 0x1 JUMPDEST PUSH2 0x1E3A JUMPI RETURNDATASIZE DUP1 DUP1 ISZERO PUSH2 0x1E0E JUMPI PUSH1 0x40 MLOAD SWAP2 POP PUSH1 0x1F NOT PUSH1 0x3F RETURNDATASIZE ADD AND DUP3 ADD PUSH1 0x40 MSTORE RETURNDATASIZE DUP3 MSTORE RETURNDATASIZE PUSH1 0x0 PUSH1 0x20 DUP5 ADD RETURNDATACOPY PUSH2 0x1E13 JUMP JUMPDEST PUSH1 0x60 SWAP2 POP JUMPDEST POP DUP1 MLOAD PUSH2 0x1E32 JUMPI PUSH1 0x40 MLOAD PUSH3 0x461BCD PUSH1 0xE5 SHL DUP2 MSTORE PUSH1 0x4 ADD PUSH2 0x8FD SWAP1 PUSH2 0x2CF0 JUMP JUMPDEST DUP1 MLOAD DUP2 PUSH1 0x20 ADD REVERT JUMPDEST PUSH1 0x1 PUSH1 0x1 PUSH1 0xE0 SHL SUB NOT AND PUSH4 0xA85BD01 PUSH1 0xE1 SHL EQ SWAP1 POP PUSH2 0x18BF JUMP JUMPDEST POP PUSH1 0x1 SWAP5 SWAP4 POP POP POP POP JUMP JUMPDEST PUSH1 0x1 PUSH1 0x1 PUSH1 0xA0 SHL SUB DUP3 AND PUSH2 0x1EB5 JUMPI PUSH1 0x40 MLOAD PUSH3 0x461BCD PUSH1 0xE5 SHL DUP2 MSTORE PUSH1 0x20 PUSH1 0x4 DUP3 ADD DUP2 SWAP1 MSTORE PUSH1 0x24 DUP3 ADD MSTORE PUSH32 0x4552433732313A206D696E7420746F20746865207A65726F2061646472657373 PUSH1 0x44 DUP3 ADD MSTORE PUSH1 0x64 ADD PUSH2 0x8FD JUMP JUMPDEST PUSH1 0x0 DUP2 DUP2 MSTORE PUSH1 0x2 PUSH1 0x20 MSTORE PUSH1 0x40 SWAP1 KECCAK256 SLOAD PUSH1 0x1 PUSH1 0x1 PUSH1 0xA0 SHL SUB AND ISZERO PUSH2 0x1F1A JUMPI PUSH1 0x40 MLOAD PUSH3 0x461BCD PUSH1 0xE5 SHL DUP2 MSTORE PUSH1 0x20 PUSH1 0x4 DUP3 ADD MSTORE PUSH1 0x1C PUSH1 0x24 DUP3 ADD MSTORE PUSH32 0x4552433732313A20746F6B656E20616C7265616479206D696E74656400000000 PUSH1 0x44 DUP3 ADD MSTORE PUSH1 0x64 ADD PUSH2 0x8FD JUMP JUMPDEST PUSH2 0x1F26 PUSH1 0x0 DUP4 DUP4 PUSH2 0x1CA9 JUMP JUMPDEST PUSH1 0x1 PUSH1 0x1 PUSH1 0xA0 SHL SUB DUP3 AND PUSH1 0x0 SWAP1 DUP2 MSTORE PUSH1 0x3 PUSH1 0x20 MSTORE PUSH1 0x40 DUP2 KECCAK256 DUP1 SLOAD PUSH1 0x1 SWAP3 SWAP1 PUSH2 0x1F4F SWAP1 DUP5 SWAP1 PUSH2 0x2BD7 JUMP JUMPDEST SWAP1 SWAP2 SSTORE POP POP PUSH1 0x0 DUP2 DUP2 MSTORE PUSH1 0x2 PUSH1 0x20 MSTORE PUSH1 0x40 DUP1 DUP3 KECCAK256 DUP1 SLOAD PUSH1 0x1 PUSH1 0x1 PUSH1 0xA0 SHL SUB NOT AND PUSH1 0x1 PUSH1 0x1 PUSH1 0xA0 SHL SUB DUP7 AND SWAP1 DUP2 OR SWAP1 SWAP2 SSTORE SWAP1 MLOAD DUP4 SWAP3 SWAP1 PUSH32 0xDDF252AD1BE2C89B69C2B068FC378DAA952BA7F163C4A11628F55A4DF523B3EF SWAP1 DUP3 SWAP1 LOG4 POP POP JUMP JUMPDEST PUSH1 0x0 PUSH1 0x1 PUSH2 0x1FBA DUP5 PUSH2 0xF3F JUMP JUMPDEST PUSH2 0x1FC4 SWAP2 SWAP1 PUSH2 0x2CD9 JUMP JUMPDEST PUSH1 0x0 DUP4 DUP2 MSTORE PUSH1 0x7 PUSH1 0x20 MSTORE PUSH1 0x40 SWAP1 KECCAK256 SLOAD SWAP1 SWAP2 POP DUP1 DUP3 EQ PUSH2 0x2017 JUMPI PUSH1 0x1 PUSH1 0x1 PUSH1 0xA0 SHL SUB DUP5 AND PUSH1 0x0 SWAP1 DUP2 MSTORE PUSH1 0x6 PUSH1 0x20 SWAP1 DUP2 MSTORE PUSH1 0x40 DUP1 DUP4 KECCAK256 DUP6 DUP5 MSTORE DUP3 MSTORE DUP1 DUP4 KECCAK256 SLOAD DUP5 DUP5 MSTORE DUP2 DUP5 KECCAK256 DUP2 SWAP1 SSTORE DUP4 MSTORE PUSH1 0x7 SWAP1 SWAP2 MSTORE SWAP1 KECCAK256 DUP2 SWAP1 SSTORE JUMPDEST POP PUSH1 0x0 SWAP2 DUP3 MSTORE PUSH1 0x7 PUSH1 0x20 SWAP1 DUP2 MSTORE PUSH1 0x40 DUP1 DUP5 KECCAK256 DUP5 SWAP1 SSTORE PUSH1 0x1 PUSH1 0x1 PUSH1 0xA0 SHL SUB SWAP1 SWAP5 AND DUP4 MSTORE PUSH1 0x6 DUP2 MSTORE DUP4 DUP4 KECCAK256 SWAP2 DUP4 MSTORE MSTORE SWAP1 DUP2 KECCAK256 SSTORE JUMP JUMPDEST PUSH1 0x8 SLOAD PUSH1 0x0 SWAP1 PUSH2 0x205C SWAP1 PUSH1 0x1 SWAP1 PUSH2 0x2CD9 JUMP JUMPDEST PUSH1 0x0 DUP4 DUP2 MSTORE PUSH1 0x9 PUSH1 0x20 MSTORE PUSH1 0x40 DUP2 KECCAK256 SLOAD PUSH1 0x8 DUP1 SLOAD SWAP4 SWAP5 POP SWAP1 SWAP3 DUP5 SWAP1 DUP2 LT PUSH2 0x2084 JUMPI PUSH2 0x2084 PUSH2 0x2C73 JUMP JUMPDEST SWAP1 PUSH1 0x0 MSTORE PUSH1 0x20 PUSH1 0x0 KECCAK256 ADD SLOAD SWAP1 POP DUP1 PUSH1 0x8 DUP4 DUP2 SLOAD DUP2 LT PUSH2 0x20A5 JUMPI PUSH2 0x20A5 PUSH2 0x2C73 JUMP JUMPDEST PUSH1 0x0 SWAP2 DUP3 MSTORE PUSH1 0x20 DUP1 DUP4 KECCAK256 SWAP1 SWAP2 ADD SWAP3 SWAP1 SWAP3 SSTORE DUP3 DUP2 MSTORE PUSH1 0x9 SWAP1 SWAP2 MSTORE PUSH1 0x40 DUP1 DUP3 KECCAK256 DUP5 SWAP1 SSTORE DUP6 DUP3 MSTORE DUP2 KECCAK256 SSTORE PUSH1 0x8 DUP1 SLOAD DUP1 PUSH2 0x20DD JUMPI PUSH2 0x20DD PUSH2 0x2D9C JUMP JUMPDEST PUSH1 0x1 SWAP1 SUB DUP2 DUP2 SWAP1 PUSH1 0x0 MSTORE PUSH1 0x20 PUSH1 0x0 KECCAK256 ADD PUSH1 0x0 SWAP1 SSTORE SWAP1 SSTORE POP POP POP POP JUMP JUMPDEST PUSH1 0x0 PUSH2 0x2104 DUP4 PUSH2 0xF3F JUMP JUMPDEST PUSH1 0x1 PUSH1 0x1 PUSH1 0xA0 SHL SUB SWAP1 SWAP4 AND PUSH1 0x0 SWAP1 DUP2 MSTORE PUSH1 0x6 PUSH1 0x20 SWAP1 DUP2 MSTORE PUSH1 0x40 DUP1 DUP4 KECCAK256 DUP7 DUP5 MSTORE DUP3 MSTORE DUP1 DUP4 KECCAK256 DUP6 SWAP1 SSTORE SWAP4 DUP3 MSTORE PUSH1 0x7 SWAP1 MSTORE SWAP2 SWAP1 SWAP2 KECCAK256 SWAP2 SWAP1 SWAP2 SSTORE POP JUMP JUMPDEST PUSH1 0x40 MLOAD DUP1 PUSH2 0x1C0 ADD PUSH1 0x40 MSTORE DUP1 PUSH1 0x0 DUP2 MSTORE PUSH1 0x20 ADD PUSH1 0x0 DUP2 MSTORE PUSH1 0x20 ADD PUSH1 0x0 DUP2 MSTORE PUSH1 0x20 ADD PUSH1 0x0 DUP2 MSTORE PUSH1 0x20 ADD PUSH1 0x0 DUP2 MSTORE PUSH1 0x20 ADD PUSH1 0x0 DUP2 MSTORE PUSH1 0x20 ADD PUSH1 0x0 DUP2 MSTORE PUSH1 0x20 ADD PUSH1 0x0 DUP2 MSTORE PUSH1 0x20 ADD PUSH1 0x0 DUP2 MSTORE PUSH1 0x20 ADD PUSH1 0x0 DUP2 MSTORE PUSH1 0x20 ADD PUSH1 0x0 DUP2 MSTORE PUSH1 0x20 ADD PUSH1 0x0 DUP2 MSTORE PUSH1 0x20 ADD PUSH1 0x0 DUP2 MSTORE PUSH1 0x20 ADD PUSH1 0x0 PUSH1 0x3 DUP2 GT ISZERO PUSH2 0x21B7 JUMPI PUSH2 0x21B7 PUSH2 0x244B JUMP JUMPDEST SWAP1 MSTORE SWAP1 JUMP JUMPDEST PUSH1 0x1 PUSH1 0x1 PUSH1 0xE0 SHL SUB NOT DUP2 AND DUP2 EQ PUSH2 0xA78 JUMPI PUSH1 0x0 DUP1 REVERT JUMPDEST PUSH1 0x0 PUSH1 0x20 DUP3 DUP5 SUB SLT ISZERO PUSH2 0x21E4 JUMPI PUSH1 0x0 DUP1 REVERT JUMPDEST DUP2 CALLDATALOAD PUSH2 0x21EF DUP2 PUSH2 0x21BC JUMP JUMPDEST SWAP4 SWAP3 POP POP POP JUMP JUMPDEST PUSH4 0x4E487B71 PUSH1 0xE0 SHL PUSH1 0x0 MSTORE PUSH1 0x41 PUSH1 0x4 MSTORE PUSH1 0x24 PUSH1 0x0 REVERT JUMPDEST PUSH1 0x0 PUSH8 0xFFFFFFFFFFFFFFFF DUP1 DUP5 GT ISZERO PUSH2 0x2227 JUMPI PUSH2 0x2227 PUSH2 0x21F6 JUMP JUMPDEST PUSH1 0x40 MLOAD PUSH1 0x1F DUP6 ADD PUSH1 0x1F NOT SWAP1 DUP2 AND PUSH1 0x3F ADD AND DUP2 ADD SWAP1 DUP3 DUP3 GT DUP2 DUP4 LT OR ISZERO PUSH2 0x224F JUMPI PUSH2 0x224F PUSH2 0x21F6 JUMP JUMPDEST DUP2 PUSH1 0x40 MSTORE DUP1 SWAP4 POP DUP6 DUP2 MSTORE DUP7 DUP7 DUP7 ADD GT ISZERO PUSH2 0x2268 JUMPI PUSH1 0x0 DUP1 REVERT JUMPDEST DUP6 DUP6 PUSH1 0x20 DUP4 ADD CALLDATACOPY PUSH1 0x0 PUSH1 0x20 DUP8 DUP4 ADD ADD MSTORE POP POP POP SWAP4 SWAP3 POP POP POP JUMP JUMPDEST PUSH1 0x0 DUP1 PUSH1 0x40 DUP4 DUP6 SUB SLT ISZERO PUSH2 0x2295 JUMPI PUSH1 0x0 DUP1 REVERT JUMPDEST DUP3 CALLDATALOAD SWAP2 POP PUSH1 0x20 DUP4 ADD CALLDATALOAD PUSH8 0xFFFFFFFFFFFFFFFF DUP2 GT ISZERO PUSH2 0x22B3 JUMPI PUSH1 0x0 DUP1 REVERT JUMPDEST DUP4 ADD PUSH1 0x1F DUP2 ADD DUP6 SGT PUSH2 0x22C4 JUMPI PUSH1 0x0 DUP1 REVERT JUMPDEST PUSH2 0x22D3 DUP6 DUP3 CALLDATALOAD PUSH1 0x20 DUP5 ADD PUSH2 0x220C JUMP JUMPDEST SWAP2 POP POP SWAP3 POP SWAP3 SWAP1 POP JUMP JUMPDEST PUSH1 0x0 JUMPDEST DUP4 DUP2 LT ISZERO PUSH2 0x22F8 JUMPI DUP2 DUP2 ADD MLOAD DUP4 DUP3 ADD MSTORE PUSH1 0x20 ADD PUSH2 0x22E0 JUMP JUMPDEST DUP4 DUP2 GT ISZERO PUSH2 0x154D JUMPI POP POP PUSH1 0x0 SWAP2 ADD MSTORE JUMP JUMPDEST PUSH1 0x0 DUP2 MLOAD DUP1 DUP5 MSTORE PUSH2 0x2321 DUP2 PUSH1 0x20 DUP7 ADD PUSH1 0x20 DUP7 ADD PUSH2 0x22DD JUMP JUMPDEST PUSH1 0x1F ADD PUSH1 0x1F NOT AND SWAP3 SWAP1 SWAP3 ADD PUSH1 0x20 ADD SWAP3 SWAP2 POP POP JUMP JUMPDEST PUSH1 0x20 DUP2 MSTORE PUSH1 0x0 PUSH2 0x21EF PUSH1 0x20 DUP4 ADD DUP5 PUSH2 0x2309 JUMP JUMPDEST PUSH1 0x0 PUSH1 0x20 DUP3 DUP5 SUB SLT ISZERO PUSH2 0x235A JUMPI PUSH1 0x0 DUP1 REVERT JUMPDEST POP CALLDATALOAD SWAP2 SWAP1 POP JUMP JUMPDEST DUP1 CALLDATALOAD PUSH1 0x1 PUSH1 0x1 PUSH1 0xA0 SHL SUB DUP2 AND DUP2 EQ PUSH2 0x2378 JUMPI PUSH1 0x0 DUP1 REVERT JUMPDEST SWAP2 SWAP1 POP JUMP JUMPDEST PUSH1 0x0 DUP1 PUSH1 0x40 DUP4 DUP6 SUB SLT ISZERO PUSH2 0x2390 JUMPI PUSH1 0x0 DUP1 REVERT JUMPDEST PUSH2 0x2399 DUP4 PUSH2 0x2361 JUMP JUMPDEST SWAP5 PUSH1 0x20 SWAP4 SWAP1 SWAP4 ADD CALLDATALOAD SWAP4 POP POP POP JUMP JUMPDEST PUSH1 0x0 DUP1 PUSH1 0x0 PUSH1 0x60 DUP5 DUP7 SUB SLT ISZERO PUSH2 0x23BC JUMPI PUSH1 0x0 DUP1 REVERT JUMPDEST PUSH2 0x23C5 DUP5 PUSH2 0x2361 JUMP JUMPDEST SWAP3 POP PUSH2 0x23D3 PUSH1 0x20 DUP6 ADD PUSH2 0x2361 JUMP JUMPDEST SWAP2 POP PUSH1 0x40 DUP5 ADD CALLDATALOAD SWAP1 POP SWAP3 POP SWAP3 POP SWAP3 JUMP JUMPDEST PUSH1 0x0 PUSH1 0x20 DUP3 DUP5 SUB SLT ISZERO PUSH2 0x23F5 JUMPI PUSH1 0x0 DUP1 REVERT JUMPDEST PUSH2 0x21EF DUP3 PUSH2 0x2361 JUMP JUMPDEST PUSH1 0x0 DUP1 PUSH1 0x0 DUP1 PUSH1 0x0 PUSH1 0xA0 DUP7 DUP9 SUB SLT ISZERO PUSH2 0x2416 JUMPI PUSH1 0x0 DUP1 REVERT JUMPDEST DUP6 CALLDATALOAD SWAP5 POP PUSH1 0x20 DUP7 ADD CALLDATALOAD SWAP4 POP PUSH1 0x40 DUP7 ADD CALLDATALOAD PUSH1 0x4 DUP2 LT PUSH2 0x2433 JUMPI PUSH1 0x0 DUP1 REVERT JUMPDEST SWAP5 SWAP8 SWAP4 SWAP7 POP SWAP4 SWAP5 PUSH1 0x60 DUP2 ADD CALLDATALOAD SWAP5 POP PUSH1 0x80 ADD CALLDATALOAD SWAP3 SWAP2 POP POP JUMP JUMPDEST PUSH4 0x4E487B71 PUSH1 0xE0 SHL PUSH1 0x0 MSTORE PUSH1 0x21 PUSH1 0x4 MSTORE PUSH1 0x24 PUSH1 0x0 REVERT JUMPDEST PUSH1 0x4 DUP2 LT PUSH2 0x247F JUMPI PUSH4 0x4E487B71 PUSH1 0xE0 SHL PUSH1 0x0 MSTORE PUSH1 0x21 PUSH1 0x4 MSTORE PUSH1 0x24 PUSH1 0x0 REVERT JUMPDEST SWAP1 MSTORE JUMP JUMPDEST PUSH1 0x0 PUSH2 0x1C0 DUP3 ADD SWAP1 POP DUP3 MLOAD DUP3 MSTORE PUSH1 0x20 DUP4 ADD MLOAD PUSH1 0x20 DUP4 ADD MSTORE PUSH1 0x40 DUP4 ADD MLOAD PUSH1 0x40 DUP4 ADD MSTORE PUSH1 0x60 DUP4 ADD MLOAD PUSH1 0x60 DUP4 ADD MSTORE PUSH1 0x80 DUP4 ADD MLOAD PUSH1 0x80 DUP4 ADD MSTORE PUSH1 0xA0 DUP4 ADD MLOAD PUSH1 0xA0 DUP4 ADD MSTORE PUSH1 0xC0 DUP4 ADD MLOAD PUSH1 0xC0 DUP4 ADD MSTORE PUSH1 0xE0 DUP4 ADD MLOAD PUSH1 0xE0 DUP4 ADD MSTORE PUSH2 0x100 DUP1 DUP5 ADD MLOAD DUP2 DUP5 ADD MSTORE POP PUSH2 0x120 DUP1 DUP5 ADD MLOAD DUP2 DUP5 ADD MSTORE POP PUSH2 0x140 DUP1 DUP5 ADD MLOAD DUP2 DUP5 ADD MSTORE POP PUSH2 0x160 DUP1 DUP5 ADD MLOAD DUP2 DUP5 ADD MSTORE POP PUSH2 0x180 DUP1 DUP5 ADD MLOAD DUP2 DUP5 ADD MSTORE POP PUSH2 0x1A0 DUP1 DUP5 ADD MLOAD PUSH2 0x2525 DUP3 DUP6 ADD DUP3 PUSH2 0x2461 JUMP JUMPDEST POP POP SWAP3 SWAP2 POP POP JUMP JUMPDEST PUSH1 0x0 DUP1 PUSH1 0x40 DUP4 DUP6 SUB SLT ISZERO PUSH2 0x2540 JUMPI PUSH1 0x0 DUP1 REVERT JUMPDEST PUSH2 0x2549 DUP4 PUSH2 0x2361 JUMP JUMPDEST SWAP2 POP PUSH1 0x20 DUP4 ADD CALLDATALOAD DUP1 ISZERO ISZERO DUP2 EQ PUSH2 0x255E JUMPI PUSH1 0x0 DUP1 REVERT JUMPDEST DUP1 SWAP2 POP POP SWAP3 POP SWAP3 SWAP1 POP JUMP JUMPDEST PUSH1 0x0 DUP1 PUSH1 0x0 DUP1 PUSH1 0x80 DUP6 DUP8 SUB SLT ISZERO PUSH2 0x257F JUMPI PUSH1 0x0 DUP1 REVERT JUMPDEST PUSH2 0x2588 DUP6 PUSH2 0x2361 JUMP JUMPDEST SWAP4 POP PUSH2 0x2596 PUSH1 0x20 DUP7 ADD PUSH2 0x2361 JUMP JUMPDEST SWAP3 POP PUSH1 0x40 DUP6 ADD CALLDATALOAD SWAP2 POP PUSH1 0x60 DUP6 ADD CALLDATALOAD PUSH8 0xFFFFFFFFFFFFFFFF DUP2 GT ISZERO PUSH2 0x25B9 JUMPI PUSH1 0x0 DUP1 REVERT JUMPDEST DUP6 ADD PUSH1 0x1F DUP2 ADD DUP8 SGT PUSH2 0x25CA JUMPI PUSH1 0x0 DUP1 REVERT JUMPDEST PUSH2 0x25D9 DUP8 DUP3 CALLDATALOAD PUSH1 0x20 DUP5 ADD PUSH2 0x220C JUMP JUMPDEST SWAP2 POP POP SWAP3 SWAP6 SWAP2 SWAP5 POP SWAP3 POP JUMP JUMPDEST PUSH1 0x0 PUSH2 0x1C0 DUP3 ADD SWAP1 POP DUP16 DUP3 MSTORE DUP15 PUSH1 0x20 DUP4 ADD MSTORE DUP14 PUSH1 0x40 DUP4 ADD MSTORE DUP13 PUSH1 0x60 DUP4 ADD MSTORE DUP12 PUSH1 0x80 DUP4 ADD MSTORE DUP11 PUSH1 0xA0 DUP4 ADD MSTORE DUP10 PUSH1 0xC0 DUP4 ADD MSTORE DUP9 PUSH1 0xE0 DUP4 ADD MSTORE DUP8 PUSH2 0x100 DUP4 ADD MSTORE DUP7 PUSH2 0x120 DUP4 ADD MSTORE DUP6 PUSH2 0x140 DUP4 ADD MSTORE DUP5 PUSH2 0x160 DUP4 ADD MSTORE DUP4 PUSH2 0x180 DUP4 ADD MSTORE PUSH2 0x264C PUSH2 0x1A0 DUP4 ADD DUP5 PUSH2 0x2461 JUMP JUMPDEST SWAP16 SWAP15 POP POP POP POP POP POP POP POP POP POP POP POP POP POP POP JUMP JUMPDEST PUSH1 0x0 DUP1 PUSH1 0x40 DUP4 DUP6 SUB SLT ISZERO PUSH2 0x2672 JUMPI PUSH1 0x0 DUP1 REVERT JUMPDEST PUSH2 0x267B DUP4 PUSH2 0x2361 JUMP JUMPDEST SWAP2 POP PUSH2 0x2689 PUSH1 0x20 DUP5 ADD PUSH2 0x2361 JUMP JUMPDEST SWAP1 POP SWAP3 POP SWAP3 SWAP1 POP JUMP JUMPDEST PUSH1 0x0 DUP2 MLOAD PUSH2 0x26A4 DUP2 DUP6 PUSH1 0x20 DUP7 ADD PUSH2 0x22DD JUMP JUMPDEST SWAP3 SWAP1 SWAP3 ADD SWAP3 SWAP2 POP POP JUMP JUMPDEST PUSH32 0x7B226465736372697074696F6E223A202257697A61726441726D792200000000 DUP2 MSTORE PUSH32 0x2C202265787465726E616C5F75726C223A202268747470733A2F2F77697A6172 PUSH1 0x1C DUP3 ADD MSTORE PUSH32 0x6461726D794E46542E636F6D20286F7220736F6D657468696E67206C696B6520 PUSH1 0x3C DUP3 ADD MSTORE PUSH6 0x3A3434B99491 PUSH1 0xD1 SHL PUSH1 0x5C DUP3 ADD MSTORE PUSH12 0x16101134B6B0B3B2911D1011 PUSH1 0xA1 SHL PUSH1 0x62 DUP3 ADD MSTORE DUP3 MLOAD PUSH1 0x0 SWAP1 PUSH2 0x2757 DUP2 PUSH1 0x6E DUP6 ADD PUSH1 0x20 DUP9 ADD PUSH2 0x22DD JUMP JUMPDEST PUSH1 0x11 PUSH1 0xF9 SHL PUSH1 0x6E SWAP2 DUP5 ADD SWAP2 DUP3 ADD MSTORE PUSH18 0x1610113730B6B2911D10112BB4BD30B93211 PUSH1 0x71 SHL PUSH1 0x6F DUP3 ADD MSTORE PUSH32 0x2C202261747472696275746573223A205B7B22646973706C61795F7479706522 PUSH1 0x81 DUP3 ADD MSTORE PUSH32 0x3A20226E756D626572222C202274726169745F74797065223A20226C6576656C PUSH1 0xA1 DUP3 ADD MSTORE PUSH12 0x111610113B30B63AB2911D1 PUSH1 0xA5 SHL PUSH1 0xC1 DUP3 ADD MSTORE PUSH2 0x27FF PUSH2 0x27F1 PUSH1 0xCD DUP4 ADD DUP7 PUSH2 0x2692 JUMP JUMPDEST PUSH2 0x207D PUSH1 0xF0 SHL DUP2 MSTORE PUSH1 0x2 ADD SWAP1 JUMP JUMPDEST SWAP6 SWAP5 POP POP POP POP POP JUMP JUMPDEST PUSH1 0x0 DUP6 MLOAD PUSH2 0x281A DUP2 DUP5 PUSH1 0x20 DUP11 ADD PUSH2 0x22DD JUMP JUMPDEST DUP1 DUP4 ADD SWAP1 POP PUSH32 0x2C207B22646973706C61795F74797065223A20226E756D626572222C20227472 DUP1 DUP3 MSTORE PUSH32 0x6169745F74797065223A20226870222C202276616C7565223A20000000000000 PUSH1 0x20 DUP4 ADD MSTORE DUP7 MLOAD PUSH2 0x287C DUP2 PUSH1 0x3A DUP6 ADD PUSH1 0x20 DUP12 ADD PUSH2 0x22DD JUMP JUMPDEST PUSH2 0x207D PUSH1 0xF0 SHL PUSH1 0x3A SWAP4 SWAP1 SWAP2 ADD SWAP3 DUP4 ADD DUP2 SWAP1 MSTORE PUSH1 0x3C DUP4 ADD DUP3 SWAP1 MSTORE PUSH32 0x6169745F74797065223A20226D61676963616C20706F776572222C202276616C PUSH1 0x5C DUP5 ADD MSTORE PUSH5 0x3AB2911D1 PUSH1 0xDD SHL PUSH1 0x7C DUP5 ADD MSTORE DUP7 MLOAD PUSH2 0x28DC DUP2 PUSH1 0x81 DUP7 ADD PUSH1 0x20 DUP12 ADD PUSH2 0x22DD JUMP JUMPDEST PUSH1 0x81 SWAP4 ADD SWAP3 DUP4 ADD MSTORE PUSH1 0x83 DUP3 ADD MSTORE PUSH32 0x6169745F74797065223A20226D61676963616C20646566656E7365222C202276 PUSH1 0xA3 DUP3 ADD MSTORE PUSH7 0x30B63AB2911D1 PUSH1 0xCD SHL PUSH1 0xC3 DUP3 ADD MSTORE PUSH2 0x292F PUSH2 0x27F1 PUSH1 0xCA DUP4 ADD DUP7 PUSH2 0x2692 JUMP JUMPDEST SWAP8 SWAP7 POP POP POP POP POP POP POP JUMP JUMPDEST PUSH1 0x0 DUP5 MLOAD PUSH2 0x294C DUP2 DUP5 PUSH1 0x20 DUP10 ADD PUSH2 0x22DD JUMP JUMPDEST DUP1 DUP4 ADD SWAP1 POP PUSH32 0x2C207B22646973706C61795F74797065223A20226E756D626572222C20227472 DUP1 DUP3 MSTORE PUSH32 0x6169745F74797065223A20227370656564222C202276616C7565223A20000000 PUSH1 0x20 DUP4 ADD MSTORE DUP6 MLOAD PUSH2 0x29AE DUP2 PUSH1 0x3D DUP6 ADD PUSH1 0x20 DUP11 ADD PUSH2 0x22DD JUMP JUMPDEST DUP1 DUP4 ADD SWAP3 POP POP PUSH2 0x207D PUSH1 0xF0 SHL DUP1 PUSH1 0x3D DUP5 ADD MSTORE DUP2 PUSH1 0x3F DUP5 ADD MSTORE PUSH32 0x6169745F74797065223A20226D70222C202276616C7565223A20000000000000 PUSH1 0x5F DUP5 ADD MSTORE DUP6 MLOAD SWAP2 POP PUSH2 0x2A01 DUP3 PUSH1 0x79 DUP6 ADD PUSH1 0x20 DUP10 ADD PUSH2 0x22DD JUMP JUMPDEST PUSH1 0x79 SWAP3 SWAP1 SWAP2 ADD SWAP2 DUP3 ADD MSTORE PUSH1 0x7B ADD SWAP6 SWAP5 POP POP POP POP POP JUMP JUMPDEST PUSH1 0x0 DUP6 MLOAD PUSH2 0x2A29 DUP2 DUP5 PUSH1 0x20 DUP11 ADD PUSH2 0x22DD JUMP JUMPDEST DUP1 DUP4 ADD SWAP1 POP PUSH32 0x2C207B22646973706C61795F74797065223A20226E756D626572222C20227472 DUP1 DUP3 MSTORE PUSH32 0x6169745F74797065223A20226C6F73736573222C202276616C7565223A200000 PUSH1 0x20 DUP4 ADD MSTORE DUP7 MLOAD PUSH2 0x2A8B DUP2 PUSH1 0x3E DUP6 ADD PUSH1 0x20 DUP12 ADD PUSH2 0x22DD JUMP JUMPDEST DUP1 DUP4 ADD SWAP3 POP POP PUSH2 0x207D PUSH1 0xF0 SHL DUP1 PUSH1 0x3E DUP5 ADD MSTORE DUP2 PUSH1 0x40 DUP5 ADD MSTORE PUSH32 0x6169745F74797065223A2022626174746C6573222C202276616C7565223A2000 PUSH1 0x60 DUP5 ADD MSTORE DUP7 MLOAD PUSH2 0x2ADC DUP2 PUSH1 0x7F DUP7 ADD PUSH1 0x20 DUP12 ADD PUSH2 0x22DD JUMP JUMPDEST PUSH1 0x7F SWAP4 ADD SWAP3 DUP4 ADD MSTORE PUSH1 0x81 DUP3 ADD MSTORE PUSH32 0x6169745F74797065223A2022746F6B656E73436C61696D6564222C202276616C PUSH1 0xA1 DUP3 ADD MSTORE PUSH5 0x3AB2911D1 PUSH1 0xDD SHL PUSH1 0xC1 DUP3 ADD MSTORE PUSH2 0x292F PUSH2 0x27F1 PUSH1 0xC6 DUP4 ADD DUP7 PUSH2 0x2692 JUMP JUMPDEST PUSH1 0x0 DUP3 MLOAD PUSH2 0x2B3F DUP2 DUP5 PUSH1 0x20 DUP8 ADD PUSH2 0x22DD JUMP JUMPDEST PUSH1 0x5D PUSH1 0xF8 SHL SWAP3 ADD SWAP2 DUP3 MSTORE POP PUSH1 0x7D PUSH1 0xF8 SHL PUSH1 0x1 DUP3 ADD MSTORE PUSH1 0x2 ADD SWAP2 SWAP1 POP JUMP JUMPDEST PUSH1 0x1 DUP2 DUP2 SHR SWAP1 DUP3 AND DUP1 PUSH2 0x2B70 JUMPI PUSH1 0x7F DUP3 AND SWAP2 POP JUMPDEST PUSH1 0x20 DUP3 LT DUP2 EQ ISZERO PUSH2 0x2B91 JUMPI PUSH4 0x4E487B71 PUSH1 0xE0 SHL PUSH1 0x0 MSTORE PUSH1 0x22 PUSH1 0x4 MSTORE PUSH1 0x24 PUSH1 0x0 REVERT JUMPDEST POP SWAP2 SWAP1 POP JUMP JUMPDEST PUSH4 0x4E487B71 PUSH1 0xE0 SHL PUSH1 0x0 MSTORE PUSH1 0x12 PUSH1 0x4 MSTORE PUSH1 0x24 PUSH1 0x0 REVERT JUMPDEST PUSH1 0x0 DUP3 PUSH2 0x2BBC JUMPI PUSH2 0x2BBC PUSH2 0x2B97 JUMP JUMPDEST POP MOD SWAP1 JUMP JUMPDEST PUSH4 0x4E487B71 PUSH1 0xE0 SHL PUSH1 0x0 MSTORE PUSH1 0x11 PUSH1 0x4 MSTORE PUSH1 0x24 PUSH1 0x0 REVERT JUMPDEST PUSH1 0x0 DUP3 NOT DUP3 GT ISZERO PUSH2 0x2BEA JUMPI PUSH2 0x2BEA PUSH2 0x2BC1 JUMP JUMPDEST POP ADD SWAP1 JUMP JUMPDEST PUSH1 0x0 DUP3 PUSH2 0x2BFE JUMPI PUSH2 0x2BFE PUSH2 0x2B97 JUMP JUMPDEST POP DIV SWAP1 JUMP JUMPDEST PUSH1 0x0 DUP2 PUSH1 0x0 NOT DIV DUP4 GT DUP3 ISZERO ISZERO AND ISZERO PUSH2 0x2C1D JUMPI PUSH2 0x2C1D PUSH2 0x2BC1 JUMP JUMPDEST POP MUL SWAP1 JUMP JUMPDEST PUSH1 0x20 DUP1 DUP3 MSTORE PUSH1 0x31 SWAP1 DUP3 ADD MSTORE PUSH32 0x4552433732313A207472616E736665722063616C6C6572206973206E6F74206F PUSH1 0x40 DUP3 ADD MSTORE PUSH17 0x1DDB995C881B9BDC88185C1C1C9BDD9959 PUSH1 0x7A SHL PUSH1 0x60 DUP3 ADD MSTORE PUSH1 0x80 ADD SWAP1 JUMP JUMPDEST PUSH4 0x4E487B71 PUSH1 0xE0 SHL PUSH1 0x0 MSTORE PUSH1 0x32 PUSH1 0x4 MSTORE PUSH1 0x24 PUSH1 0x0 REVERT JUMPDEST PUSH1 0x20 DUP1 DUP3 MSTORE DUP2 DUP2 ADD MSTORE PUSH32 0x4F776E61626C653A2063616C6C6572206973206E6F7420746865206F776E6572 PUSH1 0x40 DUP3 ADD MSTORE PUSH1 0x60 ADD SWAP1 JUMP JUMPDEST PUSH1 0x0 PUSH1 0x0 NOT DUP3 EQ ISZERO PUSH2 0x2CD2 JUMPI PUSH2 0x2CD2 PUSH2 0x2BC1 JUMP JUMPDEST POP PUSH1 0x1 ADD SWAP1 JUMP JUMPDEST PUSH1 0x0 DUP3 DUP3 LT ISZERO PUSH2 0x2CEB JUMPI PUSH2 0x2CEB PUSH2 0x2BC1 JUMP JUMPDEST POP SUB SWAP1 JUMP JUMPDEST PUSH1 0x20 DUP1 DUP3 MSTORE PUSH1 0x32 SWAP1 DUP3 ADD MSTORE PUSH32 0x4552433732313A207472616E7366657220746F206E6F6E204552433732315265 PUSH1 0x40 DUP3 ADD MSTORE PUSH18 0x31B2B4BB32B91034B6B83632B6B2B73A32B9 PUSH1 0x71 SHL PUSH1 0x60 DUP3 ADD MSTORE PUSH1 0x80 ADD SWAP1 JUMP JUMPDEST PUSH1 0x1 PUSH1 0x1 PUSH1 0xA0 SHL SUB DUP6 DUP2 AND DUP3 MSTORE DUP5 AND PUSH1 0x20 DUP3 ADD MSTORE PUSH1 0x40 DUP2 ADD DUP4 SWAP1 MSTORE PUSH1 0x80 PUSH1 0x60 DUP3 ADD DUP2 SWAP1 MSTORE PUSH1 0x0 SWAP1 PUSH2 0x2D75 SWAP1 DUP4 ADD DUP5 PUSH2 0x2309 JUMP JUMPDEST SWAP7 SWAP6 POP POP POP POP POP POP JUMP JUMPDEST PUSH1 0x0 PUSH1 0x20 DUP3 DUP5 SUB SLT ISZERO PUSH2 0x2D91 JUMPI PUSH1 0x0 DUP1 REVERT JUMPDEST DUP2 MLOAD PUSH2 0x21EF DUP2 PUSH2 0x21BC JUMP JUMPDEST PUSH4 0x4E487B71 PUSH1 0xE0 SHL PUSH1 0x0 MSTORE PUSH1 0x31 PUSH1 0x4 MSTORE PUSH1 0x24 PUSH1 0x0 REVERT INVALID PUSH9 0x747470733A2F2F6173 ORIGIN 0x2E PUSH7 0x7463646E2E6E65 PUSH21 0x2F76322F6A70672F30332F31322F37372F30332F31 ADDRESS ADDRESS ADDRESS 0x5F CHAINID 0x5F CALLER BALANCE ORIGIN CALLDATACOPY CALLDATACOPY ADDRESS CALLER CALLVALUE CODECOPY 0x5F CALLVALUE PUSH13 0x6B464E336532556C4F34336B51 PUSH13 0x46656D464E4970566B47355A77 PUSH26 0x74712E6A7067A2646970667358221220263AA2876DC8FA5EFC11 DUP8 PUSH31 0xFB29D7825D8735A66F2607FFE9C55CD381E8F01E64736F6C634300080C0033 ",
  "sha1": "274422b039e538ccf2b7d5ee60f41f46918bf2fe",
  "source": "// SPDX-License-Identifier: MIT\npragma solidity ^0.8.0;\n\n//import \"./helpers/ERC721.sol\";\nimport \"./helpers/Ownable.sol\";\nimport \"./helpers/ERC721Enumerable.sol\";\nimport \"./libraries/Strings.sol\";\n\n//import \"OpenZeppelin/openzeppelin-contracts@4.6.0/contracts/token/ERC721/ERC721.sol\";\n//import \"estarriolvetch/ERC721Psi/contracts/ERC721Psi.sol\";\n\ncontract Wizards is ERC721Enumerable, Ownable {\n    // cull the herd and reduce to 1000?\n//    uint256 public totalSupply = 0;\n    mapping (uint256 => Stats) public tokenIdToStats;\n    address public battler; /// contract address to update stats\n    address public verifier; /// contract address to update stats\n\n    enum ELEMENT {FIRE, WIND, WATER, EARTH}\n    enum OUTCOME {LOSS, WIN, TIE, CAPTURE}\n\n    // todo -- add level (will affect dApp)\n    struct Stats { // todo refine and move to bitencoding\n        uint256 level;\n        uint256 hp;\n        uint256 magicalPower;\n        uint256 magicalDefense;\n        uint256 speed;\n        uint256 wins;\n        uint256 losses;\n        uint256 battles;\n        uint256 tokensClaimed;\n        uint256 goodness;\n        uint256 badness;\n        uint256 initiationTimestamp; // 0 if uninitiated\n        uint256 protectedUntilTimestamp; // after this timestamp, NFT can be crushed\n        ELEMENT element;\n    }\n\n    struct ContractSettings { // todo refine\n        uint256 mintCost;\n        uint256 initiationCost;\n        uint256 maxSupply;\n        uint256 protectionTimeExtension;\n        address ecosystemTokenAddress;\n    }\n\n    ContractSettings public contractSettings;\n    // 8 images\n\n    // 8 phases, must initiate first\n\n    event NewVerifier(address battler);\n    event NewBattler(address verifier);\n    event Initiated(address initiater, uint256 indexed wizardId, uint256 timestamp);\n\n\n    ////////////////////\n    ////    Get       //\n    ////////////////////\n    function isActive(uint256 _wizardId) public view returns(bool) {\n        return tokenIdToStats[_wizardId].protectedUntilTimestamp > block.timestamp;\n    }\n\n    function getStatsGivenId(uint256 _wizardId) external view returns(Stats memory) {\n        return tokenIdToStats[_wizardId];\n    }\n\n\n    ///////////////////////////\n    ////// Core Functions /////\n    ///////////////////////////\n    constructor(string memory name_, string memory symbol_, address _address) ERC721(name_, symbol_) {\n        contractSettings.maxSupply = 10000;\n        contractSettings.initiationCost = 1;\n        contractSettings.mintCost = 5; // todo -- do in less steps\n        contractSettings.protectionTimeExtension = 1 days; // todo -- do in less steps\n        contractSettings.ecosystemTokenAddress = _address; // todo -- do in less steps\n    }\n\n    function mint() external {\n        require(totalSupply() < contractSettings.maxSupply, \"at max supply.\");\n        // todo -- randomly create stats\n        //\n        // hp, base = 25\n        // mp base = 25\n\n        uint256 pseudoRandNum = uint256(keccak256(abi.encodePacked(totalSupply(), msg.sender, block.timestamp)));\n//        uint256 addOn = uint256(keccak256(abi.encodePacked(totalSupply(), msg.sender, block.timestamp))) % 26;\n        uint256 hp = 25 + pseudoRandNum % 26;\n        uint256 magicalPower = 25 + (pseudoRandNum/100) % 26;\n        uint256 magicalDefense = 10 + (pseudoRandNum/10*4) % 10;\n        uint256 speed = 10 + (pseudoRandNum/10*5) % 10;\n        ELEMENT element = ELEMENT((pseudoRandNum/10*6) % 4);\n\n        Stats memory myStats =  Stats(1, hp, magicalPower, magicalDefense, speed, 0, 0, 0, 0, 0, 0, 0, 0, element);\n        tokenIdToStats[totalSupply()] = myStats;\n        _safeMint(msg.sender, totalSupply());\n//        unchecked { totalSupply() += 1; }\n    }\n\n\n    /**\n     * @dev Moves NFT from inactive to active\n     */\n    function initiate(uint256 _tokenId) external {\n        require(ownerOf(_tokenId) == msg.sender, \"must be owner\");\n        require(tokenIdToStats[_tokenId].initiationTimestamp == 0, \"already initiated\");\n        // todo -- receive fee\n\n        Stats storage myStats = tokenIdToStats[_tokenId];\n        myStats.initiationTimestamp = block.timestamp;\n        myStats.protectedUntilTimestamp = block.timestamp + contractSettings.protectionTimeExtension;\n\n        emit Initiated(msg.sender, _tokenId, block.timestamp);\n    }\n\n    function reportBattle(uint256 _attackerId, uint256 _defenderId, OUTCOME outcome, uint256 _tokensWon,\n        uint256 _tokensWaged) external onlyBattler {\n        if(outcome == OUTCOME.WIN){\n            tokenIdToStats[_attackerId].wins += 1;\n            tokenIdToStats[_defenderId].losses += 1;\n\n        }\n        else if(outcome == OUTCOME.LOSS){\n            tokenIdToStats[_attackerId].losses += 1;\n            tokenIdToStats[_defenderId].wins += 1;\n        }\n\n        tokenIdToStats[_attackerId].tokensClaimed += _tokensWon;\n\n        // todo -- tokens waged?\n//        tokenIdToStats[_defenderId].tokensClaimed += _tokensWon;\n        // todo -- add stat for last time attacked to limit attack frequency?\n\n        // we switched to ETH\n//        if(_won==OUTCOME.LOSS) {\n//            tokenIdToStats[_defenderId].tokensClaimed += _tokensWaged; // todo -- this ignores commission\n//        }\n    }\n\n    /**\n     * @dev Gets phase of NFT\n     */\n    function getPhaseOf(uint256 _tokenId) public returns(uint256) {\n\n    }\n\n    /**\n     * @dev check if NFT is deserted--negligent in duties.\n     */\n    function getIsDeserted(uint256 _tokenId) public returns(bool) {\n\n    }\n\n    /**\n     * @dev Verify duties of NFT. Not duty specific\n     */\n    function verifyDuty(uint256 _tokenId) external onlyVerifier {\n    }\n\n    /**\n     * @dev uninitiate an NFT that is negligent in duties. Reward crusher\n     */\n    function crush(uint256 _tokenId) onlyHolder external {\n    }\n\n\n    function tokenURI(uint256 _tokenId) public view virtual override returns (string memory) {\n        require(_exists(_tokenId), \"ERC721Metadata: URI query for nonexistent token\");\n        // todo -- update image\n        return formatTokenURI(_tokenId, \"https://as2.ftcdn.net/v2/jpg/03/12/77/03/1000_F_312770349_4lkFN3e2UlO43kQlFemFNIpVkG5Zwytq.jpg\");\n    }\n\n    function formatTokenURI(uint256 _tokenId, string memory imageURI) public view returns (string memory) {\n//        Data memory _myData = unpackData(_tokenId);\n        Stats memory myStats = tokenIdToStats[_tokenId];\n\n        string memory json_str = string(abi.encodePacked(\n            '{\"description\": \"WizardArmy\"',\n            ', \"external_url\": \"https://wizardarmyNFT.com (or something like this)\"',\n            ', \"image\": \"',\n             imageURI, '\"',\n            ', \"name\": \"Wizard\"',\n            // attributes\n            ', \"attributes\": [{\"display_type\": \"number\", \"trait_type\": \"level\", \"value\": ',\n            Strings.toString(myStats.level), ' }'\n        ));\n\n        // use this format to add extra properties\n        json_str = string(abi.encodePacked(json_str,\n            ', {\"display_type\": \"number\", \"trait_type\": \"hp\", \"value\": ',\n            Strings.toString(myStats.hp),   ' }',\n            ', {\"display_type\": \"number\", \"trait_type\": \"magical power\", \"value\": ',\n            Strings.toString(myStats.magicalPower),   ' }',\n                ', {\"display_type\": \"number\", \"trait_type\": \"magical defense\", \"value\": ',\n            Strings.toString(myStats.magicalDefense),   ' }'\n        ));\n\n        // use this format to add extra properties\n        json_str = string(abi.encodePacked(json_str,\n            ', {\"display_type\": \"number\", \"trait_type\": \"speed\", \"value\": ',\n            Strings.toString(myStats.speed),   ' }',\n            ', {\"display_type\": \"number\", \"trait_type\": \"mp\", \"value\": ',\n            Strings.toString(myStats.wins),   ' }'\n        ));\n\n\n        // use this format to add extra properties\n        json_str = string(abi.encodePacked(json_str,\n            ', {\"display_type\": \"number\", \"trait_type\": \"losses\", \"value\": ',\n            Strings.toString(myStats.losses),   ' }',\n            ', {\"display_type\": \"number\", \"trait_type\": \"battles\", \"value\": ',\n            Strings.toString(myStats.battles),   ' }',\n                ', {\"display_type\": \"number\", \"trait_type\": \"tokensClaimed\", \"value\": ',\n            Strings.toString(myStats.tokensClaimed),   ' }'\n        ));\n\n        // end string\n        json_str = string(abi.encodePacked(json_str, ']','}'));\n\n//        string memory json_str = string(abi.encodePacked(\n//            '{\"description\": \"WizardArmy\"',\n//            ', \"external_url\": \"https://wizardarmyNFT.com (or something like this)\"',\n//            ', \"image\": \"',\n//             imageURI, '\"',\n//            ', \"name\": \"Wizard\"',\n//            // attributes\n//            ', \"attributes\": [{\"display_type\": \"number\", \"trait_type\": \"level\", \"value\": ',\n//            '11111111',   ' }'\n//        ));\n//        json_str = string(abi.encodePacked(json_str,\n//            ', {\"display_type\": \"number\", \"trait_type\": \"hp\", \"value\": ',\n//            '2222222222',   ' }',\n//            ', {\"display_type\": \"number\", \"trait_type\": \"mp\", \"value\": ',\n//            '33333333333333333',   ' }',\n//                ', {\"display_type\": \"number\", \"trait_type\": \"wins\", \"value\": ',\n//            '4444444444',   ' }',\n//            ']', // End Attributes\n//            '}'\n//        ));\n        return json_str;\n    }\n\n//    function uint2str(uint _i) internal pure returns (string memory _uintAsString) {\n//        if (_i == 0) {\n//            return \"0\";\n//        }\n//        uint j = _i;\n//        uint len;\n//        while (j != 0) {\n//            len++;\n//            j /= 10;\n//        }\n//        bytes memory bstr = new bytes(len);\n//        uint k = len - 1;\n//        while (_i != 0) {\n//            bstr[k--] = bytes1(uint8(48 + _i % 10));\n//            _i /= 10;\n//        }\n//        return string(bstr);\n//    }\n\n\n    ///////////////////////////\n    ////// Modifiers      /////\n    ///////////////////////////\n\n    modifier onlyVerifier() {\n        require(msg.sender != address(this), 'only verifier'); // todo -- decide who will verify--one or many addresses\n        _;\n    }\n\n    modifier onlyHolder() {\n        require(msg.sender != address(this), 'only verifier'); // todo -- decide who will verify--one or many addresses\n        _;\n    }\n\n    modifier onlyBattler() {\n        require(\n            msg.sender == battler,\n            \"Only battler can call this function.\"\n        );\n        _;\n    }\n\n    ///////////////////////////\n    ////// Admin      /////\n    ///////////////////////////\n\n    function updateBattler(address _battler) external onlyOwner {\n        require(_battler != address(0) && _battler != battler, \"Invalid operator address\");\n        battler = _battler;\n        emit NewBattler(_battler);\n    }\n\n    function updateVerifier(address _verifier) external onlyOwner {\n        require(_verifier != address(0) && _verifier != verifier, \"Invalid operator address\");\n        verifier = _verifier;\n        emit NewVerifier(_verifier);\n    }\n\n}",
  "sourcePath": "contracts/wizards.sol",
  "type": "contract"
}