{
  "abi": [
    {
      "inputs": [
        {
          "internalType": "address",
          "name": "_nft",
          "type": "address"
        },
        {
          "internalType": "address",
          "name": "_wizardTower",
          "type": "address"
        }
      ],
      "stateMutability": "nonpayable",
      "type": "constructor"
    },
    {
      "inputs": [],
      "name": "Empty",
      "type": "error"
    },
    {
      "inputs": [],
      "name": "OutOfBounds",
      "type": "error"
    },
    {
      "anonymous": false,
      "inputs": [
        {
          "indexed": false,
          "internalType": "bytes32",
          "name": "hash",
          "type": "bytes32"
        },
        {
          "indexed": false,
          "internalType": "bool",
          "name": "isHashCorrect",
          "type": "bool"
        },
        {
          "indexed": false,
          "internalType": "bytes32",
          "name": "firstEncoded",
          "type": "bytes32"
        },
        {
          "indexed": false,
          "internalType": "bytes",
          "name": "firstUnencoded",
          "type": "bytes"
        }
      ],
      "name": "HashTesting",
      "type": "event"
    },
    {
      "anonymous": false,
      "inputs": [
        {
          "indexed": false,
          "internalType": "string",
          "name": "_IPFSHash",
          "type": "string"
        },
        {
          "indexed": false,
          "internalType": "uint40",
          "name": "_proposalID",
          "type": "uint40"
        },
        {
          "indexed": false,
          "internalType": "uint8",
          "name": "_numFieldsToHash",
          "type": "uint8"
        },
        {
          "indexed": false,
          "internalType": "uint24",
          "name": "_timeBonus",
          "type": "uint24"
        },
        {
          "indexed": false,
          "internalType": "uint40",
          "name": "_begTimestamp",
          "type": "uint40"
        },
        {
          "indexed": false,
          "internalType": "uint40",
          "name": "_endTimestamp",
          "type": "uint40"
        },
        {
          "indexed": false,
          "internalType": "uint16",
          "name": "_availableSlots",
          "type": "uint16"
        }
      ],
      "name": "NewTaskTypeCreated",
      "type": "event"
    },
    {
      "anonymous": false,
      "inputs": [
        {
          "indexed": true,
          "internalType": "address",
          "name": "previousOwner",
          "type": "address"
        },
        {
          "indexed": true,
          "internalType": "address",
          "name": "newOwner",
          "type": "address"
        }
      ],
      "name": "OwnershipTransferred",
      "type": "event"
    },
    {
      "anonymous": false,
      "inputs": [
        {
          "indexed": false,
          "internalType": "uint256",
          "name": "wizardId",
          "type": "uint256"
        },
        {
          "indexed": false,
          "internalType": "uint256",
          "name": "taskId",
          "type": "uint256"
        },
        {
          "indexed": false,
          "internalType": "string",
          "name": "IPFSHash",
          "type": "string"
        },
        {
          "indexed": false,
          "internalType": "uint256",
          "name": "data",
          "type": "uint256"
        }
      ],
      "name": "TaskCompleted",
      "type": "event"
    },
    {
      "anonymous": false,
      "inputs": [
        {
          "indexed": false,
          "internalType": "uint256",
          "name": "wizardId",
          "type": "uint256"
        },
        {
          "indexed": false,
          "internalType": "uint256",
          "name": "taskId",
          "type": "uint256"
        },
        {
          "components": [
            {
              "internalType": "string",
              "name": "IPFSHash",
              "type": "string"
            },
            {
              "internalType": "uint40",
              "name": "NFTID",
              "type": "uint40"
            },
            {
              "internalType": "bytes32",
              "name": "hash",
              "type": "bytes32"
            },
            {
              "internalType": "bytes32",
              "name": "refuterHash",
              "type": "bytes32"
            },
            {
              "internalType": "uint8",
              "name": "numFieldsToHash",
              "type": "uint8"
            },
            {
              "internalType": "uint24",
              "name": "timeBonus",
              "type": "uint24"
            },
            {
              "internalType": "uint80",
              "name": "payment",
              "type": "uint80"
            },
            {
              "internalType": "uint16",
              "name": "verifierID",
              "type": "uint16"
            },
            {
              "internalType": "uint16",
              "name": "refuterID",
              "type": "uint16"
            },
            {
              "internalType": "uint40",
              "name": "verificationReservedTimestamp",
              "type": "uint40"
            }
          ],
          "indexed": false,
          "internalType": "struct Governance.Task",
          "name": "myTask",
          "type": "tuple"
        }
      ],
      "name": "VerificationAssigned",
      "type": "event"
    },
    {
      "anonymous": false,
      "inputs": [
        {
          "indexed": false,
          "internalType": "uint256",
          "name": "VerifierIdFirst",
          "type": "uint256"
        },
        {
          "indexed": false,
          "internalType": "uint256",
          "name": "VerifierIdSecond",
          "type": "uint256"
        },
        {
          "indexed": false,
          "internalType": "uint256",
          "name": "taskId",
          "type": "uint256"
        }
      ],
      "name": "VerificationFailed",
      "type": "event"
    },
    {
      "anonymous": false,
      "inputs": [
        {
          "indexed": false,
          "internalType": "uint256",
          "name": "taskDoer",
          "type": "uint256"
        },
        {
          "indexed": false,
          "internalType": "uint256",
          "name": "Verifier",
          "type": "uint256"
        },
        {
          "indexed": false,
          "internalType": "uint256",
          "name": "taskId",
          "type": "uint256"
        },
        {
          "indexed": false,
          "internalType": "bytes32",
          "name": "hash",
          "type": "bytes32"
        },
        {
          "indexed": false,
          "internalType": "bool",
          "name": "isHashCorrect",
          "type": "bool"
        }
      ],
      "name": "VerificationSucceeded",
      "type": "event"
    },
    {
      "inputs": [
        {
          "internalType": "uint256",
          "name": "_wizId",
          "type": "uint256"
        }
      ],
      "name": "areTasksAvailableToConfirm",
      "outputs": [
        {
          "internalType": "bool",
          "name": "",
          "type": "bool"
        }
      ],
      "stateMutability": "view",
      "type": "function"
    },
    {
      "inputs": [
        {
          "internalType": "uint256",
          "name": "_wizId",
          "type": "uint256"
        }
      ],
      "name": "claimRandomTaskForVerification",
      "outputs": [],
      "stateMutability": "nonpayable",
      "type": "function"
    },
    {
      "inputs": [
        {
          "internalType": "string",
          "name": "_IPFSHash",
          "type": "string"
        },
        {
          "internalType": "bytes32",
          "name": "_hash",
          "type": "bytes32"
        },
        {
          "internalType": "uint40",
          "name": "_wizId",
          "type": "uint40"
        }
      ],
      "name": "completeTask",
      "outputs": [],
      "stateMutability": "nonpayable",
      "type": "function"
    },
    {
      "inputs": [
        {
          "internalType": "string",
          "name": "_IPFSHash",
          "type": "string"
        },
        {
          "internalType": "uint16",
          "name": "_numberOfOptions",
          "type": "uint16"
        },
        {
          "internalType": "uint24",
          "name": "_timeBonus",
          "type": "uint24"
        },
        {
          "internalType": "uint40",
          "name": "_begTimestamp",
          "type": "uint40"
        },
        {
          "internalType": "uint40",
          "name": "_endTimestamp",
          "type": "uint40"
        },
        {
          "internalType": "uint16",
          "name": "_availableSlots",
          "type": "uint16"
        }
      ],
      "name": "createProposal",
      "outputs": [],
      "stateMutability": "nonpayable",
      "type": "function"
    },
    {
      "inputs": [
        {
          "internalType": "string",
          "name": "_IPFSHash",
          "type": "string"
        },
        {
          "internalType": "uint8",
          "name": "_numFieldsToHash",
          "type": "uint8"
        },
        {
          "internalType": "uint24",
          "name": "_timeBonus",
          "type": "uint24"
        },
        {
          "internalType": "uint40",
          "name": "_begTimestamp",
          "type": "uint40"
        },
        {
          "internalType": "uint40",
          "name": "_endTimestamp",
          "type": "uint40"
        },
        {
          "internalType": "uint16",
          "name": "_availableSlots",
          "type": "uint16"
        }
      ],
      "name": "createTaskType",
      "outputs": [],
      "stateMutability": "nonpayable",
      "type": "function"
    },
    {
      "inputs": [
        {
          "internalType": "string",
          "name": "_IPFSHash",
          "type": "string"
        }
      ],
      "name": "deleteTaskTypeByIPFSHash",
      "outputs": [],
      "stateMutability": "nonpayable",
      "type": "function"
    },
    {
      "inputs": [
        {
          "internalType": "uint40",
          "name": "_wizId",
          "type": "uint40"
        }
      ],
      "name": "getMyAvailableTaskTypes",
      "outputs": [
        {
          "internalType": "string[]",
          "name": "",
          "type": "string[]"
        }
      ],
      "stateMutability": "view",
      "type": "function"
    },
    {
      "inputs": [
        {
          "internalType": "uint256",
          "name": "_taskId",
          "type": "uint256"
        }
      ],
      "name": "getTaskById",
      "outputs": [
        {
          "components": [
            {
              "internalType": "string",
              "name": "IPFSHash",
              "type": "string"
            },
            {
              "internalType": "uint40",
              "name": "NFTID",
              "type": "uint40"
            },
            {
              "internalType": "bytes32",
              "name": "hash",
              "type": "bytes32"
            },
            {
              "internalType": "bytes32",
              "name": "refuterHash",
              "type": "bytes32"
            },
            {
              "internalType": "uint8",
              "name": "numFieldsToHash",
              "type": "uint8"
            },
            {
              "internalType": "uint24",
              "name": "timeBonus",
              "type": "uint24"
            },
            {
              "internalType": "uint80",
              "name": "payment",
              "type": "uint80"
            },
            {
              "internalType": "uint16",
              "name": "verifierID",
              "type": "uint16"
            },
            {
              "internalType": "uint16",
              "name": "refuterID",
              "type": "uint16"
            },
            {
              "internalType": "uint40",
              "name": "verificationReservedTimestamp",
              "type": "uint40"
            }
          ],
          "internalType": "struct Governance.Task",
          "name": "",
          "type": "tuple"
        }
      ],
      "stateMutability": "view",
      "type": "function"
    },
    {
      "inputs": [
        {
          "internalType": "uint40",
          "name": "_wizId",
          "type": "uint40"
        }
      ],
      "name": "getTasksAssignedToWiz",
      "outputs": [
        {
          "components": [
            {
              "internalType": "string",
              "name": "IPFSHash",
              "type": "string"
            },
            {
              "internalType": "uint40",
              "name": "NFTID",
              "type": "uint40"
            },
            {
              "internalType": "bytes32",
              "name": "hash",
              "type": "bytes32"
            },
            {
              "internalType": "bytes32",
              "name": "refuterHash",
              "type": "bytes32"
            },
            {
              "internalType": "uint8",
              "name": "numFieldsToHash",
              "type": "uint8"
            },
            {
              "internalType": "uint24",
              "name": "timeBonus",
              "type": "uint24"
            },
            {
              "internalType": "uint80",
              "name": "payment",
              "type": "uint80"
            },
            {
              "internalType": "uint16",
              "name": "verifierID",
              "type": "uint16"
            },
            {
              "internalType": "uint16",
              "name": "refuterID",
              "type": "uint16"
            },
            {
              "internalType": "uint40",
              "name": "verificationReservedTimestamp",
              "type": "uint40"
            }
          ],
          "internalType": "struct Governance.Task[]",
          "name": "",
          "type": "tuple[]"
        },
        {
          "internalType": "uint256[]",
          "name": "",
          "type": "uint256[]"
        }
      ],
      "stateMutability": "view",
      "type": "function"
    },
    {
      "inputs": [
        {
          "internalType": "uint256",
          "name": "proposalID",
          "type": "uint256"
        }
      ],
      "name": "getVotes",
      "outputs": [
        {
          "internalType": "uint16[]",
          "name": "",
          "type": "uint16[]"
        }
      ],
      "stateMutability": "view",
      "type": "function"
    },
    {
      "inputs": [
        {
          "internalType": "uint256",
          "name": "proposalID",
          "type": "uint256"
        }
      ],
      "name": "getWinningVote",
      "outputs": [
        {
          "internalType": "uint256",
          "name": "",
          "type": "uint256"
        }
      ],
      "stateMutability": "view",
      "type": "function"
    },
    {
      "inputs": [],
      "name": "isCallerOnBoard",
      "outputs": [
        {
          "internalType": "bool",
          "name": "",
          "type": "bool"
        }
      ],
      "stateMutability": "view",
      "type": "function"
    },
    {
      "inputs": [
        {
          "internalType": "uint256",
          "name": "_wizId",
          "type": "uint256"
        }
      ],
      "name": "isMyWizardOnBoard",
      "outputs": [
        {
          "internalType": "bool",
          "name": "",
          "type": "bool"
        }
      ],
      "stateMutability": "view",
      "type": "function"
    },
    {
      "inputs": [],
      "name": "owner",
      "outputs": [
        {
          "internalType": "address",
          "name": "",
          "type": "address"
        }
      ],
      "stateMutability": "view",
      "type": "function"
    },
    {
      "inputs": [
        {
          "internalType": "uint256",
          "name": "",
          "type": "uint256"
        },
        {
          "internalType": "uint256",
          "name": "",
          "type": "uint256"
        }
      ],
      "name": "proposalToNFTVotes",
      "outputs": [
        {
          "internalType": "uint256",
          "name": "",
          "type": "uint256"
        }
      ],
      "stateMutability": "view",
      "type": "function"
    },
    {
      "inputs": [
        {
          "internalType": "uint256",
          "name": "",
          "type": "uint256"
        }
      ],
      "name": "proposals",
      "outputs": [
        {
          "internalType": "string",
          "name": "IPFSHash",
          "type": "string"
        },
        {
          "internalType": "uint16",
          "name": "numberOfOptions",
          "type": "uint16"
        },
        {
          "internalType": "uint40",
          "name": "totalVotes",
          "type": "uint40"
        },
        {
          "internalType": "uint40",
          "name": "begTimestamp",
          "type": "uint40"
        },
        {
          "internalType": "uint40",
          "name": "endTimestamp",
          "type": "uint40"
        }
      ],
      "stateMutability": "view",
      "type": "function"
    },
    {
      "inputs": [],
      "name": "renounceOwnership",
      "outputs": [],
      "stateMutability": "nonpayable",
      "type": "function"
    },
    {
      "inputs": [
        {
          "internalType": "address",
          "name": "_addy",
          "type": "address"
        }
      ],
      "name": "setNFTAddress",
      "outputs": [],
      "stateMutability": "nonpayable",
      "type": "function"
    },
    {
      "inputs": [
        {
          "internalType": "uint256",
          "name": "_wizId",
          "type": "uint256"
        },
        {
          "internalType": "uint256",
          "name": "_taskID",
          "type": "uint256"
        },
        {
          "internalType": "bytes32[]",
          "name": "_fields",
          "type": "bytes32[]"
        }
      ],
      "name": "submitVerification",
      "outputs": [],
      "stateMutability": "nonpayable",
      "type": "function"
    },
    {
      "inputs": [
        {
          "internalType": "uint256",
          "name": "",
          "type": "uint256"
        }
      ],
      "name": "taskTypes",
      "outputs": [
        {
          "internalType": "string",
          "name": "IPFSHash",
          "type": "string"
        },
        {
          "internalType": "bool",
          "name": "paused",
          "type": "bool"
        },
        {
          "internalType": "uint40",
          "name": "proposalID",
          "type": "uint40"
        },
        {
          "internalType": "uint8",
          "name": "numFieldsToHash",
          "type": "uint8"
        },
        {
          "internalType": "uint24",
          "name": "timeBonus",
          "type": "uint24"
        },
        {
          "internalType": "uint40",
          "name": "begTimestamp",
          "type": "uint40"
        },
        {
          "internalType": "uint40",
          "name": "endTimestamp",
          "type": "uint40"
        },
        {
          "internalType": "uint16",
          "name": "availableSlots",
          "type": "uint16"
        }
      ],
      "stateMutability": "view",
      "type": "function"
    },
    {
      "inputs": [
        {
          "internalType": "uint256",
          "name": "",
          "type": "uint256"
        }
      ],
      "name": "tasks",
      "outputs": [
        {
          "internalType": "string",
          "name": "IPFSHash",
          "type": "string"
        },
        {
          "internalType": "uint40",
          "name": "NFTID",
          "type": "uint40"
        },
        {
          "internalType": "bytes32",
          "name": "hash",
          "type": "bytes32"
        },
        {
          "internalType": "bytes32",
          "name": "refuterHash",
          "type": "bytes32"
        },
        {
          "internalType": "uint8",
          "name": "numFieldsToHash",
          "type": "uint8"
        },
        {
          "internalType": "uint24",
          "name": "timeBonus",
          "type": "uint24"
        },
        {
          "internalType": "uint80",
          "name": "payment",
          "type": "uint80"
        },
        {
          "internalType": "uint16",
          "name": "verifierID",
          "type": "uint16"
        },
        {
          "internalType": "uint16",
          "name": "refuterID",
          "type": "uint16"
        },
        {
          "internalType": "uint40",
          "name": "verificationReservedTimestamp",
          "type": "uint40"
        }
      ],
      "stateMutability": "view",
      "type": "function"
    },
    {
      "inputs": [],
      "name": "tasksWaitingConfirmation",
      "outputs": [
        {
          "internalType": "int128",
          "name": "_begin",
          "type": "int128"
        },
        {
          "internalType": "int128",
          "name": "_end",
          "type": "int128"
        }
      ],
      "stateMutability": "view",
      "type": "function"
    },
    {
      "inputs": [
        {
          "internalType": "bytes32",
          "name": "_givenHash",
          "type": "bytes32"
        },
        {
          "internalType": "bytes32[]",
          "name": "_fields",
          "type": "bytes32[]"
        },
        {
          "internalType": "bool",
          "name": "_refuted",
          "type": "bool"
        }
      ],
      "name": "testHashing",
      "outputs": [],
      "stateMutability": "nonpayable",
      "type": "function"
    },
    {
      "inputs": [],
      "name": "totalTasksAttempted",
      "outputs": [
        {
          "internalType": "uint256",
          "name": "",
          "type": "uint256"
        }
      ],
      "stateMutability": "view",
      "type": "function"
    },
    {
      "inputs": [
        {
          "internalType": "address",
          "name": "newOwner",
          "type": "address"
        }
      ],
      "name": "transferOwnership",
      "outputs": [],
      "stateMutability": "nonpayable",
      "type": "function"
    },
    {
      "inputs": [
        {
          "internalType": "uint256",
          "name": "proposalID",
          "type": "uint256"
        },
        {
          "internalType": "uint256",
          "name": "NFTID",
          "type": "uint256"
        },
        {
          "internalType": "uint256",
          "name": "_vote",
          "type": "uint256"
        }
      ],
      "name": "vote",
      "outputs": [],
      "stateMutability": "nonpayable",
      "type": "function"
    },
    {
      "stateMutability": "payable",
      "type": "receive"
    }
  ],
  "bytecode": "6080604052610258600c5562015180600d556003600e553480156200002357600080fd5b5060405162004668380380620046688339810160408190526200004691620000f7565b6001600055620000563362000088565b600280546001600160a01b039384166001600160a01b031991821617909155600380549290931691161790556200012f565b600180546001600160a01b038381166001600160a01b0319831681179093556040519116919082907f8be0079c531659141344cd1fd0a4f28419497f9722a3daafe3b4186f6b6457e090600090a35050565b80516001600160a01b0381168114620000f257600080fd5b919050565b600080604083850312156200010b57600080fd5b6200011683620000da565b91506200012660208401620000da565b90509250929050565b614529806200013f6000396000f3fe6080604052600436106101855760003560e01c80638d977672116100d1578063d374a2171161008a578063f2fde38b11610064578063f2fde38b146104fd578063f4739bd91461051d578063f713b7ed1461053d578063ff9810991461055d57600080fd5b8063d374a2171461047d578063e95d23471461049d578063f18c51d3146104dd57600080fd5b80638d9776721461038f5780638da5cb5b146103c557806390b293d8146103ed578063976217cd14610403578063b2bad54414610430578063beca3a161461045d57600080fd5b806361f9e9a81161013e578063715018a611610118578063715018a61461031a57806372e185ce1461032f578063826b8ebd1461034f5780638a6655d61461036f57600080fd5b806361f9e9a8146102945780636215597b146102b457806369d03738146102fa57600080fd5b8063013cf08b1461019157806309265ce6146101cb5780630f61d8bd146101ed57806310190ef11461021d5780633b47fed2146102515780634b50f16a1461026657600080fd5b3661018c57005b600080fd5b34801561019d57600080fd5b506101b16101ac3660046135d1565b61058a565b6040516101c2959493929190613642565b60405180910390f35b3480156101d757600080fd5b506101eb6101e6366004613759565b610656565b005b3480156101f957600080fd5b5061020d6102083660046135d1565b61079c565b60405190151581526020016101c2565b34801561022957600080fd5b5061023d6102383660046135d1565b61091b565b6040516101c29897969594939291906137b3565b34801561025d57600080fd5b5061020d610a25565b34801561027257600080fd5b50610286610281366004613832565b610b33565b6040516101c292919061391e565b3480156102a057600080fd5b506101eb6102af366004613a26565b610fc7565b3480156102c057600080fd5b506102ec6102cf366004613ac3565b600460209081526000928352604080842090915290825290205481565b6040519081526020016101c2565b34801561030657600080fd5b506101eb610315366004613afa565b611031565b34801561032657600080fd5b506101eb61107d565b34801561033b57600080fd5b506101eb61034a366004613b86565b6110b3565b34801561035b57600080fd5b506102ec61036a3660046135d1565b611529565b34801561037b57600080fd5b506101eb61038a366004613bdc565b61174c565b34801561039b57600080fd5b506103af6103aa3660046135d1565b611785565b6040516101c29a99989796959493929190613c08565b3480156103d157600080fd5b506001546040516001600160a01b0390911681526020016101c2565b3480156103f957600080fd5b506102ec600b5481565b34801561040f57600080fd5b5061042361041e3660046135d1565b611887565b6040516101c29190613c89565b34801561043c57600080fd5b5061045061044b366004613832565b6119c9565b6040516101c29190613c9c565b34801561046957600080fd5b506101eb610478366004613cfe565b611d8f565b34801561048957600080fd5b506101eb6104983660046135d1565b611eef565b3480156104a957600080fd5b506006546104c390600f81810b91600160801b9004900b82565b60408051600f93840b81529190920b6020820152016101c2565b3480156104e957600080fd5b506101eb6104f8366004613d4e565b612226565b34801561050957600080fd5b506101eb610518366004613afa565b612c43565b34801561052957600080fd5b5061020d6105383660046135d1565b612cde565b34801561054957600080fd5b506101eb610558366004613d9d565b612eae565b34801561056957600080fd5b5061057d6105783660046135d1565b61304b565b6040516101c29190613dd9565b6008602052600090815260409020805481906105a590613e21565b80601f01602080910402602001604051908101604052809291908181526020018280546105d190613e21565b801561061e5780601f106105f35761010080835404028352916020019161061e565b820191906000526020600020905b81548152906001019060200180831161060157829003601f168201915b505050506001830154600390930154919261ffff169164ffffffffff8082169250650100000000008204811691600160501b90041685565b60008260008151811061066b5761066b613e5b565b602002602001015160405160200161068591815260200190565b604051602081830303815290604052905081156107115760005b835181101561070f578381815181106106ba576106ba613e5b565b60200260200101516040516020016106d491815260200190565b604051602081830303815290604052805190602001208482815181106106fc576106fc613e5b565b602090810291909101015260010161069f565b505b6000836040516020016107249190613e71565b6040516020818303038152906040528051906020012090507f637ce8d069e382e64ef71cf191623b88c7e307ce252e908e7f2babbad0cb81ea818683148660008151811061077457610774613e5b565b60200260200101518560405161078d9493929190613ea7565b60405180910390a15050505050565b6002546040516331a9108f60e11b81526004810183905260009133916001600160a01b0390911690636352211e90602401602060405180830381865afa1580156107ea573d6000803e3d6000fd5b505050506040513d601f19601f8201168201806040525081019061080e9190613ed8565b6001600160a01b031614801561088c5750600354604051631d828f8360e31b8152600481018490526001600160a01b039091169063ec147c1890602401602060405180830381865afa158015610868573d6000803e3d6000fd5b505050506040513d601f19601f8201168201806040525081019061088c9190613ef5565b80156109065750600e546003546040516301245c6b60e21b8152600481018590526001600160a01b039091169063049171ac90602401602060405180830381865afa1580156108df573d6000803e3d6000fd5b505050506040513d601f19601f820116820180604052508101906109039190613f12565b11155b1561091357506001919050565b506000919050565b6005818154811061092b57600080fd5b906000526020600020906003020160009150905080600101805461094e90613e21565b80601f016020809104026020016040519081016040528092919081815260200182805461097a90613e21565b80156109c75780601f1061099c576101008083540402835291602001916109c7565b820191906000526020600020905b8154815290600101906020018083116109aa57829003601f168201915b5050506002909301549192505060ff8082169164ffffffffff610100820481169266010000000000008304169162ffffff600160381b82041691600160501b8204811691600160781b81049091169061ffff600160a01b9091041688565b600060015b600e548111610b2b576002546003546040516301038d3760e61b81526004810184905233926001600160a01b0390811692636352211e929116906340e34dc090602401602060405180830381865afa158015610a8a573d6000803e3d6000fd5b505050506040513d601f19601f82011682018060405250810190610aae9190613f12565b6040518263ffffffff1660e01b8152600401610acc91815260200190565b602060405180830381865afa158015610ae9573d6000803e3d6000fd5b505050506040513d601f19601f82011682018060405250810190610b0d9190613ed8565b6001600160a01b031603610b2357600191505090565b600101610a2a565b506000905090565b6060806000610b51600654600f81810b600160801b909204900b0390565b9050610b5b613533565b600080805b84811015610ce357610b73600682613175565b6000818152600a602052604090819020815161014081019092528054929550909182908290610ba190613e21565b80601f0160208091040260200160405190810160405280929190818152602001828054610bcd90613e21565b8015610c1a5780601f10610bef57610100808354040283529160200191610c1a565b820191906000526020600020905b815481529060010190602001808311610bfd57829003601f168201915b5050509183525050600182015464ffffffffff9081166020830152600283015460408301526003830154606083015260049092015460ff8116608083015261010080820462ffffff1660a0840152600160201b82046001600160501b031660c0840152600160701b820461ffff90811660e0850152600160801b83041690830152600160901b9004821661012091820152820151919550429116118015610ccf57508764ffffffffff168460e0015161ffff16145b15610cdb578160010191505b600101610b60565b5080600003610d5057604080516001808252818301909252600091816020015b610d0b613533565b815260200190600190039081610d03575050604080516001808252818301909252919250600091906020808301908036833750939b919a509098505050505050505050565b600080826001600160401b03811115610d6b57610d6b613686565b604051908082528060200260200182016040528015610da457816020015b610d91613533565b815260200190600190039081610d895790505b5090506000836001600160401b03811115610dc157610dc1613686565b604051908082528060200260200182016040528015610dea578160200160208202803683370190505b50905060005b87811015610fb757610e03600682613175565b6000818152600a602052604090819020815161014081019092528054929850909182908290610e3190613e21565b80601f0160208091040260200160405190810160405280929190818152602001828054610e5d90613e21565b8015610eaa5780601f10610e7f57610100808354040283529160200191610eaa565b820191906000526020600020905b815481529060010190602001808311610e8d57829003601f168201915b5050509183525050600182015464ffffffffff9081166020830152600283015460408301526003830154606083015260049092015460ff8116608083015261010080820462ffffff1660a0840152600160201b82046001600160501b031660c0840152600160701b820461ffff90811660e0850152600160801b83041690830152600160901b9004821661012091820152820151919850429116118015610f5f57508a64ffffffffff168760e0015161ffff16145b15610faf5786838581518110610f7757610f77613e5b565b602002602001018190525085828581518110610f9557610f95613e5b565b602002602001018181525050836001019350848411610fb7575b600101610df0565b5090999098509650505050505050565b610fcf610a25565b6110175760405162461bcd60e51b8152602060048201526014602482015273135d5cdd081899481bdb881d1a1948189bd85c9960621b60448201526064015b60405180910390fd5b6110288787600088888888886131e6565b50505050505050565b6001546001600160a01b0316331461105b5760405162461bcd60e51b815260040161100e90613f2b565b600280546001600160a01b0319166001600160a01b0392909216919091179055565b6001546001600160a01b031633146110a75760405162461bcd60e51b815260040161100e90613f2b565b6110b16000613365565b565b60005b60055481101561152357836040516020016110d19190613f60565b60405160208183030381529060405280519060200120600582815481106110fa576110fa613e5b565b906000526020600020906003020160010160405160200161111b9190613ff0565b604051602081830303815290604052805190602001200361151b57426005828154811061114a5761114a613e5b565b6000918252602090912060039091020160020154600160501b900464ffffffffff16118015906111ae57506005818154811061118857611188613e5b565b6000918252602090912060039091020160020154600160781b900464ffffffffff164211155b6111f05760405162461bcd60e51b815260206004820152601360248201527213dd5d1cda5919481d1a5b59481c195c9a5bd9606a1b604482015260640161100e565b60006040518061014001604052808681526020018464ffffffffff1681526020018581526020016000801b81526020016005848154811061123357611233613e5b565b906000526020600020906003020160020160069054906101000a900460ff1660ff1681526020016005848154811061126d5761126d613e5b565b6000918252602080832060039290920290910160020154600160381b900462ffffff1683528281018290526040808401839052606084018390526080909301829052600b5460068054600160801b90819004600f0b8086526007855286862084905582546001600160801b039081166001909201169091021790558252600a9052208151919250829181906113029082614052565b5060208201516001828101805464ffffffffff191664ffffffffff938416179055604084015160028401556060840151600384015560808401516004909301805460a086015160c087015160e0880151610100808a0151610120909a015160ff90991663ffffffff199095169490941762ffffff90931690930291909117640100000000600160801b031916600160201b6001600160501b039092169190910261ffff60701b191617600160701b61ffff928316021766ffffffffffffff60801b1916600160801b919096160264ffffffffff60901b191694909417600160901b939092169290920217909155600b8054600090611401908490614127565b9091555061141490504262015180614127565b6005838154811061142757611427613e5b565b6000918252602080832064ffffffffff8816845260039092029091019052604090205560058054600191908490811061146257611462613e5b565b906000526020600020906003020160020160149054906101000a900461ffff1661148c919061413f565b6005838154811061149f5761149f613e5b565b906000526020600020906003020160020160146101000a81548161ffff021916908361ffff1602179055507fbcc1ea15519f3acfb49e91de851e553b2c024b9ab85cee8ffd8fe4e4e0a7876d836001600b546114fb9190614162565b874260405161150d9493929190614179565b60405180910390a150611523565b6001016110b6565b50505050565b6000600954821061156f5760405162461bcd60e51b815260206004820152601060248201526f1b9bc81cdd58da081c1c9bdc1bdcd85b60821b604482015260640161100e565b600082815260086020526040902060030154600160501b900464ffffffffff1642116115d35760405162461bcd60e51b8152602060048201526013602482015272766f74696e67207374696c6c2061637469766560681b604482015260640161100e565b6000806000805b60008681526008602052604090206001015461ffff16811015611701578260086000888152602001908152602001600020600201826008811061161f5761161f613e5b565b601091828204019190066002029054906101000a900461ffff1661ffff16111561169f5760086000878152602001908152602001600020600201816008811061166a5761166a613e5b565b601091828204019190066002029054906101000a900461ffff1661ffff1692508093508160010361169a57600091505b6116ef565b826008600088815260200190815260200160002060020182600881106116c7576116c7613e5b565b601091828204019190066002029054906101000a900461ffff1661ffff16036116ef57600191505b806116f9816141b0565b9150506115da565b5080156117435760405162461bcd60e51b815260206004820152601060248201526f3a3432b932903bb0b99030903a34b29760811b604482015260640161100e565b50909392505050565b60405162461bcd60e51b815260206004820152600e60248201526d26bab9ba1031329036b2b6b132b960911b604482015260640161100e565b600a602052600090815260409020805481906117a090613e21565b80601f01602080910402602001604051908101604052809291908181526020018280546117cc90613e21565b80156118195780601f106117ee57610100808354040283529160200191611819565b820191906000526020600020905b8154815290600101906020018083116117fc57829003601f168201915b505050600184015460028501546003860154600490960154949564ffffffffff92831695919450925060ff81169162ffffff610100830416916001600160501b03600160201b8204169161ffff600160701b8304811692600160801b810490911691600160901b909104168a565b61188f613533565b6000828152600a602052604090819020815161014081019092528054829082906118b890613e21565b80601f01602080910402602001604051908101604052809291908181526020018280546118e490613e21565b80156119315780601f1061190657610100808354040283529160200191611931565b820191906000526020600020905b81548152906001019060200180831161191457829003601f168201915b5050509183525050600182015464ffffffffff9081166020830152600283015460408301526003830154606083015260049092015460ff8116608083015261010080820462ffffff1660a0840152600160201b82046001600160501b031660c0840152600160701b820461ffff90811660e0850152600160801b83041690830152600160901b90049091166101209091015292915050565b60606000805b600554811015611ae15742600582815481106119ed576119ed613e5b565b6000918252602080832064ffffffffff89168452600390920290910190526040902054108015611a5157504260058281548110611a2c57611a2c613e5b565b6000918252602090912060039091020160020154600160501b900464ffffffffff1611155b8015611a9057504260058281548110611a6c57611a6c613e5b565b6000918252602090912060039091020160020154600160781b900464ffffffffff16115b8015611acd5750600160058281548110611aac57611aac613e5b565b6000918252602090912060039091020160020154600160a01b900461ffff16115b15611ad9578160010191505b6001016119cf565b5080600003611b4d57604080516001808252818301909252600091816020015b6060815260200190600190039081611b015790505090506040518060200160405280600081525081600081518110611b3b57611b3b613e5b565b60209081029190910101529392505050565b6000816001600160401b03811115611b6757611b67613686565b604051908082528060200260200182016040528015611b9a57816020015b6060815260200190600190039081611b855790505b5090506000805b600554811015611d85574260058281548110611bbf57611bbf613e5b565b6000918252602080832064ffffffffff8b168452600390920290910190526040902054108015611c2357504260058281548110611bfe57611bfe613e5b565b6000918252602090912060039091020160020154600160501b900464ffffffffff1611155b8015611c6257504260058281548110611c3e57611c3e613e5b565b6000918252602090912060039091020160020154600160781b900464ffffffffff16115b8015611c9f5750600160058281548110611c7e57611c7e613e5b565b6000918252602090912060039091020160020154600160a01b900461ffff16115b15611d7d5760058181548110611cb757611cb7613e5b565b90600052602060002090600302016001018054611cd390613e21565b80601f0160208091040260200160405190810160405280929190818152602001828054611cff90613e21565b8015611d4c5780601f10611d2157610100808354040283529160200191611d4c565b820191906000526020600020905b815481529060010190602001808311611d2f57829003601f168201915b5050505050838381518110611d6357611d63613e5b565b602002602001018190525081600101915083821015611d85575b600101611ba1565b5090949350505050565b611d97610a25565b611dda5760405162461bcd60e51b8152602060048201526014602482015273135d5cdd081899481bdb881d1a1948189bd85c9960621b604482015260640161100e565b60018561ffff16118015611df357506101018561ffff16105b611e3f5760405162461bcd60e51b815260206004820152601960248201527f696e76616c6964206e756d626572206f66206f7074696f6e7300000000000000604482015260640161100e565b600160096000828254611e529190614127565b909155505060095460009081526008602052604090206003810180546effffffffffffffffffff000000000019166501000000000064ffffffffff8781169190910264ffffffffff60501b191691909117600160501b9186169190910217905560018101805461ffff191661ffff881617905580611ed1888a836141c9565b50611ee588886009546000898989896131e6565b5050505050505050565b6000611f0a600654600f81810b600160801b909204900b0390565b9050611f14613533565b6000805b8381101561221f57611f2b600682613175565b6000818152600a602052604090819020815161014081019092528054929450909182908290611f5990613e21565b80601f0160208091040260200160405190810160405280929190818152602001828054611f8590613e21565b8015611fd25780601f10611fa757610100808354040283529160200191611fd2565b820191906000526020600020905b815481529060010190602001808311611fb557829003601f168201915b5050509183525050600182015464ffffffffff9081166020830152600283015460408301526003830154606083015260049092015460ff8116608083015261010080820462ffffff1660a0840152600160201b82046001600160501b031660c0840152600160701b820461ffff90811660e0850152600160801b83041690830152600160901b9004821661012091820152820151919450429116108015612084575084836020015164ffffffffff1614155b801561209957508483610100015161ffff1614155b156122175761ffff851660e0840152600c546120b59042614127565b64ffffffffff166101208401526000828152600a60205260409020835184919081906120e19082614052565b5060208281015160018301805464ffffffffff191664ffffffffff92831617905560408085015160028501556060850151600385015560808501516004909401805460a087015160c088015160e0890151610100808b0151610120909b015160ff909a1663ffffffff199095169490941762ffffff90931690930291909117640100000000600160801b031916600160201b6001600160501b039092169190910261ffff60701b191617600160701b61ffff928316021766ffffffffffffff60801b1916600160801b919097160264ffffffffff60901b191695909517600160901b9490921693909302179092556000848152600a9092529081902090517ff20a22b1aa6d8ba4bf99c845fb1f02f4879ba83155bde0f82f49cb58675df2689161220e9188918691614288565b60405180910390a15b600101611f18565b5050505050565b6002546040516331a9108f60e11b81526004810185905233916001600160a01b031690636352211e90602401602060405180830381865afa15801561226f573d6000803e3d6000fd5b505050506040513d601f19601f820116820180604052508101906122939190613ed8565b6001600160a01b03161480156122c457506000828152600a6020526040902060040154600160701b900461ffff1683145b6123105760405162461bcd60e51b815260206004820181905260248201527f4d757374206265206f776e6572206f662061737369676e65642077697a617264604482015260640161100e565b600081511161231e57600080fd5b6000828152600a60205260408082208151610140810190925280548290829061234690613e21565b80601f016020809104026020016040519081016040528092919081815260200182805461237290613e21565b80156123bf5780601f10612394576101008083540402835291602001916123bf565b820191906000526020600020905b8154815290600101906020018083116123a257829003601f168201915b505050918352505060018281015464ffffffffff9081166020840152600284015460408401526003840154606084015260049093015460ff8116608084015261010080820462ffffff1660a0850152600160201b82046001600160501b031660c0850152600160701b820461ffff90811660e0860152600160801b8304811682860152600160901b909204909416610120909301929092529183015192935060009216156124dc5760005b84518110156124da5784818151811061248557612485613e5b565b602002602001015160405160200161249f91815260200190565b604051602081830303815290604052805190602001208582815181106124c7576124c7613e5b565b602090810291909101015260010161246a565b505b6000846040516020016124ef9190613e71565b60405160208183030381529060405280519060200120905060008185604001511461251b57600061251e565b60015b602086810151604080518c815264ffffffffff909216928201929092529081018990526060810184905260ff9190911660018114608083015291507fe3f0e138f100deaf328ba1def71c39dade8cd971ba0074d935ee648e54532fae9060a00160405180910390a18060010361284157600060028660c001516125a19190614353565b60025460e08801516040516331a9108f60e11b815261ffff90911660048201526001600160501b039290921692506000916001600160a01b0390911690636352211e90602401602060405180830381865afa158015612604573d6000803e3d6000fd5b505050506040513d601f19601f820116820180604052508101906126289190613ed8565b600254602089015160a08a0151604051638ad4d6a560e01b815264ffffffffff909216600483015262ffffff1660248201529192506001600160a01b031690638ad4d6a590604401600060405180830381600087803b15801561268a57600080fd5b505af115801561269e573d6000803e3d6000fd5b505060025460e08a0151600d54604051638ad4d6a560e01b815261ffff909216600483015260248201526001600160a01b039091169250638ad4d6a591506044015b600060405180830381600087803b1580156126fa57600080fd5b505af115801561270e573d6000803e3d6000fd5b50505060008a8152600a60205260408120915061272b8282613587565b5060018101805464ffffffffff1916905560006002820181905560038201819055600490910180546001600160b81b031916905560405181906001600160a01b0384169085908381818185875af1925050503d80600081146127a9576040519150601f19603f3d011682016040523d82523d6000602084013e6127ae565b606091505b5091509150816127d05760405162461bcd60e51b815260040161100e90614387565b60405133908590600081818185875af1925050503d8060008114612810576040519150601f19603f3d011682016040523d82523d6000602084013e612815565b606091505b509092509050816128385760405162461bcd60e51b815260040161100e90614387565b50505050612bac565b84610100015161ffff166000036129735761ffff8816610100860152606085018290526000878152600a60205260409020855186919081906128839082614052565b50602082015160018201805464ffffffffff191664ffffffffff928316179055604083015160028301556060830151600383015560808301516004909201805460a085015160c086015160e0870151610100808901516101209099015160ff90981663ffffffff199095169490941762ffffff90931690930291909117640100000000600160801b031916600160201b6001600160501b039092169190910261ffff60701b191617600160701b61ffff928316021766ffffffffffffff60801b1916600160801b919095160264ffffffffff60901b191693909317600160901b9290911691909102179055600092505b81856060015103612ac657600060028660c001516129919190614353565b6002546101008801516040516331a9108f60e11b815261ffff90911660048201526001600160501b039290921692506000916001600160a01b0390911690636352211e90602401602060405180830381865afa1580156129f5573d6000803e3d6000fd5b505050506040513d601f19601f82011682018060405250810190612a199190613ed8565b600254610100890151600d54604051638ad4d6a560e01b815261ffff909216600483015260248201529192506001600160a01b031690638ad4d6a590604401600060405180830381600087803b158015612a7257600080fd5b505af1158015612a86573d6000803e3d6000fd5b5050600254600d54604051638ad4d6a560e01b8152600481018f905260248101919091526001600160a01b039091169250638ad4d6a591506044016126e0565b60c08501516000888152600a602052604081206001600160501b039092169190612af08282613587565b5060018101805464ffffffffff1916905560006002820181905560038201819055600490910180546001600160b81b031916905580612b376001546001600160a01b031690565b6001600160a01b03168360405160006040518083038185875af1925050503d8060008114612b81576040519150601f19603f3d011682016040523d82523d6000602084013e612b86565b606091505b509150915081612ba85760405162461bcd60e51b815260040161100e90614387565b5050505b8215611ee5576000612bcd600654600f81810b600160801b909204900b0390565b905060005b81811015612c375788612be6600683613175565b03612c2f576000612bf760066133b7565b90508115612c2d576006548190600790600090612c18908690600f0b6143b5565b600f0b81526020810191909152604001600020555b505b600101612bd2565b50505050505050505050565b6001546001600160a01b03163314612c6d5760405162461bcd60e51b815260040161100e90613f2b565b6001600160a01b038116612cd25760405162461bcd60e51b815260206004820152602660248201527f4f776e61626c653a206e6577206f776e657220697320746865207a65726f206160448201526564647265737360d01b606482015260840161100e565b612cdb81613365565b50565b600080612cfa600654600f81810b600160801b909204900b0390565b9050612d04613533565b60005b82811015612ea357600a6000612d1e600684613175565b60001c815260200190815260200160002060405180610140016040529081600082018054612d4b90613e21565b80601f0160208091040260200160405190810160405280929190818152602001828054612d7790613e21565b8015612dc45780601f10612d9957610100808354040283529160200191612dc4565b820191906000526020600020905b815481529060010190602001808311612da757829003601f168201915b5050509183525050600182015464ffffffffff9081166020830152600283015460408301526003830154606083015260049092015460ff8116608083015261010080820462ffffff1660a0840152600160201b82046001600160501b031660c0840152600160701b820461ffff90811660e0850152600160801b83041690830152600160901b9004821661012091820152820151919350429116108015612e76575084826020015164ffffffffff1614155b8015612e8b57508482610100015161ffff1614155b15612e9b57506001949350505050565b600101612d07565b506000949350505050565b60005b6005548110156130475781604051602001612ecc91906143f6565b6040516020818303038152906040528051906020012060058281548110612ef557612ef5613e5b565b9060005260206000209060030201600101604051602001612f169190614412565b604051602081830303815290604052805190602001200361303f57600060058281548110612f4657612f46613e5b565b90600052602060002090600302019050600060056001600580549050612f6c9190614162565b81548110612f7c57612f7c613e5b565b9060005260206000209060030201905080915060056001600580549050612fa39190614162565b81548110612fb357612fb3613e5b565b90600052602060002090600302016000600182016000612fd39190613587565b5060020180546001600160b01b031916905560058054612ff590600190614162565b8154811061300557613005613e5b565b906000526020600020906003020160006001820160006130259190613587565b5060020180546001600160b01b0319169055506130479050565b600101612eb1565b5050565b606060095482106130915760405162461bcd60e51b815260206004820152601060248201526f1b9bc81cdd58da081c1c9bdc1bdcd85b60821b604482015260640161100e565b60008281526008602052604081206001015461ffff166001600160401b038111156130be576130be613686565b6040519080825280602002602001820160405280156130e7578160200160208202803683370190505b50905060005b815181101561316e5760086000858152602001908152602001600020600201816008811061311d5761311d613e5b565b601091828204019190066002029054906101000a900461ffff1682828151811061314957613149613e5b565b61ffff9092166020928302919091019091015280613166816141b0565b9150506130ed565b5092915050565b60008061319861318484613436565b85546131939190600f0b6143b5565b6134a4565b8454909150600160801b9004600f90810b9082900b126131cb57604051632d0483c560e21b815260040160405180910390fd5b600f0b60009081526001939093016020525050604090205490565b600580546001810180835560008381529192908390811061320957613209613e5b565b6000918252602090912060039091020190506001810161322a8a8c836141c9565b5060008160020160006101000a81548160ff021916908315150217905550878160020160016101000a81548164ffffffffff021916908364ffffffffff160217905550868160020160066101000a81548160ff021916908360ff160217905550858160020160076101000a81548162ffffff021916908362ffffff1602179055508481600201600a6101000a81548164ffffffffff021916908364ffffffffff1602179055508381600201600f6101000a81548164ffffffffff021916908364ffffffffff160217905550828160020160146101000a81548161ffff021916908361ffff1602179055507f2810025950962e3cd71fd98c2dc111ffbdb2a129b36771df8d36a7de2fe3e4e08a8a8a8a8a8a8a8a604051613351989796959493929190614484565b60405180910390a150505050505050505050565b600180546001600160a01b038381166001600160a01b0319831681179093556040519116919082907f8be0079c531659141344cd1fd0a4f28419497f9722a3daafe3b4186f6b6457e090600090a35050565b60006133d28254600f81810b600160801b909204900b131590565b156133f057604051631ed9509560e11b815260040160405180910390fd5b508054600f0b6000818152600180840160205260408220805492905583546fffffffffffffffffffffffffffffffff191692016001600160801b03169190911790915590565b60006001600160ff1b038211156134a05760405162461bcd60e51b815260206004820152602860248201527f53616665436173743a2076616c756520646f65736e27742066697420696e2061604482015267371034b73a191a9b60c11b606482015260840161100e565b5090565b60006f7fffffffffffffffffffffffffffffff1982128015906134d757506f7fffffffffffffffffffffffffffffff8213155b6134a05760405162461bcd60e51b815260206004820152602760248201527f53616665436173743a2076616c756520646f65736e27742066697420696e20316044820152663238206269747360c81b606482015260840161100e565b6040805161014081018252606080825260006020830181905292820183905281018290526080810182905260a0810182905260c0810182905260e08101829052610100810182905261012081019190915290565b50805461359390613e21565b6000825580601f106135a3575050565b601f016020900490600052602060002090810190612cdb91905b808211156134a057600081556001016135bd565b6000602082840312156135e357600080fd5b5035919050565b60005b838110156136055781810151838201526020016135ed565b838111156115235750506000910152565b6000815180845261362e8160208601602086016135ea565b601f01601f19169290920160200192915050565b60a08152600061365560a0830188613616565b61ffff9690961660208301525064ffffffffff93841660408201529183166060830152909116608090910152919050565b634e487b7160e01b600052604160045260246000fd5b604051601f8201601f191681016001600160401b03811182821017156136c4576136c4613686565b604052919050565b600082601f8301126136dd57600080fd5b813560206001600160401b038211156136f8576136f8613686565b8160051b61370782820161369c565b928352848101820192828101908785111561372157600080fd5b83870192505b8483101561374057823582529183019190830190613727565b979650505050505050565b8015158114612cdb57600080fd5b60008060006060848603121561376e57600080fd5b8335925060208401356001600160401b0381111561378b57600080fd5b613797868287016136cc565b92505060408401356137a88161374b565b809150509250925092565b60006101008083526137c78184018c613616565b9915156020840152505064ffffffffff968716604082015260ff95909516606086015262ffffff93909316608085015290841660a084015290921660c082015261ffff90911660e090910152919050565b803564ffffffffff8116811461382d57600080fd5b919050565b60006020828403121561384457600080fd5b61384d82613818565b9392505050565b6000610140825181855261386a82860182613616565b9150506020830151613885602086018264ffffffffff169052565b50604083015160408501526060830151606085015260808301516138ae608086018260ff169052565b5060a08301516138c560a086018262ffffff169052565b5060c08301516138e060c08601826001600160501b03169052565b5060e08301516138f660e086018261ffff169052565b506101008381015161ffff16908501526101208084015164ffffffffff811682870152611d85565b6000604082016040835280855180835260608501915060608160051b8601019250602080880160005b8381101561397557605f19888703018552613963868351613854565b95509382019390820190600101613947565b50508584038187015286518085528782019482019350915060005b828110156139ac57845184529381019392810192600101613990565b5091979650505050505050565b60008083601f8401126139cb57600080fd5b5081356001600160401b038111156139e257600080fd5b6020830191508360208285010111156139fa57600080fd5b9250929050565b803562ffffff8116811461382d57600080fd5b803561ffff8116811461382d57600080fd5b600080600080600080600060c0888a031215613a4157600080fd5b87356001600160401b03811115613a5757600080fd5b613a638a828b016139b9565b909850965050602088013560ff81168114613a7d57600080fd5b9450613a8b60408901613a01565b9350613a9960608901613818565b9250613aa760808901613818565b9150613ab560a08901613a14565b905092959891949750929550565b60008060408385031215613ad657600080fd5b50508035926020909101359150565b6001600160a01b0381168114612cdb57600080fd5b600060208284031215613b0c57600080fd5b813561384d81613ae5565b600082601f830112613b2857600080fd5b81356001600160401b03811115613b4157613b41613686565b613b54601f8201601f191660200161369c565b818152846020838601011115613b6957600080fd5b816020850160208301376000918101602001919091529392505050565b600080600060608486031215613b9b57600080fd5b83356001600160401b03811115613bb157600080fd5b613bbd86828701613b17565b93505060208401359150613bd360408501613818565b90509250925092565b600080600060608486031215613bf157600080fd5b505081359360208301359350604090920135919050565b6000610140808352613c1c8184018e613616565b64ffffffffff9c8d166020850152604084019b909b525050606081019790975260ff95909516608087015262ffffff9390931660a08601526001600160501b039190911660c085015261ffff90811660e08501521661010083015290921661012090920191909152919050565b60208152600061384d6020830184613854565b6000602080830181845280855180835260408601915060408160051b870101925083870160005b82811015613cf157603f19888603018452613cdf858351613616565b94509285019290850190600101613cc3565b5092979650505050505050565b600080600080600080600060c0888a031215613d1957600080fd5b87356001600160401b03811115613d2f57600080fd5b613d3b8a828b016139b9565b9098509650613a7d905060208901613a14565b600080600060608486031215613d6357600080fd5b833592506020840135915060408401356001600160401b03811115613d8757600080fd5b613d93868287016136cc565b9150509250925092565b600060208284031215613daf57600080fd5b81356001600160401b03811115613dc557600080fd5b613dd184828501613b17565b949350505050565b6020808252825182820181905260009190848201906040850190845b81811015613e1557835161ffff1683529284019291840191600101613df5565b50909695505050505050565b600181811c90821680613e3557607f821691505b602082108103613e5557634e487b7160e01b600052602260045260246000fd5b50919050565b634e487b7160e01b600052603260045260246000fd5b815160009082906020808601845b83811015613e9b57815185529382019390820190600101613e7f565b50929695505050505050565b8481528315156020820152826040820152608060608201526000613ece6080830184613616565b9695505050505050565b600060208284031215613eea57600080fd5b815161384d81613ae5565b600060208284031215613f0757600080fd5b815161384d8161374b565b600060208284031215613f2457600080fd5b5051919050565b6020808252818101527f4f776e61626c653a2063616c6c6572206973206e6f7420746865206f776e6572604082015260600190565b60208152600061384d6020830184613616565b60008154613f8081613e21565b808552602060018381168015613f9d5760018114613fb757613fe5565b60ff1985168884015283151560051b880183019550613fe5565b866000528260002060005b85811015613fdd5781548a8201860152908301908401613fc2565b890184019650505b505050505092915050565b60208152600061384d6020830184613f73565b601f82111561404d57600081815260208120601f850160051c8101602086101561402a5750805b601f850160051c820191505b8181101561404957828155600101614036565b5050505b505050565b81516001600160401b0381111561406b5761406b613686565b61407f816140798454613e21565b84614003565b602080601f8311600181146140b4576000841561409c5750858301515b600019600386901b1c1916600185901b178555614049565b600085815260208120601f198616915b828110156140e3578886015182559484019460019091019084016140c4565b50858210156141015787850151600019600388901b60f8161c191681555b5050505050600190811b01905550565b634e487b7160e01b600052601160045260246000fd5b6000821982111561413a5761413a614111565b500190565b600061ffff8381169083168181101561415a5761415a614111565b039392505050565b60008282101561417457614174614111565b500390565b64ffffffffff8516815283602082015260806040820152600061419f6080830185613616565b905082606083015295945050505050565b6000600182016141c2576141c2614111565b5060010190565b6001600160401b038311156141e0576141e0613686565b6141f4836141ee8354613e21565b83614003565b6000601f84116001811461422857600085156142105750838201355b600019600387901b1c1916600186901b17835561221f565b600083815260209020601f19861690835b828110156142595786850135825560209485019460019092019101614239565b50868210156142765760001960f88860031b161c19848701351681555b505060018560011b0183555050505050565b8381528260208201526060604082015260006101408060608401526142b16101a0840185613f73565b600185015464ffffffffff1664ffffffffff8116608086015250600285015460a0850152600385015460c0850152600485015460ff811660e0860152600881901c62ffffff16610100860152602081901c6001600160501b031661012086015261ffff607082901c8116848701526143356101608701828460801c1661ffff169052565b50609081901c64ffffffffff16610180860152509695505050505050565b60006001600160501b038084168061437b57634e487b7160e01b600052601260045260246000fd5b92169190910492915050565b6020808252601490820152732330b4b632b2103a379039b2b7321022ba3432b960611b604082015260600190565b600080821280156001600160ff1b03849003851316156143d7576143d7614111565b600160ff1b83900384128116156143f0576143f0614111565b50500190565b600082516144088184602087016135ea565b9190910192915050565b600080835461442081613e21565b60018281168015614438576001811461444d57613e9b565b60ff1984168752821515830287019450613e9b565b8760005260208060002060005b858110156144735781548a82015290840190820161445a565b505050959091019695505050505050565b60e081528760e08201526000610100898b8285013760008a840182015264ffffffffff988916602084015260ff9790971660408301525062ffffff949094166060850152918516608084015290931660a082015261ffff90921660c0830152601f909201601f1916010191905056fea26469706673582212203ea70e9d4786e136b3f25cae625628e63d68b7649c43a52848281b715bc3cb0864736f6c634300080f0033",
  "bytecodeSha1": "a029d61ae573a54abc8190321f3b75e8eb6a562d",
  "compiler": {
    "evm_version": "istanbul",
    "optimizer": {
      "enabled": true,
      "runs": 200
    },
    "version": "0.8.15+commit.e14f2714"
  },
  "contractName": "Governance",
  "language": "Solidity",
  "natspec": {
    "errors": {
      "Empty()": [
        {
          "details": "An operation (e.g. {front}) couldn't be completed due to the queue being empty."
        }
      ],
      "OutOfBounds()": [
        {
          "details": "An operation (e.g. {at}) couldn't be completed due to an index being out of bounds."
        }
      ]
    },
    "kind": "dev",
    "methods": {
      "constructor": {
        "details": "Constructor for HOADAO",
        "params": {
          "_nft": "-- contract address for NFTs"
        }
      },
      "owner()": {
        "details": "Returns the address of the current owner."
      },
      "renounceOwnership()": {
        "details": "Leaves the contract without owner. It will not be possible to call `onlyOwner` functions anymore. Can only be called by the current owner. NOTE: Renouncing ownership will leave the contract without an owner, thereby removing any functionality that is only available to the owner."
      },
      "transferOwnership(address)": {
        "details": "Transfers ownership of the contract to a new account (`newOwner`). Can only be called by the current owner."
      }
    },
    "version": 1
  },
  "opcodes": "PUSH1 0x80 PUSH1 0x40 MSTORE PUSH1 0x4 CALLDATASIZE LT PUSH2 0x185 JUMPI PUSH1 0x0 CALLDATALOAD PUSH1 0xE0 SHR DUP1 PUSH4 0x8D977672 GT PUSH2 0xD1 JUMPI DUP1 PUSH4 0xD374A217 GT PUSH2 0x8A JUMPI DUP1 PUSH4 0xF2FDE38B GT PUSH2 0x64 JUMPI DUP1 PUSH4 0xF2FDE38B EQ PUSH2 0x4FD JUMPI DUP1 PUSH4 0xF4739BD9 EQ PUSH2 0x51D JUMPI DUP1 PUSH4 0xF713B7ED EQ PUSH2 0x53D JUMPI DUP1 PUSH4 0xFF981099 EQ PUSH2 0x55D JUMPI PUSH1 0x0 DUP1 REVERT JUMPDEST DUP1 PUSH4 0xD374A217 EQ PUSH2 0x47D JUMPI DUP1 PUSH4 0xE95D2347 EQ PUSH2 0x49D JUMPI DUP1 PUSH4 0xF18C51D3 EQ PUSH2 0x4DD JUMPI PUSH1 0x0 DUP1 REVERT JUMPDEST DUP1 PUSH4 0x8D977672 EQ PUSH2 0x38F JUMPI DUP1 PUSH4 0x8DA5CB5B EQ PUSH2 0x3C5 JUMPI DUP1 PUSH4 0x90B293D8 EQ PUSH2 0x3ED JUMPI DUP1 PUSH4 0x976217CD EQ PUSH2 0x403 JUMPI DUP1 PUSH4 0xB2BAD544 EQ PUSH2 0x430 JUMPI DUP1 PUSH4 0xBECA3A16 EQ PUSH2 0x45D JUMPI PUSH1 0x0 DUP1 REVERT JUMPDEST DUP1 PUSH4 0x61F9E9A8 GT PUSH2 0x13E JUMPI DUP1 PUSH4 0x715018A6 GT PUSH2 0x118 JUMPI DUP1 PUSH4 0x715018A6 EQ PUSH2 0x31A JUMPI DUP1 PUSH4 0x72E185CE EQ PUSH2 0x32F JUMPI DUP1 PUSH4 0x826B8EBD EQ PUSH2 0x34F JUMPI DUP1 PUSH4 0x8A6655D6 EQ PUSH2 0x36F JUMPI PUSH1 0x0 DUP1 REVERT JUMPDEST DUP1 PUSH4 0x61F9E9A8 EQ PUSH2 0x294 JUMPI DUP1 PUSH4 0x6215597B EQ PUSH2 0x2B4 JUMPI DUP1 PUSH4 0x69D03738 EQ PUSH2 0x2FA JUMPI PUSH1 0x0 DUP1 REVERT JUMPDEST DUP1 PUSH4 0x13CF08B EQ PUSH2 0x191 JUMPI DUP1 PUSH4 0x9265CE6 EQ PUSH2 0x1CB JUMPI DUP1 PUSH4 0xF61D8BD EQ PUSH2 0x1ED JUMPI DUP1 PUSH4 0x10190EF1 EQ PUSH2 0x21D JUMPI DUP1 PUSH4 0x3B47FED2 EQ PUSH2 0x251 JUMPI DUP1 PUSH4 0x4B50F16A EQ PUSH2 0x266 JUMPI PUSH1 0x0 DUP1 REVERT JUMPDEST CALLDATASIZE PUSH2 0x18C JUMPI STOP JUMPDEST PUSH1 0x0 DUP1 REVERT JUMPDEST CALLVALUE DUP1 ISZERO PUSH2 0x19D JUMPI PUSH1 0x0 DUP1 REVERT JUMPDEST POP PUSH2 0x1B1 PUSH2 0x1AC CALLDATASIZE PUSH1 0x4 PUSH2 0x35D1 JUMP JUMPDEST PUSH2 0x58A JUMP JUMPDEST PUSH1 0x40 MLOAD PUSH2 0x1C2 SWAP6 SWAP5 SWAP4 SWAP3 SWAP2 SWAP1 PUSH2 0x3642 JUMP JUMPDEST PUSH1 0x40 MLOAD DUP1 SWAP2 SUB SWAP1 RETURN JUMPDEST CALLVALUE DUP1 ISZERO PUSH2 0x1D7 JUMPI PUSH1 0x0 DUP1 REVERT JUMPDEST POP PUSH2 0x1EB PUSH2 0x1E6 CALLDATASIZE PUSH1 0x4 PUSH2 0x3759 JUMP JUMPDEST PUSH2 0x656 JUMP JUMPDEST STOP JUMPDEST CALLVALUE DUP1 ISZERO PUSH2 0x1F9 JUMPI PUSH1 0x0 DUP1 REVERT JUMPDEST POP PUSH2 0x20D PUSH2 0x208 CALLDATASIZE PUSH1 0x4 PUSH2 0x35D1 JUMP JUMPDEST PUSH2 0x79C JUMP JUMPDEST PUSH1 0x40 MLOAD SWAP1 ISZERO ISZERO DUP2 MSTORE PUSH1 0x20 ADD PUSH2 0x1C2 JUMP JUMPDEST CALLVALUE DUP1 ISZERO PUSH2 0x229 JUMPI PUSH1 0x0 DUP1 REVERT JUMPDEST POP PUSH2 0x23D PUSH2 0x238 CALLDATASIZE PUSH1 0x4 PUSH2 0x35D1 JUMP JUMPDEST PUSH2 0x91B JUMP JUMPDEST PUSH1 0x40 MLOAD PUSH2 0x1C2 SWAP9 SWAP8 SWAP7 SWAP6 SWAP5 SWAP4 SWAP3 SWAP2 SWAP1 PUSH2 0x37B3 JUMP JUMPDEST CALLVALUE DUP1 ISZERO PUSH2 0x25D JUMPI PUSH1 0x0 DUP1 REVERT JUMPDEST POP PUSH2 0x20D PUSH2 0xA25 JUMP JUMPDEST CALLVALUE DUP1 ISZERO PUSH2 0x272 JUMPI PUSH1 0x0 DUP1 REVERT JUMPDEST POP PUSH2 0x286 PUSH2 0x281 CALLDATASIZE PUSH1 0x4 PUSH2 0x3832 JUMP JUMPDEST PUSH2 0xB33 JUMP JUMPDEST PUSH1 0x40 MLOAD PUSH2 0x1C2 SWAP3 SWAP2 SWAP1 PUSH2 0x391E JUMP JUMPDEST CALLVALUE DUP1 ISZERO PUSH2 0x2A0 JUMPI PUSH1 0x0 DUP1 REVERT JUMPDEST POP PUSH2 0x1EB PUSH2 0x2AF CALLDATASIZE PUSH1 0x4 PUSH2 0x3A26 JUMP JUMPDEST PUSH2 0xFC7 JUMP JUMPDEST CALLVALUE DUP1 ISZERO PUSH2 0x2C0 JUMPI PUSH1 0x0 DUP1 REVERT JUMPDEST POP PUSH2 0x2EC PUSH2 0x2CF CALLDATASIZE PUSH1 0x4 PUSH2 0x3AC3 JUMP JUMPDEST PUSH1 0x4 PUSH1 0x20 SWAP1 DUP2 MSTORE PUSH1 0x0 SWAP3 DUP4 MSTORE PUSH1 0x40 DUP1 DUP5 KECCAK256 SWAP1 SWAP2 MSTORE SWAP1 DUP3 MSTORE SWAP1 KECCAK256 SLOAD DUP2 JUMP JUMPDEST PUSH1 0x40 MLOAD SWAP1 DUP2 MSTORE PUSH1 0x20 ADD PUSH2 0x1C2 JUMP JUMPDEST CALLVALUE DUP1 ISZERO PUSH2 0x306 JUMPI PUSH1 0x0 DUP1 REVERT JUMPDEST POP PUSH2 0x1EB PUSH2 0x315 CALLDATASIZE PUSH1 0x4 PUSH2 0x3AFA JUMP JUMPDEST PUSH2 0x1031 JUMP JUMPDEST CALLVALUE DUP1 ISZERO PUSH2 0x326 JUMPI PUSH1 0x0 DUP1 REVERT JUMPDEST POP PUSH2 0x1EB PUSH2 0x107D JUMP JUMPDEST CALLVALUE DUP1 ISZERO PUSH2 0x33B JUMPI PUSH1 0x0 DUP1 REVERT JUMPDEST POP PUSH2 0x1EB PUSH2 0x34A CALLDATASIZE PUSH1 0x4 PUSH2 0x3B86 JUMP JUMPDEST PUSH2 0x10B3 JUMP JUMPDEST CALLVALUE DUP1 ISZERO PUSH2 0x35B JUMPI PUSH1 0x0 DUP1 REVERT JUMPDEST POP PUSH2 0x2EC PUSH2 0x36A CALLDATASIZE PUSH1 0x4 PUSH2 0x35D1 JUMP JUMPDEST PUSH2 0x1529 JUMP JUMPDEST CALLVALUE DUP1 ISZERO PUSH2 0x37B JUMPI PUSH1 0x0 DUP1 REVERT JUMPDEST POP PUSH2 0x1EB PUSH2 0x38A CALLDATASIZE PUSH1 0x4 PUSH2 0x3BDC JUMP JUMPDEST PUSH2 0x174C JUMP JUMPDEST CALLVALUE DUP1 ISZERO PUSH2 0x39B JUMPI PUSH1 0x0 DUP1 REVERT JUMPDEST POP PUSH2 0x3AF PUSH2 0x3AA CALLDATASIZE PUSH1 0x4 PUSH2 0x35D1 JUMP JUMPDEST PUSH2 0x1785 JUMP JUMPDEST PUSH1 0x40 MLOAD PUSH2 0x1C2 SWAP11 SWAP10 SWAP9 SWAP8 SWAP7 SWAP6 SWAP5 SWAP4 SWAP3 SWAP2 SWAP1 PUSH2 0x3C08 JUMP JUMPDEST CALLVALUE DUP1 ISZERO PUSH2 0x3D1 JUMPI PUSH1 0x0 DUP1 REVERT JUMPDEST POP PUSH1 0x1 SLOAD PUSH1 0x40 MLOAD PUSH1 0x1 PUSH1 0x1 PUSH1 0xA0 SHL SUB SWAP1 SWAP2 AND DUP2 MSTORE PUSH1 0x20 ADD PUSH2 0x1C2 JUMP JUMPDEST CALLVALUE DUP1 ISZERO PUSH2 0x3F9 JUMPI PUSH1 0x0 DUP1 REVERT JUMPDEST POP PUSH2 0x2EC PUSH1 0xB SLOAD DUP2 JUMP JUMPDEST CALLVALUE DUP1 ISZERO PUSH2 0x40F JUMPI PUSH1 0x0 DUP1 REVERT JUMPDEST POP PUSH2 0x423 PUSH2 0x41E CALLDATASIZE PUSH1 0x4 PUSH2 0x35D1 JUMP JUMPDEST PUSH2 0x1887 JUMP JUMPDEST PUSH1 0x40 MLOAD PUSH2 0x1C2 SWAP2 SWAP1 PUSH2 0x3C89 JUMP JUMPDEST CALLVALUE DUP1 ISZERO PUSH2 0x43C JUMPI PUSH1 0x0 DUP1 REVERT JUMPDEST POP PUSH2 0x450 PUSH2 0x44B CALLDATASIZE PUSH1 0x4 PUSH2 0x3832 JUMP JUMPDEST PUSH2 0x19C9 JUMP JUMPDEST PUSH1 0x40 MLOAD PUSH2 0x1C2 SWAP2 SWAP1 PUSH2 0x3C9C JUMP JUMPDEST CALLVALUE DUP1 ISZERO PUSH2 0x469 JUMPI PUSH1 0x0 DUP1 REVERT JUMPDEST POP PUSH2 0x1EB PUSH2 0x478 CALLDATASIZE PUSH1 0x4 PUSH2 0x3CFE JUMP JUMPDEST PUSH2 0x1D8F JUMP JUMPDEST CALLVALUE DUP1 ISZERO PUSH2 0x489 JUMPI PUSH1 0x0 DUP1 REVERT JUMPDEST POP PUSH2 0x1EB PUSH2 0x498 CALLDATASIZE PUSH1 0x4 PUSH2 0x35D1 JUMP JUMPDEST PUSH2 0x1EEF JUMP JUMPDEST CALLVALUE DUP1 ISZERO PUSH2 0x4A9 JUMPI PUSH1 0x0 DUP1 REVERT JUMPDEST POP PUSH1 0x6 SLOAD PUSH2 0x4C3 SWAP1 PUSH1 0xF DUP2 DUP2 SIGNEXTEND SWAP2 PUSH1 0x1 PUSH1 0x80 SHL SWAP1 DIV SWAP1 SIGNEXTEND DUP3 JUMP JUMPDEST PUSH1 0x40 DUP1 MLOAD PUSH1 0xF SWAP4 DUP5 SIGNEXTEND DUP2 MSTORE SWAP2 SWAP1 SWAP3 SIGNEXTEND PUSH1 0x20 DUP3 ADD MSTORE ADD PUSH2 0x1C2 JUMP JUMPDEST CALLVALUE DUP1 ISZERO PUSH2 0x4E9 JUMPI PUSH1 0x0 DUP1 REVERT JUMPDEST POP PUSH2 0x1EB PUSH2 0x4F8 CALLDATASIZE PUSH1 0x4 PUSH2 0x3D4E JUMP JUMPDEST PUSH2 0x2226 JUMP JUMPDEST CALLVALUE DUP1 ISZERO PUSH2 0x509 JUMPI PUSH1 0x0 DUP1 REVERT JUMPDEST POP PUSH2 0x1EB PUSH2 0x518 CALLDATASIZE PUSH1 0x4 PUSH2 0x3AFA JUMP JUMPDEST PUSH2 0x2C43 JUMP JUMPDEST CALLVALUE DUP1 ISZERO PUSH2 0x529 JUMPI PUSH1 0x0 DUP1 REVERT JUMPDEST POP PUSH2 0x20D PUSH2 0x538 CALLDATASIZE PUSH1 0x4 PUSH2 0x35D1 JUMP JUMPDEST PUSH2 0x2CDE JUMP JUMPDEST CALLVALUE DUP1 ISZERO PUSH2 0x549 JUMPI PUSH1 0x0 DUP1 REVERT JUMPDEST POP PUSH2 0x1EB PUSH2 0x558 CALLDATASIZE PUSH1 0x4 PUSH2 0x3D9D JUMP JUMPDEST PUSH2 0x2EAE JUMP JUMPDEST CALLVALUE DUP1 ISZERO PUSH2 0x569 JUMPI PUSH1 0x0 DUP1 REVERT JUMPDEST POP PUSH2 0x57D PUSH2 0x578 CALLDATASIZE PUSH1 0x4 PUSH2 0x35D1 JUMP JUMPDEST PUSH2 0x304B JUMP JUMPDEST PUSH1 0x40 MLOAD PUSH2 0x1C2 SWAP2 SWAP1 PUSH2 0x3DD9 JUMP JUMPDEST PUSH1 0x8 PUSH1 0x20 MSTORE PUSH1 0x0 SWAP1 DUP2 MSTORE PUSH1 0x40 SWAP1 KECCAK256 DUP1 SLOAD DUP2 SWAP1 PUSH2 0x5A5 SWAP1 PUSH2 0x3E21 JUMP JUMPDEST DUP1 PUSH1 0x1F ADD PUSH1 0x20 DUP1 SWAP2 DIV MUL PUSH1 0x20 ADD PUSH1 0x40 MLOAD SWAP1 DUP2 ADD PUSH1 0x40 MSTORE DUP1 SWAP3 SWAP2 SWAP1 DUP2 DUP2 MSTORE PUSH1 0x20 ADD DUP3 DUP1 SLOAD PUSH2 0x5D1 SWAP1 PUSH2 0x3E21 JUMP JUMPDEST DUP1 ISZERO PUSH2 0x61E JUMPI DUP1 PUSH1 0x1F LT PUSH2 0x5F3 JUMPI PUSH2 0x100 DUP1 DUP4 SLOAD DIV MUL DUP4 MSTORE SWAP2 PUSH1 0x20 ADD SWAP2 PUSH2 0x61E JUMP JUMPDEST DUP3 ADD SWAP2 SWAP1 PUSH1 0x0 MSTORE PUSH1 0x20 PUSH1 0x0 KECCAK256 SWAP1 JUMPDEST DUP2 SLOAD DUP2 MSTORE SWAP1 PUSH1 0x1 ADD SWAP1 PUSH1 0x20 ADD DUP1 DUP4 GT PUSH2 0x601 JUMPI DUP3 SWAP1 SUB PUSH1 0x1F AND DUP3 ADD SWAP2 JUMPDEST POP POP POP POP PUSH1 0x1 DUP4 ADD SLOAD PUSH1 0x3 SWAP1 SWAP4 ADD SLOAD SWAP2 SWAP3 PUSH2 0xFFFF AND SWAP2 PUSH5 0xFFFFFFFFFF DUP1 DUP3 AND SWAP3 POP PUSH6 0x10000000000 DUP3 DIV DUP2 AND SWAP2 PUSH1 0x1 PUSH1 0x50 SHL SWAP1 DIV AND DUP6 JUMP JUMPDEST PUSH1 0x0 DUP3 PUSH1 0x0 DUP2 MLOAD DUP2 LT PUSH2 0x66B JUMPI PUSH2 0x66B PUSH2 0x3E5B JUMP JUMPDEST PUSH1 0x20 MUL PUSH1 0x20 ADD ADD MLOAD PUSH1 0x40 MLOAD PUSH1 0x20 ADD PUSH2 0x685 SWAP2 DUP2 MSTORE PUSH1 0x20 ADD SWAP1 JUMP JUMPDEST PUSH1 0x40 MLOAD PUSH1 0x20 DUP2 DUP4 SUB SUB DUP2 MSTORE SWAP1 PUSH1 0x40 MSTORE SWAP1 POP DUP2 ISZERO PUSH2 0x711 JUMPI PUSH1 0x0 JUMPDEST DUP4 MLOAD DUP2 LT ISZERO PUSH2 0x70F JUMPI DUP4 DUP2 DUP2 MLOAD DUP2 LT PUSH2 0x6BA JUMPI PUSH2 0x6BA PUSH2 0x3E5B JUMP JUMPDEST PUSH1 0x20 MUL PUSH1 0x20 ADD ADD MLOAD PUSH1 0x40 MLOAD PUSH1 0x20 ADD PUSH2 0x6D4 SWAP2 DUP2 MSTORE PUSH1 0x20 ADD SWAP1 JUMP JUMPDEST PUSH1 0x40 MLOAD PUSH1 0x20 DUP2 DUP4 SUB SUB DUP2 MSTORE SWAP1 PUSH1 0x40 MSTORE DUP1 MLOAD SWAP1 PUSH1 0x20 ADD KECCAK256 DUP5 DUP3 DUP2 MLOAD DUP2 LT PUSH2 0x6FC JUMPI PUSH2 0x6FC PUSH2 0x3E5B JUMP JUMPDEST PUSH1 0x20 SWAP1 DUP2 MUL SWAP2 SWAP1 SWAP2 ADD ADD MSTORE PUSH1 0x1 ADD PUSH2 0x69F JUMP JUMPDEST POP JUMPDEST PUSH1 0x0 DUP4 PUSH1 0x40 MLOAD PUSH1 0x20 ADD PUSH2 0x724 SWAP2 SWAP1 PUSH2 0x3E71 JUMP JUMPDEST PUSH1 0x40 MLOAD PUSH1 0x20 DUP2 DUP4 SUB SUB DUP2 MSTORE SWAP1 PUSH1 0x40 MSTORE DUP1 MLOAD SWAP1 PUSH1 0x20 ADD KECCAK256 SWAP1 POP PUSH32 0x637CE8D069E382E64EF71CF191623B88C7E307CE252E908E7F2BABBAD0CB81EA DUP2 DUP7 DUP4 EQ DUP7 PUSH1 0x0 DUP2 MLOAD DUP2 LT PUSH2 0x774 JUMPI PUSH2 0x774 PUSH2 0x3E5B JUMP JUMPDEST PUSH1 0x20 MUL PUSH1 0x20 ADD ADD MLOAD DUP6 PUSH1 0x40 MLOAD PUSH2 0x78D SWAP5 SWAP4 SWAP3 SWAP2 SWAP1 PUSH2 0x3EA7 JUMP JUMPDEST PUSH1 0x40 MLOAD DUP1 SWAP2 SUB SWAP1 LOG1 POP POP POP POP POP JUMP JUMPDEST PUSH1 0x2 SLOAD PUSH1 0x40 MLOAD PUSH4 0x31A9108F PUSH1 0xE1 SHL DUP2 MSTORE PUSH1 0x4 DUP2 ADD DUP4 SWAP1 MSTORE PUSH1 0x0 SWAP2 CALLER SWAP2 PUSH1 0x1 PUSH1 0x1 PUSH1 0xA0 SHL SUB SWAP1 SWAP2 AND SWAP1 PUSH4 0x6352211E SWAP1 PUSH1 0x24 ADD PUSH1 0x20 PUSH1 0x40 MLOAD DUP1 DUP4 SUB DUP2 DUP7 GAS STATICCALL ISZERO DUP1 ISZERO PUSH2 0x7EA JUMPI RETURNDATASIZE PUSH1 0x0 DUP1 RETURNDATACOPY RETURNDATASIZE PUSH1 0x0 REVERT JUMPDEST POP POP POP POP PUSH1 0x40 MLOAD RETURNDATASIZE PUSH1 0x1F NOT PUSH1 0x1F DUP3 ADD AND DUP3 ADD DUP1 PUSH1 0x40 MSTORE POP DUP2 ADD SWAP1 PUSH2 0x80E SWAP2 SWAP1 PUSH2 0x3ED8 JUMP JUMPDEST PUSH1 0x1 PUSH1 0x1 PUSH1 0xA0 SHL SUB AND EQ DUP1 ISZERO PUSH2 0x88C JUMPI POP PUSH1 0x3 SLOAD PUSH1 0x40 MLOAD PUSH4 0x1D828F83 PUSH1 0xE3 SHL DUP2 MSTORE PUSH1 0x4 DUP2 ADD DUP5 SWAP1 MSTORE PUSH1 0x1 PUSH1 0x1 PUSH1 0xA0 SHL SUB SWAP1 SWAP2 AND SWAP1 PUSH4 0xEC147C18 SWAP1 PUSH1 0x24 ADD PUSH1 0x20 PUSH1 0x40 MLOAD DUP1 DUP4 SUB DUP2 DUP7 GAS STATICCALL ISZERO DUP1 ISZERO PUSH2 0x868 JUMPI RETURNDATASIZE PUSH1 0x0 DUP1 RETURNDATACOPY RETURNDATASIZE PUSH1 0x0 REVERT JUMPDEST POP POP POP POP PUSH1 0x40 MLOAD RETURNDATASIZE PUSH1 0x1F NOT PUSH1 0x1F DUP3 ADD AND DUP3 ADD DUP1 PUSH1 0x40 MSTORE POP DUP2 ADD SWAP1 PUSH2 0x88C SWAP2 SWAP1 PUSH2 0x3EF5 JUMP JUMPDEST DUP1 ISZERO PUSH2 0x906 JUMPI POP PUSH1 0xE SLOAD PUSH1 0x3 SLOAD PUSH1 0x40 MLOAD PUSH4 0x1245C6B PUSH1 0xE2 SHL DUP2 MSTORE PUSH1 0x4 DUP2 ADD DUP6 SWAP1 MSTORE PUSH1 0x1 PUSH1 0x1 PUSH1 0xA0 SHL SUB SWAP1 SWAP2 AND SWAP1 PUSH4 0x49171AC SWAP1 PUSH1 0x24 ADD PUSH1 0x20 PUSH1 0x40 MLOAD DUP1 DUP4 SUB DUP2 DUP7 GAS STATICCALL ISZERO DUP1 ISZERO PUSH2 0x8DF JUMPI RETURNDATASIZE PUSH1 0x0 DUP1 RETURNDATACOPY RETURNDATASIZE PUSH1 0x0 REVERT JUMPDEST POP POP POP POP PUSH1 0x40 MLOAD RETURNDATASIZE PUSH1 0x1F NOT PUSH1 0x1F DUP3 ADD AND DUP3 ADD DUP1 PUSH1 0x40 MSTORE POP DUP2 ADD SWAP1 PUSH2 0x903 SWAP2 SWAP1 PUSH2 0x3F12 JUMP JUMPDEST GT ISZERO JUMPDEST ISZERO PUSH2 0x913 JUMPI POP PUSH1 0x1 SWAP2 SWAP1 POP JUMP JUMPDEST POP PUSH1 0x0 SWAP2 SWAP1 POP JUMP JUMPDEST PUSH1 0x5 DUP2 DUP2 SLOAD DUP2 LT PUSH2 0x92B JUMPI PUSH1 0x0 DUP1 REVERT JUMPDEST SWAP1 PUSH1 0x0 MSTORE PUSH1 0x20 PUSH1 0x0 KECCAK256 SWAP1 PUSH1 0x3 MUL ADD PUSH1 0x0 SWAP2 POP SWAP1 POP DUP1 PUSH1 0x1 ADD DUP1 SLOAD PUSH2 0x94E SWAP1 PUSH2 0x3E21 JUMP JUMPDEST DUP1 PUSH1 0x1F ADD PUSH1 0x20 DUP1 SWAP2 DIV MUL PUSH1 0x20 ADD PUSH1 0x40 MLOAD SWAP1 DUP2 ADD PUSH1 0x40 MSTORE DUP1 SWAP3 SWAP2 SWAP1 DUP2 DUP2 MSTORE PUSH1 0x20 ADD DUP3 DUP1 SLOAD PUSH2 0x97A SWAP1 PUSH2 0x3E21 JUMP JUMPDEST DUP1 ISZERO PUSH2 0x9C7 JUMPI DUP1 PUSH1 0x1F LT PUSH2 0x99C JUMPI PUSH2 0x100 DUP1 DUP4 SLOAD DIV MUL DUP4 MSTORE SWAP2 PUSH1 0x20 ADD SWAP2 PUSH2 0x9C7 JUMP JUMPDEST DUP3 ADD SWAP2 SWAP1 PUSH1 0x0 MSTORE PUSH1 0x20 PUSH1 0x0 KECCAK256 SWAP1 JUMPDEST DUP2 SLOAD DUP2 MSTORE SWAP1 PUSH1 0x1 ADD SWAP1 PUSH1 0x20 ADD DUP1 DUP4 GT PUSH2 0x9AA JUMPI DUP3 SWAP1 SUB PUSH1 0x1F AND DUP3 ADD SWAP2 JUMPDEST POP POP POP PUSH1 0x2 SWAP1 SWAP4 ADD SLOAD SWAP2 SWAP3 POP POP PUSH1 0xFF DUP1 DUP3 AND SWAP2 PUSH5 0xFFFFFFFFFF PUSH2 0x100 DUP3 DIV DUP2 AND SWAP3 PUSH7 0x1000000000000 DUP4 DIV AND SWAP2 PUSH3 0xFFFFFF PUSH1 0x1 PUSH1 0x38 SHL DUP3 DIV AND SWAP2 PUSH1 0x1 PUSH1 0x50 SHL DUP3 DIV DUP2 AND SWAP2 PUSH1 0x1 PUSH1 0x78 SHL DUP2 DIV SWAP1 SWAP2 AND SWAP1 PUSH2 0xFFFF PUSH1 0x1 PUSH1 0xA0 SHL SWAP1 SWAP2 DIV AND DUP9 JUMP JUMPDEST PUSH1 0x0 PUSH1 0x1 JUMPDEST PUSH1 0xE SLOAD DUP2 GT PUSH2 0xB2B JUMPI PUSH1 0x2 SLOAD PUSH1 0x3 SLOAD PUSH1 0x40 MLOAD PUSH4 0x1038D37 PUSH1 0xE6 SHL DUP2 MSTORE PUSH1 0x4 DUP2 ADD DUP5 SWAP1 MSTORE CALLER SWAP3 PUSH1 0x1 PUSH1 0x1 PUSH1 0xA0 SHL SUB SWAP1 DUP2 AND SWAP3 PUSH4 0x6352211E SWAP3 SWAP2 AND SWAP1 PUSH4 0x40E34DC0 SWAP1 PUSH1 0x24 ADD PUSH1 0x20 PUSH1 0x40 MLOAD DUP1 DUP4 SUB DUP2 DUP7 GAS STATICCALL ISZERO DUP1 ISZERO PUSH2 0xA8A JUMPI RETURNDATASIZE PUSH1 0x0 DUP1 RETURNDATACOPY RETURNDATASIZE PUSH1 0x0 REVERT JUMPDEST POP POP POP POP PUSH1 0x40 MLOAD RETURNDATASIZE PUSH1 0x1F NOT PUSH1 0x1F DUP3 ADD AND DUP3 ADD DUP1 PUSH1 0x40 MSTORE POP DUP2 ADD SWAP1 PUSH2 0xAAE SWAP2 SWAP1 PUSH2 0x3F12 JUMP JUMPDEST PUSH1 0x40 MLOAD DUP3 PUSH4 0xFFFFFFFF AND PUSH1 0xE0 SHL DUP2 MSTORE PUSH1 0x4 ADD PUSH2 0xACC SWAP2 DUP2 MSTORE PUSH1 0x20 ADD SWAP1 JUMP JUMPDEST PUSH1 0x20 PUSH1 0x40 MLOAD DUP1 DUP4 SUB DUP2 DUP7 GAS STATICCALL ISZERO DUP1 ISZERO PUSH2 0xAE9 JUMPI RETURNDATASIZE PUSH1 0x0 DUP1 RETURNDATACOPY RETURNDATASIZE PUSH1 0x0 REVERT JUMPDEST POP POP POP POP PUSH1 0x40 MLOAD RETURNDATASIZE PUSH1 0x1F NOT PUSH1 0x1F DUP3 ADD AND DUP3 ADD DUP1 PUSH1 0x40 MSTORE POP DUP2 ADD SWAP1 PUSH2 0xB0D SWAP2 SWAP1 PUSH2 0x3ED8 JUMP JUMPDEST PUSH1 0x1 PUSH1 0x1 PUSH1 0xA0 SHL SUB AND SUB PUSH2 0xB23 JUMPI PUSH1 0x1 SWAP2 POP POP SWAP1 JUMP JUMPDEST PUSH1 0x1 ADD PUSH2 0xA2A JUMP JUMPDEST POP PUSH1 0x0 SWAP1 POP SWAP1 JUMP JUMPDEST PUSH1 0x60 DUP1 PUSH1 0x0 PUSH2 0xB51 PUSH1 0x6 SLOAD PUSH1 0xF DUP2 DUP2 SIGNEXTEND PUSH1 0x1 PUSH1 0x80 SHL SWAP1 SWAP3 DIV SWAP1 SIGNEXTEND SUB SWAP1 JUMP JUMPDEST SWAP1 POP PUSH2 0xB5B PUSH2 0x3533 JUMP JUMPDEST PUSH1 0x0 DUP1 DUP1 JUMPDEST DUP5 DUP2 LT ISZERO PUSH2 0xCE3 JUMPI PUSH2 0xB73 PUSH1 0x6 DUP3 PUSH2 0x3175 JUMP JUMPDEST PUSH1 0x0 DUP2 DUP2 MSTORE PUSH1 0xA PUSH1 0x20 MSTORE PUSH1 0x40 SWAP1 DUP2 SWAP1 KECCAK256 DUP2 MLOAD PUSH2 0x140 DUP2 ADD SWAP1 SWAP3 MSTORE DUP1 SLOAD SWAP3 SWAP6 POP SWAP1 SWAP2 DUP3 SWAP1 DUP3 SWAP1 PUSH2 0xBA1 SWAP1 PUSH2 0x3E21 JUMP JUMPDEST DUP1 PUSH1 0x1F ADD PUSH1 0x20 DUP1 SWAP2 DIV MUL PUSH1 0x20 ADD PUSH1 0x40 MLOAD SWAP1 DUP2 ADD PUSH1 0x40 MSTORE DUP1 SWAP3 SWAP2 SWAP1 DUP2 DUP2 MSTORE PUSH1 0x20 ADD DUP3 DUP1 SLOAD PUSH2 0xBCD SWAP1 PUSH2 0x3E21 JUMP JUMPDEST DUP1 ISZERO PUSH2 0xC1A JUMPI DUP1 PUSH1 0x1F LT PUSH2 0xBEF JUMPI PUSH2 0x100 DUP1 DUP4 SLOAD DIV MUL DUP4 MSTORE SWAP2 PUSH1 0x20 ADD SWAP2 PUSH2 0xC1A JUMP JUMPDEST DUP3 ADD SWAP2 SWAP1 PUSH1 0x0 MSTORE PUSH1 0x20 PUSH1 0x0 KECCAK256 SWAP1 JUMPDEST DUP2 SLOAD DUP2 MSTORE SWAP1 PUSH1 0x1 ADD SWAP1 PUSH1 0x20 ADD DUP1 DUP4 GT PUSH2 0xBFD JUMPI DUP3 SWAP1 SUB PUSH1 0x1F AND DUP3 ADD SWAP2 JUMPDEST POP POP POP SWAP2 DUP4 MSTORE POP POP PUSH1 0x1 DUP3 ADD SLOAD PUSH5 0xFFFFFFFFFF SWAP1 DUP2 AND PUSH1 0x20 DUP4 ADD MSTORE PUSH1 0x2 DUP4 ADD SLOAD PUSH1 0x40 DUP4 ADD MSTORE PUSH1 0x3 DUP4 ADD SLOAD PUSH1 0x60 DUP4 ADD MSTORE PUSH1 0x4 SWAP1 SWAP3 ADD SLOAD PUSH1 0xFF DUP2 AND PUSH1 0x80 DUP4 ADD MSTORE PUSH2 0x100 DUP1 DUP3 DIV PUSH3 0xFFFFFF AND PUSH1 0xA0 DUP5 ADD MSTORE PUSH1 0x1 PUSH1 0x20 SHL DUP3 DIV PUSH1 0x1 PUSH1 0x1 PUSH1 0x50 SHL SUB AND PUSH1 0xC0 DUP5 ADD MSTORE PUSH1 0x1 PUSH1 0x70 SHL DUP3 DIV PUSH2 0xFFFF SWAP1 DUP2 AND PUSH1 0xE0 DUP6 ADD MSTORE PUSH1 0x1 PUSH1 0x80 SHL DUP4 DIV AND SWAP1 DUP4 ADD MSTORE PUSH1 0x1 PUSH1 0x90 SHL SWAP1 DIV DUP3 AND PUSH2 0x120 SWAP2 DUP3 ADD MSTORE DUP3 ADD MLOAD SWAP2 SWAP6 POP TIMESTAMP SWAP2 AND GT DUP1 ISZERO PUSH2 0xCCF JUMPI POP DUP8 PUSH5 0xFFFFFFFFFF AND DUP5 PUSH1 0xE0 ADD MLOAD PUSH2 0xFFFF AND EQ JUMPDEST ISZERO PUSH2 0xCDB JUMPI DUP2 PUSH1 0x1 ADD SWAP2 POP JUMPDEST PUSH1 0x1 ADD PUSH2 0xB60 JUMP JUMPDEST POP DUP1 PUSH1 0x0 SUB PUSH2 0xD50 JUMPI PUSH1 0x40 DUP1 MLOAD PUSH1 0x1 DUP1 DUP3 MSTORE DUP2 DUP4 ADD SWAP1 SWAP3 MSTORE PUSH1 0x0 SWAP2 DUP2 PUSH1 0x20 ADD JUMPDEST PUSH2 0xD0B PUSH2 0x3533 JUMP JUMPDEST DUP2 MSTORE PUSH1 0x20 ADD SWAP1 PUSH1 0x1 SWAP1 SUB SWAP1 DUP2 PUSH2 0xD03 JUMPI POP POP PUSH1 0x40 DUP1 MLOAD PUSH1 0x1 DUP1 DUP3 MSTORE DUP2 DUP4 ADD SWAP1 SWAP3 MSTORE SWAP2 SWAP3 POP PUSH1 0x0 SWAP2 SWAP1 PUSH1 0x20 DUP1 DUP4 ADD SWAP1 DUP1 CALLDATASIZE DUP4 CALLDATACOPY POP SWAP4 SWAP12 SWAP2 SWAP11 POP SWAP1 SWAP9 POP POP POP POP POP POP POP POP POP JUMP JUMPDEST PUSH1 0x0 DUP1 DUP3 PUSH1 0x1 PUSH1 0x1 PUSH1 0x40 SHL SUB DUP2 GT ISZERO PUSH2 0xD6B JUMPI PUSH2 0xD6B PUSH2 0x3686 JUMP JUMPDEST PUSH1 0x40 MLOAD SWAP1 DUP1 DUP3 MSTORE DUP1 PUSH1 0x20 MUL PUSH1 0x20 ADD DUP3 ADD PUSH1 0x40 MSTORE DUP1 ISZERO PUSH2 0xDA4 JUMPI DUP2 PUSH1 0x20 ADD JUMPDEST PUSH2 0xD91 PUSH2 0x3533 JUMP JUMPDEST DUP2 MSTORE PUSH1 0x20 ADD SWAP1 PUSH1 0x1 SWAP1 SUB SWAP1 DUP2 PUSH2 0xD89 JUMPI SWAP1 POP JUMPDEST POP SWAP1 POP PUSH1 0x0 DUP4 PUSH1 0x1 PUSH1 0x1 PUSH1 0x40 SHL SUB DUP2 GT ISZERO PUSH2 0xDC1 JUMPI PUSH2 0xDC1 PUSH2 0x3686 JUMP JUMPDEST PUSH1 0x40 MLOAD SWAP1 DUP1 DUP3 MSTORE DUP1 PUSH1 0x20 MUL PUSH1 0x20 ADD DUP3 ADD PUSH1 0x40 MSTORE DUP1 ISZERO PUSH2 0xDEA JUMPI DUP2 PUSH1 0x20 ADD PUSH1 0x20 DUP3 MUL DUP1 CALLDATASIZE DUP4 CALLDATACOPY ADD SWAP1 POP JUMPDEST POP SWAP1 POP PUSH1 0x0 JUMPDEST DUP8 DUP2 LT ISZERO PUSH2 0xFB7 JUMPI PUSH2 0xE03 PUSH1 0x6 DUP3 PUSH2 0x3175 JUMP JUMPDEST PUSH1 0x0 DUP2 DUP2 MSTORE PUSH1 0xA PUSH1 0x20 MSTORE PUSH1 0x40 SWAP1 DUP2 SWAP1 KECCAK256 DUP2 MLOAD PUSH2 0x140 DUP2 ADD SWAP1 SWAP3 MSTORE DUP1 SLOAD SWAP3 SWAP9 POP SWAP1 SWAP2 DUP3 SWAP1 DUP3 SWAP1 PUSH2 0xE31 SWAP1 PUSH2 0x3E21 JUMP JUMPDEST DUP1 PUSH1 0x1F ADD PUSH1 0x20 DUP1 SWAP2 DIV MUL PUSH1 0x20 ADD PUSH1 0x40 MLOAD SWAP1 DUP2 ADD PUSH1 0x40 MSTORE DUP1 SWAP3 SWAP2 SWAP1 DUP2 DUP2 MSTORE PUSH1 0x20 ADD DUP3 DUP1 SLOAD PUSH2 0xE5D SWAP1 PUSH2 0x3E21 JUMP JUMPDEST DUP1 ISZERO PUSH2 0xEAA JUMPI DUP1 PUSH1 0x1F LT PUSH2 0xE7F JUMPI PUSH2 0x100 DUP1 DUP4 SLOAD DIV MUL DUP4 MSTORE SWAP2 PUSH1 0x20 ADD SWAP2 PUSH2 0xEAA JUMP JUMPDEST DUP3 ADD SWAP2 SWAP1 PUSH1 0x0 MSTORE PUSH1 0x20 PUSH1 0x0 KECCAK256 SWAP1 JUMPDEST DUP2 SLOAD DUP2 MSTORE SWAP1 PUSH1 0x1 ADD SWAP1 PUSH1 0x20 ADD DUP1 DUP4 GT PUSH2 0xE8D JUMPI DUP3 SWAP1 SUB PUSH1 0x1F AND DUP3 ADD SWAP2 JUMPDEST POP POP POP SWAP2 DUP4 MSTORE POP POP PUSH1 0x1 DUP3 ADD SLOAD PUSH5 0xFFFFFFFFFF SWAP1 DUP2 AND PUSH1 0x20 DUP4 ADD MSTORE PUSH1 0x2 DUP4 ADD SLOAD PUSH1 0x40 DUP4 ADD MSTORE PUSH1 0x3 DUP4 ADD SLOAD PUSH1 0x60 DUP4 ADD MSTORE PUSH1 0x4 SWAP1 SWAP3 ADD SLOAD PUSH1 0xFF DUP2 AND PUSH1 0x80 DUP4 ADD MSTORE PUSH2 0x100 DUP1 DUP3 DIV PUSH3 0xFFFFFF AND PUSH1 0xA0 DUP5 ADD MSTORE PUSH1 0x1 PUSH1 0x20 SHL DUP3 DIV PUSH1 0x1 PUSH1 0x1 PUSH1 0x50 SHL SUB AND PUSH1 0xC0 DUP5 ADD MSTORE PUSH1 0x1 PUSH1 0x70 SHL DUP3 DIV PUSH2 0xFFFF SWAP1 DUP2 AND PUSH1 0xE0 DUP6 ADD MSTORE PUSH1 0x1 PUSH1 0x80 SHL DUP4 DIV AND SWAP1 DUP4 ADD MSTORE PUSH1 0x1 PUSH1 0x90 SHL SWAP1 DIV DUP3 AND PUSH2 0x120 SWAP2 DUP3 ADD MSTORE DUP3 ADD MLOAD SWAP2 SWAP9 POP TIMESTAMP SWAP2 AND GT DUP1 ISZERO PUSH2 0xF5F JUMPI POP DUP11 PUSH5 0xFFFFFFFFFF AND DUP8 PUSH1 0xE0 ADD MLOAD PUSH2 0xFFFF AND EQ JUMPDEST ISZERO PUSH2 0xFAF JUMPI DUP7 DUP4 DUP6 DUP2 MLOAD DUP2 LT PUSH2 0xF77 JUMPI PUSH2 0xF77 PUSH2 0x3E5B JUMP JUMPDEST PUSH1 0x20 MUL PUSH1 0x20 ADD ADD DUP2 SWAP1 MSTORE POP DUP6 DUP3 DUP6 DUP2 MLOAD DUP2 LT PUSH2 0xF95 JUMPI PUSH2 0xF95 PUSH2 0x3E5B JUMP JUMPDEST PUSH1 0x20 MUL PUSH1 0x20 ADD ADD DUP2 DUP2 MSTORE POP POP DUP4 PUSH1 0x1 ADD SWAP4 POP DUP5 DUP5 GT PUSH2 0xFB7 JUMPI JUMPDEST PUSH1 0x1 ADD PUSH2 0xDF0 JUMP JUMPDEST POP SWAP1 SWAP10 SWAP1 SWAP9 POP SWAP7 POP POP POP POP POP POP POP JUMP JUMPDEST PUSH2 0xFCF PUSH2 0xA25 JUMP JUMPDEST PUSH2 0x1017 JUMPI PUSH1 0x40 MLOAD PUSH3 0x461BCD PUSH1 0xE5 SHL DUP2 MSTORE PUSH1 0x20 PUSH1 0x4 DUP3 ADD MSTORE PUSH1 0x14 PUSH1 0x24 DUP3 ADD MSTORE PUSH20 0x135D5CDD081899481BDB881D1A1948189BD85C99 PUSH1 0x62 SHL PUSH1 0x44 DUP3 ADD MSTORE PUSH1 0x64 ADD JUMPDEST PUSH1 0x40 MLOAD DUP1 SWAP2 SUB SWAP1 REVERT JUMPDEST PUSH2 0x1028 DUP8 DUP8 PUSH1 0x0 DUP9 DUP9 DUP9 DUP9 DUP9 PUSH2 0x31E6 JUMP JUMPDEST POP POP POP POP POP POP POP JUMP JUMPDEST PUSH1 0x1 SLOAD PUSH1 0x1 PUSH1 0x1 PUSH1 0xA0 SHL SUB AND CALLER EQ PUSH2 0x105B JUMPI PUSH1 0x40 MLOAD PUSH3 0x461BCD PUSH1 0xE5 SHL DUP2 MSTORE PUSH1 0x4 ADD PUSH2 0x100E SWAP1 PUSH2 0x3F2B JUMP JUMPDEST PUSH1 0x2 DUP1 SLOAD PUSH1 0x1 PUSH1 0x1 PUSH1 0xA0 SHL SUB NOT AND PUSH1 0x1 PUSH1 0x1 PUSH1 0xA0 SHL SUB SWAP3 SWAP1 SWAP3 AND SWAP2 SWAP1 SWAP2 OR SWAP1 SSTORE JUMP JUMPDEST PUSH1 0x1 SLOAD PUSH1 0x1 PUSH1 0x1 PUSH1 0xA0 SHL SUB AND CALLER EQ PUSH2 0x10A7 JUMPI PUSH1 0x40 MLOAD PUSH3 0x461BCD PUSH1 0xE5 SHL DUP2 MSTORE PUSH1 0x4 ADD PUSH2 0x100E SWAP1 PUSH2 0x3F2B JUMP JUMPDEST PUSH2 0x10B1 PUSH1 0x0 PUSH2 0x3365 JUMP JUMPDEST JUMP JUMPDEST PUSH1 0x0 JUMPDEST PUSH1 0x5 SLOAD DUP2 LT ISZERO PUSH2 0x1523 JUMPI DUP4 PUSH1 0x40 MLOAD PUSH1 0x20 ADD PUSH2 0x10D1 SWAP2 SWAP1 PUSH2 0x3F60 JUMP JUMPDEST PUSH1 0x40 MLOAD PUSH1 0x20 DUP2 DUP4 SUB SUB DUP2 MSTORE SWAP1 PUSH1 0x40 MSTORE DUP1 MLOAD SWAP1 PUSH1 0x20 ADD KECCAK256 PUSH1 0x5 DUP3 DUP2 SLOAD DUP2 LT PUSH2 0x10FA JUMPI PUSH2 0x10FA PUSH2 0x3E5B JUMP JUMPDEST SWAP1 PUSH1 0x0 MSTORE PUSH1 0x20 PUSH1 0x0 KECCAK256 SWAP1 PUSH1 0x3 MUL ADD PUSH1 0x1 ADD PUSH1 0x40 MLOAD PUSH1 0x20 ADD PUSH2 0x111B SWAP2 SWAP1 PUSH2 0x3FF0 JUMP JUMPDEST PUSH1 0x40 MLOAD PUSH1 0x20 DUP2 DUP4 SUB SUB DUP2 MSTORE SWAP1 PUSH1 0x40 MSTORE DUP1 MLOAD SWAP1 PUSH1 0x20 ADD KECCAK256 SUB PUSH2 0x151B JUMPI TIMESTAMP PUSH1 0x5 DUP3 DUP2 SLOAD DUP2 LT PUSH2 0x114A JUMPI PUSH2 0x114A PUSH2 0x3E5B JUMP JUMPDEST PUSH1 0x0 SWAP2 DUP3 MSTORE PUSH1 0x20 SWAP1 SWAP2 KECCAK256 PUSH1 0x3 SWAP1 SWAP2 MUL ADD PUSH1 0x2 ADD SLOAD PUSH1 0x1 PUSH1 0x50 SHL SWAP1 DIV PUSH5 0xFFFFFFFFFF AND GT DUP1 ISZERO SWAP1 PUSH2 0x11AE JUMPI POP PUSH1 0x5 DUP2 DUP2 SLOAD DUP2 LT PUSH2 0x1188 JUMPI PUSH2 0x1188 PUSH2 0x3E5B JUMP JUMPDEST PUSH1 0x0 SWAP2 DUP3 MSTORE PUSH1 0x20 SWAP1 SWAP2 KECCAK256 PUSH1 0x3 SWAP1 SWAP2 MUL ADD PUSH1 0x2 ADD SLOAD PUSH1 0x1 PUSH1 0x78 SHL SWAP1 DIV PUSH5 0xFFFFFFFFFF AND TIMESTAMP GT ISZERO JUMPDEST PUSH2 0x11F0 JUMPI PUSH1 0x40 MLOAD PUSH3 0x461BCD PUSH1 0xE5 SHL DUP2 MSTORE PUSH1 0x20 PUSH1 0x4 DUP3 ADD MSTORE PUSH1 0x13 PUSH1 0x24 DUP3 ADD MSTORE PUSH19 0x13DD5D1CDA5919481D1A5B59481C195C9A5BD9 PUSH1 0x6A SHL PUSH1 0x44 DUP3 ADD MSTORE PUSH1 0x64 ADD PUSH2 0x100E JUMP JUMPDEST PUSH1 0x0 PUSH1 0x40 MLOAD DUP1 PUSH2 0x140 ADD PUSH1 0x40 MSTORE DUP1 DUP7 DUP2 MSTORE PUSH1 0x20 ADD DUP5 PUSH5 0xFFFFFFFFFF AND DUP2 MSTORE PUSH1 0x20 ADD DUP6 DUP2 MSTORE PUSH1 0x20 ADD PUSH1 0x0 DUP1 SHL DUP2 MSTORE PUSH1 0x20 ADD PUSH1 0x5 DUP5 DUP2 SLOAD DUP2 LT PUSH2 0x1233 JUMPI PUSH2 0x1233 PUSH2 0x3E5B JUMP JUMPDEST SWAP1 PUSH1 0x0 MSTORE PUSH1 0x20 PUSH1 0x0 KECCAK256 SWAP1 PUSH1 0x3 MUL ADD PUSH1 0x2 ADD PUSH1 0x6 SWAP1 SLOAD SWAP1 PUSH2 0x100 EXP SWAP1 DIV PUSH1 0xFF AND PUSH1 0xFF AND DUP2 MSTORE PUSH1 0x20 ADD PUSH1 0x5 DUP5 DUP2 SLOAD DUP2 LT PUSH2 0x126D JUMPI PUSH2 0x126D PUSH2 0x3E5B JUMP JUMPDEST PUSH1 0x0 SWAP2 DUP3 MSTORE PUSH1 0x20 DUP1 DUP4 KECCAK256 PUSH1 0x3 SWAP3 SWAP1 SWAP3 MUL SWAP1 SWAP2 ADD PUSH1 0x2 ADD SLOAD PUSH1 0x1 PUSH1 0x38 SHL SWAP1 DIV PUSH3 0xFFFFFF AND DUP4 MSTORE DUP3 DUP2 ADD DUP3 SWAP1 MSTORE PUSH1 0x40 DUP1 DUP5 ADD DUP4 SWAP1 MSTORE PUSH1 0x60 DUP5 ADD DUP4 SWAP1 MSTORE PUSH1 0x80 SWAP1 SWAP4 ADD DUP3 SWAP1 MSTORE PUSH1 0xB SLOAD PUSH1 0x6 DUP1 SLOAD PUSH1 0x1 PUSH1 0x80 SHL SWAP1 DUP2 SWAP1 DIV PUSH1 0xF SIGNEXTEND DUP1 DUP7 MSTORE PUSH1 0x7 DUP6 MSTORE DUP7 DUP7 KECCAK256 DUP5 SWAP1 SSTORE DUP3 SLOAD PUSH1 0x1 PUSH1 0x1 PUSH1 0x80 SHL SUB SWAP1 DUP2 AND PUSH1 0x1 SWAP1 SWAP3 ADD AND SWAP1 SWAP2 MUL OR SWAP1 SSTORE DUP3 MSTORE PUSH1 0xA SWAP1 MSTORE KECCAK256 DUP2 MLOAD SWAP2 SWAP3 POP DUP3 SWAP2 DUP2 SWAP1 PUSH2 0x1302 SWAP1 DUP3 PUSH2 0x4052 JUMP JUMPDEST POP PUSH1 0x20 DUP3 ADD MLOAD PUSH1 0x1 DUP3 DUP2 ADD DUP1 SLOAD PUSH5 0xFFFFFFFFFF NOT AND PUSH5 0xFFFFFFFFFF SWAP4 DUP5 AND OR SWAP1 SSTORE PUSH1 0x40 DUP5 ADD MLOAD PUSH1 0x2 DUP5 ADD SSTORE PUSH1 0x60 DUP5 ADD MLOAD PUSH1 0x3 DUP5 ADD SSTORE PUSH1 0x80 DUP5 ADD MLOAD PUSH1 0x4 SWAP1 SWAP4 ADD DUP1 SLOAD PUSH1 0xA0 DUP7 ADD MLOAD PUSH1 0xC0 DUP8 ADD MLOAD PUSH1 0xE0 DUP9 ADD MLOAD PUSH2 0x100 DUP1 DUP11 ADD MLOAD PUSH2 0x120 SWAP1 SWAP11 ADD MLOAD PUSH1 0xFF SWAP1 SWAP10 AND PUSH4 0xFFFFFFFF NOT SWAP1 SWAP6 AND SWAP5 SWAP1 SWAP5 OR PUSH3 0xFFFFFF SWAP1 SWAP4 AND SWAP1 SWAP4 MUL SWAP2 SWAP1 SWAP2 OR PUSH5 0x100000000 PUSH1 0x1 PUSH1 0x80 SHL SUB NOT AND PUSH1 0x1 PUSH1 0x20 SHL PUSH1 0x1 PUSH1 0x1 PUSH1 0x50 SHL SUB SWAP1 SWAP3 AND SWAP2 SWAP1 SWAP2 MUL PUSH2 0xFFFF PUSH1 0x70 SHL NOT AND OR PUSH1 0x1 PUSH1 0x70 SHL PUSH2 0xFFFF SWAP3 DUP4 AND MUL OR PUSH7 0xFFFFFFFFFFFFFF PUSH1 0x80 SHL NOT AND PUSH1 0x1 PUSH1 0x80 SHL SWAP2 SWAP1 SWAP7 AND MUL PUSH5 0xFFFFFFFFFF PUSH1 0x90 SHL NOT AND SWAP5 SWAP1 SWAP5 OR PUSH1 0x1 PUSH1 0x90 SHL SWAP4 SWAP1 SWAP3 AND SWAP3 SWAP1 SWAP3 MUL OR SWAP1 SWAP2 SSTORE PUSH1 0xB DUP1 SLOAD PUSH1 0x0 SWAP1 PUSH2 0x1401 SWAP1 DUP5 SWAP1 PUSH2 0x4127 JUMP JUMPDEST SWAP1 SWAP2 SSTORE POP PUSH2 0x1414 SWAP1 POP TIMESTAMP PUSH3 0x15180 PUSH2 0x4127 JUMP JUMPDEST PUSH1 0x5 DUP4 DUP2 SLOAD DUP2 LT PUSH2 0x1427 JUMPI PUSH2 0x1427 PUSH2 0x3E5B JUMP JUMPDEST PUSH1 0x0 SWAP2 DUP3 MSTORE PUSH1 0x20 DUP1 DUP4 KECCAK256 PUSH5 0xFFFFFFFFFF DUP9 AND DUP5 MSTORE PUSH1 0x3 SWAP1 SWAP3 MUL SWAP1 SWAP2 ADD SWAP1 MSTORE PUSH1 0x40 SWAP1 KECCAK256 SSTORE PUSH1 0x5 DUP1 SLOAD PUSH1 0x1 SWAP2 SWAP1 DUP5 SWAP1 DUP2 LT PUSH2 0x1462 JUMPI PUSH2 0x1462 PUSH2 0x3E5B JUMP JUMPDEST SWAP1 PUSH1 0x0 MSTORE PUSH1 0x20 PUSH1 0x0 KECCAK256 SWAP1 PUSH1 0x3 MUL ADD PUSH1 0x2 ADD PUSH1 0x14 SWAP1 SLOAD SWAP1 PUSH2 0x100 EXP SWAP1 DIV PUSH2 0xFFFF AND PUSH2 0x148C SWAP2 SWAP1 PUSH2 0x413F JUMP JUMPDEST PUSH1 0x5 DUP4 DUP2 SLOAD DUP2 LT PUSH2 0x149F JUMPI PUSH2 0x149F PUSH2 0x3E5B JUMP JUMPDEST SWAP1 PUSH1 0x0 MSTORE PUSH1 0x20 PUSH1 0x0 KECCAK256 SWAP1 PUSH1 0x3 MUL ADD PUSH1 0x2 ADD PUSH1 0x14 PUSH2 0x100 EXP DUP2 SLOAD DUP2 PUSH2 0xFFFF MUL NOT AND SWAP1 DUP4 PUSH2 0xFFFF AND MUL OR SWAP1 SSTORE POP PUSH32 0xBCC1EA15519F3ACFB49E91DE851E553B2C024B9AB85CEE8FFD8FE4E4E0A7876D DUP4 PUSH1 0x1 PUSH1 0xB SLOAD PUSH2 0x14FB SWAP2 SWAP1 PUSH2 0x4162 JUMP JUMPDEST DUP8 TIMESTAMP PUSH1 0x40 MLOAD PUSH2 0x150D SWAP5 SWAP4 SWAP3 SWAP2 SWAP1 PUSH2 0x4179 JUMP JUMPDEST PUSH1 0x40 MLOAD DUP1 SWAP2 SUB SWAP1 LOG1 POP PUSH2 0x1523 JUMP JUMPDEST PUSH1 0x1 ADD PUSH2 0x10B6 JUMP JUMPDEST POP POP POP POP JUMP JUMPDEST PUSH1 0x0 PUSH1 0x9 SLOAD DUP3 LT PUSH2 0x156F JUMPI PUSH1 0x40 MLOAD PUSH3 0x461BCD PUSH1 0xE5 SHL DUP2 MSTORE PUSH1 0x20 PUSH1 0x4 DUP3 ADD MSTORE PUSH1 0x10 PUSH1 0x24 DUP3 ADD MSTORE PUSH16 0x1B9BC81CDD58DA081C1C9BDC1BDCD85B PUSH1 0x82 SHL PUSH1 0x44 DUP3 ADD MSTORE PUSH1 0x64 ADD PUSH2 0x100E JUMP JUMPDEST PUSH1 0x0 DUP3 DUP2 MSTORE PUSH1 0x8 PUSH1 0x20 MSTORE PUSH1 0x40 SWAP1 KECCAK256 PUSH1 0x3 ADD SLOAD PUSH1 0x1 PUSH1 0x50 SHL SWAP1 DIV PUSH5 0xFFFFFFFFFF AND TIMESTAMP GT PUSH2 0x15D3 JUMPI PUSH1 0x40 MLOAD PUSH3 0x461BCD PUSH1 0xE5 SHL DUP2 MSTORE PUSH1 0x20 PUSH1 0x4 DUP3 ADD MSTORE PUSH1 0x13 PUSH1 0x24 DUP3 ADD MSTORE PUSH19 0x766F74696E67207374696C6C20616374697665 PUSH1 0x68 SHL PUSH1 0x44 DUP3 ADD MSTORE PUSH1 0x64 ADD PUSH2 0x100E JUMP JUMPDEST PUSH1 0x0 DUP1 PUSH1 0x0 DUP1 JUMPDEST PUSH1 0x0 DUP7 DUP2 MSTORE PUSH1 0x8 PUSH1 0x20 MSTORE PUSH1 0x40 SWAP1 KECCAK256 PUSH1 0x1 ADD SLOAD PUSH2 0xFFFF AND DUP2 LT ISZERO PUSH2 0x1701 JUMPI DUP3 PUSH1 0x8 PUSH1 0x0 DUP9 DUP2 MSTORE PUSH1 0x20 ADD SWAP1 DUP2 MSTORE PUSH1 0x20 ADD PUSH1 0x0 KECCAK256 PUSH1 0x2 ADD DUP3 PUSH1 0x8 DUP2 LT PUSH2 0x161F JUMPI PUSH2 0x161F PUSH2 0x3E5B JUMP JUMPDEST PUSH1 0x10 SWAP2 DUP3 DUP3 DIV ADD SWAP2 SWAP1 MOD PUSH1 0x2 MUL SWAP1 SLOAD SWAP1 PUSH2 0x100 EXP SWAP1 DIV PUSH2 0xFFFF AND PUSH2 0xFFFF AND GT ISZERO PUSH2 0x169F JUMPI PUSH1 0x8 PUSH1 0x0 DUP8 DUP2 MSTORE PUSH1 0x20 ADD SWAP1 DUP2 MSTORE PUSH1 0x20 ADD PUSH1 0x0 KECCAK256 PUSH1 0x2 ADD DUP2 PUSH1 0x8 DUP2 LT PUSH2 0x166A JUMPI PUSH2 0x166A PUSH2 0x3E5B JUMP JUMPDEST PUSH1 0x10 SWAP2 DUP3 DUP3 DIV ADD SWAP2 SWAP1 MOD PUSH1 0x2 MUL SWAP1 SLOAD SWAP1 PUSH2 0x100 EXP SWAP1 DIV PUSH2 0xFFFF AND PUSH2 0xFFFF AND SWAP3 POP DUP1 SWAP4 POP DUP2 PUSH1 0x1 SUB PUSH2 0x169A JUMPI PUSH1 0x0 SWAP2 POP JUMPDEST PUSH2 0x16EF JUMP JUMPDEST DUP3 PUSH1 0x8 PUSH1 0x0 DUP9 DUP2 MSTORE PUSH1 0x20 ADD SWAP1 DUP2 MSTORE PUSH1 0x20 ADD PUSH1 0x0 KECCAK256 PUSH1 0x2 ADD DUP3 PUSH1 0x8 DUP2 LT PUSH2 0x16C7 JUMPI PUSH2 0x16C7 PUSH2 0x3E5B JUMP JUMPDEST PUSH1 0x10 SWAP2 DUP3 DUP3 DIV ADD SWAP2 SWAP1 MOD PUSH1 0x2 MUL SWAP1 SLOAD SWAP1 PUSH2 0x100 EXP SWAP1 DIV PUSH2 0xFFFF AND PUSH2 0xFFFF AND SUB PUSH2 0x16EF JUMPI PUSH1 0x1 SWAP2 POP JUMPDEST DUP1 PUSH2 0x16F9 DUP2 PUSH2 0x41B0 JUMP JUMPDEST SWAP2 POP POP PUSH2 0x15DA JUMP JUMPDEST POP DUP1 ISZERO PUSH2 0x1743 JUMPI PUSH1 0x40 MLOAD PUSH3 0x461BCD PUSH1 0xE5 SHL DUP2 MSTORE PUSH1 0x20 PUSH1 0x4 DUP3 ADD MSTORE PUSH1 0x10 PUSH1 0x24 DUP3 ADD MSTORE PUSH16 0x3A3432B932903BB0B99030903A34B297 PUSH1 0x81 SHL PUSH1 0x44 DUP3 ADD MSTORE PUSH1 0x64 ADD PUSH2 0x100E JUMP JUMPDEST POP SWAP1 SWAP4 SWAP3 POP POP POP JUMP JUMPDEST PUSH1 0x40 MLOAD PUSH3 0x461BCD PUSH1 0xE5 SHL DUP2 MSTORE PUSH1 0x20 PUSH1 0x4 DUP3 ADD MSTORE PUSH1 0xE PUSH1 0x24 DUP3 ADD MSTORE PUSH14 0x26BAB9BA1031329036B2B6B132B9 PUSH1 0x91 SHL PUSH1 0x44 DUP3 ADD MSTORE PUSH1 0x64 ADD PUSH2 0x100E JUMP JUMPDEST PUSH1 0xA PUSH1 0x20 MSTORE PUSH1 0x0 SWAP1 DUP2 MSTORE PUSH1 0x40 SWAP1 KECCAK256 DUP1 SLOAD DUP2 SWAP1 PUSH2 0x17A0 SWAP1 PUSH2 0x3E21 JUMP JUMPDEST DUP1 PUSH1 0x1F ADD PUSH1 0x20 DUP1 SWAP2 DIV MUL PUSH1 0x20 ADD PUSH1 0x40 MLOAD SWAP1 DUP2 ADD PUSH1 0x40 MSTORE DUP1 SWAP3 SWAP2 SWAP1 DUP2 DUP2 MSTORE PUSH1 0x20 ADD DUP3 DUP1 SLOAD PUSH2 0x17CC SWAP1 PUSH2 0x3E21 JUMP JUMPDEST DUP1 ISZERO PUSH2 0x1819 JUMPI DUP1 PUSH1 0x1F LT PUSH2 0x17EE JUMPI PUSH2 0x100 DUP1 DUP4 SLOAD DIV MUL DUP4 MSTORE SWAP2 PUSH1 0x20 ADD SWAP2 PUSH2 0x1819 JUMP JUMPDEST DUP3 ADD SWAP2 SWAP1 PUSH1 0x0 MSTORE PUSH1 0x20 PUSH1 0x0 KECCAK256 SWAP1 JUMPDEST DUP2 SLOAD DUP2 MSTORE SWAP1 PUSH1 0x1 ADD SWAP1 PUSH1 0x20 ADD DUP1 DUP4 GT PUSH2 0x17FC JUMPI DUP3 SWAP1 SUB PUSH1 0x1F AND DUP3 ADD SWAP2 JUMPDEST POP POP POP PUSH1 0x1 DUP5 ADD SLOAD PUSH1 0x2 DUP6 ADD SLOAD PUSH1 0x3 DUP7 ADD SLOAD PUSH1 0x4 SWAP1 SWAP7 ADD SLOAD SWAP5 SWAP6 PUSH5 0xFFFFFFFFFF SWAP3 DUP4 AND SWAP6 SWAP2 SWAP5 POP SWAP3 POP PUSH1 0xFF DUP2 AND SWAP2 PUSH3 0xFFFFFF PUSH2 0x100 DUP4 DIV AND SWAP2 PUSH1 0x1 PUSH1 0x1 PUSH1 0x50 SHL SUB PUSH1 0x1 PUSH1 0x20 SHL DUP3 DIV AND SWAP2 PUSH2 0xFFFF PUSH1 0x1 PUSH1 0x70 SHL DUP4 DIV DUP2 AND SWAP3 PUSH1 0x1 PUSH1 0x80 SHL DUP2 DIV SWAP1 SWAP2 AND SWAP2 PUSH1 0x1 PUSH1 0x90 SHL SWAP1 SWAP2 DIV AND DUP11 JUMP JUMPDEST PUSH2 0x188F PUSH2 0x3533 JUMP JUMPDEST PUSH1 0x0 DUP3 DUP2 MSTORE PUSH1 0xA PUSH1 0x20 MSTORE PUSH1 0x40 SWAP1 DUP2 SWAP1 KECCAK256 DUP2 MLOAD PUSH2 0x140 DUP2 ADD SWAP1 SWAP3 MSTORE DUP1 SLOAD DUP3 SWAP1 DUP3 SWAP1 PUSH2 0x18B8 SWAP1 PUSH2 0x3E21 JUMP JUMPDEST DUP1 PUSH1 0x1F ADD PUSH1 0x20 DUP1 SWAP2 DIV MUL PUSH1 0x20 ADD PUSH1 0x40 MLOAD SWAP1 DUP2 ADD PUSH1 0x40 MSTORE DUP1 SWAP3 SWAP2 SWAP1 DUP2 DUP2 MSTORE PUSH1 0x20 ADD DUP3 DUP1 SLOAD PUSH2 0x18E4 SWAP1 PUSH2 0x3E21 JUMP JUMPDEST DUP1 ISZERO PUSH2 0x1931 JUMPI DUP1 PUSH1 0x1F LT PUSH2 0x1906 JUMPI PUSH2 0x100 DUP1 DUP4 SLOAD DIV MUL DUP4 MSTORE SWAP2 PUSH1 0x20 ADD SWAP2 PUSH2 0x1931 JUMP JUMPDEST DUP3 ADD SWAP2 SWAP1 PUSH1 0x0 MSTORE PUSH1 0x20 PUSH1 0x0 KECCAK256 SWAP1 JUMPDEST DUP2 SLOAD DUP2 MSTORE SWAP1 PUSH1 0x1 ADD SWAP1 PUSH1 0x20 ADD DUP1 DUP4 GT PUSH2 0x1914 JUMPI DUP3 SWAP1 SUB PUSH1 0x1F AND DUP3 ADD SWAP2 JUMPDEST POP POP POP SWAP2 DUP4 MSTORE POP POP PUSH1 0x1 DUP3 ADD SLOAD PUSH5 0xFFFFFFFFFF SWAP1 DUP2 AND PUSH1 0x20 DUP4 ADD MSTORE PUSH1 0x2 DUP4 ADD SLOAD PUSH1 0x40 DUP4 ADD MSTORE PUSH1 0x3 DUP4 ADD SLOAD PUSH1 0x60 DUP4 ADD MSTORE PUSH1 0x4 SWAP1 SWAP3 ADD SLOAD PUSH1 0xFF DUP2 AND PUSH1 0x80 DUP4 ADD MSTORE PUSH2 0x100 DUP1 DUP3 DIV PUSH3 0xFFFFFF AND PUSH1 0xA0 DUP5 ADD MSTORE PUSH1 0x1 PUSH1 0x20 SHL DUP3 DIV PUSH1 0x1 PUSH1 0x1 PUSH1 0x50 SHL SUB AND PUSH1 0xC0 DUP5 ADD MSTORE PUSH1 0x1 PUSH1 0x70 SHL DUP3 DIV PUSH2 0xFFFF SWAP1 DUP2 AND PUSH1 0xE0 DUP6 ADD MSTORE PUSH1 0x1 PUSH1 0x80 SHL DUP4 DIV AND SWAP1 DUP4 ADD MSTORE PUSH1 0x1 PUSH1 0x90 SHL SWAP1 DIV SWAP1 SWAP2 AND PUSH2 0x120 SWAP1 SWAP2 ADD MSTORE SWAP3 SWAP2 POP POP JUMP JUMPDEST PUSH1 0x60 PUSH1 0x0 DUP1 JUMPDEST PUSH1 0x5 SLOAD DUP2 LT ISZERO PUSH2 0x1AE1 JUMPI TIMESTAMP PUSH1 0x5 DUP3 DUP2 SLOAD DUP2 LT PUSH2 0x19ED JUMPI PUSH2 0x19ED PUSH2 0x3E5B JUMP JUMPDEST PUSH1 0x0 SWAP2 DUP3 MSTORE PUSH1 0x20 DUP1 DUP4 KECCAK256 PUSH5 0xFFFFFFFFFF DUP10 AND DUP5 MSTORE PUSH1 0x3 SWAP1 SWAP3 MUL SWAP1 SWAP2 ADD SWAP1 MSTORE PUSH1 0x40 SWAP1 KECCAK256 SLOAD LT DUP1 ISZERO PUSH2 0x1A51 JUMPI POP TIMESTAMP PUSH1 0x5 DUP3 DUP2 SLOAD DUP2 LT PUSH2 0x1A2C JUMPI PUSH2 0x1A2C PUSH2 0x3E5B JUMP JUMPDEST PUSH1 0x0 SWAP2 DUP3 MSTORE PUSH1 0x20 SWAP1 SWAP2 KECCAK256 PUSH1 0x3 SWAP1 SWAP2 MUL ADD PUSH1 0x2 ADD SLOAD PUSH1 0x1 PUSH1 0x50 SHL SWAP1 DIV PUSH5 0xFFFFFFFFFF AND GT ISZERO JUMPDEST DUP1 ISZERO PUSH2 0x1A90 JUMPI POP TIMESTAMP PUSH1 0x5 DUP3 DUP2 SLOAD DUP2 LT PUSH2 0x1A6C JUMPI PUSH2 0x1A6C PUSH2 0x3E5B JUMP JUMPDEST PUSH1 0x0 SWAP2 DUP3 MSTORE PUSH1 0x20 SWAP1 SWAP2 KECCAK256 PUSH1 0x3 SWAP1 SWAP2 MUL ADD PUSH1 0x2 ADD SLOAD PUSH1 0x1 PUSH1 0x78 SHL SWAP1 DIV PUSH5 0xFFFFFFFFFF AND GT JUMPDEST DUP1 ISZERO PUSH2 0x1ACD JUMPI POP PUSH1 0x1 PUSH1 0x5 DUP3 DUP2 SLOAD DUP2 LT PUSH2 0x1AAC JUMPI PUSH2 0x1AAC PUSH2 0x3E5B JUMP JUMPDEST PUSH1 0x0 SWAP2 DUP3 MSTORE PUSH1 0x20 SWAP1 SWAP2 KECCAK256 PUSH1 0x3 SWAP1 SWAP2 MUL ADD PUSH1 0x2 ADD SLOAD PUSH1 0x1 PUSH1 0xA0 SHL SWAP1 DIV PUSH2 0xFFFF AND GT JUMPDEST ISZERO PUSH2 0x1AD9 JUMPI DUP2 PUSH1 0x1 ADD SWAP2 POP JUMPDEST PUSH1 0x1 ADD PUSH2 0x19CF JUMP JUMPDEST POP DUP1 PUSH1 0x0 SUB PUSH2 0x1B4D JUMPI PUSH1 0x40 DUP1 MLOAD PUSH1 0x1 DUP1 DUP3 MSTORE DUP2 DUP4 ADD SWAP1 SWAP3 MSTORE PUSH1 0x0 SWAP2 DUP2 PUSH1 0x20 ADD JUMPDEST PUSH1 0x60 DUP2 MSTORE PUSH1 0x20 ADD SWAP1 PUSH1 0x1 SWAP1 SUB SWAP1 DUP2 PUSH2 0x1B01 JUMPI SWAP1 POP POP SWAP1 POP PUSH1 0x40 MLOAD DUP1 PUSH1 0x20 ADD PUSH1 0x40 MSTORE DUP1 PUSH1 0x0 DUP2 MSTORE POP DUP2 PUSH1 0x0 DUP2 MLOAD DUP2 LT PUSH2 0x1B3B JUMPI PUSH2 0x1B3B PUSH2 0x3E5B JUMP JUMPDEST PUSH1 0x20 SWAP1 DUP2 MUL SWAP2 SWAP1 SWAP2 ADD ADD MSTORE SWAP4 SWAP3 POP POP POP JUMP JUMPDEST PUSH1 0x0 DUP2 PUSH1 0x1 PUSH1 0x1 PUSH1 0x40 SHL SUB DUP2 GT ISZERO PUSH2 0x1B67 JUMPI PUSH2 0x1B67 PUSH2 0x3686 JUMP JUMPDEST PUSH1 0x40 MLOAD SWAP1 DUP1 DUP3 MSTORE DUP1 PUSH1 0x20 MUL PUSH1 0x20 ADD DUP3 ADD PUSH1 0x40 MSTORE DUP1 ISZERO PUSH2 0x1B9A JUMPI DUP2 PUSH1 0x20 ADD JUMPDEST PUSH1 0x60 DUP2 MSTORE PUSH1 0x20 ADD SWAP1 PUSH1 0x1 SWAP1 SUB SWAP1 DUP2 PUSH2 0x1B85 JUMPI SWAP1 POP JUMPDEST POP SWAP1 POP PUSH1 0x0 DUP1 JUMPDEST PUSH1 0x5 SLOAD DUP2 LT ISZERO PUSH2 0x1D85 JUMPI TIMESTAMP PUSH1 0x5 DUP3 DUP2 SLOAD DUP2 LT PUSH2 0x1BBF JUMPI PUSH2 0x1BBF PUSH2 0x3E5B JUMP JUMPDEST PUSH1 0x0 SWAP2 DUP3 MSTORE PUSH1 0x20 DUP1 DUP4 KECCAK256 PUSH5 0xFFFFFFFFFF DUP12 AND DUP5 MSTORE PUSH1 0x3 SWAP1 SWAP3 MUL SWAP1 SWAP2 ADD SWAP1 MSTORE PUSH1 0x40 SWAP1 KECCAK256 SLOAD LT DUP1 ISZERO PUSH2 0x1C23 JUMPI POP TIMESTAMP PUSH1 0x5 DUP3 DUP2 SLOAD DUP2 LT PUSH2 0x1BFE JUMPI PUSH2 0x1BFE PUSH2 0x3E5B JUMP JUMPDEST PUSH1 0x0 SWAP2 DUP3 MSTORE PUSH1 0x20 SWAP1 SWAP2 KECCAK256 PUSH1 0x3 SWAP1 SWAP2 MUL ADD PUSH1 0x2 ADD SLOAD PUSH1 0x1 PUSH1 0x50 SHL SWAP1 DIV PUSH5 0xFFFFFFFFFF AND GT ISZERO JUMPDEST DUP1 ISZERO PUSH2 0x1C62 JUMPI POP TIMESTAMP PUSH1 0x5 DUP3 DUP2 SLOAD DUP2 LT PUSH2 0x1C3E JUMPI PUSH2 0x1C3E PUSH2 0x3E5B JUMP JUMPDEST PUSH1 0x0 SWAP2 DUP3 MSTORE PUSH1 0x20 SWAP1 SWAP2 KECCAK256 PUSH1 0x3 SWAP1 SWAP2 MUL ADD PUSH1 0x2 ADD SLOAD PUSH1 0x1 PUSH1 0x78 SHL SWAP1 DIV PUSH5 0xFFFFFFFFFF AND GT JUMPDEST DUP1 ISZERO PUSH2 0x1C9F JUMPI POP PUSH1 0x1 PUSH1 0x5 DUP3 DUP2 SLOAD DUP2 LT PUSH2 0x1C7E JUMPI PUSH2 0x1C7E PUSH2 0x3E5B JUMP JUMPDEST PUSH1 0x0 SWAP2 DUP3 MSTORE PUSH1 0x20 SWAP1 SWAP2 KECCAK256 PUSH1 0x3 SWAP1 SWAP2 MUL ADD PUSH1 0x2 ADD SLOAD PUSH1 0x1 PUSH1 0xA0 SHL SWAP1 DIV PUSH2 0xFFFF AND GT JUMPDEST ISZERO PUSH2 0x1D7D JUMPI PUSH1 0x5 DUP2 DUP2 SLOAD DUP2 LT PUSH2 0x1CB7 JUMPI PUSH2 0x1CB7 PUSH2 0x3E5B JUMP JUMPDEST SWAP1 PUSH1 0x0 MSTORE PUSH1 0x20 PUSH1 0x0 KECCAK256 SWAP1 PUSH1 0x3 MUL ADD PUSH1 0x1 ADD DUP1 SLOAD PUSH2 0x1CD3 SWAP1 PUSH2 0x3E21 JUMP JUMPDEST DUP1 PUSH1 0x1F ADD PUSH1 0x20 DUP1 SWAP2 DIV MUL PUSH1 0x20 ADD PUSH1 0x40 MLOAD SWAP1 DUP2 ADD PUSH1 0x40 MSTORE DUP1 SWAP3 SWAP2 SWAP1 DUP2 DUP2 MSTORE PUSH1 0x20 ADD DUP3 DUP1 SLOAD PUSH2 0x1CFF SWAP1 PUSH2 0x3E21 JUMP JUMPDEST DUP1 ISZERO PUSH2 0x1D4C JUMPI DUP1 PUSH1 0x1F LT PUSH2 0x1D21 JUMPI PUSH2 0x100 DUP1 DUP4 SLOAD DIV MUL DUP4 MSTORE SWAP2 PUSH1 0x20 ADD SWAP2 PUSH2 0x1D4C JUMP JUMPDEST DUP3 ADD SWAP2 SWAP1 PUSH1 0x0 MSTORE PUSH1 0x20 PUSH1 0x0 KECCAK256 SWAP1 JUMPDEST DUP2 SLOAD DUP2 MSTORE SWAP1 PUSH1 0x1 ADD SWAP1 PUSH1 0x20 ADD DUP1 DUP4 GT PUSH2 0x1D2F JUMPI DUP3 SWAP1 SUB PUSH1 0x1F AND DUP3 ADD SWAP2 JUMPDEST POP POP POP POP POP DUP4 DUP4 DUP2 MLOAD DUP2 LT PUSH2 0x1D63 JUMPI PUSH2 0x1D63 PUSH2 0x3E5B JUMP JUMPDEST PUSH1 0x20 MUL PUSH1 0x20 ADD ADD DUP2 SWAP1 MSTORE POP DUP2 PUSH1 0x1 ADD SWAP2 POP DUP4 DUP3 LT ISZERO PUSH2 0x1D85 JUMPI JUMPDEST PUSH1 0x1 ADD PUSH2 0x1BA1 JUMP JUMPDEST POP SWAP1 SWAP5 SWAP4 POP POP POP POP JUMP JUMPDEST PUSH2 0x1D97 PUSH2 0xA25 JUMP JUMPDEST PUSH2 0x1DDA JUMPI PUSH1 0x40 MLOAD PUSH3 0x461BCD PUSH1 0xE5 SHL DUP2 MSTORE PUSH1 0x20 PUSH1 0x4 DUP3 ADD MSTORE PUSH1 0x14 PUSH1 0x24 DUP3 ADD MSTORE PUSH20 0x135D5CDD081899481BDB881D1A1948189BD85C99 PUSH1 0x62 SHL PUSH1 0x44 DUP3 ADD MSTORE PUSH1 0x64 ADD PUSH2 0x100E JUMP JUMPDEST PUSH1 0x1 DUP6 PUSH2 0xFFFF AND GT DUP1 ISZERO PUSH2 0x1DF3 JUMPI POP PUSH2 0x101 DUP6 PUSH2 0xFFFF AND LT JUMPDEST PUSH2 0x1E3F JUMPI PUSH1 0x40 MLOAD PUSH3 0x461BCD PUSH1 0xE5 SHL DUP2 MSTORE PUSH1 0x20 PUSH1 0x4 DUP3 ADD MSTORE PUSH1 0x19 PUSH1 0x24 DUP3 ADD MSTORE PUSH32 0x696E76616C6964206E756D626572206F66206F7074696F6E7300000000000000 PUSH1 0x44 DUP3 ADD MSTORE PUSH1 0x64 ADD PUSH2 0x100E JUMP JUMPDEST PUSH1 0x1 PUSH1 0x9 PUSH1 0x0 DUP3 DUP3 SLOAD PUSH2 0x1E52 SWAP2 SWAP1 PUSH2 0x4127 JUMP JUMPDEST SWAP1 SWAP2 SSTORE POP POP PUSH1 0x9 SLOAD PUSH1 0x0 SWAP1 DUP2 MSTORE PUSH1 0x8 PUSH1 0x20 MSTORE PUSH1 0x40 SWAP1 KECCAK256 PUSH1 0x3 DUP2 ADD DUP1 SLOAD PUSH15 0xFFFFFFFFFFFFFFFFFFFF0000000000 NOT AND PUSH6 0x10000000000 PUSH5 0xFFFFFFFFFF DUP8 DUP2 AND SWAP2 SWAP1 SWAP2 MUL PUSH5 0xFFFFFFFFFF PUSH1 0x50 SHL NOT AND SWAP2 SWAP1 SWAP2 OR PUSH1 0x1 PUSH1 0x50 SHL SWAP2 DUP7 AND SWAP2 SWAP1 SWAP2 MUL OR SWAP1 SSTORE PUSH1 0x1 DUP2 ADD DUP1 SLOAD PUSH2 0xFFFF NOT AND PUSH2 0xFFFF DUP9 AND OR SWAP1 SSTORE DUP1 PUSH2 0x1ED1 DUP9 DUP11 DUP4 PUSH2 0x41C9 JUMP JUMPDEST POP PUSH2 0x1EE5 DUP9 DUP9 PUSH1 0x9 SLOAD PUSH1 0x0 DUP10 DUP10 DUP10 DUP10 PUSH2 0x31E6 JUMP JUMPDEST POP POP POP POP POP POP POP POP JUMP JUMPDEST PUSH1 0x0 PUSH2 0x1F0A PUSH1 0x6 SLOAD PUSH1 0xF DUP2 DUP2 SIGNEXTEND PUSH1 0x1 PUSH1 0x80 SHL SWAP1 SWAP3 DIV SWAP1 SIGNEXTEND SUB SWAP1 JUMP JUMPDEST SWAP1 POP PUSH2 0x1F14 PUSH2 0x3533 JUMP JUMPDEST PUSH1 0x0 DUP1 JUMPDEST DUP4 DUP2 LT ISZERO PUSH2 0x221F JUMPI PUSH2 0x1F2B PUSH1 0x6 DUP3 PUSH2 0x3175 JUMP JUMPDEST PUSH1 0x0 DUP2 DUP2 MSTORE PUSH1 0xA PUSH1 0x20 MSTORE PUSH1 0x40 SWAP1 DUP2 SWAP1 KECCAK256 DUP2 MLOAD PUSH2 0x140 DUP2 ADD SWAP1 SWAP3 MSTORE DUP1 SLOAD SWAP3 SWAP5 POP SWAP1 SWAP2 DUP3 SWAP1 DUP3 SWAP1 PUSH2 0x1F59 SWAP1 PUSH2 0x3E21 JUMP JUMPDEST DUP1 PUSH1 0x1F ADD PUSH1 0x20 DUP1 SWAP2 DIV MUL PUSH1 0x20 ADD PUSH1 0x40 MLOAD SWAP1 DUP2 ADD PUSH1 0x40 MSTORE DUP1 SWAP3 SWAP2 SWAP1 DUP2 DUP2 MSTORE PUSH1 0x20 ADD DUP3 DUP1 SLOAD PUSH2 0x1F85 SWAP1 PUSH2 0x3E21 JUMP JUMPDEST DUP1 ISZERO PUSH2 0x1FD2 JUMPI DUP1 PUSH1 0x1F LT PUSH2 0x1FA7 JUMPI PUSH2 0x100 DUP1 DUP4 SLOAD DIV MUL DUP4 MSTORE SWAP2 PUSH1 0x20 ADD SWAP2 PUSH2 0x1FD2 JUMP JUMPDEST DUP3 ADD SWAP2 SWAP1 PUSH1 0x0 MSTORE PUSH1 0x20 PUSH1 0x0 KECCAK256 SWAP1 JUMPDEST DUP2 SLOAD DUP2 MSTORE SWAP1 PUSH1 0x1 ADD SWAP1 PUSH1 0x20 ADD DUP1 DUP4 GT PUSH2 0x1FB5 JUMPI DUP3 SWAP1 SUB PUSH1 0x1F AND DUP3 ADD SWAP2 JUMPDEST POP POP POP SWAP2 DUP4 MSTORE POP POP PUSH1 0x1 DUP3 ADD SLOAD PUSH5 0xFFFFFFFFFF SWAP1 DUP2 AND PUSH1 0x20 DUP4 ADD MSTORE PUSH1 0x2 DUP4 ADD SLOAD PUSH1 0x40 DUP4 ADD MSTORE PUSH1 0x3 DUP4 ADD SLOAD PUSH1 0x60 DUP4 ADD MSTORE PUSH1 0x4 SWAP1 SWAP3 ADD SLOAD PUSH1 0xFF DUP2 AND PUSH1 0x80 DUP4 ADD MSTORE PUSH2 0x100 DUP1 DUP3 DIV PUSH3 0xFFFFFF AND PUSH1 0xA0 DUP5 ADD MSTORE PUSH1 0x1 PUSH1 0x20 SHL DUP3 DIV PUSH1 0x1 PUSH1 0x1 PUSH1 0x50 SHL SUB AND PUSH1 0xC0 DUP5 ADD MSTORE PUSH1 0x1 PUSH1 0x70 SHL DUP3 DIV PUSH2 0xFFFF SWAP1 DUP2 AND PUSH1 0xE0 DUP6 ADD MSTORE PUSH1 0x1 PUSH1 0x80 SHL DUP4 DIV AND SWAP1 DUP4 ADD MSTORE PUSH1 0x1 PUSH1 0x90 SHL SWAP1 DIV DUP3 AND PUSH2 0x120 SWAP2 DUP3 ADD MSTORE DUP3 ADD MLOAD SWAP2 SWAP5 POP TIMESTAMP SWAP2 AND LT DUP1 ISZERO PUSH2 0x2084 JUMPI POP DUP5 DUP4 PUSH1 0x20 ADD MLOAD PUSH5 0xFFFFFFFFFF AND EQ ISZERO JUMPDEST DUP1 ISZERO PUSH2 0x2099 JUMPI POP DUP5 DUP4 PUSH2 0x100 ADD MLOAD PUSH2 0xFFFF AND EQ ISZERO JUMPDEST ISZERO PUSH2 0x2217 JUMPI PUSH2 0xFFFF DUP6 AND PUSH1 0xE0 DUP5 ADD MSTORE PUSH1 0xC SLOAD PUSH2 0x20B5 SWAP1 TIMESTAMP PUSH2 0x4127 JUMP JUMPDEST PUSH5 0xFFFFFFFFFF AND PUSH2 0x120 DUP5 ADD MSTORE PUSH1 0x0 DUP3 DUP2 MSTORE PUSH1 0xA PUSH1 0x20 MSTORE PUSH1 0x40 SWAP1 KECCAK256 DUP4 MLOAD DUP5 SWAP2 SWAP1 DUP2 SWAP1 PUSH2 0x20E1 SWAP1 DUP3 PUSH2 0x4052 JUMP JUMPDEST POP PUSH1 0x20 DUP3 DUP2 ADD MLOAD PUSH1 0x1 DUP4 ADD DUP1 SLOAD PUSH5 0xFFFFFFFFFF NOT AND PUSH5 0xFFFFFFFFFF SWAP3 DUP4 AND OR SWAP1 SSTORE PUSH1 0x40 DUP1 DUP6 ADD MLOAD PUSH1 0x2 DUP6 ADD SSTORE PUSH1 0x60 DUP6 ADD MLOAD PUSH1 0x3 DUP6 ADD SSTORE PUSH1 0x80 DUP6 ADD MLOAD PUSH1 0x4 SWAP1 SWAP5 ADD DUP1 SLOAD PUSH1 0xA0 DUP8 ADD MLOAD PUSH1 0xC0 DUP9 ADD MLOAD PUSH1 0xE0 DUP10 ADD MLOAD PUSH2 0x100 DUP1 DUP12 ADD MLOAD PUSH2 0x120 SWAP1 SWAP12 ADD MLOAD PUSH1 0xFF SWAP1 SWAP11 AND PUSH4 0xFFFFFFFF NOT SWAP1 SWAP6 AND SWAP5 SWAP1 SWAP5 OR PUSH3 0xFFFFFF SWAP1 SWAP4 AND SWAP1 SWAP4 MUL SWAP2 SWAP1 SWAP2 OR PUSH5 0x100000000 PUSH1 0x1 PUSH1 0x80 SHL SUB NOT AND PUSH1 0x1 PUSH1 0x20 SHL PUSH1 0x1 PUSH1 0x1 PUSH1 0x50 SHL SUB SWAP1 SWAP3 AND SWAP2 SWAP1 SWAP2 MUL PUSH2 0xFFFF PUSH1 0x70 SHL NOT AND OR PUSH1 0x1 PUSH1 0x70 SHL PUSH2 0xFFFF SWAP3 DUP4 AND MUL OR PUSH7 0xFFFFFFFFFFFFFF PUSH1 0x80 SHL NOT AND PUSH1 0x1 PUSH1 0x80 SHL SWAP2 SWAP1 SWAP8 AND MUL PUSH5 0xFFFFFFFFFF PUSH1 0x90 SHL NOT AND SWAP6 SWAP1 SWAP6 OR PUSH1 0x1 PUSH1 0x90 SHL SWAP5 SWAP1 SWAP3 AND SWAP4 SWAP1 SWAP4 MUL OR SWAP1 SWAP3 SSTORE PUSH1 0x0 DUP5 DUP2 MSTORE PUSH1 0xA SWAP1 SWAP3 MSTORE SWAP1 DUP2 SWAP1 KECCAK256 SWAP1 MLOAD PUSH32 0xF20A22B1AA6D8BA4BF99C845FB1F02F4879BA83155BDE0F82F49CB58675DF268 SWAP2 PUSH2 0x220E SWAP2 DUP9 SWAP2 DUP7 SWAP2 PUSH2 0x4288 JUMP JUMPDEST PUSH1 0x40 MLOAD DUP1 SWAP2 SUB SWAP1 LOG1 JUMPDEST PUSH1 0x1 ADD PUSH2 0x1F18 JUMP JUMPDEST POP POP POP POP POP JUMP JUMPDEST PUSH1 0x2 SLOAD PUSH1 0x40 MLOAD PUSH4 0x31A9108F PUSH1 0xE1 SHL DUP2 MSTORE PUSH1 0x4 DUP2 ADD DUP6 SWAP1 MSTORE CALLER SWAP2 PUSH1 0x1 PUSH1 0x1 PUSH1 0xA0 SHL SUB AND SWAP1 PUSH4 0x6352211E SWAP1 PUSH1 0x24 ADD PUSH1 0x20 PUSH1 0x40 MLOAD DUP1 DUP4 SUB DUP2 DUP7 GAS STATICCALL ISZERO DUP1 ISZERO PUSH2 0x226F JUMPI RETURNDATASIZE PUSH1 0x0 DUP1 RETURNDATACOPY RETURNDATASIZE PUSH1 0x0 REVERT JUMPDEST POP POP POP POP PUSH1 0x40 MLOAD RETURNDATASIZE PUSH1 0x1F NOT PUSH1 0x1F DUP3 ADD AND DUP3 ADD DUP1 PUSH1 0x40 MSTORE POP DUP2 ADD SWAP1 PUSH2 0x2293 SWAP2 SWAP1 PUSH2 0x3ED8 JUMP JUMPDEST PUSH1 0x1 PUSH1 0x1 PUSH1 0xA0 SHL SUB AND EQ DUP1 ISZERO PUSH2 0x22C4 JUMPI POP PUSH1 0x0 DUP3 DUP2 MSTORE PUSH1 0xA PUSH1 0x20 MSTORE PUSH1 0x40 SWAP1 KECCAK256 PUSH1 0x4 ADD SLOAD PUSH1 0x1 PUSH1 0x70 SHL SWAP1 DIV PUSH2 0xFFFF AND DUP4 EQ JUMPDEST PUSH2 0x2310 JUMPI PUSH1 0x40 MLOAD PUSH3 0x461BCD PUSH1 0xE5 SHL DUP2 MSTORE PUSH1 0x20 PUSH1 0x4 DUP3 ADD DUP2 SWAP1 MSTORE PUSH1 0x24 DUP3 ADD MSTORE PUSH32 0x4D757374206265206F776E6572206F662061737369676E65642077697A617264 PUSH1 0x44 DUP3 ADD MSTORE PUSH1 0x64 ADD PUSH2 0x100E JUMP JUMPDEST PUSH1 0x0 DUP2 MLOAD GT PUSH2 0x231E JUMPI PUSH1 0x0 DUP1 REVERT JUMPDEST PUSH1 0x0 DUP3 DUP2 MSTORE PUSH1 0xA PUSH1 0x20 MSTORE PUSH1 0x40 DUP1 DUP3 KECCAK256 DUP2 MLOAD PUSH2 0x140 DUP2 ADD SWAP1 SWAP3 MSTORE DUP1 SLOAD DUP3 SWAP1 DUP3 SWAP1 PUSH2 0x2346 SWAP1 PUSH2 0x3E21 JUMP JUMPDEST DUP1 PUSH1 0x1F ADD PUSH1 0x20 DUP1 SWAP2 DIV MUL PUSH1 0x20 ADD PUSH1 0x40 MLOAD SWAP1 DUP2 ADD PUSH1 0x40 MSTORE DUP1 SWAP3 SWAP2 SWAP1 DUP2 DUP2 MSTORE PUSH1 0x20 ADD DUP3 DUP1 SLOAD PUSH2 0x2372 SWAP1 PUSH2 0x3E21 JUMP JUMPDEST DUP1 ISZERO PUSH2 0x23BF JUMPI DUP1 PUSH1 0x1F LT PUSH2 0x2394 JUMPI PUSH2 0x100 DUP1 DUP4 SLOAD DIV MUL DUP4 MSTORE SWAP2 PUSH1 0x20 ADD SWAP2 PUSH2 0x23BF JUMP JUMPDEST DUP3 ADD SWAP2 SWAP1 PUSH1 0x0 MSTORE PUSH1 0x20 PUSH1 0x0 KECCAK256 SWAP1 JUMPDEST DUP2 SLOAD DUP2 MSTORE SWAP1 PUSH1 0x1 ADD SWAP1 PUSH1 0x20 ADD DUP1 DUP4 GT PUSH2 0x23A2 JUMPI DUP3 SWAP1 SUB PUSH1 0x1F AND DUP3 ADD SWAP2 JUMPDEST POP POP POP SWAP2 DUP4 MSTORE POP POP PUSH1 0x1 DUP3 DUP2 ADD SLOAD PUSH5 0xFFFFFFFFFF SWAP1 DUP2 AND PUSH1 0x20 DUP5 ADD MSTORE PUSH1 0x2 DUP5 ADD SLOAD PUSH1 0x40 DUP5 ADD MSTORE PUSH1 0x3 DUP5 ADD SLOAD PUSH1 0x60 DUP5 ADD MSTORE PUSH1 0x4 SWAP1 SWAP4 ADD SLOAD PUSH1 0xFF DUP2 AND PUSH1 0x80 DUP5 ADD MSTORE PUSH2 0x100 DUP1 DUP3 DIV PUSH3 0xFFFFFF AND PUSH1 0xA0 DUP6 ADD MSTORE PUSH1 0x1 PUSH1 0x20 SHL DUP3 DIV PUSH1 0x1 PUSH1 0x1 PUSH1 0x50 SHL SUB AND PUSH1 0xC0 DUP6 ADD MSTORE PUSH1 0x1 PUSH1 0x70 SHL DUP3 DIV PUSH2 0xFFFF SWAP1 DUP2 AND PUSH1 0xE0 DUP7 ADD MSTORE PUSH1 0x1 PUSH1 0x80 SHL DUP4 DIV DUP2 AND DUP3 DUP7 ADD MSTORE PUSH1 0x1 PUSH1 0x90 SHL SWAP1 SWAP3 DIV SWAP1 SWAP5 AND PUSH2 0x120 SWAP1 SWAP4 ADD SWAP3 SWAP1 SWAP3 MSTORE SWAP2 DUP4 ADD MLOAD SWAP3 SWAP4 POP PUSH1 0x0 SWAP3 AND ISZERO PUSH2 0x24DC JUMPI PUSH1 0x0 JUMPDEST DUP5 MLOAD DUP2 LT ISZERO PUSH2 0x24DA JUMPI DUP5 DUP2 DUP2 MLOAD DUP2 LT PUSH2 0x2485 JUMPI PUSH2 0x2485 PUSH2 0x3E5B JUMP JUMPDEST PUSH1 0x20 MUL PUSH1 0x20 ADD ADD MLOAD PUSH1 0x40 MLOAD PUSH1 0x20 ADD PUSH2 0x249F SWAP2 DUP2 MSTORE PUSH1 0x20 ADD SWAP1 JUMP JUMPDEST PUSH1 0x40 MLOAD PUSH1 0x20 DUP2 DUP4 SUB SUB DUP2 MSTORE SWAP1 PUSH1 0x40 MSTORE DUP1 MLOAD SWAP1 PUSH1 0x20 ADD KECCAK256 DUP6 DUP3 DUP2 MLOAD DUP2 LT PUSH2 0x24C7 JUMPI PUSH2 0x24C7 PUSH2 0x3E5B JUMP JUMPDEST PUSH1 0x20 SWAP1 DUP2 MUL SWAP2 SWAP1 SWAP2 ADD ADD MSTORE PUSH1 0x1 ADD PUSH2 0x246A JUMP JUMPDEST POP JUMPDEST PUSH1 0x0 DUP5 PUSH1 0x40 MLOAD PUSH1 0x20 ADD PUSH2 0x24EF SWAP2 SWAP1 PUSH2 0x3E71 JUMP JUMPDEST PUSH1 0x40 MLOAD PUSH1 0x20 DUP2 DUP4 SUB SUB DUP2 MSTORE SWAP1 PUSH1 0x40 MSTORE DUP1 MLOAD SWAP1 PUSH1 0x20 ADD KECCAK256 SWAP1 POP PUSH1 0x0 DUP2 DUP6 PUSH1 0x40 ADD MLOAD EQ PUSH2 0x251B JUMPI PUSH1 0x0 PUSH2 0x251E JUMP JUMPDEST PUSH1 0x1 JUMPDEST PUSH1 0x20 DUP7 DUP2 ADD MLOAD PUSH1 0x40 DUP1 MLOAD DUP13 DUP2 MSTORE PUSH5 0xFFFFFFFFFF SWAP1 SWAP3 AND SWAP3 DUP3 ADD SWAP3 SWAP1 SWAP3 MSTORE SWAP1 DUP2 ADD DUP10 SWAP1 MSTORE PUSH1 0x60 DUP2 ADD DUP5 SWAP1 MSTORE PUSH1 0xFF SWAP2 SWAP1 SWAP2 AND PUSH1 0x1 DUP2 EQ PUSH1 0x80 DUP4 ADD MSTORE SWAP2 POP PUSH32 0xE3F0E138F100DEAF328BA1DEF71C39DADE8CD971BA0074D935EE648E54532FAE SWAP1 PUSH1 0xA0 ADD PUSH1 0x40 MLOAD DUP1 SWAP2 SUB SWAP1 LOG1 DUP1 PUSH1 0x1 SUB PUSH2 0x2841 JUMPI PUSH1 0x0 PUSH1 0x2 DUP7 PUSH1 0xC0 ADD MLOAD PUSH2 0x25A1 SWAP2 SWAP1 PUSH2 0x4353 JUMP JUMPDEST PUSH1 0x2 SLOAD PUSH1 0xE0 DUP9 ADD MLOAD PUSH1 0x40 MLOAD PUSH4 0x31A9108F PUSH1 0xE1 SHL DUP2 MSTORE PUSH2 0xFFFF SWAP1 SWAP2 AND PUSH1 0x4 DUP3 ADD MSTORE PUSH1 0x1 PUSH1 0x1 PUSH1 0x50 SHL SUB SWAP3 SWAP1 SWAP3 AND SWAP3 POP PUSH1 0x0 SWAP2 PUSH1 0x1 PUSH1 0x1 PUSH1 0xA0 SHL SUB SWAP1 SWAP2 AND SWAP1 PUSH4 0x6352211E SWAP1 PUSH1 0x24 ADD PUSH1 0x20 PUSH1 0x40 MLOAD DUP1 DUP4 SUB DUP2 DUP7 GAS STATICCALL ISZERO DUP1 ISZERO PUSH2 0x2604 JUMPI RETURNDATASIZE PUSH1 0x0 DUP1 RETURNDATACOPY RETURNDATASIZE PUSH1 0x0 REVERT JUMPDEST POP POP POP POP PUSH1 0x40 MLOAD RETURNDATASIZE PUSH1 0x1F NOT PUSH1 0x1F DUP3 ADD AND DUP3 ADD DUP1 PUSH1 0x40 MSTORE POP DUP2 ADD SWAP1 PUSH2 0x2628 SWAP2 SWAP1 PUSH2 0x3ED8 JUMP JUMPDEST PUSH1 0x2 SLOAD PUSH1 0x20 DUP10 ADD MLOAD PUSH1 0xA0 DUP11 ADD MLOAD PUSH1 0x40 MLOAD PUSH4 0x8AD4D6A5 PUSH1 0xE0 SHL DUP2 MSTORE PUSH5 0xFFFFFFFFFF SWAP1 SWAP3 AND PUSH1 0x4 DUP4 ADD MSTORE PUSH3 0xFFFFFF AND PUSH1 0x24 DUP3 ADD MSTORE SWAP2 SWAP3 POP PUSH1 0x1 PUSH1 0x1 PUSH1 0xA0 SHL SUB AND SWAP1 PUSH4 0x8AD4D6A5 SWAP1 PUSH1 0x44 ADD PUSH1 0x0 PUSH1 0x40 MLOAD DUP1 DUP4 SUB DUP2 PUSH1 0x0 DUP8 DUP1 EXTCODESIZE ISZERO DUP1 ISZERO PUSH2 0x268A JUMPI PUSH1 0x0 DUP1 REVERT JUMPDEST POP GAS CALL ISZERO DUP1 ISZERO PUSH2 0x269E JUMPI RETURNDATASIZE PUSH1 0x0 DUP1 RETURNDATACOPY RETURNDATASIZE PUSH1 0x0 REVERT JUMPDEST POP POP PUSH1 0x2 SLOAD PUSH1 0xE0 DUP11 ADD MLOAD PUSH1 0xD SLOAD PUSH1 0x40 MLOAD PUSH4 0x8AD4D6A5 PUSH1 0xE0 SHL DUP2 MSTORE PUSH2 0xFFFF SWAP1 SWAP3 AND PUSH1 0x4 DUP4 ADD MSTORE PUSH1 0x24 DUP3 ADD MSTORE PUSH1 0x1 PUSH1 0x1 PUSH1 0xA0 SHL SUB SWAP1 SWAP2 AND SWAP3 POP PUSH4 0x8AD4D6A5 SWAP2 POP PUSH1 0x44 ADD JUMPDEST PUSH1 0x0 PUSH1 0x40 MLOAD DUP1 DUP4 SUB DUP2 PUSH1 0x0 DUP8 DUP1 EXTCODESIZE ISZERO DUP1 ISZERO PUSH2 0x26FA JUMPI PUSH1 0x0 DUP1 REVERT JUMPDEST POP GAS CALL ISZERO DUP1 ISZERO PUSH2 0x270E JUMPI RETURNDATASIZE PUSH1 0x0 DUP1 RETURNDATACOPY RETURNDATASIZE PUSH1 0x0 REVERT JUMPDEST POP POP POP PUSH1 0x0 DUP11 DUP2 MSTORE PUSH1 0xA PUSH1 0x20 MSTORE PUSH1 0x40 DUP2 KECCAK256 SWAP2 POP PUSH2 0x272B DUP3 DUP3 PUSH2 0x3587 JUMP JUMPDEST POP PUSH1 0x1 DUP2 ADD DUP1 SLOAD PUSH5 0xFFFFFFFFFF NOT AND SWAP1 SSTORE PUSH1 0x0 PUSH1 0x2 DUP3 ADD DUP2 SWAP1 SSTORE PUSH1 0x3 DUP3 ADD DUP2 SWAP1 SSTORE PUSH1 0x4 SWAP1 SWAP2 ADD DUP1 SLOAD PUSH1 0x1 PUSH1 0x1 PUSH1 0xB8 SHL SUB NOT AND SWAP1 SSTORE PUSH1 0x40 MLOAD DUP2 SWAP1 PUSH1 0x1 PUSH1 0x1 PUSH1 0xA0 SHL SUB DUP5 AND SWAP1 DUP6 SWAP1 DUP4 DUP2 DUP2 DUP2 DUP6 DUP8 GAS CALL SWAP3 POP POP POP RETURNDATASIZE DUP1 PUSH1 0x0 DUP2 EQ PUSH2 0x27A9 JUMPI PUSH1 0x40 MLOAD SWAP2 POP PUSH1 0x1F NOT PUSH1 0x3F RETURNDATASIZE ADD AND DUP3 ADD PUSH1 0x40 MSTORE RETURNDATASIZE DUP3 MSTORE RETURNDATASIZE PUSH1 0x0 PUSH1 0x20 DUP5 ADD RETURNDATACOPY PUSH2 0x27AE JUMP JUMPDEST PUSH1 0x60 SWAP2 POP JUMPDEST POP SWAP2 POP SWAP2 POP DUP2 PUSH2 0x27D0 JUMPI PUSH1 0x40 MLOAD PUSH3 0x461BCD PUSH1 0xE5 SHL DUP2 MSTORE PUSH1 0x4 ADD PUSH2 0x100E SWAP1 PUSH2 0x4387 JUMP JUMPDEST PUSH1 0x40 MLOAD CALLER SWAP1 DUP6 SWAP1 PUSH1 0x0 DUP2 DUP2 DUP2 DUP6 DUP8 GAS CALL SWAP3 POP POP POP RETURNDATASIZE DUP1 PUSH1 0x0 DUP2 EQ PUSH2 0x2810 JUMPI PUSH1 0x40 MLOAD SWAP2 POP PUSH1 0x1F NOT PUSH1 0x3F RETURNDATASIZE ADD AND DUP3 ADD PUSH1 0x40 MSTORE RETURNDATASIZE DUP3 MSTORE RETURNDATASIZE PUSH1 0x0 PUSH1 0x20 DUP5 ADD RETURNDATACOPY PUSH2 0x2815 JUMP JUMPDEST PUSH1 0x60 SWAP2 POP JUMPDEST POP SWAP1 SWAP3 POP SWAP1 POP DUP2 PUSH2 0x2838 JUMPI PUSH1 0x40 MLOAD PUSH3 0x461BCD PUSH1 0xE5 SHL DUP2 MSTORE PUSH1 0x4 ADD PUSH2 0x100E SWAP1 PUSH2 0x4387 JUMP JUMPDEST POP POP POP POP PUSH2 0x2BAC JUMP JUMPDEST DUP5 PUSH2 0x100 ADD MLOAD PUSH2 0xFFFF AND PUSH1 0x0 SUB PUSH2 0x2973 JUMPI PUSH2 0xFFFF DUP9 AND PUSH2 0x100 DUP7 ADD MSTORE PUSH1 0x60 DUP6 ADD DUP3 SWAP1 MSTORE PUSH1 0x0 DUP8 DUP2 MSTORE PUSH1 0xA PUSH1 0x20 MSTORE PUSH1 0x40 SWAP1 KECCAK256 DUP6 MLOAD DUP7 SWAP2 SWAP1 DUP2 SWAP1 PUSH2 0x2883 SWAP1 DUP3 PUSH2 0x4052 JUMP JUMPDEST POP PUSH1 0x20 DUP3 ADD MLOAD PUSH1 0x1 DUP3 ADD DUP1 SLOAD PUSH5 0xFFFFFFFFFF NOT AND PUSH5 0xFFFFFFFFFF SWAP3 DUP4 AND OR SWAP1 SSTORE PUSH1 0x40 DUP4 ADD MLOAD PUSH1 0x2 DUP4 ADD SSTORE PUSH1 0x60 DUP4 ADD MLOAD PUSH1 0x3 DUP4 ADD SSTORE PUSH1 0x80 DUP4 ADD MLOAD PUSH1 0x4 SWAP1 SWAP3 ADD DUP1 SLOAD PUSH1 0xA0 DUP6 ADD MLOAD PUSH1 0xC0 DUP7 ADD MLOAD PUSH1 0xE0 DUP8 ADD MLOAD PUSH2 0x100 DUP1 DUP10 ADD MLOAD PUSH2 0x120 SWAP1 SWAP10 ADD MLOAD PUSH1 0xFF SWAP1 SWAP9 AND PUSH4 0xFFFFFFFF NOT SWAP1 SWAP6 AND SWAP5 SWAP1 SWAP5 OR PUSH3 0xFFFFFF SWAP1 SWAP4 AND SWAP1 SWAP4 MUL SWAP2 SWAP1 SWAP2 OR PUSH5 0x100000000 PUSH1 0x1 PUSH1 0x80 SHL SUB NOT AND PUSH1 0x1 PUSH1 0x20 SHL PUSH1 0x1 PUSH1 0x1 PUSH1 0x50 SHL SUB SWAP1 SWAP3 AND SWAP2 SWAP1 SWAP2 MUL PUSH2 0xFFFF PUSH1 0x70 SHL NOT AND OR PUSH1 0x1 PUSH1 0x70 SHL PUSH2 0xFFFF SWAP3 DUP4 AND MUL OR PUSH7 0xFFFFFFFFFFFFFF PUSH1 0x80 SHL NOT AND PUSH1 0x1 PUSH1 0x80 SHL SWAP2 SWAP1 SWAP6 AND MUL PUSH5 0xFFFFFFFFFF PUSH1 0x90 SHL NOT AND SWAP4 SWAP1 SWAP4 OR PUSH1 0x1 PUSH1 0x90 SHL SWAP3 SWAP1 SWAP2 AND SWAP2 SWAP1 SWAP2 MUL OR SWAP1 SSTORE PUSH1 0x0 SWAP3 POP JUMPDEST DUP2 DUP6 PUSH1 0x60 ADD MLOAD SUB PUSH2 0x2AC6 JUMPI PUSH1 0x0 PUSH1 0x2 DUP7 PUSH1 0xC0 ADD MLOAD PUSH2 0x2991 SWAP2 SWAP1 PUSH2 0x4353 JUMP JUMPDEST PUSH1 0x2 SLOAD PUSH2 0x100 DUP9 ADD MLOAD PUSH1 0x40 MLOAD PUSH4 0x31A9108F PUSH1 0xE1 SHL DUP2 MSTORE PUSH2 0xFFFF SWAP1 SWAP2 AND PUSH1 0x4 DUP3 ADD MSTORE PUSH1 0x1 PUSH1 0x1 PUSH1 0x50 SHL SUB SWAP3 SWAP1 SWAP3 AND SWAP3 POP PUSH1 0x0 SWAP2 PUSH1 0x1 PUSH1 0x1 PUSH1 0xA0 SHL SUB SWAP1 SWAP2 AND SWAP1 PUSH4 0x6352211E SWAP1 PUSH1 0x24 ADD PUSH1 0x20 PUSH1 0x40 MLOAD DUP1 DUP4 SUB DUP2 DUP7 GAS STATICCALL ISZERO DUP1 ISZERO PUSH2 0x29F5 JUMPI RETURNDATASIZE PUSH1 0x0 DUP1 RETURNDATACOPY RETURNDATASIZE PUSH1 0x0 REVERT JUMPDEST POP POP POP POP PUSH1 0x40 MLOAD RETURNDATASIZE PUSH1 0x1F NOT PUSH1 0x1F DUP3 ADD AND DUP3 ADD DUP1 PUSH1 0x40 MSTORE POP DUP2 ADD SWAP1 PUSH2 0x2A19 SWAP2 SWAP1 PUSH2 0x3ED8 JUMP JUMPDEST PUSH1 0x2 SLOAD PUSH2 0x100 DUP10 ADD MLOAD PUSH1 0xD SLOAD PUSH1 0x40 MLOAD PUSH4 0x8AD4D6A5 PUSH1 0xE0 SHL DUP2 MSTORE PUSH2 0xFFFF SWAP1 SWAP3 AND PUSH1 0x4 DUP4 ADD MSTORE PUSH1 0x24 DUP3 ADD MSTORE SWAP2 SWAP3 POP PUSH1 0x1 PUSH1 0x1 PUSH1 0xA0 SHL SUB AND SWAP1 PUSH4 0x8AD4D6A5 SWAP1 PUSH1 0x44 ADD PUSH1 0x0 PUSH1 0x40 MLOAD DUP1 DUP4 SUB DUP2 PUSH1 0x0 DUP8 DUP1 EXTCODESIZE ISZERO DUP1 ISZERO PUSH2 0x2A72 JUMPI PUSH1 0x0 DUP1 REVERT JUMPDEST POP GAS CALL ISZERO DUP1 ISZERO PUSH2 0x2A86 JUMPI RETURNDATASIZE PUSH1 0x0 DUP1 RETURNDATACOPY RETURNDATASIZE PUSH1 0x0 REVERT JUMPDEST POP POP PUSH1 0x2 SLOAD PUSH1 0xD SLOAD PUSH1 0x40 MLOAD PUSH4 0x8AD4D6A5 PUSH1 0xE0 SHL DUP2 MSTORE PUSH1 0x4 DUP2 ADD DUP16 SWAP1 MSTORE PUSH1 0x24 DUP2 ADD SWAP2 SWAP1 SWAP2 MSTORE PUSH1 0x1 PUSH1 0x1 PUSH1 0xA0 SHL SUB SWAP1 SWAP2 AND SWAP3 POP PUSH4 0x8AD4D6A5 SWAP2 POP PUSH1 0x44 ADD PUSH2 0x26E0 JUMP JUMPDEST PUSH1 0xC0 DUP6 ADD MLOAD PUSH1 0x0 DUP9 DUP2 MSTORE PUSH1 0xA PUSH1 0x20 MSTORE PUSH1 0x40 DUP2 KECCAK256 PUSH1 0x1 PUSH1 0x1 PUSH1 0x50 SHL SUB SWAP1 SWAP3 AND SWAP2 SWAP1 PUSH2 0x2AF0 DUP3 DUP3 PUSH2 0x3587 JUMP JUMPDEST POP PUSH1 0x1 DUP2 ADD DUP1 SLOAD PUSH5 0xFFFFFFFFFF NOT AND SWAP1 SSTORE PUSH1 0x0 PUSH1 0x2 DUP3 ADD DUP2 SWAP1 SSTORE PUSH1 0x3 DUP3 ADD DUP2 SWAP1 SSTORE PUSH1 0x4 SWAP1 SWAP2 ADD DUP1 SLOAD PUSH1 0x1 PUSH1 0x1 PUSH1 0xB8 SHL SUB NOT AND SWAP1 SSTORE DUP1 PUSH2 0x2B37 PUSH1 0x1 SLOAD PUSH1 0x1 PUSH1 0x1 PUSH1 0xA0 SHL SUB AND SWAP1 JUMP JUMPDEST PUSH1 0x1 PUSH1 0x1 PUSH1 0xA0 SHL SUB AND DUP4 PUSH1 0x40 MLOAD PUSH1 0x0 PUSH1 0x40 MLOAD DUP1 DUP4 SUB DUP2 DUP6 DUP8 GAS CALL SWAP3 POP POP POP RETURNDATASIZE DUP1 PUSH1 0x0 DUP2 EQ PUSH2 0x2B81 JUMPI PUSH1 0x40 MLOAD SWAP2 POP PUSH1 0x1F NOT PUSH1 0x3F RETURNDATASIZE ADD AND DUP3 ADD PUSH1 0x40 MSTORE RETURNDATASIZE DUP3 MSTORE RETURNDATASIZE PUSH1 0x0 PUSH1 0x20 DUP5 ADD RETURNDATACOPY PUSH2 0x2B86 JUMP JUMPDEST PUSH1 0x60 SWAP2 POP JUMPDEST POP SWAP2 POP SWAP2 POP DUP2 PUSH2 0x2BA8 JUMPI PUSH1 0x40 MLOAD PUSH3 0x461BCD PUSH1 0xE5 SHL DUP2 MSTORE PUSH1 0x4 ADD PUSH2 0x100E SWAP1 PUSH2 0x4387 JUMP JUMPDEST POP POP POP JUMPDEST DUP3 ISZERO PUSH2 0x1EE5 JUMPI PUSH1 0x0 PUSH2 0x2BCD PUSH1 0x6 SLOAD PUSH1 0xF DUP2 DUP2 SIGNEXTEND PUSH1 0x1 PUSH1 0x80 SHL SWAP1 SWAP3 DIV SWAP1 SIGNEXTEND SUB SWAP1 JUMP JUMPDEST SWAP1 POP PUSH1 0x0 JUMPDEST DUP2 DUP2 LT ISZERO PUSH2 0x2C37 JUMPI DUP9 PUSH2 0x2BE6 PUSH1 0x6 DUP4 PUSH2 0x3175 JUMP JUMPDEST SUB PUSH2 0x2C2F JUMPI PUSH1 0x0 PUSH2 0x2BF7 PUSH1 0x6 PUSH2 0x33B7 JUMP JUMPDEST SWAP1 POP DUP2 ISZERO PUSH2 0x2C2D JUMPI PUSH1 0x6 SLOAD DUP2 SWAP1 PUSH1 0x7 SWAP1 PUSH1 0x0 SWAP1 PUSH2 0x2C18 SWAP1 DUP7 SWAP1 PUSH1 0xF SIGNEXTEND PUSH2 0x43B5 JUMP JUMPDEST PUSH1 0xF SIGNEXTEND DUP2 MSTORE PUSH1 0x20 DUP2 ADD SWAP2 SWAP1 SWAP2 MSTORE PUSH1 0x40 ADD PUSH1 0x0 KECCAK256 SSTORE JUMPDEST POP JUMPDEST PUSH1 0x1 ADD PUSH2 0x2BD2 JUMP JUMPDEST POP POP POP POP POP POP POP POP POP POP JUMP JUMPDEST PUSH1 0x1 SLOAD PUSH1 0x1 PUSH1 0x1 PUSH1 0xA0 SHL SUB AND CALLER EQ PUSH2 0x2C6D JUMPI PUSH1 0x40 MLOAD PUSH3 0x461BCD PUSH1 0xE5 SHL DUP2 MSTORE PUSH1 0x4 ADD PUSH2 0x100E SWAP1 PUSH2 0x3F2B JUMP JUMPDEST PUSH1 0x1 PUSH1 0x1 PUSH1 0xA0 SHL SUB DUP2 AND PUSH2 0x2CD2 JUMPI PUSH1 0x40 MLOAD PUSH3 0x461BCD PUSH1 0xE5 SHL DUP2 MSTORE PUSH1 0x20 PUSH1 0x4 DUP3 ADD MSTORE PUSH1 0x26 PUSH1 0x24 DUP3 ADD MSTORE PUSH32 0x4F776E61626C653A206E6577206F776E657220697320746865207A65726F2061 PUSH1 0x44 DUP3 ADD MSTORE PUSH6 0x646472657373 PUSH1 0xD0 SHL PUSH1 0x64 DUP3 ADD MSTORE PUSH1 0x84 ADD PUSH2 0x100E JUMP JUMPDEST PUSH2 0x2CDB DUP2 PUSH2 0x3365 JUMP JUMPDEST POP JUMP JUMPDEST PUSH1 0x0 DUP1 PUSH2 0x2CFA PUSH1 0x6 SLOAD PUSH1 0xF DUP2 DUP2 SIGNEXTEND PUSH1 0x1 PUSH1 0x80 SHL SWAP1 SWAP3 DIV SWAP1 SIGNEXTEND SUB SWAP1 JUMP JUMPDEST SWAP1 POP PUSH2 0x2D04 PUSH2 0x3533 JUMP JUMPDEST PUSH1 0x0 JUMPDEST DUP3 DUP2 LT ISZERO PUSH2 0x2EA3 JUMPI PUSH1 0xA PUSH1 0x0 PUSH2 0x2D1E PUSH1 0x6 DUP5 PUSH2 0x3175 JUMP JUMPDEST PUSH1 0x0 SHR DUP2 MSTORE PUSH1 0x20 ADD SWAP1 DUP2 MSTORE PUSH1 0x20 ADD PUSH1 0x0 KECCAK256 PUSH1 0x40 MLOAD DUP1 PUSH2 0x140 ADD PUSH1 0x40 MSTORE SWAP1 DUP2 PUSH1 0x0 DUP3 ADD DUP1 SLOAD PUSH2 0x2D4B SWAP1 PUSH2 0x3E21 JUMP JUMPDEST DUP1 PUSH1 0x1F ADD PUSH1 0x20 DUP1 SWAP2 DIV MUL PUSH1 0x20 ADD PUSH1 0x40 MLOAD SWAP1 DUP2 ADD PUSH1 0x40 MSTORE DUP1 SWAP3 SWAP2 SWAP1 DUP2 DUP2 MSTORE PUSH1 0x20 ADD DUP3 DUP1 SLOAD PUSH2 0x2D77 SWAP1 PUSH2 0x3E21 JUMP JUMPDEST DUP1 ISZERO PUSH2 0x2DC4 JUMPI DUP1 PUSH1 0x1F LT PUSH2 0x2D99 JUMPI PUSH2 0x100 DUP1 DUP4 SLOAD DIV MUL DUP4 MSTORE SWAP2 PUSH1 0x20 ADD SWAP2 PUSH2 0x2DC4 JUMP JUMPDEST DUP3 ADD SWAP2 SWAP1 PUSH1 0x0 MSTORE PUSH1 0x20 PUSH1 0x0 KECCAK256 SWAP1 JUMPDEST DUP2 SLOAD DUP2 MSTORE SWAP1 PUSH1 0x1 ADD SWAP1 PUSH1 0x20 ADD DUP1 DUP4 GT PUSH2 0x2DA7 JUMPI DUP3 SWAP1 SUB PUSH1 0x1F AND DUP3 ADD SWAP2 JUMPDEST POP POP POP SWAP2 DUP4 MSTORE POP POP PUSH1 0x1 DUP3 ADD SLOAD PUSH5 0xFFFFFFFFFF SWAP1 DUP2 AND PUSH1 0x20 DUP4 ADD MSTORE PUSH1 0x2 DUP4 ADD SLOAD PUSH1 0x40 DUP4 ADD MSTORE PUSH1 0x3 DUP4 ADD SLOAD PUSH1 0x60 DUP4 ADD MSTORE PUSH1 0x4 SWAP1 SWAP3 ADD SLOAD PUSH1 0xFF DUP2 AND PUSH1 0x80 DUP4 ADD MSTORE PUSH2 0x100 DUP1 DUP3 DIV PUSH3 0xFFFFFF AND PUSH1 0xA0 DUP5 ADD MSTORE PUSH1 0x1 PUSH1 0x20 SHL DUP3 DIV PUSH1 0x1 PUSH1 0x1 PUSH1 0x50 SHL SUB AND PUSH1 0xC0 DUP5 ADD MSTORE PUSH1 0x1 PUSH1 0x70 SHL DUP3 DIV PUSH2 0xFFFF SWAP1 DUP2 AND PUSH1 0xE0 DUP6 ADD MSTORE PUSH1 0x1 PUSH1 0x80 SHL DUP4 DIV AND SWAP1 DUP4 ADD MSTORE PUSH1 0x1 PUSH1 0x90 SHL SWAP1 DIV DUP3 AND PUSH2 0x120 SWAP2 DUP3 ADD MSTORE DUP3 ADD MLOAD SWAP2 SWAP4 POP TIMESTAMP SWAP2 AND LT DUP1 ISZERO PUSH2 0x2E76 JUMPI POP DUP5 DUP3 PUSH1 0x20 ADD MLOAD PUSH5 0xFFFFFFFFFF AND EQ ISZERO JUMPDEST DUP1 ISZERO PUSH2 0x2E8B JUMPI POP DUP5 DUP3 PUSH2 0x100 ADD MLOAD PUSH2 0xFFFF AND EQ ISZERO JUMPDEST ISZERO PUSH2 0x2E9B JUMPI POP PUSH1 0x1 SWAP5 SWAP4 POP POP POP POP JUMP JUMPDEST PUSH1 0x1 ADD PUSH2 0x2D07 JUMP JUMPDEST POP PUSH1 0x0 SWAP5 SWAP4 POP POP POP POP JUMP JUMPDEST PUSH1 0x0 JUMPDEST PUSH1 0x5 SLOAD DUP2 LT ISZERO PUSH2 0x3047 JUMPI DUP2 PUSH1 0x40 MLOAD PUSH1 0x20 ADD PUSH2 0x2ECC SWAP2 SWAP1 PUSH2 0x43F6 JUMP JUMPDEST PUSH1 0x40 MLOAD PUSH1 0x20 DUP2 DUP4 SUB SUB DUP2 MSTORE SWAP1 PUSH1 0x40 MSTORE DUP1 MLOAD SWAP1 PUSH1 0x20 ADD KECCAK256 PUSH1 0x5 DUP3 DUP2 SLOAD DUP2 LT PUSH2 0x2EF5 JUMPI PUSH2 0x2EF5 PUSH2 0x3E5B JUMP JUMPDEST SWAP1 PUSH1 0x0 MSTORE PUSH1 0x20 PUSH1 0x0 KECCAK256 SWAP1 PUSH1 0x3 MUL ADD PUSH1 0x1 ADD PUSH1 0x40 MLOAD PUSH1 0x20 ADD PUSH2 0x2F16 SWAP2 SWAP1 PUSH2 0x4412 JUMP JUMPDEST PUSH1 0x40 MLOAD PUSH1 0x20 DUP2 DUP4 SUB SUB DUP2 MSTORE SWAP1 PUSH1 0x40 MSTORE DUP1 MLOAD SWAP1 PUSH1 0x20 ADD KECCAK256 SUB PUSH2 0x303F JUMPI PUSH1 0x0 PUSH1 0x5 DUP3 DUP2 SLOAD DUP2 LT PUSH2 0x2F46 JUMPI PUSH2 0x2F46 PUSH2 0x3E5B JUMP JUMPDEST SWAP1 PUSH1 0x0 MSTORE PUSH1 0x20 PUSH1 0x0 KECCAK256 SWAP1 PUSH1 0x3 MUL ADD SWAP1 POP PUSH1 0x0 PUSH1 0x5 PUSH1 0x1 PUSH1 0x5 DUP1 SLOAD SWAP1 POP PUSH2 0x2F6C SWAP2 SWAP1 PUSH2 0x4162 JUMP JUMPDEST DUP2 SLOAD DUP2 LT PUSH2 0x2F7C JUMPI PUSH2 0x2F7C PUSH2 0x3E5B JUMP JUMPDEST SWAP1 PUSH1 0x0 MSTORE PUSH1 0x20 PUSH1 0x0 KECCAK256 SWAP1 PUSH1 0x3 MUL ADD SWAP1 POP DUP1 SWAP2 POP PUSH1 0x5 PUSH1 0x1 PUSH1 0x5 DUP1 SLOAD SWAP1 POP PUSH2 0x2FA3 SWAP2 SWAP1 PUSH2 0x4162 JUMP JUMPDEST DUP2 SLOAD DUP2 LT PUSH2 0x2FB3 JUMPI PUSH2 0x2FB3 PUSH2 0x3E5B JUMP JUMPDEST SWAP1 PUSH1 0x0 MSTORE PUSH1 0x20 PUSH1 0x0 KECCAK256 SWAP1 PUSH1 0x3 MUL ADD PUSH1 0x0 PUSH1 0x1 DUP3 ADD PUSH1 0x0 PUSH2 0x2FD3 SWAP2 SWAP1 PUSH2 0x3587 JUMP JUMPDEST POP PUSH1 0x2 ADD DUP1 SLOAD PUSH1 0x1 PUSH1 0x1 PUSH1 0xB0 SHL SUB NOT AND SWAP1 SSTORE PUSH1 0x5 DUP1 SLOAD PUSH2 0x2FF5 SWAP1 PUSH1 0x1 SWAP1 PUSH2 0x4162 JUMP JUMPDEST DUP2 SLOAD DUP2 LT PUSH2 0x3005 JUMPI PUSH2 0x3005 PUSH2 0x3E5B JUMP JUMPDEST SWAP1 PUSH1 0x0 MSTORE PUSH1 0x20 PUSH1 0x0 KECCAK256 SWAP1 PUSH1 0x3 MUL ADD PUSH1 0x0 PUSH1 0x1 DUP3 ADD PUSH1 0x0 PUSH2 0x3025 SWAP2 SWAP1 PUSH2 0x3587 JUMP JUMPDEST POP PUSH1 0x2 ADD DUP1 SLOAD PUSH1 0x1 PUSH1 0x1 PUSH1 0xB0 SHL SUB NOT AND SWAP1 SSTORE POP PUSH2 0x3047 SWAP1 POP JUMP JUMPDEST PUSH1 0x1 ADD PUSH2 0x2EB1 JUMP JUMPDEST POP POP JUMP JUMPDEST PUSH1 0x60 PUSH1 0x9 SLOAD DUP3 LT PUSH2 0x3091 JUMPI PUSH1 0x40 MLOAD PUSH3 0x461BCD PUSH1 0xE5 SHL DUP2 MSTORE PUSH1 0x20 PUSH1 0x4 DUP3 ADD MSTORE PUSH1 0x10 PUSH1 0x24 DUP3 ADD MSTORE PUSH16 0x1B9BC81CDD58DA081C1C9BDC1BDCD85B PUSH1 0x82 SHL PUSH1 0x44 DUP3 ADD MSTORE PUSH1 0x64 ADD PUSH2 0x100E JUMP JUMPDEST PUSH1 0x0 DUP3 DUP2 MSTORE PUSH1 0x8 PUSH1 0x20 MSTORE PUSH1 0x40 DUP2 KECCAK256 PUSH1 0x1 ADD SLOAD PUSH2 0xFFFF AND PUSH1 0x1 PUSH1 0x1 PUSH1 0x40 SHL SUB DUP2 GT ISZERO PUSH2 0x30BE JUMPI PUSH2 0x30BE PUSH2 0x3686 JUMP JUMPDEST PUSH1 0x40 MLOAD SWAP1 DUP1 DUP3 MSTORE DUP1 PUSH1 0x20 MUL PUSH1 0x20 ADD DUP3 ADD PUSH1 0x40 MSTORE DUP1 ISZERO PUSH2 0x30E7 JUMPI DUP2 PUSH1 0x20 ADD PUSH1 0x20 DUP3 MUL DUP1 CALLDATASIZE DUP4 CALLDATACOPY ADD SWAP1 POP JUMPDEST POP SWAP1 POP PUSH1 0x0 JUMPDEST DUP2 MLOAD DUP2 LT ISZERO PUSH2 0x316E JUMPI PUSH1 0x8 PUSH1 0x0 DUP6 DUP2 MSTORE PUSH1 0x20 ADD SWAP1 DUP2 MSTORE PUSH1 0x20 ADD PUSH1 0x0 KECCAK256 PUSH1 0x2 ADD DUP2 PUSH1 0x8 DUP2 LT PUSH2 0x311D JUMPI PUSH2 0x311D PUSH2 0x3E5B JUMP JUMPDEST PUSH1 0x10 SWAP2 DUP3 DUP3 DIV ADD SWAP2 SWAP1 MOD PUSH1 0x2 MUL SWAP1 SLOAD SWAP1 PUSH2 0x100 EXP SWAP1 DIV PUSH2 0xFFFF AND DUP3 DUP3 DUP2 MLOAD DUP2 LT PUSH2 0x3149 JUMPI PUSH2 0x3149 PUSH2 0x3E5B JUMP JUMPDEST PUSH2 0xFFFF SWAP1 SWAP3 AND PUSH1 0x20 SWAP3 DUP4 MUL SWAP2 SWAP1 SWAP2 ADD SWAP1 SWAP2 ADD MSTORE DUP1 PUSH2 0x3166 DUP2 PUSH2 0x41B0 JUMP JUMPDEST SWAP2 POP POP PUSH2 0x30ED JUMP JUMPDEST POP SWAP3 SWAP2 POP POP JUMP JUMPDEST PUSH1 0x0 DUP1 PUSH2 0x3198 PUSH2 0x3184 DUP5 PUSH2 0x3436 JUMP JUMPDEST DUP6 SLOAD PUSH2 0x3193 SWAP2 SWAP1 PUSH1 0xF SIGNEXTEND PUSH2 0x43B5 JUMP JUMPDEST PUSH2 0x34A4 JUMP JUMPDEST DUP5 SLOAD SWAP1 SWAP2 POP PUSH1 0x1 PUSH1 0x80 SHL SWAP1 DIV PUSH1 0xF SWAP1 DUP2 SIGNEXTEND SWAP1 DUP3 SWAP1 SIGNEXTEND SLT PUSH2 0x31CB JUMPI PUSH1 0x40 MLOAD PUSH4 0x2D0483C5 PUSH1 0xE2 SHL DUP2 MSTORE PUSH1 0x4 ADD PUSH1 0x40 MLOAD DUP1 SWAP2 SUB SWAP1 REVERT JUMPDEST PUSH1 0xF SIGNEXTEND PUSH1 0x0 SWAP1 DUP2 MSTORE PUSH1 0x1 SWAP4 SWAP1 SWAP4 ADD PUSH1 0x20 MSTORE POP POP PUSH1 0x40 SWAP1 KECCAK256 SLOAD SWAP1 JUMP JUMPDEST PUSH1 0x5 DUP1 SLOAD PUSH1 0x1 DUP2 ADD DUP1 DUP4 SSTORE PUSH1 0x0 DUP4 DUP2 MSTORE SWAP2 SWAP3 SWAP1 DUP4 SWAP1 DUP2 LT PUSH2 0x3209 JUMPI PUSH2 0x3209 PUSH2 0x3E5B JUMP JUMPDEST PUSH1 0x0 SWAP2 DUP3 MSTORE PUSH1 0x20 SWAP1 SWAP2 KECCAK256 PUSH1 0x3 SWAP1 SWAP2 MUL ADD SWAP1 POP PUSH1 0x1 DUP2 ADD PUSH2 0x322A DUP11 DUP13 DUP4 PUSH2 0x41C9 JUMP JUMPDEST POP PUSH1 0x0 DUP2 PUSH1 0x2 ADD PUSH1 0x0 PUSH2 0x100 EXP DUP2 SLOAD DUP2 PUSH1 0xFF MUL NOT AND SWAP1 DUP4 ISZERO ISZERO MUL OR SWAP1 SSTORE POP DUP8 DUP2 PUSH1 0x2 ADD PUSH1 0x1 PUSH2 0x100 EXP DUP2 SLOAD DUP2 PUSH5 0xFFFFFFFFFF MUL NOT AND SWAP1 DUP4 PUSH5 0xFFFFFFFFFF AND MUL OR SWAP1 SSTORE POP DUP7 DUP2 PUSH1 0x2 ADD PUSH1 0x6 PUSH2 0x100 EXP DUP2 SLOAD DUP2 PUSH1 0xFF MUL NOT AND SWAP1 DUP4 PUSH1 0xFF AND MUL OR SWAP1 SSTORE POP DUP6 DUP2 PUSH1 0x2 ADD PUSH1 0x7 PUSH2 0x100 EXP DUP2 SLOAD DUP2 PUSH3 0xFFFFFF MUL NOT AND SWAP1 DUP4 PUSH3 0xFFFFFF AND MUL OR SWAP1 SSTORE POP DUP5 DUP2 PUSH1 0x2 ADD PUSH1 0xA PUSH2 0x100 EXP DUP2 SLOAD DUP2 PUSH5 0xFFFFFFFFFF MUL NOT AND SWAP1 DUP4 PUSH5 0xFFFFFFFFFF AND MUL OR SWAP1 SSTORE POP DUP4 DUP2 PUSH1 0x2 ADD PUSH1 0xF PUSH2 0x100 EXP DUP2 SLOAD DUP2 PUSH5 0xFFFFFFFFFF MUL NOT AND SWAP1 DUP4 PUSH5 0xFFFFFFFFFF AND MUL OR SWAP1 SSTORE POP DUP3 DUP2 PUSH1 0x2 ADD PUSH1 0x14 PUSH2 0x100 EXP DUP2 SLOAD DUP2 PUSH2 0xFFFF MUL NOT AND SWAP1 DUP4 PUSH2 0xFFFF AND MUL OR SWAP1 SSTORE POP PUSH32 0x2810025950962E3CD71FD98C2DC111FFBDB2A129B36771DF8D36A7DE2FE3E4E0 DUP11 DUP11 DUP11 DUP11 DUP11 DUP11 DUP11 DUP11 PUSH1 0x40 MLOAD PUSH2 0x3351 SWAP9 SWAP8 SWAP7 SWAP6 SWAP5 SWAP4 SWAP3 SWAP2 SWAP1 PUSH2 0x4484 JUMP JUMPDEST PUSH1 0x40 MLOAD DUP1 SWAP2 SUB SWAP1 LOG1 POP POP POP POP POP POP POP POP POP POP JUMP JUMPDEST PUSH1 0x1 DUP1 SLOAD PUSH1 0x1 PUSH1 0x1 PUSH1 0xA0 SHL SUB DUP4 DUP2 AND PUSH1 0x1 PUSH1 0x1 PUSH1 0xA0 SHL SUB NOT DUP4 AND DUP2 OR SWAP1 SWAP4 SSTORE PUSH1 0x40 MLOAD SWAP2 AND SWAP2 SWAP1 DUP3 SWAP1 PUSH32 0x8BE0079C531659141344CD1FD0A4F28419497F9722A3DAAFE3B4186F6B6457E0 SWAP1 PUSH1 0x0 SWAP1 LOG3 POP POP JUMP JUMPDEST PUSH1 0x0 PUSH2 0x33D2 DUP3 SLOAD PUSH1 0xF DUP2 DUP2 SIGNEXTEND PUSH1 0x1 PUSH1 0x80 SHL SWAP1 SWAP3 DIV SWAP1 SIGNEXTEND SGT ISZERO SWAP1 JUMP JUMPDEST ISZERO PUSH2 0x33F0 JUMPI PUSH1 0x40 MLOAD PUSH4 0x1ED95095 PUSH1 0xE1 SHL DUP2 MSTORE PUSH1 0x4 ADD PUSH1 0x40 MLOAD DUP1 SWAP2 SUB SWAP1 REVERT JUMPDEST POP DUP1 SLOAD PUSH1 0xF SIGNEXTEND PUSH1 0x0 DUP2 DUP2 MSTORE PUSH1 0x1 DUP1 DUP5 ADD PUSH1 0x20 MSTORE PUSH1 0x40 DUP3 KECCAK256 DUP1 SLOAD SWAP3 SWAP1 SSTORE DUP4 SLOAD PUSH16 0xFFFFFFFFFFFFFFFFFFFFFFFFFFFFFFFF NOT AND SWAP3 ADD PUSH1 0x1 PUSH1 0x1 PUSH1 0x80 SHL SUB AND SWAP2 SWAP1 SWAP2 OR SWAP1 SWAP2 SSTORE SWAP1 JUMP JUMPDEST PUSH1 0x0 PUSH1 0x1 PUSH1 0x1 PUSH1 0xFF SHL SUB DUP3 GT ISZERO PUSH2 0x34A0 JUMPI PUSH1 0x40 MLOAD PUSH3 0x461BCD PUSH1 0xE5 SHL DUP2 MSTORE PUSH1 0x20 PUSH1 0x4 DUP3 ADD MSTORE PUSH1 0x28 PUSH1 0x24 DUP3 ADD MSTORE PUSH32 0x53616665436173743A2076616C756520646F65736E27742066697420696E2061 PUSH1 0x44 DUP3 ADD MSTORE PUSH8 0x371034B73A191A9B PUSH1 0xC1 SHL PUSH1 0x64 DUP3 ADD MSTORE PUSH1 0x84 ADD PUSH2 0x100E JUMP JUMPDEST POP SWAP1 JUMP JUMPDEST PUSH1 0x0 PUSH16 0x7FFFFFFFFFFFFFFFFFFFFFFFFFFFFFFF NOT DUP3 SLT DUP1 ISZERO SWAP1 PUSH2 0x34D7 JUMPI POP PUSH16 0x7FFFFFFFFFFFFFFFFFFFFFFFFFFFFFFF DUP3 SGT ISZERO JUMPDEST PUSH2 0x34A0 JUMPI PUSH1 0x40 MLOAD PUSH3 0x461BCD PUSH1 0xE5 SHL DUP2 MSTORE PUSH1 0x20 PUSH1 0x4 DUP3 ADD MSTORE PUSH1 0x27 PUSH1 0x24 DUP3 ADD MSTORE PUSH32 0x53616665436173743A2076616C756520646F65736E27742066697420696E2031 PUSH1 0x44 DUP3 ADD MSTORE PUSH7 0x32382062697473 PUSH1 0xC8 SHL PUSH1 0x64 DUP3 ADD MSTORE PUSH1 0x84 ADD PUSH2 0x100E JUMP JUMPDEST PUSH1 0x40 DUP1 MLOAD PUSH2 0x140 DUP2 ADD DUP3 MSTORE PUSH1 0x60 DUP1 DUP3 MSTORE PUSH1 0x0 PUSH1 0x20 DUP4 ADD DUP2 SWAP1 MSTORE SWAP3 DUP3 ADD DUP4 SWAP1 MSTORE DUP2 ADD DUP3 SWAP1 MSTORE PUSH1 0x80 DUP2 ADD DUP3 SWAP1 MSTORE PUSH1 0xA0 DUP2 ADD DUP3 SWAP1 MSTORE PUSH1 0xC0 DUP2 ADD DUP3 SWAP1 MSTORE PUSH1 0xE0 DUP2 ADD DUP3 SWAP1 MSTORE PUSH2 0x100 DUP2 ADD DUP3 SWAP1 MSTORE PUSH2 0x120 DUP2 ADD SWAP2 SWAP1 SWAP2 MSTORE SWAP1 JUMP JUMPDEST POP DUP1 SLOAD PUSH2 0x3593 SWAP1 PUSH2 0x3E21 JUMP JUMPDEST PUSH1 0x0 DUP3 SSTORE DUP1 PUSH1 0x1F LT PUSH2 0x35A3 JUMPI POP POP JUMP JUMPDEST PUSH1 0x1F ADD PUSH1 0x20 SWAP1 DIV SWAP1 PUSH1 0x0 MSTORE PUSH1 0x20 PUSH1 0x0 KECCAK256 SWAP1 DUP2 ADD SWAP1 PUSH2 0x2CDB SWAP2 SWAP1 JUMPDEST DUP1 DUP3 GT ISZERO PUSH2 0x34A0 JUMPI PUSH1 0x0 DUP2 SSTORE PUSH1 0x1 ADD PUSH2 0x35BD JUMP JUMPDEST PUSH1 0x0 PUSH1 0x20 DUP3 DUP5 SUB SLT ISZERO PUSH2 0x35E3 JUMPI PUSH1 0x0 DUP1 REVERT JUMPDEST POP CALLDATALOAD SWAP2 SWAP1 POP JUMP JUMPDEST PUSH1 0x0 JUMPDEST DUP4 DUP2 LT ISZERO PUSH2 0x3605 JUMPI DUP2 DUP2 ADD MLOAD DUP4 DUP3 ADD MSTORE PUSH1 0x20 ADD PUSH2 0x35ED JUMP JUMPDEST DUP4 DUP2 GT ISZERO PUSH2 0x1523 JUMPI POP POP PUSH1 0x0 SWAP2 ADD MSTORE JUMP JUMPDEST PUSH1 0x0 DUP2 MLOAD DUP1 DUP5 MSTORE PUSH2 0x362E DUP2 PUSH1 0x20 DUP7 ADD PUSH1 0x20 DUP7 ADD PUSH2 0x35EA JUMP JUMPDEST PUSH1 0x1F ADD PUSH1 0x1F NOT AND SWAP3 SWAP1 SWAP3 ADD PUSH1 0x20 ADD SWAP3 SWAP2 POP POP JUMP JUMPDEST PUSH1 0xA0 DUP2 MSTORE PUSH1 0x0 PUSH2 0x3655 PUSH1 0xA0 DUP4 ADD DUP9 PUSH2 0x3616 JUMP JUMPDEST PUSH2 0xFFFF SWAP7 SWAP1 SWAP7 AND PUSH1 0x20 DUP4 ADD MSTORE POP PUSH5 0xFFFFFFFFFF SWAP4 DUP5 AND PUSH1 0x40 DUP3 ADD MSTORE SWAP2 DUP4 AND PUSH1 0x60 DUP4 ADD MSTORE SWAP1 SWAP2 AND PUSH1 0x80 SWAP1 SWAP2 ADD MSTORE SWAP2 SWAP1 POP JUMP JUMPDEST PUSH4 0x4E487B71 PUSH1 0xE0 SHL PUSH1 0x0 MSTORE PUSH1 0x41 PUSH1 0x4 MSTORE PUSH1 0x24 PUSH1 0x0 REVERT JUMPDEST PUSH1 0x40 MLOAD PUSH1 0x1F DUP3 ADD PUSH1 0x1F NOT AND DUP2 ADD PUSH1 0x1 PUSH1 0x1 PUSH1 0x40 SHL SUB DUP2 GT DUP3 DUP3 LT OR ISZERO PUSH2 0x36C4 JUMPI PUSH2 0x36C4 PUSH2 0x3686 JUMP JUMPDEST PUSH1 0x40 MSTORE SWAP2 SWAP1 POP JUMP JUMPDEST PUSH1 0x0 DUP3 PUSH1 0x1F DUP4 ADD SLT PUSH2 0x36DD JUMPI PUSH1 0x0 DUP1 REVERT JUMPDEST DUP2 CALLDATALOAD PUSH1 0x20 PUSH1 0x1 PUSH1 0x1 PUSH1 0x40 SHL SUB DUP3 GT ISZERO PUSH2 0x36F8 JUMPI PUSH2 0x36F8 PUSH2 0x3686 JUMP JUMPDEST DUP2 PUSH1 0x5 SHL PUSH2 0x3707 DUP3 DUP3 ADD PUSH2 0x369C JUMP JUMPDEST SWAP3 DUP4 MSTORE DUP5 DUP2 ADD DUP3 ADD SWAP3 DUP3 DUP2 ADD SWAP1 DUP8 DUP6 GT ISZERO PUSH2 0x3721 JUMPI PUSH1 0x0 DUP1 REVERT JUMPDEST DUP4 DUP8 ADD SWAP3 POP JUMPDEST DUP5 DUP4 LT ISZERO PUSH2 0x3740 JUMPI DUP3 CALLDATALOAD DUP3 MSTORE SWAP2 DUP4 ADD SWAP2 SWAP1 DUP4 ADD SWAP1 PUSH2 0x3727 JUMP JUMPDEST SWAP8 SWAP7 POP POP POP POP POP POP POP JUMP JUMPDEST DUP1 ISZERO ISZERO DUP2 EQ PUSH2 0x2CDB JUMPI PUSH1 0x0 DUP1 REVERT JUMPDEST PUSH1 0x0 DUP1 PUSH1 0x0 PUSH1 0x60 DUP5 DUP7 SUB SLT ISZERO PUSH2 0x376E JUMPI PUSH1 0x0 DUP1 REVERT JUMPDEST DUP4 CALLDATALOAD SWAP3 POP PUSH1 0x20 DUP5 ADD CALLDATALOAD PUSH1 0x1 PUSH1 0x1 PUSH1 0x40 SHL SUB DUP2 GT ISZERO PUSH2 0x378B JUMPI PUSH1 0x0 DUP1 REVERT JUMPDEST PUSH2 0x3797 DUP7 DUP3 DUP8 ADD PUSH2 0x36CC JUMP JUMPDEST SWAP3 POP POP PUSH1 0x40 DUP5 ADD CALLDATALOAD PUSH2 0x37A8 DUP2 PUSH2 0x374B JUMP JUMPDEST DUP1 SWAP2 POP POP SWAP3 POP SWAP3 POP SWAP3 JUMP JUMPDEST PUSH1 0x0 PUSH2 0x100 DUP1 DUP4 MSTORE PUSH2 0x37C7 DUP2 DUP5 ADD DUP13 PUSH2 0x3616 JUMP JUMPDEST SWAP10 ISZERO ISZERO PUSH1 0x20 DUP5 ADD MSTORE POP POP PUSH5 0xFFFFFFFFFF SWAP7 DUP8 AND PUSH1 0x40 DUP3 ADD MSTORE PUSH1 0xFF SWAP6 SWAP1 SWAP6 AND PUSH1 0x60 DUP7 ADD MSTORE PUSH3 0xFFFFFF SWAP4 SWAP1 SWAP4 AND PUSH1 0x80 DUP6 ADD MSTORE SWAP1 DUP5 AND PUSH1 0xA0 DUP5 ADD MSTORE SWAP1 SWAP3 AND PUSH1 0xC0 DUP3 ADD MSTORE PUSH2 0xFFFF SWAP1 SWAP2 AND PUSH1 0xE0 SWAP1 SWAP2 ADD MSTORE SWAP2 SWAP1 POP JUMP JUMPDEST DUP1 CALLDATALOAD PUSH5 0xFFFFFFFFFF DUP2 AND DUP2 EQ PUSH2 0x382D JUMPI PUSH1 0x0 DUP1 REVERT JUMPDEST SWAP2 SWAP1 POP JUMP JUMPDEST PUSH1 0x0 PUSH1 0x20 DUP3 DUP5 SUB SLT ISZERO PUSH2 0x3844 JUMPI PUSH1 0x0 DUP1 REVERT JUMPDEST PUSH2 0x384D DUP3 PUSH2 0x3818 JUMP JUMPDEST SWAP4 SWAP3 POP POP POP JUMP JUMPDEST PUSH1 0x0 PUSH2 0x140 DUP3 MLOAD DUP2 DUP6 MSTORE PUSH2 0x386A DUP3 DUP7 ADD DUP3 PUSH2 0x3616 JUMP JUMPDEST SWAP2 POP POP PUSH1 0x20 DUP4 ADD MLOAD PUSH2 0x3885 PUSH1 0x20 DUP7 ADD DUP3 PUSH5 0xFFFFFFFFFF AND SWAP1 MSTORE JUMP JUMPDEST POP PUSH1 0x40 DUP4 ADD MLOAD PUSH1 0x40 DUP6 ADD MSTORE PUSH1 0x60 DUP4 ADD MLOAD PUSH1 0x60 DUP6 ADD MSTORE PUSH1 0x80 DUP4 ADD MLOAD PUSH2 0x38AE PUSH1 0x80 DUP7 ADD DUP3 PUSH1 0xFF AND SWAP1 MSTORE JUMP JUMPDEST POP PUSH1 0xA0 DUP4 ADD MLOAD PUSH2 0x38C5 PUSH1 0xA0 DUP7 ADD DUP3 PUSH3 0xFFFFFF AND SWAP1 MSTORE JUMP JUMPDEST POP PUSH1 0xC0 DUP4 ADD MLOAD PUSH2 0x38E0 PUSH1 0xC0 DUP7 ADD DUP3 PUSH1 0x1 PUSH1 0x1 PUSH1 0x50 SHL SUB AND SWAP1 MSTORE JUMP JUMPDEST POP PUSH1 0xE0 DUP4 ADD MLOAD PUSH2 0x38F6 PUSH1 0xE0 DUP7 ADD DUP3 PUSH2 0xFFFF AND SWAP1 MSTORE JUMP JUMPDEST POP PUSH2 0x100 DUP4 DUP2 ADD MLOAD PUSH2 0xFFFF AND SWAP1 DUP6 ADD MSTORE PUSH2 0x120 DUP1 DUP5 ADD MLOAD PUSH5 0xFFFFFFFFFF DUP2 AND DUP3 DUP8 ADD MSTORE PUSH2 0x1D85 JUMP JUMPDEST PUSH1 0x0 PUSH1 0x40 DUP3 ADD PUSH1 0x40 DUP4 MSTORE DUP1 DUP6 MLOAD DUP1 DUP4 MSTORE PUSH1 0x60 DUP6 ADD SWAP2 POP PUSH1 0x60 DUP2 PUSH1 0x5 SHL DUP7 ADD ADD SWAP3 POP PUSH1 0x20 DUP1 DUP9 ADD PUSH1 0x0 JUMPDEST DUP4 DUP2 LT ISZERO PUSH2 0x3975 JUMPI PUSH1 0x5F NOT DUP9 DUP8 SUB ADD DUP6 MSTORE PUSH2 0x3963 DUP7 DUP4 MLOAD PUSH2 0x3854 JUMP JUMPDEST SWAP6 POP SWAP4 DUP3 ADD SWAP4 SWAP1 DUP3 ADD SWAP1 PUSH1 0x1 ADD PUSH2 0x3947 JUMP JUMPDEST POP POP DUP6 DUP5 SUB DUP2 DUP8 ADD MSTORE DUP7 MLOAD DUP1 DUP6 MSTORE DUP8 DUP3 ADD SWAP5 DUP3 ADD SWAP4 POP SWAP2 POP PUSH1 0x0 JUMPDEST DUP3 DUP2 LT ISZERO PUSH2 0x39AC JUMPI DUP5 MLOAD DUP5 MSTORE SWAP4 DUP2 ADD SWAP4 SWAP3 DUP2 ADD SWAP3 PUSH1 0x1 ADD PUSH2 0x3990 JUMP JUMPDEST POP SWAP2 SWAP8 SWAP7 POP POP POP POP POP POP POP JUMP JUMPDEST PUSH1 0x0 DUP1 DUP4 PUSH1 0x1F DUP5 ADD SLT PUSH2 0x39CB JUMPI PUSH1 0x0 DUP1 REVERT JUMPDEST POP DUP2 CALLDATALOAD PUSH1 0x1 PUSH1 0x1 PUSH1 0x40 SHL SUB DUP2 GT ISZERO PUSH2 0x39E2 JUMPI PUSH1 0x0 DUP1 REVERT JUMPDEST PUSH1 0x20 DUP4 ADD SWAP2 POP DUP4 PUSH1 0x20 DUP3 DUP6 ADD ADD GT ISZERO PUSH2 0x39FA JUMPI PUSH1 0x0 DUP1 REVERT JUMPDEST SWAP3 POP SWAP3 SWAP1 POP JUMP JUMPDEST DUP1 CALLDATALOAD PUSH3 0xFFFFFF DUP2 AND DUP2 EQ PUSH2 0x382D JUMPI PUSH1 0x0 DUP1 REVERT JUMPDEST DUP1 CALLDATALOAD PUSH2 0xFFFF DUP2 AND DUP2 EQ PUSH2 0x382D JUMPI PUSH1 0x0 DUP1 REVERT JUMPDEST PUSH1 0x0 DUP1 PUSH1 0x0 DUP1 PUSH1 0x0 DUP1 PUSH1 0x0 PUSH1 0xC0 DUP9 DUP11 SUB SLT ISZERO PUSH2 0x3A41 JUMPI PUSH1 0x0 DUP1 REVERT JUMPDEST DUP8 CALLDATALOAD PUSH1 0x1 PUSH1 0x1 PUSH1 0x40 SHL SUB DUP2 GT ISZERO PUSH2 0x3A57 JUMPI PUSH1 0x0 DUP1 REVERT JUMPDEST PUSH2 0x3A63 DUP11 DUP3 DUP12 ADD PUSH2 0x39B9 JUMP JUMPDEST SWAP1 SWAP9 POP SWAP7 POP POP PUSH1 0x20 DUP9 ADD CALLDATALOAD PUSH1 0xFF DUP2 AND DUP2 EQ PUSH2 0x3A7D JUMPI PUSH1 0x0 DUP1 REVERT JUMPDEST SWAP5 POP PUSH2 0x3A8B PUSH1 0x40 DUP10 ADD PUSH2 0x3A01 JUMP JUMPDEST SWAP4 POP PUSH2 0x3A99 PUSH1 0x60 DUP10 ADD PUSH2 0x3818 JUMP JUMPDEST SWAP3 POP PUSH2 0x3AA7 PUSH1 0x80 DUP10 ADD PUSH2 0x3818 JUMP JUMPDEST SWAP2 POP PUSH2 0x3AB5 PUSH1 0xA0 DUP10 ADD PUSH2 0x3A14 JUMP JUMPDEST SWAP1 POP SWAP3 SWAP6 SWAP9 SWAP2 SWAP5 SWAP8 POP SWAP3 SWAP6 POP JUMP JUMPDEST PUSH1 0x0 DUP1 PUSH1 0x40 DUP4 DUP6 SUB SLT ISZERO PUSH2 0x3AD6 JUMPI PUSH1 0x0 DUP1 REVERT JUMPDEST POP POP DUP1 CALLDATALOAD SWAP3 PUSH1 0x20 SWAP1 SWAP2 ADD CALLDATALOAD SWAP2 POP JUMP JUMPDEST PUSH1 0x1 PUSH1 0x1 PUSH1 0xA0 SHL SUB DUP2 AND DUP2 EQ PUSH2 0x2CDB JUMPI PUSH1 0x0 DUP1 REVERT JUMPDEST PUSH1 0x0 PUSH1 0x20 DUP3 DUP5 SUB SLT ISZERO PUSH2 0x3B0C JUMPI PUSH1 0x0 DUP1 REVERT JUMPDEST DUP2 CALLDATALOAD PUSH2 0x384D DUP2 PUSH2 0x3AE5 JUMP JUMPDEST PUSH1 0x0 DUP3 PUSH1 0x1F DUP4 ADD SLT PUSH2 0x3B28 JUMPI PUSH1 0x0 DUP1 REVERT JUMPDEST DUP2 CALLDATALOAD PUSH1 0x1 PUSH1 0x1 PUSH1 0x40 SHL SUB DUP2 GT ISZERO PUSH2 0x3B41 JUMPI PUSH2 0x3B41 PUSH2 0x3686 JUMP JUMPDEST PUSH2 0x3B54 PUSH1 0x1F DUP3 ADD PUSH1 0x1F NOT AND PUSH1 0x20 ADD PUSH2 0x369C JUMP JUMPDEST DUP2 DUP2 MSTORE DUP5 PUSH1 0x20 DUP4 DUP7 ADD ADD GT ISZERO PUSH2 0x3B69 JUMPI PUSH1 0x0 DUP1 REVERT JUMPDEST DUP2 PUSH1 0x20 DUP6 ADD PUSH1 0x20 DUP4 ADD CALLDATACOPY PUSH1 0x0 SWAP2 DUP2 ADD PUSH1 0x20 ADD SWAP2 SWAP1 SWAP2 MSTORE SWAP4 SWAP3 POP POP POP JUMP JUMPDEST PUSH1 0x0 DUP1 PUSH1 0x0 PUSH1 0x60 DUP5 DUP7 SUB SLT ISZERO PUSH2 0x3B9B JUMPI PUSH1 0x0 DUP1 REVERT JUMPDEST DUP4 CALLDATALOAD PUSH1 0x1 PUSH1 0x1 PUSH1 0x40 SHL SUB DUP2 GT ISZERO PUSH2 0x3BB1 JUMPI PUSH1 0x0 DUP1 REVERT JUMPDEST PUSH2 0x3BBD DUP7 DUP3 DUP8 ADD PUSH2 0x3B17 JUMP JUMPDEST SWAP4 POP POP PUSH1 0x20 DUP5 ADD CALLDATALOAD SWAP2 POP PUSH2 0x3BD3 PUSH1 0x40 DUP6 ADD PUSH2 0x3818 JUMP JUMPDEST SWAP1 POP SWAP3 POP SWAP3 POP SWAP3 JUMP JUMPDEST PUSH1 0x0 DUP1 PUSH1 0x0 PUSH1 0x60 DUP5 DUP7 SUB SLT ISZERO PUSH2 0x3BF1 JUMPI PUSH1 0x0 DUP1 REVERT JUMPDEST POP POP DUP2 CALLDATALOAD SWAP4 PUSH1 0x20 DUP4 ADD CALLDATALOAD SWAP4 POP PUSH1 0x40 SWAP1 SWAP3 ADD CALLDATALOAD SWAP2 SWAP1 POP JUMP JUMPDEST PUSH1 0x0 PUSH2 0x140 DUP1 DUP4 MSTORE PUSH2 0x3C1C DUP2 DUP5 ADD DUP15 PUSH2 0x3616 JUMP JUMPDEST PUSH5 0xFFFFFFFFFF SWAP13 DUP14 AND PUSH1 0x20 DUP6 ADD MSTORE PUSH1 0x40 DUP5 ADD SWAP12 SWAP1 SWAP12 MSTORE POP POP PUSH1 0x60 DUP2 ADD SWAP8 SWAP1 SWAP8 MSTORE PUSH1 0xFF SWAP6 SWAP1 SWAP6 AND PUSH1 0x80 DUP8 ADD MSTORE PUSH3 0xFFFFFF SWAP4 SWAP1 SWAP4 AND PUSH1 0xA0 DUP7 ADD MSTORE PUSH1 0x1 PUSH1 0x1 PUSH1 0x50 SHL SUB SWAP2 SWAP1 SWAP2 AND PUSH1 0xC0 DUP6 ADD MSTORE PUSH2 0xFFFF SWAP1 DUP2 AND PUSH1 0xE0 DUP6 ADD MSTORE AND PUSH2 0x100 DUP4 ADD MSTORE SWAP1 SWAP3 AND PUSH2 0x120 SWAP1 SWAP3 ADD SWAP2 SWAP1 SWAP2 MSTORE SWAP2 SWAP1 POP JUMP JUMPDEST PUSH1 0x20 DUP2 MSTORE PUSH1 0x0 PUSH2 0x384D PUSH1 0x20 DUP4 ADD DUP5 PUSH2 0x3854 JUMP JUMPDEST PUSH1 0x0 PUSH1 0x20 DUP1 DUP4 ADD DUP2 DUP5 MSTORE DUP1 DUP6 MLOAD DUP1 DUP4 MSTORE PUSH1 0x40 DUP7 ADD SWAP2 POP PUSH1 0x40 DUP2 PUSH1 0x5 SHL DUP8 ADD ADD SWAP3 POP DUP4 DUP8 ADD PUSH1 0x0 JUMPDEST DUP3 DUP2 LT ISZERO PUSH2 0x3CF1 JUMPI PUSH1 0x3F NOT DUP9 DUP7 SUB ADD DUP5 MSTORE PUSH2 0x3CDF DUP6 DUP4 MLOAD PUSH2 0x3616 JUMP JUMPDEST SWAP5 POP SWAP3 DUP6 ADD SWAP3 SWAP1 DUP6 ADD SWAP1 PUSH1 0x1 ADD PUSH2 0x3CC3 JUMP JUMPDEST POP SWAP3 SWAP8 SWAP7 POP POP POP POP POP POP POP JUMP JUMPDEST PUSH1 0x0 DUP1 PUSH1 0x0 DUP1 PUSH1 0x0 DUP1 PUSH1 0x0 PUSH1 0xC0 DUP9 DUP11 SUB SLT ISZERO PUSH2 0x3D19 JUMPI PUSH1 0x0 DUP1 REVERT JUMPDEST DUP8 CALLDATALOAD PUSH1 0x1 PUSH1 0x1 PUSH1 0x40 SHL SUB DUP2 GT ISZERO PUSH2 0x3D2F JUMPI PUSH1 0x0 DUP1 REVERT JUMPDEST PUSH2 0x3D3B DUP11 DUP3 DUP12 ADD PUSH2 0x39B9 JUMP JUMPDEST SWAP1 SWAP9 POP SWAP7 POP PUSH2 0x3A7D SWAP1 POP PUSH1 0x20 DUP10 ADD PUSH2 0x3A14 JUMP JUMPDEST PUSH1 0x0 DUP1 PUSH1 0x0 PUSH1 0x60 DUP5 DUP7 SUB SLT ISZERO PUSH2 0x3D63 JUMPI PUSH1 0x0 DUP1 REVERT JUMPDEST DUP4 CALLDATALOAD SWAP3 POP PUSH1 0x20 DUP5 ADD CALLDATALOAD SWAP2 POP PUSH1 0x40 DUP5 ADD CALLDATALOAD PUSH1 0x1 PUSH1 0x1 PUSH1 0x40 SHL SUB DUP2 GT ISZERO PUSH2 0x3D87 JUMPI PUSH1 0x0 DUP1 REVERT JUMPDEST PUSH2 0x3D93 DUP7 DUP3 DUP8 ADD PUSH2 0x36CC JUMP JUMPDEST SWAP2 POP POP SWAP3 POP SWAP3 POP SWAP3 JUMP JUMPDEST PUSH1 0x0 PUSH1 0x20 DUP3 DUP5 SUB SLT ISZERO PUSH2 0x3DAF JUMPI PUSH1 0x0 DUP1 REVERT JUMPDEST DUP2 CALLDATALOAD PUSH1 0x1 PUSH1 0x1 PUSH1 0x40 SHL SUB DUP2 GT ISZERO PUSH2 0x3DC5 JUMPI PUSH1 0x0 DUP1 REVERT JUMPDEST PUSH2 0x3DD1 DUP5 DUP3 DUP6 ADD PUSH2 0x3B17 JUMP JUMPDEST SWAP5 SWAP4 POP POP POP POP JUMP JUMPDEST PUSH1 0x20 DUP1 DUP3 MSTORE DUP3 MLOAD DUP3 DUP3 ADD DUP2 SWAP1 MSTORE PUSH1 0x0 SWAP2 SWAP1 DUP5 DUP3 ADD SWAP1 PUSH1 0x40 DUP6 ADD SWAP1 DUP5 JUMPDEST DUP2 DUP2 LT ISZERO PUSH2 0x3E15 JUMPI DUP4 MLOAD PUSH2 0xFFFF AND DUP4 MSTORE SWAP3 DUP5 ADD SWAP3 SWAP2 DUP5 ADD SWAP2 PUSH1 0x1 ADD PUSH2 0x3DF5 JUMP JUMPDEST POP SWAP1 SWAP7 SWAP6 POP POP POP POP POP POP JUMP JUMPDEST PUSH1 0x1 DUP2 DUP2 SHR SWAP1 DUP3 AND DUP1 PUSH2 0x3E35 JUMPI PUSH1 0x7F DUP3 AND SWAP2 POP JUMPDEST PUSH1 0x20 DUP3 LT DUP2 SUB PUSH2 0x3E55 JUMPI PUSH4 0x4E487B71 PUSH1 0xE0 SHL PUSH1 0x0 MSTORE PUSH1 0x22 PUSH1 0x4 MSTORE PUSH1 0x24 PUSH1 0x0 REVERT JUMPDEST POP SWAP2 SWAP1 POP JUMP JUMPDEST PUSH4 0x4E487B71 PUSH1 0xE0 SHL PUSH1 0x0 MSTORE PUSH1 0x32 PUSH1 0x4 MSTORE PUSH1 0x24 PUSH1 0x0 REVERT JUMPDEST DUP2 MLOAD PUSH1 0x0 SWAP1 DUP3 SWAP1 PUSH1 0x20 DUP1 DUP7 ADD DUP5 JUMPDEST DUP4 DUP2 LT ISZERO PUSH2 0x3E9B JUMPI DUP2 MLOAD DUP6 MSTORE SWAP4 DUP3 ADD SWAP4 SWAP1 DUP3 ADD SWAP1 PUSH1 0x1 ADD PUSH2 0x3E7F JUMP JUMPDEST POP SWAP3 SWAP7 SWAP6 POP POP POP POP POP POP JUMP JUMPDEST DUP5 DUP2 MSTORE DUP4 ISZERO ISZERO PUSH1 0x20 DUP3 ADD MSTORE DUP3 PUSH1 0x40 DUP3 ADD MSTORE PUSH1 0x80 PUSH1 0x60 DUP3 ADD MSTORE PUSH1 0x0 PUSH2 0x3ECE PUSH1 0x80 DUP4 ADD DUP5 PUSH2 0x3616 JUMP JUMPDEST SWAP7 SWAP6 POP POP POP POP POP POP JUMP JUMPDEST PUSH1 0x0 PUSH1 0x20 DUP3 DUP5 SUB SLT ISZERO PUSH2 0x3EEA JUMPI PUSH1 0x0 DUP1 REVERT JUMPDEST DUP2 MLOAD PUSH2 0x384D DUP2 PUSH2 0x3AE5 JUMP JUMPDEST PUSH1 0x0 PUSH1 0x20 DUP3 DUP5 SUB SLT ISZERO PUSH2 0x3F07 JUMPI PUSH1 0x0 DUP1 REVERT JUMPDEST DUP2 MLOAD PUSH2 0x384D DUP2 PUSH2 0x374B JUMP JUMPDEST PUSH1 0x0 PUSH1 0x20 DUP3 DUP5 SUB SLT ISZERO PUSH2 0x3F24 JUMPI PUSH1 0x0 DUP1 REVERT JUMPDEST POP MLOAD SWAP2 SWAP1 POP JUMP JUMPDEST PUSH1 0x20 DUP1 DUP3 MSTORE DUP2 DUP2 ADD MSTORE PUSH32 0x4F776E61626C653A2063616C6C6572206973206E6F7420746865206F776E6572 PUSH1 0x40 DUP3 ADD MSTORE PUSH1 0x60 ADD SWAP1 JUMP JUMPDEST PUSH1 0x20 DUP2 MSTORE PUSH1 0x0 PUSH2 0x384D PUSH1 0x20 DUP4 ADD DUP5 PUSH2 0x3616 JUMP JUMPDEST PUSH1 0x0 DUP2 SLOAD PUSH2 0x3F80 DUP2 PUSH2 0x3E21 JUMP JUMPDEST DUP1 DUP6 MSTORE PUSH1 0x20 PUSH1 0x1 DUP4 DUP2 AND DUP1 ISZERO PUSH2 0x3F9D JUMPI PUSH1 0x1 DUP2 EQ PUSH2 0x3FB7 JUMPI PUSH2 0x3FE5 JUMP JUMPDEST PUSH1 0xFF NOT DUP6 AND DUP9 DUP5 ADD MSTORE DUP4 ISZERO ISZERO PUSH1 0x5 SHL DUP9 ADD DUP4 ADD SWAP6 POP PUSH2 0x3FE5 JUMP JUMPDEST DUP7 PUSH1 0x0 MSTORE DUP3 PUSH1 0x0 KECCAK256 PUSH1 0x0 JUMPDEST DUP6 DUP2 LT ISZERO PUSH2 0x3FDD JUMPI DUP2 SLOAD DUP11 DUP3 ADD DUP7 ADD MSTORE SWAP1 DUP4 ADD SWAP1 DUP5 ADD PUSH2 0x3FC2 JUMP JUMPDEST DUP10 ADD DUP5 ADD SWAP7 POP POP JUMPDEST POP POP POP POP POP SWAP3 SWAP2 POP POP JUMP JUMPDEST PUSH1 0x20 DUP2 MSTORE PUSH1 0x0 PUSH2 0x384D PUSH1 0x20 DUP4 ADD DUP5 PUSH2 0x3F73 JUMP JUMPDEST PUSH1 0x1F DUP3 GT ISZERO PUSH2 0x404D JUMPI PUSH1 0x0 DUP2 DUP2 MSTORE PUSH1 0x20 DUP2 KECCAK256 PUSH1 0x1F DUP6 ADD PUSH1 0x5 SHR DUP2 ADD PUSH1 0x20 DUP7 LT ISZERO PUSH2 0x402A JUMPI POP DUP1 JUMPDEST PUSH1 0x1F DUP6 ADD PUSH1 0x5 SHR DUP3 ADD SWAP2 POP JUMPDEST DUP2 DUP2 LT ISZERO PUSH2 0x4049 JUMPI DUP3 DUP2 SSTORE PUSH1 0x1 ADD PUSH2 0x4036 JUMP JUMPDEST POP POP POP JUMPDEST POP POP POP JUMP JUMPDEST DUP2 MLOAD PUSH1 0x1 PUSH1 0x1 PUSH1 0x40 SHL SUB DUP2 GT ISZERO PUSH2 0x406B JUMPI PUSH2 0x406B PUSH2 0x3686 JUMP JUMPDEST PUSH2 0x407F DUP2 PUSH2 0x4079 DUP5 SLOAD PUSH2 0x3E21 JUMP JUMPDEST DUP5 PUSH2 0x4003 JUMP JUMPDEST PUSH1 0x20 DUP1 PUSH1 0x1F DUP4 GT PUSH1 0x1 DUP2 EQ PUSH2 0x40B4 JUMPI PUSH1 0x0 DUP5 ISZERO PUSH2 0x409C JUMPI POP DUP6 DUP4 ADD MLOAD JUMPDEST PUSH1 0x0 NOT PUSH1 0x3 DUP7 SWAP1 SHL SHR NOT AND PUSH1 0x1 DUP6 SWAP1 SHL OR DUP6 SSTORE PUSH2 0x4049 JUMP JUMPDEST PUSH1 0x0 DUP6 DUP2 MSTORE PUSH1 0x20 DUP2 KECCAK256 PUSH1 0x1F NOT DUP7 AND SWAP2 JUMPDEST DUP3 DUP2 LT ISZERO PUSH2 0x40E3 JUMPI DUP9 DUP7 ADD MLOAD DUP3 SSTORE SWAP5 DUP5 ADD SWAP5 PUSH1 0x1 SWAP1 SWAP2 ADD SWAP1 DUP5 ADD PUSH2 0x40C4 JUMP JUMPDEST POP DUP6 DUP3 LT ISZERO PUSH2 0x4101 JUMPI DUP8 DUP6 ADD MLOAD PUSH1 0x0 NOT PUSH1 0x3 DUP9 SWAP1 SHL PUSH1 0xF8 AND SHR NOT AND DUP2 SSTORE JUMPDEST POP POP POP POP POP PUSH1 0x1 SWAP1 DUP2 SHL ADD SWAP1 SSTORE POP JUMP JUMPDEST PUSH4 0x4E487B71 PUSH1 0xE0 SHL PUSH1 0x0 MSTORE PUSH1 0x11 PUSH1 0x4 MSTORE PUSH1 0x24 PUSH1 0x0 REVERT JUMPDEST PUSH1 0x0 DUP3 NOT DUP3 GT ISZERO PUSH2 0x413A JUMPI PUSH2 0x413A PUSH2 0x4111 JUMP JUMPDEST POP ADD SWAP1 JUMP JUMPDEST PUSH1 0x0 PUSH2 0xFFFF DUP4 DUP2 AND SWAP1 DUP4 AND DUP2 DUP2 LT ISZERO PUSH2 0x415A JUMPI PUSH2 0x415A PUSH2 0x4111 JUMP JUMPDEST SUB SWAP4 SWAP3 POP POP POP JUMP JUMPDEST PUSH1 0x0 DUP3 DUP3 LT ISZERO PUSH2 0x4174 JUMPI PUSH2 0x4174 PUSH2 0x4111 JUMP JUMPDEST POP SUB SWAP1 JUMP JUMPDEST PUSH5 0xFFFFFFFFFF DUP6 AND DUP2 MSTORE DUP4 PUSH1 0x20 DUP3 ADD MSTORE PUSH1 0x80 PUSH1 0x40 DUP3 ADD MSTORE PUSH1 0x0 PUSH2 0x419F PUSH1 0x80 DUP4 ADD DUP6 PUSH2 0x3616 JUMP JUMPDEST SWAP1 POP DUP3 PUSH1 0x60 DUP4 ADD MSTORE SWAP6 SWAP5 POP POP POP POP POP JUMP JUMPDEST PUSH1 0x0 PUSH1 0x1 DUP3 ADD PUSH2 0x41C2 JUMPI PUSH2 0x41C2 PUSH2 0x4111 JUMP JUMPDEST POP PUSH1 0x1 ADD SWAP1 JUMP JUMPDEST PUSH1 0x1 PUSH1 0x1 PUSH1 0x40 SHL SUB DUP4 GT ISZERO PUSH2 0x41E0 JUMPI PUSH2 0x41E0 PUSH2 0x3686 JUMP JUMPDEST PUSH2 0x41F4 DUP4 PUSH2 0x41EE DUP4 SLOAD PUSH2 0x3E21 JUMP JUMPDEST DUP4 PUSH2 0x4003 JUMP JUMPDEST PUSH1 0x0 PUSH1 0x1F DUP5 GT PUSH1 0x1 DUP2 EQ PUSH2 0x4228 JUMPI PUSH1 0x0 DUP6 ISZERO PUSH2 0x4210 JUMPI POP DUP4 DUP3 ADD CALLDATALOAD JUMPDEST PUSH1 0x0 NOT PUSH1 0x3 DUP8 SWAP1 SHL SHR NOT AND PUSH1 0x1 DUP7 SWAP1 SHL OR DUP4 SSTORE PUSH2 0x221F JUMP JUMPDEST PUSH1 0x0 DUP4 DUP2 MSTORE PUSH1 0x20 SWAP1 KECCAK256 PUSH1 0x1F NOT DUP7 AND SWAP1 DUP4 JUMPDEST DUP3 DUP2 LT ISZERO PUSH2 0x4259 JUMPI DUP7 DUP6 ADD CALLDATALOAD DUP3 SSTORE PUSH1 0x20 SWAP5 DUP6 ADD SWAP5 PUSH1 0x1 SWAP1 SWAP3 ADD SWAP2 ADD PUSH2 0x4239 JUMP JUMPDEST POP DUP7 DUP3 LT ISZERO PUSH2 0x4276 JUMPI PUSH1 0x0 NOT PUSH1 0xF8 DUP9 PUSH1 0x3 SHL AND SHR NOT DUP5 DUP8 ADD CALLDATALOAD AND DUP2 SSTORE JUMPDEST POP POP PUSH1 0x1 DUP6 PUSH1 0x1 SHL ADD DUP4 SSTORE POP POP POP POP POP JUMP JUMPDEST DUP4 DUP2 MSTORE DUP3 PUSH1 0x20 DUP3 ADD MSTORE PUSH1 0x60 PUSH1 0x40 DUP3 ADD MSTORE PUSH1 0x0 PUSH2 0x140 DUP1 PUSH1 0x60 DUP5 ADD MSTORE PUSH2 0x42B1 PUSH2 0x1A0 DUP5 ADD DUP6 PUSH2 0x3F73 JUMP JUMPDEST PUSH1 0x1 DUP6 ADD SLOAD PUSH5 0xFFFFFFFFFF AND PUSH5 0xFFFFFFFFFF DUP2 AND PUSH1 0x80 DUP7 ADD MSTORE POP PUSH1 0x2 DUP6 ADD SLOAD PUSH1 0xA0 DUP6 ADD MSTORE PUSH1 0x3 DUP6 ADD SLOAD PUSH1 0xC0 DUP6 ADD MSTORE PUSH1 0x4 DUP6 ADD SLOAD PUSH1 0xFF DUP2 AND PUSH1 0xE0 DUP7 ADD MSTORE PUSH1 0x8 DUP2 SWAP1 SHR PUSH3 0xFFFFFF AND PUSH2 0x100 DUP7 ADD MSTORE PUSH1 0x20 DUP2 SWAP1 SHR PUSH1 0x1 PUSH1 0x1 PUSH1 0x50 SHL SUB AND PUSH2 0x120 DUP7 ADD MSTORE PUSH2 0xFFFF PUSH1 0x70 DUP3 SWAP1 SHR DUP2 AND DUP5 DUP8 ADD MSTORE PUSH2 0x4335 PUSH2 0x160 DUP8 ADD DUP3 DUP5 PUSH1 0x80 SHR AND PUSH2 0xFFFF AND SWAP1 MSTORE JUMP JUMPDEST POP PUSH1 0x90 DUP2 SWAP1 SHR PUSH5 0xFFFFFFFFFF AND PUSH2 0x180 DUP7 ADD MSTORE POP SWAP7 SWAP6 POP POP POP POP POP POP JUMP JUMPDEST PUSH1 0x0 PUSH1 0x1 PUSH1 0x1 PUSH1 0x50 SHL SUB DUP1 DUP5 AND DUP1 PUSH2 0x437B JUMPI PUSH4 0x4E487B71 PUSH1 0xE0 SHL PUSH1 0x0 MSTORE PUSH1 0x12 PUSH1 0x4 MSTORE PUSH1 0x24 PUSH1 0x0 REVERT JUMPDEST SWAP3 AND SWAP2 SWAP1 SWAP2 DIV SWAP3 SWAP2 POP POP JUMP JUMPDEST PUSH1 0x20 DUP1 DUP3 MSTORE PUSH1 0x14 SWAP1 DUP3 ADD MSTORE PUSH20 0x2330B4B632B2103A379039B2B7321022BA3432B9 PUSH1 0x61 SHL PUSH1 0x40 DUP3 ADD MSTORE PUSH1 0x60 ADD SWAP1 JUMP JUMPDEST PUSH1 0x0 DUP1 DUP3 SLT DUP1 ISZERO PUSH1 0x1 PUSH1 0x1 PUSH1 0xFF SHL SUB DUP5 SWAP1 SUB DUP6 SGT AND ISZERO PUSH2 0x43D7 JUMPI PUSH2 0x43D7 PUSH2 0x4111 JUMP JUMPDEST PUSH1 0x1 PUSH1 0xFF SHL DUP4 SWAP1 SUB DUP5 SLT DUP2 AND ISZERO PUSH2 0x43F0 JUMPI PUSH2 0x43F0 PUSH2 0x4111 JUMP JUMPDEST POP POP ADD SWAP1 JUMP JUMPDEST PUSH1 0x0 DUP3 MLOAD PUSH2 0x4408 DUP2 DUP5 PUSH1 0x20 DUP8 ADD PUSH2 0x35EA JUMP JUMPDEST SWAP2 SWAP1 SWAP2 ADD SWAP3 SWAP2 POP POP JUMP JUMPDEST PUSH1 0x0 DUP1 DUP4 SLOAD PUSH2 0x4420 DUP2 PUSH2 0x3E21 JUMP JUMPDEST PUSH1 0x1 DUP3 DUP2 AND DUP1 ISZERO PUSH2 0x4438 JUMPI PUSH1 0x1 DUP2 EQ PUSH2 0x444D JUMPI PUSH2 0x3E9B JUMP JUMPDEST PUSH1 0xFF NOT DUP5 AND DUP8 MSTORE DUP3 ISZERO ISZERO DUP4 MUL DUP8 ADD SWAP5 POP PUSH2 0x3E9B JUMP JUMPDEST DUP8 PUSH1 0x0 MSTORE PUSH1 0x20 DUP1 PUSH1 0x0 KECCAK256 PUSH1 0x0 JUMPDEST DUP6 DUP2 LT ISZERO PUSH2 0x4473 JUMPI DUP2 SLOAD DUP11 DUP3 ADD MSTORE SWAP1 DUP5 ADD SWAP1 DUP3 ADD PUSH2 0x445A JUMP JUMPDEST POP POP POP SWAP6 SWAP1 SWAP2 ADD SWAP7 SWAP6 POP POP POP POP POP POP JUMP JUMPDEST PUSH1 0xE0 DUP2 MSTORE DUP8 PUSH1 0xE0 DUP3 ADD MSTORE PUSH1 0x0 PUSH2 0x100 DUP10 DUP12 DUP3 DUP6 ADD CALLDATACOPY PUSH1 0x0 DUP11 DUP5 ADD DUP3 ADD MSTORE PUSH5 0xFFFFFFFFFF SWAP9 DUP10 AND PUSH1 0x20 DUP5 ADD MSTORE PUSH1 0xFF SWAP8 SWAP1 SWAP8 AND PUSH1 0x40 DUP4 ADD MSTORE POP PUSH3 0xFFFFFF SWAP5 SWAP1 SWAP5 AND PUSH1 0x60 DUP6 ADD MSTORE SWAP2 DUP6 AND PUSH1 0x80 DUP5 ADD MSTORE SWAP1 SWAP4 AND PUSH1 0xA0 DUP3 ADD MSTORE PUSH2 0xFFFF SWAP1 SWAP3 AND PUSH1 0xC0 DUP4 ADD MSTORE PUSH1 0x1F SWAP1 SWAP3 ADD PUSH1 0x1F NOT AND ADD ADD SWAP2 SWAP1 POP JUMP INVALID LOG2 PUSH5 0x6970667358 0x22 SLT KECCAK256 RETURNDATACOPY 0xA7 0xE SWAP14 SELFBALANCE DUP7 0xE1 CALLDATASIZE 0xB3 CALLCODE 0x5C 0xAE PUSH3 0x5628E6 RETURNDATASIZE PUSH9 0xB7649C43A52848281B PUSH18 0x5BC3CB0864736F6C634300080F0033000000 ",
  "sha1": "3d4be6215a847e3e8eaafa9ceca5839d58f42099",
  "source": "pragma solidity 0.8.15;\n// SPDX-License-Identifier: Unlicensed\n\nimport \"./wizards.sol\";\nimport \"./interfaces/IERC20.sol\";\nimport \"./interfaces/IERC165.sol\";\nimport \"./interfaces/IERC721.sol\";\nimport \"./interfaces/IERC721Enumerable.sol\";\n//import \"./helpers/base64.sol\";\nimport './helpers/ERC721A.sol';\nimport './helpers/ERC721.sol';\nimport './helpers/ERC165.sol';\nimport './helpers/Ownable.sol';\nimport './helpers/Context.sol';\nimport './helpers/ReentrancyGuard.sol';\nimport './helpers/ERC2981Collection.sol';\nimport './libraries/Strings.sol';\nimport './libraries/Address.sol';\nimport './WizardTower.sol';\nimport {DoubleEndedQueue} from \"@openzeppelin/contracts/utils/structs/DoubleEndedQueue.sol\";\n\n//contract BMMultipass is ERC721Enumerable, ReentrancyGuard, Ownable {\ncontract Governance is ReentrancyGuard, Ownable {\n\n//    IERC20  ecosystemTokens;\n    Wizards wizardsNFT;\n    WizardTower wizardTower;\n\n    // the value stored here is shifted over by one because 0 means no vote, 1 means voting for slot 0\n    mapping (uint256 => mapping (uint256 => uint256)) public proposalToNFTVotes;\n\n    // used to find active tasks\n    struct TaskType {\n        mapping (uint40 => uint256) nextActiveTimeThreshold; // for recurring tasks -- todo -- add waitTime or ...\n        string IPFSHash; // holds description\n        bool paused;\n        uint40 proposalID; // proposal ID or 0 if task\n        uint8 numFieldsToHash;\n        uint24 timeBonus;\n        uint40 begTimestamp;\n        uint40 endTimestamp;\n        uint16 availableSlots;\n    }\n\n    // include parent???\n    struct Task {\n        string IPFSHash; // holds description\n        uint40 NFTID; // wizard ID of who is assigned task\n        bytes32 hash; // hashed input to be validated\n        bytes32 refuterHash; // correct hash according to refuter\n        uint8 numFieldsToHash; // input fields\n        uint24 timeBonus; // increases Wizard's activation time, in seconds\n//        uint8 strikes; // number of times confirmation has failed, use existence of refuterID\n        uint80 payment; //\n        uint16 verifierID; // wizardId of Verifier\n        uint16 refuterID; // wizardId of Verifier\n        uint40 verificationReservedTimestamp; // time when verification period ends\n    }\n\n    struct Proposal {\n        string IPFSHash;\n        uint16 numberOfOptions;\n        uint16[8] votes;\n        uint40 totalVotes;\n        uint40 begTimestamp;\n        uint40 endTimestamp;\n    }\n\n\n\n    TaskType[] public taskTypes; // we must keep task types low in quantity to avoid gas issues\n\n    // todo -- these should be dequeues\n    DoubleEndedQueue.Bytes32Deque public tasksWaitingConfirmation;\n//    uint256[] public tasksVerifying; // reduce size?\n\n//    DoubleEndedQueue.Bytes32Deque  public myQueue;\n\n    mapping (uint256 => Proposal) public proposals;\n    uint256 totalProposals;\n\n    mapping (uint256 => Task) public tasks;\n    uint256 public totalTasksAttempted;\n\n    // todo -- Adjustable\n    uint256 verificationTime = 10*60; // 10 minutes\n    uint256 taskVerificationTimeBonus = 1 days; // 1 day\n    uint256 boardSeats = 3;\n\n    event VerificationAssigned(uint256 wizardId, uint256 taskId, Task myTask);\n    event VerificationFailed(uint256 VerifierIdFirst, uint256 VerifierIdSecond, uint256 taskId);\n    event VerificationSucceeded(uint256 taskDoer, uint256 Verifier, uint256 taskId, bytes32 hash, bool isHashCorrect);\n    event HashTesting(bytes32 hash, bool isHashCorrect, bytes32 firstEncoded, bytes firstUnencoded);\n    event NewTaskTypeCreated(string _IPFSHash,uint40 _proposalID, uint8 _numFieldsToHash, uint24 _timeBonus,\n          uint40 _begTimestamp, uint40 _endTimestamp, uint16 _availableSlots);\n    event TaskCompleted(uint256 wizardId, uint256 taskId, string IPFSHash, uint256 data);\n\n    /////////////////////////////\n    //////  TEMP Functions ///////\n    /////////////////////////////\n\n    /*\n    function getFront() view external returns ( uint256) {\n        require(DoubleEndedQueue.length(myQueue)!=0, \"Empty Dequeue\");\n        return uint256(DoubleEndedQueue.front(myQueue));\n    }\n\n    function pushFront(bytes32 _data) external {\n    //  Task memory myTask = Task(\"0 - MYIPFSHASH\", 1, keccak256(4), 3, 4, 5, 6, 7);\n        DoubleEndedQueue.pushFront(myQueue,bytes32(_data));\n    }\n    */\n\n    /////////////////////////////\n    //////  Get Functions ///////\n    /////////////////////////////\n\n    function isCallerOnBoard() public view returns (bool) {\n        for(uint256 i =1; i <= boardSeats;){\n            if(wizardsNFT.ownerOf(wizardTower.getWizardOnFloor(i)) == msg.sender ){\n                return true;\n            }\n            unchecked{++i;}\n        }\n        return false;\n    }\n\n    function isMyWizardOnBoard(uint256 _wizId) public view returns (bool) {\n        if(wizardsNFT.ownerOf(_wizId)==msg.sender && wizardTower.isOnTheTower(_wizId) && wizardTower.getFloorGivenWizard(_wizId) <=boardSeats){\n            return true;\n        }\n        return false;\n    }\n\n\n/*\n// todo -- delete this helper function\n    function getTaskTypeFields(uint256 _id) external view returns (uint8 ) {\n        return taskTypes[_id].numFieldsToHash;\n    }\n*/\n    function getTaskById(uint256 _taskId) external view returns (Task memory) {\n        return tasks[_taskId];\n    }\n\n    function getVotes(uint256 proposalID) external view returns (uint16[] memory) {\n        require(proposalID < totalProposals, \"no such proposal\");\n        uint16[] memory voteArray = new uint16[](proposals[proposalID].numberOfOptions);\n        for(uint256 i = 0; i< voteArray.length; i++){\n            voteArray[i] = proposals[proposalID].votes[i];\n        }\n        return voteArray;\n    }\n\n    function getWinningVote(uint256 proposalID) external view returns (uint256 ) {\n        require(proposalID < totalProposals, \"no such proposal\");\n        require( block.timestamp > proposals[proposalID].endTimestamp, \"voting still active\"); // todo -- end voting only on time? Or, what?\n        // todo -- is there a need to win by a certain percent?\n        uint256 winningVote;\n        uint256 winningVoteAmount;\n        uint256 tie=0;\n        for(uint256 i=0; i< proposals[proposalID].numberOfOptions; i++){ // start at 1 as 0 means no vote???\n            if(proposals[proposalID].votes[i] > winningVoteAmount) {\n                winningVoteAmount = proposals[proposalID].votes[i];\n                winningVote = i;\n                if (tie==1) { tie = 0;}\n            }\n            else if(proposals[proposalID].votes[i] == winningVoteAmount){\n                tie=1;\n            }\n        }\n        require(tie==0, \"there was a tie.\");\n        return winningVote;\n    }\n\n    // todo -- delete tasktype function\n\n    function areTasksAvailableToConfirm(uint256 _wizId) external view returns (bool) {\n        uint256 totalTasksSubmitted = DoubleEndedQueue.length(tasksWaitingConfirmation);\n        Task memory myTask;\n//        uint256 taskId;\n\n        // todo --implement randomness\n//        uint256[25] memory potentialTasks;\n\n        for(uint256 i =0; i < totalTasksSubmitted; ){\n            myTask = tasks[uint256(DoubleEndedQueue.at(tasksWaitingConfirmation,i))];\n            if( myTask.verificationReservedTimestamp < block.timestamp && myTask.NFTID != _wizId && myTask.refuterID!= _wizId){\n                return true;\n            }\n            unchecked{++i;}\n        }\n        return false;\n    }\n\n\n    function getTasksAssignedToWiz(uint40 _wizId) external view returns (Task[] memory, uint256[] memory) {\n        uint256 totalTasksSubmitted = DoubleEndedQueue.length(tasksWaitingConfirmation);\n        Task memory myTask;\n        uint256 taskId;\n        uint256 count=0;\n\n        for(uint256 i =0; i < totalTasksSubmitted; ){\n            taskId = uint256(DoubleEndedQueue.at(tasksWaitingConfirmation, i));\n            myTask = tasks[taskId];\n            if( myTask.verificationReservedTimestamp > block.timestamp && myTask.verifierID== _wizId){\n                unchecked{++count;}\n            }\n            unchecked{++i;}\n        }\n\n        // if no tasks, return empty array\n        if (count==0) {\n            Task[] memory myReturn= new Task[](1);\n            uint256[] memory myReturnUint= new uint256[](1);\n//            myReturn[0].NFTID=0;\n//            myReturn[0] = \"\";\n            return (myReturn, myReturnUint);\n        }\n\n        uint256 counter = 0;\n        Task[] memory myTasks = new Task[](count);\n        uint256[] memory myTaskIds = new uint256[](count);\n        for(uint256 i =0; i < totalTasksSubmitted; ){\n            taskId = uint256(DoubleEndedQueue.at(tasksWaitingConfirmation, i));\n            myTask = tasks[taskId];\n            if( myTask.verificationReservedTimestamp > block.timestamp && myTask.verifierID== _wizId){\n                myTasks[counter] = myTask;\n                myTaskIds[counter] = taskId;\n                unchecked{++counter;}\n                if(counter>count){break;}\n            }\n            unchecked{++i;}\n        }\n        return (myTasks, myTaskIds);\n    }\n\n\n    // todo -- see if we need to include IDs here -- may not need to\n    function getMyAvailableTaskTypes(uint40 _wizId) external view returns (string[] memory) {\n        uint256 count;\n        for(uint256 i=0; i< taskTypes.length;){\n            if(taskTypes[i].nextActiveTimeThreshold[_wizId] < block.timestamp\n            && taskTypes[i].begTimestamp <= block.timestamp && taskTypes[i].endTimestamp > block.timestamp\n            && taskTypes[i].availableSlots > 1\n            ) {\n                unchecked{++count;}\n            }\n//            else {\n//                string[] memory myReturn= new string[](1);\n//                myReturn[0] = \"\";\n//                return myReturn;\n//            }\n            unchecked{++i;}\n        }\n\n        // if no tasks, return empty array\n        if (count==0) {\n            string[] memory myReturn= new string[](1);\n            myReturn[0] = \"\";\n            return myReturn;\n        }\n\n        string[] memory myTasks = new string[](count);\n        uint256 counter = 0;\n        for(uint256 i=0; i< taskTypes.length;){\n            if(taskTypes[i].nextActiveTimeThreshold[_wizId] < block.timestamp\n            && taskTypes[i].begTimestamp <= block.timestamp && taskTypes[i].endTimestamp > block.timestamp\n            && taskTypes[i].availableSlots > 1\n            ) {\n                myTasks[counter] = taskTypes[i].IPFSHash;\n                unchecked{++counter;}\n                if(counter >= count) {\n                    break;\n                }\n            }\n            unchecked{++i;}\n        }\n        return myTasks;\n    }\n\n\n    /////////////////////////////\n    //////  Set Functions ///////\n    /////////////////////////////\n\n    function setNFTAddress(address _addy) external onlyOwner {\n        wizardsNFT = Wizards(_addy);\n    }\n\n\n//    function setERC20Address(address _addy) external onlyOwner {\n//        ecosystemTokens = IERC20(_addy);\n//    }\n\n    function deleteTaskTypeByIPFSHash(string memory _IPFSHash) external {\n        for(uint256 i=0; i<taskTypes.length;){\n            if(keccak256(abi.encodePacked(taskTypes[i].IPFSHash)) == keccak256(abi.encodePacked(_IPFSHash))){\n//                taskTypes[i] = taskTypes[taskTypes.length-1];\n                TaskType storage myTaskType = taskTypes[i];\n                TaskType storage displacedTaskType = taskTypes[taskTypes.length-1];\n//                myTaskType.nextActiveTimeThreshold = displacedTaskType.nextActiveTimeThreshold;\n                myTaskType = displacedTaskType;\n                delete taskTypes[taskTypes.length-1];\n                // todo see if this works at all\n//        mapping (uint40 => uint256) nextActiveTimeThreshold; // for recurring tasks -- todo -- add waitTime or ...\n//        string IPFSHash; // holds description\n//        bool paused;\n//        uint40 proposalID; // proposal ID or 0 if task\n//        uint8 numFieldsToHash;\n//        uint24 timeBonus;\n//        uint40 begTimestamp;\n//        uint40 endTimestamp;\n//        uint16 availableSlots;\n\n\n                delete taskTypes[taskTypes.length-1];\n                break;\n            }\n            unchecked{++i;}\n        }\n    }\n\n\n\n    //////////////////////////////\n    //////  Main Functions ///////\n    //////////////////////////////\n\n    /** @dev Constructor for HOADAO\n        @param _nft -- contract address for NFTs\n      */\n    constructor(address _nft, address _wizardTower){\n//        ecosystemTokens = IERC20(_erc20);\n        wizardsNFT = Wizards(_nft);\n        wizardTower = WizardTower(_wizardTower);\n\n//        contractSettings = ContractSettings({\n//        });\n\n    }\n\n    // Required to receive ETH\n    receive() external payable {\n    }\n\n    function vote(uint256 proposalID, uint256 NFTID, uint256 _vote) external onlyMember {\n        require(proposalID < totalProposals, \"no such proposal\");\n        require(wizardsNFT.ownerOf(NFTID)==msg.sender, \"not owner of NFT\");\n        require(proposalToNFTVotes[proposalID][NFTID]==0, \"already voted\");\n        require(_vote!=0 && _vote <= proposals[proposalID].numberOfOptions);\n        require(block.timestamp < proposals[proposalID].endTimestamp);\n        proposalToNFTVotes[proposalID][NFTID] = _vote + 1; // vote reference shifted by one\n        proposals[proposalID].votes[_vote] += 1; // increment votes\n        proposals[proposalID].totalVotes += 1;\n    }\n\n    // votes won't need to be confirmed\n    function createProposal(string calldata _IPFSHash, uint16 _numberOfOptions, uint24 _timeBonus, uint40 _begTimestamp, uint40 _endTimestamp, uint16 _availableSlots) external onlyBoard {\n        require(_numberOfOptions > 1 && _numberOfOptions < 257, \"invalid number of options\");\n        totalProposals += 1; // keep nothing at 0\n        Proposal storage myProposal = proposals[totalProposals];\n            myProposal.begTimestamp = _begTimestamp;\n            myProposal.endTimestamp = _endTimestamp;\n            myProposal.numberOfOptions = _numberOfOptions;\n            myProposal.IPFSHash = _IPFSHash;\n\n        _createTaskType(_IPFSHash, uint40(totalProposals), 0, _timeBonus, _begTimestamp, _endTimestamp, _availableSlots);\n        // todo --  emit event\n    }\n\n\n    function createTaskType(string calldata _IPFSHash, uint8 _numFieldsToHash, uint24 _timeBonus, uint40 _begTimestamp,\n                uint40 _endTimestamp, uint16 _availableSlots) external onlyBoard {\n        _createTaskType(_IPFSHash, 0, _numFieldsToHash, _timeBonus, _begTimestamp, _endTimestamp, _availableSlots);\n    }\n\n    function _createTaskType(string calldata _IPFSHash, uint40 _proposalID, uint8 _numFieldsToHash, uint24 _timeBonus,\n             uint40 _begTimestamp, uint40 _endTimestamp, uint16 _availableSlots) internal {\n        uint256 taskTypesLength = taskTypes.length;\n        taskTypes.push();\n        TaskType storage newTaskType = taskTypes[taskTypesLength];\n            newTaskType.IPFSHash =_IPFSHash;\n            newTaskType.paused = false;\n            newTaskType.proposalID = _proposalID;\n            newTaskType.numFieldsToHash = _numFieldsToHash;\n            newTaskType.timeBonus = _timeBonus;\n            newTaskType.begTimestamp = _begTimestamp;\n            newTaskType.endTimestamp = _endTimestamp;\n            newTaskType.availableSlots = _availableSlots;\n        // todo --  emit event\n        emit NewTaskTypeCreated(_IPFSHash, _proposalID, _numFieldsToHash, _timeBonus, _begTimestamp, _endTimestamp, _availableSlots);\n    }\n\n\n    function claimRandomTaskForVerification(uint256 _wizId) external {\n        uint256 totalTasksSubmitted = DoubleEndedQueue.length(tasksWaitingConfirmation);\n        Task memory myTask;\n        uint256 taskId;\n\n        // todo --implement randomness\n        // uint256[25] memory potentialTasks;\n\n        for(uint256 i =0; i < totalTasksSubmitted; ){\n            taskId = uint256(DoubleEndedQueue.at(tasksWaitingConfirmation, i));\n            myTask = tasks[taskId];\n            if( myTask.verificationReservedTimestamp < block.timestamp && myTask.NFTID != _wizId && myTask.refuterID!= _wizId){\n//                taskId = uint256(DoubleEndedQueue.at(tasksWaitingConfirmation, i));\n//                myTask = tasks[taskId];\n\n                // update task\n                myTask.verifierID = uint16(_wizId);\n                myTask.verificationReservedTimestamp = uint40(block.timestamp + verificationTime);\n                tasks[taskId] = myTask;\n                emit VerificationAssigned(_wizId, taskId, tasks[taskId]);\n            }\n            unchecked{++i;}\n        }\n//        emit VerificationAssigned(_wizId, taskId);\n    }\n\n    function completeTask(string memory _IPFSHash, bytes32 _hash, uint40 _wizId) external {\n        // IPFS, hash, wizardID\n\n        // find the task type -- can't be too many\n        for(uint256 i = 0; i<taskTypes.length;){\n            if(keccak256(abi.encode(taskTypes[i].IPFSHash)) == keccak256(abi.encode(_IPFSHash))){ // hashed to compare\n                // verify it is viable\n                require(taskTypes[i].begTimestamp <= block.timestamp && block.timestamp <= taskTypes[i].endTimestamp, \"Outside time period\");\n                // create new task\n                Task memory myTask = Task(_IPFSHash,_wizId, _hash, 0, taskTypes[i].numFieldsToHash, taskTypes[i].timeBonus, 0, 0, 0, 0);\n                DoubleEndedQueue.pushBack(tasksWaitingConfirmation, bytes32(totalTasksAttempted));\n                tasks[totalTasksAttempted] = myTask;\n                totalTasksAttempted+=1;\n\n                // update TaskTypes\n                taskTypes[i].nextActiveTimeThreshold[_wizId] = block.timestamp + 1 days;\n                taskTypes[i].availableSlots = taskTypes[i].availableSlots - 1;\n\n                emit TaskCompleted(_wizId,totalTasksAttempted -1, _IPFSHash, block.timestamp);\n                break;\n            }\n            unchecked{++i;}\n        }\n        // failed\n\n\n    }\n\n    function testHashing(bytes32 _givenHash, bytes32[] memory _fields, bool _refuted) external {\n        bytes memory unencoded = abi.encodePacked(_fields[0]);\n        if(_refuted) {\n            for(uint256 i = 0; i < _fields.length;){\n                _fields[i] = keccak256(abi.encodePacked(_fields[i]));\n                unchecked{++i;}\n            }\n        }\n        bytes32 myHash = keccak256(abi.encodePacked(_fields));\n        emit HashTesting(myHash, myHash==_givenHash, _fields[0], unencoded);\n    }\n\n// working for regular but not refuted.\n//    function testHashing(bytes32 _givenHash, bytes32[] memory _fields, bool _refuted) external {\n//        bytes memory unencoded = abi.encodePacked(_fields[0]);\n//        if(_refuted) {\n//            for(uint256 i = 0; i < _fields.length;){\n//                _fields[i] = keccak256(abi.encodePacked(_fields[i]));\n//                unchecked{++i;}\n//            }\n//        }\n//        bytes32 myHash = keccak256(abi.encodePacked(_fields));\n//        emit HashTesting(myHash, myHash==_givenHash, _fields[0], unencoded);\n//    }\n\n\n\n    // @dev -- hash structure: leaves of merkle tree are hashed. Unrefuted tasks must send in hashed leafs. Refuted, unhashed.\n    function submitVerification(uint256 _wizId, uint256 _taskID, bytes32[] memory _fields) external {\n    //todo -- uncomment out requirement (testing)\n        require(wizardsNFT.ownerOf(_wizId) == msg.sender && tasks[_taskID].verifierID==_wizId, \"Must be owner of assigned wizard\");\n        require(_fields.length > 0);\n\n        Task memory myTask = tasks[_taskID];\n        uint256 count = 0;\n        bool deleteTaskFlag = true;\n\n        // hash leaves if there is a refuter\n        if(myTask.refuterID > 0) {\n            for(uint256 i = 0; i < _fields.length;){\n                _fields[i] = keccak256(abi.encodePacked(_fields[i]));\n                unchecked{++i;}\n            }\n        }\n        bytes32 myHash = keccak256(abi.encodePacked(_fields));\n\n        uint256 correctHash = myTask.hash == myHash ? 1 : 0;\n\n        emit VerificationSucceeded(_wizId, myTask.NFTID, _taskID, myHash, correctHash==1);\n\n        if (correctHash ==1){\n            // if refuterId exists, then refuter gets no refund\n            uint256 split = myTask.payment/2;\n            address payable taskSubmitter = payable(wizardsNFT.ownerOf(myTask.verifierID));\n//            address payable verifier = msg.sender;\n\n            wizardsNFT.verifyDuty(myTask.NFTID, myTask.timeBonus);\n            wizardsNFT.verifyDuty(myTask.verifierID, taskVerificationTimeBonus);\n\n            // myTask.payment=0; // thwart reentrancy attacks\n            delete tasks[_taskID];\n\n            // send to task submitter\n            (bool sent, bytes memory data) = taskSubmitter.call{value: split}(\"\");\n            require(sent, \"Failed to send Ether\");\n\n            // send to verifier\n            (sent, data) = msg.sender.call{value: split}(\"\");\n            require(sent, \"Failed to send Ether\");\n\n        }\n        else { // if incorrect Hash\n            // case 2 -- if no match, send to DAO\n\n\n            if(myTask.refuterID==0){\n                myTask.refuterID=uint16(_wizId);\n                myTask.refuterHash=myHash;\n                tasks[_taskID] = myTask;\n                deleteTaskFlag = false;\n            }\n\n            // case 1 -- if matches hash of refuter, split\n            if(myTask.refuterHash==myHash){\n                uint256 split = myTask.payment/2;\n                address payable taskRefuter = payable(wizardsNFT.ownerOf(myTask.refuterID));\n\n                wizardsNFT.verifyDuty(myTask.refuterID, taskVerificationTimeBonus);\n                wizardsNFT.verifyDuty(_wizId, taskVerificationTimeBonus);\n\n                // myTask.payment=0; // thwart reentrancy attacks\n                delete tasks[_taskID];\n\n                // send to task submitter\n                (bool sent, bytes memory data) = taskRefuter.call{value: split}(\"\");\n                require(sent, \"Failed to send Ether\");\n\n                // send to verifier\n                (sent, data) = msg.sender.call{value: split}(\"\");\n                require(sent, \"Failed to send Ether\");\n\n                // emit event\n            }\n            else{\n                // no agreement in the 3 submissions\n                // send ETH to DAO\n                uint256 split = myTask.payment;\n                delete tasks[_taskID];\n                (bool sent, bytes memory data) = owner().call{value: split}(\"\"); // todo -- decide on how to structure DAO address\n                require(sent, \"Failed to send Ether\");\n\n                // emit event\n            }\n        }\n\n            // delete task from double ended queue\n        if(deleteTaskFlag){\n            uint256 totalTasksSubmitted = DoubleEndedQueue.length(tasksWaitingConfirmation);\n//            Task memory myTask;\n\n            // delete task from doubleEndedQueue\n            for(uint256 i =0; i < totalTasksSubmitted; ){\n                if( uint256(DoubleEndedQueue.at(tasksWaitingConfirmation, i))==_taskID){\n                    bytes32 prevFront = DoubleEndedQueue.popFront(tasksWaitingConfirmation);\n                    if(i!=0){ // add back on if we weren't meant to remove front\n                        tasksWaitingConfirmation._data[int128(tasksWaitingConfirmation._begin + int(i))] = prevFront;\n                    }\n                }\n                unchecked{++i;}\n            }\n        }\n\n    }\n\n    //////////////////////\n    ////// Modifiers /////\n    //////////////////////\n\n    modifier onlyAdmin() {\n        require(false,'Must be admin');\n        _;\n    }\n\n    modifier onlyNFTOwner() {\n        require(false,'Must be admin');\n        _;\n    }\n\n    modifier onlyLessee() {\n        require(false,'Must be lessee');\n        _;\n    }\n\n    modifier onlyMember() { // todo -- onlyMember\n        require(false,'Must be member');\n        _;\n    }\n\n    // top x in tower?\n    modifier onlyBoard() {\n        // check caller against top 3 wizards on tower\n        require(isCallerOnBoard(), \"Must be on the board\");\n//        require(true,'Must be on the board'); // todo -- onlyBoard\n        _;\n    }\n\n\n\n\n\n}",
  "sourcePath": "contracts/Governance.sol",
  "type": "contract"
}