{
  "abi": [
    {
      "inputs": [
        {
          "internalType": "string",
          "name": "name_",
          "type": "string"
        },
        {
          "internalType": "string",
          "name": "symbol_",
          "type": "string"
        },
        {
          "internalType": "address",
          "name": "_address",
          "type": "address"
        },
        {
          "internalType": "string",
          "name": "_imageBaseURI",
          "type": "string"
        }
      ],
      "stateMutability": "nonpayable",
      "type": "constructor"
    },
    {
      "anonymous": false,
      "inputs": [
        {
          "indexed": true,
          "internalType": "address",
          "name": "owner",
          "type": "address"
        },
        {
          "indexed": true,
          "internalType": "address",
          "name": "approved",
          "type": "address"
        },
        {
          "indexed": true,
          "internalType": "uint256",
          "name": "tokenId",
          "type": "uint256"
        }
      ],
      "name": "Approval",
      "type": "event"
    },
    {
      "anonymous": false,
      "inputs": [
        {
          "indexed": true,
          "internalType": "address",
          "name": "owner",
          "type": "address"
        },
        {
          "indexed": true,
          "internalType": "address",
          "name": "operator",
          "type": "address"
        },
        {
          "indexed": false,
          "internalType": "bool",
          "name": "approved",
          "type": "bool"
        }
      ],
      "name": "ApprovalForAll",
      "type": "event"
    },
    {
      "anonymous": false,
      "inputs": [
        {
          "indexed": false,
          "internalType": "address",
          "name": "initiater",
          "type": "address"
        },
        {
          "indexed": true,
          "internalType": "uint256",
          "name": "wizardId",
          "type": "uint256"
        },
        {
          "indexed": false,
          "internalType": "uint256",
          "name": "timestamp",
          "type": "uint256"
        }
      ],
      "name": "Initiated",
      "type": "event"
    },
    {
      "anonymous": false,
      "inputs": [
        {
          "indexed": false,
          "internalType": "address",
          "name": "verifier",
          "type": "address"
        }
      ],
      "name": "NewBattler",
      "type": "event"
    },
    {
      "anonymous": false,
      "inputs": [
        {
          "indexed": false,
          "internalType": "address",
          "name": "battler",
          "type": "address"
        }
      ],
      "name": "NewVerifier",
      "type": "event"
    },
    {
      "anonymous": false,
      "inputs": [
        {
          "indexed": true,
          "internalType": "address",
          "name": "previousOwner",
          "type": "address"
        },
        {
          "indexed": true,
          "internalType": "address",
          "name": "newOwner",
          "type": "address"
        }
      ],
      "name": "OwnershipTransferred",
      "type": "event"
    },
    {
      "anonymous": false,
      "inputs": [
        {
          "indexed": false,
          "internalType": "address",
          "name": "initiater",
          "type": "address"
        },
        {
          "indexed": true,
          "internalType": "uint256",
          "name": "wizardId",
          "type": "uint256"
        },
        {
          "indexed": false,
          "internalType": "uint256",
          "name": "newLevel",
          "type": "uint256"
        },
        {
          "indexed": false,
          "internalType": "uint256",
          "name": "timestamp",
          "type": "uint256"
        }
      ],
      "name": "Rebirth",
      "type": "event"
    },
    {
      "anonymous": false,
      "inputs": [
        {
          "indexed": true,
          "internalType": "address",
          "name": "from",
          "type": "address"
        },
        {
          "indexed": true,
          "internalType": "address",
          "name": "to",
          "type": "address"
        },
        {
          "indexed": true,
          "internalType": "uint256",
          "name": "tokenId",
          "type": "uint256"
        }
      ],
      "name": "Transfer",
      "type": "event"
    },
    {
      "inputs": [
        {
          "internalType": "address",
          "name": "to",
          "type": "address"
        },
        {
          "internalType": "uint256",
          "name": "tokenId",
          "type": "uint256"
        }
      ],
      "name": "approve",
      "outputs": [],
      "stateMutability": "nonpayable",
      "type": "function"
    },
    {
      "inputs": [
        {
          "internalType": "address",
          "name": "owner",
          "type": "address"
        }
      ],
      "name": "balanceOf",
      "outputs": [
        {
          "internalType": "uint256",
          "name": "",
          "type": "uint256"
        }
      ],
      "stateMutability": "view",
      "type": "function"
    },
    {
      "inputs": [],
      "name": "battler",
      "outputs": [
        {
          "internalType": "address",
          "name": "",
          "type": "address"
        }
      ],
      "stateMutability": "view",
      "type": "function"
    },
    {
      "inputs": [],
      "name": "contractSettings",
      "outputs": [
        {
          "internalType": "uint256",
          "name": "mintCost",
          "type": "uint256"
        },
        {
          "internalType": "uint256",
          "name": "initiationCost",
          "type": "uint256"
        },
        {
          "internalType": "uint256",
          "name": "maxSupply",
          "type": "uint256"
        },
        {
          "internalType": "uint256",
          "name": "protectionTimeExtension",
          "type": "uint256"
        },
        {
          "internalType": "address",
          "name": "ecosystemTokenAddress",
          "type": "address"
        },
        {
          "internalType": "uint256",
          "name": "phaseDuration",
          "type": "uint256"
        },
        {
          "internalType": "uint256",
          "name": "totalPhases",
          "type": "uint256"
        },
        {
          "internalType": "uint256",
          "name": "rebirthFee",
          "type": "uint256"
        },
        {
          "internalType": "string",
          "name": "imageBaseURI",
          "type": "string"
        }
      ],
      "stateMutability": "view",
      "type": "function"
    },
    {
      "inputs": [
        {
          "internalType": "uint256",
          "name": "_tokenId",
          "type": "uint256"
        }
      ],
      "name": "crush",
      "outputs": [],
      "stateMutability": "nonpayable",
      "type": "function"
    },
    {
      "inputs": [
        {
          "internalType": "uint256",
          "name": "_tokenId",
          "type": "uint256"
        },
        {
          "internalType": "string",
          "name": "imageURI",
          "type": "string"
        }
      ],
      "name": "formatTokenURI",
      "outputs": [
        {
          "internalType": "string",
          "name": "",
          "type": "string"
        }
      ],
      "stateMutability": "view",
      "type": "function"
    },
    {
      "inputs": [
        {
          "internalType": "uint256",
          "name": "tokenId",
          "type": "uint256"
        }
      ],
      "name": "getApproved",
      "outputs": [
        {
          "internalType": "address",
          "name": "",
          "type": "address"
        }
      ],
      "stateMutability": "view",
      "type": "function"
    },
    {
      "inputs": [
        {
          "internalType": "uint256",
          "name": "_tokenId",
          "type": "uint256"
        }
      ],
      "name": "getIsDeserted",
      "outputs": [
        {
          "internalType": "bool",
          "name": "",
          "type": "bool"
        }
      ],
      "stateMutability": "nonpayable",
      "type": "function"
    },
    {
      "inputs": [
        {
          "internalType": "uint256",
          "name": "_tokenId",
          "type": "uint256"
        }
      ],
      "name": "getPhaseOf",
      "outputs": [
        {
          "internalType": "uint256",
          "name": "",
          "type": "uint256"
        }
      ],
      "stateMutability": "view",
      "type": "function"
    },
    {
      "inputs": [
        {
          "internalType": "uint256",
          "name": "_wizardId",
          "type": "uint256"
        }
      ],
      "name": "getStatsGivenId",
      "outputs": [
        {
          "components": [
            {
              "internalType": "uint256",
              "name": "level",
              "type": "uint256"
            },
            {
              "internalType": "uint256",
              "name": "hp",
              "type": "uint256"
            },
            {
              "internalType": "uint256",
              "name": "magicalPower",
              "type": "uint256"
            },
            {
              "internalType": "uint256",
              "name": "magicalDefense",
              "type": "uint256"
            },
            {
              "internalType": "uint256",
              "name": "speed",
              "type": "uint256"
            },
            {
              "internalType": "uint256",
              "name": "wins",
              "type": "uint256"
            },
            {
              "internalType": "uint256",
              "name": "losses",
              "type": "uint256"
            },
            {
              "internalType": "uint256",
              "name": "battles",
              "type": "uint256"
            },
            {
              "internalType": "uint256",
              "name": "tokensClaimed",
              "type": "uint256"
            },
            {
              "internalType": "uint256",
              "name": "goodness",
              "type": "uint256"
            },
            {
              "internalType": "uint256",
              "name": "badness",
              "type": "uint256"
            },
            {
              "internalType": "uint256",
              "name": "initiationTimestamp",
              "type": "uint256"
            },
            {
              "internalType": "uint256",
              "name": "protectedUntilTimestamp",
              "type": "uint256"
            },
            {
              "internalType": "enum Wizards.ELEMENT",
              "name": "element",
              "type": "uint8"
            }
          ],
          "internalType": "struct Wizards.Stats",
          "name": "",
          "type": "tuple"
        }
      ],
      "stateMutability": "view",
      "type": "function"
    },
    {
      "inputs": [
        {
          "internalType": "uint256",
          "name": "_tokenId",
          "type": "uint256"
        }
      ],
      "name": "initiate",
      "outputs": [],
      "stateMutability": "nonpayable",
      "type": "function"
    },
    {
      "inputs": [
        {
          "internalType": "uint256",
          "name": "_wizardId",
          "type": "uint256"
        }
      ],
      "name": "isActive",
      "outputs": [
        {
          "internalType": "bool",
          "name": "",
          "type": "bool"
        }
      ],
      "stateMutability": "view",
      "type": "function"
    },
    {
      "inputs": [
        {
          "internalType": "address",
          "name": "owner",
          "type": "address"
        },
        {
          "internalType": "address",
          "name": "operator",
          "type": "address"
        }
      ],
      "name": "isApprovedForAll",
      "outputs": [
        {
          "internalType": "bool",
          "name": "",
          "type": "bool"
        }
      ],
      "stateMutability": "view",
      "type": "function"
    },
    {
      "inputs": [],
      "name": "mint",
      "outputs": [],
      "stateMutability": "nonpayable",
      "type": "function"
    },
    {
      "inputs": [
        {
          "internalType": "string",
          "name": "_imageBaseURI",
          "type": "string"
        },
        {
          "internalType": "uint256",
          "name": "_phaseDuration",
          "type": "uint256"
        },
        {
          "internalType": "uint256",
          "name": "_protectionTimeExtension",
          "type": "uint256"
        },
        {
          "internalType": "uint256",
          "name": "_mintCost",
          "type": "uint256"
        },
        {
          "internalType": "uint256",
          "name": "_initiationCost",
          "type": "uint256"
        }
      ],
      "name": "modifyContractSettings",
      "outputs": [],
      "stateMutability": "nonpayable",
      "type": "function"
    },
    {
      "inputs": [],
      "name": "name",
      "outputs": [
        {
          "internalType": "string",
          "name": "",
          "type": "string"
        }
      ],
      "stateMutability": "view",
      "type": "function"
    },
    {
      "inputs": [],
      "name": "owner",
      "outputs": [
        {
          "internalType": "address",
          "name": "",
          "type": "address"
        }
      ],
      "stateMutability": "view",
      "type": "function"
    },
    {
      "inputs": [
        {
          "internalType": "uint256",
          "name": "tokenId",
          "type": "uint256"
        }
      ],
      "name": "ownerOf",
      "outputs": [
        {
          "internalType": "address",
          "name": "",
          "type": "address"
        }
      ],
      "stateMutability": "view",
      "type": "function"
    },
    {
      "inputs": [
        {
          "internalType": "uint256",
          "name": "_tokenId",
          "type": "uint256"
        }
      ],
      "name": "rebirth",
      "outputs": [],
      "stateMutability": "payable",
      "type": "function"
    },
    {
      "inputs": [],
      "name": "renounceOwnership",
      "outputs": [],
      "stateMutability": "nonpayable",
      "type": "function"
    },
    {
      "inputs": [
        {
          "internalType": "uint256",
          "name": "_attackerId",
          "type": "uint256"
        },
        {
          "internalType": "uint256",
          "name": "_defenderId",
          "type": "uint256"
        },
        {
          "internalType": "enum Wizards.OUTCOME",
          "name": "outcome",
          "type": "uint8"
        },
        {
          "internalType": "uint256",
          "name": "_tokensWon",
          "type": "uint256"
        },
        {
          "internalType": "uint256",
          "name": "_tokensWaged",
          "type": "uint256"
        }
      ],
      "name": "reportBattle",
      "outputs": [],
      "stateMutability": "nonpayable",
      "type": "function"
    },
    {
      "inputs": [
        {
          "internalType": "address",
          "name": "from",
          "type": "address"
        },
        {
          "internalType": "address",
          "name": "to",
          "type": "address"
        },
        {
          "internalType": "uint256",
          "name": "tokenId",
          "type": "uint256"
        }
      ],
      "name": "safeTransferFrom",
      "outputs": [],
      "stateMutability": "nonpayable",
      "type": "function"
    },
    {
      "inputs": [
        {
          "internalType": "address",
          "name": "from",
          "type": "address"
        },
        {
          "internalType": "address",
          "name": "to",
          "type": "address"
        },
        {
          "internalType": "uint256",
          "name": "tokenId",
          "type": "uint256"
        },
        {
          "internalType": "bytes",
          "name": "_data",
          "type": "bytes"
        }
      ],
      "name": "safeTransferFrom",
      "outputs": [],
      "stateMutability": "nonpayable",
      "type": "function"
    },
    {
      "inputs": [
        {
          "internalType": "address",
          "name": "operator",
          "type": "address"
        },
        {
          "internalType": "bool",
          "name": "approved",
          "type": "bool"
        }
      ],
      "name": "setApprovalForAll",
      "outputs": [],
      "stateMutability": "nonpayable",
      "type": "function"
    },
    {
      "inputs": [
        {
          "internalType": "bytes4",
          "name": "interfaceId",
          "type": "bytes4"
        }
      ],
      "name": "supportsInterface",
      "outputs": [
        {
          "internalType": "bool",
          "name": "",
          "type": "bool"
        }
      ],
      "stateMutability": "view",
      "type": "function"
    },
    {
      "inputs": [],
      "name": "symbol",
      "outputs": [
        {
          "internalType": "string",
          "name": "",
          "type": "string"
        }
      ],
      "stateMutability": "view",
      "type": "function"
    },
    {
      "inputs": [
        {
          "internalType": "uint256",
          "name": "index",
          "type": "uint256"
        }
      ],
      "name": "tokenByIndex",
      "outputs": [
        {
          "internalType": "uint256",
          "name": "",
          "type": "uint256"
        }
      ],
      "stateMutability": "view",
      "type": "function"
    },
    {
      "inputs": [
        {
          "internalType": "uint256",
          "name": "",
          "type": "uint256"
        }
      ],
      "name": "tokenIdToStats",
      "outputs": [
        {
          "internalType": "uint256",
          "name": "level",
          "type": "uint256"
        },
        {
          "internalType": "uint256",
          "name": "hp",
          "type": "uint256"
        },
        {
          "internalType": "uint256",
          "name": "magicalPower",
          "type": "uint256"
        },
        {
          "internalType": "uint256",
          "name": "magicalDefense",
          "type": "uint256"
        },
        {
          "internalType": "uint256",
          "name": "speed",
          "type": "uint256"
        },
        {
          "internalType": "uint256",
          "name": "wins",
          "type": "uint256"
        },
        {
          "internalType": "uint256",
          "name": "losses",
          "type": "uint256"
        },
        {
          "internalType": "uint256",
          "name": "battles",
          "type": "uint256"
        },
        {
          "internalType": "uint256",
          "name": "tokensClaimed",
          "type": "uint256"
        },
        {
          "internalType": "uint256",
          "name": "goodness",
          "type": "uint256"
        },
        {
          "internalType": "uint256",
          "name": "badness",
          "type": "uint256"
        },
        {
          "internalType": "uint256",
          "name": "initiationTimestamp",
          "type": "uint256"
        },
        {
          "internalType": "uint256",
          "name": "protectedUntilTimestamp",
          "type": "uint256"
        },
        {
          "internalType": "enum Wizards.ELEMENT",
          "name": "element",
          "type": "uint8"
        }
      ],
      "stateMutability": "view",
      "type": "function"
    },
    {
      "inputs": [
        {
          "internalType": "address",
          "name": "owner",
          "type": "address"
        },
        {
          "internalType": "uint256",
          "name": "index",
          "type": "uint256"
        }
      ],
      "name": "tokenOfOwnerByIndex",
      "outputs": [
        {
          "internalType": "uint256",
          "name": "",
          "type": "uint256"
        }
      ],
      "stateMutability": "view",
      "type": "function"
    },
    {
      "inputs": [
        {
          "internalType": "uint256",
          "name": "_tokenId",
          "type": "uint256"
        }
      ],
      "name": "tokenURI",
      "outputs": [
        {
          "internalType": "string",
          "name": "",
          "type": "string"
        }
      ],
      "stateMutability": "view",
      "type": "function"
    },
    {
      "inputs": [],
      "name": "totalSupply",
      "outputs": [
        {
          "internalType": "uint256",
          "name": "",
          "type": "uint256"
        }
      ],
      "stateMutability": "view",
      "type": "function"
    },
    {
      "inputs": [
        {
          "internalType": "address",
          "name": "from",
          "type": "address"
        },
        {
          "internalType": "address",
          "name": "to",
          "type": "address"
        },
        {
          "internalType": "uint256",
          "name": "tokenId",
          "type": "uint256"
        }
      ],
      "name": "transferFrom",
      "outputs": [],
      "stateMutability": "nonpayable",
      "type": "function"
    },
    {
      "inputs": [
        {
          "internalType": "address",
          "name": "newOwner",
          "type": "address"
        }
      ],
      "name": "transferOwnership",
      "outputs": [],
      "stateMutability": "nonpayable",
      "type": "function"
    },
    {
      "inputs": [
        {
          "internalType": "address",
          "name": "_battler",
          "type": "address"
        }
      ],
      "name": "updateBattler",
      "outputs": [],
      "stateMutability": "nonpayable",
      "type": "function"
    },
    {
      "inputs": [
        {
          "internalType": "address",
          "name": "_verifier",
          "type": "address"
        }
      ],
      "name": "updateVerifier",
      "outputs": [],
      "stateMutability": "nonpayable",
      "type": "function"
    },
    {
      "inputs": [],
      "name": "verifier",
      "outputs": [
        {
          "internalType": "address",
          "name": "",
          "type": "address"
        }
      ],
      "stateMutability": "view",
      "type": "function"
    },
    {
      "inputs": [
        {
          "internalType": "uint256",
          "name": "_tokenId",
          "type": "uint256"
        },
        {
          "internalType": "uint256",
          "name": "_timeReward",
          "type": "uint256"
        }
      ],
      "name": "verifyDuty",
      "outputs": [],
      "stateMutability": "nonpayable",
      "type": "function"
    }
  ],
  "bytecode": "60806040523480156200001157600080fd5b5060405162003ba638038062003ba68339810160408190526200003491620001ee565b8383600062000044838262000330565b50600162000053828262000330565b505050620000706200006a620000cb60201b60201c565b620000cf565b6127106010556001600f556005600e5562015180601155601280546001600160a01b0319166001600160a01b038416179055610e106013556016620000b6828262000330565b505060086014555050600560155550620003fc565b3390565b600a80546001600160a01b038381166001600160a01b0319831681179093556040519116919082907f8be0079c531659141344cd1fd0a4f28419497f9722a3daafe3b4186f6b6457e090600090a35050565b634e487b7160e01b600052604160045260246000fd5b600082601f8301126200014957600080fd5b81516001600160401b038082111562000166576200016662000121565b604051601f8301601f19908116603f0116810190828211818310171562000191576200019162000121565b81604052838152602092508683858801011115620001ae57600080fd5b600091505b83821015620001d25785820183015181830184015290820190620001b3565b83821115620001e45760008385830101525b9695505050505050565b600080600080608085870312156200020557600080fd5b84516001600160401b03808211156200021d57600080fd5b6200022b8883890162000137565b955060208701519150808211156200024257600080fd5b620002508883890162000137565b604088015190955091506001600160a01b03821682146200027057600080fd5b6060870151919350808211156200028657600080fd5b50620002958782880162000137565b91505092959194509250565b600181811c90821680620002b657607f821691505b602082108103620002d757634e487b7160e01b600052602260045260246000fd5b50919050565b601f8211156200032b57600081815260208120601f850160051c81016020861015620003065750805b601f850160051c820191505b81811015620003275782815560010162000312565b5050505b505050565b81516001600160401b038111156200034c576200034c62000121565b62000364816200035d8454620002a1565b84620002dd565b602080601f8311600181146200039c5760008415620003835750858301515b600019600386901b1c1916600185901b17855562000327565b600085815260208120601f198616915b82811015620003cd57888601518255948401946001909101908401620003ac565b5085821015620003ec5787850151600019600388901b60f8161c191681555b5050505050600190811b01905550565b61379a806200040c6000396000f3fe60806040526004361061021a5760003560e01c8063715018a611610123578063a22cb465116100ab578063db2a0a551161006f578063db2a0a55146106d6578063e52e324914610700578063e8a77d1714610720578063e985e9c514610733578063f2fde38b1461077c57600080fd5b8063a22cb465146105b0578063b88d4fde146105d0578063bc0b0d88146105f0578063c87b56dd14610610578063c87bfc7f1461063057600080fd5b80638ad4d6a5116100f25780638ad4d6a5146105105780638cb22518146105305780638da5cb5b1461055d57806395d89b411461057b57806397fc007c1461059057600080fd5b8063715018a6146104895780637901ea781461049e5780638140bd0b146104be57806382afd23b146104de57600080fd5b806323b872dd116101a657806342842e0e1161017557806342842e0e146103e9578063437454b9146104095780634f6ccce7146104295780636352211e1461044957806370a082311461046957600080fd5b806323b872dd146103695780632b7ac3f3146103895780632f745c59146103a95780633b6029ca146103c957600080fd5b8063081812fc116101ed578063081812fc146102c4578063095ea7b3146102fc5780630a363d081461031e5780631249c58b1461033f57806318160ddd1461035457600080fd5b806301ffc9a71461021f5780630419e31414610254578063051063531461028157806306fdde03146102af575b600080fd5b34801561022b57600080fd5b5061023f61023a366004612902565b61079c565b60405190151581526020015b60405180910390f35b34801561026057600080fd5b5061027461026f3660046129cb565b6107c7565b60405161024b9190612a6a565b34801561028d57600080fd5b506102a161029c366004612a7d565b6109da565b60405190815260200161024b565b3480156102bb57600080fd5b50610274610a49565b3480156102d057600080fd5b506102e46102df366004612a7d565b610adb565b6040516001600160a01b03909116815260200161024b565b34801561030857600080fd5b5061031c610317366004612ab2565b610b75565b005b34801561032a57600080fd5b5061023f610339366004612a7d565b50600090565b34801561034b57600080fd5b5061031c610c8a565b34801561036057600080fd5b506008546102a1565b34801561037557600080fd5b5061031c610384366004612adc565b610f78565b34801561039557600080fd5b50600d546102e4906001600160a01b031681565b3480156103b557600080fd5b506102a16103c4366004612ab2565b610fa9565b3480156103d557600080fd5b5061031c6103e4366004612b18565b61103f565b3480156103f557600080fd5b5061031c610404366004612adc565b61108b565b34801561041557600080fd5b5061031c610424366004612a7d565b6110a6565b34801561043557600080fd5b506102a1610444366004612a7d565b6110e8565b34801561045557600080fd5b506102e4610464366004612a7d565b61117b565b34801561047557600080fd5b506102a1610484366004612b75565b6111f2565b34801561049557600080fd5b5061031c611279565b3480156104aa57600080fd5b5061031c6104b9366004612a7d565b6112af565b3480156104ca57600080fd5b5061031c6104d9366004612b90565b6113bd565b3480156104ea57600080fd5b5061023f6104f9366004612a7d565b6000908152600b60205260409020600c0154421090565b34801561051c57600080fd5b5061031c61052b366004612bdd565b611525565b34801561053c57600080fd5b5061055061054b366004612a7d565b6115b8565b60405161024b9190612c37565b34801561056957600080fd5b50600a546001600160a01b03166102e4565b34801561058757600080fd5b50610274611746565b34801561059c57600080fd5b5061031c6105ab366004612b75565b611755565b3480156105bc57600080fd5b5061031c6105cb366004612ce1565b611841565b3480156105dc57600080fd5b5061031c6105eb366004612d1d565b611905565b3480156105fc57600080fd5b50600c546102e4906001600160a01b031681565b34801561061c57600080fd5b5061027461062b366004612a7d565b61193d565b34801561063c57600080fd5b506106bc61064b366004612a7d565b600b60208190526000918252604090912080546001820154600283015460038401546004850154600586015460068701546007880154600889015460098a0154600a8b01549b8b0154600c8c0154600d909c01549a9c999b989a979996989597949693959294919392909160ff168e565b60405161024b9e9d9c9b9a99989796959493929190612d99565b3480156106e257600080fd5b506106eb611a9d565b60405161024b99989796959493929190612e13565b34801561070c57600080fd5b5061031c61071b366004612b75565b611b60565b61031c61072e366004612a7d565b611c45565b34801561073f57600080fd5b5061023f61074e366004612e70565b6001600160a01b03918216600090815260056020908152604080832093909416825291909152205460ff1690565b34801561078857600080fd5b5061031c610797366004612b75565b611e0b565b60006001600160e01b0319821663780e9d6360e01b14806107c157506107c182611ea3565b92915050565b60606000600b6000858152602001908152602001600020604051806101c001604052908160008201548152602001600182015481526020016002820154815260200160038201548152602001600482015481526020016005820154815260200160068201548152602001600782015481526020016008820154815260200160098201548152602001600a8201548152602001600b8201548152602001600c8201548152602001600d820160009054906101000a900460ff16600381111561089057610890612bff565b60038111156108a1576108a1612bff565b8152505090506000836108b78360000151611ef3565b6040516020016108c8929190612ebf565b6040516020818303038152906040529050806108e78360200151611ef3565b6108f48460400151611ef3565b6109018560600151611ef3565b6040516020016109149493929190613019565b6040516020818303038152906040529050806109338360800151611ef3565b6109408460a00151611ef3565b6040516020016109529392919061314b565b6040516020818303038152906040529050806109718360c00151611ef3565b61097e8460e00151611ef3565b61098c856101000151611ef3565b60405160200161099f9493929190613228565b6040516020818303038152906040529050806040516020016109c1919061333e565b60408051808303601f1901815291905295945050505050565b6013546000828152600b60208190526040822001549091829160079190610a019042613383565b610a0b91906133b0565b11610a3f576013546000848152600b602081905260409091200154610a309042613383565b610a3a91906133b0565b610a42565b60075b9392505050565b606060008054610a58906133c4565b80601f0160208091040260200160405190810160405280929190818152602001828054610a84906133c4565b8015610ad15780601f10610aa657610100808354040283529160200191610ad1565b820191906000526020600020905b815481529060010190602001808311610ab457829003601f168201915b5050505050905090565b6000818152600260205260408120546001600160a01b0316610b595760405162461bcd60e51b815260206004820152602c60248201527f4552433732313a20617070726f76656420717565727920666f72206e6f6e657860448201526b34b9ba32b73a103a37b5b2b760a11b60648201526084015b60405180910390fd5b506000908152600460205260409020546001600160a01b031690565b6000610b808261117b565b9050806001600160a01b0316836001600160a01b031603610bed5760405162461bcd60e51b815260206004820152602160248201527f4552433732313a20617070726f76616c20746f2063757272656e74206f776e656044820152603960f91b6064820152608401610b50565b336001600160a01b0382161480610c095750610c09813361074e565b610c7b5760405162461bcd60e51b815260206004820152603860248201527f4552433732313a20617070726f76652063616c6c6572206973206e6f74206f7760448201527f6e6572206e6f7220617070726f76656420666f7220616c6c00000000000000006064820152608401610b50565b610c858383611ff4565b505050565b60105460085410610cce5760405162461bcd60e51b815260206004820152600e60248201526d30ba1036b0bc1039bab838363c9760911b6044820152606401610b50565b6000610cd960085490565b6040805160208101929092526bffffffffffffffffffffffff193360601b169082015242605482015260740160408051601f19818403018152919052805160209091012090506000610d2c601a836133fe565b610d37906019613412565b90506000601a610d486064856133b0565b610d5291906133fe565b610d5d906019613412565b90506000600a610d6d81866133b0565b610d7890600461342a565b610d8291906133fe565b610d8d90600a613412565b90506000600a610d9d81876133b0565b610da890600561342a565b610db291906133fe565b610dbd90600a613412565b905060006004610dce600a886133b0565b610dd990600661342a565b610de391906133fe565b6003811115610df457610df4612bff565b90506000604051806101c00160405280600181526020018781526020018681526020018581526020018481526020016000815260200160008152602001600081526020016000815260200160008152602001600081526020016000815260200160008152602001836003811115610e6d57610e6d612bff565b9052905080600b6000610e7f60085490565b610e8a906001613412565b8152602001908152602001600020600082015181600001556020820151816001015560408201518160020155606082015181600301556080820151816004015560a0820151816005015560c0820151816006015560e082015181600701556101008201518160080155610120820151816009015561014082015181600a015561016082015181600b015561018082015181600c01556101a082015181600d0160006101000a81548160ff02191690836003811115610f4a57610f4a612bff565b0217905550905050610f6f33610f5f60085490565b610f6a906001613412565b612062565b50505050505050565b610f823382612080565b610f9e5760405162461bcd60e51b8152600401610b5090613449565b610c85838383612173565b6000610fb4836111f2565b82106110165760405162461bcd60e51b815260206004820152602b60248201527f455243373231456e756d657261626c653a206f776e657220696e646578206f7560448201526a74206f6620626f756e647360a81b6064820152608401610b50565b506001600160a01b03919091166000908152600660209081526040808320938352929052205490565b600a546001600160a01b031633146110695760405162461bcd60e51b8152600401610b509061349a565b6016611075868261351d565b50601393909355601191909155600e55600f5550565b610c8583838360405180602001604052806000815250611905565b3033036110e55760405162461bcd60e51b815260206004820152600d60248201526c37b7363c903b32b934b334b2b960991b6044820152606401610b50565b50565b60006110f360085490565b82106111565760405162461bcd60e51b815260206004820152602c60248201527f455243373231456e756d657261626c653a20676c6f62616c20696e646578206f60448201526b7574206f6620626f756e647360a01b6064820152608401610b50565b60088281548110611169576111696135dd565b90600052602060002001549050919050565b6000818152600260205260408120546001600160a01b0316806107c15760405162461bcd60e51b815260206004820152602960248201527f4552433732313a206f776e657220717565727920666f72206e6f6e657869737460448201526832b73a103a37b5b2b760b91b6064820152608401610b50565b60006001600160a01b03821661125d5760405162461bcd60e51b815260206004820152602a60248201527f4552433732313a2062616c616e636520717565727920666f7220746865207a65604482015269726f206164647265737360b01b6064820152608401610b50565b506001600160a01b031660009081526003602052604090205490565b600a546001600160a01b031633146112a35760405162461bcd60e51b8152600401610b509061349a565b6112ad600061231e565b565b336112b98261117b565b6001600160a01b0316146112ff5760405162461bcd60e51b815260206004820152600d60248201526c36bab9ba1031329037bbb732b960991b6044820152606401610b50565b6000818152600b602081905260409091200154156113535760405162461bcd60e51b8152602060048201526011602482015270185b1c9958591e481a5b9a5d1a585d1959607a1b6044820152606401610b50565b6000818152600b6020819052604090912042918101829055601154909161137a9190613412565b600c8201556040805133815242602082015283917f1782b66bbe30900ee88feab2f2cd676d136386cc51cdf73f6cae8b1da253ddf7910160405180910390a25050565b600c546001600160a01b031633146114235760405162461bcd60e51b8152602060048201526024808201527f4f6e6c7920626174746c65722063616e2063616c6c20746869732066756e637460448201526334b7b71760e11b6064820152608401610b50565b600183600381111561143757611437612bff565b03611490576000858152600b6020526040812060050180546001929061145e908490613412565b90915550506000848152600b60205260408120600601805460019290611485908490613412565b909155506114f89050565b60008360038111156114a4576114a4612bff565b036114f8576000858152600b602052604081206006018054600192906114cb908490613412565b90915550506000848152600b602052604081206005018054600192906114f2908490613412565b90915550505b6000858152600b602052604081206008018054849290611519908490613412565b90915550505050505050565b3033036115645760405162461bcd60e51b815260206004820152600d60248201526c37b7363c903b32b934b334b2b960991b6044820152606401610b50565b6000828152600b60205260409020600c01544211611593576000828152600b60205260409020600c0154611595565b425b61159f9082613412565b6000928352600b6020526040909220600c019190915550565b6115c061286d565b60006115cb836109da565b6115d6906001613412565b90506000600b6000858152602001908152602001600020604051806101c001604052908160008201548152602001600182015481526020016002820154815260200160038201548152602001600482015481526020016005820154815260200160068201548152602001600782015481526020016008820154815260200160098201548152602001600a8201548152602001600b8201548152602001600c8201548152602001600d820160009054906101000a900460ff16600381111561169f5761169f612bff565b60038111156116b0576116b0612bff565b9052506014546020820151919250906116ca90849061342a565b6116d491906133b0565b602082015260145460408201516116ec90849061342a565b6116f691906133b0565b6040820152601454606082015161170e90849061342a565b61171891906133b0565b6060820152601454608082015161173090849061342a565b61173a91906133b0565b60808201529392505050565b606060018054610a58906133c4565b600a546001600160a01b0316331461177f5760405162461bcd60e51b8152600401610b509061349a565b6001600160a01b038116158015906117a55750600d546001600160a01b03828116911614155b6117ec5760405162461bcd60e51b8152602060048201526018602482015277496e76616c6964206f70657261746f72206164647265737360401b6044820152606401610b50565b600d80546001600160a01b0319166001600160a01b0383169081179091556040519081527fa1fd6a6669acb930bae242943bb9fa08ddcba665c707261e9730ee0305fb85e5906020015b60405180910390a150565b336001600160a01b038316036118995760405162461bcd60e51b815260206004820152601960248201527f4552433732313a20617070726f766520746f2063616c6c6572000000000000006044820152606401610b50565b3360008181526005602090815260408083206001600160a01b03871680855290835292819020805460ff191686151590811790915590519081529192917f17307eab39ab6107e8899845ad3d59bd9653f200f220920489ca2b5937696c31910160405180910390a35050565b61190f3383612080565b61192b5760405162461bcd60e51b8152600401610b5090613449565b61193784848484612370565b50505050565b6000818152600260205260409020546060906001600160a01b03166119bc5760405162461bcd60e51b815260206004820152602f60248201527f4552433732314d657461646174613a2055524920717565727920666f72206e6f60448201526e3732bc34b9ba32b73a103a37b5b2b760891b6064820152608401610b50565b6000828152600b6020819052604082200154606091036119f457506040805180820190915260018152600360fc1b6020820152611a63565b6013546000848152600b602081905260409091200154611a6091600791611a1b9042613383565b611a2591906133b0565b11611a59576013546000858152600b602081905260409091200154611a4a9042613383565b611a5491906133b0565b611ef3565b6007611ef3565b90505b604051600090611a7a9060169084906020016135f3565b6040516020818303038152906040529050611a9584826107c7565b949350505050565b600e8054600f546010546011546012546013546014546015546016805498999798969795966001600160a01b0390951695939492939192611add906133c4565b80601f0160208091040260200160405190810160405280929190818152602001828054611b09906133c4565b8015611b565780601f10611b2b57610100808354040283529160200191611b56565b820191906000526020600020905b815481529060010190602001808311611b3957829003601f168201915b5050505050905089565b600a546001600160a01b03163314611b8a5760405162461bcd60e51b8152600401610b509061349a565b6001600160a01b03811615801590611bb05750600c546001600160a01b03828116911614155b611bf75760405162461bcd60e51b8152602060048201526018602482015277496e76616c6964206f70657261746f72206164647265737360401b6044820152606401610b50565b600c80546001600160a01b0319166001600160a01b0383169081179091556040519081527fa6996d36756222f1028b4a1a97cbfa625158cf8e69ac5dcf367de3bd730d34a490602001611836565b6000818152600b6020526040812090611c5d60085490565b82546040805160208101939093526bffffffffffffffffffffffff193360601b1690830152426054830152607482015260940160408051601f19818403018152919052805160209091012042600b840155601154600c840180549293509091600090611cca908490613412565b909155505081546001908390600090611ce4908490613412565b90915550611cf590506010826133fe565b611d0090600a613412565b826001016000828254611d139190613412565b9091555060109050611d266064836133b0565b611d3091906133fe565b611d3b90600a613412565b826002016000828254611d4e9190613412565b9091555060109050611d62612710836133b0565b611d6c91906133fe565b611d7790600a613412565b826003016000828254611d8a9190613412565b90915550600a9050611d9f620f4240836133b0565b611da991906133fe565b826004016000828254611dbc9190613412565b90915550508154604080513381526020810192909252429082015283907fb77df37c5c38b010d57710ffa0bf2bbcbdda02f986c30d708810f5c6b34096319060600160405180910390a2505050565b600a546001600160a01b03163314611e355760405162461bcd60e51b8152600401610b509061349a565b6001600160a01b038116611e9a5760405162461bcd60e51b815260206004820152602660248201527f4f776e61626c653a206e6577206f776e657220697320746865207a65726f206160448201526564647265737360d01b6064820152608401610b50565b6110e58161231e565b60006001600160e01b031982166380ac58cd60e01b1480611ed457506001600160e01b03198216635b5e139f60e01b145b806107c157506301ffc9a760e01b6001600160e01b03198316146107c1565b606081600003611f1a5750506040805180820190915260018152600360fc1b602082015290565b8160005b8115611f445780611f2e81613689565b9150611f3d9050600a836133b0565b9150611f1e565b60008167ffffffffffffffff811115611f5f57611f5f61291f565b6040519080825280601f01601f191660200182016040528015611f89576020820181803683370190505b5090505b8415611a9557611f9e600183613383565b9150611fab600a866133fe565b611fb6906030613412565b60f81b818381518110611fcb57611fcb6135dd565b60200101906001600160f81b031916908160001a905350611fed600a866133b0565b9450611f8d565b600081815260046020526040902080546001600160a01b0319166001600160a01b03841690811790915581906120298261117b565b6001600160a01b03167f8c5be1e5ebec7d5bd14f71427d1e84f3dd0314c0f7b2291e5b200ac8c7c3b92560405160405180910390a45050565b61207c8282604051806020016040528060008152506123a3565b5050565b6000818152600260205260408120546001600160a01b03166120f95760405162461bcd60e51b815260206004820152602c60248201527f4552433732313a206f70657261746f7220717565727920666f72206e6f6e657860448201526b34b9ba32b73a103a37b5b2b760a11b6064820152608401610b50565b60006121048361117b565b9050806001600160a01b0316846001600160a01b0316148061213f5750836001600160a01b031661213484610adb565b6001600160a01b0316145b80611a9557506001600160a01b0380821660009081526005602090815260408083209388168352929052205460ff16611a95565b826001600160a01b03166121868261117b565b6001600160a01b0316146121ee5760405162461bcd60e51b815260206004820152602960248201527f4552433732313a207472616e73666572206f6620746f6b656e2074686174206960448201526839903737ba1037bbb760b91b6064820152608401610b50565b6001600160a01b0382166122505760405162461bcd60e51b8152602060048201526024808201527f4552433732313a207472616e7366657220746f20746865207a65726f206164646044820152637265737360e01b6064820152608401610b50565b61225b8383836123d6565b612266600082611ff4565b6001600160a01b038316600090815260036020526040812080546001929061228f908490613383565b90915550506001600160a01b03821660009081526003602052604081208054600192906122bd908490613412565b909155505060008181526002602052604080822080546001600160a01b0319166001600160a01b0386811691821790925591518493918716917fddf252ad1be2c89b69c2b068fc378daa952ba7f163c4a11628f55a4df523b3ef91a4505050565b600a80546001600160a01b038381166001600160a01b0319831681179093556040519116919082907f8be0079c531659141344cd1fd0a4f28419497f9722a3daafe3b4186f6b6457e090600090a35050565b61237b848484612173565b6123878484848461248e565b6119375760405162461bcd60e51b8152600401610b50906136a2565b6123ad838361258f565b6123ba600084848461248e565b610c855760405162461bcd60e51b8152600401610b50906136a2565b6001600160a01b0383166124315761242c81600880546000838152600960205260408120829055600182018355919091527ff3f7a9fe364faab93b216da50a3214154f22a0a2b415b23a84c8169e8b636ee30155565b612454565b816001600160a01b0316836001600160a01b0316146124545761245483826126dd565b6001600160a01b03821661246b57610c858161277a565b826001600160a01b0316826001600160a01b031614610c8557610c858282612829565b60006001600160a01b0384163b1561258457604051630a85bd0160e11b81526001600160a01b0385169063150b7a02906124d29033908990889088906004016136f4565b6020604051808303816000875af192505050801561250d575060408051601f3d908101601f1916820190925261250a91810190613731565b60015b61256a573d80801561253b576040519150601f19603f3d011682016040523d82523d6000602084013e612540565b606091505b5080516000036125625760405162461bcd60e51b8152600401610b50906136a2565b805181602001fd5b6001600160e01b031916630a85bd0160e11b149050611a95565b506001949350505050565b6001600160a01b0382166125e55760405162461bcd60e51b815260206004820181905260248201527f4552433732313a206d696e7420746f20746865207a65726f20616464726573736044820152606401610b50565b6000818152600260205260409020546001600160a01b03161561264a5760405162461bcd60e51b815260206004820152601c60248201527f4552433732313a20746f6b656e20616c7265616479206d696e746564000000006044820152606401610b50565b612656600083836123d6565b6001600160a01b038216600090815260036020526040812080546001929061267f908490613412565b909155505060008181526002602052604080822080546001600160a01b0319166001600160a01b03861690811790915590518392907fddf252ad1be2c89b69c2b068fc378daa952ba7f163c4a11628f55a4df523b3ef908290a45050565b600060016126ea846111f2565b6126f49190613383565b600083815260076020526040902054909150808214612747576001600160a01b03841660009081526006602090815260408083208584528252808320548484528184208190558352600790915290208190555b5060009182526007602090815260408084208490556001600160a01b039094168352600681528383209183525290812055565b60085460009061278c90600190613383565b600083815260096020526040812054600880549394509092849081106127b4576127b46135dd565b9060005260206000200154905080600883815481106127d5576127d56135dd565b600091825260208083209091019290925582815260099091526040808220849055858252812055600880548061280d5761280d61374e565b6001900381819060005260206000200160009055905550505050565b6000612834836111f2565b6001600160a01b039093166000908152600660209081526040808320868452825280832085905593825260079052919091209190915550565b604051806101c0016040528060008152602001600081526020016000815260200160008152602001600081526020016000815260200160008152602001600081526020016000815260200160008152602001600081526020016000815260200160008152602001600060038111156128e7576128e7612bff565b905290565b6001600160e01b0319811681146110e557600080fd5b60006020828403121561291457600080fd5b8135610a42816128ec565b634e487b7160e01b600052604160045260246000fd5b600067ffffffffffffffff808411156129505761295061291f565b604051601f8501601f19908116603f011681019082821181831017156129785761297861291f565b8160405280935085815286868601111561299157600080fd5b858560208301376000602087830101525050509392505050565b600082601f8301126129bc57600080fd5b610a4283833560208501612935565b600080604083850312156129de57600080fd5b82359150602083013567ffffffffffffffff8111156129fc57600080fd5b612a08858286016129ab565b9150509250929050565b60005b83811015612a2d578181015183820152602001612a15565b838111156119375750506000910152565b60008151808452612a56816020860160208601612a12565b601f01601f19169290920160200192915050565b602081526000610a426020830184612a3e565b600060208284031215612a8f57600080fd5b5035919050565b80356001600160a01b0381168114612aad57600080fd5b919050565b60008060408385031215612ac557600080fd5b612ace83612a96565b946020939093013593505050565b600080600060608486031215612af157600080fd5b612afa84612a96565b9250612b0860208501612a96565b9150604084013590509250925092565b600080600080600060a08688031215612b3057600080fd5b853567ffffffffffffffff811115612b4757600080fd5b612b53888289016129ab565b9860208801359850604088013597606081013597506080013595509350505050565b600060208284031215612b8757600080fd5b610a4282612a96565b600080600080600060a08688031215612ba857600080fd5b8535945060208601359350604086013560048110612bc557600080fd5b94979396509394606081013594506080013592915050565b60008060408385031215612bf057600080fd5b50508035926020909101359150565b634e487b7160e01b600052602160045260246000fd5b60048110612c3357634e487b7160e01b600052602160045260246000fd5b9052565b60006101c082019050825182526020830151602083015260408301516040830152606083015160608301526080830151608083015260a083015160a083015260c083015160c083015260e083015160e08301526101008084015181840152506101208084015181840152506101408084015181840152506101608084015181840152506101808084015181840152506101a080840151612cd982850182612c15565b505092915050565b60008060408385031215612cf457600080fd5b612cfd83612a96565b915060208301358015158114612d1257600080fd5b809150509250929050565b60008060008060808587031215612d3357600080fd5b612d3c85612a96565b9350612d4a60208601612a96565b925060408501359150606085013567ffffffffffffffff811115612d6d57600080fd5b8501601f81018713612d7e57600080fd5b612d8d87823560208401612935565b91505092959194509250565b60006101c0820190508f82528e60208301528d60408301528c60608301528b60808301528a60a08301528960c08301528860e08301528761010083015286610120830152856101408301528461016083015283610180830152612e006101a0830184612c15565b9f9e505050505050505050505050505050565b60006101208b83528a602084015289604084015288606084015260018060a01b03881660808401528660a08401528560c08401528460e084015280610100840152612e6081840185612a3e565b9c9b505050505050505050505050565b60008060408385031215612e8357600080fd5b612e8c83612a96565b9150612e9a60208401612a96565b90509250929050565b60008151612eb5818560208601612a12565b9290920192915050565b7f7b226465736372697074696f6e223a202257697a61726441726d79220000000081527f2c202265787465726e616c5f75726c223a202268747470733a2f2f77697a6172601c8201527f6461726d794e46542e636f6d20286f7220736f6d657468696e67206c696b6520603c820152653a3434b9949160d11b605c8201526b16101134b6b0b3b2911d101160a11b60628201528251600090612f6881606e850160208801612a12565b601160f91b606e91840191820152711610113730b6b2911d10112bb4bd30b9321160711b606f8201527f2c202261747472696275746573223a205b7b22646973706c61795f747970652260818201527f3a20226e756d626572222c202274726169745f74797065223a20226c6576656c60a18201526b0111610113b30b63ab2911d160a51b60c182015261301061300260cd830186612ea3565b61207d60f01b815260020190565b95945050505050565b6000855161302b818460208a01612a12565b80830190507f2c207b22646973706c61795f74797065223a20226e756d626572222c202274728082527f6169745f74797065223a20226870222c202276616c7565223a200000000000006020830152865161308d81603a850160208b01612a12565b61207d60f01b603a93909101928301819052603c83018290527f6169745f74797065223a20226d61676963616c20706f776572222c202276616c605c8401526403ab2911d160dd1b607c84015286516130ed816081860160208b01612a12565b608193019283015260838201527f6169745f74797065223a20226d61676963616c20646566656e7365222c20227660a382015266030b63ab2911d160cd1b60c382015261314061300260ca830186612ea3565b979650505050505050565b6000845161315d818460208901612a12565b80830190507f2c207b22646973706c61795f74797065223a20226e756d626572222c202274728082527f6169745f74797065223a20227370656564222c202276616c7565223a20000000602083015285516131bf81603d850160208a01612a12565b80830192505061207d60f01b80603d84015281603f8401527f6169745f74797065223a202277696e73222c202276616c7565223a2000000000605f8401528551915061321282607b850160208901612a12565b607b9290910191820152607d0195945050505050565b6000855161323a818460208a01612a12565b80830190507f2c207b22646973706c61795f74797065223a20226e756d626572222c202274728082527f6169745f74797065223a20226c6f73736573222c202276616c7565223a2000006020830152865161329c81603e850160208b01612a12565b80830192505061207d60f01b80603e8401528160408401527f6169745f74797065223a2022626174746c6573222c202276616c7565223a2000606084015286516132ed81607f860160208b01612a12565b607f93019283015260818201527f6169745f74797065223a2022746f6b656e73436c61696d6564222c202276616c60a18201526403ab2911d160dd1b60c182015261314061300260c6830186612ea3565b60008251613350818460208701612a12565b605d60f81b920191825250607d60f81b6001820152600201919050565b634e487b7160e01b600052601160045260246000fd5b6000828210156133955761339561336d565b500390565b634e487b7160e01b600052601260045260246000fd5b6000826133bf576133bf61339a565b500490565b600181811c908216806133d857607f821691505b6020821081036133f857634e487b7160e01b600052602260045260246000fd5b50919050565b60008261340d5761340d61339a565b500690565b600082198211156134255761342561336d565b500190565b60008160001904831182151516156134445761344461336d565b500290565b60208082526031908201527f4552433732313a207472616e736665722063616c6c6572206973206e6f74206f6040820152701ddb995c881b9bdc88185c1c1c9bdd9959607a1b606082015260800190565b6020808252818101527f4f776e61626c653a2063616c6c6572206973206e6f7420746865206f776e6572604082015260600190565b601f821115610c8557600081815260208120601f850160051c810160208610156134f65750805b601f850160051c820191505b8181101561351557828155600101613502565b505050505050565b815167ffffffffffffffff8111156135375761353761291f565b61354b8161354584546133c4565b846134cf565b602080601f83116001811461358057600084156135685750858301515b600019600386901b1c1916600185901b178555613515565b600085815260208120601f198616915b828110156135af57888601518255948401946001909101908401613590565b50858210156135cd5787850151600019600388901b60f8161c191681555b5050505050600190811b01905550565b634e487b7160e01b600052603260045260246000fd5b6000808454613601816133c4565b60018281168015613619576001811461362e5761365d565b60ff198416875282151583028701945061365d565b8860005260208060002060005b858110156136545781548a82015290840190820161363b565b50505082870194505b505050508351613671818360208801612a12565b632e6a706760e01b9101908152600401949350505050565b60006001820161369b5761369b61336d565b5060010190565b60208082526032908201527f4552433732313a207472616e7366657220746f206e6f6e20455243373231526560408201527131b2b4bb32b91034b6b83632b6b2b73a32b960711b606082015260800190565b6001600160a01b038581168252841660208201526040810183905260806060820181905260009061372790830184612a3e565b9695505050505050565b60006020828403121561374357600080fd5b8151610a42816128ec565b634e487b7160e01b600052603160045260246000fdfea264697066735822122028c02afc626e5aef587737b7adf4d764f1497d58389293c0c29f7dc6b5b0921e64736f6c634300080f0033",
  "bytecodeSha1": "ec6d5da1fe3e3f434c54d54e04eb68c725229579",
  "compiler": {
    "evm_version": "istanbul",
    "optimizer": {
      "enabled": true,
      "runs": 200
    },
    "version": "0.8.15+commit.e14f2714"
  },
  "contractName": "Wizards",
  "language": "Solidity",
  "natspec": {
    "kind": "dev",
    "methods": {
      "approve(address,uint256)": {
        "details": "See {IERC721-approve}."
      },
      "balanceOf(address)": {
        "details": "See {IERC721-balanceOf}."
      },
      "crush(uint256)": {
        "details": "uninitiate an NFT that is negligent in duties. Reward crusher"
      },
      "getApproved(uint256)": {
        "details": "See {IERC721-getApproved}."
      },
      "getIsDeserted(uint256)": {
        "details": "check if NFT is deserted--negligent in duties."
      },
      "getPhaseOf(uint256)": {
        "details": "Gets phase of NFT"
      },
      "initiate(uint256)": {
        "details": "Moves NFT from inactive to active"
      },
      "isApprovedForAll(address,address)": {
        "details": "See {IERC721-isApprovedForAll}."
      },
      "name()": {
        "details": "See {IERC721Metadata-name}."
      },
      "owner()": {
        "details": "Returns the address of the current owner."
      },
      "ownerOf(uint256)": {
        "details": "See {IERC721-ownerOf}."
      },
      "renounceOwnership()": {
        "details": "Leaves the contract without owner. It will not be possible to call `onlyOwner` functions anymore. Can only be called by the current owner. NOTE: Renouncing ownership will leave the contract without an owner, thereby removing any functionality that is only available to the owner."
      },
      "safeTransferFrom(address,address,uint256)": {
        "details": "See {IERC721-safeTransferFrom}."
      },
      "safeTransferFrom(address,address,uint256,bytes)": {
        "details": "See {IERC721-safeTransferFrom}."
      },
      "setApprovalForAll(address,bool)": {
        "details": "See {IERC721-setApprovalForAll}."
      },
      "supportsInterface(bytes4)": {
        "details": "See {IERC165-supportsInterface}."
      },
      "symbol()": {
        "details": "See {IERC721Metadata-symbol}."
      },
      "tokenByIndex(uint256)": {
        "details": "See {IERC721Enumerable-tokenByIndex}."
      },
      "tokenOfOwnerByIndex(address,uint256)": {
        "details": "See {IERC721Enumerable-tokenOfOwnerByIndex}."
      },
      "totalSupply()": {
        "details": "See {IERC721Enumerable-totalSupply}."
      },
      "transferFrom(address,address,uint256)": {
        "details": "See {IERC721-transferFrom}."
      },
      "transferOwnership(address)": {
        "details": "Transfers ownership of the contract to a new account (`newOwner`). Can only be called by the current owner."
      },
      "verifier()": {
        "notice": "contract address to update stats"
      },
      "verifyDuty(uint256,uint256)": {
        "details": "Verify duties of NFT. Not duty specific"
      }
    },
    "version": 1
  },
  "opcodes": "PUSH1 0x80 PUSH1 0x40 MSTORE PUSH1 0x4 CALLDATASIZE LT PUSH2 0x21A JUMPI PUSH1 0x0 CALLDATALOAD PUSH1 0xE0 SHR DUP1 PUSH4 0x715018A6 GT PUSH2 0x123 JUMPI DUP1 PUSH4 0xA22CB465 GT PUSH2 0xAB JUMPI DUP1 PUSH4 0xDB2A0A55 GT PUSH2 0x6F JUMPI DUP1 PUSH4 0xDB2A0A55 EQ PUSH2 0x6D6 JUMPI DUP1 PUSH4 0xE52E3249 EQ PUSH2 0x700 JUMPI DUP1 PUSH4 0xE8A77D17 EQ PUSH2 0x720 JUMPI DUP1 PUSH4 0xE985E9C5 EQ PUSH2 0x733 JUMPI DUP1 PUSH4 0xF2FDE38B EQ PUSH2 0x77C JUMPI PUSH1 0x0 DUP1 REVERT JUMPDEST DUP1 PUSH4 0xA22CB465 EQ PUSH2 0x5B0 JUMPI DUP1 PUSH4 0xB88D4FDE EQ PUSH2 0x5D0 JUMPI DUP1 PUSH4 0xBC0B0D88 EQ PUSH2 0x5F0 JUMPI DUP1 PUSH4 0xC87B56DD EQ PUSH2 0x610 JUMPI DUP1 PUSH4 0xC87BFC7F EQ PUSH2 0x630 JUMPI PUSH1 0x0 DUP1 REVERT JUMPDEST DUP1 PUSH4 0x8AD4D6A5 GT PUSH2 0xF2 JUMPI DUP1 PUSH4 0x8AD4D6A5 EQ PUSH2 0x510 JUMPI DUP1 PUSH4 0x8CB22518 EQ PUSH2 0x530 JUMPI DUP1 PUSH4 0x8DA5CB5B EQ PUSH2 0x55D JUMPI DUP1 PUSH4 0x95D89B41 EQ PUSH2 0x57B JUMPI DUP1 PUSH4 0x97FC007C EQ PUSH2 0x590 JUMPI PUSH1 0x0 DUP1 REVERT JUMPDEST DUP1 PUSH4 0x715018A6 EQ PUSH2 0x489 JUMPI DUP1 PUSH4 0x7901EA78 EQ PUSH2 0x49E JUMPI DUP1 PUSH4 0x8140BD0B EQ PUSH2 0x4BE JUMPI DUP1 PUSH4 0x82AFD23B EQ PUSH2 0x4DE JUMPI PUSH1 0x0 DUP1 REVERT JUMPDEST DUP1 PUSH4 0x23B872DD GT PUSH2 0x1A6 JUMPI DUP1 PUSH4 0x42842E0E GT PUSH2 0x175 JUMPI DUP1 PUSH4 0x42842E0E EQ PUSH2 0x3E9 JUMPI DUP1 PUSH4 0x437454B9 EQ PUSH2 0x409 JUMPI DUP1 PUSH4 0x4F6CCCE7 EQ PUSH2 0x429 JUMPI DUP1 PUSH4 0x6352211E EQ PUSH2 0x449 JUMPI DUP1 PUSH4 0x70A08231 EQ PUSH2 0x469 JUMPI PUSH1 0x0 DUP1 REVERT JUMPDEST DUP1 PUSH4 0x23B872DD EQ PUSH2 0x369 JUMPI DUP1 PUSH4 0x2B7AC3F3 EQ PUSH2 0x389 JUMPI DUP1 PUSH4 0x2F745C59 EQ PUSH2 0x3A9 JUMPI DUP1 PUSH4 0x3B6029CA EQ PUSH2 0x3C9 JUMPI PUSH1 0x0 DUP1 REVERT JUMPDEST DUP1 PUSH4 0x81812FC GT PUSH2 0x1ED JUMPI DUP1 PUSH4 0x81812FC EQ PUSH2 0x2C4 JUMPI DUP1 PUSH4 0x95EA7B3 EQ PUSH2 0x2FC JUMPI DUP1 PUSH4 0xA363D08 EQ PUSH2 0x31E JUMPI DUP1 PUSH4 0x1249C58B EQ PUSH2 0x33F JUMPI DUP1 PUSH4 0x18160DDD EQ PUSH2 0x354 JUMPI PUSH1 0x0 DUP1 REVERT JUMPDEST DUP1 PUSH4 0x1FFC9A7 EQ PUSH2 0x21F JUMPI DUP1 PUSH4 0x419E314 EQ PUSH2 0x254 JUMPI DUP1 PUSH4 0x5106353 EQ PUSH2 0x281 JUMPI DUP1 PUSH4 0x6FDDE03 EQ PUSH2 0x2AF JUMPI JUMPDEST PUSH1 0x0 DUP1 REVERT JUMPDEST CALLVALUE DUP1 ISZERO PUSH2 0x22B JUMPI PUSH1 0x0 DUP1 REVERT JUMPDEST POP PUSH2 0x23F PUSH2 0x23A CALLDATASIZE PUSH1 0x4 PUSH2 0x2902 JUMP JUMPDEST PUSH2 0x79C JUMP JUMPDEST PUSH1 0x40 MLOAD SWAP1 ISZERO ISZERO DUP2 MSTORE PUSH1 0x20 ADD JUMPDEST PUSH1 0x40 MLOAD DUP1 SWAP2 SUB SWAP1 RETURN JUMPDEST CALLVALUE DUP1 ISZERO PUSH2 0x260 JUMPI PUSH1 0x0 DUP1 REVERT JUMPDEST POP PUSH2 0x274 PUSH2 0x26F CALLDATASIZE PUSH1 0x4 PUSH2 0x29CB JUMP JUMPDEST PUSH2 0x7C7 JUMP JUMPDEST PUSH1 0x40 MLOAD PUSH2 0x24B SWAP2 SWAP1 PUSH2 0x2A6A JUMP JUMPDEST CALLVALUE DUP1 ISZERO PUSH2 0x28D JUMPI PUSH1 0x0 DUP1 REVERT JUMPDEST POP PUSH2 0x2A1 PUSH2 0x29C CALLDATASIZE PUSH1 0x4 PUSH2 0x2A7D JUMP JUMPDEST PUSH2 0x9DA JUMP JUMPDEST PUSH1 0x40 MLOAD SWAP1 DUP2 MSTORE PUSH1 0x20 ADD PUSH2 0x24B JUMP JUMPDEST CALLVALUE DUP1 ISZERO PUSH2 0x2BB JUMPI PUSH1 0x0 DUP1 REVERT JUMPDEST POP PUSH2 0x274 PUSH2 0xA49 JUMP JUMPDEST CALLVALUE DUP1 ISZERO PUSH2 0x2D0 JUMPI PUSH1 0x0 DUP1 REVERT JUMPDEST POP PUSH2 0x2E4 PUSH2 0x2DF CALLDATASIZE PUSH1 0x4 PUSH2 0x2A7D JUMP JUMPDEST PUSH2 0xADB JUMP JUMPDEST PUSH1 0x40 MLOAD PUSH1 0x1 PUSH1 0x1 PUSH1 0xA0 SHL SUB SWAP1 SWAP2 AND DUP2 MSTORE PUSH1 0x20 ADD PUSH2 0x24B JUMP JUMPDEST CALLVALUE DUP1 ISZERO PUSH2 0x308 JUMPI PUSH1 0x0 DUP1 REVERT JUMPDEST POP PUSH2 0x31C PUSH2 0x317 CALLDATASIZE PUSH1 0x4 PUSH2 0x2AB2 JUMP JUMPDEST PUSH2 0xB75 JUMP JUMPDEST STOP JUMPDEST CALLVALUE DUP1 ISZERO PUSH2 0x32A JUMPI PUSH1 0x0 DUP1 REVERT JUMPDEST POP PUSH2 0x23F PUSH2 0x339 CALLDATASIZE PUSH1 0x4 PUSH2 0x2A7D JUMP JUMPDEST POP PUSH1 0x0 SWAP1 JUMP JUMPDEST CALLVALUE DUP1 ISZERO PUSH2 0x34B JUMPI PUSH1 0x0 DUP1 REVERT JUMPDEST POP PUSH2 0x31C PUSH2 0xC8A JUMP JUMPDEST CALLVALUE DUP1 ISZERO PUSH2 0x360 JUMPI PUSH1 0x0 DUP1 REVERT JUMPDEST POP PUSH1 0x8 SLOAD PUSH2 0x2A1 JUMP JUMPDEST CALLVALUE DUP1 ISZERO PUSH2 0x375 JUMPI PUSH1 0x0 DUP1 REVERT JUMPDEST POP PUSH2 0x31C PUSH2 0x384 CALLDATASIZE PUSH1 0x4 PUSH2 0x2ADC JUMP JUMPDEST PUSH2 0xF78 JUMP JUMPDEST CALLVALUE DUP1 ISZERO PUSH2 0x395 JUMPI PUSH1 0x0 DUP1 REVERT JUMPDEST POP PUSH1 0xD SLOAD PUSH2 0x2E4 SWAP1 PUSH1 0x1 PUSH1 0x1 PUSH1 0xA0 SHL SUB AND DUP2 JUMP JUMPDEST CALLVALUE DUP1 ISZERO PUSH2 0x3B5 JUMPI PUSH1 0x0 DUP1 REVERT JUMPDEST POP PUSH2 0x2A1 PUSH2 0x3C4 CALLDATASIZE PUSH1 0x4 PUSH2 0x2AB2 JUMP JUMPDEST PUSH2 0xFA9 JUMP JUMPDEST CALLVALUE DUP1 ISZERO PUSH2 0x3D5 JUMPI PUSH1 0x0 DUP1 REVERT JUMPDEST POP PUSH2 0x31C PUSH2 0x3E4 CALLDATASIZE PUSH1 0x4 PUSH2 0x2B18 JUMP JUMPDEST PUSH2 0x103F JUMP JUMPDEST CALLVALUE DUP1 ISZERO PUSH2 0x3F5 JUMPI PUSH1 0x0 DUP1 REVERT JUMPDEST POP PUSH2 0x31C PUSH2 0x404 CALLDATASIZE PUSH1 0x4 PUSH2 0x2ADC JUMP JUMPDEST PUSH2 0x108B JUMP JUMPDEST CALLVALUE DUP1 ISZERO PUSH2 0x415 JUMPI PUSH1 0x0 DUP1 REVERT JUMPDEST POP PUSH2 0x31C PUSH2 0x424 CALLDATASIZE PUSH1 0x4 PUSH2 0x2A7D JUMP JUMPDEST PUSH2 0x10A6 JUMP JUMPDEST CALLVALUE DUP1 ISZERO PUSH2 0x435 JUMPI PUSH1 0x0 DUP1 REVERT JUMPDEST POP PUSH2 0x2A1 PUSH2 0x444 CALLDATASIZE PUSH1 0x4 PUSH2 0x2A7D JUMP JUMPDEST PUSH2 0x10E8 JUMP JUMPDEST CALLVALUE DUP1 ISZERO PUSH2 0x455 JUMPI PUSH1 0x0 DUP1 REVERT JUMPDEST POP PUSH2 0x2E4 PUSH2 0x464 CALLDATASIZE PUSH1 0x4 PUSH2 0x2A7D JUMP JUMPDEST PUSH2 0x117B JUMP JUMPDEST CALLVALUE DUP1 ISZERO PUSH2 0x475 JUMPI PUSH1 0x0 DUP1 REVERT JUMPDEST POP PUSH2 0x2A1 PUSH2 0x484 CALLDATASIZE PUSH1 0x4 PUSH2 0x2B75 JUMP JUMPDEST PUSH2 0x11F2 JUMP JUMPDEST CALLVALUE DUP1 ISZERO PUSH2 0x495 JUMPI PUSH1 0x0 DUP1 REVERT JUMPDEST POP PUSH2 0x31C PUSH2 0x1279 JUMP JUMPDEST CALLVALUE DUP1 ISZERO PUSH2 0x4AA JUMPI PUSH1 0x0 DUP1 REVERT JUMPDEST POP PUSH2 0x31C PUSH2 0x4B9 CALLDATASIZE PUSH1 0x4 PUSH2 0x2A7D JUMP JUMPDEST PUSH2 0x12AF JUMP JUMPDEST CALLVALUE DUP1 ISZERO PUSH2 0x4CA JUMPI PUSH1 0x0 DUP1 REVERT JUMPDEST POP PUSH2 0x31C PUSH2 0x4D9 CALLDATASIZE PUSH1 0x4 PUSH2 0x2B90 JUMP JUMPDEST PUSH2 0x13BD JUMP JUMPDEST CALLVALUE DUP1 ISZERO PUSH2 0x4EA JUMPI PUSH1 0x0 DUP1 REVERT JUMPDEST POP PUSH2 0x23F PUSH2 0x4F9 CALLDATASIZE PUSH1 0x4 PUSH2 0x2A7D JUMP JUMPDEST PUSH1 0x0 SWAP1 DUP2 MSTORE PUSH1 0xB PUSH1 0x20 MSTORE PUSH1 0x40 SWAP1 KECCAK256 PUSH1 0xC ADD SLOAD TIMESTAMP LT SWAP1 JUMP JUMPDEST CALLVALUE DUP1 ISZERO PUSH2 0x51C JUMPI PUSH1 0x0 DUP1 REVERT JUMPDEST POP PUSH2 0x31C PUSH2 0x52B CALLDATASIZE PUSH1 0x4 PUSH2 0x2BDD JUMP JUMPDEST PUSH2 0x1525 JUMP JUMPDEST CALLVALUE DUP1 ISZERO PUSH2 0x53C JUMPI PUSH1 0x0 DUP1 REVERT JUMPDEST POP PUSH2 0x550 PUSH2 0x54B CALLDATASIZE PUSH1 0x4 PUSH2 0x2A7D JUMP JUMPDEST PUSH2 0x15B8 JUMP JUMPDEST PUSH1 0x40 MLOAD PUSH2 0x24B SWAP2 SWAP1 PUSH2 0x2C37 JUMP JUMPDEST CALLVALUE DUP1 ISZERO PUSH2 0x569 JUMPI PUSH1 0x0 DUP1 REVERT JUMPDEST POP PUSH1 0xA SLOAD PUSH1 0x1 PUSH1 0x1 PUSH1 0xA0 SHL SUB AND PUSH2 0x2E4 JUMP JUMPDEST CALLVALUE DUP1 ISZERO PUSH2 0x587 JUMPI PUSH1 0x0 DUP1 REVERT JUMPDEST POP PUSH2 0x274 PUSH2 0x1746 JUMP JUMPDEST CALLVALUE DUP1 ISZERO PUSH2 0x59C JUMPI PUSH1 0x0 DUP1 REVERT JUMPDEST POP PUSH2 0x31C PUSH2 0x5AB CALLDATASIZE PUSH1 0x4 PUSH2 0x2B75 JUMP JUMPDEST PUSH2 0x1755 JUMP JUMPDEST CALLVALUE DUP1 ISZERO PUSH2 0x5BC JUMPI PUSH1 0x0 DUP1 REVERT JUMPDEST POP PUSH2 0x31C PUSH2 0x5CB CALLDATASIZE PUSH1 0x4 PUSH2 0x2CE1 JUMP JUMPDEST PUSH2 0x1841 JUMP JUMPDEST CALLVALUE DUP1 ISZERO PUSH2 0x5DC JUMPI PUSH1 0x0 DUP1 REVERT JUMPDEST POP PUSH2 0x31C PUSH2 0x5EB CALLDATASIZE PUSH1 0x4 PUSH2 0x2D1D JUMP JUMPDEST PUSH2 0x1905 JUMP JUMPDEST CALLVALUE DUP1 ISZERO PUSH2 0x5FC JUMPI PUSH1 0x0 DUP1 REVERT JUMPDEST POP PUSH1 0xC SLOAD PUSH2 0x2E4 SWAP1 PUSH1 0x1 PUSH1 0x1 PUSH1 0xA0 SHL SUB AND DUP2 JUMP JUMPDEST CALLVALUE DUP1 ISZERO PUSH2 0x61C JUMPI PUSH1 0x0 DUP1 REVERT JUMPDEST POP PUSH2 0x274 PUSH2 0x62B CALLDATASIZE PUSH1 0x4 PUSH2 0x2A7D JUMP JUMPDEST PUSH2 0x193D JUMP JUMPDEST CALLVALUE DUP1 ISZERO PUSH2 0x63C JUMPI PUSH1 0x0 DUP1 REVERT JUMPDEST POP PUSH2 0x6BC PUSH2 0x64B CALLDATASIZE PUSH1 0x4 PUSH2 0x2A7D JUMP JUMPDEST PUSH1 0xB PUSH1 0x20 DUP2 SWAP1 MSTORE PUSH1 0x0 SWAP2 DUP3 MSTORE PUSH1 0x40 SWAP1 SWAP2 KECCAK256 DUP1 SLOAD PUSH1 0x1 DUP3 ADD SLOAD PUSH1 0x2 DUP4 ADD SLOAD PUSH1 0x3 DUP5 ADD SLOAD PUSH1 0x4 DUP6 ADD SLOAD PUSH1 0x5 DUP7 ADD SLOAD PUSH1 0x6 DUP8 ADD SLOAD PUSH1 0x7 DUP9 ADD SLOAD PUSH1 0x8 DUP10 ADD SLOAD PUSH1 0x9 DUP11 ADD SLOAD PUSH1 0xA DUP12 ADD SLOAD SWAP12 DUP12 ADD SLOAD PUSH1 0xC DUP13 ADD SLOAD PUSH1 0xD SWAP1 SWAP13 ADD SLOAD SWAP11 SWAP13 SWAP10 SWAP12 SWAP9 SWAP11 SWAP8 SWAP10 SWAP7 SWAP9 SWAP6 SWAP8 SWAP5 SWAP7 SWAP4 SWAP6 SWAP3 SWAP5 SWAP2 SWAP4 SWAP3 SWAP1 SWAP2 PUSH1 0xFF AND DUP15 JUMP JUMPDEST PUSH1 0x40 MLOAD PUSH2 0x24B SWAP15 SWAP14 SWAP13 SWAP12 SWAP11 SWAP10 SWAP9 SWAP8 SWAP7 SWAP6 SWAP5 SWAP4 SWAP3 SWAP2 SWAP1 PUSH2 0x2D99 JUMP JUMPDEST CALLVALUE DUP1 ISZERO PUSH2 0x6E2 JUMPI PUSH1 0x0 DUP1 REVERT JUMPDEST POP PUSH2 0x6EB PUSH2 0x1A9D JUMP JUMPDEST PUSH1 0x40 MLOAD PUSH2 0x24B SWAP10 SWAP9 SWAP8 SWAP7 SWAP6 SWAP5 SWAP4 SWAP3 SWAP2 SWAP1 PUSH2 0x2E13 JUMP JUMPDEST CALLVALUE DUP1 ISZERO PUSH2 0x70C JUMPI PUSH1 0x0 DUP1 REVERT JUMPDEST POP PUSH2 0x31C PUSH2 0x71B CALLDATASIZE PUSH1 0x4 PUSH2 0x2B75 JUMP JUMPDEST PUSH2 0x1B60 JUMP JUMPDEST PUSH2 0x31C PUSH2 0x72E CALLDATASIZE PUSH1 0x4 PUSH2 0x2A7D JUMP JUMPDEST PUSH2 0x1C45 JUMP JUMPDEST CALLVALUE DUP1 ISZERO PUSH2 0x73F JUMPI PUSH1 0x0 DUP1 REVERT JUMPDEST POP PUSH2 0x23F PUSH2 0x74E CALLDATASIZE PUSH1 0x4 PUSH2 0x2E70 JUMP JUMPDEST PUSH1 0x1 PUSH1 0x1 PUSH1 0xA0 SHL SUB SWAP2 DUP3 AND PUSH1 0x0 SWAP1 DUP2 MSTORE PUSH1 0x5 PUSH1 0x20 SWAP1 DUP2 MSTORE PUSH1 0x40 DUP1 DUP4 KECCAK256 SWAP4 SWAP1 SWAP5 AND DUP3 MSTORE SWAP2 SWAP1 SWAP2 MSTORE KECCAK256 SLOAD PUSH1 0xFF AND SWAP1 JUMP JUMPDEST CALLVALUE DUP1 ISZERO PUSH2 0x788 JUMPI PUSH1 0x0 DUP1 REVERT JUMPDEST POP PUSH2 0x31C PUSH2 0x797 CALLDATASIZE PUSH1 0x4 PUSH2 0x2B75 JUMP JUMPDEST PUSH2 0x1E0B JUMP JUMPDEST PUSH1 0x0 PUSH1 0x1 PUSH1 0x1 PUSH1 0xE0 SHL SUB NOT DUP3 AND PUSH4 0x780E9D63 PUSH1 0xE0 SHL EQ DUP1 PUSH2 0x7C1 JUMPI POP PUSH2 0x7C1 DUP3 PUSH2 0x1EA3 JUMP JUMPDEST SWAP3 SWAP2 POP POP JUMP JUMPDEST PUSH1 0x60 PUSH1 0x0 PUSH1 0xB PUSH1 0x0 DUP6 DUP2 MSTORE PUSH1 0x20 ADD SWAP1 DUP2 MSTORE PUSH1 0x20 ADD PUSH1 0x0 KECCAK256 PUSH1 0x40 MLOAD DUP1 PUSH2 0x1C0 ADD PUSH1 0x40 MSTORE SWAP1 DUP2 PUSH1 0x0 DUP3 ADD SLOAD DUP2 MSTORE PUSH1 0x20 ADD PUSH1 0x1 DUP3 ADD SLOAD DUP2 MSTORE PUSH1 0x20 ADD PUSH1 0x2 DUP3 ADD SLOAD DUP2 MSTORE PUSH1 0x20 ADD PUSH1 0x3 DUP3 ADD SLOAD DUP2 MSTORE PUSH1 0x20 ADD PUSH1 0x4 DUP3 ADD SLOAD DUP2 MSTORE PUSH1 0x20 ADD PUSH1 0x5 DUP3 ADD SLOAD DUP2 MSTORE PUSH1 0x20 ADD PUSH1 0x6 DUP3 ADD SLOAD DUP2 MSTORE PUSH1 0x20 ADD PUSH1 0x7 DUP3 ADD SLOAD DUP2 MSTORE PUSH1 0x20 ADD PUSH1 0x8 DUP3 ADD SLOAD DUP2 MSTORE PUSH1 0x20 ADD PUSH1 0x9 DUP3 ADD SLOAD DUP2 MSTORE PUSH1 0x20 ADD PUSH1 0xA DUP3 ADD SLOAD DUP2 MSTORE PUSH1 0x20 ADD PUSH1 0xB DUP3 ADD SLOAD DUP2 MSTORE PUSH1 0x20 ADD PUSH1 0xC DUP3 ADD SLOAD DUP2 MSTORE PUSH1 0x20 ADD PUSH1 0xD DUP3 ADD PUSH1 0x0 SWAP1 SLOAD SWAP1 PUSH2 0x100 EXP SWAP1 DIV PUSH1 0xFF AND PUSH1 0x3 DUP2 GT ISZERO PUSH2 0x890 JUMPI PUSH2 0x890 PUSH2 0x2BFF JUMP JUMPDEST PUSH1 0x3 DUP2 GT ISZERO PUSH2 0x8A1 JUMPI PUSH2 0x8A1 PUSH2 0x2BFF JUMP JUMPDEST DUP2 MSTORE POP POP SWAP1 POP PUSH1 0x0 DUP4 PUSH2 0x8B7 DUP4 PUSH1 0x0 ADD MLOAD PUSH2 0x1EF3 JUMP JUMPDEST PUSH1 0x40 MLOAD PUSH1 0x20 ADD PUSH2 0x8C8 SWAP3 SWAP2 SWAP1 PUSH2 0x2EBF JUMP JUMPDEST PUSH1 0x40 MLOAD PUSH1 0x20 DUP2 DUP4 SUB SUB DUP2 MSTORE SWAP1 PUSH1 0x40 MSTORE SWAP1 POP DUP1 PUSH2 0x8E7 DUP4 PUSH1 0x20 ADD MLOAD PUSH2 0x1EF3 JUMP JUMPDEST PUSH2 0x8F4 DUP5 PUSH1 0x40 ADD MLOAD PUSH2 0x1EF3 JUMP JUMPDEST PUSH2 0x901 DUP6 PUSH1 0x60 ADD MLOAD PUSH2 0x1EF3 JUMP JUMPDEST PUSH1 0x40 MLOAD PUSH1 0x20 ADD PUSH2 0x914 SWAP5 SWAP4 SWAP3 SWAP2 SWAP1 PUSH2 0x3019 JUMP JUMPDEST PUSH1 0x40 MLOAD PUSH1 0x20 DUP2 DUP4 SUB SUB DUP2 MSTORE SWAP1 PUSH1 0x40 MSTORE SWAP1 POP DUP1 PUSH2 0x933 DUP4 PUSH1 0x80 ADD MLOAD PUSH2 0x1EF3 JUMP JUMPDEST PUSH2 0x940 DUP5 PUSH1 0xA0 ADD MLOAD PUSH2 0x1EF3 JUMP JUMPDEST PUSH1 0x40 MLOAD PUSH1 0x20 ADD PUSH2 0x952 SWAP4 SWAP3 SWAP2 SWAP1 PUSH2 0x314B JUMP JUMPDEST PUSH1 0x40 MLOAD PUSH1 0x20 DUP2 DUP4 SUB SUB DUP2 MSTORE SWAP1 PUSH1 0x40 MSTORE SWAP1 POP DUP1 PUSH2 0x971 DUP4 PUSH1 0xC0 ADD MLOAD PUSH2 0x1EF3 JUMP JUMPDEST PUSH2 0x97E DUP5 PUSH1 0xE0 ADD MLOAD PUSH2 0x1EF3 JUMP JUMPDEST PUSH2 0x98C DUP6 PUSH2 0x100 ADD MLOAD PUSH2 0x1EF3 JUMP JUMPDEST PUSH1 0x40 MLOAD PUSH1 0x20 ADD PUSH2 0x99F SWAP5 SWAP4 SWAP3 SWAP2 SWAP1 PUSH2 0x3228 JUMP JUMPDEST PUSH1 0x40 MLOAD PUSH1 0x20 DUP2 DUP4 SUB SUB DUP2 MSTORE SWAP1 PUSH1 0x40 MSTORE SWAP1 POP DUP1 PUSH1 0x40 MLOAD PUSH1 0x20 ADD PUSH2 0x9C1 SWAP2 SWAP1 PUSH2 0x333E JUMP JUMPDEST PUSH1 0x40 DUP1 MLOAD DUP1 DUP4 SUB PUSH1 0x1F NOT ADD DUP2 MSTORE SWAP2 SWAP1 MSTORE SWAP6 SWAP5 POP POP POP POP POP JUMP JUMPDEST PUSH1 0x13 SLOAD PUSH1 0x0 DUP3 DUP2 MSTORE PUSH1 0xB PUSH1 0x20 DUP2 SWAP1 MSTORE PUSH1 0x40 DUP3 KECCAK256 ADD SLOAD SWAP1 SWAP2 DUP3 SWAP2 PUSH1 0x7 SWAP2 SWAP1 PUSH2 0xA01 SWAP1 TIMESTAMP PUSH2 0x3383 JUMP JUMPDEST PUSH2 0xA0B SWAP2 SWAP1 PUSH2 0x33B0 JUMP JUMPDEST GT PUSH2 0xA3F JUMPI PUSH1 0x13 SLOAD PUSH1 0x0 DUP5 DUP2 MSTORE PUSH1 0xB PUSH1 0x20 DUP2 SWAP1 MSTORE PUSH1 0x40 SWAP1 SWAP2 KECCAK256 ADD SLOAD PUSH2 0xA30 SWAP1 TIMESTAMP PUSH2 0x3383 JUMP JUMPDEST PUSH2 0xA3A SWAP2 SWAP1 PUSH2 0x33B0 JUMP JUMPDEST PUSH2 0xA42 JUMP JUMPDEST PUSH1 0x7 JUMPDEST SWAP4 SWAP3 POP POP POP JUMP JUMPDEST PUSH1 0x60 PUSH1 0x0 DUP1 SLOAD PUSH2 0xA58 SWAP1 PUSH2 0x33C4 JUMP JUMPDEST DUP1 PUSH1 0x1F ADD PUSH1 0x20 DUP1 SWAP2 DIV MUL PUSH1 0x20 ADD PUSH1 0x40 MLOAD SWAP1 DUP2 ADD PUSH1 0x40 MSTORE DUP1 SWAP3 SWAP2 SWAP1 DUP2 DUP2 MSTORE PUSH1 0x20 ADD DUP3 DUP1 SLOAD PUSH2 0xA84 SWAP1 PUSH2 0x33C4 JUMP JUMPDEST DUP1 ISZERO PUSH2 0xAD1 JUMPI DUP1 PUSH1 0x1F LT PUSH2 0xAA6 JUMPI PUSH2 0x100 DUP1 DUP4 SLOAD DIV MUL DUP4 MSTORE SWAP2 PUSH1 0x20 ADD SWAP2 PUSH2 0xAD1 JUMP JUMPDEST DUP3 ADD SWAP2 SWAP1 PUSH1 0x0 MSTORE PUSH1 0x20 PUSH1 0x0 KECCAK256 SWAP1 JUMPDEST DUP2 SLOAD DUP2 MSTORE SWAP1 PUSH1 0x1 ADD SWAP1 PUSH1 0x20 ADD DUP1 DUP4 GT PUSH2 0xAB4 JUMPI DUP3 SWAP1 SUB PUSH1 0x1F AND DUP3 ADD SWAP2 JUMPDEST POP POP POP POP POP SWAP1 POP SWAP1 JUMP JUMPDEST PUSH1 0x0 DUP2 DUP2 MSTORE PUSH1 0x2 PUSH1 0x20 MSTORE PUSH1 0x40 DUP2 KECCAK256 SLOAD PUSH1 0x1 PUSH1 0x1 PUSH1 0xA0 SHL SUB AND PUSH2 0xB59 JUMPI PUSH1 0x40 MLOAD PUSH3 0x461BCD PUSH1 0xE5 SHL DUP2 MSTORE PUSH1 0x20 PUSH1 0x4 DUP3 ADD MSTORE PUSH1 0x2C PUSH1 0x24 DUP3 ADD MSTORE PUSH32 0x4552433732313A20617070726F76656420717565727920666F72206E6F6E6578 PUSH1 0x44 DUP3 ADD MSTORE PUSH12 0x34B9BA32B73A103A37B5B2B7 PUSH1 0xA1 SHL PUSH1 0x64 DUP3 ADD MSTORE PUSH1 0x84 ADD JUMPDEST PUSH1 0x40 MLOAD DUP1 SWAP2 SUB SWAP1 REVERT JUMPDEST POP PUSH1 0x0 SWAP1 DUP2 MSTORE PUSH1 0x4 PUSH1 0x20 MSTORE PUSH1 0x40 SWAP1 KECCAK256 SLOAD PUSH1 0x1 PUSH1 0x1 PUSH1 0xA0 SHL SUB AND SWAP1 JUMP JUMPDEST PUSH1 0x0 PUSH2 0xB80 DUP3 PUSH2 0x117B JUMP JUMPDEST SWAP1 POP DUP1 PUSH1 0x1 PUSH1 0x1 PUSH1 0xA0 SHL SUB AND DUP4 PUSH1 0x1 PUSH1 0x1 PUSH1 0xA0 SHL SUB AND SUB PUSH2 0xBED JUMPI PUSH1 0x40 MLOAD PUSH3 0x461BCD PUSH1 0xE5 SHL DUP2 MSTORE PUSH1 0x20 PUSH1 0x4 DUP3 ADD MSTORE PUSH1 0x21 PUSH1 0x24 DUP3 ADD MSTORE PUSH32 0x4552433732313A20617070726F76616C20746F2063757272656E74206F776E65 PUSH1 0x44 DUP3 ADD MSTORE PUSH1 0x39 PUSH1 0xF9 SHL PUSH1 0x64 DUP3 ADD MSTORE PUSH1 0x84 ADD PUSH2 0xB50 JUMP JUMPDEST CALLER PUSH1 0x1 PUSH1 0x1 PUSH1 0xA0 SHL SUB DUP3 AND EQ DUP1 PUSH2 0xC09 JUMPI POP PUSH2 0xC09 DUP2 CALLER PUSH2 0x74E JUMP JUMPDEST PUSH2 0xC7B JUMPI PUSH1 0x40 MLOAD PUSH3 0x461BCD PUSH1 0xE5 SHL DUP2 MSTORE PUSH1 0x20 PUSH1 0x4 DUP3 ADD MSTORE PUSH1 0x38 PUSH1 0x24 DUP3 ADD MSTORE PUSH32 0x4552433732313A20617070726F76652063616C6C6572206973206E6F74206F77 PUSH1 0x44 DUP3 ADD MSTORE PUSH32 0x6E6572206E6F7220617070726F76656420666F7220616C6C0000000000000000 PUSH1 0x64 DUP3 ADD MSTORE PUSH1 0x84 ADD PUSH2 0xB50 JUMP JUMPDEST PUSH2 0xC85 DUP4 DUP4 PUSH2 0x1FF4 JUMP JUMPDEST POP POP POP JUMP JUMPDEST PUSH1 0x10 SLOAD PUSH1 0x8 SLOAD LT PUSH2 0xCCE JUMPI PUSH1 0x40 MLOAD PUSH3 0x461BCD PUSH1 0xE5 SHL DUP2 MSTORE PUSH1 0x20 PUSH1 0x4 DUP3 ADD MSTORE PUSH1 0xE PUSH1 0x24 DUP3 ADD MSTORE PUSH14 0x30BA1036B0BC1039BAB838363C97 PUSH1 0x91 SHL PUSH1 0x44 DUP3 ADD MSTORE PUSH1 0x64 ADD PUSH2 0xB50 JUMP JUMPDEST PUSH1 0x0 PUSH2 0xCD9 PUSH1 0x8 SLOAD SWAP1 JUMP JUMPDEST PUSH1 0x40 DUP1 MLOAD PUSH1 0x20 DUP2 ADD SWAP3 SWAP1 SWAP3 MSTORE PUSH12 0xFFFFFFFFFFFFFFFFFFFFFFFF NOT CALLER PUSH1 0x60 SHL AND SWAP1 DUP3 ADD MSTORE TIMESTAMP PUSH1 0x54 DUP3 ADD MSTORE PUSH1 0x74 ADD PUSH1 0x40 DUP1 MLOAD PUSH1 0x1F NOT DUP2 DUP5 SUB ADD DUP2 MSTORE SWAP2 SWAP1 MSTORE DUP1 MLOAD PUSH1 0x20 SWAP1 SWAP2 ADD KECCAK256 SWAP1 POP PUSH1 0x0 PUSH2 0xD2C PUSH1 0x1A DUP4 PUSH2 0x33FE JUMP JUMPDEST PUSH2 0xD37 SWAP1 PUSH1 0x19 PUSH2 0x3412 JUMP JUMPDEST SWAP1 POP PUSH1 0x0 PUSH1 0x1A PUSH2 0xD48 PUSH1 0x64 DUP6 PUSH2 0x33B0 JUMP JUMPDEST PUSH2 0xD52 SWAP2 SWAP1 PUSH2 0x33FE JUMP JUMPDEST PUSH2 0xD5D SWAP1 PUSH1 0x19 PUSH2 0x3412 JUMP JUMPDEST SWAP1 POP PUSH1 0x0 PUSH1 0xA PUSH2 0xD6D DUP2 DUP7 PUSH2 0x33B0 JUMP JUMPDEST PUSH2 0xD78 SWAP1 PUSH1 0x4 PUSH2 0x342A JUMP JUMPDEST PUSH2 0xD82 SWAP2 SWAP1 PUSH2 0x33FE JUMP JUMPDEST PUSH2 0xD8D SWAP1 PUSH1 0xA PUSH2 0x3412 JUMP JUMPDEST SWAP1 POP PUSH1 0x0 PUSH1 0xA PUSH2 0xD9D DUP2 DUP8 PUSH2 0x33B0 JUMP JUMPDEST PUSH2 0xDA8 SWAP1 PUSH1 0x5 PUSH2 0x342A JUMP JUMPDEST PUSH2 0xDB2 SWAP2 SWAP1 PUSH2 0x33FE JUMP JUMPDEST PUSH2 0xDBD SWAP1 PUSH1 0xA PUSH2 0x3412 JUMP JUMPDEST SWAP1 POP PUSH1 0x0 PUSH1 0x4 PUSH2 0xDCE PUSH1 0xA DUP9 PUSH2 0x33B0 JUMP JUMPDEST PUSH2 0xDD9 SWAP1 PUSH1 0x6 PUSH2 0x342A JUMP JUMPDEST PUSH2 0xDE3 SWAP2 SWAP1 PUSH2 0x33FE JUMP JUMPDEST PUSH1 0x3 DUP2 GT ISZERO PUSH2 0xDF4 JUMPI PUSH2 0xDF4 PUSH2 0x2BFF JUMP JUMPDEST SWAP1 POP PUSH1 0x0 PUSH1 0x40 MLOAD DUP1 PUSH2 0x1C0 ADD PUSH1 0x40 MSTORE DUP1 PUSH1 0x1 DUP2 MSTORE PUSH1 0x20 ADD DUP8 DUP2 MSTORE PUSH1 0x20 ADD DUP7 DUP2 MSTORE PUSH1 0x20 ADD DUP6 DUP2 MSTORE PUSH1 0x20 ADD DUP5 DUP2 MSTORE PUSH1 0x20 ADD PUSH1 0x0 DUP2 MSTORE PUSH1 0x20 ADD PUSH1 0x0 DUP2 MSTORE PUSH1 0x20 ADD PUSH1 0x0 DUP2 MSTORE PUSH1 0x20 ADD PUSH1 0x0 DUP2 MSTORE PUSH1 0x20 ADD PUSH1 0x0 DUP2 MSTORE PUSH1 0x20 ADD PUSH1 0x0 DUP2 MSTORE PUSH1 0x20 ADD PUSH1 0x0 DUP2 MSTORE PUSH1 0x20 ADD PUSH1 0x0 DUP2 MSTORE PUSH1 0x20 ADD DUP4 PUSH1 0x3 DUP2 GT ISZERO PUSH2 0xE6D JUMPI PUSH2 0xE6D PUSH2 0x2BFF JUMP JUMPDEST SWAP1 MSTORE SWAP1 POP DUP1 PUSH1 0xB PUSH1 0x0 PUSH2 0xE7F PUSH1 0x8 SLOAD SWAP1 JUMP JUMPDEST PUSH2 0xE8A SWAP1 PUSH1 0x1 PUSH2 0x3412 JUMP JUMPDEST DUP2 MSTORE PUSH1 0x20 ADD SWAP1 DUP2 MSTORE PUSH1 0x20 ADD PUSH1 0x0 KECCAK256 PUSH1 0x0 DUP3 ADD MLOAD DUP2 PUSH1 0x0 ADD SSTORE PUSH1 0x20 DUP3 ADD MLOAD DUP2 PUSH1 0x1 ADD SSTORE PUSH1 0x40 DUP3 ADD MLOAD DUP2 PUSH1 0x2 ADD SSTORE PUSH1 0x60 DUP3 ADD MLOAD DUP2 PUSH1 0x3 ADD SSTORE PUSH1 0x80 DUP3 ADD MLOAD DUP2 PUSH1 0x4 ADD SSTORE PUSH1 0xA0 DUP3 ADD MLOAD DUP2 PUSH1 0x5 ADD SSTORE PUSH1 0xC0 DUP3 ADD MLOAD DUP2 PUSH1 0x6 ADD SSTORE PUSH1 0xE0 DUP3 ADD MLOAD DUP2 PUSH1 0x7 ADD SSTORE PUSH2 0x100 DUP3 ADD MLOAD DUP2 PUSH1 0x8 ADD SSTORE PUSH2 0x120 DUP3 ADD MLOAD DUP2 PUSH1 0x9 ADD SSTORE PUSH2 0x140 DUP3 ADD MLOAD DUP2 PUSH1 0xA ADD SSTORE PUSH2 0x160 DUP3 ADD MLOAD DUP2 PUSH1 0xB ADD SSTORE PUSH2 0x180 DUP3 ADD MLOAD DUP2 PUSH1 0xC ADD SSTORE PUSH2 0x1A0 DUP3 ADD MLOAD DUP2 PUSH1 0xD ADD PUSH1 0x0 PUSH2 0x100 EXP DUP2 SLOAD DUP2 PUSH1 0xFF MUL NOT AND SWAP1 DUP4 PUSH1 0x3 DUP2 GT ISZERO PUSH2 0xF4A JUMPI PUSH2 0xF4A PUSH2 0x2BFF JUMP JUMPDEST MUL OR SWAP1 SSTORE POP SWAP1 POP POP PUSH2 0xF6F CALLER PUSH2 0xF5F PUSH1 0x8 SLOAD SWAP1 JUMP JUMPDEST PUSH2 0xF6A SWAP1 PUSH1 0x1 PUSH2 0x3412 JUMP JUMPDEST PUSH2 0x2062 JUMP JUMPDEST POP POP POP POP POP POP POP JUMP JUMPDEST PUSH2 0xF82 CALLER DUP3 PUSH2 0x2080 JUMP JUMPDEST PUSH2 0xF9E JUMPI PUSH1 0x40 MLOAD PUSH3 0x461BCD PUSH1 0xE5 SHL DUP2 MSTORE PUSH1 0x4 ADD PUSH2 0xB50 SWAP1 PUSH2 0x3449 JUMP JUMPDEST PUSH2 0xC85 DUP4 DUP4 DUP4 PUSH2 0x2173 JUMP JUMPDEST PUSH1 0x0 PUSH2 0xFB4 DUP4 PUSH2 0x11F2 JUMP JUMPDEST DUP3 LT PUSH2 0x1016 JUMPI PUSH1 0x40 MLOAD PUSH3 0x461BCD PUSH1 0xE5 SHL DUP2 MSTORE PUSH1 0x20 PUSH1 0x4 DUP3 ADD MSTORE PUSH1 0x2B PUSH1 0x24 DUP3 ADD MSTORE PUSH32 0x455243373231456E756D657261626C653A206F776E657220696E646578206F75 PUSH1 0x44 DUP3 ADD MSTORE PUSH11 0x74206F6620626F756E6473 PUSH1 0xA8 SHL PUSH1 0x64 DUP3 ADD MSTORE PUSH1 0x84 ADD PUSH2 0xB50 JUMP JUMPDEST POP PUSH1 0x1 PUSH1 0x1 PUSH1 0xA0 SHL SUB SWAP2 SWAP1 SWAP2 AND PUSH1 0x0 SWAP1 DUP2 MSTORE PUSH1 0x6 PUSH1 0x20 SWAP1 DUP2 MSTORE PUSH1 0x40 DUP1 DUP4 KECCAK256 SWAP4 DUP4 MSTORE SWAP3 SWAP1 MSTORE KECCAK256 SLOAD SWAP1 JUMP JUMPDEST PUSH1 0xA SLOAD PUSH1 0x1 PUSH1 0x1 PUSH1 0xA0 SHL SUB AND CALLER EQ PUSH2 0x1069 JUMPI PUSH1 0x40 MLOAD PUSH3 0x461BCD PUSH1 0xE5 SHL DUP2 MSTORE PUSH1 0x4 ADD PUSH2 0xB50 SWAP1 PUSH2 0x349A JUMP JUMPDEST PUSH1 0x16 PUSH2 0x1075 DUP7 DUP3 PUSH2 0x351D JUMP JUMPDEST POP PUSH1 0x13 SWAP4 SWAP1 SWAP4 SSTORE PUSH1 0x11 SWAP2 SWAP1 SWAP2 SSTORE PUSH1 0xE SSTORE PUSH1 0xF SSTORE POP JUMP JUMPDEST PUSH2 0xC85 DUP4 DUP4 DUP4 PUSH1 0x40 MLOAD DUP1 PUSH1 0x20 ADD PUSH1 0x40 MSTORE DUP1 PUSH1 0x0 DUP2 MSTORE POP PUSH2 0x1905 JUMP JUMPDEST ADDRESS CALLER SUB PUSH2 0x10E5 JUMPI PUSH1 0x40 MLOAD PUSH3 0x461BCD PUSH1 0xE5 SHL DUP2 MSTORE PUSH1 0x20 PUSH1 0x4 DUP3 ADD MSTORE PUSH1 0xD PUSH1 0x24 DUP3 ADD MSTORE PUSH13 0x37B7363C903B32B934B334B2B9 PUSH1 0x99 SHL PUSH1 0x44 DUP3 ADD MSTORE PUSH1 0x64 ADD PUSH2 0xB50 JUMP JUMPDEST POP JUMP JUMPDEST PUSH1 0x0 PUSH2 0x10F3 PUSH1 0x8 SLOAD SWAP1 JUMP JUMPDEST DUP3 LT PUSH2 0x1156 JUMPI PUSH1 0x40 MLOAD PUSH3 0x461BCD PUSH1 0xE5 SHL DUP2 MSTORE PUSH1 0x20 PUSH1 0x4 DUP3 ADD MSTORE PUSH1 0x2C PUSH1 0x24 DUP3 ADD MSTORE PUSH32 0x455243373231456E756D657261626C653A20676C6F62616C20696E646578206F PUSH1 0x44 DUP3 ADD MSTORE PUSH12 0x7574206F6620626F756E6473 PUSH1 0xA0 SHL PUSH1 0x64 DUP3 ADD MSTORE PUSH1 0x84 ADD PUSH2 0xB50 JUMP JUMPDEST PUSH1 0x8 DUP3 DUP2 SLOAD DUP2 LT PUSH2 0x1169 JUMPI PUSH2 0x1169 PUSH2 0x35DD JUMP JUMPDEST SWAP1 PUSH1 0x0 MSTORE PUSH1 0x20 PUSH1 0x0 KECCAK256 ADD SLOAD SWAP1 POP SWAP2 SWAP1 POP JUMP JUMPDEST PUSH1 0x0 DUP2 DUP2 MSTORE PUSH1 0x2 PUSH1 0x20 MSTORE PUSH1 0x40 DUP2 KECCAK256 SLOAD PUSH1 0x1 PUSH1 0x1 PUSH1 0xA0 SHL SUB AND DUP1 PUSH2 0x7C1 JUMPI PUSH1 0x40 MLOAD PUSH3 0x461BCD PUSH1 0xE5 SHL DUP2 MSTORE PUSH1 0x20 PUSH1 0x4 DUP3 ADD MSTORE PUSH1 0x29 PUSH1 0x24 DUP3 ADD MSTORE PUSH32 0x4552433732313A206F776E657220717565727920666F72206E6F6E6578697374 PUSH1 0x44 DUP3 ADD MSTORE PUSH9 0x32B73A103A37B5B2B7 PUSH1 0xB9 SHL PUSH1 0x64 DUP3 ADD MSTORE PUSH1 0x84 ADD PUSH2 0xB50 JUMP JUMPDEST PUSH1 0x0 PUSH1 0x1 PUSH1 0x1 PUSH1 0xA0 SHL SUB DUP3 AND PUSH2 0x125D JUMPI PUSH1 0x40 MLOAD PUSH3 0x461BCD PUSH1 0xE5 SHL DUP2 MSTORE PUSH1 0x20 PUSH1 0x4 DUP3 ADD MSTORE PUSH1 0x2A PUSH1 0x24 DUP3 ADD MSTORE PUSH32 0x4552433732313A2062616C616E636520717565727920666F7220746865207A65 PUSH1 0x44 DUP3 ADD MSTORE PUSH10 0x726F2061646472657373 PUSH1 0xB0 SHL PUSH1 0x64 DUP3 ADD MSTORE PUSH1 0x84 ADD PUSH2 0xB50 JUMP JUMPDEST POP PUSH1 0x1 PUSH1 0x1 PUSH1 0xA0 SHL SUB AND PUSH1 0x0 SWAP1 DUP2 MSTORE PUSH1 0x3 PUSH1 0x20 MSTORE PUSH1 0x40 SWAP1 KECCAK256 SLOAD SWAP1 JUMP JUMPDEST PUSH1 0xA SLOAD PUSH1 0x1 PUSH1 0x1 PUSH1 0xA0 SHL SUB AND CALLER EQ PUSH2 0x12A3 JUMPI PUSH1 0x40 MLOAD PUSH3 0x461BCD PUSH1 0xE5 SHL DUP2 MSTORE PUSH1 0x4 ADD PUSH2 0xB50 SWAP1 PUSH2 0x349A JUMP JUMPDEST PUSH2 0x12AD PUSH1 0x0 PUSH2 0x231E JUMP JUMPDEST JUMP JUMPDEST CALLER PUSH2 0x12B9 DUP3 PUSH2 0x117B JUMP JUMPDEST PUSH1 0x1 PUSH1 0x1 PUSH1 0xA0 SHL SUB AND EQ PUSH2 0x12FF JUMPI PUSH1 0x40 MLOAD PUSH3 0x461BCD PUSH1 0xE5 SHL DUP2 MSTORE PUSH1 0x20 PUSH1 0x4 DUP3 ADD MSTORE PUSH1 0xD PUSH1 0x24 DUP3 ADD MSTORE PUSH13 0x36BAB9BA1031329037BBB732B9 PUSH1 0x99 SHL PUSH1 0x44 DUP3 ADD MSTORE PUSH1 0x64 ADD PUSH2 0xB50 JUMP JUMPDEST PUSH1 0x0 DUP2 DUP2 MSTORE PUSH1 0xB PUSH1 0x20 DUP2 SWAP1 MSTORE PUSH1 0x40 SWAP1 SWAP2 KECCAK256 ADD SLOAD ISZERO PUSH2 0x1353 JUMPI PUSH1 0x40 MLOAD PUSH3 0x461BCD PUSH1 0xE5 SHL DUP2 MSTORE PUSH1 0x20 PUSH1 0x4 DUP3 ADD MSTORE PUSH1 0x11 PUSH1 0x24 DUP3 ADD MSTORE PUSH17 0x185B1C9958591E481A5B9A5D1A585D1959 PUSH1 0x7A SHL PUSH1 0x44 DUP3 ADD MSTORE PUSH1 0x64 ADD PUSH2 0xB50 JUMP JUMPDEST PUSH1 0x0 DUP2 DUP2 MSTORE PUSH1 0xB PUSH1 0x20 DUP2 SWAP1 MSTORE PUSH1 0x40 SWAP1 SWAP2 KECCAK256 TIMESTAMP SWAP2 DUP2 ADD DUP3 SWAP1 SSTORE PUSH1 0x11 SLOAD SWAP1 SWAP2 PUSH2 0x137A SWAP2 SWAP1 PUSH2 0x3412 JUMP JUMPDEST PUSH1 0xC DUP3 ADD SSTORE PUSH1 0x40 DUP1 MLOAD CALLER DUP2 MSTORE TIMESTAMP PUSH1 0x20 DUP3 ADD MSTORE DUP4 SWAP2 PUSH32 0x1782B66BBE30900EE88FEAB2F2CD676D136386CC51CDF73F6CAE8B1DA253DDF7 SWAP2 ADD PUSH1 0x40 MLOAD DUP1 SWAP2 SUB SWAP1 LOG2 POP POP JUMP JUMPDEST PUSH1 0xC SLOAD PUSH1 0x1 PUSH1 0x1 PUSH1 0xA0 SHL SUB AND CALLER EQ PUSH2 0x1423 JUMPI PUSH1 0x40 MLOAD PUSH3 0x461BCD PUSH1 0xE5 SHL DUP2 MSTORE PUSH1 0x20 PUSH1 0x4 DUP3 ADD MSTORE PUSH1 0x24 DUP1 DUP3 ADD MSTORE PUSH32 0x4F6E6C7920626174746C65722063616E2063616C6C20746869732066756E6374 PUSH1 0x44 DUP3 ADD MSTORE PUSH4 0x34B7B717 PUSH1 0xE1 SHL PUSH1 0x64 DUP3 ADD MSTORE PUSH1 0x84 ADD PUSH2 0xB50 JUMP JUMPDEST PUSH1 0x1 DUP4 PUSH1 0x3 DUP2 GT ISZERO PUSH2 0x1437 JUMPI PUSH2 0x1437 PUSH2 0x2BFF JUMP JUMPDEST SUB PUSH2 0x1490 JUMPI PUSH1 0x0 DUP6 DUP2 MSTORE PUSH1 0xB PUSH1 0x20 MSTORE PUSH1 0x40 DUP2 KECCAK256 PUSH1 0x5 ADD DUP1 SLOAD PUSH1 0x1 SWAP3 SWAP1 PUSH2 0x145E SWAP1 DUP5 SWAP1 PUSH2 0x3412 JUMP JUMPDEST SWAP1 SWAP2 SSTORE POP POP PUSH1 0x0 DUP5 DUP2 MSTORE PUSH1 0xB PUSH1 0x20 MSTORE PUSH1 0x40 DUP2 KECCAK256 PUSH1 0x6 ADD DUP1 SLOAD PUSH1 0x1 SWAP3 SWAP1 PUSH2 0x1485 SWAP1 DUP5 SWAP1 PUSH2 0x3412 JUMP JUMPDEST SWAP1 SWAP2 SSTORE POP PUSH2 0x14F8 SWAP1 POP JUMP JUMPDEST PUSH1 0x0 DUP4 PUSH1 0x3 DUP2 GT ISZERO PUSH2 0x14A4 JUMPI PUSH2 0x14A4 PUSH2 0x2BFF JUMP JUMPDEST SUB PUSH2 0x14F8 JUMPI PUSH1 0x0 DUP6 DUP2 MSTORE PUSH1 0xB PUSH1 0x20 MSTORE PUSH1 0x40 DUP2 KECCAK256 PUSH1 0x6 ADD DUP1 SLOAD PUSH1 0x1 SWAP3 SWAP1 PUSH2 0x14CB SWAP1 DUP5 SWAP1 PUSH2 0x3412 JUMP JUMPDEST SWAP1 SWAP2 SSTORE POP POP PUSH1 0x0 DUP5 DUP2 MSTORE PUSH1 0xB PUSH1 0x20 MSTORE PUSH1 0x40 DUP2 KECCAK256 PUSH1 0x5 ADD DUP1 SLOAD PUSH1 0x1 SWAP3 SWAP1 PUSH2 0x14F2 SWAP1 DUP5 SWAP1 PUSH2 0x3412 JUMP JUMPDEST SWAP1 SWAP2 SSTORE POP POP JUMPDEST PUSH1 0x0 DUP6 DUP2 MSTORE PUSH1 0xB PUSH1 0x20 MSTORE PUSH1 0x40 DUP2 KECCAK256 PUSH1 0x8 ADD DUP1 SLOAD DUP5 SWAP3 SWAP1 PUSH2 0x1519 SWAP1 DUP5 SWAP1 PUSH2 0x3412 JUMP JUMPDEST SWAP1 SWAP2 SSTORE POP POP POP POP POP POP POP JUMP JUMPDEST ADDRESS CALLER SUB PUSH2 0x1564 JUMPI PUSH1 0x40 MLOAD PUSH3 0x461BCD PUSH1 0xE5 SHL DUP2 MSTORE PUSH1 0x20 PUSH1 0x4 DUP3 ADD MSTORE PUSH1 0xD PUSH1 0x24 DUP3 ADD MSTORE PUSH13 0x37B7363C903B32B934B334B2B9 PUSH1 0x99 SHL PUSH1 0x44 DUP3 ADD MSTORE PUSH1 0x64 ADD PUSH2 0xB50 JUMP JUMPDEST PUSH1 0x0 DUP3 DUP2 MSTORE PUSH1 0xB PUSH1 0x20 MSTORE PUSH1 0x40 SWAP1 KECCAK256 PUSH1 0xC ADD SLOAD TIMESTAMP GT PUSH2 0x1593 JUMPI PUSH1 0x0 DUP3 DUP2 MSTORE PUSH1 0xB PUSH1 0x20 MSTORE PUSH1 0x40 SWAP1 KECCAK256 PUSH1 0xC ADD SLOAD PUSH2 0x1595 JUMP JUMPDEST TIMESTAMP JUMPDEST PUSH2 0x159F SWAP1 DUP3 PUSH2 0x3412 JUMP JUMPDEST PUSH1 0x0 SWAP3 DUP4 MSTORE PUSH1 0xB PUSH1 0x20 MSTORE PUSH1 0x40 SWAP1 SWAP3 KECCAK256 PUSH1 0xC ADD SWAP2 SWAP1 SWAP2 SSTORE POP JUMP JUMPDEST PUSH2 0x15C0 PUSH2 0x286D JUMP JUMPDEST PUSH1 0x0 PUSH2 0x15CB DUP4 PUSH2 0x9DA JUMP JUMPDEST PUSH2 0x15D6 SWAP1 PUSH1 0x1 PUSH2 0x3412 JUMP JUMPDEST SWAP1 POP PUSH1 0x0 PUSH1 0xB PUSH1 0x0 DUP6 DUP2 MSTORE PUSH1 0x20 ADD SWAP1 DUP2 MSTORE PUSH1 0x20 ADD PUSH1 0x0 KECCAK256 PUSH1 0x40 MLOAD DUP1 PUSH2 0x1C0 ADD PUSH1 0x40 MSTORE SWAP1 DUP2 PUSH1 0x0 DUP3 ADD SLOAD DUP2 MSTORE PUSH1 0x20 ADD PUSH1 0x1 DUP3 ADD SLOAD DUP2 MSTORE PUSH1 0x20 ADD PUSH1 0x2 DUP3 ADD SLOAD DUP2 MSTORE PUSH1 0x20 ADD PUSH1 0x3 DUP3 ADD SLOAD DUP2 MSTORE PUSH1 0x20 ADD PUSH1 0x4 DUP3 ADD SLOAD DUP2 MSTORE PUSH1 0x20 ADD PUSH1 0x5 DUP3 ADD SLOAD DUP2 MSTORE PUSH1 0x20 ADD PUSH1 0x6 DUP3 ADD SLOAD DUP2 MSTORE PUSH1 0x20 ADD PUSH1 0x7 DUP3 ADD SLOAD DUP2 MSTORE PUSH1 0x20 ADD PUSH1 0x8 DUP3 ADD SLOAD DUP2 MSTORE PUSH1 0x20 ADD PUSH1 0x9 DUP3 ADD SLOAD DUP2 MSTORE PUSH1 0x20 ADD PUSH1 0xA DUP3 ADD SLOAD DUP2 MSTORE PUSH1 0x20 ADD PUSH1 0xB DUP3 ADD SLOAD DUP2 MSTORE PUSH1 0x20 ADD PUSH1 0xC DUP3 ADD SLOAD DUP2 MSTORE PUSH1 0x20 ADD PUSH1 0xD DUP3 ADD PUSH1 0x0 SWAP1 SLOAD SWAP1 PUSH2 0x100 EXP SWAP1 DIV PUSH1 0xFF AND PUSH1 0x3 DUP2 GT ISZERO PUSH2 0x169F JUMPI PUSH2 0x169F PUSH2 0x2BFF JUMP JUMPDEST PUSH1 0x3 DUP2 GT ISZERO PUSH2 0x16B0 JUMPI PUSH2 0x16B0 PUSH2 0x2BFF JUMP JUMPDEST SWAP1 MSTORE POP PUSH1 0x14 SLOAD PUSH1 0x20 DUP3 ADD MLOAD SWAP2 SWAP3 POP SWAP1 PUSH2 0x16CA SWAP1 DUP5 SWAP1 PUSH2 0x342A JUMP JUMPDEST PUSH2 0x16D4 SWAP2 SWAP1 PUSH2 0x33B0 JUMP JUMPDEST PUSH1 0x20 DUP3 ADD MSTORE PUSH1 0x14 SLOAD PUSH1 0x40 DUP3 ADD MLOAD PUSH2 0x16EC SWAP1 DUP5 SWAP1 PUSH2 0x342A JUMP JUMPDEST PUSH2 0x16F6 SWAP2 SWAP1 PUSH2 0x33B0 JUMP JUMPDEST PUSH1 0x40 DUP3 ADD MSTORE PUSH1 0x14 SLOAD PUSH1 0x60 DUP3 ADD MLOAD PUSH2 0x170E SWAP1 DUP5 SWAP1 PUSH2 0x342A JUMP JUMPDEST PUSH2 0x1718 SWAP2 SWAP1 PUSH2 0x33B0 JUMP JUMPDEST PUSH1 0x60 DUP3 ADD MSTORE PUSH1 0x14 SLOAD PUSH1 0x80 DUP3 ADD MLOAD PUSH2 0x1730 SWAP1 DUP5 SWAP1 PUSH2 0x342A JUMP JUMPDEST PUSH2 0x173A SWAP2 SWAP1 PUSH2 0x33B0 JUMP JUMPDEST PUSH1 0x80 DUP3 ADD MSTORE SWAP4 SWAP3 POP POP POP JUMP JUMPDEST PUSH1 0x60 PUSH1 0x1 DUP1 SLOAD PUSH2 0xA58 SWAP1 PUSH2 0x33C4 JUMP JUMPDEST PUSH1 0xA SLOAD PUSH1 0x1 PUSH1 0x1 PUSH1 0xA0 SHL SUB AND CALLER EQ PUSH2 0x177F JUMPI PUSH1 0x40 MLOAD PUSH3 0x461BCD PUSH1 0xE5 SHL DUP2 MSTORE PUSH1 0x4 ADD PUSH2 0xB50 SWAP1 PUSH2 0x349A JUMP JUMPDEST PUSH1 0x1 PUSH1 0x1 PUSH1 0xA0 SHL SUB DUP2 AND ISZERO DUP1 ISZERO SWAP1 PUSH2 0x17A5 JUMPI POP PUSH1 0xD SLOAD PUSH1 0x1 PUSH1 0x1 PUSH1 0xA0 SHL SUB DUP3 DUP2 AND SWAP2 AND EQ ISZERO JUMPDEST PUSH2 0x17EC JUMPI PUSH1 0x40 MLOAD PUSH3 0x461BCD PUSH1 0xE5 SHL DUP2 MSTORE PUSH1 0x20 PUSH1 0x4 DUP3 ADD MSTORE PUSH1 0x18 PUSH1 0x24 DUP3 ADD MSTORE PUSH24 0x496E76616C6964206F70657261746F722061646472657373 PUSH1 0x40 SHL PUSH1 0x44 DUP3 ADD MSTORE PUSH1 0x64 ADD PUSH2 0xB50 JUMP JUMPDEST PUSH1 0xD DUP1 SLOAD PUSH1 0x1 PUSH1 0x1 PUSH1 0xA0 SHL SUB NOT AND PUSH1 0x1 PUSH1 0x1 PUSH1 0xA0 SHL SUB DUP4 AND SWAP1 DUP2 OR SWAP1 SWAP2 SSTORE PUSH1 0x40 MLOAD SWAP1 DUP2 MSTORE PUSH32 0xA1FD6A6669ACB930BAE242943BB9FA08DDCBA665C707261E9730EE0305FB85E5 SWAP1 PUSH1 0x20 ADD JUMPDEST PUSH1 0x40 MLOAD DUP1 SWAP2 SUB SWAP1 LOG1 POP JUMP JUMPDEST CALLER PUSH1 0x1 PUSH1 0x1 PUSH1 0xA0 SHL SUB DUP4 AND SUB PUSH2 0x1899 JUMPI PUSH1 0x40 MLOAD PUSH3 0x461BCD PUSH1 0xE5 SHL DUP2 MSTORE PUSH1 0x20 PUSH1 0x4 DUP3 ADD MSTORE PUSH1 0x19 PUSH1 0x24 DUP3 ADD MSTORE PUSH32 0x4552433732313A20617070726F766520746F2063616C6C657200000000000000 PUSH1 0x44 DUP3 ADD MSTORE PUSH1 0x64 ADD PUSH2 0xB50 JUMP JUMPDEST CALLER PUSH1 0x0 DUP2 DUP2 MSTORE PUSH1 0x5 PUSH1 0x20 SWAP1 DUP2 MSTORE PUSH1 0x40 DUP1 DUP4 KECCAK256 PUSH1 0x1 PUSH1 0x1 PUSH1 0xA0 SHL SUB DUP8 AND DUP1 DUP6 MSTORE SWAP1 DUP4 MSTORE SWAP3 DUP2 SWAP1 KECCAK256 DUP1 SLOAD PUSH1 0xFF NOT AND DUP7 ISZERO ISZERO SWAP1 DUP2 OR SWAP1 SWAP2 SSTORE SWAP1 MLOAD SWAP1 DUP2 MSTORE SWAP2 SWAP3 SWAP2 PUSH32 0x17307EAB39AB6107E8899845AD3D59BD9653F200F220920489CA2B5937696C31 SWAP2 ADD PUSH1 0x40 MLOAD DUP1 SWAP2 SUB SWAP1 LOG3 POP POP JUMP JUMPDEST PUSH2 0x190F CALLER DUP4 PUSH2 0x2080 JUMP JUMPDEST PUSH2 0x192B JUMPI PUSH1 0x40 MLOAD PUSH3 0x461BCD PUSH1 0xE5 SHL DUP2 MSTORE PUSH1 0x4 ADD PUSH2 0xB50 SWAP1 PUSH2 0x3449 JUMP JUMPDEST PUSH2 0x1937 DUP5 DUP5 DUP5 DUP5 PUSH2 0x2370 JUMP JUMPDEST POP POP POP POP JUMP JUMPDEST PUSH1 0x0 DUP2 DUP2 MSTORE PUSH1 0x2 PUSH1 0x20 MSTORE PUSH1 0x40 SWAP1 KECCAK256 SLOAD PUSH1 0x60 SWAP1 PUSH1 0x1 PUSH1 0x1 PUSH1 0xA0 SHL SUB AND PUSH2 0x19BC JUMPI PUSH1 0x40 MLOAD PUSH3 0x461BCD PUSH1 0xE5 SHL DUP2 MSTORE PUSH1 0x20 PUSH1 0x4 DUP3 ADD MSTORE PUSH1 0x2F PUSH1 0x24 DUP3 ADD MSTORE PUSH32 0x4552433732314D657461646174613A2055524920717565727920666F72206E6F PUSH1 0x44 DUP3 ADD MSTORE PUSH15 0x3732BC34B9BA32B73A103A37B5B2B7 PUSH1 0x89 SHL PUSH1 0x64 DUP3 ADD MSTORE PUSH1 0x84 ADD PUSH2 0xB50 JUMP JUMPDEST PUSH1 0x0 DUP3 DUP2 MSTORE PUSH1 0xB PUSH1 0x20 DUP2 SWAP1 MSTORE PUSH1 0x40 DUP3 KECCAK256 ADD SLOAD PUSH1 0x60 SWAP2 SUB PUSH2 0x19F4 JUMPI POP PUSH1 0x40 DUP1 MLOAD DUP1 DUP3 ADD SWAP1 SWAP2 MSTORE PUSH1 0x1 DUP2 MSTORE PUSH1 0x3 PUSH1 0xFC SHL PUSH1 0x20 DUP3 ADD MSTORE PUSH2 0x1A63 JUMP JUMPDEST PUSH1 0x13 SLOAD PUSH1 0x0 DUP5 DUP2 MSTORE PUSH1 0xB PUSH1 0x20 DUP2 SWAP1 MSTORE PUSH1 0x40 SWAP1 SWAP2 KECCAK256 ADD SLOAD PUSH2 0x1A60 SWAP2 PUSH1 0x7 SWAP2 PUSH2 0x1A1B SWAP1 TIMESTAMP PUSH2 0x3383 JUMP JUMPDEST PUSH2 0x1A25 SWAP2 SWAP1 PUSH2 0x33B0 JUMP JUMPDEST GT PUSH2 0x1A59 JUMPI PUSH1 0x13 SLOAD PUSH1 0x0 DUP6 DUP2 MSTORE PUSH1 0xB PUSH1 0x20 DUP2 SWAP1 MSTORE PUSH1 0x40 SWAP1 SWAP2 KECCAK256 ADD SLOAD PUSH2 0x1A4A SWAP1 TIMESTAMP PUSH2 0x3383 JUMP JUMPDEST PUSH2 0x1A54 SWAP2 SWAP1 PUSH2 0x33B0 JUMP JUMPDEST PUSH2 0x1EF3 JUMP JUMPDEST PUSH1 0x7 PUSH2 0x1EF3 JUMP JUMPDEST SWAP1 POP JUMPDEST PUSH1 0x40 MLOAD PUSH1 0x0 SWAP1 PUSH2 0x1A7A SWAP1 PUSH1 0x16 SWAP1 DUP5 SWAP1 PUSH1 0x20 ADD PUSH2 0x35F3 JUMP JUMPDEST PUSH1 0x40 MLOAD PUSH1 0x20 DUP2 DUP4 SUB SUB DUP2 MSTORE SWAP1 PUSH1 0x40 MSTORE SWAP1 POP PUSH2 0x1A95 DUP5 DUP3 PUSH2 0x7C7 JUMP JUMPDEST SWAP5 SWAP4 POP POP POP POP JUMP JUMPDEST PUSH1 0xE DUP1 SLOAD PUSH1 0xF SLOAD PUSH1 0x10 SLOAD PUSH1 0x11 SLOAD PUSH1 0x12 SLOAD PUSH1 0x13 SLOAD PUSH1 0x14 SLOAD PUSH1 0x15 SLOAD PUSH1 0x16 DUP1 SLOAD SWAP9 SWAP10 SWAP8 SWAP9 SWAP7 SWAP8 SWAP6 SWAP7 PUSH1 0x1 PUSH1 0x1 PUSH1 0xA0 SHL SUB SWAP1 SWAP6 AND SWAP6 SWAP4 SWAP5 SWAP3 SWAP4 SWAP2 SWAP3 PUSH2 0x1ADD SWAP1 PUSH2 0x33C4 JUMP JUMPDEST DUP1 PUSH1 0x1F ADD PUSH1 0x20 DUP1 SWAP2 DIV MUL PUSH1 0x20 ADD PUSH1 0x40 MLOAD SWAP1 DUP2 ADD PUSH1 0x40 MSTORE DUP1 SWAP3 SWAP2 SWAP1 DUP2 DUP2 MSTORE PUSH1 0x20 ADD DUP3 DUP1 SLOAD PUSH2 0x1B09 SWAP1 PUSH2 0x33C4 JUMP JUMPDEST DUP1 ISZERO PUSH2 0x1B56 JUMPI DUP1 PUSH1 0x1F LT PUSH2 0x1B2B JUMPI PUSH2 0x100 DUP1 DUP4 SLOAD DIV MUL DUP4 MSTORE SWAP2 PUSH1 0x20 ADD SWAP2 PUSH2 0x1B56 JUMP JUMPDEST DUP3 ADD SWAP2 SWAP1 PUSH1 0x0 MSTORE PUSH1 0x20 PUSH1 0x0 KECCAK256 SWAP1 JUMPDEST DUP2 SLOAD DUP2 MSTORE SWAP1 PUSH1 0x1 ADD SWAP1 PUSH1 0x20 ADD DUP1 DUP4 GT PUSH2 0x1B39 JUMPI DUP3 SWAP1 SUB PUSH1 0x1F AND DUP3 ADD SWAP2 JUMPDEST POP POP POP POP POP SWAP1 POP DUP10 JUMP JUMPDEST PUSH1 0xA SLOAD PUSH1 0x1 PUSH1 0x1 PUSH1 0xA0 SHL SUB AND CALLER EQ PUSH2 0x1B8A JUMPI PUSH1 0x40 MLOAD PUSH3 0x461BCD PUSH1 0xE5 SHL DUP2 MSTORE PUSH1 0x4 ADD PUSH2 0xB50 SWAP1 PUSH2 0x349A JUMP JUMPDEST PUSH1 0x1 PUSH1 0x1 PUSH1 0xA0 SHL SUB DUP2 AND ISZERO DUP1 ISZERO SWAP1 PUSH2 0x1BB0 JUMPI POP PUSH1 0xC SLOAD PUSH1 0x1 PUSH1 0x1 PUSH1 0xA0 SHL SUB DUP3 DUP2 AND SWAP2 AND EQ ISZERO JUMPDEST PUSH2 0x1BF7 JUMPI PUSH1 0x40 MLOAD PUSH3 0x461BCD PUSH1 0xE5 SHL DUP2 MSTORE PUSH1 0x20 PUSH1 0x4 DUP3 ADD MSTORE PUSH1 0x18 PUSH1 0x24 DUP3 ADD MSTORE PUSH24 0x496E76616C6964206F70657261746F722061646472657373 PUSH1 0x40 SHL PUSH1 0x44 DUP3 ADD MSTORE PUSH1 0x64 ADD PUSH2 0xB50 JUMP JUMPDEST PUSH1 0xC DUP1 SLOAD PUSH1 0x1 PUSH1 0x1 PUSH1 0xA0 SHL SUB NOT AND PUSH1 0x1 PUSH1 0x1 PUSH1 0xA0 SHL SUB DUP4 AND SWAP1 DUP2 OR SWAP1 SWAP2 SSTORE PUSH1 0x40 MLOAD SWAP1 DUP2 MSTORE PUSH32 0xA6996D36756222F1028B4A1A97CBFA625158CF8E69AC5DCF367DE3BD730D34A4 SWAP1 PUSH1 0x20 ADD PUSH2 0x1836 JUMP JUMPDEST PUSH1 0x0 DUP2 DUP2 MSTORE PUSH1 0xB PUSH1 0x20 MSTORE PUSH1 0x40 DUP2 KECCAK256 SWAP1 PUSH2 0x1C5D PUSH1 0x8 SLOAD SWAP1 JUMP JUMPDEST DUP3 SLOAD PUSH1 0x40 DUP1 MLOAD PUSH1 0x20 DUP2 ADD SWAP4 SWAP1 SWAP4 MSTORE PUSH12 0xFFFFFFFFFFFFFFFFFFFFFFFF NOT CALLER PUSH1 0x60 SHL AND SWAP1 DUP4 ADD MSTORE TIMESTAMP PUSH1 0x54 DUP4 ADD MSTORE PUSH1 0x74 DUP3 ADD MSTORE PUSH1 0x94 ADD PUSH1 0x40 DUP1 MLOAD PUSH1 0x1F NOT DUP2 DUP5 SUB ADD DUP2 MSTORE SWAP2 SWAP1 MSTORE DUP1 MLOAD PUSH1 0x20 SWAP1 SWAP2 ADD KECCAK256 TIMESTAMP PUSH1 0xB DUP5 ADD SSTORE PUSH1 0x11 SLOAD PUSH1 0xC DUP5 ADD DUP1 SLOAD SWAP3 SWAP4 POP SWAP1 SWAP2 PUSH1 0x0 SWAP1 PUSH2 0x1CCA SWAP1 DUP5 SWAP1 PUSH2 0x3412 JUMP JUMPDEST SWAP1 SWAP2 SSTORE POP POP DUP2 SLOAD PUSH1 0x1 SWAP1 DUP4 SWAP1 PUSH1 0x0 SWAP1 PUSH2 0x1CE4 SWAP1 DUP5 SWAP1 PUSH2 0x3412 JUMP JUMPDEST SWAP1 SWAP2 SSTORE POP PUSH2 0x1CF5 SWAP1 POP PUSH1 0x10 DUP3 PUSH2 0x33FE JUMP JUMPDEST PUSH2 0x1D00 SWAP1 PUSH1 0xA PUSH2 0x3412 JUMP JUMPDEST DUP3 PUSH1 0x1 ADD PUSH1 0x0 DUP3 DUP3 SLOAD PUSH2 0x1D13 SWAP2 SWAP1 PUSH2 0x3412 JUMP JUMPDEST SWAP1 SWAP2 SSTORE POP PUSH1 0x10 SWAP1 POP PUSH2 0x1D26 PUSH1 0x64 DUP4 PUSH2 0x33B0 JUMP JUMPDEST PUSH2 0x1D30 SWAP2 SWAP1 PUSH2 0x33FE JUMP JUMPDEST PUSH2 0x1D3B SWAP1 PUSH1 0xA PUSH2 0x3412 JUMP JUMPDEST DUP3 PUSH1 0x2 ADD PUSH1 0x0 DUP3 DUP3 SLOAD PUSH2 0x1D4E SWAP2 SWAP1 PUSH2 0x3412 JUMP JUMPDEST SWAP1 SWAP2 SSTORE POP PUSH1 0x10 SWAP1 POP PUSH2 0x1D62 PUSH2 0x2710 DUP4 PUSH2 0x33B0 JUMP JUMPDEST PUSH2 0x1D6C SWAP2 SWAP1 PUSH2 0x33FE JUMP JUMPDEST PUSH2 0x1D77 SWAP1 PUSH1 0xA PUSH2 0x3412 JUMP JUMPDEST DUP3 PUSH1 0x3 ADD PUSH1 0x0 DUP3 DUP3 SLOAD PUSH2 0x1D8A SWAP2 SWAP1 PUSH2 0x3412 JUMP JUMPDEST SWAP1 SWAP2 SSTORE POP PUSH1 0xA SWAP1 POP PUSH2 0x1D9F PUSH3 0xF4240 DUP4 PUSH2 0x33B0 JUMP JUMPDEST PUSH2 0x1DA9 SWAP2 SWAP1 PUSH2 0x33FE JUMP JUMPDEST DUP3 PUSH1 0x4 ADD PUSH1 0x0 DUP3 DUP3 SLOAD PUSH2 0x1DBC SWAP2 SWAP1 PUSH2 0x3412 JUMP JUMPDEST SWAP1 SWAP2 SSTORE POP POP DUP2 SLOAD PUSH1 0x40 DUP1 MLOAD CALLER DUP2 MSTORE PUSH1 0x20 DUP2 ADD SWAP3 SWAP1 SWAP3 MSTORE TIMESTAMP SWAP1 DUP3 ADD MSTORE DUP4 SWAP1 PUSH32 0xB77DF37C5C38B010D57710FFA0BF2BBCBDDA02F986C30D708810F5C6B3409631 SWAP1 PUSH1 0x60 ADD PUSH1 0x40 MLOAD DUP1 SWAP2 SUB SWAP1 LOG2 POP POP POP JUMP JUMPDEST PUSH1 0xA SLOAD PUSH1 0x1 PUSH1 0x1 PUSH1 0xA0 SHL SUB AND CALLER EQ PUSH2 0x1E35 JUMPI PUSH1 0x40 MLOAD PUSH3 0x461BCD PUSH1 0xE5 SHL DUP2 MSTORE PUSH1 0x4 ADD PUSH2 0xB50 SWAP1 PUSH2 0x349A JUMP JUMPDEST PUSH1 0x1 PUSH1 0x1 PUSH1 0xA0 SHL SUB DUP2 AND PUSH2 0x1E9A JUMPI PUSH1 0x40 MLOAD PUSH3 0x461BCD PUSH1 0xE5 SHL DUP2 MSTORE PUSH1 0x20 PUSH1 0x4 DUP3 ADD MSTORE PUSH1 0x26 PUSH1 0x24 DUP3 ADD MSTORE PUSH32 0x4F776E61626C653A206E6577206F776E657220697320746865207A65726F2061 PUSH1 0x44 DUP3 ADD MSTORE PUSH6 0x646472657373 PUSH1 0xD0 SHL PUSH1 0x64 DUP3 ADD MSTORE PUSH1 0x84 ADD PUSH2 0xB50 JUMP JUMPDEST PUSH2 0x10E5 DUP2 PUSH2 0x231E JUMP JUMPDEST PUSH1 0x0 PUSH1 0x1 PUSH1 0x1 PUSH1 0xE0 SHL SUB NOT DUP3 AND PUSH4 0x80AC58CD PUSH1 0xE0 SHL EQ DUP1 PUSH2 0x1ED4 JUMPI POP PUSH1 0x1 PUSH1 0x1 PUSH1 0xE0 SHL SUB NOT DUP3 AND PUSH4 0x5B5E139F PUSH1 0xE0 SHL EQ JUMPDEST DUP1 PUSH2 0x7C1 JUMPI POP PUSH4 0x1FFC9A7 PUSH1 0xE0 SHL PUSH1 0x1 PUSH1 0x1 PUSH1 0xE0 SHL SUB NOT DUP4 AND EQ PUSH2 0x7C1 JUMP JUMPDEST PUSH1 0x60 DUP2 PUSH1 0x0 SUB PUSH2 0x1F1A JUMPI POP POP PUSH1 0x40 DUP1 MLOAD DUP1 DUP3 ADD SWAP1 SWAP2 MSTORE PUSH1 0x1 DUP2 MSTORE PUSH1 0x3 PUSH1 0xFC SHL PUSH1 0x20 DUP3 ADD MSTORE SWAP1 JUMP JUMPDEST DUP2 PUSH1 0x0 JUMPDEST DUP2 ISZERO PUSH2 0x1F44 JUMPI DUP1 PUSH2 0x1F2E DUP2 PUSH2 0x3689 JUMP JUMPDEST SWAP2 POP PUSH2 0x1F3D SWAP1 POP PUSH1 0xA DUP4 PUSH2 0x33B0 JUMP JUMPDEST SWAP2 POP PUSH2 0x1F1E JUMP JUMPDEST PUSH1 0x0 DUP2 PUSH8 0xFFFFFFFFFFFFFFFF DUP2 GT ISZERO PUSH2 0x1F5F JUMPI PUSH2 0x1F5F PUSH2 0x291F JUMP JUMPDEST PUSH1 0x40 MLOAD SWAP1 DUP1 DUP3 MSTORE DUP1 PUSH1 0x1F ADD PUSH1 0x1F NOT AND PUSH1 0x20 ADD DUP3 ADD PUSH1 0x40 MSTORE DUP1 ISZERO PUSH2 0x1F89 JUMPI PUSH1 0x20 DUP3 ADD DUP2 DUP1 CALLDATASIZE DUP4 CALLDATACOPY ADD SWAP1 POP JUMPDEST POP SWAP1 POP JUMPDEST DUP5 ISZERO PUSH2 0x1A95 JUMPI PUSH2 0x1F9E PUSH1 0x1 DUP4 PUSH2 0x3383 JUMP JUMPDEST SWAP2 POP PUSH2 0x1FAB PUSH1 0xA DUP7 PUSH2 0x33FE JUMP JUMPDEST PUSH2 0x1FB6 SWAP1 PUSH1 0x30 PUSH2 0x3412 JUMP JUMPDEST PUSH1 0xF8 SHL DUP2 DUP4 DUP2 MLOAD DUP2 LT PUSH2 0x1FCB JUMPI PUSH2 0x1FCB PUSH2 0x35DD JUMP JUMPDEST PUSH1 0x20 ADD ADD SWAP1 PUSH1 0x1 PUSH1 0x1 PUSH1 0xF8 SHL SUB NOT AND SWAP1 DUP2 PUSH1 0x0 BYTE SWAP1 MSTORE8 POP PUSH2 0x1FED PUSH1 0xA DUP7 PUSH2 0x33B0 JUMP JUMPDEST SWAP5 POP PUSH2 0x1F8D JUMP JUMPDEST PUSH1 0x0 DUP2 DUP2 MSTORE PUSH1 0x4 PUSH1 0x20 MSTORE PUSH1 0x40 SWAP1 KECCAK256 DUP1 SLOAD PUSH1 0x1 PUSH1 0x1 PUSH1 0xA0 SHL SUB NOT AND PUSH1 0x1 PUSH1 0x1 PUSH1 0xA0 SHL SUB DUP5 AND SWAP1 DUP2 OR SWAP1 SWAP2 SSTORE DUP2 SWAP1 PUSH2 0x2029 DUP3 PUSH2 0x117B JUMP JUMPDEST PUSH1 0x1 PUSH1 0x1 PUSH1 0xA0 SHL SUB AND PUSH32 0x8C5BE1E5EBEC7D5BD14F71427D1E84F3DD0314C0F7B2291E5B200AC8C7C3B925 PUSH1 0x40 MLOAD PUSH1 0x40 MLOAD DUP1 SWAP2 SUB SWAP1 LOG4 POP POP JUMP JUMPDEST PUSH2 0x207C DUP3 DUP3 PUSH1 0x40 MLOAD DUP1 PUSH1 0x20 ADD PUSH1 0x40 MSTORE DUP1 PUSH1 0x0 DUP2 MSTORE POP PUSH2 0x23A3 JUMP JUMPDEST POP POP JUMP JUMPDEST PUSH1 0x0 DUP2 DUP2 MSTORE PUSH1 0x2 PUSH1 0x20 MSTORE PUSH1 0x40 DUP2 KECCAK256 SLOAD PUSH1 0x1 PUSH1 0x1 PUSH1 0xA0 SHL SUB AND PUSH2 0x20F9 JUMPI PUSH1 0x40 MLOAD PUSH3 0x461BCD PUSH1 0xE5 SHL DUP2 MSTORE PUSH1 0x20 PUSH1 0x4 DUP3 ADD MSTORE PUSH1 0x2C PUSH1 0x24 DUP3 ADD MSTORE PUSH32 0x4552433732313A206F70657261746F7220717565727920666F72206E6F6E6578 PUSH1 0x44 DUP3 ADD MSTORE PUSH12 0x34B9BA32B73A103A37B5B2B7 PUSH1 0xA1 SHL PUSH1 0x64 DUP3 ADD MSTORE PUSH1 0x84 ADD PUSH2 0xB50 JUMP JUMPDEST PUSH1 0x0 PUSH2 0x2104 DUP4 PUSH2 0x117B JUMP JUMPDEST SWAP1 POP DUP1 PUSH1 0x1 PUSH1 0x1 PUSH1 0xA0 SHL SUB AND DUP5 PUSH1 0x1 PUSH1 0x1 PUSH1 0xA0 SHL SUB AND EQ DUP1 PUSH2 0x213F JUMPI POP DUP4 PUSH1 0x1 PUSH1 0x1 PUSH1 0xA0 SHL SUB AND PUSH2 0x2134 DUP5 PUSH2 0xADB JUMP JUMPDEST PUSH1 0x1 PUSH1 0x1 PUSH1 0xA0 SHL SUB AND EQ JUMPDEST DUP1 PUSH2 0x1A95 JUMPI POP PUSH1 0x1 PUSH1 0x1 PUSH1 0xA0 SHL SUB DUP1 DUP3 AND PUSH1 0x0 SWAP1 DUP2 MSTORE PUSH1 0x5 PUSH1 0x20 SWAP1 DUP2 MSTORE PUSH1 0x40 DUP1 DUP4 KECCAK256 SWAP4 DUP9 AND DUP4 MSTORE SWAP3 SWAP1 MSTORE KECCAK256 SLOAD PUSH1 0xFF AND PUSH2 0x1A95 JUMP JUMPDEST DUP3 PUSH1 0x1 PUSH1 0x1 PUSH1 0xA0 SHL SUB AND PUSH2 0x2186 DUP3 PUSH2 0x117B JUMP JUMPDEST PUSH1 0x1 PUSH1 0x1 PUSH1 0xA0 SHL SUB AND EQ PUSH2 0x21EE JUMPI PUSH1 0x40 MLOAD PUSH3 0x461BCD PUSH1 0xE5 SHL DUP2 MSTORE PUSH1 0x20 PUSH1 0x4 DUP3 ADD MSTORE PUSH1 0x29 PUSH1 0x24 DUP3 ADD MSTORE PUSH32 0x4552433732313A207472616E73666572206F6620746F6B656E20746861742069 PUSH1 0x44 DUP3 ADD MSTORE PUSH9 0x39903737BA1037BBB7 PUSH1 0xB9 SHL PUSH1 0x64 DUP3 ADD MSTORE PUSH1 0x84 ADD PUSH2 0xB50 JUMP JUMPDEST PUSH1 0x1 PUSH1 0x1 PUSH1 0xA0 SHL SUB DUP3 AND PUSH2 0x2250 JUMPI PUSH1 0x40 MLOAD PUSH3 0x461BCD PUSH1 0xE5 SHL DUP2 MSTORE PUSH1 0x20 PUSH1 0x4 DUP3 ADD MSTORE PUSH1 0x24 DUP1 DUP3 ADD MSTORE PUSH32 0x4552433732313A207472616E7366657220746F20746865207A65726F20616464 PUSH1 0x44 DUP3 ADD MSTORE PUSH4 0x72657373 PUSH1 0xE0 SHL PUSH1 0x64 DUP3 ADD MSTORE PUSH1 0x84 ADD PUSH2 0xB50 JUMP JUMPDEST PUSH2 0x225B DUP4 DUP4 DUP4 PUSH2 0x23D6 JUMP JUMPDEST PUSH2 0x2266 PUSH1 0x0 DUP3 PUSH2 0x1FF4 JUMP JUMPDEST PUSH1 0x1 PUSH1 0x1 PUSH1 0xA0 SHL SUB DUP4 AND PUSH1 0x0 SWAP1 DUP2 MSTORE PUSH1 0x3 PUSH1 0x20 MSTORE PUSH1 0x40 DUP2 KECCAK256 DUP1 SLOAD PUSH1 0x1 SWAP3 SWAP1 PUSH2 0x228F SWAP1 DUP5 SWAP1 PUSH2 0x3383 JUMP JUMPDEST SWAP1 SWAP2 SSTORE POP POP PUSH1 0x1 PUSH1 0x1 PUSH1 0xA0 SHL SUB DUP3 AND PUSH1 0x0 SWAP1 DUP2 MSTORE PUSH1 0x3 PUSH1 0x20 MSTORE PUSH1 0x40 DUP2 KECCAK256 DUP1 SLOAD PUSH1 0x1 SWAP3 SWAP1 PUSH2 0x22BD SWAP1 DUP5 SWAP1 PUSH2 0x3412 JUMP JUMPDEST SWAP1 SWAP2 SSTORE POP POP PUSH1 0x0 DUP2 DUP2 MSTORE PUSH1 0x2 PUSH1 0x20 MSTORE PUSH1 0x40 DUP1 DUP3 KECCAK256 DUP1 SLOAD PUSH1 0x1 PUSH1 0x1 PUSH1 0xA0 SHL SUB NOT AND PUSH1 0x1 PUSH1 0x1 PUSH1 0xA0 SHL SUB DUP7 DUP2 AND SWAP2 DUP3 OR SWAP1 SWAP3 SSTORE SWAP2 MLOAD DUP5 SWAP4 SWAP2 DUP8 AND SWAP2 PUSH32 0xDDF252AD1BE2C89B69C2B068FC378DAA952BA7F163C4A11628F55A4DF523B3EF SWAP2 LOG4 POP POP POP JUMP JUMPDEST PUSH1 0xA DUP1 SLOAD PUSH1 0x1 PUSH1 0x1 PUSH1 0xA0 SHL SUB DUP4 DUP2 AND PUSH1 0x1 PUSH1 0x1 PUSH1 0xA0 SHL SUB NOT DUP4 AND DUP2 OR SWAP1 SWAP4 SSTORE PUSH1 0x40 MLOAD SWAP2 AND SWAP2 SWAP1 DUP3 SWAP1 PUSH32 0x8BE0079C531659141344CD1FD0A4F28419497F9722A3DAAFE3B4186F6B6457E0 SWAP1 PUSH1 0x0 SWAP1 LOG3 POP POP JUMP JUMPDEST PUSH2 0x237B DUP5 DUP5 DUP5 PUSH2 0x2173 JUMP JUMPDEST PUSH2 0x2387 DUP5 DUP5 DUP5 DUP5 PUSH2 0x248E JUMP JUMPDEST PUSH2 0x1937 JUMPI PUSH1 0x40 MLOAD PUSH3 0x461BCD PUSH1 0xE5 SHL DUP2 MSTORE PUSH1 0x4 ADD PUSH2 0xB50 SWAP1 PUSH2 0x36A2 JUMP JUMPDEST PUSH2 0x23AD DUP4 DUP4 PUSH2 0x258F JUMP JUMPDEST PUSH2 0x23BA PUSH1 0x0 DUP5 DUP5 DUP5 PUSH2 0x248E JUMP JUMPDEST PUSH2 0xC85 JUMPI PUSH1 0x40 MLOAD PUSH3 0x461BCD PUSH1 0xE5 SHL DUP2 MSTORE PUSH1 0x4 ADD PUSH2 0xB50 SWAP1 PUSH2 0x36A2 JUMP JUMPDEST PUSH1 0x1 PUSH1 0x1 PUSH1 0xA0 SHL SUB DUP4 AND PUSH2 0x2431 JUMPI PUSH2 0x242C DUP2 PUSH1 0x8 DUP1 SLOAD PUSH1 0x0 DUP4 DUP2 MSTORE PUSH1 0x9 PUSH1 0x20 MSTORE PUSH1 0x40 DUP2 KECCAK256 DUP3 SWAP1 SSTORE PUSH1 0x1 DUP3 ADD DUP4 SSTORE SWAP2 SWAP1 SWAP2 MSTORE PUSH32 0xF3F7A9FE364FAAB93B216DA50A3214154F22A0A2B415B23A84C8169E8B636EE3 ADD SSTORE JUMP JUMPDEST PUSH2 0x2454 JUMP JUMPDEST DUP2 PUSH1 0x1 PUSH1 0x1 PUSH1 0xA0 SHL SUB AND DUP4 PUSH1 0x1 PUSH1 0x1 PUSH1 0xA0 SHL SUB AND EQ PUSH2 0x2454 JUMPI PUSH2 0x2454 DUP4 DUP3 PUSH2 0x26DD JUMP JUMPDEST PUSH1 0x1 PUSH1 0x1 PUSH1 0xA0 SHL SUB DUP3 AND PUSH2 0x246B JUMPI PUSH2 0xC85 DUP2 PUSH2 0x277A JUMP JUMPDEST DUP3 PUSH1 0x1 PUSH1 0x1 PUSH1 0xA0 SHL SUB AND DUP3 PUSH1 0x1 PUSH1 0x1 PUSH1 0xA0 SHL SUB AND EQ PUSH2 0xC85 JUMPI PUSH2 0xC85 DUP3 DUP3 PUSH2 0x2829 JUMP JUMPDEST PUSH1 0x0 PUSH1 0x1 PUSH1 0x1 PUSH1 0xA0 SHL SUB DUP5 AND EXTCODESIZE ISZERO PUSH2 0x2584 JUMPI PUSH1 0x40 MLOAD PUSH4 0xA85BD01 PUSH1 0xE1 SHL DUP2 MSTORE PUSH1 0x1 PUSH1 0x1 PUSH1 0xA0 SHL SUB DUP6 AND SWAP1 PUSH4 0x150B7A02 SWAP1 PUSH2 0x24D2 SWAP1 CALLER SWAP1 DUP10 SWAP1 DUP9 SWAP1 DUP9 SWAP1 PUSH1 0x4 ADD PUSH2 0x36F4 JUMP JUMPDEST PUSH1 0x20 PUSH1 0x40 MLOAD DUP1 DUP4 SUB DUP2 PUSH1 0x0 DUP8 GAS CALL SWAP3 POP POP POP DUP1 ISZERO PUSH2 0x250D JUMPI POP PUSH1 0x40 DUP1 MLOAD PUSH1 0x1F RETURNDATASIZE SWAP1 DUP2 ADD PUSH1 0x1F NOT AND DUP3 ADD SWAP1 SWAP3 MSTORE PUSH2 0x250A SWAP2 DUP2 ADD SWAP1 PUSH2 0x3731 JUMP JUMPDEST PUSH1 0x1 JUMPDEST PUSH2 0x256A JUMPI RETURNDATASIZE DUP1 DUP1 ISZERO PUSH2 0x253B JUMPI PUSH1 0x40 MLOAD SWAP2 POP PUSH1 0x1F NOT PUSH1 0x3F RETURNDATASIZE ADD AND DUP3 ADD PUSH1 0x40 MSTORE RETURNDATASIZE DUP3 MSTORE RETURNDATASIZE PUSH1 0x0 PUSH1 0x20 DUP5 ADD RETURNDATACOPY PUSH2 0x2540 JUMP JUMPDEST PUSH1 0x60 SWAP2 POP JUMPDEST POP DUP1 MLOAD PUSH1 0x0 SUB PUSH2 0x2562 JUMPI PUSH1 0x40 MLOAD PUSH3 0x461BCD PUSH1 0xE5 SHL DUP2 MSTORE PUSH1 0x4 ADD PUSH2 0xB50 SWAP1 PUSH2 0x36A2 JUMP JUMPDEST DUP1 MLOAD DUP2 PUSH1 0x20 ADD REVERT JUMPDEST PUSH1 0x1 PUSH1 0x1 PUSH1 0xE0 SHL SUB NOT AND PUSH4 0xA85BD01 PUSH1 0xE1 SHL EQ SWAP1 POP PUSH2 0x1A95 JUMP JUMPDEST POP PUSH1 0x1 SWAP5 SWAP4 POP POP POP POP JUMP JUMPDEST PUSH1 0x1 PUSH1 0x1 PUSH1 0xA0 SHL SUB DUP3 AND PUSH2 0x25E5 JUMPI PUSH1 0x40 MLOAD PUSH3 0x461BCD PUSH1 0xE5 SHL DUP2 MSTORE PUSH1 0x20 PUSH1 0x4 DUP3 ADD DUP2 SWAP1 MSTORE PUSH1 0x24 DUP3 ADD MSTORE PUSH32 0x4552433732313A206D696E7420746F20746865207A65726F2061646472657373 PUSH1 0x44 DUP3 ADD MSTORE PUSH1 0x64 ADD PUSH2 0xB50 JUMP JUMPDEST PUSH1 0x0 DUP2 DUP2 MSTORE PUSH1 0x2 PUSH1 0x20 MSTORE PUSH1 0x40 SWAP1 KECCAK256 SLOAD PUSH1 0x1 PUSH1 0x1 PUSH1 0xA0 SHL SUB AND ISZERO PUSH2 0x264A JUMPI PUSH1 0x40 MLOAD PUSH3 0x461BCD PUSH1 0xE5 SHL DUP2 MSTORE PUSH1 0x20 PUSH1 0x4 DUP3 ADD MSTORE PUSH1 0x1C PUSH1 0x24 DUP3 ADD MSTORE PUSH32 0x4552433732313A20746F6B656E20616C7265616479206D696E74656400000000 PUSH1 0x44 DUP3 ADD MSTORE PUSH1 0x64 ADD PUSH2 0xB50 JUMP JUMPDEST PUSH2 0x2656 PUSH1 0x0 DUP4 DUP4 PUSH2 0x23D6 JUMP JUMPDEST PUSH1 0x1 PUSH1 0x1 PUSH1 0xA0 SHL SUB DUP3 AND PUSH1 0x0 SWAP1 DUP2 MSTORE PUSH1 0x3 PUSH1 0x20 MSTORE PUSH1 0x40 DUP2 KECCAK256 DUP1 SLOAD PUSH1 0x1 SWAP3 SWAP1 PUSH2 0x267F SWAP1 DUP5 SWAP1 PUSH2 0x3412 JUMP JUMPDEST SWAP1 SWAP2 SSTORE POP POP PUSH1 0x0 DUP2 DUP2 MSTORE PUSH1 0x2 PUSH1 0x20 MSTORE PUSH1 0x40 DUP1 DUP3 KECCAK256 DUP1 SLOAD PUSH1 0x1 PUSH1 0x1 PUSH1 0xA0 SHL SUB NOT AND PUSH1 0x1 PUSH1 0x1 PUSH1 0xA0 SHL SUB DUP7 AND SWAP1 DUP2 OR SWAP1 SWAP2 SSTORE SWAP1 MLOAD DUP4 SWAP3 SWAP1 PUSH32 0xDDF252AD1BE2C89B69C2B068FC378DAA952BA7F163C4A11628F55A4DF523B3EF SWAP1 DUP3 SWAP1 LOG4 POP POP JUMP JUMPDEST PUSH1 0x0 PUSH1 0x1 PUSH2 0x26EA DUP5 PUSH2 0x11F2 JUMP JUMPDEST PUSH2 0x26F4 SWAP2 SWAP1 PUSH2 0x3383 JUMP JUMPDEST PUSH1 0x0 DUP4 DUP2 MSTORE PUSH1 0x7 PUSH1 0x20 MSTORE PUSH1 0x40 SWAP1 KECCAK256 SLOAD SWAP1 SWAP2 POP DUP1 DUP3 EQ PUSH2 0x2747 JUMPI PUSH1 0x1 PUSH1 0x1 PUSH1 0xA0 SHL SUB DUP5 AND PUSH1 0x0 SWAP1 DUP2 MSTORE PUSH1 0x6 PUSH1 0x20 SWAP1 DUP2 MSTORE PUSH1 0x40 DUP1 DUP4 KECCAK256 DUP6 DUP5 MSTORE DUP3 MSTORE DUP1 DUP4 KECCAK256 SLOAD DUP5 DUP5 MSTORE DUP2 DUP5 KECCAK256 DUP2 SWAP1 SSTORE DUP4 MSTORE PUSH1 0x7 SWAP1 SWAP2 MSTORE SWAP1 KECCAK256 DUP2 SWAP1 SSTORE JUMPDEST POP PUSH1 0x0 SWAP2 DUP3 MSTORE PUSH1 0x7 PUSH1 0x20 SWAP1 DUP2 MSTORE PUSH1 0x40 DUP1 DUP5 KECCAK256 DUP5 SWAP1 SSTORE PUSH1 0x1 PUSH1 0x1 PUSH1 0xA0 SHL SUB SWAP1 SWAP5 AND DUP4 MSTORE PUSH1 0x6 DUP2 MSTORE DUP4 DUP4 KECCAK256 SWAP2 DUP4 MSTORE MSTORE SWAP1 DUP2 KECCAK256 SSTORE JUMP JUMPDEST PUSH1 0x8 SLOAD PUSH1 0x0 SWAP1 PUSH2 0x278C SWAP1 PUSH1 0x1 SWAP1 PUSH2 0x3383 JUMP JUMPDEST PUSH1 0x0 DUP4 DUP2 MSTORE PUSH1 0x9 PUSH1 0x20 MSTORE PUSH1 0x40 DUP2 KECCAK256 SLOAD PUSH1 0x8 DUP1 SLOAD SWAP4 SWAP5 POP SWAP1 SWAP3 DUP5 SWAP1 DUP2 LT PUSH2 0x27B4 JUMPI PUSH2 0x27B4 PUSH2 0x35DD JUMP JUMPDEST SWAP1 PUSH1 0x0 MSTORE PUSH1 0x20 PUSH1 0x0 KECCAK256 ADD SLOAD SWAP1 POP DUP1 PUSH1 0x8 DUP4 DUP2 SLOAD DUP2 LT PUSH2 0x27D5 JUMPI PUSH2 0x27D5 PUSH2 0x35DD JUMP JUMPDEST PUSH1 0x0 SWAP2 DUP3 MSTORE PUSH1 0x20 DUP1 DUP4 KECCAK256 SWAP1 SWAP2 ADD SWAP3 SWAP1 SWAP3 SSTORE DUP3 DUP2 MSTORE PUSH1 0x9 SWAP1 SWAP2 MSTORE PUSH1 0x40 DUP1 DUP3 KECCAK256 DUP5 SWAP1 SSTORE DUP6 DUP3 MSTORE DUP2 KECCAK256 SSTORE PUSH1 0x8 DUP1 SLOAD DUP1 PUSH2 0x280D JUMPI PUSH2 0x280D PUSH2 0x374E JUMP JUMPDEST PUSH1 0x1 SWAP1 SUB DUP2 DUP2 SWAP1 PUSH1 0x0 MSTORE PUSH1 0x20 PUSH1 0x0 KECCAK256 ADD PUSH1 0x0 SWAP1 SSTORE SWAP1 SSTORE POP POP POP POP JUMP JUMPDEST PUSH1 0x0 PUSH2 0x2834 DUP4 PUSH2 0x11F2 JUMP JUMPDEST PUSH1 0x1 PUSH1 0x1 PUSH1 0xA0 SHL SUB SWAP1 SWAP4 AND PUSH1 0x0 SWAP1 DUP2 MSTORE PUSH1 0x6 PUSH1 0x20 SWAP1 DUP2 MSTORE PUSH1 0x40 DUP1 DUP4 KECCAK256 DUP7 DUP5 MSTORE DUP3 MSTORE DUP1 DUP4 KECCAK256 DUP6 SWAP1 SSTORE SWAP4 DUP3 MSTORE PUSH1 0x7 SWAP1 MSTORE SWAP2 SWAP1 SWAP2 KECCAK256 SWAP2 SWAP1 SWAP2 SSTORE POP JUMP JUMPDEST PUSH1 0x40 MLOAD DUP1 PUSH2 0x1C0 ADD PUSH1 0x40 MSTORE DUP1 PUSH1 0x0 DUP2 MSTORE PUSH1 0x20 ADD PUSH1 0x0 DUP2 MSTORE PUSH1 0x20 ADD PUSH1 0x0 DUP2 MSTORE PUSH1 0x20 ADD PUSH1 0x0 DUP2 MSTORE PUSH1 0x20 ADD PUSH1 0x0 DUP2 MSTORE PUSH1 0x20 ADD PUSH1 0x0 DUP2 MSTORE PUSH1 0x20 ADD PUSH1 0x0 DUP2 MSTORE PUSH1 0x20 ADD PUSH1 0x0 DUP2 MSTORE PUSH1 0x20 ADD PUSH1 0x0 DUP2 MSTORE PUSH1 0x20 ADD PUSH1 0x0 DUP2 MSTORE PUSH1 0x20 ADD PUSH1 0x0 DUP2 MSTORE PUSH1 0x20 ADD PUSH1 0x0 DUP2 MSTORE PUSH1 0x20 ADD PUSH1 0x0 DUP2 MSTORE PUSH1 0x20 ADD PUSH1 0x0 PUSH1 0x3 DUP2 GT ISZERO PUSH2 0x28E7 JUMPI PUSH2 0x28E7 PUSH2 0x2BFF JUMP JUMPDEST SWAP1 MSTORE SWAP1 JUMP JUMPDEST PUSH1 0x1 PUSH1 0x1 PUSH1 0xE0 SHL SUB NOT DUP2 AND DUP2 EQ PUSH2 0x10E5 JUMPI PUSH1 0x0 DUP1 REVERT JUMPDEST PUSH1 0x0 PUSH1 0x20 DUP3 DUP5 SUB SLT ISZERO PUSH2 0x2914 JUMPI PUSH1 0x0 DUP1 REVERT JUMPDEST DUP2 CALLDATALOAD PUSH2 0xA42 DUP2 PUSH2 0x28EC JUMP JUMPDEST PUSH4 0x4E487B71 PUSH1 0xE0 SHL PUSH1 0x0 MSTORE PUSH1 0x41 PUSH1 0x4 MSTORE PUSH1 0x24 PUSH1 0x0 REVERT JUMPDEST PUSH1 0x0 PUSH8 0xFFFFFFFFFFFFFFFF DUP1 DUP5 GT ISZERO PUSH2 0x2950 JUMPI PUSH2 0x2950 PUSH2 0x291F JUMP JUMPDEST PUSH1 0x40 MLOAD PUSH1 0x1F DUP6 ADD PUSH1 0x1F NOT SWAP1 DUP2 AND PUSH1 0x3F ADD AND DUP2 ADD SWAP1 DUP3 DUP3 GT DUP2 DUP4 LT OR ISZERO PUSH2 0x2978 JUMPI PUSH2 0x2978 PUSH2 0x291F JUMP JUMPDEST DUP2 PUSH1 0x40 MSTORE DUP1 SWAP4 POP DUP6 DUP2 MSTORE DUP7 DUP7 DUP7 ADD GT ISZERO PUSH2 0x2991 JUMPI PUSH1 0x0 DUP1 REVERT JUMPDEST DUP6 DUP6 PUSH1 0x20 DUP4 ADD CALLDATACOPY PUSH1 0x0 PUSH1 0x20 DUP8 DUP4 ADD ADD MSTORE POP POP POP SWAP4 SWAP3 POP POP POP JUMP JUMPDEST PUSH1 0x0 DUP3 PUSH1 0x1F DUP4 ADD SLT PUSH2 0x29BC JUMPI PUSH1 0x0 DUP1 REVERT JUMPDEST PUSH2 0xA42 DUP4 DUP4 CALLDATALOAD PUSH1 0x20 DUP6 ADD PUSH2 0x2935 JUMP JUMPDEST PUSH1 0x0 DUP1 PUSH1 0x40 DUP4 DUP6 SUB SLT ISZERO PUSH2 0x29DE JUMPI PUSH1 0x0 DUP1 REVERT JUMPDEST DUP3 CALLDATALOAD SWAP2 POP PUSH1 0x20 DUP4 ADD CALLDATALOAD PUSH8 0xFFFFFFFFFFFFFFFF DUP2 GT ISZERO PUSH2 0x29FC JUMPI PUSH1 0x0 DUP1 REVERT JUMPDEST PUSH2 0x2A08 DUP6 DUP3 DUP7 ADD PUSH2 0x29AB JUMP JUMPDEST SWAP2 POP POP SWAP3 POP SWAP3 SWAP1 POP JUMP JUMPDEST PUSH1 0x0 JUMPDEST DUP4 DUP2 LT ISZERO PUSH2 0x2A2D JUMPI DUP2 DUP2 ADD MLOAD DUP4 DUP3 ADD MSTORE PUSH1 0x20 ADD PUSH2 0x2A15 JUMP JUMPDEST DUP4 DUP2 GT ISZERO PUSH2 0x1937 JUMPI POP POP PUSH1 0x0 SWAP2 ADD MSTORE JUMP JUMPDEST PUSH1 0x0 DUP2 MLOAD DUP1 DUP5 MSTORE PUSH2 0x2A56 DUP2 PUSH1 0x20 DUP7 ADD PUSH1 0x20 DUP7 ADD PUSH2 0x2A12 JUMP JUMPDEST PUSH1 0x1F ADD PUSH1 0x1F NOT AND SWAP3 SWAP1 SWAP3 ADD PUSH1 0x20 ADD SWAP3 SWAP2 POP POP JUMP JUMPDEST PUSH1 0x20 DUP2 MSTORE PUSH1 0x0 PUSH2 0xA42 PUSH1 0x20 DUP4 ADD DUP5 PUSH2 0x2A3E JUMP JUMPDEST PUSH1 0x0 PUSH1 0x20 DUP3 DUP5 SUB SLT ISZERO PUSH2 0x2A8F JUMPI PUSH1 0x0 DUP1 REVERT JUMPDEST POP CALLDATALOAD SWAP2 SWAP1 POP JUMP JUMPDEST DUP1 CALLDATALOAD PUSH1 0x1 PUSH1 0x1 PUSH1 0xA0 SHL SUB DUP2 AND DUP2 EQ PUSH2 0x2AAD JUMPI PUSH1 0x0 DUP1 REVERT JUMPDEST SWAP2 SWAP1 POP JUMP JUMPDEST PUSH1 0x0 DUP1 PUSH1 0x40 DUP4 DUP6 SUB SLT ISZERO PUSH2 0x2AC5 JUMPI PUSH1 0x0 DUP1 REVERT JUMPDEST PUSH2 0x2ACE DUP4 PUSH2 0x2A96 JUMP JUMPDEST SWAP5 PUSH1 0x20 SWAP4 SWAP1 SWAP4 ADD CALLDATALOAD SWAP4 POP POP POP JUMP JUMPDEST PUSH1 0x0 DUP1 PUSH1 0x0 PUSH1 0x60 DUP5 DUP7 SUB SLT ISZERO PUSH2 0x2AF1 JUMPI PUSH1 0x0 DUP1 REVERT JUMPDEST PUSH2 0x2AFA DUP5 PUSH2 0x2A96 JUMP JUMPDEST SWAP3 POP PUSH2 0x2B08 PUSH1 0x20 DUP6 ADD PUSH2 0x2A96 JUMP JUMPDEST SWAP2 POP PUSH1 0x40 DUP5 ADD CALLDATALOAD SWAP1 POP SWAP3 POP SWAP3 POP SWAP3 JUMP JUMPDEST PUSH1 0x0 DUP1 PUSH1 0x0 DUP1 PUSH1 0x0 PUSH1 0xA0 DUP7 DUP9 SUB SLT ISZERO PUSH2 0x2B30 JUMPI PUSH1 0x0 DUP1 REVERT JUMPDEST DUP6 CALLDATALOAD PUSH8 0xFFFFFFFFFFFFFFFF DUP2 GT ISZERO PUSH2 0x2B47 JUMPI PUSH1 0x0 DUP1 REVERT JUMPDEST PUSH2 0x2B53 DUP9 DUP3 DUP10 ADD PUSH2 0x29AB JUMP JUMPDEST SWAP9 PUSH1 0x20 DUP9 ADD CALLDATALOAD SWAP9 POP PUSH1 0x40 DUP9 ADD CALLDATALOAD SWAP8 PUSH1 0x60 DUP2 ADD CALLDATALOAD SWAP8 POP PUSH1 0x80 ADD CALLDATALOAD SWAP6 POP SWAP4 POP POP POP POP JUMP JUMPDEST PUSH1 0x0 PUSH1 0x20 DUP3 DUP5 SUB SLT ISZERO PUSH2 0x2B87 JUMPI PUSH1 0x0 DUP1 REVERT JUMPDEST PUSH2 0xA42 DUP3 PUSH2 0x2A96 JUMP JUMPDEST PUSH1 0x0 DUP1 PUSH1 0x0 DUP1 PUSH1 0x0 PUSH1 0xA0 DUP7 DUP9 SUB SLT ISZERO PUSH2 0x2BA8 JUMPI PUSH1 0x0 DUP1 REVERT JUMPDEST DUP6 CALLDATALOAD SWAP5 POP PUSH1 0x20 DUP7 ADD CALLDATALOAD SWAP4 POP PUSH1 0x40 DUP7 ADD CALLDATALOAD PUSH1 0x4 DUP2 LT PUSH2 0x2BC5 JUMPI PUSH1 0x0 DUP1 REVERT JUMPDEST SWAP5 SWAP8 SWAP4 SWAP7 POP SWAP4 SWAP5 PUSH1 0x60 DUP2 ADD CALLDATALOAD SWAP5 POP PUSH1 0x80 ADD CALLDATALOAD SWAP3 SWAP2 POP POP JUMP JUMPDEST PUSH1 0x0 DUP1 PUSH1 0x40 DUP4 DUP6 SUB SLT ISZERO PUSH2 0x2BF0 JUMPI PUSH1 0x0 DUP1 REVERT JUMPDEST POP POP DUP1 CALLDATALOAD SWAP3 PUSH1 0x20 SWAP1 SWAP2 ADD CALLDATALOAD SWAP2 POP JUMP JUMPDEST PUSH4 0x4E487B71 PUSH1 0xE0 SHL PUSH1 0x0 MSTORE PUSH1 0x21 PUSH1 0x4 MSTORE PUSH1 0x24 PUSH1 0x0 REVERT JUMPDEST PUSH1 0x4 DUP2 LT PUSH2 0x2C33 JUMPI PUSH4 0x4E487B71 PUSH1 0xE0 SHL PUSH1 0x0 MSTORE PUSH1 0x21 PUSH1 0x4 MSTORE PUSH1 0x24 PUSH1 0x0 REVERT JUMPDEST SWAP1 MSTORE JUMP JUMPDEST PUSH1 0x0 PUSH2 0x1C0 DUP3 ADD SWAP1 POP DUP3 MLOAD DUP3 MSTORE PUSH1 0x20 DUP4 ADD MLOAD PUSH1 0x20 DUP4 ADD MSTORE PUSH1 0x40 DUP4 ADD MLOAD PUSH1 0x40 DUP4 ADD MSTORE PUSH1 0x60 DUP4 ADD MLOAD PUSH1 0x60 DUP4 ADD MSTORE PUSH1 0x80 DUP4 ADD MLOAD PUSH1 0x80 DUP4 ADD MSTORE PUSH1 0xA0 DUP4 ADD MLOAD PUSH1 0xA0 DUP4 ADD MSTORE PUSH1 0xC0 DUP4 ADD MLOAD PUSH1 0xC0 DUP4 ADD MSTORE PUSH1 0xE0 DUP4 ADD MLOAD PUSH1 0xE0 DUP4 ADD MSTORE PUSH2 0x100 DUP1 DUP5 ADD MLOAD DUP2 DUP5 ADD MSTORE POP PUSH2 0x120 DUP1 DUP5 ADD MLOAD DUP2 DUP5 ADD MSTORE POP PUSH2 0x140 DUP1 DUP5 ADD MLOAD DUP2 DUP5 ADD MSTORE POP PUSH2 0x160 DUP1 DUP5 ADD MLOAD DUP2 DUP5 ADD MSTORE POP PUSH2 0x180 DUP1 DUP5 ADD MLOAD DUP2 DUP5 ADD MSTORE POP PUSH2 0x1A0 DUP1 DUP5 ADD MLOAD PUSH2 0x2CD9 DUP3 DUP6 ADD DUP3 PUSH2 0x2C15 JUMP JUMPDEST POP POP SWAP3 SWAP2 POP POP JUMP JUMPDEST PUSH1 0x0 DUP1 PUSH1 0x40 DUP4 DUP6 SUB SLT ISZERO PUSH2 0x2CF4 JUMPI PUSH1 0x0 DUP1 REVERT JUMPDEST PUSH2 0x2CFD DUP4 PUSH2 0x2A96 JUMP JUMPDEST SWAP2 POP PUSH1 0x20 DUP4 ADD CALLDATALOAD DUP1 ISZERO ISZERO DUP2 EQ PUSH2 0x2D12 JUMPI PUSH1 0x0 DUP1 REVERT JUMPDEST DUP1 SWAP2 POP POP SWAP3 POP SWAP3 SWAP1 POP JUMP JUMPDEST PUSH1 0x0 DUP1 PUSH1 0x0 DUP1 PUSH1 0x80 DUP6 DUP8 SUB SLT ISZERO PUSH2 0x2D33 JUMPI PUSH1 0x0 DUP1 REVERT JUMPDEST PUSH2 0x2D3C DUP6 PUSH2 0x2A96 JUMP JUMPDEST SWAP4 POP PUSH2 0x2D4A PUSH1 0x20 DUP7 ADD PUSH2 0x2A96 JUMP JUMPDEST SWAP3 POP PUSH1 0x40 DUP6 ADD CALLDATALOAD SWAP2 POP PUSH1 0x60 DUP6 ADD CALLDATALOAD PUSH8 0xFFFFFFFFFFFFFFFF DUP2 GT ISZERO PUSH2 0x2D6D JUMPI PUSH1 0x0 DUP1 REVERT JUMPDEST DUP6 ADD PUSH1 0x1F DUP2 ADD DUP8 SGT PUSH2 0x2D7E JUMPI PUSH1 0x0 DUP1 REVERT JUMPDEST PUSH2 0x2D8D DUP8 DUP3 CALLDATALOAD PUSH1 0x20 DUP5 ADD PUSH2 0x2935 JUMP JUMPDEST SWAP2 POP POP SWAP3 SWAP6 SWAP2 SWAP5 POP SWAP3 POP JUMP JUMPDEST PUSH1 0x0 PUSH2 0x1C0 DUP3 ADD SWAP1 POP DUP16 DUP3 MSTORE DUP15 PUSH1 0x20 DUP4 ADD MSTORE DUP14 PUSH1 0x40 DUP4 ADD MSTORE DUP13 PUSH1 0x60 DUP4 ADD MSTORE DUP12 PUSH1 0x80 DUP4 ADD MSTORE DUP11 PUSH1 0xA0 DUP4 ADD MSTORE DUP10 PUSH1 0xC0 DUP4 ADD MSTORE DUP9 PUSH1 0xE0 DUP4 ADD MSTORE DUP8 PUSH2 0x100 DUP4 ADD MSTORE DUP7 PUSH2 0x120 DUP4 ADD MSTORE DUP6 PUSH2 0x140 DUP4 ADD MSTORE DUP5 PUSH2 0x160 DUP4 ADD MSTORE DUP4 PUSH2 0x180 DUP4 ADD MSTORE PUSH2 0x2E00 PUSH2 0x1A0 DUP4 ADD DUP5 PUSH2 0x2C15 JUMP JUMPDEST SWAP16 SWAP15 POP POP POP POP POP POP POP POP POP POP POP POP POP POP POP JUMP JUMPDEST PUSH1 0x0 PUSH2 0x120 DUP12 DUP4 MSTORE DUP11 PUSH1 0x20 DUP5 ADD MSTORE DUP10 PUSH1 0x40 DUP5 ADD MSTORE DUP9 PUSH1 0x60 DUP5 ADD MSTORE PUSH1 0x1 DUP1 PUSH1 0xA0 SHL SUB DUP9 AND PUSH1 0x80 DUP5 ADD MSTORE DUP7 PUSH1 0xA0 DUP5 ADD MSTORE DUP6 PUSH1 0xC0 DUP5 ADD MSTORE DUP5 PUSH1 0xE0 DUP5 ADD MSTORE DUP1 PUSH2 0x100 DUP5 ADD MSTORE PUSH2 0x2E60 DUP2 DUP5 ADD DUP6 PUSH2 0x2A3E JUMP JUMPDEST SWAP13 SWAP12 POP POP POP POP POP POP POP POP POP POP POP POP JUMP JUMPDEST PUSH1 0x0 DUP1 PUSH1 0x40 DUP4 DUP6 SUB SLT ISZERO PUSH2 0x2E83 JUMPI PUSH1 0x0 DUP1 REVERT JUMPDEST PUSH2 0x2E8C DUP4 PUSH2 0x2A96 JUMP JUMPDEST SWAP2 POP PUSH2 0x2E9A PUSH1 0x20 DUP5 ADD PUSH2 0x2A96 JUMP JUMPDEST SWAP1 POP SWAP3 POP SWAP3 SWAP1 POP JUMP JUMPDEST PUSH1 0x0 DUP2 MLOAD PUSH2 0x2EB5 DUP2 DUP6 PUSH1 0x20 DUP7 ADD PUSH2 0x2A12 JUMP JUMPDEST SWAP3 SWAP1 SWAP3 ADD SWAP3 SWAP2 POP POP JUMP JUMPDEST PUSH32 0x7B226465736372697074696F6E223A202257697A61726441726D792200000000 DUP2 MSTORE PUSH32 0x2C202265787465726E616C5F75726C223A202268747470733A2F2F77697A6172 PUSH1 0x1C DUP3 ADD MSTORE PUSH32 0x6461726D794E46542E636F6D20286F7220736F6D657468696E67206C696B6520 PUSH1 0x3C DUP3 ADD MSTORE PUSH6 0x3A3434B99491 PUSH1 0xD1 SHL PUSH1 0x5C DUP3 ADD MSTORE PUSH12 0x16101134B6B0B3B2911D1011 PUSH1 0xA1 SHL PUSH1 0x62 DUP3 ADD MSTORE DUP3 MLOAD PUSH1 0x0 SWAP1 PUSH2 0x2F68 DUP2 PUSH1 0x6E DUP6 ADD PUSH1 0x20 DUP9 ADD PUSH2 0x2A12 JUMP JUMPDEST PUSH1 0x11 PUSH1 0xF9 SHL PUSH1 0x6E SWAP2 DUP5 ADD SWAP2 DUP3 ADD MSTORE PUSH18 0x1610113730B6B2911D10112BB4BD30B93211 PUSH1 0x71 SHL PUSH1 0x6F DUP3 ADD MSTORE PUSH32 0x2C202261747472696275746573223A205B7B22646973706C61795F7479706522 PUSH1 0x81 DUP3 ADD MSTORE PUSH32 0x3A20226E756D626572222C202274726169745F74797065223A20226C6576656C PUSH1 0xA1 DUP3 ADD MSTORE PUSH12 0x111610113B30B63AB2911D1 PUSH1 0xA5 SHL PUSH1 0xC1 DUP3 ADD MSTORE PUSH2 0x3010 PUSH2 0x3002 PUSH1 0xCD DUP4 ADD DUP7 PUSH2 0x2EA3 JUMP JUMPDEST PUSH2 0x207D PUSH1 0xF0 SHL DUP2 MSTORE PUSH1 0x2 ADD SWAP1 JUMP JUMPDEST SWAP6 SWAP5 POP POP POP POP POP JUMP JUMPDEST PUSH1 0x0 DUP6 MLOAD PUSH2 0x302B DUP2 DUP5 PUSH1 0x20 DUP11 ADD PUSH2 0x2A12 JUMP JUMPDEST DUP1 DUP4 ADD SWAP1 POP PUSH32 0x2C207B22646973706C61795F74797065223A20226E756D626572222C20227472 DUP1 DUP3 MSTORE PUSH32 0x6169745F74797065223A20226870222C202276616C7565223A20000000000000 PUSH1 0x20 DUP4 ADD MSTORE DUP7 MLOAD PUSH2 0x308D DUP2 PUSH1 0x3A DUP6 ADD PUSH1 0x20 DUP12 ADD PUSH2 0x2A12 JUMP JUMPDEST PUSH2 0x207D PUSH1 0xF0 SHL PUSH1 0x3A SWAP4 SWAP1 SWAP2 ADD SWAP3 DUP4 ADD DUP2 SWAP1 MSTORE PUSH1 0x3C DUP4 ADD DUP3 SWAP1 MSTORE PUSH32 0x6169745F74797065223A20226D61676963616C20706F776572222C202276616C PUSH1 0x5C DUP5 ADD MSTORE PUSH5 0x3AB2911D1 PUSH1 0xDD SHL PUSH1 0x7C DUP5 ADD MSTORE DUP7 MLOAD PUSH2 0x30ED DUP2 PUSH1 0x81 DUP7 ADD PUSH1 0x20 DUP12 ADD PUSH2 0x2A12 JUMP JUMPDEST PUSH1 0x81 SWAP4 ADD SWAP3 DUP4 ADD MSTORE PUSH1 0x83 DUP3 ADD MSTORE PUSH32 0x6169745F74797065223A20226D61676963616C20646566656E7365222C202276 PUSH1 0xA3 DUP3 ADD MSTORE PUSH7 0x30B63AB2911D1 PUSH1 0xCD SHL PUSH1 0xC3 DUP3 ADD MSTORE PUSH2 0x3140 PUSH2 0x3002 PUSH1 0xCA DUP4 ADD DUP7 PUSH2 0x2EA3 JUMP JUMPDEST SWAP8 SWAP7 POP POP POP POP POP POP POP JUMP JUMPDEST PUSH1 0x0 DUP5 MLOAD PUSH2 0x315D DUP2 DUP5 PUSH1 0x20 DUP10 ADD PUSH2 0x2A12 JUMP JUMPDEST DUP1 DUP4 ADD SWAP1 POP PUSH32 0x2C207B22646973706C61795F74797065223A20226E756D626572222C20227472 DUP1 DUP3 MSTORE PUSH32 0x6169745F74797065223A20227370656564222C202276616C7565223A20000000 PUSH1 0x20 DUP4 ADD MSTORE DUP6 MLOAD PUSH2 0x31BF DUP2 PUSH1 0x3D DUP6 ADD PUSH1 0x20 DUP11 ADD PUSH2 0x2A12 JUMP JUMPDEST DUP1 DUP4 ADD SWAP3 POP POP PUSH2 0x207D PUSH1 0xF0 SHL DUP1 PUSH1 0x3D DUP5 ADD MSTORE DUP2 PUSH1 0x3F DUP5 ADD MSTORE PUSH32 0x6169745F74797065223A202277696E73222C202276616C7565223A2000000000 PUSH1 0x5F DUP5 ADD MSTORE DUP6 MLOAD SWAP2 POP PUSH2 0x3212 DUP3 PUSH1 0x7B DUP6 ADD PUSH1 0x20 DUP10 ADD PUSH2 0x2A12 JUMP JUMPDEST PUSH1 0x7B SWAP3 SWAP1 SWAP2 ADD SWAP2 DUP3 ADD MSTORE PUSH1 0x7D ADD SWAP6 SWAP5 POP POP POP POP POP JUMP JUMPDEST PUSH1 0x0 DUP6 MLOAD PUSH2 0x323A DUP2 DUP5 PUSH1 0x20 DUP11 ADD PUSH2 0x2A12 JUMP JUMPDEST DUP1 DUP4 ADD SWAP1 POP PUSH32 0x2C207B22646973706C61795F74797065223A20226E756D626572222C20227472 DUP1 DUP3 MSTORE PUSH32 0x6169745F74797065223A20226C6F73736573222C202276616C7565223A200000 PUSH1 0x20 DUP4 ADD MSTORE DUP7 MLOAD PUSH2 0x329C DUP2 PUSH1 0x3E DUP6 ADD PUSH1 0x20 DUP12 ADD PUSH2 0x2A12 JUMP JUMPDEST DUP1 DUP4 ADD SWAP3 POP POP PUSH2 0x207D PUSH1 0xF0 SHL DUP1 PUSH1 0x3E DUP5 ADD MSTORE DUP2 PUSH1 0x40 DUP5 ADD MSTORE PUSH32 0x6169745F74797065223A2022626174746C6573222C202276616C7565223A2000 PUSH1 0x60 DUP5 ADD MSTORE DUP7 MLOAD PUSH2 0x32ED DUP2 PUSH1 0x7F DUP7 ADD PUSH1 0x20 DUP12 ADD PUSH2 0x2A12 JUMP JUMPDEST PUSH1 0x7F SWAP4 ADD SWAP3 DUP4 ADD MSTORE PUSH1 0x81 DUP3 ADD MSTORE PUSH32 0x6169745F74797065223A2022746F6B656E73436C61696D6564222C202276616C PUSH1 0xA1 DUP3 ADD MSTORE PUSH5 0x3AB2911D1 PUSH1 0xDD SHL PUSH1 0xC1 DUP3 ADD MSTORE PUSH2 0x3140 PUSH2 0x3002 PUSH1 0xC6 DUP4 ADD DUP7 PUSH2 0x2EA3 JUMP JUMPDEST PUSH1 0x0 DUP3 MLOAD PUSH2 0x3350 DUP2 DUP5 PUSH1 0x20 DUP8 ADD PUSH2 0x2A12 JUMP JUMPDEST PUSH1 0x5D PUSH1 0xF8 SHL SWAP3 ADD SWAP2 DUP3 MSTORE POP PUSH1 0x7D PUSH1 0xF8 SHL PUSH1 0x1 DUP3 ADD MSTORE PUSH1 0x2 ADD SWAP2 SWAP1 POP JUMP JUMPDEST PUSH4 0x4E487B71 PUSH1 0xE0 SHL PUSH1 0x0 MSTORE PUSH1 0x11 PUSH1 0x4 MSTORE PUSH1 0x24 PUSH1 0x0 REVERT JUMPDEST PUSH1 0x0 DUP3 DUP3 LT ISZERO PUSH2 0x3395 JUMPI PUSH2 0x3395 PUSH2 0x336D JUMP JUMPDEST POP SUB SWAP1 JUMP JUMPDEST PUSH4 0x4E487B71 PUSH1 0xE0 SHL PUSH1 0x0 MSTORE PUSH1 0x12 PUSH1 0x4 MSTORE PUSH1 0x24 PUSH1 0x0 REVERT JUMPDEST PUSH1 0x0 DUP3 PUSH2 0x33BF JUMPI PUSH2 0x33BF PUSH2 0x339A JUMP JUMPDEST POP DIV SWAP1 JUMP JUMPDEST PUSH1 0x1 DUP2 DUP2 SHR SWAP1 DUP3 AND DUP1 PUSH2 0x33D8 JUMPI PUSH1 0x7F DUP3 AND SWAP2 POP JUMPDEST PUSH1 0x20 DUP3 LT DUP2 SUB PUSH2 0x33F8 JUMPI PUSH4 0x4E487B71 PUSH1 0xE0 SHL PUSH1 0x0 MSTORE PUSH1 0x22 PUSH1 0x4 MSTORE PUSH1 0x24 PUSH1 0x0 REVERT JUMPDEST POP SWAP2 SWAP1 POP JUMP JUMPDEST PUSH1 0x0 DUP3 PUSH2 0x340D JUMPI PUSH2 0x340D PUSH2 0x339A JUMP JUMPDEST POP MOD SWAP1 JUMP JUMPDEST PUSH1 0x0 DUP3 NOT DUP3 GT ISZERO PUSH2 0x3425 JUMPI PUSH2 0x3425 PUSH2 0x336D JUMP JUMPDEST POP ADD SWAP1 JUMP JUMPDEST PUSH1 0x0 DUP2 PUSH1 0x0 NOT DIV DUP4 GT DUP3 ISZERO ISZERO AND ISZERO PUSH2 0x3444 JUMPI PUSH2 0x3444 PUSH2 0x336D JUMP JUMPDEST POP MUL SWAP1 JUMP JUMPDEST PUSH1 0x20 DUP1 DUP3 MSTORE PUSH1 0x31 SWAP1 DUP3 ADD MSTORE PUSH32 0x4552433732313A207472616E736665722063616C6C6572206973206E6F74206F PUSH1 0x40 DUP3 ADD MSTORE PUSH17 0x1DDB995C881B9BDC88185C1C1C9BDD9959 PUSH1 0x7A SHL PUSH1 0x60 DUP3 ADD MSTORE PUSH1 0x80 ADD SWAP1 JUMP JUMPDEST PUSH1 0x20 DUP1 DUP3 MSTORE DUP2 DUP2 ADD MSTORE PUSH32 0x4F776E61626C653A2063616C6C6572206973206E6F7420746865206F776E6572 PUSH1 0x40 DUP3 ADD MSTORE PUSH1 0x60 ADD SWAP1 JUMP JUMPDEST PUSH1 0x1F DUP3 GT ISZERO PUSH2 0xC85 JUMPI PUSH1 0x0 DUP2 DUP2 MSTORE PUSH1 0x20 DUP2 KECCAK256 PUSH1 0x1F DUP6 ADD PUSH1 0x5 SHR DUP2 ADD PUSH1 0x20 DUP7 LT ISZERO PUSH2 0x34F6 JUMPI POP DUP1 JUMPDEST PUSH1 0x1F DUP6 ADD PUSH1 0x5 SHR DUP3 ADD SWAP2 POP JUMPDEST DUP2 DUP2 LT ISZERO PUSH2 0x3515 JUMPI DUP3 DUP2 SSTORE PUSH1 0x1 ADD PUSH2 0x3502 JUMP JUMPDEST POP POP POP POP POP POP JUMP JUMPDEST DUP2 MLOAD PUSH8 0xFFFFFFFFFFFFFFFF DUP2 GT ISZERO PUSH2 0x3537 JUMPI PUSH2 0x3537 PUSH2 0x291F JUMP JUMPDEST PUSH2 0x354B DUP2 PUSH2 0x3545 DUP5 SLOAD PUSH2 0x33C4 JUMP JUMPDEST DUP5 PUSH2 0x34CF JUMP JUMPDEST PUSH1 0x20 DUP1 PUSH1 0x1F DUP4 GT PUSH1 0x1 DUP2 EQ PUSH2 0x3580 JUMPI PUSH1 0x0 DUP5 ISZERO PUSH2 0x3568 JUMPI POP DUP6 DUP4 ADD MLOAD JUMPDEST PUSH1 0x0 NOT PUSH1 0x3 DUP7 SWAP1 SHL SHR NOT AND PUSH1 0x1 DUP6 SWAP1 SHL OR DUP6 SSTORE PUSH2 0x3515 JUMP JUMPDEST PUSH1 0x0 DUP6 DUP2 MSTORE PUSH1 0x20 DUP2 KECCAK256 PUSH1 0x1F NOT DUP7 AND SWAP2 JUMPDEST DUP3 DUP2 LT ISZERO PUSH2 0x35AF JUMPI DUP9 DUP7 ADD MLOAD DUP3 SSTORE SWAP5 DUP5 ADD SWAP5 PUSH1 0x1 SWAP1 SWAP2 ADD SWAP1 DUP5 ADD PUSH2 0x3590 JUMP JUMPDEST POP DUP6 DUP3 LT ISZERO PUSH2 0x35CD JUMPI DUP8 DUP6 ADD MLOAD PUSH1 0x0 NOT PUSH1 0x3 DUP9 SWAP1 SHL PUSH1 0xF8 AND SHR NOT AND DUP2 SSTORE JUMPDEST POP POP POP POP POP PUSH1 0x1 SWAP1 DUP2 SHL ADD SWAP1 SSTORE POP JUMP JUMPDEST PUSH4 0x4E487B71 PUSH1 0xE0 SHL PUSH1 0x0 MSTORE PUSH1 0x32 PUSH1 0x4 MSTORE PUSH1 0x24 PUSH1 0x0 REVERT JUMPDEST PUSH1 0x0 DUP1 DUP5 SLOAD PUSH2 0x3601 DUP2 PUSH2 0x33C4 JUMP JUMPDEST PUSH1 0x1 DUP3 DUP2 AND DUP1 ISZERO PUSH2 0x3619 JUMPI PUSH1 0x1 DUP2 EQ PUSH2 0x362E JUMPI PUSH2 0x365D JUMP JUMPDEST PUSH1 0xFF NOT DUP5 AND DUP8 MSTORE DUP3 ISZERO ISZERO DUP4 MUL DUP8 ADD SWAP5 POP PUSH2 0x365D JUMP JUMPDEST DUP9 PUSH1 0x0 MSTORE PUSH1 0x20 DUP1 PUSH1 0x0 KECCAK256 PUSH1 0x0 JUMPDEST DUP6 DUP2 LT ISZERO PUSH2 0x3654 JUMPI DUP2 SLOAD DUP11 DUP3 ADD MSTORE SWAP1 DUP5 ADD SWAP1 DUP3 ADD PUSH2 0x363B JUMP JUMPDEST POP POP POP DUP3 DUP8 ADD SWAP5 POP JUMPDEST POP POP POP POP DUP4 MLOAD PUSH2 0x3671 DUP2 DUP4 PUSH1 0x20 DUP9 ADD PUSH2 0x2A12 JUMP JUMPDEST PUSH4 0x2E6A7067 PUSH1 0xE0 SHL SWAP2 ADD SWAP1 DUP2 MSTORE PUSH1 0x4 ADD SWAP5 SWAP4 POP POP POP POP JUMP JUMPDEST PUSH1 0x0 PUSH1 0x1 DUP3 ADD PUSH2 0x369B JUMPI PUSH2 0x369B PUSH2 0x336D JUMP JUMPDEST POP PUSH1 0x1 ADD SWAP1 JUMP JUMPDEST PUSH1 0x20 DUP1 DUP3 MSTORE PUSH1 0x32 SWAP1 DUP3 ADD MSTORE PUSH32 0x4552433732313A207472616E7366657220746F206E6F6E204552433732315265 PUSH1 0x40 DUP3 ADD MSTORE PUSH18 0x31B2B4BB32B91034B6B83632B6B2B73A32B9 PUSH1 0x71 SHL PUSH1 0x60 DUP3 ADD MSTORE PUSH1 0x80 ADD SWAP1 JUMP JUMPDEST PUSH1 0x1 PUSH1 0x1 PUSH1 0xA0 SHL SUB DUP6 DUP2 AND DUP3 MSTORE DUP5 AND PUSH1 0x20 DUP3 ADD MSTORE PUSH1 0x40 DUP2 ADD DUP4 SWAP1 MSTORE PUSH1 0x80 PUSH1 0x60 DUP3 ADD DUP2 SWAP1 MSTORE PUSH1 0x0 SWAP1 PUSH2 0x3727 SWAP1 DUP4 ADD DUP5 PUSH2 0x2A3E JUMP JUMPDEST SWAP7 SWAP6 POP POP POP POP POP POP JUMP JUMPDEST PUSH1 0x0 PUSH1 0x20 DUP3 DUP5 SUB SLT ISZERO PUSH2 0x3743 JUMPI PUSH1 0x0 DUP1 REVERT JUMPDEST DUP2 MLOAD PUSH2 0xA42 DUP2 PUSH2 0x28EC JUMP JUMPDEST PUSH4 0x4E487B71 PUSH1 0xE0 SHL PUSH1 0x0 MSTORE PUSH1 0x31 PUSH1 0x4 MSTORE PUSH1 0x24 PUSH1 0x0 REVERT INVALID LOG2 PUSH5 0x6970667358 0x22 SLT KECCAK256 0x28 0xC0 0x2A 0xFC PUSH3 0x6E5AEF PC PUSH24 0x37B7ADF4D764F1497D58389293C0C29F7DC6B5B0921E6473 PUSH16 0x6C634300080F00330000000000000000 ",
  "sha1": "92382bccc4f246b79c766627ed5040bd1ae1b9a6",
  "source": "// SPDX-License-Identifier: MIT\npragma solidity 0.8.15;\n\n//import \"./helpers/ERC721.sol\";\nimport \"./helpers/Ownable.sol\";\nimport \"./helpers/ERC721Enumerable.sol\";\nimport \"./libraries/Strings.sol\";\n\n//import \"OpenZeppelin/openzeppelin-contracts@4.6.0/contracts/token/ERC721/ERC721.sol\";\n//import \"estarriolvetch/ERC721Psi/contracts/ERC721Psi.sol\";\n\ncontract Wizards is ERC721Enumerable, Ownable {\n    // cull the herd and reduce to 1000?\n//    uint256 public totalSupply = 0;\n    mapping (uint256 => Stats) public tokenIdToStats;\n    address public battler; /// contract address to update stats\n    address public verifier; /// contract address to update stats\n\n    enum ELEMENT {FIRE, WIND, WATER, EARTH}\n    enum OUTCOME {LOSS, WIN, TIE, CAPTURE}\n\n    // note -- stack gets too deep if add more\n    struct Stats { // todo -- reduce uint amount\n        uint256 level;\n        uint256 hp;\n        uint256 magicalPower;\n        uint256 magicalDefense;\n        uint256 speed;\n        uint256 wins;\n        uint256 losses;\n        uint256 battles;\n        uint256 tokensClaimed;\n        uint256 goodness;\n        uint256 badness;\n        uint256 initiationTimestamp; // 0 if uninitiated\n        uint256 protectedUntilTimestamp; // after this timestamp, NFT can be crushed\n        ELEMENT element;\n    }\n\n    struct ContractSettings { // todo refine\n        uint256 mintCost;\n        uint256 initiationCost;\n        uint256 maxSupply;\n        uint256 protectionTimeExtension;\n        address ecosystemTokenAddress;\n        uint256 phaseDuration;\n        uint256 totalPhases;\n        uint256 rebirthFee;\n        string imageBaseURI;\n    }\n\n    ContractSettings public contractSettings;\n    // 8 images\n\n    // 8 phases, must initiate first\n\n    event NewVerifier(address battler);\n    event NewBattler(address verifier);\n    event Initiated(address initiater, uint256 indexed wizardId, uint256 timestamp);\n    event Rebirth(address initiater, uint256 indexed wizardId, uint256 newLevel, uint256 timestamp);\n\n\n    ////////////////////\n    ////    Get       //\n    ////////////////////\n    function isActive(uint256 _wizardId) public view returns(bool) {\n        return tokenIdToStats[_wizardId].protectedUntilTimestamp > block.timestamp;\n    }\n\n\n\n//    struct Stats {\n//        uint256 level;\n//        uint256 hp;\n//        uint256 magicalPower;\n//        uint256 magicalDefense;\n//        uint256 speed;\n//        uint256 wins;\n//        uint256 losses;\n//        uint256 battles;\n//        uint256 tokensClaimed;\n//        uint256 goodness;\n//        uint256 badness;\n//        uint256 initiationTimestamp; // 0 if uninitiated\n//        uint256 protectedUntilTimestamp; // after this timestamp, NFT can be crushed\n//        ELEMENT element;\n//    }\n\n\n    function getStatsGivenId(uint256 _wizardId) external view returns(Stats memory) {\n        uint256 myPhase = getPhaseOf(_wizardId) + 1; // base 1\n        // totalPhases\n        Stats memory myStats = tokenIdToStats[_wizardId];\n        myStats.hp = myStats.hp * myPhase / contractSettings.totalPhases;\n        myStats.magicalPower = myStats.magicalPower * myPhase / contractSettings.totalPhases;\n        myStats.magicalDefense = myStats.magicalDefense * myPhase / contractSettings.totalPhases;\n        myStats.speed = myStats.speed * myPhase / contractSettings.totalPhases;\n        // initial phase will give zero stats\n        return myStats;\n    }\n\n\n    ///////////////////////////\n    ////// Core Functions /////\n    ///////////////////////////\n    constructor(string memory name_, string memory symbol_, address _address, string memory _imageBaseURI) ERC721(name_, symbol_) {\n        contractSettings.maxSupply = 10000;\n        contractSettings.initiationCost = 1;\n        contractSettings.mintCost = 5; // todo -- do in less steps\n        contractSettings.protectionTimeExtension = 1 days; // todo -- do in less steps\n        contractSettings.ecosystemTokenAddress = _address; // todo -- do in less steps\n        contractSettings.phaseDuration = 60*60;// todo --\n        contractSettings.imageBaseURI = _imageBaseURI;// todo --\n        contractSettings.totalPhases = 8;\n        contractSettings.rebirthFee = 5;\n    }\n\n    function mint() external {\n        require(totalSupply() < contractSettings.maxSupply, \"at max supply.\");\n        // todo -- randomly create stats\n        //\n        // hp, base = 25\n        // mp base = 25\n\n        uint256 pseudoRandNum = uint256(keccak256(abi.encodePacked(totalSupply(), msg.sender, block.timestamp)));\n//        uint256 addOn = uint256(keccak256(abi.encodePacked(totalSupply(), msg.sender, block.timestamp))) % 26;\n        uint256 hp = 25 + pseudoRandNum % 26;\n        uint256 magicalPower = 25 + (pseudoRandNum/100) % 26;\n        uint256 magicalDefense = 10 + (pseudoRandNum/10*4) % 10;\n        uint256 speed = 10 + (pseudoRandNum/10*5) % 10;\n        ELEMENT element = ELEMENT((pseudoRandNum/10*6) % 4);\n\n        Stats memory myStats =  Stats(1, hp, magicalPower, magicalDefense, speed, 0, 0, 0, 0, 0, 0, 0, 0, element);\n        tokenIdToStats[totalSupply()+1] = myStats;\n        _safeMint(msg.sender, totalSupply()+1 ); // with with 1 as id\n    }\n\n\n    /**\n     * @dev Moves NFT from inactive to active\n     */\n    function initiate(uint256 _tokenId) external {\n        require(ownerOf(_tokenId) == msg.sender, \"must be owner\");\n        require(tokenIdToStats[_tokenId].initiationTimestamp == 0, \"already initiated\");\n        // todo -- must be beyond time limitation\n        // todo -- receive fee\n\n        Stats storage myStats = tokenIdToStats[_tokenId];\n        myStats.initiationTimestamp = block.timestamp;\n        myStats.protectedUntilTimestamp = block.timestamp + contractSettings.protectionTimeExtension;\n\n        emit Initiated(msg.sender, _tokenId, block.timestamp);\n    }\n\n    function rebirth(uint256 _tokenId) external payable {\n        /* todo -- add in requires\n        require(ownerOf(_tokenId) == msg.sender, \"must be owner\");\n        require(tokenIdToStats[_tokenId].initiationTimestamp == 0, \"already initiated\");\n        require(isActive(_tokenId), \"must be active\");\n        require(getPhaseOf(_tokenId)==contractSettings.totalPhases-1, \"must be at max phase\");\n        require(msg.value == contractSettings.rebirthFee, \"insufficient fee.\")\n        */\n\n        // todo -- receive fee\n\n        Stats storage myStats = tokenIdToStats[_tokenId];\n        uint256 pseudoRandNum = uint256(keccak256(abi.encodePacked(totalSupply(), msg.sender, block.timestamp, myStats.level)));\n\n        myStats.initiationTimestamp = block.timestamp;\n        myStats.protectedUntilTimestamp += contractSettings.protectionTimeExtension;\n        myStats.level += 1;\n\n        myStats.hp += pseudoRandNum % 16 + 10;\n        myStats.magicalPower += pseudoRandNum/10**2 % 16 + 10;\n        myStats.magicalDefense += pseudoRandNum/10**4 % 16 + 10;\n        myStats.speed += pseudoRandNum/10**6 % 10;\n\n\n        emit Rebirth(msg.sender, _tokenId, myStats.level, block.timestamp); // todo -- could emit stats bonus\n    }\n\n\n    function reportBattle(uint256 _attackerId, uint256 _defenderId, OUTCOME outcome, uint256 _tokensWon,\n        uint256 _tokensWaged) external onlyBattler {\n        if(outcome == OUTCOME.WIN){\n            tokenIdToStats[_attackerId].wins += 1;\n            tokenIdToStats[_defenderId].losses += 1;\n\n        }\n        else if(outcome == OUTCOME.LOSS){\n            tokenIdToStats[_attackerId].losses += 1;\n            tokenIdToStats[_defenderId].wins += 1;\n        }\n\n        tokenIdToStats[_attackerId].tokensClaimed += _tokensWon;\n\n        // todo -- tokens waged?\n//        tokenIdToStats[_defenderId].tokensClaimed += _tokensWon;\n        // todo -- add stat for last time attacked to limit attack frequency?\n\n        // we switched to ETH\n//        if(_won==OUTCOME.LOSS) {\n//            tokenIdToStats[_defenderId].tokensClaimed += _tokensWaged; // todo -- this ignores commission\n//        }\n    }\n\n\n    /**\n     * @dev Gets phase of NFT\n     */\n    function getPhaseOf(uint256 _tokenId) public view returns(uint256) {\n        uint256 phase =\n          (block.timestamp - tokenIdToStats[_tokenId].initiationTimestamp) / contractSettings.phaseDuration\n          > 7 ? 7 : (block.timestamp - tokenIdToStats[_tokenId].initiationTimestamp) / contractSettings.phaseDuration\n          ;\n        return phase;\n    }\n\n    /**\n     * @dev check if NFT is deserted--negligent in duties.\n     */\n    function getIsDeserted(uint256 _tokenId) public returns(bool) {\n\n    }\n\n    /**\n     * @dev Verify duties of NFT. Not duty specific\n     */\n    function verifyDuty(uint256 _tokenId, uint256 _timeReward) external onlyVerifier {\n        // add time entension to NFT\n        tokenIdToStats[_tokenId].protectedUntilTimestamp = _timeReward + (tokenIdToStats[_tokenId].protectedUntilTimestamp < block.timestamp\n                 ? block.timestamp : tokenIdToStats[_tokenId].protectedUntilTimestamp);\n\n        // increase stats of NFT\n//        tokenIdToStats[_tokenId].tasksCompleted +=1;\n    }\n\n\n\n    /**\n     * @dev uninitiate an NFT that is negligent in duties. Reward crusher\n     */\n    function crush(uint256 _tokenId) onlyHolder external {\n    }\n\n\n    function tokenURI(uint256 _tokenId) public view virtual override returns (string memory) {\n        require(_exists(_tokenId), \"ERC721Metadata: URI query for nonexistent token\");\n        // todo -- update image\n        string memory linkExtension;\n        if(tokenIdToStats[_tokenId].initiationTimestamp==0){ // uninitiated\n            linkExtension = \"0\"; // todo -- shameful uninitiated picture\n        }\n        else{ // todo -- this didn't use getPhaseOf\n            linkExtension =\n                      Strings.toString(\n                      (block.timestamp - tokenIdToStats[_tokenId].initiationTimestamp) / contractSettings.phaseDuration\n                      > 7 ? 7 : (block.timestamp - tokenIdToStats[_tokenId].initiationTimestamp) / contractSettings.phaseDuration\n                      );\n        }\n        string memory imageURI = string(abi.encodePacked(contractSettings.imageBaseURI, linkExtension, '.jpg'));\n        return formatTokenURI(_tokenId, imageURI);\n    }\n\n    function formatTokenURI(uint256 _tokenId, string memory imageURI) public view returns (string memory) {\n//        Data memory _myData = unpackData(_tokenId);\n        Stats memory myStats = tokenIdToStats[_tokenId];\n\n        string memory json_str = string(abi.encodePacked(\n            '{\"description\": \"WizardArmy\"',\n            ', \"external_url\": \"https://wizardarmyNFT.com (or something like this)\"',\n            ', \"image\": \"',\n             imageURI, '\"',\n            ', \"name\": \"Wizard\"',\n            // attributes\n            ', \"attributes\": [{\"display_type\": \"number\", \"trait_type\": \"level\", \"value\": ',\n            Strings.toString(myStats.level), ' }'\n        ));\n\n        // use this format to add extra properties\n        json_str = string(abi.encodePacked(json_str,\n            ', {\"display_type\": \"number\", \"trait_type\": \"hp\", \"value\": ',\n            Strings.toString(myStats.hp),   ' }',\n            ', {\"display_type\": \"number\", \"trait_type\": \"magical power\", \"value\": ',\n            Strings.toString(myStats.magicalPower),   ' }',\n                ', {\"display_type\": \"number\", \"trait_type\": \"magical defense\", \"value\": ',\n            Strings.toString(myStats.magicalDefense),   ' }'\n        ));\n\n        // use this format to add extra properties\n        json_str = string(abi.encodePacked(json_str,\n            ', {\"display_type\": \"number\", \"trait_type\": \"speed\", \"value\": ',\n            Strings.toString(myStats.speed),   ' }',\n            ', {\"display_type\": \"number\", \"trait_type\": \"wins\", \"value\": ',\n            Strings.toString(myStats.wins),   ' }'\n        ));\n\n\n        // use this format to add extra properties\n        json_str = string(abi.encodePacked(json_str,\n            ', {\"display_type\": \"number\", \"trait_type\": \"losses\", \"value\": ',\n            Strings.toString(myStats.losses),   ' }',\n            ', {\"display_type\": \"number\", \"trait_type\": \"battles\", \"value\": ',\n            Strings.toString(myStats.battles),   ' }',\n                ', {\"display_type\": \"number\", \"trait_type\": \"tokensClaimed\", \"value\": ',\n            Strings.toString(myStats.tokensClaimed),   ' }'\n        ));\n\n        // end string\n        json_str = string(abi.encodePacked(json_str, ']','}'));\n\n//        string memory json_str = string(abi.encodePacked(\n//            '{\"description\": \"WizardArmy\"',\n//            ', \"external_url\": \"https://wizardarmyNFT.com (or something like this)\"',\n//            ', \"image\": \"',\n//             imageURI, '\"',\n//            ', \"name\": \"Wizard\"',\n//            // attributes\n//            ', \"attributes\": [{\"display_type\": \"number\", \"trait_type\": \"level\", \"value\": ',\n//            '11111111',   ' }'\n//        ));\n//        json_str = string(abi.encodePacked(json_str,\n//            ', {\"display_type\": \"number\", \"trait_type\": \"hp\", \"value\": ',\n//            '2222222222',   ' }',\n//            ', {\"display_type\": \"number\", \"trait_type\": \"mp\", \"value\": ',\n//            '33333333333333333',   ' }',\n//                ', {\"display_type\": \"number\", \"trait_type\": \"wins\", \"value\": ',\n//            '4444444444',   ' }',\n//            ']', // End Attributes\n//            '}'\n//        ));\n        return json_str;\n    }\n\n//    function uint2str(uint _i) internal pure returns (string memory _uintAsString) {\n//        if (_i == 0) {\n//            return \"0\";\n//        }\n//        uint j = _i;\n//        uint len;\n//        while (j != 0) {\n//            len++;\n//            j /= 10;\n//        }\n//        bytes memory bstr = new bytes(len);\n//        uint k = len - 1;\n//        while (_i != 0) {\n//            bstr[k--] = bytes1(uint8(48 + _i % 10));\n//            _i /= 10;\n//        }\n//        return string(bstr);\n//    }\n\n\n    /////////////////////////////////\n    ////// Admin Functions      /////\n    /////////////////////////////////\n\n\n    function modifyContractSettings(string memory _imageBaseURI, uint256 _phaseDuration, uint256 _protectionTimeExtension, uint256 _mintCost,\n                    uint256 _initiationCost) external onlyOwner {\n        contractSettings.imageBaseURI = _imageBaseURI;\n        contractSettings.phaseDuration = _phaseDuration;\n        contractSettings.protectionTimeExtension = _protectionTimeExtension;\n        contractSettings.mintCost = _mintCost;\n        contractSettings.initiationCost = _initiationCost\n\n\n        ;\n    }\n\n    ///////////////////////////\n    ////// Modifiers      /////\n    ///////////////////////////\n\n    modifier onlyVerifier() {\n        require(msg.sender != address(this), 'only verifier'); // todo -- decide who will verify--one or many addresses\n        _;\n    }\n\n    modifier onlyHolder() {\n        require(msg.sender != address(this), 'only verifier'); // todo -- decide who will verify--one or many addresses\n        _;\n    }\n\n    modifier onlyBattler() {\n        require(\n            msg.sender == battler,\n            \"Only battler can call this function.\"\n        );\n        _;\n    }\n\n    ///////////////////////////\n    ////// Admin      /////\n    ///////////////////////////\n\n    function updateBattler(address _battler) external onlyOwner {\n        require(_battler != address(0) && _battler != battler, \"Invalid operator address\");\n        battler = _battler;\n        emit NewBattler(_battler);\n    }\n\n    function updateVerifier(address _verifier) external onlyOwner {\n        require(_verifier != address(0) && _verifier != verifier, \"Invalid operator address\");\n        verifier = _verifier;\n        emit NewVerifier(_verifier);\n    }\n\n}",
  "sourcePath": "contracts/wizards.sol",
  "type": "contract"
}