{
  "abi": [
    {
      "inputs": [
        {
          "internalType": "address",
          "name": "_ecosystemToken",
          "type": "address"
        },
        {
          "internalType": "address",
          "name": "_wizardToken",
          "type": "address"
        }
      ],
      "stateMutability": "nonpayable",
      "type": "constructor"
    },
    {
      "inputs": [],
      "name": "PRBMathSD59x18__DivInputTooSmall",
      "type": "error"
    },
    {
      "inputs": [
        {
          "internalType": "uint256",
          "name": "rAbs",
          "type": "uint256"
        }
      ],
      "name": "PRBMathSD59x18__DivOverflow",
      "type": "error"
    },
    {
      "inputs": [
        {
          "internalType": "int256",
          "name": "x",
          "type": "int256"
        }
      ],
      "name": "PRBMathSD59x18__Exp2InputTooBig",
      "type": "error"
    },
    {
      "inputs": [
        {
          "internalType": "int256",
          "name": "x",
          "type": "int256"
        }
      ],
      "name": "PRBMathSD59x18__LogInputTooSmall",
      "type": "error"
    },
    {
      "inputs": [],
      "name": "PRBMathSD59x18__MulInputTooSmall",
      "type": "error"
    },
    {
      "inputs": [
        {
          "internalType": "uint256",
          "name": "rAbs",
          "type": "uint256"
        }
      ],
      "name": "PRBMathSD59x18__MulOverflow",
      "type": "error"
    },
    {
      "inputs": [
        {
          "internalType": "uint256",
          "name": "prod1",
          "type": "uint256"
        }
      ],
      "name": "PRBMath__MulDivFixedPointOverflow",
      "type": "error"
    },
    {
      "inputs": [
        {
          "internalType": "uint256",
          "name": "prod1",
          "type": "uint256"
        },
        {
          "internalType": "uint256",
          "name": "denominator",
          "type": "uint256"
        }
      ],
      "name": "PRBMath__MulDivOverflow",
      "type": "error"
    },
    {
      "anonymous": false,
      "inputs": [
        {
          "indexed": true,
          "internalType": "address",
          "name": "tokenOperator",
          "type": "address"
        },
        {
          "indexed": false,
          "internalType": "uint256",
          "name": "amount",
          "type": "uint256"
        }
      ],
      "name": "DrainTower",
      "type": "event"
    },
    {
      "anonymous": false,
      "inputs": [
        {
          "indexed": false,
          "internalType": "address",
          "name": "claimer",
          "type": "address"
        },
        {
          "indexed": false,
          "internalType": "uint256",
          "name": "floorClaimed",
          "type": "uint256"
        },
        {
          "indexed": true,
          "internalType": "uint256",
          "name": "wizardId",
          "type": "uint256"
        },
        {
          "indexed": false,
          "internalType": "uint256",
          "name": "timestamp",
          "type": "uint256"
        }
      ],
      "name": "FloorClaimed",
      "type": "event"
    },
    {
      "anonymous": false,
      "inputs": [
        {
          "indexed": false,
          "internalType": "address",
          "name": "battler",
          "type": "address"
        }
      ],
      "name": "NewBattler",
      "type": "event"
    },
    {
      "anonymous": false,
      "inputs": [
        {
          "indexed": false,
          "internalType": "address",
          "name": "tokenOperator",
          "type": "address"
        }
      ],
      "name": "NewOperator",
      "type": "event"
    },
    {
      "anonymous": false,
      "inputs": [
        {
          "indexed": true,
          "internalType": "address",
          "name": "previousOwner",
          "type": "address"
        },
        {
          "indexed": true,
          "internalType": "address",
          "name": "newOwner",
          "type": "address"
        }
      ],
      "name": "OwnershipTransferred",
      "type": "event"
    },
    {
      "anonymous": false,
      "inputs": [
        {
          "indexed": true,
          "internalType": "address",
          "name": "staker",
          "type": "address"
        },
        {
          "indexed": false,
          "internalType": "uint256",
          "name": "totalAmount",
          "type": "uint256"
        }
      ],
      "name": "Withdraw",
      "type": "event"
    },
    {
      "inputs": [],
      "name": "DA",
      "outputs": [
        {
          "internalType": "uint256",
          "name": "",
          "type": "uint256"
        }
      ],
      "stateMutability": "view",
      "type": "function"
    },
    {
      "inputs": [],
      "name": "_totalFloorPower",
      "outputs": [
        {
          "internalType": "uint256",
          "name": "",
          "type": "uint256"
        }
      ],
      "stateMutability": "view",
      "type": "function"
    },
    {
      "inputs": [],
      "name": "activeFloors",
      "outputs": [
        {
          "internalType": "uint256",
          "name": "",
          "type": "uint256"
        }
      ],
      "stateMutability": "view",
      "type": "function"
    },
    {
      "inputs": [],
      "name": "battler",
      "outputs": [
        {
          "internalType": "address",
          "name": "",
          "type": "address"
        }
      ],
      "stateMutability": "view",
      "type": "function"
    },
    {
      "inputs": [
        {
          "internalType": "uint256",
          "name": "_floorCaptured",
          "type": "uint256"
        }
      ],
      "name": "captureFloor",
      "outputs": [],
      "stateMutability": "nonpayable",
      "type": "function"
    },
    {
      "inputs": [
        {
          "internalType": "uint256",
          "name": "_wizardId",
          "type": "uint256"
        }
      ],
      "name": "claimFloor",
      "outputs": [
        {
          "internalType": "uint256",
          "name": "",
          "type": "uint256"
        }
      ],
      "stateMutability": "nonpayable",
      "type": "function"
    },
    {
      "inputs": [],
      "name": "doTheMath",
      "outputs": [
        {
          "internalType": "int256",
          "name": "result",
          "type": "int256"
        }
      ],
      "stateMutability": "pure",
      "type": "function"
    },
    {
      "inputs": [],
      "name": "drainTower",
      "outputs": [],
      "stateMutability": "nonpayable",
      "type": "function"
    },
    {
      "inputs": [
        {
          "internalType": "uint256",
          "name": "_floor",
          "type": "uint256"
        }
      ],
      "name": "floorBalance",
      "outputs": [
        {
          "internalType": "uint256",
          "name": "",
          "type": "uint256"
        }
      ],
      "stateMutability": "view",
      "type": "function"
    },
    {
      "inputs": [
        {
          "internalType": "uint256",
          "name": "",
          "type": "uint256"
        }
      ],
      "name": "floorIdToInfo",
      "outputs": [
        {
          "internalType": "uint40",
          "name": "lastWithdrawalTimestamp",
          "type": "uint40"
        },
        {
          "internalType": "uint16",
          "name": "occupyingWizardId",
          "type": "uint16"
        },
        {
          "internalType": "enum Wizards.ELEMENT",
          "name": "element",
          "type": "uint8"
        }
      ],
      "stateMutability": "view",
      "type": "function"
    },
    {
      "inputs": [
        {
          "internalType": "uint256",
          "name": "_floor",
          "type": "uint256"
        }
      ],
      "name": "floorPower",
      "outputs": [
        {
          "internalType": "uint256",
          "name": "",
          "type": "uint256"
        }
      ],
      "stateMutability": "view",
      "type": "function"
    },
    {
      "inputs": [
        {
          "internalType": "uint256",
          "name": "_wizardId",
          "type": "uint256"
        }
      ],
      "name": "getFloorGivenWizard",
      "outputs": [
        {
          "internalType": "uint256",
          "name": "",
          "type": "uint256"
        }
      ],
      "stateMutability": "view",
      "type": "function"
    },
    {
      "inputs": [
        {
          "internalType": "uint256",
          "name": "_floor",
          "type": "uint256"
        }
      ],
      "name": "getFloorInfoGivenFloor",
      "outputs": [
        {
          "components": [
            {
              "internalType": "uint40",
              "name": "lastWithdrawalTimestamp",
              "type": "uint40"
            },
            {
              "internalType": "uint16",
              "name": "occupyingWizardId",
              "type": "uint16"
            },
            {
              "internalType": "enum Wizards.ELEMENT",
              "name": "element",
              "type": "uint8"
            }
          ],
          "internalType": "struct RelativeTimeVault.FloorInfo",
          "name": "",
          "type": "tuple"
        }
      ],
      "stateMutability": "view",
      "type": "function"
    },
    {
      "inputs": [
        {
          "internalType": "uint256",
          "name": "_wizardId",
          "type": "uint256"
        }
      ],
      "name": "getFloorInfoGivenWizard",
      "outputs": [
        {
          "components": [
            {
              "internalType": "uint40",
              "name": "lastWithdrawalTimestamp",
              "type": "uint40"
            },
            {
              "internalType": "uint16",
              "name": "occupyingWizardId",
              "type": "uint16"
            },
            {
              "internalType": "enum Wizards.ELEMENT",
              "name": "element",
              "type": "uint8"
            }
          ],
          "internalType": "struct RelativeTimeVault.FloorInfo",
          "name": "",
          "type": "tuple"
        }
      ],
      "stateMutability": "view",
      "type": "function"
    },
    {
      "inputs": [
        {
          "internalType": "uint256",
          "name": "_floor",
          "type": "uint256"
        }
      ],
      "name": "getWizardOnFloor",
      "outputs": [
        {
          "internalType": "uint256",
          "name": "",
          "type": "uint256"
        }
      ],
      "stateMutability": "view",
      "type": "function"
    },
    {
      "inputs": [
        {
          "internalType": "uint256",
          "name": "_wizardId",
          "type": "uint256"
        }
      ],
      "name": "isOnTheTower",
      "outputs": [
        {
          "internalType": "bool",
          "name": "",
          "type": "bool"
        }
      ],
      "stateMutability": "view",
      "type": "function"
    },
    {
      "inputs": [],
      "name": "owner",
      "outputs": [
        {
          "internalType": "address",
          "name": "",
          "type": "address"
        }
      ],
      "stateMutability": "view",
      "type": "function"
    },
    {
      "inputs": [],
      "name": "relativeIncrease",
      "outputs": [
        {
          "internalType": "uint256",
          "name": "",
          "type": "uint256"
        }
      ],
      "stateMutability": "view",
      "type": "function"
    },
    {
      "inputs": [],
      "name": "renounceOwnership",
      "outputs": [],
      "stateMutability": "nonpayable",
      "type": "function"
    },
    {
      "inputs": [
        {
          "internalType": "uint256",
          "name": "_floorA",
          "type": "uint256"
        },
        {
          "internalType": "uint256",
          "name": "_floorB",
          "type": "uint256"
        }
      ],
      "name": "switchFloors",
      "outputs": [],
      "stateMutability": "nonpayable",
      "type": "function"
    },
    {
      "inputs": [
        {
          "internalType": "uint256",
          "name": "_floor",
          "type": "uint256"
        }
      ],
      "name": "testFloorPower",
      "outputs": [
        {
          "internalType": "uint256",
          "name": "",
          "type": "uint256"
        }
      ],
      "stateMutability": "view",
      "type": "function"
    },
    {
      "inputs": [],
      "name": "token",
      "outputs": [
        {
          "internalType": "contract IERC20",
          "name": "",
          "type": "address"
        }
      ],
      "stateMutability": "view",
      "type": "function"
    },
    {
      "inputs": [],
      "name": "tokenOperator",
      "outputs": [
        {
          "internalType": "address",
          "name": "",
          "type": "address"
        }
      ],
      "stateMutability": "view",
      "type": "function"
    },
    {
      "inputs": [],
      "name": "totalPowerSnapshot",
      "outputs": [
        {
          "internalType": "uint256",
          "name": "",
          "type": "uint256"
        }
      ],
      "stateMutability": "view",
      "type": "function"
    },
    {
      "inputs": [],
      "name": "totalPowerSnapshotTimestamp",
      "outputs": [
        {
          "internalType": "uint256",
          "name": "",
          "type": "uint256"
        }
      ],
      "stateMutability": "view",
      "type": "function"
    },
    {
      "inputs": [
        {
          "internalType": "address",
          "name": "newOwner",
          "type": "address"
        }
      ],
      "name": "transferOwnership",
      "outputs": [],
      "stateMutability": "nonpayable",
      "type": "function"
    },
    {
      "inputs": [
        {
          "internalType": "uint256",
          "name": "x",
          "type": "uint256"
        },
        {
          "internalType": "uint256",
          "name": "y",
          "type": "uint256"
        }
      ],
      "name": "unsignedMul",
      "outputs": [
        {
          "internalType": "uint256",
          "name": "result",
          "type": "uint256"
        }
      ],
      "stateMutability": "pure",
      "type": "function"
    },
    {
      "inputs": [
        {
          "internalType": "uint256",
          "name": "x",
          "type": "uint256"
        },
        {
          "internalType": "uint256",
          "name": "y",
          "type": "uint256"
        }
      ],
      "name": "unsignedPow",
      "outputs": [
        {
          "internalType": "uint256",
          "name": "result",
          "type": "uint256"
        }
      ],
      "stateMutability": "pure",
      "type": "function"
    },
    {
      "inputs": [
        {
          "internalType": "address",
          "name": "_battler",
          "type": "address"
        }
      ],
      "name": "updateBattler",
      "outputs": [],
      "stateMutability": "nonpayable",
      "type": "function"
    },
    {
      "inputs": [
        {
          "internalType": "address",
          "name": "newOperator",
          "type": "address"
        }
      ],
      "name": "updateOperator",
      "outputs": [],
      "stateMutability": "nonpayable",
      "type": "function"
    },
    {
      "inputs": [
        {
          "internalType": "uint256",
          "name": "_floor",
          "type": "uint256"
        }
      ],
      "name": "withdraw",
      "outputs": [],
      "stateMutability": "nonpayable",
      "type": "function"
    },
    {
      "inputs": [
        {
          "internalType": "uint256",
          "name": "",
          "type": "uint256"
        }
      ],
      "name": "wizardIdToFloor",
      "outputs": [
        {
          "internalType": "uint256",
          "name": "",
          "type": "uint256"
        }
      ],
      "stateMutability": "view",
      "type": "function"
    },
    {
      "inputs": [],
      "name": "wizardsNFT",
      "outputs": [
        {
          "internalType": "contract Wizards",
          "name": "",
          "type": "address"
        }
      ],
      "stateMutability": "view",
      "type": "function"
    }
  ],
  "bytecode": "60806040526000600455620f42406008556402540be400600955670dd05fc7a75e8600600a55612710600f553480156200003857600080fd5b5060405162002b4038038062002b408339810160408190526200005b9162000134565b600160005581816200006d33620000c5565b600280546001600160a01b03199081166001600160a01b03948516179091556003805482169290931691909117909155600b8054339083168117909155600c805490921617905550504260058190556007556200016c565b600180546001600160a01b038381166001600160a01b0319831681179093556040519116919082907f8be0079c531659141344cd1fd0a4f28419497f9722a3daafe3b4186f6b6457e090600090a35050565b80516001600160a01b03811681146200012f57600080fd5b919050565b600080604083850312156200014857600080fd5b620001538362000117565b9150620001636020840162000117565b90509250929050565b6129c4806200017c6000396000f3fe608060405234801561001057600080fd5b50600436106101fb5760003560e01c80638da5cb5b1161011a578063d5ee896e116100ad578063ed7df5621161007c578063ed7df5621461048b578063ee545e6814610494578063f2fde38b146104a7578063fb6bd1a9146104ba578063fc0c546a146104c257600080fd5b8063d5ee896e1461042b578063e52e324914610433578063e737b86e14610446578063ec147c181461045957600080fd5b8063ac7475ed116100e9578063ac7475ed146103f4578063bc0b0d8814610407578063c891c62a1461041a578063c972600f1461042257600080fd5b80638da5cb5b1461039d578063944d934b146103ae57806395ac8af9146103c15780639a0e6a85146103e157600080fd5b80633cdd039811610192578063715018a611610161578063715018a61461034457806374d8bd371461034c5780638538fd42146103775780638a9f42841461038a57600080fd5b80633cdd0398146102af57806340e34dc0146102b85780635685cb2e146102e357806367946143146102f657600080fd5b80631eb69af7116101ce5780631eb69af71461025a578063291116e71461027a5780632e1a7d4d14610291578063396dbf0d146102a657600080fd5b8063049171ac1461020057806305d973a7146102265780630c3957811461023d5780630f67ebd314610247575b600080fd5b61021361020e366004612641565b6104d5565b6040519081526020015b60405180910390f35b61021361023436600461265a565b5061270f919050565b610213620f424081565b610213610255366004612641565b610547565b61026d610268366004612641565b61062a565b60405161021d91906126b4565b61021361028836600461265a565b506122b8919050565b6102a461029f366004612641565b6106bf565b005b61021360065481565b61021360045481565b6102136102c6366004612641565b6000908152600d6020526040902054600160281b900461ffff1690565b6102136102f1366004612641565b610838565b610335610304366004612641565b600d6020526000908152604090205464ffffffffff811690600160281b810461ffff1690600160381b900460ff1683565b60405161021d939291906126ee565b6102a4610b07565b60035461035f906001600160a01b031681565b6040516001600160a01b03909116815260200161021d565b61026d610385366004612641565b610b3d565b6102a461039836600461265a565b610c1b565b6001546001600160a01b031661035f565b6102136103bc366004612641565b610d36565b6102136103cf366004612641565b600e6020526000908152604090205481565b6102a46103ef366004612641565b610d47565b6102a4610402366004612730565b610e90565b600c5461035f906001600160a01b031681565b6102a4610f7c565b610213600a5481565b6102136110dd565b6102a4610441366004612730565b611123565b600b5461035f906001600160a01b031681565b61047b610467366004612641565b6000908152600e6020526040902054151590565b604051901515815260200161021d565b61021360075481565b6102136104a2366004612641565b611208565b6102a46104b5366004612730565b61130c565b6102136113a7565b60025461035f906001600160a01b031681565b600080821180156104f257506004546104ef906001612763565b82105b6105345760405162461bcd60e51b815260206004820152600e60248201526d34b73b30b634b210373ab6b132b960911b60448201526064015b60405180910390fd5b506000908152600e602052604090205490565b600080610574600a5460018561055d919061277b565b61056f90670de0b6b3a7640000612792565b6113ed565b6000848152600d602090815260408083208151606081018352815464ffffffffff81168252600160281b810461ffff16948201949094529495509293929190830190600160381b900460ff1660038111156105d1576105d161267c565b60038111156105e2576105e261267c565b905250805190915060009064ffffffffff161561060757815164ffffffffff1661060b565b6005545b9050610617814261277b565b6106219084612792565b95945050505050565b61064b60408051606081018252600080825260208201819052909182015290565b6000828152600d60209081526040918290208251606081018452815464ffffffffff81168252600160281b810461ffff169382019390935292909190830190600160381b900460ff1660038111156106a5576106a561267c565b60038111156106b6576106b661267c565b90525092915050565b6002600054036107115760405162461bcd60e51b815260206004820152601f60248201527f5265656e7472616e637947756172643a207265656e7472616e742063616c6c00604482015260640161052b565b6002600055801580159061072757506004548111155b6107435760405162461bcd60e51b815260040161052b906127b1565b6000818152600d6020526040908190205460035491516331a9108f60e11b8152600160281b90910461ffff16600482018190529132916001600160a01b0390911690636352211e90602401602060405180830381865afa1580156107ab573d6000803e3d6000fd5b505050506040513d601f19601f820116820180604052508101906107cf91906127d8565b6001600160a01b0316146108255760405162461bcd60e51b815260206004820181905260248201527f596f7520646f206e6f74206f776e207468652077697a6172642074686572652e604482015260640161052b565b61082f8232611413565b50506001600055565b6003546040516331a9108f60e11b81526004810183905260009133916001600160a01b0390911690636352211e90602401602060405180830381865afa158015610886573d6000803e3d6000fd5b505050506040513d601f19601f820116820180604052508101906108aa91906127d8565b6001600160a01b0316146108f65760405162461bcd60e51b81526020600482015260136024820152721b5d5cdd081bdddb881dda5e985c991cd39195606a1b604482015260640161052b565b6000828152600e6020526040902054156109455760405162461bcd60e51b815260206004820152601060248201526f30b63932b0b23c9031b630b4b6b2b21760811b604482015260640161052b565b6001600460008282546109589190612763565b9091555061097f905060408051606081018252600080825260208201819052909182015290565b4264ffffffffff81168252600480546040805160208101929092526bffffffffffffffffffffffff193360601b16908201526054810192909252906074016040516020818303038152906040528051906020012060001c6109e0919061280b565b60038111156109f1576109f161267c565b81604001906003811115610a0757610a0761267c565b90816003811115610a1a57610a1a61267c565b90525061ffff80841660208084019182526004546000878152600e83526040808220839055918152600d90925290819020845181549351909416600160281b0266ffffffffffffff1990931664ffffffffff909416939093179190911780835590830151839291829067ff000000000000001916600160381b836003811115610aa557610aa561267c565b0217905550905050610ab760006115fe565b600454604080513381526020810192909252429082015283907f85ea83c5f50cb37e91bd558e80839597535164f593acc3dc74a9298c0b0817a79060600160405180910390a25050600454919050565b6001546001600160a01b03163314610b315760405162461bcd60e51b815260040161052b9061281f565b610b3b600061161b565b565b610b5e60408051606081018252600080825260208201819052909182015290565b600082118015610b7a5750600454610b77906001612763565b82105b610bb75760405162461bcd60e51b815260206004820152600e60248201526d34b73b30b634b210373ab6b132b960911b604482015260640161052b565b6000828152600e60209081526040808320548352600d8252918290208251606081018452815464ffffffffff81168252600160281b810461ffff169382019390935292909190830190600160381b900460ff1660038111156106a5576106a561267c565b600c546001600160a01b03163314610c455760405162461bcd60e51b815260040161052b90612854565b6004548211158015610c5957506004548111155b8015610c655750818114155b610ca25760405162461bcd60e51b815260206004820152600e60248201526d696e76616c696420666c6f6f727360901b604482015260640161052b565b610cc360408051606081018252600080825260208201819052909182015290565b506000828152600d602090815260408083208054858552828520805466ffff00000000001980841661ffff600160281b93849004811684029190911786558354909116938290048116808302949094179092559254929092049091168452600e9092528083209490945581529190912055565b6000610d418261166d565b92915050565b600c546001600160a01b03163314610d715760405162461bcd60e51b815260040161052b90612854565b6000818152600d602052604080822054600454808452919092205460085461ffff600160281b9485900481169490920490911691610dae90610d36565b1115610e2d57600480546003546040516331a9108f60e11b8152928301849052610e2d926001600160a01b0390911690636352211e90602401602060405180830381865afa158015610e04573d6000803e3d6000fd5b505050506040513d601f19601f82011682018060405250810190610e2891906127d8565b611413565b6000838152600d60205260408120805466ffffffffffffff1916600160281b61ffff85160264ffffffffff1916174264ffffffffff16178155600480549192600192610e7a90849061277b565b90915550610e8a905060006115fe565b50505050565b6001546001600160a01b03163314610eba5760405162461bcd60e51b815260040161052b9061281f565b6001600160a01b03811615801590610ee05750600b546001600160a01b03828116911614155b610f275760405162461bcd60e51b8152602060048201526018602482015277496e76616c6964206f70657261746f72206164647265737360401b604482015260640161052b565b600b80546001600160a01b0319166001600160a01b0383169081179091556040519081527fda12ee837e6978172aaf54b16145ffe08414fd8710092ef033c71b8eb6ec189a906020015b60405180910390a150565b6001546001600160a01b03163314610fa65760405162461bcd60e51b815260040161052b9061281f565b6002546040516370a0823160e01b81523060048201526000916001600160a01b0316906370a0823190602401602060405180830381865afa158015610fef573d6000803e3d6000fd5b505050506040513d601f19601f820116820180604052508101906110139190612898565b60025460405163a9059cbb60e01b8152336004820152602481018390529192506001600160a01b03169063a9059cbb906044016020604051808303816000875af1158015611065573d6000803e3d6000fd5b505050506040513d601f19601f8201168201806040525081019061108991906128b1565b6110a55760405162461bcd60e51b815260040161052b906128d3565b60405181815233907f0d52e6a96125965761d3461ff1f2c72df610ab6bc2584ac9f076b45b585f049f9060200160405180910390a250565b6040805160208082018352670dde3a0e340c40008083528351918201909352683635c9adc5dea0000080825260009392909161111982826117e6565b5195945050505050565b6001546001600160a01b0316331461114d5760405162461bcd60e51b815260040161052b9061281f565b6001600160a01b038116158015906111735750600c546001600160a01b03828116911614155b6111ba5760405162461bcd60e51b8152602060048201526018602482015277496e76616c6964206f70657261746f72206164647265737360401b604482015260640161052b565b600c80546001600160a01b0319166001600160a01b0383169081179091556040519081527fa6996d36756222f1028b4a1a97cbfa625158cf8e69ac5dcf367de3bd730d34a490602001610f71565b6000808211801561121b57506004548211155b6112375760405162461bcd60e51b815260040161052b906127b1565b600061124c600a5460018561055d919061277b565b6000848152600d602090815260408083208151606081018352815464ffffffffff81168252600160281b810461ffff16948201949094529495509293929190830190600160381b900460ff1660038111156112a9576112a961267c565b60038111156112ba576112ba61267c565b905250805190915060009064ffffffffff16156112df57815164ffffffffff166112e3565b6005545b9050670de0b6b3a76400006112f8824261277b565b6113029085612792565b610621919061291f565b6001546001600160a01b031633146113365760405162461bcd60e51b815260040161052b9061281f565b6001600160a01b03811661139b5760405162461bcd60e51b815260206004820152602660248201527f4f776e61626c653a206e6577206f776e657220697320746865207a65726f206160448201526564647265737360d01b606482015260840161052b565b6113a48161161b565b50565b6000670de0b6b3a76400006113ba611849565b6007546113c7904261277b565b6113d19190612792565b6113db919061291f565b6006546113e89190612763565b905090565b6040805160208082018352848252825190810190925282825260009161111982826117e6565b600061141e8361166d565b9050600061142b84611208565b6002546040516370a0823160e01b815230600482015291925083916001600160a01b03909116906370a0823190602401602060405180830381865afa158015611478573d6000803e3d6000fd5b505050506040513d601f19601f8201168201806040525081019061149c9190612898565b10156114f55760405162461bcd60e51b815260206004820152602260248201527f4e6f7420656e6f7567682062616c616e636520696e2074686520636f6e74726160448201526118dd60f21b606482015260840161052b565b6000848152600d602052604090819020805464ffffffffff19164264ffffffffff16179055600254905163a9059cbb60e01b81526001600160a01b038581166004830152602482018590529091169063a9059cbb906044016020604051808303816000875af115801561156c573d6000803e3d6000fd5b505050506040513d601f19601f8201168201806040525081019061159091906128b1565b6115ac5760405162461bcd60e51b815260040161052b906128d3565b6115b5816115fe565b826001600160a01b03167f884edad9ce6fa2440d8a54cc123490eb96d2768479d49ff9c7366125a9424364836040516115f091815260200190565b60405180910390a250505050565b806116076113a7565b611611919061277b565b6006555042600755565b600180546001600160a01b038381166001600160a01b0319831681179093556040519116919082907f8be0079c531659141344cd1fd0a4f28419497f9722a3daafe3b4186f6b6457e090600090a35050565b600080600454116116b35760405162461bcd60e51b815260206004820152601060248201526f6e6f2061637469766520666c6f6f727360801b604482015260640161052b565b60045482111580156116c457508115155b6116e05760405162461bcd60e51b815260040161052b906127b1565b6000828152600d602090815260408083208151606081018352815464ffffffffff81168252600160281b810461ffff1694820194909452929091830190600160381b900460ff1660038111156117385761173861267c565b60038111156117495761174961267c565b90525090506117566113a7565b6002546040516370a0823160e01b81523060048201526001600160a01b03909116906370a0823190602401602060405180830381865afa15801561179e573d6000803e3d6000fd5b505050506040513d601f19601f820116820180604052508101906117c29190612898565b6117cb85611208565b6117d59190612792565b6117df919061291f565b9392505050565b604080516020810190915260008152825160000361182f576040518060200160405280836000015160001461181c576000611826565b670de0b6b3a76400005b90529050610d41565b6117df61184461183e856118cd565b846119dc565b611ac4565b6000806040518060200160405280600a54815250905060006040518060200160405280600454670de0b6b3a76400006118829190612792565b90526040805160208101909152670de0b6b3a764000081529091506118c46118aa8285611bb9565b6118be6118b786866117e6565b8490611bb9565b90611beb565b51949350505050565b6040805160208101909152600081528151600081136119025760405163309fa7dd60e11b81526004810182905260240161052b565b6000670de0b6b3a7640000821261191b57506001611931565b506ec097ce7bc90715b34b9f1000000000046000195b6000611946670de0b6b3a76400008405611cd0565b9050670de0b6b3a7640000810283821d670de0b6b3a763ffff19810161197e5750604080516020810190915292028252509392505050565b6706f05b59d3b200005b60008113156119c357670de0b6b3a7640000828002059150671bc16d674ec8000082126119bb579182019160019190911d905b60011d611988565b5050604080516020810190915292028252509392505050565b60408051602081019091526000815282518251600160ff1b821480611a045750600160ff1b81145b15611a2257604051630d01a11b60e21b815260040160405180910390fd5b60008060008412611a335783611a38565b836000035b915060008312611a485782611a4d565b826000035b90506000611a5b8383611db9565b90506001600160ff1b03811115611a885760405163bf79e8d960e01b81526004810182905260240161052b565b6040805160208101909152600019808713919086139080828418600114611aaf5784611ab4565b846000035b90529a9950505050505050505050565b60408051602081019091526000815281516000811215611b5a5768033dd1780914b9711419811215611b06575050604080516020810190915260008152919050565b600060405180602001604052808360000381525090506040518060200160405280611b3083611ac4565b516ec097ce7bc90715b34b9f100000000081611b4e57611b4e6127f5565b05815250925050611bb3565b680a688906bd8b0000008112611b865760405163e69458f960e01b81526004810182905260240161052b565b6000670de0b6b3a7640000604083901b0490506040518060200160405280611bad83611e7f565b90529250505b50919050565b6040805160208101909152600081526040805160208101909152825184518291611be291612933565b90529392505050565b60408051602081019091526000815282518251600160ff1b821480611c135750600160ff1b81145b15611c315760405163b3c754a360e01b815260040160405180910390fd5b60008060008412611c425783611c47565b836000035b915060008312611c575782611c5c565b826000035b90506000611c7383670de0b6b3a764000084612575565b90506001600160ff1b03811115611ca057604051637cb4bef560e01b81526004810182905260240161052b565b6040805160208101909152600019808713919086139080828418600114611cc75784611ab4565b611ab485612972565b6000600160801b8210611cf057608091821c91611ced9082612763565b90505b680100000000000000008210611d1357604091821c91611d109082612763565b90505b6401000000008210611d3257602091821c91611d2f9082612763565b90505b620100008210611d4f57601091821c91611d4c9082612763565b90505b6101008210611d6b57600891821c91611d689082612763565b90505b60108210611d8657600491821c91611d839082612763565b90505b60048210611da157600291821c91611d9e9082612763565b90505b60028210611db457610d41600182612763565b919050565b60008080600019848609848602925082811083820303915050670de0b6b3a76400008110611dfd5760405163698d9a0160e11b81526004810182905260240161052b565b600080670de0b6b3a764000086880991506706f05b59d3b1ffff8211905082600003611e3b5780670de0b6b3a7640000850401945050505050610d41565b620400008285030493909111909103600160ee1b02919091177faccb18165bd6fe31ae1cf318dc5b51eee0e1ba569b88cd74c1773b91fac106690201905092915050565b600160bf1b678000000000000000821615611ea35768016a09e667f3bcc9090260401c5b674000000000000000821615611ec2576801306fe0a31b7152df0260401c5b672000000000000000821615611ee1576801172b83c7d517adce0260401c5b671000000000000000821615611f005768010b5586cf9890f62a0260401c5b670800000000000000821615611f1f576801059b0d31585743ae0260401c5b670400000000000000821615611f3e57680102c9a3e778060ee70260401c5b670200000000000000821615611f5d5768010163da9fb33356d80260401c5b600160381b821615611f7857680100b1afa5abcbed610260401c5b6680000000000000821615611f965768010058c86da1c09ea20260401c5b6640000000000000821615611fb4576801002c605e2e8cec500260401c5b6620000000000000821615611fd257680100162f3904051fa10260401c5b6610000000000000821615611ff0576801000b175effdc76ba0260401c5b660800000000000082161561200e57680100058ba01fb9f96d0260401c5b660400000000000082161561202c5768010002c5cc37da94920260401c5b660200000000000082161561204a576801000162e525ee05470260401c5b66010000000000008216156120685768010000b17255775c040260401c5b65800000000000821615612085576801000058b91b5bc9ae0260401c5b654000000000008216156120a257680100002c5c89d5ec6d0260401c5b652000000000008216156120bf5768010000162e43f4f8310260401c5b651000000000008216156120dc57680100000b1721bcfc9a0260401c5b650800000000008216156120f95768010000058b90cf1e6e0260401c5b65040000000000821615612116576801000002c5c863b73f0260401c5b6502000000000082161561213357680100000162e430e5a20260401c5b600160281b82161561214e576801000000b1721835510260401c5b64800000000082161561216a57680100000058b90c0b490260401c5b6440000000008216156121865768010000002c5c8601cc0260401c5b6420000000008216156121a2576801000000162e42fff00260401c5b6410000000008216156121be5768010000000b17217fbb0260401c5b6408000000008216156121da576801000000058b90bfce0260401c5b6404000000008216156121f657680100000002c5c85fe30260401c5b6402000000008216156122125768010000000162e42ff10260401c5b64010000000082161561222e57680100000000b17217f80260401c5b63800000008216156122495768010000000058b90bfc0260401c5b6340000000821615612264576801000000002c5c85fe0260401c5b632000000082161561227f57680100000000162e42ff0260401c5b631000000082161561229a576801000000000b17217f0260401c5b63080000008216156122b557680100000000058b90c00260401c5b63040000008216156122d05768010000000002c5c8600260401c5b63020000008216156122eb576801000000000162e4300260401c5b63010000008216156123065768010000000000b172180260401c5b62800000821615612320576801000000000058b90c0260401c5b6240000082161561233a57680100000000002c5c860260401c5b622000008216156123545768010000000000162e430260401c5b6210000082161561236e57680100000000000b17210260401c5b620800008216156123885768010000000000058b910260401c5b620400008216156123a2576801000000000002c5c80260401c5b620200008216156123bc57680100000000000162e40260401c5b620100008216156123d6576801000000000000b1720260401c5b6180008216156123ef57680100000000000058b90260401c5b6140008216156124085768010000000000002c5d0260401c5b612000821615612421576801000000000000162e0260401c5b61100082161561243a5768010000000000000b170260401c5b610800821615612453576801000000000000058c0260401c5b61040082161561246c57680100000000000002c60260401c5b61020082161561248557680100000000000001630260401c5b61010082161561249e57680100000000000000b10260401c5b60808216156124b657680100000000000000590260401c5b60408216156124ce576801000000000000002c0260401c5b60208216156124e657680100000000000000160260401c5b60108216156124fe576801000000000000000b0260401c5b600882161561251657680100000000000000060260401c5b600482161561252e57680100000000000000030260401c5b600282161561254657680100000000000000010260401c5b600182161561255e57680100000000000000010260401c5b670de0b6b3a76400000260409190911c60bf031c90565b60008080600019858709858702925082811083820303915050806000036125af578382816125a5576125a56127f5565b04925050506117df565b8381106125d957604051631dcf306360e21b8152600481018290526024810185905260440161052b565b600084868809600260036001881981018916988990049182028318808302840302808302840302808302840302808302840302808302840302918202909203026000889003889004909101858311909403939093029303949094049190911702949350505050565b60006020828403121561265357600080fd5b5035919050565b6000806040838503121561266d57600080fd5b50508035926020909101359150565b634e487b7160e01b600052602160045260246000fd5b600481106126b057634e487b7160e01b600052602160045260246000fd5b9052565b600060608201905064ffffffffff835116825261ffff602084015116602083015260408301516126e76040840182612692565b5092915050565b64ffffffffff8416815261ffff83166020820152606081016127136040830184612692565b949350505050565b6001600160a01b03811681146113a457600080fd5b60006020828403121561274257600080fd5b81356117df8161271b565b634e487b7160e01b600052601160045260246000fd5b600082198211156127765761277661274d565b500190565b60008282101561278d5761278d61274d565b500390565b60008160001904831182151516156127ac576127ac61274d565b500290565b6020808252600d908201526c34b73b30b634b210333637b7b960991b604082015260600190565b6000602082840312156127ea57600080fd5b81516117df8161271b565b634e487b7160e01b600052601260045260246000fd5b60008261281a5761281a6127f5565b500690565b6020808252818101527f4f776e61626c653a2063616c6c6572206973206e6f7420746865206f776e6572604082015260600190565b60208082526024908201527f4f6e6c7920626174746c65722063616e2063616c6c20746869732066756e637460408201526334b7b71760e11b606082015260800190565b6000602082840312156128aa57600080fd5b5051919050565b6000602082840312156128c357600080fd5b815180151581146117df57600080fd5b6020808252602c908201527f556e61626c6520746f207472616e7366657220746f6b656e206261636b20746f60408201526b081d1a19481858d8dbdd5b9d60a21b606082015260800190565b60008261292e5761292e6127f5565b500490565b60008083128015600160ff1b8501841216156129515761295161274d565b6001600160ff1b038401831381161561296c5761296c61274d565b50500390565b6000600160ff1b82016129875761298761274d565b506000039056fea26469706673582212207732e491a3ade75cb9536dd2126ef6c8ef9aeb110f77ea3326dc5995ce19212b64736f6c634300080f0033",
  "bytecodeSha1": "8af5bd5e72609735fe2849e69b1ae16441c3b8b4",
  "compiler": {
    "evm_version": "istanbul",
    "optimizer": {
      "enabled": true,
      "runs": 200
    },
    "version": "0.8.15+commit.e14f2714"
  },
  "contractName": "WizardTower",
  "language": "Solidity",
  "natspec": {
    "errors": {
      "PRBMathSD59x18__DivInputTooSmall()": [
        {
          "notice": "Emitted when one of the inputs is MIN_SD59x18."
        }
      ],
      "PRBMathSD59x18__DivOverflow(uint256)": [
        {
          "notice": "Emitted when one of the intermediary unsigned results overflows SD59x18."
        }
      ],
      "PRBMathSD59x18__Exp2InputTooBig(int256)": [
        {
          "notice": "Emitted when the input is greater than 192."
        }
      ],
      "PRBMathSD59x18__LogInputTooSmall(int256)": [
        {
          "notice": "Emitted when the input is less than or equal to zero."
        }
      ],
      "PRBMathSD59x18__MulInputTooSmall()": [
        {
          "notice": "Emitted when one of the inputs is MIN_SD59x18."
        }
      ],
      "PRBMathSD59x18__MulOverflow(uint256)": [
        {
          "notice": "Emitted when the intermediary absolute result overflows SD59x18."
        }
      ],
      "PRBMath__MulDivFixedPointOverflow(uint256)": [
        {
          "notice": "Emitted when the result overflows uint256."
        }
      ],
      "PRBMath__MulDivOverflow(uint256,uint256)": [
        {
          "notice": "Emitted when the result overflows uint256."
        }
      ]
    },
    "kind": "dev",
    "methods": {
      "owner()": {
        "details": "Returns the address of the current owner."
      },
      "renounceOwnership()": {
        "details": "Leaves the contract without owner. It will not be possible to call `onlyOwner` functions anymore. Can only be called by the current owner. NOTE: Renouncing ownership will leave the contract without an owner, thereby removing any functionality that is only available to the owner."
      },
      "transferOwnership(address)": {
        "details": "Transfers ownership of the contract to a new account (`newOwner`). Can only be called by the current owner."
      },
      "unsignedMul(uint256,uint256)": {
        "details": "Try this with x = type(uint256).max and y = 5e17.",
        "notice": "Calculates x*yÃ·1e18 while handling possible intermediary overflow."
      }
    },
    "version": 1
  },
  "opcodes": "PUSH1 0x80 PUSH1 0x40 MSTORE CALLVALUE DUP1 ISZERO PUSH2 0x10 JUMPI PUSH1 0x0 DUP1 REVERT JUMPDEST POP PUSH1 0x4 CALLDATASIZE LT PUSH2 0x1FB JUMPI PUSH1 0x0 CALLDATALOAD PUSH1 0xE0 SHR DUP1 PUSH4 0x8DA5CB5B GT PUSH2 0x11A JUMPI DUP1 PUSH4 0xD5EE896E GT PUSH2 0xAD JUMPI DUP1 PUSH4 0xED7DF562 GT PUSH2 0x7C JUMPI DUP1 PUSH4 0xED7DF562 EQ PUSH2 0x48B JUMPI DUP1 PUSH4 0xEE545E68 EQ PUSH2 0x494 JUMPI DUP1 PUSH4 0xF2FDE38B EQ PUSH2 0x4A7 JUMPI DUP1 PUSH4 0xFB6BD1A9 EQ PUSH2 0x4BA JUMPI DUP1 PUSH4 0xFC0C546A EQ PUSH2 0x4C2 JUMPI PUSH1 0x0 DUP1 REVERT JUMPDEST DUP1 PUSH4 0xD5EE896E EQ PUSH2 0x42B JUMPI DUP1 PUSH4 0xE52E3249 EQ PUSH2 0x433 JUMPI DUP1 PUSH4 0xE737B86E EQ PUSH2 0x446 JUMPI DUP1 PUSH4 0xEC147C18 EQ PUSH2 0x459 JUMPI PUSH1 0x0 DUP1 REVERT JUMPDEST DUP1 PUSH4 0xAC7475ED GT PUSH2 0xE9 JUMPI DUP1 PUSH4 0xAC7475ED EQ PUSH2 0x3F4 JUMPI DUP1 PUSH4 0xBC0B0D88 EQ PUSH2 0x407 JUMPI DUP1 PUSH4 0xC891C62A EQ PUSH2 0x41A JUMPI DUP1 PUSH4 0xC972600F EQ PUSH2 0x422 JUMPI PUSH1 0x0 DUP1 REVERT JUMPDEST DUP1 PUSH4 0x8DA5CB5B EQ PUSH2 0x39D JUMPI DUP1 PUSH4 0x944D934B EQ PUSH2 0x3AE JUMPI DUP1 PUSH4 0x95AC8AF9 EQ PUSH2 0x3C1 JUMPI DUP1 PUSH4 0x9A0E6A85 EQ PUSH2 0x3E1 JUMPI PUSH1 0x0 DUP1 REVERT JUMPDEST DUP1 PUSH4 0x3CDD0398 GT PUSH2 0x192 JUMPI DUP1 PUSH4 0x715018A6 GT PUSH2 0x161 JUMPI DUP1 PUSH4 0x715018A6 EQ PUSH2 0x344 JUMPI DUP1 PUSH4 0x74D8BD37 EQ PUSH2 0x34C JUMPI DUP1 PUSH4 0x8538FD42 EQ PUSH2 0x377 JUMPI DUP1 PUSH4 0x8A9F4284 EQ PUSH2 0x38A JUMPI PUSH1 0x0 DUP1 REVERT JUMPDEST DUP1 PUSH4 0x3CDD0398 EQ PUSH2 0x2AF JUMPI DUP1 PUSH4 0x40E34DC0 EQ PUSH2 0x2B8 JUMPI DUP1 PUSH4 0x5685CB2E EQ PUSH2 0x2E3 JUMPI DUP1 PUSH4 0x67946143 EQ PUSH2 0x2F6 JUMPI PUSH1 0x0 DUP1 REVERT JUMPDEST DUP1 PUSH4 0x1EB69AF7 GT PUSH2 0x1CE JUMPI DUP1 PUSH4 0x1EB69AF7 EQ PUSH2 0x25A JUMPI DUP1 PUSH4 0x291116E7 EQ PUSH2 0x27A JUMPI DUP1 PUSH4 0x2E1A7D4D EQ PUSH2 0x291 JUMPI DUP1 PUSH4 0x396DBF0D EQ PUSH2 0x2A6 JUMPI PUSH1 0x0 DUP1 REVERT JUMPDEST DUP1 PUSH4 0x49171AC EQ PUSH2 0x200 JUMPI DUP1 PUSH4 0x5D973A7 EQ PUSH2 0x226 JUMPI DUP1 PUSH4 0xC395781 EQ PUSH2 0x23D JUMPI DUP1 PUSH4 0xF67EBD3 EQ PUSH2 0x247 JUMPI JUMPDEST PUSH1 0x0 DUP1 REVERT JUMPDEST PUSH2 0x213 PUSH2 0x20E CALLDATASIZE PUSH1 0x4 PUSH2 0x2641 JUMP JUMPDEST PUSH2 0x4D5 JUMP JUMPDEST PUSH1 0x40 MLOAD SWAP1 DUP2 MSTORE PUSH1 0x20 ADD JUMPDEST PUSH1 0x40 MLOAD DUP1 SWAP2 SUB SWAP1 RETURN JUMPDEST PUSH2 0x213 PUSH2 0x234 CALLDATASIZE PUSH1 0x4 PUSH2 0x265A JUMP JUMPDEST POP PUSH2 0x270F SWAP2 SWAP1 POP JUMP JUMPDEST PUSH2 0x213 PUSH3 0xF4240 DUP2 JUMP JUMPDEST PUSH2 0x213 PUSH2 0x255 CALLDATASIZE PUSH1 0x4 PUSH2 0x2641 JUMP JUMPDEST PUSH2 0x547 JUMP JUMPDEST PUSH2 0x26D PUSH2 0x268 CALLDATASIZE PUSH1 0x4 PUSH2 0x2641 JUMP JUMPDEST PUSH2 0x62A JUMP JUMPDEST PUSH1 0x40 MLOAD PUSH2 0x21D SWAP2 SWAP1 PUSH2 0x26B4 JUMP JUMPDEST PUSH2 0x213 PUSH2 0x288 CALLDATASIZE PUSH1 0x4 PUSH2 0x265A JUMP JUMPDEST POP PUSH2 0x22B8 SWAP2 SWAP1 POP JUMP JUMPDEST PUSH2 0x2A4 PUSH2 0x29F CALLDATASIZE PUSH1 0x4 PUSH2 0x2641 JUMP JUMPDEST PUSH2 0x6BF JUMP JUMPDEST STOP JUMPDEST PUSH2 0x213 PUSH1 0x6 SLOAD DUP2 JUMP JUMPDEST PUSH2 0x213 PUSH1 0x4 SLOAD DUP2 JUMP JUMPDEST PUSH2 0x213 PUSH2 0x2C6 CALLDATASIZE PUSH1 0x4 PUSH2 0x2641 JUMP JUMPDEST PUSH1 0x0 SWAP1 DUP2 MSTORE PUSH1 0xD PUSH1 0x20 MSTORE PUSH1 0x40 SWAP1 KECCAK256 SLOAD PUSH1 0x1 PUSH1 0x28 SHL SWAP1 DIV PUSH2 0xFFFF AND SWAP1 JUMP JUMPDEST PUSH2 0x213 PUSH2 0x2F1 CALLDATASIZE PUSH1 0x4 PUSH2 0x2641 JUMP JUMPDEST PUSH2 0x838 JUMP JUMPDEST PUSH2 0x335 PUSH2 0x304 CALLDATASIZE PUSH1 0x4 PUSH2 0x2641 JUMP JUMPDEST PUSH1 0xD PUSH1 0x20 MSTORE PUSH1 0x0 SWAP1 DUP2 MSTORE PUSH1 0x40 SWAP1 KECCAK256 SLOAD PUSH5 0xFFFFFFFFFF DUP2 AND SWAP1 PUSH1 0x1 PUSH1 0x28 SHL DUP2 DIV PUSH2 0xFFFF AND SWAP1 PUSH1 0x1 PUSH1 0x38 SHL SWAP1 DIV PUSH1 0xFF AND DUP4 JUMP JUMPDEST PUSH1 0x40 MLOAD PUSH2 0x21D SWAP4 SWAP3 SWAP2 SWAP1 PUSH2 0x26EE JUMP JUMPDEST PUSH2 0x2A4 PUSH2 0xB07 JUMP JUMPDEST PUSH1 0x3 SLOAD PUSH2 0x35F SWAP1 PUSH1 0x1 PUSH1 0x1 PUSH1 0xA0 SHL SUB AND DUP2 JUMP JUMPDEST PUSH1 0x40 MLOAD PUSH1 0x1 PUSH1 0x1 PUSH1 0xA0 SHL SUB SWAP1 SWAP2 AND DUP2 MSTORE PUSH1 0x20 ADD PUSH2 0x21D JUMP JUMPDEST PUSH2 0x26D PUSH2 0x385 CALLDATASIZE PUSH1 0x4 PUSH2 0x2641 JUMP JUMPDEST PUSH2 0xB3D JUMP JUMPDEST PUSH2 0x2A4 PUSH2 0x398 CALLDATASIZE PUSH1 0x4 PUSH2 0x265A JUMP JUMPDEST PUSH2 0xC1B JUMP JUMPDEST PUSH1 0x1 SLOAD PUSH1 0x1 PUSH1 0x1 PUSH1 0xA0 SHL SUB AND PUSH2 0x35F JUMP JUMPDEST PUSH2 0x213 PUSH2 0x3BC CALLDATASIZE PUSH1 0x4 PUSH2 0x2641 JUMP JUMPDEST PUSH2 0xD36 JUMP JUMPDEST PUSH2 0x213 PUSH2 0x3CF CALLDATASIZE PUSH1 0x4 PUSH2 0x2641 JUMP JUMPDEST PUSH1 0xE PUSH1 0x20 MSTORE PUSH1 0x0 SWAP1 DUP2 MSTORE PUSH1 0x40 SWAP1 KECCAK256 SLOAD DUP2 JUMP JUMPDEST PUSH2 0x2A4 PUSH2 0x3EF CALLDATASIZE PUSH1 0x4 PUSH2 0x2641 JUMP JUMPDEST PUSH2 0xD47 JUMP JUMPDEST PUSH2 0x2A4 PUSH2 0x402 CALLDATASIZE PUSH1 0x4 PUSH2 0x2730 JUMP JUMPDEST PUSH2 0xE90 JUMP JUMPDEST PUSH1 0xC SLOAD PUSH2 0x35F SWAP1 PUSH1 0x1 PUSH1 0x1 PUSH1 0xA0 SHL SUB AND DUP2 JUMP JUMPDEST PUSH2 0x2A4 PUSH2 0xF7C JUMP JUMPDEST PUSH2 0x213 PUSH1 0xA SLOAD DUP2 JUMP JUMPDEST PUSH2 0x213 PUSH2 0x10DD JUMP JUMPDEST PUSH2 0x2A4 PUSH2 0x441 CALLDATASIZE PUSH1 0x4 PUSH2 0x2730 JUMP JUMPDEST PUSH2 0x1123 JUMP JUMPDEST PUSH1 0xB SLOAD PUSH2 0x35F SWAP1 PUSH1 0x1 PUSH1 0x1 PUSH1 0xA0 SHL SUB AND DUP2 JUMP JUMPDEST PUSH2 0x47B PUSH2 0x467 CALLDATASIZE PUSH1 0x4 PUSH2 0x2641 JUMP JUMPDEST PUSH1 0x0 SWAP1 DUP2 MSTORE PUSH1 0xE PUSH1 0x20 MSTORE PUSH1 0x40 SWAP1 KECCAK256 SLOAD ISZERO ISZERO SWAP1 JUMP JUMPDEST PUSH1 0x40 MLOAD SWAP1 ISZERO ISZERO DUP2 MSTORE PUSH1 0x20 ADD PUSH2 0x21D JUMP JUMPDEST PUSH2 0x213 PUSH1 0x7 SLOAD DUP2 JUMP JUMPDEST PUSH2 0x213 PUSH2 0x4A2 CALLDATASIZE PUSH1 0x4 PUSH2 0x2641 JUMP JUMPDEST PUSH2 0x1208 JUMP JUMPDEST PUSH2 0x2A4 PUSH2 0x4B5 CALLDATASIZE PUSH1 0x4 PUSH2 0x2730 JUMP JUMPDEST PUSH2 0x130C JUMP JUMPDEST PUSH2 0x213 PUSH2 0x13A7 JUMP JUMPDEST PUSH1 0x2 SLOAD PUSH2 0x35F SWAP1 PUSH1 0x1 PUSH1 0x1 PUSH1 0xA0 SHL SUB AND DUP2 JUMP JUMPDEST PUSH1 0x0 DUP1 DUP3 GT DUP1 ISZERO PUSH2 0x4F2 JUMPI POP PUSH1 0x4 SLOAD PUSH2 0x4EF SWAP1 PUSH1 0x1 PUSH2 0x2763 JUMP JUMPDEST DUP3 LT JUMPDEST PUSH2 0x534 JUMPI PUSH1 0x40 MLOAD PUSH3 0x461BCD PUSH1 0xE5 SHL DUP2 MSTORE PUSH1 0x20 PUSH1 0x4 DUP3 ADD MSTORE PUSH1 0xE PUSH1 0x24 DUP3 ADD MSTORE PUSH14 0x34B73B30B634B210373AB6B132B9 PUSH1 0x91 SHL PUSH1 0x44 DUP3 ADD MSTORE PUSH1 0x64 ADD JUMPDEST PUSH1 0x40 MLOAD DUP1 SWAP2 SUB SWAP1 REVERT JUMPDEST POP PUSH1 0x0 SWAP1 DUP2 MSTORE PUSH1 0xE PUSH1 0x20 MSTORE PUSH1 0x40 SWAP1 KECCAK256 SLOAD SWAP1 JUMP JUMPDEST PUSH1 0x0 DUP1 PUSH2 0x574 PUSH1 0xA SLOAD PUSH1 0x1 DUP6 PUSH2 0x55D SWAP2 SWAP1 PUSH2 0x277B JUMP JUMPDEST PUSH2 0x56F SWAP1 PUSH8 0xDE0B6B3A7640000 PUSH2 0x2792 JUMP JUMPDEST PUSH2 0x13ED JUMP JUMPDEST PUSH1 0x0 DUP5 DUP2 MSTORE PUSH1 0xD PUSH1 0x20 SWAP1 DUP2 MSTORE PUSH1 0x40 DUP1 DUP4 KECCAK256 DUP2 MLOAD PUSH1 0x60 DUP2 ADD DUP4 MSTORE DUP2 SLOAD PUSH5 0xFFFFFFFFFF DUP2 AND DUP3 MSTORE PUSH1 0x1 PUSH1 0x28 SHL DUP2 DIV PUSH2 0xFFFF AND SWAP5 DUP3 ADD SWAP5 SWAP1 SWAP5 MSTORE SWAP5 SWAP6 POP SWAP3 SWAP4 SWAP3 SWAP2 SWAP1 DUP4 ADD SWAP1 PUSH1 0x1 PUSH1 0x38 SHL SWAP1 DIV PUSH1 0xFF AND PUSH1 0x3 DUP2 GT ISZERO PUSH2 0x5D1 JUMPI PUSH2 0x5D1 PUSH2 0x267C JUMP JUMPDEST PUSH1 0x3 DUP2 GT ISZERO PUSH2 0x5E2 JUMPI PUSH2 0x5E2 PUSH2 0x267C JUMP JUMPDEST SWAP1 MSTORE POP DUP1 MLOAD SWAP1 SWAP2 POP PUSH1 0x0 SWAP1 PUSH5 0xFFFFFFFFFF AND ISZERO PUSH2 0x607 JUMPI DUP2 MLOAD PUSH5 0xFFFFFFFFFF AND PUSH2 0x60B JUMP JUMPDEST PUSH1 0x5 SLOAD JUMPDEST SWAP1 POP PUSH2 0x617 DUP2 TIMESTAMP PUSH2 0x277B JUMP JUMPDEST PUSH2 0x621 SWAP1 DUP5 PUSH2 0x2792 JUMP JUMPDEST SWAP6 SWAP5 POP POP POP POP POP JUMP JUMPDEST PUSH2 0x64B PUSH1 0x40 DUP1 MLOAD PUSH1 0x60 DUP2 ADD DUP3 MSTORE PUSH1 0x0 DUP1 DUP3 MSTORE PUSH1 0x20 DUP3 ADD DUP2 SWAP1 MSTORE SWAP1 SWAP2 DUP3 ADD MSTORE SWAP1 JUMP JUMPDEST PUSH1 0x0 DUP3 DUP2 MSTORE PUSH1 0xD PUSH1 0x20 SWAP1 DUP2 MSTORE PUSH1 0x40 SWAP2 DUP3 SWAP1 KECCAK256 DUP3 MLOAD PUSH1 0x60 DUP2 ADD DUP5 MSTORE DUP2 SLOAD PUSH5 0xFFFFFFFFFF DUP2 AND DUP3 MSTORE PUSH1 0x1 PUSH1 0x28 SHL DUP2 DIV PUSH2 0xFFFF AND SWAP4 DUP3 ADD SWAP4 SWAP1 SWAP4 MSTORE SWAP3 SWAP1 SWAP2 SWAP1 DUP4 ADD SWAP1 PUSH1 0x1 PUSH1 0x38 SHL SWAP1 DIV PUSH1 0xFF AND PUSH1 0x3 DUP2 GT ISZERO PUSH2 0x6A5 JUMPI PUSH2 0x6A5 PUSH2 0x267C JUMP JUMPDEST PUSH1 0x3 DUP2 GT ISZERO PUSH2 0x6B6 JUMPI PUSH2 0x6B6 PUSH2 0x267C JUMP JUMPDEST SWAP1 MSTORE POP SWAP3 SWAP2 POP POP JUMP JUMPDEST PUSH1 0x2 PUSH1 0x0 SLOAD SUB PUSH2 0x711 JUMPI PUSH1 0x40 MLOAD PUSH3 0x461BCD PUSH1 0xE5 SHL DUP2 MSTORE PUSH1 0x20 PUSH1 0x4 DUP3 ADD MSTORE PUSH1 0x1F PUSH1 0x24 DUP3 ADD MSTORE PUSH32 0x5265656E7472616E637947756172643A207265656E7472616E742063616C6C00 PUSH1 0x44 DUP3 ADD MSTORE PUSH1 0x64 ADD PUSH2 0x52B JUMP JUMPDEST PUSH1 0x2 PUSH1 0x0 SSTORE DUP1 ISZERO DUP1 ISZERO SWAP1 PUSH2 0x727 JUMPI POP PUSH1 0x4 SLOAD DUP2 GT ISZERO JUMPDEST PUSH2 0x743 JUMPI PUSH1 0x40 MLOAD PUSH3 0x461BCD PUSH1 0xE5 SHL DUP2 MSTORE PUSH1 0x4 ADD PUSH2 0x52B SWAP1 PUSH2 0x27B1 JUMP JUMPDEST PUSH1 0x0 DUP2 DUP2 MSTORE PUSH1 0xD PUSH1 0x20 MSTORE PUSH1 0x40 SWAP1 DUP2 SWAP1 KECCAK256 SLOAD PUSH1 0x3 SLOAD SWAP2 MLOAD PUSH4 0x31A9108F PUSH1 0xE1 SHL DUP2 MSTORE PUSH1 0x1 PUSH1 0x28 SHL SWAP1 SWAP2 DIV PUSH2 0xFFFF AND PUSH1 0x4 DUP3 ADD DUP2 SWAP1 MSTORE SWAP2 ORIGIN SWAP2 PUSH1 0x1 PUSH1 0x1 PUSH1 0xA0 SHL SUB SWAP1 SWAP2 AND SWAP1 PUSH4 0x6352211E SWAP1 PUSH1 0x24 ADD PUSH1 0x20 PUSH1 0x40 MLOAD DUP1 DUP4 SUB DUP2 DUP7 GAS STATICCALL ISZERO DUP1 ISZERO PUSH2 0x7AB JUMPI RETURNDATASIZE PUSH1 0x0 DUP1 RETURNDATACOPY RETURNDATASIZE PUSH1 0x0 REVERT JUMPDEST POP POP POP POP PUSH1 0x40 MLOAD RETURNDATASIZE PUSH1 0x1F NOT PUSH1 0x1F DUP3 ADD AND DUP3 ADD DUP1 PUSH1 0x40 MSTORE POP DUP2 ADD SWAP1 PUSH2 0x7CF SWAP2 SWAP1 PUSH2 0x27D8 JUMP JUMPDEST PUSH1 0x1 PUSH1 0x1 PUSH1 0xA0 SHL SUB AND EQ PUSH2 0x825 JUMPI PUSH1 0x40 MLOAD PUSH3 0x461BCD PUSH1 0xE5 SHL DUP2 MSTORE PUSH1 0x20 PUSH1 0x4 DUP3 ADD DUP2 SWAP1 MSTORE PUSH1 0x24 DUP3 ADD MSTORE PUSH32 0x596F7520646F206E6F74206F776E207468652077697A6172642074686572652E PUSH1 0x44 DUP3 ADD MSTORE PUSH1 0x64 ADD PUSH2 0x52B JUMP JUMPDEST PUSH2 0x82F DUP3 ORIGIN PUSH2 0x1413 JUMP JUMPDEST POP POP PUSH1 0x1 PUSH1 0x0 SSTORE JUMP JUMPDEST PUSH1 0x3 SLOAD PUSH1 0x40 MLOAD PUSH4 0x31A9108F PUSH1 0xE1 SHL DUP2 MSTORE PUSH1 0x4 DUP2 ADD DUP4 SWAP1 MSTORE PUSH1 0x0 SWAP2 CALLER SWAP2 PUSH1 0x1 PUSH1 0x1 PUSH1 0xA0 SHL SUB SWAP1 SWAP2 AND SWAP1 PUSH4 0x6352211E SWAP1 PUSH1 0x24 ADD PUSH1 0x20 PUSH1 0x40 MLOAD DUP1 DUP4 SUB DUP2 DUP7 GAS STATICCALL ISZERO DUP1 ISZERO PUSH2 0x886 JUMPI RETURNDATASIZE PUSH1 0x0 DUP1 RETURNDATACOPY RETURNDATASIZE PUSH1 0x0 REVERT JUMPDEST POP POP POP POP PUSH1 0x40 MLOAD RETURNDATASIZE PUSH1 0x1F NOT PUSH1 0x1F DUP3 ADD AND DUP3 ADD DUP1 PUSH1 0x40 MSTORE POP DUP2 ADD SWAP1 PUSH2 0x8AA SWAP2 SWAP1 PUSH2 0x27D8 JUMP JUMPDEST PUSH1 0x1 PUSH1 0x1 PUSH1 0xA0 SHL SUB AND EQ PUSH2 0x8F6 JUMPI PUSH1 0x40 MLOAD PUSH3 0x461BCD PUSH1 0xE5 SHL DUP2 MSTORE PUSH1 0x20 PUSH1 0x4 DUP3 ADD MSTORE PUSH1 0x13 PUSH1 0x24 DUP3 ADD MSTORE PUSH19 0x1B5D5CDD081BDDDB881DDA5E985C991CD39195 PUSH1 0x6A SHL PUSH1 0x44 DUP3 ADD MSTORE PUSH1 0x64 ADD PUSH2 0x52B JUMP JUMPDEST PUSH1 0x0 DUP3 DUP2 MSTORE PUSH1 0xE PUSH1 0x20 MSTORE PUSH1 0x40 SWAP1 KECCAK256 SLOAD ISZERO PUSH2 0x945 JUMPI PUSH1 0x40 MLOAD PUSH3 0x461BCD PUSH1 0xE5 SHL DUP2 MSTORE PUSH1 0x20 PUSH1 0x4 DUP3 ADD MSTORE PUSH1 0x10 PUSH1 0x24 DUP3 ADD MSTORE PUSH16 0x30B63932B0B23C9031B630B4B6B2B217 PUSH1 0x81 SHL PUSH1 0x44 DUP3 ADD MSTORE PUSH1 0x64 ADD PUSH2 0x52B JUMP JUMPDEST PUSH1 0x1 PUSH1 0x4 PUSH1 0x0 DUP3 DUP3 SLOAD PUSH2 0x958 SWAP2 SWAP1 PUSH2 0x2763 JUMP JUMPDEST SWAP1 SWAP2 SSTORE POP PUSH2 0x97F SWAP1 POP PUSH1 0x40 DUP1 MLOAD PUSH1 0x60 DUP2 ADD DUP3 MSTORE PUSH1 0x0 DUP1 DUP3 MSTORE PUSH1 0x20 DUP3 ADD DUP2 SWAP1 MSTORE SWAP1 SWAP2 DUP3 ADD MSTORE SWAP1 JUMP JUMPDEST TIMESTAMP PUSH5 0xFFFFFFFFFF DUP2 AND DUP3 MSTORE PUSH1 0x4 DUP1 SLOAD PUSH1 0x40 DUP1 MLOAD PUSH1 0x20 DUP2 ADD SWAP3 SWAP1 SWAP3 MSTORE PUSH12 0xFFFFFFFFFFFFFFFFFFFFFFFF NOT CALLER PUSH1 0x60 SHL AND SWAP1 DUP3 ADD MSTORE PUSH1 0x54 DUP2 ADD SWAP3 SWAP1 SWAP3 MSTORE SWAP1 PUSH1 0x74 ADD PUSH1 0x40 MLOAD PUSH1 0x20 DUP2 DUP4 SUB SUB DUP2 MSTORE SWAP1 PUSH1 0x40 MSTORE DUP1 MLOAD SWAP1 PUSH1 0x20 ADD KECCAK256 PUSH1 0x0 SHR PUSH2 0x9E0 SWAP2 SWAP1 PUSH2 0x280B JUMP JUMPDEST PUSH1 0x3 DUP2 GT ISZERO PUSH2 0x9F1 JUMPI PUSH2 0x9F1 PUSH2 0x267C JUMP JUMPDEST DUP2 PUSH1 0x40 ADD SWAP1 PUSH1 0x3 DUP2 GT ISZERO PUSH2 0xA07 JUMPI PUSH2 0xA07 PUSH2 0x267C JUMP JUMPDEST SWAP1 DUP2 PUSH1 0x3 DUP2 GT ISZERO PUSH2 0xA1A JUMPI PUSH2 0xA1A PUSH2 0x267C JUMP JUMPDEST SWAP1 MSTORE POP PUSH2 0xFFFF DUP1 DUP5 AND PUSH1 0x20 DUP1 DUP5 ADD SWAP2 DUP3 MSTORE PUSH1 0x4 SLOAD PUSH1 0x0 DUP8 DUP2 MSTORE PUSH1 0xE DUP4 MSTORE PUSH1 0x40 DUP1 DUP3 KECCAK256 DUP4 SWAP1 SSTORE SWAP2 DUP2 MSTORE PUSH1 0xD SWAP1 SWAP3 MSTORE SWAP1 DUP2 SWAP1 KECCAK256 DUP5 MLOAD DUP2 SLOAD SWAP4 MLOAD SWAP1 SWAP5 AND PUSH1 0x1 PUSH1 0x28 SHL MUL PUSH7 0xFFFFFFFFFFFFFF NOT SWAP1 SWAP4 AND PUSH5 0xFFFFFFFFFF SWAP1 SWAP5 AND SWAP4 SWAP1 SWAP4 OR SWAP2 SWAP1 SWAP2 OR DUP1 DUP4 SSTORE SWAP1 DUP4 ADD MLOAD DUP4 SWAP3 SWAP2 DUP3 SWAP1 PUSH8 0xFF00000000000000 NOT AND PUSH1 0x1 PUSH1 0x38 SHL DUP4 PUSH1 0x3 DUP2 GT ISZERO PUSH2 0xAA5 JUMPI PUSH2 0xAA5 PUSH2 0x267C JUMP JUMPDEST MUL OR SWAP1 SSTORE POP SWAP1 POP POP PUSH2 0xAB7 PUSH1 0x0 PUSH2 0x15FE JUMP JUMPDEST PUSH1 0x4 SLOAD PUSH1 0x40 DUP1 MLOAD CALLER DUP2 MSTORE PUSH1 0x20 DUP2 ADD SWAP3 SWAP1 SWAP3 MSTORE TIMESTAMP SWAP1 DUP3 ADD MSTORE DUP4 SWAP1 PUSH32 0x85EA83C5F50CB37E91BD558E80839597535164F593ACC3DC74A9298C0B0817A7 SWAP1 PUSH1 0x60 ADD PUSH1 0x40 MLOAD DUP1 SWAP2 SUB SWAP1 LOG2 POP POP PUSH1 0x4 SLOAD SWAP2 SWAP1 POP JUMP JUMPDEST PUSH1 0x1 SLOAD PUSH1 0x1 PUSH1 0x1 PUSH1 0xA0 SHL SUB AND CALLER EQ PUSH2 0xB31 JUMPI PUSH1 0x40 MLOAD PUSH3 0x461BCD PUSH1 0xE5 SHL DUP2 MSTORE PUSH1 0x4 ADD PUSH2 0x52B SWAP1 PUSH2 0x281F JUMP JUMPDEST PUSH2 0xB3B PUSH1 0x0 PUSH2 0x161B JUMP JUMPDEST JUMP JUMPDEST PUSH2 0xB5E PUSH1 0x40 DUP1 MLOAD PUSH1 0x60 DUP2 ADD DUP3 MSTORE PUSH1 0x0 DUP1 DUP3 MSTORE PUSH1 0x20 DUP3 ADD DUP2 SWAP1 MSTORE SWAP1 SWAP2 DUP3 ADD MSTORE SWAP1 JUMP JUMPDEST PUSH1 0x0 DUP3 GT DUP1 ISZERO PUSH2 0xB7A JUMPI POP PUSH1 0x4 SLOAD PUSH2 0xB77 SWAP1 PUSH1 0x1 PUSH2 0x2763 JUMP JUMPDEST DUP3 LT JUMPDEST PUSH2 0xBB7 JUMPI PUSH1 0x40 MLOAD PUSH3 0x461BCD PUSH1 0xE5 SHL DUP2 MSTORE PUSH1 0x20 PUSH1 0x4 DUP3 ADD MSTORE PUSH1 0xE PUSH1 0x24 DUP3 ADD MSTORE PUSH14 0x34B73B30B634B210373AB6B132B9 PUSH1 0x91 SHL PUSH1 0x44 DUP3 ADD MSTORE PUSH1 0x64 ADD PUSH2 0x52B JUMP JUMPDEST PUSH1 0x0 DUP3 DUP2 MSTORE PUSH1 0xE PUSH1 0x20 SWAP1 DUP2 MSTORE PUSH1 0x40 DUP1 DUP4 KECCAK256 SLOAD DUP4 MSTORE PUSH1 0xD DUP3 MSTORE SWAP2 DUP3 SWAP1 KECCAK256 DUP3 MLOAD PUSH1 0x60 DUP2 ADD DUP5 MSTORE DUP2 SLOAD PUSH5 0xFFFFFFFFFF DUP2 AND DUP3 MSTORE PUSH1 0x1 PUSH1 0x28 SHL DUP2 DIV PUSH2 0xFFFF AND SWAP4 DUP3 ADD SWAP4 SWAP1 SWAP4 MSTORE SWAP3 SWAP1 SWAP2 SWAP1 DUP4 ADD SWAP1 PUSH1 0x1 PUSH1 0x38 SHL SWAP1 DIV PUSH1 0xFF AND PUSH1 0x3 DUP2 GT ISZERO PUSH2 0x6A5 JUMPI PUSH2 0x6A5 PUSH2 0x267C JUMP JUMPDEST PUSH1 0xC SLOAD PUSH1 0x1 PUSH1 0x1 PUSH1 0xA0 SHL SUB AND CALLER EQ PUSH2 0xC45 JUMPI PUSH1 0x40 MLOAD PUSH3 0x461BCD PUSH1 0xE5 SHL DUP2 MSTORE PUSH1 0x4 ADD PUSH2 0x52B SWAP1 PUSH2 0x2854 JUMP JUMPDEST PUSH1 0x4 SLOAD DUP3 GT ISZERO DUP1 ISZERO PUSH2 0xC59 JUMPI POP PUSH1 0x4 SLOAD DUP2 GT ISZERO JUMPDEST DUP1 ISZERO PUSH2 0xC65 JUMPI POP DUP2 DUP2 EQ ISZERO JUMPDEST PUSH2 0xCA2 JUMPI PUSH1 0x40 MLOAD PUSH3 0x461BCD PUSH1 0xE5 SHL DUP2 MSTORE PUSH1 0x20 PUSH1 0x4 DUP3 ADD MSTORE PUSH1 0xE PUSH1 0x24 DUP3 ADD MSTORE PUSH14 0x696E76616C696420666C6F6F7273 PUSH1 0x90 SHL PUSH1 0x44 DUP3 ADD MSTORE PUSH1 0x64 ADD PUSH2 0x52B JUMP JUMPDEST PUSH2 0xCC3 PUSH1 0x40 DUP1 MLOAD PUSH1 0x60 DUP2 ADD DUP3 MSTORE PUSH1 0x0 DUP1 DUP3 MSTORE PUSH1 0x20 DUP3 ADD DUP2 SWAP1 MSTORE SWAP1 SWAP2 DUP3 ADD MSTORE SWAP1 JUMP JUMPDEST POP PUSH1 0x0 DUP3 DUP2 MSTORE PUSH1 0xD PUSH1 0x20 SWAP1 DUP2 MSTORE PUSH1 0x40 DUP1 DUP4 KECCAK256 DUP1 SLOAD DUP6 DUP6 MSTORE DUP3 DUP6 KECCAK256 DUP1 SLOAD PUSH7 0xFFFF0000000000 NOT DUP1 DUP5 AND PUSH2 0xFFFF PUSH1 0x1 PUSH1 0x28 SHL SWAP4 DUP5 SWAP1 DIV DUP2 AND DUP5 MUL SWAP2 SWAP1 SWAP2 OR DUP7 SSTORE DUP4 SLOAD SWAP1 SWAP2 AND SWAP4 DUP3 SWAP1 DIV DUP2 AND DUP1 DUP4 MUL SWAP5 SWAP1 SWAP5 OR SWAP1 SWAP3 SSTORE SWAP3 SLOAD SWAP3 SWAP1 SWAP3 DIV SWAP1 SWAP2 AND DUP5 MSTORE PUSH1 0xE SWAP1 SWAP3 MSTORE DUP1 DUP4 KECCAK256 SWAP5 SWAP1 SWAP5 SSTORE DUP2 MSTORE SWAP2 SWAP1 SWAP2 KECCAK256 SSTORE JUMP JUMPDEST PUSH1 0x0 PUSH2 0xD41 DUP3 PUSH2 0x166D JUMP JUMPDEST SWAP3 SWAP2 POP POP JUMP JUMPDEST PUSH1 0xC SLOAD PUSH1 0x1 PUSH1 0x1 PUSH1 0xA0 SHL SUB AND CALLER EQ PUSH2 0xD71 JUMPI PUSH1 0x40 MLOAD PUSH3 0x461BCD PUSH1 0xE5 SHL DUP2 MSTORE PUSH1 0x4 ADD PUSH2 0x52B SWAP1 PUSH2 0x2854 JUMP JUMPDEST PUSH1 0x0 DUP2 DUP2 MSTORE PUSH1 0xD PUSH1 0x20 MSTORE PUSH1 0x40 DUP1 DUP3 KECCAK256 SLOAD PUSH1 0x4 SLOAD DUP1 DUP5 MSTORE SWAP2 SWAP1 SWAP3 KECCAK256 SLOAD PUSH1 0x8 SLOAD PUSH2 0xFFFF PUSH1 0x1 PUSH1 0x28 SHL SWAP5 DUP6 SWAP1 DIV DUP2 AND SWAP5 SWAP1 SWAP3 DIV SWAP1 SWAP2 AND SWAP2 PUSH2 0xDAE SWAP1 PUSH2 0xD36 JUMP JUMPDEST GT ISZERO PUSH2 0xE2D JUMPI PUSH1 0x4 DUP1 SLOAD PUSH1 0x3 SLOAD PUSH1 0x40 MLOAD PUSH4 0x31A9108F PUSH1 0xE1 SHL DUP2 MSTORE SWAP3 DUP4 ADD DUP5 SWAP1 MSTORE PUSH2 0xE2D SWAP3 PUSH1 0x1 PUSH1 0x1 PUSH1 0xA0 SHL SUB SWAP1 SWAP2 AND SWAP1 PUSH4 0x6352211E SWAP1 PUSH1 0x24 ADD PUSH1 0x20 PUSH1 0x40 MLOAD DUP1 DUP4 SUB DUP2 DUP7 GAS STATICCALL ISZERO DUP1 ISZERO PUSH2 0xE04 JUMPI RETURNDATASIZE PUSH1 0x0 DUP1 RETURNDATACOPY RETURNDATASIZE PUSH1 0x0 REVERT JUMPDEST POP POP POP POP PUSH1 0x40 MLOAD RETURNDATASIZE PUSH1 0x1F NOT PUSH1 0x1F DUP3 ADD AND DUP3 ADD DUP1 PUSH1 0x40 MSTORE POP DUP2 ADD SWAP1 PUSH2 0xE28 SWAP2 SWAP1 PUSH2 0x27D8 JUMP JUMPDEST PUSH2 0x1413 JUMP JUMPDEST PUSH1 0x0 DUP4 DUP2 MSTORE PUSH1 0xD PUSH1 0x20 MSTORE PUSH1 0x40 DUP2 KECCAK256 DUP1 SLOAD PUSH7 0xFFFFFFFFFFFFFF NOT AND PUSH1 0x1 PUSH1 0x28 SHL PUSH2 0xFFFF DUP6 AND MUL PUSH5 0xFFFFFFFFFF NOT AND OR TIMESTAMP PUSH5 0xFFFFFFFFFF AND OR DUP2 SSTORE PUSH1 0x4 DUP1 SLOAD SWAP2 SWAP3 PUSH1 0x1 SWAP3 PUSH2 0xE7A SWAP1 DUP5 SWAP1 PUSH2 0x277B JUMP JUMPDEST SWAP1 SWAP2 SSTORE POP PUSH2 0xE8A SWAP1 POP PUSH1 0x0 PUSH2 0x15FE JUMP JUMPDEST POP POP POP POP JUMP JUMPDEST PUSH1 0x1 SLOAD PUSH1 0x1 PUSH1 0x1 PUSH1 0xA0 SHL SUB AND CALLER EQ PUSH2 0xEBA JUMPI PUSH1 0x40 MLOAD PUSH3 0x461BCD PUSH1 0xE5 SHL DUP2 MSTORE PUSH1 0x4 ADD PUSH2 0x52B SWAP1 PUSH2 0x281F JUMP JUMPDEST PUSH1 0x1 PUSH1 0x1 PUSH1 0xA0 SHL SUB DUP2 AND ISZERO DUP1 ISZERO SWAP1 PUSH2 0xEE0 JUMPI POP PUSH1 0xB SLOAD PUSH1 0x1 PUSH1 0x1 PUSH1 0xA0 SHL SUB DUP3 DUP2 AND SWAP2 AND EQ ISZERO JUMPDEST PUSH2 0xF27 JUMPI PUSH1 0x40 MLOAD PUSH3 0x461BCD PUSH1 0xE5 SHL DUP2 MSTORE PUSH1 0x20 PUSH1 0x4 DUP3 ADD MSTORE PUSH1 0x18 PUSH1 0x24 DUP3 ADD MSTORE PUSH24 0x496E76616C6964206F70657261746F722061646472657373 PUSH1 0x40 SHL PUSH1 0x44 DUP3 ADD MSTORE PUSH1 0x64 ADD PUSH2 0x52B JUMP JUMPDEST PUSH1 0xB DUP1 SLOAD PUSH1 0x1 PUSH1 0x1 PUSH1 0xA0 SHL SUB NOT AND PUSH1 0x1 PUSH1 0x1 PUSH1 0xA0 SHL SUB DUP4 AND SWAP1 DUP2 OR SWAP1 SWAP2 SSTORE PUSH1 0x40 MLOAD SWAP1 DUP2 MSTORE PUSH32 0xDA12EE837E6978172AAF54B16145FFE08414FD8710092EF033C71B8EB6EC189A SWAP1 PUSH1 0x20 ADD JUMPDEST PUSH1 0x40 MLOAD DUP1 SWAP2 SUB SWAP1 LOG1 POP JUMP JUMPDEST PUSH1 0x1 SLOAD PUSH1 0x1 PUSH1 0x1 PUSH1 0xA0 SHL SUB AND CALLER EQ PUSH2 0xFA6 JUMPI PUSH1 0x40 MLOAD PUSH3 0x461BCD PUSH1 0xE5 SHL DUP2 MSTORE PUSH1 0x4 ADD PUSH2 0x52B SWAP1 PUSH2 0x281F JUMP JUMPDEST PUSH1 0x2 SLOAD PUSH1 0x40 MLOAD PUSH4 0x70A08231 PUSH1 0xE0 SHL DUP2 MSTORE ADDRESS PUSH1 0x4 DUP3 ADD MSTORE PUSH1 0x0 SWAP2 PUSH1 0x1 PUSH1 0x1 PUSH1 0xA0 SHL SUB AND SWAP1 PUSH4 0x70A08231 SWAP1 PUSH1 0x24 ADD PUSH1 0x20 PUSH1 0x40 MLOAD DUP1 DUP4 SUB DUP2 DUP7 GAS STATICCALL ISZERO DUP1 ISZERO PUSH2 0xFEF JUMPI RETURNDATASIZE PUSH1 0x0 DUP1 RETURNDATACOPY RETURNDATASIZE PUSH1 0x0 REVERT JUMPDEST POP POP POP POP PUSH1 0x40 MLOAD RETURNDATASIZE PUSH1 0x1F NOT PUSH1 0x1F DUP3 ADD AND DUP3 ADD DUP1 PUSH1 0x40 MSTORE POP DUP2 ADD SWAP1 PUSH2 0x1013 SWAP2 SWAP1 PUSH2 0x2898 JUMP JUMPDEST PUSH1 0x2 SLOAD PUSH1 0x40 MLOAD PUSH4 0xA9059CBB PUSH1 0xE0 SHL DUP2 MSTORE CALLER PUSH1 0x4 DUP3 ADD MSTORE PUSH1 0x24 DUP2 ADD DUP4 SWAP1 MSTORE SWAP2 SWAP3 POP PUSH1 0x1 PUSH1 0x1 PUSH1 0xA0 SHL SUB AND SWAP1 PUSH4 0xA9059CBB SWAP1 PUSH1 0x44 ADD PUSH1 0x20 PUSH1 0x40 MLOAD DUP1 DUP4 SUB DUP2 PUSH1 0x0 DUP8 GAS CALL ISZERO DUP1 ISZERO PUSH2 0x1065 JUMPI RETURNDATASIZE PUSH1 0x0 DUP1 RETURNDATACOPY RETURNDATASIZE PUSH1 0x0 REVERT JUMPDEST POP POP POP POP PUSH1 0x40 MLOAD RETURNDATASIZE PUSH1 0x1F NOT PUSH1 0x1F DUP3 ADD AND DUP3 ADD DUP1 PUSH1 0x40 MSTORE POP DUP2 ADD SWAP1 PUSH2 0x1089 SWAP2 SWAP1 PUSH2 0x28B1 JUMP JUMPDEST PUSH2 0x10A5 JUMPI PUSH1 0x40 MLOAD PUSH3 0x461BCD PUSH1 0xE5 SHL DUP2 MSTORE PUSH1 0x4 ADD PUSH2 0x52B SWAP1 PUSH2 0x28D3 JUMP JUMPDEST PUSH1 0x40 MLOAD DUP2 DUP2 MSTORE CALLER SWAP1 PUSH32 0xD52E6A96125965761D3461FF1F2C72DF610AB6BC2584AC9F076B45B585F049F SWAP1 PUSH1 0x20 ADD PUSH1 0x40 MLOAD DUP1 SWAP2 SUB SWAP1 LOG2 POP JUMP JUMPDEST PUSH1 0x40 DUP1 MLOAD PUSH1 0x20 DUP1 DUP3 ADD DUP4 MSTORE PUSH8 0xDDE3A0E340C4000 DUP1 DUP4 MSTORE DUP4 MLOAD SWAP2 DUP3 ADD SWAP1 SWAP4 MSTORE PUSH9 0x3635C9ADC5DEA00000 DUP1 DUP3 MSTORE PUSH1 0x0 SWAP4 SWAP3 SWAP1 SWAP2 PUSH2 0x1119 DUP3 DUP3 PUSH2 0x17E6 JUMP JUMPDEST MLOAD SWAP6 SWAP5 POP POP POP POP POP JUMP JUMPDEST PUSH1 0x1 SLOAD PUSH1 0x1 PUSH1 0x1 PUSH1 0xA0 SHL SUB AND CALLER EQ PUSH2 0x114D JUMPI PUSH1 0x40 MLOAD PUSH3 0x461BCD PUSH1 0xE5 SHL DUP2 MSTORE PUSH1 0x4 ADD PUSH2 0x52B SWAP1 PUSH2 0x281F JUMP JUMPDEST PUSH1 0x1 PUSH1 0x1 PUSH1 0xA0 SHL SUB DUP2 AND ISZERO DUP1 ISZERO SWAP1 PUSH2 0x1173 JUMPI POP PUSH1 0xC SLOAD PUSH1 0x1 PUSH1 0x1 PUSH1 0xA0 SHL SUB DUP3 DUP2 AND SWAP2 AND EQ ISZERO JUMPDEST PUSH2 0x11BA JUMPI PUSH1 0x40 MLOAD PUSH3 0x461BCD PUSH1 0xE5 SHL DUP2 MSTORE PUSH1 0x20 PUSH1 0x4 DUP3 ADD MSTORE PUSH1 0x18 PUSH1 0x24 DUP3 ADD MSTORE PUSH24 0x496E76616C6964206F70657261746F722061646472657373 PUSH1 0x40 SHL PUSH1 0x44 DUP3 ADD MSTORE PUSH1 0x64 ADD PUSH2 0x52B JUMP JUMPDEST PUSH1 0xC DUP1 SLOAD PUSH1 0x1 PUSH1 0x1 PUSH1 0xA0 SHL SUB NOT AND PUSH1 0x1 PUSH1 0x1 PUSH1 0xA0 SHL SUB DUP4 AND SWAP1 DUP2 OR SWAP1 SWAP2 SSTORE PUSH1 0x40 MLOAD SWAP1 DUP2 MSTORE PUSH32 0xA6996D36756222F1028B4A1A97CBFA625158CF8E69AC5DCF367DE3BD730D34A4 SWAP1 PUSH1 0x20 ADD PUSH2 0xF71 JUMP JUMPDEST PUSH1 0x0 DUP1 DUP3 GT DUP1 ISZERO PUSH2 0x121B JUMPI POP PUSH1 0x4 SLOAD DUP3 GT ISZERO JUMPDEST PUSH2 0x1237 JUMPI PUSH1 0x40 MLOAD PUSH3 0x461BCD PUSH1 0xE5 SHL DUP2 MSTORE PUSH1 0x4 ADD PUSH2 0x52B SWAP1 PUSH2 0x27B1 JUMP JUMPDEST PUSH1 0x0 PUSH2 0x124C PUSH1 0xA SLOAD PUSH1 0x1 DUP6 PUSH2 0x55D SWAP2 SWAP1 PUSH2 0x277B JUMP JUMPDEST PUSH1 0x0 DUP5 DUP2 MSTORE PUSH1 0xD PUSH1 0x20 SWAP1 DUP2 MSTORE PUSH1 0x40 DUP1 DUP4 KECCAK256 DUP2 MLOAD PUSH1 0x60 DUP2 ADD DUP4 MSTORE DUP2 SLOAD PUSH5 0xFFFFFFFFFF DUP2 AND DUP3 MSTORE PUSH1 0x1 PUSH1 0x28 SHL DUP2 DIV PUSH2 0xFFFF AND SWAP5 DUP3 ADD SWAP5 SWAP1 SWAP5 MSTORE SWAP5 SWAP6 POP SWAP3 SWAP4 SWAP3 SWAP2 SWAP1 DUP4 ADD SWAP1 PUSH1 0x1 PUSH1 0x38 SHL SWAP1 DIV PUSH1 0xFF AND PUSH1 0x3 DUP2 GT ISZERO PUSH2 0x12A9 JUMPI PUSH2 0x12A9 PUSH2 0x267C JUMP JUMPDEST PUSH1 0x3 DUP2 GT ISZERO PUSH2 0x12BA JUMPI PUSH2 0x12BA PUSH2 0x267C JUMP JUMPDEST SWAP1 MSTORE POP DUP1 MLOAD SWAP1 SWAP2 POP PUSH1 0x0 SWAP1 PUSH5 0xFFFFFFFFFF AND ISZERO PUSH2 0x12DF JUMPI DUP2 MLOAD PUSH5 0xFFFFFFFFFF AND PUSH2 0x12E3 JUMP JUMPDEST PUSH1 0x5 SLOAD JUMPDEST SWAP1 POP PUSH8 0xDE0B6B3A7640000 PUSH2 0x12F8 DUP3 TIMESTAMP PUSH2 0x277B JUMP JUMPDEST PUSH2 0x1302 SWAP1 DUP6 PUSH2 0x2792 JUMP JUMPDEST PUSH2 0x621 SWAP2 SWAP1 PUSH2 0x291F JUMP JUMPDEST PUSH1 0x1 SLOAD PUSH1 0x1 PUSH1 0x1 PUSH1 0xA0 SHL SUB AND CALLER EQ PUSH2 0x1336 JUMPI PUSH1 0x40 MLOAD PUSH3 0x461BCD PUSH1 0xE5 SHL DUP2 MSTORE PUSH1 0x4 ADD PUSH2 0x52B SWAP1 PUSH2 0x281F JUMP JUMPDEST PUSH1 0x1 PUSH1 0x1 PUSH1 0xA0 SHL SUB DUP2 AND PUSH2 0x139B JUMPI PUSH1 0x40 MLOAD PUSH3 0x461BCD PUSH1 0xE5 SHL DUP2 MSTORE PUSH1 0x20 PUSH1 0x4 DUP3 ADD MSTORE PUSH1 0x26 PUSH1 0x24 DUP3 ADD MSTORE PUSH32 0x4F776E61626C653A206E6577206F776E657220697320746865207A65726F2061 PUSH1 0x44 DUP3 ADD MSTORE PUSH6 0x646472657373 PUSH1 0xD0 SHL PUSH1 0x64 DUP3 ADD MSTORE PUSH1 0x84 ADD PUSH2 0x52B JUMP JUMPDEST PUSH2 0x13A4 DUP2 PUSH2 0x161B JUMP JUMPDEST POP JUMP JUMPDEST PUSH1 0x0 PUSH8 0xDE0B6B3A7640000 PUSH2 0x13BA PUSH2 0x1849 JUMP JUMPDEST PUSH1 0x7 SLOAD PUSH2 0x13C7 SWAP1 TIMESTAMP PUSH2 0x277B JUMP JUMPDEST PUSH2 0x13D1 SWAP2 SWAP1 PUSH2 0x2792 JUMP JUMPDEST PUSH2 0x13DB SWAP2 SWAP1 PUSH2 0x291F JUMP JUMPDEST PUSH1 0x6 SLOAD PUSH2 0x13E8 SWAP2 SWAP1 PUSH2 0x2763 JUMP JUMPDEST SWAP1 POP SWAP1 JUMP JUMPDEST PUSH1 0x40 DUP1 MLOAD PUSH1 0x20 DUP1 DUP3 ADD DUP4 MSTORE DUP5 DUP3 MSTORE DUP3 MLOAD SWAP1 DUP2 ADD SWAP1 SWAP3 MSTORE DUP3 DUP3 MSTORE PUSH1 0x0 SWAP2 PUSH2 0x1119 DUP3 DUP3 PUSH2 0x17E6 JUMP JUMPDEST PUSH1 0x0 PUSH2 0x141E DUP4 PUSH2 0x166D JUMP JUMPDEST SWAP1 POP PUSH1 0x0 PUSH2 0x142B DUP5 PUSH2 0x1208 JUMP JUMPDEST PUSH1 0x2 SLOAD PUSH1 0x40 MLOAD PUSH4 0x70A08231 PUSH1 0xE0 SHL DUP2 MSTORE ADDRESS PUSH1 0x4 DUP3 ADD MSTORE SWAP2 SWAP3 POP DUP4 SWAP2 PUSH1 0x1 PUSH1 0x1 PUSH1 0xA0 SHL SUB SWAP1 SWAP2 AND SWAP1 PUSH4 0x70A08231 SWAP1 PUSH1 0x24 ADD PUSH1 0x20 PUSH1 0x40 MLOAD DUP1 DUP4 SUB DUP2 DUP7 GAS STATICCALL ISZERO DUP1 ISZERO PUSH2 0x1478 JUMPI RETURNDATASIZE PUSH1 0x0 DUP1 RETURNDATACOPY RETURNDATASIZE PUSH1 0x0 REVERT JUMPDEST POP POP POP POP PUSH1 0x40 MLOAD RETURNDATASIZE PUSH1 0x1F NOT PUSH1 0x1F DUP3 ADD AND DUP3 ADD DUP1 PUSH1 0x40 MSTORE POP DUP2 ADD SWAP1 PUSH2 0x149C SWAP2 SWAP1 PUSH2 0x2898 JUMP JUMPDEST LT ISZERO PUSH2 0x14F5 JUMPI PUSH1 0x40 MLOAD PUSH3 0x461BCD PUSH1 0xE5 SHL DUP2 MSTORE PUSH1 0x20 PUSH1 0x4 DUP3 ADD MSTORE PUSH1 0x22 PUSH1 0x24 DUP3 ADD MSTORE PUSH32 0x4E6F7420656E6F7567682062616C616E636520696E2074686520636F6E747261 PUSH1 0x44 DUP3 ADD MSTORE PUSH2 0x18DD PUSH1 0xF2 SHL PUSH1 0x64 DUP3 ADD MSTORE PUSH1 0x84 ADD PUSH2 0x52B JUMP JUMPDEST PUSH1 0x0 DUP5 DUP2 MSTORE PUSH1 0xD PUSH1 0x20 MSTORE PUSH1 0x40 SWAP1 DUP2 SWAP1 KECCAK256 DUP1 SLOAD PUSH5 0xFFFFFFFFFF NOT AND TIMESTAMP PUSH5 0xFFFFFFFFFF AND OR SWAP1 SSTORE PUSH1 0x2 SLOAD SWAP1 MLOAD PUSH4 0xA9059CBB PUSH1 0xE0 SHL DUP2 MSTORE PUSH1 0x1 PUSH1 0x1 PUSH1 0xA0 SHL SUB DUP6 DUP2 AND PUSH1 0x4 DUP4 ADD MSTORE PUSH1 0x24 DUP3 ADD DUP6 SWAP1 MSTORE SWAP1 SWAP2 AND SWAP1 PUSH4 0xA9059CBB SWAP1 PUSH1 0x44 ADD PUSH1 0x20 PUSH1 0x40 MLOAD DUP1 DUP4 SUB DUP2 PUSH1 0x0 DUP8 GAS CALL ISZERO DUP1 ISZERO PUSH2 0x156C JUMPI RETURNDATASIZE PUSH1 0x0 DUP1 RETURNDATACOPY RETURNDATASIZE PUSH1 0x0 REVERT JUMPDEST POP POP POP POP PUSH1 0x40 MLOAD RETURNDATASIZE PUSH1 0x1F NOT PUSH1 0x1F DUP3 ADD AND DUP3 ADD DUP1 PUSH1 0x40 MSTORE POP DUP2 ADD SWAP1 PUSH2 0x1590 SWAP2 SWAP1 PUSH2 0x28B1 JUMP JUMPDEST PUSH2 0x15AC JUMPI PUSH1 0x40 MLOAD PUSH3 0x461BCD PUSH1 0xE5 SHL DUP2 MSTORE PUSH1 0x4 ADD PUSH2 0x52B SWAP1 PUSH2 0x28D3 JUMP JUMPDEST PUSH2 0x15B5 DUP2 PUSH2 0x15FE JUMP JUMPDEST DUP3 PUSH1 0x1 PUSH1 0x1 PUSH1 0xA0 SHL SUB AND PUSH32 0x884EDAD9CE6FA2440D8A54CC123490EB96D2768479D49FF9C7366125A9424364 DUP4 PUSH1 0x40 MLOAD PUSH2 0x15F0 SWAP2 DUP2 MSTORE PUSH1 0x20 ADD SWAP1 JUMP JUMPDEST PUSH1 0x40 MLOAD DUP1 SWAP2 SUB SWAP1 LOG2 POP POP POP POP JUMP JUMPDEST DUP1 PUSH2 0x1607 PUSH2 0x13A7 JUMP JUMPDEST PUSH2 0x1611 SWAP2 SWAP1 PUSH2 0x277B JUMP JUMPDEST PUSH1 0x6 SSTORE POP TIMESTAMP PUSH1 0x7 SSTORE JUMP JUMPDEST PUSH1 0x1 DUP1 SLOAD PUSH1 0x1 PUSH1 0x1 PUSH1 0xA0 SHL SUB DUP4 DUP2 AND PUSH1 0x1 PUSH1 0x1 PUSH1 0xA0 SHL SUB NOT DUP4 AND DUP2 OR SWAP1 SWAP4 SSTORE PUSH1 0x40 MLOAD SWAP2 AND SWAP2 SWAP1 DUP3 SWAP1 PUSH32 0x8BE0079C531659141344CD1FD0A4F28419497F9722A3DAAFE3B4186F6B6457E0 SWAP1 PUSH1 0x0 SWAP1 LOG3 POP POP JUMP JUMPDEST PUSH1 0x0 DUP1 PUSH1 0x4 SLOAD GT PUSH2 0x16B3 JUMPI PUSH1 0x40 MLOAD PUSH3 0x461BCD PUSH1 0xE5 SHL DUP2 MSTORE PUSH1 0x20 PUSH1 0x4 DUP3 ADD MSTORE PUSH1 0x10 PUSH1 0x24 DUP3 ADD MSTORE PUSH16 0x6E6F2061637469766520666C6F6F7273 PUSH1 0x80 SHL PUSH1 0x44 DUP3 ADD MSTORE PUSH1 0x64 ADD PUSH2 0x52B JUMP JUMPDEST PUSH1 0x4 SLOAD DUP3 GT ISZERO DUP1 ISZERO PUSH2 0x16C4 JUMPI POP DUP2 ISZERO ISZERO JUMPDEST PUSH2 0x16E0 JUMPI PUSH1 0x40 MLOAD PUSH3 0x461BCD PUSH1 0xE5 SHL DUP2 MSTORE PUSH1 0x4 ADD PUSH2 0x52B SWAP1 PUSH2 0x27B1 JUMP JUMPDEST PUSH1 0x0 DUP3 DUP2 MSTORE PUSH1 0xD PUSH1 0x20 SWAP1 DUP2 MSTORE PUSH1 0x40 DUP1 DUP4 KECCAK256 DUP2 MLOAD PUSH1 0x60 DUP2 ADD DUP4 MSTORE DUP2 SLOAD PUSH5 0xFFFFFFFFFF DUP2 AND DUP3 MSTORE PUSH1 0x1 PUSH1 0x28 SHL DUP2 DIV PUSH2 0xFFFF AND SWAP5 DUP3 ADD SWAP5 SWAP1 SWAP5 MSTORE SWAP3 SWAP1 SWAP2 DUP4 ADD SWAP1 PUSH1 0x1 PUSH1 0x38 SHL SWAP1 DIV PUSH1 0xFF AND PUSH1 0x3 DUP2 GT ISZERO PUSH2 0x1738 JUMPI PUSH2 0x1738 PUSH2 0x267C JUMP JUMPDEST PUSH1 0x3 DUP2 GT ISZERO PUSH2 0x1749 JUMPI PUSH2 0x1749 PUSH2 0x267C JUMP JUMPDEST SWAP1 MSTORE POP SWAP1 POP PUSH2 0x1756 PUSH2 0x13A7 JUMP JUMPDEST PUSH1 0x2 SLOAD PUSH1 0x40 MLOAD PUSH4 0x70A08231 PUSH1 0xE0 SHL DUP2 MSTORE ADDRESS PUSH1 0x4 DUP3 ADD MSTORE PUSH1 0x1 PUSH1 0x1 PUSH1 0xA0 SHL SUB SWAP1 SWAP2 AND SWAP1 PUSH4 0x70A08231 SWAP1 PUSH1 0x24 ADD PUSH1 0x20 PUSH1 0x40 MLOAD DUP1 DUP4 SUB DUP2 DUP7 GAS STATICCALL ISZERO DUP1 ISZERO PUSH2 0x179E JUMPI RETURNDATASIZE PUSH1 0x0 DUP1 RETURNDATACOPY RETURNDATASIZE PUSH1 0x0 REVERT JUMPDEST POP POP POP POP PUSH1 0x40 MLOAD RETURNDATASIZE PUSH1 0x1F NOT PUSH1 0x1F DUP3 ADD AND DUP3 ADD DUP1 PUSH1 0x40 MSTORE POP DUP2 ADD SWAP1 PUSH2 0x17C2 SWAP2 SWAP1 PUSH2 0x2898 JUMP JUMPDEST PUSH2 0x17CB DUP6 PUSH2 0x1208 JUMP JUMPDEST PUSH2 0x17D5 SWAP2 SWAP1 PUSH2 0x2792 JUMP JUMPDEST PUSH2 0x17DF SWAP2 SWAP1 PUSH2 0x291F JUMP JUMPDEST SWAP4 SWAP3 POP POP POP JUMP JUMPDEST PUSH1 0x40 DUP1 MLOAD PUSH1 0x20 DUP2 ADD SWAP1 SWAP2 MSTORE PUSH1 0x0 DUP2 MSTORE DUP3 MLOAD PUSH1 0x0 SUB PUSH2 0x182F JUMPI PUSH1 0x40 MLOAD DUP1 PUSH1 0x20 ADD PUSH1 0x40 MSTORE DUP1 DUP4 PUSH1 0x0 ADD MLOAD PUSH1 0x0 EQ PUSH2 0x181C JUMPI PUSH1 0x0 PUSH2 0x1826 JUMP JUMPDEST PUSH8 0xDE0B6B3A7640000 JUMPDEST SWAP1 MSTORE SWAP1 POP PUSH2 0xD41 JUMP JUMPDEST PUSH2 0x17DF PUSH2 0x1844 PUSH2 0x183E DUP6 PUSH2 0x18CD JUMP JUMPDEST DUP5 PUSH2 0x19DC JUMP JUMPDEST PUSH2 0x1AC4 JUMP JUMPDEST PUSH1 0x0 DUP1 PUSH1 0x40 MLOAD DUP1 PUSH1 0x20 ADD PUSH1 0x40 MSTORE DUP1 PUSH1 0xA SLOAD DUP2 MSTORE POP SWAP1 POP PUSH1 0x0 PUSH1 0x40 MLOAD DUP1 PUSH1 0x20 ADD PUSH1 0x40 MSTORE DUP1 PUSH1 0x4 SLOAD PUSH8 0xDE0B6B3A7640000 PUSH2 0x1882 SWAP2 SWAP1 PUSH2 0x2792 JUMP JUMPDEST SWAP1 MSTORE PUSH1 0x40 DUP1 MLOAD PUSH1 0x20 DUP2 ADD SWAP1 SWAP2 MSTORE PUSH8 0xDE0B6B3A7640000 DUP2 MSTORE SWAP1 SWAP2 POP PUSH2 0x18C4 PUSH2 0x18AA DUP3 DUP6 PUSH2 0x1BB9 JUMP JUMPDEST PUSH2 0x18BE PUSH2 0x18B7 DUP7 DUP7 PUSH2 0x17E6 JUMP JUMPDEST DUP5 SWAP1 PUSH2 0x1BB9 JUMP JUMPDEST SWAP1 PUSH2 0x1BEB JUMP JUMPDEST MLOAD SWAP5 SWAP4 POP POP POP POP JUMP JUMPDEST PUSH1 0x40 DUP1 MLOAD PUSH1 0x20 DUP2 ADD SWAP1 SWAP2 MSTORE PUSH1 0x0 DUP2 MSTORE DUP2 MLOAD PUSH1 0x0 DUP2 SGT PUSH2 0x1902 JUMPI PUSH1 0x40 MLOAD PUSH4 0x309FA7DD PUSH1 0xE1 SHL DUP2 MSTORE PUSH1 0x4 DUP2 ADD DUP3 SWAP1 MSTORE PUSH1 0x24 ADD PUSH2 0x52B JUMP JUMPDEST PUSH1 0x0 PUSH8 0xDE0B6B3A7640000 DUP3 SLT PUSH2 0x191B JUMPI POP PUSH1 0x1 PUSH2 0x1931 JUMP JUMPDEST POP PUSH15 0xC097CE7BC90715B34B9F1000000000 DIV PUSH1 0x0 NOT JUMPDEST PUSH1 0x0 PUSH2 0x1946 PUSH8 0xDE0B6B3A7640000 DUP5 SDIV PUSH2 0x1CD0 JUMP JUMPDEST SWAP1 POP PUSH8 0xDE0B6B3A7640000 DUP2 MUL DUP4 DUP3 SAR PUSH8 0xDE0B6B3A763FFFF NOT DUP2 ADD PUSH2 0x197E JUMPI POP PUSH1 0x40 DUP1 MLOAD PUSH1 0x20 DUP2 ADD SWAP1 SWAP2 MSTORE SWAP3 MUL DUP3 MSTORE POP SWAP4 SWAP3 POP POP POP JUMP JUMPDEST PUSH8 0x6F05B59D3B20000 JUMPDEST PUSH1 0x0 DUP2 SGT ISZERO PUSH2 0x19C3 JUMPI PUSH8 0xDE0B6B3A7640000 DUP3 DUP1 MUL SDIV SWAP2 POP PUSH8 0x1BC16D674EC80000 DUP3 SLT PUSH2 0x19BB JUMPI SWAP2 DUP3 ADD SWAP2 PUSH1 0x1 SWAP2 SWAP1 SWAP2 SAR SWAP1 JUMPDEST PUSH1 0x1 SAR PUSH2 0x1988 JUMP JUMPDEST POP POP PUSH1 0x40 DUP1 MLOAD PUSH1 0x20 DUP2 ADD SWAP1 SWAP2 MSTORE SWAP3 MUL DUP3 MSTORE POP SWAP4 SWAP3 POP POP POP JUMP JUMPDEST PUSH1 0x40 DUP1 MLOAD PUSH1 0x20 DUP2 ADD SWAP1 SWAP2 MSTORE PUSH1 0x0 DUP2 MSTORE DUP3 MLOAD DUP3 MLOAD PUSH1 0x1 PUSH1 0xFF SHL DUP3 EQ DUP1 PUSH2 0x1A04 JUMPI POP PUSH1 0x1 PUSH1 0xFF SHL DUP2 EQ JUMPDEST ISZERO PUSH2 0x1A22 JUMPI PUSH1 0x40 MLOAD PUSH4 0xD01A11B PUSH1 0xE2 SHL DUP2 MSTORE PUSH1 0x4 ADD PUSH1 0x40 MLOAD DUP1 SWAP2 SUB SWAP1 REVERT JUMPDEST PUSH1 0x0 DUP1 PUSH1 0x0 DUP5 SLT PUSH2 0x1A33 JUMPI DUP4 PUSH2 0x1A38 JUMP JUMPDEST DUP4 PUSH1 0x0 SUB JUMPDEST SWAP2 POP PUSH1 0x0 DUP4 SLT PUSH2 0x1A48 JUMPI DUP3 PUSH2 0x1A4D JUMP JUMPDEST DUP3 PUSH1 0x0 SUB JUMPDEST SWAP1 POP PUSH1 0x0 PUSH2 0x1A5B DUP4 DUP4 PUSH2 0x1DB9 JUMP JUMPDEST SWAP1 POP PUSH1 0x1 PUSH1 0x1 PUSH1 0xFF SHL SUB DUP2 GT ISZERO PUSH2 0x1A88 JUMPI PUSH1 0x40 MLOAD PUSH4 0xBF79E8D9 PUSH1 0xE0 SHL DUP2 MSTORE PUSH1 0x4 DUP2 ADD DUP3 SWAP1 MSTORE PUSH1 0x24 ADD PUSH2 0x52B JUMP JUMPDEST PUSH1 0x40 DUP1 MLOAD PUSH1 0x20 DUP2 ADD SWAP1 SWAP2 MSTORE PUSH1 0x0 NOT DUP1 DUP8 SGT SWAP2 SWAP1 DUP7 SGT SWAP1 DUP1 DUP3 DUP5 XOR PUSH1 0x1 EQ PUSH2 0x1AAF JUMPI DUP5 PUSH2 0x1AB4 JUMP JUMPDEST DUP5 PUSH1 0x0 SUB JUMPDEST SWAP1 MSTORE SWAP11 SWAP10 POP POP POP POP POP POP POP POP POP POP JUMP JUMPDEST PUSH1 0x40 DUP1 MLOAD PUSH1 0x20 DUP2 ADD SWAP1 SWAP2 MSTORE PUSH1 0x0 DUP2 MSTORE DUP2 MLOAD PUSH1 0x0 DUP2 SLT ISZERO PUSH2 0x1B5A JUMPI PUSH9 0x33DD1780914B97114 NOT DUP2 SLT ISZERO PUSH2 0x1B06 JUMPI POP POP PUSH1 0x40 DUP1 MLOAD PUSH1 0x20 DUP2 ADD SWAP1 SWAP2 MSTORE PUSH1 0x0 DUP2 MSTORE SWAP2 SWAP1 POP JUMP JUMPDEST PUSH1 0x0 PUSH1 0x40 MLOAD DUP1 PUSH1 0x20 ADD PUSH1 0x40 MSTORE DUP1 DUP4 PUSH1 0x0 SUB DUP2 MSTORE POP SWAP1 POP PUSH1 0x40 MLOAD DUP1 PUSH1 0x20 ADD PUSH1 0x40 MSTORE DUP1 PUSH2 0x1B30 DUP4 PUSH2 0x1AC4 JUMP JUMPDEST MLOAD PUSH15 0xC097CE7BC90715B34B9F1000000000 DUP2 PUSH2 0x1B4E JUMPI PUSH2 0x1B4E PUSH2 0x27F5 JUMP JUMPDEST SDIV DUP2 MSTORE POP SWAP3 POP POP PUSH2 0x1BB3 JUMP JUMPDEST PUSH9 0xA688906BD8B000000 DUP2 SLT PUSH2 0x1B86 JUMPI PUSH1 0x40 MLOAD PUSH4 0xE69458F9 PUSH1 0xE0 SHL DUP2 MSTORE PUSH1 0x4 DUP2 ADD DUP3 SWAP1 MSTORE PUSH1 0x24 ADD PUSH2 0x52B JUMP JUMPDEST PUSH1 0x0 PUSH8 0xDE0B6B3A7640000 PUSH1 0x40 DUP4 SWAP1 SHL DIV SWAP1 POP PUSH1 0x40 MLOAD DUP1 PUSH1 0x20 ADD PUSH1 0x40 MSTORE DUP1 PUSH2 0x1BAD DUP4 PUSH2 0x1E7F JUMP JUMPDEST SWAP1 MSTORE SWAP3 POP POP JUMPDEST POP SWAP2 SWAP1 POP JUMP JUMPDEST PUSH1 0x40 DUP1 MLOAD PUSH1 0x20 DUP2 ADD SWAP1 SWAP2 MSTORE PUSH1 0x0 DUP2 MSTORE PUSH1 0x40 DUP1 MLOAD PUSH1 0x20 DUP2 ADD SWAP1 SWAP2 MSTORE DUP3 MLOAD DUP5 MLOAD DUP3 SWAP2 PUSH2 0x1BE2 SWAP2 PUSH2 0x2933 JUMP JUMPDEST SWAP1 MSTORE SWAP4 SWAP3 POP POP POP JUMP JUMPDEST PUSH1 0x40 DUP1 MLOAD PUSH1 0x20 DUP2 ADD SWAP1 SWAP2 MSTORE PUSH1 0x0 DUP2 MSTORE DUP3 MLOAD DUP3 MLOAD PUSH1 0x1 PUSH1 0xFF SHL DUP3 EQ DUP1 PUSH2 0x1C13 JUMPI POP PUSH1 0x1 PUSH1 0xFF SHL DUP2 EQ JUMPDEST ISZERO PUSH2 0x1C31 JUMPI PUSH1 0x40 MLOAD PUSH4 0xB3C754A3 PUSH1 0xE0 SHL DUP2 MSTORE PUSH1 0x4 ADD PUSH1 0x40 MLOAD DUP1 SWAP2 SUB SWAP1 REVERT JUMPDEST PUSH1 0x0 DUP1 PUSH1 0x0 DUP5 SLT PUSH2 0x1C42 JUMPI DUP4 PUSH2 0x1C47 JUMP JUMPDEST DUP4 PUSH1 0x0 SUB JUMPDEST SWAP2 POP PUSH1 0x0 DUP4 SLT PUSH2 0x1C57 JUMPI DUP3 PUSH2 0x1C5C JUMP JUMPDEST DUP3 PUSH1 0x0 SUB JUMPDEST SWAP1 POP PUSH1 0x0 PUSH2 0x1C73 DUP4 PUSH8 0xDE0B6B3A7640000 DUP5 PUSH2 0x2575 JUMP JUMPDEST SWAP1 POP PUSH1 0x1 PUSH1 0x1 PUSH1 0xFF SHL SUB DUP2 GT ISZERO PUSH2 0x1CA0 JUMPI PUSH1 0x40 MLOAD PUSH4 0x7CB4BEF5 PUSH1 0xE0 SHL DUP2 MSTORE PUSH1 0x4 DUP2 ADD DUP3 SWAP1 MSTORE PUSH1 0x24 ADD PUSH2 0x52B JUMP JUMPDEST PUSH1 0x40 DUP1 MLOAD PUSH1 0x20 DUP2 ADD SWAP1 SWAP2 MSTORE PUSH1 0x0 NOT DUP1 DUP8 SGT SWAP2 SWAP1 DUP7 SGT SWAP1 DUP1 DUP3 DUP5 XOR PUSH1 0x1 EQ PUSH2 0x1CC7 JUMPI DUP5 PUSH2 0x1AB4 JUMP JUMPDEST PUSH2 0x1AB4 DUP6 PUSH2 0x2972 JUMP JUMPDEST PUSH1 0x0 PUSH1 0x1 PUSH1 0x80 SHL DUP3 LT PUSH2 0x1CF0 JUMPI PUSH1 0x80 SWAP2 DUP3 SHR SWAP2 PUSH2 0x1CED SWAP1 DUP3 PUSH2 0x2763 JUMP JUMPDEST SWAP1 POP JUMPDEST PUSH9 0x10000000000000000 DUP3 LT PUSH2 0x1D13 JUMPI PUSH1 0x40 SWAP2 DUP3 SHR SWAP2 PUSH2 0x1D10 SWAP1 DUP3 PUSH2 0x2763 JUMP JUMPDEST SWAP1 POP JUMPDEST PUSH5 0x100000000 DUP3 LT PUSH2 0x1D32 JUMPI PUSH1 0x20 SWAP2 DUP3 SHR SWAP2 PUSH2 0x1D2F SWAP1 DUP3 PUSH2 0x2763 JUMP JUMPDEST SWAP1 POP JUMPDEST PUSH3 0x10000 DUP3 LT PUSH2 0x1D4F JUMPI PUSH1 0x10 SWAP2 DUP3 SHR SWAP2 PUSH2 0x1D4C SWAP1 DUP3 PUSH2 0x2763 JUMP JUMPDEST SWAP1 POP JUMPDEST PUSH2 0x100 DUP3 LT PUSH2 0x1D6B JUMPI PUSH1 0x8 SWAP2 DUP3 SHR SWAP2 PUSH2 0x1D68 SWAP1 DUP3 PUSH2 0x2763 JUMP JUMPDEST SWAP1 POP JUMPDEST PUSH1 0x10 DUP3 LT PUSH2 0x1D86 JUMPI PUSH1 0x4 SWAP2 DUP3 SHR SWAP2 PUSH2 0x1D83 SWAP1 DUP3 PUSH2 0x2763 JUMP JUMPDEST SWAP1 POP JUMPDEST PUSH1 0x4 DUP3 LT PUSH2 0x1DA1 JUMPI PUSH1 0x2 SWAP2 DUP3 SHR SWAP2 PUSH2 0x1D9E SWAP1 DUP3 PUSH2 0x2763 JUMP JUMPDEST SWAP1 POP JUMPDEST PUSH1 0x2 DUP3 LT PUSH2 0x1DB4 JUMPI PUSH2 0xD41 PUSH1 0x1 DUP3 PUSH2 0x2763 JUMP JUMPDEST SWAP2 SWAP1 POP JUMP JUMPDEST PUSH1 0x0 DUP1 DUP1 PUSH1 0x0 NOT DUP5 DUP7 MULMOD DUP5 DUP7 MUL SWAP3 POP DUP3 DUP2 LT DUP4 DUP3 SUB SUB SWAP2 POP POP PUSH8 0xDE0B6B3A7640000 DUP2 LT PUSH2 0x1DFD JUMPI PUSH1 0x40 MLOAD PUSH4 0x698D9A01 PUSH1 0xE1 SHL DUP2 MSTORE PUSH1 0x4 DUP2 ADD DUP3 SWAP1 MSTORE PUSH1 0x24 ADD PUSH2 0x52B JUMP JUMPDEST PUSH1 0x0 DUP1 PUSH8 0xDE0B6B3A7640000 DUP7 DUP9 MULMOD SWAP2 POP PUSH8 0x6F05B59D3B1FFFF DUP3 GT SWAP1 POP DUP3 PUSH1 0x0 SUB PUSH2 0x1E3B JUMPI DUP1 PUSH8 0xDE0B6B3A7640000 DUP6 DIV ADD SWAP5 POP POP POP POP POP PUSH2 0xD41 JUMP JUMPDEST PUSH3 0x40000 DUP3 DUP6 SUB DIV SWAP4 SWAP1 SWAP2 GT SWAP1 SWAP2 SUB PUSH1 0x1 PUSH1 0xEE SHL MUL SWAP2 SWAP1 SWAP2 OR PUSH32 0xACCB18165BD6FE31AE1CF318DC5B51EEE0E1BA569B88CD74C1773B91FAC10669 MUL ADD SWAP1 POP SWAP3 SWAP2 POP POP JUMP JUMPDEST PUSH1 0x1 PUSH1 0xBF SHL PUSH8 0x8000000000000000 DUP3 AND ISZERO PUSH2 0x1EA3 JUMPI PUSH9 0x16A09E667F3BCC909 MUL PUSH1 0x40 SHR JUMPDEST PUSH8 0x4000000000000000 DUP3 AND ISZERO PUSH2 0x1EC2 JUMPI PUSH9 0x1306FE0A31B7152DF MUL PUSH1 0x40 SHR JUMPDEST PUSH8 0x2000000000000000 DUP3 AND ISZERO PUSH2 0x1EE1 JUMPI PUSH9 0x1172B83C7D517ADCE MUL PUSH1 0x40 SHR JUMPDEST PUSH8 0x1000000000000000 DUP3 AND ISZERO PUSH2 0x1F00 JUMPI PUSH9 0x10B5586CF9890F62A MUL PUSH1 0x40 SHR JUMPDEST PUSH8 0x800000000000000 DUP3 AND ISZERO PUSH2 0x1F1F JUMPI PUSH9 0x1059B0D31585743AE MUL PUSH1 0x40 SHR JUMPDEST PUSH8 0x400000000000000 DUP3 AND ISZERO PUSH2 0x1F3E JUMPI PUSH9 0x102C9A3E778060EE7 MUL PUSH1 0x40 SHR JUMPDEST PUSH8 0x200000000000000 DUP3 AND ISZERO PUSH2 0x1F5D JUMPI PUSH9 0x10163DA9FB33356D8 MUL PUSH1 0x40 SHR JUMPDEST PUSH1 0x1 PUSH1 0x38 SHL DUP3 AND ISZERO PUSH2 0x1F78 JUMPI PUSH9 0x100B1AFA5ABCBED61 MUL PUSH1 0x40 SHR JUMPDEST PUSH7 0x80000000000000 DUP3 AND ISZERO PUSH2 0x1F96 JUMPI PUSH9 0x10058C86DA1C09EA2 MUL PUSH1 0x40 SHR JUMPDEST PUSH7 0x40000000000000 DUP3 AND ISZERO PUSH2 0x1FB4 JUMPI PUSH9 0x1002C605E2E8CEC50 MUL PUSH1 0x40 SHR JUMPDEST PUSH7 0x20000000000000 DUP3 AND ISZERO PUSH2 0x1FD2 JUMPI PUSH9 0x100162F3904051FA1 MUL PUSH1 0x40 SHR JUMPDEST PUSH7 0x10000000000000 DUP3 AND ISZERO PUSH2 0x1FF0 JUMPI PUSH9 0x1000B175EFFDC76BA MUL PUSH1 0x40 SHR JUMPDEST PUSH7 0x8000000000000 DUP3 AND ISZERO PUSH2 0x200E JUMPI PUSH9 0x100058BA01FB9F96D MUL PUSH1 0x40 SHR JUMPDEST PUSH7 0x4000000000000 DUP3 AND ISZERO PUSH2 0x202C JUMPI PUSH9 0x10002C5CC37DA9492 MUL PUSH1 0x40 SHR JUMPDEST PUSH7 0x2000000000000 DUP3 AND ISZERO PUSH2 0x204A JUMPI PUSH9 0x1000162E525EE0547 MUL PUSH1 0x40 SHR JUMPDEST PUSH7 0x1000000000000 DUP3 AND ISZERO PUSH2 0x2068 JUMPI PUSH9 0x10000B17255775C04 MUL PUSH1 0x40 SHR JUMPDEST PUSH6 0x800000000000 DUP3 AND ISZERO PUSH2 0x2085 JUMPI PUSH9 0x1000058B91B5BC9AE MUL PUSH1 0x40 SHR JUMPDEST PUSH6 0x400000000000 DUP3 AND ISZERO PUSH2 0x20A2 JUMPI PUSH9 0x100002C5C89D5EC6D MUL PUSH1 0x40 SHR JUMPDEST PUSH6 0x200000000000 DUP3 AND ISZERO PUSH2 0x20BF JUMPI PUSH9 0x10000162E43F4F831 MUL PUSH1 0x40 SHR JUMPDEST PUSH6 0x100000000000 DUP3 AND ISZERO PUSH2 0x20DC JUMPI PUSH9 0x100000B1721BCFC9A MUL PUSH1 0x40 SHR JUMPDEST PUSH6 0x80000000000 DUP3 AND ISZERO PUSH2 0x20F9 JUMPI PUSH9 0x10000058B90CF1E6E MUL PUSH1 0x40 SHR JUMPDEST PUSH6 0x40000000000 DUP3 AND ISZERO PUSH2 0x2116 JUMPI PUSH9 0x1000002C5C863B73F MUL PUSH1 0x40 SHR JUMPDEST PUSH6 0x20000000000 DUP3 AND ISZERO PUSH2 0x2133 JUMPI PUSH9 0x100000162E430E5A2 MUL PUSH1 0x40 SHR JUMPDEST PUSH1 0x1 PUSH1 0x28 SHL DUP3 AND ISZERO PUSH2 0x214E JUMPI PUSH9 0x1000000B172183551 MUL PUSH1 0x40 SHR JUMPDEST PUSH5 0x8000000000 DUP3 AND ISZERO PUSH2 0x216A JUMPI PUSH9 0x100000058B90C0B49 MUL PUSH1 0x40 SHR JUMPDEST PUSH5 0x4000000000 DUP3 AND ISZERO PUSH2 0x2186 JUMPI PUSH9 0x10000002C5C8601CC MUL PUSH1 0x40 SHR JUMPDEST PUSH5 0x2000000000 DUP3 AND ISZERO PUSH2 0x21A2 JUMPI PUSH9 0x1000000162E42FFF0 MUL PUSH1 0x40 SHR JUMPDEST PUSH5 0x1000000000 DUP3 AND ISZERO PUSH2 0x21BE JUMPI PUSH9 0x10000000B17217FBB MUL PUSH1 0x40 SHR JUMPDEST PUSH5 0x800000000 DUP3 AND ISZERO PUSH2 0x21DA JUMPI PUSH9 0x1000000058B90BFCE MUL PUSH1 0x40 SHR JUMPDEST PUSH5 0x400000000 DUP3 AND ISZERO PUSH2 0x21F6 JUMPI PUSH9 0x100000002C5C85FE3 MUL PUSH1 0x40 SHR JUMPDEST PUSH5 0x200000000 DUP3 AND ISZERO PUSH2 0x2212 JUMPI PUSH9 0x10000000162E42FF1 MUL PUSH1 0x40 SHR JUMPDEST PUSH5 0x100000000 DUP3 AND ISZERO PUSH2 0x222E JUMPI PUSH9 0x100000000B17217F8 MUL PUSH1 0x40 SHR JUMPDEST PUSH4 0x80000000 DUP3 AND ISZERO PUSH2 0x2249 JUMPI PUSH9 0x10000000058B90BFC MUL PUSH1 0x40 SHR JUMPDEST PUSH4 0x40000000 DUP3 AND ISZERO PUSH2 0x2264 JUMPI PUSH9 0x1000000002C5C85FE MUL PUSH1 0x40 SHR JUMPDEST PUSH4 0x20000000 DUP3 AND ISZERO PUSH2 0x227F JUMPI PUSH9 0x100000000162E42FF MUL PUSH1 0x40 SHR JUMPDEST PUSH4 0x10000000 DUP3 AND ISZERO PUSH2 0x229A JUMPI PUSH9 0x1000000000B17217F MUL PUSH1 0x40 SHR JUMPDEST PUSH4 0x8000000 DUP3 AND ISZERO PUSH2 0x22B5 JUMPI PUSH9 0x100000000058B90C0 MUL PUSH1 0x40 SHR JUMPDEST PUSH4 0x4000000 DUP3 AND ISZERO PUSH2 0x22D0 JUMPI PUSH9 0x10000000002C5C860 MUL PUSH1 0x40 SHR JUMPDEST PUSH4 0x2000000 DUP3 AND ISZERO PUSH2 0x22EB JUMPI PUSH9 0x1000000000162E430 MUL PUSH1 0x40 SHR JUMPDEST PUSH4 0x1000000 DUP3 AND ISZERO PUSH2 0x2306 JUMPI PUSH9 0x10000000000B17218 MUL PUSH1 0x40 SHR JUMPDEST PUSH3 0x800000 DUP3 AND ISZERO PUSH2 0x2320 JUMPI PUSH9 0x1000000000058B90C MUL PUSH1 0x40 SHR JUMPDEST PUSH3 0x400000 DUP3 AND ISZERO PUSH2 0x233A JUMPI PUSH9 0x100000000002C5C86 MUL PUSH1 0x40 SHR JUMPDEST PUSH3 0x200000 DUP3 AND ISZERO PUSH2 0x2354 JUMPI PUSH9 0x10000000000162E43 MUL PUSH1 0x40 SHR JUMPDEST PUSH3 0x100000 DUP3 AND ISZERO PUSH2 0x236E JUMPI PUSH9 0x100000000000B1721 MUL PUSH1 0x40 SHR JUMPDEST PUSH3 0x80000 DUP3 AND ISZERO PUSH2 0x2388 JUMPI PUSH9 0x10000000000058B91 MUL PUSH1 0x40 SHR JUMPDEST PUSH3 0x40000 DUP3 AND ISZERO PUSH2 0x23A2 JUMPI PUSH9 0x1000000000002C5C8 MUL PUSH1 0x40 SHR JUMPDEST PUSH3 0x20000 DUP3 AND ISZERO PUSH2 0x23BC JUMPI PUSH9 0x100000000000162E4 MUL PUSH1 0x40 SHR JUMPDEST PUSH3 0x10000 DUP3 AND ISZERO PUSH2 0x23D6 JUMPI PUSH9 0x1000000000000B172 MUL PUSH1 0x40 SHR JUMPDEST PUSH2 0x8000 DUP3 AND ISZERO PUSH2 0x23EF JUMPI PUSH9 0x100000000000058B9 MUL PUSH1 0x40 SHR JUMPDEST PUSH2 0x4000 DUP3 AND ISZERO PUSH2 0x2408 JUMPI PUSH9 0x10000000000002C5D MUL PUSH1 0x40 SHR JUMPDEST PUSH2 0x2000 DUP3 AND ISZERO PUSH2 0x2421 JUMPI PUSH9 0x1000000000000162E MUL PUSH1 0x40 SHR JUMPDEST PUSH2 0x1000 DUP3 AND ISZERO PUSH2 0x243A JUMPI PUSH9 0x10000000000000B17 MUL PUSH1 0x40 SHR JUMPDEST PUSH2 0x800 DUP3 AND ISZERO PUSH2 0x2453 JUMPI PUSH9 0x1000000000000058C MUL PUSH1 0x40 SHR JUMPDEST PUSH2 0x400 DUP3 AND ISZERO PUSH2 0x246C JUMPI PUSH9 0x100000000000002C6 MUL PUSH1 0x40 SHR JUMPDEST PUSH2 0x200 DUP3 AND ISZERO PUSH2 0x2485 JUMPI PUSH9 0x10000000000000163 MUL PUSH1 0x40 SHR JUMPDEST PUSH2 0x100 DUP3 AND ISZERO PUSH2 0x249E JUMPI PUSH9 0x100000000000000B1 MUL PUSH1 0x40 SHR JUMPDEST PUSH1 0x80 DUP3 AND ISZERO PUSH2 0x24B6 JUMPI PUSH9 0x10000000000000059 MUL PUSH1 0x40 SHR JUMPDEST PUSH1 0x40 DUP3 AND ISZERO PUSH2 0x24CE JUMPI PUSH9 0x1000000000000002C MUL PUSH1 0x40 SHR JUMPDEST PUSH1 0x20 DUP3 AND ISZERO PUSH2 0x24E6 JUMPI PUSH9 0x10000000000000016 MUL PUSH1 0x40 SHR JUMPDEST PUSH1 0x10 DUP3 AND ISZERO PUSH2 0x24FE JUMPI PUSH9 0x1000000000000000B MUL PUSH1 0x40 SHR JUMPDEST PUSH1 0x8 DUP3 AND ISZERO PUSH2 0x2516 JUMPI PUSH9 0x10000000000000006 MUL PUSH1 0x40 SHR JUMPDEST PUSH1 0x4 DUP3 AND ISZERO PUSH2 0x252E JUMPI PUSH9 0x10000000000000003 MUL PUSH1 0x40 SHR JUMPDEST PUSH1 0x2 DUP3 AND ISZERO PUSH2 0x2546 JUMPI PUSH9 0x10000000000000001 MUL PUSH1 0x40 SHR JUMPDEST PUSH1 0x1 DUP3 AND ISZERO PUSH2 0x255E JUMPI PUSH9 0x10000000000000001 MUL PUSH1 0x40 SHR JUMPDEST PUSH8 0xDE0B6B3A7640000 MUL PUSH1 0x40 SWAP2 SWAP1 SWAP2 SHR PUSH1 0xBF SUB SHR SWAP1 JUMP JUMPDEST PUSH1 0x0 DUP1 DUP1 PUSH1 0x0 NOT DUP6 DUP8 MULMOD DUP6 DUP8 MUL SWAP3 POP DUP3 DUP2 LT DUP4 DUP3 SUB SUB SWAP2 POP POP DUP1 PUSH1 0x0 SUB PUSH2 0x25AF JUMPI DUP4 DUP3 DUP2 PUSH2 0x25A5 JUMPI PUSH2 0x25A5 PUSH2 0x27F5 JUMP JUMPDEST DIV SWAP3 POP POP POP PUSH2 0x17DF JUMP JUMPDEST DUP4 DUP2 LT PUSH2 0x25D9 JUMPI PUSH1 0x40 MLOAD PUSH4 0x1DCF3063 PUSH1 0xE2 SHL DUP2 MSTORE PUSH1 0x4 DUP2 ADD DUP3 SWAP1 MSTORE PUSH1 0x24 DUP2 ADD DUP6 SWAP1 MSTORE PUSH1 0x44 ADD PUSH2 0x52B JUMP JUMPDEST PUSH1 0x0 DUP5 DUP7 DUP9 MULMOD PUSH1 0x2 PUSH1 0x3 PUSH1 0x1 DUP9 NOT DUP2 ADD DUP10 AND SWAP9 DUP10 SWAP1 DIV SWAP2 DUP3 MUL DUP4 XOR DUP1 DUP4 MUL DUP5 SUB MUL DUP1 DUP4 MUL DUP5 SUB MUL DUP1 DUP4 MUL DUP5 SUB MUL DUP1 DUP4 MUL DUP5 SUB MUL DUP1 DUP4 MUL DUP5 SUB MUL SWAP2 DUP3 MUL SWAP1 SWAP3 SUB MUL PUSH1 0x0 DUP9 SWAP1 SUB DUP9 SWAP1 DIV SWAP1 SWAP2 ADD DUP6 DUP4 GT SWAP1 SWAP5 SUB SWAP4 SWAP1 SWAP4 MUL SWAP4 SUB SWAP5 SWAP1 SWAP5 DIV SWAP2 SWAP1 SWAP2 OR MUL SWAP5 SWAP4 POP POP POP POP JUMP JUMPDEST PUSH1 0x0 PUSH1 0x20 DUP3 DUP5 SUB SLT ISZERO PUSH2 0x2653 JUMPI PUSH1 0x0 DUP1 REVERT JUMPDEST POP CALLDATALOAD SWAP2 SWAP1 POP JUMP JUMPDEST PUSH1 0x0 DUP1 PUSH1 0x40 DUP4 DUP6 SUB SLT ISZERO PUSH2 0x266D JUMPI PUSH1 0x0 DUP1 REVERT JUMPDEST POP POP DUP1 CALLDATALOAD SWAP3 PUSH1 0x20 SWAP1 SWAP2 ADD CALLDATALOAD SWAP2 POP JUMP JUMPDEST PUSH4 0x4E487B71 PUSH1 0xE0 SHL PUSH1 0x0 MSTORE PUSH1 0x21 PUSH1 0x4 MSTORE PUSH1 0x24 PUSH1 0x0 REVERT JUMPDEST PUSH1 0x4 DUP2 LT PUSH2 0x26B0 JUMPI PUSH4 0x4E487B71 PUSH1 0xE0 SHL PUSH1 0x0 MSTORE PUSH1 0x21 PUSH1 0x4 MSTORE PUSH1 0x24 PUSH1 0x0 REVERT JUMPDEST SWAP1 MSTORE JUMP JUMPDEST PUSH1 0x0 PUSH1 0x60 DUP3 ADD SWAP1 POP PUSH5 0xFFFFFFFFFF DUP4 MLOAD AND DUP3 MSTORE PUSH2 0xFFFF PUSH1 0x20 DUP5 ADD MLOAD AND PUSH1 0x20 DUP4 ADD MSTORE PUSH1 0x40 DUP4 ADD MLOAD PUSH2 0x26E7 PUSH1 0x40 DUP5 ADD DUP3 PUSH2 0x2692 JUMP JUMPDEST POP SWAP3 SWAP2 POP POP JUMP JUMPDEST PUSH5 0xFFFFFFFFFF DUP5 AND DUP2 MSTORE PUSH2 0xFFFF DUP4 AND PUSH1 0x20 DUP3 ADD MSTORE PUSH1 0x60 DUP2 ADD PUSH2 0x2713 PUSH1 0x40 DUP4 ADD DUP5 PUSH2 0x2692 JUMP JUMPDEST SWAP5 SWAP4 POP POP POP POP JUMP JUMPDEST PUSH1 0x1 PUSH1 0x1 PUSH1 0xA0 SHL SUB DUP2 AND DUP2 EQ PUSH2 0x13A4 JUMPI PUSH1 0x0 DUP1 REVERT JUMPDEST PUSH1 0x0 PUSH1 0x20 DUP3 DUP5 SUB SLT ISZERO PUSH2 0x2742 JUMPI PUSH1 0x0 DUP1 REVERT JUMPDEST DUP2 CALLDATALOAD PUSH2 0x17DF DUP2 PUSH2 0x271B JUMP JUMPDEST PUSH4 0x4E487B71 PUSH1 0xE0 SHL PUSH1 0x0 MSTORE PUSH1 0x11 PUSH1 0x4 MSTORE PUSH1 0x24 PUSH1 0x0 REVERT JUMPDEST PUSH1 0x0 DUP3 NOT DUP3 GT ISZERO PUSH2 0x2776 JUMPI PUSH2 0x2776 PUSH2 0x274D JUMP JUMPDEST POP ADD SWAP1 JUMP JUMPDEST PUSH1 0x0 DUP3 DUP3 LT ISZERO PUSH2 0x278D JUMPI PUSH2 0x278D PUSH2 0x274D JUMP JUMPDEST POP SUB SWAP1 JUMP JUMPDEST PUSH1 0x0 DUP2 PUSH1 0x0 NOT DIV DUP4 GT DUP3 ISZERO ISZERO AND ISZERO PUSH2 0x27AC JUMPI PUSH2 0x27AC PUSH2 0x274D JUMP JUMPDEST POP MUL SWAP1 JUMP JUMPDEST PUSH1 0x20 DUP1 DUP3 MSTORE PUSH1 0xD SWAP1 DUP3 ADD MSTORE PUSH13 0x34B73B30B634B210333637B7B9 PUSH1 0x99 SHL PUSH1 0x40 DUP3 ADD MSTORE PUSH1 0x60 ADD SWAP1 JUMP JUMPDEST PUSH1 0x0 PUSH1 0x20 DUP3 DUP5 SUB SLT ISZERO PUSH2 0x27EA JUMPI PUSH1 0x0 DUP1 REVERT JUMPDEST DUP2 MLOAD PUSH2 0x17DF DUP2 PUSH2 0x271B JUMP JUMPDEST PUSH4 0x4E487B71 PUSH1 0xE0 SHL PUSH1 0x0 MSTORE PUSH1 0x12 PUSH1 0x4 MSTORE PUSH1 0x24 PUSH1 0x0 REVERT JUMPDEST PUSH1 0x0 DUP3 PUSH2 0x281A JUMPI PUSH2 0x281A PUSH2 0x27F5 JUMP JUMPDEST POP MOD SWAP1 JUMP JUMPDEST PUSH1 0x20 DUP1 DUP3 MSTORE DUP2 DUP2 ADD MSTORE PUSH32 0x4F776E61626C653A2063616C6C6572206973206E6F7420746865206F776E6572 PUSH1 0x40 DUP3 ADD MSTORE PUSH1 0x60 ADD SWAP1 JUMP JUMPDEST PUSH1 0x20 DUP1 DUP3 MSTORE PUSH1 0x24 SWAP1 DUP3 ADD MSTORE PUSH32 0x4F6E6C7920626174746C65722063616E2063616C6C20746869732066756E6374 PUSH1 0x40 DUP3 ADD MSTORE PUSH4 0x34B7B717 PUSH1 0xE1 SHL PUSH1 0x60 DUP3 ADD MSTORE PUSH1 0x80 ADD SWAP1 JUMP JUMPDEST PUSH1 0x0 PUSH1 0x20 DUP3 DUP5 SUB SLT ISZERO PUSH2 0x28AA JUMPI PUSH1 0x0 DUP1 REVERT JUMPDEST POP MLOAD SWAP2 SWAP1 POP JUMP JUMPDEST PUSH1 0x0 PUSH1 0x20 DUP3 DUP5 SUB SLT ISZERO PUSH2 0x28C3 JUMPI PUSH1 0x0 DUP1 REVERT JUMPDEST DUP2 MLOAD DUP1 ISZERO ISZERO DUP2 EQ PUSH2 0x17DF JUMPI PUSH1 0x0 DUP1 REVERT JUMPDEST PUSH1 0x20 DUP1 DUP3 MSTORE PUSH1 0x2C SWAP1 DUP3 ADD MSTORE PUSH32 0x556E61626C6520746F207472616E7366657220746F6B656E206261636B20746F PUSH1 0x40 DUP3 ADD MSTORE PUSH12 0x81D1A19481858D8DBDD5B9D PUSH1 0xA2 SHL PUSH1 0x60 DUP3 ADD MSTORE PUSH1 0x80 ADD SWAP1 JUMP JUMPDEST PUSH1 0x0 DUP3 PUSH2 0x292E JUMPI PUSH2 0x292E PUSH2 0x27F5 JUMP JUMPDEST POP DIV SWAP1 JUMP JUMPDEST PUSH1 0x0 DUP1 DUP4 SLT DUP1 ISZERO PUSH1 0x1 PUSH1 0xFF SHL DUP6 ADD DUP5 SLT AND ISZERO PUSH2 0x2951 JUMPI PUSH2 0x2951 PUSH2 0x274D JUMP JUMPDEST PUSH1 0x1 PUSH1 0x1 PUSH1 0xFF SHL SUB DUP5 ADD DUP4 SGT DUP2 AND ISZERO PUSH2 0x296C JUMPI PUSH2 0x296C PUSH2 0x274D JUMP JUMPDEST POP POP SUB SWAP1 JUMP JUMPDEST PUSH1 0x0 PUSH1 0x1 PUSH1 0xFF SHL DUP3 ADD PUSH2 0x2987 JUMPI PUSH2 0x2987 PUSH2 0x274D JUMP JUMPDEST POP PUSH1 0x0 SUB SWAP1 JUMP INVALID LOG2 PUSH5 0x6970667358 0x22 SLT KECCAK256 PUSH24 0x32E491A3ADE75CB9536DD2126EF6C8EF9AEB110F77EA3326 0xDC MSIZE SWAP6 0xCE NOT 0x21 0x2B PUSH5 0x736F6C6343 STOP ADDMOD 0xF STOP CALLER ",
  "sha1": "13a89080bcf24e6ac03ea641dc0ccbb1c68c5340",
  "source": "pragma solidity 0.8.15;\n// SPDX-License-Identifier: UNLICENSED\n\n// This will be where wizards receive ecosystem tokens\nimport \"./interfaces/IERC20.sol\";\nimport \"./interfaces/IERC721.sol\";\nimport \"./RelativeTimeVault.sol\";\n\n\ncontract WizardTower is RelativeTimeVault {\n\n    uint256 maxFloors = 10000;\n//    IERC20 ecosystemToken;\n//    IERC721 wizardToken;\n\n    constructor(address _ecosystemToken, address _wizardToken) RelativeTimeVault(_ecosystemToken, _wizardToken) {\n//        ecosystemToken = IERC20(_ecosystemToken);\n//        wizardToken = IERC721(_wizardToken);\n    }\n\n    ////////////////////\n    ////    Get       //\n    ////////////////////\n\n\n    ////////////////////\n    ////    Battle    //\n    ////////////////////\n\n//    function attack(uint256 floor) external { }\n\n\n    ////////////////////\n    ////    Admin     //\n    ////////////////////\n\n\n\n}\n",
  "sourcePath": "contracts/WizardTower.sol",
  "type": "contract"
}