{
  "abi": [
    {
      "inputs": [
        {
          "internalType": "address",
          "name": "_nft",
          "type": "address"
        }
      ],
      "stateMutability": "nonpayable",
      "type": "constructor"
    },
    {
      "inputs": [],
      "name": "OutOfBounds",
      "type": "error"
    },
    {
      "anonymous": false,
      "inputs": [
        {
          "indexed": false,
          "internalType": "bytes32",
          "name": "hash",
          "type": "bytes32"
        },
        {
          "indexed": false,
          "internalType": "bool",
          "name": "isHashCorrect",
          "type": "bool"
        },
        {
          "indexed": false,
          "internalType": "bytes32",
          "name": "firstEncoded",
          "type": "bytes32"
        },
        {
          "indexed": false,
          "internalType": "bytes",
          "name": "firstUnencoded",
          "type": "bytes"
        }
      ],
      "name": "HashTesting",
      "type": "event"
    },
    {
      "anonymous": false,
      "inputs": [
        {
          "indexed": false,
          "internalType": "string",
          "name": "_IPFSHash",
          "type": "string"
        },
        {
          "indexed": false,
          "internalType": "uint40",
          "name": "_proposalID",
          "type": "uint40"
        },
        {
          "indexed": false,
          "internalType": "uint8",
          "name": "_numFieldsToHash",
          "type": "uint8"
        },
        {
          "indexed": false,
          "internalType": "uint24",
          "name": "_timeBonus",
          "type": "uint24"
        },
        {
          "indexed": false,
          "internalType": "uint40",
          "name": "_begTimestamp",
          "type": "uint40"
        },
        {
          "indexed": false,
          "internalType": "uint40",
          "name": "_endTimestamp",
          "type": "uint40"
        },
        {
          "indexed": false,
          "internalType": "uint16",
          "name": "_availableSlots",
          "type": "uint16"
        }
      ],
      "name": "NewTaskTypeCreated",
      "type": "event"
    },
    {
      "anonymous": false,
      "inputs": [
        {
          "indexed": true,
          "internalType": "address",
          "name": "previousOwner",
          "type": "address"
        },
        {
          "indexed": true,
          "internalType": "address",
          "name": "newOwner",
          "type": "address"
        }
      ],
      "name": "OwnershipTransferred",
      "type": "event"
    },
    {
      "anonymous": false,
      "inputs": [
        {
          "indexed": false,
          "internalType": "uint256",
          "name": "wizardId",
          "type": "uint256"
        },
        {
          "indexed": false,
          "internalType": "uint256",
          "name": "taskId",
          "type": "uint256"
        }
      ],
      "name": "VerificationAssigned",
      "type": "event"
    },
    {
      "anonymous": false,
      "inputs": [
        {
          "indexed": false,
          "internalType": "uint256",
          "name": "VerifierIdFirst",
          "type": "uint256"
        },
        {
          "indexed": false,
          "internalType": "uint256",
          "name": "VerifierIdSecond",
          "type": "uint256"
        },
        {
          "indexed": false,
          "internalType": "uint256",
          "name": "taskId",
          "type": "uint256"
        }
      ],
      "name": "VerificationFailed",
      "type": "event"
    },
    {
      "anonymous": false,
      "inputs": [
        {
          "indexed": false,
          "internalType": "uint256",
          "name": "taskDoer",
          "type": "uint256"
        },
        {
          "indexed": false,
          "internalType": "uint256",
          "name": "Verifier",
          "type": "uint256"
        },
        {
          "indexed": false,
          "internalType": "uint256",
          "name": "taskId",
          "type": "uint256"
        },
        {
          "indexed": false,
          "internalType": "bytes32",
          "name": "hash",
          "type": "bytes32"
        },
        {
          "indexed": false,
          "internalType": "bool",
          "name": "isHashCorrect",
          "type": "bool"
        }
      ],
      "name": "VerificationSucceeded",
      "type": "event"
    },
    {
      "inputs": [
        {
          "internalType": "uint256",
          "name": "_wizID",
          "type": "uint256"
        }
      ],
      "name": "claimRandomTaskForVerification",
      "outputs": [],
      "stateMutability": "nonpayable",
      "type": "function"
    },
    {
      "inputs": [
        {
          "internalType": "string",
          "name": "_IPFSHash",
          "type": "string"
        },
        {
          "internalType": "bytes32",
          "name": "_hash",
          "type": "bytes32"
        },
        {
          "internalType": "uint40",
          "name": "_wizID",
          "type": "uint40"
        }
      ],
      "name": "completeTask",
      "outputs": [],
      "stateMutability": "nonpayable",
      "type": "function"
    },
    {
      "inputs": [
        {
          "internalType": "string",
          "name": "_IPFSHash",
          "type": "string"
        },
        {
          "internalType": "uint16",
          "name": "_numberOfOptions",
          "type": "uint16"
        },
        {
          "internalType": "uint24",
          "name": "_timeBonus",
          "type": "uint24"
        },
        {
          "internalType": "uint40",
          "name": "_begTimestamp",
          "type": "uint40"
        },
        {
          "internalType": "uint40",
          "name": "_endTimestamp",
          "type": "uint40"
        },
        {
          "internalType": "uint16",
          "name": "_availableSlots",
          "type": "uint16"
        }
      ],
      "name": "createProposal",
      "outputs": [],
      "stateMutability": "nonpayable",
      "type": "function"
    },
    {
      "inputs": [
        {
          "internalType": "string",
          "name": "_IPFSHash",
          "type": "string"
        },
        {
          "internalType": "uint8",
          "name": "_numFieldsToHash",
          "type": "uint8"
        },
        {
          "internalType": "uint24",
          "name": "_timeBonus",
          "type": "uint24"
        },
        {
          "internalType": "uint40",
          "name": "_begTimestamp",
          "type": "uint40"
        },
        {
          "internalType": "uint40",
          "name": "_endTimestamp",
          "type": "uint40"
        },
        {
          "internalType": "uint16",
          "name": "_availableSlots",
          "type": "uint16"
        }
      ],
      "name": "createTaskType",
      "outputs": [],
      "stateMutability": "nonpayable",
      "type": "function"
    },
    {
      "inputs": [],
      "name": "getMyAvailableTaskTypes",
      "outputs": [
        {
          "internalType": "string[]",
          "name": "",
          "type": "string[]"
        }
      ],
      "stateMutability": "view",
      "type": "function"
    },
    {
      "inputs": [
        {
          "internalType": "uint256",
          "name": "_taskId",
          "type": "uint256"
        }
      ],
      "name": "getTaskById",
      "outputs": [
        {
          "components": [
            {
              "internalType": "string",
              "name": "IPFSHash",
              "type": "string"
            },
            {
              "internalType": "uint40",
              "name": "NFTID",
              "type": "uint40"
            },
            {
              "internalType": "bytes32",
              "name": "hash",
              "type": "bytes32"
            },
            {
              "internalType": "bytes32",
              "name": "refuterHash",
              "type": "bytes32"
            },
            {
              "internalType": "uint8",
              "name": "numFieldsToHash",
              "type": "uint8"
            },
            {
              "internalType": "uint24",
              "name": "timeBonus",
              "type": "uint24"
            },
            {
              "internalType": "uint80",
              "name": "payment",
              "type": "uint80"
            },
            {
              "internalType": "uint16",
              "name": "verifierID",
              "type": "uint16"
            },
            {
              "internalType": "uint16",
              "name": "refuterID",
              "type": "uint16"
            },
            {
              "internalType": "uint40",
              "name": "verificationReservedTimestamp",
              "type": "uint40"
            }
          ],
          "internalType": "struct Governance.Task",
          "name": "",
          "type": "tuple"
        }
      ],
      "stateMutability": "view",
      "type": "function"
    },
    {
      "inputs": [
        {
          "internalType": "uint256",
          "name": "proposalID",
          "type": "uint256"
        }
      ],
      "name": "getVotes",
      "outputs": [
        {
          "internalType": "uint16[]",
          "name": "",
          "type": "uint16[]"
        }
      ],
      "stateMutability": "view",
      "type": "function"
    },
    {
      "inputs": [
        {
          "internalType": "uint256",
          "name": "proposalID",
          "type": "uint256"
        }
      ],
      "name": "getWinningVote",
      "outputs": [
        {
          "internalType": "uint256",
          "name": "",
          "type": "uint256"
        }
      ],
      "stateMutability": "view",
      "type": "function"
    },
    {
      "inputs": [],
      "name": "owner",
      "outputs": [
        {
          "internalType": "address",
          "name": "",
          "type": "address"
        }
      ],
      "stateMutability": "view",
      "type": "function"
    },
    {
      "inputs": [
        {
          "internalType": "uint256",
          "name": "",
          "type": "uint256"
        },
        {
          "internalType": "uint256",
          "name": "",
          "type": "uint256"
        }
      ],
      "name": "proposalToNFTVotes",
      "outputs": [
        {
          "internalType": "uint256",
          "name": "",
          "type": "uint256"
        }
      ],
      "stateMutability": "view",
      "type": "function"
    },
    {
      "inputs": [
        {
          "internalType": "uint256",
          "name": "",
          "type": "uint256"
        }
      ],
      "name": "proposals",
      "outputs": [
        {
          "internalType": "string",
          "name": "IPFSHash",
          "type": "string"
        },
        {
          "internalType": "uint16",
          "name": "numberOfOptions",
          "type": "uint16"
        },
        {
          "internalType": "uint40",
          "name": "totalVotes",
          "type": "uint40"
        },
        {
          "internalType": "uint40",
          "name": "begTimestamp",
          "type": "uint40"
        },
        {
          "internalType": "uint40",
          "name": "endTimestamp",
          "type": "uint40"
        }
      ],
      "stateMutability": "view",
      "type": "function"
    },
    {
      "inputs": [],
      "name": "renounceOwnership",
      "outputs": [],
      "stateMutability": "nonpayable",
      "type": "function"
    },
    {
      "inputs": [
        {
          "internalType": "address",
          "name": "_addy",
          "type": "address"
        }
      ],
      "name": "setNFTAddress",
      "outputs": [],
      "stateMutability": "nonpayable",
      "type": "function"
    },
    {
      "inputs": [
        {
          "internalType": "uint256",
          "name": "_wizId",
          "type": "uint256"
        },
        {
          "internalType": "uint256",
          "name": "_taskID",
          "type": "uint256"
        },
        {
          "internalType": "bytes32[]",
          "name": "_fields",
          "type": "bytes32[]"
        }
      ],
      "name": "submitVerification",
      "outputs": [],
      "stateMutability": "nonpayable",
      "type": "function"
    },
    {
      "inputs": [
        {
          "internalType": "uint256",
          "name": "",
          "type": "uint256"
        }
      ],
      "name": "taskTypes",
      "outputs": [
        {
          "internalType": "string",
          "name": "IPFSHash",
          "type": "string"
        },
        {
          "internalType": "bool",
          "name": "paused",
          "type": "bool"
        },
        {
          "internalType": "uint40",
          "name": "proposalID",
          "type": "uint40"
        },
        {
          "internalType": "uint8",
          "name": "numFieldsToHash",
          "type": "uint8"
        },
        {
          "internalType": "uint24",
          "name": "timeBonus",
          "type": "uint24"
        },
        {
          "internalType": "uint40",
          "name": "begTimestamp",
          "type": "uint40"
        },
        {
          "internalType": "uint40",
          "name": "endTimestamp",
          "type": "uint40"
        },
        {
          "internalType": "uint16",
          "name": "availableSlots",
          "type": "uint16"
        }
      ],
      "stateMutability": "view",
      "type": "function"
    },
    {
      "inputs": [
        {
          "internalType": "uint256",
          "name": "",
          "type": "uint256"
        }
      ],
      "name": "tasks",
      "outputs": [
        {
          "internalType": "string",
          "name": "IPFSHash",
          "type": "string"
        },
        {
          "internalType": "uint40",
          "name": "NFTID",
          "type": "uint40"
        },
        {
          "internalType": "bytes32",
          "name": "hash",
          "type": "bytes32"
        },
        {
          "internalType": "bytes32",
          "name": "refuterHash",
          "type": "bytes32"
        },
        {
          "internalType": "uint8",
          "name": "numFieldsToHash",
          "type": "uint8"
        },
        {
          "internalType": "uint24",
          "name": "timeBonus",
          "type": "uint24"
        },
        {
          "internalType": "uint80",
          "name": "payment",
          "type": "uint80"
        },
        {
          "internalType": "uint16",
          "name": "verifierID",
          "type": "uint16"
        },
        {
          "internalType": "uint16",
          "name": "refuterID",
          "type": "uint16"
        },
        {
          "internalType": "uint40",
          "name": "verificationReservedTimestamp",
          "type": "uint40"
        }
      ],
      "stateMutability": "view",
      "type": "function"
    },
    {
      "inputs": [],
      "name": "tasksSubmitted",
      "outputs": [
        {
          "internalType": "int128",
          "name": "_begin",
          "type": "int128"
        },
        {
          "internalType": "int128",
          "name": "_end",
          "type": "int128"
        }
      ],
      "stateMutability": "view",
      "type": "function"
    },
    {
      "inputs": [
        {
          "internalType": "bytes32",
          "name": "_givenHash",
          "type": "bytes32"
        },
        {
          "internalType": "bytes32[]",
          "name": "_fields",
          "type": "bytes32[]"
        },
        {
          "internalType": "bool",
          "name": "_refuted",
          "type": "bool"
        }
      ],
      "name": "testHashing",
      "outputs": [],
      "stateMutability": "nonpayable",
      "type": "function"
    },
    {
      "inputs": [
        {
          "internalType": "address",
          "name": "newOwner",
          "type": "address"
        }
      ],
      "name": "transferOwnership",
      "outputs": [],
      "stateMutability": "nonpayable",
      "type": "function"
    },
    {
      "inputs": [
        {
          "internalType": "uint256",
          "name": "proposalID",
          "type": "uint256"
        },
        {
          "internalType": "uint256",
          "name": "NFTID",
          "type": "uint256"
        },
        {
          "internalType": "uint256",
          "name": "_vote",
          "type": "uint256"
        }
      ],
      "name": "vote",
      "outputs": [],
      "stateMutability": "nonpayable",
      "type": "function"
    },
    {
      "stateMutability": "payable",
      "type": "receive"
    }
  ],
  "bytecode": "6080604052610258600b5562015180600c553480156200001e57600080fd5b50604051620032c2380380620032c28339810160408190526200004191620000c9565b6001600055620000513362000077565b600280546001600160a01b0319166001600160a01b0392909216919091179055620000fb565b600180546001600160a01b038381166001600160a01b0319831681179093556040519116919082907f8be0079c531659141344cd1fd0a4f28419497f9722a3daafe3b4186f6b6457e090600090a35050565b600060208284031215620000dc57600080fd5b81516001600160a01b0381168114620000f457600080fd5b9392505050565b6131b7806200010b6000396000f3fe6080604052600436106101235760003560e01c8063826b8ebd116100a0578063beca3a1611610064578063beca3a16146103a7578063d374a217146103c7578063f18c51d3146103e7578063f2fde38b14610407578063ff9810991461042757600080fd5b8063826b8ebd146102dc5780638a6655d6146102fc5780638d9776721461031c5780638da5cb5b14610352578063976217cd1461037a57600080fd5b806361f9e9a8116100e757806361f9e9a8146102215780636215597b1461024157806369d0373814610287578063715018a6146102a757806372e185ce146102bc57600080fd5b8063013cf08b1461012f57806309265ce61461016957806310190ef11461018b578063379d94cc146101bf578063551bbe0b146101ff57600080fd5b3661012a57005b600080fd5b34801561013b57600080fd5b5061014f61014a366004612585565b610454565b6040516101609594939291906125eb565b60405180910390f35b34801561017557600080fd5b506101896101843660046126f6565b610520565b005b34801561019757600080fd5b506101ab6101a6366004612585565b610666565b604051610160989796959493929190612756565b3480156101cb57600080fd5b506005546101e590600f81810b91600160801b9004900b82565b60408051600f93840b81529190920b602082015201610160565b34801561020b57600080fd5b50610214610770565b60405161016091906127bb565b34801561022d57600080fd5b5061018961023c3660046128a5565b610b35565b34801561024d57600080fd5b5061027961025c366004612943565b600360209081526000928352604080842090915290825290205481565b604051908152602001610160565b34801561029357600080fd5b506101896102a236600461297a565b610b5d565b3480156102b357600080fd5b50610189610ba9565b3480156102c857600080fd5b506101896102d736600461299e565b610bdf565b3480156102e857600080fd5b506102796102f7366004612585565b610f5a565b34801561030857600080fd5b50610189610317366004612a4d565b611167565b34801561032857600080fd5b5061033c610337366004612585565b6111a0565b6040516101609a99989796959493929190612a79565b34801561035e57600080fd5b506001546040516001600160a01b039091168152602001610160565b34801561038657600080fd5b5061039a610395366004612585565b6112a2565b6040516101609190612afa565b3480156103b357600080fd5b506101896103c2366004612bc8565b6113e4565b3480156103d357600080fd5b506101896103e2366004612585565b6114f9565b3480156103f357600080fd5b50610189610402366004612c19565b611841565b34801561041357600080fd5b5061018961042236600461297a565b611fe7565b34801561043357600080fd5b50610447610442366004612585565b612082565b6040516101609190612c69565b60076020526000908152604090208054819061046f90612cb1565b80601f016020809104026020016040519081016040528092919081815260200182805461049b90612cb1565b80156104e85780601f106104bd576101008083540402835291602001916104e8565b820191906000526020600020905b8154815290600101906020018083116104cb57829003601f168201915b505050506001830154600390930154919261ffff169164ffffffffff8082169250650100000000008204811691600160501b90041685565b60008260008151811061053557610535612ceb565b602002602001015160405160200161054f91815260200190565b604051602081830303815290604052905081156105db5760005b83518110156105d95783818151811061058457610584612ceb565b602002602001015160405160200161059e91815260200190565b604051602081830303815290604052805190602001208482815181106105c6576105c6612ceb565b6020908102919091010152600101610569565b505b6000836040516020016105ee9190612d01565b6040516020818303038152906040528051906020012090507f637ce8d069e382e64ef71cf191623b88c7e307ce252e908e7f2babbad0cb81ea818683148660008151811061063e5761063e612ceb565b6020026020010151856040516106579493929190612d37565b60405180910390a15050505050565b6004818154811061067657600080fd5b906000526020600020906003020160009150905080600101805461069990612cb1565b80601f01602080910402602001604051908101604052809291908181526020018280546106c590612cb1565b80156107125780601f106106e757610100808354040283529160200191610712565b820191906000526020600020905b8154815290600101906020018083116106f557829003601f168201915b5050506002909301549192505060ff8082169164ffffffffff610100820481169266010000000000008304169162ffffff600160381b82041691600160501b8204811691600160781b81049091169061ffff600160a01b9091041688565b60606000805b6004548110156108f957426004828154811061079457610794612ceb565b600091825260208083203384526003909202909101905260409020541080156107f1575042600482815481106107cc576107cc612ceb565b6000918252602090912060039091020160020154600160501b900464ffffffffff1611155b80156108305750426004828154811061080c5761080c612ceb565b6000918252602090912060039091020160020154600160781b900464ffffffffff16115b801561086d575060016004828154811061084c5761084c612ceb565b6000918252602090912060039091020160020154600160a01b900461ffff16115b1561087d578160010191506108f1565b604080516001808252818301909252600091816020015b606081526020019060019003908161089457905050905060405180604001604052806008815260200167273790363ab1b59760c11b815250816000815181106108df576108df612ceb565b60209081029190910101529392505050565b600101610776565b5060008167ffffffffffffffff8111156109155761091561262f565b60405190808252806020026020018201604052801561094857816020015b60608152602001906001900390816109335790505b5090506000805b600454811015610b2c57426004828154811061096d5761096d612ceb565b600091825260208083203384526003909202909101905260409020541080156109ca575042600482815481106109a5576109a5612ceb565b6000918252602090912060039091020160020154600160501b900464ffffffffff1611155b8015610a09575042600482815481106109e5576109e5612ceb565b6000918252602090912060039091020160020154600160781b900464ffffffffff16115b8015610a465750600160048281548110610a2557610a25612ceb565b6000918252602090912060039091020160020154600160a01b900461ffff16115b15610b245760048181548110610a5e57610a5e612ceb565b90600052602060002090600302016001018054610a7a90612cb1565b80601f0160208091040260200160405190810160405280929190818152602001828054610aa690612cb1565b8015610af35780601f10610ac857610100808354040283529160200191610af3565b820191906000526020600020905b815481529060010190602001808311610ad657829003601f168201915b5050505050838281518110610b0a57610b0a612ceb565b602002602001018190525081600101915083821015610b2c575b60010161094f565b50909392505050565b610b43565b60405180910390fd5b610b548787600088888888886121a8565b50505050505050565b6001546001600160a01b03163314610b875760405162461bcd60e51b8152600401610b3a90612d68565b600280546001600160a01b0319166001600160a01b0392909216919091179055565b6001546001600160a01b03163314610bd35760405162461bcd60e51b8152600401610b3a90612d68565b610bdd6000612327565b565b60005b600454811015610f545783604051602001610bfd9190612d9d565b6040516020818303038152906040528051906020012060048281548110610c2657610c26612ceb565b9060005260206000209060030201600101604051602001610c479190612db0565b6040516020818303038152906040528051906020012003610f42574260048281548110610c7657610c76612ceb565b6000918252602090912060039091020160020154600160501b900464ffffffffff1611801590610cda575060048181548110610cb457610cb4612ceb565b6000918252602090912060039091020160020154600160781b900464ffffffffff164211155b610d1c5760405162461bcd60e51b815260206004820152601360248201527213dd5d1cda5919481d1a5b59481c195c9a5bd9606a1b6044820152606401610b3a565b60006040518061014001604052808681526020018464ffffffffff1681526020018581526020016000801b815260200160048481548110610d5f57610d5f612ceb565b906000526020600020906003020160020160069054906101000a900460ff1660ff16815260200160048481548110610d9957610d99612ceb565b6000918252602080832060039290920290910160020154600160381b900462ffffff1683528281018290526040808401839052606084018390526080909301829052600a5460058054600160801b90819004600f0b8086526006855286862084905582546fffffffffffffffffffffffffffffffff90811660019092011690910217905582526009905220815191925082918190610e379082612e8a565b5060208201516001828101805464ffffffffff191664ffffffffff938416179055604084015160028401556060840151600384015560808401516004909301805460a086015160c087015160e0880151610100808a0151610120909a015160ff90991663ffffffff199095169490941762ffffff909316909302919091176fffffffffffffffffffffffff000000001916600160201b6001600160501b039092169190910261ffff60701b191617600160701b61ffff928316021766ffffffffffffff60801b1916600160801b919096160264ffffffffff60901b191694909417600160901b939092169290920217909155600a8054600090610f3b908490612f60565b9091555050505b80610f4c81612f78565b915050610be2565b50505050565b60006008548210610fa05760405162461bcd60e51b815260206004820152601060248201526f1b9bc81cdd58da081c1c9bdc1bdcd85b60821b6044820152606401610b3a565b600082815260076020526040902060030154600160501b900464ffffffffff1642116110045760405162461bcd60e51b8152602060048201526013602482015272766f74696e67207374696c6c2061637469766560681b6044820152606401610b3a565b6000806000805b60008681526007602052604090206001015461ffff168110156111255760008681526007602052604090208390600201826008811061104c5761104c612ceb565b601091828204019190066002029054906101000a900461ffff1661ffff1611156110c7576000868152600760205260409020600201816008811061109257611092612ceb565b601091828204019190066002029054906101000a900461ffff1661ffff169250809350816001036110c257600091505b611113565b6000868152600760205260409020839060020182600881106110eb576110eb612ceb565b601091828204019190066002029054906101000a900461ffff1661ffff160361111357600191505b8061111d81612f78565b91505061100b565b508015610b2c5760405162461bcd60e51b815260206004820152601060248201526f3a3432b932903bb0b99030903a34b29760811b6044820152606401610b3a565b60405162461bcd60e51b815260206004820152600e60248201526d26bab9ba1031329036b2b6b132b960911b6044820152606401610b3a565b6009602052600090815260409020805481906111bb90612cb1565b80601f01602080910402602001604051908101604052809291908181526020018280546111e790612cb1565b80156112345780601f1061120957610100808354040283529160200191611234565b820191906000526020600020905b81548152906001019060200180831161121757829003601f168201915b505050600184015460028501546003860154600490960154949564ffffffffff92831695919450925060ff81169162ffffff610100830416916001600160501b03600160201b8204169161ffff600160701b8304811692600160801b810490911691600160901b909104168a565b6112aa6124e7565b60008281526009602052604090819020815161014081019092528054829082906112d390612cb1565b80601f01602080910402602001604051908101604052809291908181526020018280546112ff90612cb1565b801561134c5780601f106113215761010080835404028352916020019161134c565b820191906000526020600020905b81548152906001019060200180831161132f57829003601f168201915b5050509183525050600182015464ffffffffff9081166020830152600283015460408301526003830154606083015260049092015460ff8116608083015261010080820462ffffff1660a0840152600160201b82046001600160501b031660c0840152600160701b820461ffff90811660e0850152600160801b83041690830152600160901b90049091166101209091015292915050565b60018561ffff161180156113fd57506101018561ffff16105b6114495760405162461bcd60e51b815260206004820152601960248201527f696e76616c6964206e756d626572206f66206f7074696f6e73000000000000006044820152606401610b3a565b60016008600082825461145c9190612f60565b909155505060085460009081526007602052604090206003810180546effffffffffffffffffff000000000019166501000000000064ffffffffff8781169190910264ffffffffff60501b191691909117600160501b9186169190910217905560018101805461ffff191661ffff8816179055806114db888a83612fae565b506114ef88886008546000898989896121a8565b5050505050505050565b6000611514600554600f81810b600160801b909204900b0390565b905061151e6124e7565b6000805b83811015611801574283610120015164ffffffffff16108015611550575084836020015164ffffffffff1614155b801561156557508483610100015161ffff1614155b156117fc57611575600582612379565b600081815260096020526040908190208151610140810190925280549294509091829082906115a390612cb1565b80601f01602080910402602001604051908101604052809291908181526020018280546115cf90612cb1565b801561161c5780601f106115f15761010080835404028352916020019161161c565b820191906000526020600020905b8154815290600101906020018083116115ff57829003601f168201915b5050509183525050600182015464ffffffffff9081166020830152600283015460408301526003830154606083015260049092015460ff8116608083015261010080820462ffffff1660a0840152600160201b82046001600160501b031660c0840152600160701b820461ffff90811660e080860191909152600160801b8404821692850192909252600160901b90920490931661012090920191909152871690820152600b549093506116d09042612f60565b64ffffffffff1661012084015282600960006116ed600585612379565b815260208101919091526040016000208151819061170b9082612e8a565b50602082015160018201805464ffffffffff191664ffffffffff928316179055604083015160028301556060830151600383015560808301516004909201805460a085015160c086015160e0870151610100808901516101209099015160ff90981663ffffffff199095169490941762ffffff909316909302919091176fffffffffffffffffffffffff000000001916600160201b6001600160501b039092169190910261ffff60701b191617600160701b61ffff928316021766ffffffffffffff60801b1916600160801b919095160264ffffffffff60901b191693909317600160901b92909116919091021790555b611522565b5060408051858152602081018390527f4babe4b493069d658924ac325d49ee1adfaccbb176319a54499a34417eaf73ee910160405180910390a150505050565b6002546040516331a9108f60e11b81526004810185905233916001600160a01b031690636352211e90602401602060405180830381865afa15801561188a573d6000803e3d6000fd5b505050506040513d601f19601f820116820180604052508101906118ae9190612f91565b6001600160a01b03161480156118df5750600082815260096020526040902060040154600160701b900461ffff1683145b61192b5760405162461bcd60e51b815260206004820181905260248201527f4d757374206265206f776e6572206f662061737369676e65642077697a6172646044820152606401610b3a565b600081511161193957600080fd5b60008281526009602052604081206004810154909190600160801b900461ffff16156119d45760005b83518110156119d25783818151811061197d5761197d612ceb565b602002602001015160405160200161199791815260200190565b604051602081830303815290604052805190602001208482815181106119bf576119bf612ceb565b6020908102919091010152600101611962565b505b6000836040516020016119e79190612d01565b604051602081830303815290604052805190602001209050600081846002015414611a13576000611a16565b60015b600185810154604080518b815264ffffffffff909216602083015281018990526060810185905260ff92909216908114608083015291507fe3f0e138f100deaf328ba1def71c39dade8cd971ba0074d935ee648e54532fae9060a00160405180910390a180600103611d7c576004840154600090611aa690600290600160201b90046001600160501b031661306f565b6002546004878101546040516331a9108f60e11b8152600160701b90910461ffff16918101919091526001600160501b039290921692506000916001600160a01b0390911690636352211e90602401602060405180830381865afa158015611b12573d6000803e3d6000fd5b505050506040513d601f19601f82011682018060405250810190611b369190612f91565b60025460018801546004808a0154604051638ad4d6a560e01b815264ffffffffff90931691830191909152610100900462ffffff1660248201529192506001600160a01b031690638ad4d6a590604401600060405180830381600087803b158015611ba057600080fd5b505af1158015611bb4573d6000803e3d6000fd5b5050600254600489810154600c54604051638ad4d6a560e01b8152600160701b90920461ffff169282019290925260248101919091526001600160a01b039091169250638ad4d6a591506044015b600060405180830381600087803b158015611c1c57600080fd5b505af1158015611c30573d6000803e3d6000fd5b5050506004870180546dffffffffffffffffffff000000001916905550600088815260096020526040812090611c66828261253b565b5060018101805464ffffffffff1916905560006002820181905560038201819055600490910180546001600160b81b031916905560405181906001600160a01b0384169085908381818185875af1925050503d8060008114611ce4576040519150601f19603f3d011682016040523d82523d6000602084013e611ce9565b606091505b509150915081611d0b5760405162461bcd60e51b8152600401610b3a906130a3565b60405133908590600081818185875af1925050503d8060008114611d4b576040519150601f19603f3d011682016040523d82523d6000602084013e611d50565b606091505b50909250905081611d735760405162461bcd60e51b8152600401610b3a906130a3565b50505050610b54565b81846003015403611ef3576004840154600090611dab90600290600160201b90046001600160501b031661306f565b6002546004878101546040516331a9108f60e11b8152600160801b90910461ffff16918101919091526001600160501b039290921692506000916001600160a01b0390911690636352211e90602401602060405180830381865afa158015611e17573d6000803e3d6000fd5b505050506040513d601f19601f82011682018060405250810190611e3b9190612f91565b600254600488810154600c54604051638ad4d6a560e01b8152600160801b90920461ffff169282019290925260248101919091529192506001600160a01b031690638ad4d6a590604401600060405180830381600087803b158015611e9f57600080fd5b505af1158015611eb3573d6000803e3d6000fd5b5050600254600c54604051638ad4d6a560e01b8152600481018e905260248101919091526001600160a01b039091169250638ad4d6a59150604401611c02565b60048401546000878152600960205260408120600160201b9092046001600160501b03169190611f23828261253b565b5060018101805464ffffffffff1916905560006002820181905560038201819055600490910180546001600160b81b031916905580611f6a6001546001600160a01b031690565b6001600160a01b03168360405160006040518083038185875af1925050503d8060008114611fb4576040519150601f19603f3d011682016040523d82523d6000602084013e611fb9565b606091505b509150915081611fdb5760405162461bcd60e51b8152600401610b3a906130a3565b50505050505050505050565b6001546001600160a01b031633146120115760405162461bcd60e51b8152600401610b3a90612d68565b6001600160a01b0381166120765760405162461bcd60e51b815260206004820152602660248201527f4f776e61626c653a206e6577206f776e657220697320746865207a65726f206160448201526564647265737360d01b6064820152608401610b3a565b61207f81612327565b50565b606060085482106120c85760405162461bcd60e51b815260206004820152601060248201526f1b9bc81cdd58da081c1c9bdc1bdcd85b60821b6044820152606401610b3a565b60008281526007602052604081206001015461ffff1667ffffffffffffffff8111156120f6576120f661262f565b60405190808252806020026020018201604052801561211f578160200160208202803683370190505b50905060005b81518110156121a1576000848152600760205260409020600201816008811061215057612150612ceb565b601091828204019190066002029054906101000a900461ffff1682828151811061217c5761217c612ceb565b61ffff909216602092830291909101909101528061219981612f78565b915050612125565b5092915050565b60048054600181018083556000838152919290839081106121cb576121cb612ceb565b600091825260209091206003909102019050600181016121ec8a8c83612fae565b5060008160020160006101000a81548160ff021916908315150217905550878160020160016101000a81548164ffffffffff021916908364ffffffffff160217905550868160020160066101000a81548160ff021916908360ff160217905550858160020160076101000a81548162ffffff021916908362ffffff1602179055508481600201600a6101000a81548164ffffffffff021916908364ffffffffff1602179055508381600201600f6101000a81548164ffffffffff021916908364ffffffffff160217905550828160020160146101000a81548161ffff021916908361ffff1602179055507f2810025950962e3cd71fd98c2dc111ffbdb2a129b36771df8d36a7de2fe3e4e08a8a8a8a8a8a8a8a6040516123139897969594939291906130d1565b60405180910390a150505050505050505050565b600180546001600160a01b038381166001600160a01b0319831681179093556040519116919082907f8be0079c531659141344cd1fd0a4f28419497f9722a3daafe3b4186f6b6457e090600090a35050565b60008061239c612388846123ea565b85546123979190600f0b613140565b612458565b8454909150600160801b9004600f90810b9082900b126123cf57604051632d0483c560e21b815260040160405180910390fd5b600f0b60009081526001939093016020525050604090205490565b60006001600160ff1b038211156124545760405162461bcd60e51b815260206004820152602860248201527f53616665436173743a2076616c756520646f65736e27742066697420696e2061604482015267371034b73a191a9b60c11b6064820152608401610b3a565b5090565b60006f7fffffffffffffffffffffffffffffff19821280159061248b57506f7fffffffffffffffffffffffffffffff8213155b6124545760405162461bcd60e51b815260206004820152602760248201527f53616665436173743a2076616c756520646f65736e27742066697420696e20316044820152663238206269747360c81b6064820152608401610b3a565b6040805161014081018252606080825260006020830181905292820183905281018290526080810182905260a0810182905260c0810182905260e08101829052610100810182905261012081019190915290565b50805461254790612cb1565b6000825580601f10612557575050565b601f01602090049060005260206000209081019061207f91905b808211156124545760008155600101612571565b60006020828403121561259757600080fd5b5035919050565b6000815180845260005b818110156125c4576020818501810151868301820152016125a8565b818111156125d6576000602083870101525b50601f01601f19169290920160200192915050565b60a0815260006125fe60a083018861259e565b61ffff9690961660208301525064ffffffffff93841660408201529183166060830152909116608090910152919050565b634e487b7160e01b600052604160045260246000fd5b604051601f8201601f1916810167ffffffffffffffff8111828210171561266e5761266e61262f565b604052919050565b600082601f83011261268757600080fd5b8135602067ffffffffffffffff8211156126a3576126a361262f565b8160051b6126b2828201612645565b92835284810182019282810190878511156126cc57600080fd5b83870192505b848310156126eb578235825291830191908301906126d2565b979650505050505050565b60008060006060848603121561270b57600080fd5b83359250602084013567ffffffffffffffff81111561272957600080fd5b61273586828701612676565b9250506040840135801515811461274b57600080fd5b809150509250925092565b600061010080835261276a8184018c61259e565b9915156020840152505064ffffffffff968716604082015260ff95909516606086015262ffffff93909316608085015290841660a084015290921660c082015261ffff90911660e090910152919050565b6000602080830181845280855180835260408601915060408160051b870101925083870160005b8281101561281057603f198886030184526127fe85835161259e565b945092850192908501906001016127e2565b5092979650505050505050565b60008083601f84011261282f57600080fd5b50813567ffffffffffffffff81111561284757600080fd5b60208301915083602082850101111561285f57600080fd5b9250929050565b803562ffffff8116811461287957600080fd5b919050565b803564ffffffffff8116811461287957600080fd5b803561ffff8116811461287957600080fd5b600080600080600080600060c0888a0312156128c057600080fd5b873567ffffffffffffffff8111156128d757600080fd5b6128e38a828b0161281d565b909850965050602088013560ff811681146128fd57600080fd5b945061290b60408901612866565b93506129196060890161287e565b92506129276080890161287e565b915061293560a08901612893565b905092959891949750929550565b6000806040838503121561295657600080fd5b50508035926020909101359150565b6001600160a01b038116811461207f57600080fd5b60006020828403121561298c57600080fd5b813561299781612965565b9392505050565b6000806000606084860312156129b357600080fd5b833567ffffffffffffffff808211156129cb57600080fd5b818601915086601f8301126129df57600080fd5b81356020828211156129f3576129f361262f565b612a05601f8301601f19168201612645565b92508183528881838601011115612a1b57600080fd5b8181850182850137600081838501015282965080880135955050505050612a446040850161287e565b90509250925092565b600080600060608486031215612a6257600080fd5b505081359360208301359350604090920135919050565b6000610140808352612a8d8184018e61259e565b64ffffffffff9c8d166020850152604084019b909b525050606081019790975260ff95909516608087015262ffffff9390931660a08601526001600160501b039190911660c085015261ffff90811660e08501521661010083015290921661012090920191909152919050565b6020815260008251610140806020850152612b1961016085018361259e565b91506020850151612b33604086018264ffffffffff169052565b5060408501516060850152606085015160808501526080850151612b5c60a086018260ff169052565b5060a085015162ffffff811660c08601525060c08501516001600160501b03811660e08601525060e0850151610100612b9a8187018361ffff169052565b8601519050610120612bb18682018361ffff169052565b9095015164ffffffffff1693019290925250919050565b600080600080600080600060c0888a031215612be357600080fd5b873567ffffffffffffffff811115612bfa57600080fd5b612c068a828b0161281d565b90985096506128fd905060208901612893565b600080600060608486031215612c2e57600080fd5b8335925060208401359150604084013567ffffffffffffffff811115612c5357600080fd5b612c5f86828701612676565b9150509250925092565b6020808252825182820181905260009190848201906040850190845b81811015612ca557835161ffff1683529284019291840191600101612c85565b50909695505050505050565b600181811c90821680612cc557607f821691505b602082108103612ce557634e487b7160e01b600052602260045260246000fd5b50919050565b634e487b7160e01b600052603260045260246000fd5b815160009082906020808601845b83811015612d2b57815185529382019390820190600101612d0f565b50929695505050505050565b8481528315156020820152826040820152608060608201526000612d5e608083018461259e565b9695505050505050565b6020808252818101527f4f776e61626c653a2063616c6c6572206973206e6f7420746865206f776e6572604082015260600190565b602081526000612997602083018461259e565b6000602080835260008454612dc481612cb1565b80848701526040600180841660008114612de55760018114612dff57612e2d565b60ff1985168984015283151560051b890183019550612e2d565b896000528660002060005b85811015612e255781548b8201860152908301908801612e0a565b8a0184019650505b509398975050505050505050565b601f821115612e8557600081815260208120601f850160051c81016020861015612e625750805b601f850160051c820191505b81811015612e8157828155600101612e6e565b5050505b505050565b815167ffffffffffffffff811115612ea457612ea461262f565b612eb881612eb28454612cb1565b84612e3b565b602080601f831160018114612eed5760008415612ed55750858301515b600019600386901b1c1916600185901b178555612e81565b600085815260208120601f198616915b82811015612f1c57888601518255948401946001909101908401612efd565b5085821015612f3a5787850151600019600388901b60f8161c191681555b5050505050600190811b01905550565b634e487b7160e01b600052601160045260246000fd5b60008219821115612f7357612f73612f4a565b500190565b600060018201612f8a57612f8a612f4a565b5060010190565b600060208284031215612fa357600080fd5b815161299781612965565b67ffffffffffffffff831115612fc657612fc661262f565b612fda83612fd48354612cb1565b83612e3b565b6000601f84116001811461300e5760008515612ff65750838201355b600019600387901b1c1916600186901b178355613068565b600083815260209020601f19861690835b8281101561303f578685013582556020948501946001909201910161301f565b508682101561305c5760001960f88860031b161c19848701351681555b505060018560011b0183555b5050505050565b60006001600160501b038084168061309757634e487b7160e01b600052601260045260246000fd5b92169190910492915050565b6020808252601490820152732330b4b632b2103a379039b2b7321022ba3432b960611b604082015260600190565b60e081528760e08201526000610100898b8285013760008a840182015264ffffffffff988916602084015260ff9790971660408301525062ffffff949094166060850152918516608084015290931660a082015261ffff90921660c0830152601f909201601f19160101919050565b600080821280156001600160ff1b038490038513161561316257613162612f4a565b600160ff1b839003841281161561317b5761317b612f4a565b5050019056fea2646970667358221220a8d4d57692dac8445d7ac48668ac967c50196a9e266c28d50d8ce95bfb44279e64736f6c634300080f0033",
  "bytecodeSha1": "cc0614067093b1527542c96f380d95c9b455ba50",
  "compiler": {
    "evm_version": "istanbul",
    "optimizer": {
      "enabled": true,
      "runs": 200
    },
    "version": "0.8.15+commit.e14f2714"
  },
  "contractName": "Governance",
  "language": "Solidity",
  "natspec": {
    "errors": {
      "OutOfBounds()": [
        {
          "details": "An operation (e.g. {at}) couldn't be completed due to an index being out of bounds."
        }
      ]
    },
    "kind": "dev",
    "methods": {
      "constructor": {
        "details": "Constructor for HOADAO",
        "params": {
          "_nft": "-- contract address for NFTs"
        }
      },
      "owner()": {
        "details": "Returns the address of the current owner."
      },
      "renounceOwnership()": {
        "details": "Leaves the contract without owner. It will not be possible to call `onlyOwner` functions anymore. Can only be called by the current owner. NOTE: Renouncing ownership will leave the contract without an owner, thereby removing any functionality that is only available to the owner."
      },
      "transferOwnership(address)": {
        "details": "Transfers ownership of the contract to a new account (`newOwner`). Can only be called by the current owner."
      }
    },
    "version": 1
  },
  "opcodes": "PUSH1 0x80 PUSH1 0x40 MSTORE PUSH1 0x4 CALLDATASIZE LT PUSH2 0x123 JUMPI PUSH1 0x0 CALLDATALOAD PUSH1 0xE0 SHR DUP1 PUSH4 0x826B8EBD GT PUSH2 0xA0 JUMPI DUP1 PUSH4 0xBECA3A16 GT PUSH2 0x64 JUMPI DUP1 PUSH4 0xBECA3A16 EQ PUSH2 0x3A7 JUMPI DUP1 PUSH4 0xD374A217 EQ PUSH2 0x3C7 JUMPI DUP1 PUSH4 0xF18C51D3 EQ PUSH2 0x3E7 JUMPI DUP1 PUSH4 0xF2FDE38B EQ PUSH2 0x407 JUMPI DUP1 PUSH4 0xFF981099 EQ PUSH2 0x427 JUMPI PUSH1 0x0 DUP1 REVERT JUMPDEST DUP1 PUSH4 0x826B8EBD EQ PUSH2 0x2DC JUMPI DUP1 PUSH4 0x8A6655D6 EQ PUSH2 0x2FC JUMPI DUP1 PUSH4 0x8D977672 EQ PUSH2 0x31C JUMPI DUP1 PUSH4 0x8DA5CB5B EQ PUSH2 0x352 JUMPI DUP1 PUSH4 0x976217CD EQ PUSH2 0x37A JUMPI PUSH1 0x0 DUP1 REVERT JUMPDEST DUP1 PUSH4 0x61F9E9A8 GT PUSH2 0xE7 JUMPI DUP1 PUSH4 0x61F9E9A8 EQ PUSH2 0x221 JUMPI DUP1 PUSH4 0x6215597B EQ PUSH2 0x241 JUMPI DUP1 PUSH4 0x69D03738 EQ PUSH2 0x287 JUMPI DUP1 PUSH4 0x715018A6 EQ PUSH2 0x2A7 JUMPI DUP1 PUSH4 0x72E185CE EQ PUSH2 0x2BC JUMPI PUSH1 0x0 DUP1 REVERT JUMPDEST DUP1 PUSH4 0x13CF08B EQ PUSH2 0x12F JUMPI DUP1 PUSH4 0x9265CE6 EQ PUSH2 0x169 JUMPI DUP1 PUSH4 0x10190EF1 EQ PUSH2 0x18B JUMPI DUP1 PUSH4 0x379D94CC EQ PUSH2 0x1BF JUMPI DUP1 PUSH4 0x551BBE0B EQ PUSH2 0x1FF JUMPI PUSH1 0x0 DUP1 REVERT JUMPDEST CALLDATASIZE PUSH2 0x12A JUMPI STOP JUMPDEST PUSH1 0x0 DUP1 REVERT JUMPDEST CALLVALUE DUP1 ISZERO PUSH2 0x13B JUMPI PUSH1 0x0 DUP1 REVERT JUMPDEST POP PUSH2 0x14F PUSH2 0x14A CALLDATASIZE PUSH1 0x4 PUSH2 0x2585 JUMP JUMPDEST PUSH2 0x454 JUMP JUMPDEST PUSH1 0x40 MLOAD PUSH2 0x160 SWAP6 SWAP5 SWAP4 SWAP3 SWAP2 SWAP1 PUSH2 0x25EB JUMP JUMPDEST PUSH1 0x40 MLOAD DUP1 SWAP2 SUB SWAP1 RETURN JUMPDEST CALLVALUE DUP1 ISZERO PUSH2 0x175 JUMPI PUSH1 0x0 DUP1 REVERT JUMPDEST POP PUSH2 0x189 PUSH2 0x184 CALLDATASIZE PUSH1 0x4 PUSH2 0x26F6 JUMP JUMPDEST PUSH2 0x520 JUMP JUMPDEST STOP JUMPDEST CALLVALUE DUP1 ISZERO PUSH2 0x197 JUMPI PUSH1 0x0 DUP1 REVERT JUMPDEST POP PUSH2 0x1AB PUSH2 0x1A6 CALLDATASIZE PUSH1 0x4 PUSH2 0x2585 JUMP JUMPDEST PUSH2 0x666 JUMP JUMPDEST PUSH1 0x40 MLOAD PUSH2 0x160 SWAP9 SWAP8 SWAP7 SWAP6 SWAP5 SWAP4 SWAP3 SWAP2 SWAP1 PUSH2 0x2756 JUMP JUMPDEST CALLVALUE DUP1 ISZERO PUSH2 0x1CB JUMPI PUSH1 0x0 DUP1 REVERT JUMPDEST POP PUSH1 0x5 SLOAD PUSH2 0x1E5 SWAP1 PUSH1 0xF DUP2 DUP2 SIGNEXTEND SWAP2 PUSH1 0x1 PUSH1 0x80 SHL SWAP1 DIV SWAP1 SIGNEXTEND DUP3 JUMP JUMPDEST PUSH1 0x40 DUP1 MLOAD PUSH1 0xF SWAP4 DUP5 SIGNEXTEND DUP2 MSTORE SWAP2 SWAP1 SWAP3 SIGNEXTEND PUSH1 0x20 DUP3 ADD MSTORE ADD PUSH2 0x160 JUMP JUMPDEST CALLVALUE DUP1 ISZERO PUSH2 0x20B JUMPI PUSH1 0x0 DUP1 REVERT JUMPDEST POP PUSH2 0x214 PUSH2 0x770 JUMP JUMPDEST PUSH1 0x40 MLOAD PUSH2 0x160 SWAP2 SWAP1 PUSH2 0x27BB JUMP JUMPDEST CALLVALUE DUP1 ISZERO PUSH2 0x22D JUMPI PUSH1 0x0 DUP1 REVERT JUMPDEST POP PUSH2 0x189 PUSH2 0x23C CALLDATASIZE PUSH1 0x4 PUSH2 0x28A5 JUMP JUMPDEST PUSH2 0xB35 JUMP JUMPDEST CALLVALUE DUP1 ISZERO PUSH2 0x24D JUMPI PUSH1 0x0 DUP1 REVERT JUMPDEST POP PUSH2 0x279 PUSH2 0x25C CALLDATASIZE PUSH1 0x4 PUSH2 0x2943 JUMP JUMPDEST PUSH1 0x3 PUSH1 0x20 SWAP1 DUP2 MSTORE PUSH1 0x0 SWAP3 DUP4 MSTORE PUSH1 0x40 DUP1 DUP5 KECCAK256 SWAP1 SWAP2 MSTORE SWAP1 DUP3 MSTORE SWAP1 KECCAK256 SLOAD DUP2 JUMP JUMPDEST PUSH1 0x40 MLOAD SWAP1 DUP2 MSTORE PUSH1 0x20 ADD PUSH2 0x160 JUMP JUMPDEST CALLVALUE DUP1 ISZERO PUSH2 0x293 JUMPI PUSH1 0x0 DUP1 REVERT JUMPDEST POP PUSH2 0x189 PUSH2 0x2A2 CALLDATASIZE PUSH1 0x4 PUSH2 0x297A JUMP JUMPDEST PUSH2 0xB5D JUMP JUMPDEST CALLVALUE DUP1 ISZERO PUSH2 0x2B3 JUMPI PUSH1 0x0 DUP1 REVERT JUMPDEST POP PUSH2 0x189 PUSH2 0xBA9 JUMP JUMPDEST CALLVALUE DUP1 ISZERO PUSH2 0x2C8 JUMPI PUSH1 0x0 DUP1 REVERT JUMPDEST POP PUSH2 0x189 PUSH2 0x2D7 CALLDATASIZE PUSH1 0x4 PUSH2 0x299E JUMP JUMPDEST PUSH2 0xBDF JUMP JUMPDEST CALLVALUE DUP1 ISZERO PUSH2 0x2E8 JUMPI PUSH1 0x0 DUP1 REVERT JUMPDEST POP PUSH2 0x279 PUSH2 0x2F7 CALLDATASIZE PUSH1 0x4 PUSH2 0x2585 JUMP JUMPDEST PUSH2 0xF5A JUMP JUMPDEST CALLVALUE DUP1 ISZERO PUSH2 0x308 JUMPI PUSH1 0x0 DUP1 REVERT JUMPDEST POP PUSH2 0x189 PUSH2 0x317 CALLDATASIZE PUSH1 0x4 PUSH2 0x2A4D JUMP JUMPDEST PUSH2 0x1167 JUMP JUMPDEST CALLVALUE DUP1 ISZERO PUSH2 0x328 JUMPI PUSH1 0x0 DUP1 REVERT JUMPDEST POP PUSH2 0x33C PUSH2 0x337 CALLDATASIZE PUSH1 0x4 PUSH2 0x2585 JUMP JUMPDEST PUSH2 0x11A0 JUMP JUMPDEST PUSH1 0x40 MLOAD PUSH2 0x160 SWAP11 SWAP10 SWAP9 SWAP8 SWAP7 SWAP6 SWAP5 SWAP4 SWAP3 SWAP2 SWAP1 PUSH2 0x2A79 JUMP JUMPDEST CALLVALUE DUP1 ISZERO PUSH2 0x35E JUMPI PUSH1 0x0 DUP1 REVERT JUMPDEST POP PUSH1 0x1 SLOAD PUSH1 0x40 MLOAD PUSH1 0x1 PUSH1 0x1 PUSH1 0xA0 SHL SUB SWAP1 SWAP2 AND DUP2 MSTORE PUSH1 0x20 ADD PUSH2 0x160 JUMP JUMPDEST CALLVALUE DUP1 ISZERO PUSH2 0x386 JUMPI PUSH1 0x0 DUP1 REVERT JUMPDEST POP PUSH2 0x39A PUSH2 0x395 CALLDATASIZE PUSH1 0x4 PUSH2 0x2585 JUMP JUMPDEST PUSH2 0x12A2 JUMP JUMPDEST PUSH1 0x40 MLOAD PUSH2 0x160 SWAP2 SWAP1 PUSH2 0x2AFA JUMP JUMPDEST CALLVALUE DUP1 ISZERO PUSH2 0x3B3 JUMPI PUSH1 0x0 DUP1 REVERT JUMPDEST POP PUSH2 0x189 PUSH2 0x3C2 CALLDATASIZE PUSH1 0x4 PUSH2 0x2BC8 JUMP JUMPDEST PUSH2 0x13E4 JUMP JUMPDEST CALLVALUE DUP1 ISZERO PUSH2 0x3D3 JUMPI PUSH1 0x0 DUP1 REVERT JUMPDEST POP PUSH2 0x189 PUSH2 0x3E2 CALLDATASIZE PUSH1 0x4 PUSH2 0x2585 JUMP JUMPDEST PUSH2 0x14F9 JUMP JUMPDEST CALLVALUE DUP1 ISZERO PUSH2 0x3F3 JUMPI PUSH1 0x0 DUP1 REVERT JUMPDEST POP PUSH2 0x189 PUSH2 0x402 CALLDATASIZE PUSH1 0x4 PUSH2 0x2C19 JUMP JUMPDEST PUSH2 0x1841 JUMP JUMPDEST CALLVALUE DUP1 ISZERO PUSH2 0x413 JUMPI PUSH1 0x0 DUP1 REVERT JUMPDEST POP PUSH2 0x189 PUSH2 0x422 CALLDATASIZE PUSH1 0x4 PUSH2 0x297A JUMP JUMPDEST PUSH2 0x1FE7 JUMP JUMPDEST CALLVALUE DUP1 ISZERO PUSH2 0x433 JUMPI PUSH1 0x0 DUP1 REVERT JUMPDEST POP PUSH2 0x447 PUSH2 0x442 CALLDATASIZE PUSH1 0x4 PUSH2 0x2585 JUMP JUMPDEST PUSH2 0x2082 JUMP JUMPDEST PUSH1 0x40 MLOAD PUSH2 0x160 SWAP2 SWAP1 PUSH2 0x2C69 JUMP JUMPDEST PUSH1 0x7 PUSH1 0x20 MSTORE PUSH1 0x0 SWAP1 DUP2 MSTORE PUSH1 0x40 SWAP1 KECCAK256 DUP1 SLOAD DUP2 SWAP1 PUSH2 0x46F SWAP1 PUSH2 0x2CB1 JUMP JUMPDEST DUP1 PUSH1 0x1F ADD PUSH1 0x20 DUP1 SWAP2 DIV MUL PUSH1 0x20 ADD PUSH1 0x40 MLOAD SWAP1 DUP2 ADD PUSH1 0x40 MSTORE DUP1 SWAP3 SWAP2 SWAP1 DUP2 DUP2 MSTORE PUSH1 0x20 ADD DUP3 DUP1 SLOAD PUSH2 0x49B SWAP1 PUSH2 0x2CB1 JUMP JUMPDEST DUP1 ISZERO PUSH2 0x4E8 JUMPI DUP1 PUSH1 0x1F LT PUSH2 0x4BD JUMPI PUSH2 0x100 DUP1 DUP4 SLOAD DIV MUL DUP4 MSTORE SWAP2 PUSH1 0x20 ADD SWAP2 PUSH2 0x4E8 JUMP JUMPDEST DUP3 ADD SWAP2 SWAP1 PUSH1 0x0 MSTORE PUSH1 0x20 PUSH1 0x0 KECCAK256 SWAP1 JUMPDEST DUP2 SLOAD DUP2 MSTORE SWAP1 PUSH1 0x1 ADD SWAP1 PUSH1 0x20 ADD DUP1 DUP4 GT PUSH2 0x4CB JUMPI DUP3 SWAP1 SUB PUSH1 0x1F AND DUP3 ADD SWAP2 JUMPDEST POP POP POP POP PUSH1 0x1 DUP4 ADD SLOAD PUSH1 0x3 SWAP1 SWAP4 ADD SLOAD SWAP2 SWAP3 PUSH2 0xFFFF AND SWAP2 PUSH5 0xFFFFFFFFFF DUP1 DUP3 AND SWAP3 POP PUSH6 0x10000000000 DUP3 DIV DUP2 AND SWAP2 PUSH1 0x1 PUSH1 0x50 SHL SWAP1 DIV AND DUP6 JUMP JUMPDEST PUSH1 0x0 DUP3 PUSH1 0x0 DUP2 MLOAD DUP2 LT PUSH2 0x535 JUMPI PUSH2 0x535 PUSH2 0x2CEB JUMP JUMPDEST PUSH1 0x20 MUL PUSH1 0x20 ADD ADD MLOAD PUSH1 0x40 MLOAD PUSH1 0x20 ADD PUSH2 0x54F SWAP2 DUP2 MSTORE PUSH1 0x20 ADD SWAP1 JUMP JUMPDEST PUSH1 0x40 MLOAD PUSH1 0x20 DUP2 DUP4 SUB SUB DUP2 MSTORE SWAP1 PUSH1 0x40 MSTORE SWAP1 POP DUP2 ISZERO PUSH2 0x5DB JUMPI PUSH1 0x0 JUMPDEST DUP4 MLOAD DUP2 LT ISZERO PUSH2 0x5D9 JUMPI DUP4 DUP2 DUP2 MLOAD DUP2 LT PUSH2 0x584 JUMPI PUSH2 0x584 PUSH2 0x2CEB JUMP JUMPDEST PUSH1 0x20 MUL PUSH1 0x20 ADD ADD MLOAD PUSH1 0x40 MLOAD PUSH1 0x20 ADD PUSH2 0x59E SWAP2 DUP2 MSTORE PUSH1 0x20 ADD SWAP1 JUMP JUMPDEST PUSH1 0x40 MLOAD PUSH1 0x20 DUP2 DUP4 SUB SUB DUP2 MSTORE SWAP1 PUSH1 0x40 MSTORE DUP1 MLOAD SWAP1 PUSH1 0x20 ADD KECCAK256 DUP5 DUP3 DUP2 MLOAD DUP2 LT PUSH2 0x5C6 JUMPI PUSH2 0x5C6 PUSH2 0x2CEB JUMP JUMPDEST PUSH1 0x20 SWAP1 DUP2 MUL SWAP2 SWAP1 SWAP2 ADD ADD MSTORE PUSH1 0x1 ADD PUSH2 0x569 JUMP JUMPDEST POP JUMPDEST PUSH1 0x0 DUP4 PUSH1 0x40 MLOAD PUSH1 0x20 ADD PUSH2 0x5EE SWAP2 SWAP1 PUSH2 0x2D01 JUMP JUMPDEST PUSH1 0x40 MLOAD PUSH1 0x20 DUP2 DUP4 SUB SUB DUP2 MSTORE SWAP1 PUSH1 0x40 MSTORE DUP1 MLOAD SWAP1 PUSH1 0x20 ADD KECCAK256 SWAP1 POP PUSH32 0x637CE8D069E382E64EF71CF191623B88C7E307CE252E908E7F2BABBAD0CB81EA DUP2 DUP7 DUP4 EQ DUP7 PUSH1 0x0 DUP2 MLOAD DUP2 LT PUSH2 0x63E JUMPI PUSH2 0x63E PUSH2 0x2CEB JUMP JUMPDEST PUSH1 0x20 MUL PUSH1 0x20 ADD ADD MLOAD DUP6 PUSH1 0x40 MLOAD PUSH2 0x657 SWAP5 SWAP4 SWAP3 SWAP2 SWAP1 PUSH2 0x2D37 JUMP JUMPDEST PUSH1 0x40 MLOAD DUP1 SWAP2 SUB SWAP1 LOG1 POP POP POP POP POP JUMP JUMPDEST PUSH1 0x4 DUP2 DUP2 SLOAD DUP2 LT PUSH2 0x676 JUMPI PUSH1 0x0 DUP1 REVERT JUMPDEST SWAP1 PUSH1 0x0 MSTORE PUSH1 0x20 PUSH1 0x0 KECCAK256 SWAP1 PUSH1 0x3 MUL ADD PUSH1 0x0 SWAP2 POP SWAP1 POP DUP1 PUSH1 0x1 ADD DUP1 SLOAD PUSH2 0x699 SWAP1 PUSH2 0x2CB1 JUMP JUMPDEST DUP1 PUSH1 0x1F ADD PUSH1 0x20 DUP1 SWAP2 DIV MUL PUSH1 0x20 ADD PUSH1 0x40 MLOAD SWAP1 DUP2 ADD PUSH1 0x40 MSTORE DUP1 SWAP3 SWAP2 SWAP1 DUP2 DUP2 MSTORE PUSH1 0x20 ADD DUP3 DUP1 SLOAD PUSH2 0x6C5 SWAP1 PUSH2 0x2CB1 JUMP JUMPDEST DUP1 ISZERO PUSH2 0x712 JUMPI DUP1 PUSH1 0x1F LT PUSH2 0x6E7 JUMPI PUSH2 0x100 DUP1 DUP4 SLOAD DIV MUL DUP4 MSTORE SWAP2 PUSH1 0x20 ADD SWAP2 PUSH2 0x712 JUMP JUMPDEST DUP3 ADD SWAP2 SWAP1 PUSH1 0x0 MSTORE PUSH1 0x20 PUSH1 0x0 KECCAK256 SWAP1 JUMPDEST DUP2 SLOAD DUP2 MSTORE SWAP1 PUSH1 0x1 ADD SWAP1 PUSH1 0x20 ADD DUP1 DUP4 GT PUSH2 0x6F5 JUMPI DUP3 SWAP1 SUB PUSH1 0x1F AND DUP3 ADD SWAP2 JUMPDEST POP POP POP PUSH1 0x2 SWAP1 SWAP4 ADD SLOAD SWAP2 SWAP3 POP POP PUSH1 0xFF DUP1 DUP3 AND SWAP2 PUSH5 0xFFFFFFFFFF PUSH2 0x100 DUP3 DIV DUP2 AND SWAP3 PUSH7 0x1000000000000 DUP4 DIV AND SWAP2 PUSH3 0xFFFFFF PUSH1 0x1 PUSH1 0x38 SHL DUP3 DIV AND SWAP2 PUSH1 0x1 PUSH1 0x50 SHL DUP3 DIV DUP2 AND SWAP2 PUSH1 0x1 PUSH1 0x78 SHL DUP2 DIV SWAP1 SWAP2 AND SWAP1 PUSH2 0xFFFF PUSH1 0x1 PUSH1 0xA0 SHL SWAP1 SWAP2 DIV AND DUP9 JUMP JUMPDEST PUSH1 0x60 PUSH1 0x0 DUP1 JUMPDEST PUSH1 0x4 SLOAD DUP2 LT ISZERO PUSH2 0x8F9 JUMPI TIMESTAMP PUSH1 0x4 DUP3 DUP2 SLOAD DUP2 LT PUSH2 0x794 JUMPI PUSH2 0x794 PUSH2 0x2CEB JUMP JUMPDEST PUSH1 0x0 SWAP2 DUP3 MSTORE PUSH1 0x20 DUP1 DUP4 KECCAK256 CALLER DUP5 MSTORE PUSH1 0x3 SWAP1 SWAP3 MUL SWAP1 SWAP2 ADD SWAP1 MSTORE PUSH1 0x40 SWAP1 KECCAK256 SLOAD LT DUP1 ISZERO PUSH2 0x7F1 JUMPI POP TIMESTAMP PUSH1 0x4 DUP3 DUP2 SLOAD DUP2 LT PUSH2 0x7CC JUMPI PUSH2 0x7CC PUSH2 0x2CEB JUMP JUMPDEST PUSH1 0x0 SWAP2 DUP3 MSTORE PUSH1 0x20 SWAP1 SWAP2 KECCAK256 PUSH1 0x3 SWAP1 SWAP2 MUL ADD PUSH1 0x2 ADD SLOAD PUSH1 0x1 PUSH1 0x50 SHL SWAP1 DIV PUSH5 0xFFFFFFFFFF AND GT ISZERO JUMPDEST DUP1 ISZERO PUSH2 0x830 JUMPI POP TIMESTAMP PUSH1 0x4 DUP3 DUP2 SLOAD DUP2 LT PUSH2 0x80C JUMPI PUSH2 0x80C PUSH2 0x2CEB JUMP JUMPDEST PUSH1 0x0 SWAP2 DUP3 MSTORE PUSH1 0x20 SWAP1 SWAP2 KECCAK256 PUSH1 0x3 SWAP1 SWAP2 MUL ADD PUSH1 0x2 ADD SLOAD PUSH1 0x1 PUSH1 0x78 SHL SWAP1 DIV PUSH5 0xFFFFFFFFFF AND GT JUMPDEST DUP1 ISZERO PUSH2 0x86D JUMPI POP PUSH1 0x1 PUSH1 0x4 DUP3 DUP2 SLOAD DUP2 LT PUSH2 0x84C JUMPI PUSH2 0x84C PUSH2 0x2CEB JUMP JUMPDEST PUSH1 0x0 SWAP2 DUP3 MSTORE PUSH1 0x20 SWAP1 SWAP2 KECCAK256 PUSH1 0x3 SWAP1 SWAP2 MUL ADD PUSH1 0x2 ADD SLOAD PUSH1 0x1 PUSH1 0xA0 SHL SWAP1 DIV PUSH2 0xFFFF AND GT JUMPDEST ISZERO PUSH2 0x87D JUMPI DUP2 PUSH1 0x1 ADD SWAP2 POP PUSH2 0x8F1 JUMP JUMPDEST PUSH1 0x40 DUP1 MLOAD PUSH1 0x1 DUP1 DUP3 MSTORE DUP2 DUP4 ADD SWAP1 SWAP3 MSTORE PUSH1 0x0 SWAP2 DUP2 PUSH1 0x20 ADD JUMPDEST PUSH1 0x60 DUP2 MSTORE PUSH1 0x20 ADD SWAP1 PUSH1 0x1 SWAP1 SUB SWAP1 DUP2 PUSH2 0x894 JUMPI SWAP1 POP POP SWAP1 POP PUSH1 0x40 MLOAD DUP1 PUSH1 0x40 ADD PUSH1 0x40 MSTORE DUP1 PUSH1 0x8 DUP2 MSTORE PUSH1 0x20 ADD PUSH8 0x273790363AB1B597 PUSH1 0xC1 SHL DUP2 MSTORE POP DUP2 PUSH1 0x0 DUP2 MLOAD DUP2 LT PUSH2 0x8DF JUMPI PUSH2 0x8DF PUSH2 0x2CEB JUMP JUMPDEST PUSH1 0x20 SWAP1 DUP2 MUL SWAP2 SWAP1 SWAP2 ADD ADD MSTORE SWAP4 SWAP3 POP POP POP JUMP JUMPDEST PUSH1 0x1 ADD PUSH2 0x776 JUMP JUMPDEST POP PUSH1 0x0 DUP2 PUSH8 0xFFFFFFFFFFFFFFFF DUP2 GT ISZERO PUSH2 0x915 JUMPI PUSH2 0x915 PUSH2 0x262F JUMP JUMPDEST PUSH1 0x40 MLOAD SWAP1 DUP1 DUP3 MSTORE DUP1 PUSH1 0x20 MUL PUSH1 0x20 ADD DUP3 ADD PUSH1 0x40 MSTORE DUP1 ISZERO PUSH2 0x948 JUMPI DUP2 PUSH1 0x20 ADD JUMPDEST PUSH1 0x60 DUP2 MSTORE PUSH1 0x20 ADD SWAP1 PUSH1 0x1 SWAP1 SUB SWAP1 DUP2 PUSH2 0x933 JUMPI SWAP1 POP JUMPDEST POP SWAP1 POP PUSH1 0x0 DUP1 JUMPDEST PUSH1 0x4 SLOAD DUP2 LT ISZERO PUSH2 0xB2C JUMPI TIMESTAMP PUSH1 0x4 DUP3 DUP2 SLOAD DUP2 LT PUSH2 0x96D JUMPI PUSH2 0x96D PUSH2 0x2CEB JUMP JUMPDEST PUSH1 0x0 SWAP2 DUP3 MSTORE PUSH1 0x20 DUP1 DUP4 KECCAK256 CALLER DUP5 MSTORE PUSH1 0x3 SWAP1 SWAP3 MUL SWAP1 SWAP2 ADD SWAP1 MSTORE PUSH1 0x40 SWAP1 KECCAK256 SLOAD LT DUP1 ISZERO PUSH2 0x9CA JUMPI POP TIMESTAMP PUSH1 0x4 DUP3 DUP2 SLOAD DUP2 LT PUSH2 0x9A5 JUMPI PUSH2 0x9A5 PUSH2 0x2CEB JUMP JUMPDEST PUSH1 0x0 SWAP2 DUP3 MSTORE PUSH1 0x20 SWAP1 SWAP2 KECCAK256 PUSH1 0x3 SWAP1 SWAP2 MUL ADD PUSH1 0x2 ADD SLOAD PUSH1 0x1 PUSH1 0x50 SHL SWAP1 DIV PUSH5 0xFFFFFFFFFF AND GT ISZERO JUMPDEST DUP1 ISZERO PUSH2 0xA09 JUMPI POP TIMESTAMP PUSH1 0x4 DUP3 DUP2 SLOAD DUP2 LT PUSH2 0x9E5 JUMPI PUSH2 0x9E5 PUSH2 0x2CEB JUMP JUMPDEST PUSH1 0x0 SWAP2 DUP3 MSTORE PUSH1 0x20 SWAP1 SWAP2 KECCAK256 PUSH1 0x3 SWAP1 SWAP2 MUL ADD PUSH1 0x2 ADD SLOAD PUSH1 0x1 PUSH1 0x78 SHL SWAP1 DIV PUSH5 0xFFFFFFFFFF AND GT JUMPDEST DUP1 ISZERO PUSH2 0xA46 JUMPI POP PUSH1 0x1 PUSH1 0x4 DUP3 DUP2 SLOAD DUP2 LT PUSH2 0xA25 JUMPI PUSH2 0xA25 PUSH2 0x2CEB JUMP JUMPDEST PUSH1 0x0 SWAP2 DUP3 MSTORE PUSH1 0x20 SWAP1 SWAP2 KECCAK256 PUSH1 0x3 SWAP1 SWAP2 MUL ADD PUSH1 0x2 ADD SLOAD PUSH1 0x1 PUSH1 0xA0 SHL SWAP1 DIV PUSH2 0xFFFF AND GT JUMPDEST ISZERO PUSH2 0xB24 JUMPI PUSH1 0x4 DUP2 DUP2 SLOAD DUP2 LT PUSH2 0xA5E JUMPI PUSH2 0xA5E PUSH2 0x2CEB JUMP JUMPDEST SWAP1 PUSH1 0x0 MSTORE PUSH1 0x20 PUSH1 0x0 KECCAK256 SWAP1 PUSH1 0x3 MUL ADD PUSH1 0x1 ADD DUP1 SLOAD PUSH2 0xA7A SWAP1 PUSH2 0x2CB1 JUMP JUMPDEST DUP1 PUSH1 0x1F ADD PUSH1 0x20 DUP1 SWAP2 DIV MUL PUSH1 0x20 ADD PUSH1 0x40 MLOAD SWAP1 DUP2 ADD PUSH1 0x40 MSTORE DUP1 SWAP3 SWAP2 SWAP1 DUP2 DUP2 MSTORE PUSH1 0x20 ADD DUP3 DUP1 SLOAD PUSH2 0xAA6 SWAP1 PUSH2 0x2CB1 JUMP JUMPDEST DUP1 ISZERO PUSH2 0xAF3 JUMPI DUP1 PUSH1 0x1F LT PUSH2 0xAC8 JUMPI PUSH2 0x100 DUP1 DUP4 SLOAD DIV MUL DUP4 MSTORE SWAP2 PUSH1 0x20 ADD SWAP2 PUSH2 0xAF3 JUMP JUMPDEST DUP3 ADD SWAP2 SWAP1 PUSH1 0x0 MSTORE PUSH1 0x20 PUSH1 0x0 KECCAK256 SWAP1 JUMPDEST DUP2 SLOAD DUP2 MSTORE SWAP1 PUSH1 0x1 ADD SWAP1 PUSH1 0x20 ADD DUP1 DUP4 GT PUSH2 0xAD6 JUMPI DUP3 SWAP1 SUB PUSH1 0x1F AND DUP3 ADD SWAP2 JUMPDEST POP POP POP POP POP DUP4 DUP3 DUP2 MLOAD DUP2 LT PUSH2 0xB0A JUMPI PUSH2 0xB0A PUSH2 0x2CEB JUMP JUMPDEST PUSH1 0x20 MUL PUSH1 0x20 ADD ADD DUP2 SWAP1 MSTORE POP DUP2 PUSH1 0x1 ADD SWAP2 POP DUP4 DUP3 LT ISZERO PUSH2 0xB2C JUMPI JUMPDEST PUSH1 0x1 ADD PUSH2 0x94F JUMP JUMPDEST POP SWAP1 SWAP4 SWAP3 POP POP POP JUMP JUMPDEST PUSH2 0xB43 JUMP JUMPDEST PUSH1 0x40 MLOAD DUP1 SWAP2 SUB SWAP1 REVERT JUMPDEST PUSH2 0xB54 DUP8 DUP8 PUSH1 0x0 DUP9 DUP9 DUP9 DUP9 DUP9 PUSH2 0x21A8 JUMP JUMPDEST POP POP POP POP POP POP POP JUMP JUMPDEST PUSH1 0x1 SLOAD PUSH1 0x1 PUSH1 0x1 PUSH1 0xA0 SHL SUB AND CALLER EQ PUSH2 0xB87 JUMPI PUSH1 0x40 MLOAD PUSH3 0x461BCD PUSH1 0xE5 SHL DUP2 MSTORE PUSH1 0x4 ADD PUSH2 0xB3A SWAP1 PUSH2 0x2D68 JUMP JUMPDEST PUSH1 0x2 DUP1 SLOAD PUSH1 0x1 PUSH1 0x1 PUSH1 0xA0 SHL SUB NOT AND PUSH1 0x1 PUSH1 0x1 PUSH1 0xA0 SHL SUB SWAP3 SWAP1 SWAP3 AND SWAP2 SWAP1 SWAP2 OR SWAP1 SSTORE JUMP JUMPDEST PUSH1 0x1 SLOAD PUSH1 0x1 PUSH1 0x1 PUSH1 0xA0 SHL SUB AND CALLER EQ PUSH2 0xBD3 JUMPI PUSH1 0x40 MLOAD PUSH3 0x461BCD PUSH1 0xE5 SHL DUP2 MSTORE PUSH1 0x4 ADD PUSH2 0xB3A SWAP1 PUSH2 0x2D68 JUMP JUMPDEST PUSH2 0xBDD PUSH1 0x0 PUSH2 0x2327 JUMP JUMPDEST JUMP JUMPDEST PUSH1 0x0 JUMPDEST PUSH1 0x4 SLOAD DUP2 LT ISZERO PUSH2 0xF54 JUMPI DUP4 PUSH1 0x40 MLOAD PUSH1 0x20 ADD PUSH2 0xBFD SWAP2 SWAP1 PUSH2 0x2D9D JUMP JUMPDEST PUSH1 0x40 MLOAD PUSH1 0x20 DUP2 DUP4 SUB SUB DUP2 MSTORE SWAP1 PUSH1 0x40 MSTORE DUP1 MLOAD SWAP1 PUSH1 0x20 ADD KECCAK256 PUSH1 0x4 DUP3 DUP2 SLOAD DUP2 LT PUSH2 0xC26 JUMPI PUSH2 0xC26 PUSH2 0x2CEB JUMP JUMPDEST SWAP1 PUSH1 0x0 MSTORE PUSH1 0x20 PUSH1 0x0 KECCAK256 SWAP1 PUSH1 0x3 MUL ADD PUSH1 0x1 ADD PUSH1 0x40 MLOAD PUSH1 0x20 ADD PUSH2 0xC47 SWAP2 SWAP1 PUSH2 0x2DB0 JUMP JUMPDEST PUSH1 0x40 MLOAD PUSH1 0x20 DUP2 DUP4 SUB SUB DUP2 MSTORE SWAP1 PUSH1 0x40 MSTORE DUP1 MLOAD SWAP1 PUSH1 0x20 ADD KECCAK256 SUB PUSH2 0xF42 JUMPI TIMESTAMP PUSH1 0x4 DUP3 DUP2 SLOAD DUP2 LT PUSH2 0xC76 JUMPI PUSH2 0xC76 PUSH2 0x2CEB JUMP JUMPDEST PUSH1 0x0 SWAP2 DUP3 MSTORE PUSH1 0x20 SWAP1 SWAP2 KECCAK256 PUSH1 0x3 SWAP1 SWAP2 MUL ADD PUSH1 0x2 ADD SLOAD PUSH1 0x1 PUSH1 0x50 SHL SWAP1 DIV PUSH5 0xFFFFFFFFFF AND GT DUP1 ISZERO SWAP1 PUSH2 0xCDA JUMPI POP PUSH1 0x4 DUP2 DUP2 SLOAD DUP2 LT PUSH2 0xCB4 JUMPI PUSH2 0xCB4 PUSH2 0x2CEB JUMP JUMPDEST PUSH1 0x0 SWAP2 DUP3 MSTORE PUSH1 0x20 SWAP1 SWAP2 KECCAK256 PUSH1 0x3 SWAP1 SWAP2 MUL ADD PUSH1 0x2 ADD SLOAD PUSH1 0x1 PUSH1 0x78 SHL SWAP1 DIV PUSH5 0xFFFFFFFFFF AND TIMESTAMP GT ISZERO JUMPDEST PUSH2 0xD1C JUMPI PUSH1 0x40 MLOAD PUSH3 0x461BCD PUSH1 0xE5 SHL DUP2 MSTORE PUSH1 0x20 PUSH1 0x4 DUP3 ADD MSTORE PUSH1 0x13 PUSH1 0x24 DUP3 ADD MSTORE PUSH19 0x13DD5D1CDA5919481D1A5B59481C195C9A5BD9 PUSH1 0x6A SHL PUSH1 0x44 DUP3 ADD MSTORE PUSH1 0x64 ADD PUSH2 0xB3A JUMP JUMPDEST PUSH1 0x0 PUSH1 0x40 MLOAD DUP1 PUSH2 0x140 ADD PUSH1 0x40 MSTORE DUP1 DUP7 DUP2 MSTORE PUSH1 0x20 ADD DUP5 PUSH5 0xFFFFFFFFFF AND DUP2 MSTORE PUSH1 0x20 ADD DUP6 DUP2 MSTORE PUSH1 0x20 ADD PUSH1 0x0 DUP1 SHL DUP2 MSTORE PUSH1 0x20 ADD PUSH1 0x4 DUP5 DUP2 SLOAD DUP2 LT PUSH2 0xD5F JUMPI PUSH2 0xD5F PUSH2 0x2CEB JUMP JUMPDEST SWAP1 PUSH1 0x0 MSTORE PUSH1 0x20 PUSH1 0x0 KECCAK256 SWAP1 PUSH1 0x3 MUL ADD PUSH1 0x2 ADD PUSH1 0x6 SWAP1 SLOAD SWAP1 PUSH2 0x100 EXP SWAP1 DIV PUSH1 0xFF AND PUSH1 0xFF AND DUP2 MSTORE PUSH1 0x20 ADD PUSH1 0x4 DUP5 DUP2 SLOAD DUP2 LT PUSH2 0xD99 JUMPI PUSH2 0xD99 PUSH2 0x2CEB JUMP JUMPDEST PUSH1 0x0 SWAP2 DUP3 MSTORE PUSH1 0x20 DUP1 DUP4 KECCAK256 PUSH1 0x3 SWAP3 SWAP1 SWAP3 MUL SWAP1 SWAP2 ADD PUSH1 0x2 ADD SLOAD PUSH1 0x1 PUSH1 0x38 SHL SWAP1 DIV PUSH3 0xFFFFFF AND DUP4 MSTORE DUP3 DUP2 ADD DUP3 SWAP1 MSTORE PUSH1 0x40 DUP1 DUP5 ADD DUP4 SWAP1 MSTORE PUSH1 0x60 DUP5 ADD DUP4 SWAP1 MSTORE PUSH1 0x80 SWAP1 SWAP4 ADD DUP3 SWAP1 MSTORE PUSH1 0xA SLOAD PUSH1 0x5 DUP1 SLOAD PUSH1 0x1 PUSH1 0x80 SHL SWAP1 DUP2 SWAP1 DIV PUSH1 0xF SIGNEXTEND DUP1 DUP7 MSTORE PUSH1 0x6 DUP6 MSTORE DUP7 DUP7 KECCAK256 DUP5 SWAP1 SSTORE DUP3 SLOAD PUSH16 0xFFFFFFFFFFFFFFFFFFFFFFFFFFFFFFFF SWAP1 DUP2 AND PUSH1 0x1 SWAP1 SWAP3 ADD AND SWAP1 SWAP2 MUL OR SWAP1 SSTORE DUP3 MSTORE PUSH1 0x9 SWAP1 MSTORE KECCAK256 DUP2 MLOAD SWAP2 SWAP3 POP DUP3 SWAP2 DUP2 SWAP1 PUSH2 0xE37 SWAP1 DUP3 PUSH2 0x2E8A JUMP JUMPDEST POP PUSH1 0x20 DUP3 ADD MLOAD PUSH1 0x1 DUP3 DUP2 ADD DUP1 SLOAD PUSH5 0xFFFFFFFFFF NOT AND PUSH5 0xFFFFFFFFFF SWAP4 DUP5 AND OR SWAP1 SSTORE PUSH1 0x40 DUP5 ADD MLOAD PUSH1 0x2 DUP5 ADD SSTORE PUSH1 0x60 DUP5 ADD MLOAD PUSH1 0x3 DUP5 ADD SSTORE PUSH1 0x80 DUP5 ADD MLOAD PUSH1 0x4 SWAP1 SWAP4 ADD DUP1 SLOAD PUSH1 0xA0 DUP7 ADD MLOAD PUSH1 0xC0 DUP8 ADD MLOAD PUSH1 0xE0 DUP9 ADD MLOAD PUSH2 0x100 DUP1 DUP11 ADD MLOAD PUSH2 0x120 SWAP1 SWAP11 ADD MLOAD PUSH1 0xFF SWAP1 SWAP10 AND PUSH4 0xFFFFFFFF NOT SWAP1 SWAP6 AND SWAP5 SWAP1 SWAP5 OR PUSH3 0xFFFFFF SWAP1 SWAP4 AND SWAP1 SWAP4 MUL SWAP2 SWAP1 SWAP2 OR PUSH16 0xFFFFFFFFFFFFFFFFFFFFFFFF00000000 NOT AND PUSH1 0x1 PUSH1 0x20 SHL PUSH1 0x1 PUSH1 0x1 PUSH1 0x50 SHL SUB SWAP1 SWAP3 AND SWAP2 SWAP1 SWAP2 MUL PUSH2 0xFFFF PUSH1 0x70 SHL NOT AND OR PUSH1 0x1 PUSH1 0x70 SHL PUSH2 0xFFFF SWAP3 DUP4 AND MUL OR PUSH7 0xFFFFFFFFFFFFFF PUSH1 0x80 SHL NOT AND PUSH1 0x1 PUSH1 0x80 SHL SWAP2 SWAP1 SWAP7 AND MUL PUSH5 0xFFFFFFFFFF PUSH1 0x90 SHL NOT AND SWAP5 SWAP1 SWAP5 OR PUSH1 0x1 PUSH1 0x90 SHL SWAP4 SWAP1 SWAP3 AND SWAP3 SWAP1 SWAP3 MUL OR SWAP1 SWAP2 SSTORE PUSH1 0xA DUP1 SLOAD PUSH1 0x0 SWAP1 PUSH2 0xF3B SWAP1 DUP5 SWAP1 PUSH2 0x2F60 JUMP JUMPDEST SWAP1 SWAP2 SSTORE POP POP POP JUMPDEST DUP1 PUSH2 0xF4C DUP2 PUSH2 0x2F78 JUMP JUMPDEST SWAP2 POP POP PUSH2 0xBE2 JUMP JUMPDEST POP POP POP POP JUMP JUMPDEST PUSH1 0x0 PUSH1 0x8 SLOAD DUP3 LT PUSH2 0xFA0 JUMPI PUSH1 0x40 MLOAD PUSH3 0x461BCD PUSH1 0xE5 SHL DUP2 MSTORE PUSH1 0x20 PUSH1 0x4 DUP3 ADD MSTORE PUSH1 0x10 PUSH1 0x24 DUP3 ADD MSTORE PUSH16 0x1B9BC81CDD58DA081C1C9BDC1BDCD85B PUSH1 0x82 SHL PUSH1 0x44 DUP3 ADD MSTORE PUSH1 0x64 ADD PUSH2 0xB3A JUMP JUMPDEST PUSH1 0x0 DUP3 DUP2 MSTORE PUSH1 0x7 PUSH1 0x20 MSTORE PUSH1 0x40 SWAP1 KECCAK256 PUSH1 0x3 ADD SLOAD PUSH1 0x1 PUSH1 0x50 SHL SWAP1 DIV PUSH5 0xFFFFFFFFFF AND TIMESTAMP GT PUSH2 0x1004 JUMPI PUSH1 0x40 MLOAD PUSH3 0x461BCD PUSH1 0xE5 SHL DUP2 MSTORE PUSH1 0x20 PUSH1 0x4 DUP3 ADD MSTORE PUSH1 0x13 PUSH1 0x24 DUP3 ADD MSTORE PUSH19 0x766F74696E67207374696C6C20616374697665 PUSH1 0x68 SHL PUSH1 0x44 DUP3 ADD MSTORE PUSH1 0x64 ADD PUSH2 0xB3A JUMP JUMPDEST PUSH1 0x0 DUP1 PUSH1 0x0 DUP1 JUMPDEST PUSH1 0x0 DUP7 DUP2 MSTORE PUSH1 0x7 PUSH1 0x20 MSTORE PUSH1 0x40 SWAP1 KECCAK256 PUSH1 0x1 ADD SLOAD PUSH2 0xFFFF AND DUP2 LT ISZERO PUSH2 0x1125 JUMPI PUSH1 0x0 DUP7 DUP2 MSTORE PUSH1 0x7 PUSH1 0x20 MSTORE PUSH1 0x40 SWAP1 KECCAK256 DUP4 SWAP1 PUSH1 0x2 ADD DUP3 PUSH1 0x8 DUP2 LT PUSH2 0x104C JUMPI PUSH2 0x104C PUSH2 0x2CEB JUMP JUMPDEST PUSH1 0x10 SWAP2 DUP3 DUP3 DIV ADD SWAP2 SWAP1 MOD PUSH1 0x2 MUL SWAP1 SLOAD SWAP1 PUSH2 0x100 EXP SWAP1 DIV PUSH2 0xFFFF AND PUSH2 0xFFFF AND GT ISZERO PUSH2 0x10C7 JUMPI PUSH1 0x0 DUP7 DUP2 MSTORE PUSH1 0x7 PUSH1 0x20 MSTORE PUSH1 0x40 SWAP1 KECCAK256 PUSH1 0x2 ADD DUP2 PUSH1 0x8 DUP2 LT PUSH2 0x1092 JUMPI PUSH2 0x1092 PUSH2 0x2CEB JUMP JUMPDEST PUSH1 0x10 SWAP2 DUP3 DUP3 DIV ADD SWAP2 SWAP1 MOD PUSH1 0x2 MUL SWAP1 SLOAD SWAP1 PUSH2 0x100 EXP SWAP1 DIV PUSH2 0xFFFF AND PUSH2 0xFFFF AND SWAP3 POP DUP1 SWAP4 POP DUP2 PUSH1 0x1 SUB PUSH2 0x10C2 JUMPI PUSH1 0x0 SWAP2 POP JUMPDEST PUSH2 0x1113 JUMP JUMPDEST PUSH1 0x0 DUP7 DUP2 MSTORE PUSH1 0x7 PUSH1 0x20 MSTORE PUSH1 0x40 SWAP1 KECCAK256 DUP4 SWAP1 PUSH1 0x2 ADD DUP3 PUSH1 0x8 DUP2 LT PUSH2 0x10EB JUMPI PUSH2 0x10EB PUSH2 0x2CEB JUMP JUMPDEST PUSH1 0x10 SWAP2 DUP3 DUP3 DIV ADD SWAP2 SWAP1 MOD PUSH1 0x2 MUL SWAP1 SLOAD SWAP1 PUSH2 0x100 EXP SWAP1 DIV PUSH2 0xFFFF AND PUSH2 0xFFFF AND SUB PUSH2 0x1113 JUMPI PUSH1 0x1 SWAP2 POP JUMPDEST DUP1 PUSH2 0x111D DUP2 PUSH2 0x2F78 JUMP JUMPDEST SWAP2 POP POP PUSH2 0x100B JUMP JUMPDEST POP DUP1 ISZERO PUSH2 0xB2C JUMPI PUSH1 0x40 MLOAD PUSH3 0x461BCD PUSH1 0xE5 SHL DUP2 MSTORE PUSH1 0x20 PUSH1 0x4 DUP3 ADD MSTORE PUSH1 0x10 PUSH1 0x24 DUP3 ADD MSTORE PUSH16 0x3A3432B932903BB0B99030903A34B297 PUSH1 0x81 SHL PUSH1 0x44 DUP3 ADD MSTORE PUSH1 0x64 ADD PUSH2 0xB3A JUMP JUMPDEST PUSH1 0x40 MLOAD PUSH3 0x461BCD PUSH1 0xE5 SHL DUP2 MSTORE PUSH1 0x20 PUSH1 0x4 DUP3 ADD MSTORE PUSH1 0xE PUSH1 0x24 DUP3 ADD MSTORE PUSH14 0x26BAB9BA1031329036B2B6B132B9 PUSH1 0x91 SHL PUSH1 0x44 DUP3 ADD MSTORE PUSH1 0x64 ADD PUSH2 0xB3A JUMP JUMPDEST PUSH1 0x9 PUSH1 0x20 MSTORE PUSH1 0x0 SWAP1 DUP2 MSTORE PUSH1 0x40 SWAP1 KECCAK256 DUP1 SLOAD DUP2 SWAP1 PUSH2 0x11BB SWAP1 PUSH2 0x2CB1 JUMP JUMPDEST DUP1 PUSH1 0x1F ADD PUSH1 0x20 DUP1 SWAP2 DIV MUL PUSH1 0x20 ADD PUSH1 0x40 MLOAD SWAP1 DUP2 ADD PUSH1 0x40 MSTORE DUP1 SWAP3 SWAP2 SWAP1 DUP2 DUP2 MSTORE PUSH1 0x20 ADD DUP3 DUP1 SLOAD PUSH2 0x11E7 SWAP1 PUSH2 0x2CB1 JUMP JUMPDEST DUP1 ISZERO PUSH2 0x1234 JUMPI DUP1 PUSH1 0x1F LT PUSH2 0x1209 JUMPI PUSH2 0x100 DUP1 DUP4 SLOAD DIV MUL DUP4 MSTORE SWAP2 PUSH1 0x20 ADD SWAP2 PUSH2 0x1234 JUMP JUMPDEST DUP3 ADD SWAP2 SWAP1 PUSH1 0x0 MSTORE PUSH1 0x20 PUSH1 0x0 KECCAK256 SWAP1 JUMPDEST DUP2 SLOAD DUP2 MSTORE SWAP1 PUSH1 0x1 ADD SWAP1 PUSH1 0x20 ADD DUP1 DUP4 GT PUSH2 0x1217 JUMPI DUP3 SWAP1 SUB PUSH1 0x1F AND DUP3 ADD SWAP2 JUMPDEST POP POP POP PUSH1 0x1 DUP5 ADD SLOAD PUSH1 0x2 DUP6 ADD SLOAD PUSH1 0x3 DUP7 ADD SLOAD PUSH1 0x4 SWAP1 SWAP7 ADD SLOAD SWAP5 SWAP6 PUSH5 0xFFFFFFFFFF SWAP3 DUP4 AND SWAP6 SWAP2 SWAP5 POP SWAP3 POP PUSH1 0xFF DUP2 AND SWAP2 PUSH3 0xFFFFFF PUSH2 0x100 DUP4 DIV AND SWAP2 PUSH1 0x1 PUSH1 0x1 PUSH1 0x50 SHL SUB PUSH1 0x1 PUSH1 0x20 SHL DUP3 DIV AND SWAP2 PUSH2 0xFFFF PUSH1 0x1 PUSH1 0x70 SHL DUP4 DIV DUP2 AND SWAP3 PUSH1 0x1 PUSH1 0x80 SHL DUP2 DIV SWAP1 SWAP2 AND SWAP2 PUSH1 0x1 PUSH1 0x90 SHL SWAP1 SWAP2 DIV AND DUP11 JUMP JUMPDEST PUSH2 0x12AA PUSH2 0x24E7 JUMP JUMPDEST PUSH1 0x0 DUP3 DUP2 MSTORE PUSH1 0x9 PUSH1 0x20 MSTORE PUSH1 0x40 SWAP1 DUP2 SWAP1 KECCAK256 DUP2 MLOAD PUSH2 0x140 DUP2 ADD SWAP1 SWAP3 MSTORE DUP1 SLOAD DUP3 SWAP1 DUP3 SWAP1 PUSH2 0x12D3 SWAP1 PUSH2 0x2CB1 JUMP JUMPDEST DUP1 PUSH1 0x1F ADD PUSH1 0x20 DUP1 SWAP2 DIV MUL PUSH1 0x20 ADD PUSH1 0x40 MLOAD SWAP1 DUP2 ADD PUSH1 0x40 MSTORE DUP1 SWAP3 SWAP2 SWAP1 DUP2 DUP2 MSTORE PUSH1 0x20 ADD DUP3 DUP1 SLOAD PUSH2 0x12FF SWAP1 PUSH2 0x2CB1 JUMP JUMPDEST DUP1 ISZERO PUSH2 0x134C JUMPI DUP1 PUSH1 0x1F LT PUSH2 0x1321 JUMPI PUSH2 0x100 DUP1 DUP4 SLOAD DIV MUL DUP4 MSTORE SWAP2 PUSH1 0x20 ADD SWAP2 PUSH2 0x134C JUMP JUMPDEST DUP3 ADD SWAP2 SWAP1 PUSH1 0x0 MSTORE PUSH1 0x20 PUSH1 0x0 KECCAK256 SWAP1 JUMPDEST DUP2 SLOAD DUP2 MSTORE SWAP1 PUSH1 0x1 ADD SWAP1 PUSH1 0x20 ADD DUP1 DUP4 GT PUSH2 0x132F JUMPI DUP3 SWAP1 SUB PUSH1 0x1F AND DUP3 ADD SWAP2 JUMPDEST POP POP POP SWAP2 DUP4 MSTORE POP POP PUSH1 0x1 DUP3 ADD SLOAD PUSH5 0xFFFFFFFFFF SWAP1 DUP2 AND PUSH1 0x20 DUP4 ADD MSTORE PUSH1 0x2 DUP4 ADD SLOAD PUSH1 0x40 DUP4 ADD MSTORE PUSH1 0x3 DUP4 ADD SLOAD PUSH1 0x60 DUP4 ADD MSTORE PUSH1 0x4 SWAP1 SWAP3 ADD SLOAD PUSH1 0xFF DUP2 AND PUSH1 0x80 DUP4 ADD MSTORE PUSH2 0x100 DUP1 DUP3 DIV PUSH3 0xFFFFFF AND PUSH1 0xA0 DUP5 ADD MSTORE PUSH1 0x1 PUSH1 0x20 SHL DUP3 DIV PUSH1 0x1 PUSH1 0x1 PUSH1 0x50 SHL SUB AND PUSH1 0xC0 DUP5 ADD MSTORE PUSH1 0x1 PUSH1 0x70 SHL DUP3 DIV PUSH2 0xFFFF SWAP1 DUP2 AND PUSH1 0xE0 DUP6 ADD MSTORE PUSH1 0x1 PUSH1 0x80 SHL DUP4 DIV AND SWAP1 DUP4 ADD MSTORE PUSH1 0x1 PUSH1 0x90 SHL SWAP1 DIV SWAP1 SWAP2 AND PUSH2 0x120 SWAP1 SWAP2 ADD MSTORE SWAP3 SWAP2 POP POP JUMP JUMPDEST PUSH1 0x1 DUP6 PUSH2 0xFFFF AND GT DUP1 ISZERO PUSH2 0x13FD JUMPI POP PUSH2 0x101 DUP6 PUSH2 0xFFFF AND LT JUMPDEST PUSH2 0x1449 JUMPI PUSH1 0x40 MLOAD PUSH3 0x461BCD PUSH1 0xE5 SHL DUP2 MSTORE PUSH1 0x20 PUSH1 0x4 DUP3 ADD MSTORE PUSH1 0x19 PUSH1 0x24 DUP3 ADD MSTORE PUSH32 0x696E76616C6964206E756D626572206F66206F7074696F6E7300000000000000 PUSH1 0x44 DUP3 ADD MSTORE PUSH1 0x64 ADD PUSH2 0xB3A JUMP JUMPDEST PUSH1 0x1 PUSH1 0x8 PUSH1 0x0 DUP3 DUP3 SLOAD PUSH2 0x145C SWAP2 SWAP1 PUSH2 0x2F60 JUMP JUMPDEST SWAP1 SWAP2 SSTORE POP POP PUSH1 0x8 SLOAD PUSH1 0x0 SWAP1 DUP2 MSTORE PUSH1 0x7 PUSH1 0x20 MSTORE PUSH1 0x40 SWAP1 KECCAK256 PUSH1 0x3 DUP2 ADD DUP1 SLOAD PUSH15 0xFFFFFFFFFFFFFFFFFFFF0000000000 NOT AND PUSH6 0x10000000000 PUSH5 0xFFFFFFFFFF DUP8 DUP2 AND SWAP2 SWAP1 SWAP2 MUL PUSH5 0xFFFFFFFFFF PUSH1 0x50 SHL NOT AND SWAP2 SWAP1 SWAP2 OR PUSH1 0x1 PUSH1 0x50 SHL SWAP2 DUP7 AND SWAP2 SWAP1 SWAP2 MUL OR SWAP1 SSTORE PUSH1 0x1 DUP2 ADD DUP1 SLOAD PUSH2 0xFFFF NOT AND PUSH2 0xFFFF DUP9 AND OR SWAP1 SSTORE DUP1 PUSH2 0x14DB DUP9 DUP11 DUP4 PUSH2 0x2FAE JUMP JUMPDEST POP PUSH2 0x14EF DUP9 DUP9 PUSH1 0x8 SLOAD PUSH1 0x0 DUP10 DUP10 DUP10 DUP10 PUSH2 0x21A8 JUMP JUMPDEST POP POP POP POP POP POP POP POP JUMP JUMPDEST PUSH1 0x0 PUSH2 0x1514 PUSH1 0x5 SLOAD PUSH1 0xF DUP2 DUP2 SIGNEXTEND PUSH1 0x1 PUSH1 0x80 SHL SWAP1 SWAP3 DIV SWAP1 SIGNEXTEND SUB SWAP1 JUMP JUMPDEST SWAP1 POP PUSH2 0x151E PUSH2 0x24E7 JUMP JUMPDEST PUSH1 0x0 DUP1 JUMPDEST DUP4 DUP2 LT ISZERO PUSH2 0x1801 JUMPI TIMESTAMP DUP4 PUSH2 0x120 ADD MLOAD PUSH5 0xFFFFFFFFFF AND LT DUP1 ISZERO PUSH2 0x1550 JUMPI POP DUP5 DUP4 PUSH1 0x20 ADD MLOAD PUSH5 0xFFFFFFFFFF AND EQ ISZERO JUMPDEST DUP1 ISZERO PUSH2 0x1565 JUMPI POP DUP5 DUP4 PUSH2 0x100 ADD MLOAD PUSH2 0xFFFF AND EQ ISZERO JUMPDEST ISZERO PUSH2 0x17FC JUMPI PUSH2 0x1575 PUSH1 0x5 DUP3 PUSH2 0x2379 JUMP JUMPDEST PUSH1 0x0 DUP2 DUP2 MSTORE PUSH1 0x9 PUSH1 0x20 MSTORE PUSH1 0x40 SWAP1 DUP2 SWAP1 KECCAK256 DUP2 MLOAD PUSH2 0x140 DUP2 ADD SWAP1 SWAP3 MSTORE DUP1 SLOAD SWAP3 SWAP5 POP SWAP1 SWAP2 DUP3 SWAP1 DUP3 SWAP1 PUSH2 0x15A3 SWAP1 PUSH2 0x2CB1 JUMP JUMPDEST DUP1 PUSH1 0x1F ADD PUSH1 0x20 DUP1 SWAP2 DIV MUL PUSH1 0x20 ADD PUSH1 0x40 MLOAD SWAP1 DUP2 ADD PUSH1 0x40 MSTORE DUP1 SWAP3 SWAP2 SWAP1 DUP2 DUP2 MSTORE PUSH1 0x20 ADD DUP3 DUP1 SLOAD PUSH2 0x15CF SWAP1 PUSH2 0x2CB1 JUMP JUMPDEST DUP1 ISZERO PUSH2 0x161C JUMPI DUP1 PUSH1 0x1F LT PUSH2 0x15F1 JUMPI PUSH2 0x100 DUP1 DUP4 SLOAD DIV MUL DUP4 MSTORE SWAP2 PUSH1 0x20 ADD SWAP2 PUSH2 0x161C JUMP JUMPDEST DUP3 ADD SWAP2 SWAP1 PUSH1 0x0 MSTORE PUSH1 0x20 PUSH1 0x0 KECCAK256 SWAP1 JUMPDEST DUP2 SLOAD DUP2 MSTORE SWAP1 PUSH1 0x1 ADD SWAP1 PUSH1 0x20 ADD DUP1 DUP4 GT PUSH2 0x15FF JUMPI DUP3 SWAP1 SUB PUSH1 0x1F AND DUP3 ADD SWAP2 JUMPDEST POP POP POP SWAP2 DUP4 MSTORE POP POP PUSH1 0x1 DUP3 ADD SLOAD PUSH5 0xFFFFFFFFFF SWAP1 DUP2 AND PUSH1 0x20 DUP4 ADD MSTORE PUSH1 0x2 DUP4 ADD SLOAD PUSH1 0x40 DUP4 ADD MSTORE PUSH1 0x3 DUP4 ADD SLOAD PUSH1 0x60 DUP4 ADD MSTORE PUSH1 0x4 SWAP1 SWAP3 ADD SLOAD PUSH1 0xFF DUP2 AND PUSH1 0x80 DUP4 ADD MSTORE PUSH2 0x100 DUP1 DUP3 DIV PUSH3 0xFFFFFF AND PUSH1 0xA0 DUP5 ADD MSTORE PUSH1 0x1 PUSH1 0x20 SHL DUP3 DIV PUSH1 0x1 PUSH1 0x1 PUSH1 0x50 SHL SUB AND PUSH1 0xC0 DUP5 ADD MSTORE PUSH1 0x1 PUSH1 0x70 SHL DUP3 DIV PUSH2 0xFFFF SWAP1 DUP2 AND PUSH1 0xE0 DUP1 DUP7 ADD SWAP2 SWAP1 SWAP2 MSTORE PUSH1 0x1 PUSH1 0x80 SHL DUP5 DIV DUP3 AND SWAP3 DUP6 ADD SWAP3 SWAP1 SWAP3 MSTORE PUSH1 0x1 PUSH1 0x90 SHL SWAP1 SWAP3 DIV SWAP1 SWAP4 AND PUSH2 0x120 SWAP1 SWAP3 ADD SWAP2 SWAP1 SWAP2 MSTORE DUP8 AND SWAP1 DUP3 ADD MSTORE PUSH1 0xB SLOAD SWAP1 SWAP4 POP PUSH2 0x16D0 SWAP1 TIMESTAMP PUSH2 0x2F60 JUMP JUMPDEST PUSH5 0xFFFFFFFFFF AND PUSH2 0x120 DUP5 ADD MSTORE DUP3 PUSH1 0x9 PUSH1 0x0 PUSH2 0x16ED PUSH1 0x5 DUP6 PUSH2 0x2379 JUMP JUMPDEST DUP2 MSTORE PUSH1 0x20 DUP2 ADD SWAP2 SWAP1 SWAP2 MSTORE PUSH1 0x40 ADD PUSH1 0x0 KECCAK256 DUP2 MLOAD DUP2 SWAP1 PUSH2 0x170B SWAP1 DUP3 PUSH2 0x2E8A JUMP JUMPDEST POP PUSH1 0x20 DUP3 ADD MLOAD PUSH1 0x1 DUP3 ADD DUP1 SLOAD PUSH5 0xFFFFFFFFFF NOT AND PUSH5 0xFFFFFFFFFF SWAP3 DUP4 AND OR SWAP1 SSTORE PUSH1 0x40 DUP4 ADD MLOAD PUSH1 0x2 DUP4 ADD SSTORE PUSH1 0x60 DUP4 ADD MLOAD PUSH1 0x3 DUP4 ADD SSTORE PUSH1 0x80 DUP4 ADD MLOAD PUSH1 0x4 SWAP1 SWAP3 ADD DUP1 SLOAD PUSH1 0xA0 DUP6 ADD MLOAD PUSH1 0xC0 DUP7 ADD MLOAD PUSH1 0xE0 DUP8 ADD MLOAD PUSH2 0x100 DUP1 DUP10 ADD MLOAD PUSH2 0x120 SWAP1 SWAP10 ADD MLOAD PUSH1 0xFF SWAP1 SWAP9 AND PUSH4 0xFFFFFFFF NOT SWAP1 SWAP6 AND SWAP5 SWAP1 SWAP5 OR PUSH3 0xFFFFFF SWAP1 SWAP4 AND SWAP1 SWAP4 MUL SWAP2 SWAP1 SWAP2 OR PUSH16 0xFFFFFFFFFFFFFFFFFFFFFFFF00000000 NOT AND PUSH1 0x1 PUSH1 0x20 SHL PUSH1 0x1 PUSH1 0x1 PUSH1 0x50 SHL SUB SWAP1 SWAP3 AND SWAP2 SWAP1 SWAP2 MUL PUSH2 0xFFFF PUSH1 0x70 SHL NOT AND OR PUSH1 0x1 PUSH1 0x70 SHL PUSH2 0xFFFF SWAP3 DUP4 AND MUL OR PUSH7 0xFFFFFFFFFFFFFF PUSH1 0x80 SHL NOT AND PUSH1 0x1 PUSH1 0x80 SHL SWAP2 SWAP1 SWAP6 AND MUL PUSH5 0xFFFFFFFFFF PUSH1 0x90 SHL NOT AND SWAP4 SWAP1 SWAP4 OR PUSH1 0x1 PUSH1 0x90 SHL SWAP3 SWAP1 SWAP2 AND SWAP2 SWAP1 SWAP2 MUL OR SWAP1 SSTORE JUMPDEST PUSH2 0x1522 JUMP JUMPDEST POP PUSH1 0x40 DUP1 MLOAD DUP6 DUP2 MSTORE PUSH1 0x20 DUP2 ADD DUP4 SWAP1 MSTORE PUSH32 0x4BABE4B493069D658924AC325D49EE1ADFACCBB176319A54499A34417EAF73EE SWAP2 ADD PUSH1 0x40 MLOAD DUP1 SWAP2 SUB SWAP1 LOG1 POP POP POP POP JUMP JUMPDEST PUSH1 0x2 SLOAD PUSH1 0x40 MLOAD PUSH4 0x31A9108F PUSH1 0xE1 SHL DUP2 MSTORE PUSH1 0x4 DUP2 ADD DUP6 SWAP1 MSTORE CALLER SWAP2 PUSH1 0x1 PUSH1 0x1 PUSH1 0xA0 SHL SUB AND SWAP1 PUSH4 0x6352211E SWAP1 PUSH1 0x24 ADD PUSH1 0x20 PUSH1 0x40 MLOAD DUP1 DUP4 SUB DUP2 DUP7 GAS STATICCALL ISZERO DUP1 ISZERO PUSH2 0x188A JUMPI RETURNDATASIZE PUSH1 0x0 DUP1 RETURNDATACOPY RETURNDATASIZE PUSH1 0x0 REVERT JUMPDEST POP POP POP POP PUSH1 0x40 MLOAD RETURNDATASIZE PUSH1 0x1F NOT PUSH1 0x1F DUP3 ADD AND DUP3 ADD DUP1 PUSH1 0x40 MSTORE POP DUP2 ADD SWAP1 PUSH2 0x18AE SWAP2 SWAP1 PUSH2 0x2F91 JUMP JUMPDEST PUSH1 0x1 PUSH1 0x1 PUSH1 0xA0 SHL SUB AND EQ DUP1 ISZERO PUSH2 0x18DF JUMPI POP PUSH1 0x0 DUP3 DUP2 MSTORE PUSH1 0x9 PUSH1 0x20 MSTORE PUSH1 0x40 SWAP1 KECCAK256 PUSH1 0x4 ADD SLOAD PUSH1 0x1 PUSH1 0x70 SHL SWAP1 DIV PUSH2 0xFFFF AND DUP4 EQ JUMPDEST PUSH2 0x192B JUMPI PUSH1 0x40 MLOAD PUSH3 0x461BCD PUSH1 0xE5 SHL DUP2 MSTORE PUSH1 0x20 PUSH1 0x4 DUP3 ADD DUP2 SWAP1 MSTORE PUSH1 0x24 DUP3 ADD MSTORE PUSH32 0x4D757374206265206F776E6572206F662061737369676E65642077697A617264 PUSH1 0x44 DUP3 ADD MSTORE PUSH1 0x64 ADD PUSH2 0xB3A JUMP JUMPDEST PUSH1 0x0 DUP2 MLOAD GT PUSH2 0x1939 JUMPI PUSH1 0x0 DUP1 REVERT JUMPDEST PUSH1 0x0 DUP3 DUP2 MSTORE PUSH1 0x9 PUSH1 0x20 MSTORE PUSH1 0x40 DUP2 KECCAK256 PUSH1 0x4 DUP2 ADD SLOAD SWAP1 SWAP2 SWAP1 PUSH1 0x1 PUSH1 0x80 SHL SWAP1 DIV PUSH2 0xFFFF AND ISZERO PUSH2 0x19D4 JUMPI PUSH1 0x0 JUMPDEST DUP4 MLOAD DUP2 LT ISZERO PUSH2 0x19D2 JUMPI DUP4 DUP2 DUP2 MLOAD DUP2 LT PUSH2 0x197D JUMPI PUSH2 0x197D PUSH2 0x2CEB JUMP JUMPDEST PUSH1 0x20 MUL PUSH1 0x20 ADD ADD MLOAD PUSH1 0x40 MLOAD PUSH1 0x20 ADD PUSH2 0x1997 SWAP2 DUP2 MSTORE PUSH1 0x20 ADD SWAP1 JUMP JUMPDEST PUSH1 0x40 MLOAD PUSH1 0x20 DUP2 DUP4 SUB SUB DUP2 MSTORE SWAP1 PUSH1 0x40 MSTORE DUP1 MLOAD SWAP1 PUSH1 0x20 ADD KECCAK256 DUP5 DUP3 DUP2 MLOAD DUP2 LT PUSH2 0x19BF JUMPI PUSH2 0x19BF PUSH2 0x2CEB JUMP JUMPDEST PUSH1 0x20 SWAP1 DUP2 MUL SWAP2 SWAP1 SWAP2 ADD ADD MSTORE PUSH1 0x1 ADD PUSH2 0x1962 JUMP JUMPDEST POP JUMPDEST PUSH1 0x0 DUP4 PUSH1 0x40 MLOAD PUSH1 0x20 ADD PUSH2 0x19E7 SWAP2 SWAP1 PUSH2 0x2D01 JUMP JUMPDEST PUSH1 0x40 MLOAD PUSH1 0x20 DUP2 DUP4 SUB SUB DUP2 MSTORE SWAP1 PUSH1 0x40 MSTORE DUP1 MLOAD SWAP1 PUSH1 0x20 ADD KECCAK256 SWAP1 POP PUSH1 0x0 DUP2 DUP5 PUSH1 0x2 ADD SLOAD EQ PUSH2 0x1A13 JUMPI PUSH1 0x0 PUSH2 0x1A16 JUMP JUMPDEST PUSH1 0x1 JUMPDEST PUSH1 0x1 DUP6 DUP2 ADD SLOAD PUSH1 0x40 DUP1 MLOAD DUP12 DUP2 MSTORE PUSH5 0xFFFFFFFFFF SWAP1 SWAP3 AND PUSH1 0x20 DUP4 ADD MSTORE DUP2 ADD DUP10 SWAP1 MSTORE PUSH1 0x60 DUP2 ADD DUP6 SWAP1 MSTORE PUSH1 0xFF SWAP3 SWAP1 SWAP3 AND SWAP1 DUP2 EQ PUSH1 0x80 DUP4 ADD MSTORE SWAP2 POP PUSH32 0xE3F0E138F100DEAF328BA1DEF71C39DADE8CD971BA0074D935EE648E54532FAE SWAP1 PUSH1 0xA0 ADD PUSH1 0x40 MLOAD DUP1 SWAP2 SUB SWAP1 LOG1 DUP1 PUSH1 0x1 SUB PUSH2 0x1D7C JUMPI PUSH1 0x4 DUP5 ADD SLOAD PUSH1 0x0 SWAP1 PUSH2 0x1AA6 SWAP1 PUSH1 0x2 SWAP1 PUSH1 0x1 PUSH1 0x20 SHL SWAP1 DIV PUSH1 0x1 PUSH1 0x1 PUSH1 0x50 SHL SUB AND PUSH2 0x306F JUMP JUMPDEST PUSH1 0x2 SLOAD PUSH1 0x4 DUP8 DUP2 ADD SLOAD PUSH1 0x40 MLOAD PUSH4 0x31A9108F PUSH1 0xE1 SHL DUP2 MSTORE PUSH1 0x1 PUSH1 0x70 SHL SWAP1 SWAP2 DIV PUSH2 0xFFFF AND SWAP2 DUP2 ADD SWAP2 SWAP1 SWAP2 MSTORE PUSH1 0x1 PUSH1 0x1 PUSH1 0x50 SHL SUB SWAP3 SWAP1 SWAP3 AND SWAP3 POP PUSH1 0x0 SWAP2 PUSH1 0x1 PUSH1 0x1 PUSH1 0xA0 SHL SUB SWAP1 SWAP2 AND SWAP1 PUSH4 0x6352211E SWAP1 PUSH1 0x24 ADD PUSH1 0x20 PUSH1 0x40 MLOAD DUP1 DUP4 SUB DUP2 DUP7 GAS STATICCALL ISZERO DUP1 ISZERO PUSH2 0x1B12 JUMPI RETURNDATASIZE PUSH1 0x0 DUP1 RETURNDATACOPY RETURNDATASIZE PUSH1 0x0 REVERT JUMPDEST POP POP POP POP PUSH1 0x40 MLOAD RETURNDATASIZE PUSH1 0x1F NOT PUSH1 0x1F DUP3 ADD AND DUP3 ADD DUP1 PUSH1 0x40 MSTORE POP DUP2 ADD SWAP1 PUSH2 0x1B36 SWAP2 SWAP1 PUSH2 0x2F91 JUMP JUMPDEST PUSH1 0x2 SLOAD PUSH1 0x1 DUP9 ADD SLOAD PUSH1 0x4 DUP1 DUP11 ADD SLOAD PUSH1 0x40 MLOAD PUSH4 0x8AD4D6A5 PUSH1 0xE0 SHL DUP2 MSTORE PUSH5 0xFFFFFFFFFF SWAP1 SWAP4 AND SWAP2 DUP4 ADD SWAP2 SWAP1 SWAP2 MSTORE PUSH2 0x100 SWAP1 DIV PUSH3 0xFFFFFF AND PUSH1 0x24 DUP3 ADD MSTORE SWAP2 SWAP3 POP PUSH1 0x1 PUSH1 0x1 PUSH1 0xA0 SHL SUB AND SWAP1 PUSH4 0x8AD4D6A5 SWAP1 PUSH1 0x44 ADD PUSH1 0x0 PUSH1 0x40 MLOAD DUP1 DUP4 SUB DUP2 PUSH1 0x0 DUP8 DUP1 EXTCODESIZE ISZERO DUP1 ISZERO PUSH2 0x1BA0 JUMPI PUSH1 0x0 DUP1 REVERT JUMPDEST POP GAS CALL ISZERO DUP1 ISZERO PUSH2 0x1BB4 JUMPI RETURNDATASIZE PUSH1 0x0 DUP1 RETURNDATACOPY RETURNDATASIZE PUSH1 0x0 REVERT JUMPDEST POP POP PUSH1 0x2 SLOAD PUSH1 0x4 DUP10 DUP2 ADD SLOAD PUSH1 0xC SLOAD PUSH1 0x40 MLOAD PUSH4 0x8AD4D6A5 PUSH1 0xE0 SHL DUP2 MSTORE PUSH1 0x1 PUSH1 0x70 SHL SWAP1 SWAP3 DIV PUSH2 0xFFFF AND SWAP3 DUP3 ADD SWAP3 SWAP1 SWAP3 MSTORE PUSH1 0x24 DUP2 ADD SWAP2 SWAP1 SWAP2 MSTORE PUSH1 0x1 PUSH1 0x1 PUSH1 0xA0 SHL SUB SWAP1 SWAP2 AND SWAP3 POP PUSH4 0x8AD4D6A5 SWAP2 POP PUSH1 0x44 ADD JUMPDEST PUSH1 0x0 PUSH1 0x40 MLOAD DUP1 DUP4 SUB DUP2 PUSH1 0x0 DUP8 DUP1 EXTCODESIZE ISZERO DUP1 ISZERO PUSH2 0x1C1C JUMPI PUSH1 0x0 DUP1 REVERT JUMPDEST POP GAS CALL ISZERO DUP1 ISZERO PUSH2 0x1C30 JUMPI RETURNDATASIZE PUSH1 0x0 DUP1 RETURNDATACOPY RETURNDATASIZE PUSH1 0x0 REVERT JUMPDEST POP POP POP PUSH1 0x4 DUP8 ADD DUP1 SLOAD PUSH14 0xFFFFFFFFFFFFFFFFFFFF00000000 NOT AND SWAP1 SSTORE POP PUSH1 0x0 DUP9 DUP2 MSTORE PUSH1 0x9 PUSH1 0x20 MSTORE PUSH1 0x40 DUP2 KECCAK256 SWAP1 PUSH2 0x1C66 DUP3 DUP3 PUSH2 0x253B JUMP JUMPDEST POP PUSH1 0x1 DUP2 ADD DUP1 SLOAD PUSH5 0xFFFFFFFFFF NOT AND SWAP1 SSTORE PUSH1 0x0 PUSH1 0x2 DUP3 ADD DUP2 SWAP1 SSTORE PUSH1 0x3 DUP3 ADD DUP2 SWAP1 SSTORE PUSH1 0x4 SWAP1 SWAP2 ADD DUP1 SLOAD PUSH1 0x1 PUSH1 0x1 PUSH1 0xB8 SHL SUB NOT AND SWAP1 SSTORE PUSH1 0x40 MLOAD DUP2 SWAP1 PUSH1 0x1 PUSH1 0x1 PUSH1 0xA0 SHL SUB DUP5 AND SWAP1 DUP6 SWAP1 DUP4 DUP2 DUP2 DUP2 DUP6 DUP8 GAS CALL SWAP3 POP POP POP RETURNDATASIZE DUP1 PUSH1 0x0 DUP2 EQ PUSH2 0x1CE4 JUMPI PUSH1 0x40 MLOAD SWAP2 POP PUSH1 0x1F NOT PUSH1 0x3F RETURNDATASIZE ADD AND DUP3 ADD PUSH1 0x40 MSTORE RETURNDATASIZE DUP3 MSTORE RETURNDATASIZE PUSH1 0x0 PUSH1 0x20 DUP5 ADD RETURNDATACOPY PUSH2 0x1CE9 JUMP JUMPDEST PUSH1 0x60 SWAP2 POP JUMPDEST POP SWAP2 POP SWAP2 POP DUP2 PUSH2 0x1D0B JUMPI PUSH1 0x40 MLOAD PUSH3 0x461BCD PUSH1 0xE5 SHL DUP2 MSTORE PUSH1 0x4 ADD PUSH2 0xB3A SWAP1 PUSH2 0x30A3 JUMP JUMPDEST PUSH1 0x40 MLOAD CALLER SWAP1 DUP6 SWAP1 PUSH1 0x0 DUP2 DUP2 DUP2 DUP6 DUP8 GAS CALL SWAP3 POP POP POP RETURNDATASIZE DUP1 PUSH1 0x0 DUP2 EQ PUSH2 0x1D4B JUMPI PUSH1 0x40 MLOAD SWAP2 POP PUSH1 0x1F NOT PUSH1 0x3F RETURNDATASIZE ADD AND DUP3 ADD PUSH1 0x40 MSTORE RETURNDATASIZE DUP3 MSTORE RETURNDATASIZE PUSH1 0x0 PUSH1 0x20 DUP5 ADD RETURNDATACOPY PUSH2 0x1D50 JUMP JUMPDEST PUSH1 0x60 SWAP2 POP JUMPDEST POP SWAP1 SWAP3 POP SWAP1 POP DUP2 PUSH2 0x1D73 JUMPI PUSH1 0x40 MLOAD PUSH3 0x461BCD PUSH1 0xE5 SHL DUP2 MSTORE PUSH1 0x4 ADD PUSH2 0xB3A SWAP1 PUSH2 0x30A3 JUMP JUMPDEST POP POP POP POP PUSH2 0xB54 JUMP JUMPDEST DUP2 DUP5 PUSH1 0x3 ADD SLOAD SUB PUSH2 0x1EF3 JUMPI PUSH1 0x4 DUP5 ADD SLOAD PUSH1 0x0 SWAP1 PUSH2 0x1DAB SWAP1 PUSH1 0x2 SWAP1 PUSH1 0x1 PUSH1 0x20 SHL SWAP1 DIV PUSH1 0x1 PUSH1 0x1 PUSH1 0x50 SHL SUB AND PUSH2 0x306F JUMP JUMPDEST PUSH1 0x2 SLOAD PUSH1 0x4 DUP8 DUP2 ADD SLOAD PUSH1 0x40 MLOAD PUSH4 0x31A9108F PUSH1 0xE1 SHL DUP2 MSTORE PUSH1 0x1 PUSH1 0x80 SHL SWAP1 SWAP2 DIV PUSH2 0xFFFF AND SWAP2 DUP2 ADD SWAP2 SWAP1 SWAP2 MSTORE PUSH1 0x1 PUSH1 0x1 PUSH1 0x50 SHL SUB SWAP3 SWAP1 SWAP3 AND SWAP3 POP PUSH1 0x0 SWAP2 PUSH1 0x1 PUSH1 0x1 PUSH1 0xA0 SHL SUB SWAP1 SWAP2 AND SWAP1 PUSH4 0x6352211E SWAP1 PUSH1 0x24 ADD PUSH1 0x20 PUSH1 0x40 MLOAD DUP1 DUP4 SUB DUP2 DUP7 GAS STATICCALL ISZERO DUP1 ISZERO PUSH2 0x1E17 JUMPI RETURNDATASIZE PUSH1 0x0 DUP1 RETURNDATACOPY RETURNDATASIZE PUSH1 0x0 REVERT JUMPDEST POP POP POP POP PUSH1 0x40 MLOAD RETURNDATASIZE PUSH1 0x1F NOT PUSH1 0x1F DUP3 ADD AND DUP3 ADD DUP1 PUSH1 0x40 MSTORE POP DUP2 ADD SWAP1 PUSH2 0x1E3B SWAP2 SWAP1 PUSH2 0x2F91 JUMP JUMPDEST PUSH1 0x2 SLOAD PUSH1 0x4 DUP9 DUP2 ADD SLOAD PUSH1 0xC SLOAD PUSH1 0x40 MLOAD PUSH4 0x8AD4D6A5 PUSH1 0xE0 SHL DUP2 MSTORE PUSH1 0x1 PUSH1 0x80 SHL SWAP1 SWAP3 DIV PUSH2 0xFFFF AND SWAP3 DUP3 ADD SWAP3 SWAP1 SWAP3 MSTORE PUSH1 0x24 DUP2 ADD SWAP2 SWAP1 SWAP2 MSTORE SWAP2 SWAP3 POP PUSH1 0x1 PUSH1 0x1 PUSH1 0xA0 SHL SUB AND SWAP1 PUSH4 0x8AD4D6A5 SWAP1 PUSH1 0x44 ADD PUSH1 0x0 PUSH1 0x40 MLOAD DUP1 DUP4 SUB DUP2 PUSH1 0x0 DUP8 DUP1 EXTCODESIZE ISZERO DUP1 ISZERO PUSH2 0x1E9F JUMPI PUSH1 0x0 DUP1 REVERT JUMPDEST POP GAS CALL ISZERO DUP1 ISZERO PUSH2 0x1EB3 JUMPI RETURNDATASIZE PUSH1 0x0 DUP1 RETURNDATACOPY RETURNDATASIZE PUSH1 0x0 REVERT JUMPDEST POP POP PUSH1 0x2 SLOAD PUSH1 0xC SLOAD PUSH1 0x40 MLOAD PUSH4 0x8AD4D6A5 PUSH1 0xE0 SHL DUP2 MSTORE PUSH1 0x4 DUP2 ADD DUP15 SWAP1 MSTORE PUSH1 0x24 DUP2 ADD SWAP2 SWAP1 SWAP2 MSTORE PUSH1 0x1 PUSH1 0x1 PUSH1 0xA0 SHL SUB SWAP1 SWAP2 AND SWAP3 POP PUSH4 0x8AD4D6A5 SWAP2 POP PUSH1 0x44 ADD PUSH2 0x1C02 JUMP JUMPDEST PUSH1 0x4 DUP5 ADD SLOAD PUSH1 0x0 DUP8 DUP2 MSTORE PUSH1 0x9 PUSH1 0x20 MSTORE PUSH1 0x40 DUP2 KECCAK256 PUSH1 0x1 PUSH1 0x20 SHL SWAP1 SWAP3 DIV PUSH1 0x1 PUSH1 0x1 PUSH1 0x50 SHL SUB AND SWAP2 SWAP1 PUSH2 0x1F23 DUP3 DUP3 PUSH2 0x253B JUMP JUMPDEST POP PUSH1 0x1 DUP2 ADD DUP1 SLOAD PUSH5 0xFFFFFFFFFF NOT AND SWAP1 SSTORE PUSH1 0x0 PUSH1 0x2 DUP3 ADD DUP2 SWAP1 SSTORE PUSH1 0x3 DUP3 ADD DUP2 SWAP1 SSTORE PUSH1 0x4 SWAP1 SWAP2 ADD DUP1 SLOAD PUSH1 0x1 PUSH1 0x1 PUSH1 0xB8 SHL SUB NOT AND SWAP1 SSTORE DUP1 PUSH2 0x1F6A PUSH1 0x1 SLOAD PUSH1 0x1 PUSH1 0x1 PUSH1 0xA0 SHL SUB AND SWAP1 JUMP JUMPDEST PUSH1 0x1 PUSH1 0x1 PUSH1 0xA0 SHL SUB AND DUP4 PUSH1 0x40 MLOAD PUSH1 0x0 PUSH1 0x40 MLOAD DUP1 DUP4 SUB DUP2 DUP6 DUP8 GAS CALL SWAP3 POP POP POP RETURNDATASIZE DUP1 PUSH1 0x0 DUP2 EQ PUSH2 0x1FB4 JUMPI PUSH1 0x40 MLOAD SWAP2 POP PUSH1 0x1F NOT PUSH1 0x3F RETURNDATASIZE ADD AND DUP3 ADD PUSH1 0x40 MSTORE RETURNDATASIZE DUP3 MSTORE RETURNDATASIZE PUSH1 0x0 PUSH1 0x20 DUP5 ADD RETURNDATACOPY PUSH2 0x1FB9 JUMP JUMPDEST PUSH1 0x60 SWAP2 POP JUMPDEST POP SWAP2 POP SWAP2 POP DUP2 PUSH2 0x1FDB JUMPI PUSH1 0x40 MLOAD PUSH3 0x461BCD PUSH1 0xE5 SHL DUP2 MSTORE PUSH1 0x4 ADD PUSH2 0xB3A SWAP1 PUSH2 0x30A3 JUMP JUMPDEST POP POP POP POP POP POP POP POP POP POP JUMP JUMPDEST PUSH1 0x1 SLOAD PUSH1 0x1 PUSH1 0x1 PUSH1 0xA0 SHL SUB AND CALLER EQ PUSH2 0x2011 JUMPI PUSH1 0x40 MLOAD PUSH3 0x461BCD PUSH1 0xE5 SHL DUP2 MSTORE PUSH1 0x4 ADD PUSH2 0xB3A SWAP1 PUSH2 0x2D68 JUMP JUMPDEST PUSH1 0x1 PUSH1 0x1 PUSH1 0xA0 SHL SUB DUP2 AND PUSH2 0x2076 JUMPI PUSH1 0x40 MLOAD PUSH3 0x461BCD PUSH1 0xE5 SHL DUP2 MSTORE PUSH1 0x20 PUSH1 0x4 DUP3 ADD MSTORE PUSH1 0x26 PUSH1 0x24 DUP3 ADD MSTORE PUSH32 0x4F776E61626C653A206E6577206F776E657220697320746865207A65726F2061 PUSH1 0x44 DUP3 ADD MSTORE PUSH6 0x646472657373 PUSH1 0xD0 SHL PUSH1 0x64 DUP3 ADD MSTORE PUSH1 0x84 ADD PUSH2 0xB3A JUMP JUMPDEST PUSH2 0x207F DUP2 PUSH2 0x2327 JUMP JUMPDEST POP JUMP JUMPDEST PUSH1 0x60 PUSH1 0x8 SLOAD DUP3 LT PUSH2 0x20C8 JUMPI PUSH1 0x40 MLOAD PUSH3 0x461BCD PUSH1 0xE5 SHL DUP2 MSTORE PUSH1 0x20 PUSH1 0x4 DUP3 ADD MSTORE PUSH1 0x10 PUSH1 0x24 DUP3 ADD MSTORE PUSH16 0x1B9BC81CDD58DA081C1C9BDC1BDCD85B PUSH1 0x82 SHL PUSH1 0x44 DUP3 ADD MSTORE PUSH1 0x64 ADD PUSH2 0xB3A JUMP JUMPDEST PUSH1 0x0 DUP3 DUP2 MSTORE PUSH1 0x7 PUSH1 0x20 MSTORE PUSH1 0x40 DUP2 KECCAK256 PUSH1 0x1 ADD SLOAD PUSH2 0xFFFF AND PUSH8 0xFFFFFFFFFFFFFFFF DUP2 GT ISZERO PUSH2 0x20F6 JUMPI PUSH2 0x20F6 PUSH2 0x262F JUMP JUMPDEST PUSH1 0x40 MLOAD SWAP1 DUP1 DUP3 MSTORE DUP1 PUSH1 0x20 MUL PUSH1 0x20 ADD DUP3 ADD PUSH1 0x40 MSTORE DUP1 ISZERO PUSH2 0x211F JUMPI DUP2 PUSH1 0x20 ADD PUSH1 0x20 DUP3 MUL DUP1 CALLDATASIZE DUP4 CALLDATACOPY ADD SWAP1 POP JUMPDEST POP SWAP1 POP PUSH1 0x0 JUMPDEST DUP2 MLOAD DUP2 LT ISZERO PUSH2 0x21A1 JUMPI PUSH1 0x0 DUP5 DUP2 MSTORE PUSH1 0x7 PUSH1 0x20 MSTORE PUSH1 0x40 SWAP1 KECCAK256 PUSH1 0x2 ADD DUP2 PUSH1 0x8 DUP2 LT PUSH2 0x2150 JUMPI PUSH2 0x2150 PUSH2 0x2CEB JUMP JUMPDEST PUSH1 0x10 SWAP2 DUP3 DUP3 DIV ADD SWAP2 SWAP1 MOD PUSH1 0x2 MUL SWAP1 SLOAD SWAP1 PUSH2 0x100 EXP SWAP1 DIV PUSH2 0xFFFF AND DUP3 DUP3 DUP2 MLOAD DUP2 LT PUSH2 0x217C JUMPI PUSH2 0x217C PUSH2 0x2CEB JUMP JUMPDEST PUSH2 0xFFFF SWAP1 SWAP3 AND PUSH1 0x20 SWAP3 DUP4 MUL SWAP2 SWAP1 SWAP2 ADD SWAP1 SWAP2 ADD MSTORE DUP1 PUSH2 0x2199 DUP2 PUSH2 0x2F78 JUMP JUMPDEST SWAP2 POP POP PUSH2 0x2125 JUMP JUMPDEST POP SWAP3 SWAP2 POP POP JUMP JUMPDEST PUSH1 0x4 DUP1 SLOAD PUSH1 0x1 DUP2 ADD DUP1 DUP4 SSTORE PUSH1 0x0 DUP4 DUP2 MSTORE SWAP2 SWAP3 SWAP1 DUP4 SWAP1 DUP2 LT PUSH2 0x21CB JUMPI PUSH2 0x21CB PUSH2 0x2CEB JUMP JUMPDEST PUSH1 0x0 SWAP2 DUP3 MSTORE PUSH1 0x20 SWAP1 SWAP2 KECCAK256 PUSH1 0x3 SWAP1 SWAP2 MUL ADD SWAP1 POP PUSH1 0x1 DUP2 ADD PUSH2 0x21EC DUP11 DUP13 DUP4 PUSH2 0x2FAE JUMP JUMPDEST POP PUSH1 0x0 DUP2 PUSH1 0x2 ADD PUSH1 0x0 PUSH2 0x100 EXP DUP2 SLOAD DUP2 PUSH1 0xFF MUL NOT AND SWAP1 DUP4 ISZERO ISZERO MUL OR SWAP1 SSTORE POP DUP8 DUP2 PUSH1 0x2 ADD PUSH1 0x1 PUSH2 0x100 EXP DUP2 SLOAD DUP2 PUSH5 0xFFFFFFFFFF MUL NOT AND SWAP1 DUP4 PUSH5 0xFFFFFFFFFF AND MUL OR SWAP1 SSTORE POP DUP7 DUP2 PUSH1 0x2 ADD PUSH1 0x6 PUSH2 0x100 EXP DUP2 SLOAD DUP2 PUSH1 0xFF MUL NOT AND SWAP1 DUP4 PUSH1 0xFF AND MUL OR SWAP1 SSTORE POP DUP6 DUP2 PUSH1 0x2 ADD PUSH1 0x7 PUSH2 0x100 EXP DUP2 SLOAD DUP2 PUSH3 0xFFFFFF MUL NOT AND SWAP1 DUP4 PUSH3 0xFFFFFF AND MUL OR SWAP1 SSTORE POP DUP5 DUP2 PUSH1 0x2 ADD PUSH1 0xA PUSH2 0x100 EXP DUP2 SLOAD DUP2 PUSH5 0xFFFFFFFFFF MUL NOT AND SWAP1 DUP4 PUSH5 0xFFFFFFFFFF AND MUL OR SWAP1 SSTORE POP DUP4 DUP2 PUSH1 0x2 ADD PUSH1 0xF PUSH2 0x100 EXP DUP2 SLOAD DUP2 PUSH5 0xFFFFFFFFFF MUL NOT AND SWAP1 DUP4 PUSH5 0xFFFFFFFFFF AND MUL OR SWAP1 SSTORE POP DUP3 DUP2 PUSH1 0x2 ADD PUSH1 0x14 PUSH2 0x100 EXP DUP2 SLOAD DUP2 PUSH2 0xFFFF MUL NOT AND SWAP1 DUP4 PUSH2 0xFFFF AND MUL OR SWAP1 SSTORE POP PUSH32 0x2810025950962E3CD71FD98C2DC111FFBDB2A129B36771DF8D36A7DE2FE3E4E0 DUP11 DUP11 DUP11 DUP11 DUP11 DUP11 DUP11 DUP11 PUSH1 0x40 MLOAD PUSH2 0x2313 SWAP9 SWAP8 SWAP7 SWAP6 SWAP5 SWAP4 SWAP3 SWAP2 SWAP1 PUSH2 0x30D1 JUMP JUMPDEST PUSH1 0x40 MLOAD DUP1 SWAP2 SUB SWAP1 LOG1 POP POP POP POP POP POP POP POP POP POP JUMP JUMPDEST PUSH1 0x1 DUP1 SLOAD PUSH1 0x1 PUSH1 0x1 PUSH1 0xA0 SHL SUB DUP4 DUP2 AND PUSH1 0x1 PUSH1 0x1 PUSH1 0xA0 SHL SUB NOT DUP4 AND DUP2 OR SWAP1 SWAP4 SSTORE PUSH1 0x40 MLOAD SWAP2 AND SWAP2 SWAP1 DUP3 SWAP1 PUSH32 0x8BE0079C531659141344CD1FD0A4F28419497F9722A3DAAFE3B4186F6B6457E0 SWAP1 PUSH1 0x0 SWAP1 LOG3 POP POP JUMP JUMPDEST PUSH1 0x0 DUP1 PUSH2 0x239C PUSH2 0x2388 DUP5 PUSH2 0x23EA JUMP JUMPDEST DUP6 SLOAD PUSH2 0x2397 SWAP2 SWAP1 PUSH1 0xF SIGNEXTEND PUSH2 0x3140 JUMP JUMPDEST PUSH2 0x2458 JUMP JUMPDEST DUP5 SLOAD SWAP1 SWAP2 POP PUSH1 0x1 PUSH1 0x80 SHL SWAP1 DIV PUSH1 0xF SWAP1 DUP2 SIGNEXTEND SWAP1 DUP3 SWAP1 SIGNEXTEND SLT PUSH2 0x23CF JUMPI PUSH1 0x40 MLOAD PUSH4 0x2D0483C5 PUSH1 0xE2 SHL DUP2 MSTORE PUSH1 0x4 ADD PUSH1 0x40 MLOAD DUP1 SWAP2 SUB SWAP1 REVERT JUMPDEST PUSH1 0xF SIGNEXTEND PUSH1 0x0 SWAP1 DUP2 MSTORE PUSH1 0x1 SWAP4 SWAP1 SWAP4 ADD PUSH1 0x20 MSTORE POP POP PUSH1 0x40 SWAP1 KECCAK256 SLOAD SWAP1 JUMP JUMPDEST PUSH1 0x0 PUSH1 0x1 PUSH1 0x1 PUSH1 0xFF SHL SUB DUP3 GT ISZERO PUSH2 0x2454 JUMPI PUSH1 0x40 MLOAD PUSH3 0x461BCD PUSH1 0xE5 SHL DUP2 MSTORE PUSH1 0x20 PUSH1 0x4 DUP3 ADD MSTORE PUSH1 0x28 PUSH1 0x24 DUP3 ADD MSTORE PUSH32 0x53616665436173743A2076616C756520646F65736E27742066697420696E2061 PUSH1 0x44 DUP3 ADD MSTORE PUSH8 0x371034B73A191A9B PUSH1 0xC1 SHL PUSH1 0x64 DUP3 ADD MSTORE PUSH1 0x84 ADD PUSH2 0xB3A JUMP JUMPDEST POP SWAP1 JUMP JUMPDEST PUSH1 0x0 PUSH16 0x7FFFFFFFFFFFFFFFFFFFFFFFFFFFFFFF NOT DUP3 SLT DUP1 ISZERO SWAP1 PUSH2 0x248B JUMPI POP PUSH16 0x7FFFFFFFFFFFFFFFFFFFFFFFFFFFFFFF DUP3 SGT ISZERO JUMPDEST PUSH2 0x2454 JUMPI PUSH1 0x40 MLOAD PUSH3 0x461BCD PUSH1 0xE5 SHL DUP2 MSTORE PUSH1 0x20 PUSH1 0x4 DUP3 ADD MSTORE PUSH1 0x27 PUSH1 0x24 DUP3 ADD MSTORE PUSH32 0x53616665436173743A2076616C756520646F65736E27742066697420696E2031 PUSH1 0x44 DUP3 ADD MSTORE PUSH7 0x32382062697473 PUSH1 0xC8 SHL PUSH1 0x64 DUP3 ADD MSTORE PUSH1 0x84 ADD PUSH2 0xB3A JUMP JUMPDEST PUSH1 0x40 DUP1 MLOAD PUSH2 0x140 DUP2 ADD DUP3 MSTORE PUSH1 0x60 DUP1 DUP3 MSTORE PUSH1 0x0 PUSH1 0x20 DUP4 ADD DUP2 SWAP1 MSTORE SWAP3 DUP3 ADD DUP4 SWAP1 MSTORE DUP2 ADD DUP3 SWAP1 MSTORE PUSH1 0x80 DUP2 ADD DUP3 SWAP1 MSTORE PUSH1 0xA0 DUP2 ADD DUP3 SWAP1 MSTORE PUSH1 0xC0 DUP2 ADD DUP3 SWAP1 MSTORE PUSH1 0xE0 DUP2 ADD DUP3 SWAP1 MSTORE PUSH2 0x100 DUP2 ADD DUP3 SWAP1 MSTORE PUSH2 0x120 DUP2 ADD SWAP2 SWAP1 SWAP2 MSTORE SWAP1 JUMP JUMPDEST POP DUP1 SLOAD PUSH2 0x2547 SWAP1 PUSH2 0x2CB1 JUMP JUMPDEST PUSH1 0x0 DUP3 SSTORE DUP1 PUSH1 0x1F LT PUSH2 0x2557 JUMPI POP POP JUMP JUMPDEST PUSH1 0x1F ADD PUSH1 0x20 SWAP1 DIV SWAP1 PUSH1 0x0 MSTORE PUSH1 0x20 PUSH1 0x0 KECCAK256 SWAP1 DUP2 ADD SWAP1 PUSH2 0x207F SWAP2 SWAP1 JUMPDEST DUP1 DUP3 GT ISZERO PUSH2 0x2454 JUMPI PUSH1 0x0 DUP2 SSTORE PUSH1 0x1 ADD PUSH2 0x2571 JUMP JUMPDEST PUSH1 0x0 PUSH1 0x20 DUP3 DUP5 SUB SLT ISZERO PUSH2 0x2597 JUMPI PUSH1 0x0 DUP1 REVERT JUMPDEST POP CALLDATALOAD SWAP2 SWAP1 POP JUMP JUMPDEST PUSH1 0x0 DUP2 MLOAD DUP1 DUP5 MSTORE PUSH1 0x0 JUMPDEST DUP2 DUP2 LT ISZERO PUSH2 0x25C4 JUMPI PUSH1 0x20 DUP2 DUP6 ADD DUP2 ADD MLOAD DUP7 DUP4 ADD DUP3 ADD MSTORE ADD PUSH2 0x25A8 JUMP JUMPDEST DUP2 DUP2 GT ISZERO PUSH2 0x25D6 JUMPI PUSH1 0x0 PUSH1 0x20 DUP4 DUP8 ADD ADD MSTORE JUMPDEST POP PUSH1 0x1F ADD PUSH1 0x1F NOT AND SWAP3 SWAP1 SWAP3 ADD PUSH1 0x20 ADD SWAP3 SWAP2 POP POP JUMP JUMPDEST PUSH1 0xA0 DUP2 MSTORE PUSH1 0x0 PUSH2 0x25FE PUSH1 0xA0 DUP4 ADD DUP9 PUSH2 0x259E JUMP JUMPDEST PUSH2 0xFFFF SWAP7 SWAP1 SWAP7 AND PUSH1 0x20 DUP4 ADD MSTORE POP PUSH5 0xFFFFFFFFFF SWAP4 DUP5 AND PUSH1 0x40 DUP3 ADD MSTORE SWAP2 DUP4 AND PUSH1 0x60 DUP4 ADD MSTORE SWAP1 SWAP2 AND PUSH1 0x80 SWAP1 SWAP2 ADD MSTORE SWAP2 SWAP1 POP JUMP JUMPDEST PUSH4 0x4E487B71 PUSH1 0xE0 SHL PUSH1 0x0 MSTORE PUSH1 0x41 PUSH1 0x4 MSTORE PUSH1 0x24 PUSH1 0x0 REVERT JUMPDEST PUSH1 0x40 MLOAD PUSH1 0x1F DUP3 ADD PUSH1 0x1F NOT AND DUP2 ADD PUSH8 0xFFFFFFFFFFFFFFFF DUP2 GT DUP3 DUP3 LT OR ISZERO PUSH2 0x266E JUMPI PUSH2 0x266E PUSH2 0x262F JUMP JUMPDEST PUSH1 0x40 MSTORE SWAP2 SWAP1 POP JUMP JUMPDEST PUSH1 0x0 DUP3 PUSH1 0x1F DUP4 ADD SLT PUSH2 0x2687 JUMPI PUSH1 0x0 DUP1 REVERT JUMPDEST DUP2 CALLDATALOAD PUSH1 0x20 PUSH8 0xFFFFFFFFFFFFFFFF DUP3 GT ISZERO PUSH2 0x26A3 JUMPI PUSH2 0x26A3 PUSH2 0x262F JUMP JUMPDEST DUP2 PUSH1 0x5 SHL PUSH2 0x26B2 DUP3 DUP3 ADD PUSH2 0x2645 JUMP JUMPDEST SWAP3 DUP4 MSTORE DUP5 DUP2 ADD DUP3 ADD SWAP3 DUP3 DUP2 ADD SWAP1 DUP8 DUP6 GT ISZERO PUSH2 0x26CC JUMPI PUSH1 0x0 DUP1 REVERT JUMPDEST DUP4 DUP8 ADD SWAP3 POP JUMPDEST DUP5 DUP4 LT ISZERO PUSH2 0x26EB JUMPI DUP3 CALLDATALOAD DUP3 MSTORE SWAP2 DUP4 ADD SWAP2 SWAP1 DUP4 ADD SWAP1 PUSH2 0x26D2 JUMP JUMPDEST SWAP8 SWAP7 POP POP POP POP POP POP POP JUMP JUMPDEST PUSH1 0x0 DUP1 PUSH1 0x0 PUSH1 0x60 DUP5 DUP7 SUB SLT ISZERO PUSH2 0x270B JUMPI PUSH1 0x0 DUP1 REVERT JUMPDEST DUP4 CALLDATALOAD SWAP3 POP PUSH1 0x20 DUP5 ADD CALLDATALOAD PUSH8 0xFFFFFFFFFFFFFFFF DUP2 GT ISZERO PUSH2 0x2729 JUMPI PUSH1 0x0 DUP1 REVERT JUMPDEST PUSH2 0x2735 DUP7 DUP3 DUP8 ADD PUSH2 0x2676 JUMP JUMPDEST SWAP3 POP POP PUSH1 0x40 DUP5 ADD CALLDATALOAD DUP1 ISZERO ISZERO DUP2 EQ PUSH2 0x274B JUMPI PUSH1 0x0 DUP1 REVERT JUMPDEST DUP1 SWAP2 POP POP SWAP3 POP SWAP3 POP SWAP3 JUMP JUMPDEST PUSH1 0x0 PUSH2 0x100 DUP1 DUP4 MSTORE PUSH2 0x276A DUP2 DUP5 ADD DUP13 PUSH2 0x259E JUMP JUMPDEST SWAP10 ISZERO ISZERO PUSH1 0x20 DUP5 ADD MSTORE POP POP PUSH5 0xFFFFFFFFFF SWAP7 DUP8 AND PUSH1 0x40 DUP3 ADD MSTORE PUSH1 0xFF SWAP6 SWAP1 SWAP6 AND PUSH1 0x60 DUP7 ADD MSTORE PUSH3 0xFFFFFF SWAP4 SWAP1 SWAP4 AND PUSH1 0x80 DUP6 ADD MSTORE SWAP1 DUP5 AND PUSH1 0xA0 DUP5 ADD MSTORE SWAP1 SWAP3 AND PUSH1 0xC0 DUP3 ADD MSTORE PUSH2 0xFFFF SWAP1 SWAP2 AND PUSH1 0xE0 SWAP1 SWAP2 ADD MSTORE SWAP2 SWAP1 POP JUMP JUMPDEST PUSH1 0x0 PUSH1 0x20 DUP1 DUP4 ADD DUP2 DUP5 MSTORE DUP1 DUP6 MLOAD DUP1 DUP4 MSTORE PUSH1 0x40 DUP7 ADD SWAP2 POP PUSH1 0x40 DUP2 PUSH1 0x5 SHL DUP8 ADD ADD SWAP3 POP DUP4 DUP8 ADD PUSH1 0x0 JUMPDEST DUP3 DUP2 LT ISZERO PUSH2 0x2810 JUMPI PUSH1 0x3F NOT DUP9 DUP7 SUB ADD DUP5 MSTORE PUSH2 0x27FE DUP6 DUP4 MLOAD PUSH2 0x259E JUMP JUMPDEST SWAP5 POP SWAP3 DUP6 ADD SWAP3 SWAP1 DUP6 ADD SWAP1 PUSH1 0x1 ADD PUSH2 0x27E2 JUMP JUMPDEST POP SWAP3 SWAP8 SWAP7 POP POP POP POP POP POP POP JUMP JUMPDEST PUSH1 0x0 DUP1 DUP4 PUSH1 0x1F DUP5 ADD SLT PUSH2 0x282F JUMPI PUSH1 0x0 DUP1 REVERT JUMPDEST POP DUP2 CALLDATALOAD PUSH8 0xFFFFFFFFFFFFFFFF DUP2 GT ISZERO PUSH2 0x2847 JUMPI PUSH1 0x0 DUP1 REVERT JUMPDEST PUSH1 0x20 DUP4 ADD SWAP2 POP DUP4 PUSH1 0x20 DUP3 DUP6 ADD ADD GT ISZERO PUSH2 0x285F JUMPI PUSH1 0x0 DUP1 REVERT JUMPDEST SWAP3 POP SWAP3 SWAP1 POP JUMP JUMPDEST DUP1 CALLDATALOAD PUSH3 0xFFFFFF DUP2 AND DUP2 EQ PUSH2 0x2879 JUMPI PUSH1 0x0 DUP1 REVERT JUMPDEST SWAP2 SWAP1 POP JUMP JUMPDEST DUP1 CALLDATALOAD PUSH5 0xFFFFFFFFFF DUP2 AND DUP2 EQ PUSH2 0x2879 JUMPI PUSH1 0x0 DUP1 REVERT JUMPDEST DUP1 CALLDATALOAD PUSH2 0xFFFF DUP2 AND DUP2 EQ PUSH2 0x2879 JUMPI PUSH1 0x0 DUP1 REVERT JUMPDEST PUSH1 0x0 DUP1 PUSH1 0x0 DUP1 PUSH1 0x0 DUP1 PUSH1 0x0 PUSH1 0xC0 DUP9 DUP11 SUB SLT ISZERO PUSH2 0x28C0 JUMPI PUSH1 0x0 DUP1 REVERT JUMPDEST DUP8 CALLDATALOAD PUSH8 0xFFFFFFFFFFFFFFFF DUP2 GT ISZERO PUSH2 0x28D7 JUMPI PUSH1 0x0 DUP1 REVERT JUMPDEST PUSH2 0x28E3 DUP11 DUP3 DUP12 ADD PUSH2 0x281D JUMP JUMPDEST SWAP1 SWAP9 POP SWAP7 POP POP PUSH1 0x20 DUP9 ADD CALLDATALOAD PUSH1 0xFF DUP2 AND DUP2 EQ PUSH2 0x28FD JUMPI PUSH1 0x0 DUP1 REVERT JUMPDEST SWAP5 POP PUSH2 0x290B PUSH1 0x40 DUP10 ADD PUSH2 0x2866 JUMP JUMPDEST SWAP4 POP PUSH2 0x2919 PUSH1 0x60 DUP10 ADD PUSH2 0x287E JUMP JUMPDEST SWAP3 POP PUSH2 0x2927 PUSH1 0x80 DUP10 ADD PUSH2 0x287E JUMP JUMPDEST SWAP2 POP PUSH2 0x2935 PUSH1 0xA0 DUP10 ADD PUSH2 0x2893 JUMP JUMPDEST SWAP1 POP SWAP3 SWAP6 SWAP9 SWAP2 SWAP5 SWAP8 POP SWAP3 SWAP6 POP JUMP JUMPDEST PUSH1 0x0 DUP1 PUSH1 0x40 DUP4 DUP6 SUB SLT ISZERO PUSH2 0x2956 JUMPI PUSH1 0x0 DUP1 REVERT JUMPDEST POP POP DUP1 CALLDATALOAD SWAP3 PUSH1 0x20 SWAP1 SWAP2 ADD CALLDATALOAD SWAP2 POP JUMP JUMPDEST PUSH1 0x1 PUSH1 0x1 PUSH1 0xA0 SHL SUB DUP2 AND DUP2 EQ PUSH2 0x207F JUMPI PUSH1 0x0 DUP1 REVERT JUMPDEST PUSH1 0x0 PUSH1 0x20 DUP3 DUP5 SUB SLT ISZERO PUSH2 0x298C JUMPI PUSH1 0x0 DUP1 REVERT JUMPDEST DUP2 CALLDATALOAD PUSH2 0x2997 DUP2 PUSH2 0x2965 JUMP JUMPDEST SWAP4 SWAP3 POP POP POP JUMP JUMPDEST PUSH1 0x0 DUP1 PUSH1 0x0 PUSH1 0x60 DUP5 DUP7 SUB SLT ISZERO PUSH2 0x29B3 JUMPI PUSH1 0x0 DUP1 REVERT JUMPDEST DUP4 CALLDATALOAD PUSH8 0xFFFFFFFFFFFFFFFF DUP1 DUP3 GT ISZERO PUSH2 0x29CB JUMPI PUSH1 0x0 DUP1 REVERT JUMPDEST DUP2 DUP7 ADD SWAP2 POP DUP7 PUSH1 0x1F DUP4 ADD SLT PUSH2 0x29DF JUMPI PUSH1 0x0 DUP1 REVERT JUMPDEST DUP2 CALLDATALOAD PUSH1 0x20 DUP3 DUP3 GT ISZERO PUSH2 0x29F3 JUMPI PUSH2 0x29F3 PUSH2 0x262F JUMP JUMPDEST PUSH2 0x2A05 PUSH1 0x1F DUP4 ADD PUSH1 0x1F NOT AND DUP3 ADD PUSH2 0x2645 JUMP JUMPDEST SWAP3 POP DUP2 DUP4 MSTORE DUP9 DUP2 DUP4 DUP7 ADD ADD GT ISZERO PUSH2 0x2A1B JUMPI PUSH1 0x0 DUP1 REVERT JUMPDEST DUP2 DUP2 DUP6 ADD DUP3 DUP6 ADD CALLDATACOPY PUSH1 0x0 DUP2 DUP4 DUP6 ADD ADD MSTORE DUP3 SWAP7 POP DUP1 DUP9 ADD CALLDATALOAD SWAP6 POP POP POP POP POP PUSH2 0x2A44 PUSH1 0x40 DUP6 ADD PUSH2 0x287E JUMP JUMPDEST SWAP1 POP SWAP3 POP SWAP3 POP SWAP3 JUMP JUMPDEST PUSH1 0x0 DUP1 PUSH1 0x0 PUSH1 0x60 DUP5 DUP7 SUB SLT ISZERO PUSH2 0x2A62 JUMPI PUSH1 0x0 DUP1 REVERT JUMPDEST POP POP DUP2 CALLDATALOAD SWAP4 PUSH1 0x20 DUP4 ADD CALLDATALOAD SWAP4 POP PUSH1 0x40 SWAP1 SWAP3 ADD CALLDATALOAD SWAP2 SWAP1 POP JUMP JUMPDEST PUSH1 0x0 PUSH2 0x140 DUP1 DUP4 MSTORE PUSH2 0x2A8D DUP2 DUP5 ADD DUP15 PUSH2 0x259E JUMP JUMPDEST PUSH5 0xFFFFFFFFFF SWAP13 DUP14 AND PUSH1 0x20 DUP6 ADD MSTORE PUSH1 0x40 DUP5 ADD SWAP12 SWAP1 SWAP12 MSTORE POP POP PUSH1 0x60 DUP2 ADD SWAP8 SWAP1 SWAP8 MSTORE PUSH1 0xFF SWAP6 SWAP1 SWAP6 AND PUSH1 0x80 DUP8 ADD MSTORE PUSH3 0xFFFFFF SWAP4 SWAP1 SWAP4 AND PUSH1 0xA0 DUP7 ADD MSTORE PUSH1 0x1 PUSH1 0x1 PUSH1 0x50 SHL SUB SWAP2 SWAP1 SWAP2 AND PUSH1 0xC0 DUP6 ADD MSTORE PUSH2 0xFFFF SWAP1 DUP2 AND PUSH1 0xE0 DUP6 ADD MSTORE AND PUSH2 0x100 DUP4 ADD MSTORE SWAP1 SWAP3 AND PUSH2 0x120 SWAP1 SWAP3 ADD SWAP2 SWAP1 SWAP2 MSTORE SWAP2 SWAP1 POP JUMP JUMPDEST PUSH1 0x20 DUP2 MSTORE PUSH1 0x0 DUP3 MLOAD PUSH2 0x140 DUP1 PUSH1 0x20 DUP6 ADD MSTORE PUSH2 0x2B19 PUSH2 0x160 DUP6 ADD DUP4 PUSH2 0x259E JUMP JUMPDEST SWAP2 POP PUSH1 0x20 DUP6 ADD MLOAD PUSH2 0x2B33 PUSH1 0x40 DUP7 ADD DUP3 PUSH5 0xFFFFFFFFFF AND SWAP1 MSTORE JUMP JUMPDEST POP PUSH1 0x40 DUP6 ADD MLOAD PUSH1 0x60 DUP6 ADD MSTORE PUSH1 0x60 DUP6 ADD MLOAD PUSH1 0x80 DUP6 ADD MSTORE PUSH1 0x80 DUP6 ADD MLOAD PUSH2 0x2B5C PUSH1 0xA0 DUP7 ADD DUP3 PUSH1 0xFF AND SWAP1 MSTORE JUMP JUMPDEST POP PUSH1 0xA0 DUP6 ADD MLOAD PUSH3 0xFFFFFF DUP2 AND PUSH1 0xC0 DUP7 ADD MSTORE POP PUSH1 0xC0 DUP6 ADD MLOAD PUSH1 0x1 PUSH1 0x1 PUSH1 0x50 SHL SUB DUP2 AND PUSH1 0xE0 DUP7 ADD MSTORE POP PUSH1 0xE0 DUP6 ADD MLOAD PUSH2 0x100 PUSH2 0x2B9A DUP2 DUP8 ADD DUP4 PUSH2 0xFFFF AND SWAP1 MSTORE JUMP JUMPDEST DUP7 ADD MLOAD SWAP1 POP PUSH2 0x120 PUSH2 0x2BB1 DUP7 DUP3 ADD DUP4 PUSH2 0xFFFF AND SWAP1 MSTORE JUMP JUMPDEST SWAP1 SWAP6 ADD MLOAD PUSH5 0xFFFFFFFFFF AND SWAP4 ADD SWAP3 SWAP1 SWAP3 MSTORE POP SWAP2 SWAP1 POP JUMP JUMPDEST PUSH1 0x0 DUP1 PUSH1 0x0 DUP1 PUSH1 0x0 DUP1 PUSH1 0x0 PUSH1 0xC0 DUP9 DUP11 SUB SLT ISZERO PUSH2 0x2BE3 JUMPI PUSH1 0x0 DUP1 REVERT JUMPDEST DUP8 CALLDATALOAD PUSH8 0xFFFFFFFFFFFFFFFF DUP2 GT ISZERO PUSH2 0x2BFA JUMPI PUSH1 0x0 DUP1 REVERT JUMPDEST PUSH2 0x2C06 DUP11 DUP3 DUP12 ADD PUSH2 0x281D JUMP JUMPDEST SWAP1 SWAP9 POP SWAP7 POP PUSH2 0x28FD SWAP1 POP PUSH1 0x20 DUP10 ADD PUSH2 0x2893 JUMP JUMPDEST PUSH1 0x0 DUP1 PUSH1 0x0 PUSH1 0x60 DUP5 DUP7 SUB SLT ISZERO PUSH2 0x2C2E JUMPI PUSH1 0x0 DUP1 REVERT JUMPDEST DUP4 CALLDATALOAD SWAP3 POP PUSH1 0x20 DUP5 ADD CALLDATALOAD SWAP2 POP PUSH1 0x40 DUP5 ADD CALLDATALOAD PUSH8 0xFFFFFFFFFFFFFFFF DUP2 GT ISZERO PUSH2 0x2C53 JUMPI PUSH1 0x0 DUP1 REVERT JUMPDEST PUSH2 0x2C5F DUP7 DUP3 DUP8 ADD PUSH2 0x2676 JUMP JUMPDEST SWAP2 POP POP SWAP3 POP SWAP3 POP SWAP3 JUMP JUMPDEST PUSH1 0x20 DUP1 DUP3 MSTORE DUP3 MLOAD DUP3 DUP3 ADD DUP2 SWAP1 MSTORE PUSH1 0x0 SWAP2 SWAP1 DUP5 DUP3 ADD SWAP1 PUSH1 0x40 DUP6 ADD SWAP1 DUP5 JUMPDEST DUP2 DUP2 LT ISZERO PUSH2 0x2CA5 JUMPI DUP4 MLOAD PUSH2 0xFFFF AND DUP4 MSTORE SWAP3 DUP5 ADD SWAP3 SWAP2 DUP5 ADD SWAP2 PUSH1 0x1 ADD PUSH2 0x2C85 JUMP JUMPDEST POP SWAP1 SWAP7 SWAP6 POP POP POP POP POP POP JUMP JUMPDEST PUSH1 0x1 DUP2 DUP2 SHR SWAP1 DUP3 AND DUP1 PUSH2 0x2CC5 JUMPI PUSH1 0x7F DUP3 AND SWAP2 POP JUMPDEST PUSH1 0x20 DUP3 LT DUP2 SUB PUSH2 0x2CE5 JUMPI PUSH4 0x4E487B71 PUSH1 0xE0 SHL PUSH1 0x0 MSTORE PUSH1 0x22 PUSH1 0x4 MSTORE PUSH1 0x24 PUSH1 0x0 REVERT JUMPDEST POP SWAP2 SWAP1 POP JUMP JUMPDEST PUSH4 0x4E487B71 PUSH1 0xE0 SHL PUSH1 0x0 MSTORE PUSH1 0x32 PUSH1 0x4 MSTORE PUSH1 0x24 PUSH1 0x0 REVERT JUMPDEST DUP2 MLOAD PUSH1 0x0 SWAP1 DUP3 SWAP1 PUSH1 0x20 DUP1 DUP7 ADD DUP5 JUMPDEST DUP4 DUP2 LT ISZERO PUSH2 0x2D2B JUMPI DUP2 MLOAD DUP6 MSTORE SWAP4 DUP3 ADD SWAP4 SWAP1 DUP3 ADD SWAP1 PUSH1 0x1 ADD PUSH2 0x2D0F JUMP JUMPDEST POP SWAP3 SWAP7 SWAP6 POP POP POP POP POP POP JUMP JUMPDEST DUP5 DUP2 MSTORE DUP4 ISZERO ISZERO PUSH1 0x20 DUP3 ADD MSTORE DUP3 PUSH1 0x40 DUP3 ADD MSTORE PUSH1 0x80 PUSH1 0x60 DUP3 ADD MSTORE PUSH1 0x0 PUSH2 0x2D5E PUSH1 0x80 DUP4 ADD DUP5 PUSH2 0x259E JUMP JUMPDEST SWAP7 SWAP6 POP POP POP POP POP POP JUMP JUMPDEST PUSH1 0x20 DUP1 DUP3 MSTORE DUP2 DUP2 ADD MSTORE PUSH32 0x4F776E61626C653A2063616C6C6572206973206E6F7420746865206F776E6572 PUSH1 0x40 DUP3 ADD MSTORE PUSH1 0x60 ADD SWAP1 JUMP JUMPDEST PUSH1 0x20 DUP2 MSTORE PUSH1 0x0 PUSH2 0x2997 PUSH1 0x20 DUP4 ADD DUP5 PUSH2 0x259E JUMP JUMPDEST PUSH1 0x0 PUSH1 0x20 DUP1 DUP4 MSTORE PUSH1 0x0 DUP5 SLOAD PUSH2 0x2DC4 DUP2 PUSH2 0x2CB1 JUMP JUMPDEST DUP1 DUP5 DUP8 ADD MSTORE PUSH1 0x40 PUSH1 0x1 DUP1 DUP5 AND PUSH1 0x0 DUP2 EQ PUSH2 0x2DE5 JUMPI PUSH1 0x1 DUP2 EQ PUSH2 0x2DFF JUMPI PUSH2 0x2E2D JUMP JUMPDEST PUSH1 0xFF NOT DUP6 AND DUP10 DUP5 ADD MSTORE DUP4 ISZERO ISZERO PUSH1 0x5 SHL DUP10 ADD DUP4 ADD SWAP6 POP PUSH2 0x2E2D JUMP JUMPDEST DUP10 PUSH1 0x0 MSTORE DUP7 PUSH1 0x0 KECCAK256 PUSH1 0x0 JUMPDEST DUP6 DUP2 LT ISZERO PUSH2 0x2E25 JUMPI DUP2 SLOAD DUP12 DUP3 ADD DUP7 ADD MSTORE SWAP1 DUP4 ADD SWAP1 DUP9 ADD PUSH2 0x2E0A JUMP JUMPDEST DUP11 ADD DUP5 ADD SWAP7 POP POP JUMPDEST POP SWAP4 SWAP9 SWAP8 POP POP POP POP POP POP POP POP JUMP JUMPDEST PUSH1 0x1F DUP3 GT ISZERO PUSH2 0x2E85 JUMPI PUSH1 0x0 DUP2 DUP2 MSTORE PUSH1 0x20 DUP2 KECCAK256 PUSH1 0x1F DUP6 ADD PUSH1 0x5 SHR DUP2 ADD PUSH1 0x20 DUP7 LT ISZERO PUSH2 0x2E62 JUMPI POP DUP1 JUMPDEST PUSH1 0x1F DUP6 ADD PUSH1 0x5 SHR DUP3 ADD SWAP2 POP JUMPDEST DUP2 DUP2 LT ISZERO PUSH2 0x2E81 JUMPI DUP3 DUP2 SSTORE PUSH1 0x1 ADD PUSH2 0x2E6E JUMP JUMPDEST POP POP POP JUMPDEST POP POP POP JUMP JUMPDEST DUP2 MLOAD PUSH8 0xFFFFFFFFFFFFFFFF DUP2 GT ISZERO PUSH2 0x2EA4 JUMPI PUSH2 0x2EA4 PUSH2 0x262F JUMP JUMPDEST PUSH2 0x2EB8 DUP2 PUSH2 0x2EB2 DUP5 SLOAD PUSH2 0x2CB1 JUMP JUMPDEST DUP5 PUSH2 0x2E3B JUMP JUMPDEST PUSH1 0x20 DUP1 PUSH1 0x1F DUP4 GT PUSH1 0x1 DUP2 EQ PUSH2 0x2EED JUMPI PUSH1 0x0 DUP5 ISZERO PUSH2 0x2ED5 JUMPI POP DUP6 DUP4 ADD MLOAD JUMPDEST PUSH1 0x0 NOT PUSH1 0x3 DUP7 SWAP1 SHL SHR NOT AND PUSH1 0x1 DUP6 SWAP1 SHL OR DUP6 SSTORE PUSH2 0x2E81 JUMP JUMPDEST PUSH1 0x0 DUP6 DUP2 MSTORE PUSH1 0x20 DUP2 KECCAK256 PUSH1 0x1F NOT DUP7 AND SWAP2 JUMPDEST DUP3 DUP2 LT ISZERO PUSH2 0x2F1C JUMPI DUP9 DUP7 ADD MLOAD DUP3 SSTORE SWAP5 DUP5 ADD SWAP5 PUSH1 0x1 SWAP1 SWAP2 ADD SWAP1 DUP5 ADD PUSH2 0x2EFD JUMP JUMPDEST POP DUP6 DUP3 LT ISZERO PUSH2 0x2F3A JUMPI DUP8 DUP6 ADD MLOAD PUSH1 0x0 NOT PUSH1 0x3 DUP9 SWAP1 SHL PUSH1 0xF8 AND SHR NOT AND DUP2 SSTORE JUMPDEST POP POP POP POP POP PUSH1 0x1 SWAP1 DUP2 SHL ADD SWAP1 SSTORE POP JUMP JUMPDEST PUSH4 0x4E487B71 PUSH1 0xE0 SHL PUSH1 0x0 MSTORE PUSH1 0x11 PUSH1 0x4 MSTORE PUSH1 0x24 PUSH1 0x0 REVERT JUMPDEST PUSH1 0x0 DUP3 NOT DUP3 GT ISZERO PUSH2 0x2F73 JUMPI PUSH2 0x2F73 PUSH2 0x2F4A JUMP JUMPDEST POP ADD SWAP1 JUMP JUMPDEST PUSH1 0x0 PUSH1 0x1 DUP3 ADD PUSH2 0x2F8A JUMPI PUSH2 0x2F8A PUSH2 0x2F4A JUMP JUMPDEST POP PUSH1 0x1 ADD SWAP1 JUMP JUMPDEST PUSH1 0x0 PUSH1 0x20 DUP3 DUP5 SUB SLT ISZERO PUSH2 0x2FA3 JUMPI PUSH1 0x0 DUP1 REVERT JUMPDEST DUP2 MLOAD PUSH2 0x2997 DUP2 PUSH2 0x2965 JUMP JUMPDEST PUSH8 0xFFFFFFFFFFFFFFFF DUP4 GT ISZERO PUSH2 0x2FC6 JUMPI PUSH2 0x2FC6 PUSH2 0x262F JUMP JUMPDEST PUSH2 0x2FDA DUP4 PUSH2 0x2FD4 DUP4 SLOAD PUSH2 0x2CB1 JUMP JUMPDEST DUP4 PUSH2 0x2E3B JUMP JUMPDEST PUSH1 0x0 PUSH1 0x1F DUP5 GT PUSH1 0x1 DUP2 EQ PUSH2 0x300E JUMPI PUSH1 0x0 DUP6 ISZERO PUSH2 0x2FF6 JUMPI POP DUP4 DUP3 ADD CALLDATALOAD JUMPDEST PUSH1 0x0 NOT PUSH1 0x3 DUP8 SWAP1 SHL SHR NOT AND PUSH1 0x1 DUP7 SWAP1 SHL OR DUP4 SSTORE PUSH2 0x3068 JUMP JUMPDEST PUSH1 0x0 DUP4 DUP2 MSTORE PUSH1 0x20 SWAP1 KECCAK256 PUSH1 0x1F NOT DUP7 AND SWAP1 DUP4 JUMPDEST DUP3 DUP2 LT ISZERO PUSH2 0x303F JUMPI DUP7 DUP6 ADD CALLDATALOAD DUP3 SSTORE PUSH1 0x20 SWAP5 DUP6 ADD SWAP5 PUSH1 0x1 SWAP1 SWAP3 ADD SWAP2 ADD PUSH2 0x301F JUMP JUMPDEST POP DUP7 DUP3 LT ISZERO PUSH2 0x305C JUMPI PUSH1 0x0 NOT PUSH1 0xF8 DUP9 PUSH1 0x3 SHL AND SHR NOT DUP5 DUP8 ADD CALLDATALOAD AND DUP2 SSTORE JUMPDEST POP POP PUSH1 0x1 DUP6 PUSH1 0x1 SHL ADD DUP4 SSTORE JUMPDEST POP POP POP POP POP JUMP JUMPDEST PUSH1 0x0 PUSH1 0x1 PUSH1 0x1 PUSH1 0x50 SHL SUB DUP1 DUP5 AND DUP1 PUSH2 0x3097 JUMPI PUSH4 0x4E487B71 PUSH1 0xE0 SHL PUSH1 0x0 MSTORE PUSH1 0x12 PUSH1 0x4 MSTORE PUSH1 0x24 PUSH1 0x0 REVERT JUMPDEST SWAP3 AND SWAP2 SWAP1 SWAP2 DIV SWAP3 SWAP2 POP POP JUMP JUMPDEST PUSH1 0x20 DUP1 DUP3 MSTORE PUSH1 0x14 SWAP1 DUP3 ADD MSTORE PUSH20 0x2330B4B632B2103A379039B2B7321022BA3432B9 PUSH1 0x61 SHL PUSH1 0x40 DUP3 ADD MSTORE PUSH1 0x60 ADD SWAP1 JUMP JUMPDEST PUSH1 0xE0 DUP2 MSTORE DUP8 PUSH1 0xE0 DUP3 ADD MSTORE PUSH1 0x0 PUSH2 0x100 DUP10 DUP12 DUP3 DUP6 ADD CALLDATACOPY PUSH1 0x0 DUP11 DUP5 ADD DUP3 ADD MSTORE PUSH5 0xFFFFFFFFFF SWAP9 DUP10 AND PUSH1 0x20 DUP5 ADD MSTORE PUSH1 0xFF SWAP8 SWAP1 SWAP8 AND PUSH1 0x40 DUP4 ADD MSTORE POP PUSH3 0xFFFFFF SWAP5 SWAP1 SWAP5 AND PUSH1 0x60 DUP6 ADD MSTORE SWAP2 DUP6 AND PUSH1 0x80 DUP5 ADD MSTORE SWAP1 SWAP4 AND PUSH1 0xA0 DUP3 ADD MSTORE PUSH2 0xFFFF SWAP1 SWAP3 AND PUSH1 0xC0 DUP4 ADD MSTORE PUSH1 0x1F SWAP1 SWAP3 ADD PUSH1 0x1F NOT AND ADD ADD SWAP2 SWAP1 POP JUMP JUMPDEST PUSH1 0x0 DUP1 DUP3 SLT DUP1 ISZERO PUSH1 0x1 PUSH1 0x1 PUSH1 0xFF SHL SUB DUP5 SWAP1 SUB DUP6 SGT AND ISZERO PUSH2 0x3162 JUMPI PUSH2 0x3162 PUSH2 0x2F4A JUMP JUMPDEST PUSH1 0x1 PUSH1 0xFF SHL DUP4 SWAP1 SUB DUP5 SLT DUP2 AND ISZERO PUSH2 0x317B JUMPI PUSH2 0x317B PUSH2 0x2F4A JUMP JUMPDEST POP POP ADD SWAP1 JUMP INVALID LOG2 PUSH5 0x6970667358 0x22 SLT KECCAK256 0xA8 0xD4 0xD5 PUSH23 0x92DAC8445D7AC48668AC967C50196A9E266C28D50D8CE9 JUMPDEST 0xFB DIFFICULTY 0x27 SWAP15 PUSH5 0x736F6C6343 STOP ADDMOD 0xF STOP CALLER ",
  "sha1": "65761d9d2ffe00cee487805d93e516b4b007aa41",
  "source": "pragma solidity 0.8.15;\n// SPDX-License-Identifier: Unlicensed\n\nimport \"./wizards.sol\";\nimport \"./interfaces/IERC20.sol\";\nimport \"./interfaces/IERC165.sol\";\nimport \"./interfaces/IERC721.sol\";\nimport \"./interfaces/IERC721Enumerable.sol\";\n//import \"./helpers/base64.sol\";\nimport './helpers/ERC721A.sol';\nimport './helpers/ERC721.sol';\nimport './helpers/ERC165.sol';\nimport './helpers/Ownable.sol';\nimport './helpers/Context.sol';\nimport './helpers/ReentrancyGuard.sol';\nimport './helpers/ERC2981Collection.sol';\nimport './libraries/Strings.sol';\nimport './libraries/Address.sol';\nimport {DoubleEndedQueue} from \"@openzeppelin/contracts/utils/structs/DoubleEndedQueue.sol\";\n\n//contract BMMultipass is ERC721Enumerable, ReentrancyGuard, Ownable {\ncontract Governance is ReentrancyGuard, Ownable {\n\n//    IERC20  ecosystemTokens;\n    Wizards wizardsNFT;\n\n    // the value stored here is shifted over by one because 0 means no vote, 1 means voting for slot 0\n    mapping (uint256 => mapping (uint256 => uint256)) public proposalToNFTVotes;\n\n    // used to find active tasks\n    struct TaskType {\n        mapping (address => uint256) lastActiveTimestamp; // for recurring tasks -- todo -- add waitTime or ...\n        string IPFSHash; // holds description\n        bool paused;\n        uint40 proposalID; // proposal ID or 0 if task\n        uint8 numFieldsToHash;\n        uint24 timeBonus;\n        uint40 begTimestamp;\n        uint40 endTimestamp;\n        uint16 availableSlots;\n    }\n\n    // include parent???\n    struct Task {\n        string IPFSHash; // holds description\n        uint40 NFTID; // wizard ID of who is assigned task\n        bytes32 hash; // hashed input to be validated\n        bytes32 refuterHash; // correct hash according to refuter\n        uint8 numFieldsToHash; // input fields\n        uint24 timeBonus; // increases Wizard's activation time, in seconds\n//        uint8 strikes; // number of times confirmation has failed, use existence of refuterID\n        uint80 payment; //\n        uint16 verifierID; // wizardId of Verifier\n        uint16 refuterID; // wizardId of Verifier\n        uint40 verificationReservedTimestamp; // time when verification period ends\n    }\n\n    struct Proposal {\n        string IPFSHash;\n        uint16 numberOfOptions;\n        uint16[8] votes;\n        uint40 totalVotes;\n        uint40 begTimestamp;\n        uint40 endTimestamp;\n    }\n\n\n\n    TaskType[] public taskTypes; // we must keep task types low in quantity to avoid gas issues\n\n    // todo -- these should be dequeues\n    DoubleEndedQueue.Bytes32Deque public tasksSubmitted;\n//    uint256[] public tasksVerifying; // reduce size?\n\n//    DoubleEndedQueue.Bytes32Deque  public myQueue;\n\n    mapping (uint256 => Proposal) public proposals;\n    uint256 totalProposals;\n\n    mapping (uint256 => Task) public tasks;\n    uint256 tasksAttempted;\n\n    // todo -- Adjustable\n    uint256 verificationTime = 10*60; // 10 minutes\n    uint256 taskVerificationTimeBonus = 1 days; // 1 day\n\n\n    event VerificationAssigned(uint256 wizardId, uint256 taskId);\n    event VerificationFailed(uint256 VerifierIdFirst, uint256 VerifierIdSecond, uint256 taskId);\n    event VerificationSucceeded(uint256 taskDoer, uint256 Verifier, uint256 taskId, bytes32 hash, bool isHashCorrect);\n    event HashTesting(bytes32 hash, bool isHashCorrect, bytes32 firstEncoded, bytes firstUnencoded);\n    event NewTaskTypeCreated(string _IPFSHash,uint40 _proposalID, uint8 _numFieldsToHash, uint24 _timeBonus,\n          uint40 _begTimestamp, uint40 _endTimestamp, uint16 _availableSlots);\n\n    /////////////////////////////\n    //////  TEMP Functions ///////\n    /////////////////////////////\n\n    /*\n    function getFront() view external returns ( uint256) {\n        require(DoubleEndedQueue.length(myQueue)!=0, \"Empty Dequeue\");\n        return uint256(DoubleEndedQueue.front(myQueue));\n    }\n\n    function pushFront(bytes32 _data) external {\n    //  Task memory myTask = Task(\"0 - MYIPFSHASH\", 1, keccak256(4), 3, 4, 5, 6, 7);\n        DoubleEndedQueue.pushFront(myQueue,bytes32(_data));\n    }\n    */\n\n    /////////////////////////////\n    //////  Get Functions ///////\n    /////////////////////////////\n\n/*\n// todo -- delete this helper function\n    function getTaskTypeFields(uint256 _id) external view returns (uint8 ) {\n        return taskTypes[_id].numFieldsToHash;\n    }\n*/\n    function getTaskById(uint256 _taskId) external view returns (Task memory) {\n        return tasks[_taskId];\n    }\n\n    function getVotes(uint256 proposalID) external view returns (uint16[] memory) {\n        require(proposalID < totalProposals, \"no such proposal\");\n        uint16[] memory voteArray = new uint16[](proposals[proposalID].numberOfOptions);\n        for(uint256 i = 0; i< voteArray.length; i++){\n            voteArray[i] = proposals[proposalID].votes[i];\n        }\n        return voteArray;\n    }\n\n    function getWinningVote(uint256 proposalID) external view returns (uint256 ) {\n        require(proposalID < totalProposals, \"no such proposal\");\n        require( block.timestamp > proposals[proposalID].endTimestamp, \"voting still active\"); // todo -- end voting only on time? Or, what?\n        // todo -- is there a need to win by a certain percent?\n        uint256 winningVote;\n        uint256 winningVoteAmount;\n        uint256 tie=0;\n        for(uint256 i=0; i< proposals[proposalID].numberOfOptions; i++){ // start at 1 as 0 means no vote???\n            if(proposals[proposalID].votes[i] > winningVoteAmount) {\n                winningVoteAmount = proposals[proposalID].votes[i];\n                winningVote = i;\n                if (tie==1) { tie = 0;}\n            }\n            else if(proposals[proposalID].votes[i] == winningVoteAmount){\n                tie=1;\n            }\n        }\n        require(tie==0, \"there was a tie.\");\n        return winningVote;\n    }\n\n    // todo -- see if we need to include IDs here -- may not need to\n    function getMyAvailableTaskTypes() external view returns (string[] memory) {\n        uint256 count;\n        for(uint256 i=0; i< taskTypes.length;){\n            if(taskTypes[i].lastActiveTimestamp[msg.sender] < block.timestamp\n            && taskTypes[i].begTimestamp <= block.timestamp && taskTypes[i].endTimestamp > block.timestamp\n            && taskTypes[i].availableSlots > 1\n            ) {\n                unchecked{++count;}\n            }\n            else {\n                string[] memory myReturn= new string[](1);\n                myReturn[0] = \"No luck.\";\n                return myReturn;\n            }\n            unchecked{++i;}\n        }\n\n        string[] memory myTasks = new string[](count);\n        uint256 counter = 0;\n        for(uint256 i=0; i< taskTypes.length;){\n            if(taskTypes[i].lastActiveTimestamp[msg.sender] < block.timestamp\n            && taskTypes[i].begTimestamp <= block.timestamp && taskTypes[i].endTimestamp > block.timestamp\n            && taskTypes[i].availableSlots > 1\n            ) {\n                myTasks[i] = taskTypes[i].IPFSHash;\n                unchecked{++counter;}\n                if(counter >= count) {\n                    break;\n                }\n            }\n            unchecked{++i;}\n        }\n        return myTasks;\n    }\n\n\n    /////////////////////////////\n    //////  Set Functions ///////\n    /////////////////////////////\n\n    function setNFTAddress(address _addy) external onlyOwner {\n        wizardsNFT = Wizards(_addy);\n    }\n\n\n//    function setERC20Address(address _addy) external onlyOwner {\n//        ecosystemTokens = IERC20(_addy);\n//    }\n\n\n\n    //////////////////////////////\n    //////  Main Functions ///////\n    //////////////////////////////\n\n    /** @dev Constructor for HOADAO\n        @param _nft -- contract address for NFTs\n      */\n    constructor(address _nft){\n//        ecosystemTokens = IERC20(_erc20);\n        wizardsNFT = Wizards(_nft);\n\n//        contractSettings = ContractSettings({\n//        });\n\n    }\n\n    // Required to receive ETH\n    receive() external payable {\n    }\n\n    function vote(uint256 proposalID, uint256 NFTID, uint256 _vote) external onlyMember {\n        require(proposalID < totalProposals, \"no such proposal\");\n        require(wizardsNFT.ownerOf(NFTID)==msg.sender, \"not owner of NFT\");\n        require(proposalToNFTVotes[proposalID][NFTID]==0, \"already voted\");\n        require(_vote!=0 && _vote <= proposals[proposalID].numberOfOptions);\n        require(block.timestamp < proposals[proposalID].endTimestamp);\n        proposalToNFTVotes[proposalID][NFTID] = _vote + 1; // vote reference shifted by one\n        proposals[proposalID].votes[_vote] += 1; // increment votes\n        proposals[proposalID].totalVotes += 1;\n    }\n\n    // votes won't need to be confirmed\n    function createProposal(string calldata _IPFSHash, uint16 _numberOfOptions, uint24 _timeBonus, uint40 _begTimestamp, uint40 _endTimestamp, uint16 _availableSlots) external onlyBoard {\n        require(_numberOfOptions > 1 && _numberOfOptions < 257, \"invalid number of options\");\n        totalProposals += 1; // keep nothing at 0\n        Proposal storage myProposal = proposals[totalProposals];\n            myProposal.begTimestamp = _begTimestamp;\n            myProposal.endTimestamp = _endTimestamp;\n            myProposal.numberOfOptions = _numberOfOptions;\n            myProposal.IPFSHash = _IPFSHash;\n\n        _createTaskType(_IPFSHash, uint40(totalProposals), 0, _timeBonus, _begTimestamp, _endTimestamp, _availableSlots);\n        // todo --  emit event\n    }\n\n\n    function createTaskType(string calldata _IPFSHash, uint8 _numFieldsToHash, uint24 _timeBonus, uint40 _begTimestamp,\n                uint40 _endTimestamp, uint16 _availableSlots) external onlyBoard {\n        _createTaskType(_IPFSHash, 0, _numFieldsToHash, _timeBonus, _begTimestamp, _endTimestamp, _availableSlots);\n    }\n\n    function _createTaskType(string calldata _IPFSHash, uint40 _proposalID, uint8 _numFieldsToHash, uint24 _timeBonus,\n             uint40 _begTimestamp, uint40 _endTimestamp, uint16 _availableSlots) internal {\n        uint256 taskTypesLength = taskTypes.length;\n        taskTypes.push();\n        TaskType storage newTaskType = taskTypes[taskTypesLength];\n            newTaskType.IPFSHash =_IPFSHash;\n            newTaskType.paused = false;\n            newTaskType.proposalID = _proposalID;\n            newTaskType.numFieldsToHash = _numFieldsToHash;\n            newTaskType.timeBonus = _timeBonus;\n            newTaskType.begTimestamp = _begTimestamp;\n            newTaskType.endTimestamp = _endTimestamp;\n            newTaskType.availableSlots = _availableSlots;\n        // todo --  emit event\n        emit NewTaskTypeCreated(_IPFSHash, _proposalID, _numFieldsToHash, _timeBonus, _begTimestamp, _endTimestamp, _availableSlots);\n    }\n\n\n    function claimRandomTaskForVerification(uint256 _wizID) external {\n        uint256 totalTasksSubmitted = DoubleEndedQueue.length(tasksSubmitted);\n        Task memory myTask;\n        uint256 taskId;\n        // todo --implement randomness\n//        uint256[25] memory potentialTasks;\n        for(uint256 i =0; i < totalTasksSubmitted; ){\n            if( myTask.verificationReservedTimestamp < block.timestamp && myTask.NFTID != _wizID && myTask.refuterID!= _wizID){ // todo -- make sure to start IDs at 1\n//                potentialTasks.push(uint256(DoubleEndedQueue.at(tasksSubmitted, i)));\n                taskId = uint256(DoubleEndedQueue.at(tasksSubmitted, i));\n                myTask = tasks[taskId];\n\n                /*\n                // adjust dequeue\n                tasksSubmitted[0], tasksSubmitted[uint128(i)] = bytes32(0), tasksSubmitted[uint128(i)];\n                tasksVerifying.push(uint256(tasksSubmitted[uint128(i)]));\n                // shift head of dequeue to maintain structure (slight penalty for head)\n                if (i != 0) {\n                    tasksSubmitted._data[uint128(i)] = tasksSubmitted._data[tasksSubmitted.begin];\n                }\n                DoubleEndedQueue.pop(tasksSubmitted);\n                */\n\n                // update task\n                // assign task to home boy\n                myTask.verifierID = uint16(_wizID);\n                myTask.verificationReservedTimestamp = uint40(block.timestamp + verificationTime);\n                tasks[uint256(DoubleEndedQueue.at(tasksSubmitted, i))] = myTask;\n            }\n        }\n        // emit event with task\n        emit VerificationAssigned(_wizID, taskId);\n    }\n\n/*\n        string IPFSHash; // holds description\n        uint40 NFTID; // wizard ID of who is assigned task\n        bytes32 hash; // hashed input to be validated\n        bytes32 refuterHash; // correct hash according to refuter\n        uint8 numFieldsToHash; // input fields\n        uint24 timeBonus; // increases Wizard's activation time, in seconds\n        uint80 payment; //\n        uint16 verifierID; // wizardId of Verifier\n        uint16 refuterID; // wizardId of Verifier\n        uint40 verificationReservedTimestamp; // time when verification period ends\n\n*/\n    function completeTask(string memory _IPFSHash, bytes32 _hash, uint40 _wizID) external {\n        // IPFS, hash, wizardID\n\n        // find the task type -- can't be too many\n        for(uint256 i = 0; i<taskTypes.length; i++){\n            if(keccak256(abi.encode(taskTypes[i].IPFSHash)) == keccak256(abi.encode(_IPFSHash))){ // hashed to compare\n                // verify it is viable\n                require(taskTypes[i].begTimestamp <= block.timestamp && block.timestamp <= taskTypes[i].endTimestamp, \"Outside time period\");\n                // create new task\n                Task memory myTask = Task(_IPFSHash,_wizID, _hash, 0, taskTypes[i].numFieldsToHash, taskTypes[i].timeBonus, 0, 0, 0, 0);\n                DoubleEndedQueue.pushBack(tasksSubmitted, bytes32(tasksAttempted));\n                tasks[tasksAttempted] = myTask;\n                tasksAttempted+=1;\n            }\n        }\n    }\n\n    function testHashing(bytes32 _givenHash, bytes32[] memory _fields, bool _refuted) external {\n        bytes memory unencoded = abi.encodePacked(_fields[0]);\n        if(_refuted) {\n            for(uint256 i = 0; i < _fields.length;){\n                _fields[i] = keccak256(abi.encodePacked(_fields[i]));\n                unchecked{++i;}\n            }\n        }\n        bytes32 myHash = keccak256(abi.encodePacked(_fields));\n        emit HashTesting(myHash, myHash==_givenHash, _fields[0], unencoded);\n    }\n\n// working for regular but not refuted.\n//    function testHashing(bytes32 _givenHash, bytes32[] memory _fields, bool _refuted) external {\n//        bytes memory unencoded = abi.encodePacked(_fields[0]);\n//        if(_refuted) {\n//            for(uint256 i = 0; i < _fields.length;){\n//                _fields[i] = keccak256(abi.encodePacked(_fields[i]));\n//                unchecked{++i;}\n//            }\n//        }\n//        bytes32 myHash = keccak256(abi.encodePacked(_fields));\n//        emit HashTesting(myHash, myHash==_givenHash, _fields[0], unencoded);\n//    }\n\n\n\n    // @dev -- hash structure: leaves of merkle tree are hashed. Unrefuted tasks must send in hashed leafs. Refuted, unhashed.\n    function submitVerification(uint256 _wizId, uint256 _taskID, bytes32[] memory _fields) external {\n    //todo -- uncomment out requirement (testing)\n        require(wizardsNFT.ownerOf(_wizId) == msg.sender && tasks[_taskID].verifierID==_wizId, \"Must be owner of assigned wizard\");\n        require(_fields.length > 0);\n\n        Task storage myTask = tasks[_taskID];\n        uint256 count = 0;\n\n        // hash leaf if refuter exists\n        // todo -- redo our hashes as we are hashing not same throughout\n\n//        bytes32 myHash = myTask.refuterID > 0 ? keccak256(abi.encodePacked(_fields[0])) : _fields[0] ; // note -- not hashed\n//        for(uint256 i = 0; i < _fields.length;){\n//            myHash = keccak256(abi.encodePacked(myHash, myTask.refuterID > 0 ? keccak256(abi.encodePacked(_fields[i])) : _fields[i]));\n//            unchecked{++i;}\n//        }\n\n        // hash leaves if there is a refuter\n        if(myTask.refuterID > 0) {\n            for(uint256 i = 0; i < _fields.length;){\n                _fields[i] = keccak256(abi.encodePacked(_fields[i]));\n                unchecked{++i;}\n            }\n        }\n        bytes32 myHash = keccak256(abi.encodePacked(_fields));\n\n        uint256 correctHash = myTask.hash == myHash ? 1 : 0;\n\n        emit VerificationSucceeded(_wizId, myTask.NFTID, _taskID, myHash, correctHash==1);\n\n        if (correctHash ==1){\n            // if refuterId exists, then refuter gets no refund\n            uint256 split = myTask.payment/2;\n            address payable taskSubmitter = payable(wizardsNFT.ownerOf(myTask.verifierID));\n//            address payable verifier = msg.sender;\n\n\n            wizardsNFT.verifyDuty(myTask.NFTID, myTask.timeBonus);\n            wizardsNFT.verifyDuty(myTask.verifierID, taskVerificationTimeBonus);\n\n            myTask.payment=0; // thwart reentrancy attacks\n            delete tasks[_taskID];\n\n            // send to task submitter\n            (bool sent, bytes memory data) = taskSubmitter.call{value: split}(\"\");\n            require(sent, \"Failed to send Ether\");\n\n            // send to verifier\n            (sent, data) = msg.sender.call{value: split}(\"\");\n            require(sent, \"Failed to send Ether\");\n\n        }\n        else { // if incorrect Hash\n            // case 2 -- if no match, send to DAO\n\n            // case 1 -- if matches hash of refuter, split\n            if(myTask.refuterHash==myHash){\n                uint256 split = myTask.payment/2;\n                address payable taskRefuter = payable(wizardsNFT.ownerOf(myTask.refuterID));\n\n                wizardsNFT.verifyDuty(myTask.refuterID, taskVerificationTimeBonus);\n                wizardsNFT.verifyDuty(_wizId, taskVerificationTimeBonus);\n\n                myTask.payment=0; // thwart reentrancy attacks\n                delete tasks[_taskID];\n\n                // send to task submitter\n                (bool sent, bytes memory data) = taskRefuter.call{value: split}(\"\");\n                require(sent, \"Failed to send Ether\");\n\n                // send to verifier\n                (sent, data) = msg.sender.call{value: split}(\"\");\n                require(sent, \"Failed to send Ether\");\n\n                // emit event\n            }\n            else{\n                // no agreement in the 3 submissions\n                // send ETH to DAO\n                uint256 split = myTask.payment;\n                delete tasks[_taskID];\n                (bool sent, bytes memory data) = owner().call{value: split}(\"\"); // todo -- decide on how to structure DAO address\n                require(sent, \"Failed to send Ether\");\n\n                // emit event\n            }\n        }\n    }\n\n    //////////////////////\n    ////// Modifiers /////\n    //////////////////////\n\n    modifier onlyAdmin() {\n        require(false,'Must be admin');\n        _;\n    }\n\n    modifier onlyNFTOwner() {\n        require(false,'Must be admin');\n        _;\n    }\n\n    modifier onlyLessee() {\n        require(false,'Must be lessee');\n        _;\n    }\n\n    modifier onlyMember() { // todo -- onlyMember\n        require(false,'Must be member');\n        _;\n    }\n\n    // top x in tower?\n    modifier onlyBoard() {\n        require(true,'Must be on the board'); // todo -- onlyBoard\n        _;\n    }\n\n\n\n\n\n}",
  "sourcePath": "contracts/Governance.sol",
  "type": "contract"
}