{
  "abi": [
    {
      "inputs": [
        {
          "internalType": "address",
          "name": "_nft",
          "type": "address"
        }
      ],
      "stateMutability": "nonpayable",
      "type": "constructor"
    },
    {
      "inputs": [],
      "name": "Empty",
      "type": "error"
    },
    {
      "inputs": [],
      "name": "OutOfBounds",
      "type": "error"
    },
    {
      "anonymous": false,
      "inputs": [
        {
          "indexed": false,
          "internalType": "bytes32",
          "name": "hash",
          "type": "bytes32"
        },
        {
          "indexed": false,
          "internalType": "bool",
          "name": "isHashCorrect",
          "type": "bool"
        },
        {
          "indexed": false,
          "internalType": "bytes32",
          "name": "firstEncoded",
          "type": "bytes32"
        },
        {
          "indexed": false,
          "internalType": "bytes",
          "name": "firstUnencoded",
          "type": "bytes"
        }
      ],
      "name": "HashTesting",
      "type": "event"
    },
    {
      "anonymous": false,
      "inputs": [
        {
          "indexed": false,
          "internalType": "string",
          "name": "_IPFSHash",
          "type": "string"
        },
        {
          "indexed": false,
          "internalType": "uint40",
          "name": "_proposalID",
          "type": "uint40"
        },
        {
          "indexed": false,
          "internalType": "uint8",
          "name": "_numFieldsToHash",
          "type": "uint8"
        },
        {
          "indexed": false,
          "internalType": "uint24",
          "name": "_timeBonus",
          "type": "uint24"
        },
        {
          "indexed": false,
          "internalType": "uint40",
          "name": "_begTimestamp",
          "type": "uint40"
        },
        {
          "indexed": false,
          "internalType": "uint40",
          "name": "_endTimestamp",
          "type": "uint40"
        },
        {
          "indexed": false,
          "internalType": "uint16",
          "name": "_availableSlots",
          "type": "uint16"
        }
      ],
      "name": "NewTaskTypeCreated",
      "type": "event"
    },
    {
      "anonymous": false,
      "inputs": [
        {
          "indexed": true,
          "internalType": "address",
          "name": "previousOwner",
          "type": "address"
        },
        {
          "indexed": true,
          "internalType": "address",
          "name": "newOwner",
          "type": "address"
        }
      ],
      "name": "OwnershipTransferred",
      "type": "event"
    },
    {
      "anonymous": false,
      "inputs": [
        {
          "indexed": false,
          "internalType": "uint256",
          "name": "wizardId",
          "type": "uint256"
        },
        {
          "indexed": false,
          "internalType": "uint256",
          "name": "taskId",
          "type": "uint256"
        },
        {
          "indexed": false,
          "internalType": "string",
          "name": "IPFSHash",
          "type": "string"
        },
        {
          "indexed": false,
          "internalType": "uint256",
          "name": "data",
          "type": "uint256"
        }
      ],
      "name": "TaskCompleted",
      "type": "event"
    },
    {
      "anonymous": false,
      "inputs": [
        {
          "indexed": false,
          "internalType": "uint256",
          "name": "wizardId",
          "type": "uint256"
        },
        {
          "indexed": false,
          "internalType": "uint256",
          "name": "taskId",
          "type": "uint256"
        },
        {
          "components": [
            {
              "internalType": "string",
              "name": "IPFSHash",
              "type": "string"
            },
            {
              "internalType": "uint40",
              "name": "NFTID",
              "type": "uint40"
            },
            {
              "internalType": "bytes32",
              "name": "hash",
              "type": "bytes32"
            },
            {
              "internalType": "bytes32",
              "name": "refuterHash",
              "type": "bytes32"
            },
            {
              "internalType": "uint8",
              "name": "numFieldsToHash",
              "type": "uint8"
            },
            {
              "internalType": "uint24",
              "name": "timeBonus",
              "type": "uint24"
            },
            {
              "internalType": "uint80",
              "name": "payment",
              "type": "uint80"
            },
            {
              "internalType": "uint16",
              "name": "verifierID",
              "type": "uint16"
            },
            {
              "internalType": "uint16",
              "name": "refuterID",
              "type": "uint16"
            },
            {
              "internalType": "uint40",
              "name": "verificationReservedTimestamp",
              "type": "uint40"
            }
          ],
          "indexed": false,
          "internalType": "struct Governance.Task",
          "name": "myTask",
          "type": "tuple"
        }
      ],
      "name": "VerificationAssigned",
      "type": "event"
    },
    {
      "anonymous": false,
      "inputs": [
        {
          "indexed": false,
          "internalType": "uint256",
          "name": "VerifierIdFirst",
          "type": "uint256"
        },
        {
          "indexed": false,
          "internalType": "uint256",
          "name": "VerifierIdSecond",
          "type": "uint256"
        },
        {
          "indexed": false,
          "internalType": "uint256",
          "name": "taskId",
          "type": "uint256"
        }
      ],
      "name": "VerificationFailed",
      "type": "event"
    },
    {
      "anonymous": false,
      "inputs": [
        {
          "indexed": false,
          "internalType": "uint256",
          "name": "taskDoer",
          "type": "uint256"
        },
        {
          "indexed": false,
          "internalType": "uint256",
          "name": "Verifier",
          "type": "uint256"
        },
        {
          "indexed": false,
          "internalType": "uint256",
          "name": "taskId",
          "type": "uint256"
        },
        {
          "indexed": false,
          "internalType": "bytes32",
          "name": "hash",
          "type": "bytes32"
        },
        {
          "indexed": false,
          "internalType": "bool",
          "name": "isHashCorrect",
          "type": "bool"
        }
      ],
      "name": "VerificationSucceeded",
      "type": "event"
    },
    {
      "inputs": [
        {
          "internalType": "uint256",
          "name": "_wizId",
          "type": "uint256"
        }
      ],
      "name": "areTasksAvailableToConfirm",
      "outputs": [
        {
          "internalType": "bool",
          "name": "",
          "type": "bool"
        }
      ],
      "stateMutability": "view",
      "type": "function"
    },
    {
      "inputs": [
        {
          "internalType": "uint256",
          "name": "_wizId",
          "type": "uint256"
        }
      ],
      "name": "claimRandomTaskForVerification",
      "outputs": [],
      "stateMutability": "nonpayable",
      "type": "function"
    },
    {
      "inputs": [
        {
          "internalType": "string",
          "name": "_IPFSHash",
          "type": "string"
        },
        {
          "internalType": "bytes32",
          "name": "_hash",
          "type": "bytes32"
        },
        {
          "internalType": "uint40",
          "name": "_wizId",
          "type": "uint40"
        }
      ],
      "name": "completeTask",
      "outputs": [],
      "stateMutability": "nonpayable",
      "type": "function"
    },
    {
      "inputs": [
        {
          "internalType": "string",
          "name": "_IPFSHash",
          "type": "string"
        },
        {
          "internalType": "uint16",
          "name": "_numberOfOptions",
          "type": "uint16"
        },
        {
          "internalType": "uint24",
          "name": "_timeBonus",
          "type": "uint24"
        },
        {
          "internalType": "uint40",
          "name": "_begTimestamp",
          "type": "uint40"
        },
        {
          "internalType": "uint40",
          "name": "_endTimestamp",
          "type": "uint40"
        },
        {
          "internalType": "uint16",
          "name": "_availableSlots",
          "type": "uint16"
        }
      ],
      "name": "createProposal",
      "outputs": [],
      "stateMutability": "nonpayable",
      "type": "function"
    },
    {
      "inputs": [
        {
          "internalType": "string",
          "name": "_IPFSHash",
          "type": "string"
        },
        {
          "internalType": "uint8",
          "name": "_numFieldsToHash",
          "type": "uint8"
        },
        {
          "internalType": "uint24",
          "name": "_timeBonus",
          "type": "uint24"
        },
        {
          "internalType": "uint40",
          "name": "_begTimestamp",
          "type": "uint40"
        },
        {
          "internalType": "uint40",
          "name": "_endTimestamp",
          "type": "uint40"
        },
        {
          "internalType": "uint16",
          "name": "_availableSlots",
          "type": "uint16"
        }
      ],
      "name": "createTaskType",
      "outputs": [],
      "stateMutability": "nonpayable",
      "type": "function"
    },
    {
      "inputs": [
        {
          "internalType": "string",
          "name": "_IPFSHash",
          "type": "string"
        }
      ],
      "name": "deleteTaskTypeByIPFSHash",
      "outputs": [],
      "stateMutability": "nonpayable",
      "type": "function"
    },
    {
      "inputs": [
        {
          "internalType": "uint40",
          "name": "_wizId",
          "type": "uint40"
        }
      ],
      "name": "getMyAvailableTaskTypes",
      "outputs": [
        {
          "internalType": "string[]",
          "name": "",
          "type": "string[]"
        }
      ],
      "stateMutability": "view",
      "type": "function"
    },
    {
      "inputs": [
        {
          "internalType": "uint256",
          "name": "_taskId",
          "type": "uint256"
        }
      ],
      "name": "getTaskById",
      "outputs": [
        {
          "components": [
            {
              "internalType": "string",
              "name": "IPFSHash",
              "type": "string"
            },
            {
              "internalType": "uint40",
              "name": "NFTID",
              "type": "uint40"
            },
            {
              "internalType": "bytes32",
              "name": "hash",
              "type": "bytes32"
            },
            {
              "internalType": "bytes32",
              "name": "refuterHash",
              "type": "bytes32"
            },
            {
              "internalType": "uint8",
              "name": "numFieldsToHash",
              "type": "uint8"
            },
            {
              "internalType": "uint24",
              "name": "timeBonus",
              "type": "uint24"
            },
            {
              "internalType": "uint80",
              "name": "payment",
              "type": "uint80"
            },
            {
              "internalType": "uint16",
              "name": "verifierID",
              "type": "uint16"
            },
            {
              "internalType": "uint16",
              "name": "refuterID",
              "type": "uint16"
            },
            {
              "internalType": "uint40",
              "name": "verificationReservedTimestamp",
              "type": "uint40"
            }
          ],
          "internalType": "struct Governance.Task",
          "name": "",
          "type": "tuple"
        }
      ],
      "stateMutability": "view",
      "type": "function"
    },
    {
      "inputs": [
        {
          "internalType": "uint40",
          "name": "_wizId",
          "type": "uint40"
        }
      ],
      "name": "getTasksAssignedToWiz",
      "outputs": [
        {
          "components": [
            {
              "internalType": "string",
              "name": "IPFSHash",
              "type": "string"
            },
            {
              "internalType": "uint40",
              "name": "NFTID",
              "type": "uint40"
            },
            {
              "internalType": "bytes32",
              "name": "hash",
              "type": "bytes32"
            },
            {
              "internalType": "bytes32",
              "name": "refuterHash",
              "type": "bytes32"
            },
            {
              "internalType": "uint8",
              "name": "numFieldsToHash",
              "type": "uint8"
            },
            {
              "internalType": "uint24",
              "name": "timeBonus",
              "type": "uint24"
            },
            {
              "internalType": "uint80",
              "name": "payment",
              "type": "uint80"
            },
            {
              "internalType": "uint16",
              "name": "verifierID",
              "type": "uint16"
            },
            {
              "internalType": "uint16",
              "name": "refuterID",
              "type": "uint16"
            },
            {
              "internalType": "uint40",
              "name": "verificationReservedTimestamp",
              "type": "uint40"
            }
          ],
          "internalType": "struct Governance.Task[]",
          "name": "",
          "type": "tuple[]"
        },
        {
          "internalType": "uint256[]",
          "name": "",
          "type": "uint256[]"
        }
      ],
      "stateMutability": "view",
      "type": "function"
    },
    {
      "inputs": [
        {
          "internalType": "uint256",
          "name": "proposalID",
          "type": "uint256"
        }
      ],
      "name": "getVotes",
      "outputs": [
        {
          "internalType": "uint16[]",
          "name": "",
          "type": "uint16[]"
        }
      ],
      "stateMutability": "view",
      "type": "function"
    },
    {
      "inputs": [
        {
          "internalType": "uint256",
          "name": "proposalID",
          "type": "uint256"
        }
      ],
      "name": "getWinningVote",
      "outputs": [
        {
          "internalType": "uint256",
          "name": "",
          "type": "uint256"
        }
      ],
      "stateMutability": "view",
      "type": "function"
    },
    {
      "inputs": [],
      "name": "owner",
      "outputs": [
        {
          "internalType": "address",
          "name": "",
          "type": "address"
        }
      ],
      "stateMutability": "view",
      "type": "function"
    },
    {
      "inputs": [
        {
          "internalType": "uint256",
          "name": "",
          "type": "uint256"
        },
        {
          "internalType": "uint256",
          "name": "",
          "type": "uint256"
        }
      ],
      "name": "proposalToNFTVotes",
      "outputs": [
        {
          "internalType": "uint256",
          "name": "",
          "type": "uint256"
        }
      ],
      "stateMutability": "view",
      "type": "function"
    },
    {
      "inputs": [
        {
          "internalType": "uint256",
          "name": "",
          "type": "uint256"
        }
      ],
      "name": "proposals",
      "outputs": [
        {
          "internalType": "string",
          "name": "IPFSHash",
          "type": "string"
        },
        {
          "internalType": "uint16",
          "name": "numberOfOptions",
          "type": "uint16"
        },
        {
          "internalType": "uint40",
          "name": "totalVotes",
          "type": "uint40"
        },
        {
          "internalType": "uint40",
          "name": "begTimestamp",
          "type": "uint40"
        },
        {
          "internalType": "uint40",
          "name": "endTimestamp",
          "type": "uint40"
        }
      ],
      "stateMutability": "view",
      "type": "function"
    },
    {
      "inputs": [],
      "name": "renounceOwnership",
      "outputs": [],
      "stateMutability": "nonpayable",
      "type": "function"
    },
    {
      "inputs": [
        {
          "internalType": "address",
          "name": "_addy",
          "type": "address"
        }
      ],
      "name": "setNFTAddress",
      "outputs": [],
      "stateMutability": "nonpayable",
      "type": "function"
    },
    {
      "inputs": [
        {
          "internalType": "uint256",
          "name": "_wizId",
          "type": "uint256"
        },
        {
          "internalType": "uint256",
          "name": "_taskID",
          "type": "uint256"
        },
        {
          "internalType": "bytes32[]",
          "name": "_fields",
          "type": "bytes32[]"
        }
      ],
      "name": "submitVerification",
      "outputs": [],
      "stateMutability": "nonpayable",
      "type": "function"
    },
    {
      "inputs": [
        {
          "internalType": "uint256",
          "name": "",
          "type": "uint256"
        }
      ],
      "name": "taskTypes",
      "outputs": [
        {
          "internalType": "string",
          "name": "IPFSHash",
          "type": "string"
        },
        {
          "internalType": "bool",
          "name": "paused",
          "type": "bool"
        },
        {
          "internalType": "uint40",
          "name": "proposalID",
          "type": "uint40"
        },
        {
          "internalType": "uint8",
          "name": "numFieldsToHash",
          "type": "uint8"
        },
        {
          "internalType": "uint24",
          "name": "timeBonus",
          "type": "uint24"
        },
        {
          "internalType": "uint40",
          "name": "begTimestamp",
          "type": "uint40"
        },
        {
          "internalType": "uint40",
          "name": "endTimestamp",
          "type": "uint40"
        },
        {
          "internalType": "uint16",
          "name": "availableSlots",
          "type": "uint16"
        }
      ],
      "stateMutability": "view",
      "type": "function"
    },
    {
      "inputs": [
        {
          "internalType": "uint256",
          "name": "",
          "type": "uint256"
        }
      ],
      "name": "tasks",
      "outputs": [
        {
          "internalType": "string",
          "name": "IPFSHash",
          "type": "string"
        },
        {
          "internalType": "uint40",
          "name": "NFTID",
          "type": "uint40"
        },
        {
          "internalType": "bytes32",
          "name": "hash",
          "type": "bytes32"
        },
        {
          "internalType": "bytes32",
          "name": "refuterHash",
          "type": "bytes32"
        },
        {
          "internalType": "uint8",
          "name": "numFieldsToHash",
          "type": "uint8"
        },
        {
          "internalType": "uint24",
          "name": "timeBonus",
          "type": "uint24"
        },
        {
          "internalType": "uint80",
          "name": "payment",
          "type": "uint80"
        },
        {
          "internalType": "uint16",
          "name": "verifierID",
          "type": "uint16"
        },
        {
          "internalType": "uint16",
          "name": "refuterID",
          "type": "uint16"
        },
        {
          "internalType": "uint40",
          "name": "verificationReservedTimestamp",
          "type": "uint40"
        }
      ],
      "stateMutability": "view",
      "type": "function"
    },
    {
      "inputs": [],
      "name": "tasksWaitingConfirmation",
      "outputs": [
        {
          "internalType": "int128",
          "name": "_begin",
          "type": "int128"
        },
        {
          "internalType": "int128",
          "name": "_end",
          "type": "int128"
        }
      ],
      "stateMutability": "view",
      "type": "function"
    },
    {
      "inputs": [
        {
          "internalType": "bytes32",
          "name": "_givenHash",
          "type": "bytes32"
        },
        {
          "internalType": "bytes32[]",
          "name": "_fields",
          "type": "bytes32[]"
        },
        {
          "internalType": "bool",
          "name": "_refuted",
          "type": "bool"
        }
      ],
      "name": "testHashing",
      "outputs": [],
      "stateMutability": "nonpayable",
      "type": "function"
    },
    {
      "inputs": [],
      "name": "totalTasksAttempted",
      "outputs": [
        {
          "internalType": "uint256",
          "name": "",
          "type": "uint256"
        }
      ],
      "stateMutability": "view",
      "type": "function"
    },
    {
      "inputs": [
        {
          "internalType": "address",
          "name": "newOwner",
          "type": "address"
        }
      ],
      "name": "transferOwnership",
      "outputs": [],
      "stateMutability": "nonpayable",
      "type": "function"
    },
    {
      "inputs": [
        {
          "internalType": "uint256",
          "name": "proposalID",
          "type": "uint256"
        },
        {
          "internalType": "uint256",
          "name": "NFTID",
          "type": "uint256"
        },
        {
          "internalType": "uint256",
          "name": "_vote",
          "type": "uint256"
        }
      ],
      "name": "vote",
      "outputs": [],
      "stateMutability": "nonpayable",
      "type": "function"
    },
    {
      "stateMutability": "payable",
      "type": "receive"
    }
  ],
  "bytecode": "6080604052610258600b5562015180600c553480156200001e57600080fd5b506040516200425e3803806200425e8339810160408190526200004191620000c9565b6001600055620000513362000077565b600280546001600160a01b0319166001600160a01b0392909216919091179055620000fb565b600180546001600160a01b038381166001600160a01b0319831681179093556040519116919082907f8be0079c531659141344cd1fd0a4f28419497f9722a3daafe3b4186f6b6457e090600090a35050565b600060208284031215620000dc57600080fd5b81516001600160a01b0381168114620000f457600080fd5b9392505050565b614153806200010b6000396000f3fe60806040526004361061014f5760003560e01c80638da5cb5b116100b6578063e95d23471161006f578063e95d234714610422578063f18c51d314610462578063f2fde38b14610482578063f4739bd9146104a2578063f713b7ed146104d2578063ff981099146104f257600080fd5b80638da5cb5b1461034a57806390b293d814610372578063976217cd14610388578063b2bad544146103b5578063beca3a16146103e2578063d374a2171461040257600080fd5b806369d037381161010857806369d037381461027f578063715018a61461029f57806372e185ce146102b4578063826b8ebd146102d45780638a6655d6146102f45780638d9776721461031457600080fd5b8063013cf08b1461015b57806309265ce61461019557806310190ef1146101b75780634b50f16a146101eb57806361f9e9a8146102195780636215597b1461023957600080fd5b3661015657005b600080fd5b34801561016757600080fd5b5061017b61017636600461323a565b61051f565b60405161018c9594939291906132ab565b60405180910390f35b3480156101a157600080fd5b506101b56101b03660046133b4565b6105eb565b005b3480156101c357600080fd5b506101d76101d236600461323a565b610731565b60405161018c989796959493929190613413565b3480156101f757600080fd5b5061020b610206366004613492565b61083b565b60405161018c92919061357e565b34801561022557600080fd5b506101b5610234366004613686565b610ccf565b34801561024557600080fd5b50610271610254366004613723565b600360209081526000928352604080842090915290825290205481565b60405190815260200161018c565b34801561028b57600080fd5b506101b561029a36600461375a565b610cf7565b3480156102ab57600080fd5b506101b5610d43565b3480156102c057600080fd5b506101b56102cf3660046137e6565b610d79565b3480156102e057600080fd5b506102716102ef36600461323a565b6111ef565b34801561030057600080fd5b506101b561030f36600461383c565b611405565b34801561032057600080fd5b5061033461032f36600461323a565b61143e565b60405161018c9a99989796959493929190613868565b34801561035657600080fd5b506001546040516001600160a01b03909116815260200161018c565b34801561037e57600080fd5b50610271600a5481565b34801561039457600080fd5b506103a86103a336600461323a565b611540565b60405161018c91906138e9565b3480156103c157600080fd5b506103d56103d0366004613492565b611682565b60405161018c91906138fc565b3480156103ee57600080fd5b506101b56103fd36600461395e565b611a48565b34801561040e57600080fd5b506101b561041d36600461323a565b611b5d565b34801561042e57600080fd5b5060055461044890600f81810b91600160801b9004900b82565b60408051600f93840b81529190920b60208201520161018c565b34801561046e57600080fd5b506101b561047d3660046139ae565b611e94565b34801561048e57600080fd5b506101b561049d36600461375a565b6128b1565b3480156104ae57600080fd5b506104c26104bd36600461323a565b61294c565b604051901515815260200161018c565b3480156104de57600080fd5b506101b56104ed3660046139fd565b612b1c565b3480156104fe57600080fd5b5061051261050d36600461323a565b612cb9565b60405161018c9190613a39565b60076020526000908152604090208054819061053a90613a81565b80601f016020809104026020016040519081016040528092919081815260200182805461056690613a81565b80156105b35780601f10610588576101008083540402835291602001916105b3565b820191906000526020600020905b81548152906001019060200180831161059657829003601f168201915b505050506001830154600390930154919261ffff169164ffffffffff8082169250650100000000008204811691600160501b90041685565b60008260008151811061060057610600613abb565b602002602001015160405160200161061a91815260200190565b604051602081830303815290604052905081156106a65760005b83518110156106a45783818151811061064f5761064f613abb565b602002602001015160405160200161066991815260200190565b6040516020818303038152906040528051906020012084828151811061069157610691613abb565b6020908102919091010152600101610634565b505b6000836040516020016106b99190613ad1565b6040516020818303038152906040528051906020012090507f637ce8d069e382e64ef71cf191623b88c7e307ce252e908e7f2babbad0cb81ea818683148660008151811061070957610709613abb565b6020026020010151856040516107229493929190613b07565b60405180910390a15050505050565b6004818154811061074157600080fd5b906000526020600020906003020160009150905080600101805461076490613a81565b80601f016020809104026020016040519081016040528092919081815260200182805461079090613a81565b80156107dd5780601f106107b2576101008083540402835291602001916107dd565b820191906000526020600020905b8154815290600101906020018083116107c057829003601f168201915b5050506002909301549192505060ff8082169164ffffffffff610100820481169266010000000000008304169162ffffff600160381b82041691600160501b8204811691600160781b81049091169061ffff600160a01b9091041688565b6060806000610859600554600f81810b600160801b909204900b0390565b905061086361319c565b600080805b848110156109eb5761087b600582612dde565b600081815260096020526040908190208151610140810190925280549295509091829082906108a990613a81565b80601f01602080910402602001604051908101604052809291908181526020018280546108d590613a81565b80156109225780601f106108f757610100808354040283529160200191610922565b820191906000526020600020905b81548152906001019060200180831161090557829003601f168201915b5050509183525050600182015464ffffffffff9081166020830152600283015460408301526003830154606083015260049092015460ff8116608083015261010080820462ffffff1660a0840152600160201b82046001600160501b031660c0840152600160701b820461ffff90811660e0850152600160801b83041690830152600160901b90048216610120918201528201519195504291161180156109d757508764ffffffffff168460e0015161ffff16145b156109e3578160010191505b600101610868565b5080600003610a5857604080516001808252818301909252600091816020015b610a1361319c565b815260200190600190039081610a0b575050604080516001808252818301909252919250600091906020808301908036833750939b919a509098505050505050505050565b600080826001600160401b03811115610a7357610a736132ef565b604051908082528060200260200182016040528015610aac57816020015b610a9961319c565b815260200190600190039081610a915790505b5090506000836001600160401b03811115610ac957610ac96132ef565b604051908082528060200260200182016040528015610af2578160200160208202803683370190505b50905060005b87811015610cbf57610b0b600582612dde565b60008181526009602052604090819020815161014081019092528054929850909182908290610b3990613a81565b80601f0160208091040260200160405190810160405280929190818152602001828054610b6590613a81565b8015610bb25780601f10610b8757610100808354040283529160200191610bb2565b820191906000526020600020905b815481529060010190602001808311610b9557829003601f168201915b5050509183525050600182015464ffffffffff9081166020830152600283015460408301526003830154606083015260049092015460ff8116608083015261010080820462ffffff1660a0840152600160201b82046001600160501b031660c0840152600160701b820461ffff90811660e0850152600160801b83041690830152600160901b9004821661012091820152820151919850429116118015610c6757508a64ffffffffff168760e0015161ffff16145b15610cb75786838581518110610c7f57610c7f613abb565b602002602001018190525085828581518110610c9d57610c9d613abb565b602002602001018181525050836001019350848411610cbf575b600101610af8565b5090999098509650505050505050565b610cdd565b60405180910390fd5b610cee878760008888888888612e4f565b50505050505050565b6001546001600160a01b03163314610d215760405162461bcd60e51b8152600401610cd490613b38565b600280546001600160a01b0319166001600160a01b0392909216919091179055565b6001546001600160a01b03163314610d6d5760405162461bcd60e51b8152600401610cd490613b38565b610d776000612fce565b565b60005b6004548110156111e95783604051602001610d979190613b6d565b6040516020818303038152906040528051906020012060048281548110610dc057610dc0613abb565b9060005260206000209060030201600101604051602001610de19190613bfd565b60405160208183030381529060405280519060200120036111e1574260048281548110610e1057610e10613abb565b6000918252602090912060039091020160020154600160501b900464ffffffffff1611801590610e74575060048181548110610e4e57610e4e613abb565b6000918252602090912060039091020160020154600160781b900464ffffffffff164211155b610eb65760405162461bcd60e51b815260206004820152601360248201527213dd5d1cda5919481d1a5b59481c195c9a5bd9606a1b6044820152606401610cd4565b60006040518061014001604052808681526020018464ffffffffff1681526020018581526020016000801b815260200160048481548110610ef957610ef9613abb565b906000526020600020906003020160020160069054906101000a900460ff1660ff16815260200160048481548110610f3357610f33613abb565b6000918252602080832060039290920290910160020154600160381b900462ffffff1683528281018290526040808401839052606084018390526080909301829052600a5460058054600160801b90819004600f0b8086526006855286862084905582546001600160801b0390811660019092011690910217905582526009905220815191925082918190610fc89082613c5f565b5060208201516001828101805464ffffffffff191664ffffffffff938416179055604084015160028401556060840151600384015560808401516004909301805460a086015160c087015160e0880151610100808a0151610120909a015160ff90991663ffffffff199095169490941762ffffff90931690930291909117640100000000600160801b031916600160201b6001600160501b039092169190910261ffff60701b191617600160701b61ffff928316021766ffffffffffffff60801b1916600160801b919096160264ffffffffff60901b191694909417600160901b939092169290920217909155600a80546000906110c7908490613d34565b909155506110da90504262015180613d34565b600483815481106110ed576110ed613abb565b6000918252602080832064ffffffffff8816845260039092029091019052604090205560048054600191908490811061112857611128613abb565b906000526020600020906003020160020160149054906101000a900461ffff166111529190613d4c565b6004838154811061116557611165613abb565b906000526020600020906003020160020160146101000a81548161ffff021916908361ffff1602179055507fbcc1ea15519f3acfb49e91de851e553b2c024b9ab85cee8ffd8fe4e4e0a7876d836001600a546111c19190613d6f565b87426040516111d39493929190613d86565b60405180910390a1506111e9565b600101610d7c565b50505050565b600060085482106112355760405162461bcd60e51b815260206004820152601060248201526f1b9bc81cdd58da081c1c9bdc1bdcd85b60821b6044820152606401610cd4565b600082815260076020526040902060030154600160501b900464ffffffffff1642116112995760405162461bcd60e51b8152602060048201526013602482015272766f74696e67207374696c6c2061637469766560681b6044820152606401610cd4565b6000806000805b60008681526007602052604090206001015461ffff168110156113ba576000868152600760205260409020839060020182600881106112e1576112e1613abb565b601091828204019190066002029054906101000a900461ffff1661ffff16111561135c576000868152600760205260409020600201816008811061132757611327613abb565b601091828204019190066002029054906101000a900461ffff1661ffff1692508093508160010361135757600091505b6113a8565b60008681526007602052604090208390600201826008811061138057611380613abb565b601091828204019190066002029054906101000a900461ffff1661ffff16036113a857600191505b806113b281613dbd565b9150506112a0565b5080156113fc5760405162461bcd60e51b815260206004820152601060248201526f3a3432b932903bb0b99030903a34b29760811b6044820152606401610cd4565b50909392505050565b60405162461bcd60e51b815260206004820152600e60248201526d26bab9ba1031329036b2b6b132b960911b6044820152606401610cd4565b60096020526000908152604090208054819061145990613a81565b80601f016020809104026020016040519081016040528092919081815260200182805461148590613a81565b80156114d25780601f106114a7576101008083540402835291602001916114d2565b820191906000526020600020905b8154815290600101906020018083116114b557829003601f168201915b505050600184015460028501546003860154600490960154949564ffffffffff92831695919450925060ff81169162ffffff610100830416916001600160501b03600160201b8204169161ffff600160701b8304811692600160801b810490911691600160901b909104168a565b61154861319c565b600082815260096020526040908190208151610140810190925280548290829061157190613a81565b80601f016020809104026020016040519081016040528092919081815260200182805461159d90613a81565b80156115ea5780601f106115bf576101008083540402835291602001916115ea565b820191906000526020600020905b8154815290600101906020018083116115cd57829003601f168201915b5050509183525050600182015464ffffffffff9081166020830152600283015460408301526003830154606083015260049092015460ff8116608083015261010080820462ffffff1660a0840152600160201b82046001600160501b031660c0840152600160701b820461ffff90811660e0850152600160801b83041690830152600160901b90049091166101209091015292915050565b60606000805b60045481101561179a5742600482815481106116a6576116a6613abb565b6000918252602080832064ffffffffff8916845260039092029091019052604090205410801561170a575042600482815481106116e5576116e5613abb565b6000918252602090912060039091020160020154600160501b900464ffffffffff1611155b80156117495750426004828154811061172557611725613abb565b6000918252602090912060039091020160020154600160781b900464ffffffffff16115b8015611786575060016004828154811061176557611765613abb565b6000918252602090912060039091020160020154600160a01b900461ffff16115b15611792578160010191505b600101611688565b508060000361180657604080516001808252818301909252600091816020015b60608152602001906001900390816117ba57905050905060405180602001604052806000815250816000815181106117f4576117f4613abb565b60209081029190910101529392505050565b6000816001600160401b03811115611820576118206132ef565b60405190808252806020026020018201604052801561185357816020015b606081526020019060019003908161183e5790505b5090506000805b600454811015611a3e57426004828154811061187857611878613abb565b6000918252602080832064ffffffffff8b1684526003909202909101905260409020541080156118dc575042600482815481106118b7576118b7613abb565b6000918252602090912060039091020160020154600160501b900464ffffffffff1611155b801561191b575042600482815481106118f7576118f7613abb565b6000918252602090912060039091020160020154600160781b900464ffffffffff16115b8015611958575060016004828154811061193757611937613abb565b6000918252602090912060039091020160020154600160a01b900461ffff16115b15611a36576004818154811061197057611970613abb565b9060005260206000209060030201600101805461198c90613a81565b80601f01602080910402602001604051908101604052809291908181526020018280546119b890613a81565b8015611a055780601f106119da57610100808354040283529160200191611a05565b820191906000526020600020905b8154815290600101906020018083116119e857829003601f168201915b5050505050838381518110611a1c57611a1c613abb565b602002602001018190525081600101915083821015611a3e575b60010161185a565b5090949350505050565b60018561ffff16118015611a6157506101018561ffff16105b611aad5760405162461bcd60e51b815260206004820152601960248201527f696e76616c6964206e756d626572206f66206f7074696f6e73000000000000006044820152606401610cd4565b600160086000828254611ac09190613d34565b909155505060085460009081526007602052604090206003810180546effffffffffffffffffff000000000019166501000000000064ffffffffff8781169190910264ffffffffff60501b191691909117600160501b9186169190910217905560018101805461ffff191661ffff881617905580611b3f888a83613df3565b50611b538888600854600089898989612e4f565b5050505050505050565b6000611b78600554600f81810b600160801b909204900b0390565b9050611b8261319c565b6000805b83811015611e8d57611b99600582612dde565b60008181526009602052604090819020815161014081019092528054929450909182908290611bc790613a81565b80601f0160208091040260200160405190810160405280929190818152602001828054611bf390613a81565b8015611c405780601f10611c1557610100808354040283529160200191611c40565b820191906000526020600020905b815481529060010190602001808311611c2357829003601f168201915b5050509183525050600182015464ffffffffff9081166020830152600283015460408301526003830154606083015260049092015460ff8116608083015261010080820462ffffff1660a0840152600160201b82046001600160501b031660c0840152600160701b820461ffff90811660e0850152600160801b83041690830152600160901b9004821661012091820152820151919450429116108015611cf2575084836020015164ffffffffff1614155b8015611d0757508483610100015161ffff1614155b15611e855761ffff851660e0840152600b54611d239042613d34565b64ffffffffff16610120840152600082815260096020526040902083518491908190611d4f9082613c5f565b5060208281015160018301805464ffffffffff191664ffffffffff92831617905560408085015160028501556060850151600385015560808501516004909401805460a087015160c088015160e0890151610100808b0151610120909b015160ff909a1663ffffffff199095169490941762ffffff90931690930291909117640100000000600160801b031916600160201b6001600160501b039092169190910261ffff60701b191617600160701b61ffff928316021766ffffffffffffff60801b1916600160801b919097160264ffffffffff60901b191695909517600160901b949092169390930217909255600084815260099092529081902090517ff20a22b1aa6d8ba4bf99c845fb1f02f4879ba83155bde0f82f49cb58675df26891611e7c9188918691613eb2565b60405180910390a15b600101611b86565b5050505050565b6002546040516331a9108f60e11b81526004810185905233916001600160a01b031690636352211e90602401602060405180830381865afa158015611edd573d6000803e3d6000fd5b505050506040513d601f19601f82011682018060405250810190611f019190613dd6565b6001600160a01b0316148015611f325750600082815260096020526040902060040154600160701b900461ffff1683145b611f7e5760405162461bcd60e51b815260206004820181905260248201527f4d757374206265206f776e6572206f662061737369676e65642077697a6172646044820152606401610cd4565b6000815111611f8c57600080fd5b60008281526009602052604080822081516101408101909252805482908290611fb490613a81565b80601f0160208091040260200160405190810160405280929190818152602001828054611fe090613a81565b801561202d5780601f106120025761010080835404028352916020019161202d565b820191906000526020600020905b81548152906001019060200180831161201057829003601f168201915b505050918352505060018281015464ffffffffff9081166020840152600284015460408401526003840154606084015260049093015460ff8116608084015261010080820462ffffff1660a0850152600160201b82046001600160501b031660c0850152600160701b820461ffff90811660e0860152600160801b8304811682860152600160901b9092049094166101209093019290925291830151929350600092161561214a5760005b8451811015612148578481815181106120f3576120f3613abb565b602002602001015160405160200161210d91815260200190565b6040516020818303038152906040528051906020012085828151811061213557612135613abb565b60209081029190910101526001016120d8565b505b60008460405160200161215d9190613ad1565b60405160208183030381529060405280519060200120905060008185604001511461218957600061218c565b60015b602086810151604080518c815264ffffffffff909216928201929092529081018990526060810184905260ff9190911660018114608083015291507fe3f0e138f100deaf328ba1def71c39dade8cd971ba0074d935ee648e54532fae9060a00160405180910390a1806001036124af57600060028660c0015161220f9190613f7d565b60025460e08801516040516331a9108f60e11b815261ffff90911660048201526001600160501b039290921692506000916001600160a01b0390911690636352211e90602401602060405180830381865afa158015612272573d6000803e3d6000fd5b505050506040513d601f19601f820116820180604052508101906122969190613dd6565b600254602089015160a08a0151604051638ad4d6a560e01b815264ffffffffff909216600483015262ffffff1660248201529192506001600160a01b031690638ad4d6a590604401600060405180830381600087803b1580156122f857600080fd5b505af115801561230c573d6000803e3d6000fd5b505060025460e08a0151600c54604051638ad4d6a560e01b815261ffff909216600483015260248201526001600160a01b039091169250638ad4d6a591506044015b600060405180830381600087803b15801561236857600080fd5b505af115801561237c573d6000803e3d6000fd5b50505060008a8152600960205260408120915061239982826131f0565b5060018101805464ffffffffff1916905560006002820181905560038201819055600490910180546001600160b81b031916905560405181906001600160a01b0384169085908381818185875af1925050503d8060008114612417576040519150601f19603f3d011682016040523d82523d6000602084013e61241c565b606091505b50915091508161243e5760405162461bcd60e51b8152600401610cd490613fb1565b60405133908590600081818185875af1925050503d806000811461247e576040519150601f19603f3d011682016040523d82523d6000602084013e612483565b606091505b509092509050816124a65760405162461bcd60e51b8152600401610cd490613fb1565b5050505061281a565b84610100015161ffff166000036125e15761ffff8816610100860152606085018290526000878152600960205260409020855186919081906124f19082613c5f565b50602082015160018201805464ffffffffff191664ffffffffff928316179055604083015160028301556060830151600383015560808301516004909201805460a085015160c086015160e0870151610100808901516101209099015160ff90981663ffffffff199095169490941762ffffff90931690930291909117640100000000600160801b031916600160201b6001600160501b039092169190910261ffff60701b191617600160701b61ffff928316021766ffffffffffffff60801b1916600160801b919095160264ffffffffff60901b191693909317600160901b9290911691909102179055600092505b8185606001510361273457600060028660c001516125ff9190613f7d565b6002546101008801516040516331a9108f60e11b815261ffff90911660048201526001600160501b039290921692506000916001600160a01b0390911690636352211e90602401602060405180830381865afa158015612663573d6000803e3d6000fd5b505050506040513d601f19601f820116820180604052508101906126879190613dd6565b600254610100890151600c54604051638ad4d6a560e01b815261ffff909216600483015260248201529192506001600160a01b031690638ad4d6a590604401600060405180830381600087803b1580156126e057600080fd5b505af11580156126f4573d6000803e3d6000fd5b5050600254600c54604051638ad4d6a560e01b8152600481018f905260248101919091526001600160a01b039091169250638ad4d6a5915060440161234e565b60c085015160008881526009602052604081206001600160501b03909216919061275e82826131f0565b5060018101805464ffffffffff1916905560006002820181905560038201819055600490910180546001600160b81b0319169055806127a56001546001600160a01b031690565b6001600160a01b03168360405160006040518083038185875af1925050503d80600081146127ef576040519150601f19603f3d011682016040523d82523d6000602084013e6127f4565b606091505b5091509150816128165760405162461bcd60e51b8152600401610cd490613fb1565b5050505b8215611b5357600061283b600554600f81810b600160801b909204900b0390565b905060005b818110156128a55788612854600583612dde565b0361289d5760006128656005613020565b9050811561289b576005548190600690600090612886908690600f0b613fdf565b600f0b81526020810191909152604001600020555b505b600101612840565b50505050505050505050565b6001546001600160a01b031633146128db5760405162461bcd60e51b8152600401610cd490613b38565b6001600160a01b0381166129405760405162461bcd60e51b815260206004820152602660248201527f4f776e61626c653a206e6577206f776e657220697320746865207a65726f206160448201526564647265737360d01b6064820152608401610cd4565b61294981612fce565b50565b600080612968600554600f81810b600160801b909204900b0390565b905061297261319c565b60005b82811015612b11576009600061298c600584612dde565b60001c8152602001908152602001600020604051806101400160405290816000820180546129b990613a81565b80601f01602080910402602001604051908101604052809291908181526020018280546129e590613a81565b8015612a325780601f10612a0757610100808354040283529160200191612a32565b820191906000526020600020905b815481529060010190602001808311612a1557829003601f168201915b5050509183525050600182015464ffffffffff9081166020830152600283015460408301526003830154606083015260049092015460ff8116608083015261010080820462ffffff1660a0840152600160201b82046001600160501b031660c0840152600160701b820461ffff90811660e0850152600160801b83041690830152600160901b9004821661012091820152820151919350429116108015612ae4575084826020015164ffffffffff1614155b8015612af957508482610100015161ffff1614155b15612b0957506001949350505050565b600101612975565b506000949350505050565b60005b600454811015612cb55781604051602001612b3a9190614020565b6040516020818303038152906040528051906020012060048281548110612b6357612b63613abb565b9060005260206000209060030201600101604051602001612b84919061403c565b6040516020818303038152906040528051906020012003612cad57600060048281548110612bb457612bb4613abb565b90600052602060002090600302019050600060046001600480549050612bda9190613d6f565b81548110612bea57612bea613abb565b9060005260206000209060030201905080915060046001600480549050612c119190613d6f565b81548110612c2157612c21613abb565b90600052602060002090600302016000600182016000612c4191906131f0565b5060020180546001600160b01b031916905560048054612c6390600190613d6f565b81548110612c7357612c73613abb565b90600052602060002090600302016000600182016000612c9391906131f0565b5060020180546001600160b01b031916905550612cb59050565b600101612b1f565b5050565b60606008548210612cff5760405162461bcd60e51b815260206004820152601060248201526f1b9bc81cdd58da081c1c9bdc1bdcd85b60821b6044820152606401610cd4565b60008281526007602052604081206001015461ffff166001600160401b03811115612d2c57612d2c6132ef565b604051908082528060200260200182016040528015612d55578160200160208202803683370190505b50905060005b8151811015612dd75760008481526007602052604090206002018160088110612d8657612d86613abb565b601091828204019190066002029054906101000a900461ffff16828281518110612db257612db2613abb565b61ffff9092166020928302919091019091015280612dcf81613dbd565b915050612d5b565b5092915050565b600080612e01612ded8461309f565b8554612dfc9190600f0b613fdf565b61310d565b8454909150600160801b9004600f90810b9082900b12612e3457604051632d0483c560e21b815260040160405180910390fd5b600f0b60009081526001939093016020525050604090205490565b6004805460018101808355600083815291929083908110612e7257612e72613abb565b60009182526020909120600390910201905060018101612e938a8c83613df3565b5060008160020160006101000a81548160ff021916908315150217905550878160020160016101000a81548164ffffffffff021916908364ffffffffff160217905550868160020160066101000a81548160ff021916908360ff160217905550858160020160076101000a81548162ffffff021916908362ffffff1602179055508481600201600a6101000a81548164ffffffffff021916908364ffffffffff1602179055508381600201600f6101000a81548164ffffffffff021916908364ffffffffff160217905550828160020160146101000a81548161ffff021916908361ffff1602179055507f2810025950962e3cd71fd98c2dc111ffbdb2a129b36771df8d36a7de2fe3e4e08a8a8a8a8a8a8a8a604051612fba9897969594939291906140ae565b60405180910390a150505050505050505050565b600180546001600160a01b038381166001600160a01b0319831681179093556040519116919082907f8be0079c531659141344cd1fd0a4f28419497f9722a3daafe3b4186f6b6457e090600090a35050565b600061303b8254600f81810b600160801b909204900b131590565b1561305957604051631ed9509560e11b815260040160405180910390fd5b508054600f0b6000818152600180840160205260408220805492905583546fffffffffffffffffffffffffffffffff191692016001600160801b03169190911790915590565b60006001600160ff1b038211156131095760405162461bcd60e51b815260206004820152602860248201527f53616665436173743a2076616c756520646f65736e27742066697420696e2061604482015267371034b73a191a9b60c11b6064820152608401610cd4565b5090565b60006f7fffffffffffffffffffffffffffffff19821280159061314057506f7fffffffffffffffffffffffffffffff8213155b6131095760405162461bcd60e51b815260206004820152602760248201527f53616665436173743a2076616c756520646f65736e27742066697420696e20316044820152663238206269747360c81b6064820152608401610cd4565b6040805161014081018252606080825260006020830181905292820183905281018290526080810182905260a0810182905260c0810182905260e08101829052610100810182905261012081019190915290565b5080546131fc90613a81565b6000825580601f1061320c575050565b601f01602090049060005260206000209081019061294991905b808211156131095760008155600101613226565b60006020828403121561324c57600080fd5b5035919050565b60005b8381101561326e578181015183820152602001613256565b838111156111e95750506000910152565b60008151808452613297816020860160208601613253565b601f01601f19169290920160200192915050565b60a0815260006132be60a083018861327f565b61ffff9690961660208301525064ffffffffff93841660408201529183166060830152909116608090910152919050565b634e487b7160e01b600052604160045260246000fd5b604051601f8201601f191681016001600160401b038111828210171561332d5761332d6132ef565b604052919050565b600082601f83011261334657600080fd5b813560206001600160401b03821115613361576133616132ef565b8160051b613370828201613305565b928352848101820192828101908785111561338a57600080fd5b83870192505b848310156133a957823582529183019190830190613390565b979650505050505050565b6000806000606084860312156133c957600080fd5b8335925060208401356001600160401b038111156133e657600080fd5b6133f286828701613335565b9250506040840135801515811461340857600080fd5b809150509250925092565b60006101008083526134278184018c61327f565b9915156020840152505064ffffffffff968716604082015260ff95909516606086015262ffffff93909316608085015290841660a084015290921660c082015261ffff90911660e090910152919050565b803564ffffffffff8116811461348d57600080fd5b919050565b6000602082840312156134a457600080fd5b6134ad82613478565b9392505050565b600061014082518185526134ca8286018261327f565b91505060208301516134e5602086018264ffffffffff169052565b506040830151604085015260608301516060850152608083015161350e608086018260ff169052565b5060a083015161352560a086018262ffffff169052565b5060c083015161354060c08601826001600160501b03169052565b5060e083015161355660e086018261ffff169052565b506101008381015161ffff16908501526101208084015164ffffffffff811682870152611a3e565b6000604082016040835280855180835260608501915060608160051b8601019250602080880160005b838110156135d557605f198887030185526135c38683516134b4565b955093820193908201906001016135a7565b50508584038187015286518085528782019482019350915060005b8281101561360c578451845293810193928101926001016135f0565b5091979650505050505050565b60008083601f84011261362b57600080fd5b5081356001600160401b0381111561364257600080fd5b60208301915083602082850101111561365a57600080fd5b9250929050565b803562ffffff8116811461348d57600080fd5b803561ffff8116811461348d57600080fd5b600080600080600080600060c0888a0312156136a157600080fd5b87356001600160401b038111156136b757600080fd5b6136c38a828b01613619565b909850965050602088013560ff811681146136dd57600080fd5b94506136eb60408901613661565b93506136f960608901613478565b925061370760808901613478565b915061371560a08901613674565b905092959891949750929550565b6000806040838503121561373657600080fd5b50508035926020909101359150565b6001600160a01b038116811461294957600080fd5b60006020828403121561376c57600080fd5b81356134ad81613745565b600082601f83011261378857600080fd5b81356001600160401b038111156137a1576137a16132ef565b6137b4601f8201601f1916602001613305565b8181528460208386010111156137c957600080fd5b816020850160208301376000918101602001919091529392505050565b6000806000606084860312156137fb57600080fd5b83356001600160401b0381111561381157600080fd5b61381d86828701613777565b9350506020840135915061383360408501613478565b90509250925092565b60008060006060848603121561385157600080fd5b505081359360208301359350604090920135919050565b600061014080835261387c8184018e61327f565b64ffffffffff9c8d166020850152604084019b909b525050606081019790975260ff95909516608087015262ffffff9390931660a08601526001600160501b039190911660c085015261ffff90811660e08501521661010083015290921661012090920191909152919050565b6020815260006134ad60208301846134b4565b6000602080830181845280855180835260408601915060408160051b870101925083870160005b8281101561395157603f1988860301845261393f85835161327f565b94509285019290850190600101613923565b5092979650505050505050565b600080600080600080600060c0888a03121561397957600080fd5b87356001600160401b0381111561398f57600080fd5b61399b8a828b01613619565b90985096506136dd905060208901613674565b6000806000606084860312156139c357600080fd5b833592506020840135915060408401356001600160401b038111156139e757600080fd5b6139f386828701613335565b9150509250925092565b600060208284031215613a0f57600080fd5b81356001600160401b03811115613a2557600080fd5b613a3184828501613777565b949350505050565b6020808252825182820181905260009190848201906040850190845b81811015613a7557835161ffff1683529284019291840191600101613a55565b50909695505050505050565b600181811c90821680613a9557607f821691505b602082108103613ab557634e487b7160e01b600052602260045260246000fd5b50919050565b634e487b7160e01b600052603260045260246000fd5b815160009082906020808601845b83811015613afb57815185529382019390820190600101613adf565b50929695505050505050565b8481528315156020820152826040820152608060608201526000613b2e608083018461327f565b9695505050505050565b6020808252818101527f4f776e61626c653a2063616c6c6572206973206e6f7420746865206f776e6572604082015260600190565b6020815260006134ad602083018461327f565b60008154613b8d81613a81565b808552602060018381168015613baa5760018114613bc457613bf2565b60ff1985168884015283151560051b880183019550613bf2565b866000528260002060005b85811015613bea5781548a8201860152908301908401613bcf565b890184019650505b505050505092915050565b6020815260006134ad6020830184613b80565b601f821115613c5a57600081815260208120601f850160051c81016020861015613c375750805b601f850160051c820191505b81811015613c5657828155600101613c43565b5050505b505050565b81516001600160401b03811115613c7857613c786132ef565b613c8c81613c868454613a81565b84613c10565b602080601f831160018114613cc15760008415613ca95750858301515b600019600386901b1c1916600185901b178555613c56565b600085815260208120601f198616915b82811015613cf057888601518255948401946001909101908401613cd1565b5085821015613d0e5787850151600019600388901b60f8161c191681555b5050505050600190811b01905550565b634e487b7160e01b600052601160045260246000fd5b60008219821115613d4757613d47613d1e565b500190565b600061ffff83811690831681811015613d6757613d67613d1e565b039392505050565b600082821015613d8157613d81613d1e565b500390565b64ffffffffff85168152836020820152608060408201526000613dac608083018561327f565b905082606083015295945050505050565b600060018201613dcf57613dcf613d1e565b5060010190565b600060208284031215613de857600080fd5b81516134ad81613745565b6001600160401b03831115613e0a57613e0a6132ef565b613e1e83613e188354613a81565b83613c10565b6000601f841160018114613e525760008515613e3a5750838201355b600019600387901b1c1916600186901b178355611e8d565b600083815260209020601f19861690835b82811015613e835786850135825560209485019460019092019101613e63565b5086821015613ea05760001960f88860031b161c19848701351681555b505060018560011b0183555050505050565b838152826020820152606060408201526000610140806060840152613edb6101a0840185613b80565b600185015464ffffffffff1664ffffffffff8116608086015250600285015460a0850152600385015460c0850152600485015460ff811660e0860152600881901c62ffffff16610100860152602081901c6001600160501b031661012086015261ffff607082901c811684870152613f5f6101608701828460801c1661ffff169052565b50609081901c64ffffffffff16610180860152509695505050505050565b60006001600160501b0380841680613fa557634e487b7160e01b600052601260045260246000fd5b92169190910492915050565b6020808252601490820152732330b4b632b2103a379039b2b7321022ba3432b960611b604082015260600190565b600080821280156001600160ff1b038490038513161561400157614001613d1e565b600160ff1b839003841281161561401a5761401a613d1e565b50500190565b60008251614032818460208701613253565b9190910192915050565b600080835461404a81613a81565b60018281168015614062576001811461407757613afb565b60ff1984168752821515830287019450613afb565b8760005260208060002060005b8581101561409d5781548a820152908401908201614084565b505050959091019695505050505050565b60e081528760e08201526000610100898b8285013760008a840182015264ffffffffff988916602084015260ff9790971660408301525062ffffff949094166060850152918516608084015290931660a082015261ffff90921660c0830152601f909201601f1916010191905056fea264697066735822122070686616f06cd80d8b1f82c5fbd7293739ac37ab2e54e59c35a12637bfa583c764736f6c634300080f0033",
  "bytecodeSha1": "f5415957f3c254ba25310eefeddceb73d7ccd494",
  "compiler": {
    "evm_version": "istanbul",
    "optimizer": {
      "enabled": true,
      "runs": 200
    },
    "version": "0.8.15+commit.e14f2714"
  },
  "contractName": "Governance",
  "language": "Solidity",
  "natspec": {
    "errors": {
      "Empty()": [
        {
          "details": "An operation (e.g. {front}) couldn't be completed due to the queue being empty."
        }
      ],
      "OutOfBounds()": [
        {
          "details": "An operation (e.g. {at}) couldn't be completed due to an index being out of bounds."
        }
      ]
    },
    "kind": "dev",
    "methods": {
      "constructor": {
        "details": "Constructor for HOADAO",
        "params": {
          "_nft": "-- contract address for NFTs"
        }
      },
      "owner()": {
        "details": "Returns the address of the current owner."
      },
      "renounceOwnership()": {
        "details": "Leaves the contract without owner. It will not be possible to call `onlyOwner` functions anymore. Can only be called by the current owner. NOTE: Renouncing ownership will leave the contract without an owner, thereby removing any functionality that is only available to the owner."
      },
      "transferOwnership(address)": {
        "details": "Transfers ownership of the contract to a new account (`newOwner`). Can only be called by the current owner."
      }
    },
    "version": 1
  },
  "opcodes": "PUSH1 0x80 PUSH1 0x40 MSTORE PUSH1 0x4 CALLDATASIZE LT PUSH2 0x14F JUMPI PUSH1 0x0 CALLDATALOAD PUSH1 0xE0 SHR DUP1 PUSH4 0x8DA5CB5B GT PUSH2 0xB6 JUMPI DUP1 PUSH4 0xE95D2347 GT PUSH2 0x6F JUMPI DUP1 PUSH4 0xE95D2347 EQ PUSH2 0x422 JUMPI DUP1 PUSH4 0xF18C51D3 EQ PUSH2 0x462 JUMPI DUP1 PUSH4 0xF2FDE38B EQ PUSH2 0x482 JUMPI DUP1 PUSH4 0xF4739BD9 EQ PUSH2 0x4A2 JUMPI DUP1 PUSH4 0xF713B7ED EQ PUSH2 0x4D2 JUMPI DUP1 PUSH4 0xFF981099 EQ PUSH2 0x4F2 JUMPI PUSH1 0x0 DUP1 REVERT JUMPDEST DUP1 PUSH4 0x8DA5CB5B EQ PUSH2 0x34A JUMPI DUP1 PUSH4 0x90B293D8 EQ PUSH2 0x372 JUMPI DUP1 PUSH4 0x976217CD EQ PUSH2 0x388 JUMPI DUP1 PUSH4 0xB2BAD544 EQ PUSH2 0x3B5 JUMPI DUP1 PUSH4 0xBECA3A16 EQ PUSH2 0x3E2 JUMPI DUP1 PUSH4 0xD374A217 EQ PUSH2 0x402 JUMPI PUSH1 0x0 DUP1 REVERT JUMPDEST DUP1 PUSH4 0x69D03738 GT PUSH2 0x108 JUMPI DUP1 PUSH4 0x69D03738 EQ PUSH2 0x27F JUMPI DUP1 PUSH4 0x715018A6 EQ PUSH2 0x29F JUMPI DUP1 PUSH4 0x72E185CE EQ PUSH2 0x2B4 JUMPI DUP1 PUSH4 0x826B8EBD EQ PUSH2 0x2D4 JUMPI DUP1 PUSH4 0x8A6655D6 EQ PUSH2 0x2F4 JUMPI DUP1 PUSH4 0x8D977672 EQ PUSH2 0x314 JUMPI PUSH1 0x0 DUP1 REVERT JUMPDEST DUP1 PUSH4 0x13CF08B EQ PUSH2 0x15B JUMPI DUP1 PUSH4 0x9265CE6 EQ PUSH2 0x195 JUMPI DUP1 PUSH4 0x10190EF1 EQ PUSH2 0x1B7 JUMPI DUP1 PUSH4 0x4B50F16A EQ PUSH2 0x1EB JUMPI DUP1 PUSH4 0x61F9E9A8 EQ PUSH2 0x219 JUMPI DUP1 PUSH4 0x6215597B EQ PUSH2 0x239 JUMPI PUSH1 0x0 DUP1 REVERT JUMPDEST CALLDATASIZE PUSH2 0x156 JUMPI STOP JUMPDEST PUSH1 0x0 DUP1 REVERT JUMPDEST CALLVALUE DUP1 ISZERO PUSH2 0x167 JUMPI PUSH1 0x0 DUP1 REVERT JUMPDEST POP PUSH2 0x17B PUSH2 0x176 CALLDATASIZE PUSH1 0x4 PUSH2 0x323A JUMP JUMPDEST PUSH2 0x51F JUMP JUMPDEST PUSH1 0x40 MLOAD PUSH2 0x18C SWAP6 SWAP5 SWAP4 SWAP3 SWAP2 SWAP1 PUSH2 0x32AB JUMP JUMPDEST PUSH1 0x40 MLOAD DUP1 SWAP2 SUB SWAP1 RETURN JUMPDEST CALLVALUE DUP1 ISZERO PUSH2 0x1A1 JUMPI PUSH1 0x0 DUP1 REVERT JUMPDEST POP PUSH2 0x1B5 PUSH2 0x1B0 CALLDATASIZE PUSH1 0x4 PUSH2 0x33B4 JUMP JUMPDEST PUSH2 0x5EB JUMP JUMPDEST STOP JUMPDEST CALLVALUE DUP1 ISZERO PUSH2 0x1C3 JUMPI PUSH1 0x0 DUP1 REVERT JUMPDEST POP PUSH2 0x1D7 PUSH2 0x1D2 CALLDATASIZE PUSH1 0x4 PUSH2 0x323A JUMP JUMPDEST PUSH2 0x731 JUMP JUMPDEST PUSH1 0x40 MLOAD PUSH2 0x18C SWAP9 SWAP8 SWAP7 SWAP6 SWAP5 SWAP4 SWAP3 SWAP2 SWAP1 PUSH2 0x3413 JUMP JUMPDEST CALLVALUE DUP1 ISZERO PUSH2 0x1F7 JUMPI PUSH1 0x0 DUP1 REVERT JUMPDEST POP PUSH2 0x20B PUSH2 0x206 CALLDATASIZE PUSH1 0x4 PUSH2 0x3492 JUMP JUMPDEST PUSH2 0x83B JUMP JUMPDEST PUSH1 0x40 MLOAD PUSH2 0x18C SWAP3 SWAP2 SWAP1 PUSH2 0x357E JUMP JUMPDEST CALLVALUE DUP1 ISZERO PUSH2 0x225 JUMPI PUSH1 0x0 DUP1 REVERT JUMPDEST POP PUSH2 0x1B5 PUSH2 0x234 CALLDATASIZE PUSH1 0x4 PUSH2 0x3686 JUMP JUMPDEST PUSH2 0xCCF JUMP JUMPDEST CALLVALUE DUP1 ISZERO PUSH2 0x245 JUMPI PUSH1 0x0 DUP1 REVERT JUMPDEST POP PUSH2 0x271 PUSH2 0x254 CALLDATASIZE PUSH1 0x4 PUSH2 0x3723 JUMP JUMPDEST PUSH1 0x3 PUSH1 0x20 SWAP1 DUP2 MSTORE PUSH1 0x0 SWAP3 DUP4 MSTORE PUSH1 0x40 DUP1 DUP5 KECCAK256 SWAP1 SWAP2 MSTORE SWAP1 DUP3 MSTORE SWAP1 KECCAK256 SLOAD DUP2 JUMP JUMPDEST PUSH1 0x40 MLOAD SWAP1 DUP2 MSTORE PUSH1 0x20 ADD PUSH2 0x18C JUMP JUMPDEST CALLVALUE DUP1 ISZERO PUSH2 0x28B JUMPI PUSH1 0x0 DUP1 REVERT JUMPDEST POP PUSH2 0x1B5 PUSH2 0x29A CALLDATASIZE PUSH1 0x4 PUSH2 0x375A JUMP JUMPDEST PUSH2 0xCF7 JUMP JUMPDEST CALLVALUE DUP1 ISZERO PUSH2 0x2AB JUMPI PUSH1 0x0 DUP1 REVERT JUMPDEST POP PUSH2 0x1B5 PUSH2 0xD43 JUMP JUMPDEST CALLVALUE DUP1 ISZERO PUSH2 0x2C0 JUMPI PUSH1 0x0 DUP1 REVERT JUMPDEST POP PUSH2 0x1B5 PUSH2 0x2CF CALLDATASIZE PUSH1 0x4 PUSH2 0x37E6 JUMP JUMPDEST PUSH2 0xD79 JUMP JUMPDEST CALLVALUE DUP1 ISZERO PUSH2 0x2E0 JUMPI PUSH1 0x0 DUP1 REVERT JUMPDEST POP PUSH2 0x271 PUSH2 0x2EF CALLDATASIZE PUSH1 0x4 PUSH2 0x323A JUMP JUMPDEST PUSH2 0x11EF JUMP JUMPDEST CALLVALUE DUP1 ISZERO PUSH2 0x300 JUMPI PUSH1 0x0 DUP1 REVERT JUMPDEST POP PUSH2 0x1B5 PUSH2 0x30F CALLDATASIZE PUSH1 0x4 PUSH2 0x383C JUMP JUMPDEST PUSH2 0x1405 JUMP JUMPDEST CALLVALUE DUP1 ISZERO PUSH2 0x320 JUMPI PUSH1 0x0 DUP1 REVERT JUMPDEST POP PUSH2 0x334 PUSH2 0x32F CALLDATASIZE PUSH1 0x4 PUSH2 0x323A JUMP JUMPDEST PUSH2 0x143E JUMP JUMPDEST PUSH1 0x40 MLOAD PUSH2 0x18C SWAP11 SWAP10 SWAP9 SWAP8 SWAP7 SWAP6 SWAP5 SWAP4 SWAP3 SWAP2 SWAP1 PUSH2 0x3868 JUMP JUMPDEST CALLVALUE DUP1 ISZERO PUSH2 0x356 JUMPI PUSH1 0x0 DUP1 REVERT JUMPDEST POP PUSH1 0x1 SLOAD PUSH1 0x40 MLOAD PUSH1 0x1 PUSH1 0x1 PUSH1 0xA0 SHL SUB SWAP1 SWAP2 AND DUP2 MSTORE PUSH1 0x20 ADD PUSH2 0x18C JUMP JUMPDEST CALLVALUE DUP1 ISZERO PUSH2 0x37E JUMPI PUSH1 0x0 DUP1 REVERT JUMPDEST POP PUSH2 0x271 PUSH1 0xA SLOAD DUP2 JUMP JUMPDEST CALLVALUE DUP1 ISZERO PUSH2 0x394 JUMPI PUSH1 0x0 DUP1 REVERT JUMPDEST POP PUSH2 0x3A8 PUSH2 0x3A3 CALLDATASIZE PUSH1 0x4 PUSH2 0x323A JUMP JUMPDEST PUSH2 0x1540 JUMP JUMPDEST PUSH1 0x40 MLOAD PUSH2 0x18C SWAP2 SWAP1 PUSH2 0x38E9 JUMP JUMPDEST CALLVALUE DUP1 ISZERO PUSH2 0x3C1 JUMPI PUSH1 0x0 DUP1 REVERT JUMPDEST POP PUSH2 0x3D5 PUSH2 0x3D0 CALLDATASIZE PUSH1 0x4 PUSH2 0x3492 JUMP JUMPDEST PUSH2 0x1682 JUMP JUMPDEST PUSH1 0x40 MLOAD PUSH2 0x18C SWAP2 SWAP1 PUSH2 0x38FC JUMP JUMPDEST CALLVALUE DUP1 ISZERO PUSH2 0x3EE JUMPI PUSH1 0x0 DUP1 REVERT JUMPDEST POP PUSH2 0x1B5 PUSH2 0x3FD CALLDATASIZE PUSH1 0x4 PUSH2 0x395E JUMP JUMPDEST PUSH2 0x1A48 JUMP JUMPDEST CALLVALUE DUP1 ISZERO PUSH2 0x40E JUMPI PUSH1 0x0 DUP1 REVERT JUMPDEST POP PUSH2 0x1B5 PUSH2 0x41D CALLDATASIZE PUSH1 0x4 PUSH2 0x323A JUMP JUMPDEST PUSH2 0x1B5D JUMP JUMPDEST CALLVALUE DUP1 ISZERO PUSH2 0x42E JUMPI PUSH1 0x0 DUP1 REVERT JUMPDEST POP PUSH1 0x5 SLOAD PUSH2 0x448 SWAP1 PUSH1 0xF DUP2 DUP2 SIGNEXTEND SWAP2 PUSH1 0x1 PUSH1 0x80 SHL SWAP1 DIV SWAP1 SIGNEXTEND DUP3 JUMP JUMPDEST PUSH1 0x40 DUP1 MLOAD PUSH1 0xF SWAP4 DUP5 SIGNEXTEND DUP2 MSTORE SWAP2 SWAP1 SWAP3 SIGNEXTEND PUSH1 0x20 DUP3 ADD MSTORE ADD PUSH2 0x18C JUMP JUMPDEST CALLVALUE DUP1 ISZERO PUSH2 0x46E JUMPI PUSH1 0x0 DUP1 REVERT JUMPDEST POP PUSH2 0x1B5 PUSH2 0x47D CALLDATASIZE PUSH1 0x4 PUSH2 0x39AE JUMP JUMPDEST PUSH2 0x1E94 JUMP JUMPDEST CALLVALUE DUP1 ISZERO PUSH2 0x48E JUMPI PUSH1 0x0 DUP1 REVERT JUMPDEST POP PUSH2 0x1B5 PUSH2 0x49D CALLDATASIZE PUSH1 0x4 PUSH2 0x375A JUMP JUMPDEST PUSH2 0x28B1 JUMP JUMPDEST CALLVALUE DUP1 ISZERO PUSH2 0x4AE JUMPI PUSH1 0x0 DUP1 REVERT JUMPDEST POP PUSH2 0x4C2 PUSH2 0x4BD CALLDATASIZE PUSH1 0x4 PUSH2 0x323A JUMP JUMPDEST PUSH2 0x294C JUMP JUMPDEST PUSH1 0x40 MLOAD SWAP1 ISZERO ISZERO DUP2 MSTORE PUSH1 0x20 ADD PUSH2 0x18C JUMP JUMPDEST CALLVALUE DUP1 ISZERO PUSH2 0x4DE JUMPI PUSH1 0x0 DUP1 REVERT JUMPDEST POP PUSH2 0x1B5 PUSH2 0x4ED CALLDATASIZE PUSH1 0x4 PUSH2 0x39FD JUMP JUMPDEST PUSH2 0x2B1C JUMP JUMPDEST CALLVALUE DUP1 ISZERO PUSH2 0x4FE JUMPI PUSH1 0x0 DUP1 REVERT JUMPDEST POP PUSH2 0x512 PUSH2 0x50D CALLDATASIZE PUSH1 0x4 PUSH2 0x323A JUMP JUMPDEST PUSH2 0x2CB9 JUMP JUMPDEST PUSH1 0x40 MLOAD PUSH2 0x18C SWAP2 SWAP1 PUSH2 0x3A39 JUMP JUMPDEST PUSH1 0x7 PUSH1 0x20 MSTORE PUSH1 0x0 SWAP1 DUP2 MSTORE PUSH1 0x40 SWAP1 KECCAK256 DUP1 SLOAD DUP2 SWAP1 PUSH2 0x53A SWAP1 PUSH2 0x3A81 JUMP JUMPDEST DUP1 PUSH1 0x1F ADD PUSH1 0x20 DUP1 SWAP2 DIV MUL PUSH1 0x20 ADD PUSH1 0x40 MLOAD SWAP1 DUP2 ADD PUSH1 0x40 MSTORE DUP1 SWAP3 SWAP2 SWAP1 DUP2 DUP2 MSTORE PUSH1 0x20 ADD DUP3 DUP1 SLOAD PUSH2 0x566 SWAP1 PUSH2 0x3A81 JUMP JUMPDEST DUP1 ISZERO PUSH2 0x5B3 JUMPI DUP1 PUSH1 0x1F LT PUSH2 0x588 JUMPI PUSH2 0x100 DUP1 DUP4 SLOAD DIV MUL DUP4 MSTORE SWAP2 PUSH1 0x20 ADD SWAP2 PUSH2 0x5B3 JUMP JUMPDEST DUP3 ADD SWAP2 SWAP1 PUSH1 0x0 MSTORE PUSH1 0x20 PUSH1 0x0 KECCAK256 SWAP1 JUMPDEST DUP2 SLOAD DUP2 MSTORE SWAP1 PUSH1 0x1 ADD SWAP1 PUSH1 0x20 ADD DUP1 DUP4 GT PUSH2 0x596 JUMPI DUP3 SWAP1 SUB PUSH1 0x1F AND DUP3 ADD SWAP2 JUMPDEST POP POP POP POP PUSH1 0x1 DUP4 ADD SLOAD PUSH1 0x3 SWAP1 SWAP4 ADD SLOAD SWAP2 SWAP3 PUSH2 0xFFFF AND SWAP2 PUSH5 0xFFFFFFFFFF DUP1 DUP3 AND SWAP3 POP PUSH6 0x10000000000 DUP3 DIV DUP2 AND SWAP2 PUSH1 0x1 PUSH1 0x50 SHL SWAP1 DIV AND DUP6 JUMP JUMPDEST PUSH1 0x0 DUP3 PUSH1 0x0 DUP2 MLOAD DUP2 LT PUSH2 0x600 JUMPI PUSH2 0x600 PUSH2 0x3ABB JUMP JUMPDEST PUSH1 0x20 MUL PUSH1 0x20 ADD ADD MLOAD PUSH1 0x40 MLOAD PUSH1 0x20 ADD PUSH2 0x61A SWAP2 DUP2 MSTORE PUSH1 0x20 ADD SWAP1 JUMP JUMPDEST PUSH1 0x40 MLOAD PUSH1 0x20 DUP2 DUP4 SUB SUB DUP2 MSTORE SWAP1 PUSH1 0x40 MSTORE SWAP1 POP DUP2 ISZERO PUSH2 0x6A6 JUMPI PUSH1 0x0 JUMPDEST DUP4 MLOAD DUP2 LT ISZERO PUSH2 0x6A4 JUMPI DUP4 DUP2 DUP2 MLOAD DUP2 LT PUSH2 0x64F JUMPI PUSH2 0x64F PUSH2 0x3ABB JUMP JUMPDEST PUSH1 0x20 MUL PUSH1 0x20 ADD ADD MLOAD PUSH1 0x40 MLOAD PUSH1 0x20 ADD PUSH2 0x669 SWAP2 DUP2 MSTORE PUSH1 0x20 ADD SWAP1 JUMP JUMPDEST PUSH1 0x40 MLOAD PUSH1 0x20 DUP2 DUP4 SUB SUB DUP2 MSTORE SWAP1 PUSH1 0x40 MSTORE DUP1 MLOAD SWAP1 PUSH1 0x20 ADD KECCAK256 DUP5 DUP3 DUP2 MLOAD DUP2 LT PUSH2 0x691 JUMPI PUSH2 0x691 PUSH2 0x3ABB JUMP JUMPDEST PUSH1 0x20 SWAP1 DUP2 MUL SWAP2 SWAP1 SWAP2 ADD ADD MSTORE PUSH1 0x1 ADD PUSH2 0x634 JUMP JUMPDEST POP JUMPDEST PUSH1 0x0 DUP4 PUSH1 0x40 MLOAD PUSH1 0x20 ADD PUSH2 0x6B9 SWAP2 SWAP1 PUSH2 0x3AD1 JUMP JUMPDEST PUSH1 0x40 MLOAD PUSH1 0x20 DUP2 DUP4 SUB SUB DUP2 MSTORE SWAP1 PUSH1 0x40 MSTORE DUP1 MLOAD SWAP1 PUSH1 0x20 ADD KECCAK256 SWAP1 POP PUSH32 0x637CE8D069E382E64EF71CF191623B88C7E307CE252E908E7F2BABBAD0CB81EA DUP2 DUP7 DUP4 EQ DUP7 PUSH1 0x0 DUP2 MLOAD DUP2 LT PUSH2 0x709 JUMPI PUSH2 0x709 PUSH2 0x3ABB JUMP JUMPDEST PUSH1 0x20 MUL PUSH1 0x20 ADD ADD MLOAD DUP6 PUSH1 0x40 MLOAD PUSH2 0x722 SWAP5 SWAP4 SWAP3 SWAP2 SWAP1 PUSH2 0x3B07 JUMP JUMPDEST PUSH1 0x40 MLOAD DUP1 SWAP2 SUB SWAP1 LOG1 POP POP POP POP POP JUMP JUMPDEST PUSH1 0x4 DUP2 DUP2 SLOAD DUP2 LT PUSH2 0x741 JUMPI PUSH1 0x0 DUP1 REVERT JUMPDEST SWAP1 PUSH1 0x0 MSTORE PUSH1 0x20 PUSH1 0x0 KECCAK256 SWAP1 PUSH1 0x3 MUL ADD PUSH1 0x0 SWAP2 POP SWAP1 POP DUP1 PUSH1 0x1 ADD DUP1 SLOAD PUSH2 0x764 SWAP1 PUSH2 0x3A81 JUMP JUMPDEST DUP1 PUSH1 0x1F ADD PUSH1 0x20 DUP1 SWAP2 DIV MUL PUSH1 0x20 ADD PUSH1 0x40 MLOAD SWAP1 DUP2 ADD PUSH1 0x40 MSTORE DUP1 SWAP3 SWAP2 SWAP1 DUP2 DUP2 MSTORE PUSH1 0x20 ADD DUP3 DUP1 SLOAD PUSH2 0x790 SWAP1 PUSH2 0x3A81 JUMP JUMPDEST DUP1 ISZERO PUSH2 0x7DD JUMPI DUP1 PUSH1 0x1F LT PUSH2 0x7B2 JUMPI PUSH2 0x100 DUP1 DUP4 SLOAD DIV MUL DUP4 MSTORE SWAP2 PUSH1 0x20 ADD SWAP2 PUSH2 0x7DD JUMP JUMPDEST DUP3 ADD SWAP2 SWAP1 PUSH1 0x0 MSTORE PUSH1 0x20 PUSH1 0x0 KECCAK256 SWAP1 JUMPDEST DUP2 SLOAD DUP2 MSTORE SWAP1 PUSH1 0x1 ADD SWAP1 PUSH1 0x20 ADD DUP1 DUP4 GT PUSH2 0x7C0 JUMPI DUP3 SWAP1 SUB PUSH1 0x1F AND DUP3 ADD SWAP2 JUMPDEST POP POP POP PUSH1 0x2 SWAP1 SWAP4 ADD SLOAD SWAP2 SWAP3 POP POP PUSH1 0xFF DUP1 DUP3 AND SWAP2 PUSH5 0xFFFFFFFFFF PUSH2 0x100 DUP3 DIV DUP2 AND SWAP3 PUSH7 0x1000000000000 DUP4 DIV AND SWAP2 PUSH3 0xFFFFFF PUSH1 0x1 PUSH1 0x38 SHL DUP3 DIV AND SWAP2 PUSH1 0x1 PUSH1 0x50 SHL DUP3 DIV DUP2 AND SWAP2 PUSH1 0x1 PUSH1 0x78 SHL DUP2 DIV SWAP1 SWAP2 AND SWAP1 PUSH2 0xFFFF PUSH1 0x1 PUSH1 0xA0 SHL SWAP1 SWAP2 DIV AND DUP9 JUMP JUMPDEST PUSH1 0x60 DUP1 PUSH1 0x0 PUSH2 0x859 PUSH1 0x5 SLOAD PUSH1 0xF DUP2 DUP2 SIGNEXTEND PUSH1 0x1 PUSH1 0x80 SHL SWAP1 SWAP3 DIV SWAP1 SIGNEXTEND SUB SWAP1 JUMP JUMPDEST SWAP1 POP PUSH2 0x863 PUSH2 0x319C JUMP JUMPDEST PUSH1 0x0 DUP1 DUP1 JUMPDEST DUP5 DUP2 LT ISZERO PUSH2 0x9EB JUMPI PUSH2 0x87B PUSH1 0x5 DUP3 PUSH2 0x2DDE JUMP JUMPDEST PUSH1 0x0 DUP2 DUP2 MSTORE PUSH1 0x9 PUSH1 0x20 MSTORE PUSH1 0x40 SWAP1 DUP2 SWAP1 KECCAK256 DUP2 MLOAD PUSH2 0x140 DUP2 ADD SWAP1 SWAP3 MSTORE DUP1 SLOAD SWAP3 SWAP6 POP SWAP1 SWAP2 DUP3 SWAP1 DUP3 SWAP1 PUSH2 0x8A9 SWAP1 PUSH2 0x3A81 JUMP JUMPDEST DUP1 PUSH1 0x1F ADD PUSH1 0x20 DUP1 SWAP2 DIV MUL PUSH1 0x20 ADD PUSH1 0x40 MLOAD SWAP1 DUP2 ADD PUSH1 0x40 MSTORE DUP1 SWAP3 SWAP2 SWAP1 DUP2 DUP2 MSTORE PUSH1 0x20 ADD DUP3 DUP1 SLOAD PUSH2 0x8D5 SWAP1 PUSH2 0x3A81 JUMP JUMPDEST DUP1 ISZERO PUSH2 0x922 JUMPI DUP1 PUSH1 0x1F LT PUSH2 0x8F7 JUMPI PUSH2 0x100 DUP1 DUP4 SLOAD DIV MUL DUP4 MSTORE SWAP2 PUSH1 0x20 ADD SWAP2 PUSH2 0x922 JUMP JUMPDEST DUP3 ADD SWAP2 SWAP1 PUSH1 0x0 MSTORE PUSH1 0x20 PUSH1 0x0 KECCAK256 SWAP1 JUMPDEST DUP2 SLOAD DUP2 MSTORE SWAP1 PUSH1 0x1 ADD SWAP1 PUSH1 0x20 ADD DUP1 DUP4 GT PUSH2 0x905 JUMPI DUP3 SWAP1 SUB PUSH1 0x1F AND DUP3 ADD SWAP2 JUMPDEST POP POP POP SWAP2 DUP4 MSTORE POP POP PUSH1 0x1 DUP3 ADD SLOAD PUSH5 0xFFFFFFFFFF SWAP1 DUP2 AND PUSH1 0x20 DUP4 ADD MSTORE PUSH1 0x2 DUP4 ADD SLOAD PUSH1 0x40 DUP4 ADD MSTORE PUSH1 0x3 DUP4 ADD SLOAD PUSH1 0x60 DUP4 ADD MSTORE PUSH1 0x4 SWAP1 SWAP3 ADD SLOAD PUSH1 0xFF DUP2 AND PUSH1 0x80 DUP4 ADD MSTORE PUSH2 0x100 DUP1 DUP3 DIV PUSH3 0xFFFFFF AND PUSH1 0xA0 DUP5 ADD MSTORE PUSH1 0x1 PUSH1 0x20 SHL DUP3 DIV PUSH1 0x1 PUSH1 0x1 PUSH1 0x50 SHL SUB AND PUSH1 0xC0 DUP5 ADD MSTORE PUSH1 0x1 PUSH1 0x70 SHL DUP3 DIV PUSH2 0xFFFF SWAP1 DUP2 AND PUSH1 0xE0 DUP6 ADD MSTORE PUSH1 0x1 PUSH1 0x80 SHL DUP4 DIV AND SWAP1 DUP4 ADD MSTORE PUSH1 0x1 PUSH1 0x90 SHL SWAP1 DIV DUP3 AND PUSH2 0x120 SWAP2 DUP3 ADD MSTORE DUP3 ADD MLOAD SWAP2 SWAP6 POP TIMESTAMP SWAP2 AND GT DUP1 ISZERO PUSH2 0x9D7 JUMPI POP DUP8 PUSH5 0xFFFFFFFFFF AND DUP5 PUSH1 0xE0 ADD MLOAD PUSH2 0xFFFF AND EQ JUMPDEST ISZERO PUSH2 0x9E3 JUMPI DUP2 PUSH1 0x1 ADD SWAP2 POP JUMPDEST PUSH1 0x1 ADD PUSH2 0x868 JUMP JUMPDEST POP DUP1 PUSH1 0x0 SUB PUSH2 0xA58 JUMPI PUSH1 0x40 DUP1 MLOAD PUSH1 0x1 DUP1 DUP3 MSTORE DUP2 DUP4 ADD SWAP1 SWAP3 MSTORE PUSH1 0x0 SWAP2 DUP2 PUSH1 0x20 ADD JUMPDEST PUSH2 0xA13 PUSH2 0x319C JUMP JUMPDEST DUP2 MSTORE PUSH1 0x20 ADD SWAP1 PUSH1 0x1 SWAP1 SUB SWAP1 DUP2 PUSH2 0xA0B JUMPI POP POP PUSH1 0x40 DUP1 MLOAD PUSH1 0x1 DUP1 DUP3 MSTORE DUP2 DUP4 ADD SWAP1 SWAP3 MSTORE SWAP2 SWAP3 POP PUSH1 0x0 SWAP2 SWAP1 PUSH1 0x20 DUP1 DUP4 ADD SWAP1 DUP1 CALLDATASIZE DUP4 CALLDATACOPY POP SWAP4 SWAP12 SWAP2 SWAP11 POP SWAP1 SWAP9 POP POP POP POP POP POP POP POP POP JUMP JUMPDEST PUSH1 0x0 DUP1 DUP3 PUSH1 0x1 PUSH1 0x1 PUSH1 0x40 SHL SUB DUP2 GT ISZERO PUSH2 0xA73 JUMPI PUSH2 0xA73 PUSH2 0x32EF JUMP JUMPDEST PUSH1 0x40 MLOAD SWAP1 DUP1 DUP3 MSTORE DUP1 PUSH1 0x20 MUL PUSH1 0x20 ADD DUP3 ADD PUSH1 0x40 MSTORE DUP1 ISZERO PUSH2 0xAAC JUMPI DUP2 PUSH1 0x20 ADD JUMPDEST PUSH2 0xA99 PUSH2 0x319C JUMP JUMPDEST DUP2 MSTORE PUSH1 0x20 ADD SWAP1 PUSH1 0x1 SWAP1 SUB SWAP1 DUP2 PUSH2 0xA91 JUMPI SWAP1 POP JUMPDEST POP SWAP1 POP PUSH1 0x0 DUP4 PUSH1 0x1 PUSH1 0x1 PUSH1 0x40 SHL SUB DUP2 GT ISZERO PUSH2 0xAC9 JUMPI PUSH2 0xAC9 PUSH2 0x32EF JUMP JUMPDEST PUSH1 0x40 MLOAD SWAP1 DUP1 DUP3 MSTORE DUP1 PUSH1 0x20 MUL PUSH1 0x20 ADD DUP3 ADD PUSH1 0x40 MSTORE DUP1 ISZERO PUSH2 0xAF2 JUMPI DUP2 PUSH1 0x20 ADD PUSH1 0x20 DUP3 MUL DUP1 CALLDATASIZE DUP4 CALLDATACOPY ADD SWAP1 POP JUMPDEST POP SWAP1 POP PUSH1 0x0 JUMPDEST DUP8 DUP2 LT ISZERO PUSH2 0xCBF JUMPI PUSH2 0xB0B PUSH1 0x5 DUP3 PUSH2 0x2DDE JUMP JUMPDEST PUSH1 0x0 DUP2 DUP2 MSTORE PUSH1 0x9 PUSH1 0x20 MSTORE PUSH1 0x40 SWAP1 DUP2 SWAP1 KECCAK256 DUP2 MLOAD PUSH2 0x140 DUP2 ADD SWAP1 SWAP3 MSTORE DUP1 SLOAD SWAP3 SWAP9 POP SWAP1 SWAP2 DUP3 SWAP1 DUP3 SWAP1 PUSH2 0xB39 SWAP1 PUSH2 0x3A81 JUMP JUMPDEST DUP1 PUSH1 0x1F ADD PUSH1 0x20 DUP1 SWAP2 DIV MUL PUSH1 0x20 ADD PUSH1 0x40 MLOAD SWAP1 DUP2 ADD PUSH1 0x40 MSTORE DUP1 SWAP3 SWAP2 SWAP1 DUP2 DUP2 MSTORE PUSH1 0x20 ADD DUP3 DUP1 SLOAD PUSH2 0xB65 SWAP1 PUSH2 0x3A81 JUMP JUMPDEST DUP1 ISZERO PUSH2 0xBB2 JUMPI DUP1 PUSH1 0x1F LT PUSH2 0xB87 JUMPI PUSH2 0x100 DUP1 DUP4 SLOAD DIV MUL DUP4 MSTORE SWAP2 PUSH1 0x20 ADD SWAP2 PUSH2 0xBB2 JUMP JUMPDEST DUP3 ADD SWAP2 SWAP1 PUSH1 0x0 MSTORE PUSH1 0x20 PUSH1 0x0 KECCAK256 SWAP1 JUMPDEST DUP2 SLOAD DUP2 MSTORE SWAP1 PUSH1 0x1 ADD SWAP1 PUSH1 0x20 ADD DUP1 DUP4 GT PUSH2 0xB95 JUMPI DUP3 SWAP1 SUB PUSH1 0x1F AND DUP3 ADD SWAP2 JUMPDEST POP POP POP SWAP2 DUP4 MSTORE POP POP PUSH1 0x1 DUP3 ADD SLOAD PUSH5 0xFFFFFFFFFF SWAP1 DUP2 AND PUSH1 0x20 DUP4 ADD MSTORE PUSH1 0x2 DUP4 ADD SLOAD PUSH1 0x40 DUP4 ADD MSTORE PUSH1 0x3 DUP4 ADD SLOAD PUSH1 0x60 DUP4 ADD MSTORE PUSH1 0x4 SWAP1 SWAP3 ADD SLOAD PUSH1 0xFF DUP2 AND PUSH1 0x80 DUP4 ADD MSTORE PUSH2 0x100 DUP1 DUP3 DIV PUSH3 0xFFFFFF AND PUSH1 0xA0 DUP5 ADD MSTORE PUSH1 0x1 PUSH1 0x20 SHL DUP3 DIV PUSH1 0x1 PUSH1 0x1 PUSH1 0x50 SHL SUB AND PUSH1 0xC0 DUP5 ADD MSTORE PUSH1 0x1 PUSH1 0x70 SHL DUP3 DIV PUSH2 0xFFFF SWAP1 DUP2 AND PUSH1 0xE0 DUP6 ADD MSTORE PUSH1 0x1 PUSH1 0x80 SHL DUP4 DIV AND SWAP1 DUP4 ADD MSTORE PUSH1 0x1 PUSH1 0x90 SHL SWAP1 DIV DUP3 AND PUSH2 0x120 SWAP2 DUP3 ADD MSTORE DUP3 ADD MLOAD SWAP2 SWAP9 POP TIMESTAMP SWAP2 AND GT DUP1 ISZERO PUSH2 0xC67 JUMPI POP DUP11 PUSH5 0xFFFFFFFFFF AND DUP8 PUSH1 0xE0 ADD MLOAD PUSH2 0xFFFF AND EQ JUMPDEST ISZERO PUSH2 0xCB7 JUMPI DUP7 DUP4 DUP6 DUP2 MLOAD DUP2 LT PUSH2 0xC7F JUMPI PUSH2 0xC7F PUSH2 0x3ABB JUMP JUMPDEST PUSH1 0x20 MUL PUSH1 0x20 ADD ADD DUP2 SWAP1 MSTORE POP DUP6 DUP3 DUP6 DUP2 MLOAD DUP2 LT PUSH2 0xC9D JUMPI PUSH2 0xC9D PUSH2 0x3ABB JUMP JUMPDEST PUSH1 0x20 MUL PUSH1 0x20 ADD ADD DUP2 DUP2 MSTORE POP POP DUP4 PUSH1 0x1 ADD SWAP4 POP DUP5 DUP5 GT PUSH2 0xCBF JUMPI JUMPDEST PUSH1 0x1 ADD PUSH2 0xAF8 JUMP JUMPDEST POP SWAP1 SWAP10 SWAP1 SWAP9 POP SWAP7 POP POP POP POP POP POP POP JUMP JUMPDEST PUSH2 0xCDD JUMP JUMPDEST PUSH1 0x40 MLOAD DUP1 SWAP2 SUB SWAP1 REVERT JUMPDEST PUSH2 0xCEE DUP8 DUP8 PUSH1 0x0 DUP9 DUP9 DUP9 DUP9 DUP9 PUSH2 0x2E4F JUMP JUMPDEST POP POP POP POP POP POP POP JUMP JUMPDEST PUSH1 0x1 SLOAD PUSH1 0x1 PUSH1 0x1 PUSH1 0xA0 SHL SUB AND CALLER EQ PUSH2 0xD21 JUMPI PUSH1 0x40 MLOAD PUSH3 0x461BCD PUSH1 0xE5 SHL DUP2 MSTORE PUSH1 0x4 ADD PUSH2 0xCD4 SWAP1 PUSH2 0x3B38 JUMP JUMPDEST PUSH1 0x2 DUP1 SLOAD PUSH1 0x1 PUSH1 0x1 PUSH1 0xA0 SHL SUB NOT AND PUSH1 0x1 PUSH1 0x1 PUSH1 0xA0 SHL SUB SWAP3 SWAP1 SWAP3 AND SWAP2 SWAP1 SWAP2 OR SWAP1 SSTORE JUMP JUMPDEST PUSH1 0x1 SLOAD PUSH1 0x1 PUSH1 0x1 PUSH1 0xA0 SHL SUB AND CALLER EQ PUSH2 0xD6D JUMPI PUSH1 0x40 MLOAD PUSH3 0x461BCD PUSH1 0xE5 SHL DUP2 MSTORE PUSH1 0x4 ADD PUSH2 0xCD4 SWAP1 PUSH2 0x3B38 JUMP JUMPDEST PUSH2 0xD77 PUSH1 0x0 PUSH2 0x2FCE JUMP JUMPDEST JUMP JUMPDEST PUSH1 0x0 JUMPDEST PUSH1 0x4 SLOAD DUP2 LT ISZERO PUSH2 0x11E9 JUMPI DUP4 PUSH1 0x40 MLOAD PUSH1 0x20 ADD PUSH2 0xD97 SWAP2 SWAP1 PUSH2 0x3B6D JUMP JUMPDEST PUSH1 0x40 MLOAD PUSH1 0x20 DUP2 DUP4 SUB SUB DUP2 MSTORE SWAP1 PUSH1 0x40 MSTORE DUP1 MLOAD SWAP1 PUSH1 0x20 ADD KECCAK256 PUSH1 0x4 DUP3 DUP2 SLOAD DUP2 LT PUSH2 0xDC0 JUMPI PUSH2 0xDC0 PUSH2 0x3ABB JUMP JUMPDEST SWAP1 PUSH1 0x0 MSTORE PUSH1 0x20 PUSH1 0x0 KECCAK256 SWAP1 PUSH1 0x3 MUL ADD PUSH1 0x1 ADD PUSH1 0x40 MLOAD PUSH1 0x20 ADD PUSH2 0xDE1 SWAP2 SWAP1 PUSH2 0x3BFD JUMP JUMPDEST PUSH1 0x40 MLOAD PUSH1 0x20 DUP2 DUP4 SUB SUB DUP2 MSTORE SWAP1 PUSH1 0x40 MSTORE DUP1 MLOAD SWAP1 PUSH1 0x20 ADD KECCAK256 SUB PUSH2 0x11E1 JUMPI TIMESTAMP PUSH1 0x4 DUP3 DUP2 SLOAD DUP2 LT PUSH2 0xE10 JUMPI PUSH2 0xE10 PUSH2 0x3ABB JUMP JUMPDEST PUSH1 0x0 SWAP2 DUP3 MSTORE PUSH1 0x20 SWAP1 SWAP2 KECCAK256 PUSH1 0x3 SWAP1 SWAP2 MUL ADD PUSH1 0x2 ADD SLOAD PUSH1 0x1 PUSH1 0x50 SHL SWAP1 DIV PUSH5 0xFFFFFFFFFF AND GT DUP1 ISZERO SWAP1 PUSH2 0xE74 JUMPI POP PUSH1 0x4 DUP2 DUP2 SLOAD DUP2 LT PUSH2 0xE4E JUMPI PUSH2 0xE4E PUSH2 0x3ABB JUMP JUMPDEST PUSH1 0x0 SWAP2 DUP3 MSTORE PUSH1 0x20 SWAP1 SWAP2 KECCAK256 PUSH1 0x3 SWAP1 SWAP2 MUL ADD PUSH1 0x2 ADD SLOAD PUSH1 0x1 PUSH1 0x78 SHL SWAP1 DIV PUSH5 0xFFFFFFFFFF AND TIMESTAMP GT ISZERO JUMPDEST PUSH2 0xEB6 JUMPI PUSH1 0x40 MLOAD PUSH3 0x461BCD PUSH1 0xE5 SHL DUP2 MSTORE PUSH1 0x20 PUSH1 0x4 DUP3 ADD MSTORE PUSH1 0x13 PUSH1 0x24 DUP3 ADD MSTORE PUSH19 0x13DD5D1CDA5919481D1A5B59481C195C9A5BD9 PUSH1 0x6A SHL PUSH1 0x44 DUP3 ADD MSTORE PUSH1 0x64 ADD PUSH2 0xCD4 JUMP JUMPDEST PUSH1 0x0 PUSH1 0x40 MLOAD DUP1 PUSH2 0x140 ADD PUSH1 0x40 MSTORE DUP1 DUP7 DUP2 MSTORE PUSH1 0x20 ADD DUP5 PUSH5 0xFFFFFFFFFF AND DUP2 MSTORE PUSH1 0x20 ADD DUP6 DUP2 MSTORE PUSH1 0x20 ADD PUSH1 0x0 DUP1 SHL DUP2 MSTORE PUSH1 0x20 ADD PUSH1 0x4 DUP5 DUP2 SLOAD DUP2 LT PUSH2 0xEF9 JUMPI PUSH2 0xEF9 PUSH2 0x3ABB JUMP JUMPDEST SWAP1 PUSH1 0x0 MSTORE PUSH1 0x20 PUSH1 0x0 KECCAK256 SWAP1 PUSH1 0x3 MUL ADD PUSH1 0x2 ADD PUSH1 0x6 SWAP1 SLOAD SWAP1 PUSH2 0x100 EXP SWAP1 DIV PUSH1 0xFF AND PUSH1 0xFF AND DUP2 MSTORE PUSH1 0x20 ADD PUSH1 0x4 DUP5 DUP2 SLOAD DUP2 LT PUSH2 0xF33 JUMPI PUSH2 0xF33 PUSH2 0x3ABB JUMP JUMPDEST PUSH1 0x0 SWAP2 DUP3 MSTORE PUSH1 0x20 DUP1 DUP4 KECCAK256 PUSH1 0x3 SWAP3 SWAP1 SWAP3 MUL SWAP1 SWAP2 ADD PUSH1 0x2 ADD SLOAD PUSH1 0x1 PUSH1 0x38 SHL SWAP1 DIV PUSH3 0xFFFFFF AND DUP4 MSTORE DUP3 DUP2 ADD DUP3 SWAP1 MSTORE PUSH1 0x40 DUP1 DUP5 ADD DUP4 SWAP1 MSTORE PUSH1 0x60 DUP5 ADD DUP4 SWAP1 MSTORE PUSH1 0x80 SWAP1 SWAP4 ADD DUP3 SWAP1 MSTORE PUSH1 0xA SLOAD PUSH1 0x5 DUP1 SLOAD PUSH1 0x1 PUSH1 0x80 SHL SWAP1 DUP2 SWAP1 DIV PUSH1 0xF SIGNEXTEND DUP1 DUP7 MSTORE PUSH1 0x6 DUP6 MSTORE DUP7 DUP7 KECCAK256 DUP5 SWAP1 SSTORE DUP3 SLOAD PUSH1 0x1 PUSH1 0x1 PUSH1 0x80 SHL SUB SWAP1 DUP2 AND PUSH1 0x1 SWAP1 SWAP3 ADD AND SWAP1 SWAP2 MUL OR SWAP1 SSTORE DUP3 MSTORE PUSH1 0x9 SWAP1 MSTORE KECCAK256 DUP2 MLOAD SWAP2 SWAP3 POP DUP3 SWAP2 DUP2 SWAP1 PUSH2 0xFC8 SWAP1 DUP3 PUSH2 0x3C5F JUMP JUMPDEST POP PUSH1 0x20 DUP3 ADD MLOAD PUSH1 0x1 DUP3 DUP2 ADD DUP1 SLOAD PUSH5 0xFFFFFFFFFF NOT AND PUSH5 0xFFFFFFFFFF SWAP4 DUP5 AND OR SWAP1 SSTORE PUSH1 0x40 DUP5 ADD MLOAD PUSH1 0x2 DUP5 ADD SSTORE PUSH1 0x60 DUP5 ADD MLOAD PUSH1 0x3 DUP5 ADD SSTORE PUSH1 0x80 DUP5 ADD MLOAD PUSH1 0x4 SWAP1 SWAP4 ADD DUP1 SLOAD PUSH1 0xA0 DUP7 ADD MLOAD PUSH1 0xC0 DUP8 ADD MLOAD PUSH1 0xE0 DUP9 ADD MLOAD PUSH2 0x100 DUP1 DUP11 ADD MLOAD PUSH2 0x120 SWAP1 SWAP11 ADD MLOAD PUSH1 0xFF SWAP1 SWAP10 AND PUSH4 0xFFFFFFFF NOT SWAP1 SWAP6 AND SWAP5 SWAP1 SWAP5 OR PUSH3 0xFFFFFF SWAP1 SWAP4 AND SWAP1 SWAP4 MUL SWAP2 SWAP1 SWAP2 OR PUSH5 0x100000000 PUSH1 0x1 PUSH1 0x80 SHL SUB NOT AND PUSH1 0x1 PUSH1 0x20 SHL PUSH1 0x1 PUSH1 0x1 PUSH1 0x50 SHL SUB SWAP1 SWAP3 AND SWAP2 SWAP1 SWAP2 MUL PUSH2 0xFFFF PUSH1 0x70 SHL NOT AND OR PUSH1 0x1 PUSH1 0x70 SHL PUSH2 0xFFFF SWAP3 DUP4 AND MUL OR PUSH7 0xFFFFFFFFFFFFFF PUSH1 0x80 SHL NOT AND PUSH1 0x1 PUSH1 0x80 SHL SWAP2 SWAP1 SWAP7 AND MUL PUSH5 0xFFFFFFFFFF PUSH1 0x90 SHL NOT AND SWAP5 SWAP1 SWAP5 OR PUSH1 0x1 PUSH1 0x90 SHL SWAP4 SWAP1 SWAP3 AND SWAP3 SWAP1 SWAP3 MUL OR SWAP1 SWAP2 SSTORE PUSH1 0xA DUP1 SLOAD PUSH1 0x0 SWAP1 PUSH2 0x10C7 SWAP1 DUP5 SWAP1 PUSH2 0x3D34 JUMP JUMPDEST SWAP1 SWAP2 SSTORE POP PUSH2 0x10DA SWAP1 POP TIMESTAMP PUSH3 0x15180 PUSH2 0x3D34 JUMP JUMPDEST PUSH1 0x4 DUP4 DUP2 SLOAD DUP2 LT PUSH2 0x10ED JUMPI PUSH2 0x10ED PUSH2 0x3ABB JUMP JUMPDEST PUSH1 0x0 SWAP2 DUP3 MSTORE PUSH1 0x20 DUP1 DUP4 KECCAK256 PUSH5 0xFFFFFFFFFF DUP9 AND DUP5 MSTORE PUSH1 0x3 SWAP1 SWAP3 MUL SWAP1 SWAP2 ADD SWAP1 MSTORE PUSH1 0x40 SWAP1 KECCAK256 SSTORE PUSH1 0x4 DUP1 SLOAD PUSH1 0x1 SWAP2 SWAP1 DUP5 SWAP1 DUP2 LT PUSH2 0x1128 JUMPI PUSH2 0x1128 PUSH2 0x3ABB JUMP JUMPDEST SWAP1 PUSH1 0x0 MSTORE PUSH1 0x20 PUSH1 0x0 KECCAK256 SWAP1 PUSH1 0x3 MUL ADD PUSH1 0x2 ADD PUSH1 0x14 SWAP1 SLOAD SWAP1 PUSH2 0x100 EXP SWAP1 DIV PUSH2 0xFFFF AND PUSH2 0x1152 SWAP2 SWAP1 PUSH2 0x3D4C JUMP JUMPDEST PUSH1 0x4 DUP4 DUP2 SLOAD DUP2 LT PUSH2 0x1165 JUMPI PUSH2 0x1165 PUSH2 0x3ABB JUMP JUMPDEST SWAP1 PUSH1 0x0 MSTORE PUSH1 0x20 PUSH1 0x0 KECCAK256 SWAP1 PUSH1 0x3 MUL ADD PUSH1 0x2 ADD PUSH1 0x14 PUSH2 0x100 EXP DUP2 SLOAD DUP2 PUSH2 0xFFFF MUL NOT AND SWAP1 DUP4 PUSH2 0xFFFF AND MUL OR SWAP1 SSTORE POP PUSH32 0xBCC1EA15519F3ACFB49E91DE851E553B2C024B9AB85CEE8FFD8FE4E4E0A7876D DUP4 PUSH1 0x1 PUSH1 0xA SLOAD PUSH2 0x11C1 SWAP2 SWAP1 PUSH2 0x3D6F JUMP JUMPDEST DUP8 TIMESTAMP PUSH1 0x40 MLOAD PUSH2 0x11D3 SWAP5 SWAP4 SWAP3 SWAP2 SWAP1 PUSH2 0x3D86 JUMP JUMPDEST PUSH1 0x40 MLOAD DUP1 SWAP2 SUB SWAP1 LOG1 POP PUSH2 0x11E9 JUMP JUMPDEST PUSH1 0x1 ADD PUSH2 0xD7C JUMP JUMPDEST POP POP POP POP JUMP JUMPDEST PUSH1 0x0 PUSH1 0x8 SLOAD DUP3 LT PUSH2 0x1235 JUMPI PUSH1 0x40 MLOAD PUSH3 0x461BCD PUSH1 0xE5 SHL DUP2 MSTORE PUSH1 0x20 PUSH1 0x4 DUP3 ADD MSTORE PUSH1 0x10 PUSH1 0x24 DUP3 ADD MSTORE PUSH16 0x1B9BC81CDD58DA081C1C9BDC1BDCD85B PUSH1 0x82 SHL PUSH1 0x44 DUP3 ADD MSTORE PUSH1 0x64 ADD PUSH2 0xCD4 JUMP JUMPDEST PUSH1 0x0 DUP3 DUP2 MSTORE PUSH1 0x7 PUSH1 0x20 MSTORE PUSH1 0x40 SWAP1 KECCAK256 PUSH1 0x3 ADD SLOAD PUSH1 0x1 PUSH1 0x50 SHL SWAP1 DIV PUSH5 0xFFFFFFFFFF AND TIMESTAMP GT PUSH2 0x1299 JUMPI PUSH1 0x40 MLOAD PUSH3 0x461BCD PUSH1 0xE5 SHL DUP2 MSTORE PUSH1 0x20 PUSH1 0x4 DUP3 ADD MSTORE PUSH1 0x13 PUSH1 0x24 DUP3 ADD MSTORE PUSH19 0x766F74696E67207374696C6C20616374697665 PUSH1 0x68 SHL PUSH1 0x44 DUP3 ADD MSTORE PUSH1 0x64 ADD PUSH2 0xCD4 JUMP JUMPDEST PUSH1 0x0 DUP1 PUSH1 0x0 DUP1 JUMPDEST PUSH1 0x0 DUP7 DUP2 MSTORE PUSH1 0x7 PUSH1 0x20 MSTORE PUSH1 0x40 SWAP1 KECCAK256 PUSH1 0x1 ADD SLOAD PUSH2 0xFFFF AND DUP2 LT ISZERO PUSH2 0x13BA JUMPI PUSH1 0x0 DUP7 DUP2 MSTORE PUSH1 0x7 PUSH1 0x20 MSTORE PUSH1 0x40 SWAP1 KECCAK256 DUP4 SWAP1 PUSH1 0x2 ADD DUP3 PUSH1 0x8 DUP2 LT PUSH2 0x12E1 JUMPI PUSH2 0x12E1 PUSH2 0x3ABB JUMP JUMPDEST PUSH1 0x10 SWAP2 DUP3 DUP3 DIV ADD SWAP2 SWAP1 MOD PUSH1 0x2 MUL SWAP1 SLOAD SWAP1 PUSH2 0x100 EXP SWAP1 DIV PUSH2 0xFFFF AND PUSH2 0xFFFF AND GT ISZERO PUSH2 0x135C JUMPI PUSH1 0x0 DUP7 DUP2 MSTORE PUSH1 0x7 PUSH1 0x20 MSTORE PUSH1 0x40 SWAP1 KECCAK256 PUSH1 0x2 ADD DUP2 PUSH1 0x8 DUP2 LT PUSH2 0x1327 JUMPI PUSH2 0x1327 PUSH2 0x3ABB JUMP JUMPDEST PUSH1 0x10 SWAP2 DUP3 DUP3 DIV ADD SWAP2 SWAP1 MOD PUSH1 0x2 MUL SWAP1 SLOAD SWAP1 PUSH2 0x100 EXP SWAP1 DIV PUSH2 0xFFFF AND PUSH2 0xFFFF AND SWAP3 POP DUP1 SWAP4 POP DUP2 PUSH1 0x1 SUB PUSH2 0x1357 JUMPI PUSH1 0x0 SWAP2 POP JUMPDEST PUSH2 0x13A8 JUMP JUMPDEST PUSH1 0x0 DUP7 DUP2 MSTORE PUSH1 0x7 PUSH1 0x20 MSTORE PUSH1 0x40 SWAP1 KECCAK256 DUP4 SWAP1 PUSH1 0x2 ADD DUP3 PUSH1 0x8 DUP2 LT PUSH2 0x1380 JUMPI PUSH2 0x1380 PUSH2 0x3ABB JUMP JUMPDEST PUSH1 0x10 SWAP2 DUP3 DUP3 DIV ADD SWAP2 SWAP1 MOD PUSH1 0x2 MUL SWAP1 SLOAD SWAP1 PUSH2 0x100 EXP SWAP1 DIV PUSH2 0xFFFF AND PUSH2 0xFFFF AND SUB PUSH2 0x13A8 JUMPI PUSH1 0x1 SWAP2 POP JUMPDEST DUP1 PUSH2 0x13B2 DUP2 PUSH2 0x3DBD JUMP JUMPDEST SWAP2 POP POP PUSH2 0x12A0 JUMP JUMPDEST POP DUP1 ISZERO PUSH2 0x13FC JUMPI PUSH1 0x40 MLOAD PUSH3 0x461BCD PUSH1 0xE5 SHL DUP2 MSTORE PUSH1 0x20 PUSH1 0x4 DUP3 ADD MSTORE PUSH1 0x10 PUSH1 0x24 DUP3 ADD MSTORE PUSH16 0x3A3432B932903BB0B99030903A34B297 PUSH1 0x81 SHL PUSH1 0x44 DUP3 ADD MSTORE PUSH1 0x64 ADD PUSH2 0xCD4 JUMP JUMPDEST POP SWAP1 SWAP4 SWAP3 POP POP POP JUMP JUMPDEST PUSH1 0x40 MLOAD PUSH3 0x461BCD PUSH1 0xE5 SHL DUP2 MSTORE PUSH1 0x20 PUSH1 0x4 DUP3 ADD MSTORE PUSH1 0xE PUSH1 0x24 DUP3 ADD MSTORE PUSH14 0x26BAB9BA1031329036B2B6B132B9 PUSH1 0x91 SHL PUSH1 0x44 DUP3 ADD MSTORE PUSH1 0x64 ADD PUSH2 0xCD4 JUMP JUMPDEST PUSH1 0x9 PUSH1 0x20 MSTORE PUSH1 0x0 SWAP1 DUP2 MSTORE PUSH1 0x40 SWAP1 KECCAK256 DUP1 SLOAD DUP2 SWAP1 PUSH2 0x1459 SWAP1 PUSH2 0x3A81 JUMP JUMPDEST DUP1 PUSH1 0x1F ADD PUSH1 0x20 DUP1 SWAP2 DIV MUL PUSH1 0x20 ADD PUSH1 0x40 MLOAD SWAP1 DUP2 ADD PUSH1 0x40 MSTORE DUP1 SWAP3 SWAP2 SWAP1 DUP2 DUP2 MSTORE PUSH1 0x20 ADD DUP3 DUP1 SLOAD PUSH2 0x1485 SWAP1 PUSH2 0x3A81 JUMP JUMPDEST DUP1 ISZERO PUSH2 0x14D2 JUMPI DUP1 PUSH1 0x1F LT PUSH2 0x14A7 JUMPI PUSH2 0x100 DUP1 DUP4 SLOAD DIV MUL DUP4 MSTORE SWAP2 PUSH1 0x20 ADD SWAP2 PUSH2 0x14D2 JUMP JUMPDEST DUP3 ADD SWAP2 SWAP1 PUSH1 0x0 MSTORE PUSH1 0x20 PUSH1 0x0 KECCAK256 SWAP1 JUMPDEST DUP2 SLOAD DUP2 MSTORE SWAP1 PUSH1 0x1 ADD SWAP1 PUSH1 0x20 ADD DUP1 DUP4 GT PUSH2 0x14B5 JUMPI DUP3 SWAP1 SUB PUSH1 0x1F AND DUP3 ADD SWAP2 JUMPDEST POP POP POP PUSH1 0x1 DUP5 ADD SLOAD PUSH1 0x2 DUP6 ADD SLOAD PUSH1 0x3 DUP7 ADD SLOAD PUSH1 0x4 SWAP1 SWAP7 ADD SLOAD SWAP5 SWAP6 PUSH5 0xFFFFFFFFFF SWAP3 DUP4 AND SWAP6 SWAP2 SWAP5 POP SWAP3 POP PUSH1 0xFF DUP2 AND SWAP2 PUSH3 0xFFFFFF PUSH2 0x100 DUP4 DIV AND SWAP2 PUSH1 0x1 PUSH1 0x1 PUSH1 0x50 SHL SUB PUSH1 0x1 PUSH1 0x20 SHL DUP3 DIV AND SWAP2 PUSH2 0xFFFF PUSH1 0x1 PUSH1 0x70 SHL DUP4 DIV DUP2 AND SWAP3 PUSH1 0x1 PUSH1 0x80 SHL DUP2 DIV SWAP1 SWAP2 AND SWAP2 PUSH1 0x1 PUSH1 0x90 SHL SWAP1 SWAP2 DIV AND DUP11 JUMP JUMPDEST PUSH2 0x1548 PUSH2 0x319C JUMP JUMPDEST PUSH1 0x0 DUP3 DUP2 MSTORE PUSH1 0x9 PUSH1 0x20 MSTORE PUSH1 0x40 SWAP1 DUP2 SWAP1 KECCAK256 DUP2 MLOAD PUSH2 0x140 DUP2 ADD SWAP1 SWAP3 MSTORE DUP1 SLOAD DUP3 SWAP1 DUP3 SWAP1 PUSH2 0x1571 SWAP1 PUSH2 0x3A81 JUMP JUMPDEST DUP1 PUSH1 0x1F ADD PUSH1 0x20 DUP1 SWAP2 DIV MUL PUSH1 0x20 ADD PUSH1 0x40 MLOAD SWAP1 DUP2 ADD PUSH1 0x40 MSTORE DUP1 SWAP3 SWAP2 SWAP1 DUP2 DUP2 MSTORE PUSH1 0x20 ADD DUP3 DUP1 SLOAD PUSH2 0x159D SWAP1 PUSH2 0x3A81 JUMP JUMPDEST DUP1 ISZERO PUSH2 0x15EA JUMPI DUP1 PUSH1 0x1F LT PUSH2 0x15BF JUMPI PUSH2 0x100 DUP1 DUP4 SLOAD DIV MUL DUP4 MSTORE SWAP2 PUSH1 0x20 ADD SWAP2 PUSH2 0x15EA JUMP JUMPDEST DUP3 ADD SWAP2 SWAP1 PUSH1 0x0 MSTORE PUSH1 0x20 PUSH1 0x0 KECCAK256 SWAP1 JUMPDEST DUP2 SLOAD DUP2 MSTORE SWAP1 PUSH1 0x1 ADD SWAP1 PUSH1 0x20 ADD DUP1 DUP4 GT PUSH2 0x15CD JUMPI DUP3 SWAP1 SUB PUSH1 0x1F AND DUP3 ADD SWAP2 JUMPDEST POP POP POP SWAP2 DUP4 MSTORE POP POP PUSH1 0x1 DUP3 ADD SLOAD PUSH5 0xFFFFFFFFFF SWAP1 DUP2 AND PUSH1 0x20 DUP4 ADD MSTORE PUSH1 0x2 DUP4 ADD SLOAD PUSH1 0x40 DUP4 ADD MSTORE PUSH1 0x3 DUP4 ADD SLOAD PUSH1 0x60 DUP4 ADD MSTORE PUSH1 0x4 SWAP1 SWAP3 ADD SLOAD PUSH1 0xFF DUP2 AND PUSH1 0x80 DUP4 ADD MSTORE PUSH2 0x100 DUP1 DUP3 DIV PUSH3 0xFFFFFF AND PUSH1 0xA0 DUP5 ADD MSTORE PUSH1 0x1 PUSH1 0x20 SHL DUP3 DIV PUSH1 0x1 PUSH1 0x1 PUSH1 0x50 SHL SUB AND PUSH1 0xC0 DUP5 ADD MSTORE PUSH1 0x1 PUSH1 0x70 SHL DUP3 DIV PUSH2 0xFFFF SWAP1 DUP2 AND PUSH1 0xE0 DUP6 ADD MSTORE PUSH1 0x1 PUSH1 0x80 SHL DUP4 DIV AND SWAP1 DUP4 ADD MSTORE PUSH1 0x1 PUSH1 0x90 SHL SWAP1 DIV SWAP1 SWAP2 AND PUSH2 0x120 SWAP1 SWAP2 ADD MSTORE SWAP3 SWAP2 POP POP JUMP JUMPDEST PUSH1 0x60 PUSH1 0x0 DUP1 JUMPDEST PUSH1 0x4 SLOAD DUP2 LT ISZERO PUSH2 0x179A JUMPI TIMESTAMP PUSH1 0x4 DUP3 DUP2 SLOAD DUP2 LT PUSH2 0x16A6 JUMPI PUSH2 0x16A6 PUSH2 0x3ABB JUMP JUMPDEST PUSH1 0x0 SWAP2 DUP3 MSTORE PUSH1 0x20 DUP1 DUP4 KECCAK256 PUSH5 0xFFFFFFFFFF DUP10 AND DUP5 MSTORE PUSH1 0x3 SWAP1 SWAP3 MUL SWAP1 SWAP2 ADD SWAP1 MSTORE PUSH1 0x40 SWAP1 KECCAK256 SLOAD LT DUP1 ISZERO PUSH2 0x170A JUMPI POP TIMESTAMP PUSH1 0x4 DUP3 DUP2 SLOAD DUP2 LT PUSH2 0x16E5 JUMPI PUSH2 0x16E5 PUSH2 0x3ABB JUMP JUMPDEST PUSH1 0x0 SWAP2 DUP3 MSTORE PUSH1 0x20 SWAP1 SWAP2 KECCAK256 PUSH1 0x3 SWAP1 SWAP2 MUL ADD PUSH1 0x2 ADD SLOAD PUSH1 0x1 PUSH1 0x50 SHL SWAP1 DIV PUSH5 0xFFFFFFFFFF AND GT ISZERO JUMPDEST DUP1 ISZERO PUSH2 0x1749 JUMPI POP TIMESTAMP PUSH1 0x4 DUP3 DUP2 SLOAD DUP2 LT PUSH2 0x1725 JUMPI PUSH2 0x1725 PUSH2 0x3ABB JUMP JUMPDEST PUSH1 0x0 SWAP2 DUP3 MSTORE PUSH1 0x20 SWAP1 SWAP2 KECCAK256 PUSH1 0x3 SWAP1 SWAP2 MUL ADD PUSH1 0x2 ADD SLOAD PUSH1 0x1 PUSH1 0x78 SHL SWAP1 DIV PUSH5 0xFFFFFFFFFF AND GT JUMPDEST DUP1 ISZERO PUSH2 0x1786 JUMPI POP PUSH1 0x1 PUSH1 0x4 DUP3 DUP2 SLOAD DUP2 LT PUSH2 0x1765 JUMPI PUSH2 0x1765 PUSH2 0x3ABB JUMP JUMPDEST PUSH1 0x0 SWAP2 DUP3 MSTORE PUSH1 0x20 SWAP1 SWAP2 KECCAK256 PUSH1 0x3 SWAP1 SWAP2 MUL ADD PUSH1 0x2 ADD SLOAD PUSH1 0x1 PUSH1 0xA0 SHL SWAP1 DIV PUSH2 0xFFFF AND GT JUMPDEST ISZERO PUSH2 0x1792 JUMPI DUP2 PUSH1 0x1 ADD SWAP2 POP JUMPDEST PUSH1 0x1 ADD PUSH2 0x1688 JUMP JUMPDEST POP DUP1 PUSH1 0x0 SUB PUSH2 0x1806 JUMPI PUSH1 0x40 DUP1 MLOAD PUSH1 0x1 DUP1 DUP3 MSTORE DUP2 DUP4 ADD SWAP1 SWAP3 MSTORE PUSH1 0x0 SWAP2 DUP2 PUSH1 0x20 ADD JUMPDEST PUSH1 0x60 DUP2 MSTORE PUSH1 0x20 ADD SWAP1 PUSH1 0x1 SWAP1 SUB SWAP1 DUP2 PUSH2 0x17BA JUMPI SWAP1 POP POP SWAP1 POP PUSH1 0x40 MLOAD DUP1 PUSH1 0x20 ADD PUSH1 0x40 MSTORE DUP1 PUSH1 0x0 DUP2 MSTORE POP DUP2 PUSH1 0x0 DUP2 MLOAD DUP2 LT PUSH2 0x17F4 JUMPI PUSH2 0x17F4 PUSH2 0x3ABB JUMP JUMPDEST PUSH1 0x20 SWAP1 DUP2 MUL SWAP2 SWAP1 SWAP2 ADD ADD MSTORE SWAP4 SWAP3 POP POP POP JUMP JUMPDEST PUSH1 0x0 DUP2 PUSH1 0x1 PUSH1 0x1 PUSH1 0x40 SHL SUB DUP2 GT ISZERO PUSH2 0x1820 JUMPI PUSH2 0x1820 PUSH2 0x32EF JUMP JUMPDEST PUSH1 0x40 MLOAD SWAP1 DUP1 DUP3 MSTORE DUP1 PUSH1 0x20 MUL PUSH1 0x20 ADD DUP3 ADD PUSH1 0x40 MSTORE DUP1 ISZERO PUSH2 0x1853 JUMPI DUP2 PUSH1 0x20 ADD JUMPDEST PUSH1 0x60 DUP2 MSTORE PUSH1 0x20 ADD SWAP1 PUSH1 0x1 SWAP1 SUB SWAP1 DUP2 PUSH2 0x183E JUMPI SWAP1 POP JUMPDEST POP SWAP1 POP PUSH1 0x0 DUP1 JUMPDEST PUSH1 0x4 SLOAD DUP2 LT ISZERO PUSH2 0x1A3E JUMPI TIMESTAMP PUSH1 0x4 DUP3 DUP2 SLOAD DUP2 LT PUSH2 0x1878 JUMPI PUSH2 0x1878 PUSH2 0x3ABB JUMP JUMPDEST PUSH1 0x0 SWAP2 DUP3 MSTORE PUSH1 0x20 DUP1 DUP4 KECCAK256 PUSH5 0xFFFFFFFFFF DUP12 AND DUP5 MSTORE PUSH1 0x3 SWAP1 SWAP3 MUL SWAP1 SWAP2 ADD SWAP1 MSTORE PUSH1 0x40 SWAP1 KECCAK256 SLOAD LT DUP1 ISZERO PUSH2 0x18DC JUMPI POP TIMESTAMP PUSH1 0x4 DUP3 DUP2 SLOAD DUP2 LT PUSH2 0x18B7 JUMPI PUSH2 0x18B7 PUSH2 0x3ABB JUMP JUMPDEST PUSH1 0x0 SWAP2 DUP3 MSTORE PUSH1 0x20 SWAP1 SWAP2 KECCAK256 PUSH1 0x3 SWAP1 SWAP2 MUL ADD PUSH1 0x2 ADD SLOAD PUSH1 0x1 PUSH1 0x50 SHL SWAP1 DIV PUSH5 0xFFFFFFFFFF AND GT ISZERO JUMPDEST DUP1 ISZERO PUSH2 0x191B JUMPI POP TIMESTAMP PUSH1 0x4 DUP3 DUP2 SLOAD DUP2 LT PUSH2 0x18F7 JUMPI PUSH2 0x18F7 PUSH2 0x3ABB JUMP JUMPDEST PUSH1 0x0 SWAP2 DUP3 MSTORE PUSH1 0x20 SWAP1 SWAP2 KECCAK256 PUSH1 0x3 SWAP1 SWAP2 MUL ADD PUSH1 0x2 ADD SLOAD PUSH1 0x1 PUSH1 0x78 SHL SWAP1 DIV PUSH5 0xFFFFFFFFFF AND GT JUMPDEST DUP1 ISZERO PUSH2 0x1958 JUMPI POP PUSH1 0x1 PUSH1 0x4 DUP3 DUP2 SLOAD DUP2 LT PUSH2 0x1937 JUMPI PUSH2 0x1937 PUSH2 0x3ABB JUMP JUMPDEST PUSH1 0x0 SWAP2 DUP3 MSTORE PUSH1 0x20 SWAP1 SWAP2 KECCAK256 PUSH1 0x3 SWAP1 SWAP2 MUL ADD PUSH1 0x2 ADD SLOAD PUSH1 0x1 PUSH1 0xA0 SHL SWAP1 DIV PUSH2 0xFFFF AND GT JUMPDEST ISZERO PUSH2 0x1A36 JUMPI PUSH1 0x4 DUP2 DUP2 SLOAD DUP2 LT PUSH2 0x1970 JUMPI PUSH2 0x1970 PUSH2 0x3ABB JUMP JUMPDEST SWAP1 PUSH1 0x0 MSTORE PUSH1 0x20 PUSH1 0x0 KECCAK256 SWAP1 PUSH1 0x3 MUL ADD PUSH1 0x1 ADD DUP1 SLOAD PUSH2 0x198C SWAP1 PUSH2 0x3A81 JUMP JUMPDEST DUP1 PUSH1 0x1F ADD PUSH1 0x20 DUP1 SWAP2 DIV MUL PUSH1 0x20 ADD PUSH1 0x40 MLOAD SWAP1 DUP2 ADD PUSH1 0x40 MSTORE DUP1 SWAP3 SWAP2 SWAP1 DUP2 DUP2 MSTORE PUSH1 0x20 ADD DUP3 DUP1 SLOAD PUSH2 0x19B8 SWAP1 PUSH2 0x3A81 JUMP JUMPDEST DUP1 ISZERO PUSH2 0x1A05 JUMPI DUP1 PUSH1 0x1F LT PUSH2 0x19DA JUMPI PUSH2 0x100 DUP1 DUP4 SLOAD DIV MUL DUP4 MSTORE SWAP2 PUSH1 0x20 ADD SWAP2 PUSH2 0x1A05 JUMP JUMPDEST DUP3 ADD SWAP2 SWAP1 PUSH1 0x0 MSTORE PUSH1 0x20 PUSH1 0x0 KECCAK256 SWAP1 JUMPDEST DUP2 SLOAD DUP2 MSTORE SWAP1 PUSH1 0x1 ADD SWAP1 PUSH1 0x20 ADD DUP1 DUP4 GT PUSH2 0x19E8 JUMPI DUP3 SWAP1 SUB PUSH1 0x1F AND DUP3 ADD SWAP2 JUMPDEST POP POP POP POP POP DUP4 DUP4 DUP2 MLOAD DUP2 LT PUSH2 0x1A1C JUMPI PUSH2 0x1A1C PUSH2 0x3ABB JUMP JUMPDEST PUSH1 0x20 MUL PUSH1 0x20 ADD ADD DUP2 SWAP1 MSTORE POP DUP2 PUSH1 0x1 ADD SWAP2 POP DUP4 DUP3 LT ISZERO PUSH2 0x1A3E JUMPI JUMPDEST PUSH1 0x1 ADD PUSH2 0x185A JUMP JUMPDEST POP SWAP1 SWAP5 SWAP4 POP POP POP POP JUMP JUMPDEST PUSH1 0x1 DUP6 PUSH2 0xFFFF AND GT DUP1 ISZERO PUSH2 0x1A61 JUMPI POP PUSH2 0x101 DUP6 PUSH2 0xFFFF AND LT JUMPDEST PUSH2 0x1AAD JUMPI PUSH1 0x40 MLOAD PUSH3 0x461BCD PUSH1 0xE5 SHL DUP2 MSTORE PUSH1 0x20 PUSH1 0x4 DUP3 ADD MSTORE PUSH1 0x19 PUSH1 0x24 DUP3 ADD MSTORE PUSH32 0x696E76616C6964206E756D626572206F66206F7074696F6E7300000000000000 PUSH1 0x44 DUP3 ADD MSTORE PUSH1 0x64 ADD PUSH2 0xCD4 JUMP JUMPDEST PUSH1 0x1 PUSH1 0x8 PUSH1 0x0 DUP3 DUP3 SLOAD PUSH2 0x1AC0 SWAP2 SWAP1 PUSH2 0x3D34 JUMP JUMPDEST SWAP1 SWAP2 SSTORE POP POP PUSH1 0x8 SLOAD PUSH1 0x0 SWAP1 DUP2 MSTORE PUSH1 0x7 PUSH1 0x20 MSTORE PUSH1 0x40 SWAP1 KECCAK256 PUSH1 0x3 DUP2 ADD DUP1 SLOAD PUSH15 0xFFFFFFFFFFFFFFFFFFFF0000000000 NOT AND PUSH6 0x10000000000 PUSH5 0xFFFFFFFFFF DUP8 DUP2 AND SWAP2 SWAP1 SWAP2 MUL PUSH5 0xFFFFFFFFFF PUSH1 0x50 SHL NOT AND SWAP2 SWAP1 SWAP2 OR PUSH1 0x1 PUSH1 0x50 SHL SWAP2 DUP7 AND SWAP2 SWAP1 SWAP2 MUL OR SWAP1 SSTORE PUSH1 0x1 DUP2 ADD DUP1 SLOAD PUSH2 0xFFFF NOT AND PUSH2 0xFFFF DUP9 AND OR SWAP1 SSTORE DUP1 PUSH2 0x1B3F DUP9 DUP11 DUP4 PUSH2 0x3DF3 JUMP JUMPDEST POP PUSH2 0x1B53 DUP9 DUP9 PUSH1 0x8 SLOAD PUSH1 0x0 DUP10 DUP10 DUP10 DUP10 PUSH2 0x2E4F JUMP JUMPDEST POP POP POP POP POP POP POP POP JUMP JUMPDEST PUSH1 0x0 PUSH2 0x1B78 PUSH1 0x5 SLOAD PUSH1 0xF DUP2 DUP2 SIGNEXTEND PUSH1 0x1 PUSH1 0x80 SHL SWAP1 SWAP3 DIV SWAP1 SIGNEXTEND SUB SWAP1 JUMP JUMPDEST SWAP1 POP PUSH2 0x1B82 PUSH2 0x319C JUMP JUMPDEST PUSH1 0x0 DUP1 JUMPDEST DUP4 DUP2 LT ISZERO PUSH2 0x1E8D JUMPI PUSH2 0x1B99 PUSH1 0x5 DUP3 PUSH2 0x2DDE JUMP JUMPDEST PUSH1 0x0 DUP2 DUP2 MSTORE PUSH1 0x9 PUSH1 0x20 MSTORE PUSH1 0x40 SWAP1 DUP2 SWAP1 KECCAK256 DUP2 MLOAD PUSH2 0x140 DUP2 ADD SWAP1 SWAP3 MSTORE DUP1 SLOAD SWAP3 SWAP5 POP SWAP1 SWAP2 DUP3 SWAP1 DUP3 SWAP1 PUSH2 0x1BC7 SWAP1 PUSH2 0x3A81 JUMP JUMPDEST DUP1 PUSH1 0x1F ADD PUSH1 0x20 DUP1 SWAP2 DIV MUL PUSH1 0x20 ADD PUSH1 0x40 MLOAD SWAP1 DUP2 ADD PUSH1 0x40 MSTORE DUP1 SWAP3 SWAP2 SWAP1 DUP2 DUP2 MSTORE PUSH1 0x20 ADD DUP3 DUP1 SLOAD PUSH2 0x1BF3 SWAP1 PUSH2 0x3A81 JUMP JUMPDEST DUP1 ISZERO PUSH2 0x1C40 JUMPI DUP1 PUSH1 0x1F LT PUSH2 0x1C15 JUMPI PUSH2 0x100 DUP1 DUP4 SLOAD DIV MUL DUP4 MSTORE SWAP2 PUSH1 0x20 ADD SWAP2 PUSH2 0x1C40 JUMP JUMPDEST DUP3 ADD SWAP2 SWAP1 PUSH1 0x0 MSTORE PUSH1 0x20 PUSH1 0x0 KECCAK256 SWAP1 JUMPDEST DUP2 SLOAD DUP2 MSTORE SWAP1 PUSH1 0x1 ADD SWAP1 PUSH1 0x20 ADD DUP1 DUP4 GT PUSH2 0x1C23 JUMPI DUP3 SWAP1 SUB PUSH1 0x1F AND DUP3 ADD SWAP2 JUMPDEST POP POP POP SWAP2 DUP4 MSTORE POP POP PUSH1 0x1 DUP3 ADD SLOAD PUSH5 0xFFFFFFFFFF SWAP1 DUP2 AND PUSH1 0x20 DUP4 ADD MSTORE PUSH1 0x2 DUP4 ADD SLOAD PUSH1 0x40 DUP4 ADD MSTORE PUSH1 0x3 DUP4 ADD SLOAD PUSH1 0x60 DUP4 ADD MSTORE PUSH1 0x4 SWAP1 SWAP3 ADD SLOAD PUSH1 0xFF DUP2 AND PUSH1 0x80 DUP4 ADD MSTORE PUSH2 0x100 DUP1 DUP3 DIV PUSH3 0xFFFFFF AND PUSH1 0xA0 DUP5 ADD MSTORE PUSH1 0x1 PUSH1 0x20 SHL DUP3 DIV PUSH1 0x1 PUSH1 0x1 PUSH1 0x50 SHL SUB AND PUSH1 0xC0 DUP5 ADD MSTORE PUSH1 0x1 PUSH1 0x70 SHL DUP3 DIV PUSH2 0xFFFF SWAP1 DUP2 AND PUSH1 0xE0 DUP6 ADD MSTORE PUSH1 0x1 PUSH1 0x80 SHL DUP4 DIV AND SWAP1 DUP4 ADD MSTORE PUSH1 0x1 PUSH1 0x90 SHL SWAP1 DIV DUP3 AND PUSH2 0x120 SWAP2 DUP3 ADD MSTORE DUP3 ADD MLOAD SWAP2 SWAP5 POP TIMESTAMP SWAP2 AND LT DUP1 ISZERO PUSH2 0x1CF2 JUMPI POP DUP5 DUP4 PUSH1 0x20 ADD MLOAD PUSH5 0xFFFFFFFFFF AND EQ ISZERO JUMPDEST DUP1 ISZERO PUSH2 0x1D07 JUMPI POP DUP5 DUP4 PUSH2 0x100 ADD MLOAD PUSH2 0xFFFF AND EQ ISZERO JUMPDEST ISZERO PUSH2 0x1E85 JUMPI PUSH2 0xFFFF DUP6 AND PUSH1 0xE0 DUP5 ADD MSTORE PUSH1 0xB SLOAD PUSH2 0x1D23 SWAP1 TIMESTAMP PUSH2 0x3D34 JUMP JUMPDEST PUSH5 0xFFFFFFFFFF AND PUSH2 0x120 DUP5 ADD MSTORE PUSH1 0x0 DUP3 DUP2 MSTORE PUSH1 0x9 PUSH1 0x20 MSTORE PUSH1 0x40 SWAP1 KECCAK256 DUP4 MLOAD DUP5 SWAP2 SWAP1 DUP2 SWAP1 PUSH2 0x1D4F SWAP1 DUP3 PUSH2 0x3C5F JUMP JUMPDEST POP PUSH1 0x20 DUP3 DUP2 ADD MLOAD PUSH1 0x1 DUP4 ADD DUP1 SLOAD PUSH5 0xFFFFFFFFFF NOT AND PUSH5 0xFFFFFFFFFF SWAP3 DUP4 AND OR SWAP1 SSTORE PUSH1 0x40 DUP1 DUP6 ADD MLOAD PUSH1 0x2 DUP6 ADD SSTORE PUSH1 0x60 DUP6 ADD MLOAD PUSH1 0x3 DUP6 ADD SSTORE PUSH1 0x80 DUP6 ADD MLOAD PUSH1 0x4 SWAP1 SWAP5 ADD DUP1 SLOAD PUSH1 0xA0 DUP8 ADD MLOAD PUSH1 0xC0 DUP9 ADD MLOAD PUSH1 0xE0 DUP10 ADD MLOAD PUSH2 0x100 DUP1 DUP12 ADD MLOAD PUSH2 0x120 SWAP1 SWAP12 ADD MLOAD PUSH1 0xFF SWAP1 SWAP11 AND PUSH4 0xFFFFFFFF NOT SWAP1 SWAP6 AND SWAP5 SWAP1 SWAP5 OR PUSH3 0xFFFFFF SWAP1 SWAP4 AND SWAP1 SWAP4 MUL SWAP2 SWAP1 SWAP2 OR PUSH5 0x100000000 PUSH1 0x1 PUSH1 0x80 SHL SUB NOT AND PUSH1 0x1 PUSH1 0x20 SHL PUSH1 0x1 PUSH1 0x1 PUSH1 0x50 SHL SUB SWAP1 SWAP3 AND SWAP2 SWAP1 SWAP2 MUL PUSH2 0xFFFF PUSH1 0x70 SHL NOT AND OR PUSH1 0x1 PUSH1 0x70 SHL PUSH2 0xFFFF SWAP3 DUP4 AND MUL OR PUSH7 0xFFFFFFFFFFFFFF PUSH1 0x80 SHL NOT AND PUSH1 0x1 PUSH1 0x80 SHL SWAP2 SWAP1 SWAP8 AND MUL PUSH5 0xFFFFFFFFFF PUSH1 0x90 SHL NOT AND SWAP6 SWAP1 SWAP6 OR PUSH1 0x1 PUSH1 0x90 SHL SWAP5 SWAP1 SWAP3 AND SWAP4 SWAP1 SWAP4 MUL OR SWAP1 SWAP3 SSTORE PUSH1 0x0 DUP5 DUP2 MSTORE PUSH1 0x9 SWAP1 SWAP3 MSTORE SWAP1 DUP2 SWAP1 KECCAK256 SWAP1 MLOAD PUSH32 0xF20A22B1AA6D8BA4BF99C845FB1F02F4879BA83155BDE0F82F49CB58675DF268 SWAP2 PUSH2 0x1E7C SWAP2 DUP9 SWAP2 DUP7 SWAP2 PUSH2 0x3EB2 JUMP JUMPDEST PUSH1 0x40 MLOAD DUP1 SWAP2 SUB SWAP1 LOG1 JUMPDEST PUSH1 0x1 ADD PUSH2 0x1B86 JUMP JUMPDEST POP POP POP POP POP JUMP JUMPDEST PUSH1 0x2 SLOAD PUSH1 0x40 MLOAD PUSH4 0x31A9108F PUSH1 0xE1 SHL DUP2 MSTORE PUSH1 0x4 DUP2 ADD DUP6 SWAP1 MSTORE CALLER SWAP2 PUSH1 0x1 PUSH1 0x1 PUSH1 0xA0 SHL SUB AND SWAP1 PUSH4 0x6352211E SWAP1 PUSH1 0x24 ADD PUSH1 0x20 PUSH1 0x40 MLOAD DUP1 DUP4 SUB DUP2 DUP7 GAS STATICCALL ISZERO DUP1 ISZERO PUSH2 0x1EDD JUMPI RETURNDATASIZE PUSH1 0x0 DUP1 RETURNDATACOPY RETURNDATASIZE PUSH1 0x0 REVERT JUMPDEST POP POP POP POP PUSH1 0x40 MLOAD RETURNDATASIZE PUSH1 0x1F NOT PUSH1 0x1F DUP3 ADD AND DUP3 ADD DUP1 PUSH1 0x40 MSTORE POP DUP2 ADD SWAP1 PUSH2 0x1F01 SWAP2 SWAP1 PUSH2 0x3DD6 JUMP JUMPDEST PUSH1 0x1 PUSH1 0x1 PUSH1 0xA0 SHL SUB AND EQ DUP1 ISZERO PUSH2 0x1F32 JUMPI POP PUSH1 0x0 DUP3 DUP2 MSTORE PUSH1 0x9 PUSH1 0x20 MSTORE PUSH1 0x40 SWAP1 KECCAK256 PUSH1 0x4 ADD SLOAD PUSH1 0x1 PUSH1 0x70 SHL SWAP1 DIV PUSH2 0xFFFF AND DUP4 EQ JUMPDEST PUSH2 0x1F7E JUMPI PUSH1 0x40 MLOAD PUSH3 0x461BCD PUSH1 0xE5 SHL DUP2 MSTORE PUSH1 0x20 PUSH1 0x4 DUP3 ADD DUP2 SWAP1 MSTORE PUSH1 0x24 DUP3 ADD MSTORE PUSH32 0x4D757374206265206F776E6572206F662061737369676E65642077697A617264 PUSH1 0x44 DUP3 ADD MSTORE PUSH1 0x64 ADD PUSH2 0xCD4 JUMP JUMPDEST PUSH1 0x0 DUP2 MLOAD GT PUSH2 0x1F8C JUMPI PUSH1 0x0 DUP1 REVERT JUMPDEST PUSH1 0x0 DUP3 DUP2 MSTORE PUSH1 0x9 PUSH1 0x20 MSTORE PUSH1 0x40 DUP1 DUP3 KECCAK256 DUP2 MLOAD PUSH2 0x140 DUP2 ADD SWAP1 SWAP3 MSTORE DUP1 SLOAD DUP3 SWAP1 DUP3 SWAP1 PUSH2 0x1FB4 SWAP1 PUSH2 0x3A81 JUMP JUMPDEST DUP1 PUSH1 0x1F ADD PUSH1 0x20 DUP1 SWAP2 DIV MUL PUSH1 0x20 ADD PUSH1 0x40 MLOAD SWAP1 DUP2 ADD PUSH1 0x40 MSTORE DUP1 SWAP3 SWAP2 SWAP1 DUP2 DUP2 MSTORE PUSH1 0x20 ADD DUP3 DUP1 SLOAD PUSH2 0x1FE0 SWAP1 PUSH2 0x3A81 JUMP JUMPDEST DUP1 ISZERO PUSH2 0x202D JUMPI DUP1 PUSH1 0x1F LT PUSH2 0x2002 JUMPI PUSH2 0x100 DUP1 DUP4 SLOAD DIV MUL DUP4 MSTORE SWAP2 PUSH1 0x20 ADD SWAP2 PUSH2 0x202D JUMP JUMPDEST DUP3 ADD SWAP2 SWAP1 PUSH1 0x0 MSTORE PUSH1 0x20 PUSH1 0x0 KECCAK256 SWAP1 JUMPDEST DUP2 SLOAD DUP2 MSTORE SWAP1 PUSH1 0x1 ADD SWAP1 PUSH1 0x20 ADD DUP1 DUP4 GT PUSH2 0x2010 JUMPI DUP3 SWAP1 SUB PUSH1 0x1F AND DUP3 ADD SWAP2 JUMPDEST POP POP POP SWAP2 DUP4 MSTORE POP POP PUSH1 0x1 DUP3 DUP2 ADD SLOAD PUSH5 0xFFFFFFFFFF SWAP1 DUP2 AND PUSH1 0x20 DUP5 ADD MSTORE PUSH1 0x2 DUP5 ADD SLOAD PUSH1 0x40 DUP5 ADD MSTORE PUSH1 0x3 DUP5 ADD SLOAD PUSH1 0x60 DUP5 ADD MSTORE PUSH1 0x4 SWAP1 SWAP4 ADD SLOAD PUSH1 0xFF DUP2 AND PUSH1 0x80 DUP5 ADD MSTORE PUSH2 0x100 DUP1 DUP3 DIV PUSH3 0xFFFFFF AND PUSH1 0xA0 DUP6 ADD MSTORE PUSH1 0x1 PUSH1 0x20 SHL DUP3 DIV PUSH1 0x1 PUSH1 0x1 PUSH1 0x50 SHL SUB AND PUSH1 0xC0 DUP6 ADD MSTORE PUSH1 0x1 PUSH1 0x70 SHL DUP3 DIV PUSH2 0xFFFF SWAP1 DUP2 AND PUSH1 0xE0 DUP7 ADD MSTORE PUSH1 0x1 PUSH1 0x80 SHL DUP4 DIV DUP2 AND DUP3 DUP7 ADD MSTORE PUSH1 0x1 PUSH1 0x90 SHL SWAP1 SWAP3 DIV SWAP1 SWAP5 AND PUSH2 0x120 SWAP1 SWAP4 ADD SWAP3 SWAP1 SWAP3 MSTORE SWAP2 DUP4 ADD MLOAD SWAP3 SWAP4 POP PUSH1 0x0 SWAP3 AND ISZERO PUSH2 0x214A JUMPI PUSH1 0x0 JUMPDEST DUP5 MLOAD DUP2 LT ISZERO PUSH2 0x2148 JUMPI DUP5 DUP2 DUP2 MLOAD DUP2 LT PUSH2 0x20F3 JUMPI PUSH2 0x20F3 PUSH2 0x3ABB JUMP JUMPDEST PUSH1 0x20 MUL PUSH1 0x20 ADD ADD MLOAD PUSH1 0x40 MLOAD PUSH1 0x20 ADD PUSH2 0x210D SWAP2 DUP2 MSTORE PUSH1 0x20 ADD SWAP1 JUMP JUMPDEST PUSH1 0x40 MLOAD PUSH1 0x20 DUP2 DUP4 SUB SUB DUP2 MSTORE SWAP1 PUSH1 0x40 MSTORE DUP1 MLOAD SWAP1 PUSH1 0x20 ADD KECCAK256 DUP6 DUP3 DUP2 MLOAD DUP2 LT PUSH2 0x2135 JUMPI PUSH2 0x2135 PUSH2 0x3ABB JUMP JUMPDEST PUSH1 0x20 SWAP1 DUP2 MUL SWAP2 SWAP1 SWAP2 ADD ADD MSTORE PUSH1 0x1 ADD PUSH2 0x20D8 JUMP JUMPDEST POP JUMPDEST PUSH1 0x0 DUP5 PUSH1 0x40 MLOAD PUSH1 0x20 ADD PUSH2 0x215D SWAP2 SWAP1 PUSH2 0x3AD1 JUMP JUMPDEST PUSH1 0x40 MLOAD PUSH1 0x20 DUP2 DUP4 SUB SUB DUP2 MSTORE SWAP1 PUSH1 0x40 MSTORE DUP1 MLOAD SWAP1 PUSH1 0x20 ADD KECCAK256 SWAP1 POP PUSH1 0x0 DUP2 DUP6 PUSH1 0x40 ADD MLOAD EQ PUSH2 0x2189 JUMPI PUSH1 0x0 PUSH2 0x218C JUMP JUMPDEST PUSH1 0x1 JUMPDEST PUSH1 0x20 DUP7 DUP2 ADD MLOAD PUSH1 0x40 DUP1 MLOAD DUP13 DUP2 MSTORE PUSH5 0xFFFFFFFFFF SWAP1 SWAP3 AND SWAP3 DUP3 ADD SWAP3 SWAP1 SWAP3 MSTORE SWAP1 DUP2 ADD DUP10 SWAP1 MSTORE PUSH1 0x60 DUP2 ADD DUP5 SWAP1 MSTORE PUSH1 0xFF SWAP2 SWAP1 SWAP2 AND PUSH1 0x1 DUP2 EQ PUSH1 0x80 DUP4 ADD MSTORE SWAP2 POP PUSH32 0xE3F0E138F100DEAF328BA1DEF71C39DADE8CD971BA0074D935EE648E54532FAE SWAP1 PUSH1 0xA0 ADD PUSH1 0x40 MLOAD DUP1 SWAP2 SUB SWAP1 LOG1 DUP1 PUSH1 0x1 SUB PUSH2 0x24AF JUMPI PUSH1 0x0 PUSH1 0x2 DUP7 PUSH1 0xC0 ADD MLOAD PUSH2 0x220F SWAP2 SWAP1 PUSH2 0x3F7D JUMP JUMPDEST PUSH1 0x2 SLOAD PUSH1 0xE0 DUP9 ADD MLOAD PUSH1 0x40 MLOAD PUSH4 0x31A9108F PUSH1 0xE1 SHL DUP2 MSTORE PUSH2 0xFFFF SWAP1 SWAP2 AND PUSH1 0x4 DUP3 ADD MSTORE PUSH1 0x1 PUSH1 0x1 PUSH1 0x50 SHL SUB SWAP3 SWAP1 SWAP3 AND SWAP3 POP PUSH1 0x0 SWAP2 PUSH1 0x1 PUSH1 0x1 PUSH1 0xA0 SHL SUB SWAP1 SWAP2 AND SWAP1 PUSH4 0x6352211E SWAP1 PUSH1 0x24 ADD PUSH1 0x20 PUSH1 0x40 MLOAD DUP1 DUP4 SUB DUP2 DUP7 GAS STATICCALL ISZERO DUP1 ISZERO PUSH2 0x2272 JUMPI RETURNDATASIZE PUSH1 0x0 DUP1 RETURNDATACOPY RETURNDATASIZE PUSH1 0x0 REVERT JUMPDEST POP POP POP POP PUSH1 0x40 MLOAD RETURNDATASIZE PUSH1 0x1F NOT PUSH1 0x1F DUP3 ADD AND DUP3 ADD DUP1 PUSH1 0x40 MSTORE POP DUP2 ADD SWAP1 PUSH2 0x2296 SWAP2 SWAP1 PUSH2 0x3DD6 JUMP JUMPDEST PUSH1 0x2 SLOAD PUSH1 0x20 DUP10 ADD MLOAD PUSH1 0xA0 DUP11 ADD MLOAD PUSH1 0x40 MLOAD PUSH4 0x8AD4D6A5 PUSH1 0xE0 SHL DUP2 MSTORE PUSH5 0xFFFFFFFFFF SWAP1 SWAP3 AND PUSH1 0x4 DUP4 ADD MSTORE PUSH3 0xFFFFFF AND PUSH1 0x24 DUP3 ADD MSTORE SWAP2 SWAP3 POP PUSH1 0x1 PUSH1 0x1 PUSH1 0xA0 SHL SUB AND SWAP1 PUSH4 0x8AD4D6A5 SWAP1 PUSH1 0x44 ADD PUSH1 0x0 PUSH1 0x40 MLOAD DUP1 DUP4 SUB DUP2 PUSH1 0x0 DUP8 DUP1 EXTCODESIZE ISZERO DUP1 ISZERO PUSH2 0x22F8 JUMPI PUSH1 0x0 DUP1 REVERT JUMPDEST POP GAS CALL ISZERO DUP1 ISZERO PUSH2 0x230C JUMPI RETURNDATASIZE PUSH1 0x0 DUP1 RETURNDATACOPY RETURNDATASIZE PUSH1 0x0 REVERT JUMPDEST POP POP PUSH1 0x2 SLOAD PUSH1 0xE0 DUP11 ADD MLOAD PUSH1 0xC SLOAD PUSH1 0x40 MLOAD PUSH4 0x8AD4D6A5 PUSH1 0xE0 SHL DUP2 MSTORE PUSH2 0xFFFF SWAP1 SWAP3 AND PUSH1 0x4 DUP4 ADD MSTORE PUSH1 0x24 DUP3 ADD MSTORE PUSH1 0x1 PUSH1 0x1 PUSH1 0xA0 SHL SUB SWAP1 SWAP2 AND SWAP3 POP PUSH4 0x8AD4D6A5 SWAP2 POP PUSH1 0x44 ADD JUMPDEST PUSH1 0x0 PUSH1 0x40 MLOAD DUP1 DUP4 SUB DUP2 PUSH1 0x0 DUP8 DUP1 EXTCODESIZE ISZERO DUP1 ISZERO PUSH2 0x2368 JUMPI PUSH1 0x0 DUP1 REVERT JUMPDEST POP GAS CALL ISZERO DUP1 ISZERO PUSH2 0x237C JUMPI RETURNDATASIZE PUSH1 0x0 DUP1 RETURNDATACOPY RETURNDATASIZE PUSH1 0x0 REVERT JUMPDEST POP POP POP PUSH1 0x0 DUP11 DUP2 MSTORE PUSH1 0x9 PUSH1 0x20 MSTORE PUSH1 0x40 DUP2 KECCAK256 SWAP2 POP PUSH2 0x2399 DUP3 DUP3 PUSH2 0x31F0 JUMP JUMPDEST POP PUSH1 0x1 DUP2 ADD DUP1 SLOAD PUSH5 0xFFFFFFFFFF NOT AND SWAP1 SSTORE PUSH1 0x0 PUSH1 0x2 DUP3 ADD DUP2 SWAP1 SSTORE PUSH1 0x3 DUP3 ADD DUP2 SWAP1 SSTORE PUSH1 0x4 SWAP1 SWAP2 ADD DUP1 SLOAD PUSH1 0x1 PUSH1 0x1 PUSH1 0xB8 SHL SUB NOT AND SWAP1 SSTORE PUSH1 0x40 MLOAD DUP2 SWAP1 PUSH1 0x1 PUSH1 0x1 PUSH1 0xA0 SHL SUB DUP5 AND SWAP1 DUP6 SWAP1 DUP4 DUP2 DUP2 DUP2 DUP6 DUP8 GAS CALL SWAP3 POP POP POP RETURNDATASIZE DUP1 PUSH1 0x0 DUP2 EQ PUSH2 0x2417 JUMPI PUSH1 0x40 MLOAD SWAP2 POP PUSH1 0x1F NOT PUSH1 0x3F RETURNDATASIZE ADD AND DUP3 ADD PUSH1 0x40 MSTORE RETURNDATASIZE DUP3 MSTORE RETURNDATASIZE PUSH1 0x0 PUSH1 0x20 DUP5 ADD RETURNDATACOPY PUSH2 0x241C JUMP JUMPDEST PUSH1 0x60 SWAP2 POP JUMPDEST POP SWAP2 POP SWAP2 POP DUP2 PUSH2 0x243E JUMPI PUSH1 0x40 MLOAD PUSH3 0x461BCD PUSH1 0xE5 SHL DUP2 MSTORE PUSH1 0x4 ADD PUSH2 0xCD4 SWAP1 PUSH2 0x3FB1 JUMP JUMPDEST PUSH1 0x40 MLOAD CALLER SWAP1 DUP6 SWAP1 PUSH1 0x0 DUP2 DUP2 DUP2 DUP6 DUP8 GAS CALL SWAP3 POP POP POP RETURNDATASIZE DUP1 PUSH1 0x0 DUP2 EQ PUSH2 0x247E JUMPI PUSH1 0x40 MLOAD SWAP2 POP PUSH1 0x1F NOT PUSH1 0x3F RETURNDATASIZE ADD AND DUP3 ADD PUSH1 0x40 MSTORE RETURNDATASIZE DUP3 MSTORE RETURNDATASIZE PUSH1 0x0 PUSH1 0x20 DUP5 ADD RETURNDATACOPY PUSH2 0x2483 JUMP JUMPDEST PUSH1 0x60 SWAP2 POP JUMPDEST POP SWAP1 SWAP3 POP SWAP1 POP DUP2 PUSH2 0x24A6 JUMPI PUSH1 0x40 MLOAD PUSH3 0x461BCD PUSH1 0xE5 SHL DUP2 MSTORE PUSH1 0x4 ADD PUSH2 0xCD4 SWAP1 PUSH2 0x3FB1 JUMP JUMPDEST POP POP POP POP PUSH2 0x281A JUMP JUMPDEST DUP5 PUSH2 0x100 ADD MLOAD PUSH2 0xFFFF AND PUSH1 0x0 SUB PUSH2 0x25E1 JUMPI PUSH2 0xFFFF DUP9 AND PUSH2 0x100 DUP7 ADD MSTORE PUSH1 0x60 DUP6 ADD DUP3 SWAP1 MSTORE PUSH1 0x0 DUP8 DUP2 MSTORE PUSH1 0x9 PUSH1 0x20 MSTORE PUSH1 0x40 SWAP1 KECCAK256 DUP6 MLOAD DUP7 SWAP2 SWAP1 DUP2 SWAP1 PUSH2 0x24F1 SWAP1 DUP3 PUSH2 0x3C5F JUMP JUMPDEST POP PUSH1 0x20 DUP3 ADD MLOAD PUSH1 0x1 DUP3 ADD DUP1 SLOAD PUSH5 0xFFFFFFFFFF NOT AND PUSH5 0xFFFFFFFFFF SWAP3 DUP4 AND OR SWAP1 SSTORE PUSH1 0x40 DUP4 ADD MLOAD PUSH1 0x2 DUP4 ADD SSTORE PUSH1 0x60 DUP4 ADD MLOAD PUSH1 0x3 DUP4 ADD SSTORE PUSH1 0x80 DUP4 ADD MLOAD PUSH1 0x4 SWAP1 SWAP3 ADD DUP1 SLOAD PUSH1 0xA0 DUP6 ADD MLOAD PUSH1 0xC0 DUP7 ADD MLOAD PUSH1 0xE0 DUP8 ADD MLOAD PUSH2 0x100 DUP1 DUP10 ADD MLOAD PUSH2 0x120 SWAP1 SWAP10 ADD MLOAD PUSH1 0xFF SWAP1 SWAP9 AND PUSH4 0xFFFFFFFF NOT SWAP1 SWAP6 AND SWAP5 SWAP1 SWAP5 OR PUSH3 0xFFFFFF SWAP1 SWAP4 AND SWAP1 SWAP4 MUL SWAP2 SWAP1 SWAP2 OR PUSH5 0x100000000 PUSH1 0x1 PUSH1 0x80 SHL SUB NOT AND PUSH1 0x1 PUSH1 0x20 SHL PUSH1 0x1 PUSH1 0x1 PUSH1 0x50 SHL SUB SWAP1 SWAP3 AND SWAP2 SWAP1 SWAP2 MUL PUSH2 0xFFFF PUSH1 0x70 SHL NOT AND OR PUSH1 0x1 PUSH1 0x70 SHL PUSH2 0xFFFF SWAP3 DUP4 AND MUL OR PUSH7 0xFFFFFFFFFFFFFF PUSH1 0x80 SHL NOT AND PUSH1 0x1 PUSH1 0x80 SHL SWAP2 SWAP1 SWAP6 AND MUL PUSH5 0xFFFFFFFFFF PUSH1 0x90 SHL NOT AND SWAP4 SWAP1 SWAP4 OR PUSH1 0x1 PUSH1 0x90 SHL SWAP3 SWAP1 SWAP2 AND SWAP2 SWAP1 SWAP2 MUL OR SWAP1 SSTORE PUSH1 0x0 SWAP3 POP JUMPDEST DUP2 DUP6 PUSH1 0x60 ADD MLOAD SUB PUSH2 0x2734 JUMPI PUSH1 0x0 PUSH1 0x2 DUP7 PUSH1 0xC0 ADD MLOAD PUSH2 0x25FF SWAP2 SWAP1 PUSH2 0x3F7D JUMP JUMPDEST PUSH1 0x2 SLOAD PUSH2 0x100 DUP9 ADD MLOAD PUSH1 0x40 MLOAD PUSH4 0x31A9108F PUSH1 0xE1 SHL DUP2 MSTORE PUSH2 0xFFFF SWAP1 SWAP2 AND PUSH1 0x4 DUP3 ADD MSTORE PUSH1 0x1 PUSH1 0x1 PUSH1 0x50 SHL SUB SWAP3 SWAP1 SWAP3 AND SWAP3 POP PUSH1 0x0 SWAP2 PUSH1 0x1 PUSH1 0x1 PUSH1 0xA0 SHL SUB SWAP1 SWAP2 AND SWAP1 PUSH4 0x6352211E SWAP1 PUSH1 0x24 ADD PUSH1 0x20 PUSH1 0x40 MLOAD DUP1 DUP4 SUB DUP2 DUP7 GAS STATICCALL ISZERO DUP1 ISZERO PUSH2 0x2663 JUMPI RETURNDATASIZE PUSH1 0x0 DUP1 RETURNDATACOPY RETURNDATASIZE PUSH1 0x0 REVERT JUMPDEST POP POP POP POP PUSH1 0x40 MLOAD RETURNDATASIZE PUSH1 0x1F NOT PUSH1 0x1F DUP3 ADD AND DUP3 ADD DUP1 PUSH1 0x40 MSTORE POP DUP2 ADD SWAP1 PUSH2 0x2687 SWAP2 SWAP1 PUSH2 0x3DD6 JUMP JUMPDEST PUSH1 0x2 SLOAD PUSH2 0x100 DUP10 ADD MLOAD PUSH1 0xC SLOAD PUSH1 0x40 MLOAD PUSH4 0x8AD4D6A5 PUSH1 0xE0 SHL DUP2 MSTORE PUSH2 0xFFFF SWAP1 SWAP3 AND PUSH1 0x4 DUP4 ADD MSTORE PUSH1 0x24 DUP3 ADD MSTORE SWAP2 SWAP3 POP PUSH1 0x1 PUSH1 0x1 PUSH1 0xA0 SHL SUB AND SWAP1 PUSH4 0x8AD4D6A5 SWAP1 PUSH1 0x44 ADD PUSH1 0x0 PUSH1 0x40 MLOAD DUP1 DUP4 SUB DUP2 PUSH1 0x0 DUP8 DUP1 EXTCODESIZE ISZERO DUP1 ISZERO PUSH2 0x26E0 JUMPI PUSH1 0x0 DUP1 REVERT JUMPDEST POP GAS CALL ISZERO DUP1 ISZERO PUSH2 0x26F4 JUMPI RETURNDATASIZE PUSH1 0x0 DUP1 RETURNDATACOPY RETURNDATASIZE PUSH1 0x0 REVERT JUMPDEST POP POP PUSH1 0x2 SLOAD PUSH1 0xC SLOAD PUSH1 0x40 MLOAD PUSH4 0x8AD4D6A5 PUSH1 0xE0 SHL DUP2 MSTORE PUSH1 0x4 DUP2 ADD DUP16 SWAP1 MSTORE PUSH1 0x24 DUP2 ADD SWAP2 SWAP1 SWAP2 MSTORE PUSH1 0x1 PUSH1 0x1 PUSH1 0xA0 SHL SUB SWAP1 SWAP2 AND SWAP3 POP PUSH4 0x8AD4D6A5 SWAP2 POP PUSH1 0x44 ADD PUSH2 0x234E JUMP JUMPDEST PUSH1 0xC0 DUP6 ADD MLOAD PUSH1 0x0 DUP9 DUP2 MSTORE PUSH1 0x9 PUSH1 0x20 MSTORE PUSH1 0x40 DUP2 KECCAK256 PUSH1 0x1 PUSH1 0x1 PUSH1 0x50 SHL SUB SWAP1 SWAP3 AND SWAP2 SWAP1 PUSH2 0x275E DUP3 DUP3 PUSH2 0x31F0 JUMP JUMPDEST POP PUSH1 0x1 DUP2 ADD DUP1 SLOAD PUSH5 0xFFFFFFFFFF NOT AND SWAP1 SSTORE PUSH1 0x0 PUSH1 0x2 DUP3 ADD DUP2 SWAP1 SSTORE PUSH1 0x3 DUP3 ADD DUP2 SWAP1 SSTORE PUSH1 0x4 SWAP1 SWAP2 ADD DUP1 SLOAD PUSH1 0x1 PUSH1 0x1 PUSH1 0xB8 SHL SUB NOT AND SWAP1 SSTORE DUP1 PUSH2 0x27A5 PUSH1 0x1 SLOAD PUSH1 0x1 PUSH1 0x1 PUSH1 0xA0 SHL SUB AND SWAP1 JUMP JUMPDEST PUSH1 0x1 PUSH1 0x1 PUSH1 0xA0 SHL SUB AND DUP4 PUSH1 0x40 MLOAD PUSH1 0x0 PUSH1 0x40 MLOAD DUP1 DUP4 SUB DUP2 DUP6 DUP8 GAS CALL SWAP3 POP POP POP RETURNDATASIZE DUP1 PUSH1 0x0 DUP2 EQ PUSH2 0x27EF JUMPI PUSH1 0x40 MLOAD SWAP2 POP PUSH1 0x1F NOT PUSH1 0x3F RETURNDATASIZE ADD AND DUP3 ADD PUSH1 0x40 MSTORE RETURNDATASIZE DUP3 MSTORE RETURNDATASIZE PUSH1 0x0 PUSH1 0x20 DUP5 ADD RETURNDATACOPY PUSH2 0x27F4 JUMP JUMPDEST PUSH1 0x60 SWAP2 POP JUMPDEST POP SWAP2 POP SWAP2 POP DUP2 PUSH2 0x2816 JUMPI PUSH1 0x40 MLOAD PUSH3 0x461BCD PUSH1 0xE5 SHL DUP2 MSTORE PUSH1 0x4 ADD PUSH2 0xCD4 SWAP1 PUSH2 0x3FB1 JUMP JUMPDEST POP POP POP JUMPDEST DUP3 ISZERO PUSH2 0x1B53 JUMPI PUSH1 0x0 PUSH2 0x283B PUSH1 0x5 SLOAD PUSH1 0xF DUP2 DUP2 SIGNEXTEND PUSH1 0x1 PUSH1 0x80 SHL SWAP1 SWAP3 DIV SWAP1 SIGNEXTEND SUB SWAP1 JUMP JUMPDEST SWAP1 POP PUSH1 0x0 JUMPDEST DUP2 DUP2 LT ISZERO PUSH2 0x28A5 JUMPI DUP9 PUSH2 0x2854 PUSH1 0x5 DUP4 PUSH2 0x2DDE JUMP JUMPDEST SUB PUSH2 0x289D JUMPI PUSH1 0x0 PUSH2 0x2865 PUSH1 0x5 PUSH2 0x3020 JUMP JUMPDEST SWAP1 POP DUP2 ISZERO PUSH2 0x289B JUMPI PUSH1 0x5 SLOAD DUP2 SWAP1 PUSH1 0x6 SWAP1 PUSH1 0x0 SWAP1 PUSH2 0x2886 SWAP1 DUP7 SWAP1 PUSH1 0xF SIGNEXTEND PUSH2 0x3FDF JUMP JUMPDEST PUSH1 0xF SIGNEXTEND DUP2 MSTORE PUSH1 0x20 DUP2 ADD SWAP2 SWAP1 SWAP2 MSTORE PUSH1 0x40 ADD PUSH1 0x0 KECCAK256 SSTORE JUMPDEST POP JUMPDEST PUSH1 0x1 ADD PUSH2 0x2840 JUMP JUMPDEST POP POP POP POP POP POP POP POP POP POP JUMP JUMPDEST PUSH1 0x1 SLOAD PUSH1 0x1 PUSH1 0x1 PUSH1 0xA0 SHL SUB AND CALLER EQ PUSH2 0x28DB JUMPI PUSH1 0x40 MLOAD PUSH3 0x461BCD PUSH1 0xE5 SHL DUP2 MSTORE PUSH1 0x4 ADD PUSH2 0xCD4 SWAP1 PUSH2 0x3B38 JUMP JUMPDEST PUSH1 0x1 PUSH1 0x1 PUSH1 0xA0 SHL SUB DUP2 AND PUSH2 0x2940 JUMPI PUSH1 0x40 MLOAD PUSH3 0x461BCD PUSH1 0xE5 SHL DUP2 MSTORE PUSH1 0x20 PUSH1 0x4 DUP3 ADD MSTORE PUSH1 0x26 PUSH1 0x24 DUP3 ADD MSTORE PUSH32 0x4F776E61626C653A206E6577206F776E657220697320746865207A65726F2061 PUSH1 0x44 DUP3 ADD MSTORE PUSH6 0x646472657373 PUSH1 0xD0 SHL PUSH1 0x64 DUP3 ADD MSTORE PUSH1 0x84 ADD PUSH2 0xCD4 JUMP JUMPDEST PUSH2 0x2949 DUP2 PUSH2 0x2FCE JUMP JUMPDEST POP JUMP JUMPDEST PUSH1 0x0 DUP1 PUSH2 0x2968 PUSH1 0x5 SLOAD PUSH1 0xF DUP2 DUP2 SIGNEXTEND PUSH1 0x1 PUSH1 0x80 SHL SWAP1 SWAP3 DIV SWAP1 SIGNEXTEND SUB SWAP1 JUMP JUMPDEST SWAP1 POP PUSH2 0x2972 PUSH2 0x319C JUMP JUMPDEST PUSH1 0x0 JUMPDEST DUP3 DUP2 LT ISZERO PUSH2 0x2B11 JUMPI PUSH1 0x9 PUSH1 0x0 PUSH2 0x298C PUSH1 0x5 DUP5 PUSH2 0x2DDE JUMP JUMPDEST PUSH1 0x0 SHR DUP2 MSTORE PUSH1 0x20 ADD SWAP1 DUP2 MSTORE PUSH1 0x20 ADD PUSH1 0x0 KECCAK256 PUSH1 0x40 MLOAD DUP1 PUSH2 0x140 ADD PUSH1 0x40 MSTORE SWAP1 DUP2 PUSH1 0x0 DUP3 ADD DUP1 SLOAD PUSH2 0x29B9 SWAP1 PUSH2 0x3A81 JUMP JUMPDEST DUP1 PUSH1 0x1F ADD PUSH1 0x20 DUP1 SWAP2 DIV MUL PUSH1 0x20 ADD PUSH1 0x40 MLOAD SWAP1 DUP2 ADD PUSH1 0x40 MSTORE DUP1 SWAP3 SWAP2 SWAP1 DUP2 DUP2 MSTORE PUSH1 0x20 ADD DUP3 DUP1 SLOAD PUSH2 0x29E5 SWAP1 PUSH2 0x3A81 JUMP JUMPDEST DUP1 ISZERO PUSH2 0x2A32 JUMPI DUP1 PUSH1 0x1F LT PUSH2 0x2A07 JUMPI PUSH2 0x100 DUP1 DUP4 SLOAD DIV MUL DUP4 MSTORE SWAP2 PUSH1 0x20 ADD SWAP2 PUSH2 0x2A32 JUMP JUMPDEST DUP3 ADD SWAP2 SWAP1 PUSH1 0x0 MSTORE PUSH1 0x20 PUSH1 0x0 KECCAK256 SWAP1 JUMPDEST DUP2 SLOAD DUP2 MSTORE SWAP1 PUSH1 0x1 ADD SWAP1 PUSH1 0x20 ADD DUP1 DUP4 GT PUSH2 0x2A15 JUMPI DUP3 SWAP1 SUB PUSH1 0x1F AND DUP3 ADD SWAP2 JUMPDEST POP POP POP SWAP2 DUP4 MSTORE POP POP PUSH1 0x1 DUP3 ADD SLOAD PUSH5 0xFFFFFFFFFF SWAP1 DUP2 AND PUSH1 0x20 DUP4 ADD MSTORE PUSH1 0x2 DUP4 ADD SLOAD PUSH1 0x40 DUP4 ADD MSTORE PUSH1 0x3 DUP4 ADD SLOAD PUSH1 0x60 DUP4 ADD MSTORE PUSH1 0x4 SWAP1 SWAP3 ADD SLOAD PUSH1 0xFF DUP2 AND PUSH1 0x80 DUP4 ADD MSTORE PUSH2 0x100 DUP1 DUP3 DIV PUSH3 0xFFFFFF AND PUSH1 0xA0 DUP5 ADD MSTORE PUSH1 0x1 PUSH1 0x20 SHL DUP3 DIV PUSH1 0x1 PUSH1 0x1 PUSH1 0x50 SHL SUB AND PUSH1 0xC0 DUP5 ADD MSTORE PUSH1 0x1 PUSH1 0x70 SHL DUP3 DIV PUSH2 0xFFFF SWAP1 DUP2 AND PUSH1 0xE0 DUP6 ADD MSTORE PUSH1 0x1 PUSH1 0x80 SHL DUP4 DIV AND SWAP1 DUP4 ADD MSTORE PUSH1 0x1 PUSH1 0x90 SHL SWAP1 DIV DUP3 AND PUSH2 0x120 SWAP2 DUP3 ADD MSTORE DUP3 ADD MLOAD SWAP2 SWAP4 POP TIMESTAMP SWAP2 AND LT DUP1 ISZERO PUSH2 0x2AE4 JUMPI POP DUP5 DUP3 PUSH1 0x20 ADD MLOAD PUSH5 0xFFFFFFFFFF AND EQ ISZERO JUMPDEST DUP1 ISZERO PUSH2 0x2AF9 JUMPI POP DUP5 DUP3 PUSH2 0x100 ADD MLOAD PUSH2 0xFFFF AND EQ ISZERO JUMPDEST ISZERO PUSH2 0x2B09 JUMPI POP PUSH1 0x1 SWAP5 SWAP4 POP POP POP POP JUMP JUMPDEST PUSH1 0x1 ADD PUSH2 0x2975 JUMP JUMPDEST POP PUSH1 0x0 SWAP5 SWAP4 POP POP POP POP JUMP JUMPDEST PUSH1 0x0 JUMPDEST PUSH1 0x4 SLOAD DUP2 LT ISZERO PUSH2 0x2CB5 JUMPI DUP2 PUSH1 0x40 MLOAD PUSH1 0x20 ADD PUSH2 0x2B3A SWAP2 SWAP1 PUSH2 0x4020 JUMP JUMPDEST PUSH1 0x40 MLOAD PUSH1 0x20 DUP2 DUP4 SUB SUB DUP2 MSTORE SWAP1 PUSH1 0x40 MSTORE DUP1 MLOAD SWAP1 PUSH1 0x20 ADD KECCAK256 PUSH1 0x4 DUP3 DUP2 SLOAD DUP2 LT PUSH2 0x2B63 JUMPI PUSH2 0x2B63 PUSH2 0x3ABB JUMP JUMPDEST SWAP1 PUSH1 0x0 MSTORE PUSH1 0x20 PUSH1 0x0 KECCAK256 SWAP1 PUSH1 0x3 MUL ADD PUSH1 0x1 ADD PUSH1 0x40 MLOAD PUSH1 0x20 ADD PUSH2 0x2B84 SWAP2 SWAP1 PUSH2 0x403C JUMP JUMPDEST PUSH1 0x40 MLOAD PUSH1 0x20 DUP2 DUP4 SUB SUB DUP2 MSTORE SWAP1 PUSH1 0x40 MSTORE DUP1 MLOAD SWAP1 PUSH1 0x20 ADD KECCAK256 SUB PUSH2 0x2CAD JUMPI PUSH1 0x0 PUSH1 0x4 DUP3 DUP2 SLOAD DUP2 LT PUSH2 0x2BB4 JUMPI PUSH2 0x2BB4 PUSH2 0x3ABB JUMP JUMPDEST SWAP1 PUSH1 0x0 MSTORE PUSH1 0x20 PUSH1 0x0 KECCAK256 SWAP1 PUSH1 0x3 MUL ADD SWAP1 POP PUSH1 0x0 PUSH1 0x4 PUSH1 0x1 PUSH1 0x4 DUP1 SLOAD SWAP1 POP PUSH2 0x2BDA SWAP2 SWAP1 PUSH2 0x3D6F JUMP JUMPDEST DUP2 SLOAD DUP2 LT PUSH2 0x2BEA JUMPI PUSH2 0x2BEA PUSH2 0x3ABB JUMP JUMPDEST SWAP1 PUSH1 0x0 MSTORE PUSH1 0x20 PUSH1 0x0 KECCAK256 SWAP1 PUSH1 0x3 MUL ADD SWAP1 POP DUP1 SWAP2 POP PUSH1 0x4 PUSH1 0x1 PUSH1 0x4 DUP1 SLOAD SWAP1 POP PUSH2 0x2C11 SWAP2 SWAP1 PUSH2 0x3D6F JUMP JUMPDEST DUP2 SLOAD DUP2 LT PUSH2 0x2C21 JUMPI PUSH2 0x2C21 PUSH2 0x3ABB JUMP JUMPDEST SWAP1 PUSH1 0x0 MSTORE PUSH1 0x20 PUSH1 0x0 KECCAK256 SWAP1 PUSH1 0x3 MUL ADD PUSH1 0x0 PUSH1 0x1 DUP3 ADD PUSH1 0x0 PUSH2 0x2C41 SWAP2 SWAP1 PUSH2 0x31F0 JUMP JUMPDEST POP PUSH1 0x2 ADD DUP1 SLOAD PUSH1 0x1 PUSH1 0x1 PUSH1 0xB0 SHL SUB NOT AND SWAP1 SSTORE PUSH1 0x4 DUP1 SLOAD PUSH2 0x2C63 SWAP1 PUSH1 0x1 SWAP1 PUSH2 0x3D6F JUMP JUMPDEST DUP2 SLOAD DUP2 LT PUSH2 0x2C73 JUMPI PUSH2 0x2C73 PUSH2 0x3ABB JUMP JUMPDEST SWAP1 PUSH1 0x0 MSTORE PUSH1 0x20 PUSH1 0x0 KECCAK256 SWAP1 PUSH1 0x3 MUL ADD PUSH1 0x0 PUSH1 0x1 DUP3 ADD PUSH1 0x0 PUSH2 0x2C93 SWAP2 SWAP1 PUSH2 0x31F0 JUMP JUMPDEST POP PUSH1 0x2 ADD DUP1 SLOAD PUSH1 0x1 PUSH1 0x1 PUSH1 0xB0 SHL SUB NOT AND SWAP1 SSTORE POP PUSH2 0x2CB5 SWAP1 POP JUMP JUMPDEST PUSH1 0x1 ADD PUSH2 0x2B1F JUMP JUMPDEST POP POP JUMP JUMPDEST PUSH1 0x60 PUSH1 0x8 SLOAD DUP3 LT PUSH2 0x2CFF JUMPI PUSH1 0x40 MLOAD PUSH3 0x461BCD PUSH1 0xE5 SHL DUP2 MSTORE PUSH1 0x20 PUSH1 0x4 DUP3 ADD MSTORE PUSH1 0x10 PUSH1 0x24 DUP3 ADD MSTORE PUSH16 0x1B9BC81CDD58DA081C1C9BDC1BDCD85B PUSH1 0x82 SHL PUSH1 0x44 DUP3 ADD MSTORE PUSH1 0x64 ADD PUSH2 0xCD4 JUMP JUMPDEST PUSH1 0x0 DUP3 DUP2 MSTORE PUSH1 0x7 PUSH1 0x20 MSTORE PUSH1 0x40 DUP2 KECCAK256 PUSH1 0x1 ADD SLOAD PUSH2 0xFFFF AND PUSH1 0x1 PUSH1 0x1 PUSH1 0x40 SHL SUB DUP2 GT ISZERO PUSH2 0x2D2C JUMPI PUSH2 0x2D2C PUSH2 0x32EF JUMP JUMPDEST PUSH1 0x40 MLOAD SWAP1 DUP1 DUP3 MSTORE DUP1 PUSH1 0x20 MUL PUSH1 0x20 ADD DUP3 ADD PUSH1 0x40 MSTORE DUP1 ISZERO PUSH2 0x2D55 JUMPI DUP2 PUSH1 0x20 ADD PUSH1 0x20 DUP3 MUL DUP1 CALLDATASIZE DUP4 CALLDATACOPY ADD SWAP1 POP JUMPDEST POP SWAP1 POP PUSH1 0x0 JUMPDEST DUP2 MLOAD DUP2 LT ISZERO PUSH2 0x2DD7 JUMPI PUSH1 0x0 DUP5 DUP2 MSTORE PUSH1 0x7 PUSH1 0x20 MSTORE PUSH1 0x40 SWAP1 KECCAK256 PUSH1 0x2 ADD DUP2 PUSH1 0x8 DUP2 LT PUSH2 0x2D86 JUMPI PUSH2 0x2D86 PUSH2 0x3ABB JUMP JUMPDEST PUSH1 0x10 SWAP2 DUP3 DUP3 DIV ADD SWAP2 SWAP1 MOD PUSH1 0x2 MUL SWAP1 SLOAD SWAP1 PUSH2 0x100 EXP SWAP1 DIV PUSH2 0xFFFF AND DUP3 DUP3 DUP2 MLOAD DUP2 LT PUSH2 0x2DB2 JUMPI PUSH2 0x2DB2 PUSH2 0x3ABB JUMP JUMPDEST PUSH2 0xFFFF SWAP1 SWAP3 AND PUSH1 0x20 SWAP3 DUP4 MUL SWAP2 SWAP1 SWAP2 ADD SWAP1 SWAP2 ADD MSTORE DUP1 PUSH2 0x2DCF DUP2 PUSH2 0x3DBD JUMP JUMPDEST SWAP2 POP POP PUSH2 0x2D5B JUMP JUMPDEST POP SWAP3 SWAP2 POP POP JUMP JUMPDEST PUSH1 0x0 DUP1 PUSH2 0x2E01 PUSH2 0x2DED DUP5 PUSH2 0x309F JUMP JUMPDEST DUP6 SLOAD PUSH2 0x2DFC SWAP2 SWAP1 PUSH1 0xF SIGNEXTEND PUSH2 0x3FDF JUMP JUMPDEST PUSH2 0x310D JUMP JUMPDEST DUP5 SLOAD SWAP1 SWAP2 POP PUSH1 0x1 PUSH1 0x80 SHL SWAP1 DIV PUSH1 0xF SWAP1 DUP2 SIGNEXTEND SWAP1 DUP3 SWAP1 SIGNEXTEND SLT PUSH2 0x2E34 JUMPI PUSH1 0x40 MLOAD PUSH4 0x2D0483C5 PUSH1 0xE2 SHL DUP2 MSTORE PUSH1 0x4 ADD PUSH1 0x40 MLOAD DUP1 SWAP2 SUB SWAP1 REVERT JUMPDEST PUSH1 0xF SIGNEXTEND PUSH1 0x0 SWAP1 DUP2 MSTORE PUSH1 0x1 SWAP4 SWAP1 SWAP4 ADD PUSH1 0x20 MSTORE POP POP PUSH1 0x40 SWAP1 KECCAK256 SLOAD SWAP1 JUMP JUMPDEST PUSH1 0x4 DUP1 SLOAD PUSH1 0x1 DUP2 ADD DUP1 DUP4 SSTORE PUSH1 0x0 DUP4 DUP2 MSTORE SWAP2 SWAP3 SWAP1 DUP4 SWAP1 DUP2 LT PUSH2 0x2E72 JUMPI PUSH2 0x2E72 PUSH2 0x3ABB JUMP JUMPDEST PUSH1 0x0 SWAP2 DUP3 MSTORE PUSH1 0x20 SWAP1 SWAP2 KECCAK256 PUSH1 0x3 SWAP1 SWAP2 MUL ADD SWAP1 POP PUSH1 0x1 DUP2 ADD PUSH2 0x2E93 DUP11 DUP13 DUP4 PUSH2 0x3DF3 JUMP JUMPDEST POP PUSH1 0x0 DUP2 PUSH1 0x2 ADD PUSH1 0x0 PUSH2 0x100 EXP DUP2 SLOAD DUP2 PUSH1 0xFF MUL NOT AND SWAP1 DUP4 ISZERO ISZERO MUL OR SWAP1 SSTORE POP DUP8 DUP2 PUSH1 0x2 ADD PUSH1 0x1 PUSH2 0x100 EXP DUP2 SLOAD DUP2 PUSH5 0xFFFFFFFFFF MUL NOT AND SWAP1 DUP4 PUSH5 0xFFFFFFFFFF AND MUL OR SWAP1 SSTORE POP DUP7 DUP2 PUSH1 0x2 ADD PUSH1 0x6 PUSH2 0x100 EXP DUP2 SLOAD DUP2 PUSH1 0xFF MUL NOT AND SWAP1 DUP4 PUSH1 0xFF AND MUL OR SWAP1 SSTORE POP DUP6 DUP2 PUSH1 0x2 ADD PUSH1 0x7 PUSH2 0x100 EXP DUP2 SLOAD DUP2 PUSH3 0xFFFFFF MUL NOT AND SWAP1 DUP4 PUSH3 0xFFFFFF AND MUL OR SWAP1 SSTORE POP DUP5 DUP2 PUSH1 0x2 ADD PUSH1 0xA PUSH2 0x100 EXP DUP2 SLOAD DUP2 PUSH5 0xFFFFFFFFFF MUL NOT AND SWAP1 DUP4 PUSH5 0xFFFFFFFFFF AND MUL OR SWAP1 SSTORE POP DUP4 DUP2 PUSH1 0x2 ADD PUSH1 0xF PUSH2 0x100 EXP DUP2 SLOAD DUP2 PUSH5 0xFFFFFFFFFF MUL NOT AND SWAP1 DUP4 PUSH5 0xFFFFFFFFFF AND MUL OR SWAP1 SSTORE POP DUP3 DUP2 PUSH1 0x2 ADD PUSH1 0x14 PUSH2 0x100 EXP DUP2 SLOAD DUP2 PUSH2 0xFFFF MUL NOT AND SWAP1 DUP4 PUSH2 0xFFFF AND MUL OR SWAP1 SSTORE POP PUSH32 0x2810025950962E3CD71FD98C2DC111FFBDB2A129B36771DF8D36A7DE2FE3E4E0 DUP11 DUP11 DUP11 DUP11 DUP11 DUP11 DUP11 DUP11 PUSH1 0x40 MLOAD PUSH2 0x2FBA SWAP9 SWAP8 SWAP7 SWAP6 SWAP5 SWAP4 SWAP3 SWAP2 SWAP1 PUSH2 0x40AE JUMP JUMPDEST PUSH1 0x40 MLOAD DUP1 SWAP2 SUB SWAP1 LOG1 POP POP POP POP POP POP POP POP POP POP JUMP JUMPDEST PUSH1 0x1 DUP1 SLOAD PUSH1 0x1 PUSH1 0x1 PUSH1 0xA0 SHL SUB DUP4 DUP2 AND PUSH1 0x1 PUSH1 0x1 PUSH1 0xA0 SHL SUB NOT DUP4 AND DUP2 OR SWAP1 SWAP4 SSTORE PUSH1 0x40 MLOAD SWAP2 AND SWAP2 SWAP1 DUP3 SWAP1 PUSH32 0x8BE0079C531659141344CD1FD0A4F28419497F9722A3DAAFE3B4186F6B6457E0 SWAP1 PUSH1 0x0 SWAP1 LOG3 POP POP JUMP JUMPDEST PUSH1 0x0 PUSH2 0x303B DUP3 SLOAD PUSH1 0xF DUP2 DUP2 SIGNEXTEND PUSH1 0x1 PUSH1 0x80 SHL SWAP1 SWAP3 DIV SWAP1 SIGNEXTEND SGT ISZERO SWAP1 JUMP JUMPDEST ISZERO PUSH2 0x3059 JUMPI PUSH1 0x40 MLOAD PUSH4 0x1ED95095 PUSH1 0xE1 SHL DUP2 MSTORE PUSH1 0x4 ADD PUSH1 0x40 MLOAD DUP1 SWAP2 SUB SWAP1 REVERT JUMPDEST POP DUP1 SLOAD PUSH1 0xF SIGNEXTEND PUSH1 0x0 DUP2 DUP2 MSTORE PUSH1 0x1 DUP1 DUP5 ADD PUSH1 0x20 MSTORE PUSH1 0x40 DUP3 KECCAK256 DUP1 SLOAD SWAP3 SWAP1 SSTORE DUP4 SLOAD PUSH16 0xFFFFFFFFFFFFFFFFFFFFFFFFFFFFFFFF NOT AND SWAP3 ADD PUSH1 0x1 PUSH1 0x1 PUSH1 0x80 SHL SUB AND SWAP2 SWAP1 SWAP2 OR SWAP1 SWAP2 SSTORE SWAP1 JUMP JUMPDEST PUSH1 0x0 PUSH1 0x1 PUSH1 0x1 PUSH1 0xFF SHL SUB DUP3 GT ISZERO PUSH2 0x3109 JUMPI PUSH1 0x40 MLOAD PUSH3 0x461BCD PUSH1 0xE5 SHL DUP2 MSTORE PUSH1 0x20 PUSH1 0x4 DUP3 ADD MSTORE PUSH1 0x28 PUSH1 0x24 DUP3 ADD MSTORE PUSH32 0x53616665436173743A2076616C756520646F65736E27742066697420696E2061 PUSH1 0x44 DUP3 ADD MSTORE PUSH8 0x371034B73A191A9B PUSH1 0xC1 SHL PUSH1 0x64 DUP3 ADD MSTORE PUSH1 0x84 ADD PUSH2 0xCD4 JUMP JUMPDEST POP SWAP1 JUMP JUMPDEST PUSH1 0x0 PUSH16 0x7FFFFFFFFFFFFFFFFFFFFFFFFFFFFFFF NOT DUP3 SLT DUP1 ISZERO SWAP1 PUSH2 0x3140 JUMPI POP PUSH16 0x7FFFFFFFFFFFFFFFFFFFFFFFFFFFFFFF DUP3 SGT ISZERO JUMPDEST PUSH2 0x3109 JUMPI PUSH1 0x40 MLOAD PUSH3 0x461BCD PUSH1 0xE5 SHL DUP2 MSTORE PUSH1 0x20 PUSH1 0x4 DUP3 ADD MSTORE PUSH1 0x27 PUSH1 0x24 DUP3 ADD MSTORE PUSH32 0x53616665436173743A2076616C756520646F65736E27742066697420696E2031 PUSH1 0x44 DUP3 ADD MSTORE PUSH7 0x32382062697473 PUSH1 0xC8 SHL PUSH1 0x64 DUP3 ADD MSTORE PUSH1 0x84 ADD PUSH2 0xCD4 JUMP JUMPDEST PUSH1 0x40 DUP1 MLOAD PUSH2 0x140 DUP2 ADD DUP3 MSTORE PUSH1 0x60 DUP1 DUP3 MSTORE PUSH1 0x0 PUSH1 0x20 DUP4 ADD DUP2 SWAP1 MSTORE SWAP3 DUP3 ADD DUP4 SWAP1 MSTORE DUP2 ADD DUP3 SWAP1 MSTORE PUSH1 0x80 DUP2 ADD DUP3 SWAP1 MSTORE PUSH1 0xA0 DUP2 ADD DUP3 SWAP1 MSTORE PUSH1 0xC0 DUP2 ADD DUP3 SWAP1 MSTORE PUSH1 0xE0 DUP2 ADD DUP3 SWAP1 MSTORE PUSH2 0x100 DUP2 ADD DUP3 SWAP1 MSTORE PUSH2 0x120 DUP2 ADD SWAP2 SWAP1 SWAP2 MSTORE SWAP1 JUMP JUMPDEST POP DUP1 SLOAD PUSH2 0x31FC SWAP1 PUSH2 0x3A81 JUMP JUMPDEST PUSH1 0x0 DUP3 SSTORE DUP1 PUSH1 0x1F LT PUSH2 0x320C JUMPI POP POP JUMP JUMPDEST PUSH1 0x1F ADD PUSH1 0x20 SWAP1 DIV SWAP1 PUSH1 0x0 MSTORE PUSH1 0x20 PUSH1 0x0 KECCAK256 SWAP1 DUP2 ADD SWAP1 PUSH2 0x2949 SWAP2 SWAP1 JUMPDEST DUP1 DUP3 GT ISZERO PUSH2 0x3109 JUMPI PUSH1 0x0 DUP2 SSTORE PUSH1 0x1 ADD PUSH2 0x3226 JUMP JUMPDEST PUSH1 0x0 PUSH1 0x20 DUP3 DUP5 SUB SLT ISZERO PUSH2 0x324C JUMPI PUSH1 0x0 DUP1 REVERT JUMPDEST POP CALLDATALOAD SWAP2 SWAP1 POP JUMP JUMPDEST PUSH1 0x0 JUMPDEST DUP4 DUP2 LT ISZERO PUSH2 0x326E JUMPI DUP2 DUP2 ADD MLOAD DUP4 DUP3 ADD MSTORE PUSH1 0x20 ADD PUSH2 0x3256 JUMP JUMPDEST DUP4 DUP2 GT ISZERO PUSH2 0x11E9 JUMPI POP POP PUSH1 0x0 SWAP2 ADD MSTORE JUMP JUMPDEST PUSH1 0x0 DUP2 MLOAD DUP1 DUP5 MSTORE PUSH2 0x3297 DUP2 PUSH1 0x20 DUP7 ADD PUSH1 0x20 DUP7 ADD PUSH2 0x3253 JUMP JUMPDEST PUSH1 0x1F ADD PUSH1 0x1F NOT AND SWAP3 SWAP1 SWAP3 ADD PUSH1 0x20 ADD SWAP3 SWAP2 POP POP JUMP JUMPDEST PUSH1 0xA0 DUP2 MSTORE PUSH1 0x0 PUSH2 0x32BE PUSH1 0xA0 DUP4 ADD DUP9 PUSH2 0x327F JUMP JUMPDEST PUSH2 0xFFFF SWAP7 SWAP1 SWAP7 AND PUSH1 0x20 DUP4 ADD MSTORE POP PUSH5 0xFFFFFFFFFF SWAP4 DUP5 AND PUSH1 0x40 DUP3 ADD MSTORE SWAP2 DUP4 AND PUSH1 0x60 DUP4 ADD MSTORE SWAP1 SWAP2 AND PUSH1 0x80 SWAP1 SWAP2 ADD MSTORE SWAP2 SWAP1 POP JUMP JUMPDEST PUSH4 0x4E487B71 PUSH1 0xE0 SHL PUSH1 0x0 MSTORE PUSH1 0x41 PUSH1 0x4 MSTORE PUSH1 0x24 PUSH1 0x0 REVERT JUMPDEST PUSH1 0x40 MLOAD PUSH1 0x1F DUP3 ADD PUSH1 0x1F NOT AND DUP2 ADD PUSH1 0x1 PUSH1 0x1 PUSH1 0x40 SHL SUB DUP2 GT DUP3 DUP3 LT OR ISZERO PUSH2 0x332D JUMPI PUSH2 0x332D PUSH2 0x32EF JUMP JUMPDEST PUSH1 0x40 MSTORE SWAP2 SWAP1 POP JUMP JUMPDEST PUSH1 0x0 DUP3 PUSH1 0x1F DUP4 ADD SLT PUSH2 0x3346 JUMPI PUSH1 0x0 DUP1 REVERT JUMPDEST DUP2 CALLDATALOAD PUSH1 0x20 PUSH1 0x1 PUSH1 0x1 PUSH1 0x40 SHL SUB DUP3 GT ISZERO PUSH2 0x3361 JUMPI PUSH2 0x3361 PUSH2 0x32EF JUMP JUMPDEST DUP2 PUSH1 0x5 SHL PUSH2 0x3370 DUP3 DUP3 ADD PUSH2 0x3305 JUMP JUMPDEST SWAP3 DUP4 MSTORE DUP5 DUP2 ADD DUP3 ADD SWAP3 DUP3 DUP2 ADD SWAP1 DUP8 DUP6 GT ISZERO PUSH2 0x338A JUMPI PUSH1 0x0 DUP1 REVERT JUMPDEST DUP4 DUP8 ADD SWAP3 POP JUMPDEST DUP5 DUP4 LT ISZERO PUSH2 0x33A9 JUMPI DUP3 CALLDATALOAD DUP3 MSTORE SWAP2 DUP4 ADD SWAP2 SWAP1 DUP4 ADD SWAP1 PUSH2 0x3390 JUMP JUMPDEST SWAP8 SWAP7 POP POP POP POP POP POP POP JUMP JUMPDEST PUSH1 0x0 DUP1 PUSH1 0x0 PUSH1 0x60 DUP5 DUP7 SUB SLT ISZERO PUSH2 0x33C9 JUMPI PUSH1 0x0 DUP1 REVERT JUMPDEST DUP4 CALLDATALOAD SWAP3 POP PUSH1 0x20 DUP5 ADD CALLDATALOAD PUSH1 0x1 PUSH1 0x1 PUSH1 0x40 SHL SUB DUP2 GT ISZERO PUSH2 0x33E6 JUMPI PUSH1 0x0 DUP1 REVERT JUMPDEST PUSH2 0x33F2 DUP7 DUP3 DUP8 ADD PUSH2 0x3335 JUMP JUMPDEST SWAP3 POP POP PUSH1 0x40 DUP5 ADD CALLDATALOAD DUP1 ISZERO ISZERO DUP2 EQ PUSH2 0x3408 JUMPI PUSH1 0x0 DUP1 REVERT JUMPDEST DUP1 SWAP2 POP POP SWAP3 POP SWAP3 POP SWAP3 JUMP JUMPDEST PUSH1 0x0 PUSH2 0x100 DUP1 DUP4 MSTORE PUSH2 0x3427 DUP2 DUP5 ADD DUP13 PUSH2 0x327F JUMP JUMPDEST SWAP10 ISZERO ISZERO PUSH1 0x20 DUP5 ADD MSTORE POP POP PUSH5 0xFFFFFFFFFF SWAP7 DUP8 AND PUSH1 0x40 DUP3 ADD MSTORE PUSH1 0xFF SWAP6 SWAP1 SWAP6 AND PUSH1 0x60 DUP7 ADD MSTORE PUSH3 0xFFFFFF SWAP4 SWAP1 SWAP4 AND PUSH1 0x80 DUP6 ADD MSTORE SWAP1 DUP5 AND PUSH1 0xA0 DUP5 ADD MSTORE SWAP1 SWAP3 AND PUSH1 0xC0 DUP3 ADD MSTORE PUSH2 0xFFFF SWAP1 SWAP2 AND PUSH1 0xE0 SWAP1 SWAP2 ADD MSTORE SWAP2 SWAP1 POP JUMP JUMPDEST DUP1 CALLDATALOAD PUSH5 0xFFFFFFFFFF DUP2 AND DUP2 EQ PUSH2 0x348D JUMPI PUSH1 0x0 DUP1 REVERT JUMPDEST SWAP2 SWAP1 POP JUMP JUMPDEST PUSH1 0x0 PUSH1 0x20 DUP3 DUP5 SUB SLT ISZERO PUSH2 0x34A4 JUMPI PUSH1 0x0 DUP1 REVERT JUMPDEST PUSH2 0x34AD DUP3 PUSH2 0x3478 JUMP JUMPDEST SWAP4 SWAP3 POP POP POP JUMP JUMPDEST PUSH1 0x0 PUSH2 0x140 DUP3 MLOAD DUP2 DUP6 MSTORE PUSH2 0x34CA DUP3 DUP7 ADD DUP3 PUSH2 0x327F JUMP JUMPDEST SWAP2 POP POP PUSH1 0x20 DUP4 ADD MLOAD PUSH2 0x34E5 PUSH1 0x20 DUP7 ADD DUP3 PUSH5 0xFFFFFFFFFF AND SWAP1 MSTORE JUMP JUMPDEST POP PUSH1 0x40 DUP4 ADD MLOAD PUSH1 0x40 DUP6 ADD MSTORE PUSH1 0x60 DUP4 ADD MLOAD PUSH1 0x60 DUP6 ADD MSTORE PUSH1 0x80 DUP4 ADD MLOAD PUSH2 0x350E PUSH1 0x80 DUP7 ADD DUP3 PUSH1 0xFF AND SWAP1 MSTORE JUMP JUMPDEST POP PUSH1 0xA0 DUP4 ADD MLOAD PUSH2 0x3525 PUSH1 0xA0 DUP7 ADD DUP3 PUSH3 0xFFFFFF AND SWAP1 MSTORE JUMP JUMPDEST POP PUSH1 0xC0 DUP4 ADD MLOAD PUSH2 0x3540 PUSH1 0xC0 DUP7 ADD DUP3 PUSH1 0x1 PUSH1 0x1 PUSH1 0x50 SHL SUB AND SWAP1 MSTORE JUMP JUMPDEST POP PUSH1 0xE0 DUP4 ADD MLOAD PUSH2 0x3556 PUSH1 0xE0 DUP7 ADD DUP3 PUSH2 0xFFFF AND SWAP1 MSTORE JUMP JUMPDEST POP PUSH2 0x100 DUP4 DUP2 ADD MLOAD PUSH2 0xFFFF AND SWAP1 DUP6 ADD MSTORE PUSH2 0x120 DUP1 DUP5 ADD MLOAD PUSH5 0xFFFFFFFFFF DUP2 AND DUP3 DUP8 ADD MSTORE PUSH2 0x1A3E JUMP JUMPDEST PUSH1 0x0 PUSH1 0x40 DUP3 ADD PUSH1 0x40 DUP4 MSTORE DUP1 DUP6 MLOAD DUP1 DUP4 MSTORE PUSH1 0x60 DUP6 ADD SWAP2 POP PUSH1 0x60 DUP2 PUSH1 0x5 SHL DUP7 ADD ADD SWAP3 POP PUSH1 0x20 DUP1 DUP9 ADD PUSH1 0x0 JUMPDEST DUP4 DUP2 LT ISZERO PUSH2 0x35D5 JUMPI PUSH1 0x5F NOT DUP9 DUP8 SUB ADD DUP6 MSTORE PUSH2 0x35C3 DUP7 DUP4 MLOAD PUSH2 0x34B4 JUMP JUMPDEST SWAP6 POP SWAP4 DUP3 ADD SWAP4 SWAP1 DUP3 ADD SWAP1 PUSH1 0x1 ADD PUSH2 0x35A7 JUMP JUMPDEST POP POP DUP6 DUP5 SUB DUP2 DUP8 ADD MSTORE DUP7 MLOAD DUP1 DUP6 MSTORE DUP8 DUP3 ADD SWAP5 DUP3 ADD SWAP4 POP SWAP2 POP PUSH1 0x0 JUMPDEST DUP3 DUP2 LT ISZERO PUSH2 0x360C JUMPI DUP5 MLOAD DUP5 MSTORE SWAP4 DUP2 ADD SWAP4 SWAP3 DUP2 ADD SWAP3 PUSH1 0x1 ADD PUSH2 0x35F0 JUMP JUMPDEST POP SWAP2 SWAP8 SWAP7 POP POP POP POP POP POP POP JUMP JUMPDEST PUSH1 0x0 DUP1 DUP4 PUSH1 0x1F DUP5 ADD SLT PUSH2 0x362B JUMPI PUSH1 0x0 DUP1 REVERT JUMPDEST POP DUP2 CALLDATALOAD PUSH1 0x1 PUSH1 0x1 PUSH1 0x40 SHL SUB DUP2 GT ISZERO PUSH2 0x3642 JUMPI PUSH1 0x0 DUP1 REVERT JUMPDEST PUSH1 0x20 DUP4 ADD SWAP2 POP DUP4 PUSH1 0x20 DUP3 DUP6 ADD ADD GT ISZERO PUSH2 0x365A JUMPI PUSH1 0x0 DUP1 REVERT JUMPDEST SWAP3 POP SWAP3 SWAP1 POP JUMP JUMPDEST DUP1 CALLDATALOAD PUSH3 0xFFFFFF DUP2 AND DUP2 EQ PUSH2 0x348D JUMPI PUSH1 0x0 DUP1 REVERT JUMPDEST DUP1 CALLDATALOAD PUSH2 0xFFFF DUP2 AND DUP2 EQ PUSH2 0x348D JUMPI PUSH1 0x0 DUP1 REVERT JUMPDEST PUSH1 0x0 DUP1 PUSH1 0x0 DUP1 PUSH1 0x0 DUP1 PUSH1 0x0 PUSH1 0xC0 DUP9 DUP11 SUB SLT ISZERO PUSH2 0x36A1 JUMPI PUSH1 0x0 DUP1 REVERT JUMPDEST DUP8 CALLDATALOAD PUSH1 0x1 PUSH1 0x1 PUSH1 0x40 SHL SUB DUP2 GT ISZERO PUSH2 0x36B7 JUMPI PUSH1 0x0 DUP1 REVERT JUMPDEST PUSH2 0x36C3 DUP11 DUP3 DUP12 ADD PUSH2 0x3619 JUMP JUMPDEST SWAP1 SWAP9 POP SWAP7 POP POP PUSH1 0x20 DUP9 ADD CALLDATALOAD PUSH1 0xFF DUP2 AND DUP2 EQ PUSH2 0x36DD JUMPI PUSH1 0x0 DUP1 REVERT JUMPDEST SWAP5 POP PUSH2 0x36EB PUSH1 0x40 DUP10 ADD PUSH2 0x3661 JUMP JUMPDEST SWAP4 POP PUSH2 0x36F9 PUSH1 0x60 DUP10 ADD PUSH2 0x3478 JUMP JUMPDEST SWAP3 POP PUSH2 0x3707 PUSH1 0x80 DUP10 ADD PUSH2 0x3478 JUMP JUMPDEST SWAP2 POP PUSH2 0x3715 PUSH1 0xA0 DUP10 ADD PUSH2 0x3674 JUMP JUMPDEST SWAP1 POP SWAP3 SWAP6 SWAP9 SWAP2 SWAP5 SWAP8 POP SWAP3 SWAP6 POP JUMP JUMPDEST PUSH1 0x0 DUP1 PUSH1 0x40 DUP4 DUP6 SUB SLT ISZERO PUSH2 0x3736 JUMPI PUSH1 0x0 DUP1 REVERT JUMPDEST POP POP DUP1 CALLDATALOAD SWAP3 PUSH1 0x20 SWAP1 SWAP2 ADD CALLDATALOAD SWAP2 POP JUMP JUMPDEST PUSH1 0x1 PUSH1 0x1 PUSH1 0xA0 SHL SUB DUP2 AND DUP2 EQ PUSH2 0x2949 JUMPI PUSH1 0x0 DUP1 REVERT JUMPDEST PUSH1 0x0 PUSH1 0x20 DUP3 DUP5 SUB SLT ISZERO PUSH2 0x376C JUMPI PUSH1 0x0 DUP1 REVERT JUMPDEST DUP2 CALLDATALOAD PUSH2 0x34AD DUP2 PUSH2 0x3745 JUMP JUMPDEST PUSH1 0x0 DUP3 PUSH1 0x1F DUP4 ADD SLT PUSH2 0x3788 JUMPI PUSH1 0x0 DUP1 REVERT JUMPDEST DUP2 CALLDATALOAD PUSH1 0x1 PUSH1 0x1 PUSH1 0x40 SHL SUB DUP2 GT ISZERO PUSH2 0x37A1 JUMPI PUSH2 0x37A1 PUSH2 0x32EF JUMP JUMPDEST PUSH2 0x37B4 PUSH1 0x1F DUP3 ADD PUSH1 0x1F NOT AND PUSH1 0x20 ADD PUSH2 0x3305 JUMP JUMPDEST DUP2 DUP2 MSTORE DUP5 PUSH1 0x20 DUP4 DUP7 ADD ADD GT ISZERO PUSH2 0x37C9 JUMPI PUSH1 0x0 DUP1 REVERT JUMPDEST DUP2 PUSH1 0x20 DUP6 ADD PUSH1 0x20 DUP4 ADD CALLDATACOPY PUSH1 0x0 SWAP2 DUP2 ADD PUSH1 0x20 ADD SWAP2 SWAP1 SWAP2 MSTORE SWAP4 SWAP3 POP POP POP JUMP JUMPDEST PUSH1 0x0 DUP1 PUSH1 0x0 PUSH1 0x60 DUP5 DUP7 SUB SLT ISZERO PUSH2 0x37FB JUMPI PUSH1 0x0 DUP1 REVERT JUMPDEST DUP4 CALLDATALOAD PUSH1 0x1 PUSH1 0x1 PUSH1 0x40 SHL SUB DUP2 GT ISZERO PUSH2 0x3811 JUMPI PUSH1 0x0 DUP1 REVERT JUMPDEST PUSH2 0x381D DUP7 DUP3 DUP8 ADD PUSH2 0x3777 JUMP JUMPDEST SWAP4 POP POP PUSH1 0x20 DUP5 ADD CALLDATALOAD SWAP2 POP PUSH2 0x3833 PUSH1 0x40 DUP6 ADD PUSH2 0x3478 JUMP JUMPDEST SWAP1 POP SWAP3 POP SWAP3 POP SWAP3 JUMP JUMPDEST PUSH1 0x0 DUP1 PUSH1 0x0 PUSH1 0x60 DUP5 DUP7 SUB SLT ISZERO PUSH2 0x3851 JUMPI PUSH1 0x0 DUP1 REVERT JUMPDEST POP POP DUP2 CALLDATALOAD SWAP4 PUSH1 0x20 DUP4 ADD CALLDATALOAD SWAP4 POP PUSH1 0x40 SWAP1 SWAP3 ADD CALLDATALOAD SWAP2 SWAP1 POP JUMP JUMPDEST PUSH1 0x0 PUSH2 0x140 DUP1 DUP4 MSTORE PUSH2 0x387C DUP2 DUP5 ADD DUP15 PUSH2 0x327F JUMP JUMPDEST PUSH5 0xFFFFFFFFFF SWAP13 DUP14 AND PUSH1 0x20 DUP6 ADD MSTORE PUSH1 0x40 DUP5 ADD SWAP12 SWAP1 SWAP12 MSTORE POP POP PUSH1 0x60 DUP2 ADD SWAP8 SWAP1 SWAP8 MSTORE PUSH1 0xFF SWAP6 SWAP1 SWAP6 AND PUSH1 0x80 DUP8 ADD MSTORE PUSH3 0xFFFFFF SWAP4 SWAP1 SWAP4 AND PUSH1 0xA0 DUP7 ADD MSTORE PUSH1 0x1 PUSH1 0x1 PUSH1 0x50 SHL SUB SWAP2 SWAP1 SWAP2 AND PUSH1 0xC0 DUP6 ADD MSTORE PUSH2 0xFFFF SWAP1 DUP2 AND PUSH1 0xE0 DUP6 ADD MSTORE AND PUSH2 0x100 DUP4 ADD MSTORE SWAP1 SWAP3 AND PUSH2 0x120 SWAP1 SWAP3 ADD SWAP2 SWAP1 SWAP2 MSTORE SWAP2 SWAP1 POP JUMP JUMPDEST PUSH1 0x20 DUP2 MSTORE PUSH1 0x0 PUSH2 0x34AD PUSH1 0x20 DUP4 ADD DUP5 PUSH2 0x34B4 JUMP JUMPDEST PUSH1 0x0 PUSH1 0x20 DUP1 DUP4 ADD DUP2 DUP5 MSTORE DUP1 DUP6 MLOAD DUP1 DUP4 MSTORE PUSH1 0x40 DUP7 ADD SWAP2 POP PUSH1 0x40 DUP2 PUSH1 0x5 SHL DUP8 ADD ADD SWAP3 POP DUP4 DUP8 ADD PUSH1 0x0 JUMPDEST DUP3 DUP2 LT ISZERO PUSH2 0x3951 JUMPI PUSH1 0x3F NOT DUP9 DUP7 SUB ADD DUP5 MSTORE PUSH2 0x393F DUP6 DUP4 MLOAD PUSH2 0x327F JUMP JUMPDEST SWAP5 POP SWAP3 DUP6 ADD SWAP3 SWAP1 DUP6 ADD SWAP1 PUSH1 0x1 ADD PUSH2 0x3923 JUMP JUMPDEST POP SWAP3 SWAP8 SWAP7 POP POP POP POP POP POP POP JUMP JUMPDEST PUSH1 0x0 DUP1 PUSH1 0x0 DUP1 PUSH1 0x0 DUP1 PUSH1 0x0 PUSH1 0xC0 DUP9 DUP11 SUB SLT ISZERO PUSH2 0x3979 JUMPI PUSH1 0x0 DUP1 REVERT JUMPDEST DUP8 CALLDATALOAD PUSH1 0x1 PUSH1 0x1 PUSH1 0x40 SHL SUB DUP2 GT ISZERO PUSH2 0x398F JUMPI PUSH1 0x0 DUP1 REVERT JUMPDEST PUSH2 0x399B DUP11 DUP3 DUP12 ADD PUSH2 0x3619 JUMP JUMPDEST SWAP1 SWAP9 POP SWAP7 POP PUSH2 0x36DD SWAP1 POP PUSH1 0x20 DUP10 ADD PUSH2 0x3674 JUMP JUMPDEST PUSH1 0x0 DUP1 PUSH1 0x0 PUSH1 0x60 DUP5 DUP7 SUB SLT ISZERO PUSH2 0x39C3 JUMPI PUSH1 0x0 DUP1 REVERT JUMPDEST DUP4 CALLDATALOAD SWAP3 POP PUSH1 0x20 DUP5 ADD CALLDATALOAD SWAP2 POP PUSH1 0x40 DUP5 ADD CALLDATALOAD PUSH1 0x1 PUSH1 0x1 PUSH1 0x40 SHL SUB DUP2 GT ISZERO PUSH2 0x39E7 JUMPI PUSH1 0x0 DUP1 REVERT JUMPDEST PUSH2 0x39F3 DUP7 DUP3 DUP8 ADD PUSH2 0x3335 JUMP JUMPDEST SWAP2 POP POP SWAP3 POP SWAP3 POP SWAP3 JUMP JUMPDEST PUSH1 0x0 PUSH1 0x20 DUP3 DUP5 SUB SLT ISZERO PUSH2 0x3A0F JUMPI PUSH1 0x0 DUP1 REVERT JUMPDEST DUP2 CALLDATALOAD PUSH1 0x1 PUSH1 0x1 PUSH1 0x40 SHL SUB DUP2 GT ISZERO PUSH2 0x3A25 JUMPI PUSH1 0x0 DUP1 REVERT JUMPDEST PUSH2 0x3A31 DUP5 DUP3 DUP6 ADD PUSH2 0x3777 JUMP JUMPDEST SWAP5 SWAP4 POP POP POP POP JUMP JUMPDEST PUSH1 0x20 DUP1 DUP3 MSTORE DUP3 MLOAD DUP3 DUP3 ADD DUP2 SWAP1 MSTORE PUSH1 0x0 SWAP2 SWAP1 DUP5 DUP3 ADD SWAP1 PUSH1 0x40 DUP6 ADD SWAP1 DUP5 JUMPDEST DUP2 DUP2 LT ISZERO PUSH2 0x3A75 JUMPI DUP4 MLOAD PUSH2 0xFFFF AND DUP4 MSTORE SWAP3 DUP5 ADD SWAP3 SWAP2 DUP5 ADD SWAP2 PUSH1 0x1 ADD PUSH2 0x3A55 JUMP JUMPDEST POP SWAP1 SWAP7 SWAP6 POP POP POP POP POP POP JUMP JUMPDEST PUSH1 0x1 DUP2 DUP2 SHR SWAP1 DUP3 AND DUP1 PUSH2 0x3A95 JUMPI PUSH1 0x7F DUP3 AND SWAP2 POP JUMPDEST PUSH1 0x20 DUP3 LT DUP2 SUB PUSH2 0x3AB5 JUMPI PUSH4 0x4E487B71 PUSH1 0xE0 SHL PUSH1 0x0 MSTORE PUSH1 0x22 PUSH1 0x4 MSTORE PUSH1 0x24 PUSH1 0x0 REVERT JUMPDEST POP SWAP2 SWAP1 POP JUMP JUMPDEST PUSH4 0x4E487B71 PUSH1 0xE0 SHL PUSH1 0x0 MSTORE PUSH1 0x32 PUSH1 0x4 MSTORE PUSH1 0x24 PUSH1 0x0 REVERT JUMPDEST DUP2 MLOAD PUSH1 0x0 SWAP1 DUP3 SWAP1 PUSH1 0x20 DUP1 DUP7 ADD DUP5 JUMPDEST DUP4 DUP2 LT ISZERO PUSH2 0x3AFB JUMPI DUP2 MLOAD DUP6 MSTORE SWAP4 DUP3 ADD SWAP4 SWAP1 DUP3 ADD SWAP1 PUSH1 0x1 ADD PUSH2 0x3ADF JUMP JUMPDEST POP SWAP3 SWAP7 SWAP6 POP POP POP POP POP POP JUMP JUMPDEST DUP5 DUP2 MSTORE DUP4 ISZERO ISZERO PUSH1 0x20 DUP3 ADD MSTORE DUP3 PUSH1 0x40 DUP3 ADD MSTORE PUSH1 0x80 PUSH1 0x60 DUP3 ADD MSTORE PUSH1 0x0 PUSH2 0x3B2E PUSH1 0x80 DUP4 ADD DUP5 PUSH2 0x327F JUMP JUMPDEST SWAP7 SWAP6 POP POP POP POP POP POP JUMP JUMPDEST PUSH1 0x20 DUP1 DUP3 MSTORE DUP2 DUP2 ADD MSTORE PUSH32 0x4F776E61626C653A2063616C6C6572206973206E6F7420746865206F776E6572 PUSH1 0x40 DUP3 ADD MSTORE PUSH1 0x60 ADD SWAP1 JUMP JUMPDEST PUSH1 0x20 DUP2 MSTORE PUSH1 0x0 PUSH2 0x34AD PUSH1 0x20 DUP4 ADD DUP5 PUSH2 0x327F JUMP JUMPDEST PUSH1 0x0 DUP2 SLOAD PUSH2 0x3B8D DUP2 PUSH2 0x3A81 JUMP JUMPDEST DUP1 DUP6 MSTORE PUSH1 0x20 PUSH1 0x1 DUP4 DUP2 AND DUP1 ISZERO PUSH2 0x3BAA JUMPI PUSH1 0x1 DUP2 EQ PUSH2 0x3BC4 JUMPI PUSH2 0x3BF2 JUMP JUMPDEST PUSH1 0xFF NOT DUP6 AND DUP9 DUP5 ADD MSTORE DUP4 ISZERO ISZERO PUSH1 0x5 SHL DUP9 ADD DUP4 ADD SWAP6 POP PUSH2 0x3BF2 JUMP JUMPDEST DUP7 PUSH1 0x0 MSTORE DUP3 PUSH1 0x0 KECCAK256 PUSH1 0x0 JUMPDEST DUP6 DUP2 LT ISZERO PUSH2 0x3BEA JUMPI DUP2 SLOAD DUP11 DUP3 ADD DUP7 ADD MSTORE SWAP1 DUP4 ADD SWAP1 DUP5 ADD PUSH2 0x3BCF JUMP JUMPDEST DUP10 ADD DUP5 ADD SWAP7 POP POP JUMPDEST POP POP POP POP POP SWAP3 SWAP2 POP POP JUMP JUMPDEST PUSH1 0x20 DUP2 MSTORE PUSH1 0x0 PUSH2 0x34AD PUSH1 0x20 DUP4 ADD DUP5 PUSH2 0x3B80 JUMP JUMPDEST PUSH1 0x1F DUP3 GT ISZERO PUSH2 0x3C5A JUMPI PUSH1 0x0 DUP2 DUP2 MSTORE PUSH1 0x20 DUP2 KECCAK256 PUSH1 0x1F DUP6 ADD PUSH1 0x5 SHR DUP2 ADD PUSH1 0x20 DUP7 LT ISZERO PUSH2 0x3C37 JUMPI POP DUP1 JUMPDEST PUSH1 0x1F DUP6 ADD PUSH1 0x5 SHR DUP3 ADD SWAP2 POP JUMPDEST DUP2 DUP2 LT ISZERO PUSH2 0x3C56 JUMPI DUP3 DUP2 SSTORE PUSH1 0x1 ADD PUSH2 0x3C43 JUMP JUMPDEST POP POP POP JUMPDEST POP POP POP JUMP JUMPDEST DUP2 MLOAD PUSH1 0x1 PUSH1 0x1 PUSH1 0x40 SHL SUB DUP2 GT ISZERO PUSH2 0x3C78 JUMPI PUSH2 0x3C78 PUSH2 0x32EF JUMP JUMPDEST PUSH2 0x3C8C DUP2 PUSH2 0x3C86 DUP5 SLOAD PUSH2 0x3A81 JUMP JUMPDEST DUP5 PUSH2 0x3C10 JUMP JUMPDEST PUSH1 0x20 DUP1 PUSH1 0x1F DUP4 GT PUSH1 0x1 DUP2 EQ PUSH2 0x3CC1 JUMPI PUSH1 0x0 DUP5 ISZERO PUSH2 0x3CA9 JUMPI POP DUP6 DUP4 ADD MLOAD JUMPDEST PUSH1 0x0 NOT PUSH1 0x3 DUP7 SWAP1 SHL SHR NOT AND PUSH1 0x1 DUP6 SWAP1 SHL OR DUP6 SSTORE PUSH2 0x3C56 JUMP JUMPDEST PUSH1 0x0 DUP6 DUP2 MSTORE PUSH1 0x20 DUP2 KECCAK256 PUSH1 0x1F NOT DUP7 AND SWAP2 JUMPDEST DUP3 DUP2 LT ISZERO PUSH2 0x3CF0 JUMPI DUP9 DUP7 ADD MLOAD DUP3 SSTORE SWAP5 DUP5 ADD SWAP5 PUSH1 0x1 SWAP1 SWAP2 ADD SWAP1 DUP5 ADD PUSH2 0x3CD1 JUMP JUMPDEST POP DUP6 DUP3 LT ISZERO PUSH2 0x3D0E JUMPI DUP8 DUP6 ADD MLOAD PUSH1 0x0 NOT PUSH1 0x3 DUP9 SWAP1 SHL PUSH1 0xF8 AND SHR NOT AND DUP2 SSTORE JUMPDEST POP POP POP POP POP PUSH1 0x1 SWAP1 DUP2 SHL ADD SWAP1 SSTORE POP JUMP JUMPDEST PUSH4 0x4E487B71 PUSH1 0xE0 SHL PUSH1 0x0 MSTORE PUSH1 0x11 PUSH1 0x4 MSTORE PUSH1 0x24 PUSH1 0x0 REVERT JUMPDEST PUSH1 0x0 DUP3 NOT DUP3 GT ISZERO PUSH2 0x3D47 JUMPI PUSH2 0x3D47 PUSH2 0x3D1E JUMP JUMPDEST POP ADD SWAP1 JUMP JUMPDEST PUSH1 0x0 PUSH2 0xFFFF DUP4 DUP2 AND SWAP1 DUP4 AND DUP2 DUP2 LT ISZERO PUSH2 0x3D67 JUMPI PUSH2 0x3D67 PUSH2 0x3D1E JUMP JUMPDEST SUB SWAP4 SWAP3 POP POP POP JUMP JUMPDEST PUSH1 0x0 DUP3 DUP3 LT ISZERO PUSH2 0x3D81 JUMPI PUSH2 0x3D81 PUSH2 0x3D1E JUMP JUMPDEST POP SUB SWAP1 JUMP JUMPDEST PUSH5 0xFFFFFFFFFF DUP6 AND DUP2 MSTORE DUP4 PUSH1 0x20 DUP3 ADD MSTORE PUSH1 0x80 PUSH1 0x40 DUP3 ADD MSTORE PUSH1 0x0 PUSH2 0x3DAC PUSH1 0x80 DUP4 ADD DUP6 PUSH2 0x327F JUMP JUMPDEST SWAP1 POP DUP3 PUSH1 0x60 DUP4 ADD MSTORE SWAP6 SWAP5 POP POP POP POP POP JUMP JUMPDEST PUSH1 0x0 PUSH1 0x1 DUP3 ADD PUSH2 0x3DCF JUMPI PUSH2 0x3DCF PUSH2 0x3D1E JUMP JUMPDEST POP PUSH1 0x1 ADD SWAP1 JUMP JUMPDEST PUSH1 0x0 PUSH1 0x20 DUP3 DUP5 SUB SLT ISZERO PUSH2 0x3DE8 JUMPI PUSH1 0x0 DUP1 REVERT JUMPDEST DUP2 MLOAD PUSH2 0x34AD DUP2 PUSH2 0x3745 JUMP JUMPDEST PUSH1 0x1 PUSH1 0x1 PUSH1 0x40 SHL SUB DUP4 GT ISZERO PUSH2 0x3E0A JUMPI PUSH2 0x3E0A PUSH2 0x32EF JUMP JUMPDEST PUSH2 0x3E1E DUP4 PUSH2 0x3E18 DUP4 SLOAD PUSH2 0x3A81 JUMP JUMPDEST DUP4 PUSH2 0x3C10 JUMP JUMPDEST PUSH1 0x0 PUSH1 0x1F DUP5 GT PUSH1 0x1 DUP2 EQ PUSH2 0x3E52 JUMPI PUSH1 0x0 DUP6 ISZERO PUSH2 0x3E3A JUMPI POP DUP4 DUP3 ADD CALLDATALOAD JUMPDEST PUSH1 0x0 NOT PUSH1 0x3 DUP8 SWAP1 SHL SHR NOT AND PUSH1 0x1 DUP7 SWAP1 SHL OR DUP4 SSTORE PUSH2 0x1E8D JUMP JUMPDEST PUSH1 0x0 DUP4 DUP2 MSTORE PUSH1 0x20 SWAP1 KECCAK256 PUSH1 0x1F NOT DUP7 AND SWAP1 DUP4 JUMPDEST DUP3 DUP2 LT ISZERO PUSH2 0x3E83 JUMPI DUP7 DUP6 ADD CALLDATALOAD DUP3 SSTORE PUSH1 0x20 SWAP5 DUP6 ADD SWAP5 PUSH1 0x1 SWAP1 SWAP3 ADD SWAP2 ADD PUSH2 0x3E63 JUMP JUMPDEST POP DUP7 DUP3 LT ISZERO PUSH2 0x3EA0 JUMPI PUSH1 0x0 NOT PUSH1 0xF8 DUP9 PUSH1 0x3 SHL AND SHR NOT DUP5 DUP8 ADD CALLDATALOAD AND DUP2 SSTORE JUMPDEST POP POP PUSH1 0x1 DUP6 PUSH1 0x1 SHL ADD DUP4 SSTORE POP POP POP POP POP JUMP JUMPDEST DUP4 DUP2 MSTORE DUP3 PUSH1 0x20 DUP3 ADD MSTORE PUSH1 0x60 PUSH1 0x40 DUP3 ADD MSTORE PUSH1 0x0 PUSH2 0x140 DUP1 PUSH1 0x60 DUP5 ADD MSTORE PUSH2 0x3EDB PUSH2 0x1A0 DUP5 ADD DUP6 PUSH2 0x3B80 JUMP JUMPDEST PUSH1 0x1 DUP6 ADD SLOAD PUSH5 0xFFFFFFFFFF AND PUSH5 0xFFFFFFFFFF DUP2 AND PUSH1 0x80 DUP7 ADD MSTORE POP PUSH1 0x2 DUP6 ADD SLOAD PUSH1 0xA0 DUP6 ADD MSTORE PUSH1 0x3 DUP6 ADD SLOAD PUSH1 0xC0 DUP6 ADD MSTORE PUSH1 0x4 DUP6 ADD SLOAD PUSH1 0xFF DUP2 AND PUSH1 0xE0 DUP7 ADD MSTORE PUSH1 0x8 DUP2 SWAP1 SHR PUSH3 0xFFFFFF AND PUSH2 0x100 DUP7 ADD MSTORE PUSH1 0x20 DUP2 SWAP1 SHR PUSH1 0x1 PUSH1 0x1 PUSH1 0x50 SHL SUB AND PUSH2 0x120 DUP7 ADD MSTORE PUSH2 0xFFFF PUSH1 0x70 DUP3 SWAP1 SHR DUP2 AND DUP5 DUP8 ADD MSTORE PUSH2 0x3F5F PUSH2 0x160 DUP8 ADD DUP3 DUP5 PUSH1 0x80 SHR AND PUSH2 0xFFFF AND SWAP1 MSTORE JUMP JUMPDEST POP PUSH1 0x90 DUP2 SWAP1 SHR PUSH5 0xFFFFFFFFFF AND PUSH2 0x180 DUP7 ADD MSTORE POP SWAP7 SWAP6 POP POP POP POP POP POP JUMP JUMPDEST PUSH1 0x0 PUSH1 0x1 PUSH1 0x1 PUSH1 0x50 SHL SUB DUP1 DUP5 AND DUP1 PUSH2 0x3FA5 JUMPI PUSH4 0x4E487B71 PUSH1 0xE0 SHL PUSH1 0x0 MSTORE PUSH1 0x12 PUSH1 0x4 MSTORE PUSH1 0x24 PUSH1 0x0 REVERT JUMPDEST SWAP3 AND SWAP2 SWAP1 SWAP2 DIV SWAP3 SWAP2 POP POP JUMP JUMPDEST PUSH1 0x20 DUP1 DUP3 MSTORE PUSH1 0x14 SWAP1 DUP3 ADD MSTORE PUSH20 0x2330B4B632B2103A379039B2B7321022BA3432B9 PUSH1 0x61 SHL PUSH1 0x40 DUP3 ADD MSTORE PUSH1 0x60 ADD SWAP1 JUMP JUMPDEST PUSH1 0x0 DUP1 DUP3 SLT DUP1 ISZERO PUSH1 0x1 PUSH1 0x1 PUSH1 0xFF SHL SUB DUP5 SWAP1 SUB DUP6 SGT AND ISZERO PUSH2 0x4001 JUMPI PUSH2 0x4001 PUSH2 0x3D1E JUMP JUMPDEST PUSH1 0x1 PUSH1 0xFF SHL DUP4 SWAP1 SUB DUP5 SLT DUP2 AND ISZERO PUSH2 0x401A JUMPI PUSH2 0x401A PUSH2 0x3D1E JUMP JUMPDEST POP POP ADD SWAP1 JUMP JUMPDEST PUSH1 0x0 DUP3 MLOAD PUSH2 0x4032 DUP2 DUP5 PUSH1 0x20 DUP8 ADD PUSH2 0x3253 JUMP JUMPDEST SWAP2 SWAP1 SWAP2 ADD SWAP3 SWAP2 POP POP JUMP JUMPDEST PUSH1 0x0 DUP1 DUP4 SLOAD PUSH2 0x404A DUP2 PUSH2 0x3A81 JUMP JUMPDEST PUSH1 0x1 DUP3 DUP2 AND DUP1 ISZERO PUSH2 0x4062 JUMPI PUSH1 0x1 DUP2 EQ PUSH2 0x4077 JUMPI PUSH2 0x3AFB JUMP JUMPDEST PUSH1 0xFF NOT DUP5 AND DUP8 MSTORE DUP3 ISZERO ISZERO DUP4 MUL DUP8 ADD SWAP5 POP PUSH2 0x3AFB JUMP JUMPDEST DUP8 PUSH1 0x0 MSTORE PUSH1 0x20 DUP1 PUSH1 0x0 KECCAK256 PUSH1 0x0 JUMPDEST DUP6 DUP2 LT ISZERO PUSH2 0x409D JUMPI DUP2 SLOAD DUP11 DUP3 ADD MSTORE SWAP1 DUP5 ADD SWAP1 DUP3 ADD PUSH2 0x4084 JUMP JUMPDEST POP POP POP SWAP6 SWAP1 SWAP2 ADD SWAP7 SWAP6 POP POP POP POP POP POP JUMP JUMPDEST PUSH1 0xE0 DUP2 MSTORE DUP8 PUSH1 0xE0 DUP3 ADD MSTORE PUSH1 0x0 PUSH2 0x100 DUP10 DUP12 DUP3 DUP6 ADD CALLDATACOPY PUSH1 0x0 DUP11 DUP5 ADD DUP3 ADD MSTORE PUSH5 0xFFFFFFFFFF SWAP9 DUP10 AND PUSH1 0x20 DUP5 ADD MSTORE PUSH1 0xFF SWAP8 SWAP1 SWAP8 AND PUSH1 0x40 DUP4 ADD MSTORE POP PUSH3 0xFFFFFF SWAP5 SWAP1 SWAP5 AND PUSH1 0x60 DUP6 ADD MSTORE SWAP2 DUP6 AND PUSH1 0x80 DUP5 ADD MSTORE SWAP1 SWAP4 AND PUSH1 0xA0 DUP3 ADD MSTORE PUSH2 0xFFFF SWAP1 SWAP3 AND PUSH1 0xC0 DUP4 ADD MSTORE PUSH1 0x1F SWAP1 SWAP3 ADD PUSH1 0x1F NOT AND ADD ADD SWAP2 SWAP1 POP JUMP INVALID LOG2 PUSH5 0x6970667358 0x22 SLT KECCAK256 PUSH17 0x686616F06CD80D8B1F82C5FBD7293739AC CALLDATACOPY 0xAB 0x2E SLOAD 0xE5 SWAP13 CALLDATALOAD LOG1 0x26 CALLDATACOPY 0xBF 0xA5 DUP4 0xC7 PUSH5 0x736F6C6343 STOP ADDMOD 0xF STOP CALLER ",
  "sha1": "07c79120456d9efc089c408fca8219a39268dd2c",
  "source": "pragma solidity 0.8.15;\n// SPDX-License-Identifier: Unlicensed\n\nimport \"./wizards.sol\";\nimport \"./interfaces/IERC20.sol\";\nimport \"./interfaces/IERC165.sol\";\nimport \"./interfaces/IERC721.sol\";\nimport \"./interfaces/IERC721Enumerable.sol\";\n//import \"./helpers/base64.sol\";\nimport './helpers/ERC721A.sol';\nimport './helpers/ERC721.sol';\nimport './helpers/ERC165.sol';\nimport './helpers/Ownable.sol';\nimport './helpers/Context.sol';\nimport './helpers/ReentrancyGuard.sol';\nimport './helpers/ERC2981Collection.sol';\nimport './libraries/Strings.sol';\nimport './libraries/Address.sol';\nimport {DoubleEndedQueue} from \"@openzeppelin/contracts/utils/structs/DoubleEndedQueue.sol\";\n\n//contract BMMultipass is ERC721Enumerable, ReentrancyGuard, Ownable {\ncontract Governance is ReentrancyGuard, Ownable {\n\n//    IERC20  ecosystemTokens;\n    Wizards wizardsNFT;\n\n    // the value stored here is shifted over by one because 0 means no vote, 1 means voting for slot 0\n    mapping (uint256 => mapping (uint256 => uint256)) public proposalToNFTVotes;\n\n    // used to find active tasks\n    struct TaskType {\n        mapping (uint40 => uint256) nextActiveTimeThreshold; // for recurring tasks -- todo -- add waitTime or ...\n        string IPFSHash; // holds description\n        bool paused;\n        uint40 proposalID; // proposal ID or 0 if task\n        uint8 numFieldsToHash;\n        uint24 timeBonus;\n        uint40 begTimestamp;\n        uint40 endTimestamp;\n        uint16 availableSlots;\n    }\n\n    // include parent???\n    struct Task {\n        string IPFSHash; // holds description\n        uint40 NFTID; // wizard ID of who is assigned task\n        bytes32 hash; // hashed input to be validated\n        bytes32 refuterHash; // correct hash according to refuter\n        uint8 numFieldsToHash; // input fields\n        uint24 timeBonus; // increases Wizard's activation time, in seconds\n//        uint8 strikes; // number of times confirmation has failed, use existence of refuterID\n        uint80 payment; //\n        uint16 verifierID; // wizardId of Verifier\n        uint16 refuterID; // wizardId of Verifier\n        uint40 verificationReservedTimestamp; // time when verification period ends\n    }\n\n    struct Proposal {\n        string IPFSHash;\n        uint16 numberOfOptions;\n        uint16[8] votes;\n        uint40 totalVotes;\n        uint40 begTimestamp;\n        uint40 endTimestamp;\n    }\n\n\n\n    TaskType[] public taskTypes; // we must keep task types low in quantity to avoid gas issues\n\n    // todo -- these should be dequeues\n    DoubleEndedQueue.Bytes32Deque public tasksWaitingConfirmation;\n//    uint256[] public tasksVerifying; // reduce size?\n\n//    DoubleEndedQueue.Bytes32Deque  public myQueue;\n\n    mapping (uint256 => Proposal) public proposals;\n    uint256 totalProposals;\n\n    mapping (uint256 => Task) public tasks;\n    uint256 public totalTasksAttempted;\n\n    // todo -- Adjustable\n    uint256 verificationTime = 10*60; // 10 minutes\n    uint256 taskVerificationTimeBonus = 1 days; // 1 day\n\n    event VerificationAssigned(uint256 wizardId, uint256 taskId, Task myTask);\n    event VerificationFailed(uint256 VerifierIdFirst, uint256 VerifierIdSecond, uint256 taskId);\n    event VerificationSucceeded(uint256 taskDoer, uint256 Verifier, uint256 taskId, bytes32 hash, bool isHashCorrect);\n    event HashTesting(bytes32 hash, bool isHashCorrect, bytes32 firstEncoded, bytes firstUnencoded);\n    event NewTaskTypeCreated(string _IPFSHash,uint40 _proposalID, uint8 _numFieldsToHash, uint24 _timeBonus,\n          uint40 _begTimestamp, uint40 _endTimestamp, uint16 _availableSlots);\n    event TaskCompleted(uint256 wizardId, uint256 taskId, string IPFSHash, uint256 data);\n\n    /////////////////////////////\n    //////  TEMP Functions ///////\n    /////////////////////////////\n\n    /*\n    function getFront() view external returns ( uint256) {\n        require(DoubleEndedQueue.length(myQueue)!=0, \"Empty Dequeue\");\n        return uint256(DoubleEndedQueue.front(myQueue));\n    }\n\n    function pushFront(bytes32 _data) external {\n    //  Task memory myTask = Task(\"0 - MYIPFSHASH\", 1, keccak256(4), 3, 4, 5, 6, 7);\n        DoubleEndedQueue.pushFront(myQueue,bytes32(_data));\n    }\n    */\n\n    /////////////////////////////\n    //////  Get Functions ///////\n    /////////////////////////////\n\n/*\n// todo -- delete this helper function\n    function getTaskTypeFields(uint256 _id) external view returns (uint8 ) {\n        return taskTypes[_id].numFieldsToHash;\n    }\n*/\n    function getTaskById(uint256 _taskId) external view returns (Task memory) {\n        return tasks[_taskId];\n    }\n\n    function getVotes(uint256 proposalID) external view returns (uint16[] memory) {\n        require(proposalID < totalProposals, \"no such proposal\");\n        uint16[] memory voteArray = new uint16[](proposals[proposalID].numberOfOptions);\n        for(uint256 i = 0; i< voteArray.length; i++){\n            voteArray[i] = proposals[proposalID].votes[i];\n        }\n        return voteArray;\n    }\n\n    function getWinningVote(uint256 proposalID) external view returns (uint256 ) {\n        require(proposalID < totalProposals, \"no such proposal\");\n        require( block.timestamp > proposals[proposalID].endTimestamp, \"voting still active\"); // todo -- end voting only on time? Or, what?\n        // todo -- is there a need to win by a certain percent?\n        uint256 winningVote;\n        uint256 winningVoteAmount;\n        uint256 tie=0;\n        for(uint256 i=0; i< proposals[proposalID].numberOfOptions; i++){ // start at 1 as 0 means no vote???\n            if(proposals[proposalID].votes[i] > winningVoteAmount) {\n                winningVoteAmount = proposals[proposalID].votes[i];\n                winningVote = i;\n                if (tie==1) { tie = 0;}\n            }\n            else if(proposals[proposalID].votes[i] == winningVoteAmount){\n                tie=1;\n            }\n        }\n        require(tie==0, \"there was a tie.\");\n        return winningVote;\n    }\n\n    // todo -- delete tasktype function\n\n    function areTasksAvailableToConfirm(uint256 _wizId) external view returns (bool) {\n        uint256 totalTasksSubmitted = DoubleEndedQueue.length(tasksWaitingConfirmation);\n        Task memory myTask;\n//        uint256 taskId;\n\n        // todo --implement randomness\n//        uint256[25] memory potentialTasks;\n\n        for(uint256 i =0; i < totalTasksSubmitted; ){\n            myTask = tasks[uint256(DoubleEndedQueue.at(tasksWaitingConfirmation,i))];\n            if( myTask.verificationReservedTimestamp < block.timestamp && myTask.NFTID != _wizId && myTask.refuterID!= _wizId){\n                return true;\n            }\n            unchecked{++i;}\n        }\n        return false;\n    }\n\n\n    function getTasksAssignedToWiz(uint40 _wizId) external view returns (Task[] memory, uint256[] memory) {\n        uint256 totalTasksSubmitted = DoubleEndedQueue.length(tasksWaitingConfirmation);\n        Task memory myTask;\n        uint256 taskId;\n        uint256 count=0;\n\n        for(uint256 i =0; i < totalTasksSubmitted; ){\n            taskId = uint256(DoubleEndedQueue.at(tasksWaitingConfirmation, i));\n            myTask = tasks[taskId];\n            if( myTask.verificationReservedTimestamp > block.timestamp && myTask.verifierID== _wizId){\n                unchecked{++count;}\n            }\n            unchecked{++i;}\n        }\n\n        // if no tasks, return empty array\n        if (count==0) {\n            Task[] memory myReturn= new Task[](1);\n            uint256[] memory myReturnUint= new uint256[](1);\n//            myReturn[0].NFTID=0;\n//            myReturn[0] = \"\";\n            return (myReturn, myReturnUint);\n        }\n\n        uint256 counter = 0;\n        Task[] memory myTasks = new Task[](count);\n        uint256[] memory myTaskIds = new uint256[](count);\n        for(uint256 i =0; i < totalTasksSubmitted; ){\n            taskId = uint256(DoubleEndedQueue.at(tasksWaitingConfirmation, i));\n            myTask = tasks[taskId];\n            if( myTask.verificationReservedTimestamp > block.timestamp && myTask.verifierID== _wizId){\n                myTasks[counter] = myTask;\n                myTaskIds[counter] = taskId;\n                unchecked{++counter;}\n                if(counter>count){break;}\n            }\n            unchecked{++i;}\n        }\n        return (myTasks, myTaskIds);\n    }\n\n\n    // todo -- see if we need to include IDs here -- may not need to\n    function getMyAvailableTaskTypes(uint40 _wizId) external view returns (string[] memory) {\n        uint256 count;\n        for(uint256 i=0; i< taskTypes.length;){\n            if(taskTypes[i].nextActiveTimeThreshold[_wizId] < block.timestamp\n            && taskTypes[i].begTimestamp <= block.timestamp && taskTypes[i].endTimestamp > block.timestamp\n            && taskTypes[i].availableSlots > 1\n            ) {\n                unchecked{++count;}\n            }\n//            else {\n//                string[] memory myReturn= new string[](1);\n//                myReturn[0] = \"\";\n//                return myReturn;\n//            }\n            unchecked{++i;}\n        }\n\n        // if no tasks, return empty array\n        if (count==0) {\n            string[] memory myReturn= new string[](1);\n            myReturn[0] = \"\";\n            return myReturn;\n        }\n\n        string[] memory myTasks = new string[](count);\n        uint256 counter = 0;\n        for(uint256 i=0; i< taskTypes.length;){\n            if(taskTypes[i].nextActiveTimeThreshold[_wizId] < block.timestamp\n            && taskTypes[i].begTimestamp <= block.timestamp && taskTypes[i].endTimestamp > block.timestamp\n            && taskTypes[i].availableSlots > 1\n            ) {\n                myTasks[counter] = taskTypes[i].IPFSHash;\n                unchecked{++counter;}\n                if(counter >= count) {\n                    break;\n                }\n            }\n            unchecked{++i;}\n        }\n        return myTasks;\n    }\n\n\n    /////////////////////////////\n    //////  Set Functions ///////\n    /////////////////////////////\n\n    function setNFTAddress(address _addy) external onlyOwner {\n        wizardsNFT = Wizards(_addy);\n    }\n\n\n//    function setERC20Address(address _addy) external onlyOwner {\n//        ecosystemTokens = IERC20(_addy);\n//    }\n\n    function deleteTaskTypeByIPFSHash(string memory _IPFSHash) external {\n        for(uint256 i=0; i<taskTypes.length;){\n            if(keccak256(abi.encodePacked(taskTypes[i].IPFSHash)) == keccak256(abi.encodePacked(_IPFSHash))){\n//                taskTypes[i] = taskTypes[taskTypes.length-1];\n                TaskType storage myTaskType = taskTypes[i];\n                TaskType storage displacedTaskType = taskTypes[taskTypes.length-1];\n//                myTaskType.nextActiveTimeThreshold = displacedTaskType.nextActiveTimeThreshold;\n                myTaskType = displacedTaskType;\n                delete taskTypes[taskTypes.length-1];\n                // todo see if this works at all\n//        mapping (uint40 => uint256) nextActiveTimeThreshold; // for recurring tasks -- todo -- add waitTime or ...\n//        string IPFSHash; // holds description\n//        bool paused;\n//        uint40 proposalID; // proposal ID or 0 if task\n//        uint8 numFieldsToHash;\n//        uint24 timeBonus;\n//        uint40 begTimestamp;\n//        uint40 endTimestamp;\n//        uint16 availableSlots;\n\n\n                delete taskTypes[taskTypes.length-1];\n                break;\n            }\n            unchecked{++i;}\n        }\n    }\n\n\n\n    //////////////////////////////\n    //////  Main Functions ///////\n    //////////////////////////////\n\n    /** @dev Constructor for HOADAO\n        @param _nft -- contract address for NFTs\n      */\n    constructor(address _nft){\n//        ecosystemTokens = IERC20(_erc20);\n        wizardsNFT = Wizards(_nft);\n\n//        contractSettings = ContractSettings({\n//        });\n\n    }\n\n    // Required to receive ETH\n    receive() external payable {\n    }\n\n    function vote(uint256 proposalID, uint256 NFTID, uint256 _vote) external onlyMember {\n        require(proposalID < totalProposals, \"no such proposal\");\n        require(wizardsNFT.ownerOf(NFTID)==msg.sender, \"not owner of NFT\");\n        require(proposalToNFTVotes[proposalID][NFTID]==0, \"already voted\");\n        require(_vote!=0 && _vote <= proposals[proposalID].numberOfOptions);\n        require(block.timestamp < proposals[proposalID].endTimestamp);\n        proposalToNFTVotes[proposalID][NFTID] = _vote + 1; // vote reference shifted by one\n        proposals[proposalID].votes[_vote] += 1; // increment votes\n        proposals[proposalID].totalVotes += 1;\n    }\n\n    // votes won't need to be confirmed\n    function createProposal(string calldata _IPFSHash, uint16 _numberOfOptions, uint24 _timeBonus, uint40 _begTimestamp, uint40 _endTimestamp, uint16 _availableSlots) external onlyBoard {\n        require(_numberOfOptions > 1 && _numberOfOptions < 257, \"invalid number of options\");\n        totalProposals += 1; // keep nothing at 0\n        Proposal storage myProposal = proposals[totalProposals];\n            myProposal.begTimestamp = _begTimestamp;\n            myProposal.endTimestamp = _endTimestamp;\n            myProposal.numberOfOptions = _numberOfOptions;\n            myProposal.IPFSHash = _IPFSHash;\n\n        _createTaskType(_IPFSHash, uint40(totalProposals), 0, _timeBonus, _begTimestamp, _endTimestamp, _availableSlots);\n        // todo --  emit event\n    }\n\n\n    function createTaskType(string calldata _IPFSHash, uint8 _numFieldsToHash, uint24 _timeBonus, uint40 _begTimestamp,\n                uint40 _endTimestamp, uint16 _availableSlots) external onlyBoard {\n        _createTaskType(_IPFSHash, 0, _numFieldsToHash, _timeBonus, _begTimestamp, _endTimestamp, _availableSlots);\n    }\n\n    function _createTaskType(string calldata _IPFSHash, uint40 _proposalID, uint8 _numFieldsToHash, uint24 _timeBonus,\n             uint40 _begTimestamp, uint40 _endTimestamp, uint16 _availableSlots) internal {\n        uint256 taskTypesLength = taskTypes.length;\n        taskTypes.push();\n        TaskType storage newTaskType = taskTypes[taskTypesLength];\n            newTaskType.IPFSHash =_IPFSHash;\n            newTaskType.paused = false;\n            newTaskType.proposalID = _proposalID;\n            newTaskType.numFieldsToHash = _numFieldsToHash;\n            newTaskType.timeBonus = _timeBonus;\n            newTaskType.begTimestamp = _begTimestamp;\n            newTaskType.endTimestamp = _endTimestamp;\n            newTaskType.availableSlots = _availableSlots;\n        // todo --  emit event\n        emit NewTaskTypeCreated(_IPFSHash, _proposalID, _numFieldsToHash, _timeBonus, _begTimestamp, _endTimestamp, _availableSlots);\n    }\n\n\n    function claimRandomTaskForVerification(uint256 _wizId) external {\n        uint256 totalTasksSubmitted = DoubleEndedQueue.length(tasksWaitingConfirmation);\n        Task memory myTask;\n        uint256 taskId;\n\n        // todo --implement randomness\n        // uint256[25] memory potentialTasks;\n\n        for(uint256 i =0; i < totalTasksSubmitted; ){\n            taskId = uint256(DoubleEndedQueue.at(tasksWaitingConfirmation, i));\n            myTask = tasks[taskId];\n            if( myTask.verificationReservedTimestamp < block.timestamp && myTask.NFTID != _wizId && myTask.refuterID!= _wizId){\n//                taskId = uint256(DoubleEndedQueue.at(tasksWaitingConfirmation, i));\n//                myTask = tasks[taskId];\n\n                // update task\n                myTask.verifierID = uint16(_wizId);\n                myTask.verificationReservedTimestamp = uint40(block.timestamp + verificationTime);\n                tasks[taskId] = myTask;\n                emit VerificationAssigned(_wizId, taskId, tasks[taskId]);\n            }\n            unchecked{++i;}\n        }\n//        emit VerificationAssigned(_wizId, taskId);\n    }\n\n    function completeTask(string memory _IPFSHash, bytes32 _hash, uint40 _wizId) external {\n        // IPFS, hash, wizardID\n\n        // find the task type -- can't be too many\n        for(uint256 i = 0; i<taskTypes.length;){\n            if(keccak256(abi.encode(taskTypes[i].IPFSHash)) == keccak256(abi.encode(_IPFSHash))){ // hashed to compare\n                // verify it is viable\n                require(taskTypes[i].begTimestamp <= block.timestamp && block.timestamp <= taskTypes[i].endTimestamp, \"Outside time period\");\n                // create new task\n                Task memory myTask = Task(_IPFSHash,_wizId, _hash, 0, taskTypes[i].numFieldsToHash, taskTypes[i].timeBonus, 0, 0, 0, 0);\n                DoubleEndedQueue.pushBack(tasksWaitingConfirmation, bytes32(totalTasksAttempted));\n                tasks[totalTasksAttempted] = myTask;\n                totalTasksAttempted+=1;\n\n                // update TaskTypes\n                taskTypes[i].nextActiveTimeThreshold[_wizId] = block.timestamp + 1 days;\n                taskTypes[i].availableSlots = taskTypes[i].availableSlots - 1;\n\n                emit TaskCompleted(_wizId,totalTasksAttempted -1, _IPFSHash, block.timestamp);\n                break;\n            }\n            unchecked{++i;}\n        }\n        // failed\n\n\n    }\n\n    function testHashing(bytes32 _givenHash, bytes32[] memory _fields, bool _refuted) external {\n        bytes memory unencoded = abi.encodePacked(_fields[0]);\n        if(_refuted) {\n            for(uint256 i = 0; i < _fields.length;){\n                _fields[i] = keccak256(abi.encodePacked(_fields[i]));\n                unchecked{++i;}\n            }\n        }\n        bytes32 myHash = keccak256(abi.encodePacked(_fields));\n        emit HashTesting(myHash, myHash==_givenHash, _fields[0], unencoded);\n    }\n\n// working for regular but not refuted.\n//    function testHashing(bytes32 _givenHash, bytes32[] memory _fields, bool _refuted) external {\n//        bytes memory unencoded = abi.encodePacked(_fields[0]);\n//        if(_refuted) {\n//            for(uint256 i = 0; i < _fields.length;){\n//                _fields[i] = keccak256(abi.encodePacked(_fields[i]));\n//                unchecked{++i;}\n//            }\n//        }\n//        bytes32 myHash = keccak256(abi.encodePacked(_fields));\n//        emit HashTesting(myHash, myHash==_givenHash, _fields[0], unencoded);\n//    }\n\n\n\n    // @dev -- hash structure: leaves of merkle tree are hashed. Unrefuted tasks must send in hashed leafs. Refuted, unhashed.\n    function submitVerification(uint256 _wizId, uint256 _taskID, bytes32[] memory _fields) external {\n    //todo -- uncomment out requirement (testing)\n        require(wizardsNFT.ownerOf(_wizId) == msg.sender && tasks[_taskID].verifierID==_wizId, \"Must be owner of assigned wizard\");\n        require(_fields.length > 0);\n\n        Task memory myTask = tasks[_taskID];\n        uint256 count = 0;\n        bool deleteTaskFlag = true;\n\n        // hash leaves if there is a refuter\n        if(myTask.refuterID > 0) {\n            for(uint256 i = 0; i < _fields.length;){\n                _fields[i] = keccak256(abi.encodePacked(_fields[i]));\n                unchecked{++i;}\n            }\n        }\n        bytes32 myHash = keccak256(abi.encodePacked(_fields));\n\n        uint256 correctHash = myTask.hash == myHash ? 1 : 0;\n\n        emit VerificationSucceeded(_wizId, myTask.NFTID, _taskID, myHash, correctHash==1);\n\n        if (correctHash ==1){\n            // if refuterId exists, then refuter gets no refund\n            uint256 split = myTask.payment/2;\n            address payable taskSubmitter = payable(wizardsNFT.ownerOf(myTask.verifierID));\n//            address payable verifier = msg.sender;\n\n            wizardsNFT.verifyDuty(myTask.NFTID, myTask.timeBonus);\n            wizardsNFT.verifyDuty(myTask.verifierID, taskVerificationTimeBonus);\n\n            // myTask.payment=0; // thwart reentrancy attacks\n            delete tasks[_taskID];\n\n            // send to task submitter\n            (bool sent, bytes memory data) = taskSubmitter.call{value: split}(\"\");\n            require(sent, \"Failed to send Ether\");\n\n            // send to verifier\n            (sent, data) = msg.sender.call{value: split}(\"\");\n            require(sent, \"Failed to send Ether\");\n\n        }\n        else { // if incorrect Hash\n            // case 2 -- if no match, send to DAO\n\n\n            if(myTask.refuterID==0){\n                myTask.refuterID=uint16(_wizId);\n                myTask.refuterHash=myHash;\n                tasks[_taskID] = myTask;\n                deleteTaskFlag = false;\n            }\n\n            // case 1 -- if matches hash of refuter, split\n            if(myTask.refuterHash==myHash){\n                uint256 split = myTask.payment/2;\n                address payable taskRefuter = payable(wizardsNFT.ownerOf(myTask.refuterID));\n\n                wizardsNFT.verifyDuty(myTask.refuterID, taskVerificationTimeBonus);\n                wizardsNFT.verifyDuty(_wizId, taskVerificationTimeBonus);\n\n                // myTask.payment=0; // thwart reentrancy attacks\n                delete tasks[_taskID];\n\n                // send to task submitter\n                (bool sent, bytes memory data) = taskRefuter.call{value: split}(\"\");\n                require(sent, \"Failed to send Ether\");\n\n                // send to verifier\n                (sent, data) = msg.sender.call{value: split}(\"\");\n                require(sent, \"Failed to send Ether\");\n\n                // emit event\n            }\n            else{\n                // no agreement in the 3 submissions\n                // send ETH to DAO\n                uint256 split = myTask.payment;\n                delete tasks[_taskID];\n                (bool sent, bytes memory data) = owner().call{value: split}(\"\"); // todo -- decide on how to structure DAO address\n                require(sent, \"Failed to send Ether\");\n\n                // emit event\n            }\n        }\n\n            // delete task from double ended queue\n        if(deleteTaskFlag){\n            uint256 totalTasksSubmitted = DoubleEndedQueue.length(tasksWaitingConfirmation);\n//            Task memory myTask;\n\n            // delete task from doubleEndedQueue\n            for(uint256 i =0; i < totalTasksSubmitted; ){\n                if( uint256(DoubleEndedQueue.at(tasksWaitingConfirmation, i))==_taskID){\n                    bytes32 prevFront = DoubleEndedQueue.popFront(tasksWaitingConfirmation);\n                    if(i!=0){ // add back on if we weren't meant to remove front\n                        tasksWaitingConfirmation._data[int128(tasksWaitingConfirmation._begin + int(i))] = prevFront;\n                    }\n                }\n                unchecked{++i;}\n            }\n        }\n\n    }\n\n    //////////////////////\n    ////// Modifiers /////\n    //////////////////////\n\n    modifier onlyAdmin() {\n        require(false,'Must be admin');\n        _;\n    }\n\n    modifier onlyNFTOwner() {\n        require(false,'Must be admin');\n        _;\n    }\n\n    modifier onlyLessee() {\n        require(false,'Must be lessee');\n        _;\n    }\n\n    modifier onlyMember() { // todo -- onlyMember\n        require(false,'Must be member');\n        _;\n    }\n\n    // top x in tower?\n    modifier onlyBoard() {\n        require(true,'Must be on the board'); // todo -- onlyBoard\n        _;\n    }\n\n\n\n\n\n}",
  "sourcePath": "contracts/Governance.sol",
  "type": "contract"
}