{
  "abi": [
    {
      "inputs": [
        {
          "internalType": "address",
          "name": "_ecosystemToken",
          "type": "address"
        },
        {
          "internalType": "address",
          "name": "_wizardToken",
          "type": "address"
        }
      ],
      "stateMutability": "nonpayable",
      "type": "constructor"
    },
    {
      "anonymous": false,
      "inputs": [
        {
          "indexed": true,
          "internalType": "address",
          "name": "tokenOperator",
          "type": "address"
        },
        {
          "indexed": false,
          "internalType": "uint256",
          "name": "amount",
          "type": "uint256"
        }
      ],
      "name": "DrainTower",
      "type": "event"
    },
    {
      "anonymous": false,
      "inputs": [
        {
          "indexed": false,
          "internalType": "address",
          "name": "battler",
          "type": "address"
        }
      ],
      "name": "NewBattler",
      "type": "event"
    },
    {
      "anonymous": false,
      "inputs": [
        {
          "indexed": false,
          "internalType": "address",
          "name": "tokenOperator",
          "type": "address"
        }
      ],
      "name": "NewOperator",
      "type": "event"
    },
    {
      "anonymous": false,
      "inputs": [
        {
          "indexed": true,
          "internalType": "address",
          "name": "previousOwner",
          "type": "address"
        },
        {
          "indexed": true,
          "internalType": "address",
          "name": "newOwner",
          "type": "address"
        }
      ],
      "name": "OwnershipTransferred",
      "type": "event"
    },
    {
      "anonymous": false,
      "inputs": [
        {
          "indexed": true,
          "internalType": "address",
          "name": "staker",
          "type": "address"
        },
        {
          "indexed": false,
          "internalType": "uint256",
          "name": "totalAmount",
          "type": "uint256"
        }
      ],
      "name": "Withdraw",
      "type": "event"
    },
    {
      "inputs": [],
      "name": "DA",
      "outputs": [
        {
          "internalType": "uint256",
          "name": "",
          "type": "uint256"
        }
      ],
      "stateMutability": "view",
      "type": "function"
    },
    {
      "inputs": [],
      "name": "NFT",
      "outputs": [
        {
          "internalType": "contract IERC721",
          "name": "",
          "type": "address"
        }
      ],
      "stateMutability": "view",
      "type": "function"
    },
    {
      "inputs": [],
      "name": "activeFloors",
      "outputs": [
        {
          "internalType": "uint256",
          "name": "",
          "type": "uint256"
        }
      ],
      "stateMutability": "view",
      "type": "function"
    },
    {
      "inputs": [
        {
          "internalType": "uint256",
          "name": "floor",
          "type": "uint256"
        }
      ],
      "name": "attack",
      "outputs": [],
      "stateMutability": "nonpayable",
      "type": "function"
    },
    {
      "inputs": [],
      "name": "battler",
      "outputs": [
        {
          "internalType": "address",
          "name": "",
          "type": "address"
        }
      ],
      "stateMutability": "view",
      "type": "function"
    },
    {
      "inputs": [
        {
          "internalType": "uint256",
          "name": "_wizardId",
          "type": "uint256"
        }
      ],
      "name": "claimFloor",
      "outputs": [
        {
          "internalType": "uint256",
          "name": "",
          "type": "uint256"
        }
      ],
      "stateMutability": "nonpayable",
      "type": "function"
    },
    {
      "inputs": [
        {
          "internalType": "uint16[]",
          "name": "_floorPlans",
          "type": "uint16[]"
        }
      ],
      "name": "createFloorPlans",
      "outputs": [],
      "stateMutability": "nonpayable",
      "type": "function"
    },
    {
      "inputs": [],
      "name": "drainTower",
      "outputs": [],
      "stateMutability": "nonpayable",
      "type": "function"
    },
    {
      "inputs": [
        {
          "internalType": "uint256",
          "name": "_floor",
          "type": "uint256"
        }
      ],
      "name": "floorBalance",
      "outputs": [
        {
          "internalType": "uint256",
          "name": "",
          "type": "uint256"
        }
      ],
      "stateMutability": "view",
      "type": "function"
    },
    {
      "inputs": [
        {
          "internalType": "uint256",
          "name": "",
          "type": "uint256"
        }
      ],
      "name": "floorIdToInfo",
      "outputs": [
        {
          "internalType": "uint16",
          "name": "floorPower",
          "type": "uint16"
        },
        {
          "internalType": "uint40",
          "name": "lastWithdrawalTimestamp",
          "type": "uint40"
        },
        {
          "internalType": "uint16",
          "name": "occupyingWizardId",
          "type": "uint16"
        },
        {
          "internalType": "enum RelativeTimeVault.ELEMENT",
          "name": "element",
          "type": "uint8"
        }
      ],
      "stateMutability": "view",
      "type": "function"
    },
    {
      "inputs": [
        {
          "internalType": "uint256",
          "name": "",
          "type": "uint256"
        }
      ],
      "name": "floorPlans",
      "outputs": [
        {
          "internalType": "uint16",
          "name": "begin",
          "type": "uint16"
        },
        {
          "internalType": "uint16",
          "name": "end",
          "type": "uint16"
        }
      ],
      "stateMutability": "view",
      "type": "function"
    },
    {
      "inputs": [
        {
          "internalType": "uint256",
          "name": "_floor",
          "type": "uint256"
        }
      ],
      "name": "floorPower",
      "outputs": [
        {
          "internalType": "uint256",
          "name": "",
          "type": "uint256"
        }
      ],
      "stateMutability": "view",
      "type": "function"
    },
    {
      "inputs": [
        {
          "internalType": "uint256",
          "name": "_floor",
          "type": "uint256"
        }
      ],
      "name": "getWizardOnFloor",
      "outputs": [
        {
          "internalType": "uint256",
          "name": "",
          "type": "uint256"
        }
      ],
      "stateMutability": "nonpayable",
      "type": "function"
    },
    {
      "inputs": [
        {
          "internalType": "uint256",
          "name": "_wizardId",
          "type": "uint256"
        }
      ],
      "name": "isOnTheTower",
      "outputs": [
        {
          "internalType": "bool",
          "name": "",
          "type": "bool"
        }
      ],
      "stateMutability": "nonpayable",
      "type": "function"
    },
    {
      "inputs": [],
      "name": "owner",
      "outputs": [
        {
          "internalType": "address",
          "name": "",
          "type": "address"
        }
      ],
      "stateMutability": "view",
      "type": "function"
    },
    {
      "inputs": [],
      "name": "renounceOwnership",
      "outputs": [],
      "stateMutability": "nonpayable",
      "type": "function"
    },
    {
      "inputs": [
        {
          "internalType": "uint256",
          "name": "_floorA",
          "type": "uint256"
        },
        {
          "internalType": "uint256",
          "name": "_floorB",
          "type": "uint256"
        }
      ],
      "name": "switchFloors",
      "outputs": [],
      "stateMutability": "nonpayable",
      "type": "function"
    },
    {
      "inputs": [],
      "name": "token",
      "outputs": [
        {
          "internalType": "contract IERC20",
          "name": "",
          "type": "address"
        }
      ],
      "stateMutability": "view",
      "type": "function"
    },
    {
      "inputs": [],
      "name": "tokenOperator",
      "outputs": [
        {
          "internalType": "address",
          "name": "",
          "type": "address"
        }
      ],
      "stateMutability": "view",
      "type": "function"
    },
    {
      "inputs": [
        {
          "internalType": "address",
          "name": "newOwner",
          "type": "address"
        }
      ],
      "name": "transferOwnership",
      "outputs": [],
      "stateMutability": "nonpayable",
      "type": "function"
    },
    {
      "inputs": [
        {
          "internalType": "address",
          "name": "_battler",
          "type": "address"
        }
      ],
      "name": "updateBattler",
      "outputs": [],
      "stateMutability": "nonpayable",
      "type": "function"
    },
    {
      "inputs": [
        {
          "internalType": "address",
          "name": "newOperator",
          "type": "address"
        }
      ],
      "name": "updateOperator",
      "outputs": [],
      "stateMutability": "nonpayable",
      "type": "function"
    },
    {
      "inputs": [
        {
          "internalType": "uint256",
          "name": "_floor",
          "type": "uint256"
        }
      ],
      "name": "withdraw",
      "outputs": [],
      "stateMutability": "nonpayable",
      "type": "function"
    },
    {
      "inputs": [
        {
          "internalType": "uint256",
          "name": "",
          "type": "uint256"
        }
      ],
      "name": "wizardIdToFloor",
      "outputs": [
        {
          "internalType": "uint256",
          "name": "",
          "type": "uint256"
        }
      ],
      "stateMutability": "view",
      "type": "function"
    }
  ],
  "bytecode": "60806040526000600555612710600c553480156200001c57600080fd5b5060405162001722380380620017228339810160408190526200003f9162000113565b600160005581816200005133620000a4565b600280546001600160a01b03199081166001600160a01b0394851617909155600380548216929093169190911790915560078054339083168117909155600880549092161790555050426006556200014b565b600180546001600160a01b038381166001600160a01b0319831681179093556040519116919082907f8be0079c531659141344cd1fd0a4f28419497f9722a3daafe3b4186f6b6457e090600090a35050565b80516001600160a01b03811681146200010e57600080fd5b919050565b600080604083850312156200012757600080fd5b6200013283620000f6565b91506200014260208401620000f6565b90509250929050565b6115c7806200015b6000396000f3fe608060405234801561001057600080fd5b50600436106101585760003560e01c8063944d934b116100c3578063e52e32491161007c578063e52e324914610338578063e737b86e1461034b578063ec147c181461035e578063ee545e6814610390578063f2fde38b146103a3578063fc0c546a146103b657600080fd5b8063944d934b146102c457806395ac8af9146102d7578063ac7475ed146102f7578063bc0b0d881461030a578063bf79c0471461031d578063c891c62a1461033057600080fd5b806364dd891a1161011557806364dd891a146102045780636794614314610215578063715018a61461026d5780637c0b8de2146102755780638a9f4284146102a05780638da5cb5b146102b357600080fd5b80630c3957811461015d5780632e1a7d4d1461017a5780633cdd03981461018f57806340e34dc0146101985780635259a3ae146101c35780635685cb2e146101f1575b600080fd5b610167620f424081565b6040519081526020015b60405180910390f35b61018d61018836600461121b565b6103c9565b005b61016760055481565b6101676101a636600461121b565b600090815260096020526040902054600160381b900461ffff1690565b6101d66101d136600461121b565b6105f5565b6040805161ffff938416815292909116602083015201610171565b6101676101ff36600461121b565b610624565b61018d61021236600461121b565b50565b61025d61022336600461121b565b60096020526000908152604090205461ffff8082169162010000810464ffffffffff1691600160381b82041690600160481b900460ff1684565b604051610171949392919061124a565b61018d610824565b600354610288906001600160a01b031681565b6040516001600160a01b039091168152602001610171565b61018d6102ae366004611297565b61085a565b6001546001600160a01b0316610288565b6101676102d236600461121b565b6109b4565b6101676102e536600461121b565b600a6020526000908152604090205481565b61018d6103053660046112b9565b6109c5565b600854610288906001600160a01b031681565b61018d61032b36600461130f565b610ab1565b61018d610c1c565b61018d6103463660046112b9565b610d7d565b600754610288906001600160a01b031681565b61038061036c36600461121b565b6000908152600a6020526040902054151590565b6040519015158152602001610171565b61016761039e36600461121b565b610e62565b61018d6103b13660046112b9565b610f6d565b600254610288906001600160a01b031681565b600260005414156104215760405162461bcd60e51b815260206004820152601f60248201527f5265656e7472616e637947756172643a207265656e7472616e742063616c6c0060448201526064015b60405180910390fd5b6002600055600061043182611005565b6002546040516370a0823160e01b815230600482015291925082916001600160a01b03909116906370a0823190602401602060405180830381865afa15801561047e573d6000803e3d6000fd5b505050506040513d601f19601f820116820180604052508101906104a291906113d4565b10156104fb5760405162461bcd60e51b815260206004820152602260248201527f4e6f7420656e6f7567682062616c616e636520696e2074686520636f6e74726160448201526118dd60f21b6064820152608401610418565b60008281526009602052604090819020805466ffffffffff00001916620100004264ffffffffff1602179055600254905163a9059cbb60e01b8152336004820152602481018390526001600160a01b039091169063a9059cbb906044016020604051808303816000875af1158015610577573d6000803e3d6000fd5b505050506040513d601f19601f8201168201806040525081019061059b91906113ed565b6105b75760405162461bcd60e51b81526004016104189061140f565b60405181815233907f884edad9ce6fa2440d8a54cc123490eb96d2768479d49ff9c7366125a94243649060200160405180910390a250506001600055565b600b818154811061060557600080fd5b60009182526020909120015461ffff8082169250620100009091041682565b6000818152600a6020526040812054156106735760405162461bcd60e51b815260206004820152601060248201526f30b63932b0b23c9031b630b4b6b2b21760811b6044820152606401610418565b6001600560008282546106869190611471565b909155506106b490506040805160808101825260008082526020820181905291810182905290606082015290565b64ffffffffff429081166020808401919091526005546040516004936106ff9333920192835260609190911b6bffffffffffffffffffffffff19166020830152603482015260540190565b6040516020818303038152906040528051906020012060001c610722919061149f565b600381111561073357610733611234565b8160600190600381111561074957610749611234565b9081600381111561075c5761075c611234565b90525061ffff80841660408084019182526005546000878152600a60209081528382208390559181526009825291909120845181549286015193518516600160381b0261ffff60381b1964ffffffffff909516620100000266ffffffffffffff19909416919095161791909117918216831781556060840151849391929091839169ff0000000000000000001990911669ffffff000000000000001990911617600160481b83600381111561081357610813611234565b021790555050600554949350505050565b6001546001600160a01b0316331461084e5760405162461bcd60e51b8152600401610418906114b3565b6108586000611190565b565b6008546001600160a01b031633146108c05760405162461bcd60e51b8152602060048201526024808201527f4f6e6c7920626174746c65722063616e2063616c6c20746869732066756e637460448201526334b7b71760e11b6064820152608401610418565b60055482111580156108d457506005548111155b80156108e05750818114155b61091b5760405162461bcd60e51b815260206004820152600c60248201526b1b5d5cdd081bdddb8813919560a21b6044820152606401610418565b6109436040805160808101825260008082526020820181905291810182905290606082015290565b5060008281526009602090815260408083208054858552828520805461ffff60381b1980841661ffff600160381b93849004811684029190911786558354909116938290048116808302949094179092559254929092049091168452600a9092528083209490945581529190912055565b60006109bf82611005565b92915050565b6001546001600160a01b031633146109ef5760405162461bcd60e51b8152600401610418906114b3565b6001600160a01b03811615801590610a1557506007546001600160a01b03828116911614155b610a5c5760405162461bcd60e51b8152602060048201526018602482015277496e76616c6964206f70657261746f72206164647265737360401b6044820152606401610418565b600780546001600160a01b0319166001600160a01b0383169081179091556040519081527fda12ee837e6978172aaf54b16145ffe08414fd8710092ef033c71b8eb6ec189a906020015b60405180910390a150565b6001546001600160a01b03163314610adb5760405162461bcd60e51b8152600401610418906114b3565b805115801590610af6575060028151610af4919061149f565b155b610b375760405162461bcd60e51b815260206004820152601260248201527134b73b30b634b210333637b7b910383630b760711b6044820152606401610418565b610b43600b60006111e2565b604080518082019091526000808252602082015260005b8251811015610c1757828181518110610b7557610b756114e8565b602090810291909101015161ffff16825282610b92826001611471565b81518110610ba257610ba26114e8565b60209081029190910181015161ffff908116918401918252600b805460018101825560009190915284517f0175b7a638427703f0dbe7bb9bbf987a2551717b34e79f33b5b1008d1fa01db9909101805493518316620100000263ffffffff199094169190921617919091179055600201610b5a565b505050565b6001546001600160a01b03163314610c465760405162461bcd60e51b8152600401610418906114b3565b6002546040516370a0823160e01b81523060048201526000916001600160a01b0316906370a0823190602401602060405180830381865afa158015610c8f573d6000803e3d6000fd5b505050506040513d601f19601f82011682018060405250810190610cb391906113d4565b60025460405163a9059cbb60e01b8152336004820152602481018390529192506001600160a01b03169063a9059cbb906044016020604051808303816000875af1158015610d05573d6000803e3d6000fd5b505050506040513d601f19601f82011682018060405250810190610d2991906113ed565b610d455760405162461bcd60e51b81526004016104189061140f565b60405181815233907f0d52e6a96125965761d3461ff1f2c72df610ab6bc2584ac9f076b45b585f049f9060200160405180910390a250565b6001546001600160a01b03163314610da75760405162461bcd60e51b8152600401610418906114b3565b6001600160a01b03811615801590610dcd57506008546001600160a01b03828116911614155b610e145760405162461bcd60e51b8152602060048201526018602482015277496e76616c6964206f70657261746f72206164647265737360401b6044820152606401610418565b600880546001600160a01b0319166001600160a01b0383169081179091556040519081527fa6996d36756222f1028b4a1a97cbfa625158cf8e69ac5dcf367de3bd730d34a490602001610aa6565b60008060005b600b54811015610f495783600b8281548110610e8657610e866114e8565b60009182526020909120015461ffff1611801590610ecc5750600b8181548110610eb257610eb26114e8565b60009182526020909120015462010000900461ffff168411155b15610f4157600b8181548110610ee457610ee46114e8565b600091825260209091200154600b805461ffff9092169183908110610f0b57610f0b6114e8565b600091825260209091200154610f2b919062010000900461ffff166114fe565b610f36906001611521565b61ffff169150610f49565b600101610e68565b5080600554620f4240610f5c9190611547565b610f669190611547565b9392505050565b6001546001600160a01b03163314610f975760405162461bcd60e51b8152600401610418906114b3565b6001600160a01b038116610ffc5760405162461bcd60e51b815260206004820152602660248201527f4f776e61626c653a206e6577206f776e657220697320746865207a65726f206160448201526564647265737360d01b6064820152608401610418565b61021281611190565b6000600554821061101557600080fd5b60008281526009602090815260408083208151608081018352815461ffff808216835262010000820464ffffffffff1695830195909552600160381b81049094169281019290925290916060830190600160481b900460ff16600381111561107f5761107f611234565b600381111561109057611090611234565b8152505090506000816020015164ffffffffff166000146110bc57816020015164ffffffffff166110c0565b6006545b9050620f4240600554600654426110d7919061155b565b6110e19190611572565b6002546040516370a0823160e01b81523060048201526001600160a01b03909116906370a0823190602401602060405180830381865afa158015611129573d6000803e3d6000fd5b505050506040513d601f19601f8201168201806040525081019061114d91906113d4565b61115687610e62565b611160854261155b565b61116a9190611572565b6111749190611572565b61117e9190611547565b6111889190611547565b949350505050565b600180546001600160a01b038381166001600160a01b0319831681179093556040519116919082907f8be0079c531659141344cd1fd0a4f28419497f9722a3daafe3b4186f6b6457e090600090a35050565b508054600082559060005260206000209081019061021291905b8082111561121757805463ffffffff191681556001016111fc565b5090565b60006020828403121561122d57600080fd5b5035919050565b634e487b7160e01b600052602160045260246000fd5b61ffff858116825264ffffffffff8516602083015283166040820152608081016004831061128857634e487b7160e01b600052602160045260246000fd5b82606083015295945050505050565b600080604083850312156112aa57600080fd5b50508035926020909101359150565b6000602082840312156112cb57600080fd5b81356001600160a01b0381168114610f6657600080fd5b634e487b7160e01b600052604160045260246000fd5b803561ffff8116811461130a57600080fd5b919050565b6000602080838503121561132257600080fd5b823567ffffffffffffffff8082111561133a57600080fd5b818501915085601f83011261134e57600080fd5b813581811115611360576113606112e2565b8060051b604051601f19603f83011681018181108582111715611385576113856112e2565b6040529182528482019250838101850191888311156113a357600080fd5b938501935b828510156113c8576113b9856112f8565b845293850193928501926113a8565b98975050505050505050565b6000602082840312156113e657600080fd5b5051919050565b6000602082840312156113ff57600080fd5b81518015158114610f6657600080fd5b6020808252602c908201527f556e61626c6520746f207472616e7366657220746f6b656e206261636b20746f60408201526b081d1a19481858d8dbdd5b9d60a21b606082015260800190565b634e487b7160e01b600052601160045260246000fd5b600082198211156114845761148461145b565b500190565b634e487b7160e01b600052601260045260246000fd5b6000826114ae576114ae611489565b500690565b6020808252818101527f4f776e61626c653a2063616c6c6572206973206e6f7420746865206f776e6572604082015260600190565b634e487b7160e01b600052603260045260246000fd5b600061ffff838116908316818110156115195761151961145b565b039392505050565b600061ffff80831681851680830382111561153e5761153e61145b565b01949350505050565b60008261155657611556611489565b500490565b60008282101561156d5761156d61145b565b500390565b600081600019048311821515161561158c5761158c61145b565b50029056fea2646970667358221220fcad564260a2e97d6dd61dac5aed8ef18492b6e5dff3d618cedc15998f76952964736f6c634300080c0033",
  "bytecodeSha1": "ea7754add3fb00732df46dfa32630dbf2c459b5e",
  "compiler": {
    "evm_version": "istanbul",
    "optimizer": {
      "enabled": true,
      "runs": 200
    },
    "version": "0.8.12+commit.f00d7308"
  },
  "contractName": "WizardTower",
  "language": "Solidity",
  "natspec": {
    "kind": "dev",
    "methods": {
      "owner()": {
        "details": "Returns the address of the current owner."
      },
      "renounceOwnership()": {
        "details": "Leaves the contract without owner. It will not be possible to call `onlyOwner` functions anymore. Can only be called by the current owner. NOTE: Renouncing ownership will leave the contract without an owner, thereby removing any functionality that is only available to the owner."
      },
      "transferOwnership(address)": {
        "details": "Transfers ownership of the contract to a new account (`newOwner`). Can only be called by the current owner."
      }
    },
    "version": 1
  },
  "opcodes": "PUSH1 0x80 PUSH1 0x40 MSTORE CALLVALUE DUP1 ISZERO PUSH2 0x10 JUMPI PUSH1 0x0 DUP1 REVERT JUMPDEST POP PUSH1 0x4 CALLDATASIZE LT PUSH2 0x158 JUMPI PUSH1 0x0 CALLDATALOAD PUSH1 0xE0 SHR DUP1 PUSH4 0x944D934B GT PUSH2 0xC3 JUMPI DUP1 PUSH4 0xE52E3249 GT PUSH2 0x7C JUMPI DUP1 PUSH4 0xE52E3249 EQ PUSH2 0x338 JUMPI DUP1 PUSH4 0xE737B86E EQ PUSH2 0x34B JUMPI DUP1 PUSH4 0xEC147C18 EQ PUSH2 0x35E JUMPI DUP1 PUSH4 0xEE545E68 EQ PUSH2 0x390 JUMPI DUP1 PUSH4 0xF2FDE38B EQ PUSH2 0x3A3 JUMPI DUP1 PUSH4 0xFC0C546A EQ PUSH2 0x3B6 JUMPI PUSH1 0x0 DUP1 REVERT JUMPDEST DUP1 PUSH4 0x944D934B EQ PUSH2 0x2C4 JUMPI DUP1 PUSH4 0x95AC8AF9 EQ PUSH2 0x2D7 JUMPI DUP1 PUSH4 0xAC7475ED EQ PUSH2 0x2F7 JUMPI DUP1 PUSH4 0xBC0B0D88 EQ PUSH2 0x30A JUMPI DUP1 PUSH4 0xBF79C047 EQ PUSH2 0x31D JUMPI DUP1 PUSH4 0xC891C62A EQ PUSH2 0x330 JUMPI PUSH1 0x0 DUP1 REVERT JUMPDEST DUP1 PUSH4 0x64DD891A GT PUSH2 0x115 JUMPI DUP1 PUSH4 0x64DD891A EQ PUSH2 0x204 JUMPI DUP1 PUSH4 0x67946143 EQ PUSH2 0x215 JUMPI DUP1 PUSH4 0x715018A6 EQ PUSH2 0x26D JUMPI DUP1 PUSH4 0x7C0B8DE2 EQ PUSH2 0x275 JUMPI DUP1 PUSH4 0x8A9F4284 EQ PUSH2 0x2A0 JUMPI DUP1 PUSH4 0x8DA5CB5B EQ PUSH2 0x2B3 JUMPI PUSH1 0x0 DUP1 REVERT JUMPDEST DUP1 PUSH4 0xC395781 EQ PUSH2 0x15D JUMPI DUP1 PUSH4 0x2E1A7D4D EQ PUSH2 0x17A JUMPI DUP1 PUSH4 0x3CDD0398 EQ PUSH2 0x18F JUMPI DUP1 PUSH4 0x40E34DC0 EQ PUSH2 0x198 JUMPI DUP1 PUSH4 0x5259A3AE EQ PUSH2 0x1C3 JUMPI DUP1 PUSH4 0x5685CB2E EQ PUSH2 0x1F1 JUMPI JUMPDEST PUSH1 0x0 DUP1 REVERT JUMPDEST PUSH2 0x167 PUSH3 0xF4240 DUP2 JUMP JUMPDEST PUSH1 0x40 MLOAD SWAP1 DUP2 MSTORE PUSH1 0x20 ADD JUMPDEST PUSH1 0x40 MLOAD DUP1 SWAP2 SUB SWAP1 RETURN JUMPDEST PUSH2 0x18D PUSH2 0x188 CALLDATASIZE PUSH1 0x4 PUSH2 0x121B JUMP JUMPDEST PUSH2 0x3C9 JUMP JUMPDEST STOP JUMPDEST PUSH2 0x167 PUSH1 0x5 SLOAD DUP2 JUMP JUMPDEST PUSH2 0x167 PUSH2 0x1A6 CALLDATASIZE PUSH1 0x4 PUSH2 0x121B JUMP JUMPDEST PUSH1 0x0 SWAP1 DUP2 MSTORE PUSH1 0x9 PUSH1 0x20 MSTORE PUSH1 0x40 SWAP1 KECCAK256 SLOAD PUSH1 0x1 PUSH1 0x38 SHL SWAP1 DIV PUSH2 0xFFFF AND SWAP1 JUMP JUMPDEST PUSH2 0x1D6 PUSH2 0x1D1 CALLDATASIZE PUSH1 0x4 PUSH2 0x121B JUMP JUMPDEST PUSH2 0x5F5 JUMP JUMPDEST PUSH1 0x40 DUP1 MLOAD PUSH2 0xFFFF SWAP4 DUP5 AND DUP2 MSTORE SWAP3 SWAP1 SWAP2 AND PUSH1 0x20 DUP4 ADD MSTORE ADD PUSH2 0x171 JUMP JUMPDEST PUSH2 0x167 PUSH2 0x1FF CALLDATASIZE PUSH1 0x4 PUSH2 0x121B JUMP JUMPDEST PUSH2 0x624 JUMP JUMPDEST PUSH2 0x18D PUSH2 0x212 CALLDATASIZE PUSH1 0x4 PUSH2 0x121B JUMP JUMPDEST POP JUMP JUMPDEST PUSH2 0x25D PUSH2 0x223 CALLDATASIZE PUSH1 0x4 PUSH2 0x121B JUMP JUMPDEST PUSH1 0x9 PUSH1 0x20 MSTORE PUSH1 0x0 SWAP1 DUP2 MSTORE PUSH1 0x40 SWAP1 KECCAK256 SLOAD PUSH2 0xFFFF DUP1 DUP3 AND SWAP2 PUSH3 0x10000 DUP2 DIV PUSH5 0xFFFFFFFFFF AND SWAP2 PUSH1 0x1 PUSH1 0x38 SHL DUP3 DIV AND SWAP1 PUSH1 0x1 PUSH1 0x48 SHL SWAP1 DIV PUSH1 0xFF AND DUP5 JUMP JUMPDEST PUSH1 0x40 MLOAD PUSH2 0x171 SWAP5 SWAP4 SWAP3 SWAP2 SWAP1 PUSH2 0x124A JUMP JUMPDEST PUSH2 0x18D PUSH2 0x824 JUMP JUMPDEST PUSH1 0x3 SLOAD PUSH2 0x288 SWAP1 PUSH1 0x1 PUSH1 0x1 PUSH1 0xA0 SHL SUB AND DUP2 JUMP JUMPDEST PUSH1 0x40 MLOAD PUSH1 0x1 PUSH1 0x1 PUSH1 0xA0 SHL SUB SWAP1 SWAP2 AND DUP2 MSTORE PUSH1 0x20 ADD PUSH2 0x171 JUMP JUMPDEST PUSH2 0x18D PUSH2 0x2AE CALLDATASIZE PUSH1 0x4 PUSH2 0x1297 JUMP JUMPDEST PUSH2 0x85A JUMP JUMPDEST PUSH1 0x1 SLOAD PUSH1 0x1 PUSH1 0x1 PUSH1 0xA0 SHL SUB AND PUSH2 0x288 JUMP JUMPDEST PUSH2 0x167 PUSH2 0x2D2 CALLDATASIZE PUSH1 0x4 PUSH2 0x121B JUMP JUMPDEST PUSH2 0x9B4 JUMP JUMPDEST PUSH2 0x167 PUSH2 0x2E5 CALLDATASIZE PUSH1 0x4 PUSH2 0x121B JUMP JUMPDEST PUSH1 0xA PUSH1 0x20 MSTORE PUSH1 0x0 SWAP1 DUP2 MSTORE PUSH1 0x40 SWAP1 KECCAK256 SLOAD DUP2 JUMP JUMPDEST PUSH2 0x18D PUSH2 0x305 CALLDATASIZE PUSH1 0x4 PUSH2 0x12B9 JUMP JUMPDEST PUSH2 0x9C5 JUMP JUMPDEST PUSH1 0x8 SLOAD PUSH2 0x288 SWAP1 PUSH1 0x1 PUSH1 0x1 PUSH1 0xA0 SHL SUB AND DUP2 JUMP JUMPDEST PUSH2 0x18D PUSH2 0x32B CALLDATASIZE PUSH1 0x4 PUSH2 0x130F JUMP JUMPDEST PUSH2 0xAB1 JUMP JUMPDEST PUSH2 0x18D PUSH2 0xC1C JUMP JUMPDEST PUSH2 0x18D PUSH2 0x346 CALLDATASIZE PUSH1 0x4 PUSH2 0x12B9 JUMP JUMPDEST PUSH2 0xD7D JUMP JUMPDEST PUSH1 0x7 SLOAD PUSH2 0x288 SWAP1 PUSH1 0x1 PUSH1 0x1 PUSH1 0xA0 SHL SUB AND DUP2 JUMP JUMPDEST PUSH2 0x380 PUSH2 0x36C CALLDATASIZE PUSH1 0x4 PUSH2 0x121B JUMP JUMPDEST PUSH1 0x0 SWAP1 DUP2 MSTORE PUSH1 0xA PUSH1 0x20 MSTORE PUSH1 0x40 SWAP1 KECCAK256 SLOAD ISZERO ISZERO SWAP1 JUMP JUMPDEST PUSH1 0x40 MLOAD SWAP1 ISZERO ISZERO DUP2 MSTORE PUSH1 0x20 ADD PUSH2 0x171 JUMP JUMPDEST PUSH2 0x167 PUSH2 0x39E CALLDATASIZE PUSH1 0x4 PUSH2 0x121B JUMP JUMPDEST PUSH2 0xE62 JUMP JUMPDEST PUSH2 0x18D PUSH2 0x3B1 CALLDATASIZE PUSH1 0x4 PUSH2 0x12B9 JUMP JUMPDEST PUSH2 0xF6D JUMP JUMPDEST PUSH1 0x2 SLOAD PUSH2 0x288 SWAP1 PUSH1 0x1 PUSH1 0x1 PUSH1 0xA0 SHL SUB AND DUP2 JUMP JUMPDEST PUSH1 0x2 PUSH1 0x0 SLOAD EQ ISZERO PUSH2 0x421 JUMPI PUSH1 0x40 MLOAD PUSH3 0x461BCD PUSH1 0xE5 SHL DUP2 MSTORE PUSH1 0x20 PUSH1 0x4 DUP3 ADD MSTORE PUSH1 0x1F PUSH1 0x24 DUP3 ADD MSTORE PUSH32 0x5265656E7472616E637947756172643A207265656E7472616E742063616C6C00 PUSH1 0x44 DUP3 ADD MSTORE PUSH1 0x64 ADD JUMPDEST PUSH1 0x40 MLOAD DUP1 SWAP2 SUB SWAP1 REVERT JUMPDEST PUSH1 0x2 PUSH1 0x0 SSTORE PUSH1 0x0 PUSH2 0x431 DUP3 PUSH2 0x1005 JUMP JUMPDEST PUSH1 0x2 SLOAD PUSH1 0x40 MLOAD PUSH4 0x70A08231 PUSH1 0xE0 SHL DUP2 MSTORE ADDRESS PUSH1 0x4 DUP3 ADD MSTORE SWAP2 SWAP3 POP DUP3 SWAP2 PUSH1 0x1 PUSH1 0x1 PUSH1 0xA0 SHL SUB SWAP1 SWAP2 AND SWAP1 PUSH4 0x70A08231 SWAP1 PUSH1 0x24 ADD PUSH1 0x20 PUSH1 0x40 MLOAD DUP1 DUP4 SUB DUP2 DUP7 GAS STATICCALL ISZERO DUP1 ISZERO PUSH2 0x47E JUMPI RETURNDATASIZE PUSH1 0x0 DUP1 RETURNDATACOPY RETURNDATASIZE PUSH1 0x0 REVERT JUMPDEST POP POP POP POP PUSH1 0x40 MLOAD RETURNDATASIZE PUSH1 0x1F NOT PUSH1 0x1F DUP3 ADD AND DUP3 ADD DUP1 PUSH1 0x40 MSTORE POP DUP2 ADD SWAP1 PUSH2 0x4A2 SWAP2 SWAP1 PUSH2 0x13D4 JUMP JUMPDEST LT ISZERO PUSH2 0x4FB JUMPI PUSH1 0x40 MLOAD PUSH3 0x461BCD PUSH1 0xE5 SHL DUP2 MSTORE PUSH1 0x20 PUSH1 0x4 DUP3 ADD MSTORE PUSH1 0x22 PUSH1 0x24 DUP3 ADD MSTORE PUSH32 0x4E6F7420656E6F7567682062616C616E636520696E2074686520636F6E747261 PUSH1 0x44 DUP3 ADD MSTORE PUSH2 0x18DD PUSH1 0xF2 SHL PUSH1 0x64 DUP3 ADD MSTORE PUSH1 0x84 ADD PUSH2 0x418 JUMP JUMPDEST PUSH1 0x0 DUP3 DUP2 MSTORE PUSH1 0x9 PUSH1 0x20 MSTORE PUSH1 0x40 SWAP1 DUP2 SWAP1 KECCAK256 DUP1 SLOAD PUSH7 0xFFFFFFFFFF0000 NOT AND PUSH3 0x10000 TIMESTAMP PUSH5 0xFFFFFFFFFF AND MUL OR SWAP1 SSTORE PUSH1 0x2 SLOAD SWAP1 MLOAD PUSH4 0xA9059CBB PUSH1 0xE0 SHL DUP2 MSTORE CALLER PUSH1 0x4 DUP3 ADD MSTORE PUSH1 0x24 DUP2 ADD DUP4 SWAP1 MSTORE PUSH1 0x1 PUSH1 0x1 PUSH1 0xA0 SHL SUB SWAP1 SWAP2 AND SWAP1 PUSH4 0xA9059CBB SWAP1 PUSH1 0x44 ADD PUSH1 0x20 PUSH1 0x40 MLOAD DUP1 DUP4 SUB DUP2 PUSH1 0x0 DUP8 GAS CALL ISZERO DUP1 ISZERO PUSH2 0x577 JUMPI RETURNDATASIZE PUSH1 0x0 DUP1 RETURNDATACOPY RETURNDATASIZE PUSH1 0x0 REVERT JUMPDEST POP POP POP POP PUSH1 0x40 MLOAD RETURNDATASIZE PUSH1 0x1F NOT PUSH1 0x1F DUP3 ADD AND DUP3 ADD DUP1 PUSH1 0x40 MSTORE POP DUP2 ADD SWAP1 PUSH2 0x59B SWAP2 SWAP1 PUSH2 0x13ED JUMP JUMPDEST PUSH2 0x5B7 JUMPI PUSH1 0x40 MLOAD PUSH3 0x461BCD PUSH1 0xE5 SHL DUP2 MSTORE PUSH1 0x4 ADD PUSH2 0x418 SWAP1 PUSH2 0x140F JUMP JUMPDEST PUSH1 0x40 MLOAD DUP2 DUP2 MSTORE CALLER SWAP1 PUSH32 0x884EDAD9CE6FA2440D8A54CC123490EB96D2768479D49FF9C7366125A9424364 SWAP1 PUSH1 0x20 ADD PUSH1 0x40 MLOAD DUP1 SWAP2 SUB SWAP1 LOG2 POP POP PUSH1 0x1 PUSH1 0x0 SSTORE JUMP JUMPDEST PUSH1 0xB DUP2 DUP2 SLOAD DUP2 LT PUSH2 0x605 JUMPI PUSH1 0x0 DUP1 REVERT JUMPDEST PUSH1 0x0 SWAP2 DUP3 MSTORE PUSH1 0x20 SWAP1 SWAP2 KECCAK256 ADD SLOAD PUSH2 0xFFFF DUP1 DUP3 AND SWAP3 POP PUSH3 0x10000 SWAP1 SWAP2 DIV AND DUP3 JUMP JUMPDEST PUSH1 0x0 DUP2 DUP2 MSTORE PUSH1 0xA PUSH1 0x20 MSTORE PUSH1 0x40 DUP2 KECCAK256 SLOAD ISZERO PUSH2 0x673 JUMPI PUSH1 0x40 MLOAD PUSH3 0x461BCD PUSH1 0xE5 SHL DUP2 MSTORE PUSH1 0x20 PUSH1 0x4 DUP3 ADD MSTORE PUSH1 0x10 PUSH1 0x24 DUP3 ADD MSTORE PUSH16 0x30B63932B0B23C9031B630B4B6B2B217 PUSH1 0x81 SHL PUSH1 0x44 DUP3 ADD MSTORE PUSH1 0x64 ADD PUSH2 0x418 JUMP JUMPDEST PUSH1 0x1 PUSH1 0x5 PUSH1 0x0 DUP3 DUP3 SLOAD PUSH2 0x686 SWAP2 SWAP1 PUSH2 0x1471 JUMP JUMPDEST SWAP1 SWAP2 SSTORE POP PUSH2 0x6B4 SWAP1 POP PUSH1 0x40 DUP1 MLOAD PUSH1 0x80 DUP2 ADD DUP3 MSTORE PUSH1 0x0 DUP1 DUP3 MSTORE PUSH1 0x20 DUP3 ADD DUP2 SWAP1 MSTORE SWAP2 DUP2 ADD DUP3 SWAP1 MSTORE SWAP1 PUSH1 0x60 DUP3 ADD MSTORE SWAP1 JUMP JUMPDEST PUSH5 0xFFFFFFFFFF TIMESTAMP SWAP1 DUP2 AND PUSH1 0x20 DUP1 DUP5 ADD SWAP2 SWAP1 SWAP2 MSTORE PUSH1 0x5 SLOAD PUSH1 0x40 MLOAD PUSH1 0x4 SWAP4 PUSH2 0x6FF SWAP4 CALLER SWAP3 ADD SWAP3 DUP4 MSTORE PUSH1 0x60 SWAP2 SWAP1 SWAP2 SHL PUSH12 0xFFFFFFFFFFFFFFFFFFFFFFFF NOT AND PUSH1 0x20 DUP4 ADD MSTORE PUSH1 0x34 DUP3 ADD MSTORE PUSH1 0x54 ADD SWAP1 JUMP JUMPDEST PUSH1 0x40 MLOAD PUSH1 0x20 DUP2 DUP4 SUB SUB DUP2 MSTORE SWAP1 PUSH1 0x40 MSTORE DUP1 MLOAD SWAP1 PUSH1 0x20 ADD KECCAK256 PUSH1 0x0 SHR PUSH2 0x722 SWAP2 SWAP1 PUSH2 0x149F JUMP JUMPDEST PUSH1 0x3 DUP2 GT ISZERO PUSH2 0x733 JUMPI PUSH2 0x733 PUSH2 0x1234 JUMP JUMPDEST DUP2 PUSH1 0x60 ADD SWAP1 PUSH1 0x3 DUP2 GT ISZERO PUSH2 0x749 JUMPI PUSH2 0x749 PUSH2 0x1234 JUMP JUMPDEST SWAP1 DUP2 PUSH1 0x3 DUP2 GT ISZERO PUSH2 0x75C JUMPI PUSH2 0x75C PUSH2 0x1234 JUMP JUMPDEST SWAP1 MSTORE POP PUSH2 0xFFFF DUP1 DUP5 AND PUSH1 0x40 DUP1 DUP5 ADD SWAP2 DUP3 MSTORE PUSH1 0x5 SLOAD PUSH1 0x0 DUP8 DUP2 MSTORE PUSH1 0xA PUSH1 0x20 SWAP1 DUP2 MSTORE DUP4 DUP3 KECCAK256 DUP4 SWAP1 SSTORE SWAP2 DUP2 MSTORE PUSH1 0x9 DUP3 MSTORE SWAP2 SWAP1 SWAP2 KECCAK256 DUP5 MLOAD DUP2 SLOAD SWAP3 DUP7 ADD MLOAD SWAP4 MLOAD DUP6 AND PUSH1 0x1 PUSH1 0x38 SHL MUL PUSH2 0xFFFF PUSH1 0x38 SHL NOT PUSH5 0xFFFFFFFFFF SWAP1 SWAP6 AND PUSH3 0x10000 MUL PUSH7 0xFFFFFFFFFFFFFF NOT SWAP1 SWAP5 AND SWAP2 SWAP1 SWAP6 AND OR SWAP2 SWAP1 SWAP2 OR SWAP2 DUP3 AND DUP4 OR DUP2 SSTORE PUSH1 0x60 DUP5 ADD MLOAD DUP5 SWAP4 SWAP2 SWAP3 SWAP1 SWAP2 DUP4 SWAP2 PUSH10 0xFF000000000000000000 NOT SWAP1 SWAP2 AND PUSH10 0xFFFFFF00000000000000 NOT SWAP1 SWAP2 AND OR PUSH1 0x1 PUSH1 0x48 SHL DUP4 PUSH1 0x3 DUP2 GT ISZERO PUSH2 0x813 JUMPI PUSH2 0x813 PUSH2 0x1234 JUMP JUMPDEST MUL OR SWAP1 SSTORE POP POP PUSH1 0x5 SLOAD SWAP5 SWAP4 POP POP POP POP JUMP JUMPDEST PUSH1 0x1 SLOAD PUSH1 0x1 PUSH1 0x1 PUSH1 0xA0 SHL SUB AND CALLER EQ PUSH2 0x84E JUMPI PUSH1 0x40 MLOAD PUSH3 0x461BCD PUSH1 0xE5 SHL DUP2 MSTORE PUSH1 0x4 ADD PUSH2 0x418 SWAP1 PUSH2 0x14B3 JUMP JUMPDEST PUSH2 0x858 PUSH1 0x0 PUSH2 0x1190 JUMP JUMPDEST JUMP JUMPDEST PUSH1 0x8 SLOAD PUSH1 0x1 PUSH1 0x1 PUSH1 0xA0 SHL SUB AND CALLER EQ PUSH2 0x8C0 JUMPI PUSH1 0x40 MLOAD PUSH3 0x461BCD PUSH1 0xE5 SHL DUP2 MSTORE PUSH1 0x20 PUSH1 0x4 DUP3 ADD MSTORE PUSH1 0x24 DUP1 DUP3 ADD MSTORE PUSH32 0x4F6E6C7920626174746C65722063616E2063616C6C20746869732066756E6374 PUSH1 0x44 DUP3 ADD MSTORE PUSH4 0x34B7B717 PUSH1 0xE1 SHL PUSH1 0x64 DUP3 ADD MSTORE PUSH1 0x84 ADD PUSH2 0x418 JUMP JUMPDEST PUSH1 0x5 SLOAD DUP3 GT ISZERO DUP1 ISZERO PUSH2 0x8D4 JUMPI POP PUSH1 0x5 SLOAD DUP2 GT ISZERO JUMPDEST DUP1 ISZERO PUSH2 0x8E0 JUMPI POP DUP2 DUP2 EQ ISZERO JUMPDEST PUSH2 0x91B JUMPI PUSH1 0x40 MLOAD PUSH3 0x461BCD PUSH1 0xE5 SHL DUP2 MSTORE PUSH1 0x20 PUSH1 0x4 DUP3 ADD MSTORE PUSH1 0xC PUSH1 0x24 DUP3 ADD MSTORE PUSH12 0x1B5D5CDD081BDDDB88139195 PUSH1 0xA2 SHL PUSH1 0x44 DUP3 ADD MSTORE PUSH1 0x64 ADD PUSH2 0x418 JUMP JUMPDEST PUSH2 0x943 PUSH1 0x40 DUP1 MLOAD PUSH1 0x80 DUP2 ADD DUP3 MSTORE PUSH1 0x0 DUP1 DUP3 MSTORE PUSH1 0x20 DUP3 ADD DUP2 SWAP1 MSTORE SWAP2 DUP2 ADD DUP3 SWAP1 MSTORE SWAP1 PUSH1 0x60 DUP3 ADD MSTORE SWAP1 JUMP JUMPDEST POP PUSH1 0x0 DUP3 DUP2 MSTORE PUSH1 0x9 PUSH1 0x20 SWAP1 DUP2 MSTORE PUSH1 0x40 DUP1 DUP4 KECCAK256 DUP1 SLOAD DUP6 DUP6 MSTORE DUP3 DUP6 KECCAK256 DUP1 SLOAD PUSH2 0xFFFF PUSH1 0x38 SHL NOT DUP1 DUP5 AND PUSH2 0xFFFF PUSH1 0x1 PUSH1 0x38 SHL SWAP4 DUP5 SWAP1 DIV DUP2 AND DUP5 MUL SWAP2 SWAP1 SWAP2 OR DUP7 SSTORE DUP4 SLOAD SWAP1 SWAP2 AND SWAP4 DUP3 SWAP1 DIV DUP2 AND DUP1 DUP4 MUL SWAP5 SWAP1 SWAP5 OR SWAP1 SWAP3 SSTORE SWAP3 SLOAD SWAP3 SWAP1 SWAP3 DIV SWAP1 SWAP2 AND DUP5 MSTORE PUSH1 0xA SWAP1 SWAP3 MSTORE DUP1 DUP4 KECCAK256 SWAP5 SWAP1 SWAP5 SSTORE DUP2 MSTORE SWAP2 SWAP1 SWAP2 KECCAK256 SSTORE JUMP JUMPDEST PUSH1 0x0 PUSH2 0x9BF DUP3 PUSH2 0x1005 JUMP JUMPDEST SWAP3 SWAP2 POP POP JUMP JUMPDEST PUSH1 0x1 SLOAD PUSH1 0x1 PUSH1 0x1 PUSH1 0xA0 SHL SUB AND CALLER EQ PUSH2 0x9EF JUMPI PUSH1 0x40 MLOAD PUSH3 0x461BCD PUSH1 0xE5 SHL DUP2 MSTORE PUSH1 0x4 ADD PUSH2 0x418 SWAP1 PUSH2 0x14B3 JUMP JUMPDEST PUSH1 0x1 PUSH1 0x1 PUSH1 0xA0 SHL SUB DUP2 AND ISZERO DUP1 ISZERO SWAP1 PUSH2 0xA15 JUMPI POP PUSH1 0x7 SLOAD PUSH1 0x1 PUSH1 0x1 PUSH1 0xA0 SHL SUB DUP3 DUP2 AND SWAP2 AND EQ ISZERO JUMPDEST PUSH2 0xA5C JUMPI PUSH1 0x40 MLOAD PUSH3 0x461BCD PUSH1 0xE5 SHL DUP2 MSTORE PUSH1 0x20 PUSH1 0x4 DUP3 ADD MSTORE PUSH1 0x18 PUSH1 0x24 DUP3 ADD MSTORE PUSH24 0x496E76616C6964206F70657261746F722061646472657373 PUSH1 0x40 SHL PUSH1 0x44 DUP3 ADD MSTORE PUSH1 0x64 ADD PUSH2 0x418 JUMP JUMPDEST PUSH1 0x7 DUP1 SLOAD PUSH1 0x1 PUSH1 0x1 PUSH1 0xA0 SHL SUB NOT AND PUSH1 0x1 PUSH1 0x1 PUSH1 0xA0 SHL SUB DUP4 AND SWAP1 DUP2 OR SWAP1 SWAP2 SSTORE PUSH1 0x40 MLOAD SWAP1 DUP2 MSTORE PUSH32 0xDA12EE837E6978172AAF54B16145FFE08414FD8710092EF033C71B8EB6EC189A SWAP1 PUSH1 0x20 ADD JUMPDEST PUSH1 0x40 MLOAD DUP1 SWAP2 SUB SWAP1 LOG1 POP JUMP JUMPDEST PUSH1 0x1 SLOAD PUSH1 0x1 PUSH1 0x1 PUSH1 0xA0 SHL SUB AND CALLER EQ PUSH2 0xADB JUMPI PUSH1 0x40 MLOAD PUSH3 0x461BCD PUSH1 0xE5 SHL DUP2 MSTORE PUSH1 0x4 ADD PUSH2 0x418 SWAP1 PUSH2 0x14B3 JUMP JUMPDEST DUP1 MLOAD ISZERO DUP1 ISZERO SWAP1 PUSH2 0xAF6 JUMPI POP PUSH1 0x2 DUP2 MLOAD PUSH2 0xAF4 SWAP2 SWAP1 PUSH2 0x149F JUMP JUMPDEST ISZERO JUMPDEST PUSH2 0xB37 JUMPI PUSH1 0x40 MLOAD PUSH3 0x461BCD PUSH1 0xE5 SHL DUP2 MSTORE PUSH1 0x20 PUSH1 0x4 DUP3 ADD MSTORE PUSH1 0x12 PUSH1 0x24 DUP3 ADD MSTORE PUSH18 0x34B73B30B634B210333637B7B910383630B7 PUSH1 0x71 SHL PUSH1 0x44 DUP3 ADD MSTORE PUSH1 0x64 ADD PUSH2 0x418 JUMP JUMPDEST PUSH2 0xB43 PUSH1 0xB PUSH1 0x0 PUSH2 0x11E2 JUMP JUMPDEST PUSH1 0x40 DUP1 MLOAD DUP1 DUP3 ADD SWAP1 SWAP2 MSTORE PUSH1 0x0 DUP1 DUP3 MSTORE PUSH1 0x20 DUP3 ADD MSTORE PUSH1 0x0 JUMPDEST DUP3 MLOAD DUP2 LT ISZERO PUSH2 0xC17 JUMPI DUP3 DUP2 DUP2 MLOAD DUP2 LT PUSH2 0xB75 JUMPI PUSH2 0xB75 PUSH2 0x14E8 JUMP JUMPDEST PUSH1 0x20 SWAP1 DUP2 MUL SWAP2 SWAP1 SWAP2 ADD ADD MLOAD PUSH2 0xFFFF AND DUP3 MSTORE DUP3 PUSH2 0xB92 DUP3 PUSH1 0x1 PUSH2 0x1471 JUMP JUMPDEST DUP2 MLOAD DUP2 LT PUSH2 0xBA2 JUMPI PUSH2 0xBA2 PUSH2 0x14E8 JUMP JUMPDEST PUSH1 0x20 SWAP1 DUP2 MUL SWAP2 SWAP1 SWAP2 ADD DUP2 ADD MLOAD PUSH2 0xFFFF SWAP1 DUP2 AND SWAP2 DUP5 ADD SWAP2 DUP3 MSTORE PUSH1 0xB DUP1 SLOAD PUSH1 0x1 DUP2 ADD DUP3 SSTORE PUSH1 0x0 SWAP2 SWAP1 SWAP2 MSTORE DUP5 MLOAD PUSH32 0x175B7A638427703F0DBE7BB9BBF987A2551717B34E79F33B5B1008D1FA01DB9 SWAP1 SWAP2 ADD DUP1 SLOAD SWAP4 MLOAD DUP4 AND PUSH3 0x10000 MUL PUSH4 0xFFFFFFFF NOT SWAP1 SWAP5 AND SWAP2 SWAP1 SWAP3 AND OR SWAP2 SWAP1 SWAP2 OR SWAP1 SSTORE PUSH1 0x2 ADD PUSH2 0xB5A JUMP JUMPDEST POP POP POP JUMP JUMPDEST PUSH1 0x1 SLOAD PUSH1 0x1 PUSH1 0x1 PUSH1 0xA0 SHL SUB AND CALLER EQ PUSH2 0xC46 JUMPI PUSH1 0x40 MLOAD PUSH3 0x461BCD PUSH1 0xE5 SHL DUP2 MSTORE PUSH1 0x4 ADD PUSH2 0x418 SWAP1 PUSH2 0x14B3 JUMP JUMPDEST PUSH1 0x2 SLOAD PUSH1 0x40 MLOAD PUSH4 0x70A08231 PUSH1 0xE0 SHL DUP2 MSTORE ADDRESS PUSH1 0x4 DUP3 ADD MSTORE PUSH1 0x0 SWAP2 PUSH1 0x1 PUSH1 0x1 PUSH1 0xA0 SHL SUB AND SWAP1 PUSH4 0x70A08231 SWAP1 PUSH1 0x24 ADD PUSH1 0x20 PUSH1 0x40 MLOAD DUP1 DUP4 SUB DUP2 DUP7 GAS STATICCALL ISZERO DUP1 ISZERO PUSH2 0xC8F JUMPI RETURNDATASIZE PUSH1 0x0 DUP1 RETURNDATACOPY RETURNDATASIZE PUSH1 0x0 REVERT JUMPDEST POP POP POP POP PUSH1 0x40 MLOAD RETURNDATASIZE PUSH1 0x1F NOT PUSH1 0x1F DUP3 ADD AND DUP3 ADD DUP1 PUSH1 0x40 MSTORE POP DUP2 ADD SWAP1 PUSH2 0xCB3 SWAP2 SWAP1 PUSH2 0x13D4 JUMP JUMPDEST PUSH1 0x2 SLOAD PUSH1 0x40 MLOAD PUSH4 0xA9059CBB PUSH1 0xE0 SHL DUP2 MSTORE CALLER PUSH1 0x4 DUP3 ADD MSTORE PUSH1 0x24 DUP2 ADD DUP4 SWAP1 MSTORE SWAP2 SWAP3 POP PUSH1 0x1 PUSH1 0x1 PUSH1 0xA0 SHL SUB AND SWAP1 PUSH4 0xA9059CBB SWAP1 PUSH1 0x44 ADD PUSH1 0x20 PUSH1 0x40 MLOAD DUP1 DUP4 SUB DUP2 PUSH1 0x0 DUP8 GAS CALL ISZERO DUP1 ISZERO PUSH2 0xD05 JUMPI RETURNDATASIZE PUSH1 0x0 DUP1 RETURNDATACOPY RETURNDATASIZE PUSH1 0x0 REVERT JUMPDEST POP POP POP POP PUSH1 0x40 MLOAD RETURNDATASIZE PUSH1 0x1F NOT PUSH1 0x1F DUP3 ADD AND DUP3 ADD DUP1 PUSH1 0x40 MSTORE POP DUP2 ADD SWAP1 PUSH2 0xD29 SWAP2 SWAP1 PUSH2 0x13ED JUMP JUMPDEST PUSH2 0xD45 JUMPI PUSH1 0x40 MLOAD PUSH3 0x461BCD PUSH1 0xE5 SHL DUP2 MSTORE PUSH1 0x4 ADD PUSH2 0x418 SWAP1 PUSH2 0x140F JUMP JUMPDEST PUSH1 0x40 MLOAD DUP2 DUP2 MSTORE CALLER SWAP1 PUSH32 0xD52E6A96125965761D3461FF1F2C72DF610AB6BC2584AC9F076B45B585F049F SWAP1 PUSH1 0x20 ADD PUSH1 0x40 MLOAD DUP1 SWAP2 SUB SWAP1 LOG2 POP JUMP JUMPDEST PUSH1 0x1 SLOAD PUSH1 0x1 PUSH1 0x1 PUSH1 0xA0 SHL SUB AND CALLER EQ PUSH2 0xDA7 JUMPI PUSH1 0x40 MLOAD PUSH3 0x461BCD PUSH1 0xE5 SHL DUP2 MSTORE PUSH1 0x4 ADD PUSH2 0x418 SWAP1 PUSH2 0x14B3 JUMP JUMPDEST PUSH1 0x1 PUSH1 0x1 PUSH1 0xA0 SHL SUB DUP2 AND ISZERO DUP1 ISZERO SWAP1 PUSH2 0xDCD JUMPI POP PUSH1 0x8 SLOAD PUSH1 0x1 PUSH1 0x1 PUSH1 0xA0 SHL SUB DUP3 DUP2 AND SWAP2 AND EQ ISZERO JUMPDEST PUSH2 0xE14 JUMPI PUSH1 0x40 MLOAD PUSH3 0x461BCD PUSH1 0xE5 SHL DUP2 MSTORE PUSH1 0x20 PUSH1 0x4 DUP3 ADD MSTORE PUSH1 0x18 PUSH1 0x24 DUP3 ADD MSTORE PUSH24 0x496E76616C6964206F70657261746F722061646472657373 PUSH1 0x40 SHL PUSH1 0x44 DUP3 ADD MSTORE PUSH1 0x64 ADD PUSH2 0x418 JUMP JUMPDEST PUSH1 0x8 DUP1 SLOAD PUSH1 0x1 PUSH1 0x1 PUSH1 0xA0 SHL SUB NOT AND PUSH1 0x1 PUSH1 0x1 PUSH1 0xA0 SHL SUB DUP4 AND SWAP1 DUP2 OR SWAP1 SWAP2 SSTORE PUSH1 0x40 MLOAD SWAP1 DUP2 MSTORE PUSH32 0xA6996D36756222F1028B4A1A97CBFA625158CF8E69AC5DCF367DE3BD730D34A4 SWAP1 PUSH1 0x20 ADD PUSH2 0xAA6 JUMP JUMPDEST PUSH1 0x0 DUP1 PUSH1 0x0 JUMPDEST PUSH1 0xB SLOAD DUP2 LT ISZERO PUSH2 0xF49 JUMPI DUP4 PUSH1 0xB DUP3 DUP2 SLOAD DUP2 LT PUSH2 0xE86 JUMPI PUSH2 0xE86 PUSH2 0x14E8 JUMP JUMPDEST PUSH1 0x0 SWAP2 DUP3 MSTORE PUSH1 0x20 SWAP1 SWAP2 KECCAK256 ADD SLOAD PUSH2 0xFFFF AND GT DUP1 ISZERO SWAP1 PUSH2 0xECC JUMPI POP PUSH1 0xB DUP2 DUP2 SLOAD DUP2 LT PUSH2 0xEB2 JUMPI PUSH2 0xEB2 PUSH2 0x14E8 JUMP JUMPDEST PUSH1 0x0 SWAP2 DUP3 MSTORE PUSH1 0x20 SWAP1 SWAP2 KECCAK256 ADD SLOAD PUSH3 0x10000 SWAP1 DIV PUSH2 0xFFFF AND DUP5 GT ISZERO JUMPDEST ISZERO PUSH2 0xF41 JUMPI PUSH1 0xB DUP2 DUP2 SLOAD DUP2 LT PUSH2 0xEE4 JUMPI PUSH2 0xEE4 PUSH2 0x14E8 JUMP JUMPDEST PUSH1 0x0 SWAP2 DUP3 MSTORE PUSH1 0x20 SWAP1 SWAP2 KECCAK256 ADD SLOAD PUSH1 0xB DUP1 SLOAD PUSH2 0xFFFF SWAP1 SWAP3 AND SWAP2 DUP4 SWAP1 DUP2 LT PUSH2 0xF0B JUMPI PUSH2 0xF0B PUSH2 0x14E8 JUMP JUMPDEST PUSH1 0x0 SWAP2 DUP3 MSTORE PUSH1 0x20 SWAP1 SWAP2 KECCAK256 ADD SLOAD PUSH2 0xF2B SWAP2 SWAP1 PUSH3 0x10000 SWAP1 DIV PUSH2 0xFFFF AND PUSH2 0x14FE JUMP JUMPDEST PUSH2 0xF36 SWAP1 PUSH1 0x1 PUSH2 0x1521 JUMP JUMPDEST PUSH2 0xFFFF AND SWAP2 POP PUSH2 0xF49 JUMP JUMPDEST PUSH1 0x1 ADD PUSH2 0xE68 JUMP JUMPDEST POP DUP1 PUSH1 0x5 SLOAD PUSH3 0xF4240 PUSH2 0xF5C SWAP2 SWAP1 PUSH2 0x1547 JUMP JUMPDEST PUSH2 0xF66 SWAP2 SWAP1 PUSH2 0x1547 JUMP JUMPDEST SWAP4 SWAP3 POP POP POP JUMP JUMPDEST PUSH1 0x1 SLOAD PUSH1 0x1 PUSH1 0x1 PUSH1 0xA0 SHL SUB AND CALLER EQ PUSH2 0xF97 JUMPI PUSH1 0x40 MLOAD PUSH3 0x461BCD PUSH1 0xE5 SHL DUP2 MSTORE PUSH1 0x4 ADD PUSH2 0x418 SWAP1 PUSH2 0x14B3 JUMP JUMPDEST PUSH1 0x1 PUSH1 0x1 PUSH1 0xA0 SHL SUB DUP2 AND PUSH2 0xFFC JUMPI PUSH1 0x40 MLOAD PUSH3 0x461BCD PUSH1 0xE5 SHL DUP2 MSTORE PUSH1 0x20 PUSH1 0x4 DUP3 ADD MSTORE PUSH1 0x26 PUSH1 0x24 DUP3 ADD MSTORE PUSH32 0x4F776E61626C653A206E6577206F776E657220697320746865207A65726F2061 PUSH1 0x44 DUP3 ADD MSTORE PUSH6 0x646472657373 PUSH1 0xD0 SHL PUSH1 0x64 DUP3 ADD MSTORE PUSH1 0x84 ADD PUSH2 0x418 JUMP JUMPDEST PUSH2 0x212 DUP2 PUSH2 0x1190 JUMP JUMPDEST PUSH1 0x0 PUSH1 0x5 SLOAD DUP3 LT PUSH2 0x1015 JUMPI PUSH1 0x0 DUP1 REVERT JUMPDEST PUSH1 0x0 DUP3 DUP2 MSTORE PUSH1 0x9 PUSH1 0x20 SWAP1 DUP2 MSTORE PUSH1 0x40 DUP1 DUP4 KECCAK256 DUP2 MLOAD PUSH1 0x80 DUP2 ADD DUP4 MSTORE DUP2 SLOAD PUSH2 0xFFFF DUP1 DUP3 AND DUP4 MSTORE PUSH3 0x10000 DUP3 DIV PUSH5 0xFFFFFFFFFF AND SWAP6 DUP4 ADD SWAP6 SWAP1 SWAP6 MSTORE PUSH1 0x1 PUSH1 0x38 SHL DUP2 DIV SWAP1 SWAP5 AND SWAP3 DUP2 ADD SWAP3 SWAP1 SWAP3 MSTORE SWAP1 SWAP2 PUSH1 0x60 DUP4 ADD SWAP1 PUSH1 0x1 PUSH1 0x48 SHL SWAP1 DIV PUSH1 0xFF AND PUSH1 0x3 DUP2 GT ISZERO PUSH2 0x107F JUMPI PUSH2 0x107F PUSH2 0x1234 JUMP JUMPDEST PUSH1 0x3 DUP2 GT ISZERO PUSH2 0x1090 JUMPI PUSH2 0x1090 PUSH2 0x1234 JUMP JUMPDEST DUP2 MSTORE POP POP SWAP1 POP PUSH1 0x0 DUP2 PUSH1 0x20 ADD MLOAD PUSH5 0xFFFFFFFFFF AND PUSH1 0x0 EQ PUSH2 0x10BC JUMPI DUP2 PUSH1 0x20 ADD MLOAD PUSH5 0xFFFFFFFFFF AND PUSH2 0x10C0 JUMP JUMPDEST PUSH1 0x6 SLOAD JUMPDEST SWAP1 POP PUSH3 0xF4240 PUSH1 0x5 SLOAD PUSH1 0x6 SLOAD TIMESTAMP PUSH2 0x10D7 SWAP2 SWAP1 PUSH2 0x155B JUMP JUMPDEST PUSH2 0x10E1 SWAP2 SWAP1 PUSH2 0x1572 JUMP JUMPDEST PUSH1 0x2 SLOAD PUSH1 0x40 MLOAD PUSH4 0x70A08231 PUSH1 0xE0 SHL DUP2 MSTORE ADDRESS PUSH1 0x4 DUP3 ADD MSTORE PUSH1 0x1 PUSH1 0x1 PUSH1 0xA0 SHL SUB SWAP1 SWAP2 AND SWAP1 PUSH4 0x70A08231 SWAP1 PUSH1 0x24 ADD PUSH1 0x20 PUSH1 0x40 MLOAD DUP1 DUP4 SUB DUP2 DUP7 GAS STATICCALL ISZERO DUP1 ISZERO PUSH2 0x1129 JUMPI RETURNDATASIZE PUSH1 0x0 DUP1 RETURNDATACOPY RETURNDATASIZE PUSH1 0x0 REVERT JUMPDEST POP POP POP POP PUSH1 0x40 MLOAD RETURNDATASIZE PUSH1 0x1F NOT PUSH1 0x1F DUP3 ADD AND DUP3 ADD DUP1 PUSH1 0x40 MSTORE POP DUP2 ADD SWAP1 PUSH2 0x114D SWAP2 SWAP1 PUSH2 0x13D4 JUMP JUMPDEST PUSH2 0x1156 DUP8 PUSH2 0xE62 JUMP JUMPDEST PUSH2 0x1160 DUP6 TIMESTAMP PUSH2 0x155B JUMP JUMPDEST PUSH2 0x116A SWAP2 SWAP1 PUSH2 0x1572 JUMP JUMPDEST PUSH2 0x1174 SWAP2 SWAP1 PUSH2 0x1572 JUMP JUMPDEST PUSH2 0x117E SWAP2 SWAP1 PUSH2 0x1547 JUMP JUMPDEST PUSH2 0x1188 SWAP2 SWAP1 PUSH2 0x1547 JUMP JUMPDEST SWAP5 SWAP4 POP POP POP POP JUMP JUMPDEST PUSH1 0x1 DUP1 SLOAD PUSH1 0x1 PUSH1 0x1 PUSH1 0xA0 SHL SUB DUP4 DUP2 AND PUSH1 0x1 PUSH1 0x1 PUSH1 0xA0 SHL SUB NOT DUP4 AND DUP2 OR SWAP1 SWAP4 SSTORE PUSH1 0x40 MLOAD SWAP2 AND SWAP2 SWAP1 DUP3 SWAP1 PUSH32 0x8BE0079C531659141344CD1FD0A4F28419497F9722A3DAAFE3B4186F6B6457E0 SWAP1 PUSH1 0x0 SWAP1 LOG3 POP POP JUMP JUMPDEST POP DUP1 SLOAD PUSH1 0x0 DUP3 SSTORE SWAP1 PUSH1 0x0 MSTORE PUSH1 0x20 PUSH1 0x0 KECCAK256 SWAP1 DUP2 ADD SWAP1 PUSH2 0x212 SWAP2 SWAP1 JUMPDEST DUP1 DUP3 GT ISZERO PUSH2 0x1217 JUMPI DUP1 SLOAD PUSH4 0xFFFFFFFF NOT AND DUP2 SSTORE PUSH1 0x1 ADD PUSH2 0x11FC JUMP JUMPDEST POP SWAP1 JUMP JUMPDEST PUSH1 0x0 PUSH1 0x20 DUP3 DUP5 SUB SLT ISZERO PUSH2 0x122D JUMPI PUSH1 0x0 DUP1 REVERT JUMPDEST POP CALLDATALOAD SWAP2 SWAP1 POP JUMP JUMPDEST PUSH4 0x4E487B71 PUSH1 0xE0 SHL PUSH1 0x0 MSTORE PUSH1 0x21 PUSH1 0x4 MSTORE PUSH1 0x24 PUSH1 0x0 REVERT JUMPDEST PUSH2 0xFFFF DUP6 DUP2 AND DUP3 MSTORE PUSH5 0xFFFFFFFFFF DUP6 AND PUSH1 0x20 DUP4 ADD MSTORE DUP4 AND PUSH1 0x40 DUP3 ADD MSTORE PUSH1 0x80 DUP2 ADD PUSH1 0x4 DUP4 LT PUSH2 0x1288 JUMPI PUSH4 0x4E487B71 PUSH1 0xE0 SHL PUSH1 0x0 MSTORE PUSH1 0x21 PUSH1 0x4 MSTORE PUSH1 0x24 PUSH1 0x0 REVERT JUMPDEST DUP3 PUSH1 0x60 DUP4 ADD MSTORE SWAP6 SWAP5 POP POP POP POP POP JUMP JUMPDEST PUSH1 0x0 DUP1 PUSH1 0x40 DUP4 DUP6 SUB SLT ISZERO PUSH2 0x12AA JUMPI PUSH1 0x0 DUP1 REVERT JUMPDEST POP POP DUP1 CALLDATALOAD SWAP3 PUSH1 0x20 SWAP1 SWAP2 ADD CALLDATALOAD SWAP2 POP JUMP JUMPDEST PUSH1 0x0 PUSH1 0x20 DUP3 DUP5 SUB SLT ISZERO PUSH2 0x12CB JUMPI PUSH1 0x0 DUP1 REVERT JUMPDEST DUP2 CALLDATALOAD PUSH1 0x1 PUSH1 0x1 PUSH1 0xA0 SHL SUB DUP2 AND DUP2 EQ PUSH2 0xF66 JUMPI PUSH1 0x0 DUP1 REVERT JUMPDEST PUSH4 0x4E487B71 PUSH1 0xE0 SHL PUSH1 0x0 MSTORE PUSH1 0x41 PUSH1 0x4 MSTORE PUSH1 0x24 PUSH1 0x0 REVERT JUMPDEST DUP1 CALLDATALOAD PUSH2 0xFFFF DUP2 AND DUP2 EQ PUSH2 0x130A JUMPI PUSH1 0x0 DUP1 REVERT JUMPDEST SWAP2 SWAP1 POP JUMP JUMPDEST PUSH1 0x0 PUSH1 0x20 DUP1 DUP4 DUP6 SUB SLT ISZERO PUSH2 0x1322 JUMPI PUSH1 0x0 DUP1 REVERT JUMPDEST DUP3 CALLDATALOAD PUSH8 0xFFFFFFFFFFFFFFFF DUP1 DUP3 GT ISZERO PUSH2 0x133A JUMPI PUSH1 0x0 DUP1 REVERT JUMPDEST DUP2 DUP6 ADD SWAP2 POP DUP6 PUSH1 0x1F DUP4 ADD SLT PUSH2 0x134E JUMPI PUSH1 0x0 DUP1 REVERT JUMPDEST DUP2 CALLDATALOAD DUP2 DUP2 GT ISZERO PUSH2 0x1360 JUMPI PUSH2 0x1360 PUSH2 0x12E2 JUMP JUMPDEST DUP1 PUSH1 0x5 SHL PUSH1 0x40 MLOAD PUSH1 0x1F NOT PUSH1 0x3F DUP4 ADD AND DUP2 ADD DUP2 DUP2 LT DUP6 DUP3 GT OR ISZERO PUSH2 0x1385 JUMPI PUSH2 0x1385 PUSH2 0x12E2 JUMP JUMPDEST PUSH1 0x40 MSTORE SWAP2 DUP3 MSTORE DUP5 DUP3 ADD SWAP3 POP DUP4 DUP2 ADD DUP6 ADD SWAP2 DUP9 DUP4 GT ISZERO PUSH2 0x13A3 JUMPI PUSH1 0x0 DUP1 REVERT JUMPDEST SWAP4 DUP6 ADD SWAP4 JUMPDEST DUP3 DUP6 LT ISZERO PUSH2 0x13C8 JUMPI PUSH2 0x13B9 DUP6 PUSH2 0x12F8 JUMP JUMPDEST DUP5 MSTORE SWAP4 DUP6 ADD SWAP4 SWAP3 DUP6 ADD SWAP3 PUSH2 0x13A8 JUMP JUMPDEST SWAP9 SWAP8 POP POP POP POP POP POP POP POP JUMP JUMPDEST PUSH1 0x0 PUSH1 0x20 DUP3 DUP5 SUB SLT ISZERO PUSH2 0x13E6 JUMPI PUSH1 0x0 DUP1 REVERT JUMPDEST POP MLOAD SWAP2 SWAP1 POP JUMP JUMPDEST PUSH1 0x0 PUSH1 0x20 DUP3 DUP5 SUB SLT ISZERO PUSH2 0x13FF JUMPI PUSH1 0x0 DUP1 REVERT JUMPDEST DUP2 MLOAD DUP1 ISZERO ISZERO DUP2 EQ PUSH2 0xF66 JUMPI PUSH1 0x0 DUP1 REVERT JUMPDEST PUSH1 0x20 DUP1 DUP3 MSTORE PUSH1 0x2C SWAP1 DUP3 ADD MSTORE PUSH32 0x556E61626C6520746F207472616E7366657220746F6B656E206261636B20746F PUSH1 0x40 DUP3 ADD MSTORE PUSH12 0x81D1A19481858D8DBDD5B9D PUSH1 0xA2 SHL PUSH1 0x60 DUP3 ADD MSTORE PUSH1 0x80 ADD SWAP1 JUMP JUMPDEST PUSH4 0x4E487B71 PUSH1 0xE0 SHL PUSH1 0x0 MSTORE PUSH1 0x11 PUSH1 0x4 MSTORE PUSH1 0x24 PUSH1 0x0 REVERT JUMPDEST PUSH1 0x0 DUP3 NOT DUP3 GT ISZERO PUSH2 0x1484 JUMPI PUSH2 0x1484 PUSH2 0x145B JUMP JUMPDEST POP ADD SWAP1 JUMP JUMPDEST PUSH4 0x4E487B71 PUSH1 0xE0 SHL PUSH1 0x0 MSTORE PUSH1 0x12 PUSH1 0x4 MSTORE PUSH1 0x24 PUSH1 0x0 REVERT JUMPDEST PUSH1 0x0 DUP3 PUSH2 0x14AE JUMPI PUSH2 0x14AE PUSH2 0x1489 JUMP JUMPDEST POP MOD SWAP1 JUMP JUMPDEST PUSH1 0x20 DUP1 DUP3 MSTORE DUP2 DUP2 ADD MSTORE PUSH32 0x4F776E61626C653A2063616C6C6572206973206E6F7420746865206F776E6572 PUSH1 0x40 DUP3 ADD MSTORE PUSH1 0x60 ADD SWAP1 JUMP JUMPDEST PUSH4 0x4E487B71 PUSH1 0xE0 SHL PUSH1 0x0 MSTORE PUSH1 0x32 PUSH1 0x4 MSTORE PUSH1 0x24 PUSH1 0x0 REVERT JUMPDEST PUSH1 0x0 PUSH2 0xFFFF DUP4 DUP2 AND SWAP1 DUP4 AND DUP2 DUP2 LT ISZERO PUSH2 0x1519 JUMPI PUSH2 0x1519 PUSH2 0x145B JUMP JUMPDEST SUB SWAP4 SWAP3 POP POP POP JUMP JUMPDEST PUSH1 0x0 PUSH2 0xFFFF DUP1 DUP4 AND DUP2 DUP6 AND DUP1 DUP4 SUB DUP3 GT ISZERO PUSH2 0x153E JUMPI PUSH2 0x153E PUSH2 0x145B JUMP JUMPDEST ADD SWAP5 SWAP4 POP POP POP POP JUMP JUMPDEST PUSH1 0x0 DUP3 PUSH2 0x1556 JUMPI PUSH2 0x1556 PUSH2 0x1489 JUMP JUMPDEST POP DIV SWAP1 JUMP JUMPDEST PUSH1 0x0 DUP3 DUP3 LT ISZERO PUSH2 0x156D JUMPI PUSH2 0x156D PUSH2 0x145B JUMP JUMPDEST POP SUB SWAP1 JUMP JUMPDEST PUSH1 0x0 DUP2 PUSH1 0x0 NOT DIV DUP4 GT DUP3 ISZERO ISZERO AND ISZERO PUSH2 0x158C JUMPI PUSH2 0x158C PUSH2 0x145B JUMP JUMPDEST POP MUL SWAP1 JUMP INVALID LOG2 PUSH5 0x6970667358 0x22 SLT KECCAK256 0xFC 0xAD JUMP TIMESTAMP PUSH1 0xA2 0xE9 PUSH30 0x6DD61DAC5AED8EF18492B6E5DFF3D618CEDC15998F76952964736F6C6343 STOP ADDMOD 0xC STOP CALLER ",
  "sha1": "233ac324138cf7de427cb2b909127e90a463043d",
  "source": "pragma solidity ^0.8.0;\n// SPDX-License-Identifier: UNLICENSED\n\n// This will be where wizards receive ecosystem tokens\nimport \"./interfaces/IERC20.sol\";\nimport \"./interfaces/IERC721.sol\";\nimport \"./RelativeTimeVault.sol\";\n\n\ncontract WizardTower is RelativeTimeVault {\n\n    uint256 floors = 10000;\n//    IERC20 ecosystemToken;\n//    IERC721 wizardToken;\n\n    constructor(address _ecosystemToken, address _wizardToken) RelativeTimeVault(_ecosystemToken, _wizardToken) {\n//        ecosystemToken = IERC20(_ecosystemToken);\n//        wizardToken = IERC721(_wizardToken);\n    }\n\n    ////////////////////\n    ////    Get       //\n    ////////////////////\n\n\n    ////////////////////\n    ////    Battle    //\n    ////////////////////\n\n    function attack(uint256 floor) external { }\n\n\n    ////////////////////\n    ////    Admin     //\n    ////////////////////\n\n\n\n}\n",
  "sourcePath": "contracts/WizardTower.sol",
  "type": "contract"
}